{
  "_format": "hh-sol-artifact-1",
  "contractName": "StrategyControllerLens",
  "sourceName": "contracts/StrategyControllerLens.sol",
  "abi": [
    {
      "inputs": [
        {
          "internalType": "address",
          "name": "controller_",
          "type": "address"
        },
        {
          "internalType": "address",
          "name": "weth_",
          "type": "address"
        },
        {
          "internalType": "address",
          "name": "factory_",
          "type": "address"
        }
      ],
      "stateMutability": "nonpayable",
      "type": "constructor"
    },
    {
      "stateMutability": "payable",
      "type": "fallback"
    },
    {
      "inputs": [
        {
          "internalType": "uint256",
          "name": "msgValue",
          "type": "uint256"
        },
        {
          "internalType": "string",
          "name": "name",
          "type": "string"
        },
        {
          "internalType": "string",
          "name": "symbol",
          "type": "string"
        },
        {
          "components": [
            {
              "internalType": "address",
              "name": "item",
              "type": "address"
            },
            {
              "internalType": "int256",
              "name": "percentage",
              "type": "int256"
            },
            {
              "components": [
                {
                  "internalType": "address[]",
                  "name": "adapters",
                  "type": "address[]"
                },
                {
                  "internalType": "address[]",
                  "name": "path",
                  "type": "address[]"
                },
                {
                  "internalType": "bytes",
                  "name": "cache",
                  "type": "bytes"
                }
              ],
              "internalType": "struct StrategyTypes.TradeData",
              "name": "data",
              "type": "tuple"
            }
          ],
          "internalType": "struct StrategyTypes.StrategyItem[]",
          "name": "strategyItems",
          "type": "tuple[]"
        },
        {
          "components": [
            {
              "internalType": "uint32",
              "name": "timelock",
              "type": "uint32"
            },
            {
              "internalType": "uint16",
              "name": "rebalanceThreshold",
              "type": "uint16"
            },
            {
              "internalType": "uint16",
              "name": "rebalanceSlippage",
              "type": "uint16"
            },
            {
              "internalType": "uint16",
              "name": "restructureSlippage",
              "type": "uint16"
            },
            {
              "internalType": "uint16",
              "name": "managementFee",
              "type": "uint16"
            },
            {
              "internalType": "bool",
              "name": "social",
              "type": "bool"
            },
            {
              "internalType": "bool",
              "name": "set",
              "type": "bool"
            }
          ],
          "internalType": "struct StrategyTypes.InitialState",
          "name": "strategyState",
          "type": "tuple"
        },
        {
          "internalType": "address",
          "name": "router",
          "type": "address"
        },
        {
          "internalType": "bytes",
          "name": "data",
          "type": "bytes"
        }
      ],
      "name": "_estimateCreateStrategy",
      "outputs": [
        {
          "internalType": "uint256",
          "name": "value",
          "type": "uint256"
        }
      ],
      "stateMutability": "nonpayable",
      "type": "function"
    },
    {
      "inputs": [
        {
          "internalType": "contract IStrategy",
          "name": "strategy",
          "type": "address"
        },
        {
          "internalType": "contract IStrategyRouter",
          "name": "router",
          "type": "address"
        },
        {
          "internalType": "uint256",
          "name": "amount",
          "type": "uint256"
        },
        {
          "internalType": "uint256",
          "name": "slippage",
          "type": "uint256"
        },
        {
          "internalType": "bytes",
          "name": "data",
          "type": "bytes"
        }
      ],
      "name": "_estimateDeposit",
      "outputs": [
        {
          "internalType": "uint256",
          "name": "valueAdded",
          "type": "uint256"
        }
      ],
      "stateMutability": "nonpayable",
      "type": "function"
    },
    {
      "inputs": [
        {
          "internalType": "contract IStrategy",
          "name": "strategy",
          "type": "address"
        },
        {
          "internalType": "contract IStrategyRouter",
          "name": "router",
          "type": "address"
        },
        {
          "internalType": "uint256",
          "name": "amount",
          "type": "uint256"
        },
        {
          "internalType": "uint256",
          "name": "slippage",
          "type": "uint256"
        },
        {
          "internalType": "bytes",
          "name": "data",
          "type": "bytes"
        }
      ],
      "name": "_estimateWithdrawWETH",
      "outputs": [
        {
          "internalType": "string",
          "name": "",
          "type": "string"
        }
      ],
      "stateMutability": "nonpayable",
      "type": "function"
    },
    {
      "inputs": [],
      "name": "controller",
      "outputs": [
        {
          "internalType": "contract IStrategyController",
          "name": "",
          "type": "address"
        }
      ],
      "stateMutability": "view",
      "type": "function"
    },
    {
      "inputs": [
        {
          "internalType": "uint256",
          "name": "msgValue",
          "type": "uint256"
        },
        {
          "internalType": "string",
          "name": "name",
          "type": "string"
        },
        {
          "internalType": "string",
          "name": "symbol",
          "type": "string"
        },
        {
          "components": [
            {
              "internalType": "address",
              "name": "item",
              "type": "address"
            },
            {
              "internalType": "int256",
              "name": "percentage",
              "type": "int256"
            },
            {
              "components": [
                {
                  "internalType": "address[]",
                  "name": "adapters",
                  "type": "address[]"
                },
                {
                  "internalType": "address[]",
                  "name": "path",
                  "type": "address[]"
                },
                {
                  "internalType": "bytes",
                  "name": "cache",
                  "type": "bytes"
                }
              ],
              "internalType": "struct StrategyTypes.TradeData",
              "name": "data",
              "type": "tuple"
            }
          ],
          "internalType": "struct StrategyTypes.StrategyItem[]",
          "name": "strategyItems",
          "type": "tuple[]"
        },
        {
          "components": [
            {
              "internalType": "uint32",
              "name": "timelock",
              "type": "uint32"
            },
            {
              "internalType": "uint16",
              "name": "rebalanceThreshold",
              "type": "uint16"
            },
            {
              "internalType": "uint16",
              "name": "rebalanceSlippage",
              "type": "uint16"
            },
            {
              "internalType": "uint16",
              "name": "restructureSlippage",
              "type": "uint16"
            },
            {
              "internalType": "uint16",
              "name": "managementFee",
              "type": "uint16"
            },
            {
              "internalType": "bool",
              "name": "social",
              "type": "bool"
            },
            {
              "internalType": "bool",
              "name": "set",
              "type": "bool"
            }
          ],
          "internalType": "struct StrategyTypes.InitialState",
          "name": "strategyState",
          "type": "tuple"
        },
        {
          "internalType": "address",
          "name": "router",
          "type": "address"
        },
        {
          "internalType": "bytes",
          "name": "data",
          "type": "bytes"
        }
      ],
      "name": "estimateCreateStrategy",
      "outputs": [
        {
          "internalType": "string",
          "name": "value",
          "type": "string"
        }
      ],
      "stateMutability": "nonpayable",
      "type": "function"
    },
    {
      "inputs": [
        {
          "internalType": "contract IStrategy",
          "name": "strategy",
          "type": "address"
        },
        {
          "internalType": "contract IStrategyRouter",
          "name": "router",
          "type": "address"
        },
        {
          "internalType": "uint256",
          "name": "amount",
          "type": "uint256"
        },
        {
          "internalType": "uint256",
          "name": "slippage",
          "type": "uint256"
        },
        {
          "internalType": "bytes",
          "name": "data",
          "type": "bytes"
        }
      ],
      "name": "estimateDeposit",
      "outputs": [
        {
          "internalType": "string",
          "name": "valueAdded",
          "type": "string"
        }
      ],
      "stateMutability": "nonpayable",
      "type": "function"
    },
    {
      "inputs": [
        {
          "internalType": "contract IStrategy",
          "name": "strategy",
          "type": "address"
        },
        {
          "internalType": "contract IStrategyRouter",
          "name": "router",
          "type": "address"
        },
        {
          "internalType": "uint256",
          "name": "amount",
          "type": "uint256"
        },
        {
          "internalType": "uint256",
          "name": "slippage",
          "type": "uint256"
        },
        {
          "internalType": "bytes",
          "name": "data",
          "type": "bytes"
        }
      ],
      "name": "estimateWithdrawWETH",
      "outputs": [
        {
          "internalType": "string",
          "name": "",
          "type": "string"
        }
      ],
      "stateMutability": "nonpayable",
      "type": "function"
    },
    {
      "inputs": [],
      "name": "initialize",
      "outputs": [
        {
          "internalType": "bool",
          "name": "",
          "type": "bool"
        }
      ],
      "stateMutability": "nonpayable",
      "type": "function"
    },
    {
      "inputs": [],
      "name": "platformProxyAdmin",
      "outputs": [
        {
          "internalType": "address",
          "name": "",
          "type": "address"
        }
      ],
      "stateMutability": "view",
      "type": "function"
    },
    {
      "inputs": [
        {
          "internalType": "address[]",
          "name": "tokens",
          "type": "address[]"
        },
        {
          "internalType": "uint256[]",
          "name": "amounts",
          "type": "uint256[]"
        },
        {
          "internalType": "uint256[]",
          "name": "feeAmounts",
          "type": "uint256[]"
        },
        {
          "internalType": "bytes",
          "name": "userData",
          "type": "bytes"
        }
      ],
      "name": "receiveFlashLoan",
      "outputs": [],
      "stateMutability": "nonpayable",
      "type": "function"
    },
    {
      "stateMutability": "payable",
      "type": "receive"
    }
  ],
  "bytecode": "0x6101006040523480156200001257600080fd5b5060405162002b5c38038062002b5c83398101604081905262000035916200011d565b600054610100900460ff16806200005157506200005162000117565b8062000060575060005460ff16155b620000885760405162461bcd60e51b81526004016200007f9062000170565b60405180910390fd5b600054610100900460ff16158015620000b4576000805460ff1961ff0019909116610100171660011790555b6001600160601b0319606085811b821660805283811b821660a05284901b1660c0527fba12222222228d8ba445958a75a0704d566bf2c800000000000000000000000060e05280156200010d576000805461ff00191690555b50505050620001d7565b303b1590565b60008060006060848603121562000132578283fd5b83516200013f81620001be565b60208501519093506200015281620001be565b60408501519092506200016581620001be565b809150509250925092565b6020808252602e908201527f496e697469616c697a61626c653a20636f6e747261637420697320616c72656160408201526d191e481a5b9a5d1a585b1a5e995960921b606082015260800190565b6001600160a01b0381168114620001d457600080fd5b50565b60805160601c60a05160601c60c05160601c60e05160601c612907620002556000398061036c52806107c652508061028552806106dd5280610a175280610b3e5280610ca6528061103a5250806110cb528061117b525080610ab65280610bdf5280610d495280610e725280610ee5528061120a52506129076000f3fe6080604052600436106100955760003560e01c80636c2f77c1116100595780636c2f77c1146101635780638129fc1c14610183578063f04f2707146101a5578063f2b4a670146101c5578063f77c4791146101e55761009c565b80630aac011b1461009e578063145f836e146100d45780631d2f78f5146100f65780633f8a017b1461012357806357ea6601146101435761009c565b3661009c57005b005b3480156100aa57600080fd5b506100be6100b9366004611d01565b6101fa565b6040516100cb9190612767565b60405180910390f35b3480156100e057600080fd5b506100e9610412565b6040516100cb9190612273565b34801561010257600080fd5b50610116610111366004611fe7565b610427565b6040516100cb919061249c565b34801561012f57600080fd5b5061011661013e366004611d01565b610559565b34801561014f57600080fd5b506100be61015e366004611fe7565b61065b565b34801561016f57600080fd5b5061011661017e366004611d01565b61086c565b34801561018f57600080fd5b506101986108e1565b6040516100cb9190612378565b3480156101b157600080fd5b5061009c6101c0366004611c3d565b610966565b3480156101d157600080fd5b506101166101e0366004611d01565b6109dc565b3480156101f157600080fd5b506100e9610bdd565b60003330146102245760405162461bcd60e51b815260040161021b9061251d565b60405180910390fd5b60408051600180825281830190925260609160208083019080368337019050509050848160008151811061025457fe5b60209081029190910101526040805160018082528183019092526060918160200160208202803683370190505090507f0000000000000000000000000000000000000000000000000000000000000000816000815181106102b157fe5b60200260200101906001600160a01b031690816001600160a01b03168152505060607f5c38449efd535d3014109cb8eec12fe3d1f8559e999cd07dcf3ec15f1c718e8930838560018d8d8d8d8d604051602001610313969594939291906123bb565b60408051601f198184030181529082905261033394939291602401612287565b604051602081830303815290604052906001600160e01b0319166020820180516001600160e01b038381831617835250505050905060007f00000000000000000000000000000000000000000000000000000000000000006001600160a01b0316826040516103a29190612257565b6000604051808303816000865af19150503d80600081146103df576040519150601f19603f3d011682016040523d82523d6000602084013e6103e4565b606091505b50509050806103fa576040513d806000833e8082fd5b60405162461bcd60e51b815260040161021b906126c2565b6000546201000090046001600160a01b031681565b6040516357ea660160e01b815260609030906357ea660190610459908b908b908b908b908b908b908b90600401612770565b602060405180830381600087803b15801561047357600080fd5b505af19250505080156104a3575060408051601f3d908101601f191682019092526104a091810190611f33565b60015b610535573d8080156104d1576040519150601f19603f3d011682016040523d82523d6000602084013e6104d6565b606091505b50805160641461051357600481019050808060200190518101906104fa9190611f00565b60405162461bcd60e51b815260040161021b919061249c565b6004810190508080602001905181019061052d9190611f00565b91505061054e565b5060405162461bcd60e51b815260040161021b906126c2565b979650505050505050565b60606105706001600160a01b038716333087610c01565b604051630f2b4a6760e41b8152309063f2b4a6709061059b9089908990899089908990600401612383565b600060405180830381600087803b1580156105b557600080fd5b505af19250505080156105ea57506040513d6000823e601f3d908101601f191682016040526105e79190810190611f00565b60015b610535573d808015610618576040519150601f19603f3d011682016040523d82523d6000602084013e61061d565b606091505b50805160641461064157600481019050808060200190518101906104fa9190611f00565b6004810190508080602001905181019061054e9190611f00565b600033301461067c5760405162461bcd60e51b815260040161021b9061251d565b6040805160018082528183019092526060916020808301908036833701905050905088816000815181106106ac57fe5b60209081029190910101526040805160018082528183019092526060918160200160208202803683370190505090507f00000000000000000000000000000000000000000000000000000000000000008160008151811061070957fe5b60200260200101906001600160a01b031690816001600160a01b0316815250507f5c38449efd535d3014109cb8eec12fe3d1f8559e999cd07dcf3ec15f1c718e8930828460028e8e8e8e8e8e8e60405160200161076d98979695949392919061240c565b60408051601f198184030181529082905261078d94939291602401612287565b604051602081830303815290604052906001600160e01b0319166020820180516001600160e01b038381831617835250505050935060007f00000000000000000000000000000000000000000000000000000000000000006001600160a01b0316856040516107fc9190612257565b6000604051808303816000865af19150503d8060008114610839576040519150601f19603f3d011682016040523d82523d6000602084013e61083e565b606091505b5050905080610854576040513d806000833e8082fd5b60405162461bcd60e51b815260040161021b90612730565b604051630aac011b60e01b81526060903090630aac011b9061089a9089908990899089908990600401612383565b602060405180830381600087803b1580156108b457600080fd5b505af19250505080156105ea575060408051601f3d908101601f191682019092526105e791810190611f33565b60008054610100900460ff16806108fb57506108fb610c77565b80610909575060005460ff16155b6109255760405162461bcd60e51b815260040161021b90612631565b600054610100900460ff16158015610950576000805460ff1961ff0019909116610100171660011790555b8015610962576000805461ff00191690555b5090565b60008180602001905181019061097c9190611d75565b9050600181600281111561098c57fe5b14156109a05761099b82610c7d565b6109d5565b60028160028111156109ae57fe5b14156109bd5761099b82611002565b60405162461bcd60e51b815260040161021b9061267f565b5050505050565b60603330146109fd5760405162461bcd60e51b815260040161021b906125e5565b6040516370a0823160e01b81526000906001600160a01b037f000000000000000000000000000000000000000000000000000000000000000016906370a0823190610a4c903090600401612273565b60206040518083038186803b158015610a6457600080fd5b505afa158015610a78573d6000803e3d6000fd5b505050506040513d601f19601f82011682018060405250810190610a9c9190611f33565b60405163716e261560e01b81529091506001600160a01b037f0000000000000000000000000000000000000000000000000000000000000000169063716e261590610af3908a908a908a908a908a90600401612383565b600060405180830381600087803b158015610b0d57600080fd5b505af1158015610b21573d6000803e3d6000fd5b50506040516370a0823160e01b8152600092506001600160a01b037f00000000000000000000000000000000000000000000000000000000000000001691506370a0823190610b74903090600401612273565b60206040518083038186803b158015610b8c57600080fd5b505afa158015610ba0573d6000803e3d6000fd5b505050506040513d601f19601f82011682018060405250810190610bc49190611f33565b90506000610bd28284611324565b90506104fa8161136f565b7f000000000000000000000000000000000000000000000000000000000000000090565b610c71846323b872dd60e01b858585604051602401610c229392919061233b565b60408051601f198184030181529190526020810180516001600160e01b03167fffffffff000000000000000000000000000000000000000000000000000000009093169290921790915261145b565b50505050565b303b1590565b600080600080606085806020019051810190610c999190611d90565b95509550955095509550507f00000000000000000000000000000000000000000000000000000000000000006001600160a01b031663095ea7b385856040518363ffffffff1660e01b8152600401610cf292919061235f565b602060405180830381600087803b158015610d0c57600080fd5b505af1158015610d20573d6000803e3d6000fd5b505050506040513d601f19601f82011682018060405250810190610d449190611ce5565b5060007f00000000000000000000000000000000000000000000000000000000000000006001600160a01b0316637dc0d1d06040518163ffffffff1660e01b815260040160206040518083038186803b158015610da057600080fd5b505afa158015610db4573d6000803e3d6000fd5b505050506040513d601f19601f82011682018060405250810190610dd89190611c21565b6001600160a01b031663ff4a1902876040518263ffffffff1660e01b8152600401610e039190612273565b60006040518083038186803b158015610e1b57600080fd5b505afa158015610e2f573d6000803e3d6000fd5b505050506040513d6000823e601f3d908101601f19168201604052610e579190810190611f4b565b506040516371b8dc6960e01b81529091506001600160a01b037f000000000000000000000000000000000000000000000000000000000000000016906371b8dc6990610eaf9089908990899089908990600401612383565b600060405180830381600087803b158015610ec957600080fd5b505af1158015610edd573d6000803e3d6000fd5b5050505060007f00000000000000000000000000000000000000000000000000000000000000006001600160a01b0316637dc0d1d06040518163ffffffff1660e01b815260040160206040518083038186803b158015610f3c57600080fd5b505afa158015610f50573d6000803e3d6000fd5b505050506040513d601f19601f82011682018060405250810190610f749190611c21565b6001600160a01b031663ff4a1902886040518263ffffffff1660e01b8152600401610f9f9190612273565b60006040518083038186803b158015610fb757600080fd5b505afa158015610fcb573d6000803e3d6000fd5b505050506040513d6000823e601f3d908101601f19168201604052610ff39190810190611f4b565b5090506000610bd28284611324565b6000606080606061101161162c565b60006060878060200190518101906110299190611e17565b9750975097509750975097509750507f00000000000000000000000000000000000000000000000000000000000000006001600160a01b0316632e1a7d4d886040518263ffffffff1660e01b81526004016110849190612767565b600060405180830381600087803b15801561109e57600080fd5b505af11580156110b2573d6000803e3d6000fd5b505060405163041fe56760e11b81526001600160a01b037f000000000000000000000000000000000000000000000000000000000000000016925063083fcace9150899061110e908a908a908a908a908a908a906004016124af565b6020604051808303818588803b15801561112757600080fd5b505af115801561113b573d6000803e3d6000fd5b50505050506040513d601f19601f820116820180604052508101906111609190611c21565b5060405163665415c960e11b81526000906001600160a01b037f0000000000000000000000000000000000000000000000000000000000000000169063cca82b92906111b49030908b908b906004016122fd565b60206040518083038186803b1580156111cc57600080fd5b505afa1580156111e0573d6000803e3d6000fd5b505050506040513d601f19601f820116820180604052508101906112049190611c21565b905060007f00000000000000000000000000000000000000000000000000000000000000006001600160a01b0316637dc0d1d06040518163ffffffff1660e01b815260040160206040518083038186803b15801561126157600080fd5b505afa158015611275573d6000803e3d6000fd5b505050506040513d601f19601f820116820180604052508101906112999190611c21565b6001600160a01b031663ff4a1902836040518263ffffffff1660e01b81526004016112c49190612273565b60006040518083038186803b1580156112dc57600080fd5b505afa1580156112f0573d6000803e3d6000fd5b505050506040513d6000823e601f3d908101601f191682016040526113189190810190611f4b565b5090506104fa8161136f565b600061136683836040518060400160405280601e81526020017f536166654d6174683a207375627472616374696f6e206f766572666c6f7700008152506114ef565b90505b92915050565b60608161139457506040805180820190915260018152600360fc1b6020820152611456565b8160005b81156113ac57600101600a82049150611398565b60608167ffffffffffffffff811180156113c557600080fd5b506040519080825280601f01601f1916602001820160405280156113f0576020820181803683370190505b5090505b84156114515760001990910190600a850660300160f81b81838151811061141757fe5b60200101907effffffffffffffffffffffffffffffffffffffffffffffffffffffffffffff1916908160001a905350600a850494506113f4565b925050505b919050565b60606114b0826040518060400160405280602081526020017f5361666545524332303a206c6f772d6c6576656c2063616c6c206661696c6564815250856001600160a01b03166115209092919063ffffffff16565b8051909150156114ea57808060200190518101906114ce9190611ce5565b6114ea5760405162461bcd60e51b815260040161021b906125ae565b505050565b600081848411156115135760405162461bcd60e51b815260040161021b919061249c565b50508183035b9392505050565b606061152f8484600085611537565b949350505050565b6060824710156115595760405162461bcd60e51b815260040161021b90612568565b611562856115ed565b61157e5760405162461bcd60e51b815260040161021b906126f9565b60006060866001600160a01b0316858760405161159b9190612257565b60006040518083038185875af1925050503d80600081146115d8576040519150601f19603f3d011682016040523d82523d6000602084013e6115dd565b606091505b509150915061054e8282866115f3565b3b151590565b60608315611602575081611519565b8251156116125782518084602001fd5b8160405162461bcd60e51b815260040161021b919061249c565b6040805160e081018252600080825260208201819052918101829052606081018290526080810182905260a0810182905260c081019190915290565b803561136981612889565b805161136981612889565b600082601f83011261168e578081fd5b81356116a161169c82612819565b6127f2565b8181529150602080830190848101818402860182018710156116c257600080fd5b60005b848110156116ea5781356116d881612889565b845292820192908201906001016116c5565b505050505092915050565b600082601f830112611705578081fd5b815161171361169c82612819565b81815291506020808301908481018184028601820187101561173457600080fd5b60005b848110156116ea57815161174a81612889565b84529282019290820190600101611737565b600082601f83011261176c578081fd5b813561177a61169c82612819565b818152915060208083019084810160005b848110156116ea5781358701606080601f19838c030112156117ac57600080fd5b6117b5816127f2565b6117c18b878501611668565b815260408381013587830152918301359167ffffffffffffffff8311156117e757600080fd5b6117f58c8885870101611b8c565b9082015286525050928201929082019060010161178b565b600082601f83011261181d578081fd5b815161182b61169c82612819565b818152915060208083019084810160005b848110156116ea5781518701601f196060828b038201121561185d57600080fd5b61186760606127f2565b8583015161187481612889565b8152604083015186820152606083015167ffffffffffffffff8082111561189a57600080fd5b938101936060858e03850112156118b057600080fd5b6118ba60606127f2565b9350878501519150808211156118cf57600080fd5b6118dd8d89848801016116f5565b845260408501519150808211156118f357600080fd5b6119018d89848801016116f5565b88850152606085015191508082111561191957600080fd5b506119288c88838701016119f7565b60408481019190915282019290925286525050928201929082019060010161183c565b600082601f83011261195b578081fd5b813561196961169c82612819565b81815291506020808301908481018184028601820187101561198a57600080fd5b60005b848110156116ea5781358452928201929082019060010161198d565b600082601f8301126119b9578081fd5b81356119c761169c82612839565b91508082528360208285010111156119de57600080fd5b8060208401602084013760009082016020015292915050565b600082601f830112611a07578081fd5b8151611a1561169c82612839565b9150808252836020828501011115611a2c57600080fd5b611a3d81602084016020860161285d565b5092915050565b80516003811061136957600080fd5b600060e08284031215611a64578081fd5b611a6e60e06127f2565b90508135611a7b816128bf565b81526020820135611a8b816128af565b60208201526040820135611a9e816128af565b60408201526060820135611ab1816128af565b60608201526080820135611ac4816128af565b608082015260a0820135611ad7816128a1565b60a082015260c0820135611aea816128a1565b60c082015292915050565b600060e08284031215611b06578081fd5b611b1060e06127f2565b90508151611b1d816128bf565b81526020820151611b2d816128af565b60208201526040820151611b40816128af565b60408201526060820151611b53816128af565b60608201526080820151611b66816128af565b608082015260a0820151611b79816128a1565b60a082015260c0820151611aea816128a1565b600060608284031215611b9d578081fd5b611ba760606127f2565b9050813567ffffffffffffffff80821115611bc157600080fd5b611bcd8583860161167e565b83526020840135915080821115611be357600080fd5b611bef8583860161167e565b60208401526040840135915080821115611c0857600080fd5b50611c15848285016119a9565b60408301525092915050565b600060208284031215611c32578081fd5b815161151981612889565b60008060008060808587031215611c52578283fd5b843567ffffffffffffffff80821115611c69578485fd5b611c758883890161167e565b95506020870135915080821115611c8a578485fd5b611c968883890161194b565b94506040870135915080821115611cab578384fd5b611cb78883890161194b565b93506060870135915080821115611ccc578283fd5b50611cd9878288016119a9565b91505092959194509250565b600060208284031215611cf6578081fd5b8151611519816128a1565b600080600080600060a08688031215611d18578283fd5b8535611d2381612889565b94506020860135611d3381612889565b93506040860135925060608601359150608086013567ffffffffffffffff811115611d5c578182fd5b611d68888289016119a9565b9150509295509295909350565b600060208284031215611d86578081fd5b6113668383611a44565b60008060008060008060c08789031215611da8578384fd5b611db28888611a44565b95506020870151611dc281612889565b6040880151909550611dd381612889565b80945050606087015192506080870151915060a087015167ffffffffffffffff811115611dfe578182fd5b611e0a89828a016119f7565b9150509295509295509295565b6000806000806000806000806101c0898b031215611e33578586fd5b611e3d8a8a611a44565b975060208901519650604089015167ffffffffffffffff80821115611e60578788fd5b611e6c8c838d016119f7565b975060608b0151915080821115611e81578384fd5b611e8d8c838d016119f7565b965060808b0151915080821115611ea2578384fd5b611eae8c838d0161180d565b9550611ebd8c60a08d01611af5565b9450611ecd8c6101808d01611673565b93506101a08b0151915080821115611ee3578283fd5b50611ef08b828c016119f7565b9150509295985092959890939650565b600060208284031215611f11578081fd5b815167ffffffffffffffff811115611f27578182fd5b61152f848285016119f7565b600060208284031215611f44578081fd5b5051919050565b60008060408385031215611f5d578182fd5b8251915060208084015167ffffffffffffffff811115611f7b578283fd5b8401601f81018613611f8b578283fd5b8051611f9961169c82612819565b81815283810190838501858402850186018a1015611fb5578687fd5b8694505b83851015611fd7578051835260019490940193918501918501611fb9565b5080955050505050509250929050565b60008060008060008060006101a0888a031215612002578081fd5b87359650602088013567ffffffffffffffff80821115612020578283fd5b61202c8b838c016119a9565b975060408a0135915080821115612041578283fd5b61204d8b838c016119a9565b965060608a0135915080821115612062578283fd5b61206e8b838c0161175c565b955061207d8b60808c01611a53565b945061208d8b6101608c01611668565b93506101808a01359150808211156120a3578283fd5b506120b08a828b016119a9565b91505092959891949750929550565b6000815180845260208085019450808401835b838110156120f75781516001600160a01b0316875295820195908201906001016120d2565b509495945050505050565b6000815180845260208085018081965082840281019150828601855b858110156121b4578284038952815160606001600160a01b0382511686528682015187870152604080830151925081818801528251828389015261216560c08901826120bf565b92505087830151605f19808985030160808a015261218384836120bf565b929094015188830390940160a08901525090506121a081836121c1565b9a87019a955050509084019060010161211e565b5091979650505050505050565b600081518084526121d981602086016020860161285d565b601f01601f19169290920160200192915050565b600381106121f757fe5b9052565b63ffffffff8151168252602081015161ffff8082166020850152806040840151166040850152806060840151166060850152806080840151166080850152505060a0810151151560a083015260c0810151151560c08301525050565b6000825161226981846020870161285d565b9190910192915050565b6001600160a01b0391909116815260200190565b60006001600160a01b038616825260206080818401526122aa60808401876120bf565b8381036040850152855180825282870191830190845b818110156122dc578351835292840192918401916001016122c0565b505084810360608601526122f081876121c1565b9998505050505050505050565b60006001600160a01b03851682526060602083015261231f60608301856121c1565b828103604084015261233181856121c1565b9695505050505050565b6001600160a01b039384168152919092166020820152604081019190915260600190565b6001600160a01b03929092168252602082015260400190565b901515815260200190565b60006001600160a01b03808816835280871660208401525084604083015283606083015260a0608083015261054e60a08301846121c1565b60006123c782896121ed565b6001600160a01b03808816602084015280871660408401525084606083015283608083015260c060a083015261240060c08301846121c1565b98975050505050505050565b60006101c061241b838c6121ed565b8960208401528060408401526124338184018a6121c1565b9050828103606084015261244781896121c1565b9050828103608084015261245b8188612102565b905061246a60a08401876121fb565b6001600160a01b0385166101808401528281036101a084015261248d81856121c1565b9b9a5050505050505050505050565b60006020825261136660208301846121c1565b60006101808083526124c38184018a6121c1565b905082810360208401526124d781896121c1565b905082810360408401526124eb8188612102565b90506124fa60608401876121fb565b6001600160a01b0385166101408401528281036101608401526122f081856121c1565b6020808252602b908201527f657374696d61746557697468647261774554483a206f6e6c792063616c6c616260408201526a363290313c9039b2b6331760a91b606082015260800190565b60208082526026908201527f416464726573733a20696e73756666696369656e742062616c616e636520666f6040820152651c8818d85b1b60d21b606082015260800190565b60208082526013908201527f5361666545524332303a20217375636365737300000000000000000000000000604082015260600190565b6020808252602c908201527f657374696d6174655769746864726177574554483a206f6e6c792063616c6c6160408201526b31363290313c9039b2b6331760a11b606082015260800190565b6020808252602e908201527f496e697469616c697a61626c653a20636f6e747261637420697320616c72656160408201526d191e481a5b9a5d1a585b1a5e995960921b606082015260800190565b60208082526023908201527f72656365697665466c6173684c6f616e3a206f70206e6f7420737570706f727460408201526232b21760e91b606082015260800190565b60208082526014908201527f73686f756c64206e657665722068617070656e2e000000000000000000000000604082015260600190565b6020808252601d908201527f416464726573733a2063616c6c20746f206e6f6e2d636f6e7472616374000000604082015260600190565b60208082526013908201527f73686f756c64206e657665722068617070656e00000000000000000000000000604082015260600190565b90815260200190565b60006101a089835280602084015261278a8184018a6121c1565b9050828103604084015261279e81896121c1565b905082810360608401526127b28188612102565b90506127c160808401876121fb565b6001600160a01b0385166101608401528281036101808401526127e481856121c1565b9a9950505050505050505050565b60405181810167ffffffffffffffff8111828210171561281157600080fd5b604052919050565b600067ffffffffffffffff82111561282f578081fd5b5060209081020190565b600067ffffffffffffffff82111561284f578081fd5b50601f01601f191660200190565b60005b83811015612878578181015183820152602001612860565b83811115610c715750506000910152565b6001600160a01b038116811461289e57600080fd5b50565b801515811461289e57600080fd5b61ffff8116811461289e57600080fd5b63ffffffff8116811461289e57600080fdfea264697066735822122003f57f36143c0fcc4e9d0be905a3225805de0be504d939785780de8139e414b464736f6c634300060c0033",
  "linkReferences": {},
  "deployedLinkReferences": {}
}