{
  "_format": "hh-sol-artifact-1",
  "contractName": "AddressUtils",
  "sourceName": "contracts/helpers/AddressUtils.sol",
  "abi": [
    {
      "inputs": [],
      "name": "ZERO_ADDRESS",
      "outputs": [
        {
          "internalType": "string",
          "name": "",
          "type": "string"
        }
      ],
      "stateMutability": "view",
      "type": "function"
    }
  ],
  "bytecode": "0x608060405234801561001057600080fd5b5060fc8061001f6000396000f3fe6080604052348015600f57600080fd5b506004361060285760003560e01c8063538ba4f914602d575b600080fd5b60606040518060400160405280601581526020017416995c9bc81859191c995cdcc81c1c9bdd9a591959605a1b81525081565b604051606b91906074565b60405180910390f35b600060208083528351808285015260005b81811015609f578581018301518582016040015282016085565b8181111560b0576000604083870101525b50601f01601f191692909201604001939250505056fea2646970667358221220dcbf70244c9372b3c23e8fefa1f140257f799162aa8c77c3a8e6b88b6e7e13eb64736f6c634300080b0033",
  "linkReferences": {},
  "deployedLinkReferences": {}
}