{
    "_format": "hh-sol-artifact-1",
    "contractName": "CurveLPAdapter",
    "sourceName": "contracts/adapters/liquidity/CurveLPAdapter.sol",
    "abi": [
        {
            "inputs": [
                {
                    "internalType": "address",
                    "name": "addressProvider_",
                    "type": "address"
                },
                {
                    "internalType": "address",
                    "name": "zapRegistry_",
                    "type": "address"
                },
                {
                    "internalType": "address",
                    "name": "weth_",
                    "type": "address"
                }
            ],
            "stateMutability": "nonpayable",
            "type": "constructor"
        },
        {
            "inputs": [],
            "name": "TRICRYPTO2",
            "outputs": [
                {
                    "internalType": "address",
                    "name": "",
                    "type": "address"
                }
            ],
            "stateMutability": "view",
            "type": "function"
        },
        {
            "inputs": [],
            "name": "TRICRYPTO2_POOL",
            "outputs": [
                {
                    "internalType": "address",
                    "name": "",
                    "type": "address"
                }
            ],
            "stateMutability": "view",
            "type": "function"
        },
        {
            "inputs": [],
            "name": "addressProvider",
            "outputs": [
                {
                    "internalType": "contract ICurveAddressProvider",
                    "name": "",
                    "type": "address"
                }
            ],
            "stateMutability": "view",
            "type": "function"
        },
        {
            "inputs": [
                {
                    "internalType": "uint256",
                    "name": "amount",
                    "type": "uint256"
                },
                {
                    "internalType": "address",
                    "name": "tokenIn",
                    "type": "address"
                },
                {
                    "internalType": "address",
                    "name": "tokenOut",
                    "type": "address"
                }
            ],
            "name": "spotPrice",
            "outputs": [
                {
                    "internalType": "uint256",
                    "name": "",
                    "type": "uint256"
                }
            ],
            "stateMutability": "view",
            "type": "function"
        },
        {
            "inputs": [
                {
                    "internalType": "uint256",
                    "name": "amount",
                    "type": "uint256"
                },
                {
                    "internalType": "uint256",
                    "name": "expected",
                    "type": "uint256"
                },
                {
                    "internalType": "address",
                    "name": "tokenIn",
                    "type": "address"
                },
                {
                    "internalType": "address",
                    "name": "tokenOut",
                    "type": "address"
                },
                {
                    "internalType": "address",
                    "name": "from",
                    "type": "address"
                },
                {
                    "internalType": "address",
                    "name": "to",
                    "type": "address"
                }
            ],
            "name": "swap",
            "outputs": [],
            "stateMutability": "nonpayable",
            "type": "function"
        },
        {
            "inputs": [],
            "name": "weth",
            "outputs": [
                {
                    "internalType": "address",
                    "name": "",
                    "type": "address"
                }
            ],
            "stateMutability": "view",
            "type": "function"
        },
        {
            "inputs": [],
            "name": "zapRegistry",
            "outputs": [
                {
                    "internalType": "contract ICurveDepositZapRegistry",
                    "name": "",
                    "type": "address"
                }
            ],
            "stateMutability": "view",
            "type": "function"
        }
    ],
    "bytecode": "0x60e06040523480156200001157600080fd5b50604051620023cb380380620023cb83398101604081905262000034916200005a565b6001600160601b0319606091821b811660805292811b831660a0521b1660c052620000c6565b6000806000606084860312156200006f578283fd5b83516200007c81620000ad565b60208501519093506200008f81620000ad565b6040850151909250620000a281620000ad565b809150509250925092565b6001600160a01b0381168114620000c357600080fd5b50565b60805160601c60a05160601c60c05160601c6122b16200011a60003980610f7e528061123c52806113f1528061174e528061188b525080610149528061087252806108f15250806108a852506122b16000f3fe608060405234801561001057600080fd5b506004361061006d5760003560e01c8063230f11c7146100725780632954018c146100875780633cfae174146100a55780633fc8cef3146100ad57806377ec159d146100b55780637bf14727146100d5578063bfefe235146100dd575b600080fd5b610085610080366004611dc6565b6100e5565b005b61008f610870565b60405161009c9190611eba565b60405180910390f35b61008f610894565b61008f6108a6565b6100c86100c3366004611d85565b6108ca565b60405161009c91906121c0565b61008f610f7c565b61008f610fa0565b826001600160a01b0316846001600160a01b031614156101205760405162461bcd60e51b81526004016101179061205f565b60405180910390fd5b6001600160a01b0382163014610145576101456001600160a01b038516833089610fb8565b60007f00000000000000000000000000000000000000000000000000000000000000006001600160a01b031663a262904b6040518163ffffffff1660e01b815260040160206040518083038186803b1580156101a057600080fd5b505afa1580156101b4573d6000803e3d6000fd5b505050506040513d601f19601f820116820180604052508101906101d89190611ca8565b90506000816001600160a01b031663bdf475c3876040518263ffffffff1660e01b81526004016102089190611eba565b60206040518083038186803b15801561022057600080fd5b505afa158015610234573d6000803e3d6000fd5b505050506040513d601f19601f820116820180604052508101906102589190611ca8565b90506000826001600160a01b031663bdf475c3876040518263ffffffff1660e01b81526004016102889190611eba565b60206040518083038186803b1580156102a057600080fd5b505afa1580156102b4573d6000803e3d6000fd5b505050506040513d601f19601f820116820180604052508101906102d89190611ca8565b90506001600160a01b0382161580156102f957506001600160a01b03811615155b1561038b57610386898883866001600160a01b0316639ac90d3d866040518263ffffffff1660e01b81526004016103309190611eba565b6101006040518083038186803b15801561034957600080fd5b505afa15801561035d573d6000803e3d6000fd5b505050506040513d601f19601f820116820180604052508101906103819190611cc4565b611016565b61079e565b6001600160a01b038216158015906103aa57506001600160a01b038116155b156104385761038689888885876001600160a01b0316639ac90d3d886040518263ffffffff1660e01b81526004016103e29190611eba565b6101006040518083038186803b1580156103fb57600080fd5b505afa15801561040f573d6000803e3d6000fd5b505050506040513d601f19601f820116820180604052508101906104339190611cc4565b611222565b6001600160a01b0382161580159061045857506001600160a01b03811615155b15610681576000610467611c1e565b604051639ac90d3d60e01b81526001600160a01b03861690639ac90d3d90610493908690600401611eba565b6101006040518083038186803b1580156104ac57600080fd5b505afa1580156104c0573d6000803e3d6000fd5b505050506040513d601f19601f820116820180604052508101906104e49190611cc4565b905060005b600881101561055457600082826008811061050057fe5b60200201516001600160a01b0316141561051957610554565b896001600160a01b031682826008811061052f57fe5b60200201516001600160a01b0316141561054c5760019250610554565b6001016104e9565b50811561056c576105678b8a8584611016565b61067a565b6000610576611c1e565b604051639ac90d3d60e01b81526001600160a01b03881690639ac90d3d906105a2908990600401611eba565b6101006040518083038186803b1580156105bb57600080fd5b505afa1580156105cf573d6000803e3d6000fd5b505050506040513d601f19601f820116820180604052508101906105f39190611cc4565b905060005b600881101561066357600082826008811061060f57fe5b60200201516001600160a01b0316141561062857610663565b8a6001600160a01b031682826008811061063e57fe5b60200201516001600160a01b0316141561065b5760019250610663565b6001016105f8565b508115610677576106778d8c8c8985611222565b50505b505061079e565b6001600160a01b03871660008051602061225c83398151915214806106bc57506001600160a01b03861660008051602061225c833981519152145b1561006d576106c9611c1e565b73dac17f958d2ee523a2206206994597c13d831ec78152732260fac5e5542a773aa44fbcfedf7c193bc2c599602082015273c02aaa39b223fe8d0a0e5c4f27ead9083c756cc2604082015260008051602061225c8339815191526001600160a01b038916141561075d576107548a898973d51a44d3fae010294c616388b506acda1bfaae4685611222565b50505050610868565b6001600160a01b03871660008051602061225c833981519152141561079c576107548a8973d51a44d3fae010294c616388b506acda1bfaae4684611016565b505b6040516370a0823160e01b81526000906001600160a01b038816906370a08231906107cd903090600401611eba565b60206040518083038186803b1580156107e557600080fd5b505afa1580156107f9573d6000803e3d6000fd5b505050506040513d601f19601f8201168201806040525081019061081d9190611d6d565b90508881101561083f5760405162461bcd60e51b815260040161011790612029565b6001600160a01b0385163014610863576108636001600160a01b0388168683611545565b505050505b505050505050565b7f000000000000000000000000000000000000000000000000000000000000000081565b60008051602061225c83398151915281565b7f000000000000000000000000000000000000000000000000000000000000000081565b6000816001600160a01b0316836001600160a01b031614156108ed575082610f75565b60007f00000000000000000000000000000000000000000000000000000000000000006001600160a01b031663a262904b6040518163ffffffff1660e01b815260040160206040518083038186803b15801561094857600080fd5b505afa15801561095c573d6000803e3d6000fd5b505050506040513d601f19601f820116820180604052508101906109809190611ca8565b90506000816001600160a01b031663bdf475c3866040518263ffffffff1660e01b81526004016109b09190611eba565b60206040518083038186803b1580156109c857600080fd5b505afa1580156109dc573d6000803e3d6000fd5b505050506040513d601f19601f82011682018060405250810190610a009190611ca8565b90506000826001600160a01b031663bdf475c3866040518263ffffffff1660e01b8152600401610a309190611eba565b60206040518083038186803b158015610a4857600080fd5b505afa158015610a5c573d6000803e3d6000fd5b505050506040513d601f19601f82011682018060405250810190610a809190611ca8565b90506001600160a01b038216158015610aa157506001600160a01b03811615155b15610b3857610b2e878783866001600160a01b0316639ac90d3d866040518263ffffffff1660e01b8152600401610ad89190611eba565b6101006040518083038186803b158015610af157600080fd5b505afa158015610b05573d6000803e3d6000fd5b505050506040513d601f19601f82011682018060405250810190610b299190611cc4565b611569565b9350505050610f75565b6001600160a01b03821615801590610b5757506001600160a01b038116155b15610be557610b2e87878785876001600160a01b0316639ac90d3d886040518263ffffffff1660e01b8152600401610b8f9190611eba565b6101006040518083038186803b158015610ba857600080fd5b505afa158015610bbc573d6000803e3d6000fd5b505050506040513d601f19601f82011682018060405250810190610be09190611cc4565b611749565b6001600160a01b03821615801590610c0557506001600160a01b03811615155b15610e42576000610c14611c1e565b604051639ac90d3d60e01b81526001600160a01b03861690639ac90d3d90610c40908690600401611eba565b6101006040518083038186803b158015610c5957600080fd5b505afa158015610c6d573d6000803e3d6000fd5b505050506040513d601f19601f82011682018060405250810190610c919190611cc4565b905060005b6008811015610d01576000828260088110610cad57fe5b60200201516001600160a01b03161415610cc657610d01565b886001600160a01b0316828260088110610cdc57fe5b60200201516001600160a01b03161415610cf95760019250610d01565b600101610c96565b508115610d2057610d1489898584611569565b95505050505050610f75565b6000610d2a611c1e565b604051639ac90d3d60e01b81526001600160a01b03881690639ac90d3d90610d56908990600401611eba565b6101006040518083038186803b158015610d6f57600080fd5b505afa158015610d83573d6000803e3d6000fd5b505050506040513d601f19601f82011682018060405250810190610da79190611cc4565b905060005b6008811015610e17576000828260088110610dc357fe5b60200201516001600160a01b03161415610ddc57610e17565b896001600160a01b0316828260088110610df257fe5b60200201516001600160a01b03161415610e0f5760019250610e17565b600101610dac565b508115610e3957610e2b8b8b8b8985611749565b975050505050505050610f75565b50505050610f71565b6001600160a01b03861660008051602061225c8339815191521480610e7d57506001600160a01b03851660008051602061225c833981519152145b15610f6557610e8a611c1e565b73dac17f958d2ee523a2206206994597c13d831ec78152732260fac5e5542a773aa44fbcfedf7c193bc2c599602082015273c02aaa39b223fe8d0a0e5c4f27ead9083c756cc2604082015260008051602061225c8339815191526001600160a01b0388161415610f2057610f1588888873d51a44d3fae010294c616388b506acda1bfaae4685611749565b945050505050610f75565b6001600160a01b03861660008051602061225c8339815191521415610f5f57610f15888873d51a44d3fae010294c616388b506acda1bfaae4684611569565b50610f71565b60009350505050610f75565b5050505b9392505050565b7f000000000000000000000000000000000000000000000000000000000000000081565b73d51a44d3fae010294c616388b506acda1bfaae4681565b611010846323b872dd60e01b858585604051602401610fd993929190611ee8565b60408051601f198184030181529190526020810180516001600160e01b03166001600160e01b0319909316929092179091526119e3565b50505050565b61102a6001600160a01b0384168386611a72565b60006008815b600881101561109957600084826008811061104757fe5b60200201516001600160a01b0316141561106357809250611099565b856001600160a01b031684826008811061107957fe5b60200201516001600160a01b03161415611091578091505b600101611030565b50600881106110ba5760405162461bcd60e51b815260040161011790612000565b8160041415611143576110cb611c3d565b868183600481106110d857fe5b602002015260405162a6cbcd60e21b81526001600160a01b0386169063029b2f349061110b908490600090600401611fb2565b600060405180830381600087803b15801561112557600080fd5b505af1158015611139573d6000803e3d6000fd5b5050505050610868565b816003141561119557611154611c5b565b8681836003811061116157fe5b6020020152604051634515cef360e01b81526001600160a01b03861690634515cef39061110b908490600090600401611f7a565b8160021415610868576111a6611c79565b868183600281106111b357fe5b6020020152604051630b4c7e4d60e01b81526001600160a01b03861690630b4c7e4d906111e7908490600090600401611f42565b600060405180830381600087803b15801561120157600080fd5b505af1158015611215573d6000803e3d6000fd5b5050505050505050505050565b60405163317d373560e01b81526000906001600160a01b037f0000000000000000000000000000000000000000000000000000000000000000169063317d373590611271908890600401611eba565b60206040518083038186803b15801561128957600080fd5b505afa15801561129d573d6000803e3d6000fd5b505050506040513d601f19601f820116820180604052508101906112c19190611ca8565b90506001600160a01b0381166112d45750815b6000805b60088110156113555760008482600881106112ef57fe5b60200201516001600160a01b0316141561131b5760405162461bcd60e51b815260040161011790612139565b856001600160a01b031684826008811061133157fe5b60200201516001600160a01b0316141561134d57809150611355565b6001016112d8565b5060405163095ea7b360e01b81526001600160a01b0387169063095ea7b3906113849085908b90600401611f0c565b602060405180830381600087803b15801561139e57600080fd5b505af11580156113b2573d6000803e3d6000fd5b505050506040513d601f19601f820116820180604052508101906113d69190611d4d565b506040516391e2851f60e01b81526000906001600160a01b037f000000000000000000000000000000000000000000000000000000000000000016906391e2851f90611426908690600401611eba565b60206040518083038186803b15801561143e57600080fd5b505afa158015611452573d6000803e3d6000fd5b505050506040513d601f19601f820116820180604052508101906114769190611d6d565b9050806114e557604051630d2680e960e11b81526001600160a01b03841690631a4d01d2906114ae908b9086906001906004016121da565b600060405180830381600087803b1580156114c857600080fd5b505af11580156114dc573d6000803e3d6000fd5b5050505061153b565b80600114156115235760405163f1dc3cc960e01b81526001600160a01b0384169063f1dc3cc9906114ae908b90600f87900b90600190600401612201565b60405162461bcd60e51b8152600401610117906120c3565b5050505050505050565b6115648363a9059cbb60e01b8484604051602401610fd9929190611f0c565b505050565b6000806008815b60088110156115d957600085826008811061158757fe5b60200201516001600160a01b031614156115a3578092506115d9565b866001600160a01b03168582600881106115b957fe5b60200201516001600160a01b031614156115d1578091505b600101611570565b5080600814156115ee57600092505050611741565b816004141561169a576115ff611c3d565b8781836004811061160c57fe5b602002015260405163cf701ff760e01b81526001600160a01b0387169063cf701ff790611640908490600190600401611f95565b60206040518083038186803b15801561165857600080fd5b505afa15801561166c573d6000803e3d6000fd5b505050506040513d601f19601f820116820180604052508101906116909190611d6d565b9350505050611741565b81600314156116ec576116ab611c5b565b878183600381106116b857fe5b6020020152604051633883e11960e01b81526001600160a01b03871690633883e11990611640908490600190600401611f5d565b816002141561173e576116fd611c79565b8781836002811061170a57fe5b602002015260405163ed8e84f360e01b81526001600160a01b0387169063ed8e84f390611640908490600190600401611f25565b50505b949350505050565b6000807f00000000000000000000000000000000000000000000000000000000000000006001600160a01b031663317d3735876040518263ffffffff1660e01b81526004016117989190611eba565b60206040518083038186803b1580156117b057600080fd5b505afa1580156117c4573d6000803e3d6000fd5b505050506040513d601f19601f820116820180604052508101906117e89190611ca8565b90506001600160a01b0381166117fb5750825b6000805b600881101561187057600085826008811061181657fe5b60200201516001600160a01b0316141561183657600093505050506119da565b866001600160a01b031685826008811061184c57fe5b60200201516001600160a01b0316141561186857809150611870565b6001016117ff565b506040516391e2851f60e01b81526000906001600160a01b037f000000000000000000000000000000000000000000000000000000000000000016906391e2851f906118c0908690600401611eba565b60206040518083038186803b1580156118d857600080fd5b505afa1580156118ec573d6000803e3d6000fd5b505050506040513d601f19601f820116820180604052508101906119109190611d6d565b90508061199f5760405163cc2b27d760e01b81526001600160a01b0384169063cc2b27d790611945908c9086906004016121c9565b60206040518083038186803b15801561195d57600080fd5b505afa158015611971573d6000803e3d6000fd5b505050506040513d601f19601f820116820180604052508101906119959190611d6d565b93505050506119da565b8060011415611523576040516327d8462f60e11b81526001600160a01b03841690634fb08c5e90611945908c90600f87900b906004016121f3565b95945050505050565b6060611a38826040518060400160405280602081526020017f5361666545524332303a206c6f772d6c6576656c2063616c6c206661696c6564815250856001600160a01b0316611b359092919063ffffffff16565b8051909150156115645780806020019051810190611a569190611d4d565b6115645760405162461bcd60e51b8152600401610117906120ef565b801580611afa5750604051636eb1769f60e11b81526001600160a01b0384169063dd62ed3e90611aa89030908690600401611ece565b60206040518083038186803b158015611ac057600080fd5b505afa158015611ad4573d6000803e3d6000fd5b505050506040513d601f19601f82011682018060405250810190611af89190611d6d565b155b611b165760405162461bcd60e51b81526004016101179061216a565b6115648363095ea7b360e01b8484604051602401610fd9929190611f0c565b6060611741848460008585611b4985611bdf565b611b655760405162461bcd60e51b81526004016101179061208c565b60006060866001600160a01b03168587604051611b829190611e9e565b60006040518083038185875af1925050503d8060008114611bbf576040519150601f19603f3d011682016040523d82523d6000602084013e611bc4565b606091505b5091509150611bd4828286611be5565b979650505050505050565b3b151590565b60608315611bf4575081610f75565b825115611c045782518084602001fd5b8160405162461bcd60e51b81526004016101179190611fcd565b6040518061010001604052806008906020820280368337509192915050565b60405180608001604052806004906020820280368337509192915050565b60405180606001604052806003906020820280368337509192915050565b60405180604001604052806002906020820280368337509192915050565b8051611ca281612243565b92915050565b600060208284031215611cb9578081fd5b8151610f7581612243565b6000610100808385031215611cd7578182fd5b83601f840112611ce5578182fd5b60405181810181811067ffffffffffffffff82111715611d03578384fd5b6040528084838101871015611d16578485fd5b8493505b6008841015611d4257611d2d8782611c97565b82526001939093019260209182019101611d1a565b509095945050505050565b600060208284031215611d5e578081fd5b81518015158114610f75578182fd5b600060208284031215611d7e578081fd5b5051919050565b600080600060608486031215611d99578182fd5b833592506020840135611dab81612243565b91506040840135611dbb81612243565b809150509250925092565b60008060008060008060c08789031215611dde578182fd5b86359550602087013594506040870135611df781612243565b93506060870135611e0781612243565b92506080870135611e1781612243565b915060a0870135611e2781612243565b809150509295509295509295565b8060005b6002811015611010578151845260209384019390910190600101611e39565b8060005b6003811015611010578151845260209384019390910190600101611e5c565b8060005b6004811015611010578151845260209384019390910190600101611e7f565b60008251611eb0818460208701612217565b9190910192915050565b6001600160a01b0391909116815260200190565b6001600160a01b0392831681529116602082015260400190565b6001600160a01b039384168152919092166020820152604081019190915260600190565b6001600160a01b03929092168252602082015260400190565b60608101611f338285611e35565b82151560408301529392505050565b60608101611f508285611e35565b8260408301529392505050565b60808101611f6b8285611e58565b82151560608301529392505050565b60808101611f888285611e58565b8260608301529392505050565b60a08101611fa38285611e7b565b82151560808301529392505050565b60a08101611fc08285611e7b565b8260808301529392505050565b6000602082528251806020840152611fec816040850160208701612217565b601f01601f19169190910160400192915050565b6020808252600f908201526e151bdad95b881b9bdd08199bdd5b99608a1b604082015260600190565b6020808252601c908201527b125b9cdd59999a58da595b9d081d1bdad95b93dd5d08185b5bdd5b9d60221b604082015260600190565b6020808252601390820152720a8ded6cadce640c6c2dcdcdee840dac2e8c6d606b1b604082015260600190565b6020808252601d908201527f416464726573733a2063616c6c20746f206e6f6e2d636f6e7472616374000000604082015260600190565b602080825260129082015271556e6b6e6f776e20696e646578207479706560701b604082015260600190565b6020808252602a908201527f5361666545524332303a204552433230206f7065726174696f6e20646964206e6040820152691bdd081cdd58d8d9595960b21b606082015260800190565b602080825260179082015276151bdad95b881b9bdd08199bdd5b99081a5b881c1bdbdb604a1b604082015260600190565b60208082526036908201527f5361666545524332303a20617070726f76652066726f6d206e6f6e2d7a65726f60408201527520746f206e6f6e2d7a65726f20616c6c6f77616e636560501b606082015260800190565b90815260200190565b918252600f0b602082015260400190565b928352600f9190910b6020830152604082015260600190565b918252602082015260400190565b9283526020830191909152604082015260600190565b60005b8381101561223257818101518382015260200161221a565b838111156110105750506000910152565b6001600160a01b038116811461225857600080fd5b5056fe000000000000000000000000c4ad29ba4b3c580e6d59105fff484999997675ffa264697066735822122080ce9dddd146390537f0335d85d5dbe86d9e8bf983b62bad08ce6d7f966c462764736f6c634300060c0033",
    "linkReferences": {},
    "deployedLinkReferences": {}
}