{
    "_format": "hh-sol-artifact-1",
    "contractName": "CurveLPAdapter",
    "sourceName": "contracts/adapters/liquidity/CurveLPAdapter.sol",
    "abi": [
        {
            "inputs": [
                {
                    "internalType": "address",
                    "name": "addressProvider_",
                    "type": "address"
                },
                {
                    "internalType": "address",
                    "name": "zapRegistry_",
                    "type": "address"
                },
                {
                    "internalType": "address",
                    "name": "weth_",
                    "type": "address"
                }
            ],
            "stateMutability": "nonpayable",
            "type": "constructor"
        },
        {
            "inputs": [],
            "name": "TRICRYPTO2",
            "outputs": [
                {
                    "internalType": "address",
                    "name": "",
                    "type": "address"
                }
            ],
            "stateMutability": "view",
            "type": "function"
        },
        {
            "inputs": [],
            "name": "TRICRYPTO2_POOL",
            "outputs": [
                {
                    "internalType": "address",
                    "name": "",
                    "type": "address"
                }
            ],
            "stateMutability": "view",
            "type": "function"
        },
        {
            "inputs": [],
            "name": "addressProvider",
            "outputs": [
                {
                    "internalType": "contract ICurveAddressProvider",
                    "name": "",
                    "type": "address"
                }
            ],
            "stateMutability": "view",
            "type": "function"
        },
        {
            "inputs": [
                {
                    "internalType": "uint256",
                    "name": "amount",
                    "type": "uint256"
                },
                {
                    "internalType": "address",
                    "name": "tokenIn",
                    "type": "address"
                },
                {
                    "internalType": "address",
                    "name": "tokenOut",
                    "type": "address"
                }
            ],
            "name": "spotPrice",
            "outputs": [
                {
                    "internalType": "uint256",
                    "name": "",
                    "type": "uint256"
                }
            ],
            "stateMutability": "view",
            "type": "function"
        },
        {
            "inputs": [
                {
                    "internalType": "uint256",
                    "name": "amount",
                    "type": "uint256"
                },
                {
                    "internalType": "uint256",
                    "name": "expected",
                    "type": "uint256"
                },
                {
                    "internalType": "address",
                    "name": "tokenIn",
                    "type": "address"
                },
                {
                    "internalType": "address",
                    "name": "tokenOut",
                    "type": "address"
                },
                {
                    "internalType": "address",
                    "name": "from",
                    "type": "address"
                },
                {
                    "internalType": "address",
                    "name": "to",
                    "type": "address"
                }
            ],
            "name": "swap",
            "outputs": [],
            "stateMutability": "nonpayable",
            "type": "function"
        },
        {
            "inputs": [],
            "name": "weth",
            "outputs": [
                {
                    "internalType": "address",
                    "name": "",
                    "type": "address"
                }
            ],
            "stateMutability": "view",
            "type": "function"
        },
        {
            "inputs": [],
            "name": "zapRegistry",
            "outputs": [
                {
                    "internalType": "contract ICurveDepositZapRegistry",
                    "name": "",
                    "type": "address"
                }
            ],
            "stateMutability": "view",
            "type": "function"
        }
    ],
    "bytecode": "0x60e06040523480156200001157600080fd5b50604051620023c2380380620023c283398101604081905262000034916200005a565b6001600160601b0319606091821b811660805292811b831660a0521b1660c052620000c6565b6000806000606084860312156200006f578283fd5b83516200007c81620000ad565b60208501519093506200008f81620000ad565b6040850151909250620000a281620000ad565b809150509250925092565b6001600160a01b0381168114620000c357600080fd5b50565b60805160601c60a05160601c60c05160601c6122a86200011a60003980610f74528061123352806113e852806117455280611882525080610149528061086852806108e752508061089e52506122a86000f3fe608060405234801561001057600080fd5b506004361061006d5760003560e01c8063230f11c7146100725780632954018c146100875780633cfae174146100a55780633fc8cef3146100ad57806377ec159d146100b55780637bf14727146100d5578063bfefe235146100dd575b600080fd5b610085610080366004611dbd565b6100e5565b005b61008f610866565b60405161009c9190611eb1565b60405180910390f35b61008f61088a565b61008f61089c565b6100c86100c3366004611d7c565b6108c0565b60405161009c91906121b7565b61008f610f72565b61008f610f96565b826001600160a01b0316846001600160a01b031614156101205760405162461bcd60e51b815260040161011790612056565b60405180910390fd5b6001600160a01b0382163014610145576101456001600160a01b038516833089610fae565b60007f00000000000000000000000000000000000000000000000000000000000000006001600160a01b031663a262904b6040518163ffffffff1660e01b815260040160206040518083038186803b1580156101a057600080fd5b505afa1580156101b4573d6000803e3d6000fd5b505050506040513d601f19601f820116820180604052508101906101d89190611c9f565b90506000816001600160a01b031663bdf475c3876040518263ffffffff1660e01b81526004016102089190611eb1565b60206040518083038186803b15801561022057600080fd5b505afa158015610234573d6000803e3d6000fd5b505050506040513d601f19601f820116820180604052508101906102589190611c9f565b90506000826001600160a01b031663bdf475c3876040518263ffffffff1660e01b81526004016102889190611eb1565b60206040518083038186803b1580156102a057600080fd5b505afa1580156102b4573d6000803e3d6000fd5b505050506040513d601f19601f820116820180604052508101906102d89190611c9f565b90506001600160a01b0382161580156102f957506001600160a01b03811615155b1561038b57610386898883866001600160a01b0316639ac90d3d866040518263ffffffff1660e01b81526004016103309190611eb1565b6101006040518083038186803b15801561034957600080fd5b505afa15801561035d573d6000803e3d6000fd5b505050506040513d601f19601f820116820180604052508101906103819190611cbb565b61100c565b610795565b6001600160a01b038216158015906103aa57506001600160a01b038116155b156104385761038689888885876001600160a01b0316639ac90d3d886040518263ffffffff1660e01b81526004016103e29190611eb1565b6101006040518083038186803b1580156103fb57600080fd5b505afa15801561040f573d6000803e3d6000fd5b505050506040513d601f19601f820116820180604052508101906104339190611cbb565b611219565b6001600160a01b0382161580159061045857506001600160a01b03811615155b15610681576000610467611c15565b604051639ac90d3d60e01b81526001600160a01b03861690639ac90d3d90610493908690600401611eb1565b6101006040518083038186803b1580156104ac57600080fd5b505afa1580156104c0573d6000803e3d6000fd5b505050506040513d601f19601f820116820180604052508101906104e49190611cbb565b905060005b600881101561055457600082826008811061050057fe5b60200201516001600160a01b0316141561051957610554565b896001600160a01b031682826008811061052f57fe5b60200201516001600160a01b0316141561054c5760019250610554565b6001016104e9565b50811561056c576105678b8a858461100c565b61067a565b6000610576611c15565b604051639ac90d3d60e01b81526001600160a01b03881690639ac90d3d906105a2908990600401611eb1565b6101006040518083038186803b1580156105bb57600080fd5b505afa1580156105cf573d6000803e3d6000fd5b505050506040513d601f19601f820116820180604052508101906105f39190611cbb565b905060005b600881101561066357600082826008811061060f57fe5b60200201516001600160a01b0316141561062857610663565b8a6001600160a01b031682826008811061063e57fe5b60200201516001600160a01b0316141561065b5760019250610663565b6001016105f8565b508115610677576106778d8c8c8985611219565b50505b5050610795565b6001600160a01b03871660008051602061225383398151915214806106bc57506001600160a01b038616600080516020612253833981519152145b1561006d576106c9611c15565b73dac17f958d2ee523a2206206994597c13d831ec78152732260fac5e5542a773aa44fbcfedf7c193bc2c599602082015273c02aaa39b223fe8d0a0e5c4f27ead9083c756cc260408201526000805160206122538339815191526001600160a01b0389161415610754576107548a898973d51a44d3fae010294c616388b506acda1bfaae4685611219565b6001600160a01b0387166000805160206122538339815191521415610793576107938a8973d51a44d3fae010294c616388b506acda1bfaae468461100c565b505b6040516370a0823160e01b81526000906001600160a01b038816906370a08231906107c4903090600401611eb1565b60206040518083038186803b1580156107dc57600080fd5b505afa1580156107f0573d6000803e3d6000fd5b505050506040513d601f19601f820116820180604052508101906108149190611d64565b9050888110156108365760405162461bcd60e51b815260040161011790612020565b6001600160a01b038516301461085a5761085a6001600160a01b038816868361153c565b50505050505050505050565b7f000000000000000000000000000000000000000000000000000000000000000081565b60008051602061225383398151915281565b7f000000000000000000000000000000000000000000000000000000000000000081565b6000816001600160a01b0316836001600160a01b031614156108e3575082610f6b565b60007f00000000000000000000000000000000000000000000000000000000000000006001600160a01b031663a262904b6040518163ffffffff1660e01b815260040160206040518083038186803b15801561093e57600080fd5b505afa158015610952573d6000803e3d6000fd5b505050506040513d601f19601f820116820180604052508101906109769190611c9f565b90506000816001600160a01b031663bdf475c3866040518263ffffffff1660e01b81526004016109a69190611eb1565b60206040518083038186803b1580156109be57600080fd5b505afa1580156109d2573d6000803e3d6000fd5b505050506040513d601f19601f820116820180604052508101906109f69190611c9f565b90506000826001600160a01b031663bdf475c3866040518263ffffffff1660e01b8152600401610a269190611eb1565b60206040518083038186803b158015610a3e57600080fd5b505afa158015610a52573d6000803e3d6000fd5b505050506040513d601f19601f82011682018060405250810190610a769190611c9f565b90506001600160a01b038216158015610a9757506001600160a01b03811615155b15610b2e57610b24878783866001600160a01b0316639ac90d3d866040518263ffffffff1660e01b8152600401610ace9190611eb1565b6101006040518083038186803b158015610ae757600080fd5b505afa158015610afb573d6000803e3d6000fd5b505050506040513d601f19601f82011682018060405250810190610b1f9190611cbb565b611560565b9350505050610f6b565b6001600160a01b03821615801590610b4d57506001600160a01b038116155b15610bdb57610b2487878785876001600160a01b0316639ac90d3d886040518263ffffffff1660e01b8152600401610b859190611eb1565b6101006040518083038186803b158015610b9e57600080fd5b505afa158015610bb2573d6000803e3d6000fd5b505050506040513d601f19601f82011682018060405250810190610bd69190611cbb565b611740565b6001600160a01b03821615801590610bfb57506001600160a01b03811615155b15610e38576000610c0a611c15565b604051639ac90d3d60e01b81526001600160a01b03861690639ac90d3d90610c36908690600401611eb1565b6101006040518083038186803b158015610c4f57600080fd5b505afa158015610c63573d6000803e3d6000fd5b505050506040513d601f19601f82011682018060405250810190610c879190611cbb565b905060005b6008811015610cf7576000828260088110610ca357fe5b60200201516001600160a01b03161415610cbc57610cf7565b886001600160a01b0316828260088110610cd257fe5b60200201516001600160a01b03161415610cef5760019250610cf7565b600101610c8c565b508115610d1657610d0a89898584611560565b95505050505050610f6b565b6000610d20611c15565b604051639ac90d3d60e01b81526001600160a01b03881690639ac90d3d90610d4c908990600401611eb1565b6101006040518083038186803b158015610d6557600080fd5b505afa158015610d79573d6000803e3d6000fd5b505050506040513d601f19601f82011682018060405250810190610d9d9190611cbb565b905060005b6008811015610e0d576000828260088110610db957fe5b60200201516001600160a01b03161415610dd257610e0d565b896001600160a01b0316828260088110610de857fe5b60200201516001600160a01b03161415610e055760019250610e0d565b600101610da2565b508115610e2f57610e218b8b8b8985611740565b975050505050505050610f6b565b50505050610f67565b6001600160a01b0386166000805160206122538339815191521480610e7357506001600160a01b038516600080516020612253833981519152145b15610f5b57610e80611c15565b73dac17f958d2ee523a2206206994597c13d831ec78152732260fac5e5542a773aa44fbcfedf7c193bc2c599602082015273c02aaa39b223fe8d0a0e5c4f27ead9083c756cc260408201526000805160206122538339815191526001600160a01b0388161415610f1657610f0b88888873d51a44d3fae010294c616388b506acda1bfaae4685611740565b945050505050610f6b565b6001600160a01b0386166000805160206122538339815191521415610f5557610f0b888873d51a44d3fae010294c616388b506acda1bfaae4684611560565b50610f67565b60009350505050610f6b565b5050505b9392505050565b7f000000000000000000000000000000000000000000000000000000000000000081565b73d51a44d3fae010294c616388b506acda1bfaae4681565b611006846323b872dd60e01b858585604051602401610fcf93929190611edf565b60408051601f198184030181529190526020810180516001600160e01b03166001600160e01b0319909316929092179091526119da565b50505050565b6110206001600160a01b0384168386611a69565b60006008815b600881101561108f57600084826008811061103d57fe5b60200201516001600160a01b031614156110595780925061108f565b856001600160a01b031684826008811061106f57fe5b60200201516001600160a01b03161415611087578091505b600101611026565b50600881106110b05760405162461bcd60e51b815260040161011790611ff7565b8160041415611139576110c1611c34565b868183600481106110ce57fe5b602002015260405162a6cbcd60e21b81526001600160a01b0386169063029b2f3490611101908490600090600401611fa9565b600060405180830381600087803b15801561111b57600080fd5b505af115801561112f573d6000803e3d6000fd5b5050505050611211565b816003141561118b5761114a611c52565b8681836003811061115757fe5b6020020152604051634515cef360e01b81526001600160a01b03861690634515cef390611101908490600090600401611f71565b81600214156112115761119c611c70565b868183600281106111a957fe5b6020020152604051630b4c7e4d60e01b81526001600160a01b03861690630b4c7e4d906111dd908490600090600401611f39565b600060405180830381600087803b1580156111f757600080fd5b505af115801561120b573d6000803e3d6000fd5b50505050505b505050505050565b60405163317d373560e01b81526000906001600160a01b037f0000000000000000000000000000000000000000000000000000000000000000169063317d373590611268908890600401611eb1565b60206040518083038186803b15801561128057600080fd5b505afa158015611294573d6000803e3d6000fd5b505050506040513d601f19601f820116820180604052508101906112b89190611c9f565b90506001600160a01b0381166112cb5750815b6000805b600881101561134c5760008482600881106112e657fe5b60200201516001600160a01b031614156113125760405162461bcd60e51b815260040161011790612130565b856001600160a01b031684826008811061132857fe5b60200201516001600160a01b031614156113445780915061134c565b6001016112cf565b5060405163095ea7b360e01b81526001600160a01b0387169063095ea7b39061137b9085908b90600401611f03565b602060405180830381600087803b15801561139557600080fd5b505af11580156113a9573d6000803e3d6000fd5b505050506040513d601f19601f820116820180604052508101906113cd9190611d44565b506040516391e2851f60e01b81526000906001600160a01b037f000000000000000000000000000000000000000000000000000000000000000016906391e2851f9061141d908690600401611eb1565b60206040518083038186803b15801561143557600080fd5b505afa158015611449573d6000803e3d6000fd5b505050506040513d601f19601f8201168201806040525081019061146d9190611d64565b9050806114dc57604051630d2680e960e11b81526001600160a01b03841690631a4d01d2906114a5908b9086906001906004016121d1565b600060405180830381600087803b1580156114bf57600080fd5b505af11580156114d3573d6000803e3d6000fd5b50505050611532565b806001141561151a5760405163f1dc3cc960e01b81526001600160a01b0384169063f1dc3cc9906114a5908b90600f87900b906001906004016121f8565b60405162461bcd60e51b8152600401610117906120ba565b5050505050505050565b61155b8363a9059cbb60e01b8484604051602401610fcf929190611f03565b505050565b6000806008815b60088110156115d057600085826008811061157e57fe5b60200201516001600160a01b0316141561159a578092506115d0565b866001600160a01b03168582600881106115b057fe5b60200201516001600160a01b031614156115c8578091505b600101611567565b5080600814156115e557600092505050611738565b8160041415611691576115f6611c34565b8781836004811061160357fe5b602002015260405163cf701ff760e01b81526001600160a01b0387169063cf701ff790611637908490600190600401611f8c565b60206040518083038186803b15801561164f57600080fd5b505afa158015611663573d6000803e3d6000fd5b505050506040513d601f19601f820116820180604052508101906116879190611d64565b9350505050611738565b81600314156116e3576116a2611c52565b878183600381106116af57fe5b6020020152604051633883e11960e01b81526001600160a01b03871690633883e11990611637908490600190600401611f54565b8160021415611735576116f4611c70565b8781836002811061170157fe5b602002015260405163ed8e84f360e01b81526001600160a01b0387169063ed8e84f390611637908490600190600401611f1c565b50505b949350505050565b6000807f00000000000000000000000000000000000000000000000000000000000000006001600160a01b031663317d3735876040518263ffffffff1660e01b815260040161178f9190611eb1565b60206040518083038186803b1580156117a757600080fd5b505afa1580156117bb573d6000803e3d6000fd5b505050506040513d601f19601f820116820180604052508101906117df9190611c9f565b90506001600160a01b0381166117f25750825b6000805b600881101561186757600085826008811061180d57fe5b60200201516001600160a01b0316141561182d57600093505050506119d1565b866001600160a01b031685826008811061184357fe5b60200201516001600160a01b0316141561185f57809150611867565b6001016117f6565b506040516391e2851f60e01b81526000906001600160a01b037f000000000000000000000000000000000000000000000000000000000000000016906391e2851f906118b7908690600401611eb1565b60206040518083038186803b1580156118cf57600080fd5b505afa1580156118e3573d6000803e3d6000fd5b505050506040513d601f19601f820116820180604052508101906119079190611d64565b9050806119965760405163cc2b27d760e01b81526001600160a01b0384169063cc2b27d79061193c908c9086906004016121c0565b60206040518083038186803b15801561195457600080fd5b505afa158015611968573d6000803e3d6000fd5b505050506040513d601f19601f8201168201806040525081019061198c9190611d64565b93505050506119d1565b806001141561151a576040516327d8462f60e11b81526001600160a01b03841690634fb08c5e9061193c908c90600f87900b906004016121ea565b95945050505050565b6060611a2f826040518060400160405280602081526020017f5361666545524332303a206c6f772d6c6576656c2063616c6c206661696c6564815250856001600160a01b0316611b2c9092919063ffffffff16565b80519091501561155b5780806020019051810190611a4d9190611d44565b61155b5760405162461bcd60e51b8152600401610117906120e6565b801580611af15750604051636eb1769f60e11b81526001600160a01b0384169063dd62ed3e90611a9f9030908690600401611ec5565b60206040518083038186803b158015611ab757600080fd5b505afa158015611acb573d6000803e3d6000fd5b505050506040513d601f19601f82011682018060405250810190611aef9190611d64565b155b611b0d5760405162461bcd60e51b815260040161011790612161565b61155b8363095ea7b360e01b8484604051602401610fcf929190611f03565b6060611738848460008585611b4085611bd6565b611b5c5760405162461bcd60e51b815260040161011790612083565b60006060866001600160a01b03168587604051611b799190611e95565b60006040518083038185875af1925050503d8060008114611bb6576040519150601f19603f3d011682016040523d82523d6000602084013e611bbb565b606091505b5091509150611bcb828286611bdc565b979650505050505050565b3b151590565b60608315611beb575081610f6b565b825115611bfb5782518084602001fd5b8160405162461bcd60e51b81526004016101179190611fc4565b6040518061010001604052806008906020820280368337509192915050565b60405180608001604052806004906020820280368337509192915050565b60405180606001604052806003906020820280368337509192915050565b60405180604001604052806002906020820280368337509192915050565b8051611c998161223a565b92915050565b600060208284031215611cb0578081fd5b8151610f6b8161223a565b6000610100808385031215611cce578182fd5b83601f840112611cdc578182fd5b60405181810181811067ffffffffffffffff82111715611cfa578384fd5b6040528084838101871015611d0d578485fd5b8493505b6008841015611d3957611d248782611c8e565b82526001939093019260209182019101611d11565b509095945050505050565b600060208284031215611d55578081fd5b81518015158114610f6b578182fd5b600060208284031215611d75578081fd5b5051919050565b600080600060608486031215611d90578182fd5b833592506020840135611da28161223a565b91506040840135611db28161223a565b809150509250925092565b60008060008060008060c08789031215611dd5578182fd5b86359550602087013594506040870135611dee8161223a565b93506060870135611dfe8161223a565b92506080870135611e0e8161223a565b915060a0870135611e1e8161223a565b809150509295509295509295565b8060005b6002811015611006578151845260209384019390910190600101611e30565b8060005b6003811015611006578151845260209384019390910190600101611e53565b8060005b6004811015611006578151845260209384019390910190600101611e76565b60008251611ea781846020870161220e565b9190910192915050565b6001600160a01b0391909116815260200190565b6001600160a01b0392831681529116602082015260400190565b6001600160a01b039384168152919092166020820152604081019190915260600190565b6001600160a01b03929092168252602082015260400190565b60608101611f2a8285611e2c565b82151560408301529392505050565b60608101611f478285611e2c565b8260408301529392505050565b60808101611f628285611e4f565b82151560608301529392505050565b60808101611f7f8285611e4f565b8260608301529392505050565b60a08101611f9a8285611e72565b82151560808301529392505050565b60a08101611fb78285611e72565b8260808301529392505050565b6000602082528251806020840152611fe381604085016020870161220e565b601f01601f19169190910160400192915050565b6020808252600f908201526e151bdad95b881b9bdd08199bdd5b99608a1b604082015260600190565b6020808252601c908201527b125b9cdd59999a58da595b9d081d1bdad95b93dd5d08185b5bdd5b9d60221b604082015260600190565b6020808252601390820152720a8ded6cadce640c6c2dcdcdee840dac2e8c6d606b1b604082015260600190565b6020808252601d908201527f416464726573733a2063616c6c20746f206e6f6e2d636f6e7472616374000000604082015260600190565b602080825260129082015271556e6b6e6f776e20696e646578207479706560701b604082015260600190565b6020808252602a908201527f5361666545524332303a204552433230206f7065726174696f6e20646964206e6040820152691bdd081cdd58d8d9595960b21b606082015260800190565b602080825260179082015276151bdad95b881b9bdd08199bdd5b99081a5b881c1bdbdb604a1b604082015260600190565b60208082526036908201527f5361666545524332303a20617070726f76652066726f6d206e6f6e2d7a65726f60408201527520746f206e6f6e2d7a65726f20616c6c6f77616e636560501b606082015260800190565b90815260200190565b918252600f0b602082015260400190565b928352600f9190910b6020830152604082015260600190565b918252602082015260400190565b9283526020830191909152604082015260600190565b60005b83811015612229578181015183820152602001612211565b838111156110065750506000910152565b6001600160a01b038116811461224f57600080fd5b5056fe000000000000000000000000c4ad29ba4b3c580e6d59105fff484999997675ffa26469706673582212202f6a7011f22206894dda4bd6a3b153f2e4ecee474e7708bb573c9a93ca939c2964736f6c634300060c0033",
    "linkReferences": {},
    "deployedLinkReferences": {}
}