{
  "_format": "hh-sol-artifact-1",
  "contractName": "FailAdapterController",
  "sourceName": "contracts/test/FailAdapter.sol",
  "abi": [
    {
      "inputs": [],
      "name": "buyFail",
      "outputs": [
        {
          "internalType": "bool",
          "name": "",
          "type": "bool"
        }
      ],
      "stateMutability": "view",
      "type": "function"
    },
    {
      "inputs": [],
      "name": "sellFail",
      "outputs": [
        {
          "internalType": "bool",
          "name": "",
          "type": "bool"
        }
      ],
      "stateMutability": "view",
      "type": "function"
    },
    {
      "inputs": [
        {
          "internalType": "bool",
          "name": "fail",
          "type": "bool"
        }
      ],
      "name": "setBuyFail",
      "outputs": [],
      "stateMutability": "nonpayable",
      "type": "function"
    },
    {
      "inputs": [
        {
          "internalType": "bool",
          "name": "fail",
          "type": "bool"
        }
      ],
      "name": "setSellFail",
      "outputs": [],
      "stateMutability": "nonpayable",
      "type": "function"
    }
  ],
  "bytecode": "0x608060405234801561001057600080fd5b5061011f806100206000396000f3fe6080604052348015600f57600080fd5b506004361060465760003560e01c80632da73d1214604b578063a29ee848146065578063b357b8c8146083578063ea239d1414609f575b600080fd5b605160a5565b604080519115158252519081900360200190f35b608160048036036020811015607957600080fd5b5035151560ae565b005b608160048036036020811015609757600080fd5b5035151560c1565b605160db565b60005460ff1681565b6000805460ff1916911515919091179055565b600080549115156101000261ff0019909216919091179055565b600054610100900460ff168156fea2646970667358221220fc17076beb97a9eb33cffd3b89500d75b8770bf8bc51a63e1ecd0321d004133364736f6c634300060c0033",
  "linkReferences": {},
  "deployedLinkReferences": {}
}