{
  "_format": "hh-sol-artifact-1",
  "contractName": "FailAdapter",
  "sourceName": "contracts/test/FailAdapter.sol",
  "abi": [
    {
      "inputs": [
        {
          "internalType": "address",
          "name": "weth_",
          "type": "address"
        }
      ],
      "stateMutability": "nonpayable",
      "type": "constructor"
    },
    {
      "inputs": [
        {
          "internalType": "address",
          "name": "token",
          "type": "address"
        }
      ],
      "name": "claim",
      "outputs": [],
      "stateMutability": "nonpayable",
      "type": "function"
    },
    {
      "inputs": [],
      "name": "controller",
      "outputs": [
        {
          "internalType": "contract FailAdapterController",
          "name": "",
          "type": "address"
        }
      ],
      "stateMutability": "view",
      "type": "function"
    },
    {
      "inputs": [
        {
          "internalType": "bool",
          "name": "fail",
          "type": "bool"
        }
      ],
      "name": "setBuyFail",
      "outputs": [],
      "stateMutability": "nonpayable",
      "type": "function"
    },
    {
      "inputs": [
        {
          "internalType": "bool",
          "name": "fail",
          "type": "bool"
        }
      ],
      "name": "setSellFail",
      "outputs": [],
      "stateMutability": "nonpayable",
      "type": "function"
    },
    {
      "inputs": [
        {
          "internalType": "uint256",
          "name": "amount",
          "type": "uint256"
        },
        {
          "internalType": "address",
          "name": "tokenIn",
          "type": "address"
        },
        {
          "internalType": "address",
          "name": "tokenOut",
          "type": "address"
        }
      ],
      "name": "spotPrice",
      "outputs": [
        {
          "internalType": "uint256",
          "name": "",
          "type": "uint256"
        }
      ],
      "stateMutability": "view",
      "type": "function"
    },
    {
      "inputs": [
        {
          "internalType": "uint256",
          "name": "amount",
          "type": "uint256"
        },
        {
          "internalType": "uint256",
          "name": "expected",
          "type": "uint256"
        },
        {
          "internalType": "address",
          "name": "tokenIn",
          "type": "address"
        },
        {
          "internalType": "address",
          "name": "tokenOut",
          "type": "address"
        },
        {
          "internalType": "address",
          "name": "from",
          "type": "address"
        },
        {
          "internalType": "address",
          "name": "to",
          "type": "address"
        }
      ],
      "name": "swap",
      "outputs": [],
      "stateMutability": "nonpayable",
      "type": "function"
    },
    {
      "inputs": [],
      "name": "weth",
      "outputs": [
        {
          "internalType": "address",
          "name": "",
          "type": "address"
        }
      ],
      "stateMutability": "view",
      "type": "function"
    }
  ],
  "bytecode": "0x60c060405234801561001057600080fd5b5060405161071f38038061071f8339818101604052602081101561003357600080fd5b50516001600160601b0319606082901b1660805260405161005390610086565b604051809103906000f08015801561006f573d6000803e3d6000fd5b5060601b6001600160601b03191660a05250610093565b61013f806105e083390190565b60805160601c60a05160601c6105066100da60003980610196528061029352806103c3528061044652806104ae525080610222528061031f528061039852506105066000f3fe608060405234801561001057600080fd5b506004361061006d5760003560e01c80631e83409a14610072578063230f11c71461009a5780633fc8cef3146100e457806377ec159d14610108578063a29ee8481461014e578063b357b8c81461016d578063f77c47911461018c575b600080fd5b6100986004803603602081101561008857600080fd5b50356001600160a01b031661006d565b005b610098600480360360c08110156100b057600080fd5b508035906020810135906001600160a01b0360408201358116916060810135821691608082013581169160a0013516610194565b6100ec610396565b604080516001600160a01b039092168252519081900360200190f35b61013c6004803603606081101561011e57600080fd5b508035906001600160a01b03602082013581169160400135166103ba565b60408051918252519081900360200190f35b6100986004803603602081101561016457600080fd5b503515156103c1565b6100986004803603602081101561018357600080fd5b50351515610444565b6100ec6104ac565b7f00000000000000000000000000000000000000000000000000000000000000006001600160a01b0316632da73d126040518163ffffffff1660e01b815260040160206040518083038186803b1580156101ed57600080fd5b505afa158015610201573d6000803e3d6000fd5b505050506040513d602081101561021757600080fd5b5051801561025657507f00000000000000000000000000000000000000000000000000000000000000006001600160a01b0316846001600160a01b0316145b15610291576040805162461bcd60e51b8152602060048083019190915260248201526311985a5b60e21b604482015290519081900360640190fd5b7f00000000000000000000000000000000000000000000000000000000000000006001600160a01b031663ea239d146040518163ffffffff1660e01b815260040160206040518083038186803b1580156102ea57600080fd5b505afa1580156102fe573d6000803e3d6000fd5b505050506040513d602081101561031457600080fd5b5051801561035357507f00000000000000000000000000000000000000000000000000000000000000006001600160a01b0316836001600160a01b0316145b1561038e576040805162461bcd60e51b8152602060048083019190915260248201526311985a5b60e21b604482015290519081900360640190fd5b505050505050565b7f000000000000000000000000000000000000000000000000000000000000000081565b5090919050565b7f00000000000000000000000000000000000000000000000000000000000000006001600160a01b031663a29ee848826040518263ffffffff1660e01b8152600401808215158152602001915050600060405180830381600087803b15801561042957600080fd5b505af115801561043d573d6000803e3d6000fd5b5050505050565b7f00000000000000000000000000000000000000000000000000000000000000006001600160a01b031663b357b8c8826040518263ffffffff1660e01b8152600401808215158152602001915050600060405180830381600087803b15801561042957600080fd5b7f00000000000000000000000000000000000000000000000000000000000000008156fea26469706673582212208efa981ab35b1f877a6012713e8e3860423287e624114c131a4947a2d6f6615864736f6c634300060c0033608060405234801561001057600080fd5b5061011f806100206000396000f3fe6080604052348015600f57600080fd5b506004361060465760003560e01c80632da73d1214604b578063a29ee848146065578063b357b8c8146083578063ea239d1414609f575b600080fd5b605160a5565b604080519115158252519081900360200190f35b608160048036036020811015607957600080fd5b5035151560ae565b005b608160048036036020811015609757600080fd5b5035151560c1565b605160db565b60005460ff1681565b6000805460ff1916911515919091179055565b600080549115156101000261ff0019909216919091179055565b600054610100900460ff168156fea2646970667358221220c4eb7ce828dc3ea4342f56fd8515a022207433407b3ec6bd99ea3340b9b48f7864736f6c634300060c0033",
  "linkReferences": {},
  "deployedLinkReferences": {}
}