{
  "_format": "hh-sol-artifact-1",
  "contractName": "FailAdapter",
  "sourceName": "contracts/test/FailAdapter.sol",
  "abi": [
    {
      "inputs": [
        {
          "internalType": "address",
          "name": "weth_",
          "type": "address"
        }
      ],
      "stateMutability": "nonpayable",
      "type": "constructor"
    },
    {
      "inputs": [
        {
          "internalType": "address",
          "name": "token",
          "type": "address"
        }
      ],
      "name": "claim",
      "outputs": [],
      "stateMutability": "nonpayable",
      "type": "function"
    },
    {
      "inputs": [],
      "name": "controller",
      "outputs": [
        {
          "internalType": "contract FailAdapterController",
          "name": "",
          "type": "address"
        }
      ],
      "stateMutability": "view",
      "type": "function"
    },
    {
      "inputs": [
        {
          "internalType": "bool",
          "name": "fail",
          "type": "bool"
        }
      ],
      "name": "setBuyFail",
      "outputs": [],
      "stateMutability": "nonpayable",
      "type": "function"
    },
    {
      "inputs": [
        {
          "internalType": "bool",
          "name": "fail",
          "type": "bool"
        }
      ],
      "name": "setSellFail",
      "outputs": [],
      "stateMutability": "nonpayable",
      "type": "function"
    },
    {
      "inputs": [
        {
          "internalType": "uint256",
          "name": "amount",
          "type": "uint256"
        },
        {
          "internalType": "uint256",
          "name": "expected",
          "type": "uint256"
        },
        {
          "internalType": "address",
          "name": "tokenIn",
          "type": "address"
        },
        {
          "internalType": "address",
          "name": "tokenOut",
          "type": "address"
        },
        {
          "internalType": "address",
          "name": "from",
          "type": "address"
        },
        {
          "internalType": "address",
          "name": "to",
          "type": "address"
        }
      ],
      "name": "swap",
      "outputs": [],
      "stateMutability": "nonpayable",
      "type": "function"
    },
    {
      "inputs": [],
      "name": "weth",
      "outputs": [
        {
          "internalType": "address",
          "name": "",
          "type": "address"
        }
      ],
      "stateMutability": "view",
      "type": "function"
    }
  ],
  "bytecode": "0x60c060405234801561001057600080fd5b506040516106c73803806106c78339818101604052602081101561003357600080fd5b50516001600160601b0319606082901b1660805260405161005390610086565b604051809103906000f08015801561006f573d6000803e3d6000fd5b5060601b6001600160601b03191660a05250610093565b61013f8061058883390190565b60805160601c60a05160601c6104ae6100da600039806101455280610242528061036b52806103ee52806104565250806101d152806102ce528061034752506104ae6000f3fe608060405234801561001057600080fd5b50600436106100625760003560e01c80631e83409a14610067578063230f11c71461008f5780633fc8cef3146100d9578063a29ee848146100fd578063b357b8c81461011c578063f77c47911461013b575b600080fd5b61008d6004803603602081101561007d57600080fd5b50356001600160a01b0316610062565b005b61008d600480360360c08110156100a557600080fd5b508035906020810135906001600160a01b0360408201358116916060810135821691608082013581169160a0013516610143565b6100e1610345565b604080516001600160a01b039092168252519081900360200190f35b61008d6004803603602081101561011357600080fd5b50351515610369565b61008d6004803603602081101561013257600080fd5b503515156103ec565b6100e1610454565b7f00000000000000000000000000000000000000000000000000000000000000006001600160a01b0316632da73d126040518163ffffffff1660e01b815260040160206040518083038186803b15801561019c57600080fd5b505afa1580156101b0573d6000803e3d6000fd5b505050506040513d60208110156101c657600080fd5b5051801561020557507f00000000000000000000000000000000000000000000000000000000000000006001600160a01b0316846001600160a01b0316145b15610240576040805162461bcd60e51b8152602060048083019190915260248201526311985a5b60e21b604482015290519081900360640190fd5b7f00000000000000000000000000000000000000000000000000000000000000006001600160a01b031663ea239d146040518163ffffffff1660e01b815260040160206040518083038186803b15801561029957600080fd5b505afa1580156102ad573d6000803e3d6000fd5b505050506040513d60208110156102c357600080fd5b5051801561030257507f00000000000000000000000000000000000000000000000000000000000000006001600160a01b0316836001600160a01b0316145b1561033d576040805162461bcd60e51b8152602060048083019190915260248201526311985a5b60e21b604482015290519081900360640190fd5b505050505050565b7f000000000000000000000000000000000000000000000000000000000000000081565b7f00000000000000000000000000000000000000000000000000000000000000006001600160a01b031663a29ee848826040518263ffffffff1660e01b8152600401808215158152602001915050600060405180830381600087803b1580156103d157600080fd5b505af11580156103e5573d6000803e3d6000fd5b5050505050565b7f00000000000000000000000000000000000000000000000000000000000000006001600160a01b031663b357b8c8826040518263ffffffff1660e01b8152600401808215158152602001915050600060405180830381600087803b1580156103d157600080fd5b7f00000000000000000000000000000000000000000000000000000000000000008156fea2646970667358221220f1359c649b83b6e8a358f83659962f04ef518e000fd888baa318eeba1387e2a464736f6c634300060c0033608060405234801561001057600080fd5b5061011f806100206000396000f3fe6080604052348015600f57600080fd5b506004361060465760003560e01c80632da73d1214604b578063a29ee848146065578063b357b8c8146083578063ea239d1414609f575b600080fd5b605160a5565b604080519115158252519081900360200190f35b608160048036036020811015607957600080fd5b5035151560ae565b005b608160048036036020811015609757600080fd5b5035151560c1565b605160db565b60005460ff1681565b6000805460ff1916911515919091179055565b600080549115156101000261ff0019909216919091179055565b600054610100900460ff168156fea2646970667358221220fc17076beb97a9eb33cffd3b89500d75b8770bf8bc51a63e1ecd0321d004133364736f6c634300060c0033",
  "linkReferences": {},
  "deployedLinkReferences": {}
}