{
  "_format": "hh-sol-artifact-1",
  "contractName": "FailAdapter",
  "sourceName": "contracts/test/FailAdapter.sol",
  "abi": [
    {
      "inputs": [
        {
          "internalType": "address",
          "name": "weth_",
          "type": "address"
        }
      ],
      "stateMutability": "nonpayable",
      "type": "constructor"
    },
    {
      "inputs": [
        {
          "internalType": "address[]",
          "name": "tokens",
          "type": "address[]"
        }
      ],
      "name": "claim",
      "outputs": [],
      "stateMutability": "nonpayable",
      "type": "function"
    },
    {
      "inputs": [],
      "name": "controller",
      "outputs": [
        {
          "internalType": "contract FailAdapterController",
          "name": "",
          "type": "address"
        }
      ],
      "stateMutability": "view",
      "type": "function"
    },
    {
      "inputs": [
        {
          "internalType": "address",
          "name": "token",
          "type": "address"
        }
      ],
      "name": "rewardsTokens",
      "outputs": [
        {
          "internalType": "address[]",
          "name": "",
          "type": "address[]"
        }
      ],
      "stateMutability": "view",
      "type": "function"
    },
    {
      "inputs": [
        {
          "internalType": "bool",
          "name": "fail",
          "type": "bool"
        }
      ],
      "name": "setBuyFail",
      "outputs": [],
      "stateMutability": "nonpayable",
      "type": "function"
    },
    {
      "inputs": [
        {
          "internalType": "bool",
          "name": "fail",
          "type": "bool"
        }
      ],
      "name": "setSellFail",
      "outputs": [],
      "stateMutability": "nonpayable",
      "type": "function"
    },
    {
      "inputs": [
        {
          "internalType": "uint256",
          "name": "amount",
          "type": "uint256"
        },
        {
          "internalType": "uint256",
          "name": "expected",
          "type": "uint256"
        },
        {
          "internalType": "address",
          "name": "tokenIn",
          "type": "address"
        },
        {
          "internalType": "address",
          "name": "tokenOut",
          "type": "address"
        },
        {
          "internalType": "address",
          "name": "from",
          "type": "address"
        },
        {
          "internalType": "address",
          "name": "to",
          "type": "address"
        }
      ],
      "name": "swap",
      "outputs": [],
      "stateMutability": "nonpayable",
      "type": "function"
    },
    {
      "inputs": [],
      "name": "weth",
      "outputs": [
        {
          "internalType": "address",
          "name": "",
          "type": "address"
        }
      ],
      "stateMutability": "view",
      "type": "function"
    }
  ],
  "bytecode": "0x60c060405234801561001057600080fd5b506040516107dc3803806107dc8339818101604052602081101561003357600080fd5b50516001600160601b0319606082901b1660805260405161005390610086565b604051809103906000f08015801561006f573d6000803e3d6000fd5b5060601b6001600160601b03191660a05250610093565b61013f8061069d83390190565b60805160601c60a05160601c6105c36100da600039806102535280610350528061047952806104fc528061056b5250806102df52806103dc528061045552506105c36000f3fe608060405234801561001057600080fd5b506004361061007d5760003560e01c8063a29ee8481161005b578063a29ee84814610195578063b357b8c8146101b4578063b901d3c0146101d3578063f77c4791146102495761007d565b8063230f11c714610082578063318d9e5d146100ce5780633fc8cef314610171575b600080fd5b6100cc600480360360c081101561009857600080fd5b508035906020810135906001600160a01b0360408201358116916060810135821691608082013581169160a0013516610251565b005b6100cc600480360360208110156100e457600080fd5b8101906020810181356401000000008111156100ff57600080fd5b82018360208201111561011157600080fd5b8035906020019184602083028401116401000000008311171561013357600080fd5b91908080602002602001604051908101604052809392919081815260200183836020028082843760009201919091525092955061007d945050505050565b610179610453565b604080516001600160a01b039092168252519081900360200190f35b6100cc600480360360208110156101ab57600080fd5b50351515610477565b6100cc600480360360208110156101ca57600080fd5b503515156104fa565b6101f9600480360360208110156101e957600080fd5b50356001600160a01b0316610562565b60408051602080825283518183015283519192839290830191858101910280838360005b8381101561023557818101518382015260200161021d565b505050509050019250505060405180910390f35b610179610569565b7f00000000000000000000000000000000000000000000000000000000000000006001600160a01b0316632da73d126040518163ffffffff1660e01b815260040160206040518083038186803b1580156102aa57600080fd5b505afa1580156102be573d6000803e3d6000fd5b505050506040513d60208110156102d457600080fd5b5051801561031357507f00000000000000000000000000000000000000000000000000000000000000006001600160a01b0316846001600160a01b0316145b1561034e576040805162461bcd60e51b8152602060048083019190915260248201526311985a5b60e21b604482015290519081900360640190fd5b7f00000000000000000000000000000000000000000000000000000000000000006001600160a01b031663ea239d146040518163ffffffff1660e01b815260040160206040518083038186803b1580156103a757600080fd5b505afa1580156103bb573d6000803e3d6000fd5b505050506040513d60208110156103d157600080fd5b5051801561041057507f00000000000000000000000000000000000000000000000000000000000000006001600160a01b0316836001600160a01b0316145b1561044b576040805162461bcd60e51b8152602060048083019190915260248201526311985a5b60e21b604482015290519081900360640190fd5b505050505050565b7f000000000000000000000000000000000000000000000000000000000000000081565b7f00000000000000000000000000000000000000000000000000000000000000006001600160a01b031663a29ee848826040518263ffffffff1660e01b8152600401808215158152602001915050600060405180830381600087803b1580156104df57600080fd5b505af11580156104f3573d6000803e3d6000fd5b5050505050565b7f00000000000000000000000000000000000000000000000000000000000000006001600160a01b031663b357b8c8826040518263ffffffff1660e01b8152600401808215158152602001915050600060405180830381600087803b1580156104df57600080fd5b6060600080fd5b7f00000000000000000000000000000000000000000000000000000000000000008156fea264697066735822122009bf8e89486d6f65b314fd3d6ac820ad388f35375ef546557a0c6d1c0d1cdf4964736f6c634300060c0033608060405234801561001057600080fd5b5061011f806100206000396000f3fe6080604052348015600f57600080fd5b506004361060465760003560e01c80632da73d1214604b578063a29ee848146065578063b357b8c8146083578063ea239d1414609f575b600080fd5b605160a5565b604080519115158252519081900360200190f35b608160048036036020811015607957600080fd5b5035151560ae565b005b608160048036036020811015609757600080fd5b5035151560c1565b605160db565b60005460ff1681565b6000805460ff1916911515919091179055565b600080549115156101000261ff0019909216919091179055565b600054610100900460ff168156fea2646970667358221220e84adde1e48ea8331969a795e343e2d8bc53c211a2e91e8edd00d48fd1177e7c64736f6c634300060c0033",
  "linkReferences": {},
  "deployedLinkReferences": {}
}