{
  "_format": "hh-sol-artifact-1",
  "contractName": "YEarnV2Adapter",
  "sourceName": "contracts/adapters/vaults/YEarnV2Adapter.sol",
  "abi": [
    {
      "inputs": [
        {
          "internalType": "address",
          "name": "weth_",
          "type": "address"
        },
        {
          "internalType": "address",
          "name": "tokenRegistry_",
          "type": "address"
        },
        {
          "internalType": "uint256",
          "name": "categoryIndex_",
          "type": "uint256"
        }
      ],
      "stateMutability": "nonpayable",
      "type": "constructor"
    },
    {
      "inputs": [],
      "name": "categoryIndex",
      "outputs": [
        {
          "internalType": "uint256",
          "name": "",
          "type": "uint256"
        }
      ],
      "stateMutability": "view",
      "type": "function"
    },
    {
      "inputs": [
        {
          "internalType": "uint256",
          "name": "amount",
          "type": "uint256"
        },
        {
          "internalType": "uint256",
          "name": "expected",
          "type": "uint256"
        },
        {
          "internalType": "address",
          "name": "tokenIn",
          "type": "address"
        },
        {
          "internalType": "address",
          "name": "tokenOut",
          "type": "address"
        },
        {
          "internalType": "address",
          "name": "from",
          "type": "address"
        },
        {
          "internalType": "address",
          "name": "to",
          "type": "address"
        }
      ],
      "name": "swap",
      "outputs": [],
      "stateMutability": "nonpayable",
      "type": "function"
    },
    {
      "inputs": [],
      "name": "tokenRegistry",
      "outputs": [
        {
          "internalType": "contract ITokenRegistry",
          "name": "",
          "type": "address"
        }
      ],
      "stateMutability": "view",
      "type": "function"
    },
    {
      "inputs": [],
      "name": "weth",
      "outputs": [
        {
          "internalType": "address",
          "name": "",
          "type": "address"
        }
      ],
      "stateMutability": "view",
      "type": "function"
    }
  ],
  "bytecode": "0x60e060405234801561001057600080fd5b50604051610eac380380610eac83398101604081905261002f916100a7565b6001600160601b0319606084901b166080528282828061006a5760405162461bcd60e51b8152600401610061906100e4565b60405180910390fd5b60609190911b6001600160601b03191660a05260c0525061010e92505050565b80516001600160a01b03811681146100a157600080fd5b92915050565b6000806000606084860312156100bb578283fd5b6100c5858561008a565b92506100d4856020860161008a565b9150604084015190509250925092565b60208082526010908201526f496e76616c69642063617465676f727960801b604082015260600190565b60805160601c60a05160601c60c051610d6261014a600039806105fe528061074c5250806105da52806106b05250806105b65250610d626000f3fe608060405234801561001057600080fd5b506004361061004c5760003560e01c8063230f11c7146100515780633fc8cef3146100665780639d23c4c714610084578063ea99fc041461008c575b600080fd5b61006461005f3660046109b2565b6100a1565b005b61006e6105b4565b60405161007b9190610a3d565b60405180910390f35b61006e6105d8565b6100946105fc565b60405161007b9190610ca9565b826001600160a01b0316846001600160a01b031614156100dc5760405162461bcd60e51b81526004016100d390610c12565b60405180910390fd5b6001600160a01b0382163014610226576040516370a0823160e01b81526000906001600160a01b038616906370a082319061011b903090600401610a3d565b60206040518083038186803b15801561013357600080fd5b505afa158015610147573d6000803e3d6000fd5b505050506040513d601f19601f8201168201806040525081019061016b919061099a565b90506101826001600160a01b03861684308a610620565b6040516370a0823160e01b81526000906001600160a01b038716906370a08231906101b1903090600401610a3d565b60206040518083038186803b1580156101c957600080fd5b505afa1580156101dd573d6000803e3d6000fd5b505050506040513d601f19601f82011682018060405250810190610201919061099a565b90508181116102225760405162461bcd60e51b81526004016100d390610adb565b0395505b6000610231846106ab565b15610414576000849050856001600160a01b0316816001600160a01b031663fc0c546a6040518163ffffffff1660e01b815260040160206040518083038186803b15801561027e57600080fd5b505afa158015610292573d6000803e3d6000fd5b505050506040513d601f19601f820116820180604052508101906102b6919061097e565b6001600160a01b0316146102dc5760405162461bcd60e51b81526004016100d390610b10565b6102f06001600160a01b038716868a610773565b604051636e553f6560e01b81526001600160a01b03821690636e553f659061031e908b903090600401610cb2565b602060405180830381600087803b15801561033857600080fd5b505af115801561034c573d6000803e3d6000fd5b505050506040513d601f19601f82011682018060405250810190610370919061099a565b604051636eb1769f60e11b81529092506001600160a01b0387169063dd62ed3e906103a19030908990600401610a51565b60206040518083038186803b1580156103b957600080fd5b505afa1580156103cd573d6000803e3d6000fd5b505050506040513d601f19601f820116820180604052508101906103f1919061099a565b1561040e5760405162461bcd60e51b81526004016100d390610c80565b50610567565b61041d856106ab565b6104395760405162461bcd60e51b81526004016100d390610bea565b6000859050846001600160a01b0316816001600160a01b031663fc0c546a6040518163ffffffff1660e01b815260040160206040518083038186803b15801561048157600080fd5b505afa158015610495573d6000803e3d6000fd5b505050506040513d601f19601f820116820180604052508101906104b9919061097e565b6001600160a01b0316146104df5760405162461bcd60e51b81526004016100d390610b10565b604051631cc6d2f960e31b81526001600160a01b0382169063e63697c890610511908b90309061271090600401610cc9565b602060405180830381600087803b15801561052b57600080fd5b505af115801561053f573d6000803e3d6000fd5b505050506040513d601f19601f82011682018060405250810190610563919061099a565b9150505b858110156105875760405162461bcd60e51b81526004016100d390610bb3565b6001600160a01b03821630146105ab576105ab6001600160a01b0385168383610797565b50505050505050565b7f000000000000000000000000000000000000000000000000000000000000000081565b7f000000000000000000000000000000000000000000000000000000000000000081565b7f000000000000000000000000000000000000000000000000000000000000000081565b6106a5846323b872dd60e01b85858560405160240161064193929190610a6b565b60408051601f198184030181529190526020810180517bffffffffffffffffffffffffffffffffffffffffffffffffffffffff167fffffffff00000000000000000000000000000000000000000000000000000000909316929092179091526107b6565b50505050565b6000807f00000000000000000000000000000000000000000000000000000000000000006001600160a01b03166346a74837846040518263ffffffff1660e01b81526004016106fa9190610a3d565b60206040518083038186803b15801561071257600080fd5b505afa158015610726573d6000803e3d6000fd5b505050506040513d601f19601f8201168201806040525081019061074a919061099a565b7f0000000000000000000000000000000000000000000000000000000000000000149392505050565b6107928363095ea7b360e01b8484604051602401610641929190610a8f565b505050565b6107928363a9059cbb60e01b8484604051602401610641929190610a8f565b606061080b826040518060400160405280602081526020017f5361666545524332303a206c6f772d6c6576656c2063616c6c206661696c6564815250856001600160a01b03166108459092919063ffffffff16565b8051909150156107925780806020019051810190610829919061095e565b6107925760405162461bcd60e51b81526004016100d390610b7c565b6060610854848460008561085e565b90505b9392505050565b6060824710156108805760405162461bcd60e51b81526004016100d390610b36565b6108898561091f565b6108a55760405162461bcd60e51b81526004016100d390610c49565b60006060866001600160a01b031685876040516108c29190610a21565b60006040518083038185875af1925050503d80600081146108ff576040519150601f19603f3d011682016040523d82523d6000602084013e610904565b606091505b5091509150610914828286610925565b979650505050505050565b3b151590565b60608315610934575081610857565b8251156109445782518084602001fd5b8160405162461bcd60e51b81526004016100d39190610aa8565b60006020828403121561096f578081fd5b81518015158114610857578182fd5b60006020828403121561098f578081fd5b815161085781610d14565b6000602082840312156109ab578081fd5b5051919050565b60008060008060008060c087890312156109ca578182fd5b863595506020870135945060408701356109e381610d14565b935060608701356109f381610d14565b92506080870135610a0381610d14565b915060a0870135610a1381610d14565b809150509295509295509295565b60008251610a33818460208701610ce8565b9190910192915050565b6001600160a01b0391909116815260200190565b6001600160a01b0392831681529116602082015260400190565b6001600160a01b039384168152919092166020820152604081019190915260600190565b6001600160a01b03929092168252602082015260400190565b6000602082528251806020840152610ac7816040850160208701610ce8565b601f01601f19169190910160400192915050565b6020808252818101527f4e6f20746f6b656e73207472616e7366657272656420746f2061646170746572604082015260600190565b6020808252600c908201526b496e636f6d70617469626c6560a01b604082015260600190565b60208082526026908201527f416464726573733a20696e73756666696369656e742062616c616e636520666f6040820152651c8818d85b1b60d21b606082015260800190565b60208082526013908201527f5361666545524332303a20217375636365737300000000000000000000000000604082015260600190565b6020808252601c908201527f496e73756666696369656e7420746f6b656e4f757420616d6f756e7400000000604082015260600190565b6020808252600e908201526d2737902ca2b0b937103a37b5b2b760911b604082015260600190565b60208082526013908201527f546f6b656e732063616e6e6f74206d6174636800000000000000000000000000604082015260600190565b6020808252601d908201527f416464726573733a2063616c6c20746f206e6f6e2d636f6e7472616374000000604082015260600190565b6020808252600f908201526e0496e636f6d706c657465207377617608c1b604082015260600190565b90815260200190565b9182526001600160a01b0316602082015260400190565b9283526001600160a01b03919091166020830152604082015260600190565b60005b83811015610d03578181015183820152602001610ceb565b838111156106a55750506000910152565b6001600160a01b0381168114610d2957600080fd5b5056fea264697066735822122089a2a348672dd84e487cc993a84e464d930fb4eb74189ae1edcfbee7dbb4777764736f6c634300060c0033",
  "linkReferences": {},
  "deployedLinkReferences": {}
}