{
  "_format": "hh-sol-artifact-1",
  "contractName": "YEarnV2Adapter",
  "sourceName": "contracts/adapters/vaults/YEarnV2Adapter.sol",
  "abi": [
    {
      "inputs": [
        {
          "internalType": "address",
          "name": "weth_",
          "type": "address"
        }
      ],
      "stateMutability": "nonpayable",
      "type": "constructor"
    },
    {
      "inputs": [],
      "name": "gasCostProvider",
      "outputs": [
        {
          "internalType": "contract GasCostProvider",
          "name": "",
          "type": "address"
        }
      ],
      "stateMutability": "view",
      "type": "function"
    },
    {
      "inputs": [
        {
          "internalType": "uint256",
          "name": "amount",
          "type": "uint256"
        },
        {
          "internalType": "address",
          "name": "tokenIn",
          "type": "address"
        },
        {
          "internalType": "address",
          "name": "tokenOut",
          "type": "address"
        }
      ],
      "name": "spotPrice",
      "outputs": [
        {
          "internalType": "uint256",
          "name": "",
          "type": "uint256"
        }
      ],
      "stateMutability": "view",
      "type": "function"
    },
    {
      "inputs": [
        {
          "internalType": "uint256",
          "name": "amount",
          "type": "uint256"
        },
        {
          "internalType": "uint256",
          "name": "expected",
          "type": "uint256"
        },
        {
          "internalType": "address",
          "name": "tokenIn",
          "type": "address"
        },
        {
          "internalType": "address",
          "name": "tokenOut",
          "type": "address"
        },
        {
          "internalType": "address",
          "name": "from",
          "type": "address"
        },
        {
          "internalType": "address",
          "name": "to",
          "type": "address"
        }
      ],
      "name": "swap",
      "outputs": [],
      "stateMutability": "nonpayable",
      "type": "function"
    },
    {
      "inputs": [],
      "name": "weth",
      "outputs": [
        {
          "internalType": "address",
          "name": "",
          "type": "address"
        }
      ],
      "stateMutability": "view",
      "type": "function"
    }
  ],
  "bytecode": "0x60c060405234801561001057600080fd5b5060405161164738038061164783398101604081905261002f9161009e565b6001600160601b0319606082901b1660805260405161232890339061005390610091565b61005e9291906100cc565b604051809103906000f08015801561007a573d6000803e3d6000fd5b5060601b6001600160601b03191660a052506100e3565b610557806110f083390190565b6000602082840312156100af578081fd5b81516001600160a01b03811681146100c5578182fd5b9392505050565b9182526001600160a01b0316602082015260400190565b60805160601c60a05160601c610fdf610111600039806107d3528061087d5250806104475250610fdf6000f3fe608060405234801561001057600080fd5b506004361061004c5760003560e01c8063230f11c7146100515780633fc8cef31461006657806377ec159d14610084578063a555e74b146100a4575b600080fd5b61006461005f366004610c65565b6100ac565b005b61006e610445565b60405161007b9190610d11565b60405180910390f35b610097610092366004610c24565b610469565b60405161007b9190610f26565b61006e6107d1565b826001600160a01b0316846001600160a01b031614156100e75760405162461bcd60e51b81526004016100de90610e78565b60405180910390fd5b6001600160a01b038216301461010c5761010c6001600160a01b0385168330896107f5565b600061011784610853565b156102cb576000849050856001600160a01b0316816001600160a01b031663fc0c546a6040518163ffffffff1660e01b815260040160206040518083038186803b15801561016457600080fd5b505afa158015610178573d6000803e3d6000fd5b505050506040513d601f19601f8201168201806040525081019061019c9190610bf0565b6001600160a01b0316146101c25760405162461bcd60e51b81526004016100de90610d95565b60405163095ea7b360e01b81526001600160a01b0387169063095ea7b3906101f09088908c90600401610d49565b602060405180830381600087803b15801561020a57600080fd5b505af115801561021e573d6000803e3d6000fd5b505050506040513d601f19601f820116820180604052508101906102429190610bd0565b50604051636e553f6560e01b81526001600160a01b03821690636e553f6590610271908b903090600401610f2f565b602060405180830381600087803b15801561028b57600080fd5b505af115801561029f573d6000803e3d6000fd5b505050506040513d601f19601f820116820180604052508101906102c39190610c0c565b9150506103f8565b6000859050846001600160a01b0316816001600160a01b031663fc0c546a6040518163ffffffff1660e01b815260040160206040518083038186803b15801561031357600080fd5b505afa158015610327573d6000803e3d6000fd5b505050506040513d601f19601f8201168201806040525081019061034b9190610bf0565b6001600160a01b0316146103715760405162461bcd60e51b81526004016100de90610d95565b604051631cc6d2f960e31b81526001600160a01b0382169063e63697c8906103a2908b903090600190600401610f46565b602060405180830381600087803b1580156103bc57600080fd5b505af11580156103d0573d6000803e3d6000fd5b505050506040513d601f19601f820116820180604052508101906103f49190610c0c565b9150505b858110156104185760405162461bcd60e51b81526004016100de90610e01565b6001600160a01b038216301461043c5761043c6001600160a01b038516838361094d565b50505050505050565b7f000000000000000000000000000000000000000000000000000000000000000081565b6000816001600160a01b0316836001600160a01b0316141561048c5750826107ca565b61049582610853565b15610632576000829050836001600160a01b0316816001600160a01b031663fc0c546a6040518163ffffffff1660e01b815260040160206040518083038186803b1580156104e257600080fd5b505afa1580156104f6573d6000803e3d6000fd5b505050506040513d601f19601f8201168201806040525081019061051a9190610bf0565b6001600160a01b0316141561062c57610624816001600160a01b03166399530b066040518163ffffffff1660e01b815260040160206040518083038186803b15801561056557600080fd5b505afa158015610579573d6000803e3d6000fd5b505050506040513d601f19601f8201168201806040525081019061059d9190610c0c565b61061e856001600160a01b031663313ce5676040518163ffffffff1660e01b815260040160206040518083038186803b1580156105d957600080fd5b505afa1580156105ed573d6000803e3d6000fd5b505050506040513d601f19601f820116820180604052508101906106119190610cd4565b889060ff16600a0a610971565b906109b4565b9150506107ca565b506107c6565b61063b83610853565b156107c6576000839050826001600160a01b0316816001600160a01b031663fc0c546a6040518163ffffffff1660e01b815260040160206040518083038186803b15801561068857600080fd5b505afa15801561069c573d6000803e3d6000fd5b505050506040513d601f19601f820116820180604052508101906106c09190610bf0565b6001600160a01b031614156107c457610624846001600160a01b031663313ce5676040518163ffffffff1660e01b815260040160206040518083038186803b15801561070b57600080fd5b505afa15801561071f573d6000803e3d6000fd5b505050506040513d601f19601f820116820180604052508101906107439190610cd4565b60ff16600a0a61061e836001600160a01b03166399530b066040518163ffffffff1660e01b815260040160206040518083038186803b15801561078557600080fd5b505afa158015610799573d6000803e3d6000fd5b505050506040513d601f19601f820116820180604052508101906107bd9190610c0c565b8890610971565b505b5060005b9392505050565b7f000000000000000000000000000000000000000000000000000000000000000081565b61084d846323b872dd60e01b85858560405160240161081693929190610d25565b60408051601f198184030181529190526020810180516001600160e01b03166001600160e01b0319909316929092179091526109f3565b50505050565b6000807ffc0c546a8dce9d6e9b97c086302918c9106d97a17809f6bcacfe02124763cb39905060007f00000000000000000000000000000000000000000000000000000000000000006001600160a01b0316631d5e3fe56040518163ffffffff1660e01b815260040160206040518083038186803b1580156108d457600080fd5b505afa1580156108e8573d6000803e3d6000fd5b505050506040513d601f19601f8201168201806040525081019061090c9190610c0c565b9050600080604051602081016040528481526020816004838a88fa9250805191505081801561094357506001600160a01b03811615155b9695505050505050565b61096c8363a9059cbb60e01b8484604051602401610816929190610d49565b505050565b600082610980575060006109ae565b8282028284828161098d57fe5b04146109ab5760405162461bcd60e51b81526004016100de90610e37565b90505b92915050565b60006109ab83836040518060400160405280601a815260200179536166654d6174683a206469766973696f6e206279207a65726f60301b815250610a82565b6060610a48826040518060400160405280602081526020017f5361666545524332303a206c6f772d6c6576656c2063616c6c206661696c6564815250856001600160a01b0316610ab99092919063ffffffff16565b80519091501561096c5780806020019051810190610a669190610bd0565b61096c5760405162461bcd60e51b81526004016100de90610edc565b60008183610aa35760405162461bcd60e51b81526004016100de9190610d62565b506000838581610aaf57fe5b0495945050505050565b6060610ac88484600085610ad0565b949350505050565b606082471015610af25760405162461bcd60e51b81526004016100de90610dbb565b610afb85610b91565b610b175760405162461bcd60e51b81526004016100de90610ea5565b60006060866001600160a01b03168587604051610b349190610cf5565b60006040518083038185875af1925050503d8060008114610b71576040519150601f19603f3d011682016040523d82523d6000602084013e610b76565b606091505b5091509150610b86828286610b97565b979650505050505050565b3b151590565b60608315610ba65750816107ca565b825115610bb65782518084602001fd5b8160405162461bcd60e51b81526004016100de9190610d62565b600060208284031215610be1578081fd5b815180151581146109ab578182fd5b600060208284031215610c01578081fd5b81516109ab81610f91565b600060208284031215610c1d578081fd5b5051919050565b600080600060608486031215610c38578182fd5b833592506020840135610c4a81610f91565b91506040840135610c5a81610f91565b809150509250925092565b60008060008060008060c08789031215610c7d578182fd5b86359550602087013594506040870135610c9681610f91565b93506060870135610ca681610f91565b92506080870135610cb681610f91565b915060a0870135610cc681610f91565b809150509295509295509295565b600060208284031215610ce5578081fd5b815160ff811681146109ab578182fd5b60008251610d07818460208701610f65565b9190910192915050565b6001600160a01b0391909116815260200190565b6001600160a01b039384168152919092166020820152604081019190915260600190565b6001600160a01b03929092168252602082015260400190565b6000602082528251806020840152610d81816040850160208701610f65565b601f01601f19169190910160400192915050565b6020808252600c908201526b496e636f6d70617469626c6560a01b604082015260600190565b60208082526026908201527f416464726573733a20696e73756666696369656e742062616c616e636520666f6040820152651c8818d85b1b60d21b606082015260800190565b6020808252601c908201527b125b9cdd59999a58da595b9d081d1bdad95b93dd5d08185b5bdd5b9d60221b604082015260600190565b60208082526021908201527f536166654d6174683a206d756c7469706c69636174696f6e206f766572666c6f6040820152607760f81b606082015260800190565b6020808252601390820152720a8ded6cadce640c6c2dcdcdee840dac2e8c6d606b1b604082015260600190565b6020808252601d908201527f416464726573733a2063616c6c20746f206e6f6e2d636f6e7472616374000000604082015260600190565b6020808252602a908201527f5361666545524332303a204552433230206f7065726174696f6e20646964206e6040820152691bdd081cdd58d8d9595960b21b606082015260800190565b90815260200190565b9182526001600160a01b0316602082015260400190565b9283526001600160a01b03919091166020830152604082015260600190565b60005b83811015610f80578181015183820152602001610f68565b8381111561084d5750506000910152565b6001600160a01b0381168114610fa657600080fd5b5056fea264697066735822122056c9383f124de559435a31fe3244f2beb6c42f1697ca58d8d8edcf64dbc20cad64736f6c634300060c0033608060405234801561001057600080fd5b506040516105573803806105578339818101604052604081101561003357600080fd5b5080516020909101516000610046610093565b600080546001600160a01b0319166001600160a01b038316908117825560405192935091600080516020610537833981519152908290a350600182905561008c81610097565b505061018f565b3390565b61009f610093565b6000546001600160a01b03908116911614610101576040805162461bcd60e51b815260206004820181905260248201527f4f776e61626c653a2063616c6c6572206973206e6f7420746865206f776e6572604482015290519081900360640190fd5b6001600160a01b0381166101465760405162461bcd60e51b81526004018080602001828103825260268152602001806105116026913960400191505060405180910390fd5b600080546040516001600160a01b038085169392169160008051602061053783398151915291a3600080546001600160a01b0319166001600160a01b0392909216919091179055565b6103738061019e6000396000f3fe608060405234801561001057600080fd5b50600436106100575760003560e01c80631d5e3fe51461005c578063715018a6146100765780638da5cb5b14610080578063b227a534146100a4578063f2fde38b146100c1575b600080fd5b6100646100e7565b60408051918252519081900360200190f35b61007e6100ed565b005b61008861018f565b604080516001600160a01b039092168252519081900360200190f35b61007e600480360360208110156100ba57600080fd5b503561019e565b61007e600480360360208110156100d757600080fd5b50356001600160a01b03166101fb565b60015481565b6100f56102f3565b6000546001600160a01b03908116911614610145576040805162461bcd60e51b8152602060048201819052602482015260008051602061031e833981519152604482015290519081900360640190fd5b600080546040516001600160a01b03909116907f8be0079c531659141344cd1fd0a4f28419497f9722a3daafe3b4186f6b6457e0908390a3600080546001600160a01b0319169055565b6000546001600160a01b031690565b6101a66102f3565b6000546001600160a01b039081169116146101f6576040805162461bcd60e51b8152602060048201819052602482015260008051602061031e833981519152604482015290519081900360640190fd5b600155565b6102036102f3565b6000546001600160a01b03908116911614610253576040805162461bcd60e51b8152602060048201819052602482015260008051602061031e833981519152604482015290519081900360640190fd5b6001600160a01b0381166102985760405162461bcd60e51b81526004018080602001828103825260268152602001806102f86026913960400191505060405180910390fd5b600080546040516001600160a01b03808516939216917f8be0079c531659141344cd1fd0a4f28419497f9722a3daafe3b4186f6b6457e091a3600080546001600160a01b0319166001600160a01b0392909216919091179055565b339056fe4f776e61626c653a206e6577206f776e657220697320746865207a65726f20616464726573734f776e61626c653a2063616c6c6572206973206e6f7420746865206f776e6572a2646970667358221220db74bee37227cde69c27937852ed0dd8a00ff93a8381e0059ea7d632c505835d64736f6c634300060c00334f776e61626c653a206e6577206f776e657220697320746865207a65726f20616464726573738be0079c531659141344cd1fd0a4f28419497f9722a3daafe3b4186f6b6457e0",
  "linkReferences": {},
  "deployedLinkReferences": {}
}