{
    "_format": "hh-sol-artifact-1",
    "contractName": "BasicEstimator",
    "sourceName": "contracts/oracles/estimators/BasicEstimator.sol",
    "abi": [
        {
            "inputs": [
                {
                    "internalType": "address",
                    "name": "protocolOracle_",
                    "type": "address"
                }
            ],
            "stateMutability": "nonpayable",
            "type": "constructor"
        },
        {
            "inputs": [
                {
                    "internalType": "uint256",
                    "name": "balance",
                    "type": "uint256"
                },
                {
                    "internalType": "address",
                    "name": "token",
                    "type": "address"
                }
            ],
            "name": "estimateItem",
            "outputs": [
                {
                    "internalType": "int256",
                    "name": "",
                    "type": "int256"
                }
            ],
            "stateMutability": "view",
            "type": "function"
        },
        {
            "inputs": [],
            "name": "protocolOracle",
            "outputs": [
                {
                    "internalType": "contract IProtocolOracle",
                    "name": "",
                    "type": "address"
                }
            ],
            "stateMutability": "view",
            "type": "function"
        }
    ],
    "bytecode": "0x608060405234801561001057600080fd5b506040516101cf3803806101cf8339818101604052602081101561003357600080fd5b5051600080546001600160a01b039092166001600160a01b031990921691909117905561016a806100656000396000f3fe608060405234801561001057600080fd5b50600436106100365760003560e01c80635b0a9d651461003b578063b44a043b1461005f575b600080fd5b61004361009d565b604080516001600160a01b039092168252519081900360200190f35b61008b6004803603604081101561007557600080fd5b50803590602001356001600160a01b03166100ac565b60408051918252519081900360200190f35b6000546001600160a01b031681565b6000805460408051633af9a03160e21b8152600481018690526001600160a01b0385811660248301529151919092169163ebe680c4916044808301926020929190829003018186803b15801561010157600080fd5b505afa158015610115573d6000803e3d6000fd5b505050506040513d602081101561012b57600080fd5b5051939250505056fea2646970667358221220c29f077efbc4eddfa79b42db3676c67ea2a27283d6f365cc0766c778fb33e3c564736f6c634300060c0033",
    "linkReferences": {},
    "deployedLinkReferences": {}
}