{
    "_format": "hh-sol-artifact-1",
    "contractName": "BasicEstimator",
    "sourceName": "contracts/oracles/estimators/BasicEstimator.sol",
    "abi": [
        {
            "inputs": [
                {
                    "internalType": "address",
                    "name": "protocolOracle_",
                    "type": "address"
                }
            ],
            "stateMutability": "nonpayable",
            "type": "constructor"
        },
        {
            "inputs": [
                {
                    "internalType": "uint256",
                    "name": "balance",
                    "type": "uint256"
                },
                {
                    "internalType": "address",
                    "name": "token",
                    "type": "address"
                }
            ],
            "name": "estimateItem",
            "outputs": [
                {
                    "internalType": "int256",
                    "name": "",
                    "type": "int256"
                }
            ],
            "stateMutability": "view",
            "type": "function"
        },
        {
            "inputs": [],
            "name": "protocolOracle",
            "outputs": [
                {
                    "internalType": "contract IProtocolOracle",
                    "name": "",
                    "type": "address"
                }
            ],
            "stateMutability": "view",
            "type": "function"
        }
    ],
    "bytecode": "0x60a060405234801561001057600080fd5b5060405161020b38038061020b8339818101604052602081101561003357600080fd5b5051606081901b6001600160601b0319166080526001600160a01b03166101a161006a60003980609f528060c552506101a16000f3fe608060405234801561001057600080fd5b50600436106100365760003560e01c80635b0a9d651461003b578063b44a043b1461005f575b600080fd5b61004361009d565b604080516001600160a01b039092168252519081900360200190f35b61008b6004803603604081101561007557600080fd5b50803590602001356001600160a01b03166100c1565b60408051918252519081900360200190f35b7f000000000000000000000000000000000000000000000000000000000000000081565b60007f00000000000000000000000000000000000000000000000000000000000000006001600160a01b031663ebe680c484846040518363ffffffff1660e01b815260040180838152602001826001600160a01b031681526020019250505060206040518083038186803b15801561013857600080fd5b505afa15801561014c573d6000803e3d6000fd5b505050506040513d602081101561016257600080fd5b5051939250505056fea2646970667358221220f57f16353cc65ab2b7ff38e12a3396da6ef192fb95e81f06cf94d782f65475ae64736f6c634300060c0033",
    "linkReferences": {},
    "deployedLinkReferences": {}
}