{
  "_format": "hh-sol-artifact-1",
  "contractName": "LoopRouter",
  "sourceName": "contracts/routers/LoopRouter.sol",
  "abi": [
    {
      "inputs": [
        {
          "internalType": "address",
          "name": "controller_",
          "type": "address"
        }
      ],
      "stateMutability": "nonpayable",
      "type": "constructor"
    },
    {
      "inputs": [],
      "name": "category",
      "outputs": [
        {
          "internalType": "enum IStrategyRouter.RouterCategory",
          "name": "",
          "type": "uint8"
        }
      ],
      "stateMutability": "view",
      "type": "function"
    },
    {
      "inputs": [],
      "name": "controller",
      "outputs": [
        {
          "internalType": "contract IStrategyController",
          "name": "",
          "type": "address"
        }
      ],
      "stateMutability": "view",
      "type": "function"
    },
    {
      "inputs": [
        {
          "internalType": "address",
          "name": "strategy",
          "type": "address"
        },
        {
          "internalType": "bytes",
          "name": "data",
          "type": "bytes"
        }
      ],
      "name": "deposit",
      "outputs": [],
      "stateMutability": "nonpayable",
      "type": "function"
    },
    {
      "inputs": [
        {
          "internalType": "address",
          "name": "strategy",
          "type": "address"
        },
        {
          "internalType": "bytes",
          "name": "data",
          "type": "bytes"
        }
      ],
      "name": "rebalance",
      "outputs": [],
      "stateMutability": "nonpayable",
      "type": "function"
    },
    {
      "inputs": [
        {
          "internalType": "address",
          "name": "strategy",
          "type": "address"
        },
        {
          "internalType": "bytes",
          "name": "data",
          "type": "bytes"
        }
      ],
      "name": "restructure",
      "outputs": [],
      "stateMutability": "nonpayable",
      "type": "function"
    },
    {
      "inputs": [],
      "name": "weth",
      "outputs": [
        {
          "internalType": "address",
          "name": "",
          "type": "address"
        }
      ],
      "stateMutability": "view",
      "type": "function"
    },
    {
      "inputs": [
        {
          "internalType": "address",
          "name": "strategy",
          "type": "address"
        },
        {
          "internalType": "bytes",
          "name": "data",
          "type": "bytes"
        }
      ],
      "name": "withdraw",
      "outputs": [],
      "stateMutability": "nonpayable",
      "type": "function"
    }
  ],
  "bytecode": "0x60e06040523480156200001157600080fd5b50604051620026dc380380620026dc83398101604081905262000034916200015d565b600160f81b6080526001600160601b0319606082901b1660a052604080516307dc0d1d60e41b8152905160019183916001600160a01b03831691637dc0d1d0916004808301926020929190829003018186803b1580156200009457600080fd5b505afa158015620000a9573d6000803e3d6000fd5b505050506040513d601f19601f82011682018060405250810190620000cf91906200015d565b6001600160a01b0316633fc8cef36040518163ffffffff1660e01b815260040160206040518083038186803b1580156200010857600080fd5b505afa1580156200011d573d6000803e3d6000fd5b505050506040513d601f19601f820116820180604052508101906200014391906200015d565b60601b6001600160601b03191660c052506200019c915050565b6000602082840312156200016f578081fd5b81516200017c8162000183565b9392505050565b6001600160a01b03811681146200019957600080fd5b50565b60805160f81c60a05160601c60c05160601c6124cf6200020d6000398060fd5280610c955280611081528061113952806111dd528061122a528061157852806119ad525080610121528061040052806105e9528061071952806109df52806117005250806109bb52506124cf6000f3fe608060405234801561001057600080fd5b506004361061006d5760003560e01c80633fc8cef3146100725780634bb78b1414610090578063ba11d5d0146100a5578063cf2c52cb146100b8578063ea1ea75e146100cb578063ef430aa6146100de578063f77c4791146100f3575b600080fd5b61007a6100fb565b604051610087919061217f565b60405180910390f35b6100a361009e366004611d6b565b61011f565b005b6100a36100b3366004611d6b565b6103fe565b6100a36100c6366004611d6b565b6105e7565b6100a36100d9366004611d6b565b610717565b6100e66109b9565b60405161008791906121d0565b61007a6109dd565b7f000000000000000000000000000000000000000000000000000000000000000081565b7f00000000000000000000000000000000000000000000000000000000000000006001600160a01b031633146101705760405162461bcd60e51b815260040161016790612225565b60405180910390fd5b600080606061018184860186612116565b9194509250905060006101a6670de0b6b3a76400006101a08587610a01565b90610a44565b90506101b28382610a83565b92506060876001600160a01b031663c06fad066040518163ffffffff1660e01b815260040160006040518083038186803b1580156101ef57600080fd5b505afa158015610203573d6000803e3d6000fd5b505050506040513d6000823e601f3d908101601f1916820160405261022b9190810190611dea565b905060005b81518110156103f357600084828151811061024757fe5b60200260200101519050600073__$59902e9d6730bb3d0c2c9d68301f7cefef$__635ab804ba888d87878151811061027b57fe5b60200260200101516040518463ffffffff1660e01b81526004016102a1939291906123bb565b60206040518083038186803b1580156102b957600080fd5b505af41580156102cd573d6000803e3d6000fd5b505050506040513d601f19601f820116820180604052508101906102f19190611e58565b9050808213156103e957610303611c4a565b8b6001600160a01b031663336685fc86868151811061031e57fe5b60200260200101516040518263ffffffff1660e01b8152600401610342919061217f565b60006040518083038186803b15801561035a57600080fd5b505afa15801561036e573d6000803e3d6000fd5b505050506040513d6000823e601f3d908101601f191682016040526103969190810190611e70565b90506103e7816103cd8e8888815181106103ac57fe5b60200260200101516103c78789610ac590919063ffffffff16565b88610b0b565b8787815181106103d957fe5b60200260200101518f610bb5565b505b5050600101610230565b505050505050505050565b7f00000000000000000000000000000000000000000000000000000000000000006001600160a01b031633146104465760405162461bcd60e51b815260040161016790612225565b60006060806104578486018661204d565b92509250925061046986848484610d1e565b60006060876001600160a01b0316637dc0d1d06040518163ffffffff1660e01b815260040160206040518083038186803b1580156104a657600080fd5b505afa1580156104ba573d6000803e3d6000fd5b505050506040513d601f19601f820116820180604052508101906104de9190611e3c565b6001600160a01b031663ff4a1902896040518263ffffffff1660e01b8152600401610509919061217f565b60006040518083038186803b15801561052157600080fd5b505afa158015610535573d6000803e3d6000fd5b505050506040513d6000823e601f3d908101601f1916820160405261055d9190810190611fb2565b915091506060886001600160a01b031663c06fad066040518163ffffffff1660e01b815260040160006040518083038186803b15801561059c57600080fd5b505afa1580156105b0573d6000803e3d6000fd5b505050506040513d6000823e601f3d908101601f191682016040526105d89190810190611dea565b90506103f3898a858585610f82565b7f00000000000000000000000000000000000000000000000000000000000000006001600160a01b0316331461062f5760405162461bcd60e51b815260040161016790612225565b60008061063e83850185611d40565b915091506060856001600160a01b031663c06fad066040518163ffffffff1660e01b815260040160006040518083038186803b15801561067d57600080fd5b505afa158015610691573d6000803e3d6000fd5b505050506040513d6000823e601f3d908101601f191682016040526106b99190810190611dea565b9050606081516001600160401b03811180156106d457600080fd5b506040519080825280602002602001820160405280156106fe578160200160208202803683370190505b50905061070e8785858486610f82565b50505050505050565b7f00000000000000000000000000000000000000000000000000000000000000006001600160a01b0316331461075f5760405162461bcd60e51b815260040161016790612225565b6000606061076f83850185611f6e565b915091506060856001600160a01b031663c06fad066040518163ffffffff1660e01b815260040160006040518083038186803b1580156107ae57600080fd5b505afa1580156107c2573d6000803e3d6000fd5b505050506040513d6000823e601f3d908101601f191682016040526107ea9190810190611dea565b9050606081516001600160401b038111801561080557600080fd5b5060405190808252806020026020018201604052801561082f578160200160208202803683370190505b50905060005b825181101561093957600073__$59902e9d6730bb3d0c2c9d68301f7cefef$__635ab804ba878b87868151811061086857fe5b60200260200101516040518463ffffffff1660e01b815260040161088e939291906123bb565b60206040518083038186803b1580156108a657600080fd5b505af41580156108ba573d6000803e3d6000fd5b505050506040513d601f19601f820116820180604052508101906108de9190611e58565b9050610912898584815181106108f057fe5b602002602001015187858151811061090457fe5b60200260200101518461125a565b610930578083838151811061092357fe5b6020026020010181815250505b50600101610835565b5060005b82518110156109af5781818151811061095257fe5b60200260200101516000146109a7576109a7888985848151811061097257fe5b602002602001015187858151811061098657fe5b602002602001015186868151811061099a57fe5b602002602001015161142a565b60010161093d565b5050505050505050565b7f000000000000000000000000000000000000000000000000000000000000000081565b7f000000000000000000000000000000000000000000000000000000000000000081565b600082610a1057506000610a3e565b82820282848281610a1d57fe5b0414610a3b5760405162461bcd60e51b8152600401610167906122b5565b90505b92915050565b6000610a3b83836040518060400160405280601a815260200179536166654d6174683a206469766973696f6e206279207a65726f60301b815250611699565b6000610a3b83836040518060400160405280601e81526020017f536166654d6174683a207375627472616374696f6e206f766572666c6f7700008152506116d2565b6000818303818312801590610ada5750838113155b80610aef5750600083128015610aef57508381135b610a3b5760405162461bcd60e51b81526004016101679061232d565b600080846001600160a01b03166370a08231876040518263ffffffff1660e01b8152600401610b3a919061217f565b60206040518083038186803b158015610b5257600080fd5b505afa158015610b66573d6000803e3d6000fd5b505050506040513d601f19601f82011682018060405250810190610b8a9190611e58565b905083831115610baa57610ba2836101a08387610a01565b915050610bad565b90505b949350505050565b8215610d1857835151600019015b60008112610d1657600080600080600060018a600001515103861415610bf157879350889450869150610c8d565b89602001518681518110610c0157fe5b60200260200101519350309150836001600160a01b03166370a08231836040518263ffffffff1660e01b8152600401610c3a919061217f565b60206040518083038186803b158015610c5257600080fd5b505afa158015610c66573d6000803e3d6000fd5b505050506040513d601f19601f82011682018060405250810190610c8a9190611e58565b94505b85610cbc57507f0000000000000000000000000000000000000000000000000000000000000000915085610cdd565b89602001516001870381518110610ccf57fe5b602002602001015192503090505b610d048a600001518781518110610cf057fe5b6020026020010151866001878787876116fe565b50506000199093019250610bc3915050565b505b50505050565b60005b8151811015610d16576000828281518110610d3857fe5b60200260200101519050856001600160a01b0316633ebbc9c4826040518263ffffffff1660e01b8152600401610d6e919061217f565b60206040518083038186803b158015610d8657600080fd5b505afa158015610d9a573d6000803e3d6000fd5b505050506040513d601f19601f82011682018060405250810190610dbe9190611e58565b610ece57604051630cd9a17f60e21b8152610ec9906001600160a01b0388169063336685fc90610df290859060040161217f565b60006040518083038186803b158015610e0a57600080fd5b505afa158015610e1e573d6000803e3d6000fd5b505050506040513d6000823e601f3d908101601f19168201604052610e469190810190611e70565b6040516370a0823160e01b81526001600160a01b038416906370a0823190610e72908b9060040161217f565b60206040518083038186803b158015610e8a57600080fd5b505afa158015610e9e573d6000803e3d6000fd5b505050506040513d601f19601f82011682018060405250810190610ec29190611e58565b8389610bb5565b610f79565b610f778682868581518110610edf57fe5b602002602001015173__$59902e9d6730bb3d0c2c9d68301f7cefef$__635ab804ba8a8c886040518463ffffffff1660e01b8152600401610f22939291906123bb565b60206040518083038186803b158015610f3a57600080fd5b505af4158015610f4e573d6000803e3d6000fd5b505050506040513d601f19601f82011682018060405250810190610f729190611e58565b61125a565b505b50600101610d21565b60005b8151811015611059576000828281518110610f9c57fe5b60200260200101519050611050878783878681518110610fb857fe5b602002602001015173__$59902e9d6730bb3d0c2c9d68301f7cefef$__635ab804ba8b8e896040518463ffffffff1660e01b8152600401610ffb939291906123bb565b60206040518083038186803b15801561101357600080fd5b505af4158015611027573d6000803e3d6000fd5b505050506040513d601f19601f8201168201806040525081019061104b9190611e58565b61142a565b50600101610f85565b50604051630faef27160e21b81526000906001600160a01b03871690633ebbc9c4906110a9907f00000000000000000000000000000000000000000000000000000000000000009060040161217f565b60206040518083038186803b1580156110c157600080fd5b505afa1580156110d5573d6000803e3d6000fd5b505050506040513d601f19601f820116820180604052508101906110f99190611e58565b905060008113801561111d5750856001600160a01b0316856001600160a01b031614155b15611252576001600160a01b03851630141561120957611204867f00000000000000000000000000000000000000000000000000000000000000006001600160a01b03166370a08231886040518263ffffffff1660e01b8152600401611183919061217f565b60206040518083038186803b15801561119b57600080fd5b505afa1580156111af573d6000803e3d6000fd5b505050506040513d601f19601f820116820180604052508101906111d39190611e58565b6001600160a01b037f00000000000000000000000000000000000000000000000000000000000000001691906118cb565b611252565b600061121b6103e86101a08785610a01565b905061070e6001600160a01b037f000000000000000000000000000000000000000000000000000000000000000016878984611926565b505050505050565b60008073__$59902e9d6730bb3d0c2c9d68301f7cefef$__636be5024284886001600160a01b0316633dfe9f6a6040518163ffffffff1660e01b815260040160206040518083038186803b1580156112b157600080fd5b505afa1580156112c5573d6000803e3d6000fd5b505050506040513d601f19601f820116820180604052508101906112e99190611e58565b6040518363ffffffff1660e01b81526004016113069291906121e4565b60206040518083038186803b15801561131e57600080fd5b505af4158015611332573d6000803e3d6000fd5b505050506040513d601f19601f820116820180604052508101906113569190611e58565b90506113628382611947565b84131561141e57611371611c4a565b604051630cd9a17f60e21b81526001600160a01b0388169063336685fc9061139d90899060040161217f565b60006040518083038186803b1580156113b557600080fd5b505afa1580156113c9573d6000803e3d6000fd5b505050506040513d6000823e601f3d908101601f191682016040526113f19190810190611e70565b90506114138161140c89896114068a8a610ac5565b8a610b0b565b888a610bb5565b600192505050610bad565b50600095945050505050565b600082611438575080611555565b600073__$59902e9d6730bb3d0c2c9d68301f7cefef$__636be5024284896001600160a01b0316633dfe9f6a6040518163ffffffff1660e01b815260040160206040518083038186803b15801561148e57600080fd5b505afa1580156114a2573d6000803e3d6000fd5b505050506040513d601f19601f820116820180604052508101906114c69190611e58565b6040518363ffffffff1660e01b81526004016114e39291906121e4565b60206040518083038186803b1580156114fb57600080fd5b505af415801561150f573d6000803e3d6000fd5b505050506040513d601f19601f820116820180604052508101906115339190611e58565b905061153f8382610ac5565b841215611553576115508385610ac5565b91505b505b6000811315611252576040516370a0823160e01b81526000906001600160a01b037f000000000000000000000000000000000000000000000000000000000000000016906370a08231906115ad90899060040161217f565b60206040518083038186803b1580156115c557600080fd5b505afa1580156115d9573d6000803e3d6000fd5b505050506040513d601f19601f820116820180604052508101906115fd9190611e58565b905061070e876001600160a01b031663336685fc876040518263ffffffff1660e01b815260040161162e919061217f565b60006040518083038186803b15801561164657600080fd5b505afa15801561165a573d6000803e3d6000fd5b505050506040513d6000823e601f3d908101601f191682016040526116829190810190611e70565b82841161168f5783611691565b825b878a8a61198d565b600081836116ba5760405162461bcd60e51b815260040161016791906121f2565b5060008385816116c657fe5b049150505b9392505050565b600081848411156116f65760405162461bcd60e51b815260040161016791906121f2565b505050900390565b7f00000000000000000000000000000000000000000000000000000000000000006001600160a01b03166393e59dc16040518163ffffffff1660e01b815260040160206040518083038186803b15801561175757600080fd5b505afa15801561176b573d6000803e3d6000fd5b505050506040513d601f19601f8201168201806040525081019061178f9190611e3c565b6001600160a01b031663d8b964e6886040518263ffffffff1660e01b81526004016117ba919061217f565b60206040518083038186803b1580156117d257600080fd5b505afa1580156117e6573d6000803e3d6000fd5b505050506040513d601f19601f8201168201806040525081019061180a9190611e1c565b6118265760405162461bcd60e51b81526004016101679061228f565b60607f230f11c7cc54d258ee9bfebf8292225b43b26633217971638b4a8364be584e17878787878787604051602401611864969594939291906123da565b60408051601f198184030181529190526020810180516001600160e01b03166001600160e01b031990931692909217909152905060005a905060008060008451602086018d86f49050806118bf576040513d806000833e8082fd5b50505050505050505050565b6119218363a9059cbb60e01b84846040516024016118ea9291906121b7565b60408051601f198184030181529190526020810180516001600160e01b03166001600160e01b031990931692909217909152611ad2565b505050565b610d18846323b872dd60e01b8585856040516024016118ea93929190612193565b600082820181831280159061195c5750838112155b80611971575060008312801561197157508381125b610a3b5760405162461bcd60e51b81526004016101679061224e565b8315610d165760005b85515181101561125257600080808080856119d9577f00000000000000000000000000000000000000000000000000000000000000009350899450869150611a78565b8a6020015160018703815181106119ec57fe5b60200260200101519350309150836001600160a01b03166370a08231836040518263ffffffff1660e01b8152600401611a25919061217f565b60206040518083038186803b158015611a3d57600080fd5b505afa158015611a51573d6000803e3d6000fd5b505050506040513d601f19601f82011682018060405250810190611a759190611e58565b94505b8a515160001901861415611a90575087915086611aae565b8a602001518681518110611aa057fe5b602002602001015192503090505b611ac18b600001518781518110610cf057fe5b505060019093019250611996915050565b6060611b27826040518060400160405280602081526020017f5361666545524332303a206c6f772d6c6576656c2063616c6c206661696c6564815250856001600160a01b0316611b619092919063ffffffff16565b8051909150156119215780806020019051810190611b459190611e1c565b6119215760405162461bcd60e51b815260040161016790612371565b6060610bad848460008585611b7585611c0b565b611b915760405162461bcd60e51b8152600401610167906122f6565b60006060866001600160a01b03168587604051611bae9190612163565b60006040518083038185875af1925050503d8060008114611beb576040519150601f19603f3d011682016040523d82523d6000602084013e611bf0565b606091505b5091509150611c00828286611c11565b979650505050505050565b3b151590565b60608315611c205750816116cb565b825115611c305782518084602001fd5b8160405162461bcd60e51b815260040161016791906121f2565b60405180606001604052806060815260200160608152602001606081525090565b600082601f830112611c7b578081fd5b8151611c8e611c8982612436565b612410565b818152915060208083019084810181840286018201871015611caf57600080fd5b60005b84811015611cd7578151611cc581612481565b84529282019290820190600101611cb2565b505050505092915050565b600082601f830112611cf2578081fd5b8135611d00611c8982612436565b818152915060208083019084810181840286018201871015611d2157600080fd5b60005b84811015611cd757813584529282019290820190600101611d24565b60008060408385031215611d52578182fd5b8235611d5d81612481565b946020939093013593505050565b600080600060408486031215611d7f578081fd5b8335611d8a81612481565b925060208401356001600160401b0380821115611da5578283fd5b818601915086601f830112611db8578283fd5b813581811115611dc6578384fd5b876020828501011115611dd7578384fd5b6020830194508093505050509250925092565b600060208284031215611dfb578081fd5b81516001600160401b03811115611e10578182fd5b610bad84828501611c6b565b600060208284031215611e2d578081fd5b81518015158114610a3b578182fd5b600060208284031215611e4d578081fd5b8151610a3b81612481565b600060208284031215611e69578081fd5b5051919050565b60006020808385031215611e82578182fd5b82516001600160401b0380821115611e98578384fd5b9084019060608287031215611eab578384fd5b611eb56060612410565b825182811115611ec3578586fd5b611ecf88828601611c6b565b8252508383015182811115611ee2578586fd5b611eee88828601611c6b565b8583015250604083015182811115611f04578586fd5b80840193505086601f840112611f18578485fd5b825182811115611f26578586fd5b611f38601f8201601f19168601612410565b92508083528785828601011115611f4d578586fd5b611f5c81868501878701612455565b50604081019190915295945050505050565b60008060408385031215611f80578182fd5b8235915060208301356001600160401b03811115611f9c578182fd5b611fa885828601611ce2565b9150509250929050565b60008060408385031215611fc4578182fd5b825191506020808401516001600160401b03811115611fe1578283fd5b8401601f81018613611ff1578283fd5b8051611fff611c8982612436565b81815283810190838501858402850186018a101561201b578687fd5b8694505b8385101561203d57805183526001949094019391850191850161201f565b5080955050505050509250929050565b600080600060608486031215612061578081fd5b833592506020808501356001600160401b038082111561207f578384fd5b61208b88838901611ce2565b945060408701359150808211156120a0578384fd5b508501601f810187136120b1578283fd5b80356120bf611c8982612436565b81815283810190838501858402850186018b10156120db578687fd5b8694505b838510156121065780356120f281612481565b8352600194909401939185019185016120df565b5080955050505050509250925092565b60008060006060848603121561212a578081fd5b833592506020840135915060408401356001600160401b0381111561214d578182fd5b61215986828701611ce2565b9150509250925092565b60008251612175818460208701612455565b9190910192915050565b6001600160a01b0391909116815260200190565b6001600160a01b039384168152919092166020820152604081019190915260600190565b6001600160a01b03929092168252602082015260400190565b60208101600483106121de57fe5b91905290565b918252602082015260400190565b6000602082528251806020840152612211816040850160208701612455565b601f01601f19169190910160400192915050565b6020808252600f908201526e27b7363c9031b7b73a3937b63632b960891b604082015260600190565b60208082526021908201527f5369676e6564536166654d6174683a206164646974696f6e206f766572666c6f6040820152607760f81b606082015260800190565b6020808252600c908201526b139bdd08185c1c1c9bdd995960a21b604082015260600190565b60208082526021908201527f536166654d6174683a206d756c7469706c69636174696f6e206f766572666c6f6040820152607760f81b606082015260800190565b6020808252601d908201527f416464726573733a2063616c6c20746f206e6f6e2d636f6e7472616374000000604082015260600190565b60208082526024908201527f5369676e6564536166654d6174683a207375627472616374696f6e206f766572604082015263666c6f7760e01b606082015260800190565b6020808252602a908201527f5361666545524332303a204552433230206f7065726174696f6e20646964206e6040820152691bdd081cdd58d8d9595960b21b606082015260800190565b9283526001600160a01b03918216602084015216604082015260600190565b95865260208601949094526001600160a01b0392831660408601529082166060850152811660808401521660a082015260c00190565b6040518181016001600160401b038111828210171561242e57600080fd5b604052919050565b60006001600160401b0382111561244b578081fd5b5060209081020190565b60005b83811015612470578181015183820152602001612458565b83811115610d185750506000910152565b6001600160a01b038116811461249657600080fd5b5056fea2646970667358221220858b6008dff7aaa8a5674cac014be9bd29a3571bd29a866b397ccdd57127101c64736f6c634300060c0033",
  "linkReferences": {
    "contracts/libraries/StrategyLibrary.sol": {
      "StrategyLibrary": [
        {
          "length": 20,
          "start": 1122
        },
        {
          "length": 20,
          "start": 2639
        },
        {
          "length": 20,
          "start": 4342
        },
        {
          "length": 20,
          "start": 4559
        },
        {
          "length": 20,
          "start": 5228
        },
        {
          "length": 20,
          "start": 5705
        }
      ]
    }
  },
  "deployedLinkReferences": {
    "contracts/libraries/StrategyLibrary.sol": {
      "StrategyLibrary": [
        {
          "length": 20,
          "start": 597
        },
        {
          "length": 20,
          "start": 2114
        },
        {
          "length": 20,
          "start": 3817
        },
        {
          "length": 20,
          "start": 4034
        },
        {
          "length": 20,
          "start": 4703
        },
        {
          "length": 20,
          "start": 5180
        }
      ]
    }
  }
}