{
    "_format": "hh-sol-artifact-1",
    "contractName": "MulticallRouter",
    "sourceName": "contracts/routers/MulticallRouter.sol",
    "abi": [
        {
            "inputs": [
                {
                    "internalType": "address",
                    "name": "controller_",
                    "type": "address"
                }
            ],
            "stateMutability": "nonpayable",
            "type": "constructor"
        },
        {
            "inputs": [],
            "name": "category",
            "outputs": [
                {
                    "internalType": "enum IStrategyRouter.RouterCategory",
                    "name": "",
                    "type": "uint8"
                }
            ],
            "stateMutability": "view",
            "type": "function"
        },
        {
            "inputs": [],
            "name": "controller",
            "outputs": [
                {
                    "internalType": "contract IStrategyController",
                    "name": "",
                    "type": "address"
                }
            ],
            "stateMutability": "view",
            "type": "function"
        },
        {
            "inputs": [
                {
                    "internalType": "address",
                    "name": "adapter",
                    "type": "address"
                },
                {
                    "internalType": "uint256",
                    "name": "amount",
                    "type": "uint256"
                },
                {
                    "internalType": "uint256",
                    "name": "expected",
                    "type": "uint256"
                },
                {
                    "internalType": "address",
                    "name": "tokenIn",
                    "type": "address"
                },
                {
                    "internalType": "address",
                    "name": "tokenOut",
                    "type": "address"
                },
                {
                    "internalType": "address",
                    "name": "from",
                    "type": "address"
                },
                {
                    "internalType": "address",
                    "name": "to",
                    "type": "address"
                }
            ],
            "name": "delegateSwap",
            "outputs": [],
            "stateMutability": "nonpayable",
            "type": "function"
        },
        {
            "inputs": [
                {
                    "internalType": "address",
                    "name": "",
                    "type": "address"
                },
                {
                    "internalType": "bytes",
                    "name": "data",
                    "type": "bytes"
                }
            ],
            "name": "deposit",
            "outputs": [],
            "stateMutability": "nonpayable",
            "type": "function"
        },
        {
            "inputs": [
                {
                    "components": [
                        {
                            "internalType": "address",
                            "name": "target",
                            "type": "address"
                        },
                        {
                            "internalType": "bytes",
                            "name": "callData",
                            "type": "bytes"
                        }
                    ],
                    "internalType": "struct Multicall.Call[]",
                    "name": "calls",
                    "type": "tuple[]"
                }
            ],
            "name": "encodeCalls",
            "outputs": [
                {
                    "internalType": "bytes",
                    "name": "data",
                    "type": "bytes"
                }
            ],
            "stateMutability": "pure",
            "type": "function"
        },
        {
            "inputs": [
                {
                    "internalType": "address",
                    "name": "",
                    "type": "address"
                },
                {
                    "internalType": "bytes",
                    "name": "data",
                    "type": "bytes"
                }
            ],
            "name": "rebalance",
            "outputs": [],
            "stateMutability": "nonpayable",
            "type": "function"
        },
        {
            "inputs": [
                {
                    "internalType": "address",
                    "name": "",
                    "type": "address"
                },
                {
                    "internalType": "bytes",
                    "name": "data",
                    "type": "bytes"
                }
            ],
            "name": "restructure",
            "outputs": [],
            "stateMutability": "nonpayable",
            "type": "function"
        },
        {
            "inputs": [
                {
                    "internalType": "address",
                    "name": "adapter",
                    "type": "address"
                },
                {
                    "internalType": "address",
                    "name": "tokenIn",
                    "type": "address"
                },
                {
                    "internalType": "address",
                    "name": "tokenOut",
                    "type": "address"
                },
                {
                    "internalType": "address",
                    "name": "from",
                    "type": "address"
                },
                {
                    "internalType": "address",
                    "name": "to",
                    "type": "address"
                }
            ],
            "name": "settleSwap",
            "outputs": [],
            "stateMutability": "nonpayable",
            "type": "function"
        },
        {
            "inputs": [
                {
                    "internalType": "address",
                    "name": "token",
                    "type": "address"
                },
                {
                    "internalType": "address",
                    "name": "to",
                    "type": "address"
                }
            ],
            "name": "settleTransfer",
            "outputs": [],
            "stateMutability": "nonpayable",
            "type": "function"
        },
        {
            "inputs": [
                {
                    "internalType": "address",
                    "name": "token",
                    "type": "address"
                },
                {
                    "internalType": "address",
                    "name": "from",
                    "type": "address"
                },
                {
                    "internalType": "address",
                    "name": "to",
                    "type": "address"
                }
            ],
            "name": "settleTransferFrom",
            "outputs": [],
            "stateMutability": "nonpayable",
            "type": "function"
        },
        {
            "inputs": [],
            "name": "weth",
            "outputs": [
                {
                    "internalType": "address",
                    "name": "",
                    "type": "address"
                }
            ],
            "stateMutability": "view",
            "type": "function"
        },
        {
            "inputs": [
                {
                    "internalType": "address",
                    "name": "",
                    "type": "address"
                },
                {
                    "internalType": "bytes",
                    "name": "data",
                    "type": "bytes"
                }
            ],
            "name": "withdraw",
            "outputs": [],
            "stateMutability": "nonpayable",
            "type": "function"
        }
    ],
    "bytecode": "0x60e06040523480156200001157600080fd5b50604051620015423803806200154283398101604081905262000034916200015a565b600060808190526001600160601b0319606083901b1660a052604080516307dc0d1d60e41b8152905183916001600160a01b03831691637dc0d1d091600480820192602092909190829003018186803b1580156200009157600080fd5b505afa158015620000a6573d6000803e3d6000fd5b505050506040513d601f19601f82011682018060405250810190620000cc91906200015a565b6001600160a01b0316633fc8cef36040518163ffffffff1660e01b815260040160206040518083038186803b1580156200010557600080fd5b505afa1580156200011a573d6000803e3d6000fd5b505050506040513d601f19601f820116820180604052508101906200014091906200015a565b60601b6001600160601b03191660c0525062000199915050565b6000602082840312156200016c578081fd5b8151620001798162000180565b9392505050565b6001600160a01b03811681146200019657600080fd5b50565b60805160f81c60a05160601c60c05160601c611364620001de6000398061017a5250806101ea528061030252806104e052806105255250806104bc52506113646000f3fe608060405234801561001057600080fd5b50600436106100a45760003560e01c80633fc8cef3146100a95780634031d095146100c75780634438a7eb146100e75780634bb78b14146100fc5780638005168d1461010f578063ba11d5d014610122578063beff455314610135578063c5067ad414610148578063cf2c52cb14610122578063ea1ea75e14610122578063ef430aa61461015b578063f77c479114610170575b600080fd5b6100b1610178565b6040516100be9190610fb9565b60405180910390f35b6100da6100d5366004610ce0565b61019c565b6040516100be91906110e8565b6100fa6100f5366004610c5d565b6101c8565b005b6100fa61010a366004610b91565b6101e8565b6100fa61011d366004610b21565b610259565b6100fa610130366004610c10565b610300565b6100fa610143366004610a9f565b61036f565b6100fa610156366004610ad7565b610414565b6101636104ba565b6040516100be91906110fb565b6100b16104de565b7f000000000000000000000000000000000000000000000000000000000000000081565b606082826040516020016101b192919061100a565b604051602081830303815290604052905092915050565b6101d0610502565b6101df87878787878787610523565b50505050505050565b7f00000000000000000000000000000000000000000000000000000000000000006001600160a01b031633146102395760405162461bcd60e51b81526004016102309061110f565b60405180910390fd5b606061024782840184610d4e565b9050610252816106f0565b5050505050565b610261610502565b6040516370a0823160e01b81526000906001600160a01b038616906370a0823190610290908690600401610fb9565b60206040518083038186803b1580156102a857600080fd5b505afa1580156102bc573d6000803e3d6000fd5b505050506040513d601f19601f820116820180604052508101906102e09190610f59565b905080156102f8576102f88682600088888888610523565b505050505050565b7f00000000000000000000000000000000000000000000000000000000000000006001600160a01b031633146103485760405162461bcd60e51b81526004016102309061110f565b60608180602001905181019061035e9190610e21565b9050610369816106f0565b50505050565b610377610502565b6040516370a0823160e01b815282906000906001600160a01b038316906370a08231906103a8903090600401610fb9565b60206040518083038186803b1580156103c057600080fd5b505afa1580156103d4573d6000803e3d6000fd5b505050506040513d601f19601f820116820180604052508101906103f89190610f59565b90508015610369576103696001600160a01b0383168483610810565b61041c610502565b6040516370a0823160e01b815283906000906001600160a01b038316906370a082319061044d908790600401610fb9565b60206040518083038186803b15801561046557600080fd5b505afa158015610479573d6000803e3d6000fd5b505050506040513d601f19601f8201168201806040525081019061049d9190610f59565b90508015610252576102526001600160a01b03831685858461086b565b7f000000000000000000000000000000000000000000000000000000000000000081565b7f000000000000000000000000000000000000000000000000000000000000000081565b3330146105215760405162461bcd60e51b815260040161023090611138565b565b7f00000000000000000000000000000000000000000000000000000000000000006001600160a01b03166393e59dc16040518163ffffffff1660e01b815260040160206040518083038186803b15801561057c57600080fd5b505afa158015610590573d6000803e3d6000fd5b505050506040513d601f19601f820116820180604052508101906105b49190610f3d565b6001600160a01b031663d8b964e6886040518263ffffffff1660e01b81526004016105df9190610fb9565b60206040518083038186803b1580156105f757600080fd5b505afa15801561060b573d6000803e3d6000fd5b505050506040513d601f19601f8201168201806040525081019061062f9190610f1d565b61064b5760405162461bcd60e51b8152600401610230906111a5565b60607f230f11c7cc54d258ee9bfebf8292225b43b26633217971638b4a8364be584e178787878787876040516024016106899695949392919061124c565b60408051601f198184030181529190526020810180516001600160e01b03166001600160e01b031990931692909217909152905060005a905060008060008451602086018d86f49050806106e4576040513d806000833e8082fd5b50505050505050505050565b606081516001600160401b038111801561070957600080fd5b5060405190808252806020026020018201604052801561073d57816020015b60608152602001906001900390816107285790505b50905060005b825181101561080a57610754610a34565b83828151811061076057fe5b602002602001015190506000606082600001516001600160a01b0316836020015160405161078e9190610f9d565b6000604051808303816000865af19150503d80600081146107cb576040519150601f19603f3d011682016040523d82523d6000602084013e6107d0565b606091505b5091509150816107e7576040513d806000833e8082fd5b808585815181106107f457fe5b6020908102919091010152505050600101610743565b50919050565b6108668363a9059cbb60e01b848460405160240161082f929190610ff1565b60408051601f198184030181529190526020810180516001600160e01b03166001600160e01b03199093169290921790915261088c565b505050565b610369846323b872dd60e01b85858560405160240161082f93929190610fcd565b60606108e1826040518060400160405280602081526020017f5361666545524332303a206c6f772d6c6576656c2063616c6c206661696c6564815250856001600160a01b031661091b9092919063ffffffff16565b80519091501561086657808060200190518101906108ff9190610f1d565b6108665760405162461bcd60e51b815260040161023090611202565b606061092a8484600085610934565b90505b9392505050565b6060824710156109565760405162461bcd60e51b81526004016102309061115f565b61095f856109f5565b61097b5760405162461bcd60e51b8152600401610230906111cb565b60006060866001600160a01b031685876040516109989190610f9d565b60006040518083038185875af1925050503d80600081146109d5576040519150601f19603f3d011682016040523d82523d6000602084013e6109da565b606091505b50915091506109ea8282866109fb565b979650505050505050565b3b151590565b60608315610a0a57508161092d565b825115610a1a5782518084602001fd5b8160405162461bcd60e51b815260040161023091906110e8565b60408051808201909152600081526060602082015290565b600082601f830112610a5c578081fd5b8135610a6f610a6a826112c7565b611282565b9150808252836020828501011115610a8657600080fd5b8060208401602084013760009082016020015292915050565b60008060408385031215610ab1578182fd5b8235610abc81611316565b91506020830135610acc81611316565b809150509250929050565b600080600060608486031215610aeb578081fd5b8335610af681611316565b92506020840135610b0681611316565b91506040840135610b1681611316565b809150509250925092565b600080600080600060a08688031215610b38578081fd5b8535610b4381611316565b94506020860135610b5381611316565b93506040860135610b6381611316565b92506060860135610b7381611316565b91506080860135610b8381611316565b809150509295509295909350565b600080600060408486031215610ba5578283fd5b8335610bb081611316565b925060208401356001600160401b0380821115610bcb578384fd5b818601915086601f830112610bde578384fd5b813581811115610bec578485fd5b876020828501011115610bfd578485fd5b6020830194508093505050509250925092565b60008060408385031215610c22578182fd5b8235610c2d81611316565b915060208301356001600160401b03811115610c47578182fd5b610c5385828601610a4c565b9150509250929050565b600080600080600080600060e0888a031215610c77578182fd5b8735610c8281611316565b965060208801359550604088013594506060880135610ca081611316565b93506080880135610cb081611316565b925060a0880135610cc081611316565b915060c0880135610cd081611316565b8091505092959891949750929550565b60008060208385031215610cf2578182fd5b82356001600160401b0380821115610d08578384fd5b818501915085601f830112610d1b578384fd5b813581811115610d29578485fd5b8660208083028501011115610d3c578485fd5b60209290920196919550909350505050565b60006020808385031215610d60578182fd5b82356001600160401b0380821115610d76578384fd5b818501915085601f830112610d89578384fd5b8135610d97610a6a826112a8565b81815284810190848601875b84811015610e125781358701604080601f19838f03011215610dc3578a8bfd5b610dcc81611282565b8a830135610dd981611316565b8152908201359088821115610dec578b8cfd5b610dfa8e8c84860101610a4c565b818c0152865250509287019290870190600101610da3565b50909998505050505050505050565b60006020808385031215610e33578182fd5b82516001600160401b0380821115610e49578384fd5b818501915085601f830112610e5c578384fd5b8151610e6a610a6a826112a8565b81815284810190848601875b84811015610e125781518701604080601f19838f03011215610e96578a8bfd5b610e9f81611282565b8a830151610eac81611316565b81528282015189811115610ebe578c8dfd5b8084019350508d603f840112610ed2578b8cfd5b8a830151610ee2610a6a826112c7565b8181528f84838701011115610ef5578d8efd5b610f04828e83018688016112ea565b828d015250865250509287019290870190600101610e76565b600060208284031215610f2e578081fd5b8151801515811461092d578182fd5b600060208284031215610f4e578081fd5b815161092d81611316565b600060208284031215610f6a578081fd5b5051919050565b60008151808452610f898160208601602086016112ea565b601f01601f19169290920160200192915050565b60008251610faf8184602087016112ea565b9190910192915050565b6001600160a01b0391909116815260200190565b6001600160a01b039384168152919092166020820152604081019190915260600190565b6001600160a01b03929092168252602082015260400190565b602080825281810183905260009060408084018583028501820187855b888110156110da57878303603f190184528135368b9003603e1901811261104c578788fd5b8a01803561105981611316565b6001600160a01b031684528087013536829003601e1901811261107a578889fd5b810180356001600160401b0381111561109157898afd5b80360383131561109f57898afd5b8789870152808887015260609250808983018488013785810183018a905295880195601f01601f191690940101925090850190600101611027565b509098975050505050505050565b60006020825261092d6020830184610f71565b602081016004831061110957fe5b91905290565b6020808252600f908201526e27b7363c9031b7b73a3937b63632b960891b604082015260600190565b6020808252600d908201526c13db9b1e481a5b9d195c9b985b609a1b604082015260600190565b60208082526026908201527f416464726573733a20696e73756666696369656e742062616c616e636520666f6040820152651c8818d85b1b60d21b606082015260800190565b6020808252600c908201526b139bdd08185c1c1c9bdd995960a21b604082015260600190565b6020808252601d908201527f416464726573733a2063616c6c20746f206e6f6e2d636f6e7472616374000000604082015260600190565b6020808252602a908201527f5361666545524332303a204552433230206f7065726174696f6e20646964206e6040820152691bdd081cdd58d8d9595960b21b606082015260800190565b95865260208601949094526001600160a01b0392831660408601529082166060850152811660808401521660a082015260c00190565b6040518181016001600160401b03811182821017156112a057600080fd5b604052919050565b60006001600160401b038211156112bd578081fd5b5060209081020190565b60006001600160401b038211156112dc578081fd5b50601f01601f191660200190565b60005b838110156113055781810151838201526020016112ed565b838111156103695750506000910152565b6001600160a01b038116811461132b57600080fd5b5056fea264697066735822122061f87747a8d279dde81eef2950659ae8cea86320c2f38372162d96e34982f82e64736f6c634300060c0033",
    "linkReferences": {},
    "deployedLinkReferences": {}
}