{
  "_format": "hh-sol-artifact-1",
  "contractName": "CurveLPAdapter",
  "sourceName": "contracts/adapters/liquidity/CurveLPAdapter.sol",
  "abi": [
    {
      "inputs": [
        {
          "internalType": "address",
          "name": "addressProvider_",
          "type": "address"
        },
        {
          "internalType": "address",
          "name": "zapRegistry_",
          "type": "address"
        },
        {
          "internalType": "address",
          "name": "weth_",
          "type": "address"
        }
      ],
      "stateMutability": "nonpayable",
      "type": "constructor"
    },
    {
      "inputs": [],
      "name": "TRICRYPTO2",
      "outputs": [
        {
          "internalType": "address",
          "name": "",
          "type": "address"
        }
      ],
      "stateMutability": "view",
      "type": "function"
    },
    {
      "inputs": [],
      "name": "TRICRYPTO2_POOL",
      "outputs": [
        {
          "internalType": "address",
          "name": "",
          "type": "address"
        }
      ],
      "stateMutability": "view",
      "type": "function"
    },
    {
      "inputs": [],
      "name": "addressProvider",
      "outputs": [
        {
          "internalType": "contract ICurveAddressProvider",
          "name": "",
          "type": "address"
        }
      ],
      "stateMutability": "view",
      "type": "function"
    },
    {
      "inputs": [
        {
          "internalType": "uint256",
          "name": "amount",
          "type": "uint256"
        },
        {
          "internalType": "uint256",
          "name": "expected",
          "type": "uint256"
        },
        {
          "internalType": "address",
          "name": "tokenIn",
          "type": "address"
        },
        {
          "internalType": "address",
          "name": "tokenOut",
          "type": "address"
        },
        {
          "internalType": "address",
          "name": "from",
          "type": "address"
        },
        {
          "internalType": "address",
          "name": "to",
          "type": "address"
        }
      ],
      "name": "swap",
      "outputs": [],
      "stateMutability": "nonpayable",
      "type": "function"
    },
    {
      "inputs": [],
      "name": "weth",
      "outputs": [
        {
          "internalType": "address",
          "name": "",
          "type": "address"
        }
      ],
      "stateMutability": "view",
      "type": "function"
    },
    {
      "inputs": [],
      "name": "zapRegistry",
      "outputs": [
        {
          "internalType": "contract ICurveDepositZapRegistry",
          "name": "",
          "type": "address"
        }
      ],
      "stateMutability": "view",
      "type": "function"
    }
  ],
  "bytecode": "0x60e06040523480156200001157600080fd5b50604051620017913803806200179183398101604081905262000034916200005a565b6001600160601b0319606091821b811660805292811b831660a0521b1660c052620000c6565b6000806000606084860312156200006f578283fd5b83516200007c81620000ad565b60208501519093506200008f81620000ad565b6040850151909250620000a281620000ad565b809150509250925092565b6001600160a01b0381168114620000c357600080fd5b50565b60805160601c60a05160601c60c05160601c6116866200010b600039806108b55280610b745280610cbc52508061011e528061085552508061089152506116866000f3fe608060405234801561001057600080fd5b50600436106100625760003560e01c8063230f11c7146100675780632954018c1461007c5780633cfae1741461009a5780633fc8cef3146100a25780637bf14727146100aa578063bfefe235146100b2575b600080fd5b61007a610075366004611206565b6100ba565b005b610084610853565b6040516100919190611291565b60405180910390f35b610084610877565b61008461088f565b6100846108b3565b6100846108d7565b826001600160a01b0316846001600160a01b031614156100f55760405162461bcd60e51b81526004016100ec9061147c565b60405180910390fd5b6001600160a01b038216301461011a5761011a6001600160a01b0385168330896108ef565b60007f00000000000000000000000000000000000000000000000000000000000000006001600160a01b031663a262904b6040518163ffffffff1660e01b815260040160206040518083038186803b15801561017557600080fd5b505afa158015610189573d6000803e3d6000fd5b505050506040513d601f19601f820116820180604052508101906101ad9190611129565b90506000816001600160a01b031663bdf475c3876040518263ffffffff1660e01b81526004016101dd9190611291565b60206040518083038186803b1580156101f557600080fd5b505afa158015610209573d6000803e3d6000fd5b505050506040513d601f19601f8201168201806040525081019061022d9190611129565b90506000826001600160a01b031663bdf475c3876040518263ffffffff1660e01b815260040161025d9190611291565b60206040518083038186803b15801561027557600080fd5b505afa158015610289573d6000803e3d6000fd5b505050506040513d601f19601f820116820180604052508101906102ad9190611129565b90506001600160a01b0382161580156102ce57506001600160a01b03811615155b156103605761035b898883866001600160a01b0316639ac90d3d866040518263ffffffff1660e01b81526004016103059190611291565b6101006040518083038186803b15801561031e57600080fd5b505afa158015610332573d6000803e3d6000fd5b505050506040513d601f19601f820116820180604052508101906103569190611145565b61094d565b610782565b6001600160a01b0382161580159061037f57506001600160a01b038116155b1561040d5761035b89888885876001600160a01b0316639ac90d3d886040518263ffffffff1660e01b81526004016103b79190611291565b6101006040518083038186803b1580156103d057600080fd5b505afa1580156103e4573d6000803e3d6000fd5b505050506040513d601f19601f820116820180604052508101906104089190611145565b610b5a565b6001600160a01b0382161580159061042d57506001600160a01b03811615155b1561065657600061043c61109f565b604051639ac90d3d60e01b81526001600160a01b03861690639ac90d3d90610468908690600401611291565b6101006040518083038186803b15801561048157600080fd5b505afa158015610495573d6000803e3d6000fd5b505050506040513d601f19601f820116820180604052508101906104b99190611145565b905060005b60088110156105295760008282600881106104d557fe5b60200201516001600160a01b031614156104ee57610529565b896001600160a01b031682826008811061050457fe5b60200201516001600160a01b031614156105215760019250610529565b6001016104be565b5081156105415761053c8b8a858461094d565b61064f565b600061054b61109f565b604051639ac90d3d60e01b81526001600160a01b03881690639ac90d3d90610577908990600401611291565b6101006040518083038186803b15801561059057600080fd5b505afa1580156105a4573d6000803e3d6000fd5b505050506040513d601f19601f820116820180604052508101906105c89190611145565b905060005b60088110156106385760008282600881106105e457fe5b60200201516001600160a01b031614156105fd57610638565b8a6001600160a01b031682826008811061061357fe5b60200201516001600160a01b031614156106305760019250610638565b6001016105cd565b50811561064c5761064c8d8c8c8985610b5a565b50505b5050610782565b6001600160a01b03871673c4ad29ba4b3c580e6d59105fff484999997675ff148061069d57506001600160a01b03861673c4ad29ba4b3c580e6d59105fff484999997675ff145b15610062576106aa61109f565b73dac17f958d2ee523a2206206994597c13d831ec78152732260fac5e5542a773aa44fbcfedf7c193bc2c599602082015273c02aaa39b223fe8d0a0e5c4f27ead9083c756cc2604082015273c4ad29ba4b3c580e6d59105fff484999997675ff6001600160a01b038916141561073b5761073b8a898973d51a44d3fae010294c616388b506acda1bfaae4685610b5a565b6001600160a01b03871673c4ad29ba4b3c580e6d59105fff484999997675ff1415610780576107808a8973d51a44d3fae010294c616388b506acda1bfaae468461094d565b505b6040516370a0823160e01b81526000906001600160a01b038816906370a08231906107b1903090600401611291565b60206040518083038186803b1580156107c957600080fd5b505afa1580156107dd573d6000803e3d6000fd5b505050506040513d601f19601f8201168201806040525081019061080191906111ee565b9050888110156108235760405162461bcd60e51b81526004016100ec90611446565b6001600160a01b0385163014610847576108476001600160a01b0388168683610e10565b50505050505050505050565b7f000000000000000000000000000000000000000000000000000000000000000081565b73c4ad29ba4b3c580e6d59105fff484999997675ff81565b7f000000000000000000000000000000000000000000000000000000000000000081565b7f000000000000000000000000000000000000000000000000000000000000000081565b73d51a44d3fae010294c616388b506acda1bfaae4681565b610947846323b872dd60e01b858585604051602401610910939291906112bf565b60408051601f198184030181529190526020810180516001600160e01b03166001600160e01b031990931692909217909152610e34565b50505050565b6109616001600160a01b0384168386610ec3565b60006008815b60088110156109d057600084826008811061097e57fe5b60200201516001600160a01b0316141561099a578092506109d0565b856001600160a01b03168482600881106109b057fe5b60200201516001600160a01b031614156109c8578091505b600101610967565b50600881106109f15760405162461bcd60e51b81526004016100ec906113d7565b8160041415610a7a57610a026110be565b86818360048110610a0f57fe5b602002015260405162a6cbcd60e21b81526001600160a01b0386169063029b2f3490610a4290849060009060040161136c565b600060405180830381600087803b158015610a5c57600080fd5b505af1158015610a70573d6000803e3d6000fd5b5050505050610b52565b8160031415610acc57610a8b6110dc565b86818360038110610a9857fe5b6020020152604051634515cef360e01b81526001600160a01b03861690634515cef390610a42908490600090600401611334565b8160021415610b5257610add6110fa565b86818360028110610aea57fe5b6020020152604051630b4c7e4d60e01b81526001600160a01b03861690630b4c7e4d90610b1e9084906000906004016112fc565b600060405180830381600087803b158015610b3857600080fd5b505af1158015610b4c573d6000803e3d6000fd5b50505050505b505050505050565b60405163317d373560e01b81526000906001600160a01b037f0000000000000000000000000000000000000000000000000000000000000000169063317d373590610ba9908890600401611291565b60206040518083038186803b158015610bc157600080fd5b505afa158015610bd5573d6000803e3d6000fd5b505050506040513d601f19601f82011682018060405250810190610bf99190611129565b90506001600160a01b038116610c0c5750815b6000805b6008811015610c8d576000848260088110610c2757fe5b60200201516001600160a01b03161415610c535760405162461bcd60e51b81526004016100ec90611556565b856001600160a01b0316848260088110610c6957fe5b60200201516001600160a01b03161415610c8557809150610c8d565b600101610c10565b50610ca26001600160a01b0387168389610ec3565b6040516391e2851f60e01b81526000906001600160a01b037f000000000000000000000000000000000000000000000000000000000000000016906391e2851f90610cf1908690600401611291565b60206040518083038186803b158015610d0957600080fd5b505afa158015610d1d573d6000803e3d6000fd5b505050506040513d601f19601f82011682018060405250810190610d4191906111ee565b905080610db057604051630d2680e960e11b81526001600160a01b03841690631a4d01d290610d79908b9086906001906004016115dd565b600060405180830381600087803b158015610d9357600080fd5b505af1158015610da7573d6000803e3d6000fd5b50505050610e06565b8060011415610dee5760405163f1dc3cc960e01b81526001600160a01b0384169063f1dc3cc990610d79908b90600f87900b906001906004016115f6565b60405162461bcd60e51b81526004016100ec906114e0565b5050505050505050565b610e2f8363a9059cbb60e01b84846040516024016109109291906112e3565b505050565b6060610e89826040518060400160405280602081526020017f5361666545524332303a206c6f772d6c6576656c2063616c6c206661696c6564815250856001600160a01b0316610f869092919063ffffffff16565b805190915015610e2f5780806020019051810190610ea791906111ce565b610e2f5760405162461bcd60e51b81526004016100ec9061150c565b801580610f4b5750604051636eb1769f60e11b81526001600160a01b0384169063dd62ed3e90610ef990309086906004016112a5565b60206040518083038186803b158015610f1157600080fd5b505afa158015610f25573d6000803e3d6000fd5b505050506040513d601f19601f82011682018060405250810190610f4991906111ee565b155b610f675760405162461bcd60e51b81526004016100ec90611587565b610e2f8363095ea7b360e01b84846040516024016109109291906112e3565b6060610f958484600085610f9f565b90505b9392505050565b606082471015610fc15760405162461bcd60e51b81526004016100ec90611400565b610fca85611060565b610fe65760405162461bcd60e51b81526004016100ec906114a9565b60006060866001600160a01b031685876040516110039190611275565b60006040518083038185875af1925050503d8060008114611040576040519150601f19603f3d011682016040523d82523d6000602084013e611045565b606091505b5091509150611055828286611066565b979650505050505050565b3b151590565b60608315611075575081610f98565b8251156110855782518084602001fd5b8160405162461bcd60e51b81526004016100ec91906113a4565b6040518061010001604052806008906020820280368337509192915050565b60405180608001604052806004906020820280368337509192915050565b60405180606001604052806003906020820280368337509192915050565b60405180604001604052806002906020820280368337509192915050565b805161112381611638565b92915050565b60006020828403121561113a578081fd5b8151610f9881611638565b6000610100808385031215611158578182fd5b83601f840112611166578182fd5b60405181810181811067ffffffffffffffff82111715611184578384fd5b6040528084838101871015611197578485fd5b8493505b60088410156111c3576111ae8782611118565b8252600193909301926020918201910161119b565b509095945050505050565b6000602082840312156111df578081fd5b81518015158114610f98578182fd5b6000602082840312156111ff578081fd5b5051919050565b60008060008060008060c0878903121561121e578182fd5b8635955060208701359450604087013561123781611638565b9350606087013561124781611638565b9250608087013561125781611638565b915060a087013561126781611638565b809150509295509295509295565b6000825161128781846020870161160c565b9190910192915050565b6001600160a01b0391909116815260200190565b6001600160a01b0392831681529116602082015260400190565b6001600160a01b039384168152919092166020820152604081019190915260600190565b6001600160a01b03929092168252602082015260400190565b60608101818460005b6002811015611324578151835260209283019290910190600101611305565b5050508260408301529392505050565b60808101818460005b600381101561135c57815183526020928301929091019060010161133d565b5050508260608301529392505050565b60a08101818460005b6004811015611394578151835260209283019290910190600101611375565b5050508260808301529392505050565b60006020825282518060208401526113c381604085016020870161160c565b601f01601f19169190910160400192915050565b6020808252600f908201526e151bdad95b881b9bdd08199bdd5b99608a1b604082015260600190565b60208082526026908201527f416464726573733a20696e73756666696369656e742062616c616e636520666f6040820152651c8818d85b1b60d21b606082015260800190565b6020808252601c908201527b125b9cdd59999a58da595b9d081d1bdad95b93dd5d08185b5bdd5b9d60221b604082015260600190565b6020808252601390820152720a8ded6cadce640c6c2dcdcdee840dac2e8c6d606b1b604082015260600190565b6020808252601d908201527f416464726573733a2063616c6c20746f206e6f6e2d636f6e7472616374000000604082015260600190565b602080825260129082015271556e6b6e6f776e20696e646578207479706560701b604082015260600190565b6020808252602a908201527f5361666545524332303a204552433230206f7065726174696f6e20646964206e6040820152691bdd081cdd58d8d9595960b21b606082015260800190565b602080825260179082015276151bdad95b881b9bdd08199bdd5b99081a5b881c1bdbdb604a1b604082015260600190565b60208082526036908201527f5361666545524332303a20617070726f76652066726f6d206e6f6e2d7a65726f60408201527520746f206e6f6e2d7a65726f20616c6c6f77616e636560501b606082015260800190565b928352600f9190910b6020830152604082015260600190565b9283526020830191909152604082015260600190565b60005b8381101561162757818101518382015260200161160f565b838111156109475750506000910152565b6001600160a01b038116811461164d57600080fd5b5056fea2646970667358221220e1a2f4ea04ad1f72f3e10730a489a6e3ff7fe332b23800b5da507c9a1cd0838564736f6c634300060c0033",
  "linkReferences": {},
  "deployedLinkReferences": {}
}