{
  "_format": "hh-sol-artifact-1",
  "contractName": "CurveLPAdapter",
  "sourceName": "contracts/adapters/liquidity/CurveLPAdapter.sol",
  "abi": [
    {
      "inputs": [
        {
          "internalType": "address",
          "name": "addressProvider_",
          "type": "address"
        },
        {
          "internalType": "address",
          "name": "zapRegistry_",
          "type": "address"
        },
        {
          "internalType": "address",
          "name": "weth_",
          "type": "address"
        }
      ],
      "stateMutability": "nonpayable",
      "type": "constructor"
    },
    {
      "inputs": [],
      "name": "addressProvider",
      "outputs": [
        {
          "internalType": "contract ICurveAddressProvider",
          "name": "",
          "type": "address"
        }
      ],
      "stateMutability": "view",
      "type": "function"
    },
    {
      "inputs": [
        {
          "internalType": "uint256",
          "name": "amount",
          "type": "uint256"
        },
        {
          "internalType": "address",
          "name": "tokenIn",
          "type": "address"
        },
        {
          "internalType": "address",
          "name": "tokenOut",
          "type": "address"
        }
      ],
      "name": "spotPrice",
      "outputs": [
        {
          "internalType": "uint256",
          "name": "",
          "type": "uint256"
        }
      ],
      "stateMutability": "view",
      "type": "function"
    },
    {
      "inputs": [
        {
          "internalType": "uint256",
          "name": "amount",
          "type": "uint256"
        },
        {
          "internalType": "uint256",
          "name": "expected",
          "type": "uint256"
        },
        {
          "internalType": "address",
          "name": "tokenIn",
          "type": "address"
        },
        {
          "internalType": "address",
          "name": "tokenOut",
          "type": "address"
        },
        {
          "internalType": "address",
          "name": "from",
          "type": "address"
        },
        {
          "internalType": "address",
          "name": "to",
          "type": "address"
        }
      ],
      "name": "swap",
      "outputs": [],
      "stateMutability": "nonpayable",
      "type": "function"
    },
    {
      "inputs": [],
      "name": "weth",
      "outputs": [
        {
          "internalType": "address",
          "name": "",
          "type": "address"
        }
      ],
      "stateMutability": "view",
      "type": "function"
    },
    {
      "inputs": [],
      "name": "zapRegistry",
      "outputs": [
        {
          "internalType": "contract ICurveDepositZapRegistry",
          "name": "",
          "type": "address"
        }
      ],
      "stateMutability": "view",
      "type": "function"
    }
  ],
  "bytecode": "0x60e06040523480156200001157600080fd5b5060405162001e9a38038062001e9a83398101604081905262000034916200005a565b6001600160601b0319606091821b811660805292811b831660a0521b1660c052620000c6565b6000806000606084860312156200006f578283fd5b83516200007c81620000ad565b60208501519093506200008f81620000ad565b6040850151909250620000a281620000ad565b809150509250925092565b6001600160a01b0381168114620000c357600080fd5b50565b60805160601c60a05160601c60c05160601c611d8a6200011060003980610d015280610fa8528061137d525080610123528061072a528061079752508061074e5250611d8a6000f3fe608060405234801561001057600080fd5b50600436106100575760003560e01c8063230f11c71461005c5780632954018c146100715780633fc8cef31461008f57806377ec159d146100975780637bf14727146100b7575b600080fd5b61006f61006a36600461190f565b6100bf565b005b610079610728565b6040516100869190611a03565b60405180910390f35b61007961074c565b6100aa6100a53660046118ce565b610770565b6040516100869190611cdd565b610079610cff565b826001600160a01b0316846001600160a01b031614156100fa5760405162461bcd60e51b81526004016100f190611ba8565b60405180910390fd5b6001600160a01b038216301461011f5761011f6001600160a01b038516833089610d23565b60007f00000000000000000000000000000000000000000000000000000000000000006001600160a01b031663a262904b6040518163ffffffff1660e01b815260040160206040518083038186803b15801561017a57600080fd5b505afa15801561018e573d6000803e3d6000fd5b505050506040513d601f19601f820116820180604052508101906101b291906117f1565b90506000816001600160a01b031663bdf475c3876040518263ffffffff1660e01b81526004016101e29190611a03565b60206040518083038186803b1580156101fa57600080fd5b505afa15801561020e573d6000803e3d6000fd5b505050506040513d601f19601f8201168201806040525081019061023291906117f1565b90506000826001600160a01b031663bdf475c3876040518263ffffffff1660e01b81526004016102629190611a03565b60206040518083038186803b15801561027a57600080fd5b505afa15801561028e573d6000803e3d6000fd5b505050506040513d601f19601f820116820180604052508101906102b291906117f1565b90506001600160a01b0382161580156102d357506001600160a01b03811615155b1561036557610360898883866001600160a01b0316639ac90d3d866040518263ffffffff1660e01b815260040161030a9190611a03565b6101006040518083038186803b15801561032357600080fd5b505afa158015610337573d6000803e3d6000fd5b505050506040513d601f19601f8201168201806040525081019061035b919061180d565b610d81565b610657565b6001600160a01b0382161580159061038457506001600160a01b038116155b156104125761036089888885876001600160a01b0316639ac90d3d886040518263ffffffff1660e01b81526004016103bc9190611a03565b6101006040518083038186803b1580156103d557600080fd5b505afa1580156103e9573d6000803e3d6000fd5b505050506040513d601f19601f8201168201806040525081019061040d919061180d565b610f8e565b6001600160a01b0382161580159061043257506001600160a01b03811615155b15610057576000610441611767565b604051639ac90d3d60e01b81526001600160a01b03861690639ac90d3d9061046d908690600401611a03565b6101006040518083038186803b15801561048657600080fd5b505afa15801561049a573d6000803e3d6000fd5b505050506040513d601f19601f820116820180604052508101906104be919061180d565b905060005b600881101561052e5760008282600881106104da57fe5b60200201516001600160a01b031614156104f35761052e565b896001600160a01b031682826008811061050957fe5b60200201516001600160a01b03161415610526576001925061052e565b6001016104c3565b508115610546576105418b8a8584610d81565b610654565b6000610550611767565b604051639ac90d3d60e01b81526001600160a01b03881690639ac90d3d9061057c908990600401611a03565b6101006040518083038186803b15801561059557600080fd5b505afa1580156105a9573d6000803e3d6000fd5b505050506040513d601f19601f820116820180604052508101906105cd919061180d565b905060005b600881101561063d5760008282600881106105e957fe5b60200201516001600160a01b031614156106025761063d565b8a6001600160a01b031682826008811061061857fe5b60200201516001600160a01b03161415610635576001925061063d565b6001016105d2565b508115610651576106518d8c8c8985610f8e565b50505b50505b6040516370a0823160e01b81526000906001600160a01b038816906370a0823190610686903090600401611a03565b60206040518083038186803b15801561069e57600080fd5b505afa1580156106b2573d6000803e3d6000fd5b505050506040513d601f19601f820116820180604052508101906106d691906118b6565b9050888110156106f85760405162461bcd60e51b81526004016100f190611b72565b6001600160a01b038516301461071c5761071c6001600160a01b0388168683611174565b50505050505050505050565b7f000000000000000000000000000000000000000000000000000000000000000081565b7f000000000000000000000000000000000000000000000000000000000000000081565b6000816001600160a01b0316836001600160a01b03161415610793575082610cf8565b60007f00000000000000000000000000000000000000000000000000000000000000006001600160a01b031663a262904b6040518163ffffffff1660e01b815260040160206040518083038186803b1580156107ee57600080fd5b505afa158015610802573d6000803e3d6000fd5b505050506040513d601f19601f8201168201806040525081019061082691906117f1565b90506000816001600160a01b031663bdf475c3866040518263ffffffff1660e01b81526004016108569190611a03565b60206040518083038186803b15801561086e57600080fd5b505afa158015610882573d6000803e3d6000fd5b505050506040513d601f19601f820116820180604052508101906108a691906117f1565b90506000826001600160a01b031663bdf475c3866040518263ffffffff1660e01b81526004016108d69190611a03565b60206040518083038186803b1580156108ee57600080fd5b505afa158015610902573d6000803e3d6000fd5b505050506040513d601f19601f8201168201806040525081019061092691906117f1565b90506001600160a01b03821615801561094757506001600160a01b03811615155b156109de576109d4878783866001600160a01b0316639ac90d3d866040518263ffffffff1660e01b815260040161097e9190611a03565b6101006040518083038186803b15801561099757600080fd5b505afa1580156109ab573d6000803e3d6000fd5b505050506040513d601f19601f820116820180604052508101906109cf919061180d565b611198565b9350505050610cf8565b6001600160a01b038216158015906109fd57506001600160a01b038116155b15610a8b576109d487878785876001600160a01b0316639ac90d3d886040518263ffffffff1660e01b8152600401610a359190611a03565b6101006040518083038186803b158015610a4e57600080fd5b505afa158015610a62573d6000803e3d6000fd5b505050506040513d601f19601f82011682018060405250810190610a86919061180d565b611378565b6001600160a01b03821615801590610aab57506001600160a01b03811615155b15610ce8576000610aba611767565b604051639ac90d3d60e01b81526001600160a01b03861690639ac90d3d90610ae6908690600401611a03565b6101006040518083038186803b158015610aff57600080fd5b505afa158015610b13573d6000803e3d6000fd5b505050506040513d601f19601f82011682018060405250810190610b37919061180d565b905060005b6008811015610ba7576000828260088110610b5357fe5b60200201516001600160a01b03161415610b6c57610ba7565b886001600160a01b0316828260088110610b8257fe5b60200201516001600160a01b03161415610b9f5760019250610ba7565b600101610b3c565b508115610bc657610bba89898584611198565b95505050505050610cf8565b6000610bd0611767565b604051639ac90d3d60e01b81526001600160a01b03881690639ac90d3d90610bfc908990600401611a03565b6101006040518083038186803b158015610c1557600080fd5b505afa158015610c29573d6000803e3d6000fd5b505050506040513d601f19601f82011682018060405250810190610c4d919061180d565b905060005b6008811015610cbd576000828260088110610c6957fe5b60200201516001600160a01b03161415610c8257610cbd565b896001600160a01b0316828260088110610c9857fe5b60200201516001600160a01b03161415610cb55760019250610cbd565b600101610c52565b508115610cdf57610cd18b8b8b8985611378565b975050505050505050610cf8565b50505050610cf4565b60009350505050610cf8565b5050505b9392505050565b7f000000000000000000000000000000000000000000000000000000000000000081565b610d7b846323b872dd60e01b858585604051602401610d4493929190611a31565b60408051601f198184030181529190526020810180516001600160e01b03166001600160e01b03199093169290921790915261152c565b50505050565b610d956001600160a01b03841683866115bb565b60006008815b6008811015610e04576000848260088110610db257fe5b60200201516001600160a01b03161415610dce57809250610e04565b856001600160a01b0316848260088110610de457fe5b60200201516001600160a01b03161415610dfc578091505b600101610d9b565b5060088110610e255760405162461bcd60e51b81526004016100f190611b49565b8160041415610eae57610e36611786565b86818360048110610e4357fe5b602002015260405162a6cbcd60e21b81526001600160a01b0386169063029b2f3490610e76908490600090600401611afb565b600060405180830381600087803b158015610e9057600080fd5b505af1158015610ea4573d6000803e3d6000fd5b5050505050610f86565b8160031415610f0057610ebf6117a4565b86818360038110610ecc57fe5b6020020152604051634515cef360e01b81526001600160a01b03861690634515cef390610e76908490600090600401611ac3565b8160021415610f8657610f116117c2565b86818360028110610f1e57fe5b6020020152604051630b4c7e4d60e01b81526001600160a01b03861690630b4c7e4d90610f52908490600090600401611a8b565b600060405180830381600087803b158015610f6c57600080fd5b505af1158015610f80573d6000803e3d6000fd5b50505050505b505050505050565b60405163317d373560e01b81526000906001600160a01b037f0000000000000000000000000000000000000000000000000000000000000000169063317d373590610fdd908890600401611a03565b60206040518083038186803b158015610ff557600080fd5b505afa158015611009573d6000803e3d6000fd5b505050506040513d601f19601f8201168201806040525081019061102d91906117f1565b90506001600160a01b0381166110405750815b6000805b60088110156110c157600084826008811061105b57fe5b60200201516001600160a01b031614156110875760405162461bcd60e51b81526004016100f190611c56565b856001600160a01b031684826008811061109d57fe5b60200201516001600160a01b031614156110b9578091506110c1565b600101611044565b5060405163095ea7b360e01b81526001600160a01b0387169063095ea7b3906110f09085908b90600401611a55565b602060405180830381600087803b15801561110a57600080fd5b505af115801561111e573d6000803e3d6000fd5b505050506040513d601f19601f820116820180604052508101906111429190611896565b50604051630d2680e960e11b81526001600160a01b03831690631a4d01d290610f52908a908590600190600401611cf7565b6111938363a9059cbb60e01b8484604051602401610d44929190611a55565b505050565b6000806008815b60088110156112085760008582600881106111b657fe5b60200201516001600160a01b031614156111d257809250611208565b866001600160a01b03168582600881106111e857fe5b60200201516001600160a01b03161415611200578091505b60010161119f565b50806008141561121d57600092505050611370565b81600414156112c95761122e611786565b8781836004811061123b57fe5b602002015260405163cf701ff760e01b81526001600160a01b0387169063cf701ff79061126f908490600190600401611ade565b60206040518083038186803b15801561128757600080fd5b505afa15801561129b573d6000803e3d6000fd5b505050506040513d601f19601f820116820180604052508101906112bf91906118b6565b9350505050611370565b816003141561131b576112da6117a4565b878183600381106112e757fe5b6020020152604051633883e11960e01b81526001600160a01b03871690633883e1199061126f908490600190600401611aa6565b816002141561136d5761132c6117c2565b8781836002811061133957fe5b602002015260405163ed8e84f360e01b81526001600160a01b0387169063ed8e84f39061126f908490600190600401611a6e565b50505b949350505050565b6000807f00000000000000000000000000000000000000000000000000000000000000006001600160a01b031663317d3735876040518263ffffffff1660e01b81526004016113c79190611a03565b60206040518083038186803b1580156113df57600080fd5b505afa1580156113f3573d6000803e3d6000fd5b505050506040513d601f19601f8201168201806040525081019061141791906117f1565b90506001600160a01b03811661142a5750825b6000805b600881101561149f57600085826008811061144557fe5b60200201516001600160a01b031614156114655760009350505050611523565b866001600160a01b031685826008811061147b57fe5b60200201516001600160a01b031614156114975780915061149f565b60010161142e565b5060405163cc2b27d760e01b81526001600160a01b0383169063cc2b27d7906114ce908b908590600401611ce6565b60206040518083038186803b1580156114e657600080fd5b505afa1580156114fa573d6000803e3d6000fd5b505050506040513d601f19601f8201168201806040525081019061151e91906118b6565b925050505b95945050505050565b6060611581826040518060400160405280602081526020017f5361666545524332303a206c6f772d6c6576656c2063616c6c206661696c6564815250856001600160a01b031661167e9092919063ffffffff16565b805190915015611193578080602001905181019061159f9190611896565b6111935760405162461bcd60e51b81526004016100f190611c0c565b8015806116435750604051636eb1769f60e11b81526001600160a01b0384169063dd62ed3e906115f19030908690600401611a17565b60206040518083038186803b15801561160957600080fd5b505afa15801561161d573d6000803e3d6000fd5b505050506040513d601f19601f8201168201806040525081019061164191906118b6565b155b61165f5760405162461bcd60e51b81526004016100f190611c87565b6111938363095ea7b360e01b8484604051602401610d44929190611a55565b606061137084846000858561169285611728565b6116ae5760405162461bcd60e51b81526004016100f190611bd5565b60006060866001600160a01b031685876040516116cb91906119e7565b60006040518083038185875af1925050503d8060008114611708576040519150601f19603f3d011682016040523d82523d6000602084013e61170d565b606091505b509150915061171d82828661172e565b979650505050505050565b3b151590565b6060831561173d575081610cf8565b82511561174d5782518084602001fd5b8160405162461bcd60e51b81526004016100f19190611b16565b6040518061010001604052806008906020820280368337509192915050565b60405180608001604052806004906020820280368337509192915050565b60405180606001604052806003906020820280368337509192915050565b60405180604001604052806002906020820280368337509192915050565b80516117eb81611d3c565b92915050565b600060208284031215611802578081fd5b8151610cf881611d3c565b6000610100808385031215611820578182fd5b83601f84011261182e578182fd5b60405181810181811067ffffffffffffffff8211171561184c578384fd5b604052808483810187101561185f578485fd5b8493505b600884101561188b5761187687826117e0565b82526001939093019260209182019101611863565b509095945050505050565b6000602082840312156118a7578081fd5b81518015158114610cf8578182fd5b6000602082840312156118c7578081fd5b5051919050565b6000806000606084860312156118e2578182fd5b8335925060208401356118f481611d3c565b9150604084013561190481611d3c565b809150509250925092565b60008060008060008060c08789031215611927578182fd5b8635955060208701359450604087013561194081611d3c565b9350606087013561195081611d3c565b9250608087013561196081611d3c565b915060a087013561197081611d3c565b809150509295509295509295565b8060005b6002811015610d7b578151845260209384019390910190600101611982565b8060005b6003811015610d7b5781518452602093840193909101906001016119a5565b8060005b6004811015610d7b5781518452602093840193909101906001016119c8565b600082516119f9818460208701611d10565b9190910192915050565b6001600160a01b0391909116815260200190565b6001600160a01b0392831681529116602082015260400190565b6001600160a01b039384168152919092166020820152604081019190915260600190565b6001600160a01b03929092168252602082015260400190565b60608101611a7c828561197e565b82151560408301529392505050565b60608101611a99828561197e565b8260408301529392505050565b60808101611ab482856119a1565b82151560608301529392505050565b60808101611ad182856119a1565b8260608301529392505050565b60a08101611aec82856119c4565b82151560808301529392505050565b60a08101611b0982856119c4565b8260808301529392505050565b6000602082528251806020840152611b35816040850160208701611d10565b601f01601f19169190910160400192915050565b6020808252600f908201526e151bdad95b881b9bdd08199bdd5b99608a1b604082015260600190565b6020808252601c908201527b125b9cdd59999a58da595b9d081d1bdad95b93dd5d08185b5bdd5b9d60221b604082015260600190565b6020808252601390820152720a8ded6cadce640c6c2dcdcdee840dac2e8c6d606b1b604082015260600190565b6020808252601d908201527f416464726573733a2063616c6c20746f206e6f6e2d636f6e7472616374000000604082015260600190565b6020808252602a908201527f5361666545524332303a204552433230206f7065726174696f6e20646964206e6040820152691bdd081cdd58d8d9595960b21b606082015260800190565b602080825260179082015276151bdad95b881b9bdd08199bdd5b99081a5b881c1bdbdb604a1b604082015260600190565b60208082526036908201527f5361666545524332303a20617070726f76652066726f6d206e6f6e2d7a65726f60408201527520746f206e6f6e2d7a65726f20616c6c6f77616e636560501b606082015260800190565b90815260200190565b918252600f0b602082015260400190565b928352600f9190910b6020830152604082015260600190565b60005b83811015611d2b578181015183820152602001611d13565b83811115610d7b5750506000910152565b6001600160a01b0381168114611d5157600080fd5b5056fea26469706673582212205afc0e72a7d6e0d3d261140ec6a74d8b2ccc8a4994df7c5de362cdddd66187b864736f6c634300060c0033",
  "linkReferences": {},
  "deployedLinkReferences": {}
}