{
  "_format": "hh-sol-artifact-1",
  "contractName": "CurveLPAdapter",
  "sourceName": "contracts/adapters/liquidity/CurveLPAdapter.sol",
  "abi": [
    {
      "inputs": [
        {
          "internalType": "address",
          "name": "addressProvider_",
          "type": "address"
        },
        {
          "internalType": "address",
          "name": "zapRegistry_",
          "type": "address"
        },
        {
          "internalType": "address",
          "name": "weth_",
          "type": "address"
        }
      ],
      "stateMutability": "nonpayable",
      "type": "constructor"
    },
    {
      "inputs": [],
      "name": "TRICRYPTO2",
      "outputs": [
        {
          "internalType": "address",
          "name": "",
          "type": "address"
        }
      ],
      "stateMutability": "view",
      "type": "function"
    },
    {
      "inputs": [],
      "name": "TRICRYPTO2_POOL",
      "outputs": [
        {
          "internalType": "address",
          "name": "",
          "type": "address"
        }
      ],
      "stateMutability": "view",
      "type": "function"
    },
    {
      "inputs": [],
      "name": "addressProvider",
      "outputs": [
        {
          "internalType": "contract ICurveAddressProvider",
          "name": "",
          "type": "address"
        }
      ],
      "stateMutability": "view",
      "type": "function"
    },
    {
      "inputs": [
        {
          "internalType": "uint256",
          "name": "amount",
          "type": "uint256"
        },
        {
          "internalType": "uint256",
          "name": "expected",
          "type": "uint256"
        },
        {
          "internalType": "address",
          "name": "tokenIn",
          "type": "address"
        },
        {
          "internalType": "address",
          "name": "tokenOut",
          "type": "address"
        },
        {
          "internalType": "address",
          "name": "from",
          "type": "address"
        },
        {
          "internalType": "address",
          "name": "to",
          "type": "address"
        }
      ],
      "name": "swap",
      "outputs": [],
      "stateMutability": "nonpayable",
      "type": "function"
    },
    {
      "inputs": [],
      "name": "weth",
      "outputs": [
        {
          "internalType": "address",
          "name": "",
          "type": "address"
        }
      ],
      "stateMutability": "view",
      "type": "function"
    },
    {
      "inputs": [],
      "name": "zapRegistry",
      "outputs": [
        {
          "internalType": "contract ICurveDepositZapRegistry",
          "name": "",
          "type": "address"
        }
      ],
      "stateMutability": "view",
      "type": "function"
    }
  ],
  "bytecode": "0x60e06040523480156200001157600080fd5b50604051620019b3380380620019b383398101604081905262000034916200005a565b6001600160601b0319606091821b811660805292811b831660a0521b1660c052620000c6565b6000806000606084860312156200006f578283fd5b83516200007c81620000ad565b60208501519093506200008f81620000ad565b6040850151909250620000a281620000ad565b809150509250925092565b6001600160a01b0381168114620000c357600080fd5b50565b60805160601c60a05160601c60c05160601c6118a86200010b600039806109ea5280610d715280610ecf525080610253528061098a5250806109c652506118a86000f3fe608060405234801561001057600080fd5b50600436106100725760003560e01c80633fc8cef3116100505780633fc8cef3146100b25780637bf14727146100ba578063bfefe235146100c257610072565b8063230f11c7146100775780632954018c1461008c5780633cfae174146100aa575b600080fd5b61008a610085366004611417565b6100ca565b005b610094610988565b6040516100a191906114a2565b60405180910390f35b6100946109ac565b6100946109c4565b6100946109e8565b610094610a0c565b826001600160a01b0316846001600160a01b031614156101055760405162461bcd60e51b81526004016100fc906116fa565b60405180910390fd5b6001600160a01b038216301461024f576040516370a0823160e01b81526000906001600160a01b038616906370a08231906101449030906004016114a2565b60206040518083038186803b15801561015c57600080fd5b505afa158015610170573d6000803e3d6000fd5b505050506040513d601f19601f8201168201806040525081019061019491906113ff565b90506101ab6001600160a01b03861684308a610a24565b6040516370a0823160e01b81526000906001600160a01b038716906370a08231906101da9030906004016114a2565b60206040518083038186803b1580156101f257600080fd5b505afa158015610206573d6000803e3d6000fd5b505050506040513d601f19601f8201168201806040525081019061022a91906113ff565b905081811161024b5760405162461bcd60e51b81526004016100fc906115e8565b0395505b60007f00000000000000000000000000000000000000000000000000000000000000006001600160a01b031663a262904b6040518163ffffffff1660e01b815260040160206040518083038186803b1580156102aa57600080fd5b505afa1580156102be573d6000803e3d6000fd5b505050506040513d601f19601f820116820180604052508101906102e2919061133a565b90506000816001600160a01b031663bdf475c3876040518263ffffffff1660e01b815260040161031291906114a2565b60206040518083038186803b15801561032a57600080fd5b505afa15801561033e573d6000803e3d6000fd5b505050506040513d601f19601f82011682018060405250810190610362919061133a565b90506000826001600160a01b031663bdf475c3876040518263ffffffff1660e01b815260040161039291906114a2565b60206040518083038186803b1580156103aa57600080fd5b505afa1580156103be573d6000803e3d6000fd5b505050506040513d601f19601f820116820180604052508101906103e2919061133a565b90506001600160a01b03821615801561040357506001600160a01b03811615155b1561049557610490898883866001600160a01b0316639ac90d3d866040518263ffffffff1660e01b815260040161043a91906114a2565b6101006040518083038186803b15801561045357600080fd5b505afa158015610467573d6000803e3d6000fd5b505050506040513d601f19601f8201168201806040525081019061048b9190611356565b610aaf565b6108b7565b6001600160a01b038216158015906104b457506001600160a01b038116155b156105425761049089888885876001600160a01b0316639ac90d3d886040518263ffffffff1660e01b81526004016104ec91906114a2565b6101006040518083038186803b15801561050557600080fd5b505afa158015610519573d6000803e3d6000fd5b505050506040513d601f19601f8201168201806040525081019061053d9190611356565b610d57565b6001600160a01b0382161580159061056257506001600160a01b03811615155b1561078b5760006105716112b0565b604051639ac90d3d60e01b81526001600160a01b03861690639ac90d3d9061059d9086906004016114a2565b6101006040518083038186803b1580156105b657600080fd5b505afa1580156105ca573d6000803e3d6000fd5b505050506040513d601f19601f820116820180604052508101906105ee9190611356565b905060005b600881101561065e57600082826008811061060a57fe5b60200201516001600160a01b031614156106235761065e565b896001600160a01b031682826008811061063957fe5b60200201516001600160a01b03161415610656576001925061065e565b6001016105f3565b508115610676576106718b8a8584610aaf565b610784565b60006106806112b0565b604051639ac90d3d60e01b81526001600160a01b03881690639ac90d3d906106ac9089906004016114a2565b6101006040518083038186803b1580156106c557600080fd5b505afa1580156106d9573d6000803e3d6000fd5b505050506040513d601f19601f820116820180604052508101906106fd9190611356565b905060005b600881101561076d57600082826008811061071957fe5b60200201516001600160a01b031614156107325761076d565b8a6001600160a01b031682826008811061074857fe5b60200201516001600160a01b03161415610765576001925061076d565b600101610702565b508115610781576107818d8c8c8985610d57565b50505b50506108b7565b6001600160a01b03871673c4ad29ba4b3c580e6d59105fff484999997675ff14806107d257506001600160a01b03861673c4ad29ba4b3c580e6d59105fff484999997675ff145b15610072576107df6112b0565b73dac17f958d2ee523a2206206994597c13d831ec78152732260fac5e5542a773aa44fbcfedf7c193bc2c599602082015273c02aaa39b223fe8d0a0e5c4f27ead9083c756cc2604082015273c4ad29ba4b3c580e6d59105fff484999997675ff6001600160a01b0389161415610870576108708a898973d51a44d3fae010294c616388b506acda1bfaae4685610d57565b6001600160a01b03871673c4ad29ba4b3c580e6d59105fff484999997675ff14156108b5576108b58a8973d51a44d3fae010294c616388b506acda1bfaae4684610aaf565b505b6040516370a0823160e01b81526000906001600160a01b038816906370a08231906108e69030906004016114a2565b60206040518083038186803b1580156108fe57600080fd5b505afa158015610912573d6000803e3d6000fd5b505050506040513d601f19601f8201168201806040525081019061093691906113ff565b9050888110156109585760405162461bcd60e51b81526004016100fc906116c3565b6001600160a01b038516301461097c5761097c6001600160a01b03881686836110c5565b50505050505050505050565b7f000000000000000000000000000000000000000000000000000000000000000081565b73c4ad29ba4b3c580e6d59105fff484999997675ff81565b7f000000000000000000000000000000000000000000000000000000000000000081565b7f000000000000000000000000000000000000000000000000000000000000000081565b73d51a44d3fae010294c616388b506acda1bfaae4681565b610aa9846323b872dd60e01b858585604051602401610a45939291906114d0565b60408051601f198184030181529190526020810180517bffffffffffffffffffffffffffffffffffffffffffffffffffffffff167fffffffff00000000000000000000000000000000000000000000000000000000909316929092179091526110e9565b50505050565b610ac36001600160a01b0384168386611178565b60006008815b6008811015610b32576000848260088110610ae057fe5b60200201516001600160a01b03161415610afc57809250610b32565b856001600160a01b0316848260088110610b1257fe5b60200201516001600160a01b03161415610b2a578091505b600101610ac9565b5060088110610b535760405162461bcd60e51b81526004016100fc9061161d565b8160041415610bdc57610b646112cf565b86818360048110610b7157fe5b602002015260405162a6cbcd60e21b81526001600160a01b0386169063029b2f3490610ba490849060009060040161157d565b600060405180830381600087803b158015610bbe57600080fd5b505af1158015610bd2573d6000803e3d6000fd5b5050505050610cb4565b8160031415610c2e57610bed6112ed565b86818360038110610bfa57fe5b6020020152604051634515cef360e01b81526001600160a01b03861690634515cef390610ba4908490600090600401611545565b8160021415610cb457610c3f61130b565b86818360028110610c4c57fe5b6020020152604051630b4c7e4d60e01b81526001600160a01b03861690630b4c7e4d90610c8090849060009060040161150d565b600060405180830381600087803b158015610c9a57600080fd5b505af1158015610cae573d6000803e3d6000fd5b50505050505b604051636eb1769f60e11b81526001600160a01b0386169063dd62ed3e90610ce290309088906004016114b6565b60206040518083038186803b158015610cfa57600080fd5b505afa158015610d0e573d6000803e3d6000fd5b505050506040513d601f19601f82011682018060405250810190610d3291906113ff565b15610d4f5760405162461bcd60e51b81526004016100fc906117d6565b505050505050565b60405163317d373560e01b81526000906001600160a01b037f0000000000000000000000000000000000000000000000000000000000000000169063317d373590610da69088906004016114a2565b60206040518083038186803b158015610dbe57600080fd5b505afa158015610dd2573d6000803e3d6000fd5b505050506040513d601f19601f82011682018060405250810190610df6919061133a565b90506001600160a01b038116610e095750815b6000805b6008811015610e8a576000848260088110610e2457fe5b60200201516001600160a01b03161415610e505760405162461bcd60e51b81526004016100fc9061179f565b856001600160a01b0316848260088110610e6657fe5b60200201516001600160a01b03161415610e8257809150610e8a565b600101610e0d565b506001600160a01b0382811690851614801590610eb557610eb56001600160a01b038816848a611178565b6040516391e2851f60e01b81526000906001600160a01b037f000000000000000000000000000000000000000000000000000000000000000016906391e2851f90610f049087906004016114a2565b60206040518083038186803b158015610f1c57600080fd5b505afa158015610f30573d6000803e3d6000fd5b505050506040513d601f19601f82011682018060405250810190610f5491906113ff565b905080610fc357604051630d2680e960e11b81526001600160a01b03851690631a4d01d290610f8c908c9087906001906004016117ff565b600060405180830381600087803b158015610fa657600080fd5b505af1158015610fba573d6000803e3d6000fd5b50505050611019565b80600114156110015760405163f1dc3cc960e01b81526001600160a01b0385169063f1dc3cc990610f8c908c90600f88900b90600190600401611818565b60405162461bcd60e51b81526004016100fc90611768565b81156110ba57604051636eb1769f60e11b81526001600160a01b0389169063dd62ed3e9061104d90309088906004016114b6565b60206040518083038186803b15801561106557600080fd5b505afa158015611079573d6000803e3d6000fd5b505050506040513d601f19601f8201168201806040525081019061109d91906113ff565b156110ba5760405162461bcd60e51b81526004016100fc906117d6565b505050505050505050565b6110e48363a9059cbb60e01b8484604051602401610a459291906114f4565b505050565b606061113e826040518060400160405280602081526020017f5361666545524332303a206c6f772d6c6576656c2063616c6c206661696c6564815250856001600160a01b03166111979092919063ffffffff16565b8051909150156110e4578080602001905181019061115c91906113df565b6110e45760405162461bcd60e51b81526004016100fc9061168c565b6110e48363095ea7b360e01b8484604051602401610a459291906114f4565b60606111a684846000856111b0565b90505b9392505050565b6060824710156111d25760405162461bcd60e51b81526004016100fc90611646565b6111db85611271565b6111f75760405162461bcd60e51b81526004016100fc90611731565b60006060866001600160a01b031685876040516112149190611486565b60006040518083038185875af1925050503d8060008114611251576040519150601f19603f3d011682016040523d82523d6000602084013e611256565b606091505b5091509150611266828286611277565b979650505050505050565b3b151590565b606083156112865750816111a9565b8251156112965782518084602001fd5b8160405162461bcd60e51b81526004016100fc91906115b5565b6040518061010001604052806008906020820280368337509192915050565b60405180608001604052806004906020820280368337509192915050565b60405180606001604052806003906020820280368337509192915050565b60405180604001604052806002906020820280368337509192915050565b80516113348161185a565b92915050565b60006020828403121561134b578081fd5b81516111a98161185a565b6000610100808385031215611369578182fd5b83601f840112611377578182fd5b60405181810181811067ffffffffffffffff82111715611395578384fd5b60405280848381018710156113a8578485fd5b8493505b60088410156113d4576113bf8782611329565b825260019390930192602091820191016113ac565b509095945050505050565b6000602082840312156113f0578081fd5b815180151581146111a9578182fd5b600060208284031215611410578081fd5b5051919050565b60008060008060008060c0878903121561142f578182fd5b863595506020870135945060408701356114488161185a565b935060608701356114588161185a565b925060808701356114688161185a565b915060a08701356114788161185a565b809150509295509295509295565b6000825161149881846020870161182e565b9190910192915050565b6001600160a01b0391909116815260200190565b6001600160a01b0392831681529116602082015260400190565b6001600160a01b039384168152919092166020820152604081019190915260600190565b6001600160a01b03929092168252602082015260400190565b60608101818460005b6002811015611535578151835260209283019290910190600101611516565b5050508260408301529392505050565b60808101818460005b600381101561156d57815183526020928301929091019060010161154e565b5050508260608301529392505050565b60a08101818460005b60048110156115a5578151835260209283019290910190600101611586565b5050508260808301529392505050565b60006020825282518060208401526115d481604085016020870161182e565b601f01601f19169190910160400192915050565b6020808252818101527f4e6f20746f6b656e73207472616e7366657272656420746f2061646170746572604082015260600190565b6020808252600f908201526e151bdad95b881b9bdd08199bdd5b99608a1b604082015260600190565b60208082526026908201527f416464726573733a20696e73756666696369656e742062616c616e636520666f6040820152651c8818d85b1b60d21b606082015260800190565b60208082526013908201527f5361666545524332303a20217375636365737300000000000000000000000000604082015260600190565b6020808252601c908201527f496e73756666696369656e7420746f6b656e4f757420616d6f756e7400000000604082015260600190565b60208082526013908201527f546f6b656e732063616e6e6f74206d6174636800000000000000000000000000604082015260600190565b6020808252601d908201527f416464726573733a2063616c6c20746f206e6f6e2d636f6e7472616374000000604082015260600190565b60208082526012908201527f556e6b6e6f776e20696e64657820747970650000000000000000000000000000604082015260600190565b60208082526017908201527f546f6b656e206e6f7420666f756e6420696e20706f6f6c000000000000000000604082015260600190565b6020808252600f908201526e0496e636f6d706c657465207377617608c1b604082015260600190565b928352600f9190910b6020830152604082015260600190565b9283526020830191909152604082015260600190565b60005b83811015611849578181015183820152602001611831565b83811115610aa95750506000910152565b6001600160a01b038116811461186f57600080fd5b5056fea264697066735822122023698ceb11064ec03d72c86044741906ba92b013d890a1fbbc9ff59e011843dd64736f6c634300060c0033",
  "linkReferences": {},
  "deployedLinkReferences": {}
}