{
  "contracts/libraries/Math.sol": {
    "Math": {
      "abi": [
        {
          "inputs": [],
          "name": "BONE",
          "outputs": [
            {
              "internalType": "uint256",
              "name": "",
              "type": "uint256"
            }
          ],
          "stateMutability": "view",
          "type": "function"
        },
        {
          "inputs": [],
          "name": "TWO_BONES",
          "outputs": [
            {
              "internalType": "uint256",
              "name": "",
              "type": "uint256"
            }
          ],
          "stateMutability": "view",
          "type": "function"
        }
      ],
      "evm": {
        "bytecode": {
          "linkReferences": {},
          "object": "60ae610024600b82828239805160001a607314601757fe5b30600052607381538281f3fe7300000000000000000000000000000000000000003014608060405260043610603d5760003560e01c8063aac5f33e146042578063c36596a614605a575b600080fd5b60486060565b60408051918252519081900360200190f35b6048606c565b671bc16d674ec8000081565b670de0b6b3a76400008156fea26469706673582212201427520f6493acc0a2afa089027a35bb97830b297dffa6df07513fe19f367bb464736f6c634300060c0033",
          "opcodes": "PUSH1 0xAE PUSH2 0x24 PUSH1 0xB DUP3 DUP3 DUP3 CODECOPY DUP1 MLOAD PUSH1 0x0 BYTE PUSH1 0x73 EQ PUSH1 0x17 JUMPI INVALID JUMPDEST ADDRESS PUSH1 0x0 MSTORE PUSH1 0x73 DUP2 MSTORE8 DUP3 DUP2 RETURN INVALID PUSH20 0x0 ADDRESS EQ PUSH1 0x80 PUSH1 0x40 MSTORE PUSH1 0x4 CALLDATASIZE LT PUSH1 0x3D JUMPI PUSH1 0x0 CALLDATALOAD PUSH1 0xE0 SHR DUP1 PUSH4 0xAAC5F33E EQ PUSH1 0x42 JUMPI DUP1 PUSH4 0xC36596A6 EQ PUSH1 0x5A JUMPI JUMPDEST PUSH1 0x0 DUP1 REVERT JUMPDEST PUSH1 0x48 PUSH1 0x60 JUMP JUMPDEST PUSH1 0x40 DUP1 MLOAD SWAP2 DUP3 MSTORE MLOAD SWAP1 DUP2 SWAP1 SUB PUSH1 0x20 ADD SWAP1 RETURN JUMPDEST PUSH1 0x48 PUSH1 0x6C JUMP JUMPDEST PUSH8 0x1BC16D674EC80000 DUP2 JUMP JUMPDEST PUSH8 0xDE0B6B3A7640000 DUP2 JUMP INVALID LOG2 PUSH5 0x6970667358 0x22 SLT KECCAK256 EQ 0x27 MSTORE 0xF PUSH5 0x93ACC0A2AF LOG0 DUP10 MUL PUSH27 0x35BB97830B297DFFA6DF07513FE19F367BB464736F6C634300060C STOP CALLER "
        },
        "methodIdentifiers": {
          "BONE()": "c36596a6",
          "TWO_BONES()": "aac5f33e"
        }
      }
    }
  }
}