{
  "contracts/test/weird_tokens/Upgradable.sol": {
    "Proxy": {
      "abi": [
        {
          "inputs": [
            {
              "internalType": "uint256",
              "name": "totalSupply",
              "type": "uint256"
            }
          ],
          "stateMutability": "nonpayable",
          "type": "constructor"
        },
        {
          "stateMutability": "payable",
          "type": "fallback"
        },
        {
          "inputs": [
            {
              "internalType": "address",
              "name": "usr",
              "type": "address"
            }
          ],
          "name": "give",
          "outputs": [],
          "stateMutability": "nonpayable",
          "type": "function"
        },
        {
          "inputs": [],
          "name": "implementation",
          "outputs": [
            {
              "internalType": "address",
              "name": "impl",
              "type": "address"
            }
          ],
          "stateMutability": "view",
          "type": "function"
        },
        {
          "inputs": [],
          "name": "owner",
          "outputs": [
            {
              "internalType": "address",
              "name": "usr",
              "type": "address"
            }
          ],
          "stateMutability": "view",
          "type": "function"
        },
        {
          "inputs": [
            {
              "internalType": "address",
              "name": "impl",
              "type": "address"
            }
          ],
          "name": "upgrade",
          "outputs": [],
          "stateMutability": "nonpayable",
          "type": "function"
        },
        {
          "stateMutability": "payable",
          "type": "receive"
        }
      ],
      "evm": {
        "bytecode": {
          "linkReferences": {},
          "object": "608060405234801561001057600080fd5b50604051610b42380380610b428339818101604052602081101561003357600080fd5b505161003e3361007d565b6100778160405161004e9061017e565b90815260405190819003602001906000f080158015610071573d6000803e3d6000fd5b506100eb565b5061018b565b61008561016b565b6001600160a01b0316336001600160a01b0316146100d9576040805162461bcd60e51b815260206004820152600c60248201526b1d5b985d5d1a1bdc9a5cd95960a21b604482015290519081900360640190fd5b600080516020610b2283398151915255565b6100f361016b565b6001600160a01b0316336001600160a01b031614610147576040805162461bcd60e51b815260206004820152600c60248201526b1d5b985d5d1a1bdc9a5cd95960a21b604482015290519081900360640190fd5b7f360894a13ba1a3210667c828492db98dca3e2076cc3735a920a3ca505d382bbc55565b600080516020610b228339815191525490565b610646806104dc83390190565b6103428061019a6000396000f3fe6080604052600436106100435760003560e01c80630900f010146101145780635c60da1b146101495780638da5cb5b1461017a578063bdf86a661461018f5761008a565b3661008a576040805162461bcd60e51b8152602060048201526012602482015271646f6e27742073656e64206d65204554482160701b604482015290519081900360640190fd5b60006100946101c2565b905060006060826001600160a01b03165a60003660405180838380828437604051920194506000935090915050808303818686f4925050503d80600081146100f8576040519150601f19603f3d011682016040523d82523d6000602084013e6100fd565b606091505b50915091508161010c57600080fd5b805160208201f35b34801561012057600080fd5b506101476004803603602081101561013757600080fd5b50356001600160a01b03166101e7565b005b34801561015557600080fd5b5061015e6101c2565b604080516001600160a01b039092168252519081900360200190f35b34801561018657600080fd5b5061015e610267565b34801561019b57600080fd5b50610147600480360360208110156101b257600080fd5b50356001600160a01b031661028c565b7f360894a13ba1a3210667c828492db98dca3e2076cc3735a920a3ca505d382bbc5490565b6101ef610267565b6001600160a01b0316336001600160a01b031614610243576040805162461bcd60e51b815260206004820152600c60248201526b1d5b985d5d1a1bdc9a5cd95960a21b604482015290519081900360640190fd5b7f360894a13ba1a3210667c828492db98dca3e2076cc3735a920a3ca505d382bbc55565b7fb53127684a568b3173ae13b9f8a6016e243e63b6e8ee1178d6a717850b5d61035490565b610294610267565b6001600160a01b0316336001600160a01b0316146102e8576040805162461bcd60e51b815260206004820152600c60248201526b1d5b985d5d1a1bdc9a5cd95960a21b604482015290519081900360640190fd5b7fb53127684a568b3173ae13b9f8a6016e243e63b6e8ee1178d6a717850b5d61035556fea26469706673582212204ae2768730f1f1b53931841322e685dd6673d46216d16ef5c417c265ee6b96a564736f6c634300060c003360806040526000805460ff1916601217905534801561001d57600080fd5b506040516106463803806106468339818101604052602081101561004057600080fd5b50516001819055336000818152600260209081526040808320859055805185815290517fddf252ad1be2c89b69c2b068fc378daa952ba7f163c4a11628f55a4df523b3ef929181900390910190a3506105a88061009e6000396000f3fe608060405234801561001057600080fd5b50600436106100835760003560e01c806306fdde0314610088578063095ea7b31461010557806318160ddd1461014557806323b872dd1461015f578063313ce5671461019557806370a08231146101b357806395d89b41146101d9578063a9059cbb146101e1578063dd62ed3e1461020d575b600080fd5b61009061023b565b6040805160208082528351818301528351919283929083019185019080838360005b838110156100ca5781810151838201526020016100b2565b50505050905090810190601f1680156100f75780820380516001836020036101000a031916815260200191505b509250505060405180910390f35b6101316004803603604081101561011b57600080fd5b506001600160a01b03813516906020013561025c565b604080519115158252519081900360200190f35b61014d6102c3565b60408051918252519081900360200190f35b6101316004803603606081101561017557600080fd5b506001600160a01b038135811691602081013590911690604001356102c9565b61019d6104e7565b6040805160ff9092168252519081900360200190f35b61014d600480360360208110156101c957600080fd5b50356001600160a01b03166104f0565b610090610502565b610131600480360360408110156101f757600080fd5b506001600160a01b038135169060200135610521565b61014d6004803603604081101561022357600080fd5b506001600160a01b0381358116916020013516610535565b604051806040016040528060058152602001642a37b5b2b760d91b81525081565b3360008181526003602090815260408083206001600160a01b038716808552908352818420869055815186815291519394909390927f8c5be1e5ebec7d5bd14f71427d1e84f3dd0314c0f7b2291e5b200ac8c7c3b925928290030190a35060015b92915050565b60015481565b6001600160a01b03831660009081526002602052604081205482111561032d576040805162461bcd60e51b8152602060048201526014602482015273696e73756666696369656e742d62616c616e636560601b604482015290519081900360640190fd5b6001600160a01b038416331480159061036b57506001600160a01b038416600090815260036020908152604080832033845290915290205460001914155b15610434576001600160a01b03841660009081526003602090815260408083203384529091529020548211156103e1576040805162461bcd60e51b8152602060048201526016602482015275696e73756666696369656e742d616c6c6f77616e636560501b604482015290519081900360640190fd5b6001600160a01b038416600090815260036020908152604080832033845290915290205461040f9083610552565b6001600160a01b03851660009081526003602090815260408083203384529091529020555b6001600160a01b0384166000908152600260205260409020546104579083610552565b6001600160a01b0380861660009081526002602052604080822093909355908516815220546104869083610562565b6001600160a01b0380851660008181526002602090815260409182902094909455805186815290519193928816927fddf252ad1be2c89b69c2b068fc378daa952ba7f163c4a11628f55a4df523b3ef92918290030190a35060019392505050565b60005460ff1681565b60026020526000908152604090205481565b604051806040016040528060038152602001622a25a760e91b81525081565b600061052e3384846102c9565b9392505050565b600360209081526000928352604080842090915290825290205481565b808203828111156102bd57600080fd5b808201828110156102bd57600080fdfea2646970667358221220ae8d43e2fd531c74c4ab0ed98ed83c9b82b639f87b246f543c48aa503b545a9164736f6c634300060c0033b53127684a568b3173ae13b9f8a6016e243e63b6e8ee1178d6a717850b5d6103",
          "opcodes": "PUSH1 0x80 PUSH1 0x40 MSTORE CALLVALUE DUP1 ISZERO PUSH2 0x10 JUMPI PUSH1 0x0 DUP1 REVERT JUMPDEST POP PUSH1 0x40 MLOAD PUSH2 0xB42 CODESIZE SUB DUP1 PUSH2 0xB42 DUP4 CODECOPY DUP2 DUP2 ADD PUSH1 0x40 MSTORE PUSH1 0x20 DUP2 LT ISZERO PUSH2 0x33 JUMPI PUSH1 0x0 DUP1 REVERT JUMPDEST POP MLOAD PUSH2 0x3E CALLER PUSH2 0x7D JUMP JUMPDEST PUSH2 0x77 DUP2 PUSH1 0x40 MLOAD PUSH2 0x4E SWAP1 PUSH2 0x17E JUMP JUMPDEST SWAP1 DUP2 MSTORE PUSH1 0x40 MLOAD SWAP1 DUP2 SWAP1 SUB PUSH1 0x20 ADD SWAP1 PUSH1 0x0 CREATE DUP1 ISZERO DUP1 ISZERO PUSH2 0x71 JUMPI RETURNDATASIZE PUSH1 0x0 DUP1 RETURNDATACOPY RETURNDATASIZE PUSH1 0x0 REVERT JUMPDEST POP PUSH2 0xEB JUMP JUMPDEST POP PUSH2 0x18B JUMP JUMPDEST PUSH2 0x85 PUSH2 0x16B JUMP JUMPDEST PUSH1 0x1 PUSH1 0x1 PUSH1 0xA0 SHL SUB AND CALLER PUSH1 0x1 PUSH1 0x1 PUSH1 0xA0 SHL SUB AND EQ PUSH2 0xD9 JUMPI PUSH1 0x40 DUP1 MLOAD PUSH3 0x461BCD PUSH1 0xE5 SHL DUP2 MSTORE PUSH1 0x20 PUSH1 0x4 DUP3 ADD MSTORE PUSH1 0xC PUSH1 0x24 DUP3 ADD MSTORE PUSH12 0x1D5B985D5D1A1BDC9A5CD959 PUSH1 0xA2 SHL PUSH1 0x44 DUP3 ADD MSTORE SWAP1 MLOAD SWAP1 DUP2 SWAP1 SUB PUSH1 0x64 ADD SWAP1 REVERT JUMPDEST PUSH1 0x0 DUP1 MLOAD PUSH1 0x20 PUSH2 0xB22 DUP4 CODECOPY DUP2 MLOAD SWAP2 MSTORE SSTORE JUMP JUMPDEST PUSH2 0xF3 PUSH2 0x16B JUMP JUMPDEST PUSH1 0x1 PUSH1 0x1 PUSH1 0xA0 SHL SUB AND CALLER PUSH1 0x1 PUSH1 0x1 PUSH1 0xA0 SHL SUB AND EQ PUSH2 0x147 JUMPI PUSH1 0x40 DUP1 MLOAD PUSH3 0x461BCD PUSH1 0xE5 SHL DUP2 MSTORE PUSH1 0x20 PUSH1 0x4 DUP3 ADD MSTORE PUSH1 0xC PUSH1 0x24 DUP3 ADD MSTORE PUSH12 0x1D5B985D5D1A1BDC9A5CD959 PUSH1 0xA2 SHL PUSH1 0x44 DUP3 ADD MSTORE SWAP1 MLOAD SWAP1 DUP2 SWAP1 SUB PUSH1 0x64 ADD SWAP1 REVERT JUMPDEST PUSH32 0x360894A13BA1A3210667C828492DB98DCA3E2076CC3735A920A3CA505D382BBC SSTORE JUMP JUMPDEST PUSH1 0x0 DUP1 MLOAD PUSH1 0x20 PUSH2 0xB22 DUP4 CODECOPY DUP2 MLOAD SWAP2 MSTORE SLOAD SWAP1 JUMP JUMPDEST PUSH2 0x646 DUP1 PUSH2 0x4DC DUP4 CODECOPY ADD SWAP1 JUMP JUMPDEST PUSH2 0x342 DUP1 PUSH2 0x19A PUSH1 0x0 CODECOPY PUSH1 0x0 RETURN INVALID PUSH1 0x80 PUSH1 0x40 MSTORE PUSH1 0x4 CALLDATASIZE LT PUSH2 0x43 JUMPI PUSH1 0x0 CALLDATALOAD PUSH1 0xE0 SHR DUP1 PUSH4 0x900F010 EQ PUSH2 0x114 JUMPI DUP1 PUSH4 0x5C60DA1B EQ PUSH2 0x149 JUMPI DUP1 PUSH4 0x8DA5CB5B EQ PUSH2 0x17A JUMPI DUP1 PUSH4 0xBDF86A66 EQ PUSH2 0x18F JUMPI PUSH2 0x8A JUMP JUMPDEST CALLDATASIZE PUSH2 0x8A JUMPI PUSH1 0x40 DUP1 MLOAD PUSH3 0x461BCD PUSH1 0xE5 SHL DUP2 MSTORE PUSH1 0x20 PUSH1 0x4 DUP3 ADD MSTORE PUSH1 0x12 PUSH1 0x24 DUP3 ADD MSTORE PUSH18 0x646F6E27742073656E64206D652045544821 PUSH1 0x70 SHL PUSH1 0x44 DUP3 ADD MSTORE SWAP1 MLOAD SWAP1 DUP2 SWAP1 SUB PUSH1 0x64 ADD SWAP1 REVERT JUMPDEST PUSH1 0x0 PUSH2 0x94 PUSH2 0x1C2 JUMP JUMPDEST SWAP1 POP PUSH1 0x0 PUSH1 0x60 DUP3 PUSH1 0x1 PUSH1 0x1 PUSH1 0xA0 SHL SUB AND GAS PUSH1 0x0 CALLDATASIZE PUSH1 0x40 MLOAD DUP1 DUP4 DUP4 DUP1 DUP3 DUP5 CALLDATACOPY PUSH1 0x40 MLOAD SWAP3 ADD SWAP5 POP PUSH1 0x0 SWAP4 POP SWAP1 SWAP2 POP POP DUP1 DUP4 SUB DUP2 DUP7 DUP7 DELEGATECALL SWAP3 POP POP POP RETURNDATASIZE DUP1 PUSH1 0x0 DUP2 EQ PUSH2 0xF8 JUMPI PUSH1 0x40 MLOAD SWAP2 POP PUSH1 0x1F NOT PUSH1 0x3F RETURNDATASIZE ADD AND DUP3 ADD PUSH1 0x40 MSTORE RETURNDATASIZE DUP3 MSTORE RETURNDATASIZE PUSH1 0x0 PUSH1 0x20 DUP5 ADD RETURNDATACOPY PUSH2 0xFD JUMP JUMPDEST PUSH1 0x60 SWAP2 POP JUMPDEST POP SWAP2 POP SWAP2 POP DUP2 PUSH2 0x10C JUMPI PUSH1 0x0 DUP1 REVERT JUMPDEST DUP1 MLOAD PUSH1 0x20 DUP3 ADD RETURN JUMPDEST CALLVALUE DUP1 ISZERO PUSH2 0x120 JUMPI PUSH1 0x0 DUP1 REVERT JUMPDEST POP PUSH2 0x147 PUSH1 0x4 DUP1 CALLDATASIZE SUB PUSH1 0x20 DUP2 LT ISZERO PUSH2 0x137 JUMPI PUSH1 0x0 DUP1 REVERT JUMPDEST POP CALLDATALOAD PUSH1 0x1 PUSH1 0x1 PUSH1 0xA0 SHL SUB AND PUSH2 0x1E7 JUMP JUMPDEST STOP JUMPDEST CALLVALUE DUP1 ISZERO PUSH2 0x155 JUMPI PUSH1 0x0 DUP1 REVERT JUMPDEST POP PUSH2 0x15E PUSH2 0x1C2 JUMP JUMPDEST PUSH1 0x40 DUP1 MLOAD PUSH1 0x1 PUSH1 0x1 PUSH1 0xA0 SHL SUB SWAP1 SWAP3 AND DUP3 MSTORE MLOAD SWAP1 DUP2 SWAP1 SUB PUSH1 0x20 ADD SWAP1 RETURN JUMPDEST CALLVALUE DUP1 ISZERO PUSH2 0x186 JUMPI PUSH1 0x0 DUP1 REVERT JUMPDEST POP PUSH2 0x15E PUSH2 0x267 JUMP JUMPDEST CALLVALUE DUP1 ISZERO PUSH2 0x19B JUMPI PUSH1 0x0 DUP1 REVERT JUMPDEST POP PUSH2 0x147 PUSH1 0x4 DUP1 CALLDATASIZE SUB PUSH1 0x20 DUP2 LT ISZERO PUSH2 0x1B2 JUMPI PUSH1 0x0 DUP1 REVERT JUMPDEST POP CALLDATALOAD PUSH1 0x1 PUSH1 0x1 PUSH1 0xA0 SHL SUB AND PUSH2 0x28C JUMP JUMPDEST PUSH32 0x360894A13BA1A3210667C828492DB98DCA3E2076CC3735A920A3CA505D382BBC SLOAD SWAP1 JUMP JUMPDEST PUSH2 0x1EF PUSH2 0x267 JUMP JUMPDEST PUSH1 0x1 PUSH1 0x1 PUSH1 0xA0 SHL SUB AND CALLER PUSH1 0x1 PUSH1 0x1 PUSH1 0xA0 SHL SUB AND EQ PUSH2 0x243 JUMPI PUSH1 0x40 DUP1 MLOAD PUSH3 0x461BCD PUSH1 0xE5 SHL DUP2 MSTORE PUSH1 0x20 PUSH1 0x4 DUP3 ADD MSTORE PUSH1 0xC PUSH1 0x24 DUP3 ADD MSTORE PUSH12 0x1D5B985D5D1A1BDC9A5CD959 PUSH1 0xA2 SHL PUSH1 0x44 DUP3 ADD MSTORE SWAP1 MLOAD SWAP1 DUP2 SWAP1 SUB PUSH1 0x64 ADD SWAP1 REVERT JUMPDEST PUSH32 0x360894A13BA1A3210667C828492DB98DCA3E2076CC3735A920A3CA505D382BBC SSTORE JUMP JUMPDEST PUSH32 0xB53127684A568B3173AE13B9F8A6016E243E63B6E8EE1178D6A717850B5D6103 SLOAD SWAP1 JUMP JUMPDEST PUSH2 0x294 PUSH2 0x267 JUMP JUMPDEST PUSH1 0x1 PUSH1 0x1 PUSH1 0xA0 SHL SUB AND CALLER PUSH1 0x1 PUSH1 0x1 PUSH1 0xA0 SHL SUB AND EQ PUSH2 0x2E8 JUMPI PUSH1 0x40 DUP1 MLOAD PUSH3 0x461BCD PUSH1 0xE5 SHL DUP2 MSTORE PUSH1 0x20 PUSH1 0x4 DUP3 ADD MSTORE PUSH1 0xC PUSH1 0x24 DUP3 ADD MSTORE PUSH12 0x1D5B985D5D1A1BDC9A5CD959 PUSH1 0xA2 SHL PUSH1 0x44 DUP3 ADD MSTORE SWAP1 MLOAD SWAP1 DUP2 SWAP1 SUB PUSH1 0x64 ADD SWAP1 REVERT JUMPDEST PUSH32 0xB53127684A568B3173AE13B9F8A6016E243E63B6E8EE1178D6A717850B5D6103 SSTORE JUMP INVALID LOG2 PUSH5 0x6970667358 0x22 SLT KECCAK256 0x4A 0xE2 PUSH23 0x8730F1F1B53931841322E685DD6673D46216D16EF5C417 0xC2 PUSH6 0xEE6B96A56473 PUSH16 0x6C634300060C00336080604052600080 SLOAD PUSH1 0xFF NOT AND PUSH1 0x12 OR SWAP1 SSTORE CALLVALUE DUP1 ISZERO PUSH2 0x1D JUMPI PUSH1 0x0 DUP1 REVERT JUMPDEST POP PUSH1 0x40 MLOAD PUSH2 0x646 CODESIZE SUB DUP1 PUSH2 0x646 DUP4 CODECOPY DUP2 DUP2 ADD PUSH1 0x40 MSTORE PUSH1 0x20 DUP2 LT ISZERO PUSH2 0x40 JUMPI PUSH1 0x0 DUP1 REVERT JUMPDEST POP MLOAD PUSH1 0x1 DUP2 SWAP1 SSTORE CALLER PUSH1 0x0 DUP2 DUP2 MSTORE PUSH1 0x2 PUSH1 0x20 SWAP1 DUP2 MSTORE PUSH1 0x40 DUP1 DUP4 KECCAK256 DUP6 SWAP1 SSTORE DUP1 MLOAD DUP6 DUP2 MSTORE SWAP1 MLOAD PUSH32 0xDDF252AD1BE2C89B69C2B068FC378DAA952BA7F163C4A11628F55A4DF523B3EF SWAP3 SWAP2 DUP2 SWAP1 SUB SWAP1 SWAP2 ADD SWAP1 LOG3 POP PUSH2 0x5A8 DUP1 PUSH2 0x9E PUSH1 0x0 CODECOPY PUSH1 0x0 RETURN INVALID PUSH1 0x80 PUSH1 0x40 MSTORE CALLVALUE DUP1 ISZERO PUSH2 0x10 JUMPI PUSH1 0x0 DUP1 REVERT JUMPDEST POP PUSH1 0x4 CALLDATASIZE LT PUSH2 0x83 JUMPI PUSH1 0x0 CALLDATALOAD PUSH1 0xE0 SHR DUP1 PUSH4 0x6FDDE03 EQ PUSH2 0x88 JUMPI DUP1 PUSH4 0x95EA7B3 EQ PUSH2 0x105 JUMPI DUP1 PUSH4 0x18160DDD EQ PUSH2 0x145 JUMPI DUP1 PUSH4 0x23B872DD EQ PUSH2 0x15F JUMPI DUP1 PUSH4 0x313CE567 EQ PUSH2 0x195 JUMPI DUP1 PUSH4 0x70A08231 EQ PUSH2 0x1B3 JUMPI DUP1 PUSH4 0x95D89B41 EQ PUSH2 0x1D9 JUMPI DUP1 PUSH4 0xA9059CBB EQ PUSH2 0x1E1 JUMPI DUP1 PUSH4 0xDD62ED3E EQ PUSH2 0x20D JUMPI JUMPDEST PUSH1 0x0 DUP1 REVERT JUMPDEST PUSH2 0x90 PUSH2 0x23B JUMP JUMPDEST PUSH1 0x40 DUP1 MLOAD PUSH1 0x20 DUP1 DUP3 MSTORE DUP4 MLOAD DUP2 DUP4 ADD MSTORE DUP4 MLOAD SWAP2 SWAP3 DUP4 SWAP3 SWAP1 DUP4 ADD SWAP2 DUP6 ADD SWAP1 DUP1 DUP4 DUP4 PUSH1 0x0 JUMPDEST DUP4 DUP2 LT ISZERO PUSH2 0xCA JUMPI DUP2 DUP2 ADD MLOAD DUP4 DUP3 ADD MSTORE PUSH1 0x20 ADD PUSH2 0xB2 JUMP JUMPDEST POP POP POP POP SWAP1 POP SWAP1 DUP2 ADD SWAP1 PUSH1 0x1F AND DUP1 ISZERO PUSH2 0xF7 JUMPI DUP1 DUP3 SUB DUP1 MLOAD PUSH1 0x1 DUP4 PUSH1 0x20 SUB PUSH2 0x100 EXP SUB NOT AND DUP2 MSTORE PUSH1 0x20 ADD SWAP2 POP JUMPDEST POP SWAP3 POP POP POP PUSH1 0x40 MLOAD DUP1 SWAP2 SUB SWAP1 RETURN JUMPDEST PUSH2 0x131 PUSH1 0x4 DUP1 CALLDATASIZE SUB PUSH1 0x40 DUP2 LT ISZERO PUSH2 0x11B JUMPI PUSH1 0x0 DUP1 REVERT JUMPDEST POP PUSH1 0x1 PUSH1 0x1 PUSH1 0xA0 SHL SUB DUP2 CALLDATALOAD AND SWAP1 PUSH1 0x20 ADD CALLDATALOAD PUSH2 0x25C JUMP JUMPDEST PUSH1 0x40 DUP1 MLOAD SWAP2 ISZERO ISZERO DUP3 MSTORE MLOAD SWAP1 DUP2 SWAP1 SUB PUSH1 0x20 ADD SWAP1 RETURN JUMPDEST PUSH2 0x14D PUSH2 0x2C3 JUMP JUMPDEST PUSH1 0x40 DUP1 MLOAD SWAP2 DUP3 MSTORE MLOAD SWAP1 DUP2 SWAP1 SUB PUSH1 0x20 ADD SWAP1 RETURN JUMPDEST PUSH2 0x131 PUSH1 0x4 DUP1 CALLDATASIZE SUB PUSH1 0x60 DUP2 LT ISZERO PUSH2 0x175 JUMPI PUSH1 0x0 DUP1 REVERT JUMPDEST POP PUSH1 0x1 PUSH1 0x1 PUSH1 0xA0 SHL SUB DUP2 CALLDATALOAD DUP2 AND SWAP2 PUSH1 0x20 DUP2 ADD CALLDATALOAD SWAP1 SWAP2 AND SWAP1 PUSH1 0x40 ADD CALLDATALOAD PUSH2 0x2C9 JUMP JUMPDEST PUSH2 0x19D PUSH2 0x4E7 JUMP JUMPDEST PUSH1 0x40 DUP1 MLOAD PUSH1 0xFF SWAP1 SWAP3 AND DUP3 MSTORE MLOAD SWAP1 DUP2 SWAP1 SUB PUSH1 0x20 ADD SWAP1 RETURN JUMPDEST PUSH2 0x14D PUSH1 0x4 DUP1 CALLDATASIZE SUB PUSH1 0x20 DUP2 LT ISZERO PUSH2 0x1C9 JUMPI PUSH1 0x0 DUP1 REVERT JUMPDEST POP CALLDATALOAD PUSH1 0x1 PUSH1 0x1 PUSH1 0xA0 SHL SUB AND PUSH2 0x4F0 JUMP JUMPDEST PUSH2 0x90 PUSH2 0x502 JUMP JUMPDEST PUSH2 0x131 PUSH1 0x4 DUP1 CALLDATASIZE SUB PUSH1 0x40 DUP2 LT ISZERO PUSH2 0x1F7 JUMPI PUSH1 0x0 DUP1 REVERT JUMPDEST POP PUSH1 0x1 PUSH1 0x1 PUSH1 0xA0 SHL SUB DUP2 CALLDATALOAD AND SWAP1 PUSH1 0x20 ADD CALLDATALOAD PUSH2 0x521 JUMP JUMPDEST PUSH2 0x14D PUSH1 0x4 DUP1 CALLDATASIZE SUB PUSH1 0x40 DUP2 LT ISZERO PUSH2 0x223 JUMPI PUSH1 0x0 DUP1 REVERT JUMPDEST POP PUSH1 0x1 PUSH1 0x1 PUSH1 0xA0 SHL SUB DUP2 CALLDATALOAD DUP2 AND SWAP2 PUSH1 0x20 ADD CALLDATALOAD AND PUSH2 0x535 JUMP JUMPDEST PUSH1 0x40 MLOAD DUP1 PUSH1 0x40 ADD PUSH1 0x40 MSTORE DUP1 PUSH1 0x5 DUP2 MSTORE PUSH1 0x20 ADD PUSH5 0x2A37B5B2B7 PUSH1 0xD9 SHL DUP2 MSTORE POP DUP2 JUMP JUMPDEST CALLER PUSH1 0x0 DUP2 DUP2 MSTORE PUSH1 0x3 PUSH1 0x20 SWAP1 DUP2 MSTORE PUSH1 0x40 DUP1 DUP4 KECCAK256 PUSH1 0x1 PUSH1 0x1 PUSH1 0xA0 SHL SUB DUP8 AND DUP1 DUP6 MSTORE SWAP1 DUP4 MSTORE DUP2 DUP5 KECCAK256 DUP7 SWAP1 SSTORE DUP2 MLOAD DUP7 DUP2 MSTORE SWAP2 MLOAD SWAP4 SWAP5 SWAP1 SWAP4 SWAP1 SWAP3 PUSH32 0x8C5BE1E5EBEC7D5BD14F71427D1E84F3DD0314C0F7B2291E5B200AC8C7C3B925 SWAP3 DUP3 SWAP1 SUB ADD SWAP1 LOG3 POP PUSH1 0x1 JUMPDEST SWAP3 SWAP2 POP POP JUMP JUMPDEST PUSH1 0x1 SLOAD DUP2 JUMP JUMPDEST PUSH1 0x1 PUSH1 0x1 PUSH1 0xA0 SHL SUB DUP4 AND PUSH1 0x0 SWAP1 DUP2 MSTORE PUSH1 0x2 PUSH1 0x20 MSTORE PUSH1 0x40 DUP2 KECCAK256 SLOAD DUP3 GT ISZERO PUSH2 0x32D JUMPI PUSH1 0x40 DUP1 MLOAD PUSH3 0x461BCD PUSH1 0xE5 SHL DUP2 MSTORE PUSH1 0x20 PUSH1 0x4 DUP3 ADD MSTORE PUSH1 0x14 PUSH1 0x24 DUP3 ADD MSTORE PUSH20 0x696E73756666696369656E742D62616C616E6365 PUSH1 0x60 SHL PUSH1 0x44 DUP3 ADD MSTORE SWAP1 MLOAD SWAP1 DUP2 SWAP1 SUB PUSH1 0x64 ADD SWAP1 REVERT JUMPDEST PUSH1 0x1 PUSH1 0x1 PUSH1 0xA0 SHL SUB DUP5 AND CALLER EQ DUP1 ISZERO SWAP1 PUSH2 0x36B JUMPI POP PUSH1 0x1 PUSH1 0x1 PUSH1 0xA0 SHL SUB DUP5 AND PUSH1 0x0 SWAP1 DUP2 MSTORE PUSH1 0x3 PUSH1 0x20 SWAP1 DUP2 MSTORE PUSH1 0x40 DUP1 DUP4 KECCAK256 CALLER DUP5 MSTORE SWAP1 SWAP2 MSTORE SWAP1 KECCAK256 SLOAD PUSH1 0x0 NOT EQ ISZERO JUMPDEST ISZERO PUSH2 0x434 JUMPI PUSH1 0x1 PUSH1 0x1 PUSH1 0xA0 SHL SUB DUP5 AND PUSH1 0x0 SWAP1 DUP2 MSTORE PUSH1 0x3 PUSH1 0x20 SWAP1 DUP2 MSTORE PUSH1 0x40 DUP1 DUP4 KECCAK256 CALLER DUP5 MSTORE SWAP1 SWAP2 MSTORE SWAP1 KECCAK256 SLOAD DUP3 GT ISZERO PUSH2 0x3E1 JUMPI PUSH1 0x40 DUP1 MLOAD PUSH3 0x461BCD PUSH1 0xE5 SHL DUP2 MSTORE PUSH1 0x20 PUSH1 0x4 DUP3 ADD MSTORE PUSH1 0x16 PUSH1 0x24 DUP3 ADD MSTORE PUSH22 0x696E73756666696369656E742D616C6C6F77616E6365 PUSH1 0x50 SHL PUSH1 0x44 DUP3 ADD MSTORE SWAP1 MLOAD SWAP1 DUP2 SWAP1 SUB PUSH1 0x64 ADD SWAP1 REVERT JUMPDEST PUSH1 0x1 PUSH1 0x1 PUSH1 0xA0 SHL SUB DUP5 AND PUSH1 0x0 SWAP1 DUP2 MSTORE PUSH1 0x3 PUSH1 0x20 SWAP1 DUP2 MSTORE PUSH1 0x40 DUP1 DUP4 KECCAK256 CALLER DUP5 MSTORE SWAP1 SWAP2 MSTORE SWAP1 KECCAK256 SLOAD PUSH2 0x40F SWAP1 DUP4 PUSH2 0x552 JUMP JUMPDEST PUSH1 0x1 PUSH1 0x1 PUSH1 0xA0 SHL SUB DUP6 AND PUSH1 0x0 SWAP1 DUP2 MSTORE PUSH1 0x3 PUSH1 0x20 SWAP1 DUP2 MSTORE PUSH1 0x40 DUP1 DUP4 KECCAK256 CALLER DUP5 MSTORE SWAP1 SWAP2 MSTORE SWAP1 KECCAK256 SSTORE JUMPDEST PUSH1 0x1 PUSH1 0x1 PUSH1 0xA0 SHL SUB DUP5 AND PUSH1 0x0 SWAP1 DUP2 MSTORE PUSH1 0x2 PUSH1 0x20 MSTORE PUSH1 0x40 SWAP1 KECCAK256 SLOAD PUSH2 0x457 SWAP1 DUP4 PUSH2 0x552 JUMP JUMPDEST PUSH1 0x1 PUSH1 0x1 PUSH1 0xA0 SHL SUB DUP1 DUP7 AND PUSH1 0x0 SWAP1 DUP2 MSTORE PUSH1 0x2 PUSH1 0x20 MSTORE PUSH1 0x40 DUP1 DUP3 KECCAK256 SWAP4 SWAP1 SWAP4 SSTORE SWAP1 DUP6 AND DUP2 MSTORE KECCAK256 SLOAD PUSH2 0x486 SWAP1 DUP4 PUSH2 0x562 JUMP JUMPDEST PUSH1 0x1 PUSH1 0x1 PUSH1 0xA0 SHL SUB DUP1 DUP6 AND PUSH1 0x0 DUP2 DUP2 MSTORE PUSH1 0x2 PUSH1 0x20 SWAP1 DUP2 MSTORE PUSH1 0x40 SWAP2 DUP3 SWAP1 KECCAK256 SWAP5 SWAP1 SWAP5 SSTORE DUP1 MLOAD DUP7 DUP2 MSTORE SWAP1 MLOAD SWAP2 SWAP4 SWAP3 DUP9 AND SWAP3 PUSH32 0xDDF252AD1BE2C89B69C2B068FC378DAA952BA7F163C4A11628F55A4DF523B3EF SWAP3 SWAP2 DUP3 SWAP1 SUB ADD SWAP1 LOG3 POP PUSH1 0x1 SWAP4 SWAP3 POP POP POP JUMP JUMPDEST PUSH1 0x0 SLOAD PUSH1 0xFF AND DUP2 JUMP JUMPDEST PUSH1 0x2 PUSH1 0x20 MSTORE PUSH1 0x0 SWAP1 DUP2 MSTORE PUSH1 0x40 SWAP1 KECCAK256 SLOAD DUP2 JUMP JUMPDEST PUSH1 0x40 MLOAD DUP1 PUSH1 0x40 ADD PUSH1 0x40 MSTORE DUP1 PUSH1 0x3 DUP2 MSTORE PUSH1 0x20 ADD PUSH3 0x2A25A7 PUSH1 0xE9 SHL DUP2 MSTORE POP DUP2 JUMP JUMPDEST PUSH1 0x0 PUSH2 0x52E CALLER DUP5 DUP5 PUSH2 0x2C9 JUMP JUMPDEST SWAP4 SWAP3 POP POP POP JUMP JUMPDEST PUSH1 0x3 PUSH1 0x20 SWAP1 DUP2 MSTORE PUSH1 0x0 SWAP3 DUP4 MSTORE PUSH1 0x40 DUP1 DUP5 KECCAK256 SWAP1 SWAP2 MSTORE SWAP1 DUP3 MSTORE SWAP1 KECCAK256 SLOAD DUP2 JUMP JUMPDEST DUP1 DUP3 SUB DUP3 DUP2 GT ISZERO PUSH2 0x2BD JUMPI PUSH1 0x0 DUP1 REVERT JUMPDEST DUP1 DUP3 ADD DUP3 DUP2 LT ISZERO PUSH2 0x2BD JUMPI PUSH1 0x0 DUP1 REVERT INVALID LOG2 PUSH5 0x6970667358 0x22 SLT KECCAK256 0xAE DUP14 NUMBER 0xE2 REVERT MSTORE8 SHR PUSH21 0xC4AB0ED98ED83C9B82B639F87B246F543C48AA503B SLOAD GAS SWAP2 PUSH5 0x736F6C6343 STOP MOD 0xC STOP CALLER 0xB5 BALANCE 0x27 PUSH9 0x4A568B3173AE13B9F8 0xA6 ADD PUSH15 0x243E63B6E8EE1178D6A717850B5D61 SUB "
        },
        "methodIdentifiers": {
          "give(address)": "bdf86a66",
          "implementation()": "5c60da1b",
          "owner()": "8da5cb5b",
          "upgrade(address)": "0900f010"
        }
      }
    }
  }
}