{
  "contracts/helpers/AddressUtils.sol": {
    "AddressUtils": {
      "abi": [
        {
          "inputs": [],
          "name": "ZERO_ADDRESS",
          "outputs": [
            {
              "internalType": "string",
              "name": "",
              "type": "string"
            }
          ],
          "stateMutability": "view",
          "type": "function"
        }
      ],
      "evm": {
        "bytecode": {
          "linkReferences": {},
          "object": "608060405234801561001057600080fd5b50610104806100206000396000f3fe6080604052348015600f57600080fd5b506004361060285760003560e01c8063538ba4f914602d575b600080fd5b60686040518060400160405280601581526020017f5a65726f20616464726573732070726f7669646564000000000000000000000081525081565b60405160739190607c565b60405180910390f35b600060208083528351808285015260005b8181101560a757858101830151858201604001528201608d565b8181111560b8576000604083870101525b50601f01601f191692909201604001939250505056fea264697066735822122078408aee5fc57de8f542e84c06a31c63c83520d9a05c8d5f0b6d33707110fb4664736f6c634300080b0033",
          "opcodes": "PUSH1 0x80 PUSH1 0x40 MSTORE CALLVALUE DUP1 ISZERO PUSH2 0x10 JUMPI PUSH1 0x0 DUP1 REVERT JUMPDEST POP PUSH2 0x104 DUP1 PUSH2 0x20 PUSH1 0x0 CODECOPY PUSH1 0x0 RETURN INVALID PUSH1 0x80 PUSH1 0x40 MSTORE CALLVALUE DUP1 ISZERO PUSH1 0xF JUMPI PUSH1 0x0 DUP1 REVERT JUMPDEST POP PUSH1 0x4 CALLDATASIZE LT PUSH1 0x28 JUMPI PUSH1 0x0 CALLDATALOAD PUSH1 0xE0 SHR DUP1 PUSH4 0x538BA4F9 EQ PUSH1 0x2D JUMPI JUMPDEST PUSH1 0x0 DUP1 REVERT JUMPDEST PUSH1 0x68 PUSH1 0x40 MLOAD DUP1 PUSH1 0x40 ADD PUSH1 0x40 MSTORE DUP1 PUSH1 0x15 DUP2 MSTORE PUSH1 0x20 ADD PUSH32 0x5A65726F20616464726573732070726F76696465640000000000000000000000 DUP2 MSTORE POP DUP2 JUMP JUMPDEST PUSH1 0x40 MLOAD PUSH1 0x73 SWAP2 SWAP1 PUSH1 0x7C JUMP JUMPDEST PUSH1 0x40 MLOAD DUP1 SWAP2 SUB SWAP1 RETURN JUMPDEST PUSH1 0x0 PUSH1 0x20 DUP1 DUP4 MSTORE DUP4 MLOAD DUP1 DUP3 DUP6 ADD MSTORE PUSH1 0x0 JUMPDEST DUP2 DUP2 LT ISZERO PUSH1 0xA7 JUMPI DUP6 DUP2 ADD DUP4 ADD MLOAD DUP6 DUP3 ADD PUSH1 0x40 ADD MSTORE DUP3 ADD PUSH1 0x8D JUMP JUMPDEST DUP2 DUP2 GT ISZERO PUSH1 0xB8 JUMPI PUSH1 0x0 PUSH1 0x40 DUP4 DUP8 ADD ADD MSTORE JUMPDEST POP PUSH1 0x1F ADD PUSH1 0x1F NOT AND SWAP3 SWAP1 SWAP3 ADD PUSH1 0x40 ADD SWAP4 SWAP3 POP POP POP JUMP INVALID LOG2 PUSH5 0x6970667358 0x22 SLT KECCAK256 PUSH25 0x408AEE5FC57DE8F542E84C06A31C63C83520D9A05C8D5F0B6D CALLER PUSH17 0x7110FB4664736F6C634300080B00330000 "
        },
        "methodIdentifiers": {
          "ZERO_ADDRESS()": "538ba4f9"
        }
      }
    }
  }
}