{
  "@balancer-labs/core/contracts/BMath.sol": {
    "BMath": {
      "abi": [
        {
          "constant": true,
          "inputs": [],
          "name": "BONE",
          "outputs": [
            {
              "internalType": "uint256",
              "name": "",
              "type": "uint256"
            }
          ],
          "payable": false,
          "stateMutability": "view",
          "type": "function"
        },
        {
          "constant": true,
          "inputs": [],
          "name": "BPOW_PRECISION",
          "outputs": [
            {
              "internalType": "uint256",
              "name": "",
              "type": "uint256"
            }
          ],
          "payable": false,
          "stateMutability": "view",
          "type": "function"
        },
        {
          "constant": true,
          "inputs": [],
          "name": "EXIT_FEE",
          "outputs": [
            {
              "internalType": "uint256",
              "name": "",
              "type": "uint256"
            }
          ],
          "payable": false,
          "stateMutability": "view",
          "type": "function"
        },
        {
          "constant": true,
          "inputs": [],
          "name": "INIT_POOL_SUPPLY",
          "outputs": [
            {
              "internalType": "uint256",
              "name": "",
              "type": "uint256"
            }
          ],
          "payable": false,
          "stateMutability": "view",
          "type": "function"
        },
        {
          "constant": true,
          "inputs": [],
          "name": "MAX_BOUND_TOKENS",
          "outputs": [
            {
              "internalType": "uint256",
              "name": "",
              "type": "uint256"
            }
          ],
          "payable": false,
          "stateMutability": "view",
          "type": "function"
        },
        {
          "constant": true,
          "inputs": [],
          "name": "MAX_BPOW_BASE",
          "outputs": [
            {
              "internalType": "uint256",
              "name": "",
              "type": "uint256"
            }
          ],
          "payable": false,
          "stateMutability": "view",
          "type": "function"
        },
        {
          "constant": true,
          "inputs": [],
          "name": "MAX_FEE",
          "outputs": [
            {
              "internalType": "uint256",
              "name": "",
              "type": "uint256"
            }
          ],
          "payable": false,
          "stateMutability": "view",
          "type": "function"
        },
        {
          "constant": true,
          "inputs": [],
          "name": "MAX_IN_RATIO",
          "outputs": [
            {
              "internalType": "uint256",
              "name": "",
              "type": "uint256"
            }
          ],
          "payable": false,
          "stateMutability": "view",
          "type": "function"
        },
        {
          "constant": true,
          "inputs": [],
          "name": "MAX_OUT_RATIO",
          "outputs": [
            {
              "internalType": "uint256",
              "name": "",
              "type": "uint256"
            }
          ],
          "payable": false,
          "stateMutability": "view",
          "type": "function"
        },
        {
          "constant": true,
          "inputs": [],
          "name": "MAX_TOTAL_WEIGHT",
          "outputs": [
            {
              "internalType": "uint256",
              "name": "",
              "type": "uint256"
            }
          ],
          "payable": false,
          "stateMutability": "view",
          "type": "function"
        },
        {
          "constant": true,
          "inputs": [],
          "name": "MAX_WEIGHT",
          "outputs": [
            {
              "internalType": "uint256",
              "name": "",
              "type": "uint256"
            }
          ],
          "payable": false,
          "stateMutability": "view",
          "type": "function"
        },
        {
          "constant": true,
          "inputs": [],
          "name": "MIN_BALANCE",
          "outputs": [
            {
              "internalType": "uint256",
              "name": "",
              "type": "uint256"
            }
          ],
          "payable": false,
          "stateMutability": "view",
          "type": "function"
        },
        {
          "constant": true,
          "inputs": [],
          "name": "MIN_BOUND_TOKENS",
          "outputs": [
            {
              "internalType": "uint256",
              "name": "",
              "type": "uint256"
            }
          ],
          "payable": false,
          "stateMutability": "view",
          "type": "function"
        },
        {
          "constant": true,
          "inputs": [],
          "name": "MIN_BPOW_BASE",
          "outputs": [
            {
              "internalType": "uint256",
              "name": "",
              "type": "uint256"
            }
          ],
          "payable": false,
          "stateMutability": "view",
          "type": "function"
        },
        {
          "constant": true,
          "inputs": [],
          "name": "MIN_FEE",
          "outputs": [
            {
              "internalType": "uint256",
              "name": "",
              "type": "uint256"
            }
          ],
          "payable": false,
          "stateMutability": "view",
          "type": "function"
        },
        {
          "constant": true,
          "inputs": [],
          "name": "MIN_WEIGHT",
          "outputs": [
            {
              "internalType": "uint256",
              "name": "",
              "type": "uint256"
            }
          ],
          "payable": false,
          "stateMutability": "view",
          "type": "function"
        },
        {
          "constant": true,
          "inputs": [
            {
              "internalType": "uint256",
              "name": "tokenBalanceIn",
              "type": "uint256"
            },
            {
              "internalType": "uint256",
              "name": "tokenWeightIn",
              "type": "uint256"
            },
            {
              "internalType": "uint256",
              "name": "tokenBalanceOut",
              "type": "uint256"
            },
            {
              "internalType": "uint256",
              "name": "tokenWeightOut",
              "type": "uint256"
            },
            {
              "internalType": "uint256",
              "name": "tokenAmountOut",
              "type": "uint256"
            },
            {
              "internalType": "uint256",
              "name": "swapFee",
              "type": "uint256"
            }
          ],
          "name": "calcInGivenOut",
          "outputs": [
            {
              "internalType": "uint256",
              "name": "tokenAmountIn",
              "type": "uint256"
            }
          ],
          "payable": false,
          "stateMutability": "pure",
          "type": "function"
        },
        {
          "constant": true,
          "inputs": [
            {
              "internalType": "uint256",
              "name": "tokenBalanceIn",
              "type": "uint256"
            },
            {
              "internalType": "uint256",
              "name": "tokenWeightIn",
              "type": "uint256"
            },
            {
              "internalType": "uint256",
              "name": "tokenBalanceOut",
              "type": "uint256"
            },
            {
              "internalType": "uint256",
              "name": "tokenWeightOut",
              "type": "uint256"
            },
            {
              "internalType": "uint256",
              "name": "tokenAmountIn",
              "type": "uint256"
            },
            {
              "internalType": "uint256",
              "name": "swapFee",
              "type": "uint256"
            }
          ],
          "name": "calcOutGivenIn",
          "outputs": [
            {
              "internalType": "uint256",
              "name": "tokenAmountOut",
              "type": "uint256"
            }
          ],
          "payable": false,
          "stateMutability": "pure",
          "type": "function"
        },
        {
          "constant": true,
          "inputs": [
            {
              "internalType": "uint256",
              "name": "tokenBalanceOut",
              "type": "uint256"
            },
            {
              "internalType": "uint256",
              "name": "tokenWeightOut",
              "type": "uint256"
            },
            {
              "internalType": "uint256",
              "name": "poolSupply",
              "type": "uint256"
            },
            {
              "internalType": "uint256",
              "name": "totalWeight",
              "type": "uint256"
            },
            {
              "internalType": "uint256",
              "name": "tokenAmountOut",
              "type": "uint256"
            },
            {
              "internalType": "uint256",
              "name": "swapFee",
              "type": "uint256"
            }
          ],
          "name": "calcPoolInGivenSingleOut",
          "outputs": [
            {
              "internalType": "uint256",
              "name": "poolAmountIn",
              "type": "uint256"
            }
          ],
          "payable": false,
          "stateMutability": "pure",
          "type": "function"
        },
        {
          "constant": true,
          "inputs": [
            {
              "internalType": "uint256",
              "name": "tokenBalanceIn",
              "type": "uint256"
            },
            {
              "internalType": "uint256",
              "name": "tokenWeightIn",
              "type": "uint256"
            },
            {
              "internalType": "uint256",
              "name": "poolSupply",
              "type": "uint256"
            },
            {
              "internalType": "uint256",
              "name": "totalWeight",
              "type": "uint256"
            },
            {
              "internalType": "uint256",
              "name": "tokenAmountIn",
              "type": "uint256"
            },
            {
              "internalType": "uint256",
              "name": "swapFee",
              "type": "uint256"
            }
          ],
          "name": "calcPoolOutGivenSingleIn",
          "outputs": [
            {
              "internalType": "uint256",
              "name": "poolAmountOut",
              "type": "uint256"
            }
          ],
          "payable": false,
          "stateMutability": "pure",
          "type": "function"
        },
        {
          "constant": true,
          "inputs": [
            {
              "internalType": "uint256",
              "name": "tokenBalanceIn",
              "type": "uint256"
            },
            {
              "internalType": "uint256",
              "name": "tokenWeightIn",
              "type": "uint256"
            },
            {
              "internalType": "uint256",
              "name": "poolSupply",
              "type": "uint256"
            },
            {
              "internalType": "uint256",
              "name": "totalWeight",
              "type": "uint256"
            },
            {
              "internalType": "uint256",
              "name": "poolAmountOut",
              "type": "uint256"
            },
            {
              "internalType": "uint256",
              "name": "swapFee",
              "type": "uint256"
            }
          ],
          "name": "calcSingleInGivenPoolOut",
          "outputs": [
            {
              "internalType": "uint256",
              "name": "tokenAmountIn",
              "type": "uint256"
            }
          ],
          "payable": false,
          "stateMutability": "pure",
          "type": "function"
        },
        {
          "constant": true,
          "inputs": [
            {
              "internalType": "uint256",
              "name": "tokenBalanceOut",
              "type": "uint256"
            },
            {
              "internalType": "uint256",
              "name": "tokenWeightOut",
              "type": "uint256"
            },
            {
              "internalType": "uint256",
              "name": "poolSupply",
              "type": "uint256"
            },
            {
              "internalType": "uint256",
              "name": "totalWeight",
              "type": "uint256"
            },
            {
              "internalType": "uint256",
              "name": "poolAmountIn",
              "type": "uint256"
            },
            {
              "internalType": "uint256",
              "name": "swapFee",
              "type": "uint256"
            }
          ],
          "name": "calcSingleOutGivenPoolIn",
          "outputs": [
            {
              "internalType": "uint256",
              "name": "tokenAmountOut",
              "type": "uint256"
            }
          ],
          "payable": false,
          "stateMutability": "pure",
          "type": "function"
        },
        {
          "constant": true,
          "inputs": [
            {
              "internalType": "uint256",
              "name": "tokenBalanceIn",
              "type": "uint256"
            },
            {
              "internalType": "uint256",
              "name": "tokenWeightIn",
              "type": "uint256"
            },
            {
              "internalType": "uint256",
              "name": "tokenBalanceOut",
              "type": "uint256"
            },
            {
              "internalType": "uint256",
              "name": "tokenWeightOut",
              "type": "uint256"
            },
            {
              "internalType": "uint256",
              "name": "swapFee",
              "type": "uint256"
            }
          ],
          "name": "calcSpotPrice",
          "outputs": [
            {
              "internalType": "uint256",
              "name": "spotPrice",
              "type": "uint256"
            }
          ],
          "payable": false,
          "stateMutability": "pure",
          "type": "function"
        },
        {
          "constant": true,
          "inputs": [],
          "name": "getColor",
          "outputs": [
            {
              "internalType": "bytes32",
              "name": "",
              "type": "bytes32"
            }
          ],
          "payable": false,
          "stateMutability": "view",
          "type": "function"
        }
      ],
      "evm": {
        "bytecode": {
          "linkReferences": {},
          "object": "608060405234801561001057600080fd5b50610d8b806100206000396000f3fe608060405234801561001057600080fd5b50600436106101285760003560e01c806309a3bbe41461012d578063189d00ca14610147578063218b53821461014f5780635c1bbaf71461015757806376c7a3c71461019257806382f652ad1461019a5780638656b653146101d5578063867378c51461021057806389298012146102185780639381cd2b14610253578063992e2a921461025b5780639a86139b14610263578063a221ee491461026b578063b0e0d136146102a0578063b7b800a4146102a8578063ba019dab146102b0578063ba9530a6146102b8578063bc063e1a146102f3578063bc694ea2146102fb578063c36596a61461014f578063c6580d1214610303578063e4a28a521461012d578063ec0930211461030b578063f8d6aed414610313575b600080fd5b61013561034e565b60408051918252519081900360200190f35b61013561035b565b61013561036f565b610135600480360360c081101561016d57600080fd5b5080359060208101359060408101359060608101359060808101359060a0013561037b565b610135610433565b610135600480360360c08110156101b057600080fd5b5080359060208101359060408101359060608101359060808101359060a00135610445565b610135600480360360c08110156101eb57600080fd5b5080359060208101359060408101359060608101359060808101359060a00135610504565b6101356105a5565b610135600480360360c081101561022e57600080fd5b5080359060208101359060408101359060608101359060808101359060a001356105b9565b610135610669565b610135610676565b610135610682565b610135600480360360a081101561028157600080fd5b508035906020810135906040810135906060810135906080013561068f565b6101356106f4565b6101356106f9565b6101356106fe565b610135600480360360c08110156102ce57600080fd5b5080359060208101359060408101359060608101359060808101359060a00135610703565b610135610784565b610135610794565b6101356107a0565b6101356107a5565b610135600480360360c081101561032957600080fd5b5080359060208101359060408101359060608101359060808101359060a001356107b5565b6802b5e3af16b188000081565b6402540be400670de0b6b3a76400005b0481565b670de0b6b3a764000081565b6000806103888786610838565b90506000610396878661094d565b905060006103a48289610838565b905060006103ba670de0b6b3a764000085610838565b905060006103c883836109a1565b905060006103d6828e610aaf565b905060006103e4828f610b71565b905060006104036103fd670de0b6b3a76400008a610b71565b8b610aaf565b90506104208261041b670de0b6b3a764000084610b71565b610838565b9f9e505050505050505050505050505050565b620f4240670de0b6b3a764000061036b565b6000806104528786610838565b90506000610468670de0b6b3a764000083610b71565b905060006104768286610aaf565b905060006104908761041b670de0b6b3a764000085610b71565b9050600061049e8c83610b71565b905060006104ac828e610838565b905060006104ba82886109a1565b905060006104c8828e610aaf565b905060006104d68e83610b71565b90506104ef8161041b670de0b6b3a76400006000610b71565b99505050505050505050509695505050505050565b6000806105118786610838565b9050600061053061052a670de0b6b3a764000084610b71565b85610aaf565b9050600061054f8661054a670de0b6b3a764000085610b71565b610aaf565b9050600061055d8b8361094d565b9050600061056b828d610838565b9050600061057982876109a1565b90506000610587828d610aaf565b9050610593818d610b71565b9e9d5050505050505050505050505050565b64e8d4a51000670de0b6b3a764000061036b565b6000806105c68786610838565b905060006105e18561054a670de0b6b3a76400006000610b71565b905060006105ef8883610b71565b905060006105fd828a610838565b9050600061061c82610617670de0b6b3a764000088610838565b6109a1565b9050600061062a828e610aaf565b905060006106388e83610b71565b905060006106516103fd670de0b6b3a76400008a610b71565b90506104208261054a670de0b6b3a764000084610b71565b68056bc75e2d6310000081565b6704a03ce68d21555681565b6542524f4e5a4560d01b90565b60008061069c8787610838565b905060006106aa8686610838565b905060006106b88383610838565b905060006106da670de0b6b3a764000061041b670de0b6b3a764000089610b71565b90506106e68282610aaf565b9a9950505050505050505050565b600881565b600281565b600181565b6000806107108786610838565b90506000610726670de0b6b3a764000085610b71565b90506107328582610aaf565b905060006107448a61041b8c8561094d565b9050600061075282856109a1565b90506000610768670de0b6b3a764000083610b71565b90506107748a82610aaf565b9c9b505050505050505050505050565b600a670de0b6b3a764000061036b565b671bc16d674ec7ffff81565b600081565b6002670de0b6b3a764000061036b565b6000806107c28588610838565b905060006107d08786610b71565b905060006107de8883610838565b905060006107ec82856109a1565b905061080081670de0b6b3a7640000610b71565b9050610814670de0b6b3a764000087610b71565b94506108296108238c83610aaf565b86610838565b9b9a5050505050505050505050565b60008161087b576040805162461bcd60e51b815260206004820152600c60248201526b4552525f4449565f5a45524f60a01b604482015290519081900360640190fd5b670de0b6b3a764000083028315806108a35750670de0b6b3a76400008482816108a057fe5b04145b6108e7576040805162461bcd60e51b815260206004820152601060248201526f11549497d1125597d25395115493905360821b604482015290519081900360640190fd5b60028304810181811015610935576040805162461bcd60e51b815260206004820152601060248201526f11549497d1125597d25395115493905360821b604482015290519081900360640190fd5b600084828161094057fe5b0493505050505b92915050565b60008282018381101561099a576040805162461bcd60e51b815260206004820152601060248201526f4552525f4144445f4f564552464c4f5760801b604482015290519081900360640190fd5b9392505050565b600060018310156109f1576040805162461bcd60e51b81526020600482015260156024820152744552525f42504f575f424153455f544f4f5f4c4f5760581b604482015290519081900360640190fd5b671bc16d674ec7ffff831115610a47576040805162461bcd60e51b815260206004820152601660248201527508aa4a4be84a09eaebe8482a68abea89e9ebe90928e960531b604482015290519081900360640190fd5b6000610a5283610bd3565b90506000610a608483610b71565b90506000610a7686610a7185610bee565b610bfc565b905081610a87579250610947915050565b6000610a9887846305f5e100610c53565b9050610aa48282610aaf565b979650505050505050565b6000828202831580610ac9575082848281610ac657fe5b04145b610b0d576040805162461bcd60e51b815260206004820152601060248201526f4552525f4d554c5f4f564552464c4f5760801b604482015290519081900360640190fd5b6706f05b59d3b20000810181811015610b60576040805162461bcd60e51b815260206004820152601060248201526f4552525f4d554c5f4f564552464c4f5760801b604482015290519081900360640190fd5b6000670de0b6b3a764000082610940565b6000806000610b808585610d31565b915091508015610bcb576040805162461bcd60e51b81526020600482015260116024820152704552525f5355425f554e444552464c4f5760781b604482015290519081900360640190fd5b509392505050565b6000670de0b6b3a7640000610be783610bee565b0292915050565b670de0b6b3a7640000900490565b60008060028306610c1557670de0b6b3a7640000610c17565b835b90506002830492505b821561099a57610c308485610aaf565b93506002830615610c4857610c458185610aaf565b90505b600283049250610c20565b6000828180610c6a87670de0b6b3a7640000610d31565b9092509050670de0b6b3a764000080600060015b888410610d22576000670de0b6b3a764000082029050600080610cb28a610cad85670de0b6b3a7640000610b71565b610d31565b91509150610cc48761054a848c610aaf565b9650610cd08784610838565b965086610cdf57505050610d22565b8715610ce9579315935b8015610cf3579315935b8415610d0a57610d038688610b71565b9550610d17565b610d14868861094d565b95505b505050600101610c7e565b50909998505050505050505050565b600080828410610d475750508082036000610d4f565b505081810360015b925092905056fea265627a7a7231582003978125242cc823ba6066b56c68d8bdc9309552c37b56002524f398ee19b1cb64736f6c634300050c0032",
          "opcodes": "PUSH1 0x80 PUSH1 0x40 MSTORE CALLVALUE DUP1 ISZERO PUSH2 0x10 JUMPI PUSH1 0x0 DUP1 REVERT JUMPDEST POP PUSH2 0xD8B DUP1 PUSH2 0x20 PUSH1 0x0 CODECOPY PUSH1 0x0 RETURN INVALID PUSH1 0x80 PUSH1 0x40 MSTORE CALLVALUE DUP1 ISZERO PUSH2 0x10 JUMPI PUSH1 0x0 DUP1 REVERT JUMPDEST POP PUSH1 0x4 CALLDATASIZE LT PUSH2 0x128 JUMPI PUSH1 0x0 CALLDATALOAD PUSH1 0xE0 SHR DUP1 PUSH4 0x9A3BBE4 EQ PUSH2 0x12D JUMPI DUP1 PUSH4 0x189D00CA EQ PUSH2 0x147 JUMPI DUP1 PUSH4 0x218B5382 EQ PUSH2 0x14F JUMPI DUP1 PUSH4 0x5C1BBAF7 EQ PUSH2 0x157 JUMPI DUP1 PUSH4 0x76C7A3C7 EQ PUSH2 0x192 JUMPI DUP1 PUSH4 0x82F652AD EQ PUSH2 0x19A JUMPI DUP1 PUSH4 0x8656B653 EQ PUSH2 0x1D5 JUMPI DUP1 PUSH4 0x867378C5 EQ PUSH2 0x210 JUMPI DUP1 PUSH4 0x89298012 EQ PUSH2 0x218 JUMPI DUP1 PUSH4 0x9381CD2B EQ PUSH2 0x253 JUMPI DUP1 PUSH4 0x992E2A92 EQ PUSH2 0x25B JUMPI DUP1 PUSH4 0x9A86139B EQ PUSH2 0x263 JUMPI DUP1 PUSH4 0xA221EE49 EQ PUSH2 0x26B JUMPI DUP1 PUSH4 0xB0E0D136 EQ PUSH2 0x2A0 JUMPI DUP1 PUSH4 0xB7B800A4 EQ PUSH2 0x2A8 JUMPI DUP1 PUSH4 0xBA019DAB EQ PUSH2 0x2B0 JUMPI DUP1 PUSH4 0xBA9530A6 EQ PUSH2 0x2B8 JUMPI DUP1 PUSH4 0xBC063E1A EQ PUSH2 0x2F3 JUMPI DUP1 PUSH4 0xBC694EA2 EQ PUSH2 0x2FB JUMPI DUP1 PUSH4 0xC36596A6 EQ PUSH2 0x14F JUMPI DUP1 PUSH4 0xC6580D12 EQ PUSH2 0x303 JUMPI DUP1 PUSH4 0xE4A28A52 EQ PUSH2 0x12D JUMPI DUP1 PUSH4 0xEC093021 EQ PUSH2 0x30B JUMPI DUP1 PUSH4 0xF8D6AED4 EQ PUSH2 0x313 JUMPI JUMPDEST PUSH1 0x0 DUP1 REVERT JUMPDEST PUSH2 0x135 PUSH2 0x34E JUMP JUMPDEST PUSH1 0x40 DUP1 MLOAD SWAP2 DUP3 MSTORE MLOAD SWAP1 DUP2 SWAP1 SUB PUSH1 0x20 ADD SWAP1 RETURN JUMPDEST PUSH2 0x135 PUSH2 0x35B JUMP JUMPDEST PUSH2 0x135 PUSH2 0x36F JUMP JUMPDEST PUSH2 0x135 PUSH1 0x4 DUP1 CALLDATASIZE SUB PUSH1 0xC0 DUP2 LT ISZERO PUSH2 0x16D JUMPI PUSH1 0x0 DUP1 REVERT JUMPDEST POP DUP1 CALLDATALOAD SWAP1 PUSH1 0x20 DUP2 ADD CALLDATALOAD SWAP1 PUSH1 0x40 DUP2 ADD CALLDATALOAD SWAP1 PUSH1 0x60 DUP2 ADD CALLDATALOAD SWAP1 PUSH1 0x80 DUP2 ADD CALLDATALOAD SWAP1 PUSH1 0xA0 ADD CALLDATALOAD PUSH2 0x37B JUMP JUMPDEST PUSH2 0x135 PUSH2 0x433 JUMP JUMPDEST PUSH2 0x135 PUSH1 0x4 DUP1 CALLDATASIZE SUB PUSH1 0xC0 DUP2 LT ISZERO PUSH2 0x1B0 JUMPI PUSH1 0x0 DUP1 REVERT JUMPDEST POP DUP1 CALLDATALOAD SWAP1 PUSH1 0x20 DUP2 ADD CALLDATALOAD SWAP1 PUSH1 0x40 DUP2 ADD CALLDATALOAD SWAP1 PUSH1 0x60 DUP2 ADD CALLDATALOAD SWAP1 PUSH1 0x80 DUP2 ADD CALLDATALOAD SWAP1 PUSH1 0xA0 ADD CALLDATALOAD PUSH2 0x445 JUMP JUMPDEST PUSH2 0x135 PUSH1 0x4 DUP1 CALLDATASIZE SUB PUSH1 0xC0 DUP2 LT ISZERO PUSH2 0x1EB JUMPI PUSH1 0x0 DUP1 REVERT JUMPDEST POP DUP1 CALLDATALOAD SWAP1 PUSH1 0x20 DUP2 ADD CALLDATALOAD SWAP1 PUSH1 0x40 DUP2 ADD CALLDATALOAD SWAP1 PUSH1 0x60 DUP2 ADD CALLDATALOAD SWAP1 PUSH1 0x80 DUP2 ADD CALLDATALOAD SWAP1 PUSH1 0xA0 ADD CALLDATALOAD PUSH2 0x504 JUMP JUMPDEST PUSH2 0x135 PUSH2 0x5A5 JUMP JUMPDEST PUSH2 0x135 PUSH1 0x4 DUP1 CALLDATASIZE SUB PUSH1 0xC0 DUP2 LT ISZERO PUSH2 0x22E JUMPI PUSH1 0x0 DUP1 REVERT JUMPDEST POP DUP1 CALLDATALOAD SWAP1 PUSH1 0x20 DUP2 ADD CALLDATALOAD SWAP1 PUSH1 0x40 DUP2 ADD CALLDATALOAD SWAP1 PUSH1 0x60 DUP2 ADD CALLDATALOAD SWAP1 PUSH1 0x80 DUP2 ADD CALLDATALOAD SWAP1 PUSH1 0xA0 ADD CALLDATALOAD PUSH2 0x5B9 JUMP JUMPDEST PUSH2 0x135 PUSH2 0x669 JUMP JUMPDEST PUSH2 0x135 PUSH2 0x676 JUMP JUMPDEST PUSH2 0x135 PUSH2 0x682 JUMP JUMPDEST PUSH2 0x135 PUSH1 0x4 DUP1 CALLDATASIZE SUB PUSH1 0xA0 DUP2 LT ISZERO PUSH2 0x281 JUMPI PUSH1 0x0 DUP1 REVERT JUMPDEST POP DUP1 CALLDATALOAD SWAP1 PUSH1 0x20 DUP2 ADD CALLDATALOAD SWAP1 PUSH1 0x40 DUP2 ADD CALLDATALOAD SWAP1 PUSH1 0x60 DUP2 ADD CALLDATALOAD SWAP1 PUSH1 0x80 ADD CALLDATALOAD PUSH2 0x68F JUMP JUMPDEST PUSH2 0x135 PUSH2 0x6F4 JUMP JUMPDEST PUSH2 0x135 PUSH2 0x6F9 JUMP JUMPDEST PUSH2 0x135 PUSH2 0x6FE JUMP JUMPDEST PUSH2 0x135 PUSH1 0x4 DUP1 CALLDATASIZE SUB PUSH1 0xC0 DUP2 LT ISZERO PUSH2 0x2CE JUMPI PUSH1 0x0 DUP1 REVERT JUMPDEST POP DUP1 CALLDATALOAD SWAP1 PUSH1 0x20 DUP2 ADD CALLDATALOAD SWAP1 PUSH1 0x40 DUP2 ADD CALLDATALOAD SWAP1 PUSH1 0x60 DUP2 ADD CALLDATALOAD SWAP1 PUSH1 0x80 DUP2 ADD CALLDATALOAD SWAP1 PUSH1 0xA0 ADD CALLDATALOAD PUSH2 0x703 JUMP JUMPDEST PUSH2 0x135 PUSH2 0x784 JUMP JUMPDEST PUSH2 0x135 PUSH2 0x794 JUMP JUMPDEST PUSH2 0x135 PUSH2 0x7A0 JUMP JUMPDEST PUSH2 0x135 PUSH2 0x7A5 JUMP JUMPDEST PUSH2 0x135 PUSH1 0x4 DUP1 CALLDATASIZE SUB PUSH1 0xC0 DUP2 LT ISZERO PUSH2 0x329 JUMPI PUSH1 0x0 DUP1 REVERT JUMPDEST POP DUP1 CALLDATALOAD SWAP1 PUSH1 0x20 DUP2 ADD CALLDATALOAD SWAP1 PUSH1 0x40 DUP2 ADD CALLDATALOAD SWAP1 PUSH1 0x60 DUP2 ADD CALLDATALOAD SWAP1 PUSH1 0x80 DUP2 ADD CALLDATALOAD SWAP1 PUSH1 0xA0 ADD CALLDATALOAD PUSH2 0x7B5 JUMP JUMPDEST PUSH9 0x2B5E3AF16B1880000 DUP2 JUMP JUMPDEST PUSH5 0x2540BE400 PUSH8 0xDE0B6B3A7640000 JUMPDEST DIV DUP2 JUMP JUMPDEST PUSH8 0xDE0B6B3A7640000 DUP2 JUMP JUMPDEST PUSH1 0x0 DUP1 PUSH2 0x388 DUP8 DUP7 PUSH2 0x838 JUMP JUMPDEST SWAP1 POP PUSH1 0x0 PUSH2 0x396 DUP8 DUP7 PUSH2 0x94D JUMP JUMPDEST SWAP1 POP PUSH1 0x0 PUSH2 0x3A4 DUP3 DUP10 PUSH2 0x838 JUMP JUMPDEST SWAP1 POP PUSH1 0x0 PUSH2 0x3BA PUSH8 0xDE0B6B3A7640000 DUP6 PUSH2 0x838 JUMP JUMPDEST SWAP1 POP PUSH1 0x0 PUSH2 0x3C8 DUP4 DUP4 PUSH2 0x9A1 JUMP JUMPDEST SWAP1 POP PUSH1 0x0 PUSH2 0x3D6 DUP3 DUP15 PUSH2 0xAAF JUMP JUMPDEST SWAP1 POP PUSH1 0x0 PUSH2 0x3E4 DUP3 DUP16 PUSH2 0xB71 JUMP JUMPDEST SWAP1 POP PUSH1 0x0 PUSH2 0x403 PUSH2 0x3FD PUSH8 0xDE0B6B3A7640000 DUP11 PUSH2 0xB71 JUMP JUMPDEST DUP12 PUSH2 0xAAF JUMP JUMPDEST SWAP1 POP PUSH2 0x420 DUP3 PUSH2 0x41B PUSH8 0xDE0B6B3A7640000 DUP5 PUSH2 0xB71 JUMP JUMPDEST PUSH2 0x838 JUMP JUMPDEST SWAP16 SWAP15 POP POP POP POP POP POP POP POP POP POP POP POP POP POP POP JUMP JUMPDEST PUSH3 0xF4240 PUSH8 0xDE0B6B3A7640000 PUSH2 0x36B JUMP JUMPDEST PUSH1 0x0 DUP1 PUSH2 0x452 DUP8 DUP7 PUSH2 0x838 JUMP JUMPDEST SWAP1 POP PUSH1 0x0 PUSH2 0x468 PUSH8 0xDE0B6B3A7640000 DUP4 PUSH2 0xB71 JUMP JUMPDEST SWAP1 POP PUSH1 0x0 PUSH2 0x476 DUP3 DUP7 PUSH2 0xAAF JUMP JUMPDEST SWAP1 POP PUSH1 0x0 PUSH2 0x490 DUP8 PUSH2 0x41B PUSH8 0xDE0B6B3A7640000 DUP6 PUSH2 0xB71 JUMP JUMPDEST SWAP1 POP PUSH1 0x0 PUSH2 0x49E DUP13 DUP4 PUSH2 0xB71 JUMP JUMPDEST SWAP1 POP PUSH1 0x0 PUSH2 0x4AC DUP3 DUP15 PUSH2 0x838 JUMP JUMPDEST SWAP1 POP PUSH1 0x0 PUSH2 0x4BA DUP3 DUP9 PUSH2 0x9A1 JUMP JUMPDEST SWAP1 POP PUSH1 0x0 PUSH2 0x4C8 DUP3 DUP15 PUSH2 0xAAF JUMP JUMPDEST SWAP1 POP PUSH1 0x0 PUSH2 0x4D6 DUP15 DUP4 PUSH2 0xB71 JUMP JUMPDEST SWAP1 POP PUSH2 0x4EF DUP2 PUSH2 0x41B PUSH8 0xDE0B6B3A7640000 PUSH1 0x0 PUSH2 0xB71 JUMP JUMPDEST SWAP10 POP POP POP POP POP POP POP POP POP POP SWAP7 SWAP6 POP POP POP POP POP POP JUMP JUMPDEST PUSH1 0x0 DUP1 PUSH2 0x511 DUP8 DUP7 PUSH2 0x838 JUMP JUMPDEST SWAP1 POP PUSH1 0x0 PUSH2 0x530 PUSH2 0x52A PUSH8 0xDE0B6B3A7640000 DUP5 PUSH2 0xB71 JUMP JUMPDEST DUP6 PUSH2 0xAAF JUMP JUMPDEST SWAP1 POP PUSH1 0x0 PUSH2 0x54F DUP7 PUSH2 0x54A PUSH8 0xDE0B6B3A7640000 DUP6 PUSH2 0xB71 JUMP JUMPDEST PUSH2 0xAAF JUMP JUMPDEST SWAP1 POP PUSH1 0x0 PUSH2 0x55D DUP12 DUP4 PUSH2 0x94D JUMP JUMPDEST SWAP1 POP PUSH1 0x0 PUSH2 0x56B DUP3 DUP14 PUSH2 0x838 JUMP JUMPDEST SWAP1 POP PUSH1 0x0 PUSH2 0x579 DUP3 DUP8 PUSH2 0x9A1 JUMP JUMPDEST SWAP1 POP PUSH1 0x0 PUSH2 0x587 DUP3 DUP14 PUSH2 0xAAF JUMP JUMPDEST SWAP1 POP PUSH2 0x593 DUP2 DUP14 PUSH2 0xB71 JUMP JUMPDEST SWAP15 SWAP14 POP POP POP POP POP POP POP POP POP POP POP POP POP POP JUMP JUMPDEST PUSH5 0xE8D4A51000 PUSH8 0xDE0B6B3A7640000 PUSH2 0x36B JUMP JUMPDEST PUSH1 0x0 DUP1 PUSH2 0x5C6 DUP8 DUP7 PUSH2 0x838 JUMP JUMPDEST SWAP1 POP PUSH1 0x0 PUSH2 0x5E1 DUP6 PUSH2 0x54A PUSH8 0xDE0B6B3A7640000 PUSH1 0x0 PUSH2 0xB71 JUMP JUMPDEST SWAP1 POP PUSH1 0x0 PUSH2 0x5EF DUP9 DUP4 PUSH2 0xB71 JUMP JUMPDEST SWAP1 POP PUSH1 0x0 PUSH2 0x5FD DUP3 DUP11 PUSH2 0x838 JUMP JUMPDEST SWAP1 POP PUSH1 0x0 PUSH2 0x61C DUP3 PUSH2 0x617 PUSH8 0xDE0B6B3A7640000 DUP9 PUSH2 0x838 JUMP JUMPDEST PUSH2 0x9A1 JUMP JUMPDEST SWAP1 POP PUSH1 0x0 PUSH2 0x62A DUP3 DUP15 PUSH2 0xAAF JUMP JUMPDEST SWAP1 POP PUSH1 0x0 PUSH2 0x638 DUP15 DUP4 PUSH2 0xB71 JUMP JUMPDEST SWAP1 POP PUSH1 0x0 PUSH2 0x651 PUSH2 0x3FD PUSH8 0xDE0B6B3A7640000 DUP11 PUSH2 0xB71 JUMP JUMPDEST SWAP1 POP PUSH2 0x420 DUP3 PUSH2 0x54A PUSH8 0xDE0B6B3A7640000 DUP5 PUSH2 0xB71 JUMP JUMPDEST PUSH9 0x56BC75E2D63100000 DUP2 JUMP JUMPDEST PUSH8 0x4A03CE68D215556 DUP2 JUMP JUMPDEST PUSH6 0x42524F4E5A45 PUSH1 0xD0 SHL SWAP1 JUMP JUMPDEST PUSH1 0x0 DUP1 PUSH2 0x69C DUP8 DUP8 PUSH2 0x838 JUMP JUMPDEST SWAP1 POP PUSH1 0x0 PUSH2 0x6AA DUP7 DUP7 PUSH2 0x838 JUMP JUMPDEST SWAP1 POP PUSH1 0x0 PUSH2 0x6B8 DUP4 DUP4 PUSH2 0x838 JUMP JUMPDEST SWAP1 POP PUSH1 0x0 PUSH2 0x6DA PUSH8 0xDE0B6B3A7640000 PUSH2 0x41B PUSH8 0xDE0B6B3A7640000 DUP10 PUSH2 0xB71 JUMP JUMPDEST SWAP1 POP PUSH2 0x6E6 DUP3 DUP3 PUSH2 0xAAF JUMP JUMPDEST SWAP11 SWAP10 POP POP POP POP POP POP POP POP POP POP JUMP JUMPDEST PUSH1 0x8 DUP2 JUMP JUMPDEST PUSH1 0x2 DUP2 JUMP JUMPDEST PUSH1 0x1 DUP2 JUMP JUMPDEST PUSH1 0x0 DUP1 PUSH2 0x710 DUP8 DUP7 PUSH2 0x838 JUMP JUMPDEST SWAP1 POP PUSH1 0x0 PUSH2 0x726 PUSH8 0xDE0B6B3A7640000 DUP6 PUSH2 0xB71 JUMP JUMPDEST SWAP1 POP PUSH2 0x732 DUP6 DUP3 PUSH2 0xAAF JUMP JUMPDEST SWAP1 POP PUSH1 0x0 PUSH2 0x744 DUP11 PUSH2 0x41B DUP13 DUP6 PUSH2 0x94D JUMP JUMPDEST SWAP1 POP PUSH1 0x0 PUSH2 0x752 DUP3 DUP6 PUSH2 0x9A1 JUMP JUMPDEST SWAP1 POP PUSH1 0x0 PUSH2 0x768 PUSH8 0xDE0B6B3A7640000 DUP4 PUSH2 0xB71 JUMP JUMPDEST SWAP1 POP PUSH2 0x774 DUP11 DUP3 PUSH2 0xAAF JUMP JUMPDEST SWAP13 SWAP12 POP POP POP POP POP POP POP POP POP POP POP POP JUMP JUMPDEST PUSH1 0xA PUSH8 0xDE0B6B3A7640000 PUSH2 0x36B JUMP JUMPDEST PUSH8 0x1BC16D674EC7FFFF DUP2 JUMP JUMPDEST PUSH1 0x0 DUP2 JUMP JUMPDEST PUSH1 0x2 PUSH8 0xDE0B6B3A7640000 PUSH2 0x36B JUMP JUMPDEST PUSH1 0x0 DUP1 PUSH2 0x7C2 DUP6 DUP9 PUSH2 0x838 JUMP JUMPDEST SWAP1 POP PUSH1 0x0 PUSH2 0x7D0 DUP8 DUP7 PUSH2 0xB71 JUMP JUMPDEST SWAP1 POP PUSH1 0x0 PUSH2 0x7DE DUP9 DUP4 PUSH2 0x838 JUMP JUMPDEST SWAP1 POP PUSH1 0x0 PUSH2 0x7EC DUP3 DUP6 PUSH2 0x9A1 JUMP JUMPDEST SWAP1 POP PUSH2 0x800 DUP2 PUSH8 0xDE0B6B3A7640000 PUSH2 0xB71 JUMP JUMPDEST SWAP1 POP PUSH2 0x814 PUSH8 0xDE0B6B3A7640000 DUP8 PUSH2 0xB71 JUMP JUMPDEST SWAP5 POP PUSH2 0x829 PUSH2 0x823 DUP13 DUP4 PUSH2 0xAAF JUMP JUMPDEST DUP7 PUSH2 0x838 JUMP JUMPDEST SWAP12 SWAP11 POP POP POP POP POP POP POP POP POP POP POP JUMP JUMPDEST PUSH1 0x0 DUP2 PUSH2 0x87B JUMPI PUSH1 0x40 DUP1 MLOAD PUSH3 0x461BCD PUSH1 0xE5 SHL DUP2 MSTORE PUSH1 0x20 PUSH1 0x4 DUP3 ADD MSTORE PUSH1 0xC PUSH1 0x24 DUP3 ADD MSTORE PUSH12 0x4552525F4449565F5A45524F PUSH1 0xA0 SHL PUSH1 0x44 DUP3 ADD MSTORE SWAP1 MLOAD SWAP1 DUP2 SWAP1 SUB PUSH1 0x64 ADD SWAP1 REVERT JUMPDEST PUSH8 0xDE0B6B3A7640000 DUP4 MUL DUP4 ISZERO DUP1 PUSH2 0x8A3 JUMPI POP PUSH8 0xDE0B6B3A7640000 DUP5 DUP3 DUP2 PUSH2 0x8A0 JUMPI INVALID JUMPDEST DIV EQ JUMPDEST PUSH2 0x8E7 JUMPI PUSH1 0x40 DUP1 MLOAD PUSH3 0x461BCD PUSH1 0xE5 SHL DUP2 MSTORE PUSH1 0x20 PUSH1 0x4 DUP3 ADD MSTORE PUSH1 0x10 PUSH1 0x24 DUP3 ADD MSTORE PUSH16 0x11549497D1125597D253951154939053 PUSH1 0x82 SHL PUSH1 0x44 DUP3 ADD MSTORE SWAP1 MLOAD SWAP1 DUP2 SWAP1 SUB PUSH1 0x64 ADD SWAP1 REVERT JUMPDEST PUSH1 0x2 DUP4 DIV DUP2 ADD DUP2 DUP2 LT ISZERO PUSH2 0x935 JUMPI PUSH1 0x40 DUP1 MLOAD PUSH3 0x461BCD PUSH1 0xE5 SHL DUP2 MSTORE PUSH1 0x20 PUSH1 0x4 DUP3 ADD MSTORE PUSH1 0x10 PUSH1 0x24 DUP3 ADD MSTORE PUSH16 0x11549497D1125597D253951154939053 PUSH1 0x82 SHL PUSH1 0x44 DUP3 ADD MSTORE SWAP1 MLOAD SWAP1 DUP2 SWAP1 SUB PUSH1 0x64 ADD SWAP1 REVERT JUMPDEST PUSH1 0x0 DUP5 DUP3 DUP2 PUSH2 0x940 JUMPI INVALID JUMPDEST DIV SWAP4 POP POP POP POP JUMPDEST SWAP3 SWAP2 POP POP JUMP JUMPDEST PUSH1 0x0 DUP3 DUP3 ADD DUP4 DUP2 LT ISZERO PUSH2 0x99A JUMPI PUSH1 0x40 DUP1 MLOAD PUSH3 0x461BCD PUSH1 0xE5 SHL DUP2 MSTORE PUSH1 0x20 PUSH1 0x4 DUP3 ADD MSTORE PUSH1 0x10 PUSH1 0x24 DUP3 ADD MSTORE PUSH16 0x4552525F4144445F4F564552464C4F57 PUSH1 0x80 SHL PUSH1 0x44 DUP3 ADD MSTORE SWAP1 MLOAD SWAP1 DUP2 SWAP1 SUB PUSH1 0x64 ADD SWAP1 REVERT JUMPDEST SWAP4 SWAP3 POP POP POP JUMP JUMPDEST PUSH1 0x0 PUSH1 0x1 DUP4 LT ISZERO PUSH2 0x9F1 JUMPI PUSH1 0x40 DUP1 MLOAD PUSH3 0x461BCD PUSH1 0xE5 SHL DUP2 MSTORE PUSH1 0x20 PUSH1 0x4 DUP3 ADD MSTORE PUSH1 0x15 PUSH1 0x24 DUP3 ADD MSTORE PUSH21 0x4552525F42504F575F424153455F544F4F5F4C4F57 PUSH1 0x58 SHL PUSH1 0x44 DUP3 ADD MSTORE SWAP1 MLOAD SWAP1 DUP2 SWAP1 SUB PUSH1 0x64 ADD SWAP1 REVERT JUMPDEST PUSH8 0x1BC16D674EC7FFFF DUP4 GT ISZERO PUSH2 0xA47 JUMPI PUSH1 0x40 DUP1 MLOAD PUSH3 0x461BCD PUSH1 0xE5 SHL DUP2 MSTORE PUSH1 0x20 PUSH1 0x4 DUP3 ADD MSTORE PUSH1 0x16 PUSH1 0x24 DUP3 ADD MSTORE PUSH22 0x8AA4A4BE84A09EAEBE8482A68ABEA89E9EBE90928E9 PUSH1 0x53 SHL PUSH1 0x44 DUP3 ADD MSTORE SWAP1 MLOAD SWAP1 DUP2 SWAP1 SUB PUSH1 0x64 ADD SWAP1 REVERT JUMPDEST PUSH1 0x0 PUSH2 0xA52 DUP4 PUSH2 0xBD3 JUMP JUMPDEST SWAP1 POP PUSH1 0x0 PUSH2 0xA60 DUP5 DUP4 PUSH2 0xB71 JUMP JUMPDEST SWAP1 POP PUSH1 0x0 PUSH2 0xA76 DUP7 PUSH2 0xA71 DUP6 PUSH2 0xBEE JUMP JUMPDEST PUSH2 0xBFC JUMP JUMPDEST SWAP1 POP DUP2 PUSH2 0xA87 JUMPI SWAP3 POP PUSH2 0x947 SWAP2 POP POP JUMP JUMPDEST PUSH1 0x0 PUSH2 0xA98 DUP8 DUP5 PUSH4 0x5F5E100 PUSH2 0xC53 JUMP JUMPDEST SWAP1 POP PUSH2 0xAA4 DUP3 DUP3 PUSH2 0xAAF JUMP JUMPDEST SWAP8 SWAP7 POP POP POP POP POP POP POP JUMP JUMPDEST PUSH1 0x0 DUP3 DUP3 MUL DUP4 ISZERO DUP1 PUSH2 0xAC9 JUMPI POP DUP3 DUP5 DUP3 DUP2 PUSH2 0xAC6 JUMPI INVALID JUMPDEST DIV EQ JUMPDEST PUSH2 0xB0D JUMPI PUSH1 0x40 DUP1 MLOAD PUSH3 0x461BCD PUSH1 0xE5 SHL DUP2 MSTORE PUSH1 0x20 PUSH1 0x4 DUP3 ADD MSTORE PUSH1 0x10 PUSH1 0x24 DUP3 ADD MSTORE PUSH16 0x4552525F4D554C5F4F564552464C4F57 PUSH1 0x80 SHL PUSH1 0x44 DUP3 ADD MSTORE SWAP1 MLOAD SWAP1 DUP2 SWAP1 SUB PUSH1 0x64 ADD SWAP1 REVERT JUMPDEST PUSH8 0x6F05B59D3B20000 DUP2 ADD DUP2 DUP2 LT ISZERO PUSH2 0xB60 JUMPI PUSH1 0x40 DUP1 MLOAD PUSH3 0x461BCD PUSH1 0xE5 SHL DUP2 MSTORE PUSH1 0x20 PUSH1 0x4 DUP3 ADD MSTORE PUSH1 0x10 PUSH1 0x24 DUP3 ADD MSTORE PUSH16 0x4552525F4D554C5F4F564552464C4F57 PUSH1 0x80 SHL PUSH1 0x44 DUP3 ADD MSTORE SWAP1 MLOAD SWAP1 DUP2 SWAP1 SUB PUSH1 0x64 ADD SWAP1 REVERT JUMPDEST PUSH1 0x0 PUSH8 0xDE0B6B3A7640000 DUP3 PUSH2 0x940 JUMP JUMPDEST PUSH1 0x0 DUP1 PUSH1 0x0 PUSH2 0xB80 DUP6 DUP6 PUSH2 0xD31 JUMP JUMPDEST SWAP2 POP SWAP2 POP DUP1 ISZERO PUSH2 0xBCB JUMPI PUSH1 0x40 DUP1 MLOAD PUSH3 0x461BCD PUSH1 0xE5 SHL DUP2 MSTORE PUSH1 0x20 PUSH1 0x4 DUP3 ADD MSTORE PUSH1 0x11 PUSH1 0x24 DUP3 ADD MSTORE PUSH17 0x4552525F5355425F554E444552464C4F57 PUSH1 0x78 SHL PUSH1 0x44 DUP3 ADD MSTORE SWAP1 MLOAD SWAP1 DUP2 SWAP1 SUB PUSH1 0x64 ADD SWAP1 REVERT JUMPDEST POP SWAP4 SWAP3 POP POP POP JUMP JUMPDEST PUSH1 0x0 PUSH8 0xDE0B6B3A7640000 PUSH2 0xBE7 DUP4 PUSH2 0xBEE JUMP JUMPDEST MUL SWAP3 SWAP2 POP POP JUMP JUMPDEST PUSH8 0xDE0B6B3A7640000 SWAP1 DIV SWAP1 JUMP JUMPDEST PUSH1 0x0 DUP1 PUSH1 0x2 DUP4 MOD PUSH2 0xC15 JUMPI PUSH8 0xDE0B6B3A7640000 PUSH2 0xC17 JUMP JUMPDEST DUP4 JUMPDEST SWAP1 POP PUSH1 0x2 DUP4 DIV SWAP3 POP JUMPDEST DUP3 ISZERO PUSH2 0x99A JUMPI PUSH2 0xC30 DUP5 DUP6 PUSH2 0xAAF JUMP JUMPDEST SWAP4 POP PUSH1 0x2 DUP4 MOD ISZERO PUSH2 0xC48 JUMPI PUSH2 0xC45 DUP2 DUP6 PUSH2 0xAAF JUMP JUMPDEST SWAP1 POP JUMPDEST PUSH1 0x2 DUP4 DIV SWAP3 POP PUSH2 0xC20 JUMP JUMPDEST PUSH1 0x0 DUP3 DUP2 DUP1 PUSH2 0xC6A DUP8 PUSH8 0xDE0B6B3A7640000 PUSH2 0xD31 JUMP JUMPDEST SWAP1 SWAP3 POP SWAP1 POP PUSH8 0xDE0B6B3A7640000 DUP1 PUSH1 0x0 PUSH1 0x1 JUMPDEST DUP9 DUP5 LT PUSH2 0xD22 JUMPI PUSH1 0x0 PUSH8 0xDE0B6B3A7640000 DUP3 MUL SWAP1 POP PUSH1 0x0 DUP1 PUSH2 0xCB2 DUP11 PUSH2 0xCAD DUP6 PUSH8 0xDE0B6B3A7640000 PUSH2 0xB71 JUMP JUMPDEST PUSH2 0xD31 JUMP JUMPDEST SWAP2 POP SWAP2 POP PUSH2 0xCC4 DUP8 PUSH2 0x54A DUP5 DUP13 PUSH2 0xAAF JUMP JUMPDEST SWAP7 POP PUSH2 0xCD0 DUP8 DUP5 PUSH2 0x838 JUMP JUMPDEST SWAP7 POP DUP7 PUSH2 0xCDF JUMPI POP POP POP PUSH2 0xD22 JUMP JUMPDEST DUP8 ISZERO PUSH2 0xCE9 JUMPI SWAP4 ISZERO SWAP4 JUMPDEST DUP1 ISZERO PUSH2 0xCF3 JUMPI SWAP4 ISZERO SWAP4 JUMPDEST DUP5 ISZERO PUSH2 0xD0A JUMPI PUSH2 0xD03 DUP7 DUP9 PUSH2 0xB71 JUMP JUMPDEST SWAP6 POP PUSH2 0xD17 JUMP JUMPDEST PUSH2 0xD14 DUP7 DUP9 PUSH2 0x94D JUMP JUMPDEST SWAP6 POP JUMPDEST POP POP POP PUSH1 0x1 ADD PUSH2 0xC7E JUMP JUMPDEST POP SWAP1 SWAP10 SWAP9 POP POP POP POP POP POP POP POP POP JUMP JUMPDEST PUSH1 0x0 DUP1 DUP3 DUP5 LT PUSH2 0xD47 JUMPI POP POP DUP1 DUP3 SUB PUSH1 0x0 PUSH2 0xD4F JUMP JUMPDEST POP POP DUP2 DUP2 SUB PUSH1 0x1 JUMPDEST SWAP3 POP SWAP3 SWAP1 POP JUMP INVALID LOG2 PUSH6 0x627A7A723158 KECCAK256 SUB SWAP8 DUP2 0x25 0x24 0x2c 0xc8 0x23 0xba PUSH1 0x66 0xb5 PUSH13 0x68D8BDC9309552C37B56002524 RETURN SWAP9 0xee NOT 0xb1 0xcb PUSH5 0x736F6C6343 STOP SDIV 0xc STOP ORIGIN "
        },
        "methodIdentifiers": {
          "BONE()": "c36596a6",
          "BPOW_PRECISION()": "189d00ca",
          "EXIT_FEE()": "c6580d12",
          "INIT_POOL_SUPPLY()": "9381cd2b",
          "MAX_BOUND_TOKENS()": "b0e0d136",
          "MAX_BPOW_BASE()": "bc694ea2",
          "MAX_FEE()": "bc063e1a",
          "MAX_IN_RATIO()": "ec093021",
          "MAX_OUT_RATIO()": "992e2a92",
          "MAX_TOTAL_WEIGHT()": "09a3bbe4",
          "MAX_WEIGHT()": "e4a28a52",
          "MIN_BALANCE()": "867378c5",
          "MIN_BOUND_TOKENS()": "b7b800a4",
          "MIN_BPOW_BASE()": "ba019dab",
          "MIN_FEE()": "76c7a3c7",
          "MIN_WEIGHT()": "218b5382",
          "calcInGivenOut(uint256,uint256,uint256,uint256,uint256,uint256)": "f8d6aed4",
          "calcOutGivenIn(uint256,uint256,uint256,uint256,uint256,uint256)": "ba9530a6",
          "calcPoolInGivenSingleOut(uint256,uint256,uint256,uint256,uint256,uint256)": "82f652ad",
          "calcPoolOutGivenSingleIn(uint256,uint256,uint256,uint256,uint256,uint256)": "8656b653",
          "calcSingleInGivenPoolOut(uint256,uint256,uint256,uint256,uint256,uint256)": "5c1bbaf7",
          "calcSingleOutGivenPoolIn(uint256,uint256,uint256,uint256,uint256,uint256)": "89298012",
          "calcSpotPrice(uint256,uint256,uint256,uint256,uint256)": "a221ee49",
          "getColor()": "9a86139b"
        }
      }
    }
  }
}