{
  "@balancer-labs/core/contracts/BColor.sol": {
    "BBronze": {
      "abi": [
        {
          "constant": true,
          "inputs": [],
          "name": "getColor",
          "outputs": [
            {
              "internalType": "bytes32",
              "name": "",
              "type": "bytes32"
            }
          ],
          "payable": false,
          "stateMutability": "view",
          "type": "function"
        }
      ],
      "evm": {
        "bytecode": {
          "linkReferences": {},
          "object": "6080604052348015600f57600080fd5b5060878061001e6000396000f3fe6080604052348015600f57600080fd5b506004361060285760003560e01c80639a86139b14602d575b600080fd5b60336045565b60408051918252519081900360200190f35b6542524f4e5a4560d01b9056fea265627a7a72315820c063bf4834f701ef0edba21c3bdde6253d6cc2a2d63f4765b48cb75177fc58ee64736f6c634300050c0032",
          "opcodes": "PUSH1 0x80 PUSH1 0x40 MSTORE CALLVALUE DUP1 ISZERO PUSH1 0xF JUMPI PUSH1 0x0 DUP1 REVERT JUMPDEST POP PUSH1 0x87 DUP1 PUSH2 0x1E PUSH1 0x0 CODECOPY PUSH1 0x0 RETURN INVALID PUSH1 0x80 PUSH1 0x40 MSTORE CALLVALUE DUP1 ISZERO PUSH1 0xF JUMPI PUSH1 0x0 DUP1 REVERT JUMPDEST POP PUSH1 0x4 CALLDATASIZE LT PUSH1 0x28 JUMPI PUSH1 0x0 CALLDATALOAD PUSH1 0xE0 SHR DUP1 PUSH4 0x9A86139B EQ PUSH1 0x2D JUMPI JUMPDEST PUSH1 0x0 DUP1 REVERT JUMPDEST PUSH1 0x33 PUSH1 0x45 JUMP JUMPDEST PUSH1 0x40 DUP1 MLOAD SWAP2 DUP3 MSTORE MLOAD SWAP1 DUP2 SWAP1 SUB PUSH1 0x20 ADD SWAP1 RETURN JUMPDEST PUSH6 0x42524F4E5A45 PUSH1 0xD0 SHL SWAP1 JUMP INVALID LOG2 PUSH6 0x627A7A723158 KECCAK256 0xc0 PUSH4 0xBF4834F7 ADD 0xef 0xe 0xdb LOG2 SHR EXTCODESIZE 0xdd 0xe6 0x25 RETURNDATASIZE PUSH13 0xC2A2D63F4765B48CB75177FC58 0xee PUSH5 0x736F6C6343 STOP SDIV 0xc STOP ORIGIN "
        },
        "methodIdentifiers": {
          "getColor()": "9a86139b"
        }
      }
    }
  }
}