{
  "@balancer-labs/core/contracts/BConst.sol": {
    "BConst": {
      "abi": [
        {
          "constant": true,
          "inputs": [],
          "name": "BONE",
          "outputs": [
            {
              "internalType": "uint256",
              "name": "",
              "type": "uint256"
            }
          ],
          "payable": false,
          "stateMutability": "view",
          "type": "function"
        },
        {
          "constant": true,
          "inputs": [],
          "name": "BPOW_PRECISION",
          "outputs": [
            {
              "internalType": "uint256",
              "name": "",
              "type": "uint256"
            }
          ],
          "payable": false,
          "stateMutability": "view",
          "type": "function"
        },
        {
          "constant": true,
          "inputs": [],
          "name": "EXIT_FEE",
          "outputs": [
            {
              "internalType": "uint256",
              "name": "",
              "type": "uint256"
            }
          ],
          "payable": false,
          "stateMutability": "view",
          "type": "function"
        },
        {
          "constant": true,
          "inputs": [],
          "name": "INIT_POOL_SUPPLY",
          "outputs": [
            {
              "internalType": "uint256",
              "name": "",
              "type": "uint256"
            }
          ],
          "payable": false,
          "stateMutability": "view",
          "type": "function"
        },
        {
          "constant": true,
          "inputs": [],
          "name": "MAX_BOUND_TOKENS",
          "outputs": [
            {
              "internalType": "uint256",
              "name": "",
              "type": "uint256"
            }
          ],
          "payable": false,
          "stateMutability": "view",
          "type": "function"
        },
        {
          "constant": true,
          "inputs": [],
          "name": "MAX_BPOW_BASE",
          "outputs": [
            {
              "internalType": "uint256",
              "name": "",
              "type": "uint256"
            }
          ],
          "payable": false,
          "stateMutability": "view",
          "type": "function"
        },
        {
          "constant": true,
          "inputs": [],
          "name": "MAX_FEE",
          "outputs": [
            {
              "internalType": "uint256",
              "name": "",
              "type": "uint256"
            }
          ],
          "payable": false,
          "stateMutability": "view",
          "type": "function"
        },
        {
          "constant": true,
          "inputs": [],
          "name": "MAX_IN_RATIO",
          "outputs": [
            {
              "internalType": "uint256",
              "name": "",
              "type": "uint256"
            }
          ],
          "payable": false,
          "stateMutability": "view",
          "type": "function"
        },
        {
          "constant": true,
          "inputs": [],
          "name": "MAX_OUT_RATIO",
          "outputs": [
            {
              "internalType": "uint256",
              "name": "",
              "type": "uint256"
            }
          ],
          "payable": false,
          "stateMutability": "view",
          "type": "function"
        },
        {
          "constant": true,
          "inputs": [],
          "name": "MAX_TOTAL_WEIGHT",
          "outputs": [
            {
              "internalType": "uint256",
              "name": "",
              "type": "uint256"
            }
          ],
          "payable": false,
          "stateMutability": "view",
          "type": "function"
        },
        {
          "constant": true,
          "inputs": [],
          "name": "MAX_WEIGHT",
          "outputs": [
            {
              "internalType": "uint256",
              "name": "",
              "type": "uint256"
            }
          ],
          "payable": false,
          "stateMutability": "view",
          "type": "function"
        },
        {
          "constant": true,
          "inputs": [],
          "name": "MIN_BALANCE",
          "outputs": [
            {
              "internalType": "uint256",
              "name": "",
              "type": "uint256"
            }
          ],
          "payable": false,
          "stateMutability": "view",
          "type": "function"
        },
        {
          "constant": true,
          "inputs": [],
          "name": "MIN_BOUND_TOKENS",
          "outputs": [
            {
              "internalType": "uint256",
              "name": "",
              "type": "uint256"
            }
          ],
          "payable": false,
          "stateMutability": "view",
          "type": "function"
        },
        {
          "constant": true,
          "inputs": [],
          "name": "MIN_BPOW_BASE",
          "outputs": [
            {
              "internalType": "uint256",
              "name": "",
              "type": "uint256"
            }
          ],
          "payable": false,
          "stateMutability": "view",
          "type": "function"
        },
        {
          "constant": true,
          "inputs": [],
          "name": "MIN_FEE",
          "outputs": [
            {
              "internalType": "uint256",
              "name": "",
              "type": "uint256"
            }
          ],
          "payable": false,
          "stateMutability": "view",
          "type": "function"
        },
        {
          "constant": true,
          "inputs": [],
          "name": "MIN_WEIGHT",
          "outputs": [
            {
              "internalType": "uint256",
              "name": "",
              "type": "uint256"
            }
          ],
          "payable": false,
          "stateMutability": "view",
          "type": "function"
        },
        {
          "constant": true,
          "inputs": [],
          "name": "getColor",
          "outputs": [
            {
              "internalType": "bytes32",
              "name": "",
              "type": "bytes32"
            }
          ],
          "payable": false,
          "stateMutability": "view",
          "type": "function"
        }
      ],
      "evm": {
        "bytecode": {
          "linkReferences": {},
          "object": "608060405234801561001057600080fd5b50610258806100206000396000f3fe608060405234801561001057600080fd5b50600436106100db5760003560e01c806309a3bbe4146100e0578063189d00ca146100fa578063218b53821461010257806376c7a3c71461010a578063867378c5146101125780639381cd2b1461011a578063992e2a92146101225780639a86139b1461012a578063b0e0d13614610132578063b7b800a41461013a578063ba019dab14610142578063bc063e1a1461014a578063bc694ea214610152578063c36596a614610102578063c6580d121461015a578063e4a28a52146100e0578063ec09302114610162575b600080fd5b6100e861016a565b60408051918252519081900360200190f35b6100e8610177565b6100e861018b565b6100e8610197565b6100e86101a9565b6100e86101bd565b6100e86101ca565b6100e86101d6565b6100e86101e3565b6100e86101e8565b6100e86101ed565b6100e86101f2565b6100e8610202565b6100e861020e565b6100e8610213565b6802b5e3af16b188000081565b6402540be400670de0b6b3a76400005b0481565b670de0b6b3a764000081565b620f4240670de0b6b3a7640000610187565b64e8d4a51000670de0b6b3a7640000610187565b68056bc75e2d6310000081565b6704a03ce68d21555681565b6542524f4e5a4560d01b90565b600881565b600281565b600181565b600a670de0b6b3a7640000610187565b671bc16d674ec7ffff81565b600081565b6002670de0b6b3a764000061018756fea265627a7a72315820269621bf79d0f4a1799a5365672030d4fe4dbcf423b11b06e0f0cc9415cd097b64736f6c634300050c0032",
          "opcodes": "PUSH1 0x80 PUSH1 0x40 MSTORE CALLVALUE DUP1 ISZERO PUSH2 0x10 JUMPI PUSH1 0x0 DUP1 REVERT JUMPDEST POP PUSH2 0x258 DUP1 PUSH2 0x20 PUSH1 0x0 CODECOPY PUSH1 0x0 RETURN INVALID PUSH1 0x80 PUSH1 0x40 MSTORE CALLVALUE DUP1 ISZERO PUSH2 0x10 JUMPI PUSH1 0x0 DUP1 REVERT JUMPDEST POP PUSH1 0x4 CALLDATASIZE LT PUSH2 0xDB JUMPI PUSH1 0x0 CALLDATALOAD PUSH1 0xE0 SHR DUP1 PUSH4 0x9A3BBE4 EQ PUSH2 0xE0 JUMPI DUP1 PUSH4 0x189D00CA EQ PUSH2 0xFA JUMPI DUP1 PUSH4 0x218B5382 EQ PUSH2 0x102 JUMPI DUP1 PUSH4 0x76C7A3C7 EQ PUSH2 0x10A JUMPI DUP1 PUSH4 0x867378C5 EQ PUSH2 0x112 JUMPI DUP1 PUSH4 0x9381CD2B EQ PUSH2 0x11A JUMPI DUP1 PUSH4 0x992E2A92 EQ PUSH2 0x122 JUMPI DUP1 PUSH4 0x9A86139B EQ PUSH2 0x12A JUMPI DUP1 PUSH4 0xB0E0D136 EQ PUSH2 0x132 JUMPI DUP1 PUSH4 0xB7B800A4 EQ PUSH2 0x13A JUMPI DUP1 PUSH4 0xBA019DAB EQ PUSH2 0x142 JUMPI DUP1 PUSH4 0xBC063E1A EQ PUSH2 0x14A JUMPI DUP1 PUSH4 0xBC694EA2 EQ PUSH2 0x152 JUMPI DUP1 PUSH4 0xC36596A6 EQ PUSH2 0x102 JUMPI DUP1 PUSH4 0xC6580D12 EQ PUSH2 0x15A JUMPI DUP1 PUSH4 0xE4A28A52 EQ PUSH2 0xE0 JUMPI DUP1 PUSH4 0xEC093021 EQ PUSH2 0x162 JUMPI JUMPDEST PUSH1 0x0 DUP1 REVERT JUMPDEST PUSH2 0xE8 PUSH2 0x16A JUMP JUMPDEST PUSH1 0x40 DUP1 MLOAD SWAP2 DUP3 MSTORE MLOAD SWAP1 DUP2 SWAP1 SUB PUSH1 0x20 ADD SWAP1 RETURN JUMPDEST PUSH2 0xE8 PUSH2 0x177 JUMP JUMPDEST PUSH2 0xE8 PUSH2 0x18B JUMP JUMPDEST PUSH2 0xE8 PUSH2 0x197 JUMP JUMPDEST PUSH2 0xE8 PUSH2 0x1A9 JUMP JUMPDEST PUSH2 0xE8 PUSH2 0x1BD JUMP JUMPDEST PUSH2 0xE8 PUSH2 0x1CA JUMP JUMPDEST PUSH2 0xE8 PUSH2 0x1D6 JUMP JUMPDEST PUSH2 0xE8 PUSH2 0x1E3 JUMP JUMPDEST PUSH2 0xE8 PUSH2 0x1E8 JUMP JUMPDEST PUSH2 0xE8 PUSH2 0x1ED JUMP JUMPDEST PUSH2 0xE8 PUSH2 0x1F2 JUMP JUMPDEST PUSH2 0xE8 PUSH2 0x202 JUMP JUMPDEST PUSH2 0xE8 PUSH2 0x20E JUMP JUMPDEST PUSH2 0xE8 PUSH2 0x213 JUMP JUMPDEST PUSH9 0x2B5E3AF16B1880000 DUP2 JUMP JUMPDEST PUSH5 0x2540BE400 PUSH8 0xDE0B6B3A7640000 JUMPDEST DIV DUP2 JUMP JUMPDEST PUSH8 0xDE0B6B3A7640000 DUP2 JUMP JUMPDEST PUSH3 0xF4240 PUSH8 0xDE0B6B3A7640000 PUSH2 0x187 JUMP JUMPDEST PUSH5 0xE8D4A51000 PUSH8 0xDE0B6B3A7640000 PUSH2 0x187 JUMP JUMPDEST PUSH9 0x56BC75E2D63100000 DUP2 JUMP JUMPDEST PUSH8 0x4A03CE68D215556 DUP2 JUMP JUMPDEST PUSH6 0x42524F4E5A45 PUSH1 0xD0 SHL SWAP1 JUMP JUMPDEST PUSH1 0x8 DUP2 JUMP JUMPDEST PUSH1 0x2 DUP2 JUMP JUMPDEST PUSH1 0x1 DUP2 JUMP JUMPDEST PUSH1 0xA PUSH8 0xDE0B6B3A7640000 PUSH2 0x187 JUMP JUMPDEST PUSH8 0x1BC16D674EC7FFFF DUP2 JUMP JUMPDEST PUSH1 0x0 DUP2 JUMP JUMPDEST PUSH1 0x2 PUSH8 0xDE0B6B3A7640000 PUSH2 0x187 JUMP INVALID LOG2 PUSH6 0x627A7A723158 KECCAK256 0x26 SWAP7 0x21 0xbf PUSH26 0xD0F4A1799A5365672030D4FE4DBCF423B11B06E0F0CC9415CD09 PUSH28 0x64736F6C634300050C00320000000000000000000000000000000000 "
        },
        "methodIdentifiers": {
          "BONE()": "c36596a6",
          "BPOW_PRECISION()": "189d00ca",
          "EXIT_FEE()": "c6580d12",
          "INIT_POOL_SUPPLY()": "9381cd2b",
          "MAX_BOUND_TOKENS()": "b0e0d136",
          "MAX_BPOW_BASE()": "bc694ea2",
          "MAX_FEE()": "bc063e1a",
          "MAX_IN_RATIO()": "ec093021",
          "MAX_OUT_RATIO()": "992e2a92",
          "MAX_TOTAL_WEIGHT()": "09a3bbe4",
          "MAX_WEIGHT()": "e4a28a52",
          "MIN_BALANCE()": "867378c5",
          "MIN_BOUND_TOKENS()": "b7b800a4",
          "MIN_BPOW_BASE()": "ba019dab",
          "MIN_FEE()": "76c7a3c7",
          "MIN_WEIGHT()": "218b5382",
          "getColor()": "9a86139b"
        }
      }
    }
  }
}