{
    "_format": "hh-sol-artifact-1",
    "contractName": "YEarnV2Adapter",
    "sourceName": "contracts/adapters/vaults/YEarnV2Adapter.sol",
    "abi": [
        {
            "inputs": [
                {
                    "internalType": "address",
                    "name": "weth_",
                    "type": "address"
                }
            ],
            "stateMutability": "nonpayable",
            "type": "constructor"
        },
        {
            "inputs": [
                {
                    "internalType": "uint256",
                    "name": "amount",
                    "type": "uint256"
                },
                {
                    "internalType": "address",
                    "name": "tokenIn",
                    "type": "address"
                },
                {
                    "internalType": "address",
                    "name": "tokenOut",
                    "type": "address"
                }
            ],
            "name": "spotPrice",
            "outputs": [
                {
                    "internalType": "uint256",
                    "name": "",
                    "type": "uint256"
                }
            ],
            "stateMutability": "view",
            "type": "function"
        },
        {
            "inputs": [
                {
                    "internalType": "uint256",
                    "name": "amount",
                    "type": "uint256"
                },
                {
                    "internalType": "uint256",
                    "name": "expected",
                    "type": "uint256"
                },
                {
                    "internalType": "address",
                    "name": "tokenIn",
                    "type": "address"
                },
                {
                    "internalType": "address",
                    "name": "tokenOut",
                    "type": "address"
                },
                {
                    "internalType": "address",
                    "name": "from",
                    "type": "address"
                },
                {
                    "internalType": "address",
                    "name": "to",
                    "type": "address"
                }
            ],
            "name": "swap",
            "outputs": [],
            "stateMutability": "nonpayable",
            "type": "function"
        },
        {
            "inputs": [],
            "name": "weth",
            "outputs": [
                {
                    "internalType": "address",
                    "name": "",
                    "type": "address"
                }
            ],
            "stateMutability": "view",
            "type": "function"
        }
    ],
    "bytecode": "0x60a060405234801561001057600080fd5b50604051610fb8380380610fb883398101604081905261002f91610044565b60601b6001600160601b031916608052610072565b600060208284031215610055578081fd5b81516001600160a01b038116811461006b578182fd5b9392505050565b60805160601c610f2961008f600039806104345250610f296000f3fe608060405234801561001057600080fd5b50600436106100415760003560e01c8063230f11c7146100465780633fc8cef31461005b57806377ec159d14610079575b600080fd5b610059610054366004610baf565b610099565b005b610063610432565b6040516100709190610c5b565b60405180910390f35b61008c610087366004610b6e565b610456565b6040516100709190610e70565b826001600160a01b0316846001600160a01b031614156100d45760405162461bcd60e51b81526004016100cb90610dc2565b60405180910390fd5b6001600160a01b03821630146100f9576100f96001600160a01b0385168330896107be565b60006101048461081c565b156102b8576000849050856001600160a01b0316816001600160a01b031663fc0c546a6040518163ffffffff1660e01b815260040160206040518083038186803b15801561015157600080fd5b505afa158015610165573d6000803e3d6000fd5b505050506040513d601f19601f820116820180604052508101906101899190610b3a565b6001600160a01b0316146101af5760405162461bcd60e51b81526004016100cb90610cdf565b60405163095ea7b360e01b81526001600160a01b0387169063095ea7b3906101dd9088908c90600401610c93565b602060405180830381600087803b1580156101f757600080fd5b505af115801561020b573d6000803e3d6000fd5b505050506040513d601f19601f8201168201806040525081019061022f9190610b1a565b50604051636e553f6560e01b81526001600160a01b03821690636e553f659061025e908b903090600401610e79565b602060405180830381600087803b15801561027857600080fd5b505af115801561028c573d6000803e3d6000fd5b505050506040513d601f19601f820116820180604052508101906102b09190610b56565b9150506103e5565b6000859050846001600160a01b0316816001600160a01b031663fc0c546a6040518163ffffffff1660e01b815260040160206040518083038186803b15801561030057600080fd5b505afa158015610314573d6000803e3d6000fd5b505050506040513d601f19601f820116820180604052508101906103389190610b3a565b6001600160a01b03161461035e5760405162461bcd60e51b81526004016100cb90610cdf565b604051631cc6d2f960e31b81526001600160a01b0382169063e63697c89061038f908b903090600190600401610e90565b602060405180830381600087803b1580156103a957600080fd5b505af11580156103bd573d6000803e3d6000fd5b505050506040513d601f19601f820116820180604052508101906103e19190610b56565b9150505b858110156104055760405162461bcd60e51b81526004016100cb90610d4b565b6001600160a01b0382163014610429576104296001600160a01b0385168383610897565b50505050505050565b7f000000000000000000000000000000000000000000000000000000000000000081565b6000816001600160a01b0316836001600160a01b031614156104795750826107b7565b6104828261081c565b1561061f576000829050836001600160a01b0316816001600160a01b031663fc0c546a6040518163ffffffff1660e01b815260040160206040518083038186803b1580156104cf57600080fd5b505afa1580156104e3573d6000803e3d6000fd5b505050506040513d601f19601f820116820180604052508101906105079190610b3a565b6001600160a01b0316141561061957610611816001600160a01b03166399530b066040518163ffffffff1660e01b815260040160206040518083038186803b15801561055257600080fd5b505afa158015610566573d6000803e3d6000fd5b505050506040513d601f19601f8201168201806040525081019061058a9190610b56565b61060b866001600160a01b031663313ce5676040518163ffffffff1660e01b815260040160206040518083038186803b1580156105c657600080fd5b505afa1580156105da573d6000803e3d6000fd5b505050506040513d601f19601f820116820180604052508101906105fe9190610c1e565b889060ff16600a0a6108bb565b906108fe565b9150506107b7565b506107b3565b6106288361081c565b156107b3576000839050826001600160a01b0316816001600160a01b031663fc0c546a6040518163ffffffff1660e01b815260040160206040518083038186803b15801561067557600080fd5b505afa158015610689573d6000803e3d6000fd5b505050506040513d601f19601f820116820180604052508101906106ad9190610b3a565b6001600160a01b031614156107b157610611836001600160a01b031663313ce5676040518163ffffffff1660e01b815260040160206040518083038186803b1580156106f857600080fd5b505afa15801561070c573d6000803e3d6000fd5b505050506040513d601f19601f820116820180604052508101906107309190610c1e565b60ff16600a0a61060b836001600160a01b03166399530b066040518163ffffffff1660e01b815260040160206040518083038186803b15801561077257600080fd5b505afa158015610786573d6000803e3d6000fd5b505050506040513d601f19601f820116820180604052508101906107aa9190610b56565b88906108bb565b505b5060005b9392505050565b610816846323b872dd60e01b8585856040516024016107df93929190610c6f565b60408051601f198184030181529190526020810180516001600160e01b03166001600160e01b03199093169290921790915261093d565b50505050565b6000807ffc0c546a8dce9d6e9b97c086302918c9106d97a17809f6bcacfe02124763cb3990506000806040516020810160405283815260208160048389612328fa9250805191505081801561087957506001600160a01b03811615155b1561088a5760019350505050610892565b600093505050505b919050565b6108b68363a9059cbb60e01b84846040516024016107df929190610c93565b505050565b6000826108ca575060006108f8565b828202828482816108d757fe5b04146108f55760405162461bcd60e51b81526004016100cb90610d81565b90505b92915050565b60006108f583836040518060400160405280601a815260200179536166654d6174683a206469766973696f6e206279207a65726f60301b8152506109cc565b6060610992826040518060400160405280602081526020017f5361666545524332303a206c6f772d6c6576656c2063616c6c206661696c6564815250856001600160a01b0316610a039092919063ffffffff16565b8051909150156108b657808060200190518101906109b09190610b1a565b6108b65760405162461bcd60e51b81526004016100cb90610e26565b600081836109ed5760405162461bcd60e51b81526004016100cb9190610cac565b5060008385816109f957fe5b0495945050505050565b6060610a128484600085610a1a565b949350505050565b606082471015610a3c5760405162461bcd60e51b81526004016100cb90610d05565b610a4585610adb565b610a615760405162461bcd60e51b81526004016100cb90610def565b60006060866001600160a01b03168587604051610a7e9190610c3f565b60006040518083038185875af1925050503d8060008114610abb576040519150601f19603f3d011682016040523d82523d6000602084013e610ac0565b606091505b5091509150610ad0828286610ae1565b979650505050505050565b3b151590565b60608315610af05750816107b7565b825115610b005782518084602001fd5b8160405162461bcd60e51b81526004016100cb9190610cac565b600060208284031215610b2b578081fd5b815180151581146108f5578182fd5b600060208284031215610b4b578081fd5b81516108f581610edb565b600060208284031215610b67578081fd5b5051919050565b600080600060608486031215610b82578182fd5b833592506020840135610b9481610edb565b91506040840135610ba481610edb565b809150509250925092565b60008060008060008060c08789031215610bc7578182fd5b86359550602087013594506040870135610be081610edb565b93506060870135610bf081610edb565b92506080870135610c0081610edb565b915060a0870135610c1081610edb565b809150509295509295509295565b600060208284031215610c2f578081fd5b815160ff811681146108f5578182fd5b60008251610c51818460208701610eaf565b9190910192915050565b6001600160a01b0391909116815260200190565b6001600160a01b039384168152919092166020820152604081019190915260600190565b6001600160a01b03929092168252602082015260400190565b6000602082528251806020840152610ccb816040850160208701610eaf565b601f01601f19169190910160400192915050565b6020808252600c908201526b496e636f6d70617469626c6560a01b604082015260600190565b60208082526026908201527f416464726573733a20696e73756666696369656e742062616c616e636520666f6040820152651c8818d85b1b60d21b606082015260800190565b6020808252601c908201527b125b9cdd59999a58da595b9d081d1bdad95b93dd5d08185b5bdd5b9d60221b604082015260600190565b60208082526021908201527f536166654d6174683a206d756c7469706c69636174696f6e206f766572666c6f6040820152607760f81b606082015260800190565b6020808252601390820152720a8ded6cadce640c6c2dcdcdee840dac2e8c6d606b1b604082015260600190565b6020808252601d908201527f416464726573733a2063616c6c20746f206e6f6e2d636f6e7472616374000000604082015260600190565b6020808252602a908201527f5361666545524332303a204552433230206f7065726174696f6e20646964206e6040820152691bdd081cdd58d8d9595960b21b606082015260800190565b90815260200190565b9182526001600160a01b0316602082015260400190565b9283526001600160a01b03919091166020830152604082015260600190565b60005b83811015610eca578181015183820152602001610eb2565b838111156108165750506000910152565b6001600160a01b0381168114610ef057600080fd5b5056fea26469706673582212202f3a5b8670d1e26141f48c35bad49d39ba57c0bb1a56289568de4830cbfc292764736f6c634300060c0033",
    "linkReferences": {},
    "deployedLinkReferences": {}
}