{
    "_format": "hh-sol-artifact-1",
    "contractName": "YEarnV2Adapter",
    "sourceName": "contracts/adapters/vaults/YEarnV2Adapter.sol",
    "abi": [
        {
            "inputs": [
                {
                    "internalType": "address",
                    "name": "weth_",
                    "type": "address"
                }
            ],
            "stateMutability": "nonpayable",
            "type": "constructor"
        },
        {
            "inputs": [],
            "name": "gasCostProvider",
            "outputs": [
                {
                    "internalType": "contract GasCostProvider",
                    "name": "",
                    "type": "address"
                }
            ],
            "stateMutability": "view",
            "type": "function"
        },
        {
            "inputs": [
                {
                    "internalType": "uint256",
                    "name": "amount",
                    "type": "uint256"
                },
                {
                    "internalType": "uint256",
                    "name": "expected",
                    "type": "uint256"
                },
                {
                    "internalType": "address",
                    "name": "tokenIn",
                    "type": "address"
                },
                {
                    "internalType": "address",
                    "name": "tokenOut",
                    "type": "address"
                },
                {
                    "internalType": "address",
                    "name": "from",
                    "type": "address"
                },
                {
                    "internalType": "address",
                    "name": "to",
                    "type": "address"
                }
            ],
            "name": "swap",
            "outputs": [],
            "stateMutability": "nonpayable",
            "type": "function"
        },
        {
            "inputs": [],
            "name": "weth",
            "outputs": [
                {
                    "internalType": "address",
                    "name": "",
                    "type": "address"
                }
            ],
            "stateMutability": "view",
            "type": "function"
        }
    ],
    "bytecode": "0x60c060405234801561001057600080fd5b5060405161115138038061115183398101604081905261002f9161009e565b6001600160601b0319606082901b1660805260405161232890339061005390610091565b61005e9291906100cc565b604051809103906000f08015801561007a573d6000803e3d6000fd5b5060601b6001600160601b03191660a052506100e3565b61055780610bfa83390190565b6000602082840312156100af578081fd5b81516001600160a01b03811681146100c5578182fd5b9392505050565b9182526001600160a01b0316602082015260400190565b60805160601c60a05160601c610ae96101116000398061044052806104ea52508061041c5250610ae96000f3fe608060405234801561001057600080fd5b50600436106100415760003560e01c8063230f11c7146100465780633fc8cef31461005b578063a555e74b14610079575b600080fd5b6100596100543660046107da565b610081565b005b61006361041a565b6040516100709190610865565b60405180910390f35b61006361043e565b826001600160a01b0316846001600160a01b031614156100bc5760405162461bcd60e51b81526004016100b39061098b565b60405180910390fd5b6001600160a01b03821630146100e1576100e16001600160a01b038516833089610462565b60006100ec846104c0565b156102a0576000849050856001600160a01b0316816001600160a01b031663fc0c546a6040518163ffffffff1660e01b815260040160206040518083038186803b15801561013957600080fd5b505afa15801561014d573d6000803e3d6000fd5b505050506040513d601f19601f8201168201806040525081019061017191906107a6565b6001600160a01b0316146101975760405162461bcd60e51b81526004016100b3906108e9565b60405163095ea7b360e01b81526001600160a01b0387169063095ea7b3906101c59088908c9060040161089d565b602060405180830381600087803b1580156101df57600080fd5b505af11580156101f3573d6000803e3d6000fd5b505050506040513d601f19601f820116820180604052508101906102179190610786565b50604051636e553f6560e01b81526001600160a01b03821690636e553f6590610246908b903090600401610a39565b602060405180830381600087803b15801561026057600080fd5b505af1158015610274573d6000803e3d6000fd5b505050506040513d601f19601f8201168201806040525081019061029891906107c2565b9150506103cd565b6000859050846001600160a01b0316816001600160a01b031663fc0c546a6040518163ffffffff1660e01b815260040160206040518083038186803b1580156102e857600080fd5b505afa1580156102fc573d6000803e3d6000fd5b505050506040513d601f19601f8201168201806040525081019061032091906107a6565b6001600160a01b0316146103465760405162461bcd60e51b81526004016100b3906108e9565b604051631cc6d2f960e31b81526001600160a01b0382169063e63697c890610377908b903090600190600401610a50565b602060405180830381600087803b15801561039157600080fd5b505af11580156103a5573d6000803e3d6000fd5b505050506040513d601f19601f820116820180604052508101906103c991906107c2565b9150505b858110156103ed5760405162461bcd60e51b81526004016100b390610955565b6001600160a01b0382163014610411576104116001600160a01b03851683836105ba565b50505050505050565b7f000000000000000000000000000000000000000000000000000000000000000081565b7f000000000000000000000000000000000000000000000000000000000000000081565b6104ba846323b872dd60e01b85858560405160240161048393929190610879565b60408051601f198184030181529190526020810180516001600160e01b03166001600160e01b0319909316929092179091526105de565b50505050565b6000807ffc0c546a8dce9d6e9b97c086302918c9106d97a17809f6bcacfe02124763cb39905060007f00000000000000000000000000000000000000000000000000000000000000006001600160a01b0316631d5e3fe56040518163ffffffff1660e01b815260040160206040518083038186803b15801561054157600080fd5b505afa158015610555573d6000803e3d6000fd5b505050506040513d601f19601f8201168201806040525081019061057991906107c2565b9050600080604051602081016040528481526020816004838a88fa925080519150508180156105b057506001600160a01b03811615155b9695505050505050565b6105d98363a9059cbb60e01b848460405160240161048392919061089d565b505050565b6060610633826040518060400160405280602081526020017f5361666545524332303a206c6f772d6c6576656c2063616c6c206661696c6564815250856001600160a01b031661066d9092919063ffffffff16565b8051909150156105d957808060200190518101906106519190610786565b6105d95760405162461bcd60e51b81526004016100b3906109ef565b606061067c8484600085610686565b90505b9392505050565b6060824710156106a85760405162461bcd60e51b81526004016100b39061090f565b6106b185610747565b6106cd5760405162461bcd60e51b81526004016100b3906109b8565b60006060866001600160a01b031685876040516106ea9190610849565b60006040518083038185875af1925050503d8060008114610727576040519150601f19603f3d011682016040523d82523d6000602084013e61072c565b606091505b509150915061073c82828661074d565b979650505050505050565b3b151590565b6060831561075c57508161067f565b82511561076c5782518084602001fd5b8160405162461bcd60e51b81526004016100b391906108b6565b600060208284031215610797578081fd5b8151801515811461067f578182fd5b6000602082840312156107b7578081fd5b815161067f81610a9b565b6000602082840312156107d3578081fd5b5051919050565b60008060008060008060c087890312156107f2578182fd5b8635955060208701359450604087013561080b81610a9b565b9350606087013561081b81610a9b565b9250608087013561082b81610a9b565b915060a087013561083b81610a9b565b809150509295509295509295565b6000825161085b818460208701610a6f565b9190910192915050565b6001600160a01b0391909116815260200190565b6001600160a01b039384168152919092166020820152604081019190915260600190565b6001600160a01b03929092168252602082015260400190565b60006020825282518060208401526108d5816040850160208701610a6f565b601f01601f19169190910160400192915050565b6020808252600c908201526b496e636f6d70617469626c6560a01b604082015260600190565b60208082526026908201527f416464726573733a20696e73756666696369656e742062616c616e636520666f6040820152651c8818d85b1b60d21b606082015260800190565b6020808252601c908201527b125b9cdd59999a58da595b9d081d1bdad95b93dd5d08185b5bdd5b9d60221b604082015260600190565b6020808252601390820152720a8ded6cadce640c6c2dcdcdee840dac2e8c6d606b1b604082015260600190565b6020808252601d908201527f416464726573733a2063616c6c20746f206e6f6e2d636f6e7472616374000000604082015260600190565b6020808252602a908201527f5361666545524332303a204552433230206f7065726174696f6e20646964206e6040820152691bdd081cdd58d8d9595960b21b606082015260800190565b9182526001600160a01b0316602082015260400190565b9283526001600160a01b03919091166020830152604082015260600190565b60005b83811015610a8a578181015183820152602001610a72565b838111156104ba5750506000910152565b6001600160a01b0381168114610ab057600080fd5b5056fea264697066735822122096d84ba2b8d6773a0cf5a37407844acc11e48806a04e9e29b2eb6f377b655f3664736f6c634300060c0033608060405234801561001057600080fd5b506040516105573803806105578339818101604052604081101561003357600080fd5b5080516020909101516000610046610093565b600080546001600160a01b0319166001600160a01b038316908117825560405192935091600080516020610537833981519152908290a350600182905561008c81610097565b505061018f565b3390565b61009f610093565b6000546001600160a01b03908116911614610101576040805162461bcd60e51b815260206004820181905260248201527f4f776e61626c653a2063616c6c6572206973206e6f7420746865206f776e6572604482015290519081900360640190fd5b6001600160a01b0381166101465760405162461bcd60e51b81526004018080602001828103825260268152602001806105116026913960400191505060405180910390fd5b600080546040516001600160a01b038085169392169160008051602061053783398151915291a3600080546001600160a01b0319166001600160a01b0392909216919091179055565b6103738061019e6000396000f3fe608060405234801561001057600080fd5b50600436106100575760003560e01c80631d5e3fe51461005c578063715018a6146100765780638da5cb5b14610080578063b227a534146100a4578063f2fde38b146100c1575b600080fd5b6100646100e7565b60408051918252519081900360200190f35b61007e6100ed565b005b61008861018f565b604080516001600160a01b039092168252519081900360200190f35b61007e600480360360208110156100ba57600080fd5b503561019e565b61007e600480360360208110156100d757600080fd5b50356001600160a01b03166101fb565b60015481565b6100f56102f3565b6000546001600160a01b03908116911614610145576040805162461bcd60e51b8152602060048201819052602482015260008051602061031e833981519152604482015290519081900360640190fd5b600080546040516001600160a01b03909116907f8be0079c531659141344cd1fd0a4f28419497f9722a3daafe3b4186f6b6457e0908390a3600080546001600160a01b0319169055565b6000546001600160a01b031690565b6101a66102f3565b6000546001600160a01b039081169116146101f6576040805162461bcd60e51b8152602060048201819052602482015260008051602061031e833981519152604482015290519081900360640190fd5b600155565b6102036102f3565b6000546001600160a01b03908116911614610253576040805162461bcd60e51b8152602060048201819052602482015260008051602061031e833981519152604482015290519081900360640190fd5b6001600160a01b0381166102985760405162461bcd60e51b81526004018080602001828103825260268152602001806102f86026913960400191505060405180910390fd5b600080546040516001600160a01b03808516939216917f8be0079c531659141344cd1fd0a4f28419497f9722a3daafe3b4186f6b6457e091a3600080546001600160a01b0319166001600160a01b0392909216919091179055565b339056fe4f776e61626c653a206e6577206f776e657220697320746865207a65726f20616464726573734f776e61626c653a2063616c6c6572206973206e6f7420746865206f776e6572a2646970667358221220db74bee37227cde69c27937852ed0dd8a00ff93a8381e0059ea7d632c505835d64736f6c634300060c00334f776e61626c653a206e6577206f776e657220697320746865207a65726f20616464726573738be0079c531659141344cd1fd0a4f28419497f9722a3daafe3b4186f6b6457e0",
    "linkReferences": {},
    "deployedLinkReferences": {}
}