{
    "_format": "hh-sol-artifact-1",
    "contractName": "YEarnV2Adapter",
    "sourceName": "contracts/adapters/vaults/YEarnV2Adapter.sol",
    "abi": [
        {
            "inputs": [
                {
                    "internalType": "address",
                    "name": "weth_",
                    "type": "address"
                }
            ],
            "stateMutability": "nonpayable",
            "type": "constructor"
        },
        {
            "inputs": [],
            "name": "gasCostProvider",
            "outputs": [
                {
                    "internalType": "contract GasCostProvider",
                    "name": "",
                    "type": "address"
                }
            ],
            "stateMutability": "view",
            "type": "function"
        },
        {
            "inputs": [
                {
                    "internalType": "uint256",
                    "name": "amount",
                    "type": "uint256"
                },
                {
                    "internalType": "uint256",
                    "name": "expected",
                    "type": "uint256"
                },
                {
                    "internalType": "address",
                    "name": "tokenIn",
                    "type": "address"
                },
                {
                    "internalType": "address",
                    "name": "tokenOut",
                    "type": "address"
                },
                {
                    "internalType": "address",
                    "name": "from",
                    "type": "address"
                },
                {
                    "internalType": "address",
                    "name": "to",
                    "type": "address"
                }
            ],
            "name": "swap",
            "outputs": [],
            "stateMutability": "nonpayable",
            "type": "function"
        },
        {
            "inputs": [],
            "name": "weth",
            "outputs": [
                {
                    "internalType": "address",
                    "name": "",
                    "type": "address"
                }
            ],
            "stateMutability": "view",
            "type": "function"
        }
    ],
    "bytecode": "0x60c060405234801561001057600080fd5b5060405161121738038061121783398101604081905261002f9161009e565b6001600160601b0319606082901b1660805260405161232890339061005390610091565b61005e9291906100cc565b604051809103906000f08015801561007a573d6000803e3d6000fd5b5060601b6001600160601b03191660a052506100e3565b61055780610cc083390190565b6000602082840312156100af578081fd5b81516001600160a01b03811681146100c5578182fd5b9392505050565b9182526001600160a01b0316602082015260400190565b60805160601c60a05160601c610baf610111600039806103d3528061047d5250806103af5250610baf6000f3fe608060405234801561001057600080fd5b50600436106100415760003560e01c8063230f11c7146100465780633fc8cef31461005b578063a555e74b14610079575b600080fd5b610059610054366004610830565b610081565b005b6100636103ad565b60405161007091906108bb565b60405180910390f35b6100636103d1565b826001600160a01b0316846001600160a01b031614156100bc5760405162461bcd60e51b81526004016100b3906109fb565b60405180910390fd5b6001600160a01b03821630146100e1576100e16001600160a01b0385168330896103f5565b60006100ec84610453565b15610233576000849050856001600160a01b0316816001600160a01b031663fc0c546a6040518163ffffffff1660e01b815260040160206040518083038186803b15801561013957600080fd5b505afa15801561014d573d6000803e3d6000fd5b505050506040513d601f19601f8201168201806040525081019061017191906107fc565b6001600160a01b0316146101975760405162461bcd60e51b81526004016100b390610959565b6101ab6001600160a01b038716868a61054d565b604051636e553f6560e01b81526001600160a01b03821690636e553f65906101d9908b903090600401610aff565b602060405180830381600087803b1580156101f357600080fd5b505af1158015610207573d6000803e3d6000fd5b505050506040513d601f19601f8201168201806040525081019061022b9190610818565b915050610360565b6000859050846001600160a01b0316816001600160a01b031663fc0c546a6040518163ffffffff1660e01b815260040160206040518083038186803b15801561027b57600080fd5b505afa15801561028f573d6000803e3d6000fd5b505050506040513d601f19601f820116820180604052508101906102b391906107fc565b6001600160a01b0316146102d95760405162461bcd60e51b81526004016100b390610959565b604051631cc6d2f960e31b81526001600160a01b0382169063e63697c89061030a908b903090600190600401610b16565b602060405180830381600087803b15801561032457600080fd5b505af1158015610338573d6000803e3d6000fd5b505050506040513d601f19601f8201168201806040525081019061035c9190610818565b9150505b858110156103805760405162461bcd60e51b81526004016100b3906109c5565b6001600160a01b03821630146103a4576103a46001600160a01b0385168383610615565b50505050505050565b7f000000000000000000000000000000000000000000000000000000000000000081565b7f000000000000000000000000000000000000000000000000000000000000000081565b61044d846323b872dd60e01b858585604051602401610416939291906108e9565b60408051601f198184030181529190526020810180516001600160e01b03166001600160e01b031990931692909217909152610634565b50505050565b6000807ffc0c546a8dce9d6e9b97c086302918c9106d97a17809f6bcacfe02124763cb39905060007f00000000000000000000000000000000000000000000000000000000000000006001600160a01b0316631d5e3fe56040518163ffffffff1660e01b815260040160206040518083038186803b1580156104d457600080fd5b505afa1580156104e8573d6000803e3d6000fd5b505050506040513d601f19601f8201168201806040525081019061050c9190610818565b9050600080604051602081016040528481526020816004838a88fa9250805191505081801561054357506001600160a01b03811615155b9695505050505050565b8015806105d55750604051636eb1769f60e11b81526001600160a01b0384169063dd62ed3e9061058390309086906004016108cf565b60206040518083038186803b15801561059b57600080fd5b505afa1580156105af573d6000803e3d6000fd5b505050506040513d601f19601f820116820180604052508101906105d39190610818565b155b6105f15760405162461bcd60e51b81526004016100b390610aa9565b6106108363095ea7b360e01b848460405160240161041692919061090d565b505050565b6106108363a9059cbb60e01b848460405160240161041692919061090d565b6060610689826040518060400160405280602081526020017f5361666545524332303a206c6f772d6c6576656c2063616c6c206661696c6564815250856001600160a01b03166106c39092919063ffffffff16565b80519091501561061057808060200190518101906106a791906107dc565b6106105760405162461bcd60e51b81526004016100b390610a5f565b60606106d284846000856106dc565b90505b9392505050565b6060824710156106fe5760405162461bcd60e51b81526004016100b39061097f565b6107078561079d565b6107235760405162461bcd60e51b81526004016100b390610a28565b60006060866001600160a01b03168587604051610740919061089f565b60006040518083038185875af1925050503d806000811461077d576040519150601f19603f3d011682016040523d82523d6000602084013e610782565b606091505b50915091506107928282866107a3565b979650505050505050565b3b151590565b606083156107b25750816106d5565b8251156107c25782518084602001fd5b8160405162461bcd60e51b81526004016100b39190610926565b6000602082840312156107ed578081fd5b815180151581146106d5578182fd5b60006020828403121561080d578081fd5b81516106d581610b61565b600060208284031215610829578081fd5b5051919050565b60008060008060008060c08789031215610848578182fd5b8635955060208701359450604087013561086181610b61565b9350606087013561087181610b61565b9250608087013561088181610b61565b915060a087013561089181610b61565b809150509295509295509295565b600082516108b1818460208701610b35565b9190910192915050565b6001600160a01b0391909116815260200190565b6001600160a01b0392831681529116602082015260400190565b6001600160a01b039384168152919092166020820152604081019190915260600190565b6001600160a01b03929092168252602082015260400190565b6000602082528251806020840152610945816040850160208701610b35565b601f01601f19169190910160400192915050565b6020808252600c908201526b496e636f6d70617469626c6560a01b604082015260600190565b60208082526026908201527f416464726573733a20696e73756666696369656e742062616c616e636520666f6040820152651c8818d85b1b60d21b606082015260800190565b6020808252601c908201527b125b9cdd59999a58da595b9d081d1bdad95b93dd5d08185b5bdd5b9d60221b604082015260600190565b6020808252601390820152720a8ded6cadce640c6c2dcdcdee840dac2e8c6d606b1b604082015260600190565b6020808252601d908201527f416464726573733a2063616c6c20746f206e6f6e2d636f6e7472616374000000604082015260600190565b6020808252602a908201527f5361666545524332303a204552433230206f7065726174696f6e20646964206e6040820152691bdd081cdd58d8d9595960b21b606082015260800190565b60208082526036908201527f5361666545524332303a20617070726f76652066726f6d206e6f6e2d7a65726f60408201527520746f206e6f6e2d7a65726f20616c6c6f77616e636560501b606082015260800190565b9182526001600160a01b0316602082015260400190565b9283526001600160a01b03919091166020830152604082015260600190565b60005b83811015610b50578181015183820152602001610b38565b8381111561044d5750506000910152565b6001600160a01b0381168114610b7657600080fd5b5056fea2646970667358221220388b578a82b9f40028e81195738027762f007e7c3508369e956afc0788d90faa64736f6c634300060c0033608060405234801561001057600080fd5b506040516105573803806105578339818101604052604081101561003357600080fd5b5080516020909101516000610046610093565b600080546001600160a01b0319166001600160a01b038316908117825560405192935091600080516020610537833981519152908290a350600182905561008c81610097565b505061018f565b3390565b61009f610093565b6000546001600160a01b03908116911614610101576040805162461bcd60e51b815260206004820181905260248201527f4f776e61626c653a2063616c6c6572206973206e6f7420746865206f776e6572604482015290519081900360640190fd5b6001600160a01b0381166101465760405162461bcd60e51b81526004018080602001828103825260268152602001806105116026913960400191505060405180910390fd5b600080546040516001600160a01b038085169392169160008051602061053783398151915291a3600080546001600160a01b0319166001600160a01b0392909216919091179055565b6103738061019e6000396000f3fe608060405234801561001057600080fd5b50600436106100575760003560e01c80631d5e3fe51461005c578063715018a6146100765780638da5cb5b14610080578063b227a534146100a4578063f2fde38b146100c1575b600080fd5b6100646100e7565b60408051918252519081900360200190f35b61007e6100ed565b005b61008861018f565b604080516001600160a01b039092168252519081900360200190f35b61007e600480360360208110156100ba57600080fd5b503561019e565b61007e600480360360208110156100d757600080fd5b50356001600160a01b03166101fb565b60015481565b6100f56102f3565b6000546001600160a01b03908116911614610145576040805162461bcd60e51b8152602060048201819052602482015260008051602061031e833981519152604482015290519081900360640190fd5b600080546040516001600160a01b03909116907f8be0079c531659141344cd1fd0a4f28419497f9722a3daafe3b4186f6b6457e0908390a3600080546001600160a01b0319169055565b6000546001600160a01b031690565b6101a66102f3565b6000546001600160a01b039081169116146101f6576040805162461bcd60e51b8152602060048201819052602482015260008051602061031e833981519152604482015290519081900360640190fd5b600155565b6102036102f3565b6000546001600160a01b03908116911614610253576040805162461bcd60e51b8152602060048201819052602482015260008051602061031e833981519152604482015290519081900360640190fd5b6001600160a01b0381166102985760405162461bcd60e51b81526004018080602001828103825260268152602001806102f86026913960400191505060405180910390fd5b600080546040516001600160a01b03808516939216917f8be0079c531659141344cd1fd0a4f28419497f9722a3daafe3b4186f6b6457e091a3600080546001600160a01b0319166001600160a01b0392909216919091179055565b339056fe4f776e61626c653a206e6577206f776e657220697320746865207a65726f20616464726573734f776e61626c653a2063616c6c6572206973206e6f7420746865206f776e6572a2646970667358221220db74bee37227cde69c27937852ed0dd8a00ff93a8381e0059ea7d632c505835d64736f6c634300060c00334f776e61626c653a206e6577206f776e657220697320746865207a65726f20616464726573738be0079c531659141344cd1fd0a4f28419497f9722a3daafe3b4186f6b6457e0",
    "linkReferences": {},
    "deployedLinkReferences": {}
}