{
  "_format": "hh-sol-artifact-1",
  "contractName": "FlashSwapAttack",
  "sourceName": "contracts/test/FlashSwapAttack.sol",
  "abi": [
    {
      "inputs": [
        {
          "internalType": "address",
          "name": "controller_",
          "type": "address"
        },
        {
          "internalType": "address",
          "name": "genericRouter_",
          "type": "address"
        },
        {
          "internalType": "address",
          "name": "loopRouter_",
          "type": "address"
        },
        {
          "internalType": "address",
          "name": "weth_",
          "type": "address"
        }
      ],
      "stateMutability": "nonpayable",
      "type": "constructor"
    },
    {
      "inputs": [],
      "name": "controller",
      "outputs": [
        {
          "internalType": "contract IStrategyController",
          "name": "",
          "type": "address"
        }
      ],
      "stateMutability": "view",
      "type": "function"
    },
    {
      "inputs": [],
      "name": "genericRouter",
      "outputs": [
        {
          "internalType": "contract IStrategyRouter",
          "name": "",
          "type": "address"
        }
      ],
      "stateMutability": "view",
      "type": "function"
    },
    {
      "inputs": [
        {
          "internalType": "contract IUniswapV2Pair",
          "name": "pair",
          "type": "address"
        },
        {
          "internalType": "address",
          "name": "strategy",
          "type": "address"
        }
      ],
      "name": "initiateAttack",
      "outputs": [],
      "stateMutability": "nonpayable",
      "type": "function"
    },
    {
      "inputs": [],
      "name": "loopRouter",
      "outputs": [
        {
          "internalType": "contract IStrategyRouter",
          "name": "",
          "type": "address"
        }
      ],
      "stateMutability": "view",
      "type": "function"
    },
    {
      "inputs": [
        {
          "internalType": "address",
          "name": "",
          "type": "address"
        },
        {
          "internalType": "uint256",
          "name": "amount0",
          "type": "uint256"
        },
        {
          "internalType": "uint256",
          "name": "amount1",
          "type": "uint256"
        },
        {
          "internalType": "bytes",
          "name": "data",
          "type": "bytes"
        }
      ],
      "name": "uniswapV2Call",
      "outputs": [],
      "stateMutability": "nonpayable",
      "type": "function"
    },
    {
      "inputs": [],
      "name": "weth",
      "outputs": [
        {
          "internalType": "address",
          "name": "",
          "type": "address"
        }
      ],
      "stateMutability": "view",
      "type": "function"
    },
    {
      "inputs": [
        {
          "internalType": "contract IStrategy",
          "name": "strategy",
          "type": "address"
        }
      ],
      "name": "withdrawWETH",
      "outputs": [],
      "stateMutability": "nonpayable",
      "type": "function"
    }
  ],
  "bytecode": "0x60806040526103e360005534801561001657600080fd5b50604051610e22380380610e22833981016040819052610035916100a5565b600180546001600160a01b039586166001600160a01b03199182161790915560028054948616948216949094179093556003805492851692841692909217909155600480549190931691161790556100fc565b80516001600160a01b038116811461009f57600080fd5b92915050565b600080600080608085870312156100ba578384fd5b6100c48686610088565b93506100d38660208701610088565b92506100e28660408701610088565b91506100f18660608701610088565b905092959194509250565b610d178061010b6000396000f3fe608060405234801561001057600080fd5b506004361061007d5760003560e01c8063adc01d3a1161005b578063adc01d3a146100bd578063bd39fa99146100d0578063c5bcfbf3146100d8578063f77c4791146100eb5761007d565b806310d1e85c1461008257806339cfe5ff146100975780633fc8cef3146100b5575b600080fd5b610095610090366004610961565b6100f3565b005b61009f610598565b6040516100ac9190610b1d565b60405180910390f35b61009f6105a7565b6100956100cb366004610a2e565b6105b6565b61009f6106e4565b6100956100e6366004610a12565b6106f3565b61009f610917565b600061010182840184610a12565b905060003390506000816001600160a01b0316630dfe16816040518163ffffffff1660e01b815260040160206040518083038186803b15801561014357600080fd5b505afa158015610157573d6000803e3d6000fd5b505050506040513d601f19601f8201168201806040525081019061017b919061093e565b90506000826001600160a01b031663d21220a76040518163ffffffff1660e01b815260040160206040518083038186803b1580156101b857600080fd5b505afa1580156101cc573d6000803e3d6000fd5b505050506040513d601f19601f820116820180604052508101906101f0919061093e565b90506103e46103e889020497506103e46103e8880260025460405163a9059cbb60e01b81529290910498506001600160a01b038085169263a9059cbb9261023d9216908c90600401610b31565b602060405180830381600087803b15801561025757600080fd5b505af115801561026b573d6000803e3d6000fd5b505050506040513d601f19601f8201168201806040525081019061028f91906109f2565b5060025460405163a9059cbb60e01b81526001600160a01b038381169263a9059cbb926102c492909116908b90600401610b31565b602060405180830381600087803b1580156102de57600080fd5b505af11580156102f2573d6000803e3d6000fd5b505050506040513d601f19601f8201168201806040525081019061031691906109f2565b506040805160028082526060828101909352816020015b610335610926565b81526020019060019003908161032d5790505090506040518060400160405280846001600160a01b0316815260200163a9059cbb60e01b338c60405160240161037f929190610b31565b60408051601f198184030181529190526020810180516001600160e01b03166001600160e01b0319909316929092179091529052815182906000906103c057fe5b60200260200101819052506040518060400160405280836001600160a01b0316815260200163a9059cbb60e01b338b604051602401610400929190610b31565b60408051601f198184030181529190526020810180516001600160e01b03166001600160e01b031990931692909217909152905281518290600190811061044357fe5b60200260200101819052506060816040516020016104619190610b4a565b60408051601f1981840301815290829052600154600254600080546371b8dc6960e01b86529395506001600160a01b03928316946371b8dc69946104ae948d941692918890600401610bc4565b600060405180830381600087803b1580156104c857600080fd5b505af11580156104dc573d6000803e3d6000fd5b50506040516370a0823160e01b8152600092506001600160a01b03891691506370a082319061050f903090600401610b1d565b60206040518083038186803b15801561052757600080fd5b505afa15801561053b573d6000803e3d6000fd5b505050506040513d601f19601f8201168201806040525081019061055f9190610aba565b90506000811161058a5760405162461bcd60e51b815260040161058190610c3e565b60405180910390fd5b505050505050505050505050565b6002546001600160a01b031681565b6004546001600160a01b031681565b6060816040516020016105c99190610b1d565b6040516020818303038152906040529050600080846001600160a01b0316630902f1ac6040518163ffffffff1660e01b815260040160606040518083038186803b15801561061657600080fd5b505afa15801561062a573d6000803e3d6000fd5b505050506040513d601f19601f8201168201806040525081019061064e9190610a66565b5091509150846001600160a01b031663022c0d9f6001846dffffffffffffffffffffffffffff16036001846dffffffffffffffffffffffffffff160330876040518563ffffffff1660e01b81526004016106ab9493929190610c75565b600060405180830381600087803b1580156106c557600080fd5b505af11580156106d9573d6000803e3d6000fd5b505050505050505050565b6003546001600160a01b031681565b6001546003546040516370a0823160e01b81526001600160a01b039283169263716e2615928592908216918316906370a0823190610735903090600401610b1d565b60206040518083038186803b15801561074d57600080fd5b505afa158015610761573d6000803e3d6000fd5b505050506040513d601f19601f820116820180604052508101906107859190610aba565b600080546040805192835260208301908190526001600160e01b031960e088901b1690526107b99493929160248101610bc4565b600060405180830381600087803b1580156107d357600080fd5b505af11580156107e7573d6000803e3d6000fd5b5050600480546040516370a0823160e01b8152600094506001600160a01b0390911692506370a082319161081d91309101610b1d565b60206040518083038186803b15801561083557600080fd5b505afa158015610849573d6000803e3d6000fd5b505050506040513d601f19601f8201168201806040525081019061086d9190610aba565b90506000811161088f5760405162461bcd60e51b815260040161058190610c07565b6004805460405163a9059cbb60e01b81526001600160a01b039091169163a9059cbb916108c0913391869101610b31565b602060405180830381600087803b1580156108da57600080fd5b505af11580156108ee573d6000803e3d6000fd5b505050506040513d601f19601f8201168201806040525081019061091291906109f2565b505050565b6001546001600160a01b031681565b60408051808201909152600081526060602082015290565b60006020828403121561094f578081fd5b815161095a81610cad565b9392505050565b600080600080600060808688031215610978578081fd5b853561098381610cad565b94506020860135935060408601359250606086013567ffffffffffffffff808211156109ad578283fd5b818801915088601f8301126109c0578283fd5b8135818111156109ce578384fd5b8960208285010111156109df578384fd5b9699959850939650602001949392505050565b600060208284031215610a03578081fd5b8151801515811461095a578182fd5b600060208284031215610a23578081fd5b813561095a81610cad565b60008060408385031215610a40578182fd5b8235610a4b81610cad565b91506020830135610a5b81610cad565b809150509250929050565b600080600060608486031215610a7a578283fd5b8351610a8581610cc5565b6020850151909350610a9681610cc5565b604085015190925063ffffffff81168114610aaf578182fd5b809150509250925092565b600060208284031215610acb578081fd5b5051919050565b60008151808452815b81811015610af757602081850181015186830182015201610adb565b81811115610b085782602083870101525b50601f01601f19169290920160200192915050565b6001600160a01b0391909116815260200190565b6001600160a01b03929092168252602082015260400190565b60208082528251828201819052600091906040908185019080840286018301878501865b83811015610bb657888303603f19018552815180516001600160a01b03168452870151878401879052610ba387850182610ad2565b9588019593505090860190600101610b6e565b509098975050505050505050565b60006001600160a01b03808816835280871660208401525084604083015283606083015260a06080830152610bfc60a0830184610ad2565b979650505050505050565b60208082526017908201527f4661696c656420746f2077697468647261772077657468000000000000000000604082015260600190565b60208082526015908201527f4661696c656420746f206d696e7420746f6b656e730000000000000000000000604082015260600190565b60008582528460208301526001600160a01b038416604083015260806060830152610ca36080830184610ad2565b9695505050505050565b6001600160a01b0381168114610cc257600080fd5b50565b6dffffffffffffffffffffffffffff81168114610cc257600080fdfea2646970667358221220bbbd54f015b5073a1ef3b75b9d70b9936ed87ba35a6b3803432289fdab9eaf5364736f6c634300060c0033",
  "linkReferences": {},
  "deployedLinkReferences": {}
}