{
  "_format": "hh-sol-artifact-1",
  "contractName": "FlashSwapAttack",
  "sourceName": "contracts/test/FlashSwapAttack.sol",
  "abi": [
    {
      "inputs": [
        {
          "internalType": "address",
          "name": "controller_",
          "type": "address"
        },
        {
          "internalType": "address",
          "name": "genericRouter_",
          "type": "address"
        },
        {
          "internalType": "address",
          "name": "loopRouter_",
          "type": "address"
        },
        {
          "internalType": "address",
          "name": "weth_",
          "type": "address"
        }
      ],
      "stateMutability": "nonpayable",
      "type": "constructor"
    },
    {
      "inputs": [],
      "name": "controller",
      "outputs": [
        {
          "internalType": "contract IStrategyController",
          "name": "",
          "type": "address"
        }
      ],
      "stateMutability": "view",
      "type": "function"
    },
    {
      "inputs": [],
      "name": "genericRouter",
      "outputs": [
        {
          "internalType": "contract IStrategyRouter",
          "name": "",
          "type": "address"
        }
      ],
      "stateMutability": "view",
      "type": "function"
    },
    {
      "inputs": [
        {
          "internalType": "contract IUniswapV2Pair",
          "name": "pair",
          "type": "address"
        },
        {
          "internalType": "address",
          "name": "strategy",
          "type": "address"
        }
      ],
      "name": "initiateAttack",
      "outputs": [],
      "stateMutability": "nonpayable",
      "type": "function"
    },
    {
      "inputs": [],
      "name": "loopRouter",
      "outputs": [
        {
          "internalType": "contract IStrategyRouter",
          "name": "",
          "type": "address"
        }
      ],
      "stateMutability": "view",
      "type": "function"
    },
    {
      "inputs": [
        {
          "internalType": "address",
          "name": "",
          "type": "address"
        },
        {
          "internalType": "uint256",
          "name": "amount0",
          "type": "uint256"
        },
        {
          "internalType": "uint256",
          "name": "amount1",
          "type": "uint256"
        },
        {
          "internalType": "bytes",
          "name": "data",
          "type": "bytes"
        }
      ],
      "name": "uniswapV2Call",
      "outputs": [],
      "stateMutability": "nonpayable",
      "type": "function"
    },
    {
      "inputs": [],
      "name": "weth",
      "outputs": [
        {
          "internalType": "address",
          "name": "",
          "type": "address"
        }
      ],
      "stateMutability": "view",
      "type": "function"
    },
    {
      "inputs": [
        {
          "internalType": "contract IStrategy",
          "name": "strategy",
          "type": "address"
        }
      ],
      "name": "withdrawWETH",
      "outputs": [],
      "stateMutability": "nonpayable",
      "type": "function"
    }
  ],
  "bytecode": "0x60806040526103e360005534801561001657600080fd5b50604051610df0380380610df0833981016040819052610035916100a5565b600180546001600160a01b039586166001600160a01b03199182161790915560028054948616948216949094179093556003805492851692841692909217909155600480549190931691161790556100fc565b80516001600160a01b038116811461009f57600080fd5b92915050565b600080600080608085870312156100ba578384fd5b6100c48686610088565b93506100d38660208701610088565b92506100e28660408701610088565b91506100f18660608701610088565b905092959194509250565b610ce58061010b6000396000f3fe608060405234801561001057600080fd5b506004361061006d5760003560e01c806310d1e85c1461007257806339cfe5ff146100875780633fc8cef3146100a5578063adc01d3a146100ad578063bd39fa99146100c0578063c5bcfbf3146100c8578063f77c4791146100db575b600080fd5b610085610080366004610943565b6100e3565b005b61008f610588565b60405161009c9190610aff565b60405180910390f35b61008f610597565b6100856100bb366004610a10565b6105a6565b61008f6106c6565b6100856100d63660046109f4565b6106d5565b61008f6108f9565b60006100f1828401846109f4565b905060003390506000816001600160a01b0316630dfe16816040518163ffffffff1660e01b815260040160206040518083038186803b15801561013357600080fd5b505afa158015610147573d6000803e3d6000fd5b505050506040513d601f19601f8201168201806040525081019061016b9190610920565b90506000826001600160a01b031663d21220a76040518163ffffffff1660e01b815260040160206040518083038186803b1580156101a857600080fd5b505afa1580156101bc573d6000803e3d6000fd5b505050506040513d601f19601f820116820180604052508101906101e09190610920565b90506103e46103e889020497506103e46103e8880260025460405163a9059cbb60e01b81529290910498506001600160a01b038085169263a9059cbb9261022d9216908c90600401610b13565b602060405180830381600087803b15801561024757600080fd5b505af115801561025b573d6000803e3d6000fd5b505050506040513d601f19601f8201168201806040525081019061027f91906109d4565b5060025460405163a9059cbb60e01b81526001600160a01b038381169263a9059cbb926102b492909116908b90600401610b13565b602060405180830381600087803b1580156102ce57600080fd5b505af11580156102e2573d6000803e3d6000fd5b505050506040513d601f19601f8201168201806040525081019061030691906109d4565b506040805160028082526060828101909352816020015b610325610908565b81526020019060019003908161031d5790505090506040518060400160405280846001600160a01b0316815260200163a9059cbb60e01b338c60405160240161036f929190610b13565b60408051601f198184030181529190526020810180516001600160e01b03166001600160e01b0319909316929092179091529052815182906000906103b057fe5b60200260200101819052506040518060400160405280836001600160a01b0316815260200163a9059cbb60e01b338b6040516024016103f0929190610b13565b60408051601f198184030181529190526020810180516001600160e01b03166001600160e01b031990931692909217909152905281518290600190811061043357fe5b60200260200101819052506060816040516020016104519190610b2c565b60408051601f1981840301815290829052600154600254600080546371b8dc6960e01b86529395506001600160a01b03928316946371b8dc699461049e948d941692918890600401610ba6565b600060405180830381600087803b1580156104b857600080fd5b505af11580156104cc573d6000803e3d6000fd5b50506040516370a0823160e01b8152600092506001600160a01b03891691506370a08231906104ff903090600401610aff565b60206040518083038186803b15801561051757600080fd5b505afa15801561052b573d6000803e3d6000fd5b505050506040513d601f19601f8201168201806040525081019061054f9190610a9c565b90506000811161057a5760405162461bcd60e51b815260040161057190610c1c565b60405180910390fd5b505050505050505050505050565b6002546001600160a01b031681565b6004546001600160a01b031681565b6060816040516020016105b99190610aff565b6040516020818303038152906040529050600080846001600160a01b0316630902f1ac6040518163ffffffff1660e01b815260040160606040518083038186803b15801561060657600080fd5b505afa15801561061a573d6000803e3d6000fd5b505050506040513d601f19601f8201168201806040525081019061063e9190610a48565b5091509150846001600160a01b031663022c0d9f6001846001600160701b0316036001846001600160701b03160330876040518563ffffffff1660e01b815260040161068d9493929190610c4b565b600060405180830381600087803b1580156106a757600080fd5b505af11580156106bb573d6000803e3d6000fd5b505050505050505050565b6003546001600160a01b031681565b6001546003546040516370a0823160e01b81526001600160a01b039283169263716e2615928592908216918316906370a0823190610717903090600401610aff565b60206040518083038186803b15801561072f57600080fd5b505afa158015610743573d6000803e3d6000fd5b505050506040513d601f19601f820116820180604052508101906107679190610a9c565b600080546040805192835260208301908190526001600160e01b031960e088901b16905261079b9493929160248101610ba6565b600060405180830381600087803b1580156107b557600080fd5b505af11580156107c9573d6000803e3d6000fd5b5050600480546040516370a0823160e01b8152600094506001600160a01b0390911692506370a08231916107ff91309101610aff565b60206040518083038186803b15801561081757600080fd5b505afa15801561082b573d6000803e3d6000fd5b505050506040513d601f19601f8201168201806040525081019061084f9190610a9c565b9050600081116108715760405162461bcd60e51b815260040161057190610beb565b6004805460405163a9059cbb60e01b81526001600160a01b039091169163a9059cbb916108a2913391869101610b13565b602060405180830381600087803b1580156108bc57600080fd5b505af11580156108d0573d6000803e3d6000fd5b505050506040513d601f19601f820116820180604052508101906108f491906109d4565b505050565b6001546001600160a01b031681565b60408051808201909152600081526060602082015290565b600060208284031215610931578081fd5b815161093c81610c82565b9392505050565b60008060008060006080868803121561095a578081fd5b853561096581610c82565b94506020860135935060408601359250606086013567ffffffffffffffff8082111561098f578283fd5b818801915088601f8301126109a2578283fd5b8135818111156109b0578384fd5b8960208285010111156109c1578384fd5b9699959850939650602001949392505050565b6000602082840312156109e5578081fd5b8151801515811461093c578182fd5b600060208284031215610a05578081fd5b813561093c81610c82565b60008060408385031215610a22578182fd5b8235610a2d81610c82565b91506020830135610a3d81610c82565b809150509250929050565b600080600060608486031215610a5c578283fd5b8351610a6781610c9a565b6020850151909350610a7881610c9a565b604085015190925063ffffffff81168114610a91578182fd5b809150509250925092565b600060208284031215610aad578081fd5b5051919050565b60008151808452815b81811015610ad957602081850181015186830182015201610abd565b81811115610aea5782602083870101525b50601f01601f19169290920160200192915050565b6001600160a01b0391909116815260200190565b6001600160a01b03929092168252602082015260400190565b60208082528251828201819052600091906040908185019080840286018301878501865b83811015610b9857888303603f19018552815180516001600160a01b03168452870151878401879052610b8587850182610ab4565b9588019593505090860190600101610b50565b509098975050505050505050565b6001600160a01b03868116825285166020820152604081018490526060810183905260a060808201819052600090610be090830184610ab4565b979650505050505050565b60208082526017908201527608cc2d2d8cac840e8de40eed2e8d0c8e4c2ee40eecae8d604b1b604082015260600190565b6020808252601590820152744661696c656420746f206d696e7420746f6b656e7360581b604082015260600190565b600085825284602083015260018060a01b038416604083015260806060830152610c786080830184610ab4565b9695505050505050565b6001600160a01b0381168114610c9757600080fd5b50565b6001600160701b0381168114610c9757600080fdfea2646970667358221220ebeda56dae5b57857876ac67702e1b3b178f573d483946583b355bada09c2f1364736f6c634300060c0033",
  "linkReferences": {},
  "deployedLinkReferences": {}
}