{
  "_format": "hh-sol-artifact-1",
  "contractName": "FlashSwapAttack",
  "sourceName": "contracts/test/FlashSwapAttack.sol",
  "abi": [
    {
      "inputs": [
        {
          "internalType": "address",
          "name": "controller_",
          "type": "address"
        },
        {
          "internalType": "address",
          "name": "genericRouter_",
          "type": "address"
        },
        {
          "internalType": "address",
          "name": "loopRouter_",
          "type": "address"
        },
        {
          "internalType": "address",
          "name": "weth_",
          "type": "address"
        }
      ],
      "stateMutability": "nonpayable",
      "type": "constructor"
    },
    {
      "inputs": [],
      "name": "CALL_REVERT_PREFIX",
      "outputs": [
        {
          "internalType": "string",
          "name": "",
          "type": "string"
        }
      ],
      "stateMutability": "view",
      "type": "function"
    },
    {
      "inputs": [],
      "name": "controller",
      "outputs": [
        {
          "internalType": "contract IStrategyController",
          "name": "",
          "type": "address"
        }
      ],
      "stateMutability": "view",
      "type": "function"
    },
    {
      "inputs": [],
      "name": "genericRouter",
      "outputs": [
        {
          "internalType": "contract IStrategyRouter",
          "name": "",
          "type": "address"
        }
      ],
      "stateMutability": "view",
      "type": "function"
    },
    {
      "inputs": [
        {
          "internalType": "contract IUniswapV2Pair",
          "name": "pair",
          "type": "address"
        },
        {
          "internalType": "address",
          "name": "strategy",
          "type": "address"
        }
      ],
      "name": "initiateAttack",
      "outputs": [],
      "stateMutability": "nonpayable",
      "type": "function"
    },
    {
      "inputs": [],
      "name": "loopRouter",
      "outputs": [
        {
          "internalType": "contract IStrategyRouter",
          "name": "",
          "type": "address"
        }
      ],
      "stateMutability": "view",
      "type": "function"
    },
    {
      "inputs": [
        {
          "internalType": "address",
          "name": "",
          "type": "address"
        },
        {
          "internalType": "uint256",
          "name": "amount0",
          "type": "uint256"
        },
        {
          "internalType": "uint256",
          "name": "amount1",
          "type": "uint256"
        },
        {
          "internalType": "bytes",
          "name": "data",
          "type": "bytes"
        }
      ],
      "name": "uniswapV2Call",
      "outputs": [],
      "stateMutability": "nonpayable",
      "type": "function"
    },
    {
      "inputs": [],
      "name": "weth",
      "outputs": [
        {
          "internalType": "address",
          "name": "",
          "type": "address"
        }
      ],
      "stateMutability": "view",
      "type": "function"
    },
    {
      "inputs": [
        {
          "internalType": "contract IStrategy",
          "name": "strategy",
          "type": "address"
        }
      ],
      "name": "withdrawWETH",
      "outputs": [],
      "stateMutability": "nonpayable",
      "type": "function"
    }
  ],
  "bytecode": "0x60806040526103e360005534801561001657600080fd5b50604051610e4a380380610e4a833981016040819052610035916100a5565b600180546001600160a01b039586166001600160a01b03199182161790915560028054948616948216949094179093556003805492851692841692909217909155600480549190931691161790556100fc565b80516001600160a01b038116811461009f57600080fd5b92915050565b600080600080608085870312156100ba578384fd5b6100c48686610088565b93506100d38660208701610088565b92506100e28660408701610088565b91506100f18660608701610088565b905092959194509250565b610d3f8061010b6000396000f3fe608060405234801561001057600080fd5b50600436106100785760003560e01c806310d1e85c1461007d57806319a83f921461009257806339cfe5ff146100b05780633fc8cef3146100c5578063adc01d3a146100cd578063bd39fa99146100e0578063c5bcfbf3146100e8578063f77c4791146100fb575b600080fd5b61009061008b36600461098a565b610103565b005b61009a6105a8565b6040516100a79190610c32565b60405180910390f35b6100b86105cf565b6040516100a79190610b46565b6100b86105de565b6100906100db366004610a57565b6105ed565b6100b861070d565b6100906100f6366004610a3b565b61071c565b6100b8610940565b600061011182840184610a3b565b905060003390506000816001600160a01b0316630dfe16816040518163ffffffff1660e01b815260040160206040518083038186803b15801561015357600080fd5b505afa158015610167573d6000803e3d6000fd5b505050506040513d601f19601f8201168201806040525081019061018b9190610967565b90506000826001600160a01b031663d21220a76040518163ffffffff1660e01b815260040160206040518083038186803b1580156101c857600080fd5b505afa1580156101dc573d6000803e3d6000fd5b505050506040513d601f19601f820116820180604052508101906102009190610967565b90506103e46103e889020497506103e46103e8880260025460405163a9059cbb60e01b81529290910498506001600160a01b038085169263a9059cbb9261024d9216908c90600401610b5a565b602060405180830381600087803b15801561026757600080fd5b505af115801561027b573d6000803e3d6000fd5b505050506040513d601f19601f8201168201806040525081019061029f9190610a1b565b5060025460405163a9059cbb60e01b81526001600160a01b038381169263a9059cbb926102d492909116908b90600401610b5a565b602060405180830381600087803b1580156102ee57600080fd5b505af1158015610302573d6000803e3d6000fd5b505050506040513d601f19601f820116820180604052508101906103269190610a1b565b506040805160028082526060828101909352816020015b61034561094f565b81526020019060019003908161033d5790505090506040518060400160405280846001600160a01b0316815260200163a9059cbb60e01b338c60405160240161038f929190610b5a565b60408051601f198184030181529190526020810180516001600160e01b03166001600160e01b0319909316929092179091529052815182906000906103d057fe5b60200260200101819052506040518060400160405280836001600160a01b0316815260200163a9059cbb60e01b338b604051602401610410929190610b5a565b60408051601f198184030181529190526020810180516001600160e01b03166001600160e01b031990931692909217909152905281518290600190811061045357fe5b60200260200101819052506060816040516020016104719190610b73565b60408051601f1981840301815290829052600154600254600080546371b8dc6960e01b86529395506001600160a01b03928316946371b8dc69946104be948d941692918890600401610bed565b600060405180830381600087803b1580156104d857600080fd5b505af11580156104ec573d6000803e3d6000fd5b50506040516370a0823160e01b8152600092506001600160a01b03891691506370a082319061051f903090600401610b46565b60206040518083038186803b15801561053757600080fd5b505afa15801561054b573d6000803e3d6000fd5b505050506040513d601f19601f8201168201806040525081019061056f9190610ae3565b90506000811161059a5760405162461bcd60e51b815260040161059190610c76565b60405180910390fd5b505050505050505050505050565b6040518060400160405280600b81526020016a026bab63a34b1b0b6361d160ad1b81525081565b6002546001600160a01b031681565b6004546001600160a01b031681565b6060816040516020016106009190610b46565b6040516020818303038152906040529050600080846001600160a01b0316630902f1ac6040518163ffffffff1660e01b815260040160606040518083038186803b15801561064d57600080fd5b505afa158015610661573d6000803e3d6000fd5b505050506040513d601f19601f820116820180604052508101906106859190610a8f565b5091509150846001600160a01b031663022c0d9f6001846001600160701b0316036001846001600160701b03160330876040518563ffffffff1660e01b81526004016106d49493929190610ca5565b600060405180830381600087803b1580156106ee57600080fd5b505af1158015610702573d6000803e3d6000fd5b505050505050505050565b6003546001600160a01b031681565b6001546003546040516370a0823160e01b81526001600160a01b039283169263716e2615928592908216918316906370a082319061075e903090600401610b46565b60206040518083038186803b15801561077657600080fd5b505afa15801561078a573d6000803e3d6000fd5b505050506040513d601f19601f820116820180604052508101906107ae9190610ae3565b600080546040805192835260208301908190526001600160e01b031960e088901b1690526107e29493929160248101610bed565b600060405180830381600087803b1580156107fc57600080fd5b505af1158015610810573d6000803e3d6000fd5b5050600480546040516370a0823160e01b8152600094506001600160a01b0390911692506370a082319161084691309101610b46565b60206040518083038186803b15801561085e57600080fd5b505afa158015610872573d6000803e3d6000fd5b505050506040513d601f19601f820116820180604052508101906108969190610ae3565b9050600081116108b85760405162461bcd60e51b815260040161059190610c45565b6004805460405163a9059cbb60e01b81526001600160a01b039091169163a9059cbb916108e9913391869101610b5a565b602060405180830381600087803b15801561090357600080fd5b505af1158015610917573d6000803e3d6000fd5b505050506040513d601f19601f8201168201806040525081019061093b9190610a1b565b505050565b6001546001600160a01b031681565b60408051808201909152600081526060602082015290565b600060208284031215610978578081fd5b815161098381610cdc565b9392505050565b6000806000806000608086880312156109a1578081fd5b85356109ac81610cdc565b94506020860135935060408601359250606086013567ffffffffffffffff808211156109d6578283fd5b818801915088601f8301126109e9578283fd5b8135818111156109f7578384fd5b896020828501011115610a08578384fd5b9699959850939650602001949392505050565b600060208284031215610a2c578081fd5b81518015158114610983578182fd5b600060208284031215610a4c578081fd5b813561098381610cdc565b60008060408385031215610a69578182fd5b8235610a7481610cdc565b91506020830135610a8481610cdc565b809150509250929050565b600080600060608486031215610aa3578283fd5b8351610aae81610cf4565b6020850151909350610abf81610cf4565b604085015190925063ffffffff81168114610ad8578182fd5b809150509250925092565b600060208284031215610af4578081fd5b5051919050565b60008151808452815b81811015610b2057602081850181015186830182015201610b04565b81811115610b315782602083870101525b50601f01601f19169290920160200192915050565b6001600160a01b0391909116815260200190565b6001600160a01b03929092168252602082015260400190565b60208082528251828201819052600091906040908185019080840286018301878501865b83811015610bdf57888303603f19018552815180516001600160a01b03168452870151878401879052610bcc87850182610afb565b9588019593505090860190600101610b97565b509098975050505050505050565b6001600160a01b03868116825285166020820152604081018490526060810183905260a060808201819052600090610c2790830184610afb565b979650505050505050565b6000602082526109836020830184610afb565b60208082526017908201527608cc2d2d8cac840e8de40eed2e8d0c8e4c2ee40eecae8d604b1b604082015260600190565b6020808252601590820152744661696c656420746f206d696e7420746f6b656e7360581b604082015260600190565b600085825284602083015260018060a01b038416604083015260806060830152610cd26080830184610afb565b9695505050505050565b6001600160a01b0381168114610cf157600080fd5b50565b6001600160701b0381168114610cf157600080fdfea26469706673582212204915da770695b1f1796f725b1b3a6a07811f434273a7040075f40520fba3875464736f6c634300060c0033",
  "linkReferences": {},
  "deployedLinkReferences": {}
}