{
    "_format": "hh-sol-artifact-1",
    "contractName": "StrategyController",
    "sourceName": "contracts/StrategyController.sol",
    "abi": [
        {
            "inputs": [
                {
                    "internalType": "address",
                    "name": "factory_",
                    "type": "address"
                }
            ],
            "stateMutability": "nonpayable",
            "type": "constructor"
        },
        {
            "anonymous": false,
            "inputs": [
                {
                    "indexed": true,
                    "internalType": "address",
                    "name": "strategy",
                    "type": "address"
                },
                {
                    "indexed": false,
                    "internalType": "uint256",
                    "name": "totalBefore",
                    "type": "uint256"
                },
                {
                    "indexed": false,
                    "internalType": "uint256",
                    "name": "totalAfter",
                    "type": "uint256"
                }
            ],
            "name": "Balanced",
            "type": "event"
        },
        {
            "anonymous": false,
            "inputs": [
                {
                    "indexed": true,
                    "internalType": "address",
                    "name": "strategy",
                    "type": "address"
                },
                {
                    "indexed": true,
                    "internalType": "address",
                    "name": "account",
                    "type": "address"
                },
                {
                    "indexed": false,
                    "internalType": "uint256",
                    "name": "value",
                    "type": "uint256"
                },
                {
                    "indexed": false,
                    "internalType": "uint256",
                    "name": "amount",
                    "type": "uint256"
                }
            ],
            "name": "Deposit",
            "type": "event"
        },
        {
            "anonymous": false,
            "inputs": [
                {
                    "indexed": true,
                    "internalType": "address",
                    "name": "strategy",
                    "type": "address"
                },
                {
                    "components": [
                        {
                            "internalType": "address",
                            "name": "item",
                            "type": "address"
                        },
                        {
                            "internalType": "int256",
                            "name": "percentage",
                            "type": "int256"
                        },
                        {
                            "components": [
                                {
                                    "internalType": "address[]",
                                    "name": "adapters",
                                    "type": "address[]"
                                },
                                {
                                    "internalType": "address[]",
                                    "name": "path",
                                    "type": "address[]"
                                },
                                {
                                    "internalType": "bytes",
                                    "name": "cache",
                                    "type": "bytes"
                                }
                            ],
                            "internalType": "struct StrategyTypes.TradeData",
                            "name": "data",
                            "type": "tuple"
                        }
                    ],
                    "indexed": false,
                    "internalType": "struct StrategyTypes.StrategyItem[]",
                    "name": "items",
                    "type": "tuple[]"
                },
                {
                    "indexed": true,
                    "internalType": "bool",
                    "name": "finalized",
                    "type": "bool"
                }
            ],
            "name": "NewStructure",
            "type": "event"
        },
        {
            "anonymous": false,
            "inputs": [
                {
                    "indexed": true,
                    "internalType": "address",
                    "name": "strategy",
                    "type": "address"
                },
                {
                    "indexed": false,
                    "internalType": "enum StrategyTypes.TimelockCategory",
                    "name": "category",
                    "type": "uint8"
                },
                {
                    "indexed": false,
                    "internalType": "uint256",
                    "name": "newValue",
                    "type": "uint256"
                },
                {
                    "indexed": true,
                    "internalType": "bool",
                    "name": "finalized",
                    "type": "bool"
                }
            ],
            "name": "NewValue",
            "type": "event"
        },
        {
            "anonymous": false,
            "inputs": [
                {
                    "indexed": true,
                    "internalType": "address",
                    "name": "strategy",
                    "type": "address"
                }
            ],
            "name": "StrategyOpen",
            "type": "event"
        },
        {
            "anonymous": false,
            "inputs": [
                {
                    "indexed": true,
                    "internalType": "address",
                    "name": "strategy",
                    "type": "address"
                }
            ],
            "name": "StrategySet",
            "type": "event"
        },
        {
            "anonymous": false,
            "inputs": [
                {
                    "indexed": true,
                    "internalType": "address",
                    "name": "strategy",
                    "type": "address"
                },
                {
                    "indexed": true,
                    "internalType": "address",
                    "name": "account",
                    "type": "address"
                },
                {
                    "indexed": false,
                    "internalType": "uint256",
                    "name": "value",
                    "type": "uint256"
                },
                {
                    "indexed": false,
                    "internalType": "uint256",
                    "name": "amount",
                    "type": "uint256"
                }
            ],
            "name": "Withdraw",
            "type": "event"
        },
        {
            "inputs": [
                {
                    "internalType": "contract IStrategy",
                    "name": "strategy",
                    "type": "address"
                },
                {
                    "internalType": "contract IStrategyRouter",
                    "name": "router",
                    "type": "address"
                },
                {
                    "internalType": "uint256",
                    "name": "amount",
                    "type": "uint256"
                },
                {
                    "internalType": "uint256",
                    "name": "slippage",
                    "type": "uint256"
                },
                {
                    "internalType": "bytes",
                    "name": "data",
                    "type": "bytes"
                }
            ],
            "name": "deposit",
            "outputs": [],
            "stateMutability": "payable",
            "type": "function"
        },
        {
            "inputs": [],
            "name": "factory",
            "outputs": [
                {
                    "internalType": "address",
                    "name": "",
                    "type": "address"
                }
            ],
            "stateMutability": "view",
            "type": "function"
        },
        {
            "inputs": [
                {
                    "internalType": "contract IStrategy",
                    "name": "strategy",
                    "type": "address"
                },
                {
                    "internalType": "contract IStrategyRouter",
                    "name": "router",
                    "type": "address"
                },
                {
                    "internalType": "bytes",
                    "name": "data",
                    "type": "bytes"
                }
            ],
            "name": "finalizeStructure",
            "outputs": [],
            "stateMutability": "nonpayable",
            "type": "function"
        },
        {
            "inputs": [
                {
                    "internalType": "contract IStrategy",
                    "name": "strategy",
                    "type": "address"
                }
            ],
            "name": "finalizeValue",
            "outputs": [],
            "stateMutability": "nonpayable",
            "type": "function"
        },
        {
            "inputs": [],
            "name": "initialize",
            "outputs": [
                {
                    "internalType": "bool",
                    "name": "",
                    "type": "bool"
                }
            ],
            "stateMutability": "nonpayable",
            "type": "function"
        },
        {
            "inputs": [
                {
                    "internalType": "address",
                    "name": "strategy",
                    "type": "address"
                }
            ],
            "name": "initialized",
            "outputs": [
                {
                    "internalType": "bool",
                    "name": "",
                    "type": "bool"
                }
            ],
            "stateMutability": "view",
            "type": "function"
        },
        {
            "inputs": [
                {
                    "internalType": "contract IStrategy",
                    "name": "strategy",
                    "type": "address"
                }
            ],
            "name": "openStrategy",
            "outputs": [],
            "stateMutability": "nonpayable",
            "type": "function"
        },
        {
            "inputs": [],
            "name": "oracle",
            "outputs": [
                {
                    "internalType": "contract IOracle",
                    "name": "",
                    "type": "address"
                }
            ],
            "stateMutability": "view",
            "type": "function"
        },
        {
            "inputs": [
                {
                    "internalType": "contract IStrategy",
                    "name": "strategy",
                    "type": "address"
                },
                {
                    "internalType": "contract IStrategyRouter",
                    "name": "router",
                    "type": "address"
                },
                {
                    "internalType": "bytes",
                    "name": "data",
                    "type": "bytes"
                }
            ],
            "name": "rebalance",
            "outputs": [],
            "stateMutability": "nonpayable",
            "type": "function"
        },
        {
            "inputs": [
                {
                    "internalType": "contract IStrategy",
                    "name": "strategy",
                    "type": "address"
                },
                {
                    "internalType": "address",
                    "name": "adapter",
                    "type": "address"
                },
                {
                    "internalType": "address",
                    "name": "token",
                    "type": "address"
                }
            ],
            "name": "repositionSynths",
            "outputs": [],
            "stateMutability": "nonpayable",
            "type": "function"
        },
        {
            "inputs": [
                {
                    "internalType": "contract IStrategy",
                    "name": "strategy",
                    "type": "address"
                },
                {
                    "components": [
                        {
                            "internalType": "address",
                            "name": "item",
                            "type": "address"
                        },
                        {
                            "internalType": "int256",
                            "name": "percentage",
                            "type": "int256"
                        },
                        {
                            "components": [
                                {
                                    "internalType": "address[]",
                                    "name": "adapters",
                                    "type": "address[]"
                                },
                                {
                                    "internalType": "address[]",
                                    "name": "path",
                                    "type": "address[]"
                                },
                                {
                                    "internalType": "bytes",
                                    "name": "cache",
                                    "type": "bytes"
                                }
                            ],
                            "internalType": "struct StrategyTypes.TradeData",
                            "name": "data",
                            "type": "tuple"
                        }
                    ],
                    "internalType": "struct StrategyTypes.StrategyItem[]",
                    "name": "strategyItems",
                    "type": "tuple[]"
                }
            ],
            "name": "restructure",
            "outputs": [],
            "stateMutability": "nonpayable",
            "type": "function"
        },
        {
            "inputs": [
                {
                    "internalType": "contract IStrategy",
                    "name": "strategy",
                    "type": "address"
                }
            ],
            "name": "setStrategy",
            "outputs": [],
            "stateMutability": "nonpayable",
            "type": "function"
        },
        {
            "inputs": [
                {
                    "internalType": "address",
                    "name": "manager_",
                    "type": "address"
                },
                {
                    "internalType": "address",
                    "name": "strategy_",
                    "type": "address"
                },
                {
                    "components": [
                        {
                            "internalType": "uint32",
                            "name": "timelock",
                            "type": "uint32"
                        },
                        {
                            "internalType": "uint16",
                            "name": "rebalanceThreshold",
                            "type": "uint16"
                        },
                        {
                            "internalType": "uint16",
                            "name": "rebalanceSlippage",
                            "type": "uint16"
                        },
                        {
                            "internalType": "uint16",
                            "name": "restructureSlippage",
                            "type": "uint16"
                        },
                        {
                            "internalType": "uint16",
                            "name": "performanceFee",
                            "type": "uint16"
                        },
                        {
                            "internalType": "bool",
                            "name": "social",
                            "type": "bool"
                        },
                        {
                            "internalType": "bool",
                            "name": "set",
                            "type": "bool"
                        }
                    ],
                    "internalType": "struct StrategyTypes.InitialState",
                    "name": "state_",
                    "type": "tuple"
                },
                {
                    "internalType": "address",
                    "name": "router_",
                    "type": "address"
                },
                {
                    "internalType": "bytes",
                    "name": "data_",
                    "type": "bytes"
                }
            ],
            "name": "setupStrategy",
            "outputs": [],
            "stateMutability": "payable",
            "type": "function"
        },
        {
            "inputs": [
                {
                    "internalType": "address",
                    "name": "strategy",
                    "type": "address"
                }
            ],
            "name": "strategyState",
            "outputs": [
                {
                    "components": [
                        {
                            "internalType": "uint32",
                            "name": "timelock",
                            "type": "uint32"
                        },
                        {
                            "internalType": "uint16",
                            "name": "rebalanceSlippage",
                            "type": "uint16"
                        },
                        {
                            "internalType": "uint16",
                            "name": "restructureSlippage",
                            "type": "uint16"
                        },
                        {
                            "internalType": "bool",
                            "name": "social",
                            "type": "bool"
                        },
                        {
                            "internalType": "bool",
                            "name": "set",
                            "type": "bool"
                        }
                    ],
                    "internalType": "struct StrategyTypes.StrategyState",
                    "name": "",
                    "type": "tuple"
                }
            ],
            "stateMutability": "view",
            "type": "function"
        },
        {
            "inputs": [],
            "name": "updateAddresses",
            "outputs": [],
            "stateMutability": "nonpayable",
            "type": "function"
        },
        {
            "inputs": [
                {
                    "internalType": "contract IStrategy",
                    "name": "strategy",
                    "type": "address"
                },
                {
                    "internalType": "enum StrategyTypes.TimelockCategory",
                    "name": "category",
                    "type": "uint8"
                },
                {
                    "internalType": "uint256",
                    "name": "newValue",
                    "type": "uint256"
                }
            ],
            "name": "updateValue",
            "outputs": [],
            "stateMutability": "nonpayable",
            "type": "function"
        },
        {
            "inputs": [
                {
                    "internalType": "address",
                    "name": "strategy",
                    "type": "address"
                },
                {
                    "components": [
                        {
                            "internalType": "address",
                            "name": "item",
                            "type": "address"
                        },
                        {
                            "internalType": "int256",
                            "name": "percentage",
                            "type": "int256"
                        },
                        {
                            "components": [
                                {
                                    "internalType": "address[]",
                                    "name": "adapters",
                                    "type": "address[]"
                                },
                                {
                                    "internalType": "address[]",
                                    "name": "path",
                                    "type": "address[]"
                                },
                                {
                                    "internalType": "bytes",
                                    "name": "cache",
                                    "type": "bytes"
                                }
                            ],
                            "internalType": "struct StrategyTypes.TradeData",
                            "name": "data",
                            "type": "tuple"
                        }
                    ],
                    "internalType": "struct StrategyTypes.StrategyItem[]",
                    "name": "newItems",
                    "type": "tuple[]"
                }
            ],
            "name": "verifyStructure",
            "outputs": [
                {
                    "internalType": "bool",
                    "name": "",
                    "type": "bool"
                }
            ],
            "stateMutability": "view",
            "type": "function"
        },
        {
            "inputs": [],
            "name": "whitelist",
            "outputs": [
                {
                    "internalType": "contract IWhitelist",
                    "name": "",
                    "type": "address"
                }
            ],
            "stateMutability": "view",
            "type": "function"
        },
        {
            "inputs": [
                {
                    "internalType": "contract IStrategy",
                    "name": "strategy",
                    "type": "address"
                },
                {
                    "internalType": "contract IStrategyRouter",
                    "name": "router",
                    "type": "address"
                },
                {
                    "internalType": "uint256",
                    "name": "amount",
                    "type": "uint256"
                },
                {
                    "internalType": "uint256",
                    "name": "slippage",
                    "type": "uint256"
                },
                {
                    "internalType": "bytes",
                    "name": "data",
                    "type": "bytes"
                }
            ],
            "name": "withdrawETH",
            "outputs": [],
            "stateMutability": "nonpayable",
            "type": "function"
        },
        {
            "inputs": [
                {
                    "internalType": "contract IStrategy",
                    "name": "strategy",
                    "type": "address"
                },
                {
                    "internalType": "contract IStrategyRouter",
                    "name": "router",
                    "type": "address"
                },
                {
                    "internalType": "uint256",
                    "name": "amount",
                    "type": "uint256"
                },
                {
                    "internalType": "uint256",
                    "name": "slippage",
                    "type": "uint256"
                },
                {
                    "internalType": "bytes",
                    "name": "data",
                    "type": "bytes"
                }
            ],
            "name": "withdrawWETH",
            "outputs": [],
            "stateMutability": "nonpayable",
            "type": "function"
        },
        {
            "stateMutability": "payable",
            "type": "receive"
        }
    ],
    "bytecode": "0x60a06040523480156200001157600080fd5b5060405162006182380380620061828339810160408190526200003491620000e6565b603954610100900460ff168062000050575062000050620000e0565b806200005f575060395460ff16155b620000875760405162461bcd60e51b81526004016200007e9062000116565b60405180910390fd5b603954610100900460ff16158015620000b3576039805460ff1961ff0019909116610100171660011790555b6001600160601b0319606083901b166080528015620000d8576039805461ff00191690555b505062000164565b303b1590565b600060208284031215620000f8578081fd5b81516001600160a01b03811681146200010f578182fd5b9392505050565b6020808252602e908201527f496e697469616c697a61626c653a20636f6e747261637420697320616c72656160408201526d191e481a5b9a5d1a585b1a5e995960921b606082015260800190565b60805160601c615ff66200018c60003980611257528061195f5280611e275250615ff66000f3fe6080604052600436106100f35760003560e01c806301843e931461013257806312125b121461015257806333a100ca146101725780634e31a5b414610192578063502117ed146101b2578063716e2615146101d257806371b8dc69146101f25780637240ffa8146102055780637dc0d1d014610218578063805e09b4146102435780638129fc1c146102635780638e734e871461028557806393e59dc1146102a5578063b9471352146102ba578063c45a0155146102da578063cbca47db146102ef578063d5504f021461030f578063dde684a51461032f578063e26db6fc1461035c578063f21f5339146103715761012d565b3661012d576002546001600160a01b0316331461012b5760405162461bcd60e51b815260040161012290615b32565b60405180910390fd5b005b600080fd5b34801561013e57600080fd5b5061012b61014d36600461521e565b610391565b34801561015e57600080fd5b5061012b61016d3660046151d4565b6105fa565b34801561017e57600080fd5b5061012b61018d366004614eb3565b610b1e565b34801561019e57600080fd5b5061012b6101ad366004614eb3565b610bcc565b3480156101be57600080fd5b5061012b6101cd366004615273565b610eef565b3480156101de57600080fd5b5061012b6101ed366004615273565b611005565b61012b610200366004615273565b611053565b61012b610213366004614eeb565b611242565b34801561022457600080fd5b5061022d6112c9565b60405161023a919061543e565b60405180910390f35b34801561024f57600080fd5b5061012b61025e36600461521e565b6112d8565b34801561026f57600080fd5b506102786116be565b60405161023a9190615657565b34801561029157600080fd5b5061012b6102a0366004614eb3565b61174d565b3480156102b157600080fd5b5061022d6117f7565b3480156102c657600080fd5b5061012b6102d5366004615006565b611806565b3480156102e657600080fd5b5061022d61195d565b3480156102fb57600080fd5b5061027861030a366004614eb3565b611981565b34801561031b57600080fd5b5061027861032a366004615006565b61199e565b34801561033b57600080fd5b5061034f61034a366004614eb3565b611da3565b60405161023a9190615dfe565b34801561036857600080fd5b5061012b611e23565b34801561037d57600080fd5b5061012b61038c3660046152cd565b6120b3565b61039a8361221a565b6103a383612242565b6103ac83612282565b6103b5826122d8565b6103be83612377565b826001600160a01b0316634a2f38a56040518163ffffffff1660e01b8152600401600060405180830381600087803b1580156103f957600080fd5b505af115801561040d573d6000803e3d6000fd5b505050506001600160a01b038316600090815260056020908152604080832060069092529091208154600160401b900460ff1615806104645750815460018201546104619163ffffffff9081169061241816565b42115b6104805760405162461bcd60e51b815260040161012290615daa565b6000815460ff16600581111561049257fe5b146104af5760405162461bcd60e51b815260040161012290615c88565b600281810180546040805160206001841615610100026000190190931694909404601f810183900483028501830190915280845260609392918301828280156105395780601f1061050e57610100808354040283529160200191610539565b820191906000526020600020905b81548152906001019060200180831161051c57829003601f168201915b50505050508060200190518101906105519190615085565b905061055d868261199e565b6105795760405162461bcd60e51b815260040161012290615bd5565b61058586868387612444565b815460ff191682556000600183018190556105a49060028401906149e9565b60011515866001600160a01b03167fa98e30a4e169a0e1c0cdf53f9446a31c85cfb3fc6eb004468faf61d487ca196b836040516105e1919061558d565b60405180910390a36105f286612920565b505050505050565b6106038361221a565b61060c83612282565b61061583612377565b826001600160a01b0316634a2f38a56040518163ffffffff1660e01b8152600401600060405180830381600087803b15801561065057600080fd5b505af1158015610664573d6000803e3d6000fd5b50506003546001600160a01b03908116925083168214159050610827576060846001600160a01b031663803c88906040518163ffffffff1660e01b815260040160006040518083038186803b1580156106bc57600080fd5b505afa1580156106d0573d6000803e3d6000fd5b505050506040513d6000823e601f3d908101601f191682016040526106f89190810190615053565b905060005b815181101561082057600082828151811061071457fe5b60200260200101516001600160a01b03166370a08231886040518263ffffffff1660e01b8152600401610747919061543e565b60206040518083038186803b15801561075f57600080fd5b505afa158015610773573d6000803e3d6000fd5b505050506040513d601f19601f82011682018060405250810190610797919061532f565b9050801561081757866001600160a01b0316631434ffac87838686815181106107bc57fe5b6020026020010151886040518563ffffffff1660e01b81526004016107e494939291906154cd565b600060405180830381600087803b1580156107fe57600080fd5b505af1158015610812573d6000803e3d6000fd5b505050505b506001016106fd565b5050610b0f565b6001600160a01b038281161415610af7576040516370a0823160e01b81526000906001600160a01b038316906370a082319061086790889060040161543e565b60206040518083038186803b15801561087f57600080fd5b505afa158015610893573d6000803e3d6000fd5b505050506040513d601f19601f820116820180604052508101906108b7919061532f565b90506000856001600160a01b0316633ebbc9c46000196040518263ffffffff1660e01b81526004016108e9919061543e565b60206040518083038186803b15801561090157600080fd5b505afa158015610915573d6000803e3d6000fd5b505050506040513d601f19601f82011682018060405250810190610939919061532f565b90506060866001600160a01b031663803c88906040518163ffffffff1660e01b815260040160006040518083038186803b15801561097657600080fd5b505afa15801561098a573d6000803e3d6000fd5b505050506040513d6000823e601f3d908101601f191682016040526109b29190810190615053565b905060005b8151811015610aee576000610a6584610a5f8b6001600160a01b0316633ebbc9c48787815181106109e457fe5b60200260200101516040518263ffffffff1660e01b8152600401610a08919061543e565b60206040518083038186803b158015610a2057600080fd5b505afa158015610a34573d6000803e3d6000fd5b505050506040513d601f19601f82011682018060405250810190610a58919061532f565b889061295b565b906129c6565b90508015610ae557886001600160a01b0316631434ffac898389878781518110610a8b57fe5b60200260200101516040518563ffffffff1660e01b8152600401610ab294939291906154cd565b600060405180830381600087803b158015610acc57600080fd5b505af1158015610ae0573d6000803e3d6000fd5b505050505b506001016109b7565b50505050610b0f565b60405162461bcd60e51b815260040161012290615813565b610b1884612920565b50505050565b610b278161221a565b610b3081612282565b610b3981612377565b6001600160a01b03811660009081526005602052604090208054600160481b900460ff1615610b7a5760405162461bcd60e51b8152600401610122906156bb565b805460ff60481b1916600160481b1781556040516001600160a01b038316907fe70d79dad95c835bdd87e9cf4665651c9e5abb3b756e4fd2bf45f29c95c3aa4090600090a2610bc882612920565b5050565b610bd58161221a565b610bde81612282565b6001600160a01b0381166000908152600560209081526040808320600690925282209091815460ff166005811115610c1257fe5b1415610c305760405162461bcd60e51b815260040161012290615c88565b8154600160401b900460ff161580610c60575081546001820154610c5d9163ffffffff9081169061241816565b42115b610c7c5760405162461bcd60e51b815260040161012290615daa565b600281810180546040805160206001841615610100026000190190931694909404601f81018390048302850183019091528084526000939291830182828015610d065780601f10610cdb57610100808354040283529160200191610d06565b820191906000526020600020905b815481529060010190602001808311610ce957829003601f168201915b5050505050806020019051810190610d1e919061532f565b90506004825460ff166005811115610d3257fe5b1415610d5057825463ffffffff191663ffffffff8216178355610e94565b6002825460ff166005811115610d6257fe5b1415610d8557825461ffff60201b1916600160201b61ffff831602178355610e94565b6003825460ff166005811115610d9757fe5b1415610dba57825461ffff60301b1916600160301b61ffff831602178355610e94565b6001825460ff166005811115610dcc57fe5b1415610e3557604051631ae8a0f160e31b81526001600160a01b0385169063d745078890610dfe908490600401615e4c565b600060405180830381600087803b158015610e1857600080fd5b505af1158015610e2c573d6000803e3d6000fd5b50505050610e94565b60405163709ac1c360e01b81526001600160a01b0385169063709ac1c390610e61908490600401615e4c565b600060405180830381600087803b158015610e7b57600080fd5b505af1158015610e8f573d6000803e3d6000fd5b505050505b81546040516001916001600160a01b03871691600080516020615fa183398151915291610ec89160ff909116908690615662565b60405180910390a3815460ff19168255600060018301819055610b0f9060028401906149e9565b610ef88561221a565b610f0185612282565b600080610f118787878787612a2a565b9092509050610f2b6001600160a01b038316883084613306565b604051632e1a7d4d60e01b81526001600160a01b03831690632e1a7d4d90610f57908490600401615e5b565b600060405180830381600087803b158015610f7157600080fd5b505af1158015610f85573d6000803e3d6000fd5b505050506000336001600160a01b031682604051610fa29061543b565b60006040518083038185875af1925050503d8060008114610fdf576040519150601f19603f3d011682016040523d82523d6000602084013e610fe4565b606091505b5050905080610ff257600080fd5b610ffb88612920565b5050505050505050565b61100e8561221a565b61101785612282565b6000806110278787878787612a2a565b90925090506110416001600160a01b038316883384613306565b61104a87612920565b50505050505050565b61105c8561221a565b61106585612282565b61106e8561335e565b846001600160a01b0316634a2f38a56040518163ffffffff1660e01b8152600401600060405180830381600087803b1580156110a957600080fd5b505af11580156110bd573d6000803e3d6000fd5b50505050846001600160a01b031663939a2bfc6040518163ffffffff1660e01b8152600401600060405180830381600087803b1580156110fc57600080fd5b505af1158015611110573d6000803e3d6000fd5b50505050600060606111206112c9565b6001600160a01b031663ff4a1902886040518263ffffffff1660e01b815260040161114b919061543e565b60006040518083038186803b15801561116357600080fd5b505afa158015611177573d6000803e3d6000fd5b505050506040513d6000823e601f3d908101601f1916820160405261119f9190810190615347565b91509150600073__$59902e9d6730bb3d0c2c9d68301f7cefef$__63fa88c0538985856040518463ffffffff1660e01b81526004016111e0939291906154f8565b60206040518083038186803b1580156111f857600080fd5b505af415801561120c573d6000803e3d6000fd5b505050506040513d601f19601f82011682018060405250810190611230919061532f565b9050610ff2888833898988878b613429565b8361124c81612282565b336001600160a01b037f000000000000000000000000000000000000000000000000000000000000000016146112945760405162461bcd60e51b815260040161012290615d2f565b61129e8585613af4565b34156112c0576112c08184886000886060015161ffff16600060001989613429565b6105f281612920565b6001546001600160a01b031690565b6112e18361221a565b6112ea83612282565b6112f3826122d8565b6112fc83612377565b826001600160a01b0316634a2f38a56040518163ffffffff1660e01b8152600401600060405180830381600087803b15801561133757600080fd5b505af115801561134b573d6000803e3d6000fd5b50506001546040516323c4ca7960e01b81526000935083925060609173__$59902e9d6730bb3d0c2c9d68301f7cefef$__916323c4ca799161139b918a916001600160a01b03169060040161546b565b60006040518083038186803b1580156113b357600080fd5b505af41580156113c7573d6000803e3d6000fd5b505050506040513d6000823e601f3d908101601f191682016040526113ef919081019061517d565b92509250925082156114135760405162461bcd60e51b815260040161012290615769565b6000856001600160a01b031663ef430aa66040518163ffffffff1660e01b815260040160206040518083038186803b15801561144e57600080fd5b505afa158015611462573d6000803e3d6000fd5b505050506040513d601f19601f820116820180604052508101906114869190615310565b600381111561149157fe5b146114bb5781816040516020016114a9929190615e64565b60405160208183030381529060405293505b6115b286876001600160a01b031663c06fad066040518163ffffffff1660e01b815260040160006040518083038186803b1580156114f857600080fd5b505afa15801561150c573d6000803e3d6000fd5b505050506040513d6000823e601f3d908101601f191682016040526115349190810190615053565b886001600160a01b0316630dca59c16040518163ffffffff1660e01b815260040160006040518083038186803b15801561156d57600080fd5b505afa158015611581573d6000803e3d6000fd5b505050506040513d6000823e601f3d908101601f191682016040526115a99190810190615053565b88600019613db3565b6115be86868487613e94565b506116b586876001600160a01b031663c06fad066040518163ffffffff1660e01b815260040160006040518083038186803b1580156115fc57600080fd5b505afa158015611610573d6000803e3d6000fd5b505050506040513d6000823e601f3d908101601f191682016040526116389190810190615053565b886001600160a01b0316630dca59c16040518163ffffffff1660e01b815260040160006040518083038186803b15801561167157600080fd5b505afa158015611685573d6000803e3d6000fd5b505050506040513d6000823e601f3d908101601f191682016040526116ad9190810190615053565b886000613db3565b6105f286612920565b603954600090610100900460ff16806116da57506116da614106565b806116e8575060395460ff16155b6117045760405162461bcd60e51b8152600401610122906159d2565b603954610100900460ff1615801561172f576039805460ff1961ff0019909116610100171660011790555b611737611e23565b8015611749576039805461ff00191690555b5090565b6117568161221a565b61175f81612282565b61176881612377565b6001600160a01b03811660009081526005602052604090208054600160401b900460ff16156117a95760405162461bcd60e51b81526004016101229061578b565b805460ff60401b1916600160401b1781556040516001600160a01b038316907f4c3f1eed13ac6b6e115341feddd01b83784de7f9a83dfad12fadf1edd757f46a90600090a2610bc882612920565b6000546001600160a01b031690565b61180f8261221a565b61181882612242565b61182182612282565b61182a82612377565b6001600160a01b03821660009081526006602052604090206001810154158061188257506001600160a01b038316600090815260056020526040902054600182015461187f9163ffffffff9081169061241816565b42115b61189e5760405162461bcd60e51b815260040161012290615daa565b6118a8838361199e565b6118c45760405162461bcd60e51b815260040161012290615bd5565b805460ff191681554260018201556040516118e390839060200161558d565b604051602081830303815290604052816002019080519060200190611909929190614a2d565b5060001515836001600160a01b03167fa98e30a4e169a0e1c0cdf53f9446a31c85cfb3fc6eb004468faf61d487ca196b84604051611947919061558d565b60405180910390a361195883612920565b505050565b7f000000000000000000000000000000000000000000000000000000000000000081565b6001600160a01b0316600090815260046020526040902054151590565b6000808251116119c05760405162461bcd60e51b815260040161012290615735565b60006001600160a01b0316826000815181106119d857fe5b6020026020010151600001516001600160a01b03161415611a0b5760405162461bcd60e51b8152600401610122906158b0565b6000196001600160a01b031682600184510381518110611a2757fe5b6020026020010151600001516001600160a01b03161415611a5a5760405162461bcd60e51b8152600401610122906158b0565b6000611a646112c9565b6001600160a01b0316639d23c4c76040518163ffffffff1660e01b815260040160206040518083038186803b158015611a9c57600080fd5b505afa158015611ab0573d6000803e3d6000fd5b505050506040513d601f19601f82011682018060405250810190611ad49190614ecf565b90506000805b8451811015611d74576000858281518110611af157fe5b60200260200101516000015190508160001480611b505750856001830381518110611b1857fe5b6020026020010151600001516001600160a01b0316868381518110611b3957fe5b6020026020010151600001516001600160a01b0316115b611b6c5760405162461bcd60e51b81526004016101229061570e565b6000868381518110611b7a57fe5b602002602001015160200151905060026003811115611b9557fe5b6040516325f4e77960e21b81526001600160a01b038716906397d39de490611bc190869060040161543e565b60206040518083038186803b158015611bd957600080fd5b505afa158015611bed573d6000803e3d6000fd5b505050506040513d601f19601f82011682018060405250810190611c11919061532f565b1415611c60576000811315611c385760405162461bcd60e51b81526004016101229061583e565b61270f19811215611c5b5760405162461bcd60e51b815260040161012290615b84565b611ca3565b6000811215611c815760405162461bcd60e51b815260040161012290615921565b612710811315611ca35760405162461bcd60e51b815260040161012290615b84565b6040516346a7483760e01b81526000906001600160a01b038716906346a7483790611cd290869060040161543e565b60206040518083038186803b158015611cea57600080fd5b505afa158015611cfe573d6000803e3d6000fd5b505050506040513d601f19601f82011682018060405250810190611d22919061532f565b90506003811415611d455760405162461bcd60e51b815260040161012290615a61565b6002811415611d5957611d5989848861410c565b611d63858361430e565b94505060019092019150611ada9050565b506103e88114611d965760405162461bcd60e51b815260040161012290615953565b6001925050505b92915050565b611dab614aa7565b506001600160a01b0316600090815260056020908152604091829020825160a081018452905463ffffffff8116825261ffff600160201b8204811693830193909352600160301b81049092169281019290925260ff600160401b8204811615156060840152600160481b909104161515608082015290565b60007f00000000000000000000000000000000000000000000000000000000000000009050806001600160a01b03166393e59dc16040518163ffffffff1660e01b815260040160206040518083038186803b158015611e8157600080fd5b505afa158015611e95573d6000803e3d6000fd5b505050506040513d601f19601f82011682018060405250810190611eb99190614ecf565b6000806101000a8154816001600160a01b0302191690836001600160a01b031602179055506000816001600160a01b0316637dc0d1d06040518163ffffffff1660e01b815260040160206040518083038186803b158015611f1957600080fd5b505afa158015611f2d573d6000803e3d6000fd5b505050506040513d601f19601f82011682018060405250810190611f519190614ecf565b6001549091506001600160a01b03808316911614610bc857600180546001600160a01b0319166001600160a01b03831690811790915560408051633fc8cef360e01b81529051839291633fc8cef3916004808301926020929190829003018186803b158015611fbf57600080fd5b505afa158015611fd3573d6000803e3d6000fd5b505050506040513d601f19601f82011682018060405250810190611ff79190614ecf565b600260006101000a8154816001600160a01b0302191690836001600160a01b03160217905550806001600160a01b031663c92577756040518163ffffffff1660e01b815260040160206040518083038186803b15801561205657600080fd5b505afa15801561206a573d6000803e3d6000fd5b505050506040513d601f19601f8201168201806040525081019061208e9190614ecf565b600380546001600160a01b0319166001600160a01b0392909216919091179055505050565b6120bc8361221a565b6120c583612282565b6120ce83612377565b6001600160a01b03831660009081526006602052604090206001810154158061212657506001600160a01b03841660009081526005602052604090205460018201546121239163ffffffff9081169061241816565b42115b6121425760405162461bcd60e51b815260040161012290615daa565b600083600581111561215057fe5b141561215b57600080fd5b600483600581111561216957fe5b146121805761217b8484846000614354565b6121b6565b60001515846001600160a01b0316600080516020615fa183398151915285856040516121ad929190615662565b60405180910390a35b80548390829060ff191660018360058111156121ce57fe5b02179055504260018201556040516121ea908390602001615e5b565b604051602081830303815290604052816002019080519060200190612210929190614a2d565b50610b1884612920565b61222381611981565b61223f5760405162461bcd60e51b815260040161012290615983565b50565b6001600160a01b038116600090815260056020526040902054600160481b900460ff161561223f5760405162461bcd60e51b815260040161012290615b54565b806001600160a01b031663f83d08ba6040518163ffffffff1660e01b8152600401600060405180830381600087803b1580156122bd57600080fd5b505af11580156122d1573d6000803e3d6000fd5b5050505050565b6122e06117f7565b6001600160a01b031663d8b964e6826040518263ffffffff1660e01b815260040161230b919061543e565b60206040518083038186803b15801561232357600080fd5b505afa158015612337573d6000803e3d6000fd5b505050506040513d601f19601f8201168201806040525081019061235b9190615161565b61223f5760405162461bcd60e51b8152600401610122906159ac565b806001600160a01b031663481c6a756040518163ffffffff1660e01b815260040160206040518083038186803b1580156123b057600080fd5b505afa1580156123c4573d6000803e3d6000fd5b505050506040513d601f19601f820116820180604052508101906123e89190614ecf565b6001600160a01b0316336001600160a01b03161461223f5760405162461bcd60e51b8152600401610122906156e9565b60008282018381101561243d5760405162461bcd60e51b8152600401610122906157ba565b9392505050565b600061244e6112c9565b905060006060826001600160a01b031663ff4a1902886040518263ffffffff1660e01b8152600401612480919061543e565b60006040518083038186803b15801561249857600080fd5b505afa1580156124ac573d6000803e3d6000fd5b505050506040513d6000823e601f3d908101601f191682016040526124d49190810190615347565b915091506060876001600160a01b031663c06fad066040518163ffffffff1660e01b815260040160006040518083038186803b15801561251357600080fd5b505afa158015612527573d6000803e3d6000fd5b505050506040513d6000823e601f3d908101601f1916820160405261254f9190810190615053565b90506060886001600160a01b0316630dca59c16040518163ffffffff1660e01b815260040160006040518083038186803b15801561258c57600080fd5b505afa1580156125a0573d6000803e3d6000fd5b505050506040513d6000823e601f3d908101601f191682016040526125c89190810190615053565b90506000886001600160a01b031663ef430aa66040518163ffffffff1660e01b815260040160206040518083038186803b15801561260557600080fd5b505afa158015612619573d6000803e3d6000fd5b505050506040513d601f19601f8201168201806040525081019061263d9190615310565b600381111561264857fe5b1461267657838383836040516020016126649493929190615e7d565b60405160208183030381529060405295505b60405163d81076a360e01b81526001600160a01b038a169063d81076a3906126a2908a9060040161558d565b600060405180830381600087803b1580156126bc57600080fd5b505af11580156126d0573d6000803e3d6000fd5b505050506126e38983838b600019613db3565b604051630ba11d5d60e41b81526001600160a01b0389169063ba11d5d090612711908c908a906004016154a9565b600060405180830381600087803b15801561272b57600080fd5b505af115801561273f573d6000803e3d6000fd5b505050506127518983838b6000613db3565b6001546040516323c4ca7960e01b8152600091829173__$59902e9d6730bb3d0c2c9d68301f7cefef$__916323c4ca799161279c918f916001600160a01b039091169060040161546b565b60006040518083038186803b1580156127b457600080fd5b505af41580156127c8573d6000803e3d6000fd5b505050506040513d6000823e601f3d908101601f191682016040526127f0919081019061517d565b5091509150816128125760405162461bcd60e51b815260040161012290615c00565b6001600160a01b038b166000908152600560205260409020546128439082908890600160301b900461ffff16614397565b8a6001600160a01b031663dbbc5aca828d6001600160a01b03166318160ddd6040518163ffffffff1660e01b815260040160206040518083038186803b15801561288c57600080fd5b505afa1580156128a0573d6000803e3d6000fd5b505050506040513d601f19601f820116820180604052508101906128c4919061532f565b6040518363ffffffff1660e01b81526004016128e1929190615ebc565b600060405180830381600087803b1580156128fb57600080fd5b505af115801561290f573d6000803e3d6000fd5b505050505050505050505050505050565b806001600160a01b031663a69df4b56040518163ffffffff1660e01b8152600401600060405180830381600087803b1580156122bd57600080fd5b60008261296a57506000611d9d565b8260001914801561297e5750600160ff1b82145b1561299b5760405162461bcd60e51b815260040161012290615ac9565b828202828482816129a857fe5b051461243d5760405162461bcd60e51b815260040161012290615ac9565b6000816129e55760405162461bcd60e51b815260040161012290615cfa565b816000191480156129f95750600160ff1b83145b15612a165760405162461bcd60e51b815260040161012290615a20565b6000828481612a2157fe5b05949350505050565b60008060008511612a4d5760405162461bcd60e51b815260040161012290615b10565b612a56846143c6565b866001600160a01b0316634a2f38a56040518163ffffffff1660e01b8152600401600060405180830381600087803b158015612a9157600080fd5b505af1158015612aa5573d6000803e3d6000fd5b50505050866001600160a01b031663939a2bfc6040518163ffffffff1660e01b8152600401600060405180830381600087803b158015612ae457600080fd5b505af1158015612af8573d6000803e3d6000fd5b505050506000612b066112c9565b905060006060826001600160a01b031663ff4a19028b6040518263ffffffff1660e01b8152600401612b38919061543e565b60006040518083038186803b158015612b5057600080fd5b505afa158015612b64573d6000803e3d6000fd5b505050506040513d6000823e601f3d908101601f19168201604052612b8c9190810190615347565b91509150600073__$59902e9d6730bb3d0c2c9d68301f7cefef$__63fa88c0538c85856040518463ffffffff1660e01b8152600401612bcd939291906154f8565b60206040518083038186803b158015612be557600080fd5b505af4158015612bf9573d6000803e3d6000fd5b505050506040513d601f19601f82011682018060405250810190612c1d919061532f565b905060008b6001600160a01b03166318160ddd6040518163ffffffff1660e01b815260040160206040518083038186803b158015612c5a57600080fd5b505afa158015612c6e573d6000803e3d6000fd5b505050506040513d601f19601f82011682018060405250810190612c92919061532f565b604051632770a7eb60e21b81529091506001600160a01b038d1690639dc29fac90612cc39033908e90600401615452565b602060405180830381600087803b158015612cdd57600080fd5b505af1158015612cf1573d6000803e3d6000fd5b505050506040513d601f19601f82011682018060405250810190612d15919061532f565b9950612d2b81612d25868d6143e8565b90614422565b955060008b6001600160a01b031663ef430aa66040518163ffffffff1660e01b815260040160206040518083038186803b158015612d6857600080fd5b505afa158015612d7c573d6000803e3d6000fd5b505050506040513d601f19601f82011682018060405250810190612da09190615310565b6003811115612dab57fe5b14612df2576000612dc882612d258d670de0b6b3a76400006143e8565b9050808585604051602001612ddf93929190615eca565b6040516020818303038152906040529850505b50612eea8b8c6001600160a01b031663c06fad066040518163ffffffff1660e01b815260040160006040518083038186803b158015612e3057600080fd5b505afa158015612e44573d6000803e3d6000fd5b505050506040513d6000823e601f3d908101601f19168201604052612e6c9190810190615053565b8d6001600160a01b0316630dca59c16040518163ffffffff1660e01b815260040160006040518083038186803b158015612ea557600080fd5b505afa158015612eb9573d6000803e3d6000fd5b505050506040513d6000823e601f3d908101601f19168201604052612ee19190810190615053565b8d600019613db3565b6040516312ede2c560e21b81526001600160a01b038b1690634bb78b1490612f18908e908b906004016154a9565b600060405180830381600087803b158015612f3257600080fd5b505af1158015612f46573d6000803e3d6000fd5b505050506130408b8c6001600160a01b031663c06fad066040518163ffffffff1660e01b815260040160006040518083038186803b158015612f8757600080fd5b505afa158015612f9b573d6000803e3d6000fd5b505050506040513d6000823e601f3d908101601f19168201604052612fc39190810190615053565b8d6001600160a01b0316630dca59c16040518163ffffffff1660e01b815260040160006040518083038186803b158015612ffc57600080fd5b505afa158015613010573d6000803e3d6000fd5b505050506040513d6000823e601f3d908101601f191682016040526130389190810190615053565b8d6000613db3565b60006060856001600160a01b031663ff4a19028e6040518263ffffffff1660e01b8152600401613070919061543e565b60006040518083038186803b15801561308857600080fd5b505afa15801561309c573d6000803e3d6000fd5b505050506040513d6000823e601f3d908101601f191682016040526130c49190810190615347565b91509150600260009054906101000a90046001600160a01b031697506000886001600160a01b03166370a082318f6040518263ffffffff1660e01b815260040161310e919061543e565b60206040518083038186803b15801561312657600080fd5b505afa15801561313a573d6000803e3d6000fd5b505050506040513d601f19601f8201168201806040525081019061315e919061532f565b90506000838711156131a15760006131768886614461565b9050898111156131985760405162461bcd60e51b815260040161012290615c5d565b890390506131a4565b50875b818111156131bf576131b7828a8e614397565b8198506131ce565b6131ca818a8e614397565b8098505b5073__$59902e9d6730bb3d0c2c9d68301f7cefef$__9050636a5ff7638e856131f7868c614461565b856040518563ffffffff1660e01b81526004016132179493929190615528565b60006040518083038186803b15801561322f57600080fd5b505af4158015613243573d6000803e3d6000fd5b505050508c6001600160a01b031663da3e339789308a6040518463ffffffff1660e01b815260040161327793929190615485565b600060405180830381600087803b15801561329157600080fd5b505af11580156132a5573d6000803e3d6000fd5b50505050336001600160a01b03168d6001600160a01b03167ff341246adaac6f497bc2a656f546ab9e182111d630394f0c57c710a59a2cb567898e6040516132ee929190615ebc565b60405180910390a35050505050509550959350505050565b610b18846323b872dd60e01b85858560405160240161332793929190615485565b60408051601f198184030181529190526020810180516001600160e01b03166001600160e01b0319909316929092179091526144a3565b806001600160a01b031663481c6a756040518163ffffffff1660e01b815260040160206040518083038186803b15801561339757600080fd5b505afa1580156133ab573d6000803e3d6000fd5b505050506040513d601f19601f820116820180604052508101906133cf9190614ecf565b6001600160a01b0316336001600160a01b0316148061340d57506001600160a01b038116600090815260056020526040902054600160401b900460ff165b61223f5760405162461bcd60e51b8152600401610122906156e9565b613432876122d8565b61343b846143c6565b6134bd88896001600160a01b0316630dca59c16040518163ffffffff1660e01b815260040160006040518083038186803b15801561347857600080fd5b505afa15801561348c573d6000803e3d6000fd5b505050506040513d6000823e601f3d908101601f191682016040526134b49190810190615053565b89600019614532565b60006134c76112c9565b9050341561368d5785156134ed5760405162461bcd60e51b815260040161012290615bab565b60025460408051630d0e30db60e41b815290513498506001600160a01b0390921691829163d0e30db0918a9160048082019260009290919082900301818588803b15801561353a57600080fd5b505af115801561354e573d6000803e3d6000fd5b50613569935050506001600160a01b03831690508a896147ac565b6000896001600160a01b031663ef430aa66040518163ffffffff1660e01b815260040160206040518083038186803b1580156135a457600080fd5b505afa1580156135b8573d6000803e3d6000fd5b505050506040513d601f19601f820116820180604052508101906135dc9190615310565b60038111156135e757fe5b146136115730876040516020016135ff929190615452565b60405160208183030381529060405292505b60405163cf2c52cb60e01b81526001600160a01b038a169063cf2c52cb9061363f908d9087906004016154a9565b600060405180830381600087803b15801561365957600080fd5b505af115801561366d573d6000803e3d6000fd5b50613687925050506001600160a01b0382168a60006147ac565b50613796565b6000886001600160a01b031663ef430aa66040518163ffffffff1660e01b815260040160206040518083038186803b1580156136c857600080fd5b505afa1580156136dc573d6000803e3d6000fd5b505050506040513d601f19601f820116820180604052508101906137009190615310565b600381111561370b57fe5b14613735578686604051602001613723929190615452565b60405160208183030381529060405291505b60405163cf2c52cb60e01b81526001600160a01b0389169063cf2c52cb90613763908c9086906004016154a9565b600060405180830381600087803b15801561377d57600080fd5b505af1158015613791573d6000803e3d6000fd5b505050505b613817898a6001600160a01b0316630dca59c16040518163ffffffff1660e01b815260040160006040518083038186803b1580156137d357600080fd5b505afa1580156137e7573d6000803e3d6000fd5b505050506040513d6000823e601f3d908101601f1916820160405261380f9190810190615053565b8a6000614532565b60006060826001600160a01b031663ff4a19028c6040518263ffffffff1660e01b8152600401613847919061543e565b60006040518083038186803b15801561385f57600080fd5b505afa158015613873573d6000803e3d6000fd5b505050506040513d6000823e601f3d908101601f1916820160405261389b9190810190615347565b915091508582116138be5760405162461bcd60e51b8152600401610122906157ef565b604051636a5ff76360e01b815273__$59902e9d6730bb3d0c2c9d68301f7cefef$__90636a5ff763906138fb908e90899087908790600401615528565b60006040518083038186803b15801561391357600080fd5b505af4158015613927573d6000803e3d6000fd5b505050868303905061393a818a8a614397565b60008c6001600160a01b03166318160ddd6040518163ffffffff1660e01b815260040160206040518083038186803b15801561397557600080fd5b505afa158015613989573d6000803e3d6000fd5b505050506040513d601f19601f820116820180604052508101906139ad919061532f565b905060008082116139be57846139cc565b6139cc89612d2584866143e8565b90506001600160a01b038e1663dbbc5aca866139e88585612418565b6040518363ffffffff1660e01b8152600401613a05929190615ebc565b600060405180830381600087803b158015613a1f57600080fd5b505af1158015613a33573d6000803e3d6000fd5b505050508d6001600160a01b03166340c10f198d836040518363ffffffff1660e01b8152600401613a65929190615452565b600060405180830381600087803b158015613a7f57600080fd5b505af1158015613a93573d6000803e3d6000fd5b505050508b6001600160a01b03168e6001600160a01b03167fdcbc1c05240f31ff3ad067ef1ee35ce4997762752e3a095284754544f4c709d78d84604051613adc929190615ebc565b60405180910390a35050505050505050505050505050565b613b0a826005836080015161ffff166001614354565b613b20826001836020015161ffff166001614354565b613b36826002836040015161ffff166001614354565b613b4c826003836060015161ffff166001614354565b6001600160a01b038216600081815260046020818152604080842060019055805160a08082018352875163ffffffff90811683528884015161ffff9081168487019081526060808c01518316868801908152948c0151151590860190815260c08c0151151560808088019182528c8c52600590995299879020955186549251955191519a5163ffffffff1990931694169390931761ffff60201b1916600160201b948316949094029390931761ffff60301b1916600160301b92909116919091021760ff60401b1916600160401b961515969096029590951760ff60481b1916600160481b9515159590950294909417909355840151915163709ac1c360e01b815263709ac1c392613c6092909101615e4c565b600060405180830381600087803b158015613c7a57600080fd5b505af1158015613c8e573d6000803e3d6000fd5b5050506020820151604051631ae8a0f160e31b81526001600160a01b038516925063d745078891613cc191600401615e4c565b600060405180830381600087803b158015613cdb57600080fd5b505af1158015613cef573d6000803e3d6000fd5b505050508060a0015115613d32576040516001600160a01b038316907f4c3f1eed13ac6b6e115341feddd01b83784de7f9a83dfad12fadf1edd757f46a90600090a25b8060c0015115613d71576040516001600160a01b038316907fe70d79dad95c835bdd87e9cf4665651c9e5abb3b756e4fd2bf45f29c95c3aa4090600090a25b80516040516001916001600160a01b03851691600080516020615fa183398151915291613da79160049163ffffffff1690615662565b60405180910390a35050565b60025460405163da3e339760e01b81526001600160a01b038781169263da3e339792613de9929091169086908690600401615485565b600060405180830381600087803b158015613e0357600080fd5b505af1158015613e17573d6000803e3d6000fd5b50505050600084511115613e8857604051630eaa4c9560e21b81526001600160a01b03861690633aa9325490613e559087908690869060040161555f565b600060405180830381600087803b158015613e6f57600080fd5b505af1158015613e83573d6000803e3d6000fd5b505050505b6122d185848484614532565b60405163750f53af60e11b81526000906001600160a01b0385169063ea1ea75e90613ec590889086906004016154a9565b600060405180830381600087803b158015613edf57600080fd5b505af1158015613ef3573d6000803e3d6000fd5b50506001546040516323c4ca7960e01b81526000935083925073__$59902e9d6730bb3d0c2c9d68301f7cefef$__916323c4ca7991613f42918b916001600160a01b039091169060040161546b565b60006040518083038186803b158015613f5a57600080fd5b505af4158015613f6e573d6000803e3d6000fd5b505050506040513d6000823e601f3d908101601f19168201604052613f96919081019061517d565b509150915081613fb85760405162461bcd60e51b815260040161012290615c00565b6001600160a01b038716600090815260056020526040902054613fe99082908790600160201b900461ffff16614397565b866001600160a01b031663dbbc5aca82896001600160a01b03166318160ddd6040518163ffffffff1660e01b815260040160206040518083038186803b15801561403257600080fd5b505afa158015614046573d6000803e3d6000fd5b505050506040513d601f19601f8201168201806040525081019061406a919061532f565b6040518363ffffffff1660e01b8152600401614087929190615ebc565b600060405180830381600087803b1580156140a157600080fd5b505af11580156140b5573d6000803e3d6000fd5b50505050866001600160a01b03167f3c68b618895163690097ea6be7a9e23fd831b0ba9eb05d65df5a4c20164caee786836040516140f4929190615ebc565b60405180910390a29695505050505050565b303b1590565b826001600160a01b0316826001600160a01b0316141561413e5760405162461bcd60e51b815260040161012290615dd3565b816001600160a01b031663494089496040518163ffffffff1660e01b815260040160206040518083038186803b15801561417757600080fd5b505afa15801561418b573d6000803e3d6000fd5b505050506040513d601f19601f820116820180604052508101906141af9190615161565b156141cc5760405162461bcd60e51b81526004016101229061568d565b6060826001600160a01b031663c06fad066040518163ffffffff1660e01b815260040160006040518083038186803b15801561420757600080fd5b505afa15801561421b573d6000803e3d6000fd5b505050506040513d6000823e601f3d908101601f191682016040526142439190810190615053565b905060005b81518110156122d1576002836001600160a01b03166346a7483784848151811061426e57fe5b60200260200101516040518263ffffffff1660e01b8152600401614292919061543e565b60206040518083038186803b1580156142aa57600080fd5b505afa1580156142be573d6000803e3d6000fd5b505050506040513d601f19601f820116820180604052508101906142e2919061532f565b141561430657614306858383815181106142f857fe5b60200260200101518561410c565b600101614248565b60008282018183128015906143235750838112155b80614338575060008312801561433857508381125b61243d5760405162461bcd60e51b81526004016101229061586f565b61435d826143c6565b801515846001600160a01b0316600080516020615fa18339815191528585604051614389929190615662565b60405180910390a350505050565b6143a76103e8612d2584846143e8565b8310156119585760405162461bcd60e51b815260040161012290615c5d565b6103e881111561223f5760405162461bcd60e51b815260040161012290615b84565b6000826143f757506000611d9d565b8282028284828161440457fe5b041461243d5760405162461bcd60e51b815260040161012290615a88565b600061243d83836040518060400160405280601a815260200179536166654d6174683a206469766973696f6e206279207a65726f60301b81525061486f565b600061243d83836040518060400160405280601e81526020017f536166654d6174683a207375627472616374696f6e206f766572666c6f7700008152506148a6565b60606144f8826040518060400160405280602081526020017f5361666545524332303a206c6f772d6c6576656c2063616c6c206661696c6564815250856001600160a01b03166148d29092919063ffffffff16565b80519091501561195857808060200190518101906145169190615161565b6119585760405162461bcd60e51b815260040161012290615cb0565b82511561459c5760405163081bd8a560e41b81526001600160a01b038516906381bd8a50906145699086908690869060040161555f565b600060405180830381600087803b15801561458357600080fd5b505af1158015614597573d6000803e3d6000fd5b505050505b836001600160a01b031663d1cc8c9d6040518163ffffffff1660e01b815260040160206040518083038186803b1580156145d557600080fd5b505afa1580156145e9573d6000803e3d6000fd5b505050506040513d601f19601f8201168201806040525081019061460d9190615161565b156146da578061467b5760405163c0d7865560e01b81526001600160a01b0385169063c0d78655906146449060009060040161543e565b600060405180830381600087803b15801561465e57600080fd5b505af1158015614672573d6000803e3d6000fd5b505050506146da565b60405163c0d7865560e01b81526001600160a01b0385169063c0d78655906146a790859060040161543e565b600060405180830381600087803b1580156146c157600080fd5b505af11580156146d5573d6000803e3d6000fd5b505050505b836001600160a01b031663494089496040518163ffffffff1660e01b815260040160206040518083038186803b15801561471357600080fd5b505afa158015614727573d6000803e3d6000fd5b505050506040513d601f19601f8201168201806040525081019061474b9190615161565b15610b185760405163bfba814160e01b81526001600160a01b0385169063bfba81419061477e9085908590600401615452565b600060405180830381600087803b15801561479857600080fd5b505af1158015610ffb573d6000803e3d6000fd5b8015806148345750604051636eb1769f60e11b81526001600160a01b0384169063dd62ed3e906147e2903090869060040161546b565b60206040518083038186803b1580156147fa57600080fd5b505afa15801561480e573d6000803e3d6000fd5b505050506040513d601f19601f82011682018060405250810190614832919061532f565b155b6148505760405162461bcd60e51b815260040161012290615d54565b6119588363095ea7b360e01b8484604051602401613327929190615452565b600081836148905760405162461bcd60e51b8152600401610122919061567a565b50600083858161489c57fe5b0495945050505050565b600081848411156148ca5760405162461bcd60e51b8152600401610122919061567a565b505050900390565b60606148e184846000856148e9565b949350505050565b60608247101561490b5760405162461bcd60e51b8152600401610122906158db565b614914856149aa565b6149305760405162461bcd60e51b815260040161012290615c26565b60006060866001600160a01b0316858760405161494d919061541f565b60006040518083038185875af1925050503d806000811461498a576040519150601f19603f3d011682016040523d82523d6000602084013e61498f565b606091505b509150915061499f8282866149b0565b979650505050505050565b3b151590565b606083156149bf57508161243d565b8251156149cf5782518084602001fd5b8160405162461bcd60e51b8152600401610122919061567a565b50805460018160011615610100020316600290046000825580601f10614a0f575061223f565b601f01602090049060005260206000209081019061223f9190614ad5565b828054600181600116156101000203166002900490600052602060002090601f016020900481019282601f10614a6e57805160ff1916838001178555614a9b565b82800160010185558215614a9b579182015b82811115614a9b578251825591602001919060010190614a80565b50611749929150614ad5565b6040805160a08101825260008082526020820181905291810182905260608101829052608081019190915290565b5b808211156117495760008155600101614ad6565b8035611d9d81615f7d565b8051611d9d81615f7d565b600082601f830112614b10578081fd5b8135614b23614b1e82615f0f565b615ee9565b818152915060208083019084810181840286018201871015614b4457600080fd5b60005b84811015614b6c578135614b5a81615f7d565b84529282019290820190600101614b47565b505050505092915050565b600082601f830112614b87578081fd5b8151614b95614b1e82615f0f565b818152915060208083019084810181840286018201871015614bb657600080fd5b60005b84811015614b6c578151614bcc81615f7d565b84529282019290820190600101614bb9565b600082601f830112614bee578081fd5b8151614bfc614b1e82615f0f565b818152915060208083019084810181840286018201871015614c1d57600080fd5b60005b84811015614b6c57815184529282019290820190600101614c20565b600082601f830112614c4c578081fd5b8135614c5a614b1e82615f0f565b818152915060208083019084810160005b84811015614b6c5781358701601f196060828b0382011215614c8c57600080fd5b614c966060615ee9565b85830135614ca381615f7d565b815260408301358682015260608301356001600160401b0380821115614cc857600080fd5b938101936060858e0385011215614cde57600080fd5b614ce86060615ee9565b935087850135915080821115614cfd57600080fd5b614d0b8d8984880101614b00565b84526040850135915080821115614d2157600080fd5b614d2f8d8984880101614b00565b888501526060850135915080821115614d4757600080fd5b50614d568c8883870101614d84565b604084810191909152820192909252865250509282019290820190600101614c6b565b8035611d9d81615f92565b600082601f830112614d94578081fd5b8135614da2614b1e82615f2e565b9150808252836020828501011115614db957600080fd5b8060208401602084013760009082016020015292915050565b600060608284031215614de3578081fd5b614ded6060615ee9565b905081516001600160401b0380821115614e0657600080fd5b614e1285838601614b77565b83526020840151915080821115614e2857600080fd5b614e3485838601614b77565b60208401526040840151915080821115614e4d57600080fd5b508201601f81018413614e5f57600080fd5b8051614e6d614b1e82615f2e565b818152856020838501011115614e8257600080fd5b614e93826020830160208601615f51565b604084015250909392505050565b803561ffff81168114611d9d57600080fd5b600060208284031215614ec4578081fd5b813561243d81615f7d565b600060208284031215614ee0578081fd5b815161243d81615f7d565b6000806000806000858703610160811215614f04578182fd5b8635614f0f81615f7d565b95506020870135614f1f81615f7d565b945060e0603f1982011215614f32578182fd5b50614f3d60e0615ee9565b604087013563ffffffff81168114614f53578283fd5b8152614f628860608901614ea1565b6020820152614f748860808901614ea1565b6040820152614f868860a08901614ea1565b6060820152614f988860c08901614ea1565b6080820152614faa8860e08901614d79565b60a0820152614fbd886101008901614d79565b60c08201529250614fd2876101208801614aea565b91506101408601356001600160401b03811115614fed578182fd5b614ff988828901614d84565b9150509295509295909350565b60008060408385031215615018578182fd5b823561502381615f7d565b915060208301356001600160401b0381111561503d578182fd5b61504985828601614c3c565b9150509250929050565b600060208284031215615064578081fd5b81516001600160401b03811115615079578182fd5b6148e184828501614b77565b60006020808385031215615097578182fd5b82516001600160401b03808211156150ad578384fd5b818501915085601f8301126150c0578384fd5b81516150ce614b1e82615f0f565b81815284810190848601875b848110156151525781518701606080601f19838f030112156150fa578a8bfd5b61510381615ee9565b61510f8e8c8501614af5565b81526040838101518c83015291830151918983111561512c578c8dfd5b61513a8f8d85870101614dd2565b908201528652505092870192908701906001016150da565b50909998505050505050505050565b600060208284031215615172578081fd5b815161243d81615f92565b600080600060608486031215615191578081fd5b835161519c81615f92565b6020850151604086015191945092506001600160401b038111156151be578182fd5b6151ca86828701614bde565b9150509250925092565b6000806000606084860312156151e8578081fd5b83356151f381615f7d565b9250602084013561520381615f7d565b9150604084013561521381615f7d565b809150509250925092565b600080600060608486031215615232578081fd5b833561523d81615f7d565b9250602084013561524d81615f7d565b915060408401356001600160401b03811115615267578182fd5b6151ca86828701614d84565b600080600080600060a0868803121561528a578283fd5b853561529581615f7d565b945060208601356152a581615f7d565b9350604086013592506060860135915060808601356001600160401b03811115614fed578182fd5b6000806000606084860312156152e1578081fd5b83356152ec81615f7d565b92506020840135600681106152ff578182fd5b929592945050506040919091013590565b600060208284031215615321578081fd5b81516004811061243d578182fd5b600060208284031215615340578081fd5b5051919050565b60008060408385031215615359578182fd5b8251915060208301516001600160401b03811115615375578182fd5b61504985828601614bde565b6000815180845260208085019450808401835b838110156153b95781516001600160a01b031687529582019590820190600101615394565b509495945050505050565b6000815180845260208085019450808401835b838110156153b9578151875295820195908201906001016153d7565b6000815180845261540b816020860160208601615f51565b601f01601f19169290920160200192915050565b60008251615431818460208701615f51565b9190910192915050565b90565b6001600160a01b0391909116815260200190565b6001600160a01b03929092168252602082015260400190565b6001600160a01b0392831681529116602082015260400190565b6001600160a01b039384168152919092166020820152604081019190915260600190565b6001600160a01b03831681526040602082018190526000906148e1908301846153f3565b6001600160a01b03948516815260208101939093529083166040830152909116606082015260800190565b600060018060a01b03851682528360208301526060604083015261551f60608301846153c4565b95945050505050565b600060018060a01b03861682528460208301528360408301526080606083015261555560808301846153c4565b9695505050505050565b6000606082526155726060830186615381565b6001600160a01b039490941660208301525060400152919050565b60208082528251828201819052600091906040908185019080840286018301878501865b8381101561564957888303603f19018552815180516001600160a01b031684528781015188850152860151606087850181905281518186018290526155f960c0870182615381565b91505088820151605f19808784030160808801526156178383615381565b9250898401519350808784030160a0880152505061563581836153f3565b9689019694505050908601906001016155b1565b509098975050505050505050565b901515815260200190565b604081016006841061567057fe5b9281526020015290565b60006020825261243d60208301846153f3565b60208082526014908201527314de5b9d1a1cc81b9bdd081cdd5c1c1bdc9d195960621b604082015260600190565b60208082526014908201527314dd1c985d1959de48185b1c9958591e481cd95d60621b604082015260600190565b6020808252600b908201526a2737ba1036b0b730b3b2b960a91b604082015260600190565b6020808252600d908201526c4974656d206f72646572696e6760981b604082015260600190565b6020808252601a908201527943616e6e6f742073657420656d7074792073747275637475726560301b604082015260600190565b60208082526008908201526710985b185b98d95960c21b604082015260600190565b60208082526015908201527429ba3930ba32b3bc9030b63932b0b23c9037b832b760591b604082015260600190565b6020808252601b908201527a536166654d6174683a206164646974696f6e206f766572666c6f7760281b604082015260600190565b6020808252600a90820152694c6f73742076616c756560b01b604082015260600190565b6020808252601190820152702ab739bab83837b93a32b2103a37b5b2b760791b604082015260600190565b602080825260179082015276446562742063616e6e6f7420626520706f73697469766560481b604082015260600190565b60208082526021908201527f5369676e6564536166654d6174683a206164646974696f6e206f766572666c6f6040820152607760f81b606082015260800190565b60208082526011908201527024b73b30b634b21034ba32b69030b2323960791b604082015260600190565b60208082526026908201527f416464726573733a20696e73756666696369656e742062616c616e636520666f6040820152651c8818d85b1b60d21b606082015260800190565b602080825260189082015277546f6b656e2063616e6e6f74206265206e6567617469766560401b604082015260600190565b602080825260169082015275546f74616c2070657263656e746167652077726f6e6760501b604082015260600190565b6020808252600f908201526e139bdd081a5b9a5d1a585b1a5e9959608a1b604082015260600190565b6020808252600c908201526b139bdd08185c1c1c9bdd995960a21b604082015260600190565b6020808252602e908201527f496e697469616c697a61626c653a20636f6e747261637420697320616c72656160408201526d191e481a5b9a5d1a585b1a5e995960921b606082015260800190565b60208082526021908201527f5369676e6564536166654d6174683a206469766973696f6e206f766572666c6f6040820152607760f81b606082015260800190565b6020808252600d908201526c151bdad95b88189b1bd8dad959609a1b604082015260600190565b60208082526021908201527f536166654d6174683a206d756c7469706c69636174696f6e206f766572666c6f6040820152607760f81b606082015260800190565b60208082526027908201527f5369676e6564536166654d6174683a206d756c7469706c69636174696f6e206f604082015266766572666c6f7760c81b606082015260800190565b6020808252600890820152670c08185b5bdd5b9d60c21b604082015260600190565b60208082526008908201526709cdee840ae8aa8960c31b604082015260600190565b60208082526016908201527553747261746567792063616e6e6f74206368616e676560501b604082015260600190565b6020808252600d908201526c4f7574206f6620626f756e647360981b604082015260600190565b60208082526010908201526f105b589a59dd5bdd5cc8185b5bdd5b9d60821b604082015260600190565b602080825260119082015270496e76616c69642073747275637475726560781b604082015260600190565b6020808252600c908201526b139bdd0818985b185b98d95960a21b604082015260600190565b6020808252601d908201527f416464726573733a2063616c6c20746f206e6f6e2d636f6e7472616374000000604082015260600190565b602080825260119082015270546f6f206d75636820736c69707061676560781b604082015260600190565b6020808252600e908201526d57726f6e672063617465676f727960901b604082015260600190565b6020808252602a908201527f5361666545524332303a204552433230206f7065726174696f6e20646964206e6040820152691bdd081cdd58d8d9595960b21b606082015260800190565b6020808252818101527f5369676e6564536166654d6174683a206469766973696f6e206279207a65726f604082015260600190565b6020808252600b908201526a4e6f7420666163746f727960a81b604082015260600190565b60208082526036908201527f5361666545524332303a20617070726f76652066726f6d206e6f6e2d7a65726f60408201527520746f206e6f6e2d7a65726f20616c6c6f77616e636560501b606082015260800190565b6020808252600f908201526e54696d656c6f636b2061637469766560881b604082015260600190565b6020808252601190820152704379636c696320646570656e64656e637960781b604082015260600190565b600060a08201905063ffffffff8351168252602083015161ffff8082166020850152806040860151166040850152505060608301511515606083015260808301511515608083015292915050565b61ffff91909116815260200190565b90815260200190565b6000838252604060208301526148e160408301846153c4565b600085825260806020830152615e9660808301866153c4565b8281036040840152615ea88186615381565b9050828103606084015261499f8185615381565b918252602082015260400190565b60008482528360208301526060604083015261551f60608301846153c4565b6040518181016001600160401b0381118282101715615f0757600080fd5b604052919050565b60006001600160401b03821115615f24578081fd5b5060209081020190565b60006001600160401b03821115615f43578081fd5b50601f01601f191660200190565b60005b83811015615f6c578181015183820152602001615f54565b83811115610b185750506000910152565b6001600160a01b038116811461223f57600080fd5b801515811461223f57600080fdfee561303783ad8b123bd33a60f112811cc154edb919a15aa8040c6200c7709d5ba26469706673582212209c132577cc8cd7788ccf92c752561092765c6b3a79802a01be376b7b0ac3751164736f6c634300060c0033",
    "linkReferences": {
        "contracts/libraries/StrategyLibrary.sol": {
            "StrategyLibrary": [
                {
                    "length": 20,
                    "start": 4915
                },
                {
                    "length": 20,
                    "start": 5365
                },
                {
                    "length": 20,
                    "start": 10484
                },
                {
                    "length": 20,
                    "start": 11552
                },
                {
                    "length": 20,
                    "start": 13149
                },
                {
                    "length": 20,
                    "start": 14937
                },
                {
                    "length": 20,
                    "start": 16538
                }
            ]
        }
    },
    "deployedLinkReferences": {
        "contracts/libraries/StrategyLibrary.sol": {
            "StrategyLibrary": [
                {
                    "length": 20,
                    "start": 4519
                },
                {
                    "length": 20,
                    "start": 4969
                },
                {
                    "length": 20,
                    "start": 10088
                },
                {
                    "length": 20,
                    "start": 11156
                },
                {
                    "length": 20,
                    "start": 12753
                },
                {
                    "length": 20,
                    "start": 14541
                },
                {
                    "length": 20,
                    "start": 16142
                }
            ]
        }
    }
}