{
    "_format": "hh-sol-artifact-1",
    "contractName": "CurveRewardsAdapter",
    "sourceName": "contracts/adapters/vaults/CurveRewardsAdapter.sol",
    "abi": [
        {
            "inputs": [
                {
                    "internalType": "address",
                    "name": "addressProvider_",
                    "type": "address"
                },
                {
                    "internalType": "address",
                    "name": "weth_",
                    "type": "address"
                }
            ],
            "stateMutability": "nonpayable",
            "type": "constructor"
        },
        {
            "inputs": [],
            "name": "addressProvider",
            "outputs": [
                {
                    "internalType": "contract ICurveAddressProvider",
                    "name": "",
                    "type": "address"
                }
            ],
            "stateMutability": "view",
            "type": "function"
        },
        {
            "inputs": [
                {
                    "internalType": "address",
                    "name": "token",
                    "type": "address"
                }
            ],
            "name": "claim",
            "outputs": [],
            "stateMutability": "nonpayable",
            "type": "function"
        },
        {
            "inputs": [
                {
                    "internalType": "uint256",
                    "name": "amount",
                    "type": "uint256"
                },
                {
                    "internalType": "address",
                    "name": "tokenIn",
                    "type": "address"
                },
                {
                    "internalType": "address",
                    "name": "tokenOut",
                    "type": "address"
                }
            ],
            "name": "spotPrice",
            "outputs": [
                {
                    "internalType": "uint256",
                    "name": "",
                    "type": "uint256"
                }
            ],
            "stateMutability": "view",
            "type": "function"
        },
        {
            "inputs": [
                {
                    "internalType": "uint256",
                    "name": "amount",
                    "type": "uint256"
                },
                {
                    "internalType": "uint256",
                    "name": "expected",
                    "type": "uint256"
                },
                {
                    "internalType": "address",
                    "name": "tokenIn",
                    "type": "address"
                },
                {
                    "internalType": "address",
                    "name": "tokenOut",
                    "type": "address"
                },
                {
                    "internalType": "address",
                    "name": "from",
                    "type": "address"
                },
                {
                    "internalType": "address",
                    "name": "to",
                    "type": "address"
                }
            ],
            "name": "swap",
            "outputs": [],
            "stateMutability": "nonpayable",
            "type": "function"
        },
        {
            "inputs": [],
            "name": "weth",
            "outputs": [
                {
                    "internalType": "address",
                    "name": "",
                    "type": "address"
                }
            ],
            "stateMutability": "view",
            "type": "function"
        }
    ],
    "bytecode": "0x60c060405234801561001057600080fd5b50604051610dee380380610dee83398101604081905261002f9161004e565b6001600160601b0319606091821b811660805291901b1660a05261009f565b60008060408385031215610060578182fd5b825161006b81610087565b602084015190925061007c81610087565b809150509250929050565b6001600160a01b038116811461009c57600080fd5b50565b60805160601c60a05160601c610d216100cd6000398061016d52806105cd5250806105f15250610d216000f3fe608060405234801561001057600080fd5b50600436106100575760003560e01c80631e83409a1461005c578063230f11c7146100715780632954018c146100845780633fc8cef3146100a257806377ec159d146100aa575b600080fd5b61006f61006a366004610907565b6100ca565b005b61006f61007f3660046109b8565b61012e565b61008c6105cb565b6040516100999190610a43565b60405180910390f35b61008c6105ef565b6100bd6100b8366004610977565b610613565b6040516100999190610c87565b604051634274debf60e11b815281906001600160a01b038216906384e9bd7e906100f8903090600401610a43565b600060405180830381600087803b15801561011257600080fd5b505af1158015610126573d6000803e3d6000fd5b505050505050565b826001600160a01b0316846001600160a01b031614156101695760405162461bcd60e51b815260040161016090610b83565b60405180910390fd5b60007f00000000000000000000000000000000000000000000000000000000000000006001600160a01b031663a262904b6040518163ffffffff1660e01b815260040160206040518083038186803b1580156101c457600080fd5b505afa1580156101d8573d6000803e3d6000fd5b505050506040513d601f19601f820116820180604052508101906101fc9190610923565b60405163bdf475c360e01b81529091506000906001600160a01b0383169063bdf475c39061022e908990600401610a43565b60206040518083038186803b15801561024657600080fd5b505afa15801561025a573d6000803e3d6000fd5b505050506040513d601f19601f8201168201806040525081019061027e9190610923565b6001600160a01b0316146103d1576000849050856001600160a01b0316816001600160a01b03166382c630666040518163ffffffff1660e01b815260040160206040518083038186803b1580156102d457600080fd5b505afa1580156102e8573d6000803e3d6000fd5b505050506040513d601f19601f8201168201806040525081019061030c9190610923565b6001600160a01b0316146103325760405162461bcd60e51b815260040161016090610ae1565b6001600160a01b0384163014610357576103576001600160a01b03871685308b61061c565b61036b6001600160a01b038716868a61067a565b604051636e553f6560e01b81526001600160a01b03821690636e553f6590610399908b903090600401610c90565b600060405180830381600087803b1580156103b357600080fd5b505af11580156103c7573d6000803e3d6000fd5b50505050506104fc565b6000859050846001600160a01b0316816001600160a01b03166382c630666040518163ffffffff1660e01b815260040160206040518083038186803b15801561041957600080fd5b505afa15801561042d573d6000803e3d6000fd5b505050506040513d601f19601f820116820180604052508101906104519190610923565b6001600160a01b0316146104775760405162461bcd60e51b815260040161016090610ae1565b6001600160a01b038416301461049c5761049c6001600160a01b03871685308b61061c565b604051632e1a7d4d60e01b81526001600160a01b03821690632e1a7d4d906104c8908b90600401610c87565b600060405180830381600087803b1580156104e257600080fd5b505af11580156104f6573d6000803e3d6000fd5b50505050505b6040516370a0823160e01b81526000906001600160a01b038616906370a082319061052b903090600401610a43565b60206040518083038186803b15801561054357600080fd5b505afa158015610557573d6000803e3d6000fd5b505050506040513d601f19601f8201168201806040525081019061057b919061095f565b90508681101561059d5760405162461bcd60e51b815260040161016090610b4d565b6001600160a01b03831630146105c1576105c16001600160a01b0386168483610742565b5050505050505050565b7f000000000000000000000000000000000000000000000000000000000000000081565b7f000000000000000000000000000000000000000000000000000000000000000081565b825b9392505050565b610674846323b872dd60e01b85858560405160240161063d93929190610a71565b60408051601f198184030181529190526020810180516001600160e01b03166001600160e01b031990931692909217909152610761565b50505050565b8015806107025750604051636eb1769f60e11b81526001600160a01b0384169063dd62ed3e906106b09030908690600401610a57565b60206040518083038186803b1580156106c857600080fd5b505afa1580156106dc573d6000803e3d6000fd5b505050506040513d601f19601f82011682018060405250810190610700919061095f565b155b61071e5760405162461bcd60e51b815260040161016090610c31565b61073d8363095ea7b360e01b848460405160240161063d929190610a95565b505050565b61073d8363a9059cbb60e01b848460405160240161063d929190610a95565b60606107b6826040518060400160405280602081526020017f5361666545524332303a206c6f772d6c6576656c2063616c6c206661696c6564815250856001600160a01b03166107f09092919063ffffffff16565b80519091501561073d57808060200190518101906107d4919061093f565b61073d5760405162461bcd60e51b815260040161016090610be7565b60606107ff8484600085610807565b949350505050565b6060824710156108295760405162461bcd60e51b815260040161016090610b07565b610832856108c8565b61084e5760405162461bcd60e51b815260040161016090610bb0565b60006060866001600160a01b0316858760405161086b9190610a27565b60006040518083038185875af1925050503d80600081146108a8576040519150601f19603f3d011682016040523d82523d6000602084013e6108ad565b606091505b50915091506108bd8282866108ce565b979650505050505050565b3b151590565b606083156108dd575081610615565b8251156108ed5782518084602001fd5b8160405162461bcd60e51b81526004016101609190610aae565b600060208284031215610918578081fd5b813561061581610cd3565b600060208284031215610934578081fd5b815161061581610cd3565b600060208284031215610950578081fd5b81518015158114610615578182fd5b600060208284031215610970578081fd5b5051919050565b60008060006060848603121561098b578182fd5b83359250602084013561099d81610cd3565b915060408401356109ad81610cd3565b809150509250925092565b60008060008060008060c087890312156109d0578182fd5b863595506020870135945060408701356109e981610cd3565b935060608701356109f981610cd3565b92506080870135610a0981610cd3565b915060a0870135610a1981610cd3565b809150509295509295509295565b60008251610a39818460208701610ca7565b9190910192915050565b6001600160a01b0391909116815260200190565b6001600160a01b0392831681529116602082015260400190565b6001600160a01b039384168152919092166020820152604081019190915260600190565b6001600160a01b03929092168252602082015260400190565b6000602082528251806020840152610acd816040850160208701610ca7565b601f01601f19169190910160400192915050565b6020808252600c908201526b496e636f6d70617469626c6560a01b604082015260600190565b60208082526026908201527f416464726573733a20696e73756666696369656e742062616c616e636520666f6040820152651c8818d85b1b60d21b606082015260800190565b6020808252601c908201527b125b9cdd59999a58da595b9d081d1bdad95b93dd5d08185b5bdd5b9d60221b604082015260600190565b6020808252601390820152720a8ded6cadce640c6c2dcdcdee840dac2e8c6d606b1b604082015260600190565b6020808252601d908201527f416464726573733a2063616c6c20746f206e6f6e2d636f6e7472616374000000604082015260600190565b6020808252602a908201527f5361666545524332303a204552433230206f7065726174696f6e20646964206e6040820152691bdd081cdd58d8d9595960b21b606082015260800190565b60208082526036908201527f5361666545524332303a20617070726f76652066726f6d206e6f6e2d7a65726f60408201527520746f206e6f6e2d7a65726f20616c6c6f77616e636560501b606082015260800190565b90815260200190565b9182526001600160a01b0316602082015260400190565b60005b83811015610cc2578181015183820152602001610caa565b838111156106745750506000910152565b6001600160a01b0381168114610ce857600080fd5b5056fea264697066735822122050f2e3a7a3beacd33b6ac6926b4c82c7f995207fe9ea1777ccbcef9da0697a2564736f6c634300060c0033",
    "linkReferences": {},
    "deployedLinkReferences": {}
}