{
    "_format": "hh-sol-artifact-1",
    "contractName": "SynthetixAdapter",
    "sourceName": "contracts/adapters/exchanges/SynthetixAdapter.sol",
    "abi": [
        {
            "inputs": [
                {
                    "internalType": "address",
                    "name": "resolver_",
                    "type": "address"
                },
                {
                    "internalType": "address",
                    "name": "weth_",
                    "type": "address"
                }
            ],
            "stateMutability": "nonpayable",
            "type": "constructor"
        },
        {
            "inputs": [],
            "name": "resolver",
            "outputs": [
                {
                    "internalType": "contract IAddressResolver",
                    "name": "",
                    "type": "address"
                }
            ],
            "stateMutability": "view",
            "type": "function"
        },
        {
            "inputs": [
                {
                    "internalType": "uint256",
                    "name": "amount",
                    "type": "uint256"
                },
                {
                    "internalType": "uint256",
                    "name": "expected",
                    "type": "uint256"
                },
                {
                    "internalType": "address",
                    "name": "tokenIn",
                    "type": "address"
                },
                {
                    "internalType": "address",
                    "name": "tokenOut",
                    "type": "address"
                },
                {
                    "internalType": "address",
                    "name": "from",
                    "type": "address"
                },
                {
                    "internalType": "address",
                    "name": "to",
                    "type": "address"
                }
            ],
            "name": "swap",
            "outputs": [],
            "stateMutability": "nonpayable",
            "type": "function"
        },
        {
            "inputs": [],
            "name": "weth",
            "outputs": [
                {
                    "internalType": "address",
                    "name": "",
                    "type": "address"
                }
            ],
            "stateMutability": "view",
            "type": "function"
        }
    ],
    "bytecode": "0x60c060405234801561001057600080fd5b5060405161077a38038061077a8339818101604052604081101561003357600080fd5b5080516020909101516001600160601b0319606091821b811660805291901b1660a05260805160601c60a05160601c6106f76100836000398060c0528061036852508061034152506106f76000f3fe608060405234801561001057600080fd5b50600436106100415760003560e01c806304f3bcec14610046578063230f11c71461006a5780633fc8cef3146100b6575b600080fd5b61004e6100be565b604080516001600160a01b039092168252519081900360200190f35b6100b4600480360360c081101561008057600080fd5b508035906020810135906001600160a01b0360408201358116916060810135821691608082013581169160a00135166100e2565b005b61004e61033f565b7f000000000000000000000000000000000000000000000000000000000000000081565b826001600160a01b0316846001600160a01b0316141561013f576040805162461bcd60e51b81526020600482015260136024820152720a8ded6cadce640c6c2dcdcdee840dac2e8c6d606b1b604482015290519081900360640190fd5b806001600160a01b0316826001600160a01b03161461018f5760405162461bcd60e51b815260040180806020018281038252602b815260200180610697602b913960400191505060405180910390fd5b6000610199610363565b90506000806101a9838888610464565b909250905060006001600160a01b038616301461025a57836001600160a01b031663c836fa0a87858d866040518563ffffffff1660e01b815260040180856001600160a01b03168152602001848152602001838152602001828152602001945050505050602060405180830381600087803b15801561022757600080fd5b505af115801561023b573d6000803e3d6000fd5b505050506040513d602081101561025157600080fd5b505190506102df565b836001600160a01b031663ee52a2f3848c856040518463ffffffff1660e01b8152600401808481526020018381526020018281526020019350505050602060405180830381600087803b1580156102b057600080fd5b505af11580156102c4573d6000803e3d6000fd5b505050506040513d60208110156102da57600080fd5b505190505b88811015610333576040805162461bcd60e51b815260206004820152601c60248201527b125b9cdd59999a58da595b9d081d1bdad95b93dd5d08185b5bdd5b9d60221b604482015290519081900360640190fd5b50505050505050505050565b7f000000000000000000000000000000000000000000000000000000000000000081565b6000807f00000000000000000000000000000000000000000000000000000000000000006001600160a01b03166321f8a7216040518163ffffffff1660e01b81526004018080680a6f2dce8d0cae8d2f60bb1b815250602001905060206040518083038186803b1580156103d657600080fd5b505afa1580156103ea573d6000803e3d6000fd5b505050506040513d602081101561040057600080fd5b505190506001600160a01b03811661045f576040805162461bcd60e51b815260206004820152601f60248201527f4d697373696e672066726f6d2053796e746865746978207265736f6c76657200604482015290519081900360640190fd5b905090565b6000806000856001600160a01b03166316b2213f866001600160a01b031663d4b839926040518163ffffffff1660e01b815260040160206040518083038186803b1580156104b157600080fd5b505afa1580156104c5573d6000803e3d6000fd5b505050506040513d60208110156104db57600080fd5b5051604080516001600160e01b031960e085901b1681526001600160a01b039092166004830152516024808301926020929190829003018186803b15801561052257600080fd5b505afa158015610536573d6000803e3d6000fd5b505050506040513d602081101561054c57600080fd5b505160408051636a5c1cc960e11b815290519192506000916001600160a01b03808a16926316b2213f929189169163d4b8399291600480820192602092909190829003018186803b1580156105a057600080fd5b505afa1580156105b4573d6000803e3d6000fd5b505050506040513d60208110156105ca57600080fd5b5051604080516001600160e01b031960e085901b1681526001600160a01b039092166004830152516024808301926020929190829003018186803b15801561061157600080fd5b505afa158015610625573d6000803e3d6000fd5b505050506040513d602081101561063b57600080fd5b50519050811580159061064d57508015155b61068a576040805162461bcd60e51b81526020600482015260096024820152684e6f2073796e74687360b81b604482015290519081900360640190fd5b9096909550935050505056fe53796e74682065786368616e676573206d7573742072657475726e20746f2073616d652061646472657373a26469706673582212201fecb10f6c2fa3e41bb373828ce1f88290c6391d4271df8564d8a5aec0b0f59764736f6c634300060c0033",
    "linkReferences": {},
    "deployedLinkReferences": {}
}