{
  "_format": "hh-sol-artifact-1",
  "contractName": "AaveV2DebtAdapter",
  "sourceName": "contracts/adapters/borrow/AaveV2DebtAdapter.sol",
  "abi": [
    {
      "inputs": [
        {
          "internalType": "address",
          "name": "addressesProvider_",
          "type": "address"
        },
        {
          "internalType": "address",
          "name": "incentivesController_",
          "type": "address"
        },
        {
          "internalType": "address",
          "name": "weth_",
          "type": "address"
        }
      ],
      "stateMutability": "nonpayable",
      "type": "constructor"
    },
    {
      "inputs": [],
      "name": "addressesProvider",
      "outputs": [
        {
          "internalType": "contract ILendingPoolAddressesProvider",
          "name": "",
          "type": "address"
        }
      ],
      "stateMutability": "view",
      "type": "function"
    },
    {
      "inputs": [
        {
          "internalType": "address[]",
          "name": "tokens",
          "type": "address[]"
        }
      ],
      "name": "claim",
      "outputs": [],
      "stateMutability": "nonpayable",
      "type": "function"
    },
    {
      "inputs": [
        {
          "internalType": "address",
          "name": "token",
          "type": "address"
        }
      ],
      "name": "rewardsTokens",
      "outputs": [
        {
          "internalType": "address[]",
          "name": "",
          "type": "address[]"
        }
      ],
      "stateMutability": "view",
      "type": "function"
    },
    {
      "inputs": [
        {
          "internalType": "uint256",
          "name": "amount",
          "type": "uint256"
        },
        {
          "internalType": "uint256",
          "name": "expected",
          "type": "uint256"
        },
        {
          "internalType": "address",
          "name": "tokenIn",
          "type": "address"
        },
        {
          "internalType": "address",
          "name": "tokenOut",
          "type": "address"
        },
        {
          "internalType": "address",
          "name": "from",
          "type": "address"
        },
        {
          "internalType": "address",
          "name": "to",
          "type": "address"
        }
      ],
      "name": "swap",
      "outputs": [],
      "stateMutability": "nonpayable",
      "type": "function"
    },
    {
      "inputs": [],
      "name": "weth",
      "outputs": [
        {
          "internalType": "address",
          "name": "",
          "type": "address"
        }
      ],
      "stateMutability": "view",
      "type": "function"
    }
  ],
  "bytecode": "0x6101006040523480156200001257600080fd5b50604051620019363803806200193683398101604081905262000035916200011d565b6001600160601b0319606082811b821660805284811b821660a05283901b1660c05260408051631f94a27560e31b815290516001600160a01b0385169163fca513a8916004808301926020929190829003018186803b1580156200009857600080fd5b505afa158015620000ad573d6000803e3d6000fd5b505050506040513d601f19601f82011682018060405250810190620000d39190620000ed565b60601b6001600160601b03191660e0525062000189915050565b600060208284031215620000ff578081fd5b81516001600160a01b038116811462000116578182fd5b9392505050565b60008060006060848603121562000132578182fd5b83516200013f8162000170565b6020850151909350620001528162000170565b6040850151909250620001658162000170565b809150509250925092565b6001600160a01b03811681146200018657600080fd5b50565b60805160601c60a05160601c60c05160601c60e05160601c61173e620001f860003980610a135280610bdc5280610ca75280610e22525080610673528061071652806107f452508061010952806108b15250806104eb52806107ab52806109c05280610b28525061173e6000f3fe608060405234801561001057600080fd5b50600436106100575760003560e01c8063230f11c71461005c578063318d9e5d146100715780633fc8cef314610084578063b901d3c0146100a2578063c72c4d10146100c2575b600080fd5b61006f61006a36600461128d565b6100ca565b005b61006f61007f3660046111e6565b610659565b61008c6107a9565b6040516100999190611381565b60405180910390f35b6100b56100b03660046111ae565b6107cd565b60405161009991906114ac565b61008c6108af565b826001600160a01b0316846001600160a01b031614156101055760405162461bcd60e51b81526004016100fc90611656565b60405180910390fd5b60007f00000000000000000000000000000000000000000000000000000000000000006001600160a01b0316630261bf8b6040518163ffffffff1660e01b815260040160206040518083038186803b15801561016057600080fd5b505afa158015610174573d6000803e3d6000fd5b505050506040513d601f19601f8201168201806040525081019061019891906111ca565b90506001600160a01b038416610454576001600160a01b03831630146102f2576040516370a0823160e01b81526000906001600160a01b038716906370a08231906101e7903090600401611381565b60206040518083038186803b1580156101ff57600080fd5b505afa158015610213573d6000803e3d6000fd5b505050506040513d601f19601f820116820180604052508101906102379190611275565b905061024e6001600160a01b03871685308b6108d3565b6040516370a0823160e01b81526000906001600160a01b038816906370a082319061027d903090600401611381565b60206040518083038186803b15801561029557600080fd5b505afa1580156102a9573d6000803e3d6000fd5b505050506040513d601f19601f820116820180604052508101906102cd9190611275565b90508181116102ee5760405162461bcd60e51b81526004016100fc9061152c565b0396505b6103066001600160a01b0386168289610958565b60405163573ade8160e01b81526001600160a01b0382169063573ade81906103399088908b9060019088906004016113ec565b602060405180830381600087803b15801561035357600080fd5b505af1158015610367573d6000803e3d6000fd5b505050506040513d601f19601f8201168201806040525081019061038b9190611275565b50604051636eb1769f60e11b81526000906001600160a01b0387169063dd62ed3e906103bd9030908690600401611395565b60206040518083038186803b1580156103d557600080fd5b505afa1580156103e9573d6000803e3d6000fd5b505050506040513d601f19601f8201168201806040525081019061040d9190611275565b9050801561044e5761042a6001600160a01b038716836000610958565b6001600160a01b038416301461044e5761044e6001600160a01b038616858361097c565b50610650565b6001600160a01b038516610057576040516370a0823160e01b81526000906001600160a01b038616906370a0823190610491903090600401611381565b60206040518083038186803b1580156104a957600080fd5b505afa1580156104bd573d6000803e3d6000fd5b505050506040513d601f19601f820116820180604052508101906104e19190611275565b90506000610510897f00000000000000000000000000000000000000000000000000000000000000008861099b565b60405163a415bcad60e01b81529091506001600160a01b0384169063a415bcad9061054990899085906001906000908c90600401611417565b600060405180830381600087803b15801561056357600080fd5b505af1158015610577573d6000803e3d6000fd5b50506040516370a0823160e01b8152600092506001600160a01b03891691506370a08231906105aa903090600401611381565b60206040518083038186803b1580156105c257600080fd5b505afa1580156105d6573d6000803e3d6000fd5b505050506040513d601f19601f820116820180604052508101906105fa9190611275565b90506106068184610ede565b9150888210156106285760405162461bcd60e51b81526004016100fc906115de565b6001600160a01b038516301461064c5761064c6001600160a01b038816868461097c565b5050505b50505050505050565b6040516345accf9360e11b81526000906001600160a01b037f00000000000000000000000000000000000000000000000000000000000000001690638b599f26906106ac9086908690309060040161144b565b60206040518083038186803b1580156106c457600080fd5b505afa1580156106d8573d6000803e3d6000fd5b505050506040513d601f19601f820116820180604052508101906106fc9190611275565b604051633111e7b360e01b81529091506001600160a01b037f00000000000000000000000000000000000000000000000000000000000000001690633111e7b390610751908690869086903090600401611478565b602060405180830381600087803b15801561076b57600080fd5b505af115801561077f573d6000803e3d6000fd5b505050506040513d601f19601f820116820180604052508101906107a39190611275565b50505050565b7f000000000000000000000000000000000000000000000000000000000000000081565b604080516001808252818301909252606091829190602080830190803683370190505090507f00000000000000000000000000000000000000000000000000000000000000006001600160a01b03166399248ea76040518163ffffffff1660e01b815260040160206040518083038186803b15801561084b57600080fd5b505afa15801561085f573d6000803e3d6000fd5b505050506040513d601f19601f8201168201806040525081019061088391906111ca565b8160008151811061089057fe5b6001600160a01b03909216602092830291909101909101529050919050565b7f000000000000000000000000000000000000000000000000000000000000000081565b6107a3846323b872dd60e01b8585856040516024016108f4939291906113af565b60408051601f198184030181529190526020810180517bffffffffffffffffffffffffffffffffffffffffffffffffffffffff167fffffffff0000000000000000000000000000000000000000000000000000000090931692909217909152610f29565b6109778363095ea7b360e01b84846040516024016108f49291906113d3565b505050565b6109778363a9059cbb60e01b84846040516024016108f49291906113d3565b6000816001600160a01b0316836001600160a01b031614156109be575082610ed7565b7f00000000000000000000000000000000000000000000000000000000000000006001600160a01b0316836001600160a01b03161415610b265760405163b3596f0760e01b8152610b1f906001600160a01b037f0000000000000000000000000000000000000000000000000000000000000000169063b3596f0790610a48908690600401611381565b60206040518083038186803b158015610a6057600080fd5b505afa158015610a74573d6000803e3d6000fd5b505050506040513d601f19601f82011682018060405250810190610a989190611275565b610b19846001600160a01b031663313ce5676040518163ffffffff1660e01b815260040160206040518083038186803b158015610ad457600080fd5b505afa158015610ae8573d6000803e3d6000fd5b505050506040513d601f19601f82011682018060405250810190610b0c91906112fc565b879060ff16600a0a610fb8565b90610ff2565b9050610ed7565b7f00000000000000000000000000000000000000000000000000000000000000006001600160a01b0316826001600160a01b03161415610c8c57826001600160a01b031663313ce5676040518163ffffffff1660e01b815260040160206040518083038186803b158015610b9957600080fd5b505afa158015610bad573d6000803e3d6000fd5b505050506040513d601f19601f82011682018060405250810190610bd191906112fc565b60ff16600a0a610c7d7f00000000000000000000000000000000000000000000000000000000000000006001600160a01b031663b3596f07866040518263ffffffff1660e01b8152600401610c269190611381565b60206040518083038186803b158015610c3e57600080fd5b505afa158015610c52573d6000803e3d6000fd5b505050506040513d601f19601f82011682018060405250810190610c769190611275565b8690610fb8565b81610c8457fe5b049050610ed7565b60405163b3596f0760e01b8152610b1f906001600160a01b037f0000000000000000000000000000000000000000000000000000000000000000169063b3596f0790610cdc908690600401611381565b60206040518083038186803b158015610cf457600080fd5b505afa158015610d08573d6000803e3d6000fd5b505050506040513d601f19601f82011682018060405250810190610d2c9190611275565b846001600160a01b031663313ce5676040518163ffffffff1660e01b815260040160206040518083038186803b158015610d6557600080fd5b505afa158015610d79573d6000803e3d6000fd5b505050506040513d601f19601f82011682018060405250810190610d9d91906112fc565b60ff16600a0a610ec9856001600160a01b031663313ce5676040518163ffffffff1660e01b815260040160206040518083038186803b158015610ddf57600080fd5b505afa158015610df3573d6000803e3d6000fd5b505050506040513d601f19601f82011682018060405250810190610e1791906112fc565b60ff16600a0a610ec37f00000000000000000000000000000000000000000000000000000000000000006001600160a01b031663b3596f078a6040518263ffffffff1660e01b8152600401610e6c9190611381565b60206040518083038186803b158015610e8457600080fd5b505afa158015610e98573d6000803e3d6000fd5b505050506040513d601f19601f82011682018060405250810190610ebc9190611275565b8a90610fb8565b90610fb8565b81610ed057fe5b0490610ff2565b9392505050565b6000610f2083836040518060400160405280601e81526020017f536166654d6174683a207375627472616374696f6e206f766572666c6f770000815250611034565b90505b92915050565b6060610f7e826040518060400160405280602081526020017f5361666545524332303a206c6f772d6c6576656c2063616c6c206661696c6564815250856001600160a01b03166110609092919063ffffffff16565b8051909150156109775780806020019051810190610f9c9190611255565b6109775760405162461bcd60e51b81526004016100fc906115a7565b600082610fc757506000610f23565b82820282848281610fd457fe5b0414610f205760405162461bcd60e51b81526004016100fc90611615565b6000610f2083836040518060400160405280601a81526020017f536166654d6174683a206469766973696f6e206279207a65726f000000000000815250611077565b600081848411156110585760405162461bcd60e51b81526004016100fc91906114f9565b505050900390565b606061106f84846000856110ae565b949350505050565b600081836110985760405162461bcd60e51b81526004016100fc91906114f9565b5060008385816110a457fe5b0495945050505050565b6060824710156110d05760405162461bcd60e51b81526004016100fc90611561565b6110d98561116f565b6110f55760405162461bcd60e51b81526004016100fc9061168d565b60006060866001600160a01b031685876040516111129190611365565b60006040518083038185875af1925050503d806000811461114f576040519150601f19603f3d011682016040523d82523d6000602084013e611154565b606091505b5091509150611164828286611175565b979650505050505050565b3b151590565b60608315611184575081610ed7565b8251156111945782518084602001fd5b8160405162461bcd60e51b81526004016100fc91906114f9565b6000602082840312156111bf578081fd5b8135610f20816116f0565b6000602082840312156111db578081fd5b8151610f20816116f0565b600080602083850312156111f8578081fd5b823567ffffffffffffffff8082111561120f578283fd5b818501915085601f830112611222578283fd5b813581811115611230578384fd5b8660208083028501011115611243578384fd5b60209290920196919550909350505050565b600060208284031215611266578081fd5b81518015158114610f20578182fd5b600060208284031215611286578081fd5b5051919050565b60008060008060008060c087890312156112a5578182fd5b863595506020870135945060408701356112be816116f0565b935060608701356112ce816116f0565b925060808701356112de816116f0565b915060a08701356112ee816116f0565b809150509295509295509295565b60006020828403121561130d578081fd5b815160ff81168114610f20578182fd5b60008284526020808501945082825b8581101561135a57813561133f816116f0565b6001600160a01b03168752958201959082019060010161132c565b509495945050505050565b600082516113778184602087016116c4565b9190910192915050565b6001600160a01b0391909116815260200190565b6001600160a01b0392831681529116602082015260400190565b6001600160a01b039384168152919092166020820152604081019190915260600190565b6001600160a01b03929092168252602082015260400190565b6001600160a01b03948516815260208101939093526040830191909152909116606082015260800190565b6001600160a01b0395861681526020810194909452604084019290925261ffff166060830152909116608082015260a00190565b60006040825261145f60408301858761131d565b90506001600160a01b0383166020830152949350505050565b60006060825261148c60608301868861131d565b90508360208301526001600160a01b038316604083015295945050505050565b6020808252825182820181905260009190848201906040850190845b818110156114ed5783516001600160a01b0316835292840192918401916001016114c8565b50909695505050505050565b60006020825282518060208401526115188160408501602087016116c4565b601f01601f19169190910160400192915050565b6020808252818101527f4e6f20746f6b656e73207472616e7366657272656420746f2061646170746572604082015260600190565b60208082526026908201527f416464726573733a20696e73756666696369656e742062616c616e636520666f6040820152651c8818d85b1b60d21b606082015260800190565b60208082526013908201527f5361666545524332303a20217375636365737300000000000000000000000000604082015260600190565b6020808252601c908201527f496e73756666696369656e7420746f6b656e4f757420616d6f756e7400000000604082015260600190565b60208082526021908201527f536166654d6174683a206d756c7469706c69636174696f6e206f766572666c6f6040820152607760f81b606082015260800190565b60208082526013908201527f546f6b656e732063616e6e6f74206d6174636800000000000000000000000000604082015260600190565b6020808252601d908201527f416464726573733a2063616c6c20746f206e6f6e2d636f6e7472616374000000604082015260600190565b60005b838110156116df5781810151838201526020016116c7565b838111156107a35750506000910152565b6001600160a01b038116811461170557600080fd5b5056fea2646970667358221220ce02c4a42a3a2fe9af754b05dfd02288ccc3dce0462f672e3cbfd7a4074f740764736f6c634300060c0033",
  "linkReferences": {},
  "deployedLinkReferences": {}
}