{
  "_format": "hh-sol-artifact-1",
  "contractName": "StrategyClaim",
  "sourceName": "contracts/libraries/StrategyClaim.sol",
  "abi": [
    {
      "anonymous": false,
      "inputs": [
        {
          "indexed": true,
          "internalType": "address",
          "name": "adapter",
          "type": "address"
        },
        {
          "indexed": true,
          "internalType": "address[]",
          "name": "tokens",
          "type": "address[]"
        }
      ],
      "name": "RewardsClaimed",
      "type": "event"
    },
    {
      "inputs": [
        {
          "internalType": "contract ITokenRegistry",
          "name": "tokenRegistry",
          "type": "ITokenRegistry"
        }
      ],
      "name": "getAllRewardTokens",
      "outputs": [
        {
          "internalType": "address[]",
          "name": "rewardTokens",
          "type": "address[]"
        }
      ],
      "stateMutability": "view",
      "type": "function"
    },
    {
      "inputs": [
        {
          "internalType": "contract ITokenRegistry",
          "name": "tokenRegistry",
          "type": "ITokenRegistry"
        }
      ],
      "name": "getAllToClaim",
      "outputs": [
        {
          "internalType": "uint256[]",
          "name": "keys",
          "type": "uint256[]"
        },
        {
          "internalType": "bytes[]",
          "name": "values",
          "type": "bytes[]"
        }
      ],
      "stateMutability": "view",
      "type": "function"
    },
    {
      "inputs": [
        {
          "internalType": "uint256",
          "name": "percentage",
          "type": "uint256"
        },
        {
          "internalType": "address[]",
          "name": "items",
          "type": "address[]"
        },
        {
          "internalType": "address[]",
          "name": "synths",
          "type": "address[]"
        },
        {
          "internalType": "contract IERC20",
          "name": "weth",
          "type": "IERC20"
        },
        {
          "internalType": "contract IERC20",
          "name": "susd",
          "type": "IERC20"
        }
      ],
      "name": "getWithdrawAmounts",
      "outputs": [
        {
          "internalType": "contract IERC20[]",
          "name": "tokens",
          "type": "IERC20[]"
        },
        {
          "internalType": "uint256[]",
          "name": "amounts",
          "type": "uint256[]"
        }
      ],
      "stateMutability": "view",
      "type": "function"
    }
  ],
  "bytecode": "0x611bae610026600b82828239805160001a60731461001957fe5b30600052607381538281f3fe73000000000000000000000000000000000000000030146080604052600436106100565760003560e01c806312b226931461005b57806355393b06146100845780636d8c674d146100a65780637b1b6338146100c7575b600080fd5b61006e6100693660046115cd565b6100e8565b60405161007b9190611885565b60405180910390f35b81801561009057600080fd5b506100a461009f36600461155e565b61027f565b005b6100b96100b436600461173f565b610468565b60405161007b92919061190a565b6100da6100d53660046115cd565b6106c0565b60405161007b92919061196a565b60608060606100f6846106c0565b9150915060006060806000610109611316565b6101116108a8565b86519091506000805b828110156102705789818151811061012e57fe5b6020026020010151975088818151811061014457fe5b602002602001015180602001905181019061015f919061149b565b96508651915060005b8281101561026757886001600160a01b031663b901d3c089838151811061018b57fe5b60200260200101516040518263ffffffff1660e01b81526004016101af9190611871565b60006040518083038186803b1580156101c757600080fd5b505afa1580156101db573d6000803e3d6000fd5b505050506040513d6000823e601f3d908101601f19168201604052610203919081019061149b565b965060005b875181101561025e5787818151811061021d57fe5b6020026020010151965061023a86886001600160a01b03166108f2565b61024357610256565b866020808f5102018e015260018d51018d525b600101610208565b50600101610168565b5060010161011a565b50505050505050505050919050565b6000306001600160a01b031663c45a01556040518163ffffffff1660e01b815260040160206040518083038186803b1580156102ba57600080fd5b505afa1580156102ce573d6000803e3d6000fd5b505050506040513d601f19601f820116820180604052508101906102f2919061144c565b6001600160a01b0316639d23c4c76040518163ffffffff1660e01b815260040160206040518083038186803b15801561032a57600080fd5b505afa15801561033e573d6000803e3d6000fd5b505050506040513d601f19601f82011682018060405250810190610362919061144c565b90506060600083815b8181101561045f5786868281811061037f57fe5b90506020028101906103919190611aa1565b81019061039e9190611468565b9350846001600160a01b0316635109dfcd856000815181106103bc57fe5b60200260200101516040518263ffffffff1660e01b81526004016103e09190611871565b60006040518083038186803b1580156103f857600080fd5b505afa15801561040c573d6000803e3d6000fd5b505050506040513d6000823e601f3d908101601f1916820160405261043491908101906115e9565b6020015192506001600160a01b03831661044d57610457565b61045783856109b3565b60010161036b565b50505050505050565b835183516060918291801515600081610484578360010161048b565b8284016002015b90508067ffffffffffffffff811180156104a457600080fd5b506040519080825280602002602001820160405280156104ce578160200160208202803683370190505b5095508067ffffffffffffffff811180156104e857600080fd5b50604051908082528060200260200182016040528015610512578160200160208202803683370190505b50945060005b848110156105885760008b828151811061052e57fe5b60200260200101519050610542818e610aa6565b87838151811061054e57fe5b6020026020010181815250508088838151811061056757fe5b6001600160a01b039092166020928302919091019091015250600101610518565b506000821561065c57506001198101845b8181101561060b5760008b878303815181106105b157fe5b602002602001015190506105c5818f610aa6565b8883815181106105d157fe5b602002602001018181525050808983815181106105ea57fe5b6001600160a01b039092166020928302919091019091015250600101610599565b50610616888d610aa6565b86828151811061062257fe5b6020026020010181815250508787828151811061063b57fe5b60200260200101906001600160a01b031690816001600160a01b0316815250505b50600019810161066c898d610aa6565b86828151811061067857fe5b6020026020010181815250508887828151811061069157fe5b60200260200101906001600160a01b031690816001600160a01b03168152505050505050509550959350505050565b6060806106cb611339565b6106d3610b4a565b90506106dd611316565b6106e56108a8565b90506000309050600061076e848489856001600160a01b031663c06fad066040518163ffffffff1660e01b815260040160006040518083038186803b15801561072d57600080fd5b505afa158015610741573d6000803e3d6000fd5b505050506040513d6000823e601f3d908101601f19168201604052610769919081019061149b565b610b94565b90506107af848489856001600160a01b031663803c88906040518163ffffffff1660e01b815260040160006040518083038186803b15801561072d57600080fd5b810190506107f2848489856001600160a01b0316630dca59c16040518163ffffffff1660e01b815260040160006040518083038186803b15801561072d57600080fd5b018061080157505050506108a3565b8067ffffffffffffffff8111801561081857600080fd5b50604051908082528060200260200182016040528015610842578160200160208202803683370190505b5095508067ffffffffffffffff8111801561085c57600080fd5b5060405190808252806020026020018201604052801561089057816020015b606081526020019060019003908161087b5790505b50945061089e848787610ce3565b505050505b915091565b6108b0611316565b6108b8611316565b6040805160028082526060820190925290816020015b6108d6611316565b8152602001906001900390816108ce5750506040820152919050565b815160009061090d57506001808352602083018290526109ad565b8183602001511415610921575060006109ad565b60008284602001511115610933575060015b8360400151818151811061094357fe5b6020026020010151600001511561097d576109758460400151828151811061096757fe5b6020026020010151846108f2565b9150506109ad565b61098683610d3e565b8460400151828151811061099657fe5b602002602001018190525060019150506109ad565b505b92915050565b606063318d9e5d60e01b826040516024016109ce9190611885565b60408051601f198184030181529190526020810180517bffffffffffffffffffffffffffffffffffffffffffffffffffffffff167fffffffff0000000000000000000000000000000000000000000000000000000090931692909217909152905060005a905060008060008451602086018886f4905080610a56576040513d806000833e8082fd5b83604051610a649190611832565b604051908190038120906001600160a01b038716907fd97107e96a7eca44b12eca043fee3fd64fb63e5748991e2ba16af74a8ffb33dc90600090a35050505050565b600080836001600160a01b03166370a08231306040518263ffffffff1660e01b8152600401610ad59190611871565b60206040518083038186803b158015610aed57600080fd5b505afa158015610b01573d6000803e3d6000fd5b505050506040513d601f19601f82011682018060405250810190610b259190611727565b9050670de0b6b3a7640000610b3a8285610d94565b81610b4157fe5b04949350505050565b610b52611339565b610b5a611339565b6040805160028082526060820190925290816020015b610b78611339565b815260200190600190039081610b705750506060820152919050565b60008060008060008060005b8751811015610cd457878181518110610bb557fe5b60200260200101519450886001600160a01b0316635109dfcd866040518263ffffffff1660e01b8152600401610beb9190611871565b60006040518083038186803b158015610c0357600080fd5b505afa158015610c17573d6000803e3d6000fd5b505050506040513d6000823e601f3d908101601f19168201604052610c3f91908101906115e9565b6020015193506001600160a01b038416610c5857610ccc565b8385604051602001610c6b92919061180b565b60408051601f1981840301815291905280516020909101209250610c8f8a84610dd5565b91508115610c9c57610ccc565b610ca68a84610dfd565b610cbd8b6001600160a01b03808716908816610e0b565b91508115610ccc578560010195505b600101610ba0565b50939998505050505050505050565b8051825114610d0d5760405162461bcd60e51b8152600401610d0490611a29565b60405180910390fd5b8051610d2b5760405162461bcd60e51b8152600401610d04906119f2565b610d388383836000610f09565b50505050565b610d46611316565b610d4e611316565b60018152602081018390526040805160028082526060820190925290816020015b610d77611316565b815260200190600190039081610d6f575050604082015292915050565b600082610da3575060006109ad565b82820282848281610db057fe5b0414610dce5760405162461bcd60e51b8152600401610d0490611a60565b9392505050565b6000610ddf611316565b610de98484610fd4565b8051909150156109ab575060019392505050565b610e078282611034565b5050565b6000610e15611339565b610e1f85856110de565b905060608160000151610ea15760408051600180825281830190925290602080830190803683370190505090508381600081518110610e5a57fe5b602002602001018181525050610e968560001c82604051602001610e7e91906118d2565b60408051601f19818403018152919052889190611136565b600192505050610dce565b8160400151806020019051810190610eb991906114ce565b90508360208083510201820152600181510180825250610eff8560001c82604051602001610ee791906118d2565b60408051601f198184030181529190528891906111f0565b5050509392505050565b60008460600151600081518110610f1c57fe5b60200260200101516000015115610f5457610f518560600151600081518110610f4157fe5b6020026020010151858585610f09565b91505b8460200151848381518110610f6557fe5b6020026020010181815250508460400151838381518110610f8257fe5b60200260200101819052508160010191508460600151600181518110610fa457fe5b60200260200101516000015115610fcc57610fc98560600151600181518110610f4157fe5b91505b509392505050565b610fdc611316565b82511580610fed5750818360200151145b15610ff95750816109ad565b6000828460200151111561100b575060015b61102c8460400151828151811061101e57fe5b602002602001015184610fd4565b949350505050565b815161104a576001825260208201819052610e07565b808260200151141561105b57610e07565b6000818360200151111561106d575060015b8260400151818151811061107d57fe5b602002602001015160000151156110b4576110af836040015182815181106110a157fe5b602002602001015183611034565b6110d9565b6110bd82610d3e565b836040015182815181106110cd57fe5b60200260200101819052505b505050565b6110e6611339565b825115806110f75750818360200151145b156111035750816109ad565b60008284602001511115611115575060015b61102c8460600151828151811061112857fe5b6020026020010151846110de565b8251611153576001835260208301829052604083018190526110d9565b818360200151141561116b57604083018190526110d9565b6000828460200151111561117d575060015b8360600151818151811061118d57fe5b602002602001015160000151156111c5576111c0846060015182815181106111b157fe5b60200260200101518484611136565b610d38565b6111cf83836112b9565b846060015182815181106111df57fe5b602002602001018190525050505050565b8251600090611212575060018084526020840183905260408401829052610dce565b828460200151141561122d5750604083018190526000610dce565b6000838560200151111561123f575060015b8460600151818151811061124f57fe5b6020026020010151600001511561128a576112828560600151828151811061127357fe5b602002602001015185856111f0565b915050610dce565b61129484846112b9565b856060015182815181106112a457fe5b60200260200101819052506001915050610dce565b6112c1611339565b6112c9611339565b60018152602081018490526040808201849052805160028082526060820190925290816020015b6112f8611339565b8152602001906001900390816112f057505060608201529392505050565b604051806060016040528060001515815260200160008152602001606081525090565b60405180608001604052806000151581526020016000815260200160608152602001606081525090565b80516109ad81611b60565b600082601f83011261137e578081fd5b813561139161138c82611b14565b611aed565b8181529150602080830190848101818402860182018710156113b257600080fd5b60005b848110156113da5781356113c881611b60565b845292820192908201906001016113b5565b505050505092915050565b600082601f8301126113f5578081fd5b815161140361138c82611b14565b81815291506020808301908481018184028601820187101561142457600080fd5b60005b848110156113da57815161143a81611b60565b84529282019290820190600101611427565b60006020828403121561145d578081fd5b8151610dce81611b60565b600060208284031215611479578081fd5b813567ffffffffffffffff81111561148f578182fd5b61102c8482850161136e565b6000602082840312156114ac578081fd5b815167ffffffffffffffff8111156114c2578182fd5b61102c848285016113e5565b600060208083850312156114e0578182fd5b825167ffffffffffffffff8111156114f6578283fd5b8301601f81018513611506578283fd5b805161151461138c82611b14565b8181528381019083850185840285018601891015611530578687fd5b8694505b83851015611552578051835260019490940193918501918501611534565b50979650505050505050565b60008060208385031215611570578081fd5b823567ffffffffffffffff80821115611587578283fd5b818501915085601f83011261159a578283fd5b8135818111156115a8578384fd5b86602080830285010111156115bb578384fd5b60209290920196919550909350505050565b6000602082840312156115de578081fd5b8135610dce81611b60565b600060208083850312156115fb578182fd5b825167ffffffffffffffff80821115611612578384fd5b9084019060408287031215611625578384fd5b61162f6040611aed565b82518281111561163d578586fd5b83016060818903121561164e578586fd5b6116586060611aed565b815184811115611666578788fd5b6116728a8285016113e5565b8252508582015184811115611685578788fd5b6116918a8285016113e5565b87830152506040820151848111156116a7578788fd5b80830192505088601f8301126116bb578687fd5b8151848111156116c9578788fd5b6116db601f8201601f19168801611aed565b945080855289878285010111156116f0578788fd5b6116ff81888701898601611b34565b506040810184905282525061171687848601611363565b848201528094505050505092915050565b600060208284031215611738578081fd5b5051919050565b600080600080600060a08688031215611756578081fd5b85359450602086013567ffffffffffffffff80821115611774578283fd5b61178089838a0161136e565b95506040880135915080821115611795578283fd5b506117a28882890161136e565b93505060608601356117b381611b60565b915060808601356117c381611b60565b809150509295509295909350565b6000815180845260208085019450808401835b83811015611800578151875295820195908201906001016117e4565b509495945050505050565b6bffffffffffffffffffffffff19606093841b811682529190921b16601482015260280190565b815160009082906020808601845b838110156118655781516001600160a01b031685529382019390820190600101611840565b50929695505050505050565b6001600160a01b0391909116815260200190565b6020808252825182820181905260009190848201906040850190845b818110156118c65783516001600160a01b0316835292840192918401916001016118a1565b50909695505050505050565b6020808252825182820181905260009190848201906040850190845b818110156118c6578351835292840192918401916001016118ee565b604080825283519082018190526000906020906060840190828701845b8281101561194c5781516001600160a01b031684529284019290840190600101611927565b5050508381038285015261196081866117d1565b9695505050505050565b60006040825261197d60408301856117d1565b602083820381850152818551808452828401915082838202850101838801865b838110156119e357601f1980888503018652825180518086526119c5818a88018b8501611b34565b96880196601f0190911693909301860192509085019060010161199d565b50909998505050505050505050565b6020808252601c908201527f72656164496e746f3a206172726179206c656e677468203d3d20302e00000000604082015260600190565b6020808252601a908201527f72656164496e746f3a206c656e677468206d69736d617463682e000000000000604082015260600190565b60208082526021908201527f536166654d6174683a206d756c7469706c69636174696f6e206f766572666c6f6040820152607760f81b606082015260800190565b6000808335601e19843603018112611ab7578283fd5b83018035915067ffffffffffffffff821115611ad1578283fd5b602001915036819003821315611ae657600080fd5b9250929050565b60405181810167ffffffffffffffff81118282101715611b0c57600080fd5b604052919050565b600067ffffffffffffffff821115611b2a578081fd5b5060209081020190565b60005b83811015611b4f578181015183820152602001611b37565b83811115610d385750506000910152565b6001600160a01b0381168114611b7557600080fd5b5056fea2646970667358221220966ae5d1f2f0975c1378dd709b40e656255010fcde760ced318260e5eacc5ca064736f6c634300060c0033",
  "linkReferences": {},
  "deployedLinkReferences": {}
}