{
  "_format": "hh-sol-artifact-1",
  "contractName": "TokenProxy",
  "sourceName": "contracts/test/weird_tokens/Proxied.sol",
  "abi": [
    {
      "inputs": [
        {
          "internalType": "address",
          "name": "_impl",
          "type": "address"
        }
      ],
      "stateMutability": "nonpayable",
      "type": "constructor"
    },
    {
      "stateMutability": "payable",
      "type": "fallback"
    },
    {
      "inputs": [],
      "name": "impl",
      "outputs": [
        {
          "internalType": "address payable",
          "name": "",
          "type": "address"
        }
      ],
      "stateMutability": "view",
      "type": "function"
    },
    {
      "stateMutability": "payable",
      "type": "receive"
    }
  ],
  "bytecode": "0x60a060405234801561001057600080fd5b506040516101ae3803806101ae8339818101604052602081101561003357600080fd5b5051606081901b6001600160601b0319166080526001600160a01b031661014461006a60003980606e528060ec52506101446000f3fe6080604052600436106100225760003560e01c80638abf6077146100b957610069565b36610069576040805162461bcd60e51b8152602060048201526012602482015271646f6e27742073656e64206d65204554482160701b604482015290519081900360640190fd5b6040517f00000000000000000000000000000000000000000000000000000000000000009036600082373336820152600080602036018334865af13d806000843e8180156100b5578184f35b8184fd5b3480156100c557600080fd5b506100ce6100ea565b604080516001600160a01b039092168252519081900360200190f35b7f00000000000000000000000000000000000000000000000000000000000000008156fea264697066735822122089cfd3e07b61ae5e21d655ef28a9f36e20e44f13427b1572e599b85b713bd3bf64736f6c634300060c0033",
  "linkReferences": {},
  "deployedLinkReferences": {}
}