{
    "_format": "hh-sol-artifact-1",
    "contractName": "UniswapV2LPAdapter",
    "sourceName": "contracts/adapters/liquidity/UniswapV2LPAdapter.sol",
    "abi": [
        {
            "inputs": [
                {
                    "internalType": "address",
                    "name": "factory_",
                    "type": "address"
                },
                {
                    "internalType": "address",
                    "name": "weth_",
                    "type": "address"
                }
            ],
            "stateMutability": "nonpayable",
            "type": "constructor"
        },
        {
            "inputs": [],
            "name": "factory",
            "outputs": [
                {
                    "internalType": "address",
                    "name": "",
                    "type": "address"
                }
            ],
            "stateMutability": "view",
            "type": "function"
        },
        {
            "inputs": [
                {
                    "internalType": "uint256",
                    "name": "amount",
                    "type": "uint256"
                },
                {
                    "internalType": "uint256",
                    "name": "expected",
                    "type": "uint256"
                },
                {
                    "internalType": "address",
                    "name": "tokenIn",
                    "type": "address"
                },
                {
                    "internalType": "address",
                    "name": "tokenOut",
                    "type": "address"
                },
                {
                    "internalType": "address",
                    "name": "from",
                    "type": "address"
                },
                {
                    "internalType": "address",
                    "name": "to",
                    "type": "address"
                }
            ],
            "name": "swap",
            "outputs": [],
            "stateMutability": "nonpayable",
            "type": "function"
        },
        {
            "inputs": [],
            "name": "weth",
            "outputs": [
                {
                    "internalType": "address",
                    "name": "",
                    "type": "address"
                }
            ],
            "stateMutability": "view",
            "type": "function"
        }
    ],
    "bytecode": "0x60c060405234801561001057600080fd5b506040516122693803806122698339818101604052604081101561003357600080fd5b5080516020909101516001600160601b0319606091821b811660805291901b1660a05260805160601c60a05160601c6121776100f2600039806106815280610b6f5280610c2a5280610ea7528061104f528061110a5280611a7152508061011d5280610181528061022052806103b2528061065d52806107e252806108525280610aa35280610b915280610bcf5280610c4b5280610ec8528061107052806110af528061112b528061115f5280611a285280611a9252506121776000f3fe608060405234801561001057600080fd5b50600436106100415760003560e01c8063230f11c7146100465780633fc8cef314610092578063c45a0155146100b6575b600080fd5b610090600480360360c081101561005c57600080fd5b508035906020810135906001600160a01b0360408201358116916060810135821691608082013581169160a00135166100be565b005b61009a61065b565b604080516001600160a01b039092168252519081900360200190f35b61009a61067f565b826001600160a01b0316846001600160a01b0316141561011b576040805162461bcd60e51b81526020600482015260136024820152720a8ded6cadce640c6c2dcdcdee840dac2e8c6d606b1b604482015290519081900360640190fd5b7f00000000000000000000000000000000000000000000000000000000000000006001600160a01b0316846001600160a01b031614156103b0576001600160a01b038216301461017a5761017a6001600160a01b0385168330896106a3565b60008390507f00000000000000000000000000000000000000000000000000000000000000006001600160a01b0316816001600160a01b0316630dfe16816040518163ffffffff1660e01b815260040160206040518083038186803b1580156101e257600080fd5b505afa1580156101f6573d6000803e3d6000fd5b505050506040513d602081101561020c57600080fd5b50516001600160a01b031614806102b857507f00000000000000000000000000000000000000000000000000000000000000006001600160a01b0316816001600160a01b031663d21220a76040518163ffffffff1660e01b815260040160206040518083038186803b15801561028157600080fd5b505afa158015610295573d6000803e3d6000fd5b505050506040513d60208110156102ab57600080fd5b50516001600160a01b0316145b156102cc576102c78782610703565b6102d6565b6102d68782610896565b6000816001600160a01b0316636a627842846040518263ffffffff1660e01b815260040180826001600160a01b03168152602001915050602060405180830381600087803b15801561032757600080fd5b505af115801561033b573d6000803e3d6000fd5b505050506040513d602081101561035157600080fd5b50519050868110156103a9576040805162461bcd60e51b815260206004820152601c60248201527b125b9cdd59999a58da595b9d081d1bdad95b93dd5d08185b5bdd5b9d60221b604482015290519081900360640190fd5b5050610653565b7f00000000000000000000000000000000000000000000000000000000000000006001600160a01b0316836001600160a01b03161415610610576001600160a01b03821630146104145761040f6001600160a01b0385168386896106a3565b610428565b6104286001600160a01b0385168588610a48565b60008490506000816001600160a01b0316630dfe16816040518163ffffffff1660e01b815260040160206040518083038186803b15801561046857600080fd5b505afa15801561047c573d6000803e3d6000fd5b505050506040513d602081101561049257600080fd5b50516040805163d21220a760e01b815290519192506000916001600160a01b0385169163d21220a7916004808301926020929190829003018186803b1580156104da57600080fd5b505afa1580156104ee573d6000803e3d6000fd5b505050506040513d602081101561050457600080fd5b50516040805163226bf2d160e21b8152306004820152815192935060009283926001600160a01b038816926389afcb44926024808301939282900301818787803b15801561055157600080fd5b505af1158015610565573d6000803e3d6000fd5b505050506040513d604081101561057b57600080fd5b50805160209091015190925090506000610596838689610a9f565b905060006105a583868a610a9f565b90508b6105b28383610d8d565b1015610604576040805162461bcd60e51b815260206004820152601c60248201527b125b9cdd59999a58da595b9d081d1bdad95b93dd5d08185b5bdd5b9d60221b604482015290519081900360640190fd5b50505050505050610653565b6040805162461bcd60e51b8152602060048201526013602482015272151bdad95b881b9bdd081cdd5c1c1bdc9d1959606a1b604482015290519081900360640190fd5b505050505050565b7f000000000000000000000000000000000000000000000000000000000000000081565b7f000000000000000000000000000000000000000000000000000000000000000081565b604080516001600160a01b0380861660248301528416604482015260648082018490528251808303909101815260849091019091526020810180516001600160e01b03166323b872dd60e01b1790526106fd908590610dee565b50505050565b6000816001600160a01b0316630dfe16816040518163ffffffff1660e01b815260040160206040518083038186803b15801561073e57600080fd5b505afa158015610752573d6000803e3d6000fd5b505050506040513d602081101561076857600080fd5b50516040805163d21220a760e01b815290519192506000916001600160a01b0385169163d21220a7916004808301926020929190829003018186803b1580156107b057600080fd5b505afa1580156107c4573d6000803e3d6000fd5b505050506040513d60208110156107da57600080fd5b5051905060007f00000000000000000000000000000000000000000000000000000000000000006001600160a01b039081169084161461081a578261081c565b815b9050600061082a8683610e9f565b905060006108388284611045565b905061087986610848898561127f565b6001600160a01b037f0000000000000000000000000000000000000000000000000000000000000000169190610a48565b61088d6001600160a01b0384168783610a48565b50505050505050565b6000816001600160a01b0316630dfe16816040518163ffffffff1660e01b815260040160206040518083038186803b1580156108d157600080fd5b505afa1580156108e5573d6000803e3d6000fd5b505050506040513d60208110156108fb57600080fd5b50516040805163d21220a760e01b815290519192506000916001600160a01b0385169163d21220a7916004808301926020929190829003018186803b15801561094357600080fd5b505afa158015610957573d6000803e3d6000fd5b505050506040513d602081101561096d57600080fd5b810190808051906020019092919050505090506000806109f685858589896001600160a01b03166318160ddd6040518163ffffffff1660e01b815260040160206040518083038186803b1580156109c357600080fd5b505afa1580156109d7573d6000803e3d6000fd5b505050506040513d60208110156109ed57600080fd5b505160006112c1565b915091506000610a068386611045565b90506000610a148386611045565b9050610a2a6001600160a01b0387168884610a48565b610a3e6001600160a01b0386168883610a48565b5050505050505050565b604080516001600160a01b038416602482015260448082018490528251808303909101815260649091019091526020810180516001600160e01b031663a9059cbb60e01b179052610a9a908490610dee565b505050565b60007f00000000000000000000000000000000000000000000000000000000000000006001600160a01b0316836001600160a01b03161415610b6757826001600160a01b031663a9059cbb83866040518363ffffffff1660e01b815260040180836001600160a01b0316815260200182815260200192505050602060405180830381600087803b158015610b3257600080fd5b505af1158015610b46573d6000803e3d6000fd5b505050506040513d6020811015610b5c57600080fd5b50849150610d869050565b600080610bb57f0000000000000000000000000000000000000000000000000000000000000000867f000000000000000000000000000000000000000000000000000000000000000061132a565b915091506000610bc68784846113f1565b90506000610bf47f0000000000000000000000000000000000000000000000000000000000000000886114c9565b509050600080826001600160a01b0316896001600160a01b031614610c1b57836000610c1f565b6000845b915091506000610c707f00000000000000000000000000000000000000000000000000000000000000007f00000000000000000000000000000000000000000000000000000000000000008c6115a7565b9050610c866001600160a01b038b16828d610a48565b604080516000808252602082019092526001600160a01b0383169163022c0d9f91869186918e91506040518563ffffffff1660e01b815260040180858152602001848152602001836001600160a01b0316815260200180602001828103825283818151815260200191508051906020019080838360005b83811015610d15578181015183820152602001610cfd565b50505050905090810190601f168015610d425780820380516001836020036101000a031916815260200191505b5095505050505050600060405180830381600087803b158015610d6457600080fd5b505af1158015610d78573d6000803e3d6000fd5b509699505050505050505050505b9392505050565b600082820183811015610de5576040805162461bcd60e51b815260206004820152601b60248201527a536166654d6174683a206164646974696f6e206f766572666c6f7760281b604482015290519081900360640190fd5b90505b92915050565b6060610e43826040518060400160405280602081526020017f5361666545524332303a206c6f772d6c6576656c2063616c6c206661696c6564815250856001600160a01b03166116629092919063ffffffff16565b805190915015610a9a57808060200190516020811015610e6257600080fd5b5051610a9a5760405162461bcd60e51b815260040180806020018281038252602a8152602001806120ed602a913960400191505060405180910390fd5b600080610eed7f00000000000000000000000000000000000000000000000000000000000000007f00000000000000000000000000000000000000000000000000000000000000008561132a565b50905083816000610f0c6103e5610f06846107cd611679565b90611722565b90506000610f2d6103e5610f0686610f276103e71988611679565b90611679565b90506000610f4f610f3f600484611679565b610f498580611679565b906117da565b90506000811215610f915760405162461bcd60e51b81526004018080602001828103825260298152602001806120076029913960400191505060405180910390fd5b600083810390610fa08361183f565b905060026000610fb482610f068686611891565b9050806000128015610fc557508881125b15610fdb579950610de898505050505050505050565b610fe982610f0686866117da565b9050806000128015610ffa57508881125b6110355760405162461bcd60e51b815260040180806020018281038252602c81526020018061209d602c913960400191505060405180910390fd5b9c9b505050505050505050505050565b60008060006110957f00000000000000000000000000000000000000000000000000000000000000007f00000000000000000000000000000000000000000000000000000000000000008661132a565b9150915060006110a68684846113f1565b905060006110d47f0000000000000000000000000000000000000000000000000000000000000000876114c9565b509050600080826001600160a01b0316886001600160a01b0316146110fb576000846110ff565b8360005b9150915060006111507f00000000000000000000000000000000000000000000000000000000000000007f00000000000000000000000000000000000000000000000000000000000000008b6115a7565b90506111866001600160a01b037f000000000000000000000000000000000000000000000000000000000000000016828c610a48565b604080516000808252602082019283905263022c0d9f60e01b835260248201868152604483018690523060648401819052608060848501908152845160a486018190526001600160a01b0388169663022c0d9f968b968b9691949193919260c486019290918190849084905b8381101561120a5781810151838201526020016111f2565b50505050905090810190601f1680156112375780820380516001836020036101000a031916815260200191505b5095505050505050600060405180830381600087803b15801561125957600080fd5b505af115801561126d573d6000803e3d6000fd5b50969c9b505050505050505050505050565b6000610de583836040518060400160405280601e81526020017f536166654d6174683a207375627472616374696f6e206f766572666c6f7700008152506118f6565b60008060006112d2888a878761198d565b905060006112e2888b888861198d565b905060006112f08383610d8d565b90506000611308826113028b87611ae2565b90611b3b565b905060006113168a8361127f565b919d919c50909a5050505050505050505050565b600080600061133985856114c9565b50905060008061134a8888886115a7565b6001600160a01b0316630902f1ac6040518163ffffffff1660e01b815260040160606040518083038186803b15801561138257600080fd5b505afa158015611396573d6000803e3d6000fd5b505050506040513d60608110156113ac57600080fd5b5080516020909101516001600160701b0391821693501690506001600160a01b03878116908416146113df5780826113e2565b81815b90999098509650505050505050565b60008084116114315760405162461bcd60e51b815260040180806020018281038252602b815260200180612117602b913960400191505060405180910390fd5b6000831180156114415750600082115b61147c5760405162461bcd60e51b8152600401808060200182810382526028815260200180611fdf6028913960400191505060405180910390fd5b600061148a856103e5611ae2565b905060006114988285611ae2565b905060006114b2836114ac886103e8611ae2565b90610d8d565b90508082816114bd57fe5b04979650505050505050565b600080826001600160a01b0316846001600160a01b0316141561151d5760405162461bcd60e51b8152600401808060200182810382526025815260200180611f736025913960400191505060405180910390fd5b826001600160a01b0316846001600160a01b03161061153d578284611540565b83835b90925090506001600160a01b0382166115a0576040805162461bcd60e51b815260206004820152601e60248201527f556e697377617056324c6962726172793a205a45524f5f414444524553530000604482015290519081900360640190fd5b9250929050565b60008060006115b685856114c9565b604080516001600160601b0319606094851b811660208084019190915293851b81166034830152825160288184030181526048830184528051908501206001600160f81b031960688401529a90941b9093166069840152607d8301989098527f96e8ac4277198ff8b6f785478aa9a39f403cb768dd02cbee326c3e7da348845f609d808401919091528851808403909101815260bd909201909752805196019590952095945050505050565b60606116718484600085611b7a565b949350505050565b60008261168857506000610de8565b8260001914801561169c5750600160ff1b82145b156116d85760405162461bcd60e51b81526004018080602001828103825260278152602001806120516027913960400191505060405180910390fd5b828202828482816116e557fe5b0514610de55760405162461bcd60e51b81526004018080602001828103825260278152602001806120516027913960400191505060405180910390fd5b600081611776576040805162461bcd60e51b815260206004820181905260248201527f5369676e6564536166654d6174683a206469766973696f6e206279207a65726f604482015290519081900360640190fd5b8160001914801561178a5750600160ff1b83145b156117c65760405162461bcd60e51b8152600401808060200182810382526021815260200180611fbe6021913960400191505060405180910390fd5b60008284816117d157fe5b05949350505050565b60008183038183128015906117ef5750838113155b80611804575060008312801561180457508381135b610de55760405162461bcd60e51b81526004018080602001828103825260248152602001806120c96024913960400191505060405180910390fd5b60006003821115611882575080600160028204015b8181101561187c5780915060028182858161186b57fe5b04018161187457fe5b049050611854565b5061188c565b811561188c575060015b919050565b60008282018183128015906118a65750838112155b806118bb57506000831280156118bb57508381125b610de55760405162461bcd60e51b8152600401808060200182810382526021815260200180611f526021913960400191505060405180910390fd5b600081848411156119855760405162461bcd60e51b81526004018080602001828103825283818151815260200191508051906020019080838360005b8381101561194a578181015183820152602001611932565b50505050905090810190601f1680156119775780820380516001836020036101000a031916815260200191505b509250505060405180910390fd5b505050900390565b600080856001600160a01b03166370a08231866040518263ffffffff1660e01b815260040180826001600160a01b0316815260200191505060206040518083038186803b1580156119dd57600080fd5b505afa1580156119f1573d6000803e3d6000fd5b505050506040513d6020811015611a0757600080fd5b50519050600084611a1c633b9aca0084611ae2565b81611a2357fe5b0490507f00000000000000000000000000000000000000000000000000000000000000006001600160a01b0316876001600160a01b03161415611a695791506116719050565b600080611ab77f00000000000000000000000000000000000000000000000000000000000000007f00000000000000000000000000000000000000000000000000000000000000008b61132a565b915091508515611ad757611acc838284611cd6565b945050505050611671565b611acc838383611d7c565b600082611af157506000610de8565b82820282848281611afe57fe5b0414610de55760405162461bcd60e51b81526004018080602001828103825260218152602001806120306021913960400191505060405180910390fd5b6000610de583836040518060400160405280601a815260200179536166654d6174683a206469766973696f6e206279207a65726f60301b815250611e54565b606082471015611bbb5760405162461bcd60e51b8152600401808060200182810382526026815260200180611f986026913960400191505060405180910390fd5b611bc485611eb9565b611c15576040805162461bcd60e51b815260206004820152601d60248201527f416464726573733a2063616c6c20746f206e6f6e2d636f6e7472616374000000604482015290519081900360640190fd5b60006060866001600160a01b031685876040518082805190602001908083835b60208310611c545780518252601f199092019160209182019101611c35565b6001836020036101000a03801982511681845116808217855250505050505090500191505060006040518083038185875af1925050503d8060008114611cb6576040519150601f19603f3d011682016040523d82523d6000602084013e611cbb565b606091505b5091509150611ccb828286611ebf565b979650505050505050565b6000808411611d165760405162461bcd60e51b81526004018080602001828103825260258152602001806120786025913960400191505060405180910390fd5b600083118015611d265750600082115b611d615760405162461bcd60e51b8152600401808060200182810382526028815260200180611fdf6028913960400191505060405180910390fd5b82611d6c8584611ae2565b81611d7357fe5b04949350505050565b6000808411611dbc5760405162461bcd60e51b815260040180806020018281038252602c815260200180611f26602c913960400191505060405180910390fd5b600083118015611dcc5750600082115b611e075760405162461bcd60e51b8152600401808060200182810382526028815260200180611fdf6028913960400191505060405180910390fd5b6000611e1f6103e8611e198688611ae2565b90611ae2565b90506000611e336103e5611e19868961127f565b9050611e4a6001828481611e4357fe5b0490610d8d565b9695505050505050565b60008183611ea35760405162461bcd60e51b815260206004820181815283516024840152835190928392604490910191908501908083836000831561194a578181015183820152602001611932565b506000838581611eaf57fe5b0495945050505050565b3b151590565b60608315611ece575081610d86565b825115611ede5782518084602001fd5b60405162461bcd60e51b815260206004820181815284516024840152845185939192839260440191908501908083836000831561194a57818101518382015260200161193256fe556e697377617056324c6962726172793a20494e53554646494349454e545f4f55545055545f414d4f554e545369676e6564536166654d6174683a206164646974696f6e206f766572666c6f77556e697377617056324c6962726172793a204944454e544943414c5f414444524553534553416464726573733a20696e73756666696369656e742062616c616e636520666f722063616c6c5369676e6564536166654d6174683a206469766973696f6e206f766572666c6f77556e697377617056324c6962726172793a20494e53554646494349454e545f4c49515549444954595f63616c63756c61746557657468546f53656c6c3a20736f6c7574696f6e20696d6167696e6172792e536166654d6174683a206d756c7469706c69636174696f6e206f766572666c6f775369676e6564536166654d6174683a206d756c7469706c69636174696f6e206f766572666c6f77556e697377617056324c6962726172793a20494e53554646494349454e545f414d4f554e545f63616c63756c61746557657468546f53656c6c3a20736f6c7574696f6e206f7574206f662072616e67652e5369676e6564536166654d6174683a207375627472616374696f6e206f766572666c6f775361666545524332303a204552433230206f7065726174696f6e20646964206e6f742073756363656564556e697377617056324c6962726172793a20494e53554646494349454e545f494e5055545f414d4f554e54a2646970667358221220eb1ea68bdf2406d19250efbe0128a06aa393b05e70ddde944dad5e06d3bf183764736f6c634300060c0033",
    "linkReferences": {},
    "deployedLinkReferences": {}
}