{
  "_format": "hh-sol-artifact-1",
  "contractName": "StrategyController",
  "sourceName": "contracts/StrategyController.sol",
  "abi": [
    {
      "inputs": [
        {
          "internalType": "address",
          "name": "factory_",
          "type": "address"
        }
      ],
      "stateMutability": "nonpayable",
      "type": "constructor"
    },
    {
      "anonymous": false,
      "inputs": [
        {
          "indexed": true,
          "internalType": "address",
          "name": "strategy",
          "type": "address"
        },
        {
          "indexed": false,
          "internalType": "uint256",
          "name": "totalBefore",
          "type": "uint256"
        },
        {
          "indexed": false,
          "internalType": "uint256",
          "name": "totalAfter",
          "type": "uint256"
        }
      ],
      "name": "Balanced",
      "type": "event"
    },
    {
      "anonymous": false,
      "inputs": [
        {
          "indexed": true,
          "internalType": "address",
          "name": "strategy",
          "type": "address"
        },
        {
          "indexed": true,
          "internalType": "address",
          "name": "account",
          "type": "address"
        },
        {
          "indexed": false,
          "internalType": "uint256",
          "name": "value",
          "type": "uint256"
        },
        {
          "indexed": false,
          "internalType": "uint256",
          "name": "amount",
          "type": "uint256"
        }
      ],
      "name": "Deposit",
      "type": "event"
    },
    {
      "anonymous": false,
      "inputs": [
        {
          "indexed": true,
          "internalType": "address",
          "name": "strategy",
          "type": "address"
        },
        {
          "components": [
            {
              "internalType": "address",
              "name": "item",
              "type": "address"
            },
            {
              "internalType": "int256",
              "name": "percentage",
              "type": "int256"
            },
            {
              "components": [
                {
                  "internalType": "address[]",
                  "name": "adapters",
                  "type": "address[]"
                },
                {
                  "internalType": "address[]",
                  "name": "path",
                  "type": "address[]"
                },
                {
                  "internalType": "bytes",
                  "name": "cache",
                  "type": "bytes"
                }
              ],
              "internalType": "struct StrategyTypes.TradeData",
              "name": "data",
              "type": "tuple"
            }
          ],
          "indexed": false,
          "internalType": "struct StrategyTypes.StrategyItem[]",
          "name": "items",
          "type": "tuple[]"
        },
        {
          "indexed": true,
          "internalType": "bool",
          "name": "finalized",
          "type": "bool"
        }
      ],
      "name": "NewStructure",
      "type": "event"
    },
    {
      "anonymous": false,
      "inputs": [
        {
          "indexed": true,
          "internalType": "address",
          "name": "strategy",
          "type": "address"
        },
        {
          "indexed": false,
          "internalType": "enum StrategyTypes.TimelockCategory",
          "name": "category",
          "type": "uint8"
        },
        {
          "indexed": false,
          "internalType": "uint256",
          "name": "newValue",
          "type": "uint256"
        },
        {
          "indexed": true,
          "internalType": "bool",
          "name": "finalized",
          "type": "bool"
        }
      ],
      "name": "NewValue",
      "type": "event"
    },
    {
      "anonymous": false,
      "inputs": [
        {
          "indexed": true,
          "internalType": "uint256",
          "name": "rebalanceTimelockPeriod",
          "type": "uint256"
        },
        {
          "indexed": true,
          "internalType": "uint256",
          "name": "rebalanceThreshold",
          "type": "uint256"
        },
        {
          "indexed": true,
          "internalType": "bool",
          "name": "finalized",
          "type": "bool"
        }
      ],
      "name": "RebalanceParametersUpdated",
      "type": "event"
    },
    {
      "anonymous": false,
      "inputs": [
        {
          "indexed": true,
          "internalType": "address",
          "name": "strategy",
          "type": "address"
        },
        {
          "indexed": true,
          "internalType": "address",
          "name": "adapter",
          "type": "address"
        },
        {
          "indexed": true,
          "internalType": "address",
          "name": "token",
          "type": "address"
        }
      ],
      "name": "Repositioned",
      "type": "event"
    },
    {
      "anonymous": false,
      "inputs": [
        {
          "indexed": true,
          "internalType": "address",
          "name": "strategy",
          "type": "address"
        }
      ],
      "name": "StrategyOpen",
      "type": "event"
    },
    {
      "anonymous": false,
      "inputs": [
        {
          "indexed": true,
          "internalType": "address",
          "name": "strategy",
          "type": "address"
        }
      ],
      "name": "StrategySet",
      "type": "event"
    },
    {
      "anonymous": false,
      "inputs": [
        {
          "indexed": false,
          "internalType": "bytes32",
          "name": "identifier",
          "type": "bytes32"
        },
        {
          "indexed": false,
          "internalType": "uint256",
          "name": "value",
          "type": "uint256"
        }
      ],
      "name": "TimelockSet",
      "type": "event"
    },
    {
      "anonymous": false,
      "inputs": [
        {
          "indexed": false,
          "internalType": "uint256",
          "name": "delay",
          "type": "uint256"
        },
        {
          "indexed": false,
          "internalType": "bool",
          "name": "finalized",
          "type": "bool"
        }
      ],
      "name": "UpdateTimelock",
      "type": "event"
    },
    {
      "anonymous": false,
      "inputs": [
        {
          "indexed": true,
          "internalType": "address",
          "name": "strategy",
          "type": "address"
        },
        {
          "indexed": true,
          "internalType": "address",
          "name": "item",
          "type": "address"
        },
        {
          "components": [
            {
              "internalType": "address[]",
              "name": "adapters",
              "type": "address[]"
            },
            {
              "internalType": "address[]",
              "name": "path",
              "type": "address[]"
            },
            {
              "internalType": "bytes",
              "name": "cache",
              "type": "bytes"
            }
          ],
          "indexed": false,
          "internalType": "struct StrategyTypes.TradeData",
          "name": "data",
          "type": "tuple"
        },
        {
          "indexed": true,
          "internalType": "bool",
          "name": "finalized",
          "type": "bool"
        }
      ],
      "name": "UpdateTradeData",
      "type": "event"
    },
    {
      "anonymous": false,
      "inputs": [
        {
          "indexed": true,
          "internalType": "address",
          "name": "strategy",
          "type": "address"
        },
        {
          "indexed": true,
          "internalType": "address",
          "name": "account",
          "type": "address"
        },
        {
          "indexed": false,
          "internalType": "uint256",
          "name": "value",
          "type": "uint256"
        },
        {
          "indexed": false,
          "internalType": "uint256",
          "name": "amount",
          "type": "uint256"
        }
      ],
      "name": "Withdraw",
      "type": "event"
    },
    {
      "inputs": [],
      "name": "UNSET_VALUE",
      "outputs": [
        {
          "internalType": "bytes",
          "name": "",
          "type": "bytes"
        }
      ],
      "stateMutability": "view",
      "type": "function"
    },
    {
      "inputs": [
        {
          "internalType": "contract IStrategy",
          "name": "strategy",
          "type": "address"
        }
      ],
      "name": "claimAll",
      "outputs": [],
      "stateMutability": "nonpayable",
      "type": "function"
    },
    {
      "inputs": [
        {
          "internalType": "contract IStrategy",
          "name": "strategy",
          "type": "address"
        },
        {
          "internalType": "contract IStrategyRouter",
          "name": "router",
          "type": "address"
        },
        {
          "internalType": "uint256",
          "name": "amount",
          "type": "uint256"
        },
        {
          "internalType": "uint256",
          "name": "slippage",
          "type": "uint256"
        },
        {
          "internalType": "bytes",
          "name": "data",
          "type": "bytes"
        }
      ],
      "name": "deposit",
      "outputs": [],
      "stateMutability": "payable",
      "type": "function"
    },
    {
      "inputs": [],
      "name": "factory",
      "outputs": [
        {
          "internalType": "address",
          "name": "",
          "type": "address"
        }
      ],
      "stateMutability": "view",
      "type": "function"
    },
    {
      "inputs": [],
      "name": "finalizeRebalanceParameters",
      "outputs": [],
      "stateMutability": "nonpayable",
      "type": "function"
    },
    {
      "inputs": [
        {
          "internalType": "contract IStrategy",
          "name": "strategy",
          "type": "address"
        },
        {
          "internalType": "contract IStrategyRouter",
          "name": "router",
          "type": "address"
        },
        {
          "internalType": "bytes",
          "name": "data",
          "type": "bytes"
        }
      ],
      "name": "finalizeStructure",
      "outputs": [],
      "stateMutability": "nonpayable",
      "type": "function"
    },
    {
      "inputs": [
        {
          "internalType": "contract IStrategy",
          "name": "strategy",
          "type": "address"
        }
      ],
      "name": "finalizeTradeData",
      "outputs": [],
      "stateMutability": "nonpayable",
      "type": "function"
    },
    {
      "inputs": [
        {
          "internalType": "contract IStrategy",
          "name": "strategy",
          "type": "address"
        }
      ],
      "name": "finalizeValue",
      "outputs": [],
      "stateMutability": "nonpayable",
      "type": "function"
    },
    {
      "inputs": [],
      "name": "initialize",
      "outputs": [],
      "stateMutability": "nonpayable",
      "type": "function"
    },
    {
      "inputs": [
        {
          "internalType": "address",
          "name": "strategy",
          "type": "address"
        }
      ],
      "name": "initialized",
      "outputs": [
        {
          "internalType": "bool",
          "name": "",
          "type": "bool"
        }
      ],
      "stateMutability": "view",
      "type": "function"
    },
    {
      "inputs": [
        {
          "internalType": "contract IStrategy",
          "name": "strategy",
          "type": "address"
        }
      ],
      "name": "openStrategy",
      "outputs": [],
      "stateMutability": "nonpayable",
      "type": "function"
    },
    {
      "inputs": [],
      "name": "oracle",
      "outputs": [
        {
          "internalType": "contract IOracle",
          "name": "",
          "type": "address"
        }
      ],
      "stateMutability": "view",
      "type": "function"
    },
    {
      "inputs": [],
      "name": "pool",
      "outputs": [
        {
          "internalType": "address",
          "name": "",
          "type": "address"
        }
      ],
      "stateMutability": "view",
      "type": "function"
    },
    {
      "inputs": [
        {
          "internalType": "contract IStrategy",
          "name": "strategy",
          "type": "address"
        },
        {
          "internalType": "contract IStrategyRouter",
          "name": "router",
          "type": "address"
        },
        {
          "internalType": "bytes",
          "name": "data",
          "type": "bytes"
        }
      ],
      "name": "rebalance",
      "outputs": [],
      "stateMutability": "nonpayable",
      "type": "function"
    },
    {
      "inputs": [],
      "name": "rebalanceThresholdScalar",
      "outputs": [
        {
          "internalType": "uint256",
          "name": "",
          "type": "uint256"
        }
      ],
      "stateMutability": "view",
      "type": "function"
    },
    {
      "inputs": [
        {
          "internalType": "contract IStrategy",
          "name": "strategy",
          "type": "address"
        },
        {
          "internalType": "address",
          "name": "token",
          "type": "address"
        }
      ],
      "name": "repositionSynths",
      "outputs": [],
      "stateMutability": "nonpayable",
      "type": "function"
    },
    {
      "inputs": [
        {
          "internalType": "contract IStrategy",
          "name": "strategy",
          "type": "address"
        },
        {
          "components": [
            {
              "internalType": "address",
              "name": "item",
              "type": "address"
            },
            {
              "internalType": "int256",
              "name": "percentage",
              "type": "int256"
            },
            {
              "components": [
                {
                  "internalType": "address[]",
                  "name": "adapters",
                  "type": "address[]"
                },
                {
                  "internalType": "address[]",
                  "name": "path",
                  "type": "address[]"
                },
                {
                  "internalType": "bytes",
                  "name": "cache",
                  "type": "bytes"
                }
              ],
              "internalType": "struct StrategyTypes.TradeData",
              "name": "data",
              "type": "tuple"
            }
          ],
          "internalType": "struct StrategyTypes.StrategyItem[]",
          "name": "strategyItems",
          "type": "tuple[]"
        }
      ],
      "name": "restructure",
      "outputs": [],
      "stateMutability": "nonpayable",
      "type": "function"
    },
    {
      "inputs": [
        {
          "internalType": "contract IStrategy",
          "name": "strategy",
          "type": "address"
        }
      ],
      "name": "setStrategy",
      "outputs": [],
      "stateMutability": "nonpayable",
      "type": "function"
    },
    {
      "inputs": [
        {
          "internalType": "address",
          "name": "manager_",
          "type": "address"
        },
        {
          "internalType": "address",
          "name": "strategy_",
          "type": "address"
        },
        {
          "components": [
            {
              "internalType": "uint32",
              "name": "timelock",
              "type": "uint32"
            },
            {
              "internalType": "uint16",
              "name": "rebalanceThreshold",
              "type": "uint16"
            },
            {
              "internalType": "uint16",
              "name": "rebalanceSlippage",
              "type": "uint16"
            },
            {
              "internalType": "uint16",
              "name": "restructureSlippage",
              "type": "uint16"
            },
            {
              "internalType": "uint16",
              "name": "managementFee",
              "type": "uint16"
            },
            {
              "internalType": "bool",
              "name": "social",
              "type": "bool"
            },
            {
              "internalType": "bool",
              "name": "set",
              "type": "bool"
            }
          ],
          "internalType": "struct StrategyTypes.InitialState",
          "name": "state_",
          "type": "tuple"
        },
        {
          "internalType": "address",
          "name": "router_",
          "type": "address"
        },
        {
          "internalType": "bytes",
          "name": "data_",
          "type": "bytes"
        }
      ],
      "name": "setupStrategy",
      "outputs": [],
      "stateMutability": "payable",
      "type": "function"
    },
    {
      "inputs": [
        {
          "internalType": "address",
          "name": "strategy",
          "type": "address"
        }
      ],
      "name": "strategyState",
      "outputs": [
        {
          "components": [
            {
              "internalType": "uint32",
              "name": "timelock",
              "type": "uint32"
            },
            {
              "internalType": "uint16",
              "name": "rebalanceSlippage",
              "type": "uint16"
            },
            {
              "internalType": "uint16",
              "name": "restructureSlippage",
              "type": "uint16"
            },
            {
              "internalType": "bool",
              "name": "social",
              "type": "bool"
            },
            {
              "internalType": "bool",
              "name": "set",
              "type": "bool"
            }
          ],
          "internalType": "struct StrategyTypes.StrategyState",
          "name": "",
          "type": "tuple"
        }
      ],
      "stateMutability": "view",
      "type": "function"
    },
    {
      "inputs": [],
      "name": "updateAddresses",
      "outputs": [],
      "stateMutability": "nonpayable",
      "type": "function"
    },
    {
      "inputs": [
        {
          "internalType": "uint256",
          "name": "rebalanceTimelockPeriod",
          "type": "uint256"
        },
        {
          "internalType": "uint256",
          "name": "rebalanceThresholdScalar_",
          "type": "uint256"
        }
      ],
      "name": "updateRebalanceParameters",
      "outputs": [],
      "stateMutability": "nonpayable",
      "type": "function"
    },
    {
      "inputs": [
        {
          "internalType": "contract IStrategy",
          "name": "strategy",
          "type": "address"
        },
        {
          "internalType": "address",
          "name": "item",
          "type": "address"
        },
        {
          "components": [
            {
              "internalType": "address[]",
              "name": "adapters",
              "type": "address[]"
            },
            {
              "internalType": "address[]",
              "name": "path",
              "type": "address[]"
            },
            {
              "internalType": "bytes",
              "name": "cache",
              "type": "bytes"
            }
          ],
          "internalType": "struct StrategyTypes.TradeData",
          "name": "data",
          "type": "tuple"
        }
      ],
      "name": "updateTradeData",
      "outputs": [],
      "stateMutability": "nonpayable",
      "type": "function"
    },
    {
      "inputs": [
        {
          "internalType": "contract IStrategy",
          "name": "strategy",
          "type": "address"
        },
        {
          "internalType": "enum StrategyTypes.TimelockCategory",
          "name": "category",
          "type": "uint8"
        },
        {
          "internalType": "uint256",
          "name": "newValue",
          "type": "uint256"
        }
      ],
      "name": "updateValue",
      "outputs": [],
      "stateMutability": "nonpayable",
      "type": "function"
    },
    {
      "inputs": [
        {
          "internalType": "address",
          "name": "strategy",
          "type": "address"
        },
        {
          "components": [
            {
              "internalType": "address",
              "name": "item",
              "type": "address"
            },
            {
              "internalType": "int256",
              "name": "percentage",
              "type": "int256"
            },
            {
              "components": [
                {
                  "internalType": "address[]",
                  "name": "adapters",
                  "type": "address[]"
                },
                {
                  "internalType": "address[]",
                  "name": "path",
                  "type": "address[]"
                },
                {
                  "internalType": "bytes",
                  "name": "cache",
                  "type": "bytes"
                }
              ],
              "internalType": "struct StrategyTypes.TradeData",
              "name": "data",
              "type": "tuple"
            }
          ],
          "internalType": "struct StrategyTypes.StrategyItem[]",
          "name": "newItems",
          "type": "tuple[]"
        }
      ],
      "name": "verifyStructure",
      "outputs": [],
      "stateMutability": "view",
      "type": "function"
    },
    {
      "inputs": [],
      "name": "weth",
      "outputs": [
        {
          "internalType": "address",
          "name": "",
          "type": "address"
        }
      ],
      "stateMutability": "view",
      "type": "function"
    },
    {
      "inputs": [],
      "name": "whitelist",
      "outputs": [
        {
          "internalType": "contract IWhitelist",
          "name": "",
          "type": "address"
        }
      ],
      "stateMutability": "view",
      "type": "function"
    },
    {
      "inputs": [
        {
          "internalType": "contract IStrategy",
          "name": "strategy",
          "type": "address"
        },
        {
          "internalType": "contract IStrategyRouter",
          "name": "router",
          "type": "address"
        },
        {
          "internalType": "uint256",
          "name": "amount",
          "type": "uint256"
        },
        {
          "internalType": "uint256",
          "name": "slippage",
          "type": "uint256"
        },
        {
          "internalType": "bytes",
          "name": "data",
          "type": "bytes"
        }
      ],
      "name": "withdrawETH",
      "outputs": [],
      "stateMutability": "nonpayable",
      "type": "function"
    },
    {
      "inputs": [
        {
          "internalType": "contract IStrategy",
          "name": "strategy",
          "type": "address"
        },
        {
          "internalType": "contract IStrategyRouter",
          "name": "router",
          "type": "address"
        },
        {
          "internalType": "uint256",
          "name": "amount",
          "type": "uint256"
        },
        {
          "internalType": "uint256",
          "name": "slippage",
          "type": "uint256"
        },
        {
          "internalType": "bytes",
          "name": "data",
          "type": "bytes"
        }
      ],
      "name": "withdrawWETH",
      "outputs": [],
      "stateMutability": "nonpayable",
      "type": "function"
    },
    {
      "stateMutability": "payable",
      "type": "receive"
    }
  ],
  "bytecode": "0x60a06040523480156200001157600080fd5b5060405162005249380380620052498339810160408190526200003491620000e6565b603954610100900460ff168062000050575062000050620000e0565b806200005f575060395460ff16155b620000875760405162461bcd60e51b81526004016200007e9062000116565b60405180910390fd5b603954610100900460ff16158015620000b3576039805460ff1961ff0019909116610100171660011790555b6001600160601b0319606083901b166080528015620000d8576039805461ff00191690555b505062000164565b303b1590565b600060208284031215620000f8578081fd5b81516001600160a01b03811681146200010f578182fd5b9392505050565b6020808252602e908201527f496e697469616c697a61626c653a20636f6e747261637420697320616c72656160408201526d191e481a5b9a5d1a585b1a5e995960921b606082015260800190565b60805160601c6150b862000191600039806117af5280611e7f5280611fac52806122dd52506150b86000f3fe6080604052600436106101c65760003560e01c806379dbcef3116100f7578063b947135211610095578063dde684a511610064578063dde684a5146104d1578063e26db6fc146104fe578063e64e66d014610513578063f21f533914610533576101ec565b8063b94713521461044f578063c45a01551461046f578063cbca47db14610484578063d5504f02146104b1576101ec565b80638129fc1c116100d15780638129fc1c146103e35780638e734e87146103f857806393e59dc11461041857806394b7f5391461042d576101ec565b806379dbcef3146103995780637dc0d1d0146103ae578063805e09b4146103c3576101ec565b80633fc8cef311610164578063716e26151161013e578063716e26151461033357806371b8dc69146103535780637240ffa81461036657806377329f3514610379576101ec565b80633fc8cef3146102de5780634e31a5b4146102f3578063502117ed14610313576101ec565b806329d7364a116101a057806329d7364a1461025c5780632e61e8671461027c57806333a100ca1461029c57806333a861e0146102bc576101ec565b806301843e93146101f157806316f0115b14610211578063271c32d71461023c576101ec565b366101ec576002546101ea906001600160a01b03163314661bb63a90056c23610553565b005b600080fd5b3480156101fd57600080fd5b506101ea61020c366004614496565b61058d565b34801561021d57600080fd5b5061022661091a565b604051610233919061480b565b60405180910390f35b34801561024857600080fd5b506101ea6102573660046143f8565b610929565b34801561026857600080fd5b506101ea610277366004614430565b6109c5565b34801561028857600080fd5b506101ea610297366004614068565b610af4565b3480156102a857600080fd5b506101ea6102b7366004614068565b610e11565b3480156102c857600080fd5b506102d1610eb8565b6040516102339190614ac6565b3480156102ea57600080fd5b50610226610efb565b3480156102ff57600080fd5b506101ea61030e366004614068565b610f0a565b34801561031f57600080fd5b506101ea61032e3660046144ec565b61130e565b34801561033f57600080fd5b506101ea61034e3660046144ec565b611405565b6101ea6103613660046144ec565b611413565b6101ea6103743660046140ef565b611795565b34801561038557600080fd5b506101ea610394366004614068565b611812565b3480156103a557600080fd5b506101ea61188e565b3480156103ba57600080fd5b50610226611945565b3480156103cf57600080fd5b506101ea6103de366004614496565b611954565b3480156103ef57600080fd5b506101ea611abb565b34801561040457600080fd5b506101ea610413366004614068565b611c31565b34801561042457600080fd5b50610226611cd7565b34801561043957600080fd5b50610442611ce6565b6040516102339190614a77565b34801561045b57600080fd5b506101ea61046a366004614202565b611cec565b34801561047b57600080fd5b50610226611e7d565b34801561049057600080fd5b506104a461049f366004614068565b611ea1565b6040516102339190614a6c565b3480156104bd57600080fd5b506101ea6104cc366004614202565b611ec2565b3480156104dd57600080fd5b506104f16104ec366004614068565b611f27565b6040516102339190614e8c565b34801561050a57600080fd5b506101ea611fa8565b34801561051f57600080fd5b506101ea61052e3660046145fc565b6122cf565b34801561053f57600080fd5b506101ea61054e366004614547565b612397565b811561055e57610589565b6105678161249e565b60405162461bcd60e51b81526004016105809190614ac6565b60405180910390fd5b5050565b610596836124f1565b61059f8361250a565b6105aa83600661253f565b6105b382612599565b6105bc8361262c565b826001600160a01b0316634a2f38a56040518163ffffffff1660e01b8152600401600060405180830381600087803b1580156105f757600080fd5b505af115801561060b573d6000803e3d6000fd5b50505050610617613b25565b506001600160a01b038316600090815260056020908152604091829020825160a081018452905463ffffffff8116825261ffff6401000000008204811693830193909352600160301b81049092169281019290925260ff600160401b8204811615156060840152600160481b9091041615156080820152610696613b53565b6001600160a01b038516600090815260066020526040908190208151606081019092528054829060ff1660078111156106cb57fe5b60078111156106d657fe5b815260200160018201548152602001600282018054600181600116156101000203166002900480601f01602080910402602001604051908101604052809291908181526020018280546001816001161561010002031660029004801561077d5780601f106107525761010080835404028352916020019161077d565b820191906000526020600020905b81548152906001019060200180831161076057829003601f168201915b50505050508152505090506107a1816020015160001415661bb63a90056c06610553565b6107db826060015115806107ce5750825160208301516107ca9163ffffffff908116906126c116565b4210155b661bb63a90056c07610553565b6107fb6000825160078111156107ed57fe5b14661bb63a90056c08610553565b6060816040015180602001905181019061081591906142a6565b6040516328147ea160e01b815290915073__$721dcd65ec47a727df519a81069c85cfb6$__906328147ea1906108519089908590600401614881565b60006040518083038186803b15801561086957600080fd5b505af415801561087d573d6000803e3d6000fd5b5050505061088d868683876126ef565b6001600160a01b0386166000908152600660205260408120805460ff1916815560018101829055906108c26002830182613b75565b505060011515866001600160a01b03167fa98e30a4e169a0e1c0cdf53f9446a31c85cfb3fc6eb004468faf61d487ca196b8360405161090191906149f5565b60405180910390a361091286612d5f565b505050505050565b6007546001600160a01b031690565b610932826124f1565b61093d82600261253f565b6109468261262c565b60035460405163018c1d8760e11b815273__$721dcd65ec47a727df519a81069c85cfb6$__916303183b0e9161098c91869186916001600160a01b031690600401614ad9565b60006040518083038186803b1580156109a457600080fd5b505af41580156109b8573d6000803e3d6000fd5b5050505061058982612d5f565b6109ce836124f1565b6109d983600261253f565b6109e28361262c565b6001600160a01b03831660009081526006602052604090206001810154610a4b901580610a3e57506001600160a01b0385166000908152600560205260409020546001830154610a3b9163ffffffff908116906126c116565b42115b661bb63a90056c09610553565b60001515836001600160a01b0316856001600160a01b03167fb79e9fe9741393c262ca17c3b0260f038c2c92ef125040e34095d5de883afbea85604051610a929190614eda565b60405180910390a4805460ff19166007178155426001820155604051610abe9084908490602001614954565b604051602081830303815290604052816002019080519060200190610ae4929190613bb9565b50610aee84612d5f565b50505050565b610afd816124f1565b610b0881600261253f565b610b10613b25565b506001600160a01b038116600090815260056020908152604091829020825160a081018452905463ffffffff8116825261ffff6401000000008204811693830193909352600160301b81049092169281019290925260ff600160401b8204811615156060840152600160481b9091041615156080820152610b8f613b53565b6001600160a01b038316600090815260066020526040908190208151606081019092528054829060ff166007811115610bc457fe5b6007811115610bcf57fe5b815260200160018201548152602001600282018054600181600116156101000203166002900480601f016020809104026020016040519081016040528092919081815260200182805460018160011615610100020316600290048015610c765780601f10610c4b57610100808354040283529160200191610c76565b820191906000526020600020905b815481529060010190602001808311610c5957829003601f168201915b5050505050815250509050610c9a816020015160001415661bb63a90056c0a610553565b610cba600782516007811115610cac57fe5b14661bb63a90056c0b610553565b610cf482606001511580610ce7575082516020830151610ce39163ffffffff908116906126c116565b4210155b661bb63a90056c0c610553565b6000610cfe613c37565b8260400151806020019051810190610d1691906140a0565b60405163df3568d960e01b815291935091506001600160a01b0386169063df3568d990610d499085908590600401614976565b600060405180830381600087803b158015610d6357600080fd5b505af1158015610d77573d6000803e3d6000fd5b5050505060011515826001600160a01b0316866001600160a01b03167fb79e9fe9741393c262ca17c3b0260f038c2c92ef125040e34095d5de883afbea84604051610dc29190614eed565b60405180910390a46001600160a01b0385166000908152600660205260408120805460ff191681556001810182905590610dff6002830182613b75565b5050610e0a85612d5f565b5050505050565b610e1a816124f1565b610e2581600261253f565b610e2e8161262c565b6001600160a01b03811660009081526005602052604090208054610e6490600160481b900460ff1615661bb63a90056c15610553565b805469ff0000000000000000001916600160481b1781556040516001600160a01b038316907fe70d79dad95c835bdd87e9cf4665651c9e5abb3b756e4fd2bf45f29c95c3aa4090600090a261058982612d5f565b7f1b9e1f30ed20f5bdcc5bc2622ef7e5d670a4bf29bd7279c09ee2568f85d16a4b604051602001610ee99190614a77565b60405160208183030381529060405281565b6002546001600160a01b031690565b610f13816124f1565b610f1e81600261253f565b6001600160a01b0381166000908152600560205260409020610f3e613b53565b6001600160a01b038316600090815260066020526040908190208151606081019092528054829060ff166007811115610f7357fe5b6007811115610f7e57fe5b815260200160018201548152602001600282018054600181600116156101000203166002900480601f0160208091040260200160405190810160405280929190818152602001828054600181600116156101000203166002900480156110255780601f10610ffa57610100808354040283529160200191611025565b820191906000526020600020905b81548152906001019060200180831161100857829003601f168201915b5050505050815250509050611049816020015160001415661bb63a90056c10610553565b805161106b600082600781111561105c57fe5b1415661bb63a90056c11610553565b61108b600782600781111561107c57fe5b1415661bb63a90056c12610553565b82546110cd90600160401b900460ff1615806110c05750835460208401516110bc9163ffffffff908116906126c116565b4210155b661bb63a90056c13610553565b600082604001518060200190518101906110e791906145a9565b905060048260078111156110f757fe5b141561111557835463ffffffff191663ffffffff8216178455611292565b600282600781111561112357fe5b141561114857835465ffff00000000191664010000000061ffff831602178455611292565b600382600781111561115657fe5b141561117c57835467ffff0000000000001916600160301b61ffff831602178455611292565b600182600781111561118a57fe5b14156111f357604051631ae8a0f160e31b81526001600160a01b0386169063d7450788906111bc908490600401614f00565b600060405180830381600087803b1580156111d657600080fd5b505af11580156111ea573d6000803e3d6000fd5b50505050611292565b600582600781111561120157fe5b14156112335760405163709ac1c360e01b81526001600160a01b0386169063709ac1c3906111bc908490600401614f00565b60405163c10af4c760e01b81526001600160a01b0386169063c10af4c79061125f908490600401614f00565b600060405180830381600087803b15801561127957600080fd5b505af115801561128d573d6000803e3d6000fd5b505050505b60011515856001600160a01b03167fe561303783ad8b123bd33a60f112811cc154edb919a15aa8040c6200c7709d5b84846040516112d1929190614c84565b60405180910390a36001600160a01b0385166000908152600660205260408120805460ff191681556001810182905590610dff6002830182613b75565b60008061131f878787873088612dae565b604051632e1a7d4d60e01b815291935091506001600160a01b03831690632e1a7d4d90611350908490600401614a77565b600060405180830381600087803b15801561136a57600080fd5b505af115801561137e573d6000803e3d6000fd5b505050506000336001600160a01b03168260405161139b90614808565b60006040518083038185875af1925050503d80600081146113d8576040519150601f19603f3d011682016040523d82523d6000602084013e6113dd565b606091505b505090506113f281661bb63a90056c03610553565b6113fb88612d5f565b5050505050505050565b610dff858585853386612dae565b61141c856124f1565b61142785600361253f565b61143085612e78565b846001600160a01b031663d1058e596040518163ffffffff1660e01b8152600401600060405180830381600087803b15801561146b57600080fd5b505af115801561147f573d6000803e3d6000fd5b5050505061148b613b53565b6001600160a01b038616600090815260066020526040908190208151606081019092528054829060ff1660078111156114c057fe5b60078111156114cb57fe5b815260200160018201548152602001600282018054600181600116156101000203166002900480601f0160208091040260200160405190810160405280929190818152602001828054600181600116156101000203166002900480156115725780601f1061154757610100808354040283529160200191611572565b820191906000526020600020905b81548152906001019060200180831161155557829003601f168201915b50505050508152505090506115ad8160200151600014806115a0575060008251600781111561159d57fe5b14155b661bb63a90056c02610553565b856001600160a01b0316634a2f38a56040518163ffffffff1660e01b8152600401600060405180830381600087803b1580156115e857600080fd5b505af11580156115fc573d6000803e3d6000fd5b50505050856001600160a01b031663939a2bfc6040518163ffffffff1660e01b8152600401600060405180830381600087803b15801561163b57600080fd5b505af115801561164f573d6000803e3d6000fd5b505050506000606061165f611945565b6001600160a01b031663ff4a1902896040518263ffffffff1660e01b815260040161168a919061480b565b60006040518083038186803b1580156116a257600080fd5b505afa1580156116b6573d6000803e3d6000fd5b505050506040513d6000823e601f3d908101601f191682016040526116de91908101906145c1565b91509150600073__$721dcd65ec47a727df519a81069c85cfb6$__63fa88c0538a85856040518463ffffffff1660e01b815260040161171f93929190614998565b60206040518083038186803b15801561173757600080fd5b505af415801561174b573d6000803e3d6000fd5b505050506040513d601f19601f8201168201806040525081019061176f91906145a9565b90506117818989338a8a88878c612f37565b61178a89612d5f565b505050505050505050565b836117a181600361253f565b6117dd336001600160a01b037f00000000000000000000000000000000000000000000000000000000000000001614661bb63a90056c01610553565b6117e78585613043565b3415611809576118098184886000886060015161ffff16600060001989612f37565b61091281612d5f565b61181b816124f1565b61182681600261253f565b61182f8161262c565b806001600160a01b031663d1058e596040518163ffffffff1660e01b8152600401600060405180830381600087803b15801561186a57600080fd5b505af115801561187e573d6000803e3d6000fd5b5050505061188b81612d5f565b50565b6040516000906118a990630e64e66d60e41b90602001614a8e565b6040516020818303038152906040528051906020012090506118da6118cd82613335565b661bb63a90056c17610553565b6000806118e683613460565b8060200190518101906118f9919061461d565b91509150611906836134fe565b6009829055600a819055604051600190829084907fcbfc0fea7040b597fe565e96a7a66474454c203fc984225a379da710f73519c490600090a4505050565b6001546001600160a01b031690565b61195d836124f1565b61196883600561253f565b6119718361262c565b60405160009061198e90632017826d60e21b908690602001614aa3565b6040516020818303038152906040528051906020012090506119bf6119b282613335565b661bb63a90056c04610553565b6119cb81600954613570565b611a04816000805b506040519080825280601f01601f1916602001820160405280156119fe576020820181803683370190505b5061365c565b73__$721dcd65ec47a727df519a81069c85cfb6$__63c3353e838585611a28611945565b6002546001600160a01b038a81166000908152600560205260409081902054600a54915160e089901b6001600160e01b0319168152611a8297969594939093169264010000000090910461ffff1691908b90600401614b62565b60006040518083038186803b158015611a9a57600080fd5b505af4158015611aae573d6000803e3d6000fd5b50505050610aee84612d5f565b603954610100900460ff1680611ad45750611ad4613697565b80611ae2575060395460ff16155b611afe5760405162461bcd60e51b815260040161058090614dc6565b603954610100900460ff16158015611b29576039805460ff1961ff0019909116610100171660011790555b61012c6009556107d0600a55604051600090611b5090630e64e66d60e41b90602001614a8e565b604051602081830303815290604052805190602001209050611b7481600954613570565b611b7c611fa8565b611c1c73__$721dcd65ec47a727df519a81069c85cfb6$__637104ddb26040518163ffffffff1660e01b815260040160206040518083038186803b158015611bc357600080fd5b505af4158015611bd7573d6000803e3d6000fd5b505050506040513d601f19601f82011682018060405250810190611bfb9190614084565b6001600160a01b0316306001600160a01b031614661bb63a90056c00610553565b50801561188b576039805461ff001916905550565b611c3a816124f1565b611c4581600261253f565b611c4e8161262c565b6001600160a01b03811660009081526005602052604090208054611c8490600160401b900460ff1615661bb63a90056c14610553565b805468ff00000000000000001916600160401b1781556040516001600160a01b038316907f4c3f1eed13ac6b6e115341feddd01b83784de7f9a83dfad12fadf1edd757f46a90600090a261058982612d5f565b6000546001600160a01b031690565b600a5490565b611cf5826124f1565b611cfe8261250a565b611d0982600261253f565b611d128261262c565b6001600160a01b03821660009081526006602052604090206001810154611d7b901580611d6e57506001600160a01b0384166000908152600560205260409020546001830154611d6b9163ffffffff908116906126c116565b42115b661bb63a90056c05610553565b6040516328147ea160e01b815273__$721dcd65ec47a727df519a81069c85cfb6$__906328147ea190611db49086908690600401614881565b60006040518083038186803b158015611dcc57600080fd5b505af4158015611de0573d6000803e3d6000fd5b5050825460ff191683555050426001820155604051611e039083906020016149f5565b604051602081830303815290604052816002019080519060200190611e29929190613bb9565b5060001515836001600160a01b03167fa98e30a4e169a0e1c0cdf53f9446a31c85cfb3fc6eb004468faf61d487ca196b84604051611e6791906149f5565b60405180910390a3611e7883612d5f565b505050565b7f000000000000000000000000000000000000000000000000000000000000000081565b6001600160a01b03811660009081526004602052604090205415155b919050565b6040516328147ea160e01b815273__$721dcd65ec47a727df519a81069c85cfb6$__906328147ea190611efb9085908590600401614881565b60006040518083038186803b158015611f1357600080fd5b505af4158015610912573d6000803e3d6000fd5b611f2f613b25565b506001600160a01b0316600090815260056020908152604091829020825160a081018452905463ffffffff8116825261ffff6401000000008204811693830193909352600160301b81049092169281019290925260ff600160401b8204811615156060840152600160481b909104161515608082015290565b60007f00000000000000000000000000000000000000000000000000000000000000009050806001600160a01b03166393e59dc16040518163ffffffff1660e01b815260040160206040518083038186803b15801561200657600080fd5b505afa15801561201a573d6000803e3d6000fd5b505050506040513d601f19601f8201168201806040525081019061203e9190614084565b6000806101000a8154816001600160a01b0302191690836001600160a01b03160217905550806001600160a01b03166316f0115b6040518163ffffffff1660e01b815260040160206040518083038186803b15801561209c57600080fd5b505afa1580156120b0573d6000803e3d6000fd5b505050506040513d601f19601f820116820180604052508101906120d49190614084565b600760006101000a8154816001600160a01b0302191690836001600160a01b031602179055506000816001600160a01b0316637dc0d1d06040518163ffffffff1660e01b815260040160206040518083038186803b15801561213557600080fd5b505afa158015612149573d6000803e3d6000fd5b505050506040513d601f19601f8201168201806040525081019061216d9190614084565b6001549091506001600160a01b0380831691161461058957600180546001600160a01b0319166001600160a01b03831690811790915560408051633fc8cef360e01b81529051839291633fc8cef3916004808301926020929190829003018186803b1580156121db57600080fd5b505afa1580156121ef573d6000803e3d6000fd5b505050506040513d601f19601f820116820180604052508101906122139190614084565b600260006101000a8154816001600160a01b0302191690836001600160a01b03160217905550806001600160a01b031663c92577756040518163ffffffff1660e01b815260040160206040518083038186803b15801561227257600080fd5b505afa158015612286573d6000803e3d6000fd5b505050506040513d601f19601f820116820180604052508101906122aa9190614084565b600380546001600160a01b0319166001600160a01b0392909216919091179055505050565b61230b336001600160a01b037f00000000000000000000000000000000000000000000000000000000000000001614661bb63a90056c16610553565b6040516123649061232790630e64e66d60e41b90602001614a8e565b604051602081830303815290604052805190602001208383604051602001612350929190614a80565b60405160208183030381529060405261365c565b604051600090829084907fcbfc0fea7040b597fe565e96a7a66474454c203fc984225a379da710f73519c4908490a45050565b6123a0836124f1565b6123ab83600261253f565b6123b48361262c565b6001600160a01b0383166000908152600660205260409020600181015461241d90158061241057506001600160a01b038516600090815260056020526040902054600183015461240d9163ffffffff908116906126c116565b42115b661bb63a90056c0d610553565b61243d600084600781111561242e57fe5b1415661bb63a90056c0e610553565b61245d600784600781111561244e57fe5b1415661bb63a90056c0f610553565b61246a848484600061369d565b80548390829060ff1916600183600781111561248257fe5b0217905550426001820155604051610abe908390602001614a77565b6060816124c657506040805180820190915260048152630307830360e41b6020820152611ebd565b8160005b81156124df5760089190911c906001016124ca565b6124e98482613732565b949350505050565b61188b6124fd82611ea1565b661bb63a90056c1e610553565b6001600160a01b03811660009081526005602052604090205461188b90600160481b900460ff1615661bb63a90056c22610553565b604051639f3d4e6960e01b81526001600160a01b03831690639f3d4e699061256b908490600401614c70565b600060405180830381600087803b15801561258557600080fd5b505af1158015610912573d6000803e3d6000fd5b61188b6125a4611cd7565b6001600160a01b031663d8b964e6836040518263ffffffff1660e01b81526004016125cf919061480b565b60206040518083038186803b1580156125e757600080fd5b505afa1580156125fb573d6000803e3d6000fd5b505050506040513d601f19601f8201168201806040525081019061261f9190614384565b661bb63a90056c1f610553565b61188b816001600160a01b031663481c6a756040518163ffffffff1660e01b815260040160206040518083038186803b15801561266857600080fd5b505afa15801561267c573d6000803e3d6000fd5b505050506040513d601f19601f820116820180604052508101906126a09190614084565b6001600160a01b0316336001600160a01b031614661bb63a90056c20610553565b6000828201838110156126e65760405162461bcd60e51b815260040161058090614cd1565b90505b92915050565b60006126f9611945565b9050846001600160a01b031663d1058e596040518163ffffffff1660e01b8152600401600060405180830381600087803b15801561273657600080fd5b505af115801561274a573d6000803e3d6000fd5b5050505060006060826001600160a01b031663ff4a1902886040518263ffffffff1660e01b815260040161277e919061480b565b60006040518083038186803b15801561279657600080fd5b505afa1580156127aa573d6000803e3d6000fd5b505050506040513d6000823e601f3d908101601f191682016040526127d291908101906145c1565b915091506060876001600160a01b031663c06fad066040518163ffffffff1660e01b815260040160006040518083038186803b15801561281157600080fd5b505afa158015612825573d6000803e3d6000fd5b505050506040513d6000823e601f3d908101601f1916820160405261284d9190810190614273565b90506060886001600160a01b0316630dca59c16040518163ffffffff1660e01b815260040160006040518083038186803b15801561288a57600080fd5b505afa15801561289e573d6000803e3d6000fd5b505050506040513d6000823e601f3d908101601f191682016040526128c69190810190614273565b90506000886001600160a01b031663ef430aa66040518163ffffffff1660e01b815260040160206040518083038186803b15801561290357600080fd5b505afa158015612917573d6000803e3d6000fd5b505050506040513d601f19601f8201168201806040525081019061293b919061458a565b600381111561294657fe5b1461297457838383836040516020016129629493929190614f0f565b60405160208183030381529060405295505b60405163d81076a360e01b81526001600160a01b038a169063d81076a3906129a0908a906004016149f5565b600060405180830381600087803b1580156129ba57600080fd5b505af11580156129ce573d6000803e3d6000fd5b50505050886001600160a01b031663d1058e596040518163ffffffff1660e01b8152600401600060405180830381600087803b158015612a0d57600080fd5b505af1158015612a21573d6000803e3d6000fd5b505050506060896001600160a01b0316630dca59c16040518163ffffffff1660e01b815260040160006040518083038186803b158015612a6057600080fd5b505afa158015612a74573d6000803e3d6000fd5b505050506040513d6000823e601f3d908101601f19168201604052612a9c9190810190614273565b905073__$721dcd65ec47a727df519a81069c85cfb6$__633554b19a8b8b8c6001600160a01b031663ba11d5d0600260009054906101000a90046001600160a01b031689888f6040518963ffffffff1660e01b8152600401612b05989796959493929190614bbb565b60006040518083038186803b158015612b1d57600080fd5b505af4158015612b31573d6000803e3d6000fd5b505060405163b6af9fb360e01b815273__$721dcd65ec47a727df519a81069c85cfb6$__925063b6af9fb39150612b70908d9085908790600401614843565b60006040518083038186803b158015612b8857600080fd5b505af4158015612b9c573d6000803e3d6000fd5b505050505060008073__$721dcd65ec47a727df519a81069c85cfb6$__63e29036a88c612bc7611945565b60006040518463ffffffff1660e01b8152600401612be79392919061481f565b60006040518083038186803b158015612bff57600080fd5b505af4158015612c13573d6000803e3d6000fd5b505050506040513d6000823e601f3d908101601f19168201604052612c3b91908101906143a0565b5091509150612c5182661bb63a90056c19610553565b6001600160a01b038b16600090815260056020526040902054612c829082908890600160301b900461ffff1661385b565b8a6001600160a01b031663dbbc5aca828d6001600160a01b03166318160ddd6040518163ffffffff1660e01b815260040160206040518083038186803b158015612ccb57600080fd5b505afa158015612cdf573d6000803e3d6000fd5b505050506040513d601f19601f82011682018060405250810190612d0391906145a9565b6040518363ffffffff1660e01b8152600401612d20929190614a80565b600060405180830381600087803b158015612d3a57600080fd5b505af1158015612d4e573d6000803e3d6000fd5b505050505050505050505050505050565b806001600160a01b031663a69df4b56040518163ffffffff1660e01b8152600401600060405180830381600087803b158015612d9a57600080fd5b505af1158015610e0a573d6000803e3d6000fd5b600080612dba886124f1565b612dc588600461253f565b604051636ecf2e2760e11b815273__$721dcd65ec47a727df519a81069c85cfb6$__9063dd9e5c4e90612e04908b908b908b908b908a90600401614c38565b604080518083038186803b158015612e1b57600080fd5b505af4158015612e2f573d6000803e3d6000fd5b505050506040513d601f19601f82011682018060405250810190612e539190614246565b9092509050612e6d6001600160a01b038316898684613883565b965096945050505050565b61188b816001600160a01b031663481c6a756040518163ffffffff1660e01b815260040160206040518083038186803b158015612eb457600080fd5b505afa158015612ec8573d6000803e3d6000fd5b505050506040513d601f19601f82011682018060405250810190612eec9190614084565b6001600160a01b0316336001600160a01b03161480612f2a57506001600160a01b038216600090815260056020526040902054600160401b900460ff165b661bb63a90056c21610553565b60003415612fc157612f518615661bb63a90056c18610553565b349550600260009054906101000a90046001600160a01b03169050806001600160a01b031663d0e30db0876040518263ffffffff1660e01b81526004016000604051808303818588803b158015612fa757600080fd5b505af1158015612fbb573d6000803e3d6000fd5b50505050505b604051630493c47f60e01b815273__$721dcd65ec47a727df519a81069c85cfb6$__90630493c47f90613008908c908c908c908c908c908c908c908b908d90600401614afc565b60006040518083038186803b15801561302057600080fd5b505af4158015613034573d6000803e3d6000fd5b50505050505050505050505050565b613059826006836080015161ffff16600161369d565b61306f826001836020015161ffff16600161369d565b613085826002836040015161ffff16600161369d565b61309b826003836060015161ffff16600161369d565b6130b3826004836000015163ffffffff16600161369d565b6001600160a01b038216600081815260046020818152604080842060019055805160a08082018352875163ffffffff90811683528884015161ffff9081168487019081526060808c01518316868801908152948c0151151590860190815260c08c0151151560808088019182528c8c52600590995299879020955186549251955191519a5163ffffffff1990931694169390931765ffff000000001916640100000000948316949094029390931767ffff0000000000001916600160301b92909116919091021768ff00000000000000001916600160401b961515969096029590951769ff0000000000000000001916600160481b9515159590950294909417909355840151915163c10af4c760e01b815263c10af4c7926131d792909101614f00565b600060405180830381600087803b1580156131f157600080fd5b505af1158015613205573d6000803e3d6000fd5b5050506020820151604051631ae8a0f160e31b81526001600160a01b038516925063d74507889161323891600401614f00565b600060405180830381600087803b15801561325257600080fd5b505af1158015613266573d6000803e3d6000fd5b505050508060a00151156132a9576040516001600160a01b038316907f4c3f1eed13ac6b6e115341feddd01b83784de7f9a83dfad12fadf1edd757f46a90600090a25b8060c00151156132e8576040516001600160a01b038316907fe70d79dad95c835bdd87e9cf4665651c9e5abb3b756e4fd2bf45f29c95c3aa4090600090a25b60405160009061330590632017826d60e21b908590602001614aa3565b60405160208183030381529060405280519060200120905061332981600954613570565b611e78816000806119d3565b600061333f613c58565b613348836138f0565b6040805160608101825282546001600160801b038082168352600160801b90910416602080830191909152600180850180548551600261010094831615949094026000190190911692909204601f8101849004840283018401865280835293959486019391929091908301828280156134025780601f106133d757610100808354040283529160200191613402565b820191906000526020600020905b8154815290600101906020018083116133e557829003601f168201915b505050505081525050905080602001516001600160801b03166000141561342d576000915050611ebd565b80600001518160200151016001600160801b0316426001600160801b03161061345a576001915050611ebd565b50919050565b606061346b826138f0565b60019081018054604080516020600295841615610100026000190190931694909404601f8101839004830285018301909152808452908301828280156134f25780601f106134c7576101008083540402835291602001916134f2565b820191906000526020600020905b8154815290600101906020018083116134d557829003601f168201915b50505050509050919050565b6000613509826138f0565b80546001600160801b0316815560405190915061354a907f1b9e1f30ed20f5bdcc5bc2622ef7e5d670a4bf29bd7279c09ee2568f85d16a4b90602001614a77565b604051602081830303815290604052816001019080519060200190611e78929190613bb9565b600061357b836138f0565b90506001600160801b038211156135a45760405162461bcd60e51b815260040161058090614d08565b80546fffffffffffffffffffffffffffffffff19166001600160801b0383161781556040516135f7907f1b9e1f30ed20f5bdcc5bc2622ef7e5d670a4bf29bd7279c09ee2568f85d16a4b90602001614a77565b60405160208183030381529060405281600101908051906020019061361d929190613bb9565b507f28b2cc09803d48eafdd268a64dff7eb0cf0e8e654f9c79c87b1ea05d8d51c7b4838360405161364f929190614a80565b60405180910390a1505050565b6000613667836138f0565b80546001600160801b03428116600160801b0291161781558251909150610aee9060018301906020850190613bb9565b303b1590565b6004808460078111156136ac57fe5b10156136c0576136bb83613901565b6136e5565b808460078111156136cd57fe5b14156136dc576136bb83613917565b6136e58361392e565b811515856001600160a01b03167fe561303783ad8b123bd33a60f112811cc154edb919a15aa8040c6200c7709d5b8686604051613723929190614c84565b60405180910390a35050505050565b6060808260020260020167ffffffffffffffff8111801561375257600080fd5b506040519080825280601f01601f19166020018201604052801561377d576020820181803683370190505b509050600360fc1b8160008151811061379257fe5b60200101906001600160f81b031916908160001a905350600f60fb1b816001815181106137bb57fe5b60200101906001600160f81b031916908160001a905350600160028402015b600181111561383c576f181899199a1a9b1b9c1cb0b131b232b360811b85600f166010811061380557fe5b1a60f81b82828151811061381557fe5b60200101906001600160f81b031916908160001a90535060049490941c93600019016137da565b5083156126e65760405162461bcd60e51b815260040161058090614c9c565b611e786103e861386b8484613943565b8161387257fe5b04841015661bb63a90056c1a610553565b610aee846323b872dd60e01b8585856040516024016138a49392919061481f565b60408051601f198184030181529190526020810180517bffffffffffffffffffffffffffffffffffffffffffffffffffffffff166001600160e01b03199093169290921790915261397d565b600090815260086020526040902090565b61188b6103e8821115661bb63a90056c1b610553565b61188b62278d00821115661bb63a90056c1d610553565b61188b60c8821115661bb63a90056c1c610553565b600082613952575060006126e9565b8282028284828161395f57fe5b04146126e65760405162461bcd60e51b815260040161058090614e14565b60606139d2826040518060400160405280602081526020017f5361666545524332303a206c6f772d6c6576656c2063616c6c206661696c6564815250856001600160a01b0316613a0c9092919063ffffffff16565b805190915015611e7857808060200190518101906139f09190614384565b611e785760405162461bcd60e51b815260040161058090614d8f565b6060613a1b8484600085613a25565b90505b9392505050565b606082471015613a475760405162461bcd60e51b815260040161058090614d49565b613a5085613ae6565b613a6c5760405162461bcd60e51b815260040161058090614e55565b60006060866001600160a01b03168587604051613a8991906147ec565b60006040518083038185875af1925050503d8060008114613ac6576040519150601f19603f3d011682016040523d82523d6000602084013e613acb565b606091505b5091509150613adb828286613aec565b979650505050505050565b3b151590565b60608315613afb575081613a1e565b825115613b0b5782518084602001fd5b8160405162461bcd60e51b81526004016105809190614ac6565b6040805160a08101825260008082526020820181905291810182905260608101829052608081019190915290565b6040805160608101909152806000815260200160008152602001606081525090565b50805460018160011615610100020316600290046000825580601f10613b9b575061188b565b601f01602090049060005260206000209081019061188b9190613c77565b828054600181600116156101000203166002900490600052602060002090601f016020900481019282601f10613bfa57805160ff1916838001178555613c27565b82800160010185558215613c27579182015b82811115613c27578251825591602001919060010190613c0c565b50613c33929150613c77565b5090565b60405180606001604052806060815260200160608152602001606081525090565b6040805160608082018352600080835260208301529181019190915290565b5b80821115613c335760008155600101613c78565b80356126e98161505f565b600082601f830112613ca7578081fd5b8135613cba613cb582614fa0565b614f79565b818152915060208083019084810181840286018201871015613cdb57600080fd5b60005b84811015613d03578135613cf18161505f565b84529282019290820190600101613cde565b505050505092915050565b600082601f830112613d1e578081fd5b8151613d2c613cb582614fa0565b818152915060208083019084810181840286018201871015613d4d57600080fd5b60005b84811015613d03578151613d638161505f565b84529282019290820190600101613d50565b600082601f830112613d85578081fd5b8151613d93613cb582614fa0565b818152915060208083019084810181840286018201871015613db457600080fd5b60005b84811015613d0357815184529282019290820190600101613db7565b600082601f830112613de3578081fd5b8135613df1613cb582614fa0565b818152915060208083019084810160005b84811015613d035781358701606080601f19838c03011215613e2357600080fd5b613e2c81614f79565b613e388b878501613c8c565b815260408381013587830152918301359167ffffffffffffffff831115613e5e57600080fd5b613e6c8c8885870101613edd565b90820152865250509282019290820190600101613e02565b80356126e981615074565b600082601f830112613e9f578081fd5b8135613ead613cb582614fc0565b9150808252836020828501011115613ec457600080fd5b8060208401602084013760009082016020015292915050565b600060608284031215613eee578081fd5b613ef86060614f79565b9050813567ffffffffffffffff80821115613f1257600080fd5b613f1e85838601613c97565b83526020840135915080821115613f3457600080fd5b613f4085838601613c97565b60208401526040840135915080821115613f5957600080fd5b50613f6684828501613e8f565b60408301525092915050565b600060608284031215613f83578081fd5b613f8d6060614f79565b9050815167ffffffffffffffff80821115613fa757600080fd5b613fb385838601613d0e565b83526020840151915080821115613fc957600080fd5b613fd585838601613d0e565b60208401526040840151915080821115613fee57600080fd5b508201601f8101841361400057600080fd5b805161400e613cb582614fc0565b81815285602083850101111561402357600080fd5b614034826020830160208601615033565b604084015250909392505050565b803561ffff811681146126e957600080fd5b803563ffffffff811681146126e957600080fd5b600060208284031215614079578081fd5b81356126e68161505f565b600060208284031215614095578081fd5b81516126e68161505f565b600080604083850312156140b2578081fd5b82516140bd8161505f565b602084015190925067ffffffffffffffff8111156140d9578182fd5b6140e585828601613f72565b9150509250929050565b6000806000806000858703610160811215614108578182fd5b86356141138161505f565b955060208701356141238161505f565b945060e0603f1982011215614136578182fd5b5061414160e0614f79565b61414e8860408901614054565b815261415d8860608901614042565b602082015261416f8860808901614042565b60408201526141818860a08901614042565b60608201526141938860c08901614042565b60808201526141a58860e08901613e84565b60a08201526141b8886101008901613e84565b60c082015292506141cd876101208801613c8c565b915061014086013567ffffffffffffffff8111156141e9578182fd5b6141f588828901613e8f565b9150509295509295909350565b60008060408385031215614214578182fd5b823561421f8161505f565b9150602083013567ffffffffffffffff81111561423a578182fd5b6140e585828601613dd3565b60008060408385031215614258578182fd5b82516142638161505f565b6020939093015192949293505050565b600060208284031215614284578081fd5b815167ffffffffffffffff81111561429a578182fd5b6124e984828501613d0e565b600060208083850312156142b8578182fd5b825167ffffffffffffffff808211156142cf578384fd5b818501915085601f8301126142e2578384fd5b81516142f0613cb582614fa0565b81815284810190848601875b848110156143755781518701606080601f19838f0301121561431c578a8bfd5b61432581614f79565b8a8301516143328161505f565b81526040838101518c83015291830151918983111561434f578c8dfd5b61435d8f8d85870101613f72565b908201528652505092870192908701906001016142fc565b50909998505050505050505050565b600060208284031215614395578081fd5b81516126e681615074565b6000806000606084860312156143b4578081fd5b83516143bf81615074565b60208501516040860151919450925067ffffffffffffffff8111156143e2578182fd5b6143ee86828701613d75565b9150509250925092565b6000806040838503121561440a578182fd5b82356144158161505f565b915060208301356144258161505f565b809150509250929050565b600080600060608486031215614444578081fd5b833561444f8161505f565b9250602084013561445f8161505f565b9150604084013567ffffffffffffffff81111561447a578182fd5b84016060818703121561448b578182fd5b809150509250925092565b6000806000606084860312156144aa578081fd5b83356144b58161505f565b925060208401356144c58161505f565b9150604084013567ffffffffffffffff8111156144e0578182fd5b6143ee86828701613e8f565b600080600080600060a08688031215614503578283fd5b853561450e8161505f565b9450602086013561451e8161505f565b93506040860135925060608601359150608086013567ffffffffffffffff8111156141e9578182fd5b60008060006060848603121561455b578081fd5b83356145668161505f565b9250602084013560088110614579578182fd5b929592945050506040919091013590565b60006020828403121561459b578081fd5b8151600481106126e6578182fd5b6000602082840312156145ba578081fd5b5051919050565b600080604083850312156145d3578182fd5b82519150602083015167ffffffffffffffff8111156145f0578182fd5b6140e585828601613d75565b6000806040838503121561460e578182fd5b50508035926020909101359150565b6000806040838503121561462f578182fd5b505080516020909101519092909150565b60008284526020808501945082825b8581101561467d5781356146628161505f565b6001600160a01b03168752958201959082019060010161464f565b509495945050505050565b6000815180845260208085019450808401835b8381101561467d5781516001600160a01b03168752958201959082019060010161469b565b600081518084526146d8816020860160208601615033565b601f01601f19169290920160200192915050565b60006146f88283614fe4565b6060855261470a606086018284614640565b915050602061471b81850185614fe4565b8684038388015261472d848284614640565b935050506040840135601e19853603018112614747578384fd5b8401803567ffffffffffffffff81111561475f578485fd5b80360386131561476d578485fd5b8684036040880152808452808383018486013783810183019490945250601f909201601f1916010192915050565b60008151606084526147b06060850182614688565b9050602083015184820360208601526147c98282614688565b915050604083015184820360408601526147e382826146c0565b95945050505050565b600082516147fe818460208701615033565b9190910192915050565b90565b6001600160a01b0391909116815260200190565b6001600160a01b039384168152919092166020820152604081019190915260600190565b60006001600160a01b0385168252606060208301526148656060830185614688565b82810360408401526148778185614688565b9695505050505050565b600060408083016001600160a01b0380871685526020838187015282875180855260609450848801915084838202890101838a01885b8381101561494357605f198b840381018652825180518916855287810151888601528a01518a85018a905280518a86018b90526148f760c0870182614688565b905088820151838783030160808801526149118282614688565b9150508b8201519150828682030160a087015261492e81836146c0565b978901979550505091860191506001016148b7565b50909b9a5050505050505050505050565b60006001600160a01b038416825260406020830152613a1b60408301846146ec565b60006001600160a01b038416825260406020830152613a1b604083018461479b565b6000606082016001600160a01b038616835260208581850152606060408501528185518084526080860191508287019350845b818110156149e7578451835293830193918301916001016149cb565b509098975050505050505050565b60208082528251828201819052600091906040908185019080840286018301878501865b838110156149e757888303603f19018552815180516001600160a01b0316845287810151888501528601516060878501819052614a588186018361479b565b968901969450505090860190600101614a19565b901515815260200190565b90815260200190565b918252602082015260400190565b6001600160e01b031991909116815260200190565b6001600160e01b03199290921682526001600160a01b0316602082015260400190565b600060208252613a1e60208301846146c0565b6001600160a01b0393841681529183166020830152909116604082015260600190565b60006101206001600160a01b03808d168452808c166020850152808b1660408501528960608501528860808501528760a08501528660c085015280861660e08501525080610100840152614b52818401856146c0565b9c9b505050505050505050505050565b60006001600160a01b03808a1683528089166020840152808816604084015280871660608401525061ffff851660808301528360a083015260e060c0830152614bae60e08301846146c0565b9998505050505050505050565b60006001600160a01b03808b168352808a16602084015263ffffffff88168960201b1760401b604084015280871660608401525060e06080830152614c0360e0830186614688565b82810360a0840152614c158186614688565b905082810360c0840152614c2981856146c0565b9b9a5050505050505050505050565b60006001600160a01b03808816835280871660208401525084604083015283606083015260a06080830152613adb60a08301846146c0565b6020810160078310614c7e57fe5b91905290565b6040810160088410614c9257fe5b9281526020015290565b6020808252818101527f537472696e67733a20686578206c656e67746820696e73756666696369656e74604082015260600190565b6020808252601b908201527f536166654d6174683a206164646974696f6e206f766572666c6f770000000000604082015260600190565b60208082526021908201527f5f73657454696d656c6f636b3a2064656c6179206f7574206f662072616e67656040820152601760f91b606082015260800190565b60208082526026908201527f416464726573733a20696e73756666696369656e742062616c616e636520666f6040820152651c8818d85b1b60d21b606082015260800190565b60208082526013908201527f5361666545524332303a20217375636365737300000000000000000000000000604082015260600190565b6020808252602e908201527f496e697469616c697a61626c653a20636f6e747261637420697320616c72656160408201526d191e481a5b9a5d1a585b1a5e995960921b606082015260800190565b60208082526021908201527f536166654d6174683a206d756c7469706c69636174696f6e206f766572666c6f6040820152607760f81b606082015260800190565b6020808252601d908201527f416464726573733a2063616c6c20746f206e6f6e2d636f6e7472616374000000604082015260600190565b600060a08201905063ffffffff8351168252602083015161ffff8082166020850152806040860151166040850152505060608301511515606083015260808301511515608083015292915050565b600060208252613a1e60208301846146ec565b600060208252613a1e602083018461479b565b61ffff91909116815260200190565b600060808201868352602060808185015281875180845260a0860191508289019350845b81811015614f4f57845183529383019391830191600101614f33565b50508481036040860152614f638188614688565b925050508281036060840152613adb8185614688565b60405181810167ffffffffffffffff81118282101715614f9857600080fd5b604052919050565b600067ffffffffffffffff821115614fb6578081fd5b5060209081020190565b600067ffffffffffffffff821115614fd6578081fd5b50601f01601f191660200190565b6000808335601e19843603018112614ffa578283fd5b830160208101925035905067ffffffffffffffff81111561501a57600080fd5b60208102360383131561502c57600080fd5b9250929050565b60005b8381101561504e578181015183820152602001615036565b83811115610aee5750506000910152565b6001600160a01b038116811461188b57600080fd5b801515811461188b57600080fdfea2646970667358221220a56d8aac00d1ef811235170418963de441d63037b60e5389c2c78e1aa832f12264736f6c634300060c0033",
  "linkReferences": {
    "contracts/libraries/ControllerLibrary.sol": {
      "ControllerLibrary": [
        {
          "length": 20,
          "start": 2488
        },
        {
          "length": 20,
          "start": 2793
        },
        {
          "length": 20,
          "start": 6263
        },
        {
          "length": 20,
          "start": 7063
        },
        {
          "length": 20,
          "start": 7442
        },
        {
          "length": 20,
          "start": 7963
        },
        {
          "length": 20,
          "start": 8290
        },
        {
          "length": 20,
          "start": 11313
        },
        {
          "length": 20,
          "start": 11475
        },
        {
          "length": 20,
          "start": 11575
        },
        {
          "length": 20,
          "start": 12133
        },
        {
          "length": 20,
          "start": 12641
        }
      ]
    }
  },
  "deployedLinkReferences": {
    "contracts/libraries/ControllerLibrary.sol": {
      "ControllerLibrary": [
        {
          "length": 20,
          "start": 2087
        },
        {
          "length": 20,
          "start": 2392
        },
        {
          "length": 20,
          "start": 5862
        },
        {
          "length": 20,
          "start": 6662
        },
        {
          "length": 20,
          "start": 7041
        },
        {
          "length": 20,
          "start": 7562
        },
        {
          "length": 20,
          "start": 7889
        },
        {
          "length": 20,
          "start": 10912
        },
        {
          "length": 20,
          "start": 11074
        },
        {
          "length": 20,
          "start": 11174
        },
        {
          "length": 20,
          "start": 11732
        },
        {
          "length": 20,
          "start": 12240
        }
      ]
    }
  }
}