{
  "_format": "hh-sol-artifact-1",
  "contractName": "StrategyController",
  "sourceName": "contracts/StrategyController.sol",
  "abi": [
    {
      "inputs": [
        {
          "internalType": "address",
          "name": "factory_",
          "type": "address"
        }
      ],
      "stateMutability": "nonpayable",
      "type": "constructor"
    },
    {
      "anonymous": false,
      "inputs": [
        {
          "indexed": true,
          "internalType": "address",
          "name": "strategy",
          "type": "address"
        },
        {
          "indexed": false,
          "internalType": "uint256",
          "name": "totalBefore",
          "type": "uint256"
        },
        {
          "indexed": false,
          "internalType": "uint256",
          "name": "totalAfter",
          "type": "uint256"
        }
      ],
      "name": "Balanced",
      "type": "event"
    },
    {
      "anonymous": false,
      "inputs": [
        {
          "indexed": true,
          "internalType": "address",
          "name": "strategy",
          "type": "address"
        },
        {
          "indexed": true,
          "internalType": "address",
          "name": "account",
          "type": "address"
        },
        {
          "indexed": false,
          "internalType": "uint256",
          "name": "value",
          "type": "uint256"
        },
        {
          "indexed": false,
          "internalType": "uint256",
          "name": "amount",
          "type": "uint256"
        }
      ],
      "name": "Deposit",
      "type": "event"
    },
    {
      "anonymous": false,
      "inputs": [
        {
          "indexed": true,
          "internalType": "address",
          "name": "strategy",
          "type": "address"
        },
        {
          "components": [
            {
              "internalType": "address",
              "name": "item",
              "type": "address"
            },
            {
              "internalType": "int256",
              "name": "percentage",
              "type": "int256"
            },
            {
              "components": [
                {
                  "internalType": "address[]",
                  "name": "adapters",
                  "type": "address[]"
                },
                {
                  "internalType": "address[]",
                  "name": "path",
                  "type": "address[]"
                },
                {
                  "internalType": "bytes",
                  "name": "cache",
                  "type": "bytes"
                }
              ],
              "internalType": "struct StrategyTypes.TradeData",
              "name": "data",
              "type": "tuple"
            }
          ],
          "indexed": false,
          "internalType": "struct StrategyTypes.StrategyItem[]",
          "name": "items",
          "type": "tuple[]"
        },
        {
          "indexed": true,
          "internalType": "bool",
          "name": "finalized",
          "type": "bool"
        }
      ],
      "name": "NewStructure",
      "type": "event"
    },
    {
      "anonymous": false,
      "inputs": [
        {
          "indexed": true,
          "internalType": "address",
          "name": "strategy",
          "type": "address"
        },
        {
          "indexed": false,
          "internalType": "enum StrategyTypes.TimelockCategory",
          "name": "category",
          "type": "uint8"
        },
        {
          "indexed": false,
          "internalType": "uint256",
          "name": "newValue",
          "type": "uint256"
        },
        {
          "indexed": true,
          "internalType": "bool",
          "name": "finalized",
          "type": "bool"
        }
      ],
      "name": "NewValue",
      "type": "event"
    },
    {
      "anonymous": false,
      "inputs": [
        {
          "indexed": true,
          "internalType": "address",
          "name": "strategy",
          "type": "address"
        }
      ],
      "name": "StrategyOpen",
      "type": "event"
    },
    {
      "anonymous": false,
      "inputs": [
        {
          "indexed": true,
          "internalType": "address",
          "name": "strategy",
          "type": "address"
        }
      ],
      "name": "StrategySet",
      "type": "event"
    },
    {
      "anonymous": false,
      "inputs": [
        {
          "indexed": true,
          "internalType": "address",
          "name": "strategy",
          "type": "address"
        },
        {
          "indexed": true,
          "internalType": "address",
          "name": "account",
          "type": "address"
        },
        {
          "indexed": false,
          "internalType": "uint256",
          "name": "value",
          "type": "uint256"
        },
        {
          "indexed": false,
          "internalType": "uint256",
          "name": "amount",
          "type": "uint256"
        }
      ],
      "name": "Withdraw",
      "type": "event"
    },
    {
      "inputs": [
        {
          "internalType": "contract IStrategy",
          "name": "strategy",
          "type": "address"
        },
        {
          "internalType": "contract IStrategyRouter",
          "name": "router",
          "type": "address"
        },
        {
          "internalType": "uint256",
          "name": "amount",
          "type": "uint256"
        },
        {
          "internalType": "uint256",
          "name": "slippage",
          "type": "uint256"
        },
        {
          "internalType": "bytes",
          "name": "data",
          "type": "bytes"
        }
      ],
      "name": "deposit",
      "outputs": [],
      "stateMutability": "payable",
      "type": "function"
    },
    {
      "inputs": [],
      "name": "factory",
      "outputs": [
        {
          "internalType": "address",
          "name": "",
          "type": "address"
        }
      ],
      "stateMutability": "view",
      "type": "function"
    },
    {
      "inputs": [
        {
          "internalType": "contract IStrategy",
          "name": "strategy",
          "type": "address"
        },
        {
          "internalType": "contract IStrategyRouter",
          "name": "router",
          "type": "address"
        },
        {
          "internalType": "bytes",
          "name": "data",
          "type": "bytes"
        }
      ],
      "name": "finalizeStructure",
      "outputs": [],
      "stateMutability": "nonpayable",
      "type": "function"
    },
    {
      "inputs": [
        {
          "internalType": "address",
          "name": "strategy",
          "type": "address"
        }
      ],
      "name": "finalizeValue",
      "outputs": [],
      "stateMutability": "nonpayable",
      "type": "function"
    },
    {
      "inputs": [],
      "name": "initialize",
      "outputs": [
        {
          "internalType": "bool",
          "name": "",
          "type": "bool"
        }
      ],
      "stateMutability": "nonpayable",
      "type": "function"
    },
    {
      "inputs": [
        {
          "internalType": "address",
          "name": "strategy",
          "type": "address"
        }
      ],
      "name": "initialized",
      "outputs": [
        {
          "internalType": "bool",
          "name": "",
          "type": "bool"
        }
      ],
      "stateMutability": "view",
      "type": "function"
    },
    {
      "inputs": [
        {
          "internalType": "contract IStrategy",
          "name": "strategy",
          "type": "address"
        }
      ],
      "name": "openStrategy",
      "outputs": [],
      "stateMutability": "nonpayable",
      "type": "function"
    },
    {
      "inputs": [],
      "name": "oracle",
      "outputs": [
        {
          "internalType": "contract IOracle",
          "name": "",
          "type": "address"
        }
      ],
      "stateMutability": "view",
      "type": "function"
    },
    {
      "inputs": [
        {
          "internalType": "contract IStrategy",
          "name": "strategy",
          "type": "address"
        },
        {
          "internalType": "contract IStrategyRouter",
          "name": "router",
          "type": "address"
        },
        {
          "internalType": "bytes",
          "name": "data",
          "type": "bytes"
        }
      ],
      "name": "rebalance",
      "outputs": [],
      "stateMutability": "nonpayable",
      "type": "function"
    },
    {
      "inputs": [
        {
          "internalType": "contract IStrategy",
          "name": "strategy",
          "type": "address"
        },
        {
          "internalType": "address",
          "name": "adapter",
          "type": "address"
        },
        {
          "internalType": "address",
          "name": "token",
          "type": "address"
        }
      ],
      "name": "repositionSynths",
      "outputs": [],
      "stateMutability": "nonpayable",
      "type": "function"
    },
    {
      "inputs": [
        {
          "internalType": "contract IStrategy",
          "name": "strategy",
          "type": "address"
        },
        {
          "components": [
            {
              "internalType": "address",
              "name": "item",
              "type": "address"
            },
            {
              "internalType": "int256",
              "name": "percentage",
              "type": "int256"
            },
            {
              "components": [
                {
                  "internalType": "address[]",
                  "name": "adapters",
                  "type": "address[]"
                },
                {
                  "internalType": "address[]",
                  "name": "path",
                  "type": "address[]"
                },
                {
                  "internalType": "bytes",
                  "name": "cache",
                  "type": "bytes"
                }
              ],
              "internalType": "struct StrategyTypes.TradeData",
              "name": "data",
              "type": "tuple"
            }
          ],
          "internalType": "struct StrategyTypes.StrategyItem[]",
          "name": "strategyItems",
          "type": "tuple[]"
        }
      ],
      "name": "restructure",
      "outputs": [],
      "stateMutability": "nonpayable",
      "type": "function"
    },
    {
      "inputs": [
        {
          "internalType": "contract IStrategy",
          "name": "strategy",
          "type": "address"
        }
      ],
      "name": "setStrategy",
      "outputs": [],
      "stateMutability": "nonpayable",
      "type": "function"
    },
    {
      "inputs": [
        {
          "internalType": "address",
          "name": "manager_",
          "type": "address"
        },
        {
          "internalType": "address",
          "name": "strategy_",
          "type": "address"
        },
        {
          "components": [
            {
              "internalType": "uint32",
              "name": "timelock",
              "type": "uint32"
            },
            {
              "internalType": "uint16",
              "name": "rebalanceThreshold",
              "type": "uint16"
            },
            {
              "internalType": "uint16",
              "name": "rebalanceSlippage",
              "type": "uint16"
            },
            {
              "internalType": "uint16",
              "name": "restructureSlippage",
              "type": "uint16"
            },
            {
              "internalType": "uint16",
              "name": "performanceFee",
              "type": "uint16"
            },
            {
              "internalType": "bool",
              "name": "social",
              "type": "bool"
            },
            {
              "internalType": "bool",
              "name": "set",
              "type": "bool"
            }
          ],
          "internalType": "struct StrategyTypes.InitialState",
          "name": "state_",
          "type": "tuple"
        },
        {
          "internalType": "address",
          "name": "router_",
          "type": "address"
        },
        {
          "internalType": "bytes",
          "name": "data_",
          "type": "bytes"
        }
      ],
      "name": "setupStrategy",
      "outputs": [],
      "stateMutability": "payable",
      "type": "function"
    },
    {
      "inputs": [
        {
          "internalType": "address",
          "name": "strategy",
          "type": "address"
        }
      ],
      "name": "strategyState",
      "outputs": [
        {
          "components": [
            {
              "internalType": "uint32",
              "name": "timelock",
              "type": "uint32"
            },
            {
              "internalType": "uint16",
              "name": "rebalanceSlippage",
              "type": "uint16"
            },
            {
              "internalType": "uint16",
              "name": "restructureSlippage",
              "type": "uint16"
            },
            {
              "internalType": "bool",
              "name": "social",
              "type": "bool"
            },
            {
              "internalType": "bool",
              "name": "set",
              "type": "bool"
            }
          ],
          "internalType": "struct StrategyTypes.StrategyState",
          "name": "",
          "type": "tuple"
        }
      ],
      "stateMutability": "view",
      "type": "function"
    },
    {
      "inputs": [],
      "name": "updateAddresses",
      "outputs": [],
      "stateMutability": "nonpayable",
      "type": "function"
    },
    {
      "inputs": [
        {
          "internalType": "contract IStrategy",
          "name": "strategy",
          "type": "address"
        },
        {
          "internalType": "enum StrategyTypes.TimelockCategory",
          "name": "category",
          "type": "uint8"
        },
        {
          "internalType": "uint256",
          "name": "newValue",
          "type": "uint256"
        }
      ],
      "name": "updateValue",
      "outputs": [],
      "stateMutability": "nonpayable",
      "type": "function"
    },
    {
      "inputs": [
        {
          "internalType": "address",
          "name": "strategy",
          "type": "address"
        },
        {
          "components": [
            {
              "internalType": "address",
              "name": "item",
              "type": "address"
            },
            {
              "internalType": "int256",
              "name": "percentage",
              "type": "int256"
            },
            {
              "components": [
                {
                  "internalType": "address[]",
                  "name": "adapters",
                  "type": "address[]"
                },
                {
                  "internalType": "address[]",
                  "name": "path",
                  "type": "address[]"
                },
                {
                  "internalType": "bytes",
                  "name": "cache",
                  "type": "bytes"
                }
              ],
              "internalType": "struct StrategyTypes.TradeData",
              "name": "data",
              "type": "tuple"
            }
          ],
          "internalType": "struct StrategyTypes.StrategyItem[]",
          "name": "newItems",
          "type": "tuple[]"
        }
      ],
      "name": "verifyStructure",
      "outputs": [
        {
          "internalType": "bool",
          "name": "",
          "type": "bool"
        }
      ],
      "stateMutability": "view",
      "type": "function"
    },
    {
      "inputs": [],
      "name": "whitelist",
      "outputs": [
        {
          "internalType": "contract IWhitelist",
          "name": "",
          "type": "address"
        }
      ],
      "stateMutability": "view",
      "type": "function"
    },
    {
      "inputs": [
        {
          "internalType": "contract IStrategy",
          "name": "strategy",
          "type": "address"
        },
        {
          "internalType": "contract IStrategyRouter",
          "name": "router",
          "type": "address"
        },
        {
          "internalType": "uint256",
          "name": "amount",
          "type": "uint256"
        },
        {
          "internalType": "uint256",
          "name": "slippage",
          "type": "uint256"
        },
        {
          "internalType": "bytes",
          "name": "data",
          "type": "bytes"
        }
      ],
      "name": "withdrawETH",
      "outputs": [],
      "stateMutability": "nonpayable",
      "type": "function"
    },
    {
      "inputs": [
        {
          "internalType": "contract IStrategy",
          "name": "strategy",
          "type": "address"
        },
        {
          "internalType": "contract IStrategyRouter",
          "name": "router",
          "type": "address"
        },
        {
          "internalType": "uint256",
          "name": "amount",
          "type": "uint256"
        },
        {
          "internalType": "uint256",
          "name": "slippage",
          "type": "uint256"
        },
        {
          "internalType": "bytes",
          "name": "data",
          "type": "bytes"
        }
      ],
      "name": "withdrawWETH",
      "outputs": [],
      "stateMutability": "nonpayable",
      "type": "function"
    },
    {
      "stateMutability": "payable",
      "type": "receive"
    }
  ],
  "bytecode": "0x60a06040523480156200001157600080fd5b5060405162005fad38038062005fad8339810160408190526200003491620000e6565b600754610100900460ff168062000050575062000050620000e0565b806200005f575060075460ff16155b620000875760405162461bcd60e51b81526004016200007e9062000116565b60405180910390fd5b600754610100900460ff16158015620000b3576007805460ff1961ff0019909116610100171660011790555b6001600160601b0319606083901b166080528015620000d8576007805461ff00191690555b505062000164565b303b1590565b600060208284031215620000f8578081fd5b81516001600160a01b03811681146200010f578182fd5b9392505050565b6020808252602e908201527f496e697469616c697a61626c653a20636f6e747261637420697320616c72656160408201526d191e481a5b9a5d1a585b1a5e995960921b606082015260800190565b60805160601c615e216200018c6000398061121852806119055280611dcd5250615e216000f3fe6080604052600436106100f35760003560e01c806301843e931461013257806312125b121461015257806333a100ca146101725780634e31a5b414610192578063502117ed146101b2578063716e2615146101d257806371b8dc69146101f25780637240ffa8146102055780637dc0d1d014610218578063805e09b4146102435780638129fc1c146102635780638e734e871461028557806393e59dc1146102a5578063b9471352146102ba578063c45a0155146102da578063cbca47db146102ef578063d5504f021461030f578063dde684a51461032f578063e26db6fc1461035c578063f21f5339146103715761012d565b3661012d576002546001600160a01b0316331461012b5760405162461bcd60e51b815260040161012290615951565b60405180910390fd5b005b600080fd5b34801561013e57600080fd5b5061012b61014d3660046150a2565b610391565b34801561015e57600080fd5b5061012b61016d366004615058565b6105f1565b34801561017e57600080fd5b5061012b61018d366004614c77565b610b0c565b34801561019e57600080fd5b5061012b6101ad366004614c77565b610bb1565b3480156101be57600080fd5b5061012b6101cd3660046150f7565b610ecb565b3480156101de57600080fd5b5061012b6101ed3660046150f7565b610fd8565b61012b6102003660046150f7565b61101d565b61012b610213366004614caf565b611203565b34801561022457600080fd5b5061022d61128a565b60405161023a91906152c2565b60405180910390f35b34801561024f57600080fd5b5061012b61025e3660046150a2565b611299565b34801561026f57600080fd5b50610278611676565b60405161023a919061549f565b34801561029157600080fd5b5061012b6102a0366004614c77565b611705565b3480156102b157600080fd5b5061022d6117a6565b3480156102c657600080fd5b5061012b6102d5366004614dc1565b6117b5565b3480156102e657600080fd5b5061022d611903565b3480156102fb57600080fd5b5061027861030a366004614c77565b611927565b34801561031b57600080fd5b5061027861032a366004614dc1565b611944565b34801561033b57600080fd5b5061034f61034a366004614c77565b611d49565b60405161023a9190615c1d565b34801561036857600080fd5b5061012b611dc9565b34801561037d57600080fd5b5061012b61038c366004615151565b612059565b61039a836121b7565b6103a3836121fa565b6103ac82612250565b6103b5836122ef565b826001600160a01b0316634a2f38a56040518163ffffffff1660e01b8152600401600060405180830381600087803b1580156103f057600080fd5b505af1158015610404573d6000803e3d6000fd5b505050506001600160a01b038316600090815260056020908152604080832060069092529091208154600160401b900460ff16158061045b5750815460018201546104589163ffffffff9081169061239016565b42115b6104775760405162461bcd60e51b815260040161012290615bc9565b6000815460ff16600581111561048957fe5b146104a65760405162461bcd60e51b815260040161012290615aa7565b600281810180546040805160206001841615610100026000190190931694909404601f810183900483028501830190915280845260609392918301828280156105305780601f1061050557610100808354040283529160200191610530565b820191906000526020600020905b81548152906001019060200180831161051357829003601f168201915b50505050508060200190518101906105489190614e40565b90506105548682611944565b6105705760405162461bcd60e51b8152600401610122906159f4565b61057c868683876123bc565b815460ff1916825560006001830181905561059b90600284019061486c565b60011515866001600160a01b03167fa98e30a4e169a0e1c0cdf53f9446a31c85cfb3fc6eb004468faf61d487ca196b836040516105d891906153e3565b60405180910390a36105e986612898565b505050505050565b6105fa836121fa565b610603836122ef565b826001600160a01b0316634a2f38a56040518163ffffffff1660e01b8152600401600060405180830381600087803b15801561063e57600080fd5b505af1158015610652573d6000803e3d6000fd5b50506003546001600160a01b03908116925083168214159050610815576060846001600160a01b031663803c88906040518163ffffffff1660e01b815260040160006040518083038186803b1580156106aa57600080fd5b505afa1580156106be573d6000803e3d6000fd5b505050506040513d6000823e601f3d908101601f191682016040526106e69190810190614e0e565b905060005b815181101561080e57600082828151811061070257fe5b60200260200101516001600160a01b03166370a08231886040518263ffffffff1660e01b815260040161073591906152c2565b60206040518083038186803b15801561074d57600080fd5b505afa158015610761573d6000803e3d6000fd5b505050506040513d601f19601f8201168201806040525081019061078591906151b3565b9050801561080557866001600160a01b0316631434ffac87838686815181106107aa57fe5b6020026020010151886040518563ffffffff1660e01b81526004016107d29493929190615351565b600060405180830381600087803b1580156107ec57600080fd5b505af1158015610800573d6000803e3d6000fd5b505050505b506001016106eb565b5050610afd565b6001600160a01b038281161415610ae5576040516370a0823160e01b81526000906001600160a01b038316906370a08231906108559088906004016152c2565b60206040518083038186803b15801561086d57600080fd5b505afa158015610881573d6000803e3d6000fd5b505050506040513d601f19601f820116820180604052508101906108a591906151b3565b90506000856001600160a01b0316633ebbc9c46000196040518263ffffffff1660e01b81526004016108d791906152c2565b60206040518083038186803b1580156108ef57600080fd5b505afa158015610903573d6000803e3d6000fd5b505050506040513d601f19601f8201168201806040525081019061092791906151b3565b90506060866001600160a01b031663803c88906040518163ffffffff1660e01b815260040160006040518083038186803b15801561096457600080fd5b505afa158015610978573d6000803e3d6000fd5b505050506040513d6000823e601f3d908101601f191682016040526109a09190810190614e0e565b905060005b8151811015610adc576000610a5384610a4d8b6001600160a01b0316633ebbc9c48787815181106109d257fe5b60200260200101516040518263ffffffff1660e01b81526004016109f691906152c2565b60206040518083038186803b158015610a0e57600080fd5b505afa158015610a22573d6000803e3d6000fd5b505050506040513d601f19601f82011682018060405250810190610a4691906151b3565b88906128d3565b9061293e565b90508015610ad357886001600160a01b0316631434ffac898389878781518110610a7957fe5b60200260200101516040518563ffffffff1660e01b8152600401610aa09493929190615351565b600060405180830381600087803b158015610aba57600080fd5b505af1158015610ace573d6000803e3d6000fd5b505050505b506001016109a5565b50505050610afd565b60405162461bcd60e51b81526004016101229061565b565b610b0684612898565b50505050565b610b15816121fa565b610b1e816122ef565b6001600160a01b03811660009081526005602052604090208054600160481b900460ff1615610b5f5760405162461bcd60e51b815260040161012290615503565b805460ff60481b1916600160481b1781556040516001600160a01b038316907fe70d79dad95c835bdd87e9cf4665651c9e5abb3b756e4fd2bf45f29c95c3aa4090600090a2610bad82612898565b5050565b610bba816121fa565b6001600160a01b0381166000908152600560209081526040808320600690925282209091815460ff166005811115610bee57fe5b1415610c0c5760405162461bcd60e51b815260040161012290615aa7565b8154600160401b900460ff161580610c3c575081546001820154610c399163ffffffff9081169061239016565b42115b610c585760405162461bcd60e51b815260040161012290615bc9565b600281810180546040805160206001841615610100026000190190931694909404601f81018390048302850183019091528084526000939291830182828015610ce25780601f10610cb757610100808354040283529160200191610ce2565b820191906000526020600020905b815481529060010190602001808311610cc557829003601f168201915b5050505050806020019051810190610cfa91906151b3565b90506004825460ff166005811115610d0e57fe5b1415610d2c57825463ffffffff191663ffffffff8216178355610e70565b6002825460ff166005811115610d3e57fe5b1415610d6157825461ffff60201b1916600160201b61ffff831602178355610e70565b6003825460ff166005811115610d7357fe5b1415610d9657825461ffff60301b1916600160301b61ffff831602178355610e70565b6001825460ff166005811115610da857fe5b1415610e1157604051631ae8a0f160e31b81526001600160a01b0385169063d745078890610dda908490600401615c6b565b600060405180830381600087803b158015610df457600080fd5b505af1158015610e08573d6000803e3d6000fd5b50505050610e70565b60405163709ac1c360e01b81526001600160a01b0385169063709ac1c390610e3d908490600401615c6b565b600060405180830381600087803b158015610e5757600080fd5b505af1158015610e6b573d6000803e3d6000fd5b505050505b81546040516001916001600160a01b03871691600080516020615dcc83398151915291610ea49160ff9091169086906154aa565b60405180910390a3815460ff19168255600060018301819055610afd90600284019061486c565b610ed4856121fa565b600080610ee487878787876129a2565b9092509050610efe6001600160a01b03831688308461327e565b604051632e1a7d4d60e01b81526001600160a01b03831690632e1a7d4d90610f2a908490600401615c7a565b600060405180830381600087803b158015610f4457600080fd5b505af1158015610f58573d6000803e3d6000fd5b505050506000336001600160a01b031682604051610f75906152bf565b60006040518083038185875af1925050503d8060008114610fb2576040519150601f19603f3d011682016040523d82523d6000602084013e610fb7565b606091505b5050905080610fc557600080fd5b610fce88612898565b5050505050505050565b610fe1856121fa565b600080610ff187878787876129a2565b909250905061100b6001600160a01b03831688338461327e565b61101487612898565b50505050505050565b611026856121fa565b61102f856132d6565b846001600160a01b0316634a2f38a56040518163ffffffff1660e01b8152600401600060405180830381600087803b15801561106a57600080fd5b505af115801561107e573d6000803e3d6000fd5b50505050846001600160a01b031663939a2bfc6040518163ffffffff1660e01b8152600401600060405180830381600087803b1580156110bd57600080fd5b505af11580156110d1573d6000803e3d6000fd5b50505050600060606110e161128a565b6001600160a01b031663ff4a1902886040518263ffffffff1660e01b815260040161110c91906152c2565b60006040518083038186803b15801561112457600080fd5b505afa158015611138573d6000803e3d6000fd5b505050506040513d6000823e601f3d908101601f1916820160405261116091908101906151cb565b91509150600073__$59902e9d6730bb3d0c2c9d68301f7cefef$__63fa88c0538985856040518463ffffffff1660e01b81526004016111a19392919061537c565b60206040518083038186803b1580156111b957600080fd5b505af41580156111cd573d6000803e3d6000fd5b505050506040513d601f19601f820116820180604052508101906111f191906151b3565b9050610fc5888833898988878b6133a1565b8361120d816121fa565b336001600160a01b037f000000000000000000000000000000000000000000000000000000000000000016146112555760405162461bcd60e51b815260040161012290615b4e565b61125f8585613a6c565b3415611281576112818184886000886060015161ffff166000600019896133a1565b6105e981612898565b6001546001600160a01b031690565b6112a2836121fa565b6112ab82612250565b6112b4836122ef565b826001600160a01b0316634a2f38a56040518163ffffffff1660e01b8152600401600060405180830381600087803b1580156112ef57600080fd5b505af1158015611303573d6000803e3d6000fd5b50506001546040516323c4ca7960e01b81526000935083925060609173__$59902e9d6730bb3d0c2c9d68301f7cefef$__916323c4ca7991611353918a916001600160a01b0316906004016152ef565b60006040518083038186803b15801561136b57600080fd5b505af415801561137f573d6000803e3d6000fd5b505050506040513d6000823e601f3d908101601f191682016040526113a79190810190615001565b92509250925082156113cb5760405162461bcd60e51b8152600401610122906155b1565b6000856001600160a01b031663ef430aa66040518163ffffffff1660e01b815260040160206040518083038186803b15801561140657600080fd5b505afa15801561141a573d6000803e3d6000fd5b505050506040513d601f19601f8201168201806040525081019061143e9190615194565b600381111561144957fe5b14611473578181604051602001611461929190615c83565b60405160208183030381529060405293505b61156a86876001600160a01b031663c06fad066040518163ffffffff1660e01b815260040160006040518083038186803b1580156114b057600080fd5b505afa1580156114c4573d6000803e3d6000fd5b505050506040513d6000823e601f3d908101601f191682016040526114ec9190810190614e0e565b886001600160a01b0316630dca59c16040518163ffffffff1660e01b815260040160006040518083038186803b15801561152557600080fd5b505afa158015611539573d6000803e3d6000fd5b505050506040513d6000823e601f3d908101601f191682016040526115619190810190614e0e565b88600019613d2b565b61157686868487613e2d565b5061166d86876001600160a01b031663c06fad066040518163ffffffff1660e01b815260040160006040518083038186803b1580156115b457600080fd5b505afa1580156115c8573d6000803e3d6000fd5b505050506040513d6000823e601f3d908101601f191682016040526115f09190810190614e0e565b886001600160a01b0316630dca59c16040518163ffffffff1660e01b815260040160006040518083038186803b15801561162957600080fd5b505afa15801561163d573d6000803e3d6000fd5b505050506040513d6000823e601f3d908101601f191682016040526116659190810190614e0e565b886000613d2b565b6105e986612898565b600754600090610100900460ff1680611692575061169261409f565b806116a0575060075460ff16155b6116bc5760405162461bcd60e51b8152600401610122906157f1565b600754610100900460ff161580156116e7576007805460ff1961ff0019909116610100171660011790555b6116ef611dc9565b8015611701576007805461ff00191690555b5090565b61170e816121fa565b611717816122ef565b6001600160a01b03811660009081526005602052604090208054600160401b900460ff16156117585760405162461bcd60e51b8152600401610122906155d3565b805460ff60401b1916600160401b1781556040516001600160a01b038316907f4c3f1eed13ac6b6e115341feddd01b83784de7f9a83dfad12fadf1edd757f46a90600090a2610bad82612898565b6000546001600160a01b031690565b6117be826121b7565b6117c7826121fa565b6117d0826122ef565b6001600160a01b03821660009081526006602052604090206001810154158061182857506001600160a01b03831660009081526005602052604090205460018201546118259163ffffffff9081169061239016565b42115b6118445760405162461bcd60e51b815260040161012290615bc9565b61184e8383611944565b61186a5760405162461bcd60e51b8152600401610122906159f4565b805460ff191681554260018201556040516118899083906020016153e3565b6040516020818303038152906040528160020190805190602001906118af9291906148b0565b5060001515836001600160a01b03167fa98e30a4e169a0e1c0cdf53f9446a31c85cfb3fc6eb004468faf61d487ca196b846040516118ed91906153e3565b60405180910390a36118fe83612898565b505050565b7f000000000000000000000000000000000000000000000000000000000000000081565b6001600160a01b0316600090815260046020526040902054151590565b6000808251116119665760405162461bcd60e51b81526004016101229061557d565b60006001600160a01b03168260008151811061197e57fe5b6020026020010151600001516001600160a01b031614156119b15760405162461bcd60e51b8152600401610122906156f8565b6000196001600160a01b0316826001845103815181106119cd57fe5b6020026020010151600001516001600160a01b03161415611a005760405162461bcd60e51b8152600401610122906156f8565b6000611a0a61128a565b6001600160a01b0316639d23c4c76040518163ffffffff1660e01b815260040160206040518083038186803b158015611a4257600080fd5b505afa158015611a56573d6000803e3d6000fd5b505050506040513d601f19601f82011682018060405250810190611a7a9190614c93565b90506000805b8451811015611d1a576000858281518110611a9757fe5b60200260200101516000015190508160001480611af65750856001830381518110611abe57fe5b6020026020010151600001516001600160a01b0316868381518110611adf57fe5b6020026020010151600001516001600160a01b0316115b611b125760405162461bcd60e51b815260040161012290615556565b6000868381518110611b2057fe5b602002602001015160200151905060026003811115611b3b57fe5b6040516325f4e77960e21b81526001600160a01b038716906397d39de490611b679086906004016152c2565b60206040518083038186803b158015611b7f57600080fd5b505afa158015611b93573d6000803e3d6000fd5b505050506040513d601f19601f82011682018060405250810190611bb791906151b3565b1415611c06576000811315611bde5760405162461bcd60e51b815260040161012290615686565b61270f19811215611c015760405162461bcd60e51b8152600401610122906159a3565b611c49565b6000811215611c275760405162461bcd60e51b815260040161012290615769565b612710811315611c495760405162461bcd60e51b8152600401610122906159a3565b6040516346a7483760e01b81526000906001600160a01b038716906346a7483790611c789086906004016152c2565b60206040518083038186803b158015611c9057600080fd5b505afa158015611ca4573d6000803e3d6000fd5b505050506040513d601f19601f82011682018060405250810190611cc891906151b3565b90506003811415611ceb5760405162461bcd60e51b815260040161012290615880565b6002811415611cff57611cff8984886140a5565b611d0985836142a7565b94505060019092019150611a809050565b506103e88114611d3c5760405162461bcd60e51b81526004016101229061579b565b6001925050505b92915050565b611d5161492a565b506001600160a01b0316600090815260056020908152604091829020825160a081018452905463ffffffff8116825261ffff600160201b8204811693830193909352600160301b81049092169281019290925260ff600160401b8204811615156060840152600160481b909104161515608082015290565b60007f00000000000000000000000000000000000000000000000000000000000000009050806001600160a01b03166393e59dc16040518163ffffffff1660e01b815260040160206040518083038186803b158015611e2757600080fd5b505afa158015611e3b573d6000803e3d6000fd5b505050506040513d601f19601f82011682018060405250810190611e5f9190614c93565b6000806101000a8154816001600160a01b0302191690836001600160a01b031602179055506000816001600160a01b0316637dc0d1d06040518163ffffffff1660e01b815260040160206040518083038186803b158015611ebf57600080fd5b505afa158015611ed3573d6000803e3d6000fd5b505050506040513d601f19601f82011682018060405250810190611ef79190614c93565b6001549091506001600160a01b03808316911614610bad57600180546001600160a01b0319166001600160a01b03831690811790915560408051633fc8cef360e01b81529051839291633fc8cef3916004808301926020929190829003018186803b158015611f6557600080fd5b505afa158015611f79573d6000803e3d6000fd5b505050506040513d601f19601f82011682018060405250810190611f9d9190614c93565b600260006101000a8154816001600160a01b0302191690836001600160a01b03160217905550806001600160a01b031663c92577756040518163ffffffff1660e01b815260040160206040518083038186803b158015611ffc57600080fd5b505afa158015612010573d6000803e3d6000fd5b505050506040513d601f19601f820116820180604052508101906120349190614c93565b600380546001600160a01b0319166001600160a01b0392909216919091179055505050565b612062836121fa565b61206b836122ef565b6001600160a01b0383166000908152600660205260409020600181015415806120c357506001600160a01b03841660009081526005602052604090205460018201546120c09163ffffffff9081169061239016565b42115b6120df5760405162461bcd60e51b815260040161012290615bc9565b60008360058111156120ed57fe5b14156120f857600080fd5b600483600581111561210657fe5b1461211d5761211884848460006142ed565b612153565b60001515846001600160a01b0316600080516020615dcc833981519152858560405161214a9291906154aa565b60405180910390a35b80548390829060ff1916600183600581111561216b57fe5b0217905550426001820155604051612187908390602001615c7a565b6040516020818303038152906040528160020190805190602001906121ad9291906148b0565b50610b0684612898565b6001600160a01b038116600090815260056020526040902054600160481b900460ff16156121f75760405162461bcd60e51b815260040161012290615973565b50565b806001600160a01b031663f83d08ba6040518163ffffffff1660e01b8152600401600060405180830381600087803b15801561223557600080fd5b505af1158015612249573d6000803e3d6000fd5b5050505050565b6122586117a6565b6001600160a01b031663d8b964e6826040518263ffffffff1660e01b815260040161228391906152c2565b60206040518083038186803b15801561229b57600080fd5b505afa1580156122af573d6000803e3d6000fd5b505050506040513d601f19601f820116820180604052508101906122d39190614fe5565b6121f75760405162461bcd60e51b8152600401610122906157cb565b806001600160a01b031663481c6a756040518163ffffffff1660e01b815260040160206040518083038186803b15801561232857600080fd5b505afa15801561233c573d6000803e3d6000fd5b505050506040513d601f19601f820116820180604052508101906123609190614c93565b6001600160a01b0316336001600160a01b0316146121f75760405162461bcd60e51b815260040161012290615531565b6000828201838110156123b55760405162461bcd60e51b815260040161012290615602565b9392505050565b60006123c661128a565b905060006060826001600160a01b031663ff4a1902886040518263ffffffff1660e01b81526004016123f891906152c2565b60006040518083038186803b15801561241057600080fd5b505afa158015612424573d6000803e3d6000fd5b505050506040513d6000823e601f3d908101601f1916820160405261244c91908101906151cb565b915091506060876001600160a01b031663c06fad066040518163ffffffff1660e01b815260040160006040518083038186803b15801561248b57600080fd5b505afa15801561249f573d6000803e3d6000fd5b505050506040513d6000823e601f3d908101601f191682016040526124c79190810190614e0e565b90506060886001600160a01b0316630dca59c16040518163ffffffff1660e01b815260040160006040518083038186803b15801561250457600080fd5b505afa158015612518573d6000803e3d6000fd5b505050506040513d6000823e601f3d908101601f191682016040526125409190810190614e0e565b90506000886001600160a01b031663ef430aa66040518163ffffffff1660e01b815260040160206040518083038186803b15801561257d57600080fd5b505afa158015612591573d6000803e3d6000fd5b505050506040513d601f19601f820116820180604052508101906125b59190615194565b60038111156125c057fe5b146125ee57838383836040516020016125dc9493929190615c9c565b60405160208183030381529060405295505b60405163d81076a360e01b81526001600160a01b038a169063d81076a39061261a908a906004016153e3565b600060405180830381600087803b15801561263457600080fd5b505af1158015612648573d6000803e3d6000fd5b5050505061265b8983838b600019613d2b565b604051630ba11d5d60e41b81526001600160a01b0389169063ba11d5d090612689908c908a9060040161532d565b600060405180830381600087803b1580156126a357600080fd5b505af11580156126b7573d6000803e3d6000fd5b505050506126c98983838b6000613d2b565b6001546040516323c4ca7960e01b8152600091829173__$59902e9d6730bb3d0c2c9d68301f7cefef$__916323c4ca7991612714918f916001600160a01b03909116906004016152ef565b60006040518083038186803b15801561272c57600080fd5b505af4158015612740573d6000803e3d6000fd5b505050506040513d6000823e601f3d908101601f191682016040526127689190810190615001565b50915091508161278a5760405162461bcd60e51b815260040161012290615a1f565b6001600160a01b038b166000908152600560205260409020546127bb9082908890600160301b900461ffff16614330565b8a6001600160a01b031663dbbc5aca828d6001600160a01b03166318160ddd6040518163ffffffff1660e01b815260040160206040518083038186803b15801561280457600080fd5b505afa158015612818573d6000803e3d6000fd5b505050506040513d601f19601f8201168201806040525081019061283c91906151b3565b6040518363ffffffff1660e01b8152600401612859929190615cdb565b600060405180830381600087803b15801561287357600080fd5b505af1158015612887573d6000803e3d6000fd5b505050505050505050505050505050565b806001600160a01b031663a69df4b56040518163ffffffff1660e01b8152600401600060405180830381600087803b15801561223557600080fd5b6000826128e257506000611d43565b826000191480156128f65750600160ff1b82145b156129135760405162461bcd60e51b8152600401610122906158e8565b8282028284828161292057fe5b05146123b55760405162461bcd60e51b8152600401610122906158e8565b60008161295d5760405162461bcd60e51b815260040161012290615b19565b816000191480156129715750600160ff1b83145b1561298e5760405162461bcd60e51b81526004016101229061583f565b600082848161299957fe5b05949350505050565b600080600085116129c55760405162461bcd60e51b81526004016101229061592f565b6129ce8461435f565b866001600160a01b0316634a2f38a56040518163ffffffff1660e01b8152600401600060405180830381600087803b158015612a0957600080fd5b505af1158015612a1d573d6000803e3d6000fd5b50505050866001600160a01b031663939a2bfc6040518163ffffffff1660e01b8152600401600060405180830381600087803b158015612a5c57600080fd5b505af1158015612a70573d6000803e3d6000fd5b505050506000612a7e61128a565b905060006060826001600160a01b031663ff4a19028b6040518263ffffffff1660e01b8152600401612ab091906152c2565b60006040518083038186803b158015612ac857600080fd5b505afa158015612adc573d6000803e3d6000fd5b505050506040513d6000823e601f3d908101601f19168201604052612b0491908101906151cb565b91509150600073__$59902e9d6730bb3d0c2c9d68301f7cefef$__63fa88c0538c85856040518463ffffffff1660e01b8152600401612b459392919061537c565b60206040518083038186803b158015612b5d57600080fd5b505af4158015612b71573d6000803e3d6000fd5b505050506040513d601f19601f82011682018060405250810190612b9591906151b3565b905060008b6001600160a01b03166318160ddd6040518163ffffffff1660e01b815260040160206040518083038186803b158015612bd257600080fd5b505afa158015612be6573d6000803e3d6000fd5b505050506040513d601f19601f82011682018060405250810190612c0a91906151b3565b604051632770a7eb60e21b81529091506001600160a01b038d1690639dc29fac90612c3b9033908e906004016152d6565b602060405180830381600087803b158015612c5557600080fd5b505af1158015612c69573d6000803e3d6000fd5b505050506040513d601f19601f82011682018060405250810190612c8d91906151b3565b9950612ca381612c9d868d614381565b906143bb565b955060008b6001600160a01b031663ef430aa66040518163ffffffff1660e01b815260040160206040518083038186803b158015612ce057600080fd5b505afa158015612cf4573d6000803e3d6000fd5b505050506040513d601f19601f82011682018060405250810190612d189190615194565b6003811115612d2357fe5b14612d6a576000612d4082612c9d8d670de0b6b3a7640000614381565b9050808585604051602001612d5793929190615ce9565b6040516020818303038152906040529850505b50612e628b8c6001600160a01b031663c06fad066040518163ffffffff1660e01b815260040160006040518083038186803b158015612da857600080fd5b505afa158015612dbc573d6000803e3d6000fd5b505050506040513d6000823e601f3d908101601f19168201604052612de49190810190614e0e565b8d6001600160a01b0316630dca59c16040518163ffffffff1660e01b815260040160006040518083038186803b158015612e1d57600080fd5b505afa158015612e31573d6000803e3d6000fd5b505050506040513d6000823e601f3d908101601f19168201604052612e599190810190614e0e565b8d600019613d2b565b6040516312ede2c560e21b81526001600160a01b038b1690634bb78b1490612e90908e908b9060040161532d565b600060405180830381600087803b158015612eaa57600080fd5b505af1158015612ebe573d6000803e3d6000fd5b50505050612fb88b8c6001600160a01b031663c06fad066040518163ffffffff1660e01b815260040160006040518083038186803b158015612eff57600080fd5b505afa158015612f13573d6000803e3d6000fd5b505050506040513d6000823e601f3d908101601f19168201604052612f3b9190810190614e0e565b8d6001600160a01b0316630dca59c16040518163ffffffff1660e01b815260040160006040518083038186803b158015612f7457600080fd5b505afa158015612f88573d6000803e3d6000fd5b505050506040513d6000823e601f3d908101601f19168201604052612fb09190810190614e0e565b8d6000613d2b565b60006060856001600160a01b031663ff4a19028e6040518263ffffffff1660e01b8152600401612fe891906152c2565b60006040518083038186803b15801561300057600080fd5b505afa158015613014573d6000803e3d6000fd5b505050506040513d6000823e601f3d908101601f1916820160405261303c91908101906151cb565b91509150600260009054906101000a90046001600160a01b031697506000886001600160a01b03166370a082318f6040518263ffffffff1660e01b815260040161308691906152c2565b60206040518083038186803b15801561309e57600080fd5b505afa1580156130b2573d6000803e3d6000fd5b505050506040513d601f19601f820116820180604052508101906130d691906151b3565b90506000838711156131195760006130ee88866143fa565b9050898111156131105760405162461bcd60e51b815260040161012290615a7c565b8903905061311c565b50875b818111156131375761312f828a8e614330565b819850613146565b613142818a8e614330565b8098505b5073__$59902e9d6730bb3d0c2c9d68301f7cefef$__9050636a5ff7638e8561316f868c6143fa565b856040518563ffffffff1660e01b815260040161318f94939291906153ac565b60006040518083038186803b1580156131a757600080fd5b505af41580156131bb573d6000803e3d6000fd5b505050508c6001600160a01b031663da3e339789308a6040518463ffffffff1660e01b81526004016131ef93929190615309565b600060405180830381600087803b15801561320957600080fd5b505af115801561321d573d6000803e3d6000fd5b50505050336001600160a01b03168d6001600160a01b03167ff341246adaac6f497bc2a656f546ab9e182111d630394f0c57c710a59a2cb567898e604051613266929190615cdb565b60405180910390a35050505050509550959350505050565b610b06846323b872dd60e01b85858560405160240161329f93929190615309565b60408051601f198184030181529190526020810180516001600160e01b03166001600160e01b03199093169290921790915261443c565b806001600160a01b031663481c6a756040518163ffffffff1660e01b815260040160206040518083038186803b15801561330f57600080fd5b505afa158015613323573d6000803e3d6000fd5b505050506040513d601f19601f820116820180604052508101906133479190614c93565b6001600160a01b0316336001600160a01b0316148061338557506001600160a01b038116600090815260056020526040902054600160401b900460ff165b6121f75760405162461bcd60e51b815260040161012290615531565b6133aa87612250565b6133b38461435f565b61343588896001600160a01b0316630dca59c16040518163ffffffff1660e01b815260040160006040518083038186803b1580156133f057600080fd5b505afa158015613404573d6000803e3d6000fd5b505050506040513d6000823e601f3d908101601f1916820160405261342c9190810190614e0e565b896000196144cb565b600061343f61128a565b905034156136055785156134655760405162461bcd60e51b8152600401610122906159ca565b60025460408051630d0e30db60e41b815290513498506001600160a01b0390921691829163d0e30db0918a9160048082019260009290919082900301818588803b1580156134b257600080fd5b505af11580156134c6573d6000803e3d6000fd5b506134e1935050506001600160a01b03831690508a8961462f565b6000896001600160a01b031663ef430aa66040518163ffffffff1660e01b815260040160206040518083038186803b15801561351c57600080fd5b505afa158015613530573d6000803e3d6000fd5b505050506040513d601f19601f820116820180604052508101906135549190615194565b600381111561355f57fe5b146135895730876040516020016135779291906152d6565b60405160208183030381529060405292505b60405163cf2c52cb60e01b81526001600160a01b038a169063cf2c52cb906135b7908d90879060040161532d565b600060405180830381600087803b1580156135d157600080fd5b505af11580156135e5573d6000803e3d6000fd5b506135ff925050506001600160a01b0382168a600061462f565b5061370e565b6000886001600160a01b031663ef430aa66040518163ffffffff1660e01b815260040160206040518083038186803b15801561364057600080fd5b505afa158015613654573d6000803e3d6000fd5b505050506040513d601f19601f820116820180604052508101906136789190615194565b600381111561368357fe5b146136ad57868660405160200161369b9291906152d6565b60405160208183030381529060405291505b60405163cf2c52cb60e01b81526001600160a01b0389169063cf2c52cb906136db908c90869060040161532d565b600060405180830381600087803b1580156136f557600080fd5b505af1158015613709573d6000803e3d6000fd5b505050505b61378f898a6001600160a01b0316630dca59c16040518163ffffffff1660e01b815260040160006040518083038186803b15801561374b57600080fd5b505afa15801561375f573d6000803e3d6000fd5b505050506040513d6000823e601f3d908101601f191682016040526137879190810190614e0e565b8a60006144cb565b60006060826001600160a01b031663ff4a19028c6040518263ffffffff1660e01b81526004016137bf91906152c2565b60006040518083038186803b1580156137d757600080fd5b505afa1580156137eb573d6000803e3d6000fd5b505050506040513d6000823e601f3d908101601f1916820160405261381391908101906151cb565b915091508582116138365760405162461bcd60e51b815260040161012290615637565b604051636a5ff76360e01b815273__$59902e9d6730bb3d0c2c9d68301f7cefef$__90636a5ff76390613873908e908990879087906004016153ac565b60006040518083038186803b15801561388b57600080fd5b505af415801561389f573d6000803e3d6000fd5b50505086830390506138b2818a8a614330565b60008c6001600160a01b03166318160ddd6040518163ffffffff1660e01b815260040160206040518083038186803b1580156138ed57600080fd5b505afa158015613901573d6000803e3d6000fd5b505050506040513d601f19601f8201168201806040525081019061392591906151b3565b905060008082116139365784613944565b61394489612c9d8486614381565b90506001600160a01b038e1663dbbc5aca866139608585612390565b6040518363ffffffff1660e01b815260040161397d929190615cdb565b600060405180830381600087803b15801561399757600080fd5b505af11580156139ab573d6000803e3d6000fd5b505050508d6001600160a01b03166340c10f198d836040518363ffffffff1660e01b81526004016139dd9291906152d6565b600060405180830381600087803b1580156139f757600080fd5b505af1158015613a0b573d6000803e3d6000fd5b505050508b6001600160a01b03168e6001600160a01b03167fdcbc1c05240f31ff3ad067ef1ee35ce4997762752e3a095284754544f4c709d78d84604051613a54929190615cdb565b60405180910390a35050505050505050505050505050565b613a82826003836080015161ffff1660016142ed565b613a98826001836020015161ffff1660016142ed565b613aae826002836040015161ffff1660016142ed565b613ac4826003836060015161ffff1660016142ed565b6001600160a01b038216600081815260046020818152604080842060019055805160a08082018352875163ffffffff90811683528884015161ffff9081168487019081526060808c01518316868801908152948c0151151590860190815260c08c0151151560808088019182528c8c52600590995299879020955186549251955191519a5163ffffffff1990931694169390931761ffff60201b1916600160201b948316949094029390931761ffff60301b1916600160301b92909116919091021760ff60401b1916600160401b961515969096029590951760ff60481b1916600160481b9515159590950294909417909355840151915163709ac1c360e01b815263709ac1c392613bd892909101615c6b565b600060405180830381600087803b158015613bf257600080fd5b505af1158015613c06573d6000803e3d6000fd5b5050506020820151604051631ae8a0f160e31b81526001600160a01b038516925063d745078891613c3991600401615c6b565b600060405180830381600087803b158015613c5357600080fd5b505af1158015613c67573d6000803e3d6000fd5b505050508060a0015115613caa576040516001600160a01b038316907f4c3f1eed13ac6b6e115341feddd01b83784de7f9a83dfad12fadf1edd757f46a90600090a25b8060c0015115613ce9576040516001600160a01b038316907fe70d79dad95c835bdd87e9cf4665651c9e5abb3b756e4fd2bf45f29c95c3aa4090600090a25b80516040516001916001600160a01b03851691600080516020615dcc83398151915291613d1f9160049163ffffffff16906154aa565b60405180910390a35050565b60025460405163da3e339760e01b81526001600160a01b038781169263da3e339792613d61929091169086908690600401615309565b600060405180830381600087803b158015613d7b57600080fd5b505af1158015613d8f573d6000803e3d6000fd5b5050505060005b8451811015613e2057856001600160a01b031663da3e3397868381518110613dba57fe5b602002602001015185856040518463ffffffff1660e01b8152600401613de293929190615309565b600060405180830381600087803b158015613dfc57600080fd5b505af1158015613e10573d6000803e3d6000fd5b505060019092019150613d969050565b50612249858484846144cb565b60405163750f53af60e11b81526000906001600160a01b0385169063ea1ea75e90613e5e908890869060040161532d565b600060405180830381600087803b158015613e7857600080fd5b505af1158015613e8c573d6000803e3d6000fd5b50506001546040516323c4ca7960e01b81526000935083925073__$59902e9d6730bb3d0c2c9d68301f7cefef$__916323c4ca7991613edb918b916001600160a01b03909116906004016152ef565b60006040518083038186803b158015613ef357600080fd5b505af4158015613f07573d6000803e3d6000fd5b505050506040513d6000823e601f3d908101601f19168201604052613f2f9190810190615001565b509150915081613f515760405162461bcd60e51b815260040161012290615a1f565b6001600160a01b038716600090815260056020526040902054613f829082908790600160201b900461ffff16614330565b866001600160a01b031663dbbc5aca82896001600160a01b03166318160ddd6040518163ffffffff1660e01b815260040160206040518083038186803b158015613fcb57600080fd5b505afa158015613fdf573d6000803e3d6000fd5b505050506040513d601f19601f8201168201806040525081019061400391906151b3565b6040518363ffffffff1660e01b8152600401614020929190615cdb565b600060405180830381600087803b15801561403a57600080fd5b505af115801561404e573d6000803e3d6000fd5b50505050866001600160a01b03167f3c68b618895163690097ea6be7a9e23fd831b0ba9eb05d65df5a4c20164caee7868360405161408d929190615cdb565b60405180910390a29695505050505050565b303b1590565b826001600160a01b0316826001600160a01b031614156140d75760405162461bcd60e51b815260040161012290615bf2565b816001600160a01b031663494089496040518163ffffffff1660e01b815260040160206040518083038186803b15801561411057600080fd5b505afa158015614124573d6000803e3d6000fd5b505050506040513d601f19601f820116820180604052508101906141489190614fe5565b156141655760405162461bcd60e51b8152600401610122906154d5565b6060826001600160a01b031663c06fad066040518163ffffffff1660e01b815260040160006040518083038186803b1580156141a057600080fd5b505afa1580156141b4573d6000803e3d6000fd5b505050506040513d6000823e601f3d908101601f191682016040526141dc9190810190614e0e565b905060005b8151811015612249576002836001600160a01b03166346a7483784848151811061420757fe5b60200260200101516040518263ffffffff1660e01b815260040161422b91906152c2565b60206040518083038186803b15801561424357600080fd5b505afa158015614257573d6000803e3d6000fd5b505050506040513d601f19601f8201168201806040525081019061427b91906151b3565b141561429f5761429f8583838151811061429157fe5b6020026020010151856140a5565b6001016141e1565b60008282018183128015906142bc5750838112155b806142d157506000831280156142d157508381125b6123b55760405162461bcd60e51b8152600401610122906156b7565b6142f68261435f565b801515846001600160a01b0316600080516020615dcc83398151915285856040516143229291906154aa565b60405180910390a350505050565b6143406103e8612c9d8484614381565b8310156118fe5760405162461bcd60e51b815260040161012290615a7c565b6103e88111156121f75760405162461bcd60e51b8152600401610122906159a3565b60008261439057506000611d43565b8282028284828161439d57fe5b04146123b55760405162461bcd60e51b8152600401610122906158a7565b60006123b583836040518060400160405280601a815260200179536166654d6174683a206469766973696f6e206279207a65726f60301b8152506146f2565b60006123b583836040518060400160405280601e81526020017f536166654d6174683a207375627472616374696f6e206f766572666c6f770000815250614729565b6060614491826040518060400160405280602081526020017f5361666545524332303a206c6f772d6c6576656c2063616c6c206661696c6564815250856001600160a01b03166147559092919063ffffffff16565b8051909150156118fe57808060200190518101906144af9190614fe5565b6118fe5760405162461bcd60e51b815260040161012290615acf565b836001600160a01b031663494089496040518163ffffffff1660e01b815260040160206040518083038186803b15801561450457600080fd5b505afa158015614518573d6000803e3d6000fd5b505050506040513d601f19601f8201168201806040525081019061453c9190614fe5565b156145a25760405163bfba814160e01b81526001600160a01b0385169063bfba81419061456f90859085906004016152d6565b600060405180830381600087803b15801561458957600080fd5b505af115801561459d573d6000803e3d6000fd5b505050505b60005b835181101561224957846001600160a01b031663d95a24b38583815181106145c957fe5b602002602001015185856040518463ffffffff1660e01b81526004016145f193929190615309565b600060405180830381600087803b15801561460b57600080fd5b505af115801561461f573d6000803e3d6000fd5b5050600190920191506145a59050565b8015806146b75750604051636eb1769f60e11b81526001600160a01b0384169063dd62ed3e9061466590309086906004016152ef565b60206040518083038186803b15801561467d57600080fd5b505afa158015614691573d6000803e3d6000fd5b505050506040513d601f19601f820116820180604052508101906146b591906151b3565b155b6146d35760405162461bcd60e51b815260040161012290615b73565b6118fe8363095ea7b360e01b848460405160240161329f9291906152d6565b600081836147135760405162461bcd60e51b815260040161012291906154c2565b50600083858161471f57fe5b0495945050505050565b6000818484111561474d5760405162461bcd60e51b815260040161012291906154c2565b505050900390565b6060614764848460008561476c565b949350505050565b60608247101561478e5760405162461bcd60e51b815260040161012290615723565b6147978561482d565b6147b35760405162461bcd60e51b815260040161012290615a45565b60006060866001600160a01b031685876040516147d091906152a3565b60006040518083038185875af1925050503d806000811461480d576040519150601f19603f3d011682016040523d82523d6000602084013e614812565b606091505b5091509150614822828286614833565b979650505050505050565b3b151590565b606083156148425750816123b5565b8251156148525782518084602001fd5b8160405162461bcd60e51b815260040161012291906154c2565b50805460018160011615610100020316600290046000825580601f1061489257506121f7565b601f0160209004906000526020600020908101906121f79190614958565b828054600181600116156101000203166002900490600052602060002090601f016020900481019282601f106148f157805160ff191683800117855561491e565b8280016001018555821561491e579182015b8281111561491e578251825591602001919060010190614903565b50611701929150614958565b6040805160a08101825260008082526020820181905291810182905260608101829052608081019190915290565b5b808211156117015760008155600101614959565b8035611d4381615da8565b600082601f830112614988578081fd5b813561499b61499682615d2e565b615d08565b8181529150602080830190848101818402860182018710156149bc57600080fd5b60005b848110156149e45781356149d281615da8565b845292820192908201906001016149bf565b505050505092915050565b600082601f8301126149ff578081fd5b8151614a0d61499682615d2e565b818152915060208083019084810181840286018201871015614a2e57600080fd5b60005b848110156149e4578151614a4481615da8565b84529282019290820190600101614a31565b600082601f830112614a66578081fd5b8151614a7461499682615d2e565b818152915060208083019084810181840286018201871015614a9557600080fd5b60005b848110156149e457815184529282019290820190600101614a98565b600082601f830112614ac4578081fd5b8135614ad261499682615d2e565b818152915060208083019084810160005b848110156149e45781358701606080601f19838c03011215614b0457600080fd5b614b0d81615d08565b614b198b87850161496d565b81526040838101358783015291830135916001600160401b03831115614b3e57600080fd5b614b4c8c8885870101614bbd565b90820152865250509282019290820190600101614ae3565b8035611d4381615dbd565b600082601f830112614b7f578081fd5b8135614b8d61499682615d4d565b9150808252836020828501011115614ba457600080fd5b8060208401602084013760009082016020015292915050565b600060608284031215614bce578081fd5b614bd86060615d08565b905081356001600160401b0380821115614bf157600080fd5b614bfd85838601614978565b83526020840135915080821115614c1357600080fd5b614c1f85838601614978565b60208401526040840135915080821115614c3857600080fd5b50614c4584828501614b6f565b60408301525092915050565b803561ffff81168114611d4357600080fd5b803563ffffffff81168114611d4357600080fd5b600060208284031215614c88578081fd5b81356123b581615da8565b600060208284031215614ca4578081fd5b81516123b581615da8565b6000806000806000858703610160811215614cc8578182fd5b8635614cd381615da8565b95506020870135614ce381615da8565b945060e0603f1982011215614cf6578182fd5b50614d0160e0615d08565b614d0e8860408901614c63565b8152614d1d8860608901614c51565b6020820152614d2f8860808901614c51565b6040820152614d418860a08901614c51565b6060820152614d538860c08901614c51565b6080820152614d658860e08901614b64565b60a0820152614d78886101008901614b64565b60c08201529250614d8d87610120880161496d565b91506101408601356001600160401b03811115614da8578182fd5b614db488828901614b6f565b9150509295509295909350565b60008060408385031215614dd3578182fd5b8235614dde81615da8565b915060208301356001600160401b03811115614df8578182fd5b614e0485828601614ab4565b9150509250929050565b600060208284031215614e1f578081fd5b81516001600160401b03811115614e34578182fd5b614764848285016149ef565b600060208284031215614e51578081fd5b81516001600160401b0380821115614e67578283fd5b818401915084601f830112614e7a578283fd5b8151614e8861499682615d2e565b818152602080820191908501865b84811015614fd75781518701601f196060828d0382011215614eb657898afd5b614ec06060615d08565b6020830151614ece81615da8565b815260408301516020820152606083015189811115614eeb578b8cfd5b92909201916060838e0383011215614f01578a8bfd5b614f0b6060615d08565b9150602083015189811115614f1e578b8cfd5b614f2d8e6020838701016149ef565b835250604083015189811115614f41578b8cfd5b614f508e6020838701016149ef565b602084015250606083015189811115614f67578b8cfd5b8084019350508c603f840112614f7b578a8bfd5b6020830151614f8c61499682615d4d565b8181528e6040838701011115614fa0578c8dfd5b614fb1826020830160408801615d7c565b604084810191909152820192909252865250506020938401939190910190600101614e96565b509098975050505050505050565b600060208284031215614ff6578081fd5b81516123b581615dbd565b600080600060608486031215615015578081fd5b835161502081615dbd565b6020850151604086015191945092506001600160401b03811115615042578182fd5b61504e86828701614a56565b9150509250925092565b60008060006060848603121561506c578081fd5b833561507781615da8565b9250602084013561508781615da8565b9150604084013561509781615da8565b809150509250925092565b6000806000606084860312156150b6578081fd5b83356150c181615da8565b925060208401356150d181615da8565b915060408401356001600160401b038111156150eb578182fd5b61504e86828701614b6f565b600080600080600060a0868803121561510e578283fd5b853561511981615da8565b9450602086013561512981615da8565b9350604086013592506060860135915060808601356001600160401b03811115614da8578182fd5b600080600060608486031215615165578081fd5b833561517081615da8565b9250602084013560068110615183578182fd5b929592945050506040919091013590565b6000602082840312156151a5578081fd5b8151600481106123b5578182fd5b6000602082840312156151c4578081fd5b5051919050565b600080604083850312156151dd578182fd5b8251915060208301516001600160401b038111156151f9578182fd5b614e0485828601614a56565b6000815180845260208085019450808401835b8381101561523d5781516001600160a01b031687529582019590820190600101615218565b509495945050505050565b6000815180845260208085019450808401835b8381101561523d5781518752958201959082019060010161525b565b6000815180845261528f816020860160208601615d7c565b601f01601f19169290920160200192915050565b600082516152b5818460208701615d7c565b9190910192915050565b90565b6001600160a01b0391909116815260200190565b6001600160a01b03929092168252602082015260400190565b6001600160a01b0392831681529116602082015260400190565b6001600160a01b039384168152919092166020820152604081019190915260600190565b6001600160a01b038316815260406020820181905260009061476490830184615277565b6001600160a01b03948516815260208101939093529083166040830152909116606082015260800190565b600060018060a01b0385168252836020830152606060408301526153a36060830184615248565b95945050505050565b600060018060a01b0386168252846020830152836040830152608060608301526153d96080830184615248565b9695505050505050565b60208082528251828201819052600091906040908185019080840286018301878501865b83811015614fd757603f19898403018552815160606154268251615d70565b8552888201518986015287820151915080888601528151818287015261544f60c0870182615205565b91505088820151605f198087840301608088015261546d8383615205565b9250898401519350808784030160a0880152505061548b8183615277565b968901969450505090860190600101615407565b901515815260200190565b60408101600684106154b857fe5b9281526020015290565b6000602082526123b56020830184615277565b60208082526014908201527314de5b9d1a1cc81b9bdd081cdd5c1c1bdc9d195960621b604082015260600190565b60208082526014908201527314dd1c985d1959de48185b1c9958591e481cd95d60621b604082015260600190565b6020808252600b908201526a2737ba1036b0b730b3b2b960a91b604082015260600190565b6020808252600d908201526c4974656d206f72646572696e6760981b604082015260600190565b6020808252601a908201527943616e6e6f742073657420656d7074792073747275637475726560301b604082015260600190565b60208082526008908201526710985b185b98d95960c21b604082015260600190565b60208082526015908201527429ba3930ba32b3bc9030b63932b0b23c9037b832b760591b604082015260600190565b6020808252601b908201527a536166654d6174683a206164646974696f6e206f766572666c6f7760281b604082015260600190565b6020808252600a90820152694c6f73742076616c756560b01b604082015260600190565b6020808252601190820152702ab739bab83837b93a32b2103a37b5b2b760791b604082015260600190565b602080825260179082015276446562742063616e6e6f7420626520706f73697469766560481b604082015260600190565b60208082526021908201527f5369676e6564536166654d6174683a206164646974696f6e206f766572666c6f6040820152607760f81b606082015260800190565b60208082526011908201527024b73b30b634b21034ba32b69030b2323960791b604082015260600190565b60208082526026908201527f416464726573733a20696e73756666696369656e742062616c616e636520666f6040820152651c8818d85b1b60d21b606082015260800190565b602080825260189082015277546f6b656e2063616e6e6f74206265206e6567617469766560401b604082015260600190565b602080825260169082015275546f74616c2070657263656e746167652077726f6e6760501b604082015260600190565b6020808252600c908201526b139bdd08185c1c1c9bdd995960a21b604082015260600190565b6020808252602e908201527f496e697469616c697a61626c653a20636f6e747261637420697320616c72656160408201526d191e481a5b9a5d1a585b1a5e995960921b606082015260800190565b60208082526021908201527f5369676e6564536166654d6174683a206469766973696f6e206f766572666c6f6040820152607760f81b606082015260800190565b6020808252600d908201526c151bdad95b88189b1bd8dad959609a1b604082015260600190565b60208082526021908201527f536166654d6174683a206d756c7469706c69636174696f6e206f766572666c6f6040820152607760f81b606082015260800190565b60208082526027908201527f5369676e6564536166654d6174683a206d756c7469706c69636174696f6e206f604082015266766572666c6f7760c81b606082015260800190565b6020808252600890820152670c08185b5bdd5b9d60c21b604082015260600190565b60208082526008908201526709cdee840ae8aa8960c31b604082015260600190565b60208082526016908201527553747261746567792063616e6e6f74206368616e676560501b604082015260600190565b6020808252600d908201526c4f7574206f6620626f756e647360981b604082015260600190565b60208082526010908201526f105b589a59dd5bdd5cc8185b5bdd5b9d60821b604082015260600190565b602080825260119082015270496e76616c69642073747275637475726560781b604082015260600190565b6020808252600c908201526b139bdd0818985b185b98d95960a21b604082015260600190565b6020808252601d908201527f416464726573733a2063616c6c20746f206e6f6e2d636f6e7472616374000000604082015260600190565b602080825260119082015270546f6f206d75636820736c69707061676560781b604082015260600190565b6020808252600e908201526d57726f6e672063617465676f727960901b604082015260600190565b6020808252602a908201527f5361666545524332303a204552433230206f7065726174696f6e20646964206e6040820152691bdd081cdd58d8d9595960b21b606082015260800190565b6020808252818101527f5369676e6564536166654d6174683a206469766973696f6e206279207a65726f604082015260600190565b6020808252600b908201526a4e6f7420666163746f727960a81b604082015260600190565b60208082526036908201527f5361666545524332303a20617070726f76652066726f6d206e6f6e2d7a65726f60408201527520746f206e6f6e2d7a65726f20616c6c6f77616e636560501b606082015260800190565b6020808252600f908201526e54696d656c6f636b2061637469766560881b604082015260600190565b6020808252601190820152704379636c696320646570656e64656e637960781b604082015260600190565b600060a08201905063ffffffff8351168252602083015161ffff8082166020850152806040860151166040850152505060608301511515606083015260808301511515608083015292915050565b61ffff91909116815260200190565b90815260200190565b6000838252604060208301526147646040830184615248565b600085825260806020830152615cb56080830186615248565b8281036040840152615cc78186615205565b905082810360608401526148228185615205565b918252602082015260400190565b6000848252836020830152606060408301526153a36060830184615248565b6040518181016001600160401b0381118282101715615d2657600080fd5b604052919050565b60006001600160401b03821115615d43578081fd5b5060209081020190565b60006001600160401b03821115615d62578081fd5b50601f01601f191660200190565b6001600160a01b031690565b60005b83811015615d97578181015183820152602001615d7f565b83811115610b065750506000910152565b6001600160a01b03811681146121f757600080fd5b80151581146121f757600080fdfee561303783ad8b123bd33a60f112811cc154edb919a15aa8040c6200c7709d5ba26469706673582212202b0bed3d9f24543fc3af375d2ba24185f39a932d7e57bfc2d04afc95392e67b464736f6c634300060c0033",
  "linkReferences": {
    "contracts/libraries/StrategyLibrary.sol": {
      "StrategyLibrary": [
        {
          "length": 20,
          "start": 4852
        },
        {
          "length": 20,
          "start": 5293
        },
        {
          "length": 20,
          "start": 10348
        },
        {
          "length": 20,
          "start": 11416
        },
        {
          "length": 20,
          "start": 13013
        },
        {
          "length": 20,
          "start": 14801
        },
        {
          "length": 20,
          "start": 16435
        }
      ]
    }
  },
  "deployedLinkReferences": {
    "contracts/libraries/StrategyLibrary.sol": {
      "StrategyLibrary": [
        {
          "length": 20,
          "start": 4456
        },
        {
          "length": 20,
          "start": 4897
        },
        {
          "length": 20,
          "start": 9952
        },
        {
          "length": 20,
          "start": 11020
        },
        {
          "length": 20,
          "start": 12617
        },
        {
          "length": 20,
          "start": 14405
        },
        {
          "length": 20,
          "start": 16039
        }
      ]
    }
  }
}