{
    "_format": "hh-sol-artifact-1",
    "contractName": "BatchDepositRouter",
    "sourceName": "contracts/routers/BatchDepositRouter.sol",
    "abi": [
        {
            "inputs": [
                {
                    "internalType": "address",
                    "name": "controller_",
                    "type": "address"
                }
            ],
            "stateMutability": "nonpayable",
            "type": "constructor"
        },
        {
            "inputs": [],
            "name": "category",
            "outputs": [
                {
                    "internalType": "enum IStrategyRouter.RouterCategory",
                    "name": "",
                    "type": "uint8"
                }
            ],
            "stateMutability": "view",
            "type": "function"
        },
        {
            "inputs": [],
            "name": "controller",
            "outputs": [
                {
                    "internalType": "contract IStrategyController",
                    "name": "",
                    "type": "address"
                }
            ],
            "stateMutability": "view",
            "type": "function"
        },
        {
            "inputs": [
                {
                    "internalType": "address",
                    "name": "strategy",
                    "type": "address"
                },
                {
                    "internalType": "bytes",
                    "name": "data",
                    "type": "bytes"
                }
            ],
            "name": "deposit",
            "outputs": [],
            "stateMutability": "nonpayable",
            "type": "function"
        },
        {
            "inputs": [
                {
                    "internalType": "address",
                    "name": "strategy",
                    "type": "address"
                },
                {
                    "internalType": "bytes",
                    "name": "data",
                    "type": "bytes"
                }
            ],
            "name": "rebalance",
            "outputs": [],
            "stateMutability": "nonpayable",
            "type": "function"
        },
        {
            "inputs": [
                {
                    "internalType": "address",
                    "name": "strategy",
                    "type": "address"
                },
                {
                    "internalType": "bytes",
                    "name": "data",
                    "type": "bytes"
                }
            ],
            "name": "restructure",
            "outputs": [],
            "stateMutability": "nonpayable",
            "type": "function"
        },
        {
            "inputs": [],
            "name": "weth",
            "outputs": [
                {
                    "internalType": "address",
                    "name": "",
                    "type": "address"
                }
            ],
            "stateMutability": "view",
            "type": "function"
        },
        {
            "inputs": [
                {
                    "internalType": "address",
                    "name": "strategy",
                    "type": "address"
                },
                {
                    "internalType": "bytes",
                    "name": "data",
                    "type": "bytes"
                }
            ],
            "name": "withdraw",
            "outputs": [],
            "stateMutability": "nonpayable",
            "type": "function"
        }
    ],
    "bytecode": "0x608060405234801561001057600080fd5b50604051610ea6380380610ea683398101604081905261002f91610171565b60008054600360ff199091168117610100600160a81b0319166101006001600160a01b0385811682029290921793849055604080516307dc0d1d60e41b815290519394869492900490921691637dc0d1d0916004808301926020929190829003018186803b1580156100a057600080fd5b505afa1580156100b4573d6000803e3d6000fd5b505050506040513d601f19601f820116820180604052508101906100d89190610171565b6001600160a01b0316633fc8cef36040518163ffffffff1660e01b815260040160206040518083038186803b15801561011057600080fd5b505afa158015610124573d6000803e3d6000fd5b505050506040513d601f19601f820116820180604052508101906101489190610171565b600180546001600160a01b0319166001600160a01b0392909216919091179055506101ac915050565b600060208284031215610182578081fd5b815161018d81610194565b9392505050565b6001600160a01b03811681146101a957600080fd5b50565b610ceb806101bb6000396000f3fe608060405234801561001057600080fd5b506004361061006d5760003560e01c80633fc8cef3146100725780634bb78b1414610090578063ba11d5d0146100a5578063cf2c52cb146100b8578063ea1ea75e146100cb578063ef430aa6146100de578063f77c4791146100f3575b600080fd5b61007a6100fb565b6040516100879190610a29565b60405180910390f35b6100a361009e366004610874565b61010a565b005b6100a36100b3366004610874565b61015a565b6100a36100c6366004610874565b6101a1565b6100a36100d9366004610874565b6103c9565b6100e6610410565b6040516100879190610a61565b61007a610419565b6001546001600160a01b031681565b60005461010090046001600160a01b031633146101425760405162461bcd60e51b815260040161013990610ad9565b60405180910390fd5b60405162461bcd60e51b815260040161013990610b02565b60005461010090046001600160a01b031633146101895760405162461bcd60e51b815260040161013990610ad9565b60405162461bcd60e51b815260040161013990610b78565b60005461010090046001600160a01b031633146101d05760405162461bcd60e51b815260040161013990610ad9565b6000806101df83850185610849565b915091506060856001600160a01b031663c06fad066040518163ffffffff1660e01b815260040160006040518083038186803b15801561021e57600080fd5b505afa158015610232573d6000803e3d6000fd5b505050506040513d6000823e601f3d908101601f1916820160405261025a91908101906108f3565b905060005b81518110156103c057600082828151811061027657fe5b60200260200101519050600073__$59902e9d6730bb3d0c2c9d68301f7cefef$__635ab804ba868b856040518463ffffffff1660e01b81526004016102bd93929190610c2c565b60206040518083038186803b1580156102d557600080fd5b505af41580156102e9573d6000803e3d6000fd5b505050506040513d601f19601f8201168201806040525081019061030d9190610945565b905080156103b6576103b6868a6103a48c6001600160a01b031663336685fc876040518263ffffffff1660e01b81526004016103499190610a29565b60006040518083038186803b15801561036157600080fd5b505afa158015610375573d6000803e3d6000fd5b505050506040513d6000823e601f3d908101601f1916820160405261039d919081019061095d565b858761042d565b6001600160a01b038616929190610551565b505060010161025f565b50505050505050565b60005461010090046001600160a01b031633146103f85760405162461bcd60e51b815260040161013990610ad9565b60405162461bcd60e51b815260040161013990610aa8565b60005460ff1681565b60005461010090046001600160a01b031681565b6000805b8451518110156105455760008082610456576001546001600160a01b03169150610474565b8660200151600184038151811061046957fe5b602002602001015191505b865151600019018314156104895750836104a4565b8660200151838151811061049957fe5b602002602001015190505b86518051849081106104b257fe5b60200260200101516001600160a01b03166377ec159d8784846040518463ffffffff1660e01b81526004016104e993929190610c2c565b60206040518083038186803b15801561050157600080fd5b505afa158015610515573d6000803e3d6000fd5b505050506040513d601f19601f820116820180604052508101906105399190610945565b95505050600101610431565b508290505b9392505050565b6105a9846323b872dd60e01b85858560405160240161057293929190610a3d565b60408051601f198184030181529190526020810180516001600160e01b03166001600160e01b0319909316929092179091526105af565b50505050565b6060610604826040518060400160405280602081526020017f5361666545524332303a206c6f772d6c6576656c2063616c6c206661696c6564815250856001600160a01b03166106439092919063ffffffff16565b80519091501561063e57808060200190518101906106229190610925565b61063e5760405162461bcd60e51b815260040161013990610be2565b505050565b6060610652848460008561065a565b949350505050565b60608247101561067c5760405162461bcd60e51b815260040161013990610b32565b6106858561071b565b6106a15760405162461bcd60e51b815260040161013990610bab565b60006060866001600160a01b031685876040516106be9190610a0d565b60006040518083038185875af1925050503d80600081146106fb576040519150601f19603f3d011682016040523d82523d6000602084013e610700565b606091505b5091509150610710828286610721565b979650505050505050565b3b151590565b6060831561073057508161054a565b8251156107405782518084602001fd5b8160405162461bcd60e51b81526004016101399190610a75565b600082601f83011261076a578081fd5b81516001600160401b0381111561077f578182fd5b602080820261078f828201610c4b565b838152935081840185830182870184018810156107ab57600080fd5b600092505b848310156107d75780516107c381610c9d565b8252600192909201919083019083016107b0565b505050505092915050565b600082601f8301126107f2578081fd5b81516001600160401b03811115610807578182fd5b61081a601f8201601f1916602001610c4b565b915080825283602082850101111561083157600080fd5b610842816020840160208601610c71565b5092915050565b6000806040838503121561085b578182fd5b823561086681610c9d565b946020939093013593505050565b600080600060408486031215610888578081fd5b833561089381610c9d565b925060208401356001600160401b03808211156108ae578283fd5b818601915086601f8301126108c1578283fd5b8135818111156108cf578384fd5b8760208285010111156108e0578384fd5b6020830194508093505050509250925092565b600060208284031215610904578081fd5b81516001600160401b03811115610919578182fd5b6106528482850161075a565b600060208284031215610936578081fd5b8151801515811461054a578182fd5b600060208284031215610956578081fd5b5051919050565b60006020828403121561096e578081fd5b81516001600160401b0380821115610984578283fd5b9083019060608286031215610997578283fd5b6109a16060610c4b565b8251828111156109af578485fd5b6109bb8782860161075a565b8252506020830151828111156109cf578485fd5b6109db8782860161075a565b6020830152506040830151828111156109f2578485fd5b6109fe878286016107e2565b60408301525095945050505050565b60008251610a1f818460208701610c71565b9190910192915050565b6001600160a01b0391909116815260200190565b6001600160a01b039384168152919092166020820152604081019190915260600190565b6020810160048310610a6f57fe5b91905290565b6000602082528251806020840152610a94816040850160208701610c71565b601f01601f19169190910160400192915050565b602080825260179082015276149958985b185b98d9481b9bdd081cdd5c1c1bdc9d1959604a1b604082015260600190565b6020808252600f908201526e27b7363c9031b7b73a3937b63632b960891b604082015260600190565b60208082526016908201527515da5d1a191c985dc81b9bdd081cdd5c1c1bdc9d195960521b604082015260600190565b60208082526026908201527f416464726573733a20696e73756666696369656e742062616c616e636520666f6040820152651c8818d85b1b60d21b606082015260800190565b60208082526019908201527814995cdd1c9d58dd1d5c99481b9bdd081cdd5c1c1bdc9d1959603a1b604082015260600190565b6020808252601d908201527f416464726573733a2063616c6c20746f206e6f6e2d636f6e7472616374000000604082015260600190565b6020808252602a908201527f5361666545524332303a204552433230206f7065726174696f6e20646964206e6040820152691bdd081cdd58d8d9595960b21b606082015260800190565b9283526001600160a01b03918216602084015216604082015260600190565b6040518181016001600160401b0381118282101715610c6957600080fd5b604052919050565b60005b83811015610c8c578181015183820152602001610c74565b838111156105a95750506000910152565b6001600160a01b0381168114610cb257600080fd5b5056fea264697066735822122095c1d92e169bc218232731c83388bbdad802976979b234faf6b811fb06b4de4164736f6c634300060c0033",
    "linkReferences": {
        "contracts/libraries/StrategyLibrary.sol": {
            "StrategyLibrary": [
                {
                    "length": 20,
                    "start": 1087
                }
            ]
        }
    },
    "deployedLinkReferences": {
        "contracts/libraries/StrategyLibrary.sol": {
            "StrategyLibrary": [
                {
                    "length": 20,
                    "start": 644
                }
            ]
        }
    }
}