{
  "_format": "hh-sol-artifact-1",
  "contractName": "ChainlinkRegistry",
  "sourceName": "contracts/oracles/registries/ChainlinkRegistry.sol",
  "abi": [
    {
      "anonymous": false,
      "inputs": [
        {
          "indexed": true,
          "internalType": "address",
          "name": "previousOwner",
          "type": "address"
        },
        {
          "indexed": true,
          "internalType": "address",
          "name": "newOwner",
          "type": "address"
        }
      ],
      "name": "OwnershipTransferred",
      "type": "event"
    },
    {
      "inputs": [
        {
          "internalType": "address",
          "name": "token",
          "type": "address"
        },
        {
          "internalType": "address",
          "name": "pair",
          "type": "address"
        },
        {
          "internalType": "address",
          "name": "oracle",
          "type": "address"
        },
        {
          "internalType": "bool",
          "name": "inverse",
          "type": "bool"
        }
      ],
      "name": "addOracle",
      "outputs": [],
      "stateMutability": "nonpayable",
      "type": "function"
    },
    {
      "inputs": [
        {
          "internalType": "address[]",
          "name": "tokens",
          "type": "address[]"
        },
        {
          "internalType": "address[]",
          "name": "pairs",
          "type": "address[]"
        },
        {
          "internalType": "address[]",
          "name": "oracles",
          "type": "address[]"
        },
        {
          "internalType": "bool[]",
          "name": "inverse",
          "type": "bool[]"
        }
      ],
      "name": "batchAddOracles",
      "outputs": [],
      "stateMutability": "nonpayable",
      "type": "function"
    },
    {
      "inputs": [
        {
          "internalType": "address",
          "name": "token",
          "type": "address"
        }
      ],
      "name": "getOracle",
      "outputs": [
        {
          "components": [
            {
              "internalType": "address",
              "name": "oracle",
              "type": "address"
            },
            {
              "internalType": "address",
              "name": "pair",
              "type": "address"
            },
            {
              "internalType": "bool",
              "name": "inverse",
              "type": "bool"
            }
          ],
          "internalType": "struct IChainlinkRegistry.ChainlinkOracleData",
          "name": "",
          "type": "tuple"
        }
      ],
      "stateMutability": "view",
      "type": "function"
    },
    {
      "inputs": [],
      "name": "owner",
      "outputs": [
        {
          "internalType": "address",
          "name": "",
          "type": "address"
        }
      ],
      "stateMutability": "view",
      "type": "function"
    },
    {
      "inputs": [
        {
          "internalType": "address",
          "name": "token",
          "type": "address"
        }
      ],
      "name": "removeOracle",
      "outputs": [],
      "stateMutability": "nonpayable",
      "type": "function"
    },
    {
      "inputs": [],
      "name": "renounceOwnership",
      "outputs": [],
      "stateMutability": "nonpayable",
      "type": "function"
    },
    {
      "inputs": [
        {
          "internalType": "address",
          "name": "newOwner",
          "type": "address"
        }
      ],
      "name": "transferOwnership",
      "outputs": [],
      "stateMutability": "nonpayable",
      "type": "function"
    }
  ],
  "bytecode": "0x608060405234801561001057600080fd5b50600061001b61006a565b600080546001600160a01b0319166001600160a01b0383169081178255604051929350917f8be0079c531659141344cd1fd0a4f28419497f9722a3daafe3b4186f6b6457e0908290a35061006e565b3390565b6108bf8061007d6000396000f3fe608060405234801561001057600080fd5b506004361061006d5760003560e01c806310d3d22e14610072578063715018a61461009b5780638544f8e1146100a55780638da5cb5b146100b8578063dbe39515146100cd578063f2fde38b146100e0578063fdc85fc4146100f3575b600080fd5b6100856100803660046105db565b610106565b6040516100929190610813565b60405180910390f35b6100a3610158565b005b6100a36100b33660046105fd565b6101e0565b6100c0610270565b604051610092919061075c565b6100a36100db366004610659565b61027f565b6100a36100ee3660046105db565b6103f0565b6100a36101013660046105db565b6104a6565b61010e610518565b506001600160a01b03908116600090815260016020818152604092839020835160608101855281548616815292015493841690820152600160a01b90920460ff1615159082015290565b610160610514565b6000546001600160a01b039081169116146101965760405162461bcd60e51b815260040161018d906107de565b60405180910390fd5b600080546040516001600160a01b03909116907f8be0079c531659141344cd1fd0a4f28419497f9722a3daafe3b4186f6b6457e0908390a3600080546001600160a01b0319169055565b6101e8610514565b6000546001600160a01b039081169116146102155760405162461bcd60e51b815260040161018d906107de565b6001600160a01b039384166000908152600160208190526040909120908101805482549487166001600160a01b031995861617909255911515600160a01b0260ff60a01b199490951692169190911791909116919091179055565b6000546001600160a01b031690565b610287610514565b6000546001600160a01b039081169116146102b45760405162461bcd60e51b815260040161018d906107de565b82518451146102d55760405162461bcd60e51b815260040161018d906107b6565b81518451146102f65760405162461bcd60e51b815260040161018d906107b6565b60005b84518110156103e95760006001600087848151811061031457fe5b60200260200101516001600160a01b03166001600160a01b03168152602001908152602001600020905084828151811061034a57fe5b60200260200101518160010160006101000a8154816001600160a01b0302191690836001600160a01b0316021790555083828151811061038657fe5b602090810291909101015181546001600160a01b0319166001600160a01b0390911617815582518390839081106103b957fe5b602090810291909101015160019182018054911515600160a01b0260ff60a01b19909216919091179055016102f9565b5050505050565b6103f8610514565b6000546001600160a01b039081169116146104255760405162461bcd60e51b815260040161018d906107de565b6001600160a01b03811661044b5760405162461bcd60e51b815260040161018d90610770565b600080546040516001600160a01b03808516939216917f8be0079c531659141344cd1fd0a4f28419497f9722a3daafe3b4186f6b6457e091a3600080546001600160a01b0319166001600160a01b0392909216919091179055565b6104ae610514565b6000546001600160a01b039081169116146104db5760405162461bcd60e51b815260040161018d906107de565b6001600160a01b0316600090815260016020819052604090912080546001600160a01b03191681550180546001600160a81b0319169055565b3390565b604080516060810182526000808252602082018190529181019190915290565b80356001600160a01b038116811461054f57600080fd5b92915050565b600082601f830112610565578081fd5b81356105786105738261086a565b610844565b81815291506020808301908481018184028601820187101561059957600080fd5b60005b848110156105c0576105ae8883610538565b8452928201929082019060010161059c565b505050505092915050565b8035801515811461054f57600080fd5b6000602082840312156105ec578081fd5b6105f68383610538565b9392505050565b60008060008060808587031215610612578283fd5b61061c8686610538565b935061062b8660208701610538565b925061063a8660408701610538565b91506060850135801515811461064e578182fd5b939692955090935050565b6000806000806080858703121561066e578384fd5b84356001600160401b0380821115610684578586fd5b61069088838901610555565b95506020915081870135818111156106a6578586fd5b6106b289828a01610555565b9550506040870135818111156106c6578485fd5b6106d289828a01610555565b9450506060870135818111156106e6578384fd5b87019050601f810188136106f8578283fd5b80356107066105738261086a565b81815283810190838501858402850186018c1015610722578687fd5b8694505b8385101561074c576107388c826105cb565b835260019490940193918501918501610726565b50979a9699509497505050505050565b6001600160a01b0391909116815260200190565b60208082526026908201527f4f776e61626c653a206e6577206f776e657220697320746865207a65726f206160408201526564647265737360d01b606082015260800190565b6020808252600e908201526d082e4e4c2f240dad2e6dac2e8c6d60931b604082015260600190565b6020808252818101527f4f776e61626c653a2063616c6c6572206973206e6f7420746865206f776e6572604082015260600190565b81516001600160a01b0390811682526020808401519091169082015260409182015115159181019190915260600190565b6040518181016001600160401b038111828210171561086257600080fd5b604052919050565b60006001600160401b0382111561087f578081fd5b506020908102019056fea2646970667358221220f2c7105b02f3fc1242a7dadedcea291854f1a4902eb7cbf00c15eba195cf6e5364736f6c634300060c0033",
  "linkReferences": {},
  "deployedLinkReferences": {}
}