{
  "_format": "hh-sol-artifact-1",
  "contractName": "AaveV2Adapter",
  "sourceName": "contracts/adapters/lending/AaveV2Adapter.sol",
  "abi": [
    {
      "inputs": [
        {
          "internalType": "address",
          "name": "addressesProvider_",
          "type": "address"
        },
        {
          "internalType": "address",
          "name": "strategyController_",
          "type": "address"
        },
        {
          "internalType": "address",
          "name": "incentivesController_",
          "type": "address"
        },
        {
          "internalType": "address",
          "name": "weth_",
          "type": "address"
        },
        {
          "internalType": "address",
          "name": "tokenRegistry_",
          "type": "address"
        },
        {
          "internalType": "uint256",
          "name": "categoryIndex_",
          "type": "uint256"
        }
      ],
      "stateMutability": "nonpayable",
      "type": "constructor"
    },
    {
      "inputs": [],
      "name": "addressesProvider",
      "outputs": [
        {
          "internalType": "contract ILendingPoolAddressesProvider",
          "name": "",
          "type": "address"
        }
      ],
      "stateMutability": "view",
      "type": "function"
    },
    {
      "inputs": [],
      "name": "categoryIndex",
      "outputs": [
        {
          "internalType": "uint256",
          "name": "",
          "type": "uint256"
        }
      ],
      "stateMutability": "view",
      "type": "function"
    },
    {
      "inputs": [
        {
          "internalType": "address[]",
          "name": "tokens",
          "type": "address[]"
        }
      ],
      "name": "claim",
      "outputs": [],
      "stateMutability": "nonpayable",
      "type": "function"
    },
    {
      "inputs": [
        {
          "internalType": "address",
          "name": "token",
          "type": "address"
        }
      ],
      "name": "rewardsTokens",
      "outputs": [
        {
          "internalType": "address[]",
          "name": "",
          "type": "address[]"
        }
      ],
      "stateMutability": "view",
      "type": "function"
    },
    {
      "inputs": [],
      "name": "strategyController",
      "outputs": [
        {
          "internalType": "contract IStrategyController",
          "name": "",
          "type": "address"
        }
      ],
      "stateMutability": "view",
      "type": "function"
    },
    {
      "inputs": [
        {
          "internalType": "uint256",
          "name": "amount",
          "type": "uint256"
        },
        {
          "internalType": "uint256",
          "name": "expected",
          "type": "uint256"
        },
        {
          "internalType": "address",
          "name": "tokenIn",
          "type": "address"
        },
        {
          "internalType": "address",
          "name": "tokenOut",
          "type": "address"
        },
        {
          "internalType": "address",
          "name": "from",
          "type": "address"
        },
        {
          "internalType": "address",
          "name": "to",
          "type": "address"
        }
      ],
      "name": "swap",
      "outputs": [],
      "stateMutability": "nonpayable",
      "type": "function"
    },
    {
      "inputs": [],
      "name": "tokenRegistry",
      "outputs": [
        {
          "internalType": "contract ITokenRegistry",
          "name": "",
          "type": "address"
        }
      ],
      "stateMutability": "view",
      "type": "function"
    },
    {
      "inputs": [],
      "name": "weth",
      "outputs": [
        {
          "internalType": "address",
          "name": "",
          "type": "address"
        }
      ],
      "stateMutability": "view",
      "type": "function"
    }
  ],
  "bytecode": "0x6101406040523480156200001257600080fd5b5060405162001722380380620017228339810160408190526200003591620000ae565b6001600160601b0319606084901b1660805282828280620000735760405162461bcd60e51b81526004016200006a9062000135565b60405180910390fd5b6001600160601b0319606092831b811660a05260c09190915297811b881660e05295861b87166101005250505050901b166101205262000178565b60008060008060008060c08789031215620000c7578182fd5b8651620000d4816200015f565b6020880151909650620000e7816200015f565b6040880151909550620000fa816200015f565b60608801519094506200010d816200015f565b608088015190935062000120816200015f565b8092505060a087015190509295509295509295565b60208082526010908201526f496e76616c69642063617465676f727960801b604082015260600190565b6001600160a01b03811681146200017557600080fd5b50565b60805160601c60a05160601c60c05160e05160601c6101005160601c6101205160601c61152e620001f4600039806109cf5280610a725280610b74525080610121528061053752508061037b52806107f85280610c31525080610c555280610d9d525080610b2b5280610d01525080610b07525061152e6000f3fe608060405234801561001057600080fd5b50600436106100875760003560e01c80639d23c4c71161005b5780639d23c4c7146100da578063b901d3c0146100e2578063c72c4d1014610102578063ea99fc041461010a57610087565b8062258d6b1461008c578063230f11c7146100aa578063318d9e5d146100bf5780633fc8cef3146100d2575b600080fd5b61009461011f565b6040516100a19190611142565b60405180910390f35b6100bd6100b836600461106f565b610143565b005b6100bd6100cd366004610fc8565b6109b5565b610094610b05565b610094610b29565b6100f56100f0366004610f90565b610b4d565b6040516100a1919061125e565b610094610c2f565b610112610c53565b6040516100a191906114ab565b7f000000000000000000000000000000000000000000000000000000000000000081565b826001600160a01b0316846001600160a01b0316141561017e5760405162461bcd60e51b8152600401610175906113ed565b60405180910390fd5b6001600160a01b03821630146102c8576040516370a0823160e01b81526000906001600160a01b038616906370a08231906101bd903090600401611142565b60206040518083038186803b1580156101d557600080fd5b505afa1580156101e9573d6000803e3d6000fd5b505050506040513d601f19601f8201168201806040525081019061020d9190611057565b90506102246001600160a01b03861684308a610c77565b6040516370a0823160e01b81526000906001600160a01b038716906370a0823190610253903090600401611142565b60206040518083038186803b15801561026b57600080fd5b505afa15801561027f573d6000803e3d6000fd5b505050506040513d601f19601f820116820180604052508101906102a39190611057565b90508181116102c45760405162461bcd60e51b8152600401610175906112de565b0395505b6102d183610cfc565b156106a357836001600160a01b0316836001600160a01b031663b16a19de6040518163ffffffff1660e01b815260040160206040518083038186803b15801561031957600080fd5b505afa15801561032d573d6000803e3d6000fd5b505050506040513d601f19601f820116820180604052508101906103519190610fac565b6001600160a01b0316146103775760405162461bcd60e51b815260040161017590611313565b60007f00000000000000000000000000000000000000000000000000000000000000006001600160a01b0316630261bf8b6040518163ffffffff1660e01b815260040160206040518083038186803b1580156103d257600080fd5b505afa1580156103e6573d6000803e3d6000fd5b505050506040513d601f19601f8201168201806040525081019061040a9190610fac565b90506104206001600160a01b0386168289610dc4565b60405163e8eda9df60e01b81526001600160a01b0382169063e8eda9df906104539088908b9087906000906004016111d0565b600060405180830381600087803b15801561046d57600080fd5b505af1158015610481573d6000803e3d6000fd5b5050604051636eb1769f60e11b81526001600160a01b038816925063dd62ed3e91506104b39030908590600401611156565b60206040518083038186803b1580156104cb57600080fd5b505afa1580156104df573d6000803e3d6000fd5b505050506040513d601f19601f820116820180604052508101906105039190611057565b156105205760405162461bcd60e51b81526004016101759061145b565b60405163cbca47db60e01b81526001600160a01b037f0000000000000000000000000000000000000000000000000000000000000000169063cbca47db9061056c908590600401611142565b60206040518083038186803b15801561058457600080fd5b505afa158015610598573d6000803e3d6000fd5b505050506040513d601f19601f820116820180604052508101906105bc9190611037565b1561069d576000829050806001600160a01b031663d1cc8c9d6040518163ffffffff1660e01b815260040160206040518083038186803b1580156105ff57600080fd5b505afa158015610613573d6000803e3d6000fd5b505050506040513d601f19601f820116820180604052508101906106379190611037565b1561069b5760405163886abef560e01b81526001600160a01b0382169063886abef590610668908990600401611142565b600060405180830381600087803b15801561068257600080fd5b505af1158015610696573d6000803e3d6000fd5b505050505b505b5061090b565b6106ac84610cfc565b6106c85760405162461bcd60e51b815260040161017590611484565b826001600160a01b0316846001600160a01b031663b16a19de6040518163ffffffff1660e01b815260040160206040518083038186803b15801561070b57600080fd5b505afa15801561071f573d6000803e3d6000fd5b505050506040513d601f19601f820116820180604052508101906107439190610fac565b6001600160a01b0316146107695760405162461bcd60e51b815260040161017590611313565b6040516370a0823160e01b81526000906001600160a01b038616906370a0823190610798903090600401611142565b60206040518083038186803b1580156107b057600080fd5b505afa1580156107c4573d6000803e3d6000fd5b505050506040513d601f19601f820116820180604052508101906107e89190611057565b9050868110156107f6578096505b7f00000000000000000000000000000000000000000000000000000000000000006001600160a01b0316630261bf8b6040518163ffffffff1660e01b815260040160206040518083038186803b15801561084f57600080fd5b505afa158015610863573d6000803e3d6000fd5b505050506040513d601f19601f820116820180604052508101906108879190610fac565b6001600160a01b03166369328dec8589856040518463ffffffff1660e01b81526004016108b6939291906111ad565b602060405180830381600087803b1580156108d057600080fd5b505af11580156108e4573d6000803e3d6000fd5b505050506040513d601f19601f820116820180604052508101906109089190611057565b50505b6040516370a0823160e01b81526000906001600160a01b038516906370a082319061093a908590600401611142565b60206040518083038186803b15801561095257600080fd5b505afa158015610966573d6000803e3d6000fd5b505050506040513d601f19601f8201168201806040525081019061098a9190611057565b9050858110156109ac5760405162461bcd60e51b8152600401610175906113b6565b50505050505050565b6040516345accf9360e11b81526000906001600160a01b037f00000000000000000000000000000000000000000000000000000000000000001690638b599f2690610a08908690869030906004016111fd565b60206040518083038186803b158015610a2057600080fd5b505afa158015610a34573d6000803e3d6000fd5b505050506040513d601f19601f82011682018060405250810190610a589190611057565b604051633111e7b360e01b81529091506001600160a01b037f00000000000000000000000000000000000000000000000000000000000000001690633111e7b390610aad90869086908690309060040161122a565b602060405180830381600087803b158015610ac757600080fd5b505af1158015610adb573d6000803e3d6000fd5b505050506040513d601f19601f82011682018060405250810190610aff9190611057565b50505050565b7f000000000000000000000000000000000000000000000000000000000000000081565b7f000000000000000000000000000000000000000000000000000000000000000081565b604080516001808252818301909252606091829190602080830190803683370190505090507f00000000000000000000000000000000000000000000000000000000000000006001600160a01b03166399248ea76040518163ffffffff1660e01b815260040160206040518083038186803b158015610bcb57600080fd5b505afa158015610bdf573d6000803e3d6000fd5b505050506040513d601f19601f82011682018060405250810190610c039190610fac565b81600081518110610c1057fe5b6001600160a01b03909216602092830291909101909101529050919050565b7f000000000000000000000000000000000000000000000000000000000000000081565b7f000000000000000000000000000000000000000000000000000000000000000081565b610aff846323b872dd60e01b858585604051602401610c9893929190611170565b60408051601f198184030181529190526020810180517bffffffffffffffffffffffffffffffffffffffffffffffffffffffff167fffffffff0000000000000000000000000000000000000000000000000000000090931692909217909152610de8565b6000807f00000000000000000000000000000000000000000000000000000000000000006001600160a01b03166346a74837846040518263ffffffff1660e01b8152600401610d4b9190611142565b60206040518083038186803b158015610d6357600080fd5b505afa158015610d77573d6000803e3d6000fd5b505050506040513d601f19601f82011682018060405250810190610d9b9190611057565b7f0000000000000000000000000000000000000000000000000000000000000000149392505050565b610de38363095ea7b360e01b8484604051602401610c98929190611194565b505050565b6060610e3d826040518060400160405280602081526020017f5361666545524332303a206c6f772d6c6576656c2063616c6c206661696c6564815250856001600160a01b0316610e779092919063ffffffff16565b805190915015610de35780806020019051810190610e5b9190611037565b610de35760405162461bcd60e51b81526004016101759061137f565b6060610e868484600085610e90565b90505b9392505050565b606082471015610eb25760405162461bcd60e51b815260040161017590611339565b610ebb85610f51565b610ed75760405162461bcd60e51b815260040161017590611424565b60006060866001600160a01b03168587604051610ef49190611126565b60006040518083038185875af1925050503d8060008114610f31576040519150601f19603f3d011682016040523d82523d6000602084013e610f36565b606091505b5091509150610f46828286610f57565b979650505050505050565b3b151590565b60608315610f66575081610e89565b825115610f765782518084602001fd5b8160405162461bcd60e51b815260040161017591906112ab565b600060208284031215610fa1578081fd5b8135610e89816114e0565b600060208284031215610fbd578081fd5b8151610e89816114e0565b60008060208385031215610fda578081fd5b823567ffffffffffffffff80821115610ff1578283fd5b818501915085601f830112611004578283fd5b813581811115611012578384fd5b8660208083028501011115611025578384fd5b60209290920196919550909350505050565b600060208284031215611048578081fd5b81518015158114610e89578182fd5b600060208284031215611068578081fd5b5051919050565b60008060008060008060c08789031215611087578182fd5b863595506020870135945060408701356110a0816114e0565b935060608701356110b0816114e0565b925060808701356110c0816114e0565b915060a08701356110d0816114e0565b809150509295509295509295565b60008284526020808501945082825b8581101561111b578135611100816114e0565b6001600160a01b0316875295820195908201906001016110ed565b509495945050505050565b600082516111388184602087016114b4565b9190910192915050565b6001600160a01b0391909116815260200190565b6001600160a01b0392831681529116602082015260400190565b6001600160a01b039384168152919092166020820152604081019190915260600190565b6001600160a01b03929092168252602082015260400190565b6001600160a01b0393841681526020810192909252909116604082015260600190565b6001600160a01b03948516815260208101939093529216604082015261ffff909116606082015260800190565b6000604082526112116040830185876110de565b90506001600160a01b0383166020830152949350505050565b60006060825261123e6060830186886110de565b90508360208301526001600160a01b038316604083015295945050505050565b6020808252825182820181905260009190848201906040850190845b8181101561129f5783516001600160a01b03168352928401929184019160010161127a565b50909695505050505050565b60006020825282518060208401526112ca8160408501602087016114b4565b601f01601f19169190910160400192915050565b6020808252818101527f4e6f20746f6b656e73207472616e7366657272656420746f2061646170746572604082015260600190565b6020808252600c908201526b496e636f6d70617469626c6560a01b604082015260600190565b60208082526026908201527f416464726573733a20696e73756666696369656e742062616c616e636520666f6040820152651c8818d85b1b60d21b606082015260800190565b60208082526013908201527f5361666545524332303a20217375636365737300000000000000000000000000604082015260600190565b6020808252601c908201527f496e73756666696369656e7420746f6b656e4f757420616d6f756e7400000000604082015260600190565b60208082526013908201527f546f6b656e732063616e6e6f74206d6174636800000000000000000000000000604082015260600190565b6020808252601d908201527f416464726573733a2063616c6c20746f206e6f6e2d636f6e7472616374000000604082015260600190565b6020808252600f908201526e0496e636f6d706c657465207377617608c1b604082015260600190565b6020808252600d908201526c27379020b0bb32903a37b5b2b760991b604082015260600190565b90815260200190565b60005b838110156114cf5781810151838201526020016114b7565b83811115610aff5750506000910152565b6001600160a01b03811681146114f557600080fd5b5056fea2646970667358221220e408830b358d10f4828344b2aaca80351a2d66752d2f72645a828bafaf28826564736f6c634300060c0033",
  "linkReferences": {},
  "deployedLinkReferences": {}
}