{
  "_format": "hh-sol-artifact-1",
  "contractName": "CurveLPEstimator",
  "sourceName": "contracts/oracles/estimators/CurveLPEstimator.sol",
  "abi": [
    {
      "inputs": [],
      "name": "ADDRESS_PROVIDER",
      "outputs": [
        {
          "internalType": "contract IAddressProvider",
          "name": "",
          "type": "address"
        }
      ],
      "stateMutability": "view",
      "type": "function"
    },
    {
      "inputs": [],
      "name": "SBTC",
      "outputs": [
        {
          "internalType": "address",
          "name": "",
          "type": "address"
        }
      ],
      "stateMutability": "view",
      "type": "function"
    },
    {
      "inputs": [],
      "name": "SUSD",
      "outputs": [
        {
          "internalType": "address",
          "name": "",
          "type": "address"
        }
      ],
      "stateMutability": "view",
      "type": "function"
    },
    {
      "inputs": [],
      "name": "TRICRYPTO2",
      "outputs": [
        {
          "internalType": "address",
          "name": "",
          "type": "address"
        }
      ],
      "stateMutability": "view",
      "type": "function"
    },
    {
      "inputs": [],
      "name": "TRICRYPTO2_ORACLE",
      "outputs": [
        {
          "internalType": "address",
          "name": "",
          "type": "address"
        }
      ],
      "stateMutability": "view",
      "type": "function"
    },
    {
      "inputs": [],
      "name": "USDT",
      "outputs": [
        {
          "internalType": "address",
          "name": "",
          "type": "address"
        }
      ],
      "stateMutability": "view",
      "type": "function"
    },
    {
      "inputs": [
        {
          "internalType": "address",
          "name": "user",
          "type": "address"
        },
        {
          "internalType": "address",
          "name": "token",
          "type": "address"
        }
      ],
      "name": "estimateItem",
      "outputs": [
        {
          "internalType": "int256",
          "name": "",
          "type": "int256"
        }
      ],
      "stateMutability": "view",
      "type": "function"
    },
    {
      "inputs": [
        {
          "internalType": "uint256",
          "name": "balance",
          "type": "uint256"
        },
        {
          "internalType": "address",
          "name": "token",
          "type": "address"
        }
      ],
      "name": "estimateItem",
      "outputs": [
        {
          "internalType": "int256",
          "name": "",
          "type": "int256"
        }
      ],
      "stateMutability": "view",
      "type": "function"
    }
  ],
  "bytecode": "0x608060405234801561001057600080fd5b50610bc2806100206000396000f3fe608060405234801561001057600080fd5b50600436106100785760003560e01c806315d8eeba1461007d5780631848effa146100a15780632a58188a146100a95780633cfae174146100e95780635ed55cd1146100f1578063b44a043b146100f9578063c54e44eb14610125578063da9b202f1461012d575b600080fd5b610085610135565b604080516001600160a01b039092168252519081900360200190f35b61008561014d565b6100d7600480360360408110156100bf57600080fd5b506001600160a01b0381358116916020013516610161565b60408051918252519081900360200190f35b6100856101f3565b61008561020b565b6100d76004803603604081101561010f57600080fd5b50803590602001356001600160a01b0316610223565b610085610236565b61008561024e565b7357ab1ec28d129707052df4df418d58a2d46d5f5181565b6f22d53366457f9d5e68ec105046fc438381565b600080826001600160a01b03166370a08231856040518263ffffffff1660e01b815260040180826001600160a01b0316815260200191505060206040518083038186803b1580156101b157600080fd5b505afa1580156101c5573d6000803e3d6000fd5b505050506040513d60208110156101db57600080fd5b505190506101e98184610266565b9150505b92915050565b73c4ad29ba4b3c580e6d59105fff484999997675ff81565b73e8b2989276e2ca8fdea2268e3551b2b4b241895081565b600061022f8383610266565b9392505050565b73dac17f958d2ee523a2206206994597c13d831ec781565b73fe18be6b3bd88a2d2a7f928d00292e7a9963cfc681565b600082610275575060006101ed565b6001600160a01b03821673c4ad29ba4b3c580e6d59105fff484999997675ff14156103cb57600073e8b2989276e2ca8fdea2268e3551b2b4b24189506001600160a01b03166354f0f7d56040518163ffffffff1660e01b815260040160206040518083038186803b1580156102e957600080fd5b505afa1580156102fd573d6000803e3d6000fd5b505050506040513d602081101561031357600080fd5b505190503363b44a043b61033d68327cb2734119d3b7a9601e1b6103378589610a17565b90610a70565b73dac17f958d2ee523a2206206994597c13d831ec76040518363ffffffff1660e01b815260040180838152602001826001600160a01b031681526020019250505060206040518083038186803b15801561039657600080fd5b505afa1580156103aa573d6000803e3d6000fd5b505050506040513d60208110156103c057600080fd5b505191506101ed9050565b60006f22d53366457f9d5e68ec105046fc43836001600160a01b031663a262904b6040518163ffffffff1660e01b815260040160206040518083038186803b15801561041657600080fd5b505afa15801561042a573d6000803e3d6000fd5b505050506040513d602081101561044057600080fd5b50516040805163bdf475c360e01b81526001600160a01b03868116600483015291519293506000929184169163bdf475c391602480820192602092909190829003018186803b15801561049257600080fd5b505afa1580156104a6573d6000803e3d6000fd5b505050506040513d60208110156104bc57600080fd5b5051604080516319b4e59b60e21b81526001600160a01b0380841660048301529151929350600092918516916366d3966c91602480820192602092909190829003018186803b15801561050e57600080fd5b505afa158015610522573d6000803e3d6000fd5b505050506040513d602081101561053857600080fd5b5051905060048110156109da576000836001600160a01b031663c5b7074a876040518263ffffffff1660e01b815260040180826001600160a01b0316815260200191505060206040518083038186803b15801561059457600080fd5b505afa1580156105a8573d6000803e3d6000fd5b505050506040513d60208110156105be57600080fd5b5051905060006105da670de0b6b3a76400006103378a85610a17565b905082610672576040805163b44a043b60e01b8152600481018390527357ab1ec28d129707052df4df418d58a2d46d5f5160248201529051339163b44a043b916044808301926020929190829003018186803b15801561063957600080fd5b505afa15801561064d573d6000803e3d6000fd5b505050506040513d602081101561066357600080fd5b505195506101ed945050505050565b82600114156106875794506101ed9350505050565b82600214156106e8576040805163b44a043b60e01b81526004810183905273fe18be6b3bd88a2d2a7f928d00292e7a9963cfc660248201529051339163b44a043b916044808301926020929190829003018186803b15801561063957600080fd5b6000856001600160a01b031663940494f1866040518263ffffffff1660e01b815260040180826001600160a01b03168152602001915050604080518083038186803b15801561073657600080fd5b505afa15801561074a573d6000803e3d6000fd5b505050506040513d604081101561076057600080fd5b5051905061076c610b4c565b866001600160a01b0316639ac90d3d876040518263ffffffff1660e01b815260040180826001600160a01b031681526020019150506101006040518083038186803b1580156107ba57600080fd5b505afa1580156107ce573d6000803e3d6000fd5b505050506040513d601f19601f820116820180604052506101008110156107f457600080fd5b50905060005b8281101561099a57600082826008811061081057fe5b602002015190506000816001600160a01b031663313ce5676040518163ffffffff1660e01b815260040160206040518083038186803b15801561085257600080fd5b505afa158015610866573d6000803e3d6000fd5b505050506040513d602081101561087c57600080fd5b505160ff1690508560128210156108a55761089e816012849003600a0a610a70565b90506108c2565b60128211156108c2576108bf816011198401600a0a610a17565b90505b6040805163b44a043b60e01b8152600481018390526001600160a01b03851660248201529051339163b44a043b916044808301926020929190829003018186803b15801561090f57600080fd5b505afa92505050801561093457506040513d602081101561092f57600080fd5b505160015b610971573d808015610962576040519150601f19603f3d011682016040523d82523d6000602084013e610967565b606091505b5050505050610992565b600081131561098d579b506101ed9a5050505050505050505050565b505050505b6001016107fa565b506040805162461bcd60e51b815260206004820152600f60248201526e105cdcd95d081b9bdd08199bdd5b99608a1b604482015290519081900360640190fd5b6040805162461bcd60e51b815260206004820152600d60248201526c139bdd081cdd5c1c1bdc9d1959609a1b604482015290519081900360640190fd5b600082610a26575060006101ed565b82820282848281610a3357fe5b041461022f5760405162461bcd60e51b8152600401808060200182810382526021815260200180610b6c6021913960400191505060405180910390fd5b600061022f83836040518060400160405280601a815260200179536166654d6174683a206469766973696f6e206279207a65726f60301b81525060008183610b365760405162461bcd60e51b81526004018080602001828103825283818151815260200191508051906020019080838360005b83811015610afb578181015183820152602001610ae3565b50505050905090810190601f168015610b285780820380516001836020036101000a031916815260200191505b509250505060405180910390fd5b506000838581610b4257fe5b0495945050505050565b604051806101000160405280600890602082028036833750919291505056fe536166654d6174683a206d756c7469706c69636174696f6e206f766572666c6f77a26469706673582212205f131a781b007ce920795e30e7007956c4cf1d2bf191638ad5f7629b374779f864736f6c634300060c0033",
  "linkReferences": {},
  "deployedLinkReferences": {}
}