{
  "_format": "hh-sol-artifact-1",
  "contractName": "CurveLPEstimator",
  "sourceName": "contracts/oracles/estimators/CurveLPEstimator.sol",
  "abi": [
    {
      "inputs": [],
      "stateMutability": "nonpayable",
      "type": "constructor"
    },
    {
      "inputs": [],
      "name": "ADDRESS_PROVIDER",
      "outputs": [
        {
          "internalType": "contract IAddressProvider",
          "name": "",
          "type": "address"
        }
      ],
      "stateMutability": "view",
      "type": "function"
    },
    {
      "inputs": [],
      "name": "SBTC",
      "outputs": [
        {
          "internalType": "address",
          "name": "",
          "type": "address"
        }
      ],
      "stateMutability": "view",
      "type": "function"
    },
    {
      "inputs": [],
      "name": "SUSD",
      "outputs": [
        {
          "internalType": "address",
          "name": "",
          "type": "address"
        }
      ],
      "stateMutability": "view",
      "type": "function"
    },
    {
      "inputs": [],
      "name": "TRICRYPTO2",
      "outputs": [
        {
          "internalType": "address",
          "name": "",
          "type": "address"
        }
      ],
      "stateMutability": "view",
      "type": "function"
    },
    {
      "inputs": [],
      "name": "TRICRYPTO2_ORACLE",
      "outputs": [
        {
          "internalType": "address",
          "name": "",
          "type": "address"
        }
      ],
      "stateMutability": "view",
      "type": "function"
    },
    {
      "inputs": [],
      "name": "USDT",
      "outputs": [
        {
          "internalType": "address",
          "name": "",
          "type": "address"
        }
      ],
      "stateMutability": "view",
      "type": "function"
    },
    {
      "inputs": [
        {
          "internalType": "contract IStrategy",
          "name": "strategy",
          "type": "address"
        },
        {
          "internalType": "address",
          "name": "token",
          "type": "address"
        }
      ],
      "name": "estimateItem",
      "outputs": [
        {
          "internalType": "int256",
          "name": "",
          "type": "int256"
        }
      ],
      "stateMutability": "view",
      "type": "function"
    },
    {
      "inputs": [
        {
          "internalType": "contract IStrategy",
          "name": "strategy",
          "type": "address"
        },
        {
          "internalType": "address",
          "name": "token",
          "type": "address"
        },
        {
          "internalType": "address",
          "name": "underlyingToken",
          "type": "address"
        },
        {
          "internalType": "uint256",
          "name": "balance",
          "type": "uint256"
        }
      ],
      "name": "estimateItem",
      "outputs": [
        {
          "internalType": "int256",
          "name": "",
          "type": "int256"
        }
      ],
      "stateMutability": "view",
      "type": "function"
    },
    {
      "inputs": [
        {
          "internalType": "contract IStrategy",
          "name": "strategy",
          "type": "address"
        },
        {
          "internalType": "address",
          "name": "token",
          "type": "address"
        },
        {
          "internalType": "uint256",
          "name": "balance",
          "type": "uint256"
        }
      ],
      "name": "estimateItem",
      "outputs": [
        {
          "internalType": "int256",
          "name": "",
          "type": "int256"
        }
      ],
      "stateMutability": "view",
      "type": "function"
    }
  ],
  "bytecode": "0x60a060405234801561001057600080fd5b50670de0b6b3a764000060805260805161113a610037600039806107ef525061113a6000f3fe608060405234801561001057600080fd5b50600436106100935760003560e01c80635ed55cd1116100665780635ed55cd1146100e6578063b35e0614146100ee578063c54e44eb14610101578063da9b202f14610109578063ecb1927e1461011157610093565b806315d8eeba146100985780631848effa146100b65780632a58188a146100be5780633cfae174146100de575b600080fd5b6100a0610124565b6040516100ad9190610fab565b60405180910390f35b6100a061013c565b6100d16100cc366004610df9565b610150565b6040516100ad9190610fe3565b6100a06101e6565b6100a06101fe565b6100d16100fc366004610e31565b610216565b6100a0610aca565b6100a0610ae2565b6100d161011f366004610e81565b610afa565b7357ab1ec28d129707052df4df418d58a2d46d5f5181565b6f22d53366457f9d5e68ec105046fc438381565b600080826001600160a01b03166370a08231856040518263ffffffff1660e01b815260040161017f9190610fab565b60206040518083038186803b15801561019757600080fd5b505afa1580156101ab573d6000803e3d6000fd5b505050506040513d601f19601f820116820180604052508101906101cf9190610ec1565b90506101dc848483610afa565b9150505b92915050565b73c4ad29ba4b3c580e6d59105fff484999997675ff81565b73e8b2989276e2ca8fdea2268e3551b2b4b241895081565b60008161022557506000610ac2565b6001600160a01b03841673c4ad29ba4b3c580e6d59105fff484999997675ff141561038557600073e8b2989276e2ca8fdea2268e3551b2b4b24189506001600160a01b03166354f0f7d56040518163ffffffff1660e01b815260040160206040518083038186803b15801561029957600080fd5b505afa1580156102ad573d6000803e3d6000fd5b505050506040513d601f19601f820116820180604052508101906102d19190610ec1565b90503363ecb1927e8773dac17f958d2ee523a2206206994597c13d831ec76c0c9f2c9cd04674edea400000006103078689610bda565b8161030e57fe5b046040518463ffffffff1660e01b815260040161032d93929190610fbf565b60206040518083038186803b15801561034557600080fd5b505afa158015610359573d6000803e3d6000fd5b505050506040513d601f19601f8201168201806040525081019061037d9190610ec1565b915050610ac2565b60006f22d53366457f9d5e68ec105046fc43836001600160a01b031663a262904b6040518163ffffffff1660e01b815260040160206040518083038186803b1580156103d057600080fd5b505afa1580156103e4573d6000803e3d6000fd5b505050506040513d601f19601f820116820180604052508101906104089190610d6c565b90506000816001600160a01b031663bdf475c3876040518263ffffffff1660e01b81526004016104389190610fab565b60206040518083038186803b15801561045057600080fd5b505afa158015610464573d6000803e3d6000fd5b505050506040513d601f19601f820116820180604052508101906104889190610d6c565b90506000826001600160a01b03166366d3966c836040518263ffffffff1660e01b81526004016104b89190610fab565b60206040518083038186803b1580156104d057600080fd5b505afa1580156104e4573d6000803e3d6000fd5b505050506040513d601f19601f820116820180604052508101906105089190610ec1565b90506004811015610aaa5761051b610c1b565b604051639ac90d3d60e01b81526001600160a01b03851690639ac90d3d90610547908690600401610fab565b6101006040518083038186803b15801561056057600080fd5b505afa158015610574573d6000803e3d6000fd5b505050506040513d601f19601f820116820180604052508101906105989190610d88565b90506001600160a01b0387161561076a5760001960005b60008382600881106105bd57fe5b60200201516001600160a01b0316141580156105d95750600881105b1561065b5760008382600881106105ec57fe5b60200201516001600160a01b031614156106215760405162461bcd60e51b815260040161061890611056565b60405180910390fd5b886001600160a01b031683826008811061063757fe5b60200201516001600160a01b031614156106535780915061065b565b6001016105af565b5060001981146107685760405163cc2b27d760e01b81526001600160a01b0385169063cc2b27d790610693908a9085906004016110b4565b60206040518083038186803b1580156106ab57600080fd5b505afa9250505080156106db575060408051601f3d908101601f191682019092526106d891810190610ec1565b60015b6106e457610768565b604051637658c93f60e11b8152339063ecb1927e9061070b908e908d908690600401610fbf565b60206040518083038186803b15801561072357600080fd5b505afa158015610737573d6000803e3d6000fd5b505050506040513d601f19601f8201168201806040525081019061075b9190610ec1565b9650505050505050610ac2565b505b6040516362db83a560e11b81526000906001600160a01b0386169063c5b7074a90610799908c90600401610fab565b60206040518083038186803b1580156107b157600080fd5b505afa1580156107c5573d6000803e3d6000fd5b505050506040513d601f19601f820116820180604052508101906107e99190610ec1565b905060007f00000000000000000000000000000000000000000000000000000000000000006108188984610bda565b8161081f57fe5b0490508361086257604051637658c93f60e11b8152339063ecb1927e9061070b908e907357ab1ec28d129707052df4df418d58a2d46d5f51908690600401610fbf565b8360011415610878579550610ac2945050505050565b83600214156108bc57604051637658c93f60e11b8152339063ecb1927e9061070b908e9073fe18be6b3bd88a2d2a7f928d00292e7a9963cfc6908690600401610fbf565b60005b60008482600881106108cd57fe5b60200201516001600160a01b0316141580156108e95750600881105b15610a91578381600881106108fa57fe5b6020020151995060008a6001600160a01b031663313ce5676040518163ffffffff1660e01b815260040160206040518083038186803b15801561093c57600080fd5b505afa158015610950573d6000803e3d6000fd5b505050506040513d601f19601f820116820180604052508101906109749190610f8a565b60ff16905082601282101561099a5781601203600a0a818161099257fe5b0490506109b7565b60128211156109b7576109b4816011198401600a0a610bda565b90505b336001600160a01b031663ecb1927e8f8e846040518463ffffffff1660e01b81526004016109e793929190610fbf565b60206040518083038186803b1580156109ff57600080fd5b505afa925050508015610a2f575060408051601f3d908101601f19168201909252610a2c91810190610ec1565b60015b610a6b573d808015610a5d576040519150601f19603f3d011682016040523d82523d6000602084013e610a62565b606091505b50505050610a89565b6000811315610a85579950610ac298505050505050505050565b5050505b6001016108bf565b5060405162461bcd60e51b81526004016106189061102d565b60405162461bcd60e51b81526004016106189061108d565b949350505050565b73dac17f958d2ee523a2206206994597c13d831ec781565b73fe18be6b3bd88a2d2a7f928d00292e7a9963cfc681565b6000806001600160a01b03851615610bc557610b14610c3a565b604051630cd9a17f60e21b81526001600160a01b0387169063336685fc90610b40908890600401610fab565b60006040518083038186803b158015610b5857600080fd5b505afa158015610b6c573d6000803e3d6000fd5b505050506040513d6000823e601f3d908101601f19168201604052610b949190810190610ed9565b9050806020015151600014610bc357602081015180516000198101908110610bb857fe5b602002602001015191505b505b610bd185858386610216565b95945050505050565b600082610be9575060006101e0565b82820282848281610bf657fe5b0414610c145760405162461bcd60e51b815260040161061890610fec565b9392505050565b6040518061010001604052806008906020820280368337509192915050565b60405180606001604052806060815260200160608152602001606081525090565b600082601f830112610c6b578081fd5b815167ffffffffffffffff811115610c81578182fd5b6020808202610c918282016110c5565b83815293508184018583018287018401881015610cad57600080fd5b600092505b84831015610cd9578051610cc5816110ec565b825260019290920191908301908301610cb2565b505050505092915050565b600082601f830112610cf4578081fd5b815167ffffffffffffffff811115610d0a578182fd5b6020610d1e601f8301601f191682016110c5565b92508183528481838601011115610d3457600080fd5b60005b82811015610d52578481018201518482018301528101610d37565b82811115610d635760008284860101525b50505092915050565b600060208284031215610d7d578081fd5b8151610c14816110ec565b6000610100808385031215610d9b578182fd5b83601f840112610da9578182fd5b610db2816110c5565b8084868487011115610dc2578485fd5b8493505b6008841015610def578051610dda816110ec565b83526001939093019260209283019201610dc6565b5095945050505050565b60008060408385031215610e0b578081fd5b8235610e16816110ec565b91506020830135610e26816110ec565b809150509250929050565b60008060008060808587031215610e46578182fd5b8435610e51816110ec565b93506020850135610e61816110ec565b92506040850135610e71816110ec565b9396929550929360600135925050565b600080600060608486031215610e95578283fd5b8335610ea0816110ec565b92506020840135610eb0816110ec565b929592945050506040919091013590565b600060208284031215610ed2578081fd5b5051919050565b600060208284031215610eea578081fd5b815167ffffffffffffffff80821115610f01578283fd5b9083019060608286031215610f14578283fd5b610f1e60606110c5565b825182811115610f2c578485fd5b610f3887828601610c5b565b825250602083015182811115610f4c578485fd5b610f5887828601610c5b565b602083015250604083015182811115610f6f578485fd5b610f7b87828601610ce4565b60408301525095945050505050565b600060208284031215610f9b578081fd5b815160ff81168114610c14578182fd5b6001600160a01b0391909116815260200190565b6001600160a01b039384168152919092166020820152604081019190915260600190565b90815260200190565b60208082526021908201527f536166654d6174683a206d756c7469706c69636174696f6e206f766572666c6f6040820152607760f81b606082015260800190565b6020808252600f908201526e105cdcd95d081b9bdd08199bdd5b99608a1b604082015260600190565b60208082526017908201527f546f6b656e206e6f7420666f756e6420696e20706f6f6c000000000000000000604082015260600190565b6020808252600d908201526c139bdd081cdd5c1c1bdc9d1959609a1b604082015260600190565b918252600f0b602082015260400190565b60405181810167ffffffffffffffff811182821017156110e457600080fd5b604052919050565b6001600160a01b038116811461110157600080fd5b5056fea2646970667358221220362c19c15ea5d658994fda35dd4c7f207dfee9d45a44c8871710ff1c72393f9664736f6c634300060c0033",
  "linkReferences": {},
  "deployedLinkReferences": {}
}