{
  "_format": "hh-sol-artifact-1",
  "contractName": "BlockableToken",
  "sourceName": "contracts/test/weird_tokens/BlockList.sol",
  "abi": [
    {
      "inputs": [
        {
          "internalType": "uint256",
          "name": "_totalSupply",
          "type": "uint256"
        }
      ],
      "stateMutability": "nonpayable",
      "type": "constructor"
    },
    {
      "anonymous": false,
      "inputs": [
        {
          "indexed": true,
          "internalType": "address",
          "name": "src",
          "type": "address"
        },
        {
          "indexed": true,
          "internalType": "address",
          "name": "guy",
          "type": "address"
        },
        {
          "indexed": false,
          "internalType": "uint256",
          "name": "wad",
          "type": "uint256"
        }
      ],
      "name": "Approval",
      "type": "event"
    },
    {
      "anonymous": false,
      "inputs": [
        {
          "indexed": true,
          "internalType": "address",
          "name": "src",
          "type": "address"
        },
        {
          "indexed": true,
          "internalType": "address",
          "name": "dst",
          "type": "address"
        },
        {
          "indexed": false,
          "internalType": "uint256",
          "name": "wad",
          "type": "uint256"
        }
      ],
      "name": "Transfer",
      "type": "event"
    },
    {
      "inputs": [
        {
          "internalType": "address",
          "name": "usr",
          "type": "address"
        }
      ],
      "name": "allow",
      "outputs": [],
      "stateMutability": "nonpayable",
      "type": "function"
    },
    {
      "inputs": [
        {
          "internalType": "address",
          "name": "",
          "type": "address"
        },
        {
          "internalType": "address",
          "name": "",
          "type": "address"
        }
      ],
      "name": "allowance",
      "outputs": [
        {
          "internalType": "uint256",
          "name": "",
          "type": "uint256"
        }
      ],
      "stateMutability": "view",
      "type": "function"
    },
    {
      "inputs": [
        {
          "internalType": "address",
          "name": "usr",
          "type": "address"
        },
        {
          "internalType": "uint256",
          "name": "wad",
          "type": "uint256"
        }
      ],
      "name": "approve",
      "outputs": [
        {
          "internalType": "bool",
          "name": "",
          "type": "bool"
        }
      ],
      "stateMutability": "nonpayable",
      "type": "function"
    },
    {
      "inputs": [
        {
          "internalType": "address",
          "name": "",
          "type": "address"
        }
      ],
      "name": "balanceOf",
      "outputs": [
        {
          "internalType": "uint256",
          "name": "",
          "type": "uint256"
        }
      ],
      "stateMutability": "view",
      "type": "function"
    },
    {
      "inputs": [
        {
          "internalType": "address",
          "name": "usr",
          "type": "address"
        }
      ],
      "name": "block",
      "outputs": [],
      "stateMutability": "nonpayable",
      "type": "function"
    },
    {
      "inputs": [],
      "name": "decimals",
      "outputs": [
        {
          "internalType": "uint8",
          "name": "",
          "type": "uint8"
        }
      ],
      "stateMutability": "view",
      "type": "function"
    },
    {
      "inputs": [],
      "name": "name",
      "outputs": [
        {
          "internalType": "string",
          "name": "",
          "type": "string"
        }
      ],
      "stateMutability": "view",
      "type": "function"
    },
    {
      "inputs": [],
      "name": "symbol",
      "outputs": [
        {
          "internalType": "string",
          "name": "",
          "type": "string"
        }
      ],
      "stateMutability": "view",
      "type": "function"
    },
    {
      "inputs": [],
      "name": "totalSupply",
      "outputs": [
        {
          "internalType": "uint256",
          "name": "",
          "type": "uint256"
        }
      ],
      "stateMutability": "view",
      "type": "function"
    },
    {
      "inputs": [
        {
          "internalType": "address",
          "name": "dst",
          "type": "address"
        },
        {
          "internalType": "uint256",
          "name": "wad",
          "type": "uint256"
        }
      ],
      "name": "transfer",
      "outputs": [
        {
          "internalType": "bool",
          "name": "",
          "type": "bool"
        }
      ],
      "stateMutability": "nonpayable",
      "type": "function"
    },
    {
      "inputs": [
        {
          "internalType": "address",
          "name": "src",
          "type": "address"
        },
        {
          "internalType": "address",
          "name": "dst",
          "type": "address"
        },
        {
          "internalType": "uint256",
          "name": "wad",
          "type": "uint256"
        }
      ],
      "name": "transferFrom",
      "outputs": [
        {
          "internalType": "bool",
          "name": "",
          "type": "bool"
        }
      ],
      "stateMutability": "nonpayable",
      "type": "function"
    }
  ],
  "bytecode": "0x60806040526000805460ff1916601217905534801561001d57600080fd5b506040516108623803806108628339818101604052602081101561004057600080fd5b5051600181905533600081815260026020908152604080832085905580518581529051859493927fddf252ad1be2c89b69c2b068fc378daa952ba7f163c4a11628f55a4df523b3ef928290030190a35050600480546001600160a01b031916331790556107b0806100b26000396000f3fe608060405234801561001057600080fd5b50600436106100995760003560e01c806306907e171461009e57806306fdde03146100c6578063095ea7b31461014357806318160ddd1461018357806323b872dd1461019d578063313ce567146101d357806370a08231146101f157806395d89b4114610217578063a9059cbb1461021f578063dd62ed3e1461024b578063ff9913e814610279575b600080fd5b6100c4600480360360208110156100b457600080fd5b50356001600160a01b031661029f565b005b6100ce610311565b6040805160208082528351818301528351919283929083019185019080838360005b838110156101085781810151838201526020016100f0565b50505050905090810190601f1680156101355780820380516001836020036101000a031916815260200191505b509250505060405180910390f35b61016f6004803603604081101561015957600080fd5b506001600160a01b038135169060200135610332565b604080519115158252519081900360200190f35b61018b610399565b60408051918252519081900360200190f35b61016f600480360360608110156101b357600080fd5b506001600160a01b0381358116916020810135909116906040013561039f565b6101db610462565b6040805160ff9092168252519081900360200190f35b61018b6004803603602081101561020757600080fd5b50356001600160a01b031661046b565b6100ce61047d565b61016f6004803603604081101561023557600080fd5b506001600160a01b03813516906020013561049c565b61018b6004803603604081101561026157600080fd5b506001600160a01b03813581169160200135166104b0565b6100c46004803603602081101561028f57600080fd5b50356001600160a01b03166104cd565b6004546001600160a01b031633146102ed576040805162461bcd60e51b815260206004820152600c60248201526b1d5b985d5d1a1bdc9a5cd95960a21b604482015290519081900360640190fd5b6001600160a01b03166000908152600560205260409020805460ff19166001179055565b604051806040016040528060058152602001642a37b5b2b760d91b81525081565b3360008181526003602090815260408083206001600160a01b038716808552908352818420869055815186815291519394909390927f8c5be1e5ebec7d5bd14f71427d1e84f3dd0314c0f7b2291e5b200ac8c7c3b925928290030190a35060015b92915050565b60015481565b6001600160a01b03831660009081526005602052604081205460ff16156103f7576040805162461bcd60e51b8152602060048201526007602482015266189b1bd8dad95960ca1b604482015290519081900360640190fd5b6001600160a01b03831660009081526005602052604090205460ff161561044f576040805162461bcd60e51b8152602060048201526007602482015266189b1bd8dad95960ca1b604482015290519081900360640190fd5b61045a84848461053c565b949350505050565b60005460ff1681565b60026020526000908152604090205481565b604051806040016040528060038152602001622a25a760e91b81525081565b60006104a933848461039f565b9392505050565b600360209081526000928352604080842090915290825290205481565b6004546001600160a01b0316331461051b576040805162461bcd60e51b815260206004820152600c60248201526b1d5b985d5d1a1bdc9a5cd95960a21b604482015290519081900360640190fd5b6001600160a01b03166000908152600560205260409020805460ff19169055565b6001600160a01b0383166000908152600260205260408120548211156105a0576040805162461bcd60e51b8152602060048201526014602482015273696e73756666696369656e742d62616c616e636560601b604482015290519081900360640190fd5b6001600160a01b03841633148015906105de57506001600160a01b038416600090815260036020908152604080832033845290915290205460001914155b156106a7576001600160a01b0384166000908152600360209081526040808320338452909152902054821115610654576040805162461bcd60e51b8152602060048201526016602482015275696e73756666696369656e742d616c6c6f77616e636560501b604482015290519081900360640190fd5b6001600160a01b0384166000908152600360209081526040808320338452909152902054610682908361075a565b6001600160a01b03851660009081526003602090815260408083203384529091529020555b6001600160a01b0384166000908152600260205260409020546106ca908361075a565b6001600160a01b0380861660009081526002602052604080822093909355908516815220546106f9908361076a565b6001600160a01b0380851660008181526002602090815260409182902094909455805186815290519193928816927fddf252ad1be2c89b69c2b068fc378daa952ba7f163c4a11628f55a4df523b3ef92918290030190a35060019392505050565b8082038281111561039357600080fd5b8082018281101561039357600080fdfea2646970667358221220e26ee1542b93833c2aeecfebb238b5257026c41f8965229846239fdbacdb119e64736f6c634300060c0033",
  "linkReferences": {},
  "deployedLinkReferences": {}
}