{
  "_format": "hh-sol-artifact-1",
  "contractName": "Enso",
  "sourceName": "contracts/Enso.sol",
  "abi": [
    {
      "inputs": [
        {
          "internalType": "string",
          "name": "name_",
          "type": "string"
        },
        {
          "internalType": "string",
          "name": "symbol_",
          "type": "string"
        },
        {
          "internalType": "address",
          "name": "_minter",
          "type": "address"
        },
        {
          "internalType": "uint256",
          "name": "_mintingAllowedAfter",
          "type": "uint256"
        }
      ],
      "stateMutability": "nonpayable",
      "type": "constructor"
    },
    {
      "anonymous": false,
      "inputs": [
        {
          "indexed": true,
          "internalType": "address",
          "name": "owner",
          "type": "address"
        },
        {
          "indexed": true,
          "internalType": "address",
          "name": "spender",
          "type": "address"
        },
        {
          "indexed": false,
          "internalType": "uint256",
          "name": "value",
          "type": "uint256"
        }
      ],
      "name": "Approval",
      "type": "event"
    },
    {
      "anonymous": false,
      "inputs": [
        {
          "indexed": true,
          "internalType": "address",
          "name": "delegator",
          "type": "address"
        },
        {
          "indexed": true,
          "internalType": "address",
          "name": "fromDelegate",
          "type": "address"
        },
        {
          "indexed": true,
          "internalType": "address",
          "name": "toDelegate",
          "type": "address"
        }
      ],
      "name": "DelegateChanged",
      "type": "event"
    },
    {
      "anonymous": false,
      "inputs": [
        {
          "indexed": true,
          "internalType": "address",
          "name": "delegate",
          "type": "address"
        },
        {
          "indexed": false,
          "internalType": "uint256",
          "name": "previousBalance",
          "type": "uint256"
        },
        {
          "indexed": false,
          "internalType": "uint256",
          "name": "newBalance",
          "type": "uint256"
        }
      ],
      "name": "DelegateVotesChanged",
      "type": "event"
    },
    {
      "anonymous": false,
      "inputs": [
        {
          "indexed": false,
          "internalType": "uint8",
          "name": "oldMintCap",
          "type": "uint8"
        },
        {
          "indexed": false,
          "internalType": "uint8",
          "name": "newMintCap",
          "type": "uint8"
        }
      ],
      "name": "MintCapUpdated",
      "type": "event"
    },
    {
      "anonymous": false,
      "inputs": [
        {
          "indexed": false,
          "internalType": "address",
          "name": "minter",
          "type": "address"
        },
        {
          "indexed": false,
          "internalType": "address",
          "name": "newMinter",
          "type": "address"
        }
      ],
      "name": "MinterChanged",
      "type": "event"
    },
    {
      "anonymous": false,
      "inputs": [
        {
          "indexed": true,
          "internalType": "address",
          "name": "from",
          "type": "address"
        },
        {
          "indexed": true,
          "internalType": "address",
          "name": "to",
          "type": "address"
        },
        {
          "indexed": false,
          "internalType": "uint256",
          "name": "value",
          "type": "uint256"
        }
      ],
      "name": "Transfer",
      "type": "event"
    },
    {
      "inputs": [],
      "name": "DOMAIN_SEPARATOR",
      "outputs": [
        {
          "internalType": "bytes32",
          "name": "",
          "type": "bytes32"
        }
      ],
      "stateMutability": "view",
      "type": "function"
    },
    {
      "inputs": [
        {
          "internalType": "address",
          "name": "owner",
          "type": "address"
        },
        {
          "internalType": "address",
          "name": "spender",
          "type": "address"
        }
      ],
      "name": "allowance",
      "outputs": [
        {
          "internalType": "uint256",
          "name": "",
          "type": "uint256"
        }
      ],
      "stateMutability": "view",
      "type": "function"
    },
    {
      "inputs": [
        {
          "internalType": "address",
          "name": "spender",
          "type": "address"
        },
        {
          "internalType": "uint256",
          "name": "amount",
          "type": "uint256"
        }
      ],
      "name": "approve",
      "outputs": [
        {
          "internalType": "bool",
          "name": "",
          "type": "bool"
        }
      ],
      "stateMutability": "nonpayable",
      "type": "function"
    },
    {
      "inputs": [
        {
          "internalType": "address",
          "name": "account",
          "type": "address"
        }
      ],
      "name": "balanceOf",
      "outputs": [
        {
          "internalType": "uint256",
          "name": "",
          "type": "uint256"
        }
      ],
      "stateMutability": "view",
      "type": "function"
    },
    {
      "inputs": [
        {
          "internalType": "uint256",
          "name": "_amount",
          "type": "uint256"
        }
      ],
      "name": "burn",
      "outputs": [],
      "stateMutability": "nonpayable",
      "type": "function"
    },
    {
      "inputs": [
        {
          "internalType": "address",
          "name": "_account",
          "type": "address"
        },
        {
          "internalType": "uint256",
          "name": "_amount",
          "type": "uint256"
        }
      ],
      "name": "burnFrom",
      "outputs": [],
      "stateMutability": "nonpayable",
      "type": "function"
    },
    {
      "inputs": [
        {
          "internalType": "address",
          "name": "account",
          "type": "address"
        },
        {
          "internalType": "uint32",
          "name": "pos",
          "type": "uint32"
        }
      ],
      "name": "checkpoints",
      "outputs": [
        {
          "components": [
            {
              "internalType": "uint32",
              "name": "fromBlock",
              "type": "uint32"
            },
            {
              "internalType": "uint224",
              "name": "votes",
              "type": "uint224"
            }
          ],
          "internalType": "struct ERC20Votes.Checkpoint",
          "name": "",
          "type": "tuple"
        }
      ],
      "stateMutability": "view",
      "type": "function"
    },
    {
      "inputs": [],
      "name": "decimals",
      "outputs": [
        {
          "internalType": "uint8",
          "name": "",
          "type": "uint8"
        }
      ],
      "stateMutability": "view",
      "type": "function"
    },
    {
      "inputs": [
        {
          "internalType": "address",
          "name": "spender",
          "type": "address"
        },
        {
          "internalType": "uint256",
          "name": "subtractedValue",
          "type": "uint256"
        }
      ],
      "name": "decreaseAllowance",
      "outputs": [
        {
          "internalType": "bool",
          "name": "",
          "type": "bool"
        }
      ],
      "stateMutability": "nonpayable",
      "type": "function"
    },
    {
      "inputs": [
        {
          "internalType": "address",
          "name": "delegatee",
          "type": "address"
        }
      ],
      "name": "delegate",
      "outputs": [],
      "stateMutability": "nonpayable",
      "type": "function"
    },
    {
      "inputs": [
        {
          "internalType": "address",
          "name": "delegatee",
          "type": "address"
        },
        {
          "internalType": "uint256",
          "name": "nonce",
          "type": "uint256"
        },
        {
          "internalType": "uint256",
          "name": "expiry",
          "type": "uint256"
        },
        {
          "internalType": "uint8",
          "name": "v",
          "type": "uint8"
        },
        {
          "internalType": "bytes32",
          "name": "r",
          "type": "bytes32"
        },
        {
          "internalType": "bytes32",
          "name": "s",
          "type": "bytes32"
        }
      ],
      "name": "delegateBySig",
      "outputs": [],
      "stateMutability": "nonpayable",
      "type": "function"
    },
    {
      "inputs": [
        {
          "internalType": "address",
          "name": "account",
          "type": "address"
        }
      ],
      "name": "delegates",
      "outputs": [
        {
          "internalType": "address",
          "name": "",
          "type": "address"
        }
      ],
      "stateMutability": "view",
      "type": "function"
    },
    {
      "inputs": [
        {
          "internalType": "address",
          "name": "account",
          "type": "address"
        }
      ],
      "name": "getCurrentVotes",
      "outputs": [
        {
          "internalType": "uint96",
          "name": "",
          "type": "uint96"
        }
      ],
      "stateMutability": "view",
      "type": "function"
    },
    {
      "inputs": [
        {
          "internalType": "uint256",
          "name": "blockNumber",
          "type": "uint256"
        }
      ],
      "name": "getPastTotalSupply",
      "outputs": [
        {
          "internalType": "uint256",
          "name": "",
          "type": "uint256"
        }
      ],
      "stateMutability": "view",
      "type": "function"
    },
    {
      "inputs": [
        {
          "internalType": "address",
          "name": "account",
          "type": "address"
        },
        {
          "internalType": "uint256",
          "name": "blockNumber",
          "type": "uint256"
        }
      ],
      "name": "getPastVotes",
      "outputs": [
        {
          "internalType": "uint256",
          "name": "",
          "type": "uint256"
        }
      ],
      "stateMutability": "view",
      "type": "function"
    },
    {
      "inputs": [
        {
          "internalType": "address",
          "name": "account",
          "type": "address"
        },
        {
          "internalType": "uint256",
          "name": "blockNumber",
          "type": "uint256"
        }
      ],
      "name": "getPriorVotes",
      "outputs": [
        {
          "internalType": "uint96",
          "name": "",
          "type": "uint96"
        }
      ],
      "stateMutability": "view",
      "type": "function"
    },
    {
      "inputs": [
        {
          "internalType": "address",
          "name": "account",
          "type": "address"
        }
      ],
      "name": "getVotes",
      "outputs": [
        {
          "internalType": "uint256",
          "name": "",
          "type": "uint256"
        }
      ],
      "stateMutability": "view",
      "type": "function"
    },
    {
      "inputs": [
        {
          "internalType": "address",
          "name": "spender",
          "type": "address"
        },
        {
          "internalType": "uint256",
          "name": "addedValue",
          "type": "uint256"
        }
      ],
      "name": "increaseAllowance",
      "outputs": [
        {
          "internalType": "bool",
          "name": "",
          "type": "bool"
        }
      ],
      "stateMutability": "nonpayable",
      "type": "function"
    },
    {
      "inputs": [],
      "name": "minimumTimeBetweenMints",
      "outputs": [
        {
          "internalType": "uint32",
          "name": "",
          "type": "uint32"
        }
      ],
      "stateMutability": "view",
      "type": "function"
    },
    {
      "inputs": [
        {
          "internalType": "address",
          "name": "_account",
          "type": "address"
        },
        {
          "internalType": "uint256",
          "name": "_amount",
          "type": "uint256"
        }
      ],
      "name": "mint",
      "outputs": [],
      "stateMutability": "nonpayable",
      "type": "function"
    },
    {
      "inputs": [],
      "name": "mintCap",
      "outputs": [
        {
          "internalType": "uint8",
          "name": "",
          "type": "uint8"
        }
      ],
      "stateMutability": "view",
      "type": "function"
    },
    {
      "inputs": [],
      "name": "mintCapUpdated",
      "outputs": [
        {
          "internalType": "bool",
          "name": "",
          "type": "bool"
        }
      ],
      "stateMutability": "view",
      "type": "function"
    },
    {
      "inputs": [],
      "name": "minter",
      "outputs": [
        {
          "internalType": "address",
          "name": "",
          "type": "address"
        }
      ],
      "stateMutability": "view",
      "type": "function"
    },
    {
      "inputs": [],
      "name": "mintingAllowedAfter",
      "outputs": [
        {
          "internalType": "uint256",
          "name": "",
          "type": "uint256"
        }
      ],
      "stateMutability": "view",
      "type": "function"
    },
    {
      "inputs": [],
      "name": "name",
      "outputs": [
        {
          "internalType": "string",
          "name": "",
          "type": "string"
        }
      ],
      "stateMutability": "view",
      "type": "function"
    },
    {
      "inputs": [
        {
          "internalType": "address",
          "name": "owner",
          "type": "address"
        }
      ],
      "name": "nonces",
      "outputs": [
        {
          "internalType": "uint256",
          "name": "",
          "type": "uint256"
        }
      ],
      "stateMutability": "view",
      "type": "function"
    },
    {
      "inputs": [
        {
          "internalType": "address",
          "name": "account",
          "type": "address"
        }
      ],
      "name": "numCheckpoints",
      "outputs": [
        {
          "internalType": "uint32",
          "name": "",
          "type": "uint32"
        }
      ],
      "stateMutability": "view",
      "type": "function"
    },
    {
      "inputs": [
        {
          "internalType": "address",
          "name": "owner",
          "type": "address"
        },
        {
          "internalType": "address",
          "name": "spender",
          "type": "address"
        },
        {
          "internalType": "uint256",
          "name": "value",
          "type": "uint256"
        },
        {
          "internalType": "uint256",
          "name": "deadline",
          "type": "uint256"
        },
        {
          "internalType": "uint8",
          "name": "v",
          "type": "uint8"
        },
        {
          "internalType": "bytes32",
          "name": "r",
          "type": "bytes32"
        },
        {
          "internalType": "bytes32",
          "name": "s",
          "type": "bytes32"
        }
      ],
      "name": "permit",
      "outputs": [],
      "stateMutability": "nonpayable",
      "type": "function"
    },
    {
      "inputs": [],
      "name": "symbol",
      "outputs": [
        {
          "internalType": "string",
          "name": "",
          "type": "string"
        }
      ],
      "stateMutability": "view",
      "type": "function"
    },
    {
      "inputs": [],
      "name": "totalSupply",
      "outputs": [
        {
          "internalType": "uint256",
          "name": "",
          "type": "uint256"
        }
      ],
      "stateMutability": "view",
      "type": "function"
    },
    {
      "inputs": [
        {
          "internalType": "address",
          "name": "recipient",
          "type": "address"
        },
        {
          "internalType": "uint256",
          "name": "amount",
          "type": "uint256"
        }
      ],
      "name": "transfer",
      "outputs": [
        {
          "internalType": "bool",
          "name": "",
          "type": "bool"
        }
      ],
      "stateMutability": "nonpayable",
      "type": "function"
    },
    {
      "inputs": [
        {
          "internalType": "address",
          "name": "sender",
          "type": "address"
        },
        {
          "internalType": "address",
          "name": "recipient",
          "type": "address"
        },
        {
          "internalType": "uint256",
          "name": "amount",
          "type": "uint256"
        }
      ],
      "name": "transferFrom",
      "outputs": [
        {
          "internalType": "bool",
          "name": "",
          "type": "bool"
        }
      ],
      "stateMutability": "nonpayable",
      "type": "function"
    },
    {
      "inputs": [
        {
          "internalType": "uint8",
          "name": "_mintCap",
          "type": "uint8"
        }
      ],
      "name": "updateMintCap",
      "outputs": [],
      "stateMutability": "nonpayable",
      "type": "function"
    },
    {
      "inputs": [
        {
          "internalType": "address",
          "name": "_minter",
          "type": "address"
        }
      ],
      "name": "updateMinter",
      "outputs": [],
      "stateMutability": "nonpayable",
      "type": "function"
    }
  ],
  "bytecode": "0x6101606040527f6e71edae12b1b97f4d1f60370fef10105fa2faae0126114a169c64845d6126c961014052600b805460ff191660021790553480156200004457600080fd5b50604051620031fd380380620031fd833981016040819052620000679162000937565b8380604051806040016040528060018152602001603160f81b815250868681600390805190602001906200009d929190620007ce565b508051620000b3906004906020840190620007ce565b5050825160209384012082519284019290922060e08390526101008190524660a0818152604080517f8b73c3c69bb8fe3d512ecc4cf759cc79239f7b179b0ffacaa9a75d522b39400f818901819052818301979097526060810194909452608080850193909352308483018190528151808603909301835260c09485019091528151919096012090529290925261012052505042811015620001b25760405162461bcd60e51b815260206004820152602d60248201527f456e736f3a206d696e74696e672063616e206f6e6c7920626567696e2061667460448201526c195c8819195c1b1bde5b595b9d609a1b60648201526084015b60405180910390fd5b600a819055600980546001600160a01b0319166001600160a01b038416179055620001e9826a52b7d2dcc80cd2e4000000620001f3565b5050505062000a68565b6200020a8282620002a460201b620012271760201c565b6001600160601b036200021c60025490565b1115620002855760405162461bcd60e51b815260206004820152603060248201527f4552433230566f7465733a20746f74616c20737570706c79207269736b73206f60448201526f766572666c6f77696e6720766f74657360801b6064820152608401620001a9565b6200029e60086200130e6200039760201b1783620003ac565b50505050565b6001600160a01b038216620002fc5760405162461bcd60e51b815260206004820152601f60248201527f45524332303a206d696e7420746f20746865207a65726f2061646472657373006044820152606401620001a9565b8060026000828254620003109190620009e0565b90915550506001600160a01b038216600090815260208190526040812080548392906200033f908490620009e0565b90915550506040518181526001600160a01b038316906000907fddf252ad1be2c89b69c2b068fc378daa952ba7f163c4a11628f55a4df523b3ef9060200160405180910390a3620003936000838362000563565b5050565b6000620003a58284620009e0565b9392505050565b825460009081908015620003fe5785620003c8600183620009fb565b81548110620003db57620003db62000a15565b60009182526020909120015464010000000090046001600160e01b031662000401565b60005b6001600160e01b031692506200041883858760201c565b91506000811180156200045c5750438662000435600184620009fb565b8154811062000448576200044862000a15565b60009182526020909120015463ffffffff16145b15620004d0576200047882620005af60201b6200131a1760201c565b8662000486600184620009fb565b8154811062000499576200049962000a15565b9060005260206000200160000160046101000a8154816001600160e01b0302191690836001600160e01b0316021790555062000555565b856040518060400160405280620004f2436200061e60201b6200139d1760201c565b63ffffffff1681526020016200051385620005af60201b6200131a1760201c565b6001600160e01b0390811690915282546001810184556000938452602093849020835194909301519091166401000000000263ffffffff909316929092179101555b50935093915050565b505050565b6200057b8383836200055e60201b62000d281760201c565b6001600160a01b038381166000908152600660205260408082205485841683529120546200055e9291821691168362000685565b60006001600160e01b038211156200061a5760405162461bcd60e51b815260206004820152602760248201527f53616665436173743a2076616c756520646f65736e27742066697420696e20326044820152663234206269747360c81b6064820152608401620001a9565b5090565b600063ffffffff8211156200061a5760405162461bcd60e51b815260206004820152602660248201527f53616665436173743a2076616c756520646f65736e27742066697420696e203360448201526532206269747360d01b6064820152608401620001a9565b816001600160a01b0316836001600160a01b031614158015620006a85750600081115b156200055e576001600160a01b0383161562000735576001600160a01b038316600090815260076020908152604082208291620006f29190620007c0901b620014191785620003ac565b91509150846001600160a01b0316600080516020620031dd83398151915283836040516200072a929190918252602082015260400190565b60405180910390a250505b6001600160a01b038216156200055e576001600160a01b03821660009081526007602090815260408220829162000779919062000397901b6200130e1785620003ac565b91509150836001600160a01b0316600080516020620031dd8339815191528383604051620007b1929190918252602082015260400190565b60405180910390a25050505050565b6000620003a58284620009fb565b828054620007dc9062000a2b565b90600052602060002090601f0160209004810192826200080057600085556200084b565b82601f106200081b57805160ff19168380011785556200084b565b828001600101855582156200084b579182015b828111156200084b5782518255916020019190600101906200082e565b506200061a9291505b808211156200061a576000815560010162000854565b634e487b7160e01b600052604160045260246000fd5b600082601f8301126200089257600080fd5b81516001600160401b0380821115620008af57620008af6200086a565b604051601f8301601f19908116603f01168101908282118183101715620008da57620008da6200086a565b81604052838152602092508683858801011115620008f757600080fd5b600091505b838210156200091b5785820183015181830184015290820190620008fc565b838211156200092d5760008385830101525b9695505050505050565b600080600080608085870312156200094e57600080fd5b84516001600160401b03808211156200096657600080fd5b620009748883890162000880565b955060208701519150808211156200098b57600080fd5b506200099a8782880162000880565b604087015190945090506001600160a01b0381168114620009ba57600080fd5b6060959095015193969295505050565b634e487b7160e01b600052601160045260246000fd5b60008219821115620009f657620009f6620009ca565b500190565b60008282101562000a105762000a10620009ca565b500390565b634e487b7160e01b600052603260045260246000fd5b600181811c9082168062000a4057607f821691505b6020821081141562000a6257634e487b7160e01b600052602260045260246000fd5b50919050565b60805160a05160c05160e05161010051610120516101405161271a62000ac360003960006110930152600061182a0152600061187901526000611854015260006117ad015260006117d701526000611801015261271a6000f3fe608060405234801561001057600080fd5b50600436106102265760003560e01c80636fcfff451161012a5780639ab24eb0116100bd578063c3cda5201161008c578063dd62ed3e11610071578063dd62ed3e146104e1578063e8bf25a51461051a578063f1127ed81461052c57600080fd5b8063c3cda520146104bb578063d505accf146104ce57600080fd5b80639ab24eb01461046f578063a457c2d714610482578063a9059cbb14610495578063b4b5ea57146104a857600080fd5b806379cc6790116100f957806379cc67901461042e5780637ecebe00146104415780638e539e8c1461045457806395d89b411461046757600080fd5b80636fcfff45146103b557806370a08231146103c857806376c71ca1146103f1578063782d6fe1146103fe57600080fd5b806339509351116101bd5780634eb03f6e1161018c5780635c11d62f116101715780635c11d62f1461036f5780635c19a95c1461038f5780636181625a146103a257600080fd5b80634eb03f6e14610330578063587cde1e1461034357600080fd5b806339509351146102e25780633a46b1a8146102f557806340c10f191461030857806342966c681461031d57600080fd5b806323b872dd116101f957806323b872dd146102a957806330b36cef146102bc578063313ce567146102c55780633644e515146102da57600080fd5b806306fdde031461022b5780630754617214610249578063095ea7b31461027457806318160ddd14610297575b600080fd5b610233610569565b6040516102409190612373565b60405180910390f35b60095461025c906001600160a01b031681565b6040516001600160a01b039091168152602001610240565b6102876102823660046123e4565b6105fb565b6040519015158152602001610240565b6002545b604051908152602001610240565b6102876102b736600461240e565b610611565b61029b600a5481565b60125b60405160ff9091168152602001610240565b61029b6106d5565b6102876102f03660046123e4565b6106e4565b61029b6103033660046123e4565b610720565b61031b6103163660046123e4565b61079a565b005b61031b61032b36600461244a565b61099b565b61031b61033e366004612463565b6109a8565b61025c610351366004612463565b6001600160a01b039081166000908152600660205260409020541690565b61037a6301e1338081565b60405163ffffffff9091168152602001610240565b61031b61039d366004612463565b610aa9565b61031b6103b036600461248f565b610ab3565b61037a6103c3366004612463565b610c51565b61029b6103d6366004612463565b6001600160a01b031660009081526020819052604090205490565b600b546102c89060ff1681565b61041161040c3660046123e4565b610c79565b6040516bffffffffffffffffffffffff9091168152602001610240565b61031b61043c3660046123e4565b610c8d565b61029b61044f366004612463565b610d2d565b61029b61046236600461244a565b610d4b565b610233610da7565b61029b61047d366004612463565b610db6565b6102876104903660046123e4565b610e3d565b6102876104a33660046123e4565b610eee565b6104116104b6366004612463565b610efb565b61031b6104c93660046124aa565b610f09565b61031b6104dc366004612502565b61103f565b61029b6104ef36600461256c565b6001600160a01b03918216600090815260016020908152604080832093909416825291909152205490565b600b5461028790610100900460ff1681565b61053f61053a36600461259f565b6111a3565b60408051825163ffffffff1681526020928301516001600160e01b03169281019290925201610240565b606060038054610578906125df565b80601f01602080910402602001604051908101604052809291908181526020018280546105a4906125df565b80156105f15780601f106105c6576101008083540402835291602001916105f1565b820191906000526020600020905b8154815290600101906020018083116105d457829003601f168201915b5050505050905090565b6000610608338484611425565b50600192915050565b600061061e84848461157d565b6001600160a01b0384166000908152600160209081526040808320338452909152902054828110156106bd5760405162461bcd60e51b815260206004820152602860248201527f45524332303a207472616e7366657220616d6f756e742065786365656473206160448201527f6c6c6f77616e636500000000000000000000000000000000000000000000000060648201526084015b60405180910390fd5b6106ca8533858403611425565b506001949350505050565b60006106df6117a0565b905090565b3360008181526001602090815260408083206001600160a01b0387168452909152812054909161060891859061071b90869061262a565b611425565b60004382106107715760405162461bcd60e51b815260206004820152601f60248201527f4552433230566f7465733a20626c6f636b206e6f7420796574206d696e65640060448201526064016106b4565b6001600160a01b038316600090815260076020526040902061079390836118c7565b9392505050565b600081116108105760405162461bcd60e51b815260206004820152602360248201527f456e736f236d696e743a2073686f756c6420626520677265617465722074686160448201527f6e2030000000000000000000000000000000000000000000000000000000000060648201526084016106b4565b6009546001600160a01b031633146108905760405162461bcd60e51b815260206004820152602360248201527f456e736f236d696e743a206f6e6c7920746865206d696e7465722063616e206d60448201527f696e74000000000000000000000000000000000000000000000000000000000060648201526084016106b4565b600a544210156109085760405162461bcd60e51b815260206004820152602260248201527f456e736f236d696e743a206d696e74696e67206e6f7420616c6c6f776564207960448201527f657400000000000000000000000000000000000000000000000000000000000060648201526084016106b4565b606461091360025490565b600b54610923919060ff16612642565b61092d919061267f565b81111561097c5760405162461bcd60e51b815260206004820152601c60248201527f456e736f236d696e743a206578636565646564206d696e74206361700000000060448201526064016106b4565b61098a6301e133804261262a565b600a556109978282611984565b5050565b6109a53382611a20565b50565b6009546001600160a01b03163314610a285760405162461bcd60e51b815260206004820152603d60248201527f456e736f237365744d696e7465723a206f6e6c7920746865206d696e7465722060448201527f63616e206368616e676520746865206d696e746572206164647265737300000060648201526084016106b4565b600954604080516001600160a01b03928316815291831660208301527f3b0007eb941cf645526cbb3a4fdaecda9d28ce4843167d9263b536a1f1edc0f6910160405180910390a1600980547fffffffffffffffffffffffff0000000000000000000000000000000000000000166001600160a01b0392909216919091179055565b6109a53382611a38565b6009546001600160a01b03163314610b335760405162461bcd60e51b815260206004820152603660248201527f456e736f237570646174654d696e744361703a206f6e6c7920746865206d696e60448201527f7465722063616e206368616e6765206d696e744361700000000000000000000060648201526084016106b4565b600b54610100900460ff1615610bb15760405162461bcd60e51b815260206004820152602860248201527f456e736f237570646174654d696e744361703a206d696e74436170206973206960448201527f6d6d757461626c6500000000000000000000000000000000000000000000000060648201526084016106b4565b600b80546101007fffffffffffffffffffffffffffffffffffffffffffffffffffffffffffff00ff8216179091556040805160ff928316815291831660208301527f0e0a01cf83ee8667caa2656c7987373c9c4767464954b8e269275c644cb1328d910160405180910390a1600b80547fffffffffffffffffffffffffffffffffffffffffffffffffffffffffffffff001660ff92909216919091179055565b6001600160a01b038116600090815260076020526040812054610c739061139d565b92915050565b6000610793610c888484610720565b611ac9565b6000610c9983336104ef565b905081811015610d115760405162461bcd60e51b815260206004820152602c60248201527f456e736f236275726e46726f6d3a206275726e20616d6f756e7420657863656560448201527f647320616c6c6f77616e6365000000000000000000000000000000000000000060648201526084016106b4565b610d1e8333848403611425565b610d288383611a20565b505050565b6001600160a01b038116600090815260056020526040812054610c73565b6000438210610d9c5760405162461bcd60e51b815260206004820152601f60248201527f4552433230566f7465733a20626c6f636b206e6f7420796574206d696e65640060448201526064016106b4565b610c736008836118c7565b606060048054610578906125df565b6001600160a01b0381166000908152600760205260408120548015610e2a576001600160a01b0383166000908152600760205260409020610df86001836126a1565b81548110610e0857610e086126b8565b60009182526020909120015464010000000090046001600160e01b0316610e2d565b60005b6001600160e01b03169392505050565b3360009081526001602090815260408083206001600160a01b038616845290915281205482811015610ed75760405162461bcd60e51b815260206004820152602560248201527f45524332303a2064656372656173656420616c6c6f77616e63652062656c6f7760448201527f207a65726f00000000000000000000000000000000000000000000000000000060648201526084016106b4565b610ee43385858403611425565b5060019392505050565b600061060833848461157d565b6000610c73610c8883610db6565b83421115610f595760405162461bcd60e51b815260206004820152601d60248201527f4552433230566f7465733a207369676e6174757265206578706972656400000060448201526064016106b4565b604080517fe48329057bfd03d55e49b547132e39cffd9c1820ad7b9d4c5307691425d15adf60208201526001600160a01b038816918101919091526060810186905260808101859052600090610fd390610fcb9060a00160405160208183030381529060405280519060200120611b4d565b858585611bb6565b9050610fde81611bde565b861461102c5760405162461bcd60e51b815260206004820152601960248201527f4552433230566f7465733a20696e76616c6964206e6f6e63650000000000000060448201526064016106b4565b6110368188611a38565b50505050505050565b8342111561108f5760405162461bcd60e51b815260206004820152601d60248201527f45524332305065726d69743a206578706972656420646561646c696e6500000060448201526064016106b4565b60007f00000000000000000000000000000000000000000000000000000000000000008888886110be8c611bde565b6040805160208101969096526001600160a01b0394851690860152929091166060840152608083015260a082015260c0810186905260e001604051602081830303815290604052805190602001209050600061111982611b4d565b9050600061112982878787611bb6565b9050896001600160a01b0316816001600160a01b03161461118c5760405162461bcd60e51b815260206004820152601e60248201527f45524332305065726d69743a20696e76616c6964207369676e6174757265000060448201526064016106b4565b6111978a8a8a611425565b50505050505050505050565b60408051808201909152600080825260208201526001600160a01b0383166000908152600760205260409020805463ffffffff84169081106111e7576111e76126b8565b60009182526020918290206040805180820190915291015463ffffffff8116825264010000000090046001600160e01b0316918101919091529392505050565b6001600160a01b03821661127d5760405162461bcd60e51b815260206004820152601f60248201527f45524332303a206d696e7420746f20746865207a65726f20616464726573730060448201526064016106b4565b806002600082825461128f919061262a565b90915550506001600160a01b038216600090815260208190526040812080548392906112bc90849061262a565b90915550506040518181526001600160a01b038316906000907fddf252ad1be2c89b69c2b068fc378daa952ba7f163c4a11628f55a4df523b3ef9060200160405180910390a361099760008383611c06565b6000610793828461262a565b60006001600160e01b038211156113995760405162461bcd60e51b815260206004820152602760248201527f53616665436173743a2076616c756520646f65736e27742066697420696e203260448201527f323420626974730000000000000000000000000000000000000000000000000060648201526084016106b4565b5090565b600063ffffffff8211156113995760405162461bcd60e51b815260206004820152602660248201527f53616665436173743a2076616c756520646f65736e27742066697420696e203360448201527f322062697473000000000000000000000000000000000000000000000000000060648201526084016106b4565b600061079382846126a1565b6001600160a01b0383166114a05760405162461bcd60e51b8152602060048201526024808201527f45524332303a20617070726f76652066726f6d20746865207a65726f2061646460448201527f726573730000000000000000000000000000000000000000000000000000000060648201526084016106b4565b6001600160a01b03821661151c5760405162461bcd60e51b815260206004820152602260248201527f45524332303a20617070726f766520746f20746865207a65726f20616464726560448201527f737300000000000000000000000000000000000000000000000000000000000060648201526084016106b4565b6001600160a01b0383811660008181526001602090815260408083209487168084529482529182902085905590518481527f8c5be1e5ebec7d5bd14f71427d1e84f3dd0314c0f7b2291e5b200ac8c7c3b925910160405180910390a3505050565b6001600160a01b0383166115f95760405162461bcd60e51b815260206004820152602560248201527f45524332303a207472616e736665722066726f6d20746865207a65726f20616460448201527f647265737300000000000000000000000000000000000000000000000000000060648201526084016106b4565b6001600160a01b0382166116755760405162461bcd60e51b815260206004820152602360248201527f45524332303a207472616e7366657220746f20746865207a65726f206164647260448201527f657373000000000000000000000000000000000000000000000000000000000060648201526084016106b4565b6001600160a01b038316600090815260208190526040902054818110156117045760405162461bcd60e51b815260206004820152602660248201527f45524332303a207472616e7366657220616d6f756e742065786365656473206260448201527f616c616e6365000000000000000000000000000000000000000000000000000060648201526084016106b4565b6001600160a01b0380851660009081526020819052604080822085850390559185168152908120805484929061173b90849061262a565b92505081905550826001600160a01b0316846001600160a01b03167fddf252ad1be2c89b69c2b068fc378daa952ba7f163c4a11628f55a4df523b3ef8460405161178791815260200190565b60405180910390a361179a848484611c06565b50505050565b6000306001600160a01b037f0000000000000000000000000000000000000000000000000000000000000000161480156117f957507f000000000000000000000000000000000000000000000000000000000000000046145b1561182357507f000000000000000000000000000000000000000000000000000000000000000090565b50604080517f00000000000000000000000000000000000000000000000000000000000000006020808301919091527f0000000000000000000000000000000000000000000000000000000000000000828401527f000000000000000000000000000000000000000000000000000000000000000060608301524660808301523060a0808401919091528351808403909101815260c0909201909252805191012090565b8154600090815b8181101561192b5760006118e28284611c38565b9050848682815481106118f7576118f76126b8565b60009182526020909120015463ffffffff16111561191757809250611925565b61192281600161262a565b91505b506118ce565b811561196f578461193d6001846126a1565b8154811061194d5761194d6126b8565b60009182526020909120015464010000000090046001600160e01b0316611972565b60005b6001600160e01b031695945050505050565b61198e8282611227565b6002546bffffffffffffffffffffffff1015611a125760405162461bcd60e51b815260206004820152603060248201527f4552433230566f7465733a20746f74616c20737570706c79207269736b73206f60448201527f766572666c6f77696e6720766f7465730000000000000000000000000000000060648201526084016106b4565b61179a600861130e83611c53565b611a2a8282611dcc565b61179a600861141983611c53565b6001600160a01b038281166000818152600660208181526040808420805485845282862054949093528787167fffffffffffffffffffffffff00000000000000000000000000000000000000008416811790915590519190951694919391928592917f3134e8a2e6d97e929a7e54011ea5485d7d196dd5f0ba4d4ef95803e8e3fc257f9190a461179a828483611f58565b60006bffffffffffffffffffffffff8211156113995760405162461bcd60e51b815260206004820152602660248201527f53616665436173743a2076616c756520646f65736e27742066697420696e203960448201527f362062697473000000000000000000000000000000000000000000000000000060648201526084016106b4565b6000610c73611b5a6117a0565b836040517f19010000000000000000000000000000000000000000000000000000000000006020820152602281018390526042810182905260009060620160405160208183030381529060405280519060200120905092915050565b6000806000611bc787878787612095565b91509150611bd481612182565b5095945050505050565b6001600160a01b03811660009081526005602052604090208054600181018255905b50919050565b6001600160a01b03838116600090815260066020526040808220548584168352912054610d2892918216911683611f58565b6000611c47600284841861267f565b6107939084841661262a565b825460009081908015611c9e5785611c6c6001836126a1565b81548110611c7c57611c7c6126b8565b60009182526020909120015464010000000090046001600160e01b0316611ca1565b60005b6001600160e01b03169250611cba83858763ffffffff16565b9150600081118015611cf857504386611cd46001846126a1565b81548110611ce457611ce46126b8565b60009182526020909120015463ffffffff16145b15611d5857611d068261131a565b86611d126001846126a1565b81548110611d2257611d226126b8565b9060005260206000200160000160046101000a8154816001600160e01b0302191690836001600160e01b03160217905550611dc3565b856040518060400160405280611d6d4361139d565b63ffffffff168152602001611d818561131a565b6001600160e01b0390811690915282546001810184556000938452602093849020835194909301519091166401000000000263ffffffff909316929092179101555b50935093915050565b6001600160a01b038216611e485760405162461bcd60e51b815260206004820152602160248201527f45524332303a206275726e2066726f6d20746865207a65726f2061646472657360448201527f730000000000000000000000000000000000000000000000000000000000000060648201526084016106b4565b6001600160a01b03821660009081526020819052604090205481811015611ed75760405162461bcd60e51b815260206004820152602260248201527f45524332303a206275726e20616d6f756e7420657863656564732062616c616e60448201527f636500000000000000000000000000000000000000000000000000000000000060648201526084016106b4565b6001600160a01b0383166000908152602081905260408120838303905560028054849290611f069084906126a1565b90915550506040518281526000906001600160a01b038516907fddf252ad1be2c89b69c2b068fc378daa952ba7f163c4a11628f55a4df523b3ef9060200160405180910390a3610d2883600084611c06565b816001600160a01b0316836001600160a01b031614158015611f7a5750600081115b15610d28576001600160a01b03831615612008576001600160a01b03831660009081526007602052604081208190611fb59061141985611c53565b91509150846001600160a01b03167fdec2bacdd2f05b59de34da9b523dff8be42e5e38e818c82fdb0bae774387a7248383604051611ffd929190918252602082015260400190565b60405180910390a250505b6001600160a01b03821615610d28576001600160a01b0382166000908152600760205260408120819061203e9061130e85611c53565b91509150836001600160a01b03167fdec2bacdd2f05b59de34da9b523dff8be42e5e38e818c82fdb0bae774387a7248383604051612086929190918252602082015260400190565b60405180910390a25050505050565b6000807f7fffffffffffffffffffffffffffffff5d576e7357a4501ddfe92f46681b20a08311156120cc5750600090506003612179565b8460ff16601b141580156120e457508460ff16601c14155b156120f55750600090506004612179565b6040805160008082526020820180845289905260ff881692820192909252606081018690526080810185905260019060a0016020604051602081039080840390855afa158015612149573d6000803e3d6000fd5b5050604051601f1901519150506001600160a01b03811661217257600060019250925050612179565b9150600090505b94509492505050565b6000816004811115612196576121966126ce565b141561219f5750565b60018160048111156121b3576121b36126ce565b14156122015760405162461bcd60e51b815260206004820152601860248201527f45434453413a20696e76616c6964207369676e6174757265000000000000000060448201526064016106b4565b6002816004811115612215576122156126ce565b14156122635760405162461bcd60e51b815260206004820152601f60248201527f45434453413a20696e76616c6964207369676e6174757265206c656e6774680060448201526064016106b4565b6003816004811115612277576122776126ce565b14156122eb5760405162461bcd60e51b815260206004820152602260248201527f45434453413a20696e76616c6964207369676e6174757265202773272076616c60448201527f756500000000000000000000000000000000000000000000000000000000000060648201526084016106b4565b60048160048111156122ff576122ff6126ce565b14156109a55760405162461bcd60e51b815260206004820152602260248201527f45434453413a20696e76616c6964207369676e6174757265202776272076616c60448201527f756500000000000000000000000000000000000000000000000000000000000060648201526084016106b4565b600060208083528351808285015260005b818110156123a057858101830151858201604001528201612384565b818111156123b2576000604083870101525b50601f01601f1916929092016040019392505050565b80356001600160a01b03811681146123df57600080fd5b919050565b600080604083850312156123f757600080fd5b612400836123c8565b946020939093013593505050565b60008060006060848603121561242357600080fd5b61242c846123c8565b925061243a602085016123c8565b9150604084013590509250925092565b60006020828403121561245c57600080fd5b5035919050565b60006020828403121561247557600080fd5b610793826123c8565b803560ff811681146123df57600080fd5b6000602082840312156124a157600080fd5b6107938261247e565b60008060008060008060c087890312156124c357600080fd5b6124cc876123c8565b955060208701359450604087013593506124e86060880161247e565b92506080870135915060a087013590509295509295509295565b600080600080600080600060e0888a03121561251d57600080fd5b612526886123c8565b9650612534602089016123c8565b955060408801359450606088013593506125506080890161247e565b925060a0880135915060c0880135905092959891949750929550565b6000806040838503121561257f57600080fd5b612588836123c8565b9150612596602084016123c8565b90509250929050565b600080604083850312156125b257600080fd5b6125bb836123c8565b9150602083013563ffffffff811681146125d457600080fd5b809150509250929050565b600181811c908216806125f357607f821691505b60208210811415611c0057634e487b7160e01b600052602260045260246000fd5b634e487b7160e01b600052601160045260246000fd5b6000821982111561263d5761263d612614565b500190565b6000817fffffffffffffffffffffffffffffffffffffffffffffffffffffffffffffffff048311821515161561267a5761267a612614565b500290565b60008261269c57634e487b7160e01b600052601260045260246000fd5b500490565b6000828210156126b3576126b3612614565b500390565b634e487b7160e01b600052603260045260246000fd5b634e487b7160e01b600052602160045260246000fdfea26469706673582212204c0ad1d9cfb815928541cdfe5960a6cf848b033ce47649f866881bba3b0cd4e964736f6c63430008090033dec2bacdd2f05b59de34da9b523dff8be42e5e38e818c82fdb0bae774387a724",
  "linkReferences": {},
  "deployedLinkReferences": {}
}