{
  "_format": "hh-sol-artifact-1",
  "contractName": "CompoundAdapter",
  "sourceName": "contracts/adapters/lending/CompoundAdapter.sol",
  "abi": [
    {
      "inputs": [
        {
          "internalType": "address",
          "name": "comptroller_",
          "type": "address"
        },
        {
          "internalType": "address",
          "name": "weth_",
          "type": "address"
        },
        {
          "internalType": "address",
          "name": "tokenRegistry_",
          "type": "address"
        },
        {
          "internalType": "uint256",
          "name": "categoryIndex_",
          "type": "uint256"
        }
      ],
      "stateMutability": "nonpayable",
      "type": "constructor"
    },
    {
      "inputs": [],
      "name": "categoryIndex",
      "outputs": [
        {
          "internalType": "uint256",
          "name": "",
          "type": "uint256"
        }
      ],
      "stateMutability": "view",
      "type": "function"
    },
    {
      "inputs": [
        {
          "internalType": "address[]",
          "name": "tokens",
          "type": "address[]"
        }
      ],
      "name": "claim",
      "outputs": [],
      "stateMutability": "nonpayable",
      "type": "function"
    },
    {
      "inputs": [],
      "name": "comptroller",
      "outputs": [
        {
          "internalType": "contract IComptroller",
          "name": "",
          "type": "address"
        }
      ],
      "stateMutability": "view",
      "type": "function"
    },
    {
      "inputs": [
        {
          "internalType": "address",
          "name": "token",
          "type": "address"
        }
      ],
      "name": "rewardsTokens",
      "outputs": [
        {
          "internalType": "address[]",
          "name": "",
          "type": "address[]"
        }
      ],
      "stateMutability": "view",
      "type": "function"
    },
    {
      "inputs": [
        {
          "internalType": "uint256",
          "name": "amount",
          "type": "uint256"
        },
        {
          "internalType": "uint256",
          "name": "expected",
          "type": "uint256"
        },
        {
          "internalType": "address",
          "name": "tokenIn",
          "type": "address"
        },
        {
          "internalType": "address",
          "name": "tokenOut",
          "type": "address"
        },
        {
          "internalType": "address",
          "name": "from",
          "type": "address"
        },
        {
          "internalType": "address",
          "name": "to",
          "type": "address"
        }
      ],
      "name": "swap",
      "outputs": [],
      "stateMutability": "nonpayable",
      "type": "function"
    },
    {
      "inputs": [],
      "name": "tokenRegistry",
      "outputs": [
        {
          "internalType": "contract ITokenRegistry",
          "name": "",
          "type": "address"
        }
      ],
      "stateMutability": "view",
      "type": "function"
    },
    {
      "inputs": [],
      "name": "weth",
      "outputs": [
        {
          "internalType": "address",
          "name": "",
          "type": "address"
        }
      ],
      "stateMutability": "view",
      "type": "function"
    }
  ],
  "bytecode": "0x6101006040523480156200001257600080fd5b50604051620013f0380380620013f08339810160408190526200003591620000be565b6001600160601b0319606084901b1660805282828280620000735760405162461bcd60e51b81526004016200006a9062000112565b60405180910390fd5b6001600160601b0319606092831b811660a05260c09190915295901b90941660e052506200013c92505050565b80516001600160a01b0381168114620000b857600080fd5b92915050565b60008060008060808587031215620000d4578384fd5b620000e08686620000a0565b9350620000f18660208701620000a0565b9250620001028660408701620000a0565b6060959095015193969295505050565b60208082526010908201526f496e76616c69642063617465676f727960801b604082015260600190565b60805160601c60a05160601c60c05160e05160601c6112616200018f600039806106f5528061078a52806107f75250806108b55280610a035250806107ae528061096752508061076652506112616000f3fe608060405234801561001057600080fd5b506004361061007d5760003560e01c80635fe3b5671161005b5780635fe3b567146100c85780639d23c4c7146100d0578063b901d3c0146100d8578063ea99fc04146100f85761007d565b8063230f11c714610082578063318d9e5d146100975780633fc8cef3146100aa575b600080fd5b610095610090366004610dde565b61010d565b005b6100956100a5366004610d37565b6106df565b6100b2610764565b6040516100bf9190610eba565b60405180910390f35b6100b2610788565b6100b26107ac565b6100eb6100e6366004610cff565b6107d0565b6040516100bf9190610f81565b6101006108b3565b6040516100bf91906111de565b826001600160a01b0316846001600160a01b031614156101485760405162461bcd60e51b815260040161013f90611147565b60405180910390fd5b6001600160a01b0382163014610292576040516370a0823160e01b81526000906001600160a01b038616906370a0823190610187903090600401610eba565b60206040518083038186803b15801561019f57600080fd5b505afa1580156101b3573d6000803e3d6000fd5b505050506040513d601f19601f820116820180604052508101906101d79190610dc6565b90506101ee6001600160a01b03861684308a6108d7565b6040516370a0823160e01b81526000906001600160a01b038716906370a082319061021d903090600401610eba565b60206040518083038186803b15801561023557600080fd5b505afa158015610249573d6000803e3d6000fd5b505050506040513d601f19601f8201168201806040525081019061026d9190610dc6565b905081811161028e5760405162461bcd60e51b815260040161013f90611001565b0395505b600061029d84610962565b1561047e576000849050856001600160a01b0316816001600160a01b0316636f307dc36040518163ffffffff1660e01b815260040160206040518083038186803b1580156102ea57600080fd5b505afa1580156102fe573d6000803e3d6000fd5b505050506040513d601f19601f820116820180604052508101906103229190610d1b565b6001600160a01b0316146103485760405162461bcd60e51b815260040161013f90611036565b61035c6001600160a01b038716868a610a2a565b60405163140e25ad60e31b81526001600160a01b0382169063a0712d6890610388908b906004016111de565b602060405180830381600087803b1580156103a257600080fd5b505af11580156103b6573d6000803e3d6000fd5b505050506040513d601f19601f820116820180604052508101906103da9190610dc6565b604051636eb1769f60e11b81529092506001600160a01b0387169063dd62ed3e9061040b9030908990600401610ece565b60206040518083038186803b15801561042357600080fd5b505afa158015610437573d6000803e3d6000fd5b505050506040513d601f19601f8201168201806040525081019061045b9190610dc6565b156104785760405162461bcd60e51b815260040161013f906111b5565b506105cb565b61048785610962565b6104a35760405162461bcd60e51b815260040161013f906110a2565b6000859050846001600160a01b0316816001600160a01b0316636f307dc36040518163ffffffff1660e01b815260040160206040518083038186803b1580156104eb57600080fd5b505afa1580156104ff573d6000803e3d6000fd5b505050506040513d601f19601f820116820180604052508101906105239190610d1b565b6001600160a01b0316146105495760405162461bcd60e51b815260040161013f90611036565b60405163db006a7560e01b81526001600160a01b0382169063db006a7590610575908b906004016111de565b602060405180830381600087803b15801561058f57600080fd5b505af11580156105a3573d6000803e3d6000fd5b505050506040513d601f19601f820116820180604052508101906105c79190610dc6565b9150505b8015610610576105da81610a4e565b6040516020016105ea9190610e69565b60408051601f198184030181529082905262461bcd60e51b825261013f91600401610fce565b6040516370a0823160e01b81526000906001600160a01b038616906370a082319061063f903090600401610eba565b60206040518083038186803b15801561065757600080fd5b505afa15801561066b573d6000803e3d6000fd5b505050506040513d601f19601f8201168201806040525081019061068f9190610dc6565b9050868110156106b15760405162461bcd60e51b815260040161013f90611110565b6001600160a01b03831630146106d5576106d56001600160a01b0386168483610b38565b5050505050505050565b60405162e1ed9760e51b81526001600160a01b037f00000000000000000000000000000000000000000000000000000000000000001690631c3db2e09061072e90309086908690600401610f0c565b600060405180830381600087803b15801561074857600080fd5b505af115801561075c573d6000803e3d6000fd5b505050505050565b7f000000000000000000000000000000000000000000000000000000000000000081565b7f000000000000000000000000000000000000000000000000000000000000000081565b7f000000000000000000000000000000000000000000000000000000000000000081565b604080516001808252818301909252606091829190602080830190803683370190505090507f00000000000000000000000000000000000000000000000000000000000000006001600160a01b0316639d1b5a0a6040518163ffffffff1660e01b815260040160206040518083038186803b15801561084e57600080fd5b505afa158015610862573d6000803e3d6000fd5b505050506040513d601f19601f820116820180604052508101906108869190610d1b565b8160008151811061089357fe5b6001600160a01b039092166020928302919091019091015290505b919050565b7f000000000000000000000000000000000000000000000000000000000000000081565b61095c846323b872dd60e01b8585856040516024016108f893929190610ee8565b60408051601f198184030181529190526020810180517bffffffffffffffffffffffffffffffffffffffffffffffffffffffff167fffffffff0000000000000000000000000000000000000000000000000000000090931692909217909152610b57565b50505050565b6000807f00000000000000000000000000000000000000000000000000000000000000006001600160a01b03166346a74837846040518263ffffffff1660e01b81526004016109b19190610eba565b60206040518083038186803b1580156109c957600080fd5b505afa1580156109dd573d6000803e3d6000fd5b505050506040513d601f19601f82011682018060405250810190610a019190610dc6565b7f0000000000000000000000000000000000000000000000000000000000000000149392505050565b610a498363095ea7b360e01b84846040516024016108f8929190610f68565b505050565b606081610a7357506040805180820190915260018152600360fc1b60208201526108ae565b8160005b8115610a8b57600101600a82049150610a77565b60608167ffffffffffffffff81118015610aa457600080fd5b506040519080825280601f01601f191660200182016040528015610acf576020820181803683370190505b5090505b8415610b305760001990910190600a850660300160f81b818381518110610af657fe5b60200101907effffffffffffffffffffffffffffffffffffffffffffffffffffffffffffff1916908160001a905350600a85049450610ad3565b949350505050565b610a498363a9059cbb60e01b84846040516024016108f8929190610f68565b6060610bac826040518060400160405280602081526020017f5361666545524332303a206c6f772d6c6576656c2063616c6c206661696c6564815250856001600160a01b0316610be69092919063ffffffff16565b805190915015610a495780806020019051810190610bca9190610da6565b610a495760405162461bcd60e51b815260040161013f906110d9565b6060610bf58484600085610bff565b90505b9392505050565b606082471015610c215760405162461bcd60e51b815260040161013f9061105c565b610c2a85610cc0565b610c465760405162461bcd60e51b815260040161013f9061117e565b60006060866001600160a01b03168587604051610c639190610e4d565b60006040518083038185875af1925050503d8060008114610ca0576040519150601f19603f3d011682016040523d82523d6000602084013e610ca5565b606091505b5091509150610cb5828286610cc6565b979650505050505050565b3b151590565b60608315610cd5575081610bf8565b825115610ce55782518084602001fd5b8160405162461bcd60e51b815260040161013f9190610fce565b600060208284031215610d10578081fd5b8135610bf881611213565b600060208284031215610d2c578081fd5b8151610bf881611213565b60008060208385031215610d49578081fd5b823567ffffffffffffffff80821115610d60578283fd5b818501915085601f830112610d73578283fd5b813581811115610d81578384fd5b8660208083028501011115610d94578384fd5b60209290920196919550909350505050565b600060208284031215610db7578081fd5b81518015158114610bf8578182fd5b600060208284031215610dd7578081fd5b5051919050565b60008060008060008060c08789031215610df6578182fd5b86359550602087013594506040870135610e0f81611213565b93506060870135610e1f81611213565b92506080870135610e2f81611213565b915060a0870135610e3f81611213565b809150509295509295509295565b60008251610e5f8184602087016111e7565b9190910192915050565b60007f737761703a20436f6d706f756e64206572726f7220280000000000000000000082528251610ea18160168501602087016111e7565b61149760f11b6016939091019283015250601801919050565b6001600160a01b0391909116815260200190565b6001600160a01b0392831681529116602082015260400190565b6001600160a01b039384168152919092166020820152604081019190915260600190565b6001600160a01b03848116825260406020808401829052908301849052600091859160608501845b87811015610f5b578435610f4781611213565b841682529382019390820190600101610f34565b5098975050505050505050565b6001600160a01b03929092168252602082015260400190565b6020808252825182820181905260009190848201906040850190845b81811015610fc25783516001600160a01b031683529284019291840191600101610f9d565b50909695505050505050565b6000602082528251806020840152610fed8160408501602087016111e7565b601f01601f19169190910160400192915050565b6020808252818101527f4e6f20746f6b656e73207472616e7366657272656420746f2061646170746572604082015260600190565b6020808252600c908201526b496e636f6d70617469626c6560a01b604082015260600190565b60208082526026908201527f416464726573733a20696e73756666696369656e742062616c616e636520666f6040820152651c8818d85b1b60d21b606082015260800190565b60208082526011908201527f4e6f20436f6d706f756e6420746f6b656e000000000000000000000000000000604082015260600190565b60208082526013908201527f5361666545524332303a20217375636365737300000000000000000000000000604082015260600190565b6020808252601c908201527f496e73756666696369656e7420746f6b656e4f757420616d6f756e7400000000604082015260600190565b60208082526013908201527f546f6b656e732063616e6e6f74206d6174636800000000000000000000000000604082015260600190565b6020808252601d908201527f416464726573733a2063616c6c20746f206e6f6e2d636f6e7472616374000000604082015260600190565b6020808252600f908201526e0496e636f6d706c657465207377617608c1b604082015260600190565b90815260200190565b60005b838110156112025781810151838201526020016111ea565b8381111561095c5750506000910152565b6001600160a01b038116811461122857600080fd5b5056fea26469706673582212205a96250b9a2f7f551f8e3bc33223d221dff09f0789b6b84c3bb047ceb4d690d364736f6c634300060c0033",
  "linkReferences": {},
  "deployedLinkReferences": {}
}