{
  "_format": "hh-sol-artifact-1",
  "contractName": "CompoundAdapter",
  "sourceName": "contracts/adapters/lending/CompoundAdapter.sol",
  "abi": [
    {
      "inputs": [
        {
          "internalType": "address",
          "name": "comptroller_",
          "type": "address"
        },
        {
          "internalType": "address",
          "name": "weth_",
          "type": "address"
        }
      ],
      "stateMutability": "nonpayable",
      "type": "constructor"
    },
    {
      "inputs": [
        {
          "internalType": "address",
          "name": "token",
          "type": "address"
        }
      ],
      "name": "claim",
      "outputs": [],
      "stateMutability": "nonpayable",
      "type": "function"
    },
    {
      "inputs": [],
      "name": "comptroller",
      "outputs": [
        {
          "internalType": "contract IComptroller",
          "name": "",
          "type": "address"
        }
      ],
      "stateMutability": "view",
      "type": "function"
    },
    {
      "inputs": [],
      "name": "gasCostProvider",
      "outputs": [
        {
          "internalType": "contract GasCostProvider",
          "name": "",
          "type": "address"
        }
      ],
      "stateMutability": "view",
      "type": "function"
    },
    {
      "inputs": [
        {
          "internalType": "uint256",
          "name": "amount",
          "type": "uint256"
        },
        {
          "internalType": "address",
          "name": "tokenIn",
          "type": "address"
        },
        {
          "internalType": "address",
          "name": "tokenOut",
          "type": "address"
        }
      ],
      "name": "spotPrice",
      "outputs": [
        {
          "internalType": "uint256",
          "name": "",
          "type": "uint256"
        }
      ],
      "stateMutability": "view",
      "type": "function"
    },
    {
      "inputs": [
        {
          "internalType": "uint256",
          "name": "amount",
          "type": "uint256"
        },
        {
          "internalType": "uint256",
          "name": "expected",
          "type": "uint256"
        },
        {
          "internalType": "address",
          "name": "tokenIn",
          "type": "address"
        },
        {
          "internalType": "address",
          "name": "tokenOut",
          "type": "address"
        },
        {
          "internalType": "address",
          "name": "from",
          "type": "address"
        },
        {
          "internalType": "address",
          "name": "to",
          "type": "address"
        }
      ],
      "name": "swap",
      "outputs": [],
      "stateMutability": "nonpayable",
      "type": "function"
    },
    {
      "inputs": [],
      "name": "weth",
      "outputs": [
        {
          "internalType": "address",
          "name": "",
          "type": "address"
        }
      ],
      "stateMutability": "view",
      "type": "function"
    }
  ],
  "bytecode": "0x60e06040523480156200001157600080fd5b506040516200175f3803806200175f8339810160408190526200003491620000b4565b6001600160601b0319606082811b821660805283901b1660a0526040516101909033906200006290620000a6565b6200006f929190620000f2565b604051809103906000f0801580156200008c573d6000803e3d6000fd5b5060601b6001600160601b03191660c05250620001229050565b610557806200120883390190565b60008060408385031215620000c7578182fd5b8251620000d48162000109565b6020840151909250620000e78162000109565b809150509250929050565b9182526001600160a01b0316602082015260400190565b6001600160a01b03811681146200011f57600080fd5b50565b60805160601c60a05160601c60c05160601c6110a66200016260003980610884528061092e52508061013152806105d55250806105b152506110a66000f3fe608060405234801561001057600080fd5b50600436106100625760003560e01c80631e83409a14610067578063230f11c71461007c5780633fc8cef31461008f5780635fe3b567146100ad57806377ec159d146100b5578063a555e74b146100d5575b600080fd5b61007a610075366004610c76565b6100dd565b005b61007a61008a366004610d27565b6101a0565b6100976105af565b6040516100a49190610db2565b60405180910390f35b6100976105d3565b6100c86100c3366004610ce6565b6105f7565b6040516100a49190611023565b610097610882565b60408051600180825281830190925260609160208083019080368337019050509050818160008151811061010d57fe5b6001600160a01b03928316602091820292909201015260405162e1ed9760e51b81527f000000000000000000000000000000000000000000000000000000000000000090911690631c3db2e09061016a9030908590600401610dea565b600060405180830381600087803b15801561018457600080fd5b505af1158015610198573d6000803e3d6000fd5b505050505050565b826001600160a01b0316846001600160a01b031614156101db5760405162461bcd60e51b81526004016101d290610f75565b60405180910390fd5b6001600160a01b0382163014610200576102006001600160a01b0385168330896108a6565b61020983610904565b156103ba576000839050846001600160a01b0316816001600160a01b0316636f307dc36040518163ffffffff1660e01b815260040160206040518083038186803b15801561025657600080fd5b505afa15801561026a573d6000803e3d6000fd5b505050506040513d601f19601f8201168201806040525081019061028e9190610c92565b6001600160a01b0316146102b45760405162461bcd60e51b81526004016101d290610e92565b60405163095ea7b360e01b81526001600160a01b0386169063095ea7b3906102e29087908b90600401610e46565b602060405180830381600087803b1580156102fc57600080fd5b505af1158015610310573d6000803e3d6000fd5b505050506040513d601f19601f820116820180604052508101906103349190610cae565b5060405163140e25ad60e31b81526001600160a01b0382169063a0712d6890610361908a90600401611023565b602060405180830381600087803b15801561037b57600080fd5b505af115801561038f573d6000803e3d6000fd5b505050506040513d601f19601f820116820180604052508101906103b39190610cce565b50506104e1565b6000849050836001600160a01b0316816001600160a01b0316636f307dc36040518163ffffffff1660e01b815260040160206040518083038186803b15801561040257600080fd5b505afa158015610416573d6000803e3d6000fd5b505050506040513d601f19601f8201168201806040525081019061043a9190610c92565b6001600160a01b0316146104605760405162461bcd60e51b81526004016101d290610e92565b60405163db006a7560e01b81526001600160a01b0382169063db006a759061048c908a90600401611023565b602060405180830381600087803b1580156104a657600080fd5b505af11580156104ba573d6000803e3d6000fd5b505050506040513d601f19601f820116820180604052508101906104de9190610cce565b50505b6040516370a0823160e01b81526000906001600160a01b038516906370a0823190610510903090600401610db2565b60206040518083038186803b15801561052857600080fd5b505afa15801561053c573d6000803e3d6000fd5b505050506040513d601f19601f820116820180604052508101906105609190610cce565b9050858110156105825760405162461bcd60e51b81526004016101d290610efe565b6001600160a01b03821630146105a6576105a66001600160a01b03851683836109f3565b50505050505050565b7f000000000000000000000000000000000000000000000000000000000000000081565b7f000000000000000000000000000000000000000000000000000000000000000081565b6000816001600160a01b0316836001600160a01b0316141561061a57508261087b565b61062382610904565b15610751576000829050836001600160a01b0316816001600160a01b0316636f307dc36040518163ffffffff1660e01b815260040160206040518083038186803b15801561067057600080fd5b505afa158015610684573d6000803e3d6000fd5b505050506040513d601f19601f820116820180604052508101906106a89190610c92565b6001600160a01b0316141561074b57610743816001600160a01b031663182df0f56040518163ffffffff1660e01b815260040160206040518083038186803b1580156106f357600080fd5b505afa158015610707573d6000803e3d6000fd5b505050506040513d601f19601f8201168201806040525081019061072b9190610cce565b61073d87670de0b6b3a7640000610a17565b90610a5a565b91505061087b565b50610877565b61075a83610904565b15610877576000839050826001600160a01b0316816001600160a01b0316636f307dc36040518163ffffffff1660e01b815260040160206040518083038186803b1580156107a757600080fd5b505afa1580156107bb573d6000803e3d6000fd5b505050506040513d601f19601f820116820180604052508101906107df9190610c92565b6001600160a01b0316141561087557610743670de0b6b3a764000061073d836001600160a01b031663182df0f56040518163ffffffff1660e01b815260040160206040518083038186803b15801561083657600080fd5b505afa15801561084a573d6000803e3d6000fd5b505050506040513d601f19601f8201168201806040525081019061086e9190610cce565b8890610a17565b505b5060005b9392505050565b7f000000000000000000000000000000000000000000000000000000000000000081565b6108fe846323b872dd60e01b8585856040516024016108c793929190610dc6565b60408051601f198184030181529190526020810180516001600160e01b03166001600160e01b031990931692909217909152610a99565b50505050565b6000807ffe9c44aeb9aa3bd9800cbbeef59b38e7295a4671305eb11aea7bb897e4eea907905060007f00000000000000000000000000000000000000000000000000000000000000006001600160a01b0316631d5e3fe56040518163ffffffff1660e01b815260040160206040518083038186803b15801561098557600080fd5b505afa158015610999573d6000803e3d6000fd5b505050506040513d601f19601f820116820180604052508101906109bd9190610cce565b9050600080604051602081016040528481526020816004838a88fa925080519150508180156109e95750805b9695505050505050565b610a128363a9059cbb60e01b84846040516024016108c7929190610e46565b505050565b600082610a2657506000610a54565b82820282848281610a3357fe5b0414610a515760405162461bcd60e51b81526004016101d290610f34565b90505b92915050565b6000610a5183836040518060400160405280601a815260200179536166654d6174683a206469766973696f6e206279207a65726f60301b815250610b28565b6060610aee826040518060400160405280602081526020017f5361666545524332303a206c6f772d6c6576656c2063616c6c206661696c6564815250856001600160a01b0316610b5f9092919063ffffffff16565b805190915015610a125780806020019051810190610b0c9190610cae565b610a125760405162461bcd60e51b81526004016101d290610fd9565b60008183610b495760405162461bcd60e51b81526004016101d29190610e5f565b506000838581610b5557fe5b0495945050505050565b6060610b6e8484600085610b76565b949350505050565b606082471015610b985760405162461bcd60e51b81526004016101d290610eb8565b610ba185610c37565b610bbd5760405162461bcd60e51b81526004016101d290610fa2565b60006060866001600160a01b03168587604051610bda9190610d96565b60006040518083038185875af1925050503d8060008114610c17576040519150601f19603f3d011682016040523d82523d6000602084013e610c1c565b606091505b5091509150610c2c828286610c3d565b979650505050505050565b3b151590565b60608315610c4c57508161087b565b825115610c5c5782518084602001fd5b8160405162461bcd60e51b81526004016101d29190610e5f565b600060208284031215610c87578081fd5b8135610a5181611058565b600060208284031215610ca3578081fd5b8151610a5181611058565b600060208284031215610cbf578081fd5b81518015158114610a51578182fd5b600060208284031215610cdf578081fd5b5051919050565b600080600060608486031215610cfa578182fd5b833592506020840135610d0c81611058565b91506040840135610d1c81611058565b809150509250925092565b60008060008060008060c08789031215610d3f578182fd5b86359550602087013594506040870135610d5881611058565b93506060870135610d6881611058565b92506080870135610d7881611058565b915060a0870135610d8881611058565b809150509295509295509295565b60008251610da881846020870161102c565b9190910192915050565b6001600160a01b0391909116815260200190565b6001600160a01b039384168152919092166020820152604081019190915260600190565b6001600160a01b038381168252604060208084018290528451918401829052600092858201929091906060860190855b81811015610e38578551851683529483019491830191600101610e1a565b509098975050505050505050565b6001600160a01b03929092168252602082015260400190565b6000602082528251806020840152610e7e81604085016020870161102c565b601f01601f19169190910160400192915050565b6020808252600c908201526b496e636f6d70617469626c6560a01b604082015260600190565b60208082526026908201527f416464726573733a20696e73756666696369656e742062616c616e636520666f6040820152651c8818d85b1b60d21b606082015260800190565b6020808252601c908201527b125b9cdd59999a58da595b9d081d1bdad95b93dd5d08185b5bdd5b9d60221b604082015260600190565b60208082526021908201527f536166654d6174683a206d756c7469706c69636174696f6e206f766572666c6f6040820152607760f81b606082015260800190565b6020808252601390820152720a8ded6cadce640c6c2dcdcdee840dac2e8c6d606b1b604082015260600190565b6020808252601d908201527f416464726573733a2063616c6c20746f206e6f6e2d636f6e7472616374000000604082015260600190565b6020808252602a908201527f5361666545524332303a204552433230206f7065726174696f6e20646964206e6040820152691bdd081cdd58d8d9595960b21b606082015260800190565b90815260200190565b60005b8381101561104757818101518382015260200161102f565b838111156108fe5750506000910152565b6001600160a01b038116811461106d57600080fd5b5056fea26469706673582212208368f0e6b65d08529903fc0434ce733cda8505cd3ff8478f0645fb20b86f1d5564736f6c634300060c0033608060405234801561001057600080fd5b506040516105573803806105578339818101604052604081101561003357600080fd5b5080516020909101516000610046610093565b600080546001600160a01b0319166001600160a01b038316908117825560405192935091600080516020610537833981519152908290a350600182905561008c81610097565b505061018f565b3390565b61009f610093565b6000546001600160a01b03908116911614610101576040805162461bcd60e51b815260206004820181905260248201527f4f776e61626c653a2063616c6c6572206973206e6f7420746865206f776e6572604482015290519081900360640190fd5b6001600160a01b0381166101465760405162461bcd60e51b81526004018080602001828103825260268152602001806105116026913960400191505060405180910390fd5b600080546040516001600160a01b038085169392169160008051602061053783398151915291a3600080546001600160a01b0319166001600160a01b0392909216919091179055565b6103738061019e6000396000f3fe608060405234801561001057600080fd5b50600436106100575760003560e01c80631d5e3fe51461005c578063715018a6146100765780638da5cb5b14610080578063b227a534146100a4578063f2fde38b146100c1575b600080fd5b6100646100e7565b60408051918252519081900360200190f35b61007e6100ed565b005b61008861018f565b604080516001600160a01b039092168252519081900360200190f35b61007e600480360360208110156100ba57600080fd5b503561019e565b61007e600480360360208110156100d757600080fd5b50356001600160a01b03166101fb565b60015481565b6100f56102f3565b6000546001600160a01b03908116911614610145576040805162461bcd60e51b8152602060048201819052602482015260008051602061031e833981519152604482015290519081900360640190fd5b600080546040516001600160a01b03909116907f8be0079c531659141344cd1fd0a4f28419497f9722a3daafe3b4186f6b6457e0908390a3600080546001600160a01b0319169055565b6000546001600160a01b031690565b6101a66102f3565b6000546001600160a01b039081169116146101f6576040805162461bcd60e51b8152602060048201819052602482015260008051602061031e833981519152604482015290519081900360640190fd5b600155565b6102036102f3565b6000546001600160a01b03908116911614610253576040805162461bcd60e51b8152602060048201819052602482015260008051602061031e833981519152604482015290519081900360640190fd5b6001600160a01b0381166102985760405162461bcd60e51b81526004018080602001828103825260268152602001806102f86026913960400191505060405180910390fd5b600080546040516001600160a01b03808516939216917f8be0079c531659141344cd1fd0a4f28419497f9722a3daafe3b4186f6b6457e091a3600080546001600160a01b0319166001600160a01b0392909216919091179055565b339056fe4f776e61626c653a206e6577206f776e657220697320746865207a65726f20616464726573734f776e61626c653a2063616c6c6572206973206e6f7420746865206f776e6572a2646970667358221220db74bee37227cde69c27937852ed0dd8a00ff93a8381e0059ea7d632c505835d64736f6c634300060c00334f776e61626c653a206e6577206f776e657220697320746865207a65726f20616464726573738be0079c531659141344cd1fd0a4f28419497f9722a3daafe3b4186f6b6457e0",
  "linkReferences": {},
  "deployedLinkReferences": {}
}