{
  "_format": "hh-sol-artifact-1",
  "contractName": "PlatformProxyAdmin",
  "sourceName": "contracts/PlatformProxyAdmin.sol",
  "abi": [
    {
      "inputs": [],
      "stateMutability": "nonpayable",
      "type": "constructor"
    },
    {
      "anonymous": false,
      "inputs": [
        {
          "indexed": true,
          "internalType": "address",
          "name": "previousOwner",
          "type": "address"
        },
        {
          "indexed": true,
          "internalType": "address",
          "name": "newOwner",
          "type": "address"
        }
      ],
      "name": "OwnershipTransferred",
      "type": "event"
    },
    {
      "inputs": [
        {
          "internalType": "contract TransparentUpgradeableProxy",
          "name": "proxy",
          "type": "address"
        },
        {
          "internalType": "address",
          "name": "newAdmin",
          "type": "address"
        }
      ],
      "name": "changeProxyAdmin",
      "outputs": [],
      "stateMutability": "nonpayable",
      "type": "function"
    },
    {
      "inputs": [],
      "name": "controller",
      "outputs": [
        {
          "internalType": "address payable",
          "name": "",
          "type": "address"
        }
      ],
      "stateMutability": "view",
      "type": "function"
    },
    {
      "inputs": [],
      "name": "controllerImplementation",
      "outputs": [
        {
          "internalType": "address",
          "name": "",
          "type": "address"
        }
      ],
      "stateMutability": "view",
      "type": "function"
    },
    {
      "inputs": [],
      "name": "factory",
      "outputs": [
        {
          "internalType": "address payable",
          "name": "",
          "type": "address"
        }
      ],
      "stateMutability": "view",
      "type": "function"
    },
    {
      "inputs": [],
      "name": "factoryImplementation",
      "outputs": [
        {
          "internalType": "address",
          "name": "",
          "type": "address"
        }
      ],
      "stateMutability": "view",
      "type": "function"
    },
    {
      "inputs": [
        {
          "internalType": "contract TransparentUpgradeableProxy",
          "name": "proxy",
          "type": "address"
        }
      ],
      "name": "getProxyAdmin",
      "outputs": [
        {
          "internalType": "address",
          "name": "",
          "type": "address"
        }
      ],
      "stateMutability": "view",
      "type": "function"
    },
    {
      "inputs": [
        {
          "internalType": "contract TransparentUpgradeableProxy",
          "name": "proxy",
          "type": "address"
        }
      ],
      "name": "getProxyImplementation",
      "outputs": [
        {
          "internalType": "address",
          "name": "",
          "type": "address"
        }
      ],
      "stateMutability": "view",
      "type": "function"
    },
    {
      "inputs": [
        {
          "internalType": "address",
          "name": "controllerImplementation",
          "type": "address"
        },
        {
          "internalType": "address",
          "name": "factoryImplementation",
          "type": "address"
        },
        {
          "internalType": "address",
          "name": "strategyImplementation",
          "type": "address"
        },
        {
          "internalType": "address",
          "name": "oracle",
          "type": "address"
        },
        {
          "internalType": "address",
          "name": "registry",
          "type": "address"
        },
        {
          "internalType": "address",
          "name": "whitelist",
          "type": "address"
        },
        {
          "internalType": "address",
          "name": "pool",
          "type": "address"
        }
      ],
      "name": "initialize",
      "outputs": [],
      "stateMutability": "nonpayable",
      "type": "function"
    },
    {
      "inputs": [],
      "name": "owner",
      "outputs": [
        {
          "internalType": "address",
          "name": "",
          "type": "address"
        }
      ],
      "stateMutability": "view",
      "type": "function"
    },
    {
      "inputs": [],
      "name": "renounceOwnership",
      "outputs": [],
      "stateMutability": "nonpayable",
      "type": "function"
    },
    {
      "inputs": [
        {
          "internalType": "address",
          "name": "newOwner",
          "type": "address"
        }
      ],
      "name": "transferOwnership",
      "outputs": [],
      "stateMutability": "nonpayable",
      "type": "function"
    },
    {
      "inputs": [
        {
          "internalType": "contract TransparentUpgradeableProxy",
          "name": "proxy",
          "type": "address"
        },
        {
          "internalType": "address",
          "name": "implementation",
          "type": "address"
        }
      ],
      "name": "upgrade",
      "outputs": [],
      "stateMutability": "nonpayable",
      "type": "function"
    },
    {
      "inputs": [
        {
          "internalType": "contract TransparentUpgradeableProxy",
          "name": "proxy",
          "type": "address"
        },
        {
          "internalType": "address",
          "name": "implementation",
          "type": "address"
        },
        {
          "internalType": "bytes",
          "name": "data",
          "type": "bytes"
        }
      ],
      "name": "upgradeAndCall",
      "outputs": [],
      "stateMutability": "payable",
      "type": "function"
    }
  ],
  "bytecode": "0x60e06040523480156200001157600080fd5b5060006200001e62000109565b600080546001600160a01b0319166001600160a01b0383169081178255604051929350917f8be0079c531659141344cd1fd0a4f28419497f9722a3daafe3b4186f6b6457e0908290a35060408051808201909152601281527129ba3930ba32b3bca1b7b73a3937b63632b960711b60208201526200009c906200010d565b60601b6001600160601b03191660805260408051808201909152601481527f537472617465677950726f7879466163746f72790000000000000000000000006020820152620000eb906200010d565b6001600160601b0319606091821b1660a05233901b60c05262000371565b3390565b60008060ff60f81b30846040516020018082805190602001908083835b602083106200014b5780518252601f1990920191602091820191016200012a565b6001836020036101000a0380198251168184511680821785525050505050509050019150506040516020818303038152906040528051906020012060405180602001620001989062000363565b601f19828203810183526000601f9092011681815260208101604081815230908301818152606080850183905260808501908152845160a0860181905292958695949293919260c086019290918190849084905b8381101562000206578181015183820152602001620001ec565b50505050905090810190601f168015620002345780820380516001836020036101000a031916815260200191505b509450505050506040516020818303038152906040526040516020018083805190602001908083835b602083106200027e5780518252601f1990920191602091820191016200025d565b51815160209384036101000a600019018019909216911617905285519190930192850191508083835b60208310620002c85780518252601f199092019160209182019101620002a7565b6001836020036101000a038019825116818451168082178552505050505050905001925050506040516020818303038152906040528051906020012060405160200180856001600160f81b0319168152600101846001600160a01b031660601b81526014018381526020018281526020019450505050506040516020818303038152906040528051906020012090508060001c915050919050565b6108dc8062001af383390190565b60805160601c60a05160601c60c05160601c611742620003b16000398061048b5250806108435280610c42525080610a155280610dd652506117426000f3fe608060405260043610620000e65760003560e01c80638e6c0959116200008b578063c45a01551162000061578063c45a0155146200034c578063f2fde38b1462000364578063f3b7dead146200039b578063f77c479114620003d257620000e6565b80638e6c095914620002305780639623609d146200024857806399a88ec4146200030d57620000e6565b8063715018a611620000c1578063715018a614620001c15780637eff275e14620001d95780638da5cb5b146200021857620000e6565b8063204e1c7a14620000eb57806335876476146200013e5780636e1dc8fc14620001a9575b600080fd5b348015620000f857600080fd5b5062000122600480360360208110156200011157600080fd5b50356001600160a01b0316620003ea565b604080516001600160a01b039092168252519081900360200190f35b3480156200014b57600080fd5b50620001a7600480360360e08110156200016457600080fd5b506001600160a01b038135811691602081013582169160408201358116916060810135821691608082013581169160a081013582169160c0909101351662000480565b005b348015620001b657600080fd5b50620001226200083b565b348015620001ce57600080fd5b50620001a76200086d565b348015620001e657600080fd5b50620001a760048036036040811015620001ff57600080fd5b506001600160a01b038135811691602001351662000924565b3480156200022557600080fd5b5062000122620009fe565b3480156200023d57600080fd5b506200012262000a0d565b620001a7600480360360608110156200026057600080fd5b6001600160a01b0382358116926020810135909116918101906060810160408201356401000000008111156200029557600080fd5b820183602082011115620002a857600080fd5b80359060200191846001830284011164010000000083111715620002cb57600080fd5b91908080601f01602080910402602001604051908101604052809392919081815260200183838082843760009201919091525092955062000a3a945050505050565b3480156200031a57600080fd5b50620001a7600480360360408110156200033357600080fd5b506001600160a01b038135811691602001351662000b83565b3480156200035957600080fd5b506200012262000c40565b3480156200037157600080fd5b50620001a7600480360360208110156200038a57600080fd5b50356001600160a01b031662000c64565b348015620003a857600080fd5b506200012260048036036020811015620003c157600080fd5b50356001600160a01b031662000d73565b348015620003df57600080fd5b506200012262000dd4565b6000806060836001600160a01b03166040518080635c60da1b60e01b8152506004019050600060405180830381855afa9150503d80600081146200044b576040519150601f19603f3d011682016040523d82523d6000602084013e62000450565b606091505b5091509150816200046057600080fd5b8080602001905160208110156200047657600080fd5b5051949350505050565b336001600160a01b037f00000000000000000000000000000000000000000000000000000000000000001614620004ed576040805162461bcd60e51b815260206004820152600c60248201526b2737ba103232b83637bcb2b960a11b604482015290519081900360640190fd5b600054600160a01b900460ff16156200053b576040805162461bcd60e51b815260206004820152600b60248201526a125b9a5d1a585b1a5e995960aa1b604482015290519081900360640190fd5b6000805460ff60a01b1916600160a01b178155604080517f5374726174656779436f6e74726f6c6c6572000000000000000000000000000060208083019190915282518083036012018152603283018085528151919092012084825260529092019092529030908190604051620005b29062000dfc565b80846001600160a01b03168152602001836001600160a01b0316815260200180602001828103825283818151815260200191508051906020019080838360005b838110156200060c578181015183820152602001620005f2565b50505050905090810190601f1680156200063a5780820380516001836020036101000a031916815260200191505b509450505050508190604051809103906000f590508015801562000662573d6000803e3d6000fd5b50604080517f537472617465677950726f7879466163746f7279000000000000000000000000602080830191909152825160148184030181526034830180855281519190920120600080835260549093019093529293509130908190604051620006cc9062000dfc565b80846001600160a01b03168152602001836001600160a01b0316815260200180602001828103825283818151815260200191508051906020019080838360005b83811015620007265781810151838201526020016200070c565b50505050905090810190601f168015620007545780820380516001836020036101000a031916815260200191505b509450505050508190604051809103906000f59050801580156200077c573d6000803e3d6000fd5b50604080513360248201526001600160a01b03808b166044830152808a166064830152808916608483015280881660a4830152861660c4808301919091528251808303909101815260e49091019091526020810180516001600160e01b031663cc2a9a5b60e01b179052909150620007f89082908a9062000a3a565b6040805160048152602481019091526020810180516001600160e01b031663204a7f0760e21b179052620008309083908b9062000a3a565b505050505050505050565b6000620008687f0000000000000000000000000000000000000000000000000000000000000000620003ea565b905090565b6200087762000df8565b6000546001600160a01b03908116911614620008da576040805162461bcd60e51b815260206004820181905260248201527f4f776e61626c653a2063616c6c6572206973206e6f7420746865206f776e6572604482015290519081900360640190fd5b600080546040516001600160a01b03909116907f8be0079c531659141344cd1fd0a4f28419497f9722a3daafe3b4186f6b6457e0908390a3600080546001600160a01b0319169055565b6200092e62000df8565b6000546001600160a01b0390811691161462000991576040805162461bcd60e51b815260206004820181905260248201527f4f776e61626c653a2063616c6c6572206973206e6f7420746865206f776e6572604482015290519081900360640190fd5b816001600160a01b0316638f283970826040518263ffffffff1660e01b815260040180826001600160a01b03168152602001915050600060405180830381600087803b158015620009e157600080fd5b505af1158015620009f6573d6000803e3d6000fd5b505050505050565b6000546001600160a01b031690565b6000620008687f0000000000000000000000000000000000000000000000000000000000000000620003ea565b62000a4462000df8565b6000546001600160a01b0390811691161462000aa7576040805162461bcd60e51b815260206004820181905260248201527f4f776e61626c653a2063616c6c6572206973206e6f7420746865206f776e6572604482015290519081900360640190fd5b826001600160a01b0316634f1ef2863484846040518463ffffffff1660e01b815260040180836001600160a01b0316815260200180602001828103825283818151815260200191508051906020019080838360005b8381101562000b1657818101518382015260200162000afc565b50505050905090810190601f16801562000b445780820380516001836020036101000a031916815260200191505b5093505050506000604051808303818588803b15801562000b6457600080fd5b505af115801562000b79573d6000803e3d6000fd5b5050505050505050565b62000b8d62000df8565b6000546001600160a01b0390811691161462000bf0576040805162461bcd60e51b815260206004820181905260248201527f4f776e61626c653a2063616c6c6572206973206e6f7420746865206f776e6572604482015290519081900360640190fd5b816001600160a01b0316633659cfe6826040518263ffffffff1660e01b815260040180826001600160a01b03168152602001915050600060405180830381600087803b158015620009e157600080fd5b7f000000000000000000000000000000000000000000000000000000000000000081565b62000c6e62000df8565b6000546001600160a01b0390811691161462000cd1576040805162461bcd60e51b815260206004820181905260248201527f4f776e61626c653a2063616c6c6572206973206e6f7420746865206f776e6572604482015290519081900360640190fd5b6001600160a01b03811662000d185760405162461bcd60e51b8152600401808060200182810382526026815260200180620016e76026913960400191505060405180910390fd5b600080546040516001600160a01b03808516939216917f8be0079c531659141344cd1fd0a4f28419497f9722a3daafe3b4186f6b6457e091a3600080546001600160a01b0319166001600160a01b0392909216919091179055565b6000806060836001600160a01b031660405180806303e1469160e61b8152506004019050600060405180830381855afa9150503d80600081146200044b576040519150601f19603f3d011682016040523d82523d6000602084013e62000450565b7f000000000000000000000000000000000000000000000000000000000000000081565b3390565b6108dc8062000e0b8339019056fe60806040526040516108dc3803806108dc8339818101604052606081101561002657600080fd5b8151602083015160408085018051915193959294830192918464010000000082111561005157600080fd5b90830190602082018581111561006657600080fd5b825164010000000081118282018810171561008057600080fd5b82525081516020918201929091019080838360005b838110156100ad578181015183820152602001610095565b50505050905090810190601f1680156100da5780820380516001836020036101000a031916815260200191505b50604052508491508290506100ee826101bf565b8051156101a6576000826001600160a01b0316826040518082805190602001908083835b602083106101315780518252601f199092019160209182019101610112565b6001836020036101000a038019825116818451168082178552505050505050905001915050600060405180830381855af49150503d8060008114610191576040519150601f19603f3d011682016040523d82523d6000602084013e610196565b606091505b50509050806101a457600080fd5b505b506101ae9050565b6101b782610231565b50505061025b565b6101d28161025560201b6103b41760201c565b61020d5760405162461bcd60e51b81526004018080602001828103825260368152602001806108a66036913960400191505060405180910390fd5b7f360894a13ba1a3210667c828492db98dca3e2076cc3735a920a3ca505d382bbc55565b7fb53127684a568b3173ae13b9f8a6016e243e63b6e8ee1178d6a717850b5d610355565b3b151590565b61063c8061026a6000396000f3fe60806040526004361061004e5760003560e01c80633659cfe6146100655780634f1ef286146100985780635c60da1b146101185780638f28397014610149578063f851a4401461017c5761005d565b3661005d5761005b610191565b005b61005b610191565b34801561007157600080fd5b5061005b6004803603602081101561008857600080fd5b50356001600160a01b03166101ab565b61005b600480360360408110156100ae57600080fd5b6001600160a01b0382351691908101906040810160208201356401000000008111156100d957600080fd5b8201836020820111156100eb57600080fd5b8035906020019184600183028401116401000000008311171561010d57600080fd5b5090925090506101e5565b34801561012457600080fd5b5061012d610292565b604080516001600160a01b039092168252519081900360200190f35b34801561015557600080fd5b5061005b6004803603602081101561016c57600080fd5b50356001600160a01b03166102cf565b34801561018857600080fd5b5061012d610389565b6101996103ba565b6101a96101a461041a565b61043f565b565b6101b3610463565b6001600160a01b0316336001600160a01b031614156101da576101d581610488565b6101e2565b6101e2610191565b50565b6101ed610463565b6001600160a01b0316336001600160a01b031614156102855761020f83610488565b6000836001600160a01b031683836040518083838082843760405192019450600093509091505080830381855af49150503d806000811461026c576040519150601f19603f3d011682016040523d82523d6000602084013e610271565b606091505b505090508061027f57600080fd5b5061028d565b61028d610191565b505050565b600061029c610463565b6001600160a01b0316336001600160a01b031614156102c4576102bd61041a565b90506102cc565b6102cc610191565b90565b6102d7610463565b6001600160a01b0316336001600160a01b031614156101da576001600160a01b0381166103355760405162461bcd60e51b815260040180806020018281038252603a815260200180610555603a913960400191505060405180910390fd5b7f7e644d79422f17c01e4894b5f4f588d331ebfa28653d42ae832dc59e38c9798f61035e610463565b604080516001600160a01b03928316815291841660208301528051918290030190a16101d5816104c8565b6000610393610463565b6001600160a01b0316336001600160a01b031614156102c4576102bd610463565b3b151590565b6103c2610463565b6001600160a01b0316336001600160a01b031614156104125760405162461bcd60e51b81526004018080602001828103825260428152602001806105c56042913960600191505060405180910390fd5b6101a96101a9565b7f360894a13ba1a3210667c828492db98dca3e2076cc3735a920a3ca505d382bbc5490565b3660008037600080366000845af43d6000803e80801561045e573d6000f35b3d6000fd5b7fb53127684a568b3173ae13b9f8a6016e243e63b6e8ee1178d6a717850b5d61035490565b610491816104ec565b6040516001600160a01b038216907fbc7cd75a20ee27fd9adebab32041f755214dbc6bffa90cc0225b39da2e5c2d3b90600090a250565b7fb53127684a568b3173ae13b9f8a6016e243e63b6e8ee1178d6a717850b5d610355565b6104f5816103b4565b6105305760405162461bcd60e51b815260040180806020018281038252603681526020018061058f6036913960400191505060405180910390fd5b7f360894a13ba1a3210667c828492db98dca3e2076cc3735a920a3ca505d382bbc5556fe5472616e73706172656e745570677261646561626c6550726f78793a206e65772061646d696e20697320746865207a65726f20616464726573735570677261646561626c6550726f78793a206e657720696d706c656d656e746174696f6e206973206e6f74206120636f6e74726163745472616e73706172656e745570677261646561626c6550726f78793a2061646d696e2063616e6e6f742066616c6c6261636b20746f2070726f787920746172676574a264697066735822122092ed585626bc67843917463a66ca1beefa6b07eab6562beeec4050dc827b9eb864736f6c634300060c00335570677261646561626c6550726f78793a206e657720696d706c656d656e746174696f6e206973206e6f74206120636f6e74726163744f776e61626c653a206e6577206f776e657220697320746865207a65726f2061646472657373a26469706673582212201613cceae70aecea666f687c56431abbb919014160e5eb5805a9558e4f3dc30764736f6c634300060c003360806040526040516108dc3803806108dc8339818101604052606081101561002657600080fd5b8151602083015160408085018051915193959294830192918464010000000082111561005157600080fd5b90830190602082018581111561006657600080fd5b825164010000000081118282018810171561008057600080fd5b82525081516020918201929091019080838360005b838110156100ad578181015183820152602001610095565b50505050905090810190601f1680156100da5780820380516001836020036101000a031916815260200191505b50604052508491508290506100ee826101bf565b8051156101a6576000826001600160a01b0316826040518082805190602001908083835b602083106101315780518252601f199092019160209182019101610112565b6001836020036101000a038019825116818451168082178552505050505050905001915050600060405180830381855af49150503d8060008114610191576040519150601f19603f3d011682016040523d82523d6000602084013e610196565b606091505b50509050806101a457600080fd5b505b506101ae9050565b6101b782610231565b50505061025b565b6101d28161025560201b6103b41760201c565b61020d5760405162461bcd60e51b81526004018080602001828103825260368152602001806108a66036913960400191505060405180910390fd5b7f360894a13ba1a3210667c828492db98dca3e2076cc3735a920a3ca505d382bbc55565b7fb53127684a568b3173ae13b9f8a6016e243e63b6e8ee1178d6a717850b5d610355565b3b151590565b61063c8061026a6000396000f3fe60806040526004361061004e5760003560e01c80633659cfe6146100655780634f1ef286146100985780635c60da1b146101185780638f28397014610149578063f851a4401461017c5761005d565b3661005d5761005b610191565b005b61005b610191565b34801561007157600080fd5b5061005b6004803603602081101561008857600080fd5b50356001600160a01b03166101ab565b61005b600480360360408110156100ae57600080fd5b6001600160a01b0382351691908101906040810160208201356401000000008111156100d957600080fd5b8201836020820111156100eb57600080fd5b8035906020019184600183028401116401000000008311171561010d57600080fd5b5090925090506101e5565b34801561012457600080fd5b5061012d610292565b604080516001600160a01b039092168252519081900360200190f35b34801561015557600080fd5b5061005b6004803603602081101561016c57600080fd5b50356001600160a01b03166102cf565b34801561018857600080fd5b5061012d610389565b6101996103ba565b6101a96101a461041a565b61043f565b565b6101b3610463565b6001600160a01b0316336001600160a01b031614156101da576101d581610488565b6101e2565b6101e2610191565b50565b6101ed610463565b6001600160a01b0316336001600160a01b031614156102855761020f83610488565b6000836001600160a01b031683836040518083838082843760405192019450600093509091505080830381855af49150503d806000811461026c576040519150601f19603f3d011682016040523d82523d6000602084013e610271565b606091505b505090508061027f57600080fd5b5061028d565b61028d610191565b505050565b600061029c610463565b6001600160a01b0316336001600160a01b031614156102c4576102bd61041a565b90506102cc565b6102cc610191565b90565b6102d7610463565b6001600160a01b0316336001600160a01b031614156101da576001600160a01b0381166103355760405162461bcd60e51b815260040180806020018281038252603a815260200180610555603a913960400191505060405180910390fd5b7f7e644d79422f17c01e4894b5f4f588d331ebfa28653d42ae832dc59e38c9798f61035e610463565b604080516001600160a01b03928316815291841660208301528051918290030190a16101d5816104c8565b6000610393610463565b6001600160a01b0316336001600160a01b031614156102c4576102bd610463565b3b151590565b6103c2610463565b6001600160a01b0316336001600160a01b031614156104125760405162461bcd60e51b81526004018080602001828103825260428152602001806105c56042913960600191505060405180910390fd5b6101a96101a9565b7f360894a13ba1a3210667c828492db98dca3e2076cc3735a920a3ca505d382bbc5490565b3660008037600080366000845af43d6000803e80801561045e573d6000f35b3d6000fd5b7fb53127684a568b3173ae13b9f8a6016e243e63b6e8ee1178d6a717850b5d61035490565b610491816104ec565b6040516001600160a01b038216907fbc7cd75a20ee27fd9adebab32041f755214dbc6bffa90cc0225b39da2e5c2d3b90600090a250565b7fb53127684a568b3173ae13b9f8a6016e243e63b6e8ee1178d6a717850b5d610355565b6104f5816103b4565b6105305760405162461bcd60e51b815260040180806020018281038252603681526020018061058f6036913960400191505060405180910390fd5b7f360894a13ba1a3210667c828492db98dca3e2076cc3735a920a3ca505d382bbc5556fe5472616e73706172656e745570677261646561626c6550726f78793a206e65772061646d696e20697320746865207a65726f20616464726573735570677261646561626c6550726f78793a206e657720696d706c656d656e746174696f6e206973206e6f74206120636f6e74726163745472616e73706172656e745570677261646561626c6550726f78793a2061646d696e2063616e6e6f742066616c6c6261636b20746f2070726f787920746172676574a264697066735822122092ed585626bc67843917463a66ca1beefa6b07eab6562beeec4050dc827b9eb864736f6c634300060c00335570677261646561626c6550726f78793a206e657720696d706c656d656e746174696f6e206973206e6f74206120636f6e7472616374",
  "linkReferences": {},
  "deployedLinkReferences": {}
}