{
  "_format": "hh-sol-artifact-1",
  "contractName": "BalancerRegistry",
  "sourceName": "contracts/test/BalancerRegistry.sol",
  "abi": [
    {
      "inputs": [
        {
          "internalType": "address",
          "name": "_bfactory",
          "type": "address"
        }
      ],
      "stateMutability": "nonpayable",
      "type": "constructor"
    },
    {
      "anonymous": false,
      "inputs": [
        {
          "indexed": true,
          "internalType": "address",
          "name": "token1",
          "type": "address"
        },
        {
          "indexed": true,
          "internalType": "address",
          "name": "token2",
          "type": "address"
        },
        {
          "indexed": false,
          "internalType": "bytes32",
          "name": "oldIndices",
          "type": "bytes32"
        },
        {
          "indexed": false,
          "internalType": "bytes32",
          "name": "newIndices",
          "type": "bytes32"
        }
      ],
      "name": "IndicesUpdated",
      "type": "event"
    },
    {
      "anonymous": false,
      "inputs": [
        {
          "indexed": true,
          "internalType": "address",
          "name": "pool",
          "type": "address"
        },
        {
          "indexed": true,
          "internalType": "address",
          "name": "token1",
          "type": "address"
        },
        {
          "indexed": true,
          "internalType": "address",
          "name": "token2",
          "type": "address"
        }
      ],
      "name": "PoolTokenPairAdded",
      "type": "event"
    },
    {
      "inputs": [
        {
          "internalType": "address",
          "name": "token1",
          "type": "address"
        },
        {
          "internalType": "address",
          "name": "token2",
          "type": "address"
        },
        {
          "internalType": "address[]",
          "name": "pools",
          "type": "address[]"
        }
      ],
      "name": "_getEffectiveLiquidityForPoolsPurge",
      "outputs": [
        {
          "internalType": "uint256[]",
          "name": "effectiveLiquidity",
          "type": "uint256[]"
        }
      ],
      "stateMutability": "nonpayable",
      "type": "function"
    },
    {
      "inputs": [
        {
          "internalType": "address",
          "name": "pool",
          "type": "address"
        },
        {
          "internalType": "address",
          "name": "token1",
          "type": "address"
        },
        {
          "internalType": "address",
          "name": "token2",
          "type": "address"
        }
      ],
      "name": "addPoolPair",
      "outputs": [
        {
          "internalType": "uint256",
          "name": "listed",
          "type": "uint256"
        }
      ],
      "stateMutability": "nonpayable",
      "type": "function"
    },
    {
      "inputs": [
        {
          "internalType": "address[]",
          "name": "pools",
          "type": "address[]"
        },
        {
          "internalType": "address",
          "name": "token1",
          "type": "address"
        },
        {
          "internalType": "address",
          "name": "token2",
          "type": "address"
        }
      ],
      "name": "addPools",
      "outputs": [
        {
          "internalType": "uint256[]",
          "name": "listed",
          "type": "uint256[]"
        }
      ],
      "stateMutability": "nonpayable",
      "type": "function"
    },
    {
      "inputs": [],
      "name": "bfactory",
      "outputs": [
        {
          "internalType": "contract IBFactory",
          "name": "",
          "type": "address"
        }
      ],
      "stateMutability": "view",
      "type": "function"
    },
    {
      "inputs": [
        {
          "internalType": "address",
          "name": "fromToken",
          "type": "address"
        },
        {
          "internalType": "address",
          "name": "destToken",
          "type": "address"
        }
      ],
      "name": "getBestPools",
      "outputs": [
        {
          "internalType": "address[]",
          "name": "pools",
          "type": "address[]"
        }
      ],
      "stateMutability": "view",
      "type": "function"
    },
    {
      "inputs": [
        {
          "internalType": "address",
          "name": "fromToken",
          "type": "address"
        },
        {
          "internalType": "address",
          "name": "destToken",
          "type": "address"
        },
        {
          "internalType": "uint256",
          "name": "limit",
          "type": "uint256"
        }
      ],
      "name": "getBestPoolsWithLimit",
      "outputs": [
        {
          "internalType": "address[]",
          "name": "pools",
          "type": "address[]"
        }
      ],
      "stateMutability": "view",
      "type": "function"
    },
    {
      "inputs": [
        {
          "internalType": "address",
          "name": "pool",
          "type": "address"
        },
        {
          "internalType": "address",
          "name": "fromToken",
          "type": "address"
        },
        {
          "internalType": "address",
          "name": "destToken",
          "type": "address"
        }
      ],
      "name": "getPairInfo",
      "outputs": [
        {
          "internalType": "uint256",
          "name": "weight1",
          "type": "uint256"
        },
        {
          "internalType": "uint256",
          "name": "weight2",
          "type": "uint256"
        },
        {
          "internalType": "uint256",
          "name": "swapFee",
          "type": "uint256"
        }
      ],
      "stateMutability": "view",
      "type": "function"
    },
    {
      "inputs": [
        {
          "internalType": "address",
          "name": "fromToken",
          "type": "address"
        },
        {
          "internalType": "address",
          "name": "destToken",
          "type": "address"
        },
        {
          "internalType": "uint256",
          "name": "offset",
          "type": "uint256"
        },
        {
          "internalType": "uint256",
          "name": "limit",
          "type": "uint256"
        }
      ],
      "name": "getPoolsWithLimit",
      "outputs": [
        {
          "internalType": "address[]",
          "name": "result",
          "type": "address[]"
        }
      ],
      "stateMutability": "view",
      "type": "function"
    },
    {
      "inputs": [
        {
          "internalType": "address[]",
          "name": "tokens",
          "type": "address[]"
        },
        {
          "internalType": "uint256",
          "name": "lengthLimit",
          "type": "uint256"
        }
      ],
      "name": "sortPools",
      "outputs": [],
      "stateMutability": "nonpayable",
      "type": "function"
    },
    {
      "inputs": [
        {
          "internalType": "address[]",
          "name": "tokens",
          "type": "address[]"
        },
        {
          "internalType": "uint256",
          "name": "lengthLimit",
          "type": "uint256"
        }
      ],
      "name": "sortPoolsWithPurge",
      "outputs": [],
      "stateMutability": "nonpayable",
      "type": "function"
    }
  ],
  "bytecode": "0x608060405234801561001057600080fd5b506040516121fa3803806121fa8339818101604052602081101561003357600080fd5b5051600280546001600160a01b0319166001600160a01b03909216919091179055612197806100636000396000f3fe608060405234801561001057600080fd5b506004361061009e5760003560e01c8063b108cd3711610066578063b108cd371461035c578063b176e29514610398578063bfdbfc43146103bc578063e7156fa3146103f2578063f5406970146104205761009e565b80632013c706146100a3578063500b6c71146101af5780637a846457146101f957806388376fbe1461026b578063a2754996146102ec575b600080fd5b61015f600480360360608110156100b957600080fd5b6001600160a01b0382358116926020810135909116918101906060810160408201356401000000008111156100ed57600080fd5b8201836020820111156100ff57600080fd5b8035906020019184602083028401116401000000008311171561012157600080fd5b919080806020026020016040519081016040528093929190818152602001838360200280828437600092019190915250929550610476945050505050565b60408051602080825283518183015283519192839290830191858101910280838360005b8381101561019b578181015183820152602001610183565b505050509050019250505060405180910390f35b6101e7600480360360608110156101c557600080fd5b506001600160a01b0381358116916020810135821691604090910135166109fb565b60408051918252519081900360200190f35b6102696004803603604081101561020f57600080fd5b81019060208101813564010000000081111561022a57600080fd5b82018360208201111561023c57600080fd5b8035906020019184602083028401116401000000008311171561025e57600080fd5b919350915035610f69565b005b61015f6004803603606081101561028157600080fd5b81019060208101813564010000000081111561029c57600080fd5b8201836020820111156102ae57600080fd5b803590602001918460208302840111640100000000831117156102d057600080fd5b91935091506001600160a01b0381358116916020013516611236565b6102696004803603604081101561030257600080fd5b81019060208101813564010000000081111561031d57600080fd5b82018360208201111561032f57600080fd5b8035906020019184602083028401116401000000008311171561035157600080fd5b9193509150356112d5565b61015f6004803603608081101561037257600080fd5b506001600160a01b0381358116916020810135909116906040810135906060013561152c565b6103a0611603565b604080516001600160a01b039092168252519081900360200190f35b61015f600480360360608110156103d257600080fd5b506001600160a01b03813581169160208101359091169060400135611612565b61015f6004803603604081101561040857600080fd5b506001600160a01b038135811691602001351661173e565b6104586004803603606081101561043657600080fd5b506001600160a01b038135811691602081013582169160409091013516611755565b60408051938452602084019290925282820152519081900360600190f35b606060008061048586866117e7565b905060005b845181101561083a5761049b6120f7565b600160008784815181106104ab57fe5b6020908102919091018101516001600160a01b03908116835282820193909352604091820160009081208782528252829020825160808101845281546001600160501b038082168352600160501b8204811694830194909452600160a01b90049092169282019290925260019091015460608201529150878116908916101561074a5780516020820151610556916001600160501b03908116916105519183911661185b565b6118b5565b6001600088858151811061056657fe5b60200260200101516001600160a01b03166001600160a01b031681526020019081526020016000206000858152602001908152602001600020600101819055506106948683815181106105b557fe5b60200260200101516001600160a01b031663f8b2cb4f896040518263ffffffff1660e01b815260040180826001600160a01b0316815260200191505060206040518083038186803b15801561060957600080fd5b505afa15801561061d573d6000803e3d6000fd5b505050506040513d602081101561063357600080fd5b505187516001906000908a908790811061064957fe5b60200260200101516001600160a01b03166001600160a01b031681526020019081526020016000206000868152602001908152602001600020600101546119c890919063ffffffff16565b600160008885815181106106a457fe5b60200260200101516001600160a01b03166001600160a01b03168152602001908152602001600020600085815260200190815260200160002060010181905550610743600160008885815181106106f757fe5b60200260200101516001600160a01b03166001600160a01b031681526020019081526020016000206000858152602001908152602001600020600101548561185b90919063ffffffff16565b9350610831565b6020810151815161076c916001600160501b039081169161055191168261185b565b6001600088858151811061077c57fe5b60200260200101516001600160a01b03166001600160a01b031681526020019081526020016000206000858152602001908152602001600020600101819055506107cb8683815181106105b557fe5b600160008885815181106107db57fe5b60200260200101516001600160a01b03166001600160a01b0316815260200190815260200160002060008581526020019081526020016000206001018190555061082e600160008885815181106106f757fe5b93505b5060010161048a565b50600061084f8367016345785d8a0000611a21565b905060005b600083815260208190526040902061086b90611ae3565b811015610904576000838152602081905260408120839160019161088f9085611aee565b6001600160a01b03166001600160a01b0316815260200190815260200160002060008581526020019081526020016000206001015410156108fc5760008381526020819052604090206108fa906108e69083611aee565b600085815260208190526040902090611afa565b505b600101610854565b50600082815260208190526040902061091c90611ae3565b67ffffffffffffffff8111801561093257600080fd5b5060405190808252806020026020018201604052801561095c578160200160208202803683370190505b50935060005b600083815260208190526040902061097990611ae3565b8110156109f05760008381526020819052604081206001919061099c9084611aee565b6001600160a01b03166001600160a01b031681526020019081526020016000206000848152602001908152602001600020600101548582815181106109dd57fe5b6020908102919091010152600101610962565b505050509392505050565b6002546040805163615db6e160e11b81526001600160a01b0386811660048301529151600093929092169163c2bb6dc291602480820192602092909190829003018186803b158015610a4c57600080fd5b505afa158015610a60573d6000803e3d6000fd5b505050506040513d6020811015610a7657600080fd5b5051610ab9576040805162461bcd60e51b815260206004820152600d60248201526c11549497d393d517d09413d3d3609a1b604482015290519081900360640190fd5b6000846001600160a01b031663d4cadf686040518163ffffffff1660e01b815260040160206040518083038186803b158015610af457600080fd5b505afa158015610b08573d6000803e3d6000fd5b505050506040513d6020811015610b1e57600080fd5b50519050666a94d74f430000811115610b71576040805162461bcd60e51b815260206004820152601060248201526f08aa4a4be8c8a8abea89e9ebe90928e960831b604482015290519081900360640190fd5b6000610b7d85856117e7565b6000818152602081905260409020909150610b989087611b0f565b50836001600160a01b0316856001600160a01b03161015610d65576040518060800160405280876001600160a01b031663948d8ce6886040518263ffffffff1660e01b815260040180826001600160a01b0316815260200191505060206040518083038186803b158015610c0b57600080fd5b505afa158015610c1f573d6000803e3d6000fd5b505050506040513d6020811015610c3557600080fd5b50516001600160501b0316815260408051634a46c67360e11b81526001600160a01b0388811660048301529151602093840193928b169263948d8ce69260248082019391829003018186803b158015610c8d57600080fd5b505afa158015610ca1573d6000803e3d6000fd5b505050506040513d6020811015610cb757600080fd5b50516001600160501b039081168252848116602083810191909152600060409384018190526001600160a01b038b16815260018083528482208783528352908490208551815493870151958701518516600160a01b0269ffffffffffffffffffff60a01b19968616600160501b0269ffffffffffffffffffff60501b199290961669ffffffffffffffffffff1990951694909417169390931793909316178155606090920151910155610f13565b6040518060800160405280876001600160a01b031663948d8ce6876040518263ffffffff1660e01b815260040180826001600160a01b0316815260200191505060206040518083038186803b158015610dbd57600080fd5b505afa158015610dd1573d6000803e3d6000fd5b505050506040513d6020811015610de757600080fd5b50516001600160501b0316815260408051634a46c67360e11b81526001600160a01b0389811660048301529151602093840193928b169263948d8ce69260248082019391829003018186803b158015610e3f57600080fd5b505afa158015610e53573d6000803e3d6000fd5b505050506040513d6020811015610e6957600080fd5b50516001600160501b039081168252848116602083810191909152600060409384018190526001600160a01b038b16815260018083528482208783528352908490208551815493870151958701518516600160a01b0269ffffffffffffffffffff60a01b19968616600160501b0269ffffffffffffffffffff60501b199290961669ffffffffffffffffffff19909516949094171693909317939093161781556060909201519101555b836001600160a01b0316856001600160a01b0316876001600160a01b03167f181090c3a4bc51a62093032ebf96fd26ff1f27c2145aa9a28c8a5b9f627bcdd460405160405180910390a450506001019392505050565b60005b8281101561123057600181015b83811015611227576000610fc3868685818110610f9257fe5b905060200201356001600160a01b0316878785818110610fae57fe5b905060200201356001600160a01b03166117e7565b90506060611015878786818110610fd657fe5b905060200201356001600160a01b0316888886818110610ff257fe5b905060200201356001600160a01b031660006110106101008a611b24565b61152c565b9050606061105a88888781811061102857fe5b905060200201356001600160a01b031689898781811061104457fe5b905060200201356001600160a01b031684611b3a565b9050600061106782611db5565b60008581526020819052604090206002015490915081146112175788888681811061108e57fe5b905060200201356001600160a01b03166001600160a01b03168989888181106110b357fe5b905060200201356001600160a01b03166001600160a01b0316106110f2578888878181106110dd57fe5b905060200201356001600160a01b031661110f565b8888868181106110fe57fe5b905060200201356001600160a01b03165b6001600160a01b031689898781811061112457fe5b905060200201356001600160a01b03166001600160a01b03168a8a8981811061114957fe5b905060200201356001600160a01b03166001600160a01b0316106111885789898781811061117357fe5b905060200201356001600160a01b03166111a5565b89898881811061119457fe5b905060200201356001600160a01b03165b6001600160a01b03167fa91f9532dc66c94302dbfd7be21a31cdee3b1c97e8b3064aab212b8e64e936c56000808881526020019081526020016000206002015484604051808381526020018281526020019250505060405180910390a360008481526020819052604090206002018190555b505060019092019150610f799050565b50600101610f6c565b50505050565b60608367ffffffffffffffff8111801561124f57600080fd5b50604051908082528060200260200182016040528015611279578160200160208202803683370190505b50905060005b848110156112cc576112ad86868381811061129657fe5b905060200201356001600160a01b031685856109fb565b8282815181106112b957fe5b602090810291909101015260010161127f565b50949350505050565b60005b8281101561123057600181015b838110156115235760006112fe868685818110610f9257fe5b90506060611311878786818110610fd657fe5b9050606061135688888781811061132457fe5b905060200201356001600160a01b031689898781811061134057fe5b905060200201356001600160a01b031684610476565b9050600061136382611db5565b60008581526020819052604090206002015490915081146115135788888681811061138a57fe5b905060200201356001600160a01b03166001600160a01b03168989888181106113af57fe5b905060200201356001600160a01b03166001600160a01b0316106113ee578888878181106113d957fe5b905060200201356001600160a01b031661140b565b8888868181106113fa57fe5b905060200201356001600160a01b03165b6001600160a01b031689898781811061142057fe5b905060200201356001600160a01b03166001600160a01b03168a8a8981811061144557fe5b905060200201356001600160a01b03166001600160a01b0316106114845789898781811061146f57fe5b905060200201356001600160a01b03166114a1565b89898881811061149057fe5b905060200201356001600160a01b03165b6001600160a01b03167fa91f9532dc66c94302dbfd7be21a31cdee3b1c97e8b3064aab212b8e64e936c56000808881526020019081526020016000206002015484604051808381526020018281526020019250505060405180910390a360008481526020819052604090206002018190555b5050600190920191506112e59050565b506001016112d8565b6060600061153a86866117e7565b9050611564838561155e600080868152602001908152602001600020600001611ae3565b03611b24565b67ffffffffffffffff8111801561157a57600080fd5b506040519080825280602002602001820160405280156115a4578160200160208202803683370190505b50915060005b82518110156115f95760008281526020819052604090206115cd90868301611aee565b8382815181106115d957fe5b6001600160a01b03909216602092830291909101909101526001016115aa565b5050949350505050565b6002546001600160a01b031681565b6060600061162085856117e7565b6000818152602081905260408120600201549192505b600082826020811061164457fe5b1a60f81b7effffffffffffffffffffffffffffffffffffffffffffffffffffffffffffff1916118015611680575061167d856020611b24565b81105b1561168d57600101611636565b8067ffffffffffffffff811180156116a457600080fd5b506040519080825280602002602001820160405280156116ce578160200160208202803683370190505b50935060005b818110156109f05760006116f660018584602081106116ef57fe5b1a90611e8e565b60008681526020819052604090209091506117119082611aee565b86838151811061171d57fe5b6001600160a01b0390921660209283029190910190910152506001016116d4565b606061174c83836020611612565b90505b92915050565b60008060008061176586866117e7565b905061176f6120f7565b506001600160a01b03969096166000908152600160208181526040808420998452988152918890208851608081018a5281546001600160501b03808216808452600160501b83048216968401879052600160a01b909204169a82018b9052919092015460609092019190915297909695509350505050565b6000816001600160a01b0316836001600160a01b031610611808578261180a565b815b6fffffffffffffffffffffffffffffffff166080836001600160a01b0316856001600160a01b03161061183d578361183f565b845b6fffffffffffffffffffffffffffffffff16901b179392505050565b60008282018381101561174c576040805162461bcd60e51b815260206004820152601b60248201527f536166654d6174683a206164646974696f6e206f766572666c6f770000000000604482015290519081900360640190fd5b6000816118f8576040805162461bcd60e51b815260206004820152600c60248201526b4552525f4449565f5a45524f60a01b604482015290519081900360640190fd5b670de0b6b3a764000083028315806119205750670de0b6b3a764000084828161191d57fe5b04145b611964576040805162461bcd60e51b815260206004820152601060248201526f11549497d1125597d25395115493905360821b604482015290519081900360640190fd5b600283048101818110156119b2576040805162461bcd60e51b815260206004820152601060248201526f11549497d1125597d25395115493905360821b604482015290519081900360640190fd5b60008482816119bd57fe5b049695505050505050565b6000826119d75750600061174f565b828202828482816119e457fe5b041461174c5760405162461bcd60e51b81526004018080602001828103825260218152602001806121416021913960400191505060405180910390fd5b6000828202831580611a3b575082848281611a3857fe5b04145b611a7f576040805162461bcd60e51b815260206004820152601060248201526f4552525f4d554c5f4f564552464c4f5760801b604482015290519081900360640190fd5b6706f05b59d3b20000810181811015611ad2576040805162461bcd60e51b815260206004820152601060248201526f4552525f4d554c5f4f564552464c4f5760801b604482015290519081900360640190fd5b6000670de0b6b3a7640000826119bd565b600061174f82611ed0565b600061174c8383611ed4565b600061174c836001600160a01b038416611f38565b600061174c836001600160a01b038416611ffe565b6000818310611b33578161174c565b5090919050565b6060815167ffffffffffffffff81118015611b5457600080fd5b50604051908082528060200260200182016040528015611b7e578160200160208202803683370190505b50905060005b8251811015611dad576000611b9986866117e7565b9050611ba36120f7565b60016000868581518110611bb357fe5b6020908102919091018101516001600160a01b03908116835282820193909352604091820160009081208682528252829020825160808101845281546001600160501b038082168352600160501b8204811694830194909452600160a01b900490921692820192909252600190910154606082015291508681169088161015611d415780516020820151611c59916001600160501b03908116916105519183911661185b565b848481518110611c6557fe5b602002602001018181525050611d24858481518110611c8057fe5b60200260200101516001600160a01b031663f8b2cb4f886040518263ffffffff1660e01b815260040180826001600160a01b0316815260200191505060206040518083038186803b158015611cd457600080fd5b505afa158015611ce8573d6000803e3d6000fd5b505050506040513d6020811015611cfe57600080fd5b50518551869086908110611d0e57fe5b60200260200101516119c890919063ffffffff16565b848481518110611d3057fe5b602002602001018181525050611da3565b60208101518151611d63916001600160501b039081169161055191168261185b565b848481518110611d6f57fe5b602002602001018181525050611d8a858481518110611c8057fe5b848481518110611d9657fe5b6020026020010181815250505b5050600101611b84565b509392505050565b600080600019815b611dc985516020611b24565b811015611e85576000805b8651811015611e5357868281518110611de957fe5b6020026020010151878281518110611dfd57fe5b6020026020010151118015611e24575083878281518110611e1a57fe5b6020026020010151105b80611e42575083878381518110611e3757fe5b602002602001015110155b15611e4b578091505b600101611dd4565b50858181518110611e6057fe5b602090810291909101015160019182016008840260f8031b9490941793925001611dbd565b50909392505050565b600061174c83836040518060400160405280601e81526020017f536166654d6174683a207375627472616374696f6e206f766572666c6f770000815250612048565b5490565b81546000908210611f165760405162461bcd60e51b815260040180806020018281038252602281526020018061211f6022913960400191505060405180910390fd5b826000018281548110611f2557fe5b9060005260206000200154905092915050565b60008181526001830160205260408120548015611ff45783546000198083019190810190600090879083908110611f6b57fe5b9060005260206000200154905080876000018481548110611f8857fe5b600091825260208083209091019290925582815260018981019092526040902090840190558654879080611fb857fe5b6001900381819060005260206000200160009055905586600101600087815260200190815260200160002060009055600194505050505061174f565b600091505061174f565b600061200a83836120df565b6120405750815460018181018455600084815260208082209093018490558454848252828601909352604090209190915561174f565b50600061174f565b600081848411156120d75760405162461bcd60e51b81526004018080602001828103825283818151815260200191508051906020019080838360005b8381101561209c578181015183820152602001612084565b50505050905090810190601f1680156120c95780820380516001836020036101000a031916815260200191505b509250505060405180910390fd5b505050900390565b60009081526001919091016020526040902054151590565b6040805160808101825260008082526020820181905291810182905260608101919091529056fe456e756d657261626c655365743a20696e646578206f7574206f6620626f756e6473536166654d6174683a206d756c7469706c69636174696f6e206f766572666c6f77a26469706673582212201fcce8d3172706d56462690b3914c336652f9bf598d3741eff9a0a888c5375b664736f6c634300060c0033",
  "linkReferences": {},
  "deployedLinkReferences": {}
}