{
  "_format": "hh-sol-artifact-1",
  "contractName": "CurveAdapter",
  "sourceName": "contracts/adapters/exchanges/CurveAdapter.sol",
  "abi": [
    {
      "inputs": [
        {
          "internalType": "address",
          "name": "addressProvider_",
          "type": "address"
        },
        {
          "internalType": "address",
          "name": "weth_",
          "type": "address"
        }
      ],
      "stateMutability": "nonpayable",
      "type": "constructor"
    },
    {
      "inputs": [],
      "name": "addressProvider",
      "outputs": [
        {
          "internalType": "contract ICurveAddressProvider",
          "name": "",
          "type": "address"
        }
      ],
      "stateMutability": "view",
      "type": "function"
    },
    {
      "inputs": [
        {
          "internalType": "uint256",
          "name": "amount",
          "type": "uint256"
        },
        {
          "internalType": "uint256",
          "name": "expected",
          "type": "uint256"
        },
        {
          "internalType": "address",
          "name": "tokenIn",
          "type": "address"
        },
        {
          "internalType": "address",
          "name": "tokenOut",
          "type": "address"
        },
        {
          "internalType": "address",
          "name": "from",
          "type": "address"
        },
        {
          "internalType": "address",
          "name": "to",
          "type": "address"
        }
      ],
      "name": "swap",
      "outputs": [],
      "stateMutability": "nonpayable",
      "type": "function"
    },
    {
      "inputs": [],
      "name": "weth",
      "outputs": [
        {
          "internalType": "address",
          "name": "",
          "type": "address"
        }
      ],
      "stateMutability": "view",
      "type": "function"
    }
  ],
  "bytecode": "0x60c060405234801561001057600080fd5b50604051610c40380380610c4083398101604081905261002f9161004e565b6001600160601b0319606091821b811660805291901b1660a05261009f565b60008060408385031215610060578182fd5b825161006b81610087565b602084015190925061007c81610087565b809150509250929050565b6001600160a01b038116811461009c57600080fd5b50565b60805160601c60a05160601c610b746100cc6000398060c052806103f752508061041b5250610b746000f3fe608060405234801561001057600080fd5b50600436106100415760003560e01c8063230f11c7146100465780632954018c1461005b5780633fc8cef314610079575b600080fd5b6100596100543660046107c6565b610081565b005b6100636103f5565b6040516100709190610851565b60405180910390f35b610063610419565b826001600160a01b0316846001600160a01b031614156100bc5760405162461bcd60e51b81526004016100b3906109b1565b60405180910390fd5b60007f00000000000000000000000000000000000000000000000000000000000000006001600160a01b031663a262904b6040518163ffffffff1660e01b815260040160206040518083038186803b15801561011757600080fd5b505afa15801561012b573d6000803e3d6000fd5b505050506040513d601f19601f8201168201806040525081019061014f919061072a565b90506001600160a01b0383163014610176576101766001600160a01b03861684308a61043d565b604051636982eb0b60e01b81526000906001600160a01b03831690636982eb0b906101a9908990899086906004016108a2565b60206040518083038186803b1580156101c157600080fd5b505afa1580156101d5573d6000803e3d6000fd5b505050506040513d601f19601f820116820180604052508101906101f9919061072a565b90506001600160a01b0381166102215760405162461bcd60e51b81526004016100b390610ab5565b600080836001600160a01b031663eb85226d848a8a6040518463ffffffff1660e01b81526004016102549392919061087f565b60606040518083038186803b15801561026c57600080fd5b505afa158015610280573d6000803e3d6000fd5b505050506040513d601f19601f820116820180604052508101906102a49190610762565b5090925090506102be6001600160a01b038916848c61049b565b604051630f7c084960e21b81526001600160a01b03841690633df02124906102f190859085908f906001906004016108df565b600060405180830381600087803b15801561030b57600080fd5b505af115801561031f573d6000803e3d6000fd5b50506040516370a0823160e01b8152600092506001600160a01b038a1691506370a0823190610352903090600401610851565b60206040518083038186803b15801561036a57600080fd5b505afa15801561037e573d6000803e3d6000fd5b505050506040513d601f19601f820116820180604052508101906103a291906107ae565b9050898110156103c45760405162461bcd60e51b81526004016100b39061097b565b6001600160a01b03861630146103e8576103e86001600160a01b0389168783610563565b5050505050505050505050565b7f000000000000000000000000000000000000000000000000000000000000000081565b7f000000000000000000000000000000000000000000000000000000000000000081565b610495846323b872dd60e01b85858560405160240161045e939291906108a2565b60408051601f198184030181529190526020810180516001600160e01b03166001600160e01b031990931692909217909152610582565b50505050565b8015806105235750604051636eb1769f60e11b81526001600160a01b0384169063dd62ed3e906104d19030908690600401610865565b60206040518083038186803b1580156104e957600080fd5b505afa1580156104fd573d6000803e3d6000fd5b505050506040513d601f19601f8201168201806040525081019061052191906107ae565b155b61053f5760405162461bcd60e51b81526004016100b390610a5f565b61055e8363095ea7b360e01b848460405160240161045e9291906108c6565b505050565b61055e8363a9059cbb60e01b848460405160240161045e9291906108c6565b60606105d7826040518060400160405280602081526020017f5361666545524332303a206c6f772d6c6576656c2063616c6c206661696c6564815250856001600160a01b03166106119092919063ffffffff16565b80519091501561055e57808060200190518101906105f59190610746565b61055e5760405162461bcd60e51b81526004016100b390610a15565b6060610620848460008561062a565b90505b9392505050565b60608247101561064c5760405162461bcd60e51b81526004016100b390610935565b610655856106eb565b6106715760405162461bcd60e51b81526004016100b3906109de565b60006060866001600160a01b0316858760405161068e9190610835565b60006040518083038185875af1925050503d80600081146106cb576040519150601f19603f3d011682016040523d82523d6000602084013e6106d0565b606091505b50915091506106e08282866106f1565b979650505050505050565b3b151590565b60608315610700575081610623565b8251156107105782518084602001fd5b8160405162461bcd60e51b81526004016100b39190610902565b60006020828403121561073b578081fd5b815161062381610b09565b600060208284031215610757578081fd5b815161062381610b21565b600080600060608486031215610776578182fd5b835161078181610b2f565b602085015190935061079281610b2f565b60408501519092506107a381610b21565b809150509250925092565b6000602082840312156107bf578081fd5b5051919050565b60008060008060008060c087890312156107de578182fd5b863595506020870135945060408701356107f781610b09565b9350606087013561080781610b09565b9250608087013561081781610b09565b915060a087013561082781610b09565b809150509295509295509295565b60008251610847818460208701610add565b9190910192915050565b6001600160a01b0391909116815260200190565b6001600160a01b0392831681529116602082015260400190565b6001600160a01b0393841681529183166020830152909116604082015260600190565b6001600160a01b039384168152919092166020820152604081019190915260600190565b6001600160a01b03929092168252602082015260400190565b600f94850b81529290930b60208301526040820152606081019190915260800190565b6000602082528251806020840152610921816040850160208701610add565b601f01601f19169190910160400192915050565b60208082526026908201527f416464726573733a20696e73756666696369656e742062616c616e636520666f6040820152651c8818d85b1b60d21b606082015260800190565b6020808252601c908201527b125b9cdd59999a58da595b9d081d1bdad95b93dd5d08185b5bdd5b9d60221b604082015260600190565b6020808252601390820152720a8ded6cadce640c6c2dcdcdee840dac2e8c6d606b1b604082015260600190565b6020808252601d908201527f416464726573733a2063616c6c20746f206e6f6e2d636f6e7472616374000000604082015260600190565b6020808252602a908201527f5361666545524332303a204552433230206f7065726174696f6e20646964206e6040820152691bdd081cdd58d8d9595960b21b606082015260800190565b60208082526036908201527f5361666545524332303a20617070726f76652066726f6d206e6f6e2d7a65726f60408201527520746f206e6f6e2d7a65726f20616c6c6f77616e636560501b606082015260800190565b6020808252600e908201526d141bdbdb081b9bdd08199bdd5b9960921b604082015260600190565b60005b83811015610af8578181015183820152602001610ae0565b838111156104955750506000910152565b6001600160a01b0381168114610b1e57600080fd5b50565b8015158114610b1e57600080fd5b80600f0b8114610b1e57600080fdfea2646970667358221220ea45cd5080bee6adc316c39b52b805161473d0b0df6bf16419416cc330f4fbda64736f6c634300060c0033",
  "linkReferences": {},
  "deployedLinkReferences": {}
}