{
  "_format": "hh-sol-artifact-1",
  "contractName": "CurveAdapter",
  "sourceName": "contracts/adapters/exchanges/CurveAdapter.sol",
  "abi": [
    {
      "inputs": [
        {
          "internalType": "address",
          "name": "addressProvider_",
          "type": "address"
        },
        {
          "internalType": "address",
          "name": "weth_",
          "type": "address"
        }
      ],
      "stateMutability": "nonpayable",
      "type": "constructor"
    },
    {
      "inputs": [],
      "name": "addressProvider",
      "outputs": [
        {
          "internalType": "contract ICurveAddressProvider",
          "name": "",
          "type": "address"
        }
      ],
      "stateMutability": "view",
      "type": "function"
    },
    {
      "inputs": [
        {
          "internalType": "uint256",
          "name": "amount",
          "type": "uint256"
        },
        {
          "internalType": "address",
          "name": "tokenIn",
          "type": "address"
        },
        {
          "internalType": "address",
          "name": "tokenOut",
          "type": "address"
        }
      ],
      "name": "spotPrice",
      "outputs": [
        {
          "internalType": "uint256",
          "name": "",
          "type": "uint256"
        }
      ],
      "stateMutability": "view",
      "type": "function"
    },
    {
      "inputs": [
        {
          "internalType": "uint256",
          "name": "amount",
          "type": "uint256"
        },
        {
          "internalType": "uint256",
          "name": "expected",
          "type": "uint256"
        },
        {
          "internalType": "address",
          "name": "tokenIn",
          "type": "address"
        },
        {
          "internalType": "address",
          "name": "tokenOut",
          "type": "address"
        },
        {
          "internalType": "address",
          "name": "from",
          "type": "address"
        },
        {
          "internalType": "address",
          "name": "to",
          "type": "address"
        }
      ],
      "name": "swap",
      "outputs": [],
      "stateMutability": "nonpayable",
      "type": "function"
    },
    {
      "inputs": [],
      "name": "weth",
      "outputs": [
        {
          "internalType": "address",
          "name": "",
          "type": "address"
        }
      ],
      "stateMutability": "view",
      "type": "function"
    }
  ],
  "bytecode": "0x60c060405234801561001057600080fd5b50604051610f39380380610f3983398101604081905261002f9161004e565b6001600160601b0319606091821b811660805291901b1660a05261009f565b60008060408385031215610060578182fd5b825161006b81610087565b602084015190925061007c81610087565b809150509250929050565b6001600160a01b038116811461009c57600080fd5b50565b60805160601c60a05160601c610e686100d16000398060eb5280610422528061048f5250806104465250610e686000f3fe608060405234801561001057600080fd5b506004361061004c5760003560e01c8063230f11c7146100515780632954018c146100665780633fc8cef31461008457806377ec159d1461008c575b600080fd5b61006461005f366004610a93565b6100ac565b005b61006e610420565b60405161007b9190610b1e565b60405180910390f35b61006e610444565b61009f61009a366004610a5d565b610468565b60405161007b9190610dc8565b826001600160a01b0316846001600160a01b031614156100e75760405162461bcd60e51b81526004016100de90610c9c565b60405180910390fd5b60007f00000000000000000000000000000000000000000000000000000000000000006001600160a01b031663a262904b6040518163ffffffff1660e01b815260040160206040518083038186803b15801561014257600080fd5b505afa158015610156573d6000803e3d6000fd5b505050506040513d601f19601f8201168201806040525081019061017a91906109c1565b90506001600160a01b03831630146101a1576101a16001600160a01b03861684308a6106d6565b604051636982eb0b60e01b81526000906001600160a01b03831690636982eb0b906101d490899089908690600401610b6f565b60206040518083038186803b1580156101ec57600080fd5b505afa158015610200573d6000803e3d6000fd5b505050506040513d601f19601f8201168201806040525081019061022491906109c1565b90506001600160a01b03811661024c5760405162461bcd60e51b81526004016100de90610da0565b600080836001600160a01b031663eb85226d848a8a6040518463ffffffff1660e01b815260040161027f93929190610b4c565b60606040518083038186803b15801561029757600080fd5b505afa1580156102ab573d6000803e3d6000fd5b505050506040513d601f19601f820116820180604052508101906102cf91906109f9565b5090925090506102e96001600160a01b038916848c610734565b604051630f7c084960e21b81526001600160a01b03841690633df021249061031c90859085908f90600190600401610bca565b600060405180830381600087803b15801561033657600080fd5b505af115801561034a573d6000803e3d6000fd5b50506040516370a0823160e01b8152600092506001600160a01b038a1691506370a082319061037d903090600401610b1e565b60206040518083038186803b15801561039557600080fd5b505afa1580156103a9573d6000803e3d6000fd5b505050506040513d601f19601f820116820180604052508101906103cd9190610a45565b9050898110156103ef5760405162461bcd60e51b81526004016100de90610c66565b6001600160a01b0386163014610413576104136001600160a01b03891687836107fc565b5050505050505050505050565b7f000000000000000000000000000000000000000000000000000000000000000081565b7f000000000000000000000000000000000000000000000000000000000000000081565b6000816001600160a01b0316836001600160a01b0316141561048b5750826106cf565b60007f00000000000000000000000000000000000000000000000000000000000000006001600160a01b031663a262904b6040518163ffffffff1660e01b815260040160206040518083038186803b1580156104e657600080fd5b505afa1580156104fa573d6000803e3d6000fd5b505050506040513d601f19601f8201168201806040525081019061051e91906109c1565b90506000816001600160a01b0316636982eb0b868660006040518463ffffffff1660e01b815260040161055393929190610b6f565b60206040518083038186803b15801561056b57600080fd5b505afa15801561057f573d6000803e3d6000fd5b505050506040513d601f19601f820116820180604052508101906105a391906109c1565b90506001600160a01b038116156106c857600080836001600160a01b031663eb85226d8489896040518463ffffffff1660e01b81526004016105e793929190610b4c565b60606040518083038186803b1580156105ff57600080fd5b505afa158015610613573d6000803e3d6000fd5b505050506040513d601f19601f8201168201806040525081019061063791906109f9565b50604051635e0d443f60e01b815291935091506001600160a01b03841690635e0d443f9061066d90859085908d90600401610bac565b60206040518083038186803b15801561068557600080fd5b505afa158015610699573d6000803e3d6000fd5b505050506040513d601f19601f820116820180604052508101906106bd9190610a45565b9450505050506106cf565b6000925050505b9392505050565b61072e846323b872dd60e01b8585856040516024016106f793929190610b6f565b60408051601f198184030181529190526020810180516001600160e01b03166001600160e01b03199093169290921790915261081b565b50505050565b8015806107bc5750604051636eb1769f60e11b81526001600160a01b0384169063dd62ed3e9061076a9030908690600401610b32565b60206040518083038186803b15801561078257600080fd5b505afa158015610796573d6000803e3d6000fd5b505050506040513d601f19601f820116820180604052508101906107ba9190610a45565b155b6107d85760405162461bcd60e51b81526004016100de90610d4a565b6107f78363095ea7b360e01b84846040516024016106f7929190610b93565b505050565b6107f78363a9059cbb60e01b84846040516024016106f7929190610b93565b6060610870826040518060400160405280602081526020017f5361666545524332303a206c6f772d6c6576656c2063616c6c206661696c6564815250856001600160a01b03166108aa9092919063ffffffff16565b8051909150156107f7578080602001905181019061088e91906109dd565b6107f75760405162461bcd60e51b81526004016100de90610d00565b60606108b984846000856108c1565b949350505050565b6060824710156108e35760405162461bcd60e51b81526004016100de90610c20565b6108ec85610982565b6109085760405162461bcd60e51b81526004016100de90610cc9565b60006060866001600160a01b031685876040516109259190610b02565b60006040518083038185875af1925050503d8060008114610962576040519150601f19603f3d011682016040523d82523d6000602084013e610967565b606091505b5091509150610977828286610988565b979650505050505050565b3b151590565b606083156109975750816106cf565b8251156109a75782518084602001fd5b8160405162461bcd60e51b81526004016100de9190610bed565b6000602082840312156109d2578081fd5b81516106cf81610dfd565b6000602082840312156109ee578081fd5b81516106cf81610e15565b600080600060608486031215610a0d578182fd5b8351610a1881610e23565b6020850151909350610a2981610e23565b6040850151909250610a3a81610e15565b809150509250925092565b600060208284031215610a56578081fd5b5051919050565b600080600060608486031215610a71578283fd5b833592506020840135610a8381610dfd565b91506040840135610a3a81610dfd565b60008060008060008060c08789031215610aab578182fd5b86359550602087013594506040870135610ac481610dfd565b93506060870135610ad481610dfd565b92506080870135610ae481610dfd565b915060a0870135610af481610dfd565b809150509295509295509295565b60008251610b14818460208701610dd1565b9190910192915050565b6001600160a01b0391909116815260200190565b6001600160a01b0392831681529116602082015260400190565b6001600160a01b0393841681529183166020830152909116604082015260600190565b6001600160a01b039384168152919092166020820152604081019190915260600190565b6001600160a01b03929092168252602082015260400190565b600f93840b81529190920b6020820152604081019190915260600190565b600f94850b81529290930b60208301526040820152606081019190915260800190565b6000602082528251806020840152610c0c816040850160208701610dd1565b601f01601f19169190910160400192915050565b60208082526026908201527f416464726573733a20696e73756666696369656e742062616c616e636520666f6040820152651c8818d85b1b60d21b606082015260800190565b6020808252601c908201527b125b9cdd59999a58da595b9d081d1bdad95b93dd5d08185b5bdd5b9d60221b604082015260600190565b6020808252601390820152720a8ded6cadce640c6c2dcdcdee840dac2e8c6d606b1b604082015260600190565b6020808252601d908201527f416464726573733a2063616c6c20746f206e6f6e2d636f6e7472616374000000604082015260600190565b6020808252602a908201527f5361666545524332303a204552433230206f7065726174696f6e20646964206e6040820152691bdd081cdd58d8d9595960b21b606082015260800190565b60208082526036908201527f5361666545524332303a20617070726f76652066726f6d206e6f6e2d7a65726f60408201527520746f206e6f6e2d7a65726f20616c6c6f77616e636560501b606082015260800190565b6020808252600e908201526d141bdbdb081b9bdd08199bdd5b9960921b604082015260600190565b90815260200190565b60005b83811015610dec578181015183820152602001610dd4565b8381111561072e5750506000910152565b6001600160a01b0381168114610e1257600080fd5b50565b8015158114610e1257600080fd5b80600f0b8114610e1257600080fdfea2646970667358221220581cf367fafe39e03a999c78ed400defe1842d8c9b301d4d9036c4cc0625954c64736f6c634300060c0033",
  "linkReferences": {},
  "deployedLinkReferences": {}
}