{
  "_format": "hh-sol-artifact-1",
  "contractName": "NonfungibleTokenPositionDescriptor",
  "sourceName": "contracts/test/NonfungibleTokenPositionDescriptor.sol",
  "abi": [
    {
      "inputs": [
        {
          "internalType": "address",
          "name": "_WETH9",
          "type": "address"
        }
      ],
      "stateMutability": "nonpayable",
      "type": "constructor"
    },
    {
      "inputs": [],
      "name": "WETH9",
      "outputs": [
        {
          "internalType": "address",
          "name": "",
          "type": "address"
        }
      ],
      "stateMutability": "view",
      "type": "function"
    },
    {
      "inputs": [
        {
          "internalType": "address",
          "name": "token0",
          "type": "address"
        },
        {
          "internalType": "address",
          "name": "token1",
          "type": "address"
        },
        {
          "internalType": "uint256",
          "name": "chainId",
          "type": "uint256"
        }
      ],
      "name": "flipRatio",
      "outputs": [
        {
          "internalType": "bool",
          "name": "",
          "type": "bool"
        }
      ],
      "stateMutability": "view",
      "type": "function"
    },
    {
      "inputs": [
        {
          "internalType": "address",
          "name": "token",
          "type": "address"
        },
        {
          "internalType": "uint256",
          "name": "chainId",
          "type": "uint256"
        }
      ],
      "name": "tokenRatioPriority",
      "outputs": [
        {
          "internalType": "int256",
          "name": "",
          "type": "int256"
        }
      ],
      "stateMutability": "view",
      "type": "function"
    },
    {
      "inputs": [
        {
          "internalType": "contract INonfungiblePositionManager",
          "name": "positionManager",
          "type": "address"
        },
        {
          "internalType": "uint256",
          "name": "tokenId",
          "type": "uint256"
        }
      ],
      "name": "tokenURI",
      "outputs": [
        {
          "internalType": "string",
          "name": "",
          "type": "string"
        }
      ],
      "stateMutability": "view",
      "type": "function"
    }
  ],
  "bytecode": "0x60a060405234801561001057600080fd5b506040516113cc3803806113cc83398101604081905261002f91610044565b60601b6001600160601b031916608052610072565b600060208284031215610055578081fd5b81516001600160a01b038116811461006b578182fd5b9392505050565b60805160601c61132f61009d6000398060d15280610116528061049a5280610503525061132f6000f3fe608060405234801561001057600080fd5b506004361061004c5760003560e01c80634aa4a4fc146100515780637e5af7711461006f5780639d7b0ea81461008f578063e9dc6375146100af575b600080fd5b6100596100cf565b6040516100669190611158565b60405180910390f35b61008261007d366004610e5e565b6100f3565b604051610066919061116c565b6100a261009d366004610e9e565b610112565b6040516100669190611177565b6100c26100bd366004610e9e565b610257565b6040516100669190611180565b7f000000000000000000000000000000000000000000000000000000000000000081565b60006100ff8383610112565b6101098584610112565b13949350505050565b60007f00000000000000000000000000000000000000000000000000000000000000006001600160a01b0316836001600160a01b031614156101575750606319610251565b816001141561024d576001600160a01b03831673a0b86991c6218b36c1d19d4a2e9eb0ce3606eb48141561018e575061012c610251565b6001600160a01b03831673dac17f958d2ee523a2206206994597c13d831ec714156101bb575060c8610251565b6001600160a01b038316736b175474e89094c44da98b954eedeac495271d0f14156101e857506064610251565b6001600160a01b038316738daebade922df735c38c80c7ebd708af50815faa1415610216575060c719610251565b6001600160a01b038316732260fac5e5542a773aa44fbcfedf7c193bc2c5991415610245575061012b19610251565b506000610251565b5060005b92915050565b60606000806000806000876001600160a01b03166399fbab88886040518263ffffffff1660e01b815260040161028d9190611177565b6101806040518083038186803b1580156102a657600080fd5b505afa1580156102ba573d6000803e3d6000fd5b505050506040513d601f19601f820116820180604052508101906102de9190611023565b5050505050965096509650965096505050600061039c896001600160a01b031663c45a01556040518163ffffffff1660e01b815260040160206040518083038186803b15801561032d57600080fd5b505afa158015610341573d6000803e3d6000fd5b505050506040513d601f19601f820116820180604052508101906103659190610e3b565b6040518060600160405280896001600160a01b03168152602001886001600160a01b031681526020018762ffffff16815250610791565b905060006103ad878761007d610875565b9050600081156103bd57876103bf565b865b9050600082156103cf57876103d1565b885b90506000846001600160a01b0316633850c7bd6040518163ffffffff1660e01b815260040160e06040518083038186803b15801561040e57600080fd5b505afa158015610422573d6000803e3d6000fd5b505050506040513d601f19601f820116820180604052508101906104469190610f7a565b505050505091505073__$9f7657269f07f7887db7d96b90c3a13a65$__63c49917d7604051806101c001604052808f8152602001866001600160a01b03168152602001856001600160a01b031681526020017f00000000000000000000000000000000000000000000000000000000000000006001600160a01b0316876001600160a01b0316146104df576104da87610879565b6104fc565b6040518060400160405280600381526020016208aa8960eb1b8152505b81526020017f00000000000000000000000000000000000000000000000000000000000000006001600160a01b0316866001600160a01b0316146105485761054386610879565b610565565b6040518060400160405280600381526020016208aa8960eb1b8152505b8152602001866001600160a01b031663313ce5676040518163ffffffff1660e01b815260040160206040518083038186803b1580156105a357600080fd5b505afa1580156105b7573d6000803e3d6000fd5b505050506040513d601f19601f820116820180604052508101906105db9190611009565b60ff168152602001856001600160a01b031663313ce5676040518163ffffffff1660e01b815260040160206040518083038186803b15801561061c57600080fd5b505afa158015610630573d6000803e3d6000fd5b505050506040513d601f19601f820116820180604052508101906106549190611009565b60ff16815260200187151581526020018a60020b81526020018960020b81526020018460020b8152602001886001600160a01b031663d0c93a7c6040518163ffffffff1660e01b815260040160206040518083038186803b1580156106b857600080fd5b505afa1580156106cc573d6000803e3d6000fd5b505050506040513d601f19601f820116820180604052508101906106f09190610ec9565b60020b81526020018b62ffffff168152602001886001600160a01b03168152506040518263ffffffff1660e01b815260040161072c9190611193565b60006040518083038186803b15801561074457600080fd5b505af4158015610758573d6000803e3d6000fd5b505050506040513d6000823e601f3d908101601f191682016040526107809190810190610ee3565b9d9c50505050505050505050505050565b600081602001516001600160a01b031682600001516001600160a01b0316106107b957600080fd5b50805160208083015160409384015184516001600160a01b0394851681850152939091168385015262ffffff166060808401919091528351808403820181526080840185528051908301206001600160f81b031960a085015294901b6bffffffffffffffffffffffff191660a183015260b58201939093527fe34f199b19b2b4f47f68442619d555527d244f78a3297ea89325f843f87b8b5460d5808301919091528251808303909101815260f5909101909152805191012090565b4690565b6060600061088e836395d89b4160e01b6108b3565b90508051600014156108ab576108a383610b08565b9150506108ae565b90505b919050565b60408051600481526024810182526020810180517bffffffffffffffffffffffffffffffffffffffffffffffffffffffff167fffffffff0000000000000000000000000000000000000000000000000000000085161781529151815160609360009384936001600160a01b03891693919290918291908083835b6020831061094c5780518252601f19909201916020918201910161092d565b6001836020036101000a038019825116818451168082178552505050505050905001915050600060405180830381855afa9150503d80600081146109ac576040519150601f19603f3d011682016040523d82523d6000602084013e6109b1565b606091505b50915091508115806109c257508051155b156109e0576040518060200160405280600081525092505050610251565b805160201415610a18576000818060200190516020811015610a0157600080fd5b50519050610a0e81610b15565b9350505050610251565b604081511115610af057808060200190516020811015610a3757600080fd5b8101908080516040519392919084640100000000821115610a5757600080fd5b908301906020820185811115610a6c57600080fd5b8251640100000000811182820188101715610a8657600080fd5b82525081516020918201929091019080838360005b83811015610ab3578181015183820152602001610a9b565b50505050905090810190601f168015610ae05780820380516001836020036101000a031916815260200191505b5060405250505092505050610251565b50506040805160208101909152600081529392505050565b60606108ab826006610c3d565b604080516020808252818301909252606091600091906020820181803683370190505090506000805b6020811015610b9f576000858260208110610b5557fe5b1a60f81b90506001600160f81b0319811615610b965780848481518110610b7857fe5b60200101906001600160f81b031916908160001a9053506001909201915b50600101610b3e565b5060008167ffffffffffffffff81118015610bb957600080fd5b506040519080825280601f01601f191660200182016040528015610be4576020820181803683370190505b50905060005b82811015610c3457838181518110610bfe57fe5b602001015160f81c60f81b828281518110610c1557fe5b60200101906001600160f81b031916908160001a905350600101610bea565b50949350505050565b606060028206158015610c505750600082115b8015610c5d575060288211155b610cae576040805162461bcd60e51b815260206004820152601e60248201527f41646472657373537472696e675574696c3a20494e56414c49445f4c454e0000604482015290519081900360640190fd5b60008267ffffffffffffffff81118015610cc757600080fd5b506040519080825280601f01601f191660200182016040528015610cf2576020820181803683370190505b5090506001600160a01b03841660005b60028504811015610d9657600860138290030282901c600f600482901c1660f082168203610d2f82610da0565b868560020281518110610d3e57fe5b60200101906001600160f81b031916908160001a905350610d5e81610da0565b868560020260010181518110610d7057fe5b60200101906001600160f81b031916908160001a9053505060019092019150610d029050565b5090949350505050565b6000600a8260ff161015610dbb57506030810160f81b6108ae565b506037810160f81b6108ae565b80516108ae816112e1565b8051600281900b81146108ae57600080fd5b80516fffffffffffffffffffffffffffffffff811681146108ae57600080fd5b805161ffff811681146108ae57600080fd5b805162ffffff811681146108ae57600080fd5b805160ff811681146108ae57600080fd5b600060208284031215610e4c578081fd5b8151610e57816112e1565b9392505050565b600080600060608486031215610e72578182fd5b8335610e7d816112e1565b92506020840135610e8d816112e1565b929592945050506040919091013590565b60008060408385031215610eb0578182fd5b8235610ebb816112e1565b946020939093013593505050565b600060208284031215610eda578081fd5b610e5782610dd3565b600060208284031215610ef4578081fd5b815167ffffffffffffffff80821115610f0b578283fd5b818401915084601f830112610f1e578283fd5b815181811115610f2a57fe5b604051601f8201601f191681016020018381118282101715610f4857fe5b604052818152838201602001871015610f5f578485fd5b610f708260208301602087016112b1565b9695505050505050565b600080600080600080600060e0888a031215610f94578283fd5b8751610f9f816112e1565b9650610fad60208901610dd3565b9550610fbb60408901610e05565b9450610fc960608901610e05565b9350610fd760808901610e05565b9250610fe560a08901610e2a565b915060c08801518015158114610ff9578182fd5b8091505092959891949750929550565b60006020828403121561101a578081fd5b610e5782610e2a565b6000806000806000806000806000806000806101808d8f031215611045578485fd5b8c516bffffffffffffffffffffffff81168114611060578586fd5b9b5061106e60208e01610dc8565b9a5061107c60408e01610dc8565b995061108a60608e01610dc8565b985061109860808e01610e17565b97506110a660a08e01610dd3565b96506110b460c08e01610dd3565b95506110c260e08e01610de5565b94506101008d015193506101208d015192506110e16101408e01610de5565b91506110f06101608e01610de5565b90509295989b509295989b509295989b565b6001600160a01b03169052565b15159052565b60020b9052565b600081518084526111348160208601602086016112b1565b601f01601f19169290920160200192915050565b62ffffff169052565b60ff169052565b6001600160a01b0391909116815260200190565b901515815260200190565b90815260200190565b600060208252610e57602083018461111c565b6000602082528251602083015260208301516111b26040840182611102565b5060408301516111c56060840182611102565b5060608301516101c08060808501526111e26101e085018361111c565b91506080850151601f198584030160a08601526111ff838261111c565b92505060a085015161121460c0860182611151565b5060c085015161122760e0860182611151565b5060e085015161010061123c8187018361110f565b860151905061012061125086820183611115565b860151905061014061126486820183611115565b860151905061016061127886820183611115565b860151905061018061128c86820183611115565b86015190506101a06112a086820183611148565b8601519050610d9685830182611102565b60005b838110156112cc5781810151838201526020016112b4565b838111156112db576000848401525b50505050565b6001600160a01b03811681146112f657600080fd5b5056fea2646970667358221220acd0a190e03c31cad2ccfdf9bb547b36920f0c062bae99569ac26a20e1b5e8f164736f6c63430007060033",
  "linkReferences": {
    "@uniswap/v3-periphery/contracts/libraries/NFTDescriptor.sol": {
      "NFTDescriptor": [
        {
          "length": 20,
          "start": 1261
        }
      ]
    }
  },
  "deployedLinkReferences": {
    "@uniswap/v3-periphery/contracts/libraries/NFTDescriptor.sol": {
      "NFTDescriptor": [
        {
          "length": 20,
          "start": 1104
        }
      ]
    }
  }
}