{
  "_format": "hh-sol-artifact-1",
  "contractName": "NonfungibleTokenPositionDescriptor",
  "sourceName": "contracts/test/NonfungibleTokenPositionDescriptor.sol",
  "abi": [
    {
      "inputs": [
        {
          "internalType": "address",
          "name": "_WETH9",
          "type": "address"
        }
      ],
      "stateMutability": "nonpayable",
      "type": "constructor"
    },
    {
      "inputs": [],
      "name": "WETH9",
      "outputs": [
        {
          "internalType": "address",
          "name": "",
          "type": "address"
        }
      ],
      "stateMutability": "view",
      "type": "function"
    },
    {
      "inputs": [
        {
          "internalType": "address",
          "name": "token0",
          "type": "address"
        },
        {
          "internalType": "address",
          "name": "token1",
          "type": "address"
        },
        {
          "internalType": "uint256",
          "name": "chainId",
          "type": "uint256"
        }
      ],
      "name": "flipRatio",
      "outputs": [
        {
          "internalType": "bool",
          "name": "",
          "type": "bool"
        }
      ],
      "stateMutability": "view",
      "type": "function"
    },
    {
      "inputs": [
        {
          "internalType": "address",
          "name": "token",
          "type": "address"
        },
        {
          "internalType": "uint256",
          "name": "chainId",
          "type": "uint256"
        }
      ],
      "name": "tokenRatioPriority",
      "outputs": [
        {
          "internalType": "int256",
          "name": "",
          "type": "int256"
        }
      ],
      "stateMutability": "view",
      "type": "function"
    },
    {
      "inputs": [
        {
          "internalType": "contract INonfungiblePositionManager",
          "name": "positionManager",
          "type": "address"
        },
        {
          "internalType": "uint256",
          "name": "tokenId",
          "type": "uint256"
        }
      ],
      "name": "tokenURI",
      "outputs": [
        {
          "internalType": "string",
          "name": "",
          "type": "string"
        }
      ],
      "stateMutability": "view",
      "type": "function"
    }
  ],
  "bytecode": "0x60a060405234801561001057600080fd5b5060405161138738038061138783398101604081905261002f91610044565b60601b6001600160601b031916608052610072565b600060208284031215610055578081fd5b81516001600160a01b038116811461006b578182fd5b9392505050565b60805160601c6112ea61009d6000398060d15280610116528061049a528061050352506112ea6000f3fe608060405234801561001057600080fd5b506004361061004c5760003560e01c80634aa4a4fc146100515780637e5af7711461006f5780639d7b0ea81461008f578063e9dc6375146100af575b600080fd5b6100596100cf565b6040516100669190611113565b60405180910390f35b61008261007d366004610e1f565b6100f3565b6040516100669190611127565b6100a261009d366004610e5f565b610112565b6040516100669190611132565b6100c26100bd366004610e5f565b610257565b604051610066919061113b565b7f000000000000000000000000000000000000000000000000000000000000000081565b60006100ff8383610112565b6101098584610112565b13949350505050565b60007f00000000000000000000000000000000000000000000000000000000000000006001600160a01b0316836001600160a01b031614156101575750606319610251565b816001141561024d576001600160a01b03831673a0b86991c6218b36c1d19d4a2e9eb0ce3606eb48141561018e575061012c610251565b6001600160a01b03831673dac17f958d2ee523a2206206994597c13d831ec714156101bb575060c8610251565b6001600160a01b038316736b175474e89094c44da98b954eedeac495271d0f14156101e857506064610251565b6001600160a01b038316738daebade922df735c38c80c7ebd708af50815faa1415610216575060c719610251565b6001600160a01b038316732260fac5e5542a773aa44fbcfedf7c193bc2c5991415610245575061012b19610251565b506000610251565b5060005b92915050565b60606000806000806000876001600160a01b03166399fbab88886040518263ffffffff1660e01b815260040161028d9190611132565b6101806040518083038186803b1580156102a657600080fd5b505afa1580156102ba573d6000803e3d6000fd5b505050506040513d601f19601f820116820180604052508101906102de9190610fe3565b5050505050965096509650965096505050600061039c896001600160a01b031663c45a01556040518163ffffffff1660e01b815260040160206040518083038186803b15801561032d57600080fd5b505afa158015610341573d6000803e3d6000fd5b505050506040513d601f19601f820116820180604052508101906103659190610dfc565b6040518060600160405280896001600160a01b03168152602001886001600160a01b031681526020018762ffffff16815250610791565b905060006103ad878761007d610870565b9050600081156103bd57876103bf565b865b9050600082156103cf57876103d1565b885b90506000846001600160a01b0316633850c7bd6040518163ffffffff1660e01b815260040160e06040518083038186803b15801561040e57600080fd5b505afa158015610422573d6000803e3d6000fd5b505050506040513d601f19601f820116820180604052508101906104469190610f3a565b505050505091505073__$9f7657269f07f7887db7d96b90c3a13a65$__63c49917d7604051806101c001604052808f8152602001866001600160a01b03168152602001856001600160a01b031681526020017f00000000000000000000000000000000000000000000000000000000000000006001600160a01b0316876001600160a01b0316146104df576104da87610874565b6104fc565b6040518060400160405280600381526020016208aa8960eb1b8152505b81526020017f00000000000000000000000000000000000000000000000000000000000000006001600160a01b0316866001600160a01b0316146105485761054386610874565b610565565b6040518060400160405280600381526020016208aa8960eb1b8152505b8152602001866001600160a01b031663313ce5676040518163ffffffff1660e01b815260040160206040518083038186803b1580156105a357600080fd5b505afa1580156105b7573d6000803e3d6000fd5b505050506040513d601f19601f820116820180604052508101906105db9190610fc9565b60ff168152602001856001600160a01b031663313ce5676040518163ffffffff1660e01b815260040160206040518083038186803b15801561061c57600080fd5b505afa158015610630573d6000803e3d6000fd5b505050506040513d601f19601f820116820180604052508101906106549190610fc9565b60ff16815260200187151581526020018a60020b81526020018960020b81526020018460020b8152602001886001600160a01b031663d0c93a7c6040518163ffffffff1660e01b815260040160206040518083038186803b1580156106b857600080fd5b505afa1580156106cc573d6000803e3d6000fd5b505050506040513d601f19601f820116820180604052508101906106f09190610e8a565b60020b81526020018b62ffffff168152602001886001600160a01b03168152506040518263ffffffff1660e01b815260040161072c919061114e565b60006040518083038186803b15801561074457600080fd5b505af4158015610758573d6000803e3d6000fd5b505050506040513d6000823e601f3d908101601f191682016040526107809190810190610ea4565b9d9c50505050505050505050505050565b600081602001516001600160a01b031682600001516001600160a01b0316106107b957600080fd5b50805160208083015160409384015184516001600160a01b0394851681850152939091168385015262ffffff166060808401919091528351808403820181526080840185528051908301206001600160f81b031960a085015294901b6001600160601b03191660a183015260b58201939093527fe34f199b19b2b4f47f68442619d555527d244f78a3297ea89325f843f87b8b5460d5808301919091528251808303909101815260f5909101909152805191012090565b4690565b60606000610889836395d89b4160e01b6108ae565b90508051600014156108a65761089e83610ad4565b9150506108a9565b90505b919050565b60408051600481526024810182526020810180516001600160e01b03166001600160e01b031985161781529151815160609360009384936001600160a01b03891693919290918291908083835b6020831061091a5780518252601f1990920191602091820191016108fb565b6001836020036101000a038019825116818451168082178552505050505050905001915050600060405180830381855afa9150503d806000811461097a576040519150601f19603f3d011682016040523d82523d6000602084013e61097f565b606091505b509150915081158061099057508051155b156109ae576040518060200160405280600081525092505050610251565b8051602014156109e65760008180602001905160208110156109cf57600080fd5b505190506109dc81610ae1565b9350505050610251565b604081511115610abc57808060200190516020811015610a0557600080fd5b8101908080516040519392919084600160201b821115610a2457600080fd5b908301906020820185811115610a3957600080fd5b8251600160201b811182820188101715610a5257600080fd5b82525081516020918201929091019080838360005b83811015610a7f578181015183820152602001610a67565b50505050905090810190601f168015610aac5780820380516001836020036101000a031916815260200191505b5060405250505092505050610251565b50506040805160208101909152600081529392505050565b60606108a6826006610c08565b604080516020808252818301909252606091600091906020820181803683370190505090506000805b6020811015610b6b576000858260208110610b2157fe5b1a60f81b90506001600160f81b0319811615610b625780848481518110610b4457fe5b60200101906001600160f81b031916908160001a9053506001909201915b50600101610b0a565b506000816001600160401b0381118015610b8457600080fd5b506040519080825280601f01601f191660200182016040528015610baf576020820181803683370190505b50905060005b82811015610bff57838181518110610bc957fe5b602001015160f81c60f81b828281518110610be057fe5b60200101906001600160f81b031916908160001a905350600101610bb5565b50949350505050565b606060028206158015610c1b5750600082115b8015610c28575060288211155b610c79576040805162461bcd60e51b815260206004820152601e60248201527f41646472657373537472696e675574696c3a20494e56414c49445f4c454e0000604482015290519081900360640190fd5b6000826001600160401b0381118015610c9157600080fd5b506040519080825280601f01601f191660200182016040528015610cbc576020820181803683370190505b5090506001600160a01b03841660005b60028504811015610d6057600860138290030282901c600f600482901c1660f082168203610cf982610d6a565b868560020281518110610d0857fe5b60200101906001600160f81b031916908160001a905350610d2881610d6a565b868560020260010181518110610d3a57fe5b60200101906001600160f81b031916908160001a9053505060019092019150610ccc9050565b5090949350505050565b6000600a8260ff161015610d8557506030810160f81b6108a9565b506037810160f81b6108a9565b80516108a98161129c565b8051600281900b81146108a957600080fd5b80516001600160801b03811681146108a957600080fd5b805161ffff811681146108a957600080fd5b805162ffffff811681146108a957600080fd5b805160ff811681146108a957600080fd5b600060208284031215610e0d578081fd5b8151610e188161129c565b9392505050565b600080600060608486031215610e33578182fd5b8335610e3e8161129c565b92506020840135610e4e8161129c565b929592945050506040919091013590565b60008060408385031215610e71578182fd5b8235610e7c8161129c565b946020939093013593505050565b600060208284031215610e9b578081fd5b610e1882610d9d565b600060208284031215610eb5578081fd5b81516001600160401b0380821115610ecb578283fd5b818401915084601f830112610ede578283fd5b815181811115610eea57fe5b604051601f8201601f191681016020018381118282101715610f0857fe5b604052818152838201602001871015610f1f578485fd5b610f3082602083016020870161126c565b9695505050505050565b600080600080600080600060e0888a031215610f54578283fd5b8751610f5f8161129c565b9650610f6d60208901610d9d565b9550610f7b60408901610dc6565b9450610f8960608901610dc6565b9350610f9760808901610dc6565b9250610fa560a08901610deb565b915060c08801518015158114610fb9578182fd5b8091505092959891949750929550565b600060208284031215610fda578081fd5b610e1882610deb565b6000806000806000806000806000806000806101808d8f031215611005578485fd5b8c516001600160601b038116811461101b578586fd5b9b5061102960208e01610d92565b9a5061103760408e01610d92565b995061104560608e01610d92565b985061105360808e01610dd8565b975061106160a08e01610d9d565b965061106f60c08e01610d9d565b955061107d60e08e01610daf565b94506101008d015193506101208d0151925061109c6101408e01610daf565b91506110ab6101608e01610daf565b90509295989b509295989b509295989b565b6001600160a01b03169052565b15159052565b60020b9052565b600081518084526110ef81602086016020860161126c565b601f01601f19169290920160200192915050565b62ffffff169052565b60ff169052565b6001600160a01b0391909116815260200190565b901515815260200190565b90815260200190565b600060208252610e1860208301846110d7565b60006020825282516020830152602083015161116d60408401826110bd565b50604083015161118060608401826110bd565b5060608301516101c080608085015261119d6101e08501836110d7565b91506080850151601f198584030160a08601526111ba83826110d7565b92505060a08501516111cf60c086018261110c565b5060c08501516111e260e086018261110c565b5060e08501516101006111f7818701836110ca565b860151905061012061120b868201836110d0565b860151905061014061121f868201836110d0565b8601519050610160611233868201836110d0565b8601519050610180611247868201836110d0565b86015190506101a061125b86820183611103565b8601519050610d60858301826110bd565b60005b8381101561128757818101518382015260200161126f565b83811115611296576000848401525b50505050565b6001600160a01b03811681146112b157600080fd5b5056fea2646970667358221220468c5d91714273e1dc071884c4208f6abced72ce1aa19fdba9d04443439a896264736f6c63430007060033",
  "linkReferences": {
    "@uniswap/v3-periphery/contracts/libraries/NFTDescriptor.sol": {
      "NFTDescriptor": [
        {
          "length": 20,
          "start": 1261
        }
      ]
    }
  },
  "deployedLinkReferences": {
    "@uniswap/v3-periphery/contracts/libraries/NFTDescriptor.sol": {
      "NFTDescriptor": [
        {
          "length": 20,
          "start": 1104
        }
      ]
    }
  }
}