{
  "_format": "hh-sol-artifact-1",
  "contractName": "EmergencyEstimator",
  "sourceName": "contracts/oracles/estimators/EmergencyEstimator.sol",
  "abi": [
    {
      "inputs": [],
      "stateMutability": "nonpayable",
      "type": "constructor"
    },
    {
      "anonymous": false,
      "inputs": [
        {
          "indexed": false,
          "internalType": "address",
          "name": "token",
          "type": "address"
        },
        {
          "indexed": false,
          "internalType": "int256",
          "name": "amount",
          "type": "int256"
        },
        {
          "indexed": false,
          "internalType": "bool",
          "name": "finalized",
          "type": "bool"
        }
      ],
      "name": "EstimateSet",
      "type": "event"
    },
    {
      "anonymous": false,
      "inputs": [
        {
          "indexed": true,
          "internalType": "address",
          "name": "previousOwner",
          "type": "address"
        },
        {
          "indexed": true,
          "internalType": "address",
          "name": "newOwner",
          "type": "address"
        }
      ],
      "name": "OwnershipTransferred",
      "type": "event"
    },
    {
      "anonymous": false,
      "inputs": [
        {
          "indexed": false,
          "internalType": "bytes32",
          "name": "identifier",
          "type": "bytes32"
        },
        {
          "indexed": false,
          "internalType": "uint256",
          "name": "value",
          "type": "uint256"
        }
      ],
      "name": "TimelockSet",
      "type": "event"
    },
    {
      "anonymous": false,
      "inputs": [
        {
          "indexed": false,
          "internalType": "uint256",
          "name": "delay",
          "type": "uint256"
        },
        {
          "indexed": false,
          "internalType": "bool",
          "name": "finalized",
          "type": "bool"
        }
      ],
      "name": "UpdateTimelock",
      "type": "event"
    },
    {
      "inputs": [],
      "name": "UNSET_VALUE",
      "outputs": [
        {
          "internalType": "bytes",
          "name": "",
          "type": "bytes"
        }
      ],
      "stateMutability": "view",
      "type": "function"
    },
    {
      "inputs": [
        {
          "internalType": "contract IStrategy",
          "name": "strategy",
          "type": "address"
        },
        {
          "internalType": "address",
          "name": "token",
          "type": "address"
        }
      ],
      "name": "estimateItem",
      "outputs": [
        {
          "internalType": "int256",
          "name": "",
          "type": "int256"
        }
      ],
      "stateMutability": "view",
      "type": "function"
    },
    {
      "inputs": [
        {
          "internalType": "contract IStrategy",
          "name": "strategy",
          "type": "address"
        },
        {
          "internalType": "address",
          "name": "token",
          "type": "address"
        },
        {
          "internalType": "uint256",
          "name": "balance",
          "type": "uint256"
        }
      ],
      "name": "estimateItem",
      "outputs": [
        {
          "internalType": "int256",
          "name": "",
          "type": "int256"
        }
      ],
      "stateMutability": "view",
      "type": "function"
    },
    {
      "inputs": [
        {
          "internalType": "address",
          "name": "",
          "type": "address"
        }
      ],
      "name": "estimates",
      "outputs": [
        {
          "internalType": "int256",
          "name": "",
          "type": "int256"
        }
      ],
      "stateMutability": "view",
      "type": "function"
    },
    {
      "inputs": [],
      "name": "finalizeEstimate",
      "outputs": [],
      "stateMutability": "nonpayable",
      "type": "function"
    },
    {
      "inputs": [],
      "name": "finalizeTimelock",
      "outputs": [],
      "stateMutability": "nonpayable",
      "type": "function"
    },
    {
      "inputs": [],
      "name": "owner",
      "outputs": [
        {
          "internalType": "address",
          "name": "",
          "type": "address"
        }
      ],
      "stateMutability": "view",
      "type": "function"
    },
    {
      "inputs": [],
      "name": "renounceOwnership",
      "outputs": [],
      "stateMutability": "nonpayable",
      "type": "function"
    },
    {
      "inputs": [
        {
          "internalType": "address",
          "name": "newOwner",
          "type": "address"
        }
      ],
      "name": "transferOwnership",
      "outputs": [],
      "stateMutability": "nonpayable",
      "type": "function"
    },
    {
      "inputs": [
        {
          "internalType": "address",
          "name": "token",
          "type": "address"
        },
        {
          "internalType": "int256",
          "name": "amount",
          "type": "int256"
        }
      ],
      "name": "updateEstimate",
      "outputs": [],
      "stateMutability": "nonpayable",
      "type": "function"
    },
    {
      "inputs": [
        {
          "internalType": "bytes32",
          "name": "identifier",
          "type": "bytes32"
        },
        {
          "internalType": "uint256",
          "name": "delay",
          "type": "uint256"
        }
      ],
      "name": "updateTimelock",
      "outputs": [],
      "stateMutability": "nonpayable",
      "type": "function"
    }
  ],
  "bytecode": "0x60806040523480156200001157600080fd5b5060006200001e620000a5565b600080546001600160a01b0319166001600160a01b0383169081178255604051929350917f8be0079c531659141344cd1fd0a4f28419497f9722a3daafe3b4186f6b6457e0908290a35060408051634e9d9dab60e01b60208083019190915282518083038201815291830190925280519101206200009f9061012c620000a9565b62000258565b3390565b6000620000b683620001ab565b90506001600160801b03821115620001005760405162461bcd60e51b8152600401808060200182810382526021815260200180620014706021913960400191505060405180910390fd5b80546001600160801b0319166001600160801b038316178155604080517f1b9e1f30ed20f5bdcc5bc2622ef7e5d670a4bf29bd7279c09ee2568f85d16a4b60208083019190915282518083038201815291830190925280516200016a9260018501920190620001bc565b50604080518481526020810184905281517f28b2cc09803d48eafdd268a64dff7eb0cf0e8e654f9c79c87b1ea05d8d51c7b4929181900390910190a1505050565b600090815260026020526040902090565b828054600181600116156101000203166002900490600052602060002090601f016020900481019282601f10620001ff57805160ff19168380011785556200022f565b828001600101855582156200022f579182015b828111156200022f57825182559160200191906001019062000212565b506200023d92915062000241565b5090565b5b808211156200023d576000815560010162000242565b61120880620002686000396000f3fe608060405234801561001057600080fd5b50600436106100b95760003560e01c806385d3300711610081578063ecb1927e1161005b578063ecb1927e14610226578063f2fde38b1461025c578063ff35258614610282576100b9565b806385d33007146101d45780638b501152146101fa5780638da5cb5b14610202576100b9565b80632a58188a146100be5780632ee116cd146100fe57806333a861e0146101235780634e9d9dab146101a0578063715018a6146101cc575b600080fd5b6100ec600480360360408110156100d457600080fd5b506001600160a01b038135811691602001351661028a565b60408051918252519081900360200190f35b6101216004803603604081101561011457600080fd5b508035906020013561031d565b005b61012b610419565b6040805160208082528351818301528351919283929083019185019080838360005b8381101561016557818101518382015260200161014d565b50505050905090810190601f1680156101925780820380516001836020036101000a031916815260200191505b509250505060405180910390f35b610121600480360360408110156101b657600080fd5b506001600160a01b03813516906020013561045c565b61012161056e565b6100ec600480360360208110156101ea57600080fd5b50356001600160a01b0316610622565b610121610634565b61020a61082f565b604080516001600160a01b039092168252519081900360200190f35b6100ec6004803603606081101561023c57600080fd5b506001600160a01b0381358116916020810135909116906040013561083e565b6101216004803603602081101561027257600080fd5b50356001600160a01b03166109a0565b610121610aaa565b600080826001600160a01b03166370a08231856040518263ffffffff1660e01b815260040180826001600160a01b0316815260200191505060206040518083038186803b1580156102da57600080fd5b505afa1580156102ee573d6000803e3d6000fd5b505050506040513d602081101561030457600080fd5b5051905061031384848361083e565b9150505b92915050565b610325610bfd565b6000546001600160a01b03908116911614610387576040805162461bcd60e51b815260206004820181905260248201527f4f776e61626c653a2063616c6c6572206973206e6f7420746865206f776e6572604482015290519081900360640190fd5b60408051632ee116cd60e01b602080830191909152825180830382018152828401845280519101206060820185905260808083018590528351808403909101815260a09092019092526103da9190610c01565b604080518281526000602082015281517fb4a54d6f738b4c6abfe2e04c92c5f62e6bfca445e81d4b9ae5314dd3e9c226b8929181900390910190a15050565b7f1b9e1f30ed20f5bdcc5bc2622ef7e5d670a4bf29bd7279c09ee2568f85d16a4b6040516020018082815260200191505060405160208183030381529060405281565b610464610bfd565b6000546001600160a01b039081169116146104c6576040805162461bcd60e51b815260206004820181905260248201527f4f776e61626c653a2063616c6c6572206973206e6f7420746865206f776e6572604482015290519081900360640190fd5b60408051634e9d9dab60e01b602080830191909152825180830382018152828401845280519101206001600160a01b038516606083015260808083018590528351808403909101815260a09092019092526105219190610c01565b604080516001600160a01b03841681526020810183905260008183015290517f50744437078b7dd0a67b0603f6943e72b0ea4cce74a249d26e4b3283f50046a19181900360600190a15050565b610576610bfd565b6000546001600160a01b039081169116146105d8576040805162461bcd60e51b815260206004820181905260248201527f4f776e61626c653a2063616c6c6572206973206e6f7420746865206f776e6572604482015290519081900360640190fd5b600080546040516001600160a01b03909116907f8be0079c531659141344cd1fd0a4f28419497f9722a3daafe3b4186f6b6457e0908390a3600080546001600160a01b0319169055565b60016020526000908152604090205481565b60408051632ee116cd60e01b602080830191909152825180830382018152918301909252805191012061066681610c42565b61078b57610672611044565b61067b82610d6e565b6040805160608101825282546001600160801b038082168352600160801b90910416602080830191909152600180850180548551600261010094831615949094026000190190911692909204601f8101849004840283018401865280835293959486019391929091908301828280156107355780601f1061070a57610100808354040283529160200191610735565b820191906000526020600020905b81548152906001019060200180831161071857829003601f168201915b5050509190925250508151919250506001600160801b0316156107895760405162461bcd60e51b81526004018080602001828103825260288152602001806110f76028913960400191505060405180910390fd5b505b60008061079783610d7f565b80602001905160408110156107ab57600080fd5b5080516020909101517fffffffff00000000000000000000000000000000000000000000000000000000909116925090506107e68282610e1d565b6107ef83610f22565b604080518281526001602082015281517fb4a54d6f738b4c6abfe2e04c92c5f62e6bfca445e81d4b9ae5314dd3e9c226b8929181900390910190a1505050565b6000546001600160a01b031690565b60006001600160a01b038416156108fe576003846001600160a01b031663765d48976040518163ffffffff1660e01b815260040160206040518083038186803b15801561088a57600080fd5b505afa15801561089e573d6000803e3d6000fd5b505050506040513d60208110156108b457600080fd5b505160068111156108c157fe5b14156108fe5760405162461bcd60e51b81526004018080602001828103825260218152602001806111666021913960400191505060405180910390fd5b826001600160a01b031663313ce5676040518163ffffffff1660e01b815260040160206040518083038186803b15801561093757600080fd5b505afa15801561094b573d6000803e3d6000fd5b505050506040513d602081101561096157600080fd5b50516001600160a01b03841660009081526001602052604090205460ff909116600a0a90610990908490610f94565b8161099757fe5b05949350505050565b6109a8610bfd565b6000546001600160a01b03908116911614610a0a576040805162461bcd60e51b815260206004820181905260248201527f4f776e61626c653a2063616c6c6572206973206e6f7420746865206f776e6572604482015290519081900360640190fd5b6001600160a01b038116610a4f5760405162461bcd60e51b815260040180806020018281038252602681526020018061111f6026913960400191505060405180910390fd5b600080546040516001600160a01b03808516939216917f8be0079c531659141344cd1fd0a4f28419497f9722a3daafe3b4186f6b6457e091a3600080546001600160a01b0319166001600160a01b0392909216919091179055565b60408051634e9d9dab60e01b6020808301919091528251808303820181529183019092528051910120610adc90610c42565b610b175760405162461bcd60e51b81526004018080602001828103825260258152602001806111876025913960400191505060405180910390fd5b60408051634e9d9dab60e01b60208083019190915282518083038201815291830190925280519101206000908190610b4e90610d7f565b8060200190516040811015610b6257600080fd5b50805160209182015160408051634e9d9dab60e01b818601528151808203860181529082019091528051930192909220909350909150610ba190610f22565b6001600160a01b0382166000818152600160208181526040928390208590558251938452830184905282820152517f50744437078b7dd0a67b0603f6943e72b0ea4cce74a249d26e4b3283f50046a19181900360600190a15050565b3390565b6000610c0c83610d6e565b80546001600160801b03428116600160801b0291161781558251909150610c3c9060018301906020850190611063565b50505050565b6000610c4c611044565b610c5583610d6e565b6040805160608101825282546001600160801b038082168352600160801b90910416602080830191909152600180850180548551600261010094831615949094026000190190911692909204601f810184900484028301840186528083529395948601939192909190830182828015610d0f5780601f10610ce457610100808354040283529160200191610d0f565b820191906000526020600020905b815481529060010190602001808311610cf257829003601f168201915b505050505081525050905080602001516001600160801b031660001415610d3a576000915050610d69565b80600001518160200151016001600160801b0316426001600160801b031610610d67576001915050610d69565b505b919050565b600090815260026020526040902090565b6060610d8a82610d6e565b60019081018054604080516020600295841615610100026000190190931694909404601f810183900483028501830190915280845290830182828015610e115780601f10610de657610100808354040283529160200191610e11565b820191906000526020600020905b815481529060010190602001808311610df457829003601f168201915b50505050509050919050565b6000610e2883610d6e565b90506001600160801b03821115610e705760405162461bcd60e51b81526004018080602001828103825260218152602001806111456021913960400191505060405180910390fd5b80546fffffffffffffffffffffffffffffffff19166001600160801b038316178155604080517f1b9e1f30ed20f5bdcc5bc2622ef7e5d670a4bf29bd7279c09ee2568f85d16a4b6020808301919091528251808303820181529183019092528051610ee19260018501920190611063565b50604080518481526020810184905281517f28b2cc09803d48eafdd268a64dff7eb0cf0e8e654f9c79c87b1ea05d8d51c7b4929181900390910190a1505050565b6000610f2d82610d6e565b80546001600160801b03168155604080517f1b9e1f30ed20f5bdcc5bc2622ef7e5d670a4bf29bd7279c09ee2568f85d16a4b6020808301919091528251808303820181529183019092528051929350610f8f9260018501929190910190611063565b505050565b600082610fa357506000610317565b82600019148015610fb75750600160ff1b82145b15610ff35760405162461bcd60e51b81526004018080602001828103825260278152602001806111ac6027913960400191505060405180910390fd5b8282028284828161100057fe5b051461103d5760405162461bcd60e51b81526004018080602001828103825260278152602001806111ac6027913960400191505060405180910390fd5b9392505050565b6040805160608082018352600080835260208301529181019190915290565b828054600181600116156101000203166002900490600052602060002090601f016020900481019282601f106110a457805160ff19168380011785556110d1565b828001600101855582156110d1579182015b828111156110d15782518255916020019190600101906110b6565b506110dd9291506110e1565b5090565b5b808211156110dd57600081556001016110e256fe66696e616c697a6554696d656c6f636b3a2074696d656c6f636b206973206e6f742072656164792e4f776e61626c653a206e6577206f776e657220697320746865207a65726f20616464726573735f73657454696d656c6f636b3a2064656c6179206f7574206f662072616e67652e43616e6e6f74206465706f73697420696e746f20626c6f636b656420746f6b656e66696e616c697a65457374696d6174653a2074696d656c6f636b206e6f742072656164792e5369676e6564536166654d6174683a206d756c7469706c69636174696f6e206f766572666c6f77a2646970667358221220e5df20fa733ecab3a6951a94e8ca37b83a8c3aff219a43b71d0c52c18a0d076864736f6c634300060c00335f73657454696d656c6f636b3a2064656c6179206f7574206f662072616e67652e",
  "linkReferences": {},
  "deployedLinkReferences": {}
}