{
  "_format": "hh-sol-artifact-1",
  "contractName": "UniswapNaiveOracle",
  "sourceName": "contracts/test/UniswapNaiveOracle.sol",
  "abi": [
    {
      "inputs": [
        {
          "internalType": "address",
          "name": "factory_",
          "type": "address"
        },
        {
          "internalType": "address",
          "name": "weth_",
          "type": "address"
        }
      ],
      "stateMutability": "nonpayable",
      "type": "constructor"
    },
    {
      "inputs": [
        {
          "internalType": "uint256",
          "name": "amount",
          "type": "uint256"
        },
        {
          "internalType": "address",
          "name": "input",
          "type": "address"
        }
      ],
      "name": "consult",
      "outputs": [
        {
          "internalType": "uint256",
          "name": "",
          "type": "uint256"
        }
      ],
      "stateMutability": "view",
      "type": "function"
    },
    {
      "inputs": [
        {
          "internalType": "address",
          "name": "account",
          "type": "address"
        },
        {
          "internalType": "address[]",
          "name": "tokens",
          "type": "address[]"
        }
      ],
      "name": "estimateTotal",
      "outputs": [
        {
          "internalType": "uint256",
          "name": "",
          "type": "uint256"
        },
        {
          "internalType": "uint256[]",
          "name": "",
          "type": "uint256[]"
        }
      ],
      "stateMutability": "view",
      "type": "function"
    },
    {
      "inputs": [],
      "name": "factory",
      "outputs": [
        {
          "internalType": "address",
          "name": "",
          "type": "address"
        }
      ],
      "stateMutability": "view",
      "type": "function"
    },
    {
      "inputs": [],
      "name": "weth",
      "outputs": [
        {
          "internalType": "address",
          "name": "",
          "type": "address"
        }
      ],
      "stateMutability": "view",
      "type": "function"
    }
  ],
  "bytecode": "0x608060405234801561001057600080fd5b506040516109df3803806109df8339818101604052604081101561003357600080fd5b508051602090910151600180546001600160a01b039384166001600160a01b031991821617909155600080549390921692169190911790556109658061007a6000396000f3fe608060405234801561001057600080fd5b506004361061004c5760003560e01c80633fc8cef314610051578063c45a015514610075578063d077bf321461007d578063ebe680c41461018b575b600080fd5b6100596101c9565b604080516001600160a01b039092168252519081900360200190f35b6100596101d8565b6101306004803603604081101561009357600080fd5b6001600160a01b0382351691908101906040810160208201356401000000008111156100be57600080fd5b8201836020820111156100d057600080fd5b803590602001918460208302840111640100000000831117156100f257600080fd5b9190808060200260200160405190810160405280939291908181526020018383602002808284376000920191909152509295506101e7945050505050565b6040518083815260200180602001828103825283818151815260200191508051906020019060200280838360005b8381101561017657818101518382015260200161015e565b50505050905001935050505060405180910390f35b6101b7600480360360408110156101a157600080fd5b50803590602001356001600160a01b031661036b565b60408051918252519081900360200190f35b6000546001600160a01b031681565b6001546001600160a01b031681565b6000606060006060845167ffffffffffffffff8111801561020757600080fd5b50604051908082528060200260200182016040528015610231578160200160208202803683370190505b50855190915060005b8181101561035c576000806001600160a01b031688838151811061025a57fe5b60200260200101516001600160a01b0316141561028257506001600160a01b0388163161032f565b61032c88838151811061029157fe5b60200260200101516001600160a01b03166370a082318b6040518263ffffffff1660e01b815260040180826001600160a01b0316815260200191505060206040518083038186803b1580156102e557600080fd5b505afa1580156102f9573d6000803e3d6000fd5b505050506040513d602081101561030f57600080fd5b505189518a908590811061031f57fe5b602002602001015161036b565b90505b61033985826104b9565b94508084838151811061034857fe5b60209081029190910101525060010161023a565b509193509150505b9250929050565b600080546001600160a01b03838116911614156103895750816104b3565b82610396575060006104b3565b600154600080546040805163e6a4390560e01b81526001600160a01b038781166004830152928316602482015290519293919091169163e6a4390591604480820192602092909190829003018186803b1580156103f257600080fd5b505afa158015610406573d6000803e3d6000fd5b505050506040513d602081101561041c57600080fd5b505190506001600160a01b03811661047b576040805162461bcd60e51b815260206004820152601d60248201527f636f6e73756c743a207061697220646f6573206e6f742065786973742e000000604482015290519081900360640190fd5b600154600080549091829161049e916001600160a01b039081169188911661051a565b915091506104ad8683836105ee565b93505050505b92915050565b600082820183811015610513576040805162461bcd60e51b815260206004820152601b60248201527f536166654d6174683a206164646974696f6e206f766572666c6f770000000000604482015290519081900360640190fd5b9392505050565b60008060006105298585610694565b509050600061053987878761076b565b9050600080826001600160a01b0316630902f1ac6040518163ffffffff1660e01b815260040160606040518083038186803b15801561057757600080fd5b505afa15801561058b573d6000803e3d6000fd5b505050506040513d60608110156105a157600080fd5b5080516020909101516dffffffffffffffffffffffffffff91821693501690506001600160a01b03888116908516146105db5780826105de565b81815b909a909950975050505050505050565b600080841161062e5760405162461bcd60e51b815260040180806020018281038252602581526020018061090b6025913960400191505060405180910390fd5b60008311801561063e5750600082115b6106795760405162461bcd60e51b81526004018080602001828103825260288152602001806108c26028913960400191505060405180910390fd5b826106848584610843565b8161068b57fe5b04949350505050565b600080826001600160a01b0316846001600160a01b031614156106e85760405162461bcd60e51b815260040180806020018281038252602581526020018061089d6025913960400191505060405180910390fd5b826001600160a01b0316846001600160a01b03161061070857828461070b565b83835b90925090506001600160a01b038216610364576040805162461bcd60e51b815260206004820152601e60248201527f556e697377617056324c6962726172793a205a45524f5f414444524553530000604482015290519081900360640190fd5b600080600061077a8585610694565b604080516bffffffffffffffffffffffff19606094851b811660208084019190915293851b81166034830152825160288184030181526048830184528051908501207fff0000000000000000000000000000000000000000000000000000000000000060688401529a90941b9093166069840152607d8301989098527f96e8ac4277198ff8b6f785478aa9a39f403cb768dd02cbee326c3e7da348845f609d808401919091528851808403909101815260bd909201909752805196019590952095945050505050565b600082610852575060006104b3565b8282028284828161085f57fe5b04146105135760405162461bcd60e51b81526004018080602001828103825260218152602001806108ea6021913960400191505060405180910390fdfe556e697377617056324c6962726172793a204944454e544943414c5f414444524553534553556e697377617056324c6962726172793a20494e53554646494349454e545f4c4951554944495459536166654d6174683a206d756c7469706c69636174696f6e206f766572666c6f77556e697377617056324c6962726172793a20494e53554646494349454e545f414d4f554e54a26469706673582212202ad8ae114595361fa6d3788c5ac581d2288da3f781f1c68d45bd446fd0b6661c64736f6c634300060c0033",
  "linkReferences": {},
  "deployedLinkReferences": {}
}