{
  "_format": "hh-sol-artifact-1",
  "contractName": "BalancerAdapter",
  "sourceName": "contracts/adapters/exchanges/BalancerAdapter.sol",
  "abi": [
    {
      "inputs": [
        {
          "internalType": "address",
          "name": "registry_",
          "type": "address"
        },
        {
          "internalType": "address",
          "name": "weth_",
          "type": "address"
        }
      ],
      "stateMutability": "nonpayable",
      "type": "constructor"
    },
    {
      "inputs": [],
      "name": "registry",
      "outputs": [
        {
          "internalType": "contract RegistryInterface",
          "name": "",
          "type": "address"
        }
      ],
      "stateMutability": "view",
      "type": "function"
    },
    {
      "inputs": [
        {
          "internalType": "uint256",
          "name": "amount",
          "type": "uint256"
        },
        {
          "internalType": "uint256",
          "name": "expected",
          "type": "uint256"
        },
        {
          "internalType": "address",
          "name": "tokenIn",
          "type": "address"
        },
        {
          "internalType": "address",
          "name": "tokenOut",
          "type": "address"
        },
        {
          "internalType": "address",
          "name": "from",
          "type": "address"
        },
        {
          "internalType": "address",
          "name": "to",
          "type": "address"
        }
      ],
      "name": "swap",
      "outputs": [],
      "stateMutability": "nonpayable",
      "type": "function"
    },
    {
      "inputs": [],
      "name": "weth",
      "outputs": [
        {
          "internalType": "address",
          "name": "",
          "type": "address"
        }
      ],
      "stateMutability": "view",
      "type": "function"
    }
  ],
  "bytecode": "0x60c060405234801561001057600080fd5b506040516115a63803806115a68339818101604052604081101561003357600080fd5b5080516020909101516001600160601b0319606091821b811660805291901b1660a05260805160601c60a05160601c6115226100846000398061016e528061019852508061014a52506115226000f3fe608060405234801561001057600080fd5b50600436106100415760003560e01c8063230f11c7146100465780633fc8cef3146100925780637b103999146100b6575b600080fd5b610090600480360360c081101561005c57600080fd5b508035906020810135906001600160a01b0360408201358116916060810135821691608082013581169160a00135166100be565b005b61009a610148565b604080516001600160a01b039092168252519081900360200190f35b61009a61016c565b826001600160a01b0316846001600160a01b0316141561011b576040805162461bcd60e51b81526020600482015260136024820152720a8ded6cadce640c6c2dcdcdee840dac2e8c6d606b1b604482015290519081900360640190fd5b606061012c85858960036000610190565b50905061013e81868686868c8c610633565b5050505050505050565b7f000000000000000000000000000000000000000000000000000000000000000081565b7f000000000000000000000000000000000000000000000000000000000000000081565b6060600060607f00000000000000000000000000000000000000000000000000000000000000006001600160a01b031663bfdbfc438989886040518463ffffffff1660e01b815260040180846001600160a01b03168152602001836001600160a01b03168152602001828152602001935050505060006040518083038186803b15801561021c57600080fd5b505afa158015610230573d6000803e3d6000fd5b505050506040513d6000823e601f3d908101601f19168201604052602081101561025957600080fd5b8101908080516040519392919084600160201b82111561027857600080fd5b90830190602082018581111561028d57600080fd5b82518660208202830111600160201b821117156102a957600080fd5b82525081516020918201928201910280838360005b838110156102d65781810151838201526020016102be565b505050509050016040525050509050606081516001600160401b03811180156102fe57600080fd5b5060405190808252806020026020018201604052801561033857816020015b6103256113d4565b81526020019060019003908161031d5790505b5090506000805b83518110156103b1576103668b8b86848151811061035957fe5b602002602001015161091b565b83828151811061037257fe5b60200260200101819052506103a783828151811061038c57fe5b602002602001015160c0015183610bec90919063ffffffff16565b915060010161033f565b50606082516001600160401b03811180156103cb57600080fd5b506040519080825280602002602001820160405280156103f5578160200160208202803683370190505b5090506000805b8451811015610481576104398461043387848151811061041857fe5b602002602001015160c001518e610c4d90919063ffffffff16565b90610ca6565b83828151811061044557fe5b60200260200101818152505061047783828151811061046057fe5b602002602001015183610bec90919063ffffffff16565b91506001016103fc565b50898110156104d8576104ba6104978b83610ce5565b836000815181106104a457fe5b6020026020010151610bec90919063ffffffff16565b826000815181106104c757fe5b602002602001018181525050610522565b6105086104e5828c610ce5565b836000815181106104f257fe5b6020026020010151610ce590919063ffffffff16565b8260008151811061051557fe5b6020026020010181815250505b83516001600160401b038111801561053957600080fd5b5060405190808252806020026020018201604052801561057357816020015b61056061141a565b8152602001906001900390816105585790505b50965060005b8451811015610616576040518060c0016040528086838151811061059957fe5b6020026020010151600001516001600160a01b031681526020018e6001600160a01b031681526020018d6001600160a01b031681526020018483815181106105dd57fe5b602002602001015181526020016000815260200160001981525088828151811061060357fe5b6020908102919091010152600101610579565b5061062282858a610d27565b955050505050509550959350505050565b60006001600160a01b038516301461065a5761065a6001600160a01b038816863086610e97565b60005b88518110156108085761066e61141a565b89828151811061067a57fe5b60209081029190910181015180820151815160408051636eb1769f60e11b81523060048201526001600160a01b0380841660248301529151949650929491939085169263dd62ed3e926044808301939192829003018186803b1580156106df57600080fd5b505afa1580156106f3573d6000803e3d6000fd5b505050506040513d602081101561070957600080fd5b505115610728578251610728906001600160a01b038416906000610ef7565b82516060840151610743916001600160a01b03851691610ef7565b60208301516060840151604080860151608087015160a08801518351638201aa3f60e01b81526001600160a01b03968716600482015260248101959095529185166044850152606484015260848301528051600093851692638201aa3f9260a480830193919282900301818787803b1580156107be57600080fd5b505af11580156107d2573d6000803e3d6000fd5b505050506040513d60408110156107e857600080fd5b505190506107f68187610bec565b9550506001909301925061065d915050565b508181101561084e576040805162461bcd60e51b815260206004820152600d60248201526c11549497d31253525517d3d555609a1b604482015290519081900360640190fd5b6001600160a01b0384163014610872576108726001600160a01b038716858361100f565b6001600160a01b03851630146109105761091085886001600160a01b03166370a08231306040518263ffffffff1660e01b815260040180826001600160a01b0316815260200191505060206040518083038186803b1580156108d357600080fd5b505afa1580156108e7573d6000803e3d6000fd5b505050506040513d60208110156108fd57600080fd5b50516001600160a01b038a16919061100f565b979650505050505050565b6109236113d4565b60008290506000816001600160a01b031663f8b2cb4f876040518263ffffffff1660e01b815260040180826001600160a01b0316815260200191505060206040518083038186803b15801561097757600080fd5b505afa15801561098b573d6000803e3d6000fd5b505050506040513d60208110156109a157600080fd5b50516040805163f8b2cb4f60e01b81526001600160a01b03888116600483015291519293506000929185169163f8b2cb4f91602480820192602092909190829003018186803b1580156109f357600080fd5b505afa158015610a07573d6000803e3d6000fd5b505050506040513d6020811015610a1d57600080fd5b505160408051634a46c67360e11b81526001600160a01b038a8116600483015291519293506000929186169163948d8ce691602480820192602092909190829003018186803b158015610a6f57600080fd5b505afa158015610a83573d6000803e3d6000fd5b505050506040513d6020811015610a9957600080fd5b505160408051634a46c67360e11b81526001600160a01b038a8116600483015291519293506000929187169163948d8ce691602480820192602092909190829003018186803b158015610aeb57600080fd5b505afa158015610aff573d6000803e3d6000fd5b505050506040513d6020811015610b1557600080fd5b505160408051631a995bed60e31b815290519192506000916001600160a01b0388169163d4cadf68916004808301926020929190829003018186803b158015610b5d57600080fd5b505afa158015610b71573d6000803e3d6000fd5b505050506040513d6020811015610b8757600080fd5b505190506000610b98848685611061565b9050610ba26113d4565b506040805160e0810182526001600160a01b038b16815260208101979097528601939093526060850193909352608084015260a083019190915260c08201529150505b9392505050565b600082820183811015610c44576040805162461bcd60e51b815260206004820152601b60248201527a536166654d6174683a206164646974696f6e206f766572666c6f7760281b604482015290519081900360640190fd5b90505b92915050565b600082610c5c57506000610c47565b82820282848281610c6957fe5b0414610c445760405162461bcd60e51b815260040180806020018281038252602181526020018061146c6021913960400191505060405180910390fd5b6000610c4483836040518060400160405280601a815260200179536166654d6174683a206469766973696f6e206279207a65726f60301b8152506110a0565b6000610c4483836040518060400160405280601e81526020017f536166654d6174683a207375627472616374696f6e206f766572666c6f770000815250611142565b6000805b8451811015610e8f576000848281518110610d4257fe5b6020026020010151600001516001600160a01b031663ba9530a6868481518110610d6857fe5b602002602001015160200151878581518110610d8057fe5b602002602001015160400151888681518110610d9857fe5b602002602001015160600151898781518110610db057fe5b6020026020010151608001518b8881518110610dc857fe5b60200260200101518a610df2578b8981518110610de157fe5b602002602001015160a00151610df5565b60005b6040518763ffffffff1660e01b815260040180878152602001868152602001858152602001848152602001838152602001828152602001965050505050505060206040518083038186803b158015610e4c57600080fd5b505afa158015610e60573d6000803e3d6000fd5b505050506040513d6020811015610e7657600080fd5b50519050610e848382610bec565b925050600101610d2b565b509392505050565b604080516001600160a01b0380861660248301528416604482015260648082018490528251808303909101815260849091019091526020810180516001600160e01b03166323b872dd60e01b179052610ef190859061119c565b50505050565b801580610f7d575060408051636eb1769f60e11b81523060048201526001600160a01b03848116602483015291519185169163dd62ed3e91604480820192602092909190829003018186803b158015610f4f57600080fd5b505afa158015610f63573d6000803e3d6000fd5b505050506040513d6020811015610f7957600080fd5b5051155b610fb85760405162461bcd60e51b81526004018080602001828103825260368152602001806114b76036913960400191505060405180910390fd5b604080516001600160a01b038416602482015260448082018490528251808303909101815260649091019091526020810180516001600160e01b031663095ea7b360e01b17905261100a90849061119c565b505050565b604080516001600160a01b038416602482015260448082018490528251808303909101815260649091019091526020810180516001600160e01b031663a9059cbb60e01b17905261100a90849061119c565b6000611098670de0b6b3a764000061043385611092611080878a610bec565b6104338a670de0b6b3a7640000610c4d565b90610c4d565b949350505050565b6000818361112c5760405162461bcd60e51b81526004018080602001828103825283818151815260200191508051906020019080838360005b838110156110f15781810151838201526020016110d9565b50505050905090810190601f16801561111e5780820380516001836020036101000a031916815260200191505b509250505060405180910390fd5b50600083858161113857fe5b0495945050505050565b600081848411156111945760405162461bcd60e51b81526020600482018181528351602484015283519092839260449091019190850190808383600083156110f15781810151838201526020016110d9565b505050900390565b60606111f1826040518060400160405280602081526020017f5361666545524332303a206c6f772d6c6576656c2063616c6c206661696c6564815250856001600160a01b031661124d9092919063ffffffff16565b80519091501561100a5780806020019051602081101561121057600080fd5b505161100a5760405162461bcd60e51b815260040180806020018281038252602a81526020018061148d602a913960400191505060405180910390fd5b606061109884846000858561126185611368565b6112b2576040805162461bcd60e51b815260206004820152601d60248201527f416464726573733a2063616c6c20746f206e6f6e2d636f6e7472616374000000604482015290519081900360640190fd5b60006060866001600160a01b031685876040518082805190602001908083835b602083106112f15780518252601f1990920191602091820191016112d2565b6001836020036101000a03801982511681845116808217855250505050505090500191505060006040518083038185875af1925050503d8060008114611353576040519150601f19603f3d011682016040523d82523d6000602084013e611358565b606091505b509150915061091082828661136e565b3b151590565b6060831561137d575081610be5565b82511561138d5782518084602001fd5b60405162461bcd60e51b81526020600482018181528451602484015284518593919283926044019190850190808383600083156110f15781810151838201526020016110d9565b6040518060e0016040528060006001600160a01b031681526020016000815260200160008152602001600081526020016000815260200160008152602001600081525090565b6040518060c0016040528060006001600160a01b0316815260200160006001600160a01b0316815260200160006001600160a01b03168152602001600081526020016000815260200160008152509056fe536166654d6174683a206d756c7469706c69636174696f6e206f766572666c6f775361666545524332303a204552433230206f7065726174696f6e20646964206e6f7420737563636565645361666545524332303a20617070726f76652066726f6d206e6f6e2d7a65726f20746f206e6f6e2d7a65726f20616c6c6f77616e6365a2646970667358221220ad58852e299e08891773b3618cebfd939399fad4ebe9cdeef89b974e00d5009964736f6c634300060c0033",
  "linkReferences": {},
  "deployedLinkReferences": {}
}