{
    "_format": "hh-sol-artifact-1",
    "contractName": "CurveEstimator",
    "sourceName": "contracts/oracles/estimators/CurveEstimator.sol",
    "abi": [
        {
            "inputs": [],
            "name": "ADDRESS_PROVIDER",
            "outputs": [
                {
                    "internalType": "contract IAddressProvider",
                    "name": "",
                    "type": "address"
                }
            ],
            "stateMutability": "view",
            "type": "function"
        },
        {
            "inputs": [],
            "name": "SBTC",
            "outputs": [
                {
                    "internalType": "address",
                    "name": "",
                    "type": "address"
                }
            ],
            "stateMutability": "view",
            "type": "function"
        },
        {
            "inputs": [],
            "name": "SUSD",
            "outputs": [
                {
                    "internalType": "address",
                    "name": "",
                    "type": "address"
                }
            ],
            "stateMutability": "view",
            "type": "function"
        },
        {
            "inputs": [],
            "name": "TRICRYPTO2",
            "outputs": [
                {
                    "internalType": "address",
                    "name": "",
                    "type": "address"
                }
            ],
            "stateMutability": "view",
            "type": "function"
        },
        {
            "inputs": [
                {
                    "internalType": "uint256",
                    "name": "balance",
                    "type": "uint256"
                },
                {
                    "internalType": "address",
                    "name": "token",
                    "type": "address"
                }
            ],
            "name": "estimateItem",
            "outputs": [
                {
                    "internalType": "int256",
                    "name": "",
                    "type": "int256"
                }
            ],
            "stateMutability": "view",
            "type": "function"
        }
    ],
    "bytecode": "0x608060405234801561001057600080fd5b50610d24806100206000396000f3fe608060405234801561001057600080fd5b50600436106100575760003560e01c806315d8eeba1461005c5780631848effa146100805780633cfae17414610088578063b44a043b14610090578063da9b202f146100ce575b600080fd5b6100646100d6565b604080516001600160a01b039092168252519081900360200190f35b6100646100ee565b610064610102565b6100bc600480360360408110156100a657600080fd5b50803590602001356001600160a01b031661011a565b60408051918252519081900360200190f35b61006461092b565b7357ab1ec28d129707052df4df418d58a2d46d5f5181565b6f22d53366457f9d5e68ec105046fc438381565b73c4ad29ba4b3c580e6d59105fff484999997675ff81565b6000806f22d53366457f9d5e68ec105046fc43836001600160a01b031663a262904b6040518163ffffffff1660e01b815260040160206040518083038186803b15801561016657600080fd5b505afa15801561017a573d6000803e3d6000fd5b505050506040513d602081101561019057600080fd5b50516040805163bdf475c360e01b81526001600160a01b03868116600483015291519293506000929184169163bdf475c391602480820192602092909190829003018186803b1580156101e257600080fd5b505afa1580156101f6573d6000803e3d6000fd5b505050506040513d602081101561020c57600080fd5b5051604080516319b4e59b60e21b81526001600160a01b0380841660048301529151929350600092918516916366d3966c91602480820192602092909190829003018186803b15801561025e57600080fd5b505afa158015610272573d6000803e3d6000fd5b505050506040513d602081101561028857600080fd5b505190506001600160a01b03851673c4ad29ba4b3c580e6d59105fff484999997675ff14806102b75750806004145b15610591576000836001600160a01b031663940494f1846040518263ffffffff1660e01b815260040180826001600160a01b03168152602001915050604080518083038186803b15801561030a57600080fd5b505afa15801561031e573d6000803e3d6000fd5b505050506040513d604081101561033457600080fd5b50519050610340610c45565b846001600160a01b0316639ac90d3d856040518263ffffffff1660e01b815260040180826001600160a01b031681526020019150506101006040518083038186803b15801561038e57600080fd5b505afa1580156103a2573d6000803e3d6000fd5b505050506040513d601f19601f820116820180604052506101008110156103c857600080fd5b5090506000805b838110156105015760008382600881106103e557fe5b602002015190506104f6336001600160a01b031663b44a043b836001600160a01b03166370a082318b6040518263ffffffff1660e01b815260040180826001600160a01b0316815260200191505060206040518083038186803b15801561044b57600080fd5b505afa15801561045f573d6000803e3d6000fd5b505050506040513d602081101561047557600080fd5b5051604080516001600160e01b031960e085901b16815260048101929092526001600160a01b0386166024830152516044808301926020929190829003018186803b1580156104c357600080fd5b505afa1580156104d7573d6000803e3d6000fd5b505050506040513d60208110156104ed57600080fd5b50518490610943565b9250506001016103cf565b506000886001600160a01b03166318160ddd6040518163ffffffff1660e01b815260040160206040518083038186803b15801561053d57600080fd5b505afa158015610551573d6000803e3d6000fd5b505050506040513d602081101561056757600080fd5b5051905060006105818261057b858e6109af565b90610a58565b9850610925975050505050505050565b6000836001600160a01b031663c5b7074a876040518263ffffffff1660e01b815260040180826001600160a01b0316815260200191505060206040518083038186803b1580156105e057600080fd5b505afa1580156105f4573d6000803e3d6000fd5b505050506040513d602081101561060a57600080fd5b50519050600061062c670de0b6b3a76400006106268a85610b10565b90610b69565b9050826106c4576040805163b44a043b60e01b8152600481018390527357ab1ec28d129707052df4df418d58a2d46d5f5160248201529051339163b44a043b916044808301926020929190829003018186803b15801561068b57600080fd5b505afa15801561069f573d6000803e3d6000fd5b505050506040513d60208110156106b557600080fd5b50519550610925945050505050565b82600114156106d95794506109259350505050565b826002141561073a576040805163b44a043b60e01b81526004810183905273fe18be6b3bd88a2d2a7f928d00292e7a9963cfc660248201529051339163b44a043b916044808301926020929190829003018186803b15801561068b57600080fd5b826003141561091f576000856001600160a01b031663940494f1866040518263ffffffff1660e01b815260040180826001600160a01b03168152602001915050604080518083038186803b15801561079157600080fd5b505afa1580156107a5573d6000803e3d6000fd5b505050506040513d60408110156107bb57600080fd5b505190506107c7610c45565b866001600160a01b0316639ac90d3d876040518263ffffffff1660e01b815260040180826001600160a01b031681526020019150506101006040518083038186803b15801561081557600080fd5b505afa158015610829573d6000803e3d6000fd5b505050506040513d601f19601f8201168201806040525061010081101561084f57600080fd5b50905060005b8281101561091b57600082826008811061086b57fe5b602002015190506000336001600160a01b031663b44a043b87846040518363ffffffff1660e01b815260040180838152602001826001600160a01b031681526020019250505060206040518083038186803b1580156108c957600080fd5b505afa1580156108dd573d6000803e3d6000fd5b505050506040513d60208110156108f357600080fd5b50519050600081131561091157995061092598505050505050505050565b5050600101610855565b5050505b50505050505b92915050565b73fe18be6b3bd88a2d2a7f928d00292e7a9963cfc681565b60008282018183128015906109585750838112155b8061096d575060008312801561096d57508381125b6109a85760405162461bcd60e51b8152600401808060200182810382526021815260200180610c656021913960400191505060405180910390fd5b9392505050565b6000826109be57506000610925565b826000191480156109d25750600160ff1b82145b15610a0e5760405162461bcd60e51b8152600401808060200182810382526027815260200180610cc86027913960400191505060405180910390fd5b82820282848281610a1b57fe5b05146109a85760405162461bcd60e51b8152600401808060200182810382526027815260200180610cc86027913960400191505060405180910390fd5b600081610aac576040805162461bcd60e51b815260206004820181905260248201527f5369676e6564536166654d6174683a206469766973696f6e206279207a65726f604482015290519081900360640190fd5b81600019148015610ac05750600160ff1b83145b15610afc5760405162461bcd60e51b8152600401808060200182810382526021815260200180610c866021913960400191505060405180910390fd5b6000828481610b0757fe5b05949350505050565b600082610b1f57506000610925565b82820282848281610b2c57fe5b04146109a85760405162461bcd60e51b8152600401808060200182810382526021815260200180610ca76021913960400191505060405180910390fd5b60006109a883836040518060400160405280601a815260200179536166654d6174683a206469766973696f6e206279207a65726f60301b81525060008183610c2f5760405162461bcd60e51b81526004018080602001828103825283818151815260200191508051906020019080838360005b83811015610bf4578181015183820152602001610bdc565b50505050905090810190601f168015610c215780820380516001836020036101000a031916815260200191505b509250505060405180910390fd5b506000838581610c3b57fe5b0495945050505050565b604051806101000160405280600890602082028036833750919291505056fe5369676e6564536166654d6174683a206164646974696f6e206f766572666c6f775369676e6564536166654d6174683a206469766973696f6e206f766572666c6f77536166654d6174683a206d756c7469706c69636174696f6e206f766572666c6f775369676e6564536166654d6174683a206d756c7469706c69636174696f6e206f766572666c6f77a2646970667358221220775c419eba95c7db4ad314497994f439a83ad8916eead3c87e67b821b7296c4864736f6c634300060c0033",
    "linkReferences": {},
    "deployedLinkReferences": {}
}