{
  "_format": "hh-sol-artifact-1",
  "contractName": "StrategyProxyFactoryStorage",
  "sourceName": "contracts/StrategyProxyFactoryStorage.sol",
  "abi": [
    {
      "inputs": [],
      "name": "admin",
      "outputs": [
        {
          "internalType": "address",
          "name": "",
          "type": "address"
        }
      ],
      "stateMutability": "view",
      "type": "function"
    },
    {
      "inputs": [],
      "name": "owner",
      "outputs": [
        {
          "internalType": "address",
          "name": "",
          "type": "address"
        }
      ],
      "stateMutability": "view",
      "type": "function"
    }
  ],
  "bytecode": "0x6080604052348015600f57600080fd5b5060b38061001e6000396000f3fe6080604052348015600f57600080fd5b506004361060325760003560e01c80638da5cb5b146037578063f851a440146059575b600080fd5b603d605f565b604080516001600160a01b039092168252519081900360200190f35b603d606e565b6001546001600160a01b031681565b6000546001600160a01b03168156fea2646970667358221220224b8d47464bb0fdecc4419b84a1cfac63a14a8b959fb3ce65828c4ce1e735fe64736f6c63430007060033",
  "linkReferences": {},
  "deployedLinkReferences": {}
}