{
  "_format": "hh-sol-artifact-1",
  "contractName": "StrategyProxyFactoryStorage",
  "sourceName": "contracts/StrategyProxyFactoryStorage.sol",
  "abi": [
    {
      "inputs": [],
      "name": "admin",
      "outputs": [
        {
          "internalType": "address",
          "name": "",
          "type": "address"
        }
      ],
      "stateMutability": "view",
      "type": "function"
    },
    {
      "inputs": [],
      "name": "owner",
      "outputs": [
        {
          "internalType": "address",
          "name": "",
          "type": "address"
        }
      ],
      "stateMutability": "view",
      "type": "function"
    }
  ],
  "bytecode": "0x6080604052348015600f57600080fd5b5060b38061001e6000396000f3fe6080604052348015600f57600080fd5b506004361060325760003560e01c80638da5cb5b146037578063f851a440146059575b600080fd5b603d605f565b604080516001600160a01b039092168252519081900360200190f35b603d606e565b6001546001600160a01b031681565b6000546001600160a01b03168156fea26469706673582212200bab7f9d8aa06094a0587e0fb03e5917ce62aac2b3705e9d6a2b4359f462f7a364736f6c63430007060033",
  "linkReferences": {},
  "deployedLinkReferences": {}
}