{
  "_format": "hh-sol-artifact-1",
  "contractName": "Multicall",
  "sourceName": "contracts/helpers/Multicall.sol",
  "abi": [
    {
      "inputs": [],
      "name": "CALL_REVERT_PREFIX",
      "outputs": [
        {
          "internalType": "string",
          "name": "",
          "type": "string"
        }
      ],
      "stateMutability": "view",
      "type": "function"
    }
  ],
  "bytecode": "0x608060405234801561001057600080fd5b5060f48061001f6000396000f3fe6080604052348015600f57600080fd5b506004361060285760003560e01c806319a83f9214602d575b600080fd5b60336047565b604051603e9190606e565b60405180910390f35b6040518060400160405280600b81526020016a026bab63a34b1b0b6361d160ad1b81525081565b6000602080835283518082850152825b81811015609857858101830151858201604001528201607e565b8181111560a85783604083870101525b50601f01601f191692909201604001939250505056fea26469706673582212205e7b1382f89f568d52c98726d50d3039f23a724bde2f04759ee2a18617e00f2764736f6c63430007060033",
  "linkReferences": {},
  "deployedLinkReferences": {}
}