{
  "_format": "hh-sol-artifact-1",
  "contractName": "ERC20NoTransfer",
  "sourceName": "@enso/staking/src/openzeppelin-contracts/token/ERC20/ERC20NoTransfer.sol",
  "abi": [
    {
      "inputs": [
        {
          "internalType": "string",
          "name": "name_",
          "type": "string"
        },
        {
          "internalType": "string",
          "name": "symbol_",
          "type": "string"
        }
      ],
      "stateMutability": "nonpayable",
      "type": "constructor"
    },
    {
      "anonymous": false,
      "inputs": [
        {
          "indexed": true,
          "internalType": "address",
          "name": "owner",
          "type": "address"
        },
        {
          "indexed": true,
          "internalType": "address",
          "name": "spender",
          "type": "address"
        },
        {
          "indexed": false,
          "internalType": "uint256",
          "name": "value",
          "type": "uint256"
        }
      ],
      "name": "Approval",
      "type": "event"
    },
    {
      "anonymous": false,
      "inputs": [
        {
          "indexed": true,
          "internalType": "address",
          "name": "from",
          "type": "address"
        },
        {
          "indexed": true,
          "internalType": "address",
          "name": "to",
          "type": "address"
        },
        {
          "indexed": false,
          "internalType": "uint256",
          "name": "value",
          "type": "uint256"
        }
      ],
      "name": "Transfer",
      "type": "event"
    },
    {
      "inputs": [
        {
          "internalType": "address",
          "name": "owner",
          "type": "address"
        },
        {
          "internalType": "address",
          "name": "spender",
          "type": "address"
        }
      ],
      "name": "allowance",
      "outputs": [
        {
          "internalType": "uint256",
          "name": "",
          "type": "uint256"
        }
      ],
      "stateMutability": "view",
      "type": "function"
    },
    {
      "inputs": [
        {
          "internalType": "address",
          "name": "spender",
          "type": "address"
        },
        {
          "internalType": "uint256",
          "name": "amount",
          "type": "uint256"
        }
      ],
      "name": "approve",
      "outputs": [
        {
          "internalType": "bool",
          "name": "",
          "type": "bool"
        }
      ],
      "stateMutability": "nonpayable",
      "type": "function"
    },
    {
      "inputs": [
        {
          "internalType": "address",
          "name": "account",
          "type": "address"
        }
      ],
      "name": "balanceOf",
      "outputs": [
        {
          "internalType": "uint256",
          "name": "",
          "type": "uint256"
        }
      ],
      "stateMutability": "view",
      "type": "function"
    },
    {
      "inputs": [],
      "name": "decimals",
      "outputs": [
        {
          "internalType": "uint8",
          "name": "",
          "type": "uint8"
        }
      ],
      "stateMutability": "view",
      "type": "function"
    },
    {
      "inputs": [],
      "name": "name",
      "outputs": [
        {
          "internalType": "string",
          "name": "",
          "type": "string"
        }
      ],
      "stateMutability": "view",
      "type": "function"
    },
    {
      "inputs": [],
      "name": "symbol",
      "outputs": [
        {
          "internalType": "string",
          "name": "",
          "type": "string"
        }
      ],
      "stateMutability": "view",
      "type": "function"
    },
    {
      "inputs": [],
      "name": "totalSupply",
      "outputs": [
        {
          "internalType": "uint256",
          "name": "",
          "type": "uint256"
        }
      ],
      "stateMutability": "view",
      "type": "function"
    }
  ],
  "bytecode": "0x608060405234801561001057600080fd5b506040516106e73803806106e783398101604081905261002f916101b9565b815161004290600390602085019061005e565b50805161005690600490602084019061005e565b505050610257565b82805461006a9061021c565b90600052602060002090601f01602090048101928261008c57600085556100d2565b82601f106100a557805160ff19168380011785556100d2565b828001600101855582156100d2579182015b828111156100d25782518255916020019190600101906100b7565b506100de9291506100e2565b5090565b5b808211156100de57600081556001016100e3565b634e487b7160e01b600052604160045260246000fd5b600082601f83011261011e57600080fd5b81516001600160401b0380821115610138576101386100f7565b604051601f8301601f19908116603f01168101908282118183101715610160576101606100f7565b8160405283815260209250868385880101111561017c57600080fd5b600091505b8382101561019e5785820183015181830184015290820190610181565b838211156101af5760008385830101525b9695505050505050565b600080604083850312156101cc57600080fd5b82516001600160401b03808211156101e357600080fd5b6101ef8683870161010d565b9350602085015191508082111561020557600080fd5b506102128582860161010d565b9150509250929050565b600181811c9082168061023057607f821691505b6020821081141561025157634e487b7160e01b600052602260045260246000fd5b50919050565b610481806102666000396000f3fe608060405234801561001057600080fd5b506004361061006d5760003560e01c806306fdde0314610072578063095ea7b31461009057806318160ddd146100b3578063313ce567146100c557806370a08231146100d457806395d89b41146100fd578063dd62ed3e14610105575b600080fd5b61007a61013e565b6040516100879190610320565b60405180910390f35b6100a361009e366004610391565b6101d0565b6040519015158152602001610087565b6002545b604051908152602001610087565b60405160128152602001610087565b6100b76100e23660046103bb565b6001600160a01b031660009081526020819052604090205490565b61007a6101e8565b6100b76101133660046103dd565b6001600160a01b03918216600090815260016020908152604080832093909416825291909152205490565b60606003805461014d90610410565b80601f016020809104026020016040519081016040528092919081815260200182805461017990610410565b80156101c65780601f1061019b576101008083540402835291602001916101c6565b820191906000526020600020905b8154815290600101906020018083116101a957829003601f168201915b5050505050905090565b6000336101de8185856101f7565b5060019392505050565b60606004805461014d90610410565b6001600160a01b03831661025e5760405162461bcd60e51b8152602060048201526024808201527f45524332303a20617070726f76652066726f6d20746865207a65726f206164646044820152637265737360e01b60648201526084015b60405180910390fd5b6001600160a01b0382166102bf5760405162461bcd60e51b815260206004820152602260248201527f45524332303a20617070726f766520746f20746865207a65726f206164647265604482015261737360f01b6064820152608401610255565b6001600160a01b0383811660008181526001602090815260408083209487168084529482529182902085905590518481527f8c5be1e5ebec7d5bd14f71427d1e84f3dd0314c0f7b2291e5b200ac8c7c3b925910160405180910390a3505050565b600060208083528351808285015260005b8181101561034d57858101830151858201604001528201610331565b8181111561035f576000604083870101525b50601f01601f1916929092016040019392505050565b80356001600160a01b038116811461038c57600080fd5b919050565b600080604083850312156103a457600080fd5b6103ad83610375565b946020939093013593505050565b6000602082840312156103cd57600080fd5b6103d682610375565b9392505050565b600080604083850312156103f057600080fd5b6103f983610375565b915061040760208401610375565b90509250929050565b600181811c9082168061042457607f821691505b6020821081141561044557634e487b7160e01b600052602260045260246000fd5b5091905056fea264697066735822122077258ca7b72ac330998bbea01fea44e59c752aad65b5aef108b5aca57acd92ee64736f6c634300080b0033",
  "linkReferences": {},
  "deployedLinkReferences": {}
}