{
  "_format": "hh-sol-artifact-1",
  "contractName": "ChainlinkOracle",
  "sourceName": "contracts/oracles/protocols/ChainlinkOracle.sol",
  "abi": [
    {
      "inputs": [
        {
          "internalType": "address",
          "name": "registry_",
          "type": "address"
        },
        {
          "internalType": "address",
          "name": "weth_",
          "type": "address"
        }
      ],
      "stateMutability": "nonpayable",
      "type": "constructor"
    },
    {
      "anonymous": false,
      "inputs": [
        {
          "indexed": true,
          "internalType": "address",
          "name": "previousOwner",
          "type": "address"
        },
        {
          "indexed": true,
          "internalType": "address",
          "name": "newOwner",
          "type": "address"
        }
      ],
      "name": "OwnershipTransferred",
      "type": "event"
    },
    {
      "inputs": [
        {
          "internalType": "uint256",
          "name": "amount",
          "type": "uint256"
        },
        {
          "internalType": "address",
          "name": "input",
          "type": "address"
        }
      ],
      "name": "consult",
      "outputs": [
        {
          "internalType": "uint256",
          "name": "",
          "type": "uint256"
        }
      ],
      "stateMutability": "view",
      "type": "function"
    },
    {
      "inputs": [
        {
          "internalType": "address",
          "name": "account",
          "type": "address"
        },
        {
          "internalType": "address[]",
          "name": "tokens",
          "type": "address[]"
        }
      ],
      "name": "estimateTotal",
      "outputs": [
        {
          "internalType": "uint256",
          "name": "",
          "type": "uint256"
        },
        {
          "internalType": "uint256[]",
          "name": "",
          "type": "uint256[]"
        }
      ],
      "stateMutability": "view",
      "type": "function"
    },
    {
      "inputs": [],
      "name": "owner",
      "outputs": [
        {
          "internalType": "address",
          "name": "",
          "type": "address"
        }
      ],
      "stateMutability": "view",
      "type": "function"
    },
    {
      "inputs": [],
      "name": "registry",
      "outputs": [
        {
          "internalType": "contract IChainlinkRegistry",
          "name": "",
          "type": "address"
        }
      ],
      "stateMutability": "view",
      "type": "function"
    },
    {
      "inputs": [],
      "name": "renounceOwnership",
      "outputs": [],
      "stateMutability": "nonpayable",
      "type": "function"
    },
    {
      "inputs": [
        {
          "internalType": "address",
          "name": "newOwner",
          "type": "address"
        }
      ],
      "name": "transferOwnership",
      "outputs": [],
      "stateMutability": "nonpayable",
      "type": "function"
    },
    {
      "inputs": [],
      "name": "weth",
      "outputs": [
        {
          "internalType": "address",
          "name": "",
          "type": "address"
        }
      ],
      "stateMutability": "view",
      "type": "function"
    }
  ],
  "bytecode": "0x60c060405234801561001057600080fd5b506040516111e03803806111e083398101604081905261002f916100a5565b60006100396100a1565b600080546001600160a01b0319166001600160a01b0383169081178255604051929350917f8be0079c531659141344cd1fd0a4f28419497f9722a3daafe3b4186f6b6457e0908290a3506001600160601b0319606092831b811660a052911b166080526100f6565b3390565b600080604083850312156100b7578182fd5b82516100c2816100de565b60208401519092506100d3816100de565b809150509250929050565b6001600160a01b03811681146100f357600080fd5b50565b60805160601c60a05160601c6110ad610133600039806101bc52806103db52806109685250806101105280610374528061090952506110ad6000f3fe608060405234801561001057600080fd5b506004361061007d5760003560e01c80638da5cb5b1161005b5780638da5cb5b146100b2578063d077bf32146100ba578063ebe680c4146100db578063f2fde38b146100fb5761007d565b80633fc8cef314610082578063715018a6146100a05780637b103999146100aa575b600080fd5b61008a61010e565b6040516100979190610d47565b60405180910390f35b6100a8610132565b005b61008a6101ba565b61008a6101de565b6100cd6100c8366004610b3e565b6101ed565b604051610097929190610f9b565b6100ee6100e9366004610c61565b610370565b6040516100979190610f92565b6100a8610109366004610b22565b6104d0565b7f000000000000000000000000000000000000000000000000000000000000000081565b61013a610586565b6000546001600160a01b039081169116146101705760405162461bcd60e51b815260040161016790610eb8565b60405180910390fd5b600080546040516001600160a01b03909116907f8be0079c531659141344cd1fd0a4f28419497f9722a3daafe3b4186f6b6457e0908390a3600080546001600160a01b0319169055565b7f000000000000000000000000000000000000000000000000000000000000000081565b6000546001600160a01b031690565b6000606060006060845167ffffffffffffffff8111801561020d57600080fd5b50604051908082528060200260200182016040528015610237578160200160208202803683370190505b50855190915060005b81811015610363576000806001600160a01b031688838151811061026057fe5b60200260200101516001600160a01b0316141561028857506001600160a01b03881631610336565b61033388838151811061029757fe5b60200260200101516001600160a01b03166370a082318b6040518263ffffffff1660e01b81526004016102ca9190610d47565b60206040518083038186803b1580156102e257600080fd5b505afa1580156102f6573d6000803e3d6000fd5b505050506040513d601f19601f8201168201806040525081019061031a9190610c49565b89848151811061032657fe5b6020026020010151610370565b90505b610340858261058a565b94508084838151811061034f57fe5b602090810291909101015250600101610240565b5091969095509350505050565b60007f00000000000000000000000000000000000000000000000000000000000000006001600160a01b0316826001600160a01b031614806103b0575082155b156103bc5750816104ca565b6103c4610add565b604051630869e91760e11b81526001600160a01b037f000000000000000000000000000000000000000000000000000000000000000016906310d3d22e90610410908690600401610d47565b60606040518083038186803b15801561042857600080fd5b505afa15801561043c573d6000803e3d6000fd5b505050506040513d601f19601f820116820180604052508101906104609190610bf0565b80519091506001600160a01b03166104bc57610486836001600160a01b031660146105b6565b6040516020016104969190610d02565b60408051601f198184030181529082905262461bcd60e51b825261016791600401610d5b565b6104c684826106df565b9150505b92915050565b6104d8610586565b6000546001600160a01b039081169116146105055760405162461bcd60e51b815260040161016790610eb8565b6001600160a01b03811661052b5760405162461bcd60e51b815260040161016790610dc3565b600080546040516001600160a01b03808516939216917f8be0079c531659141344cd1fd0a4f28419497f9722a3daafe3b4186f6b6457e091a3600080546001600160a01b0319166001600160a01b0392909216919091179055565b3390565b6000828201838110156105af5760405162461bcd60e51b815260040161016790610e09565b9392505050565b6060808260020260020167ffffffffffffffff811180156105d657600080fd5b506040519080825280601f01601f191660200182016040528015610601576020820181803683370190505b509050600360fc1b8160008151811061061657fe5b60200101906001600160f81b031916908160001a905350600f60fb1b8160018151811061063f57fe5b60200101906001600160f81b031916908160001a905350600160028402015b60018111156106c0576f181899199a1a9b1b9c1cb0b131b232b360811b85600f166010811061068957fe5b1a60f81b82828151811061069957fe5b60200101906001600160f81b031916908160001a90535060049490941c936000190161065e565b5083156105af5760405162461bcd60e51b815260040161016790610d8e565b60008082600001519050600080600080846001600160a01b031663feaf968c6040518163ffffffff1660e01b815260040160a06040518083038186803b15801561072857600080fd5b505afa15801561073c573d6000803e3d6000fd5b505050506040513d601f19601f820116820180604052508101906107609190610c90565b945094505093509350826000141561078a5760405162461bcd60e51b815260040161016790610f24565b816107a75760405162461bcd60e51b815260040161016790610eed565b8369ffffffffffffffffffff168169ffffffffffffffffffff1610156107df5760405162461bcd60e51b815260040161016790610e40565b86604001511561087b576108748361086e876001600160a01b031663313ce5676040518163ffffffff1660e01b815260040160206040518083038186803b15801561082957600080fd5b505afa15801561083d573d6000803e3d6000fd5b505050506040513d601f19601f820116820180604052508101906108619190610ce1565b8b9060ff16600a0a610a2f565b90610a69565b9550610907565b846001600160a01b031663313ce5676040518163ffffffff1660e01b815260040160206040518083038186803b1580156108b457600080fd5b505afa1580156108c8573d6000803e3d6000fd5b505050506040513d601f19601f820116820180604052508101906108ec9190610ce1565b60ff16600a0a6108fc8985610a2f565b8161090357fe5b0495505b7f00000000000000000000000000000000000000000000000000000000000000006001600160a01b031687602001516001600160a01b031614610a245761094c610add565b6020880151604051630869e91760e11b81526001600160a01b037f000000000000000000000000000000000000000000000000000000000000000016916310d3d22e9161099c9190600401610d47565b60606040518083038186803b1580156109b457600080fd5b505afa1580156109c8573d6000803e3d6000fd5b505050506040513d601f19601f820116820180604052508101906109ec9190610bf0565b80519091506001600160a01b0316610a165760405162461bcd60e51b815260040161016790610f5b565b610a2087826106df565b9650505b505050505092915050565b600082610a3e575060006104ca565b82820282848281610a4b57fe5b04146105af5760405162461bcd60e51b815260040161016790610e77565b60006105af83836040518060400160405280601a81526020017f536166654d6174683a206469766973696f6e206279207a65726f00000000000081525060008183610ac75760405162461bcd60e51b81526004016101679190610d5b565b506000838581610ad357fe5b0495945050505050565b604080516060810182526000808252602082018190529181019190915290565b80356104ca8161105f565b805169ffffffffffffffffffff811681146104ca57600080fd5b600060208284031215610b33578081fd5b81356105af8161105f565b60008060408385031215610b50578081fd5b8235610b5b8161105f565b915060208381013567ffffffffffffffff811115610b77578283fd5b8401601f81018613610b87578283fd5b8035610b9a610b958261100f565b610fe8565b81815283810190838501858402850186018a1015610bb6578687fd5b8694505b83851015610be057610bcc8a82610afd565b835260019490940193918501918501610bba565b5080955050505050509250929050565b600060608284031215610c01578081fd5b610c0b6060610fe8565b8251610c168161105f565b81526020830151610c268161105f565b602082015260408301518015158114610c3d578283fd5b60408201529392505050565b600060208284031215610c5a578081fd5b5051919050565b60008060408385031215610c73578182fd5b823591506020830135610c858161105f565b809150509250929050565b600080600080600060a08688031215610ca7578081fd5b610cb18787610b08565b9450602086015193506040860151925060608601519150610cd58760808801610b08565b90509295509295909350565b600060208284031215610cf2578081fd5b815160ff811681146105af578182fd5b60007f546f6b656e206e6f7420696e697469616c697a65645f0000000000000000000082528251610d3a81601685016020870161102f565b9190910160160192915050565b6001600160a01b0391909116815260200190565b6000602082528251806020840152610d7a81604085016020870161102f565b601f01601f19169190910160400192915050565b6020808252818101527f537472696e67733a20686578206c656e67746820696e73756666696369656e74604082015260600190565b60208082526026908201527f4f776e61626c653a206e6577206f776e657220697320746865207a65726f206160408201526564647265737360d01b606082015260800190565b6020808252601b908201527f536166654d6174683a206164646974696f6e206f766572666c6f770000000000604082015260600190565b6020808252601c908201527f5f747261766572736550616972733a205374616c652070726963652e00000000604082015260600190565b60208082526021908201527f536166654d6174683a206d756c7469706c69636174696f6e206f766572666c6f6040820152607760f81b606082015260800190565b6020808252818101527f4f776e61626c653a2063616c6c6572206973206e6f7420746865206f776e6572604082015260600190565b6020808252601f908201527f5f747261766572736550616972733a20757064617465644174203d3d20302e00604082015260600190565b6020808252601b908201527f5f747261766572736550616972733a207072696365203d3d20302e0000000000604082015260600190565b60208082526014908201527f50616972206e6f7420696e697469616c697a6564000000000000000000000000604082015260600190565b90815260200190565b60006040820184835260206040818501528185518084526060860191508287019350845b81811015610fdb57845183529383019391830191600101610fbf565b5090979650505050505050565b60405181810167ffffffffffffffff8111828210171561100757600080fd5b604052919050565b600067ffffffffffffffff821115611025578081fd5b5060209081020190565b60005b8381101561104a578181015183820152602001611032565b83811115611059576000848401525b50505050565b6001600160a01b038116811461107457600080fd5b5056fea2646970667358221220a5680aa8e737153928d9ce982b150974a30101e695f54a9c2c79582349b0e18e64736f6c634300060c0033",
  "linkReferences": {},
  "deployedLinkReferences": {}
}