{
  "_format": "hh-sol-artifact-1",
  "contractName": "ChainlinkOracle",
  "sourceName": "contracts/oracles/protocols/ChainlinkOracle.sol",
  "abi": [
    {
      "inputs": [
        {
          "internalType": "address",
          "name": "registry_",
          "type": "address"
        },
        {
          "internalType": "address",
          "name": "weth_",
          "type": "address"
        }
      ],
      "stateMutability": "nonpayable",
      "type": "constructor"
    },
    {
      "anonymous": false,
      "inputs": [
        {
          "indexed": true,
          "internalType": "address",
          "name": "previousOwner",
          "type": "address"
        },
        {
          "indexed": true,
          "internalType": "address",
          "name": "newOwner",
          "type": "address"
        }
      ],
      "name": "OwnershipTransferred",
      "type": "event"
    },
    {
      "inputs": [
        {
          "internalType": "uint256",
          "name": "amount",
          "type": "uint256"
        },
        {
          "internalType": "address",
          "name": "input",
          "type": "address"
        }
      ],
      "name": "consult",
      "outputs": [
        {
          "internalType": "uint256",
          "name": "",
          "type": "uint256"
        }
      ],
      "stateMutability": "view",
      "type": "function"
    },
    {
      "inputs": [
        {
          "internalType": "address",
          "name": "account",
          "type": "address"
        },
        {
          "internalType": "address[]",
          "name": "tokens",
          "type": "address[]"
        }
      ],
      "name": "estimateTotal",
      "outputs": [
        {
          "internalType": "uint256",
          "name": "",
          "type": "uint256"
        },
        {
          "internalType": "uint256[]",
          "name": "",
          "type": "uint256[]"
        }
      ],
      "stateMutability": "view",
      "type": "function"
    },
    {
      "inputs": [],
      "name": "owner",
      "outputs": [
        {
          "internalType": "address",
          "name": "",
          "type": "address"
        }
      ],
      "stateMutability": "view",
      "type": "function"
    },
    {
      "inputs": [],
      "name": "registry",
      "outputs": [
        {
          "internalType": "contract IChainlinkRegistry",
          "name": "",
          "type": "address"
        }
      ],
      "stateMutability": "view",
      "type": "function"
    },
    {
      "inputs": [],
      "name": "renounceOwnership",
      "outputs": [],
      "stateMutability": "nonpayable",
      "type": "function"
    },
    {
      "inputs": [
        {
          "internalType": "address",
          "name": "newOwner",
          "type": "address"
        }
      ],
      "name": "transferOwnership",
      "outputs": [],
      "stateMutability": "nonpayable",
      "type": "function"
    },
    {
      "inputs": [],
      "name": "weth",
      "outputs": [
        {
          "internalType": "address",
          "name": "",
          "type": "address"
        }
      ],
      "stateMutability": "view",
      "type": "function"
    }
  ],
  "bytecode": "0x608060405234801561001057600080fd5b50604051610d7a380380610d7a83398101604081905261002f916100b8565b60006100396100b4565b600080546001600160a01b0319166001600160a01b0383169081178255604051929350917f8be0079c531659141344cd1fd0a4f28419497f9722a3daafe3b4186f6b6457e0908290a350600280546001600160a01b039384166001600160a01b03199182161790915560018054929093169116179055610109565b3390565b600080604083850312156100ca578182fd5b82516100d5816100f1565b60208401519092506100e6816100f1565b809150509250929050565b6001600160a01b038116811461010657600080fd5b50565b610c62806101186000396000f3fe608060405234801561001057600080fd5b506004361061006d5760003560e01c80633fc8cef314610072578063715018a6146100905780637b1039991461009a5780638da5cb5b146100a2578063d077bf32146100aa578063ebe680c4146100cb578063f2fde38b146100eb575b600080fd5b61007a6100fe565b6040516100879190610a21565b60405180910390f35b61009861010d565b005b61007a610195565b61007a6101a4565b6100bd6100b836600461085e565b6101b3565b604051610087929190610b82565b6100de6100d9366004610980565b610332565b6040516100879190610b79565b6100986100f9366004610842565b610413565b6001546001600160a01b031681565b6101156104c9565b6000546001600160a01b0390811691161461014b5760405162461bcd60e51b815260040161014290610b44565b60405180910390fd5b600080546040516001600160a01b03909116907f8be0079c531659141344cd1fd0a4f28419497f9722a3daafe3b4186f6b6457e0908390a3600080546001600160a01b0319169055565b6002546001600160a01b031681565b6000546001600160a01b031690565b600060606000606084516001600160401b03811180156101d257600080fd5b506040519080825280602002602001820160405280156101fc578160200160208202803683370190505b50905060005b8551811015610326576000806001600160a01b031687838151811061022357fe5b60200260200101516001600160a01b0316141561024b57506001600160a01b038716316102f9565b6102f687838151811061025a57fe5b60200260200101516001600160a01b03166370a082318a6040518263ffffffff1660e01b815260040161028d9190610a21565b60206040518083038186803b1580156102a557600080fd5b505afa1580156102b9573d6000803e3d6000fd5b505050506040513d601f19601f820116820180604052508101906102dd9190610968565b8884815181106102e957fe5b6020026020010151610332565b90505b61030384826104cd565b93508083838151811061031257fe5b602090810291909101015250600101610202565b50909590945092505050565b6001546000906001600160a01b038381169116148061034f575082155b1561035b57508161040d565b610363610800565b600254604051630869e91760e11b81526001600160a01b03909116906310d3d22e90610393908690600401610a21565b60606040518083038186803b1580156103ab57600080fd5b505afa1580156103bf573d6000803e3d6000fd5b505050506040513d601f19601f820116820180604052508101906103e3919061090f565b80519091506001600160a01b03166103ff57600091505061040d565b61040984826104f9565b9150505b92915050565b61041b6104c9565b6000546001600160a01b039081169116146104485760405162461bcd60e51b815260040161014290610b44565b6001600160a01b03811661046e5760405162461bcd60e51b815260040161014290610a88565b600080546040516001600160a01b03808516939216917f8be0079c531659141344cd1fd0a4f28419497f9722a3daafe3b4186f6b6457e091a3600080546001600160a01b0319166001600160a01b0392909216919091179055565b3390565b6000828201838110156104f25760405162461bcd60e51b815260040161014290610ace565b9392505050565b600080826000015190506000816001600160a01b031663feaf968c6040518163ffffffff1660e01b815260040160a06040518083038186803b15801561053e57600080fd5b505afa158015610552573d6000803e3d6000fd5b505050506040513d601f19601f8201168201806040525081019061057691906109af565b505050915050600084604001511561061a576106138261060d856001600160a01b031663313ce5676040518163ffffffff1660e01b815260040160206040518083038186803b1580156105c857600080fd5b505afa1580156105dc573d6000803e3d6000fd5b505050506040513d601f19601f820116820180604052508101906106009190610a00565b899060ff16600a0a610755565b9061078f565b90506106a1565b61069e836001600160a01b031663313ce5676040518163ffffffff1660e01b815260040160206040518083038186803b15801561065657600080fd5b505afa15801561066a573d6000803e3d6000fd5b505050506040513d601f19601f8201168201806040525081019061068e9190610a00565b60ff16600a0a61060d8885610755565b90505b60015460208601516001600160a01b0390811691161461074c576002546020860151604051630869e91760e11b81526107499284926001600160a01b03909116916310d3d22e916106f491600401610a21565b60606040518083038186803b15801561070c57600080fd5b505afa158015610720573d6000803e3d6000fd5b505050506040513d601f19601f82011682018060405250810190610744919061090f565b6104f9565b90505b95945050505050565b6000826107645750600061040d565b8282028284828161077157fe5b04146104f25760405162461bcd60e51b815260040161014290610b03565b60006104f283836040518060400160405280601a815260200179536166654d6174683a206469766973696f6e206279207a65726f60301b815250600081836107ea5760405162461bcd60e51b81526004016101429190610a35565b5060008385816107f657fe5b0495945050505050565b604080516060810182526000808252602082018190529181019190915290565b803561040d81610c14565b80516001600160501b038116811461040d57600080fd5b600060208284031215610853578081fd5b81356104f281610c14565b60008060408385031215610870578081fd5b823561087b81610c14565b91506020838101356001600160401b03811115610896578283fd5b8401601f810186136108a6578283fd5b80356108b96108b482610bf5565b610bcf565b81815283810190838501858402850186018a10156108d5578687fd5b8694505b838510156108ff576108eb8a82610820565b8352600194909401939185019185016108d9565b5080955050505050509250929050565b600060608284031215610920578081fd5b61092a6060610bcf565b825161093581610c14565b8152602083015161094581610c14565b60208201526040830151801515811461095c578283fd5b60408201529392505050565b600060208284031215610979578081fd5b5051919050565b60008060408385031215610992578182fd5b8235915060208301356109a481610c14565b809150509250929050565b600080600080600060a086880312156109c6578081fd5b6109d0878761082b565b94506020860151935060408601519250606086015191506109f4876080880161082b565b90509295509295909350565b600060208284031215610a11578081fd5b815160ff811681146104f2578182fd5b6001600160a01b0391909116815260200190565b6000602080835283518082850152825b81811015610a6157858101830151858201604001528201610a45565b81811115610a725783604083870101525b50601f01601f1916929092016040019392505050565b60208082526026908201527f4f776e61626c653a206e6577206f776e657220697320746865207a65726f206160408201526564647265737360d01b606082015260800190565b6020808252601b908201527a536166654d6174683a206164646974696f6e206f766572666c6f7760281b604082015260600190565b60208082526021908201527f536166654d6174683a206d756c7469706c69636174696f6e206f766572666c6f6040820152607760f81b606082015260800190565b6020808252818101527f4f776e61626c653a2063616c6c6572206973206e6f7420746865206f776e6572604082015260600190565b90815260200190565b60006040820184835260206040818501528185518084526060860191508287019350845b81811015610bc257845183529383019391830191600101610ba6565b5090979650505050505050565b6040518181016001600160401b0381118282101715610bed57600080fd5b604052919050565b60006001600160401b03821115610c0a578081fd5b5060209081020190565b6001600160a01b0381168114610c2957600080fd5b5056fea26469706673582212201c1c4a5d293f72be96d15801d9a905958d1411c5dcf2365f5363b656cc6917b564736f6c634300060c0033",
  "linkReferences": {},
  "deployedLinkReferences": {}
}