{
  "_format": "hh-sol-artifact-1",
  "contractName": "StrategyProxyFactory",
  "sourceName": "contracts/StrategyProxyFactory.sol",
  "abi": [
    {
      "inputs": [
        {
          "internalType": "address",
          "name": "controller_",
          "type": "address"
        }
      ],
      "stateMutability": "nonpayable",
      "type": "constructor"
    },
    {
      "anonymous": false,
      "inputs": [
        {
          "indexed": false,
          "internalType": "address",
          "name": "newOracle",
          "type": "address"
        }
      ],
      "name": "NewOracle",
      "type": "event"
    },
    {
      "anonymous": false,
      "inputs": [
        {
          "indexed": false,
          "internalType": "address",
          "name": "newPool",
          "type": "address"
        }
      ],
      "name": "NewPool",
      "type": "event"
    },
    {
      "anonymous": false,
      "inputs": [
        {
          "indexed": false,
          "internalType": "address",
          "name": "newRegistry",
          "type": "address"
        }
      ],
      "name": "NewRegistry",
      "type": "event"
    },
    {
      "anonymous": false,
      "inputs": [
        {
          "indexed": false,
          "internalType": "address",
          "name": "strategy",
          "type": "address"
        },
        {
          "indexed": false,
          "internalType": "address",
          "name": "manager",
          "type": "address"
        },
        {
          "indexed": false,
          "internalType": "string",
          "name": "name",
          "type": "string"
        },
        {
          "indexed": false,
          "internalType": "string",
          "name": "symbol",
          "type": "string"
        },
        {
          "components": [
            {
              "internalType": "address",
              "name": "item",
              "type": "address"
            },
            {
              "internalType": "int256",
              "name": "percentage",
              "type": "int256"
            },
            {
              "components": [
                {
                  "internalType": "address[]",
                  "name": "adapters",
                  "type": "address[]"
                },
                {
                  "internalType": "address[]",
                  "name": "path",
                  "type": "address[]"
                },
                {
                  "internalType": "bytes",
                  "name": "cache",
                  "type": "bytes"
                }
              ],
              "internalType": "struct StrategyTypes.TradeData",
              "name": "data",
              "type": "tuple"
            }
          ],
          "indexed": false,
          "internalType": "struct StrategyTypes.StrategyItem[]",
          "name": "items",
          "type": "tuple[]"
        }
      ],
      "name": "NewStrategy",
      "type": "event"
    },
    {
      "anonymous": false,
      "inputs": [
        {
          "indexed": false,
          "internalType": "uint256",
          "name": "newStreamingFee",
          "type": "uint256"
        }
      ],
      "name": "NewStreamingFee",
      "type": "event"
    },
    {
      "anonymous": false,
      "inputs": [
        {
          "indexed": false,
          "internalType": "address",
          "name": "newWhitelist",
          "type": "address"
        }
      ],
      "name": "NewWhitelist",
      "type": "event"
    },
    {
      "anonymous": false,
      "inputs": [
        {
          "indexed": true,
          "internalType": "address",
          "name": "previousOwner",
          "type": "address"
        },
        {
          "indexed": true,
          "internalType": "address",
          "name": "newOwner",
          "type": "address"
        }
      ],
      "name": "OwnershipTransferred",
      "type": "event"
    },
    {
      "anonymous": false,
      "inputs": [
        {
          "indexed": false,
          "internalType": "address",
          "name": "newImplementation",
          "type": "address"
        },
        {
          "indexed": false,
          "internalType": "string",
          "name": "version",
          "type": "string"
        }
      ],
      "name": "Update",
      "type": "event"
    },
    {
      "inputs": [],
      "name": "ZERO_ADDRESS",
      "outputs": [
        {
          "internalType": "string",
          "name": "",
          "type": "string"
        }
      ],
      "stateMutability": "view",
      "type": "function"
    },
    {
      "inputs": [
        {
          "internalType": "uint256",
          "name": "estimatorCategoryIndex",
          "type": "uint256"
        },
        {
          "internalType": "address",
          "name": "estimator",
          "type": "address"
        }
      ],
      "name": "addEstimatorToRegistry",
      "outputs": [],
      "stateMutability": "nonpayable",
      "type": "function"
    },
    {
      "inputs": [
        {
          "internalType": "uint256",
          "name": "itemCategoryIndex",
          "type": "uint256"
        },
        {
          "internalType": "uint256",
          "name": "estimatorCategoryIndex",
          "type": "uint256"
        },
        {
          "internalType": "address",
          "name": "token",
          "type": "address"
        },
        {
          "components": [
            {
              "internalType": "address[]",
              "name": "adapters",
              "type": "address[]"
            },
            {
              "internalType": "address[]",
              "name": "path",
              "type": "address[]"
            },
            {
              "internalType": "bytes",
              "name": "cache",
              "type": "bytes"
            }
          ],
          "internalType": "struct StrategyTypes.TradeData",
          "name": "tradeData",
          "type": "tuple"
        },
        {
          "internalType": "address",
          "name": "rewardsAdapter",
          "type": "address"
        }
      ],
      "name": "addItemDetailedToRegistry",
      "outputs": [],
      "stateMutability": "nonpayable",
      "type": "function"
    },
    {
      "inputs": [
        {
          "internalType": "uint256",
          "name": "itemCategoryIndex",
          "type": "uint256"
        },
        {
          "internalType": "uint256",
          "name": "estimatorCategoryIndex",
          "type": "uint256"
        },
        {
          "internalType": "address",
          "name": "token",
          "type": "address"
        }
      ],
      "name": "addItemToRegistry",
      "outputs": [],
      "stateMutability": "nonpayable",
      "type": "function"
    },
    {
      "inputs": [
        {
          "internalType": "uint256[]",
          "name": "itemCategoryIndexes",
          "type": "uint256[]"
        },
        {
          "internalType": "uint256[]",
          "name": "estimatorCategoryIndexes",
          "type": "uint256[]"
        },
        {
          "internalType": "address[]",
          "name": "tokens",
          "type": "address[]"
        },
        {
          "components": [
            {
              "internalType": "address[]",
              "name": "adapters",
              "type": "address[]"
            },
            {
              "internalType": "address[]",
              "name": "path",
              "type": "address[]"
            },
            {
              "internalType": "bytes",
              "name": "cache",
              "type": "bytes"
            }
          ],
          "internalType": "struct StrategyTypes.TradeData[]",
          "name": "tradesData",
          "type": "tuple[]"
        },
        {
          "internalType": "address[]",
          "name": "rewardsAdapters",
          "type": "address[]"
        }
      ],
      "name": "addItemsDetailedToRegistry",
      "outputs": [],
      "stateMutability": "nonpayable",
      "type": "function"
    },
    {
      "inputs": [
        {
          "internalType": "uint256[]",
          "name": "itemCategoryIndexes",
          "type": "uint256[]"
        },
        {
          "internalType": "uint256[]",
          "name": "estimatorCategoryIndexes",
          "type": "uint256[]"
        },
        {
          "internalType": "address[]",
          "name": "tokens",
          "type": "address[]"
        }
      ],
      "name": "addItemsToRegistry",
      "outputs": [],
      "stateMutability": "nonpayable",
      "type": "function"
    },
    {
      "inputs": [],
      "name": "admin",
      "outputs": [
        {
          "internalType": "address",
          "name": "",
          "type": "address"
        }
      ],
      "stateMutability": "view",
      "type": "function"
    },
    {
      "inputs": [],
      "name": "controller",
      "outputs": [
        {
          "internalType": "address",
          "name": "",
          "type": "address"
        }
      ],
      "stateMutability": "view",
      "type": "function"
    },
    {
      "inputs": [
        {
          "internalType": "string",
          "name": "name",
          "type": "string"
        },
        {
          "internalType": "string",
          "name": "symbol",
          "type": "string"
        },
        {
          "components": [
            {
              "internalType": "address",
              "name": "item",
              "type": "address"
            },
            {
              "internalType": "int256",
              "name": "percentage",
              "type": "int256"
            },
            {
              "components": [
                {
                  "internalType": "address[]",
                  "name": "adapters",
                  "type": "address[]"
                },
                {
                  "internalType": "address[]",
                  "name": "path",
                  "type": "address[]"
                },
                {
                  "internalType": "bytes",
                  "name": "cache",
                  "type": "bytes"
                }
              ],
              "internalType": "struct StrategyTypes.TradeData",
              "name": "data",
              "type": "tuple"
            }
          ],
          "internalType": "struct StrategyTypes.StrategyItem[]",
          "name": "strategyItems",
          "type": "tuple[]"
        },
        {
          "components": [
            {
              "internalType": "uint32",
              "name": "timelock",
              "type": "uint32"
            },
            {
              "internalType": "uint16",
              "name": "rebalanceThreshold",
              "type": "uint16"
            },
            {
              "internalType": "uint16",
              "name": "rebalanceSlippage",
              "type": "uint16"
            },
            {
              "internalType": "uint16",
              "name": "restructureSlippage",
              "type": "uint16"
            },
            {
              "internalType": "uint16",
              "name": "managementFee",
              "type": "uint16"
            },
            {
              "internalType": "bool",
              "name": "social",
              "type": "bool"
            },
            {
              "internalType": "bool",
              "name": "set",
              "type": "bool"
            }
          ],
          "internalType": "struct StrategyTypes.InitialState",
          "name": "strategyState",
          "type": "tuple"
        },
        {
          "internalType": "address",
          "name": "router",
          "type": "address"
        },
        {
          "internalType": "bytes",
          "name": "data",
          "type": "bytes"
        }
      ],
      "name": "createStrategy",
      "outputs": [
        {
          "internalType": "address",
          "name": "",
          "type": "address"
        }
      ],
      "stateMutability": "payable",
      "type": "function"
    },
    {
      "inputs": [
        {
          "internalType": "address",
          "name": "manager",
          "type": "address"
        },
        {
          "internalType": "string",
          "name": "name",
          "type": "string"
        },
        {
          "internalType": "string",
          "name": "symbol",
          "type": "string"
        },
        {
          "components": [
            {
              "internalType": "address",
              "name": "item",
              "type": "address"
            },
            {
              "internalType": "int256",
              "name": "percentage",
              "type": "int256"
            },
            {
              "components": [
                {
                  "internalType": "address[]",
                  "name": "adapters",
                  "type": "address[]"
                },
                {
                  "internalType": "address[]",
                  "name": "path",
                  "type": "address[]"
                },
                {
                  "internalType": "bytes",
                  "name": "cache",
                  "type": "bytes"
                }
              ],
              "internalType": "struct StrategyTypes.TradeData",
              "name": "data",
              "type": "tuple"
            }
          ],
          "internalType": "struct StrategyTypes.StrategyItem[]",
          "name": "strategyItems",
          "type": "tuple[]"
        },
        {
          "components": [
            {
              "internalType": "uint32",
              "name": "timelock",
              "type": "uint32"
            },
            {
              "internalType": "uint16",
              "name": "rebalanceThreshold",
              "type": "uint16"
            },
            {
              "internalType": "uint16",
              "name": "rebalanceSlippage",
              "type": "uint16"
            },
            {
              "internalType": "uint16",
              "name": "restructureSlippage",
              "type": "uint16"
            },
            {
              "internalType": "uint16",
              "name": "managementFee",
              "type": "uint16"
            },
            {
              "internalType": "bool",
              "name": "social",
              "type": "bool"
            },
            {
              "internalType": "bool",
              "name": "set",
              "type": "bool"
            }
          ],
          "internalType": "struct StrategyTypes.InitialState",
          "name": "strategyState",
          "type": "tuple"
        },
        {
          "internalType": "address",
          "name": "router",
          "type": "address"
        },
        {
          "internalType": "bytes",
          "name": "data",
          "type": "bytes"
        },
        {
          "internalType": "bytes",
          "name": "signature",
          "type": "bytes"
        }
      ],
      "name": "createStrategyFor",
      "outputs": [
        {
          "internalType": "address",
          "name": "",
          "type": "address"
        }
      ],
      "stateMutability": "payable",
      "type": "function"
    },
    {
      "inputs": [
        {
          "internalType": "address",
          "name": "proxy",
          "type": "address"
        }
      ],
      "name": "getManager",
      "outputs": [
        {
          "internalType": "address",
          "name": "",
          "type": "address"
        }
      ],
      "stateMutability": "view",
      "type": "function"
    },
    {
      "inputs": [],
      "name": "implementation",
      "outputs": [
        {
          "internalType": "address",
          "name": "",
          "type": "address"
        }
      ],
      "stateMutability": "view",
      "type": "function"
    },
    {
      "inputs": [
        {
          "internalType": "address",
          "name": "owner_",
          "type": "address"
        },
        {
          "internalType": "address",
          "name": "implementation_",
          "type": "address"
        },
        {
          "internalType": "address",
          "name": "oracle_",
          "type": "address"
        },
        {
          "internalType": "address",
          "name": "registry_",
          "type": "address"
        },
        {
          "internalType": "address",
          "name": "whitelist_",
          "type": "address"
        },
        {
          "internalType": "address",
          "name": "pool_",
          "type": "address"
        }
      ],
      "name": "initialize",
      "outputs": [
        {
          "internalType": "bool",
          "name": "",
          "type": "bool"
        }
      ],
      "stateMutability": "nonpayable",
      "type": "function"
    },
    {
      "inputs": [],
      "name": "oracle",
      "outputs": [
        {
          "internalType": "address",
          "name": "",
          "type": "address"
        }
      ],
      "stateMutability": "view",
      "type": "function"
    },
    {
      "inputs": [],
      "name": "owner",
      "outputs": [
        {
          "internalType": "address",
          "name": "",
          "type": "address"
        }
      ],
      "stateMutability": "view",
      "type": "function"
    },
    {
      "inputs": [],
      "name": "pool",
      "outputs": [
        {
          "internalType": "address",
          "name": "",
          "type": "address"
        }
      ],
      "stateMutability": "view",
      "type": "function"
    },
    {
      "inputs": [
        {
          "internalType": "address",
          "name": "manager",
          "type": "address"
        },
        {
          "internalType": "string",
          "name": "name",
          "type": "string"
        },
        {
          "internalType": "string",
          "name": "symbol",
          "type": "string"
        }
      ],
      "name": "predictStrategyAddress",
      "outputs": [
        {
          "internalType": "address",
          "name": "predictedAddress",
          "type": "address"
        }
      ],
      "stateMutability": "view",
      "type": "function"
    },
    {
      "inputs": [],
      "name": "renounceOwnership",
      "outputs": [],
      "stateMutability": "nonpayable",
      "type": "function"
    },
    {
      "inputs": [
        {
          "internalType": "address",
          "name": "manager",
          "type": "address"
        },
        {
          "internalType": "string",
          "name": "name",
          "type": "string"
        },
        {
          "internalType": "string",
          "name": "symbol",
          "type": "string"
        }
      ],
      "name": "salt",
      "outputs": [
        {
          "internalType": "bytes32",
          "name": "",
          "type": "bytes32"
        }
      ],
      "stateMutability": "pure",
      "type": "function"
    },
    {
      "inputs": [],
      "name": "streamingFee",
      "outputs": [
        {
          "internalType": "uint256",
          "name": "",
          "type": "uint256"
        }
      ],
      "stateMutability": "view",
      "type": "function"
    },
    {
      "inputs": [],
      "name": "tokenRegistry",
      "outputs": [
        {
          "internalType": "address",
          "name": "",
          "type": "address"
        }
      ],
      "stateMutability": "view",
      "type": "function"
    },
    {
      "inputs": [
        {
          "internalType": "address",
          "name": "newOwner",
          "type": "address"
        }
      ],
      "name": "transferOwnership",
      "outputs": [],
      "stateMutability": "nonpayable",
      "type": "function"
    },
    {
      "inputs": [
        {
          "internalType": "address",
          "name": "newImplementation",
          "type": "address"
        },
        {
          "internalType": "string",
          "name": "newVersion",
          "type": "string"
        }
      ],
      "name": "updateImplementation",
      "outputs": [],
      "stateMutability": "nonpayable",
      "type": "function"
    },
    {
      "inputs": [
        {
          "internalType": "address",
          "name": "newOracle",
          "type": "address"
        }
      ],
      "name": "updateOracle",
      "outputs": [],
      "stateMutability": "nonpayable",
      "type": "function"
    },
    {
      "inputs": [
        {
          "internalType": "address",
          "name": "newPool",
          "type": "address"
        }
      ],
      "name": "updatePool",
      "outputs": [],
      "stateMutability": "nonpayable",
      "type": "function"
    },
    {
      "inputs": [
        {
          "internalType": "address",
          "name": "proxy",
          "type": "address"
        }
      ],
      "name": "updateProxyVersion",
      "outputs": [],
      "stateMutability": "nonpayable",
      "type": "function"
    },
    {
      "inputs": [
        {
          "internalType": "uint256",
          "name": "rebalanceTimelockPeriod",
          "type": "uint256"
        },
        {
          "internalType": "uint256",
          "name": "rebalanceThresholdScalar",
          "type": "uint256"
        }
      ],
      "name": "updateRebalanceParameters",
      "outputs": [],
      "stateMutability": "nonpayable",
      "type": "function"
    },
    {
      "inputs": [
        {
          "internalType": "address",
          "name": "newRegistry",
          "type": "address"
        }
      ],
      "name": "updateRegistry",
      "outputs": [],
      "stateMutability": "nonpayable",
      "type": "function"
    },
    {
      "inputs": [
        {
          "internalType": "uint16",
          "name": "fee",
          "type": "uint16"
        }
      ],
      "name": "updateStreamingFee",
      "outputs": [],
      "stateMutability": "nonpayable",
      "type": "function"
    },
    {
      "inputs": [
        {
          "internalType": "address",
          "name": "newWhitelist",
          "type": "address"
        }
      ],
      "name": "updateWhitelist",
      "outputs": [],
      "stateMutability": "nonpayable",
      "type": "function"
    },
    {
      "inputs": [],
      "name": "version",
      "outputs": [
        {
          "internalType": "string",
          "name": "",
          "type": "string"
        }
      ],
      "stateMutability": "view",
      "type": "function"
    },
    {
      "inputs": [],
      "name": "whitelist",
      "outputs": [
        {
          "internalType": "address",
          "name": "",
          "type": "address"
        }
      ],
      "stateMutability": "view",
      "type": "function"
    }
  ],
  "bytecode": "0x6101606040523480156200001257600080fd5b50604051620048913803806200489183398101604081905262000035916200020a565b604080518082018252601481527f537472617465677950726f7879466163746f72790000000000000000000000006020808301918252835180850190945260018452603160f81b908401528151902060e08190527fc89efdaa54c0f20c7adf612882df0950f5a951637e0307cdcb4c672f298b8bc66101008190524660a08190529293927f8b73c3c69bb8fe3d512ecc4cf759cc79239f7b179b0ffacaa9a75d522b39400f90620000e8828585620001bf565b608052503060601b60c052610120525050603a54610100900460ff1691508190506200011957506200011962000204565b80620001285750603a5460ff16155b620001655760405162461bcd60e51b815260040180806020018281038252602e81526020018062004863602e913960400191505060405180910390fd5b603a54610100900460ff161580156200019157603a805460ff1961ff0019909116610100171660011790555b6001600160601b0319606083901b16610140528015620001b757603a805461ff00191690555b50506200023a565b604080516020808201959095528082019390935260608301919091524660808301523060a0808401919091528151808403909101815260c09092019052805191012090565b303b1590565b6000602082840312156200021c578081fd5b81516001600160a01b038116811462000233578182fd5b9392505050565b60805160a05160c05160601c60e05161010051610120516101405160601c6145c56200029e6000398061160652806117615280611f895250806121675250806121a95250806121885250806120e452508061210f52508061213952506145c56000f3fe608060405260043610620002125760003560e01c806376f513d0116200011b578063cb54536411620000a3578063f03633f5116200006d578063f03633f514620005cc578063f2fde38b14620005f1578063f77c47911462000616578063f851a440146200062e5762000212565b8063cb5453641462000536578063cc2a9a5b146200054e578063cca82b921462000582578063e64e66d014620005a75762000212565b80638da5cb5b11620000e55780638da5cb5b14620004c957806390a2702c14620004e157806393e59dc114620005065780639d23c4c7146200051e5762000212565b806376f513d014620004505780637b46c54f14620004755780637d864e9d146200049a5780637dc0d1d014620004b15762000212565b80635144e409116200019f5780635c60da1b11620001695780635c60da1b14620003d65780636710951614620003ee578063715018a6146200041357806375adc8aa146200042b5762000212565b80635144e409146200034d57806351ba49861462000372578063538ba4f9146200039757806354fd4d5014620003be5762000212565b80631cb44dfc11620001e15780631cb44dfc14620002aa5780632a954d6d14620002cf5780633d0f963e14620003035780633d58406314620003285762000212565b8063083fcace146200021757806316f0115b14620002465780631963282d146200025e5780631a5da6c81462000285575b600080fd5b6200022e6200022836600462002cd4565b62000646565b6040516200023d9190620031cb565b60405180910390f35b3480156200025357600080fd5b506200022e62000668565b3480156200026b57600080fd5b50620002836200027d3660046200290a565b62000678565b005b3480156200029257600080fd5b5062000283620002a43660046200283e565b620008ac565b348015620002b757600080fd5b5062000283620002c93660046200283e565b62000998565b348015620002dc57600080fd5b50620002f4620002ee36600462002963565b62000a1d565b6040516200023d9190620034bb565b3480156200031057600080fd5b5062000283620003223660046200283e565b62000a38565b3480156200033557600080fd5b506200022e620003473660046200283e565b62000abd565b3480156200035a57600080fd5b50620002836200036c36600462002e69565b62000b3c565b3480156200037f57600080fd5b50620002836200039136600462002bc0565b62000b7f565b348015620003a457600080fd5b50620003af62000c2d565b6040516200023d919062003540565b348015620003cb57600080fd5b50620003af62000c5e565b348015620003e357600080fd5b506200022e62000cf8565b348015620003fb57600080fd5b50620002836200040d36600462002dda565b62000d07565b3480156200042057600080fd5b506200028362000da0565b3480156200043857600080fd5b50620002836200044a36600462002dbd565b62000e17565b3480156200045d57600080fd5b50620002836200046f36600462002b20565b62000eb2565b3480156200048257600080fd5b5062000283620004943660046200283e565b62000f57565b6200022e620004ab366004620029ec565b62000fdc565b348015620004be57600080fd5b506200022e6200110c565b348015620004d657600080fd5b506200022e6200111b565b348015620004ee57600080fd5b50620002836200050036600462002e2e565b6200112a565b3480156200051357600080fd5b506200022e62001169565b3480156200052b57600080fd5b506200022e62001178565b3480156200054357600080fd5b50620002f462001187565b3480156200055b57600080fd5b50620005736200056d3660046200287c565b6200118d565b6040516200023d9190620034b0565b3480156200058f57600080fd5b506200022e620005a136600462002963565b620015b1565b348015620005b457600080fd5b5062000283620005c636600462002e0c565b620015c2565b348015620005d957600080fd5b5062000283620005eb3660046200283e565b6200163f565b348015620005fe57600080fd5b5062000283620006103660046200283e565b620016cb565b3480156200062357600080fd5b506200022e6200175f565b3480156200063b57600080fd5b506200022e62001783565b60006200065b338a8a8a8a8a8a8a8a62001792565b9998505050505050505050565b6004546001600160a01b03165b90565b6001546001600160a01b03163314620006ae5760405162461bcd60e51b8152600401620006a59062003631565b60405180910390fd5b620006b98362001809565b60078054604080516020601f600260001961010060018816150201909516949094049384018190048102820181019092528281526200075693909290918301828280156200074b5780601f106200071f576101008083540402835291602001916200074b565b820191906000526020600020905b8154815290600101906020018083116200072d57829003601f168201915b5050505050620018cf565b6200079783838080601f016020809104026020016040519081016040528093929190818152602001838380828437600092019190915250620018cf92505050565b11620007b75760405162461bcd60e51b8152600401620006a590620035ad565b600680546001600160a01b0319166001600160a01b038516179055604051620007e360208201620022a2565b601f198282038101835260008054601f909301909116908152602081016040908152620008209287926001600160a01b03909116918101620031df565b60408051601f198184030181529082905262000840929160200162003198565b60408051601f1981840301815291905280516020909101206009556200086960078383620022b0565b507fc6ee1e1e08307ce2d854c77911cf72b51710027139dd730756959e981480edb78383836040516200089f9392919062003321565b60405180910390a1505050565b6001546001600160a01b03163314620008d95760405162461bcd60e51b8152600401620006a59062003631565b620008e48162001809565b600580546001600160a01b0319166001600160a01b03838116919091179091556003546040805163389b6dbf60e21b81529051919092169163e26db6fc91600480830192600092919082900301818387803b1580156200094357600080fd5b505af115801562000958573d6000803e3d6000fd5b505050507f777c8cc4da61f5d244f5f33737022a66151d457640744b5c2e2719d76c1b540f816040516200098d9190620031cb565b60405180910390a150565b6001546001600160a01b03163314620009c55760405162461bcd60e51b8152600401620006a59062003631565b620009d08162001809565b600380546001600160a01b0319166001600160a01b0383161790556040517fb3eacd0e351fafdfefdec84e1cd19679b38dbcd63ea7c2c24da17fd2bc3b3c0e906200098d908390620031cb565b600062000a2e8686868686620019b0565b9695505050505050565b6001546001600160a01b0316331462000a655760405162461bcd60e51b8152600401620006a59062003631565b62000a708162001809565b600280546001600160a01b0319166001600160a01b0383161790556040517f934730203236e0bdf255807d75b091578e1065be48dfcdae28f41ca47e1f58e1906200098d908390620031cb565b6000816001600160a01b031663481c6a756040518163ffffffff1660e01b815260040160206040518083038186803b15801562000af957600080fd5b505afa15801562000b0e573d6000803e3d6000fd5b505050506040513d601f19601f8201168201806040525081019062000b3491906200285d565b90505b919050565b6001546001600160a01b0316331462000b695760405162461bcd60e51b8152600401620006a59062003631565b62000b788585858585620019ee565b5050505050565b6001546001600160a01b0316331462000bac5760405162461bcd60e51b8152600401620006a59062003631565b600554604051636057263f60e11b81526001600160a01b039091169063c0ae4c7e9062000bee908c908c908c908c908c908c908c908c908c90600401620033ef565b600060405180830381600087803b15801562000c0957600080fd5b505af115801562000c1e573d6000803e3d6000fd5b50505050505050505050505050565b6040518060400160405280601581526020017416995c9bc81859191c995cdcc81c1c9bdd9a591959605a1b81525081565b60078054604080516020601f600260001961010060018816150201909516949094049384018190048102820181019092528281526060939092909183018282801562000cee5780601f1062000cc25761010080835404028352916020019162000cee565b820191906000526020600020905b81548152906001019060200180831162000cd057829003601f168201915b5050505050905090565b6006546001600160a01b031690565b6001546001600160a01b0316331462000d345760405162461bcd60e51b8152600401620006a59062003631565b60055460405163d33a10f760e01b81526001600160a01b039091169063d33a10f79062000d68908590859060040162003654565b600060405180830381600087803b15801562000d8357600080fd5b505af115801562000d98573d6000803e3d6000fd5b505050505050565b6001546001600160a01b0316331462000dcd5760405162461bcd60e51b8152600401620006a59062003631565b6001546040516000916001600160a01b0316907f8be0079c531659141344cd1fd0a4f28419497f9722a3daafe3b4186f6b6457e0908390a3600180546001600160a01b0319169055565b6001546001600160a01b0316331462000e445760405162461bcd60e51b8152600401620006a59062003631565b62000e7962000e5a6103e861ffff841662001a63565b62000e72670de0b6b3a764000061ffff851662001ab0565b9062001b0e565b6008556040517f4411194d4feb3646bd58d203e9894318b3ca4af40d42b9bec8a5c0d5c955ae94906200098d9061ffff841690620034bb565b6001546001600160a01b0316331462000edf5760405162461bcd60e51b8152600401620006a59062003631565b600554604051637305250360e01b81526001600160a01b039091169063730525039062000f1b90899089908990899089908990600401620033ad565b600060405180830381600087803b15801562000f3657600080fd5b505af115801562000f4b573d6000803e3d6000fd5b50505050505050505050565b6001546001600160a01b0316331462000f845760405162461bcd60e51b8152600401620006a59062003631565b62000f8f8162001809565b600480546001600160a01b0319166001600160a01b0383161790556040517fcfb199724e80ef87a82c051c6bcbe15ca80dbd143a1a7ca4f90be72f4fd6bf87906200098d908390620031cb565b6000807f731c227a727f61424a6eb97f1b3be8be66c07eba0b292143e2d3f287e30daba68c8c6040516200101292919062003188565b60405180910390208b8b6040516200102c92919062003188565b60405190819003812062001045939291602001620034c4565b60405160208183030381529060405280519060200120905060006200106a8262001b52565b90506000620010b08287878080601f01602080910402602001604051908101604052809392919081815260200183838082843760009201919091525062001ba092505050565b90508e6001600160a01b0316816001600160a01b031614620010e65760405162461bcd60e51b8152600401620006a590620035fa565b620010f9818f8f8f8f8f8f8f8f62001792565b9f9e505050505050505050505050505050565b6003546001600160a01b031690565b6001546001600160a01b031681565b6001546001600160a01b03163314620011575760405162461bcd60e51b8152600401620006a59062003631565b6200116483838362001d85565b505050565b6002546001600160a01b031690565b6005546001600160a01b031690565b60085490565b603a54600090610100900460ff1680620011ac5750620011ac62001df4565b80620011bb5750603a5460ff16155b620011f85760405162461bcd60e51b815260040180806020018281038252602e8152602001806200451f602e913960400191505060405180910390fd5b603a54610100900460ff161580156200122457603a805460ff1961ff0019909116610100171660011790555b6200122f8862001809565b6200123a8762001809565b620012458662001809565b620012508562001809565b6200125b8462001809565b620012668362001809565b604051620012749062002341565b604051809103906000f08015801562001291573d6000803e3d6000fd5b50600080546001600160a01b03199081166001600160a01b03938416179091556001805482168b841617905560068054909116918916919091179055604051620012de60208201620022a2565b601f198282038101835260008054601f9093019091169081526020810160409081526200131b928b926001600160a01b03909116918101620031df565b60408051601f19818403018152908290526200133b929160200162003198565b60408051601f198184030181528282528051602091820120600955600380546001600160a01b03808c166001600160a01b031992831617909255600580548b8416908316179055600280548a8416908316179055600480549289169290911691909117905566038e67b515a0296008558282019091526001808352603160f81b92909101918252620013d0916007916200234f565b50600360009054906101000a90046001600160a01b03166001600160a01b031663e26db6fc6040518163ffffffff1660e01b8152600401600060405180830381600087803b1580156200142257600080fd5b505af115801562001437573d6000803e3d6000fd5b505050507fc6ee1e1e08307ce2d854c77911cf72b51710027139dd730756959e981480edb7876040516200146c919062003380565b60405180910390a17fb3eacd0e351fafdfefdec84e1cd19679b38dbcd63ea7c2c24da17fd2bc3b3c0e86604051620014a59190620031cb565b60405180910390a17f934730203236e0bdf255807d75b091578e1065be48dfcdae28f41ca47e1f58e184604051620014de9190620031cb565b60405180910390a17fcfb199724e80ef87a82c051c6bcbe15ca80dbd143a1a7ca4f90be72f4fd6bf8783604051620015179190620031cb565b60405180910390a17f4411194d4feb3646bd58d203e9894318b3ca4af40d42b9bec8a5c0d5c955ae946001604051620015519190620034bb565b60405180910390a16040516001600160a01b038916906000907f8be0079c531659141344cd1fd0a4f28419497f9722a3daafe3b4186f6b6457e0908290a3600191508015620015a657603a805461ff00191690555b509695505050505050565b6000620015a6868686868662001dfa565b6001546001600160a01b03163314620015ef5760405162461bcd60e51b8152600401620006a59062003631565b604051630e64e66d60e41b81526001600160a01b037f0000000000000000000000000000000000000000000000000000000000000000169063e64e66d09062000d6890859085906004016200366b565b6000546001600160a01b031633146200166c5760405162461bcd60e51b8152600401620006a590620035d6565b604051637240f9af60e01b81526001600160a01b03821690637240f9af906200169b9060079060040162003555565b600060405180830381600087803b158015620016b657600080fd5b505af115801562000b78573d6000803e3d6000fd5b6001546001600160a01b03163314620016f85760405162461bcd60e51b8152600401620006a59062003631565b620017038162001809565b6001546040516001600160a01b038084169216907f8be0079c531659141344cd1fd0a4f28419497f9722a3daafe3b4186f6b6457e090600090a3600180546001600160a01b0319166001600160a01b0392909216919091179055565b7f000000000000000000000000000000000000000000000000000000000000000081565b6000546001600160a01b031681565b600080620017a58b8b8b8b8b8b62001e28565b90507fede2a7fd12d6667169c5e5c571f43c9ef7ba9423166a58666482541a13d15a5e818c8c8c8c8c8c604051620017e497969594939291906200320d565b60405180910390a1620017fb8b8287878762001f7a565b9a9950505050505050505050565b60408051808201909152601581527416995c9bc81859191c995cdcc81c1c9bdd9a591959605a1b60208201526001600160a01b038216620018cb5760405162461bcd60e51b81526004018080602001828103825283818151815260200191508051906020019080838360005b838110156200188f57818101518382015260200162001875565b50505050905090810190601f168015620018bd5780820380516001836020036101000a031916815260200191505b509250505060405180910390fd5b5050565b80516000908290600190600019015b8251811015620019a8576030838281518110620018f757fe5b016020015160f81c1080159062001923575060398382815181106200191857fe5b016020015160f81c11155b62001975576040805162461bcd60e51b815260206004820152601660248201527f496e76616c696420737472696e6720696e746567657200000000000000000000604482015290519081900360640190fd5b8160308483815181106200198557fe5b016020015160f81c0360ff16029390930192600a919091029060001901620018de565b505050919050565b60008585858585604051602001620019cd95949392919062003346565b60405160208183030381529060405280519060200120905095945050505050565b600554604051633629ca3160e11b81526001600160a01b0390911690636c5394629062001a28908890889088908890889060040162003698565b600060405180830381600087803b15801562001a4357600080fd5b505af115801562001a58573d6000803e3d6000fd5b505050505050505050565b600062001aa783836040518060400160405280601e81526020017f536166654d6174683a207375627472616374696f6e206f766572666c6f77000081525062002010565b90505b92915050565b60008262001ac15750600062001aaa565b8282028284828162001acf57fe5b041462001aa75760405162461bcd60e51b81526004018080602001828103825260218152602001806200456f6021913960400191505060405180910390fd5b600062001aa783836040518060400160405280601a81526020017f536166654d6174683a206469766973696f6e206279207a65726f0000000000008152506200206d565b600062001b5e620020d6565b82604051602001808061190160f01b81525060020183815260200182815260200192505050604051602081830303815290604052805190602001209050919050565b6000815160411462001bf9576040805162461bcd60e51b815260206004820152601f60248201527f45434453413a20696e76616c6964207369676e6174757265206c656e67746800604482015290519081900360640190fd5b60208201516040830151606084015160001a7f7fffffffffffffffffffffffffffffff5d576e7357a4501ddfe92f46681b20a082111562001c6c5760405162461bcd60e51b8152600401808060200182810382526022815260200180620044fd6022913960400191505060405180910390fd5b8060ff16601b148062001c8257508060ff16601c145b62001cbf5760405162461bcd60e51b81526004018080602001828103825260228152602001806200454d6022913960400191505060405180910390fd5b600060018783868660405160008152602001604052604051808581526020018460ff1681526020018381526020018281526020019450505050506020604051602081039080840390855afa15801562001d1c573d6000803e3d6000fd5b5050604051601f1901519150506001600160a01b03811662000a2e576040805162461bcd60e51b815260206004820152601860248201527f45434453413a20696e76616c6964207369676e61747572650000000000000000604482015290519081900360640190fd5b6005546040516360335e8d60e11b81526001600160a01b039091169063c066bd1a9062001dbb9086908690869060040162003679565b600060405180830381600087803b15801562001dd657600080fd5b505af115801562001deb573d6000803e3d6000fd5b50505050505050565b303b1590565b60008062001e0c8787878787620019b0565b905062001e1c81600954620021db565b91509550959350505050565b600080600062001e3c898989898962001dfa565b92509050803b801562001e635760405162461bcd60e51b8152600401620006a5906200356a565b505060065460008054604080518381526020810191829052929385936001600160a01b0391821693919091169162001e9b90620022a2565b62001ea993929190620031df565b8190604051809103906000f590508015801562001eca573d6000803e3d6000fd5b50905062001edc600060028362001d85565b806001600160a01b031663f729023f8989898960078f8b6040518863ffffffff1660e01b815260040162001f179796959493929190620034da565b602060405180830381600087803b15801562001f3257600080fd5b505af115801562001f47573d6000803e3d6000fd5b505050506040513d601f19601f8201168201806040525081019062001f6d919062002cb5565b5098975050505050505050565b604051630e481ff560e31b81527f0000000000000000000000000000000000000000000000000000000000000000906001600160a01b03821690637240ffa890349062001fd4908a908a908a908a908a9060040162003267565b6000604051808303818588803b15801562001fee57600080fd5b505af115801562002003573d6000803e3d6000fd5b5050505050505050505050565b60008184841115620020655760405162461bcd60e51b81526020600482018181528351602484015283519092839260449091019190850190808383600083156200188f57818101518382015260200162001875565b505050900390565b60008183620020bf5760405162461bcd60e51b81526020600482018181528351602484015283519092839260449091019190850190808383600083156200188f57818101518382015260200162001875565b506000838581620020cc57fe5b0495945050505050565b600046306001600160a01b037f0000000000000000000000000000000000000000000000000000000000000000161480156200213157507f000000000000000000000000000000000000000000000000000000000000000081145b1562002161577f000000000000000000000000000000000000000000000000000000000000000091505062000675565b620021ce7f00000000000000000000000000000000000000000000000000000000000000007f00000000000000000000000000000000000000000000000000000000000000007f0000000000000000000000000000000000000000000000000000000000000000620021ea565b91505062000675565b5090565b600062001aa78383306200222f565b604080516020808201959095528082019390935260608301919091524660808301523060a0808401919091528151808403909101815260c09092019052805191012090565b604080517fff0000000000000000000000000000000000000000000000000000000000000060208083019190915260609390931b6bffffffffffffffffffffffff191660218201526035810194909452605580850193909352805180850390930183526075909301909252805191012090565b6108dc806200378a83390190565b828054600181600116156101000203166002900490600052602060002090601f016020900481019282620022e8576000855562002333565b82601f10620023035782800160ff1982351617855562002333565b8280016001018555821562002333579182015b828111156200233357823582559160200191906001019062002316565b50620021d7929150620023d2565b610497806200406683390190565b828054600181600116156101000203166002900490600052602060002090601f01602090048101928262002387576000855562002333565b82601f10620023a257805160ff191683800117855562002333565b8280016001018555821562002333579182015b8281111562002333578251825591602001919060010190620023b5565b5b80821115620021d75760008155600101620023d3565b803562000b378162003761565b60008083601f84011262002408578182fd5b50813567ffffffffffffffff81111562002420578182fd5b60208301915083602080830285010111156200243b57600080fd5b9250929050565b600082601f83011262002453578081fd5b813560206200246c620024668362003703565b620036de565b828152818101908583018385028701840188101562002489578586fd5b855b85811015620024b4578135620024a18162003761565b845292840192908401906001016200248b565b5090979650505050505050565b600082601f830112620024d2578081fd5b81356020620024e5620024668362003703565b82815281810190858301855b85811015620024b45781358801606080601f19838d0301121562002513578889fd5b6040805182810167ffffffffffffffff82821081831117156200253257fe5b908352848a013590620025458262003761565b818352858401358b84015293850135938085111562002562578c8dfd5b5050620025748d8a8587010162002763565b91810191909152865250509284019290840190600101620024f1565b600082601f830112620025a1578081fd5b81356020620025b4620024668362003703565b82815281810190858301855b85811015620024b457620025da898684358b010162002763565b84529284019290840190600101620025c0565b803562000b37816200377a565b60008083601f8401126200260c578182fd5b50813567ffffffffffffffff81111562002624578182fd5b6020830191508360208285010111156200243b57600080fd5b600082601f8301126200264e578081fd5b813567ffffffffffffffff8111156200266357fe5b62002678601f8201601f1916602001620036de565b8181528460208386010111156200268d578283fd5b816020850160208301379081016020019190915292915050565b600060e08284031215620026b9578081fd5b60405160e0810181811067ffffffffffffffff82111715620026d757fe5b604052905080620026e88362002829565b8152620026f86020840162002816565b60208201526200270b6040840162002816565b60408201526200271e6060840162002816565b6060820152620027316080840162002816565b60808201526200274460a08401620025ed565b60a08201526200275760c08401620025ed565b60c08201525092915050565b60006060828403121562002775578081fd5b6040516060810167ffffffffffffffff82821081831117156200279457fe5b816040528293508435915080821115620027ad57600080fd5b620027bb8683870162002442565b83526020850135915080821115620027d257600080fd5b620027e08683870162002442565b60208401526040850135915080821115620027fa57600080fd5b5062002809858286016200263d565b6040830152505092915050565b803561ffff8116811462000b3757600080fd5b803563ffffffff8116811462000b3757600080fd5b60006020828403121562002850578081fd5b813562001aa78162003761565b6000602082840312156200286f578081fd5b815162001aa78162003761565b60008060008060008060c0878903121562002895578182fd5b8635620028a28162003761565b95506020870135620028b48162003761565b94506040870135620028c68162003761565b93506060870135620028d88162003761565b92506080870135620028ea8162003761565b915060a0870135620028fc8162003761565b809150509295509295509295565b6000806000604084860312156200291f578081fd5b83356200292c8162003761565b9250602084013567ffffffffffffffff81111562002948578182fd5b6200295686828701620025fa565b9497909650939450505050565b6000806000806000606086880312156200297b578283fd5b8535620029888162003761565b9450602086013567ffffffffffffffff80821115620029a5578485fd5b620029b389838a01620025fa565b90965094506040880135915080821115620029cc578283fd5b50620029db88828901620025fa565b969995985093965092949392505050565b60008060008060008060008060008060006101c08c8e03121562002a0e578889fd5b62002a198c620023e9565b9a5067ffffffffffffffff8060208e0135111562002a3557898afd5b62002a478e60208f01358f01620025fa565b909b50995060408d013581101562002a5d578586fd5b62002a6f8e60408f01358f01620025fa565b909950975060608d013581101562002a85578586fd5b62002a978e60608f01358f01620024c1565b965062002aa88e60808f01620026a7565b955062002ab96101608e01620023e9565b9450806101808e0135111562002acd578384fd5b62002ae08e6101808f01358f016200263d565b9350806101a08e0135111562002af4578283fd5b5062002b088d6101a08e01358e01620025fa565b81935080925050509295989b509295989b9093969950565b6000806000806000806060878903121562002b39578384fd5b863567ffffffffffffffff8082111562002b51578586fd5b62002b5f8a838b01620023f6565b9098509650602089013591508082111562002b78578586fd5b62002b868a838b01620023f6565b9096509450604089013591508082111562002b9f578384fd5b5062002bae89828a01620023f6565b979a9699509497509295939492505050565b600080600080600080600080600060a08a8c03121562002bde578283fd5b893567ffffffffffffffff8082111562002bf6578485fd5b62002c048d838e01620023f6565b909b50995060208c013591508082111562002c1d578485fd5b62002c2b8d838e01620023f6565b909950975060408c013591508082111562002c44578485fd5b62002c528d838e01620023f6565b909750955060608c013591508082111562002c6b578485fd5b62002c798d838e0162002590565b945060808c013591508082111562002c8f578384fd5b5062002c9e8c828d01620023f6565b915080935050809150509295985092959850929598565b60006020828403121562002cc7578081fd5b815162001aa7816200377a565b600080600080600080600080610180898b03121562002cf1578182fd5b883567ffffffffffffffff8082111562002d09578384fd5b62002d178c838d01620025fa565b909a50985060208b013591508082111562002d30578384fd5b62002d3e8c838d01620025fa565b909850965060408b013591508082111562002d57578384fd5b62002d658c838d01620024c1565b955062002d768c60608d01620026a7565b945062002d876101408c01620023e9565b93506101608b013591508082111562002d9e578283fd5b5062002dad8b828c016200263d565b9150509295985092959890939650565b60006020828403121562002dcf578081fd5b62001aa78262002816565b6000806040838503121562002ded578182fd5b82359150602083013562002e018162003761565b809150509250929050565b6000806040838503121562002e1f578182fd5b50508035926020909101359150565b60008060006060848603121562002e43578081fd5b8335925060208401359150604084013562002e5e8162003761565b809150509250925092565b600080600080600060a0868803121562002e81578283fd5b8535945060208601359350604086013562002e9c8162003761565b9250606086013567ffffffffffffffff81111562002eb8578182fd5b62002ec68882890162002763565b925050608086013562002ed98162003761565b809150509295509295909350565b6001600160a01b03169052565b60008284526020808501945082825b8581101562002f3557813562002f198162003761565b6001600160a01b03168752958201959082019060010162002f03565b509495945050505050565b6000815180845260208085019450808401835b8381101562002f355781516001600160a01b03168752958201959082019060010162002f53565b6000815180845260208085018081965082840281019150828601855b8581101562002fed578284038952815180516001600160a01b03168552858101518686015260409081015160609186018290529062002fd88187018362003131565b9a87019a955050509084019060010162002f96565b5091979650505050505050565b60008284527f07ffffffffffffffffffffffffffffffffffffffffffffffffffffffffffffff8311156200302c578081fd5b6020830280836020870137939093016020019283525090919050565b15159052565b60008151808452620030688160208601602086016200372e565b601f01601f19169290920160200192915050565b60008284528282602086013780602084860101526020601f19601f85011685010190509392505050565b60008154600180821660008114620030c75760018114620030e65762003128565b60028304607f16865260ff198316602087015260408601935062003128565b60028304808752620030f88662003722565b60005b828110156200311e5781546020828b0101528482019150602081019050620030fb565b8801602001955050505b50505092915050565b600081516060845262003148606085018262002f40565b90506020830151848203602086015262003163828262002f40565b915050604083015184820360408601526200317f82826200304e565b95945050505050565b6000828483379101908152919050565b60008351620031ac8184602088016200372e565b835190830190620031c28183602088016200372e565b01949350505050565b6001600160a01b0391909116815260200190565b60006001600160a01b038086168352808516602084015250606060408301526200317f60608301846200304e565b60006001600160a01b03808a16835280891660208401525060a060408301526200323c60a0830187896200307c565b8281036060840152620032518186886200307c565b90508281036080840152620017fb818562002f7a565b60006101606001600160a01b03808916845280881660208501525063ffffffff8651166040840152602086015161ffff80821660608601528060408901511660808601528060608901511660a08601528060808901511660c0860152505060a0860151620032d960e085018262003048565b5060c0860151620032ef61010085018262003048565b506200330061012084018662002ee7565b8061014084015262003315818401856200304e565b98975050505050505050565b60006001600160a01b0385168252604060208301526200317f6040830184866200307c565b60006001600160a01b0387168252606060208301526200336b6060830186886200307c565b8281036040840152620033158185876200307c565b6001600160a01b03919091168152604060208201819052600190820152603160f81b606082015260800190565b600060608252620033c360608301888a62002ffa565b8281036020840152620033d881878962002ffa565b905082810360408401526200065b81858762002ef4565b600060a082526200340560a083018b8d62002ffa565b6020838203818501526200341b828b8d62002ffa565b915083820360408501526200343282898b62002ef4565b848103606086015287518082529092508183019082810284018301838a01865b838110156200348457601f198784030185526200347183835162003131565b9486019492509085019060010162003452565b505086810360808801526200349b81898b62002ef4565b955050505050509a9950505050505050505050565b901515815260200190565b90815260200190565b9283526020830191909152604082015260600190565b600060a08252620034f060a08301898b6200307c565b82810360208401526200350581888a6200307c565b905082810360408401526200351b8187620030a6565b90506001600160a01b03851660608401528281036080840152620017fb818562002f7a565b60006020825262001aa760208301846200304e565b60006020825262001aa76020830184620030a6565b60208082526023908201527f5f63726561746550726f78793a2070726f787920616c726561647920657869736040820152623a399760e91b606082015260800190565b6020808252600f908201526e24b73b30b634b2103b32b939b4b7b760891b604082015260600190565b6020808252600a908201526927b7363c9030b236b4b760b11b604082015260600190565b6020808252601b908201527f6372656174655374726174656779466f723a20696e76616c69642e0000000000604082015260600190565b6020808252600990820152682737ba1037bbb732b960b91b604082015260600190565b9182526001600160a01b0316602082015260400190565b918252602082015260400190565b92835260208301919091526001600160a01b0316604082015260600190565b60008682528560208301526001600160a01b03808616604084015260a06060840152620036c960a084018662003131565b91508084166080840152509695505050505050565b60405181810167ffffffffffffffff81118282101715620036fb57fe5b604052919050565b600067ffffffffffffffff8211156200371857fe5b5060209081020190565b60009081526020902090565b60005b838110156200374b57818101518382015260200162003731565b838111156200375b576000848401525b50505050565b6001600160a01b03811681146200377757600080fd5b50565b80151581146200377757600080fdfe60806040526040516108dc3803806108dc8339818101604052606081101561002657600080fd5b8151602083015160408085018051915193959294830192918464010000000082111561005157600080fd5b90830190602082018581111561006657600080fd5b825164010000000081118282018810171561008057600080fd5b82525081516020918201929091019080838360005b838110156100ad578181015183820152602001610095565b50505050905090810190601f1680156100da5780820380516001836020036101000a031916815260200191505b50604052508491508290506100ee826101bf565b8051156101a6576000826001600160a01b0316826040518082805190602001908083835b602083106101315780518252601f199092019160209182019101610112565b6001836020036101000a038019825116818451168082178552505050505050905001915050600060405180830381855af49150503d8060008114610191576040519150601f19603f3d011682016040523d82523d6000602084013e610196565b606091505b50509050806101a457600080fd5b505b506101ae9050565b6101b782610231565b50505061025b565b6101d28161025560201b6103b41760201c565b61020d5760405162461bcd60e51b81526004018080602001828103825260368152602001806108a66036913960400191505060405180910390fd5b7f360894a13ba1a3210667c828492db98dca3e2076cc3735a920a3ca505d382bbc55565b7fb53127684a568b3173ae13b9f8a6016e243e63b6e8ee1178d6a717850b5d610355565b3b151590565b61063c8061026a6000396000f3fe60806040526004361061004e5760003560e01c80633659cfe6146100655780634f1ef286146100985780635c60da1b146101185780638f28397014610149578063f851a4401461017c5761005d565b3661005d5761005b610191565b005b61005b610191565b34801561007157600080fd5b5061005b6004803603602081101561008857600080fd5b50356001600160a01b03166101ab565b61005b600480360360408110156100ae57600080fd5b6001600160a01b0382351691908101906040810160208201356401000000008111156100d957600080fd5b8201836020820111156100eb57600080fd5b8035906020019184600183028401116401000000008311171561010d57600080fd5b5090925090506101e5565b34801561012457600080fd5b5061012d610292565b604080516001600160a01b039092168252519081900360200190f35b34801561015557600080fd5b5061005b6004803603602081101561016c57600080fd5b50356001600160a01b03166102cf565b34801561018857600080fd5b5061012d610389565b6101996103ba565b6101a96101a461041a565b61043f565b565b6101b3610463565b6001600160a01b0316336001600160a01b031614156101da576101d581610488565b6101e2565b6101e2610191565b50565b6101ed610463565b6001600160a01b0316336001600160a01b031614156102855761020f83610488565b6000836001600160a01b031683836040518083838082843760405192019450600093509091505080830381855af49150503d806000811461026c576040519150601f19603f3d011682016040523d82523d6000602084013e610271565b606091505b505090508061027f57600080fd5b5061028d565b61028d610191565b505050565b600061029c610463565b6001600160a01b0316336001600160a01b031614156102c4576102bd61041a565b90506102cc565b6102cc610191565b90565b6102d7610463565b6001600160a01b0316336001600160a01b031614156101da576001600160a01b0381166103355760405162461bcd60e51b815260040180806020018281038252603a815260200180610555603a913960400191505060405180910390fd5b7f7e644d79422f17c01e4894b5f4f588d331ebfa28653d42ae832dc59e38c9798f61035e610463565b604080516001600160a01b03928316815291841660208301528051918290030190a16101d5816104c8565b6000610393610463565b6001600160a01b0316336001600160a01b031614156102c4576102bd610463565b3b151590565b6103c2610463565b6001600160a01b0316336001600160a01b031614156104125760405162461bcd60e51b81526004018080602001828103825260428152602001806105c56042913960600191505060405180910390fd5b6101a96101a9565b7f360894a13ba1a3210667c828492db98dca3e2076cc3735a920a3ca505d382bbc5490565b3660008037600080366000845af43d6000803e80801561045e573d6000f35b3d6000fd5b7fb53127684a568b3173ae13b9f8a6016e243e63b6e8ee1178d6a717850b5d61035490565b610491816104ec565b6040516001600160a01b038216907fbc7cd75a20ee27fd9adebab32041f755214dbc6bffa90cc0225b39da2e5c2d3b90600090a250565b7fb53127684a568b3173ae13b9f8a6016e243e63b6e8ee1178d6a717850b5d610355565b6104f5816103b4565b6105305760405162461bcd60e51b815260040180806020018281038252603681526020018061058f6036913960400191505060405180910390fd5b7f360894a13ba1a3210667c828492db98dca3e2076cc3735a920a3ca505d382bbc5556fe5472616e73706172656e745570677261646561626c6550726f78793a206e65772061646d696e20697320746865207a65726f20616464726573735570677261646561626c6550726f78793a206e657720696d706c656d656e746174696f6e206973206e6f74206120636f6e74726163745472616e73706172656e745570677261646561626c6550726f78793a2061646d696e2063616e6e6f742066616c6c6261636b20746f2070726f787920746172676574a2646970667358221220099f7b7ba494891f284e219ca7f9eb57b6a33559097a4db882490a5c178ec4dc64736f6c634300070600335570677261646561626c6550726f78793a206e657720696d706c656d656e746174696f6e206973206e6f74206120636f6e747261637460a060405234801561001057600080fd5b5033606081901b60805261045d61003a6000398060aa52806101775280610269525061045d6000f3fe608060405234801561001057600080fd5b50600436106100415760003560e01c80630900f01014610046578063204e1c7a1461005b578063f3b7dead14610084575b600080fd5b61005961005436600461039a565b610097565b005b61006e61006936600461039a565b6102d6565b60405161007b91906103d6565b60405180910390f35b61006e61009236600461039a565b61035c565b604051633d58406360e01b8152819033907f00000000000000000000000000000000000000000000000000000000000000006001600160a01b031690633d584063906100e79085906004016103d6565b60206040518083038186803b1580156100ff57600080fd5b505afa158015610113573d6000803e3d6000fd5b505050506040513d601f19601f820116820180604052508101906101379190610377565b6001600160a01b0316146101665760405162461bcd60e51b815260040161015d906103ea565b60405180910390fd5b816001600160a01b0316633659cfe67f00000000000000000000000000000000000000000000000000000000000000006001600160a01b0316635c60da1b6040518163ffffffff1660e01b815260040160206040518083038186803b1580156101ce57600080fd5b505afa1580156101e2573d6000803e3d6000fd5b505050506040513d601f19601f820116820180604052508101906102069190610377565b6040518263ffffffff1660e01b815260040161022291906103d6565b600060405180830381600087803b15801561023c57600080fd5b505af1158015610250573d6000803e3d6000fd5b505060405163f03633f560e01b81526001600160a01b037f000000000000000000000000000000000000000000000000000000000000000016925063f03633f591506102a09085906004016103d6565b600060405180830381600087803b1580156102ba57600080fd5b505af11580156102ce573d6000803e3d6000fd5b505050505050565b6000806000836001600160a01b03166040516102f1906103b6565b600060405180830381855afa9150503d806000811461032c576040519150601f19603f3d011682016040523d82523d6000602084013e610331565b606091505b50915091508161034057600080fd5b808060200190518101906103549190610377565b949350505050565b6000806000836001600160a01b03166040516102f1906103c6565b600060208284031215610388578081fd5b81516103938161040f565b9392505050565b6000602082840312156103ab578081fd5b81356103938161040f565b635c60da1b60e01b815260040190565b6303e1469160e61b815260040190565b6001600160a01b0391909116815260200190565b6020808252600b908201526a2737ba1036b0b730b3b2b960a91b604082015260600190565b6001600160a01b038116811461042457600080fd5b5056fea26469706673582212206337a53a0dff4909883c8e6a6acf9591e7c0c64e6851ce0af1e582a66e13c7c664736f6c6343000706003345434453413a20696e76616c6964207369676e6174757265202773272076616c7565496e697469616c697a61626c653a20636f6e747261637420697320616c726561647920696e697469616c697a656445434453413a20696e76616c6964207369676e6174757265202776272076616c7565536166654d6174683a206d756c7469706c69636174696f6e206f766572666c6f77a2646970667358221220cc726ba873763976b645aa0a3af800060a728e3bc768ff27f6fc694022cfe8d864736f6c63430007060033496e697469616c697a61626c653a20636f6e747261637420697320616c726561647920696e697469616c697a6564",
  "linkReferences": {},
  "deployedLinkReferences": {}
}