{
  "_format": "hh-sol-artifact-1",
  "contractName": "StrategyProxyFactory",
  "sourceName": "contracts/StrategyProxyFactory.sol",
  "abi": [
    {
      "inputs": [
        {
          "internalType": "address",
          "name": "controller_",
          "type": "address"
        }
      ],
      "stateMutability": "nonpayable",
      "type": "constructor"
    },
    {
      "anonymous": false,
      "inputs": [
        {
          "indexed": false,
          "internalType": "address",
          "name": "newOracle",
          "type": "address"
        }
      ],
      "name": "NewOracle",
      "type": "event"
    },
    {
      "anonymous": false,
      "inputs": [
        {
          "indexed": false,
          "internalType": "address",
          "name": "newPool",
          "type": "address"
        }
      ],
      "name": "NewPool",
      "type": "event"
    },
    {
      "anonymous": false,
      "inputs": [
        {
          "indexed": false,
          "internalType": "address",
          "name": "strategy",
          "type": "address"
        },
        {
          "indexed": false,
          "internalType": "address",
          "name": "manager",
          "type": "address"
        },
        {
          "indexed": false,
          "internalType": "string",
          "name": "name",
          "type": "string"
        },
        {
          "indexed": false,
          "internalType": "string",
          "name": "symbol",
          "type": "string"
        },
        {
          "components": [
            {
              "internalType": "address",
              "name": "item",
              "type": "address"
            },
            {
              "internalType": "int256",
              "name": "percentage",
              "type": "int256"
            },
            {
              "components": [
                {
                  "internalType": "address[]",
                  "name": "adapters",
                  "type": "address[]"
                },
                {
                  "internalType": "address[]",
                  "name": "path",
                  "type": "address[]"
                },
                {
                  "internalType": "bytes",
                  "name": "cache",
                  "type": "bytes"
                }
              ],
              "internalType": "struct StrategyTypes.TradeData",
              "name": "data",
              "type": "tuple"
            }
          ],
          "indexed": false,
          "internalType": "struct StrategyTypes.StrategyItem[]",
          "name": "items",
          "type": "tuple[]"
        }
      ],
      "name": "NewStrategy",
      "type": "event"
    },
    {
      "anonymous": false,
      "inputs": [
        {
          "indexed": false,
          "internalType": "address",
          "name": "newWhitelist",
          "type": "address"
        }
      ],
      "name": "NewWhitelist",
      "type": "event"
    },
    {
      "anonymous": false,
      "inputs": [
        {
          "indexed": true,
          "internalType": "address",
          "name": "previousOwner",
          "type": "address"
        },
        {
          "indexed": true,
          "internalType": "address",
          "name": "newOwner",
          "type": "address"
        }
      ],
      "name": "OwnershipTransferred",
      "type": "event"
    },
    {
      "anonymous": false,
      "inputs": [
        {
          "indexed": false,
          "internalType": "address",
          "name": "newImplementation",
          "type": "address"
        },
        {
          "indexed": false,
          "internalType": "string",
          "name": "version",
          "type": "string"
        }
      ],
      "name": "Update",
      "type": "event"
    },
    {
      "inputs": [],
      "name": "ZERO_ADDRESS",
      "outputs": [
        {
          "internalType": "string",
          "name": "",
          "type": "string"
        }
      ],
      "stateMutability": "view",
      "type": "function"
    },
    {
      "inputs": [
        {
          "internalType": "uint256",
          "name": "estimatorCategoryIndex",
          "type": "uint256"
        },
        {
          "internalType": "address",
          "name": "estimator",
          "type": "address"
        }
      ],
      "name": "addEstimatorToRegistry",
      "outputs": [],
      "stateMutability": "nonpayable",
      "type": "function"
    },
    {
      "inputs": [
        {
          "internalType": "uint256",
          "name": "itemCategoryIndex",
          "type": "uint256"
        },
        {
          "internalType": "uint256",
          "name": "estimatorCategoryIndex",
          "type": "uint256"
        },
        {
          "internalType": "address",
          "name": "token",
          "type": "address"
        }
      ],
      "name": "addItemToRegistry",
      "outputs": [],
      "stateMutability": "nonpayable",
      "type": "function"
    },
    {
      "inputs": [],
      "name": "admin",
      "outputs": [
        {
          "internalType": "address",
          "name": "",
          "type": "address"
        }
      ],
      "stateMutability": "view",
      "type": "function"
    },
    {
      "inputs": [],
      "name": "controller",
      "outputs": [
        {
          "internalType": "address",
          "name": "",
          "type": "address"
        }
      ],
      "stateMutability": "view",
      "type": "function"
    },
    {
      "inputs": [
        {
          "internalType": "address",
          "name": "manager",
          "type": "address"
        },
        {
          "internalType": "string",
          "name": "name",
          "type": "string"
        },
        {
          "internalType": "string",
          "name": "symbol",
          "type": "string"
        },
        {
          "components": [
            {
              "internalType": "address",
              "name": "item",
              "type": "address"
            },
            {
              "internalType": "int256",
              "name": "percentage",
              "type": "int256"
            },
            {
              "components": [
                {
                  "internalType": "address[]",
                  "name": "adapters",
                  "type": "address[]"
                },
                {
                  "internalType": "address[]",
                  "name": "path",
                  "type": "address[]"
                },
                {
                  "internalType": "bytes",
                  "name": "cache",
                  "type": "bytes"
                }
              ],
              "internalType": "struct StrategyTypes.TradeData",
              "name": "data",
              "type": "tuple"
            }
          ],
          "internalType": "struct StrategyTypes.StrategyItem[]",
          "name": "strategyItems",
          "type": "tuple[]"
        },
        {
          "components": [
            {
              "internalType": "uint32",
              "name": "timelock",
              "type": "uint32"
            },
            {
              "internalType": "uint16",
              "name": "rebalanceThreshold",
              "type": "uint16"
            },
            {
              "internalType": "uint16",
              "name": "rebalanceSlippage",
              "type": "uint16"
            },
            {
              "internalType": "uint16",
              "name": "restructureSlippage",
              "type": "uint16"
            },
            {
              "internalType": "uint16",
              "name": "performanceFee",
              "type": "uint16"
            },
            {
              "internalType": "bool",
              "name": "social",
              "type": "bool"
            },
            {
              "internalType": "bool",
              "name": "set",
              "type": "bool"
            }
          ],
          "internalType": "struct StrategyTypes.InitialState",
          "name": "strategyState",
          "type": "tuple"
        },
        {
          "internalType": "address",
          "name": "router",
          "type": "address"
        },
        {
          "internalType": "bytes",
          "name": "data",
          "type": "bytes"
        }
      ],
      "name": "createStrategy",
      "outputs": [
        {
          "internalType": "address",
          "name": "",
          "type": "address"
        }
      ],
      "stateMutability": "payable",
      "type": "function"
    },
    {
      "inputs": [
        {
          "internalType": "address",
          "name": "proxy",
          "type": "address"
        }
      ],
      "name": "getManager",
      "outputs": [
        {
          "internalType": "address",
          "name": "",
          "type": "address"
        }
      ],
      "stateMutability": "view",
      "type": "function"
    },
    {
      "inputs": [],
      "name": "implementation",
      "outputs": [
        {
          "internalType": "address",
          "name": "",
          "type": "address"
        }
      ],
      "stateMutability": "view",
      "type": "function"
    },
    {
      "inputs": [
        {
          "internalType": "address",
          "name": "owner_",
          "type": "address"
        },
        {
          "internalType": "address",
          "name": "implementation_",
          "type": "address"
        },
        {
          "internalType": "address",
          "name": "oracle_",
          "type": "address"
        },
        {
          "internalType": "address",
          "name": "registry_",
          "type": "address"
        },
        {
          "internalType": "address",
          "name": "whitelist_",
          "type": "address"
        },
        {
          "internalType": "address",
          "name": "pool_",
          "type": "address"
        }
      ],
      "name": "initialize",
      "outputs": [
        {
          "internalType": "bool",
          "name": "",
          "type": "bool"
        }
      ],
      "stateMutability": "nonpayable",
      "type": "function"
    },
    {
      "inputs": [],
      "name": "oracle",
      "outputs": [
        {
          "internalType": "address",
          "name": "",
          "type": "address"
        }
      ],
      "stateMutability": "view",
      "type": "function"
    },
    {
      "inputs": [],
      "name": "owner",
      "outputs": [
        {
          "internalType": "address",
          "name": "",
          "type": "address"
        }
      ],
      "stateMutability": "view",
      "type": "function"
    },
    {
      "inputs": [],
      "name": "pool",
      "outputs": [
        {
          "internalType": "address",
          "name": "",
          "type": "address"
        }
      ],
      "stateMutability": "view",
      "type": "function"
    },
    {
      "inputs": [],
      "name": "renounceOwnership",
      "outputs": [],
      "stateMutability": "nonpayable",
      "type": "function"
    },
    {
      "inputs": [
        {
          "internalType": "address",
          "name": "manager",
          "type": "address"
        },
        {
          "internalType": "string",
          "name": "name",
          "type": "string"
        },
        {
          "internalType": "string",
          "name": "symbol",
          "type": "string"
        }
      ],
      "name": "salt",
      "outputs": [
        {
          "internalType": "bytes32",
          "name": "",
          "type": "bytes32"
        }
      ],
      "stateMutability": "pure",
      "type": "function"
    },
    {
      "inputs": [
        {
          "internalType": "address",
          "name": "newOwner",
          "type": "address"
        }
      ],
      "name": "transferOwnership",
      "outputs": [],
      "stateMutability": "nonpayable",
      "type": "function"
    },
    {
      "inputs": [
        {
          "internalType": "address",
          "name": "newImplementation",
          "type": "address"
        },
        {
          "internalType": "string",
          "name": "newVersion",
          "type": "string"
        }
      ],
      "name": "updateImplementation",
      "outputs": [],
      "stateMutability": "nonpayable",
      "type": "function"
    },
    {
      "inputs": [
        {
          "internalType": "address",
          "name": "newOracle",
          "type": "address"
        }
      ],
      "name": "updateOracle",
      "outputs": [],
      "stateMutability": "nonpayable",
      "type": "function"
    },
    {
      "inputs": [
        {
          "internalType": "address",
          "name": "newPool",
          "type": "address"
        }
      ],
      "name": "updatePool",
      "outputs": [],
      "stateMutability": "nonpayable",
      "type": "function"
    },
    {
      "inputs": [
        {
          "internalType": "address",
          "name": "proxy",
          "type": "address"
        }
      ],
      "name": "updateProxyVersion",
      "outputs": [],
      "stateMutability": "nonpayable",
      "type": "function"
    },
    {
      "inputs": [
        {
          "internalType": "address",
          "name": "newWhitelist",
          "type": "address"
        }
      ],
      "name": "updateWhitelist",
      "outputs": [],
      "stateMutability": "nonpayable",
      "type": "function"
    },
    {
      "inputs": [],
      "name": "version",
      "outputs": [
        {
          "internalType": "string",
          "name": "",
          "type": "string"
        }
      ],
      "stateMutability": "view",
      "type": "function"
    },
    {
      "inputs": [],
      "name": "whitelist",
      "outputs": [
        {
          "internalType": "address",
          "name": "",
          "type": "address"
        }
      ],
      "stateMutability": "view",
      "type": "function"
    }
  ],
  "bytecode": "0x60a06040523480156200001157600080fd5b50604051620033f8380380620033f88339810160408190526200003491620000fb565b603a54610100900460ff168062000050575062000050620000f5565b806200005f5750603a5460ff16155b6200009c5760405162461bcd60e51b815260040180806020018281038252602e815260200180620033ca602e913960400191505060405180910390fd5b603a54610100900460ff16158015620000c857603a805460ff1961ff0019909116610100171660011790555b6001600160601b0319606083901b166080528015620000ed57603a805461ff00191690555b50506200012b565b303b1590565b6000602082840312156200010d578081fd5b81516001600160a01b038116811462000124578182fd5b9392505050565b60805160601c61327c6200014e6000398061148b52806116bf525061327c6000f3fe6080604052600436106200011c5760003560e01c806316f0115b14620001215780631963282d14620001515780631cb44dfc14620001785780632016d1f9146200019d5780632a954d6d14620001b45780633d0f963e14620001e85780633d584063146200020d578063538ba4f9146200023257806354fd4d5014620002595780635c60da1b1462000271578063671095161462000289578063715018a614620002ae5780637b46c54f14620002c65780637dc0d1d014620002eb5780638da5cb5b146200030357806390a2702c146200031b57806393e59dc11462000340578063cc2a9a5b1462000358578063f03633f5146200038c578063f2fde38b14620003b1578063f77c479114620003d6578063f851a44014620003ee575b600080fd5b3480156200012e57600080fd5b506200013962000406565b604051620001489190620020e7565b60405180910390f35b3480156200015e57600080fd5b50620001766200017036600462001cb6565b62000415565b005b3480156200018557600080fd5b50620001766200019736600462001be3565b62000641565b62000139620001ae36600462001d84565b62000745565b348015620001c157600080fd5b50620001d9620001d336600462001d09565b620007b4565b604051620001489190620022b4565b348015620001f557600080fd5b50620001766200020736600462001be3565b620007ec565b3480156200021a57600080fd5b50620001396200022c36600462001be3565b620008e4565b3480156200023f57600080fd5b506200024a62000963565b604051620001489190620022bd565b3480156200026657600080fd5b506200024a6200098b565b3480156200027e57600080fd5b506200013962000a25565b3480156200029657600080fd5b5062000176620002a836600462001e93565b62000a34565b348015620002bb57600080fd5b506200017662000acd565b348015620002d357600080fd5b5062000176620002e536600462001be3565b62000b33565b348015620002f857600080fd5b506200013962000c2b565b3480156200031057600080fd5b506200013962000c3a565b3480156200032857600080fd5b50620001766200033a36600462001ec5565b62000c49565b3480156200034d57600080fd5b506200013962000c88565b3480156200036557600080fd5b506200037d6200037736600462001c28565b62000c97565b604051620001489190620022a9565b3480156200039957600080fd5b5062000176620003ab36600462001be3565b620012ff565b348015620003be57600080fd5b5062000176620003d036600462001be3565b62001392565b348015620003e357600080fd5b506200013962001489565b348015620003fb57600080fd5b5062000139620014ad565b6004546001600160a01b031690565b604080518082019091526015815260008051602062003227833981519152602082015282906001600160a01b038216620004d05760405162461bcd60e51b81526004018080602001828103825283818151815260200191508051906020019080838360005b83811015620004945781810151838201526020016200047a565b50505050905090810190601f168015620004c25780820380516001836020036101000a031916815260200191505b509250505060405180910390fd5b506001546001600160a01b03163314620005075760405162461bcd60e51b8152600401620004fe9062002398565b60405180910390fd5b60078054604080516020601f60026000196101006001881615020190951694909404938401819004810282018101909252828152620005a49390929091830182828015620005995780601f106200056d5761010080835404028352916020019162000599565b820191906000526020600020905b8154815290600101906020018083116200057b57829003601f168201915b5050505050620014bc565b620005af83620014bc565b11620005cf5760405162461bcd60e51b8152600401620004fe906200234b565b600680546001600160a01b0319166001600160a01b0385161790558151620005ff906007906020850190620017bb565b507fc6ee1e1e08307ce2d854c77911cf72b51710027139dd730756959e981480edb7836007604051620006349291906200227b565b60405180910390a1505050565b604080518082019091526015815260008051602062003227833981519152602082015281906001600160a01b038216620006be5760405162461bcd60e51b8152602060048201818152835160248401528351909283926044909101919085019080838360008315620004945781810151838201526020016200047a565b506001546001600160a01b03163314620006ec5760405162461bcd60e51b8152600401620004fe9062002398565b600380546001600160a01b0319166001600160a01b0384161790556040517fb3eacd0e351fafdfefdec84e1cd19679b38dbcd63ea7c2c24da17fd2bc3b3c0e9062000739908490620020e7565b60405180910390a15050565b600080620007568989898962001596565b90507fede2a7fd12d6667169c5e5c571f43c9ef7ba9423166a58666482541a13d15a5e818a8a8a8a6040516200079195949392919062002132565b60405180910390a1620007a88982878787620016b0565b98975050505050505050565b6000838383604051602001620007cd9392919062002237565b6040516020818303038152906040528051906020012090509392505050565b604080518082019091526015815260008051602062003227833981519152602082015281906001600160a01b038216620008695760405162461bcd60e51b8152602060048201818152835160248401528351909283926044909101919085019080838360008315620004945781810151838201526020016200047a565b506001546001600160a01b03163314620008975760405162461bcd60e51b8152600401620004fe9062002398565b600280546001600160a01b0319166001600160a01b0384161790556040517f934730203236e0bdf255807d75b091578e1065be48dfcdae28f41ca47e1f58e19062000739908490620020e7565b6000816001600160a01b031663481c6a756040518163ffffffff1660e01b815260040160206040518083038186803b1580156200092057600080fd5b505afa15801562000935573d6000803e3d6000fd5b505050506040513d601f19601f820116820180604052508101906200095b919062001c09565b90505b919050565b6040518060400160405280601581526020016000805160206200322783398151915281525081565b60078054604080516020601f600260001961010060018816150201909516949094049384018190048102820181019092528281526060939092909183018282801562000a1b5780601f10620009ef5761010080835404028352916020019162000a1b565b820191906000526020600020905b815481529060010190602001808311620009fd57829003601f168201915b5050505050905090565b6006546001600160a01b031690565b6001546001600160a01b0316331462000a615760405162461bcd60e51b8152600401620004fe9062002398565b60055460405163d33a10f760e01b81526001600160a01b039091169063d33a10f79062000a959085908590600401620023bb565b600060405180830381600087803b15801562000ab057600080fd5b505af115801562000ac5573d6000803e3d6000fd5b505050505050565b6001546001600160a01b0316331462000afa5760405162461bcd60e51b8152600401620004fe9062002398565b6001546040516000916001600160a01b03169060008051602062003207833981519152908390a3600180546001600160a01b0319169055565b604080518082019091526015815260008051602062003227833981519152602082015281906001600160a01b03821662000bb05760405162461bcd60e51b8152602060048201818152835160248401528351909283926044909101919085019080838360008315620004945781810151838201526020016200047a565b506001546001600160a01b0316331462000bde5760405162461bcd60e51b8152600401620004fe9062002398565b600480546001600160a01b0319166001600160a01b0384161790556040517fcfb199724e80ef87a82c051c6bcbe15ca80dbd143a1a7ca4f90be72f4fd6bf879062000739908490620020e7565b6003546001600160a01b031690565b6001546001600160a01b031681565b6001546001600160a01b0316331462000c765760405162461bcd60e51b8152600401620004fe9062002398565b62000c8383838362001746565b505050565b6002546001600160a01b031690565b603a54600090610100900460ff168062000cb6575062000cb6620017b5565b8062000cc55750603a5460ff16155b62000d025760405162461bcd60e51b815260040180806020018281038252602e815260200180620031d9602e913960400191505060405180910390fd5b603a54610100900460ff1615801562000d2e57603a805460ff1961ff0019909116610100171660011790555b604080518082019091526015815260008051602062003227833981519152602082015288906001600160a01b03821662000dab5760405162461bcd60e51b8152602060048201818152835160248401528351909283926044909101919085019080838360008315620004945781810151838201526020016200047a565b50604080518082019091526015815260008051602062003227833981519152602082015288906001600160a01b03821662000e295760405162461bcd60e51b8152602060048201818152835160248401528351909283926044909101919085019080838360008315620004945781810151838201526020016200047a565b50604080518082019091526015815260008051602062003227833981519152602082015288906001600160a01b03821662000ea75760405162461bcd60e51b8152602060048201818152835160248401528351909283926044909101919085019080838360008315620004945781810151838201526020016200047a565b50604080518082019091526015815260008051602062003227833981519152602082015288906001600160a01b03821662000f255760405162461bcd60e51b8152602060048201818152835160248401528351909283926044909101919085019080838360008315620004945781810151838201526020016200047a565b50604080518082019091526015815260008051602062003227833981519152602082015288906001600160a01b03821662000fa35760405162461bcd60e51b8152602060048201818152835160248401528351909283926044909101919085019080838360008315620004945781810151838201526020016200047a565b50604080518082019091526015815260008051602062003227833981519152602082015288906001600160a01b038216620010215760405162461bcd60e51b8152602060048201818152835160248401528351909283926044909101919085019080838360008315620004945781810151838201526020016200047a565b50604051620010309062001850565b604051809103906000f0801580156200104d573d6000803e3d6000fd5b506000806101000a8154816001600160a01b0302191690836001600160a01b031602179055508d600160006101000a8154816001600160a01b0302191690836001600160a01b031602179055508c600660006101000a8154816001600160a01b0302191690836001600160a01b031602179055508b600360006101000a8154816001600160a01b0302191690836001600160a01b031602179055508a600560006101000a8154816001600160a01b0302191690836001600160a01b0316021790555089600260006101000a8154816001600160a01b0302191690836001600160a01b0316021790555088600460006101000a8154816001600160a01b0302191690836001600160a01b03160217905550604051806040016040528060018152602001603160f81b815250600790805190602001906200118e929190620017bb565b506006546040517fc6ee1e1e08307ce2d854c77911cf72b51710027139dd730756959e981480edb791620011d1916001600160a01b03909116906007906200227b565b60405180910390a16003546040517fb3eacd0e351fafdfefdec84e1cd19679b38dbcd63ea7c2c24da17fd2bc3b3c0e9162001218916001600160a01b0390911690620020e7565b60405180910390a16002546040517f934730203236e0bdf255807d75b091578e1065be48dfcdae28f41ca47e1f58e1916200125f916001600160a01b0390911690620020e7565b60405180910390a16004546040517fcfb199724e80ef87a82c051c6bcbe15ca80dbd143a1a7ca4f90be72f4fd6bf8791620012a6916001600160a01b0390911690620020e7565b60405180910390a16001546040516001600160a01b039091169060009060008051602062003207833981519152908290a3600197505050505050508015620012f457603a805461ff00191690555b509695505050505050565b6000546001600160a01b031633146200132c5760405162461bcd60e51b8152600401620004fe9062002374565b604051637240f9af60e01b81526001600160a01b03821690637240f9af906200135b9060079060040162002336565b600060405180830381600087803b1580156200137657600080fd5b505af11580156200138b573d6000803e3d6000fd5b5050505050565b604080518082019091526015815260008051602062003227833981519152602082015281906001600160a01b0382166200140f5760405162461bcd60e51b8152602060048201818152835160248401528351909283926044909101919085019080838360008315620004945781810151838201526020016200047a565b506001546001600160a01b031633146200143d5760405162461bcd60e51b8152600401620004fe9062002398565b6001546040516001600160a01b038085169216906000805160206200320783398151915290600090a350600180546001600160a01b0319166001600160a01b0392909216919091179055565b7f000000000000000000000000000000000000000000000000000000000000000081565b6000546001600160a01b031681565b80516000908290600190600019015b82518110156200158e576030838281518110620014e457fe5b016020015160f81c1080159062001510575060398382815181106200150557fe5b016020015160f81c11155b6200155b576040805162461bcd60e51b815260206004820152601660248201527524b73b30b634b21039ba3934b7339034b73a32b3b2b960511b604482015290519081900360640190fd5b8160308483815181106200156b57fe5b016020015160f81c0360ff16029390930192600a919091029060001901620014cb565b505050919050565b600080620015a6868686620007b4565b600654600080546040805192835260208301908190526001600160a01b03938416939091169190620015d8906200185e565b620015e693929190620020fb565b8190604051809103906000f590508015801562001607573d6000803e3d6000fd5b50905062001619600060028362001746565b60405163f729023f60e01b81526001600160a01b0382169063f729023f906200165090889088906007908c908a90600401620022d2565b602060405180830381600087803b1580156200166b57600080fd5b505af115801562001680573d6000803e3d6000fd5b505050506040513d601f19601f82011682018060405250810190620016a6919062001e74565b5095945050505050565b604051630e481ff560e31b81527f0000000000000000000000000000000000000000000000000000000000000000906001600160a01b03821690637240ffa89034906200170a908a908a908a908a908a906004016200218a565b6000604051808303818588803b1580156200172457600080fd5b505af115801562001739573d6000803e3d6000fd5b5050505050505050505050565b6005546040516360335e8d60e11b81526001600160a01b039091169063c066bd1a906200177c90869086908690600401620023d2565b600060405180830381600087803b1580156200179757600080fd5b505af1158015620017ac573d6000803e3d6000fd5b50505050505050565b303b1590565b828054600181600116156101000203166002900490600052602060002090601f016020900481019282620017f357600085556200183e565b82601f106200180e57805160ff19168380011785556200183e565b828001600101855582156200183e579182015b828111156200183e57825182559160200191906001019062001821565b506200184c9291506200186c565b5090565b610497806200246883390190565b6108da80620028ff83390190565b5b808211156200184c57600081556001016200186d565b80356200095e816200243f565b600082601f830112620018a1578081fd5b81356020620018ba620018b48362002415565b620023f1565b8281528181019085830183850287018401881015620018d7578586fd5b855b8581101562001902578135620018ef816200243f565b84529284019290840190600101620018d9565b5090979650505050505050565b600082601f83011262001920578081fd5b602062001932620018b4843562002415565b8335815281810190828501845b863581101562001a7e5781358701601f196060828b038201121562001962578788fd5b604051606081016001600160401b0382821081831117156200198057fe5b8160405289850135915062001995826200243f565b90825260408401358983015260608401359080821115620019b4578a8bfd5b938101936060858e0385011215620019ca578a8bfd5b60405193506060840191508382108183111715620019e457fe5b8160405289850135915080821115620019fb578a8bfd5b62001a0b8d8b8488010162001890565b8452604085013591508082111562001a21578a8bfd5b62001a318d8b8488010162001890565b8a850152606085013591508082111562001a49578a8bfd5b5062001a5a8c8a8387010162001a97565b6040848101919091528201929092528652505092840192908401906001016200193f565b50909695505050505050565b80356200095e8162002458565b600082601f83011262001aa8578081fd5b81356001600160401b0381111562001abc57fe5b62001ad1601f8201601f1916602001620023f1565b81815284602083860101111562001ae6578283fd5b816020850160208301379081016020019190915292915050565b600060e0828403121562001b12578081fd5b60405160e081018181106001600160401b038211171562001b2f57fe5b60405290508062001b408362001bce565b815262001b506020840162001bbb565b602082015262001b636040840162001bbb565b604082015262001b766060840162001bbb565b606082015262001b896080840162001bbb565b608082015262001b9c60a0840162001a8a565b60a082015262001baf60c0840162001a8a565b60c08201525092915050565b803561ffff811681146200095e57600080fd5b803563ffffffff811681146200095e57600080fd5b60006020828403121562001bf5578081fd5b813562001c02816200243f565b9392505050565b60006020828403121562001c1b578081fd5b815162001c02816200243f565b60008060008060008060c0878903121562001c41578182fd5b863562001c4e816200243f565b9550602087013562001c60816200243f565b9450604087013562001c72816200243f565b9350606087013562001c84816200243f565b9250608087013562001c96816200243f565b915060a087013562001ca8816200243f565b809150509295509295509295565b6000806040838503121562001cc9578182fd5b823562001cd6816200243f565b915060208301356001600160401b0381111562001cf1578182fd5b62001cff8582860162001a97565b9150509250929050565b60008060006060848603121562001d1e578081fd5b833562001d2b816200243f565b925060208401356001600160401b038082111562001d47578283fd5b62001d558783880162001a97565b9350604086013591508082111562001d6b578283fd5b5062001d7a8682870162001a97565b9150509250925092565b60008060008060008060006101a0888a03121562001da0578485fd5b62001dab8862001883565b965060208801356001600160401b038082111562001dc7578687fd5b62001dd58b838c0162001a97565b975060408a013591508082111562001deb578687fd5b62001df98b838c0162001a97565b965060608a013591508082111562001e0f578283fd5b62001e1d8b838c016200190f565b955062001e2e8b60808c0162001b00565b945062001e3f6101608b0162001883565b93506101808a013591508082111562001e56578283fd5b5062001e658a828b0162001a97565b91505092959891949750929550565b60006020828403121562001e86578081fd5b815162001c028162002458565b6000806040838503121562001ea6578182fd5b82359150602083013562001eba816200243f565b809150509250929050565b60008060006060848603121562001eda578081fd5b8335925060208401359150604084013562001ef5816200243f565b809150509250925092565b6001600160a01b03169052565b6000815180845260208085019450808401835b8381101562001f475781516001600160a01b03168752958201959082019060010162001f20565b509495945050505050565b6000815180845260208085019450848183028601828601855b85811015620019025783830389528151606060018060a01b0382511685528682015187860152604080830151925081818701528251828388015262001fb460c088018262001f0d565b92505087830151605f198088850301608089015262001fd4848362001f0d565b929094015187830390940160a088015250905062001ff381836200200e565b9a87019a945050509084019060010162001f6b565b15159052565b60008151808452815b81811015620020355760208185018101518683018201520162002017565b81811115620020475782602083870101525b50601f01601f19169290920160200192915050565b600081546001808216600081146200207d57600181146200209c57620020de565b60028304607f16865260ff1983166020870152604086019350620020de565b60028304808752620020ae8662002433565b60005b82811015620020d45781546020828b0101528482019150602081019050620020b1565b8801602001955050505b50505092915050565b6001600160a01b0391909116815260200190565b6001600160a01b0384811682528316602082015260606040820181905260009062002129908301846200200e565b95945050505050565b6001600160a01b0386811682528516602082015260a06040820181905260009062002160908301866200200e565b82810360608401526200217481866200200e565b90508281036080840152620007a8818562001f52565b600061016060018060a01b03808916845280881660208501525063ffffffff8651166040840152602086015161ffff80821660608601528060408901511660808601528060608901511660a08601528060808901511660c0860152505060a0860151620021fb60e085018262002008565b5060c08601516200221161010085018262002008565b506200222261012084018662001f00565b80610140840152620007a8818401856200200e565b6001600160a01b03841681526060602082018190526000906200225d908301856200200e565b82810360408401526200227181856200200e565b9695505050505050565b6001600160a01b0383168152604060208201819052600090620022a1908301846200205c565b949350505050565b901515815260200190565b90815260200190565b60006020825262001c0260208301846200200e565b600060a08252620022e760a08301886200200e565b8281036020840152620022fb81886200200e565b905082810360408401526200231181876200205c565b6001600160a01b038616606085015283810360808501529050620007a8818562001f52565b60006020825262001c0260208301846200205c565b6020808252600f908201526e24b73b30b634b2103b32b939b4b7b760891b604082015260600190565b6020808252600a908201526927b7363c9030b236b4b760b11b604082015260600190565b6020808252600990820152682737ba1037bbb732b960b91b604082015260600190565b9182526001600160a01b0316602082015260400190565b92835260208301919091526001600160a01b0316604082015260600190565b6040518181016001600160401b03811182821017156200240d57fe5b604052919050565b60006001600160401b038211156200242957fe5b5060209081020190565b60009081526020902090565b6001600160a01b03811681146200245557600080fd5b50565b80151581146200245557600080fdfe60a060405234801561001057600080fd5b5033606081901b60805261045d61003a6000398060aa52806101775280610269525061045d6000f3fe608060405234801561001057600080fd5b50600436106100415760003560e01c80630900f01014610046578063204e1c7a1461005b578063f3b7dead14610084575b600080fd5b61005961005436600461039a565b610097565b005b61006e61006936600461039a565b6102d6565b60405161007b91906103d6565b60405180910390f35b61006e61009236600461039a565b61035c565b604051633d58406360e01b8152819033907f00000000000000000000000000000000000000000000000000000000000000006001600160a01b031690633d584063906100e79085906004016103d6565b60206040518083038186803b1580156100ff57600080fd5b505afa158015610113573d6000803e3d6000fd5b505050506040513d601f19601f820116820180604052508101906101379190610377565b6001600160a01b0316146101665760405162461bcd60e51b815260040161015d906103ea565b60405180910390fd5b816001600160a01b0316633659cfe67f00000000000000000000000000000000000000000000000000000000000000006001600160a01b0316635c60da1b6040518163ffffffff1660e01b815260040160206040518083038186803b1580156101ce57600080fd5b505afa1580156101e2573d6000803e3d6000fd5b505050506040513d601f19601f820116820180604052508101906102069190610377565b6040518263ffffffff1660e01b815260040161022291906103d6565b600060405180830381600087803b15801561023c57600080fd5b505af1158015610250573d6000803e3d6000fd5b505060405163f03633f560e01b81526001600160a01b037f000000000000000000000000000000000000000000000000000000000000000016925063f03633f591506102a09085906004016103d6565b600060405180830381600087803b1580156102ba57600080fd5b505af11580156102ce573d6000803e3d6000fd5b505050505050565b6000806000836001600160a01b03166040516102f1906103b6565b600060405180830381855afa9150503d806000811461032c576040519150601f19603f3d011682016040523d82523d6000602084013e610331565b606091505b50915091508161034057600080fd5b808060200190518101906103549190610377565b949350505050565b6000806000836001600160a01b03166040516102f1906103c6565b600060208284031215610388578081fd5b81516103938161040f565b9392505050565b6000602082840312156103ab578081fd5b81356103938161040f565b635c60da1b60e01b815260040190565b6303e1469160e61b815260040190565b6001600160a01b0391909116815260200190565b6020808252600b908201526a2737ba1036b0b730b3b2b960a91b604082015260600190565b6001600160a01b038116811461042457600080fd5b5056fea26469706673582212208649bb77ccbf43e7d14f16abd2cc5b3907bf198b479b2f2414a18e40b0921a6b64736f6c6343000706003360806040526040516108da3803806108da8339818101604052606081101561002657600080fd5b8151602083015160408085018051915193959294830192918464010000000082111561005157600080fd5b90830190602082018581111561006657600080fd5b825164010000000081118282018810171561008057600080fd5b82525081516020918201929091019080838360005b838110156100ad578181015183820152602001610095565b50505050905090810190601f1680156100da5780820380516001836020036101000a031916815260200191505b50604052508491508290506100ee826101bf565b8051156101a6576000826001600160a01b0316826040518082805190602001908083835b602083106101315780518252601f199092019160209182019101610112565b6001836020036101000a038019825116818451168082178552505050505050905001915050600060405180830381855af49150503d8060008114610191576040519150601f19603f3d011682016040523d82523d6000602084013e610196565b606091505b50509050806101a457600080fd5b505b506101ae9050565b6101b782610231565b50505061025b565b6101d28161025560201b6103b21760201c565b61020d5760405162461bcd60e51b81526004018080602001828103825260368152602001806108a46036913960400191505060405180910390fd5b7f360894a13ba1a3210667c828492db98dca3e2076cc3735a920a3ca505d382bbc55565b7fb53127684a568b3173ae13b9f8a6016e243e63b6e8ee1178d6a717850b5d610355565b3b151590565b61063a8061026a6000396000f3fe60806040526004361061004e5760003560e01c80633659cfe6146100655780634f1ef286146100985780635c60da1b146101165780638f28397014610147578063f851a4401461017a5761005d565b3661005d5761005b61018f565b005b61005b61018f565b34801561007157600080fd5b5061005b6004803603602081101561008857600080fd5b50356001600160a01b03166101a9565b61005b600480360360408110156100ae57600080fd5b6001600160a01b038235169190810190604081016020820135600160201b8111156100d857600080fd5b8201836020820111156100ea57600080fd5b803590602001918460018302840111600160201b8311171561010b57600080fd5b5090925090506101e3565b34801561012257600080fd5b5061012b610290565b604080516001600160a01b039092168252519081900360200190f35b34801561015357600080fd5b5061005b6004803603602081101561016a57600080fd5b50356001600160a01b03166102cd565b34801561018657600080fd5b5061012b610387565b6101976103b8565b6101a76101a2610418565b61043d565b565b6101b1610461565b6001600160a01b0316336001600160a01b031614156101d8576101d381610486565b6101e0565b6101e061018f565b50565b6101eb610461565b6001600160a01b0316336001600160a01b031614156102835761020d83610486565b6000836001600160a01b031683836040518083838082843760405192019450600093509091505080830381855af49150503d806000811461026a576040519150601f19603f3d011682016040523d82523d6000602084013e61026f565b606091505b505090508061027d57600080fd5b5061028b565b61028b61018f565b505050565b600061029a610461565b6001600160a01b0316336001600160a01b031614156102c2576102bb610418565b90506102ca565b6102ca61018f565b90565b6102d5610461565b6001600160a01b0316336001600160a01b031614156101d8576001600160a01b0381166103335760405162461bcd60e51b815260040180806020018281038252603a815260200180610553603a913960400191505060405180910390fd5b7f7e644d79422f17c01e4894b5f4f588d331ebfa28653d42ae832dc59e38c9798f61035c610461565b604080516001600160a01b03928316815291841660208301528051918290030190a16101d3816104c6565b6000610391610461565b6001600160a01b0316336001600160a01b031614156102c2576102bb610461565b3b151590565b6103c0610461565b6001600160a01b0316336001600160a01b031614156104105760405162461bcd60e51b81526004018080602001828103825260428152602001806105c36042913960600191505060405180910390fd5b6101a76101a7565b7f360894a13ba1a3210667c828492db98dca3e2076cc3735a920a3ca505d382bbc5490565b3660008037600080366000845af43d6000803e80801561045c573d6000f35b3d6000fd5b7fb53127684a568b3173ae13b9f8a6016e243e63b6e8ee1178d6a717850b5d61035490565b61048f816104ea565b6040516001600160a01b038216907fbc7cd75a20ee27fd9adebab32041f755214dbc6bffa90cc0225b39da2e5c2d3b90600090a250565b7fb53127684a568b3173ae13b9f8a6016e243e63b6e8ee1178d6a717850b5d610355565b6104f3816103b2565b61052e5760405162461bcd60e51b815260040180806020018281038252603681526020018061058d6036913960400191505060405180910390fd5b7f360894a13ba1a3210667c828492db98dca3e2076cc3735a920a3ca505d382bbc5556fe5472616e73706172656e745570677261646561626c6550726f78793a206e65772061646d696e20697320746865207a65726f20616464726573735570677261646561626c6550726f78793a206e657720696d706c656d656e746174696f6e206973206e6f74206120636f6e74726163745472616e73706172656e745570677261646561626c6550726f78793a2061646d696e2063616e6e6f742066616c6c6261636b20746f2070726f787920746172676574a2646970667358221220bc9e83ced1154891d7111a7898501d4459698ef4bf8e5598d4a92b36c267d9a164736f6c634300070600335570677261646561626c6550726f78793a206e657720696d706c656d656e746174696f6e206973206e6f74206120636f6e7472616374496e697469616c697a61626c653a20636f6e747261637420697320616c726561647920696e697469616c697a65648be0079c531659141344cd1fd0a4f28419497f9722a3daafe3b4186f6b6457e05a65726f20616464726573732070726f76696465640000000000000000000000a264697066735822122013862817a5c5fa2717dc430ff7813f40199a27707ed26fa0816932572d9175ea64736f6c63430007060033496e697469616c697a61626c653a20636f6e747261637420697320616c726561647920696e697469616c697a6564",
  "linkReferences": {},
  "deployedLinkReferences": {}
}