{
  "_format": "hh-sol-artifact-1",
  "contractName": "GenericWrapper",
  "sourceName": "contracts/test/GenericWrapper.sol",
  "abi": [
    {
      "inputs": [
        {
          "internalType": "address",
          "name": "controller_",
          "type": "address"
        },
        {
          "internalType": "address",
          "name": "genericRouter_",
          "type": "address"
        }
      ],
      "stateMutability": "nonpayable",
      "type": "constructor"
    },
    {
      "inputs": [],
      "name": "CALL_REVERT_PREFIX",
      "outputs": [
        {
          "internalType": "string",
          "name": "",
          "type": "string"
        }
      ],
      "stateMutability": "view",
      "type": "function"
    },
    {
      "inputs": [],
      "name": "controller",
      "outputs": [
        {
          "internalType": "contract IStrategyController",
          "name": "",
          "type": "address"
        }
      ],
      "stateMutability": "view",
      "type": "function"
    },
    {
      "inputs": [],
      "name": "genericRouter",
      "outputs": [
        {
          "internalType": "contract IStrategyRouter",
          "name": "",
          "type": "address"
        }
      ],
      "stateMutability": "view",
      "type": "function"
    },
    {
      "inputs": [
        {
          "internalType": "contract IStrategy",
          "name": "strategy",
          "type": "address"
        },
        {
          "internalType": "contract IERC20",
          "name": "token",
          "type": "address"
        },
        {
          "internalType": "uint256",
          "name": "amount",
          "type": "uint256"
        }
      ],
      "name": "singleTokenDeposit",
      "outputs": [],
      "stateMutability": "nonpayable",
      "type": "function"
    }
  ],
  "bytecode": "0x60c060405234801561001057600080fd5b506040516109dd3803806109dd83398101604081905261002f9161004d565b6001600160601b0319606092831b8116608052911b1660a05261009e565b6000806040838503121561005f578182fd5b825161006a81610086565b602084015190925061007b81610086565b809150509250929050565b6001600160a01b038116811461009b57600080fd5b50565b60805160601c60a05160601c6109086100d56000398060ca52806101d6528061024152508061021252806103a152506109086000f3fe608060405234801561001057600080fd5b506004361061004c5760003560e01c806319a83f921461005157806339cfe5ff1461006f578063de1b8c0e14610084578063f77c479114610099575b600080fd5b6100596100a1565b60405161006691906107b4565b60405180910390f35b6100776100c8565b60405161006691906106af565b61009761009236600461060f565b6100ec565b005b61007761039f565b6040518060400160405280600b81526020016a026bab63a34b1b0b6361d160ad1b81525081565b7f000000000000000000000000000000000000000000000000000000000000000081565b604080516001808252818301909252606091816020015b61010b6105d7565b8152602001906001900390816101035790505090506040518060400160405280846001600160a01b0316815260200163a9059cbb60e01b86856040516024016101559291906106c3565b60408051601f198184030181529190526020810180516001600160e01b03166001600160e01b03199093169290921790915290528151829060009061019657fe5b60200260200101819052506060816040516020016101b49190610700565b60408051601f1981840301815291905290506101fb6001600160a01b038516337f0000000000000000000000000000000000000000000000000000000000000000866103c3565b6040516371b8dc6960e01b81526001600160a01b037f000000000000000000000000000000000000000000000000000000000000000016906371b8dc69906102709088907f0000000000000000000000000000000000000000000000000000000000000000906000908190889060040161077a565b600060405180830381600087803b15801561028a57600080fd5b505af115801561029e573d6000803e3d6000fd5b50506040516370a0823160e01b81526001600160a01b038816925063a9059cbb9150339083906370a08231906102d89030906004016106af565b60206040518083038186803b1580156102f057600080fd5b505afa158015610304573d6000803e3d6000fd5b505050506040513d601f19601f82011682018060405250810190610328919061064f565b6040518363ffffffff1660e01b81526004016103459291906106c3565b602060405180830381600087803b15801561035f57600080fd5b505af1158015610373573d6000803e3d6000fd5b505050506040513d601f19601f8201168201806040525081019061039791906105ef565b505050505050565b7f000000000000000000000000000000000000000000000000000000000000000081565b61041b846323b872dd60e01b8585856040516024016103e4939291906106dc565b60408051601f198184030181529190526020810180516001600160e01b03166001600160e01b031990931692909217909152610421565b50505050565b6060610476826040518060400160405280602081526020017f5361666545524332303a206c6f772d6c6576656c2063616c6c206661696c6564815250856001600160a01b03166104be9092919063ffffffff16565b8051909150156104b9578080602001905181019061049491906105ef565b6104b95760405162461bcd60e51b81526004016104b090610844565b60405180910390fd5b505050565b60606104cd84846000856104d7565b90505b9392505050565b6060824710156104f95760405162461bcd60e51b81526004016104b0906107c7565b61050285610598565b61051e5760405162461bcd60e51b81526004016104b09061080d565b60006060866001600160a01b0316858760405161053b9190610693565b60006040518083038185875af1925050503d8060008114610578576040519150601f19603f3d011682016040523d82523d6000602084013e61057d565b606091505b509150915061058d82828661059e565b979650505050505050565b3b151590565b606083156105ad5750816104d0565b8251156105bd5782518084602001fd5b8160405162461bcd60e51b81526004016104b091906107b4565b60408051808201909152600081526060602082015290565b600060208284031215610600578081fd5b815180151581146104d0578182fd5b600080600060608486031215610623578182fd5b833561062e816108ba565b9250602084013561063e816108ba565b929592945050506040919091013590565b600060208284031215610660578081fd5b5051919050565b6000815180845261067f81602086016020860161088e565b601f01601f19169290920160200192915050565b600082516106a581846020870161088e565b9190910192915050565b6001600160a01b0391909116815260200190565b6001600160a01b03929092168252602082015260400190565b6001600160a01b039384168152919092166020820152604081019190915260600190565b60208082528251828201819052600091906040908185019080840286018301878501865b8381101561076c57888303603f19018552815180516001600160a01b0316845287015187840187905261075987850182610667565b9588019593505090860190600101610724565b509098975050505050505050565b6001600160a01b03868116825285166020820152604081018490526060810183905260a06080820181905260009061058d90830184610667565b6000602082526104d06020830184610667565b60208082526026908201527f416464726573733a20696e73756666696369656e742062616c616e636520666f6040820152651c8818d85b1b60d21b606082015260800190565b6020808252601d908201527f416464726573733a2063616c6c20746f206e6f6e2d636f6e7472616374000000604082015260600190565b6020808252602a908201527f5361666545524332303a204552433230206f7065726174696f6e20646964206e6040820152691bdd081cdd58d8d9595960b21b606082015260800190565b60005b838110156108a9578181015183820152602001610891565b8381111561041b5750506000910152565b6001600160a01b03811681146108cf57600080fd5b5056fea2646970667358221220889a146020470a801de49e91996614e249a85628800639a7fd946f0e479e30f764736f6c634300060c0033",
  "linkReferences": {},
  "deployedLinkReferences": {}
}