{
  "_format": "hh-sol-artifact-1",
  "contractName": "UniswapV3Registry",
  "sourceName": "contracts/oracles/registries/UniswapV3Registry.sol",
  "abi": [
    {
      "inputs": [
        {
          "internalType": "address",
          "name": "factory_",
          "type": "address"
        },
        {
          "internalType": "address",
          "name": "weth_",
          "type": "address"
        }
      ],
      "stateMutability": "nonpayable",
      "type": "constructor"
    },
    {
      "anonymous": false,
      "inputs": [
        {
          "indexed": true,
          "internalType": "address",
          "name": "token",
          "type": "address"
        },
        {
          "indexed": true,
          "internalType": "address",
          "name": "pair",
          "type": "address"
        },
        {
          "indexed": true,
          "internalType": "uint24",
          "name": "fee",
          "type": "uint24"
        }
      ],
      "name": "FeeAdded",
      "type": "event"
    },
    {
      "anonymous": false,
      "inputs": [
        {
          "indexed": true,
          "internalType": "address",
          "name": "token",
          "type": "address"
        },
        {
          "indexed": true,
          "internalType": "address",
          "name": "pair",
          "type": "address"
        }
      ],
      "name": "FeeRemoved",
      "type": "event"
    },
    {
      "anonymous": false,
      "inputs": [
        {
          "indexed": true,
          "internalType": "address",
          "name": "previousOwner",
          "type": "address"
        },
        {
          "indexed": true,
          "internalType": "address",
          "name": "newOwner",
          "type": "address"
        }
      ],
      "name": "OwnershipTransferred",
      "type": "event"
    },
    {
      "anonymous": false,
      "inputs": [
        {
          "indexed": true,
          "internalType": "address",
          "name": "token",
          "type": "address"
        },
        {
          "indexed": true,
          "internalType": "address",
          "name": "pair",
          "type": "address"
        },
        {
          "indexed": true,
          "internalType": "uint24",
          "name": "fee",
          "type": "uint24"
        },
        {
          "indexed": false,
          "internalType": "uint32",
          "name": "timeWindow",
          "type": "uint32"
        }
      ],
      "name": "PoolAdded",
      "type": "event"
    },
    {
      "anonymous": false,
      "inputs": [
        {
          "indexed": true,
          "internalType": "address",
          "name": "token",
          "type": "address"
        }
      ],
      "name": "PoolRemoved",
      "type": "event"
    },
    {
      "anonymous": false,
      "inputs": [
        {
          "indexed": true,
          "internalType": "address",
          "name": "token",
          "type": "address"
        },
        {
          "indexed": true,
          "internalType": "uint32",
          "name": "timeWindow",
          "type": "uint32"
        }
      ],
      "name": "TimeWindowUpdated",
      "type": "event"
    },
    {
      "inputs": [
        {
          "internalType": "address",
          "name": "token",
          "type": "address"
        },
        {
          "internalType": "address",
          "name": "pair",
          "type": "address"
        },
        {
          "internalType": "uint24",
          "name": "fee",
          "type": "uint24"
        }
      ],
      "name": "addFee",
      "outputs": [],
      "stateMutability": "nonpayable",
      "type": "function"
    },
    {
      "inputs": [
        {
          "internalType": "address",
          "name": "token",
          "type": "address"
        },
        {
          "internalType": "address",
          "name": "pair",
          "type": "address"
        },
        {
          "internalType": "uint24",
          "name": "fee",
          "type": "uint24"
        },
        {
          "internalType": "uint32",
          "name": "timeWindow",
          "type": "uint32"
        }
      ],
      "name": "addPool",
      "outputs": [],
      "stateMutability": "nonpayable",
      "type": "function"
    },
    {
      "inputs": [
        {
          "internalType": "address[]",
          "name": "tokens",
          "type": "address[]"
        },
        {
          "internalType": "address[]",
          "name": "pairs",
          "type": "address[]"
        },
        {
          "internalType": "uint24[]",
          "name": "fees",
          "type": "uint24[]"
        }
      ],
      "name": "batchAddFees",
      "outputs": [],
      "stateMutability": "nonpayable",
      "type": "function"
    },
    {
      "inputs": [
        {
          "internalType": "address[]",
          "name": "tokens",
          "type": "address[]"
        },
        {
          "internalType": "address[]",
          "name": "pairs",
          "type": "address[]"
        },
        {
          "internalType": "uint24[]",
          "name": "fees",
          "type": "uint24[]"
        },
        {
          "internalType": "uint32[]",
          "name": "timeWindows",
          "type": "uint32[]"
        }
      ],
      "name": "batchAddPools",
      "outputs": [],
      "stateMutability": "nonpayable",
      "type": "function"
    },
    {
      "inputs": [],
      "name": "factory",
      "outputs": [
        {
          "internalType": "contract IUniswapV3Factory",
          "name": "",
          "type": "address"
        }
      ],
      "stateMutability": "view",
      "type": "function"
    },
    {
      "inputs": [
        {
          "internalType": "address",
          "name": "token",
          "type": "address"
        },
        {
          "internalType": "address",
          "name": "pair",
          "type": "address"
        }
      ],
      "name": "getFee",
      "outputs": [
        {
          "internalType": "uint24",
          "name": "",
          "type": "uint24"
        }
      ],
      "stateMutability": "view",
      "type": "function"
    },
    {
      "inputs": [
        {
          "internalType": "address",
          "name": "token",
          "type": "address"
        }
      ],
      "name": "getPoolData",
      "outputs": [
        {
          "components": [
            {
              "internalType": "address",
              "name": "pool",
              "type": "address"
            },
            {
              "internalType": "address",
              "name": "pair",
              "type": "address"
            },
            {
              "internalType": "uint32",
              "name": "timeWindow",
              "type": "uint32"
            }
          ],
          "internalType": "struct IUniswapV3Registry.PoolData",
          "name": "",
          "type": "tuple"
        }
      ],
      "stateMutability": "view",
      "type": "function"
    },
    {
      "inputs": [
        {
          "internalType": "address",
          "name": "token",
          "type": "address"
        },
        {
          "internalType": "address",
          "name": "pair",
          "type": "address"
        }
      ],
      "name": "getTimeWindow",
      "outputs": [
        {
          "internalType": "uint32",
          "name": "",
          "type": "uint32"
        }
      ],
      "stateMutability": "view",
      "type": "function"
    },
    {
      "inputs": [],
      "name": "owner",
      "outputs": [
        {
          "internalType": "address",
          "name": "",
          "type": "address"
        }
      ],
      "stateMutability": "view",
      "type": "function"
    },
    {
      "inputs": [
        {
          "internalType": "address",
          "name": "token",
          "type": "address"
        },
        {
          "internalType": "address",
          "name": "pair",
          "type": "address"
        }
      ],
      "name": "removeFee",
      "outputs": [],
      "stateMutability": "nonpayable",
      "type": "function"
    },
    {
      "inputs": [
        {
          "internalType": "address",
          "name": "token",
          "type": "address"
        }
      ],
      "name": "removePool",
      "outputs": [],
      "stateMutability": "nonpayable",
      "type": "function"
    },
    {
      "inputs": [],
      "name": "renounceOwnership",
      "outputs": [],
      "stateMutability": "nonpayable",
      "type": "function"
    },
    {
      "inputs": [
        {
          "internalType": "address",
          "name": "newOwner",
          "type": "address"
        }
      ],
      "name": "transferOwnership",
      "outputs": [],
      "stateMutability": "nonpayable",
      "type": "function"
    },
    {
      "inputs": [
        {
          "internalType": "address",
          "name": "token",
          "type": "address"
        },
        {
          "internalType": "uint32",
          "name": "timeWindow",
          "type": "uint32"
        }
      ],
      "name": "updateTimeWindow",
      "outputs": [],
      "stateMutability": "nonpayable",
      "type": "function"
    },
    {
      "inputs": [],
      "name": "weth",
      "outputs": [
        {
          "internalType": "address",
          "name": "",
          "type": "address"
        }
      ],
      "stateMutability": "view",
      "type": "function"
    }
  ],
  "bytecode": "0x60c06040523480156200001157600080fd5b5060405162001fd338038062001fd38339810160408190526200003491620000ad565b600062000040620000a9565b600080546001600160a01b0319166001600160a01b0383169081178255604051929350917f8be0079c531659141344cd1fd0a4f28419497f9722a3daafe3b4186f6b6457e0908290a3506001600160601b0319606092831b8116608052911b1660a05262000104565b3390565b60008060408385031215620000c0578182fd5b8251620000cd81620000eb565b6020840151909250620000e081620000eb565b809150509250929050565b6001600160a01b03811681146200010157600080fd5b50565b60805160601c60a05160601c611e9162000142600039806108ff52508061045452806109f65280610b255280610d8152806111835250611e916000f3fe608060405234801561001057600080fd5b50600436106100f55760003560e01c80633fc8cef311610097578063c45a015511610066578063c45a0155146101dc578063d33194d8146101e4578063f2fde38b146101f7578063fee998981461020a576100f5565b80633fc8cef3146101a457806364551a0e146101b9578063715018a6146101cc5780638da5cb5b146101d4576100f5565b80631795a4ed116100d35780631795a4ed146101585780632727470a1461016b57806336a855a71461017e5780633b7d094614610191576100f5565b80630270abd4146100fa578063054c82b91461010f57806313d21cdf14610138575b600080fd5b61010d6101083660046117a5565b61022a565b005b61012261011d366004611723565b61027a565b60405161012f9190611dae565b60405180910390f35b61014b6101463660046116eb565b610373565b60405161012f9190611d5a565b61010d610166366004611723565b6104c5565b61010d6101793660046118bf565b610652565b61010d61018c36600461183b565b61075c565b61010d61019f3660046116eb565b610831565b6101ac6108fd565b60405161012f9190611b37565b61010d6101c736600461175b565b610921565b61010d610966565b6101ac6109e5565b6101ac6109f4565b61010d6101f2366004611806565b610a18565b61010d6102053660046116eb565b610bb6565b61021d610218366004611723565b610c6c565b60405161012f9190611d9e565b610232610d63565b6000546001600160a01b039081169116146102685760405162461bcd60e51b815260040161025f90611cc6565b60405180910390fd5b61027484848484610d67565b50505050565b60006102846115a2565b600260006102928686610fa2565b81526020808201929092526040908101600020815160808101835281546001600160a01b0381168252600160a01b810462ffffff1694820194909452600160b81b840463ffffffff169281019290925290916060830190600160d81b900460ff1660028111156102fe57fe5b600281111561030957fe5b905250905060008160600151600281111561032057fe5b1415610366576103666040518060400160405280601f81526020017f506169722074696d652077696e646f77206e6f742072656769737465726564008152508585611001565b6040015190505b92915050565b61037b6115c7565b6001600160a01b038216600090815260016020526040902054806103cb576103cb6040518060400160405280600e81526020016d141bdbdb081b9bdd08199bdd5b9960921b815250846000611001565b6103d36115a2565b600082815260026020818152604092839020835160808101855281546001600160a01b0381168252600160a01b810462ffffff1693820193909352600160b81b830463ffffffff1694810194909452916060840191600160d81b900460ff169081111561043c57fe5b600281111561044757fe5b815250509050600061048b7f00000000000000000000000000000000000000000000000000000000000000006104868785600001518660200151611062565b6110b8565b604080516060810182526001600160a01b039283168152845190921660208301529283015163ffffffff1692810192909252509392505050565b6104cd610d63565b6000546001600160a01b039081169116146104fa5760405162461bcd60e51b815260040161025f90611cc6565b60006105068383610fa2565b90506105106115a2565b600082815260026020818152604092839020835160808101855281546001600160a01b0381168252600160a01b810462ffffff1693820193909352600160b81b830463ffffffff1694810194909452916060840191600160d81b900460ff169081111561057957fe5b600281111561058457fe5b905250602081015190915062ffffff166105cb576105cb6040518060400160405280601081526020016f4e6f2066656520746f2072656d6f766560801b8152508585611001565b6001816060015160028111156105dd57fe5b146105fa5760405162461bcd60e51b815260040161025f90611cfb565b60008281526002602052604080822080546001600160e01b0319169055516001600160a01b0385811692908716917fc0cb730967b4fb0bedec4c2ffbf55d15537a8bc843ec30f34b4f865d8a378d5b9190a350505050565b61065a610d63565b6000546001600160a01b039081169116146106875760405162461bcd60e51b815260040161025f90611cc6565b8351835181146106a95760405162461bcd60e51b815260040161025f90611c9e565b808351146106c95760405162461bcd60e51b815260040161025f90611c9e565b808251146106e95760405162461bcd60e51b815260040161025f90611c9e565b60005b818110156107545761074c86828151811061070357fe5b602002602001015186838151811061071757fe5b602002602001015186848151811061072b57fe5b602002602001015186858151811061073f57fe5b6020026020010151610d67565b6001016106ec565b505050505050565b610764610d63565b6000546001600160a01b039081169116146107915760405162461bcd60e51b815260040161025f90611cc6565b8251825181146107b35760405162461bcd60e51b815260040161025f90611c9e565b808251146107d35760405162461bcd60e51b815260040161025f90611c9e565b60005b8181101561082a576108228582815181106107ed57fe5b602002602001015185838151811061080157fe5b602002602001015185848151811061081557fe5b6020026020010151611169565b6001016107d6565b5050505050565b610839610d63565b6000546001600160a01b039081169116146108665760405162461bcd60e51b815260040161025f90611cc6565b6001600160a01b0381166000908152600160205260409020548061089c5760405162461bcd60e51b815260040161025f90611d32565b600081815260026020908152604080832080546001600160e01b03191690556001600160a01b03851680845260019092528083208390555190917f4106dfdaa577573db51c0ca93f766dbedfa0758faa2e7f5bcdb7c142be803c3f91a25050565b7f000000000000000000000000000000000000000000000000000000000000000081565b610929610d63565b6000546001600160a01b039081169116146109565760405162461bcd60e51b815260040161025f90611cc6565b610961838383611169565b505050565b61096e610d63565b6000546001600160a01b0390811691161461099b5760405162461bcd60e51b815260040161025f90611cc6565b600080546040516001600160a01b03909116907f8be0079c531659141344cd1fd0a4f28419497f9722a3daafe3b4186f6b6457e0908390a3600080546001600160a01b0319169055565b6000546001600160a01b031690565b7f000000000000000000000000000000000000000000000000000000000000000081565b610a20610d63565b6000546001600160a01b03908116911614610a4d5760405162461bcd60e51b815260040161025f90611cc6565b63ffffffff8116610a705760405162461bcd60e51b815260040161025f90611c67565b6001600160a01b03821660009081526001602052604090205480610ac057610ac06040518060400160405280600e81526020016d141bdbdb081b9bdd08199bdd5b9960921b815250846000611001565b6000818152600260205260409020805463ffffffff848116600160b81b909204161415610aff5760405162461bcd60e51b815260040161025f90611c67565b805463ffffffff60b81b1916600160b81b63ffffffff85160217808255600090610b67907f0000000000000000000000000000000000000000000000000000000000000000906104869088906001600160a01b03811690600160a01b900462ffffff16611062565b9050610b738185611337565b60405163ffffffff8516906001600160a01b038716907f86fc76f06eb2c7670dc7d3ad110dce8ec52d8a49ec1f1df903e6c10ac76ce65190600090a35050505050565b610bbe610d63565b6000546001600160a01b03908116911614610beb5760405162461bcd60e51b815260040161025f90611cc6565b6001600160a01b038116610c115760405162461bcd60e51b815260040161025f90611c21565b600080546040516001600160a01b03808516939216917f8be0079c531659141344cd1fd0a4f28419497f9722a3daafe3b4186f6b6457e091a3600080546001600160a01b0319166001600160a01b0392909216919091179055565b6000610c766115a2565b60026000610c848686610fa2565b81526020808201929092526040908101600020815160808101835281546001600160a01b0381168252600160a01b810462ffffff1694820194909452600160b81b840463ffffffff169281019290925290916060830190600160d81b900460ff166002811115610cf057fe5b6002811115610cfb57fe5b9052509050600081606001516002811115610d1257fe5b1415610d5857610d586040518060400160405280601781526020017f5061697220666565206e6f7420726567697374657265640000000000000000008152508585611001565b602001519392505050565b3390565b604051630b4c774160e11b81526000906001600160a01b037f00000000000000000000000000000000000000000000000000000000000000001690631698ee8290610dba90889088908890600401611b4b565b60206040518083038186803b158015610dd257600080fd5b505afa158015610de6573d6000803e3d6000fd5b505050506040513d601f19601f82011682018060405250810190610e0a9190611707565b90506001600160a01b038116610e4b57610e4b6040518060400160405280600e81526020016d139bdd081d985b1a59081c1bdbdb60921b8152508686611001565b6000610e578686610fa2565b6001600160a01b038088166000908152600160209081526040918290208490558151608081018352928916835262ffffff88169083015263ffffffff86169082015290915060608101600290526000828152600260208181526040928390208451815492860151948601516001600160a01b03199093166001600160a01b039091161762ffffff60a01b1916600160a01b62ffffff909516949094029390931763ffffffff60b81b1916600160b81b63ffffffff9092169190910217808355606084015191839160ff60d81b191690600160d81b908490811115610f3757fe5b0217905550905050610f498284611337565b8362ffffff16856001600160a01b0316876001600160a01b03167f6e53e8066b48a3a6003bbd0b1e31c249283d39691ed99767cc6cd358fc42a43086604051610f929190611dae565b60405180910390a4505050505050565b6000816001600160a01b0316836001600160a01b03161015610fee578282604051602001610fd1929190611a66565b60405160208183030381529060405280519060200120905061036d565b8183604051602001610fd1929190611a66565b82611016836001600160a01b0316601461144a565b61102a836001600160a01b0316601461144a565b60405160200161103c93929190611a8d565b60408051601f198184030181529082905262461bcd60e51b825261025f91600401611b73565b61106a6115c7565b826001600160a01b0316846001600160a01b03161115611088579192915b50604080516060810182526001600160a01b03948516815292909316602083015262ffffff169181019190915290565b600081602001516001600160a01b031682600001516001600160a01b0316106110e057600080fd5b8282600001518360200151846040015160405160200161110293929190611b4b565b60408051601f1981840301815290829052805160209182012061114a939290917fe34f199b19b2b4f47f68442619d555527d244f78a3297ea89325f843f87b8b549101611ae7565b60408051601f1981840301815291905280516020909101209392505050565b604051630b4c774160e11b81526000906001600160a01b037f00000000000000000000000000000000000000000000000000000000000000001690631698ee82906111bc90879087908790600401611b4b565b60206040518083038186803b1580156111d457600080fd5b505afa1580156111e8573d6000803e3d6000fd5b505050506040513d601f19601f8201168201806040525081019061120c9190611707565b90506001600160a01b03811661124d5761124d6040518060400160405280600e81526020016d139bdd081d985b1a59081c1bdbdb60921b8152508585611001565b60006112598585610fa2565b60008181526002602081905260409091209192508154600160d81b900460ff16600281111561128457fe5b14156112ca576112ca6040518060400160405280601781526020017f506f6f6c20616c726561647920726567697374657265640000000000000000008152508787611001565b805462ffffff60a01b1916600160a01b62ffffff86169081029190911760ff60d81b1916600160d81b1782556040516001600160a01b0387811691908916907f5e46808d87edb729f177e30fce7db132b78eeae3c3a880d487c705c21753518190600090a4505050505050565b6000600c61134a63ffffffff841661157a565b61ffff168161135557fe5b0460020190506000836001600160a01b0316633850c7bd6040518163ffffffff1660e01b815260040160e06040518083038186803b15801561139657600080fd5b505afa1580156113aa573d6000803e3d6000fd5b505050506040513d601f19601f820116820180604052508101906113ce91906119c3565b50509450505050508161ffff168161ffff161015610274576040516332148f6760e01b81526001600160a01b038516906332148f6790611412908590600401611d8f565b600060405180830381600087803b15801561142c57600080fd5b505af1158015611440573d6000803e3d6000fd5b5050505050505050565b6060808260020260020167ffffffffffffffff8111801561146a57600080fd5b506040519080825280601f01601f191660200182016040528015611495576020820181803683370190505b509050600360fc1b816000815181106114aa57fe5b60200101906001600160f81b031916908160001a905350600f60fb1b816001815181106114d357fe5b60200101906001600160f81b031916908160001a905350600160028402015b6001811115611554576f181899199a1a9b1b9c1cb0b131b232b360811b85600f166010811061151d57fe5b1a60f81b82828151811061152d57fe5b60200101906001600160f81b031916908160001a90535060049490941c93600019016114f2565b5083156115735760405162461bcd60e51b815260040161025f90611ba6565b9392505050565b600062010000821061159e5760405162461bcd60e51b815260040161025f90611bdb565b5090565b6040805160808101825260008082526020820181905291810182905290606082015290565b604080516060810182526000808252602082018190529181019190915290565b600082601f8301126115f7578081fd5b813561160a61160582611de6565b611dbf565b81815291506020808301908481018184028601820187101561162b57600080fd5b60005b8481101561165357813561164181611e32565b8452928201929082019060010161162e565b505050505092915050565b600082601f83011261166e578081fd5b813561167c61160582611de6565b81815291506020808301908481018184028601820187101561169d57600080fd5b60005b848110156116535781356116b381611e4a565b845292820192908201906001016116a0565b805161ffff8116811461036d57600080fd5b803563ffffffff8116811461036d57600080fd5b6000602082840312156116fc578081fd5b813561157381611e32565b600060208284031215611718578081fd5b815161157381611e32565b60008060408385031215611735578081fd5b823561174081611e32565b9150602083013561175081611e32565b809150509250929050565b60008060006060848603121561176f578081fd5b833561177a81611e32565b9250602084013561178a81611e32565b9150604084013561179a81611e4a565b809150509250925092565b600080600080608085870312156117ba578081fd5b84356117c581611e32565b935060208501356117d581611e32565b9250604085013562ffffff811681146117ec578182fd5b91506117fb86606087016116d7565b905092959194509250565b60008060408385031215611818578182fd5b823561182381611e32565b915061183284602085016116d7565b90509250929050565b60008060006060848603121561184f578283fd5b833567ffffffffffffffff80821115611866578485fd5b611872878388016115e7565b94506020860135915080821115611887578384fd5b611893878388016115e7565b935060408601359150808211156118a8578283fd5b506118b58682870161165e565b9150509250925092565b600080600080608085870312156118d4578384fd5b843567ffffffffffffffff808211156118eb578586fd5b6118f7888389016115e7565b955060209150818701358181111561190d578586fd5b61191989828a016115e7565b95505060408701358181111561192d578485fd5b61193989828a0161165e565b94505060608701358181111561194d578384fd5b87019050601f8101881361195f578283fd5b803561196d61160582611de6565b81815283810190838501858402850186018c1015611989578687fd5b8694505b838510156119b35761199f8c826116d7565b83526001949094019391850191850161198d565b50979a9699509497505050505050565b600080600080600080600060e0888a0312156119dd578283fd5b87516119e881611e32565b8097505060208801518060020b81146119ff578384fd5b9550611a0e8960408a016116c5565b9450611a1d8960608a016116c5565b9350611a2c8960808a016116c5565b925060a088015160ff81168114611a41578283fd5b60c08901519092508015158114611a56578182fd5b8091505092959891949750929550565b6bffffffffffffffffffffffff19606093841b811682529190921b16601482015260280190565b60008451611a9f818460208901611e06565b8083019050600160fd1b8082528551611abf816001850160208a01611e06565b60019201918201528351611ada816002840160208801611e06565b0160020195945050505050565b7fff00000000000000000000000000000000000000000000000000000000000000815260609390931b6bffffffffffffffffffffffff191660018401526015830191909152603582015260550190565b6001600160a01b0391909116815260200190565b6001600160a01b03938416815291909216602082015262ffffff909116604082015260600190565b6000602082528251806020840152611b92816040850160208701611e06565b601f01601f19169190910160400192915050565b6020808252818101527f537472696e67733a20686578206c656e67746820696e73756666696369656e74604082015260600190565b60208082526026908201527f53616665436173743a2076616c756520646f65736e27742066697420696e203160408201526536206269747360d01b606082015260800190565b60208082526026908201527f4f776e61626c653a206e6577206f776e657220697320746865207a65726f206160408201526564647265737360d01b606082015260800190565b60208082526011908201527f57726f6e672074696d652077696e646f77000000000000000000000000000000604082015260600190565b6020808252600e908201526d082e4e4c2f240dad2e6dac2e8c6d60931b604082015260600190565b6020808252818101527f4f776e61626c653a2063616c6c6572206973206e6f7420746865206f776e6572604082015260600190565b60208082526016908201527f43616e6e6f742072656d6f766520706f6f6c2066656500000000000000000000604082015260600190565b6020808252600e908201526d141bdbdb081b9bdd08199bdd5b9960921b604082015260600190565b81516001600160a01b0390811682526020808401519091169082015260409182015163ffffffff169181019190915260600190565b61ffff91909116815260200190565b62ffffff91909116815260200190565b63ffffffff91909116815260200190565b60405181810167ffffffffffffffff81118282101715611dde57600080fd5b604052919050565b600067ffffffffffffffff821115611dfc578081fd5b5060209081020190565b60005b83811015611e21578181015183820152602001611e09565b838111156102745750506000910152565b6001600160a01b0381168114611e4757600080fd5b50565b62ffffff81168114611e4757600080fdfea2646970667358221220ed769e6019e8a609b7135988a4c00ec60765c0ddc3a19c163b60cce73c0334d864736f6c634300060c0033",
  "linkReferences": {},
  "deployedLinkReferences": {}
}