{
  "_format": "hh-sol-artifact-1",
  "contractName": "UniswapV3Registry",
  "sourceName": "contracts/oracles/registries/UniswapV3Registry.sol",
  "abi": [
    {
      "inputs": [
        {
          "internalType": "uint32",
          "name": "timeWindow_",
          "type": "uint32"
        },
        {
          "internalType": "address",
          "name": "factory_",
          "type": "address"
        },
        {
          "internalType": "address",
          "name": "weth_",
          "type": "address"
        }
      ],
      "stateMutability": "nonpayable",
      "type": "constructor"
    },
    {
      "anonymous": false,
      "inputs": [
        {
          "indexed": true,
          "internalType": "address",
          "name": "previousOwner",
          "type": "address"
        },
        {
          "indexed": true,
          "internalType": "address",
          "name": "newOwner",
          "type": "address"
        }
      ],
      "name": "OwnershipTransferred",
      "type": "event"
    },
    {
      "inputs": [
        {
          "internalType": "address",
          "name": "token",
          "type": "address"
        },
        {
          "internalType": "address",
          "name": "pair",
          "type": "address"
        },
        {
          "internalType": "uint24",
          "name": "fee",
          "type": "uint24"
        }
      ],
      "name": "addPool",
      "outputs": [],
      "stateMutability": "nonpayable",
      "type": "function"
    },
    {
      "inputs": [
        {
          "internalType": "address[]",
          "name": "tokens",
          "type": "address[]"
        },
        {
          "internalType": "address[]",
          "name": "pairs",
          "type": "address[]"
        },
        {
          "internalType": "uint24[]",
          "name": "fees",
          "type": "uint24[]"
        }
      ],
      "name": "batchAddPools",
      "outputs": [],
      "stateMutability": "nonpayable",
      "type": "function"
    },
    {
      "inputs": [],
      "name": "factory",
      "outputs": [
        {
          "internalType": "contract IUniswapV3Factory",
          "name": "",
          "type": "address"
        }
      ],
      "stateMutability": "view",
      "type": "function"
    },
    {
      "inputs": [
        {
          "internalType": "address",
          "name": "token",
          "type": "address"
        },
        {
          "internalType": "address",
          "name": "pair",
          "type": "address"
        }
      ],
      "name": "getFee",
      "outputs": [
        {
          "internalType": "uint24",
          "name": "",
          "type": "uint24"
        }
      ],
      "stateMutability": "view",
      "type": "function"
    },
    {
      "inputs": [
        {
          "internalType": "address",
          "name": "token",
          "type": "address"
        }
      ],
      "name": "getPoolData",
      "outputs": [
        {
          "components": [
            {
              "internalType": "address",
              "name": "pool",
              "type": "address"
            },
            {
              "internalType": "address",
              "name": "pair",
              "type": "address"
            }
          ],
          "internalType": "struct IUniswapV3Registry.PoolData",
          "name": "",
          "type": "tuple"
        }
      ],
      "stateMutability": "view",
      "type": "function"
    },
    {
      "inputs": [],
      "name": "owner",
      "outputs": [
        {
          "internalType": "address",
          "name": "",
          "type": "address"
        }
      ],
      "stateMutability": "view",
      "type": "function"
    },
    {
      "inputs": [
        {
          "internalType": "address",
          "name": "token",
          "type": "address"
        }
      ],
      "name": "removePool",
      "outputs": [],
      "stateMutability": "nonpayable",
      "type": "function"
    },
    {
      "inputs": [],
      "name": "renounceOwnership",
      "outputs": [],
      "stateMutability": "nonpayable",
      "type": "function"
    },
    {
      "inputs": [],
      "name": "timeWindow",
      "outputs": [
        {
          "internalType": "uint32",
          "name": "",
          "type": "uint32"
        }
      ],
      "stateMutability": "view",
      "type": "function"
    },
    {
      "inputs": [
        {
          "internalType": "address",
          "name": "newOwner",
          "type": "address"
        }
      ],
      "name": "transferOwnership",
      "outputs": [],
      "stateMutability": "nonpayable",
      "type": "function"
    },
    {
      "inputs": [
        {
          "internalType": "uint32",
          "name": "newTimeWindow",
          "type": "uint32"
        }
      ],
      "name": "updateTimeWindow",
      "outputs": [],
      "stateMutability": "nonpayable",
      "type": "function"
    },
    {
      "inputs": [],
      "name": "weth",
      "outputs": [
        {
          "internalType": "address",
          "name": "",
          "type": "address"
        }
      ],
      "stateMutability": "view",
      "type": "function"
    }
  ],
  "bytecode": "0x60c060405234801561001057600080fd5b506040516111a33803806111a383398101604081905261002f916100e6565b60006100396100c5565b600080546001600160a01b0319166001600160a01b0383169081178255604051929350917f8be0079c531659141344cd1fd0a4f28419497f9722a3daafe3b4186f6b6457e0908290a3506001600160601b0319606092831b8116608052911b1660a0526000805463ffffffff909216600160a01b0263ffffffff60a01b19909216919091179055610134565b3390565b80516001600160a01b03811681146100e057600080fd5b92915050565b6000806000606084860312156100fa578283fd5b835163ffffffff8116811461010d578384fd5b925061011c85602086016100c9565b915061012b85604086016100c9565b90509250925092565b60805160601c60a05160601c61103c610167600039806103e452508061022852806105b05280610869525061103c6000f3fe608060405234801561001057600080fd5b50600436106100a45760003560e01c806313d21cdf146100a95780632c5b5cb5146100d25780633b7d0946146100e75780633fc8cef3146100fa578063715018a61461010f5780637db5be69146101175780638da5cb5b1461012a578063a4a84e9914610132578063c45a015514610145578063d2f343c71461014d578063f2fde38b14610162578063fee9989814610175575b600080fd5b6100bc6100b7366004610b2b565b610195565b6040516100c99190610f54565b60405180910390f35b6100e56100e0366004610d72565b610290565b005b6100e56100f5366004610b2b565b610340565b6101026103e2565b6040516100c99190610deb565b6100e5610406565b6100e5610125366004610bec565b610485565b61010261055a565b6100e5610140366004610ba2565b610569565b6101026105ae565b6101556105d2565b6040516100c99190610f87565b6100e5610170366004610b2b565b6105e5565b610188610183366004610b6a565b61069b565b6040516100c99190610f77565b61019d610a6b565b6001600160a01b038216600090815260016020526040902054806101dc5760405162461bcd60e51b81526004016101d390610f2c565b60405180910390fd5b6101e4610a6b565b50600081815260026020908152604080832081518083019092525462ffffff811680835263010000009091046001600160a01b0316928201839052909291610259917f000000000000000000000000000000000000000000000000000000000000000091610254918991906106ca565b610720565b90506040518060400160405280826001600160a01b0316815260200183602001516001600160a01b03168152509350505050919050565b6102986107d1565b6000546001600160a01b039081169116146102c55760405162461bcd60e51b81526004016101d390610ef7565b60005463ffffffff828116600160a01b9092041614156102f75760405162461bcd60e51b81526004016101d390610e7c565b63ffffffff811661031a5760405162461bcd60e51b81526004016101d390610e7c565b6000805463ffffffff909216600160a01b0263ffffffff60a01b19909216919091179055565b6103486107d1565b6000546001600160a01b039081169116146103755760405162461bcd60e51b81526004016101d390610ef7565b6001600160a01b038116600090815260016020526040902054806103ab5760405162461bcd60e51b81526004016101d390610f2c565b600090815260026020908152604080832080546001600160b81b03191690556001600160a01b039390931682526001905290812055565b7f000000000000000000000000000000000000000000000000000000000000000081565b61040e6107d1565b6000546001600160a01b0390811691161461043b5760405162461bcd60e51b81526004016101d390610ef7565b600080546040516001600160a01b03909116907f8be0079c531659141344cd1fd0a4f28419497f9722a3daafe3b4186f6b6457e0908390a3600080546001600160a01b0319169055565b61048d6107d1565b6000546001600160a01b039081169116146104ba5760405162461bcd60e51b81526004016101d390610ef7565b8251825181146104dc5760405162461bcd60e51b81526004016101d390610ea7565b808251146104fc5760405162461bcd60e51b81526004016101d390610ea7565b60005b818110156105535761054b85828151811061051657fe5b602002602001015185838151811061052a57fe5b602002602001015185848151811061053e57fe5b60200260200101516107d5565b6001016104ff565b5050505050565b6000546001600160a01b031690565b6105716107d1565b6000546001600160a01b0390811691161461059e5760405162461bcd60e51b81526004016101d390610ef7565b6105a98383836107d5565b505050565b7f000000000000000000000000000000000000000000000000000000000000000081565b600054600160a01b900463ffffffff1681565b6105ed6107d1565b6000546001600160a01b0390811691161461061a5760405162461bcd60e51b81526004016101d390610ef7565b6001600160a01b0381166106405760405162461bcd60e51b81526004016101d390610e36565b600080546040516001600160a01b03808516939216917f8be0079c531659141344cd1fd0a4f28419497f9722a3daafe3b4186f6b6457e091a3600080546001600160a01b0319166001600160a01b0392909216919091179055565b6000600260006106ab8585610a0c565b815260208101919091526040016000205462ffffff1690505b92915050565b6106d2610a82565b826001600160a01b0316846001600160a01b031611156106f0579192915b50604080516060810182526001600160a01b03948516815292909316602083015262ffffff169181019190915290565b600081602001516001600160a01b031682600001516001600160a01b03161061074857600080fd5b8282600001518360200151846040015160405160200161076a93929190610dff565b60408051601f198184030181529082905280516020918201206107b2939290917fe34f199b19b2b4f47f68442619d555527d244f78a3297ea89325f843f87b8b549101610db8565b60408051601f1981840301815291905280516020909101209392505050565b3390565b60006107e18484610a0c565b60408051808201825262ffffff80861682526001600160a01b03808816602080850191825260008781526002825286812095518654935185166301000000026301000000600160b81b03199190961662ffffff19909416939093179290921693909317909355888116835260019091528282208490559151630b4c774160e11b8152929350917f000000000000000000000000000000000000000000000000000000000000000090911690631698ee82906108a490889088908890600401610dff565b60206040518083038186803b1580156108bc57600080fd5b505afa1580156108d0573d6000803e3d6000fd5b505050506040513d601f19601f820116820180604052508101906108f49190610b4e565b90506001600160a01b03811661091c5760405162461bcd60e51b81526004016101d390610ecf565b6000816001600160a01b0316633850c7bd6040518163ffffffff1660e01b815260040160e06040518083038186803b15801561095757600080fd5b505afa15801561096b573d6000803e3d6000fd5b505050506040513d601f19601f8201168201806040525081019061098f9190610ccf565b505094505050505060028161ffff161015610a04576040516332148f6760e01b81526001600160a01b038316906332148f67906109d190600290600401610e27565b600060405180830381600087803b1580156109eb57600080fd5b505af11580156109ff573d6000803e3d6000fd5b505050505b505050505050565b6000816001600160a01b0316836001600160a01b03161015610a58578282604051602001610a3b929190610d96565b6040516020818303038152906040528051906020012090506106c4565b8183604051602001610a3b929190610d96565b604080518082019091526000808252602082015290565b604080516060810182526000808252602082018190529181019190915290565b600082601f830112610ab2578081fd5b8135610ac5610ac082610fbe565b610f98565b818152915060208083019084810181840286018201871015610ae657600080fd5b60005b84811015610b0e578135610afc81610fdd565b84529282019290820190600101610ae9565b505050505092915050565b805161ffff811681146106c457600080fd5b600060208284031215610b3c578081fd5b8135610b4781610fdd565b9392505050565b600060208284031215610b5f578081fd5b8151610b4781610fdd565b60008060408385031215610b7c578081fd5b8235610b8781610fdd565b91506020830135610b9781610fdd565b809150509250929050565b600080600060608486031215610bb6578081fd5b8335610bc181610fdd565b92506020840135610bd181610fdd565b91506040840135610be181610ff5565b809150509250925092565b600080600060608486031215610c00578283fd5b83356001600160401b0380821115610c16578485fd5b610c2287838801610aa2565b9450602091508186013581811115610c38578485fd5b610c4488828901610aa2565b945050604086013581811115610c58578384fd5b86019050601f81018713610c6a578283fd5b8035610c78610ac082610fbe565b81815283810190838501858402850186018b1015610c94578687fd5b8694505b83851015610cbf578035610cab81610ff5565b835260019490940193918501918501610c98565b5080955050505050509250925092565b600080600080600080600060e0888a031215610ce9578283fd5b8751610cf481610fdd565b8097505060208801518060020b8114610d0b578384fd5b9550610d1a8960408a01610b19565b9450610d298960608a01610b19565b9350610d388960808a01610b19565b925060a088015160ff81168114610d4d578283fd5b60c08901519092508015158114610d62578182fd5b8091505092959891949750929550565b600060208284031215610d83578081fd5b813563ffffffff81168114610b47578182fd5b6001600160601b0319606093841b811682529190921b16601482015260280190565b6001600160f81b0319815260609390931b6001600160601b03191660018401526015830191909152603582015260550190565b6001600160a01b0391909116815260200190565b6001600160a01b03938416815291909216602082015262ffffff909116604082015260600190565b61ffff91909116815260200190565b60208082526026908201527f4f776e61626c653a206e6577206f776e657220697320746865207a65726f206160408201526564647265737360d01b606082015260800190565b60208082526011908201527057726f6e672074696d652077696e646f7760781b604082015260600190565b6020808252600e908201526d082e4e4c2f240dad2e6dac2e8c6d60931b604082015260600190565b6020808252600e908201526d139bdd081d985b1a59081c1bdbdb60921b604082015260600190565b6020808252818101527f4f776e61626c653a2063616c6c6572206973206e6f7420746865206f776e6572604082015260600190565b6020808252600e908201526d141bdbdb081b9bdd08199bdd5b9960921b604082015260600190565b81516001600160a01b039081168252602092830151169181019190915260400190565b62ffffff91909116815260200190565b63ffffffff91909116815260200190565b6040518181016001600160401b0381118282101715610fb657600080fd5b604052919050565b60006001600160401b03821115610fd3578081fd5b5060209081020190565b6001600160a01b0381168114610ff257600080fd5b50565b62ffffff81168114610ff257600080fdfea2646970667358221220802c7031f77035a5ecde4bf6a6fd12c4d933ee7cb0de86c9ff628bd5adc99bb864736f6c634300060c0033",
  "linkReferences": {},
  "deployedLinkReferences": {}
}