{
  "_format": "hh-sol-artifact-1",
  "contractName": "UniswapV3Registry",
  "sourceName": "contracts/oracles/registries/UniswapV3Registry.sol",
  "abi": [
    {
      "inputs": [
        {
          "internalType": "uint32",
          "name": "timeWindow_",
          "type": "uint32"
        },
        {
          "internalType": "address",
          "name": "factory_",
          "type": "address"
        },
        {
          "internalType": "address",
          "name": "weth_",
          "type": "address"
        }
      ],
      "stateMutability": "nonpayable",
      "type": "constructor"
    },
    {
      "anonymous": false,
      "inputs": [
        {
          "indexed": true,
          "internalType": "address",
          "name": "previousOwner",
          "type": "address"
        },
        {
          "indexed": true,
          "internalType": "address",
          "name": "newOwner",
          "type": "address"
        }
      ],
      "name": "OwnershipTransferred",
      "type": "event"
    },
    {
      "inputs": [
        {
          "internalType": "address",
          "name": "token",
          "type": "address"
        },
        {
          "internalType": "address",
          "name": "pair",
          "type": "address"
        },
        {
          "internalType": "uint24",
          "name": "fee",
          "type": "uint24"
        }
      ],
      "name": "addPool",
      "outputs": [],
      "stateMutability": "nonpayable",
      "type": "function"
    },
    {
      "inputs": [
        {
          "internalType": "address[]",
          "name": "tokens",
          "type": "address[]"
        },
        {
          "internalType": "address[]",
          "name": "pairs",
          "type": "address[]"
        },
        {
          "internalType": "uint24[]",
          "name": "fees",
          "type": "uint24[]"
        }
      ],
      "name": "batchAddPools",
      "outputs": [],
      "stateMutability": "nonpayable",
      "type": "function"
    },
    {
      "inputs": [],
      "name": "factory",
      "outputs": [
        {
          "internalType": "contract IUniswapV3Factory",
          "name": "",
          "type": "address"
        }
      ],
      "stateMutability": "view",
      "type": "function"
    },
    {
      "inputs": [
        {
          "internalType": "address",
          "name": "token",
          "type": "address"
        },
        {
          "internalType": "address",
          "name": "pair",
          "type": "address"
        }
      ],
      "name": "getFee",
      "outputs": [
        {
          "internalType": "uint24",
          "name": "",
          "type": "uint24"
        }
      ],
      "stateMutability": "view",
      "type": "function"
    },
    {
      "inputs": [
        {
          "internalType": "address",
          "name": "token",
          "type": "address"
        }
      ],
      "name": "getPoolData",
      "outputs": [
        {
          "components": [
            {
              "internalType": "address",
              "name": "pool",
              "type": "address"
            },
            {
              "internalType": "address",
              "name": "pair",
              "type": "address"
            }
          ],
          "internalType": "struct IUniswapV3Registry.PoolData",
          "name": "",
          "type": "tuple"
        }
      ],
      "stateMutability": "view",
      "type": "function"
    },
    {
      "inputs": [],
      "name": "owner",
      "outputs": [
        {
          "internalType": "address",
          "name": "",
          "type": "address"
        }
      ],
      "stateMutability": "view",
      "type": "function"
    },
    {
      "inputs": [
        {
          "internalType": "address",
          "name": "token",
          "type": "address"
        }
      ],
      "name": "removePool",
      "outputs": [],
      "stateMutability": "nonpayable",
      "type": "function"
    },
    {
      "inputs": [],
      "name": "renounceOwnership",
      "outputs": [],
      "stateMutability": "nonpayable",
      "type": "function"
    },
    {
      "inputs": [],
      "name": "timeWindow",
      "outputs": [
        {
          "internalType": "uint32",
          "name": "",
          "type": "uint32"
        }
      ],
      "stateMutability": "view",
      "type": "function"
    },
    {
      "inputs": [
        {
          "internalType": "address",
          "name": "newOwner",
          "type": "address"
        }
      ],
      "name": "transferOwnership",
      "outputs": [],
      "stateMutability": "nonpayable",
      "type": "function"
    },
    {
      "inputs": [
        {
          "internalType": "uint32",
          "name": "newTimeWindow",
          "type": "uint32"
        }
      ],
      "name": "updateTimeWindow",
      "outputs": [],
      "stateMutability": "nonpayable",
      "type": "function"
    },
    {
      "inputs": [],
      "name": "weth",
      "outputs": [
        {
          "internalType": "address",
          "name": "",
          "type": "address"
        }
      ],
      "stateMutability": "view",
      "type": "function"
    }
  ],
  "bytecode": "0x60c060405234801561001057600080fd5b50604051610f0d380380610f0d83398101604081905261002f916100e6565b60006100396100c5565b600080546001600160a01b0319166001600160a01b0383169081178255604051929350917f8be0079c531659141344cd1fd0a4f28419497f9722a3daafe3b4186f6b6457e0908290a3506001600160601b0319606092831b8116608052911b1660a0526000805463ffffffff909216600160a01b0263ffffffff60a01b19909216919091179055610134565b3390565b80516001600160a01b03811681146100e057600080fd5b92915050565b6000806000606084860312156100fa578283fd5b835163ffffffff8116811461010d578384fd5b925061011c85602086016100c9565b915061012b85604086016100c9565b90509250925092565b60805160601c60a05160601c610dab6101626000398061033952508061050552806106405250610dab6000f3fe608060405234801561001057600080fd5b50600436106100a45760003560e01c806313d21cdf146100a95780632c5b5cb5146100d25780633b7d0946146100e75780633fc8cef3146100fa578063715018a61461010f5780637db5be69146101175780638da5cb5b1461012a578063a4a84e9914610132578063c45a015514610145578063d2f343c71461014d578063f2fde38b14610162578063fee9989814610175575b600080fd5b6100bc6100b7366004610917565b610195565b6040516100c99190610cc3565b60405180910390f35b6100e56100e0366004610b5e565b6101da565b005b6100e56100f5366004610917565b610293565b610102610337565b6040516100c99190610b82565b6100e561035b565b6100e56101253660046109d8565b6103da565b6101026104af565b6100e561014036600461098e565b6104be565b610102610503565b610155610527565b6040516100c99190610cf6565b6100e5610170366004610917565b61053a565b610188610183366004610956565b6105f0565b6040516100c99190610ce6565b61019d610877565b506001600160a01b039081166000908152600160208181526040928390208351808501909452805485168452909101549092169181019190915290565b6101e2610622565b6000546001600160a01b039081169116146102185760405162461bcd60e51b815260040161020f90610c8e565b60405180910390fd5b60005463ffffffff828116600160a01b90920416141561024a5760405162461bcd60e51b815260040161020f90610c13565b63ffffffff811661026d5760405162461bcd60e51b815260040161020f90610c13565b6000805463ffffffff909216600160a01b0263ffffffff60a01b19909216919091179055565b61029b610622565b6000546001600160a01b039081169116146102c85760405162461bcd60e51b815260040161020f90610c8e565b6001600160a01b039081166000818152600160208181526040808420928301805484546001600160a01b031990811690955593841690556002808352818520939096168452918152818320805462ffffff19908116909155948152818320938352929092522080549091169055565b7f000000000000000000000000000000000000000000000000000000000000000081565b610363610622565b6000546001600160a01b039081169116146103905760405162461bcd60e51b815260040161020f90610c8e565b600080546040516001600160a01b03909116907f8be0079c531659141344cd1fd0a4f28419497f9722a3daafe3b4186f6b6457e0908390a3600080546001600160a01b0319169055565b6103e2610622565b6000546001600160a01b0390811691161461040f5760405162461bcd60e51b815260040161020f90610c8e565b81518351146104305760405162461bcd60e51b815260040161020f90610c3e565b80518351146104515760405162461bcd60e51b815260040161020f90610c3e565b60005b83518110156104a9576104a184828151811061046c57fe5b602002602001015184838151811061048057fe5b602002602001015184848151811061049457fe5b6020026020010151610626565b600101610454565b50505050565b6000546001600160a01b031690565b6104c6610622565b6000546001600160a01b039081169116146104f35760405162461bcd60e51b815260040161020f90610c8e565b6104fe838383610626565b505050565b7f000000000000000000000000000000000000000000000000000000000000000081565b600054600160a01b900463ffffffff1681565b610542610622565b6000546001600160a01b0390811691161461056f5760405162461bcd60e51b815260040161020f90610c8e565b6001600160a01b0381166105955760405162461bcd60e51b815260040161020f90610bcd565b600080546040516001600160a01b03808516939216917f8be0079c531659141344cd1fd0a4f28419497f9722a3daafe3b4186f6b6457e091a3600080546001600160a01b0319166001600160a01b0392909216919091179055565b6001600160a01b0380831660009081526002602090815260408083209385168352929052205462ffffff165b92915050565b3390565b604051630b4c774160e11b81526000906001600160a01b037f00000000000000000000000000000000000000000000000000000000000000001690631698ee829061067990879087908790600401610b96565b60206040518083038186803b15801561069157600080fd5b505afa1580156106a5573d6000803e3d6000fd5b505050506040513d601f19601f820116820180604052508101906106c9919061093a565b90506001600160a01b0381166106f15760405162461bcd60e51b815260040161020f90610c66565b6040805180820182526001600160a01b0380841680835286821660208085018281528a851660008181526001808552898220985189549089166001600160a01b0319918216178a559351980180549890971697909216969096179094556002808252868520928552918152858420805462ffffff8a1662ffffff19918216811790925592825286852095855294905284832080549091169093179092558251633850c7bd60e01b815292519092633850c7bd9160048083019260e0929190829003018186803b1580156107c357600080fd5b505afa1580156107d7573d6000803e3d6000fd5b505050506040513d601f19601f820116820180604052508101906107fb9190610abb565b505094505050505060028161ffff161015610870576040516332148f6760e01b81526001600160a01b038316906332148f679061083d90600290600401610bbe565b600060405180830381600087803b15801561085757600080fd5b505af115801561086b573d6000803e3d6000fd5b505050505b5050505050565b604080518082019091526000808252602082015290565b600082601f83011261089e578081fd5b81356108b16108ac82610d2d565b610d07565b8181529150602080830190848101818402860182018710156108d257600080fd5b60005b848110156108fa5781356108e881610d4c565b845292820192908201906001016108d5565b505050505092915050565b805161ffff8116811461061c57600080fd5b600060208284031215610928578081fd5b813561093381610d4c565b9392505050565b60006020828403121561094b578081fd5b815161093381610d4c565b60008060408385031215610968578081fd5b823561097381610d4c565b9150602083013561098381610d4c565b809150509250929050565b6000806000606084860312156109a2578081fd5b83356109ad81610d4c565b925060208401356109bd81610d4c565b915060408401356109cd81610d64565b809150509250925092565b6000806000606084860312156109ec578283fd5b83356001600160401b0380821115610a02578485fd5b610a0e8783880161088e565b9450602091508186013581811115610a24578485fd5b610a308882890161088e565b945050604086013581811115610a44578384fd5b86019050601f81018713610a56578283fd5b8035610a646108ac82610d2d565b81815283810190838501858402850186018b1015610a80578687fd5b8694505b83851015610aab578035610a9781610d64565b835260019490940193918501918501610a84565b5080955050505050509250925092565b600080600080600080600060e0888a031215610ad5578283fd5b8751610ae081610d4c565b8097505060208801518060020b8114610af7578384fd5b9550610b068960408a01610905565b9450610b158960608a01610905565b9350610b248960808a01610905565b925060a088015160ff81168114610b39578283fd5b60c08901519092508015158114610b4e578182fd5b8091505092959891949750929550565b600060208284031215610b6f578081fd5b813563ffffffff81168114610933578182fd5b6001600160a01b0391909116815260200190565b6001600160a01b03938416815291909216602082015262ffffff909116604082015260600190565b61ffff91909116815260200190565b60208082526026908201527f4f776e61626c653a206e6577206f776e657220697320746865207a65726f206160408201526564647265737360d01b606082015260800190565b60208082526011908201527057726f6e672074696d652077696e646f7760781b604082015260600190565b6020808252600e908201526d082e4e4c2f240dad2e6dac2e8c6d60931b604082015260600190565b6020808252600e908201526d139bdd081d985b1a59081c1bdbdb60921b604082015260600190565b6020808252818101527f4f776e61626c653a2063616c6c6572206973206e6f7420746865206f776e6572604082015260600190565b81516001600160a01b039081168252602092830151169181019190915260400190565b62ffffff91909116815260200190565b63ffffffff91909116815260200190565b6040518181016001600160401b0381118282101715610d2557600080fd5b604052919050565b60006001600160401b03821115610d42578081fd5b5060209081020190565b6001600160a01b0381168114610d6157600080fd5b50565b62ffffff81168114610d6157600080fdfea26469706673582212205aa43e313ba20c12be5fee9391f18cc626879c264d7d237dc74567245c4f871664736f6c634300060c0033",
  "linkReferences": {},
  "deployedLinkReferences": {}
}