{
  "_format": "hh-sol-artifact-1",
  "contractName": "KyberSwapAdapter",
  "sourceName": "contracts/adapters/exchanges/KyberSwapAdapter.sol",
  "abi": [
    {
      "inputs": [
        {
          "internalType": "address",
          "name": "dmmFactory_",
          "type": "address"
        },
        {
          "internalType": "address",
          "name": "dmmRouter_",
          "type": "address"
        },
        {
          "internalType": "address",
          "name": "weth_",
          "type": "address"
        }
      ],
      "stateMutability": "nonpayable",
      "type": "constructor"
    },
    {
      "inputs": [],
      "name": "dmmFactory",
      "outputs": [
        {
          "internalType": "contract IDMMFactory",
          "name": "",
          "type": "address"
        }
      ],
      "stateMutability": "view",
      "type": "function"
    },
    {
      "inputs": [],
      "name": "dmmRouter",
      "outputs": [
        {
          "internalType": "contract IDMMRouter02",
          "name": "",
          "type": "address"
        }
      ],
      "stateMutability": "view",
      "type": "function"
    },
    {
      "inputs": [
        {
          "internalType": "uint256",
          "name": "amount",
          "type": "uint256"
        },
        {
          "internalType": "uint256",
          "name": "expected",
          "type": "uint256"
        },
        {
          "internalType": "address",
          "name": "tokenIn",
          "type": "address"
        },
        {
          "internalType": "address",
          "name": "tokenOut",
          "type": "address"
        },
        {
          "internalType": "address",
          "name": "from",
          "type": "address"
        },
        {
          "internalType": "address",
          "name": "to",
          "type": "address"
        }
      ],
      "name": "swap",
      "outputs": [],
      "stateMutability": "nonpayable",
      "type": "function"
    },
    {
      "inputs": [],
      "name": "weth",
      "outputs": [
        {
          "internalType": "address",
          "name": "",
          "type": "address"
        }
      ],
      "stateMutability": "view",
      "type": "function"
    }
  ],
  "bytecode": "0x60e060405234801561001057600080fd5b50604051610c7d380380610c7d8339818101604052606081101561003357600080fd5b50805160208201516040909201516001600160601b0319606082811b821660805283811b821660a05284901b1660c0526001600160a01b03908116929181169116610bd36100aa6000398060d352806104aa52806104d1528061060c5250806102ae52806107185250806106f45250610bd36000f3fe608060405234801561001057600080fd5b506004361061004c5760003560e01c806319ca917814610051578063230f11c7146100755780633fc8cef3146100c1578063ffc0d003146100c9575b600080fd5b6100596100d1565b604080516001600160a01b039092168252519081900360200190f35b6100bf600480360360c081101561008b57600080fd5b508035906020810135906001600160a01b0360408201358116916060810135821691608082013581169160a00135166100f5565b005b6100596106f2565b610059610716565b7f000000000000000000000000000000000000000000000000000000000000000081565b826001600160a01b0316846001600160a01b0316141561015c576040805162461bcd60e51b815260206004820152601360248201527f546f6b656e732063616e6e6f74206d6174636800000000000000000000000000604482015290519081900360640190fd5b6001600160a01b038216301461028a576000846001600160a01b03166370a08231306040518263ffffffff1660e01b815260040180826001600160a01b0316815260200191505060206040518083038186803b1580156101bb57600080fd5b505afa1580156101cf573d6000803e3d6000fd5b505050506040513d60208110156101e557600080fd5b505190506101fe6001600160a01b03861684308a61073a565b6000856001600160a01b03166370a08231306040518263ffffffff1660e01b815260040180826001600160a01b0316815260200191505060206040518083038186803b15801561024d57600080fd5b505afa158015610261573d6000803e3d6000fd5b505050506040513d602081101561027757600080fd5b50519050610285818361079a565b975050505b604080516001808252818301909252606091602080830190803683370190505090507f00000000000000000000000000000000000000000000000000000000000000006001600160a01b0316635b1dc86f86866040518363ffffffff1660e01b815260040180836001600160a01b03168152602001826001600160a01b031681526020019250505060006040518083038186803b15801561032a57600080fd5b505afa15801561033e573d6000803e3d6000fd5b505050506040513d6000823e601f3d908101601f19168201604052602081101561036757600080fd5b810190808051604051939291908464010000000082111561038757600080fd5b90830190602082018581111561039c57600080fd5b82518660208202830111640100000000821117156103b957600080fd5b82525081516020918201928201910280838360005b838110156103e65781810151838201526020016103ce565b505050509050016040525050506000815181106103ff57fe5b60200260200101518160008151811061041457fe5b6001600160a01b0392909216602092830291909101909101526040805160028082526060828101909352816020016020820280368337019050509050858160008151811061045e57fe5b60200260200101906001600160a01b031690816001600160a01b031681525050848160018151811061048c57fe5b6001600160a01b0392831660209182029290920101526104cf9087167f00000000000000000000000000000000000000000000000000000000000000008a6107e3565b7f00000000000000000000000000000000000000000000000000000000000000006001600160a01b031663e8898b5f8989858588426040518763ffffffff1660e01b8152600401808781526020018681526020018060200180602001856001600160a01b03168152602001848152602001838103835287818151815260200191508051906020019060200280838360005b83811015610578578181015183820152602001610560565b50505050905001838103825286818151815260200191508051906020019060200280838360005b838110156105b757818101518382015260200161059f565b5050505090500198505050505050505050600060405180830381600087803b1580156105e257600080fd5b505af11580156105f6573d6000803e3d6000fd5b50505050856001600160a01b031663dd62ed3e307f00000000000000000000000000000000000000000000000000000000000000006040518363ffffffff1660e01b815260040180836001600160a01b03168152602001826001600160a01b031681526020019250505060206040518083038186803b15801561067857600080fd5b505afa15801561068c573d6000803e3d6000fd5b505050506040513d60208110156106a257600080fd5b5051156106e8576040805162461bcd60e51b815260206004820152600f60248201526e0496e636f6d706c657465207377617608c1b604482015290519081900360640190fd5b5050505050505050565b7f000000000000000000000000000000000000000000000000000000000000000081565b7f000000000000000000000000000000000000000000000000000000000000000081565b604080516001600160a01b0380861660248301528416604482015260648082018490528251808303909101815260849091019091526020810180516001600160e01b03166323b872dd60e01b17905261079490859061083a565b50505050565b60006107dc83836040518060400160405280601e81526020017f536166654d6174683a207375627472616374696f6e206f766572666c6f770000815250610901565b9392505050565b604080516001600160a01b038416602482015260448082018490528251808303909101815260649091019091526020810180516001600160e01b031663095ea7b360e01b17905261083590849061083a565b505050565b606061088f826040518060400160405280602081526020017f5361666545524332303a206c6f772d6c6576656c2063616c6c206661696c6564815250856001600160a01b03166109989092919063ffffffff16565b805190915015610835578080602001905160208110156108ae57600080fd5b5051610835576040805162461bcd60e51b815260206004820152601360248201527f5361666545524332303a20217375636365737300000000000000000000000000604482015290519081900360640190fd5b600081848411156109905760405162461bcd60e51b81526004018080602001828103825283818151815260200191508051906020019080838360005b8381101561095557818101518382015260200161093d565b50505050905090810190601f1680156109825780820380516001836020036101000a031916815260200191505b509250505060405180910390fd5b505050900390565b60606109a784846000856109af565b949350505050565b6060824710156109f05760405162461bcd60e51b8152600401808060200182810382526026815260200180610b786026913960400191505060405180910390fd5b6109f985610b0b565b610a4a576040805162461bcd60e51b815260206004820152601d60248201527f416464726573733a2063616c6c20746f206e6f6e2d636f6e7472616374000000604482015290519081900360640190fd5b60006060866001600160a01b031685876040518082805190602001908083835b60208310610a895780518252601f199092019160209182019101610a6a565b6001836020036101000a03801982511681845116808217855250505050505090500191505060006040518083038185875af1925050503d8060008114610aeb576040519150601f19603f3d011682016040523d82523d6000602084013e610af0565b606091505b5091509150610b00828286610b11565b979650505050505050565b3b151590565b60608315610b205750816107dc565b825115610b305782518084602001fd5b60405162461bcd60e51b815260206004820181815284516024840152845185939192839260440191908501908083836000831561095557818101518382015260200161093d56fe416464726573733a20696e73756666696369656e742062616c616e636520666f722063616c6ca26469706673582212209b8125af40e338237812844777dde75b685679e5760e2f6b40c5ae3a49f54ef364736f6c634300060c0033",
  "linkReferences": {},
  "deployedLinkReferences": {}
}