{
  "_format": "hh-sol-artifact-1",
  "contractName": "StrategyProxyAdmin",
  "sourceName": "contracts/StrategyProxyAdmin.sol",
  "abi": [
    {
      "inputs": [],
      "stateMutability": "nonpayable",
      "type": "constructor"
    },
    {
      "inputs": [
        {
          "internalType": "contract TransparentUpgradeableProxy",
          "name": "proxy",
          "type": "address"
        }
      ],
      "name": "getProxyAdmin",
      "outputs": [
        {
          "internalType": "address",
          "name": "",
          "type": "address"
        }
      ],
      "stateMutability": "view",
      "type": "function"
    },
    {
      "inputs": [
        {
          "internalType": "contract TransparentUpgradeableProxy",
          "name": "proxy",
          "type": "address"
        }
      ],
      "name": "getProxyImplementation",
      "outputs": [
        {
          "internalType": "address",
          "name": "",
          "type": "address"
        }
      ],
      "stateMutability": "view",
      "type": "function"
    },
    {
      "inputs": [
        {
          "internalType": "contract TransparentUpgradeableProxy",
          "name": "proxy",
          "type": "address"
        }
      ],
      "name": "upgrade",
      "outputs": [],
      "stateMutability": "nonpayable",
      "type": "function"
    }
  ],
  "bytecode": "0x60a060405234801561001057600080fd5b5033606081901b60805261045d61003a6000398060aa52806101775280610269525061045d6000f3fe608060405234801561001057600080fd5b50600436106100415760003560e01c80630900f01014610046578063204e1c7a1461005b578063f3b7dead14610084575b600080fd5b61005961005436600461039a565b610097565b005b61006e61006936600461039a565b6102d6565b60405161007b91906103d6565b60405180910390f35b61006e61009236600461039a565b61035c565b604051633d58406360e01b8152819033907f00000000000000000000000000000000000000000000000000000000000000006001600160a01b031690633d584063906100e79085906004016103d6565b60206040518083038186803b1580156100ff57600080fd5b505afa158015610113573d6000803e3d6000fd5b505050506040513d601f19601f820116820180604052508101906101379190610377565b6001600160a01b0316146101665760405162461bcd60e51b815260040161015d906103ea565b60405180910390fd5b816001600160a01b0316633659cfe67f00000000000000000000000000000000000000000000000000000000000000006001600160a01b0316635c60da1b6040518163ffffffff1660e01b815260040160206040518083038186803b1580156101ce57600080fd5b505afa1580156101e2573d6000803e3d6000fd5b505050506040513d601f19601f820116820180604052508101906102069190610377565b6040518263ffffffff1660e01b815260040161022291906103d6565b600060405180830381600087803b15801561023c57600080fd5b505af1158015610250573d6000803e3d6000fd5b505060405163f03633f560e01b81526001600160a01b037f000000000000000000000000000000000000000000000000000000000000000016925063f03633f591506102a09085906004016103d6565b600060405180830381600087803b1580156102ba57600080fd5b505af11580156102ce573d6000803e3d6000fd5b505050505050565b6000806000836001600160a01b03166040516102f1906103b6565b600060405180830381855afa9150503d806000811461032c576040519150601f19603f3d011682016040523d82523d6000602084013e610331565b606091505b50915091508161034057600080fd5b808060200190518101906103549190610377565b949350505050565b6000806000836001600160a01b03166040516102f1906103c6565b600060208284031215610388578081fd5b81516103938161040f565b9392505050565b6000602082840312156103ab578081fd5b81356103938161040f565b635c60da1b60e01b815260040190565b6303e1469160e61b815260040190565b6001600160a01b0391909116815260200190565b6020808252600b908201526a2737ba1036b0b730b3b2b960a91b604082015260600190565b6001600160a01b038116811461042457600080fd5b5056fea26469706673582212203d66a4c70dabb2225a79135750fcef88cff884101956291afa4e4d2063946f6464736f6c63430007060033",
  "linkReferences": {},
  "deployedLinkReferences": {}
}