{
  "_format": "hh-sol-artifact-1",
  "contractName": "SynthetixAdapter",
  "sourceName": "contracts/adapters/exchanges/SynthetixAdapter.sol",
  "abi": [
    {
      "inputs": [
        {
          "internalType": "address",
          "name": "resolver_",
          "type": "address"
        },
        {
          "internalType": "address",
          "name": "weth_",
          "type": "address"
        }
      ],
      "stateMutability": "nonpayable",
      "type": "constructor"
    },
    {
      "inputs": [],
      "name": "resolver",
      "outputs": [
        {
          "internalType": "contract IAddressResolver",
          "name": "",
          "type": "address"
        }
      ],
      "stateMutability": "view",
      "type": "function"
    },
    {
      "inputs": [
        {
          "internalType": "uint256",
          "name": "amount",
          "type": "uint256"
        },
        {
          "internalType": "address",
          "name": "tokenIn",
          "type": "address"
        },
        {
          "internalType": "address",
          "name": "tokenOut",
          "type": "address"
        }
      ],
      "name": "spotPrice",
      "outputs": [
        {
          "internalType": "uint256",
          "name": "",
          "type": "uint256"
        }
      ],
      "stateMutability": "view",
      "type": "function"
    },
    {
      "inputs": [
        {
          "internalType": "uint256",
          "name": "amount",
          "type": "uint256"
        },
        {
          "internalType": "uint256",
          "name": "expected",
          "type": "uint256"
        },
        {
          "internalType": "address",
          "name": "tokenIn",
          "type": "address"
        },
        {
          "internalType": "address",
          "name": "tokenOut",
          "type": "address"
        },
        {
          "internalType": "address",
          "name": "from",
          "type": "address"
        },
        {
          "internalType": "address",
          "name": "to",
          "type": "address"
        }
      ],
      "name": "swap",
      "outputs": [],
      "stateMutability": "nonpayable",
      "type": "function"
    },
    {
      "inputs": [],
      "name": "weth",
      "outputs": [
        {
          "internalType": "address",
          "name": "",
          "type": "address"
        }
      ],
      "stateMutability": "view",
      "type": "function"
    }
  ],
  "bytecode": "0x60c060405234801561001057600080fd5b5060405161092e38038061092e8339818101604052604081101561003357600080fd5b5080516020909101516001600160601b0319606091821b811660805291901b1660a05260805160601c60a05160601c6108a56100896000398061011152806103d7528061051652508061039252506108a56000f3fe608060405234801561001057600080fd5b506004361061004c5760003560e01c806304f3bcec14610051578063230f11c7146100755780633fc8cef3146100c157806377ec159d146100c9575b600080fd5b61005961010f565b604080516001600160a01b039092168252519081900360200190f35b6100bf600480360360c081101561008b57600080fd5b508035906020810135906001600160a01b0360408201358116916060810135821691608082013581169160a0013516610133565b005b610059610390565b6100fd600480360360608110156100df57600080fd5b508035906001600160a01b03602082013581169160400135166103b4565b60408051918252519081900360200190f35b7f000000000000000000000000000000000000000000000000000000000000000081565b826001600160a01b0316846001600160a01b03161415610190576040805162461bcd60e51b81526020600482015260136024820152720a8ded6cadce640c6c2dcdcdee840dac2e8c6d606b1b604482015290519081900360640190fd5b806001600160a01b0316826001600160a01b0316146101e05760405162461bcd60e51b815260040180806020018281038252602b815260200180610845602b913960400191505060405180910390fd5b60006101ea610511565b90506000806101fa838888610612565b909250905060006001600160a01b03861630146102ab57836001600160a01b031663c836fa0a87858d866040518563ffffffff1660e01b815260040180856001600160a01b03168152602001848152602001838152602001828152602001945050505050602060405180830381600087803b15801561027857600080fd5b505af115801561028c573d6000803e3d6000fd5b505050506040513d60208110156102a257600080fd5b50519050610330565b836001600160a01b031663ee52a2f3848c856040518463ffffffff1660e01b8152600401808481526020018381526020018281526020019350505050602060405180830381600087803b15801561030157600080fd5b505af1158015610315573d6000803e3d6000fd5b505050506040513d602081101561032b57600080fd5b505190505b88811015610384576040805162461bcd60e51b815260206004820152601c60248201527b125b9cdd59999a58da595b9d081d1bdad95b93dd5d08185b5bdd5b9d60221b604482015290519081900360640190fd5b50505050505050505050565b7f000000000000000000000000000000000000000000000000000000000000000081565b6000806103bf610511565b90506000806103cf838787610612565b9150915060007f00000000000000000000000000000000000000000000000000000000000000006001600160a01b03166321f8a7216040518163ffffffff1660e01b815260040180806822bc31b430b733b2b960b91b815250602001905060206040518083038186803b15801561044557600080fd5b505afa158015610459573d6000803e3d6000fd5b505050506040513d602081101561046f57600080fd5b505160408051633d142a8d60e21b8152600481018b90526024810186905260448101859052905191925060009182916001600160a01b0385169163f450aa3491606480820192606092909190829003018186803b1580156104cf57600080fd5b505afa1580156104e3573d6000803e3d6000fd5b505050506040513d60608110156104f957600080fd5b508051602090910151019a9950505050505050505050565b6000807f00000000000000000000000000000000000000000000000000000000000000006001600160a01b03166321f8a7216040518163ffffffff1660e01b81526004018080680a6f2dce8d0cae8d2f60bb1b815250602001905060206040518083038186803b15801561058457600080fd5b505afa158015610598573d6000803e3d6000fd5b505050506040513d60208110156105ae57600080fd5b505190506001600160a01b03811661060d576040805162461bcd60e51b815260206004820152601f60248201527f4d697373696e672066726f6d2053796e746865746978207265736f6c76657200604482015290519081900360640190fd5b905090565b6000806000856001600160a01b03166316b2213f866001600160a01b031663d4b839926040518163ffffffff1660e01b815260040160206040518083038186803b15801561065f57600080fd5b505afa158015610673573d6000803e3d6000fd5b505050506040513d602081101561068957600080fd5b5051604080516001600160e01b031960e085901b1681526001600160a01b039092166004830152516024808301926020929190829003018186803b1580156106d057600080fd5b505afa1580156106e4573d6000803e3d6000fd5b505050506040513d60208110156106fa57600080fd5b505160408051636a5c1cc960e11b815290519192506000916001600160a01b03808a16926316b2213f929189169163d4b8399291600480820192602092909190829003018186803b15801561074e57600080fd5b505afa158015610762573d6000803e3d6000fd5b505050506040513d602081101561077857600080fd5b5051604080516001600160e01b031960e085901b1681526001600160a01b039092166004830152516024808301926020929190829003018186803b1580156107bf57600080fd5b505afa1580156107d3573d6000803e3d6000fd5b505050506040513d60208110156107e957600080fd5b5051905081158015906107fb57508015155b610838576040805162461bcd60e51b81526020600482015260096024820152684e6f2073796e74687360b81b604482015290519081900360640190fd5b9096909550935050505056fe53796e74682065786368616e676573206d7573742072657475726e20746f2073616d652061646472657373a26469706673582212207ef2971cd248888464e21c1e8a031dfe40ca2c25aab2e109280fc12e2941ae3964736f6c634300060c0033",
  "linkReferences": {},
  "deployedLinkReferences": {}
}