{
  "_format": "hh-sol-artifact-1",
  "contractName": "SynthetixAdapter",
  "sourceName": "contracts/adapters/exchanges/SynthetixAdapter.sol",
  "abi": [
    {
      "inputs": [
        {
          "internalType": "address",
          "name": "resolver_",
          "type": "address"
        },
        {
          "internalType": "address",
          "name": "weth_",
          "type": "address"
        }
      ],
      "stateMutability": "nonpayable",
      "type": "constructor"
    },
    {
      "inputs": [],
      "name": "resolver",
      "outputs": [
        {
          "internalType": "contract IAddressResolver",
          "name": "",
          "type": "address"
        }
      ],
      "stateMutability": "view",
      "type": "function"
    },
    {
      "inputs": [
        {
          "internalType": "uint256",
          "name": "amount",
          "type": "uint256"
        },
        {
          "internalType": "uint256",
          "name": "expected",
          "type": "uint256"
        },
        {
          "internalType": "address",
          "name": "tokenIn",
          "type": "address"
        },
        {
          "internalType": "address",
          "name": "tokenOut",
          "type": "address"
        },
        {
          "internalType": "address",
          "name": "from",
          "type": "address"
        },
        {
          "internalType": "address",
          "name": "to",
          "type": "address"
        }
      ],
      "name": "swap",
      "outputs": [],
      "stateMutability": "nonpayable",
      "type": "function"
    },
    {
      "inputs": [],
      "name": "weth",
      "outputs": [
        {
          "internalType": "address",
          "name": "",
          "type": "address"
        }
      ],
      "stateMutability": "view",
      "type": "function"
    }
  ],
  "bytecode": "0x60c060405234801561001057600080fd5b506040516107633803806107638339818101604052604081101561003357600080fd5b5080516020909101516001600160601b0319606091821b811660805291901b1660a05260805160601c60a05160601c6106e06100836000398060c0528061038852508061036252506106e06000f3fe608060405234801561001057600080fd5b50600436106100415760003560e01c806304f3bcec14610046578063230f11c71461006a5780633fc8cef3146100b6575b600080fd5b61004e6100be565b604080516001600160a01b039092168252519081900360200190f35b6100b4600480360360c081101561008057600080fd5b508035906020810135906001600160a01b0360408201358116916060810135821691608082013581169160a00135166100e2565b005b61004e610360565b7f000000000000000000000000000000000000000000000000000000000000000081565b826001600160a01b0316846001600160a01b03161415610149576040805162461bcd60e51b815260206004820152601360248201527f546f6b656e732063616e6e6f74206d6174636800000000000000000000000000604482015290519081900360640190fd5b806001600160a01b0316826001600160a01b0316146101af576040805162461bcd60e51b815260206004820181905260248201527f53796e74682065786368616e676573206e6565642066726f6d203d3d20746f2e604482015290519081900360640190fd5b60006101b9610384565b90506000806101c9838888610482565b909250905060006001600160a01b038616301461027a57836001600160a01b031663c836fa0a87858d866040518563ffffffff1660e01b815260040180856001600160a01b03168152602001848152602001838152602001828152602001945050505050602060405180830381600087803b15801561024757600080fd5b505af115801561025b573d6000803e3d6000fd5b505050506040513d602081101561027157600080fd5b505190506102ff565b836001600160a01b031663ee52a2f3848c856040518463ffffffff1660e01b8152600401808481526020018381526020018281526020019350505050602060405180830381600087803b1580156102d057600080fd5b505af11580156102e4573d6000803e3d6000fd5b505050506040513d60208110156102fa57600080fd5b505190505b88811015610354576040805162461bcd60e51b815260206004820152601c60248201527f496e73756666696369656e7420746f6b656e4f757420616d6f756e7400000000604482015290519081900360640190fd5b50505050505050505050565b7f000000000000000000000000000000000000000000000000000000000000000081565b60007f00000000000000000000000000000000000000000000000000000000000000006001600160a01b03166321f8a7216040518163ffffffff1660e01b81526004018080680a6f2dce8d0cae8d2f60bb1b815250602001905060206040518083038186803b1580156103f657600080fd5b505afa15801561040a573d6000803e3d6000fd5b505050506040513d602081101561042057600080fd5b505190506001600160a01b03811661047f576040805162461bcd60e51b815260206004820152601f60248201527f4d697373696e672066726f6d2053796e746865746978207265736f6c76657200604482015290519081900360640190fd5b90565b600080846001600160a01b03166316b2213f856001600160a01b031663d4b839926040518163ffffffff1660e01b815260040160206040518083038186803b1580156104cd57600080fd5b505afa1580156104e1573d6000803e3d6000fd5b505050506040513d60208110156104f757600080fd5b5051604080516001600160e01b031960e085901b1681526001600160a01b039092166004830152516024808301926020929190829003018186803b15801561053e57600080fd5b505afa158015610552573d6000803e3d6000fd5b505050506040513d602081101561056857600080fd5b505160408051636a5c1cc960e11b815290519193506001600160a01b03808816926316b2213f929187169163d4b83992916004808301926020929190829003018186803b1580156105b857600080fd5b505afa1580156105cc573d6000803e3d6000fd5b505050506040513d60208110156105e257600080fd5b5051604080516001600160e01b031960e085901b1681526001600160a01b039092166004830152516024808301926020929190829003018186803b15801561062957600080fd5b505afa15801561063d573d6000803e3d6000fd5b505050506040513d602081101561065357600080fd5b50519050811580159061066557508015155b6106a2576040805162461bcd60e51b81526020600482015260096024820152684e6f2073796e74687360b81b604482015290519081900360640190fd5b93509391505056fea26469706673582212205531df947ddc2eaeef1bca9a7b4c3c78b83a9051cc1493e5145d208b6cf5e04264736f6c634300060c0033",
  "linkReferences": {},
  "deployedLinkReferences": {}
}