{
    "_format": "hh-sol-artifact-1",
    "contractName": "Leverage2XAdapter",
    "sourceName": "contracts/adapters/borrow/Leverage2XAdapter.sol",
    "abi": [
        {
            "inputs": [
                {
                    "internalType": "address",
                    "name": "defaultAdapter_",
                    "type": "address"
                },
                {
                    "internalType": "address",
                    "name": "aaveLendAdapter_",
                    "type": "address"
                },
                {
                    "internalType": "address",
                    "name": "aaveBorrowAdapter_",
                    "type": "address"
                },
                {
                    "internalType": "address",
                    "name": "debtToken_",
                    "type": "address"
                },
                {
                    "internalType": "address",
                    "name": "weth_",
                    "type": "address"
                }
            ],
            "stateMutability": "nonpayable",
            "type": "constructor"
        },
        {
            "inputs": [],
            "name": "aaveBorrowAdapter",
            "outputs": [
                {
                    "internalType": "address",
                    "name": "",
                    "type": "address"
                }
            ],
            "stateMutability": "view",
            "type": "function"
        },
        {
            "inputs": [],
            "name": "aaveLendAdapter",
            "outputs": [
                {
                    "internalType": "address",
                    "name": "",
                    "type": "address"
                }
            ],
            "stateMutability": "view",
            "type": "function"
        },
        {
            "inputs": [],
            "name": "debtToken",
            "outputs": [
                {
                    "internalType": "address",
                    "name": "",
                    "type": "address"
                }
            ],
            "stateMutability": "view",
            "type": "function"
        },
        {
            "inputs": [],
            "name": "defaultAdapter",
            "outputs": [
                {
                    "internalType": "address",
                    "name": "",
                    "type": "address"
                }
            ],
            "stateMutability": "view",
            "type": "function"
        },
        {
            "inputs": [
                {
                    "internalType": "uint256",
                    "name": "amount",
                    "type": "uint256"
                },
                {
                    "internalType": "address",
                    "name": "tokenIn",
                    "type": "address"
                },
                {
                    "internalType": "address",
                    "name": "tokenOut",
                    "type": "address"
                }
            ],
            "name": "spotPrice",
            "outputs": [
                {
                    "internalType": "uint256",
                    "name": "",
                    "type": "uint256"
                }
            ],
            "stateMutability": "view",
            "type": "function"
        },
        {
            "inputs": [
                {
                    "internalType": "uint256",
                    "name": "amount",
                    "type": "uint256"
                },
                {
                    "internalType": "uint256",
                    "name": "expected",
                    "type": "uint256"
                },
                {
                    "internalType": "address",
                    "name": "tokenIn",
                    "type": "address"
                },
                {
                    "internalType": "address",
                    "name": "tokenOut",
                    "type": "address"
                },
                {
                    "internalType": "address",
                    "name": "from",
                    "type": "address"
                },
                {
                    "internalType": "address",
                    "name": "to",
                    "type": "address"
                }
            ],
            "name": "swap",
            "outputs": [],
            "stateMutability": "nonpayable",
            "type": "function"
        },
        {
            "inputs": [],
            "name": "weth",
            "outputs": [
                {
                    "internalType": "address",
                    "name": "",
                    "type": "address"
                }
            ],
            "stateMutability": "view",
            "type": "function"
        }
    ],
    "bytecode": "0x61012060405234801561001157600080fd5b5060405162000fdd38038062000fdd83398101604081905261003291610069565b6001600160601b0319606091821b811660805294811b851660a05292831b841660c05290821b831660e052901b16610100526100f5565b600080600080600060a08688031215610080578081fd5b855161008b816100dd565b602087015190955061009c816100dd565b60408701519094506100ad816100dd565b60608701519093506100be816100dd565b60808701519092506100cf816100dd565b809150509295509295909350565b6001600160a01b03811681146100f257600080fd5b50565b60805160601c60a05160601c60c05160601c60e05160601c6101005160601c610e626200017b6000398061029052806102dc528061037a52806104a1528061065c5250806102605280610451528061059f52508061023052806103a652806104f052806106385250806102bb528061048052806105e75250806105c35250610e626000f3fe608060405234801561001057600080fd5b506004361061006d5760003560e01c8063230f11c7146100725780633b571e5c146100875780633fc8cef3146100a5578063734e6cad146100ad57806377ec159d146100b5578063a75e5ee3146100d5578063f8d89898146100dd575b600080fd5b610085610080366004610ace565b6100e5565b005b61008f61059d565b60405161009c9190610b59565b60405180910390f35b61008f6105c1565b61008f6105e5565b6100c86100c3366004610a8d565b610609565b60405161009c9190610da9565b61008f610636565b61008f61065a565b826001600160a01b0316846001600160a01b031614156101205760405162461bcd60e51b815260040161011790610ccc565b60405180910390fd5b848610156101405760405162461bcd60e51b815260040161011790610c55565b6001600160a01b0382163014610165576101656001600160a01b03851683308961067e565b61016e836106dc565b61018a5760405162461bcd60e51b815260040161011790610d30565b836001600160a01b0316836001600160a01b031663b16a19de6040518163ffffffff1660e01b815260040160206040518083038186803b1580156101cd57600080fd5b505afa1580156101e1573d6000803e3d6000fd5b505050506040513d601f19601f820116820180604052508101906102059190610a39565b6001600160a01b03161461022b5760405162461bcd60e51b815260040161011790610be9565b61025b7f000000000000000000000000000000000000000000000000000000000000000087600187873087610725565b6102b67f000000000000000000000000000000000000000000000000000000000000000061028a8860026107d5565b600160007f00000000000000000000000000000000000000000000000000000000000000008630610725565b6103a17f00000000000000000000000000000000000000000000000000000000000000007f00000000000000000000000000000000000000000000000000000000000000006001600160a01b03166370a08231306040518263ffffffff1660e01b81526004016103269190610b59565b60206040518083038186803b15801561033e57600080fd5b505afa158015610352573d6000803e3d6000fd5b505050506040513d601f19601f820116820180604052508101906103769190610a75565b60017f0000000000000000000000000000000000000000000000000000000000000000883030610725565b61044c7f0000000000000000000000000000000000000000000000000000000000000000856001600160a01b03166370a08231306040518263ffffffff1660e01b81526004016103f19190610b59565b60206040518083038186803b15801561040957600080fd5b505afa15801561041d573d6000803e3d6000fd5b505050506040513d601f19601f820116820180604052508101906104419190610a75565b600187873087610725565b61047b7f000000000000000000000000000000000000000000000000000000000000000061028a8860026107d5565b6104eb7f00000000000000000000000000000000000000000000000000000000000000007f00000000000000000000000000000000000000000000000000000000000000006001600160a01b03166370a08231306040518263ffffffff1660e01b81526004016103269190610b59565b6105957f0000000000000000000000000000000000000000000000000000000000000000856001600160a01b03166370a08231306040518263ffffffff1660e01b815260040161053b9190610b59565b60206040518083038186803b15801561055357600080fd5b505afa158015610567573d6000803e3d6000fd5b505050506040513d601f19601f8201168201806040525081019061058b9190610a75565b8787873087610725565b505050505050565b7f000000000000000000000000000000000000000000000000000000000000000081565b7f000000000000000000000000000000000000000000000000000000000000000081565b7f000000000000000000000000000000000000000000000000000000000000000081565b6000610614826106dc565b1561062b5761062484600261081d565b905061062f565b5060005b9392505050565b7f000000000000000000000000000000000000000000000000000000000000000081565b7f000000000000000000000000000000000000000000000000000000000000000081565b6106d6846323b872dd60e01b85858560405160240161069f93929190610b6d565b60408051601f198184030181529190526020810180516001600160e01b03166001600160e01b031990931692909217909152610857565b50505050565b6000807fb16a19de4224283fa4cedf7c621a3cea4e1b1dc9122d01b4093ee3537fd658a0905060006040516020810160405282815260208160048388611770fa95945050505050565b600060607f230f11c7cc54d258ee9bfebf8292225b43b26633217971638b4a8364be584e1788888888888860405160240161076596959493929190610db2565b60408051601f198184030181529190526020810180516001600160e01b03166001600160e01b031990931692909217909152905060005a90506000808351602085018d85f49250826107c95760405162461bcd60e51b815260040161011790610bc4565b50505050505050505050565b600061081483836040518060400160405280601a815260200179536166654d6174683a206469766973696f6e206279207a65726f60301b8152506108eb565b90505b92915050565b60008261082c57506000610817565b8282028284828161083957fe5b04146108145760405162461bcd60e51b815260040161011790610c8b565b60606108ac826040518060400160405280602081526020017f5361666545524332303a206c6f772d6c6576656c2063616c6c206661696c6564815250856001600160a01b03166109229092919063ffffffff16565b8051909150156108e657808060200190518101906108ca9190610a55565b6108e65760405162461bcd60e51b815260040161011790610d5f565b505050565b6000818361090c5760405162461bcd60e51b81526004016101179190610b91565b50600083858161091857fe5b0495945050505050565b60606109318484600085610939565b949350505050565b60608247101561095b5760405162461bcd60e51b815260040161011790610c0f565b610964856109fa565b6109805760405162461bcd60e51b815260040161011790610cf9565b60006060866001600160a01b0316858760405161099d9190610b3d565b60006040518083038185875af1925050503d80600081146109da576040519150601f19603f3d011682016040523d82523d6000602084013e6109df565b606091505b50915091506109ef828286610a00565b979650505050505050565b3b151590565b60608315610a0f57508161062f565b825115610a1f5782518084602001fd5b8160405162461bcd60e51b81526004016101179190610b91565b600060208284031215610a4a578081fd5b815161081481610e14565b600060208284031215610a66578081fd5b81518015158114610814578182fd5b600060208284031215610a86578081fd5b5051919050565b600080600060608486031215610aa1578182fd5b833592506020840135610ab381610e14565b91506040840135610ac381610e14565b809150509250925092565b60008060008060008060c08789031215610ae6578182fd5b86359550602087013594506040870135610aff81610e14565b93506060870135610b0f81610e14565b92506080870135610b1f81610e14565b915060a0870135610b2f81610e14565b809150509295509295509295565b60008251610b4f818460208701610de8565b9190910192915050565b6001600160a01b0391909116815260200190565b6001600160a01b039384168152919092166020820152604081019190915260600190565b6000602082528251806020840152610bb0816040850160208701610de8565b601f01601f19169190910160400192915050565b6020808252600b908201526a14ddd85c0819985a5b195960aa1b604082015260600190565b6020808252600c908201526b496e636f6d70617469626c6560a01b604082015260600190565b60208082526026908201527f416464726573733a20696e73756666696369656e742062616c616e636520666f6040820152651c8818d85b1b60d21b606082015260800190565b6020808252601c908201527b125b9cdd59999a58da595b9d081d1bdad95b93dd5d08185b5bdd5b9d60221b604082015260600190565b60208082526021908201527f536166654d6174683a206d756c7469706c69636174696f6e206f766572666c6f6040820152607760f81b606082015260800190565b6020808252601390820152720a8ded6cadce640c6c2dcdcdee840dac2e8c6d606b1b604082015260600190565b6020808252601d908201527f416464726573733a2063616c6c20746f206e6f6e2d636f6e7472616374000000604082015260600190565b60208082526015908201527413db9b1e481cdd5c1c1bdc9d1cc819195c1bdcda5d605a1b604082015260600190565b6020808252602a908201527f5361666545524332303a204552433230206f7065726174696f6e20646964206e6040820152691bdd081cdd58d8d9595960b21b606082015260800190565b90815260200190565b95865260208601949094526001600160a01b0392831660408601529082166060850152811660808401521660a082015260c00190565b60005b83811015610e03578181015183820152602001610deb565b838111156106d65750506000910152565b6001600160a01b0381168114610e2957600080fd5b5056fea2646970667358221220e8171db25737c899c8839f8fd6fa908ee9ce2645e38813ad0191d3b6f469469464736f6c634300060c0033",
    "linkReferences": {},
    "deployedLinkReferences": {}
}