{
  "_format": "hh-sol-artifact-1",
  "contractName": "SynthRedeemerAdapter",
  "sourceName": "contracts/adapters/exchanges/SynthRedeemerAdapter.sol",
  "abi": [
    {
      "inputs": [
        {
          "internalType": "address",
          "name": "redeemer_",
          "type": "address"
        },
        {
          "internalType": "address",
          "name": "susd_",
          "type": "address"
        },
        {
          "internalType": "address",
          "name": "weth_",
          "type": "address"
        }
      ],
      "stateMutability": "nonpayable",
      "type": "constructor"
    },
    {
      "inputs": [],
      "name": "redeemer",
      "outputs": [
        {
          "internalType": "contract ISynthRedeemer",
          "name": "",
          "type": "address"
        }
      ],
      "stateMutability": "view",
      "type": "function"
    },
    {
      "inputs": [],
      "name": "susd",
      "outputs": [
        {
          "internalType": "address",
          "name": "",
          "type": "address"
        }
      ],
      "stateMutability": "view",
      "type": "function"
    },
    {
      "inputs": [
        {
          "internalType": "uint256",
          "name": "amount",
          "type": "uint256"
        },
        {
          "internalType": "uint256",
          "name": "expected",
          "type": "uint256"
        },
        {
          "internalType": "address",
          "name": "tokenIn",
          "type": "address"
        },
        {
          "internalType": "address",
          "name": "tokenOut",
          "type": "address"
        },
        {
          "internalType": "address",
          "name": "from",
          "type": "address"
        },
        {
          "internalType": "address",
          "name": "to",
          "type": "address"
        }
      ],
      "name": "swap",
      "outputs": [],
      "stateMutability": "nonpayable",
      "type": "function"
    },
    {
      "inputs": [],
      "name": "weth",
      "outputs": [
        {
          "internalType": "address",
          "name": "",
          "type": "address"
        }
      ],
      "stateMutability": "view",
      "type": "function"
    }
  ],
  "bytecode": "0x60e060405234801561001057600080fd5b5060405161099c38038061099c8339818101604052606081101561003357600080fd5b50805160208201516040909201516001600160601b0319606082811b821660805283811b821660a05284901b1660c0526001600160a01b039081169291811691166108fb6100a16000398061018152806104675250806102ac528061041f52508061044352506108fb6000f3fe608060405234801561001057600080fd5b506004361061004c5760003560e01c8063230f11c7146100515780632ba29d381461009d5780633fc8cef3146100c1578063c9257775146100c9575b600080fd5b61009b600480360360c081101561006757600080fd5b508035906020810135906001600160a01b0360408201358116916060810135821691608082013581169160a00135166100d1565b005b6100a561041d565b604080516001600160a01b039092168252519081900360200190f35b6100a5610441565b6100a5610465565b826001600160a01b0316846001600160a01b03161415610138576040805162461bcd60e51b815260206004820152601360248201527f546f6b656e732063616e6e6f74206d6174636800000000000000000000000000604482015290519081900360640190fd5b6001600160a01b038216301461017f5760405162461bcd60e51b81526004018080602001828103825260248152602001806108a26024913960400191505060405180910390fd5b7f00000000000000000000000000000000000000000000000000000000000000006001600160a01b0316836001600160a01b031614610205576040805162461bcd60e51b815260206004820152601860248201527f43616e206f6e6c792072656465656d20746f2073535553440000000000000000604482015290519081900360640190fd5b6000836001600160a01b03166370a08231306040518263ffffffff1660e01b815260040180826001600160a01b0316815260200191505060206040518083038186803b15801561025457600080fd5b505afa158015610268573d6000803e3d6000fd5b505050506040513d602081101561027e57600080fd5b5051604080516305c8af6760e51b81526001600160a01b038881166004830152602482018b905291519293507f00000000000000000000000000000000000000000000000000000000000000009091169163b915ece09160448082019260009290919082900301818387803b1580156102f657600080fd5b505af115801561030a573d6000803e3d6000fd5b505050506000846001600160a01b03166370a08231306040518263ffffffff1660e01b815260040180826001600160a01b0316815260200191505060206040518083038186803b15801561035d57600080fd5b505afa158015610371573d6000803e3d6000fd5b505050506040513d602081101561038757600080fd5b5051905060006103978284610489565b9050878110156103ee576040805162461bcd60e51b815260206004820152601c60248201527f496e73756666696369656e7420746f6b656e4f757420616d6f756e7400000000604482015290519081900360640190fd5b6001600160a01b0384163014610412576104126001600160a01b038816858b6104d2565b505050505050505050565b7f000000000000000000000000000000000000000000000000000000000000000081565b7f000000000000000000000000000000000000000000000000000000000000000081565b7f000000000000000000000000000000000000000000000000000000000000000081565b60006104cb83836040518060400160405280601e81526020017f536166654d6174683a207375627472616374696f6e206f766572666c6f77000081525061053e565b9392505050565b604080516001600160a01b038416602482015260448082018490528251808303909101815260649091019091526020810180517bffffffffffffffffffffffffffffffffffffffffffffffffffffffff1663a9059cbb60e01b1790526105399084906105d5565b505050565b600081848411156105cd5760405162461bcd60e51b81526004018080602001828103825283818151815260200191508051906020019080838360005b8381101561059257818101518382015260200161057a565b50505050905090810190601f1680156105bf5780820380516001836020036101000a031916815260200191505b509250505060405180910390fd5b505050900390565b606061062a826040518060400160405280602081526020017f5361666545524332303a206c6f772d6c6576656c2063616c6c206661696c6564815250856001600160a01b031661069c9092919063ffffffff16565b8051909150156105395780806020019051602081101561064957600080fd5b5051610539576040805162461bcd60e51b815260206004820152601360248201527f5361666545524332303a20217375636365737300000000000000000000000000604482015290519081900360640190fd5b60606106ab84846000856106b3565b949350505050565b6060824710156106f45760405162461bcd60e51b815260040180806020018281038252602681526020018061087c6026913960400191505060405180910390fd5b6106fd8561080f565b61074e576040805162461bcd60e51b815260206004820152601d60248201527f416464726573733a2063616c6c20746f206e6f6e2d636f6e7472616374000000604482015290519081900360640190fd5b60006060866001600160a01b031685876040518082805190602001908083835b6020831061078d5780518252601f19909201916020918201910161076e565b6001836020036101000a03801982511681845116808217855250505050505090500191505060006040518083038185875af1925050503d80600081146107ef576040519150601f19603f3d011682016040523d82523d6000602084013e6107f4565b606091505b5091509150610804828286610815565b979650505050505050565b3b151590565b606083156108245750816104cb565b8251156108345782518084602001fd5b60405162461bcd60e51b815260206004820181815284516024840152845185939192839260440191908501908083836000831561059257818101518382015260200161057a56fe416464726573733a20696e73756666696369656e742062616c616e636520666f722063616c6c43616e6e6f74207472616e736665722066726f6d20616e6f746865722061646472657373a26469706673582212203c750708727bb8f4361ce8b47750c6395e89dc456fca6778803631dfa1767b1a64736f6c634300060c0033",
  "linkReferences": {},
  "deployedLinkReferences": {}
}