{
  "_format": "hh-sol-artifact-1",
  "contractName": "Arbitrager",
  "sourceName": "contracts/test/Arbitrager.sol",
  "abi": [
    {
      "anonymous": false,
      "inputs": [
        {
          "indexed": true,
          "internalType": "address",
          "name": "previousOwner",
          "type": "address"
        },
        {
          "indexed": true,
          "internalType": "address",
          "name": "newOwner",
          "type": "address"
        }
      ],
      "name": "OwnershipTransferred",
      "type": "event"
    },
    {
      "inputs": [
        {
          "internalType": "uint256",
          "name": "amount",
          "type": "uint256"
        },
        {
          "internalType": "contract IERC20",
          "name": "arbToken",
          "type": "address"
        },
        {
          "internalType": "contract IERC20",
          "name": "pairToken",
          "type": "address"
        },
        {
          "internalType": "contract IBaseAdapter",
          "name": "sellAdapter",
          "type": "address"
        },
        {
          "internalType": "contract IBaseAdapter",
          "name": "buyAdapter",
          "type": "address"
        }
      ],
      "name": "arbitrage",
      "outputs": [],
      "stateMutability": "nonpayable",
      "type": "function"
    },
    {
      "inputs": [
        {
          "internalType": "address",
          "name": "lender",
          "type": "address"
        },
        {
          "internalType": "uint256",
          "name": "amount",
          "type": "uint256"
        },
        {
          "internalType": "contract IERC20",
          "name": "loanToken",
          "type": "address"
        },
        {
          "internalType": "contract IERC20",
          "name": "pairToken",
          "type": "address"
        },
        {
          "internalType": "contract IBaseAdapter",
          "name": "sellAdapter",
          "type": "address"
        },
        {
          "internalType": "contract IBaseAdapter",
          "name": "buyAdapter",
          "type": "address"
        }
      ],
      "name": "arbitrageLoan",
      "outputs": [],
      "stateMutability": "nonpayable",
      "type": "function"
    },
    {
      "inputs": [],
      "name": "owner",
      "outputs": [
        {
          "internalType": "address",
          "name": "",
          "type": "address"
        }
      ],
      "stateMutability": "view",
      "type": "function"
    },
    {
      "inputs": [],
      "name": "renounceOwnership",
      "outputs": [],
      "stateMutability": "nonpayable",
      "type": "function"
    },
    {
      "inputs": [
        {
          "internalType": "address",
          "name": "newOwner",
          "type": "address"
        }
      ],
      "name": "transferOwnership",
      "outputs": [],
      "stateMutability": "nonpayable",
      "type": "function"
    },
    {
      "inputs": [
        {
          "internalType": "contract IERC20",
          "name": "token",
          "type": "address"
        }
      ],
      "name": "withdraw",
      "outputs": [],
      "stateMutability": "nonpayable",
      "type": "function"
    }
  ],
  "bytecode": "0x608060405234801561001057600080fd5b50600061001b61006a565b600080546001600160a01b0319166001600160a01b0383169081178255604051929350917f8be0079c531659141344cd1fd0a4f28419497f9722a3daafe3b4186f6b6457e0908290a35061006e565b3390565b610b9b8061007d6000396000f3fe608060405234801561001057600080fd5b50600436106100625760003560e01c806351cff8d914610067578063715018a61461008f5780638da5cb5b14610097578063976abbeb146100bb578063bfdc643f14610107578063f2fde38b1461014b575b600080fd5b61008d6004803603602081101561007d57600080fd5b50356001600160a01b0316610171565b005b61008d6101d5565b61009f610277565b604080516001600160a01b039092168252519081900360200190f35b61008d600480360360c08110156100d157600080fd5b506001600160a01b03813581169160208101359160408201358116916060810135821691608082013581169160a0013516610286565b61008d600480360360a081101561011d57600080fd5b508035906001600160a01b0360208201358116916040810135821691606082013581169160800135166102b8565b61008d6004803603602081101561016157600080fd5b50356001600160a01b0316610324565b61017961041c565b6000546001600160a01b039081169116146101c9576040805162461bcd60e51b81526020600482018190526024820152600080516020610ae6833981519152604482015290519081900360640190fd5b6101d281610420565b50565b6101dd61041c565b6000546001600160a01b0390811691161461022d576040805162461bcd60e51b81526020600482018190526024820152600080516020610ae6833981519152604482015290519081900360640190fd5b600080546040516001600160a01b03909116907f8be0079c531659141344cd1fd0a4f28419497f9722a3daafe3b4186f6b6457e0908390a3600080546001600160a01b0319169055565b6000546001600160a01b031690565b61029385858585856104ae565b6102a76001600160a01b0385168787610663565b6102b084610420565b505050505050565b6102c061041c565b6000546001600160a01b03908116911614610310576040805162461bcd60e51b81526020600482018190526024820152600080516020610ae6833981519152604482015290519081900360640190fd5b61031d85858585856104ae565b5050505050565b61032c61041c565b6000546001600160a01b0390811691161461037c576040805162461bcd60e51b81526020600482018190526024820152600080516020610ae6833981519152604482015290519081900360640190fd5b6001600160a01b0381166103c15760405162461bcd60e51b8152600401808060200182810382526026815260200180610a9a6026913960400191505060405180910390fd5b600080546040516001600160a01b03808516939216917f8be0079c531659141344cd1fd0a4f28419497f9722a3daafe3b4186f6b6457e091a3600080546001600160a01b0319166001600160a01b0392909216919091179055565b3390565b6101d261042b610277565b604080516370a0823160e01b815230600482015290516001600160a01b038516916370a08231916024808301926020929190829003018186803b15801561047157600080fd5b505afa158015610485573d6000803e3d6000fd5b505050506040513d602081101561049b57600080fd5b50516001600160a01b0384169190610663565b6104c26001600160a01b03851683876106ba565b6040805163230f11c760e01b8152600481018790526000602482018190526001600160a01b0387811660448401528681166064840152306084840181905260a484015292519285169263230f11c79260c480820193929182900301818387803b15801561052e57600080fd5b505af1158015610542573d6000803e3d6000fd5b505050506000836001600160a01b03166370a08231306040518263ffffffff1660e01b815260040180826001600160a01b0316815260200191505060206040518083038186803b15801561059557600080fd5b505afa1580156105a9573d6000803e3d6000fd5b505050506040513d60208110156105bf57600080fd5b505190506105d76001600160a01b03851683836106ba565b6040805163230f11c760e01b8152600481018390526000602482018190526001600160a01b0387811660448401528881166064840152306084840181905260a484015292519285169263230f11c79260c480820193929182900301818387803b15801561064357600080fd5b505af1158015610657573d6000803e3d6000fd5b50505050505050505050565b604080516001600160a01b038416602482015260448082018490528251808303909101815260649091019091526020810180516001600160e01b031663a9059cbb60e01b1790526106b59084906107c9565b505050565b801580610740575060408051636eb1769f60e11b81523060048201526001600160a01b03848116602483015291519185169163dd62ed3e91604480820192602092909190829003018186803b15801561071257600080fd5b505afa158015610726573d6000803e3d6000fd5b505050506040513d602081101561073c57600080fd5b5051155b61077b5760405162461bcd60e51b8152600401808060200182810382526036815260200180610b306036913960400191505060405180910390fd5b604080516001600160a01b038416602482015260448082018490528251808303909101815260649091019091526020810180516001600160e01b031663095ea7b360e01b1790526106b59084905b606061081e826040518060400160405280602081526020017f5361666545524332303a206c6f772d6c6576656c2063616c6c206661696c6564815250856001600160a01b031661087a9092919063ffffffff16565b8051909150156106b55780806020019051602081101561083d57600080fd5b50516106b55760405162461bcd60e51b815260040180806020018281038252602a815260200180610b06602a913960400191505060405180910390fd5b60606108898484600085610893565b90505b9392505050565b6060824710156108d45760405162461bcd60e51b8152600401808060200182810382526026815260200180610ac06026913960400191505060405180910390fd5b6108dd856109ef565b61092e576040805162461bcd60e51b815260206004820152601d60248201527f416464726573733a2063616c6c20746f206e6f6e2d636f6e7472616374000000604482015290519081900360640190fd5b60006060866001600160a01b031685876040518082805190602001908083835b6020831061096d5780518252601f19909201916020918201910161094e565b6001836020036101000a03801982511681845116808217855250505050505090500191505060006040518083038185875af1925050503d80600081146109cf576040519150601f19603f3d011682016040523d82523d6000602084013e6109d4565b606091505b50915091506109e48282866109f5565b979650505050505050565b3b151590565b60608315610a0457508161088c565b825115610a145782518084602001fd5b8160405162461bcd60e51b81526004018080602001828103825283818151815260200191508051906020019080838360005b83811015610a5e578181015183820152602001610a46565b50505050905090810190601f168015610a8b5780820380516001836020036101000a031916815260200191505b509250505060405180910390fdfe4f776e61626c653a206e6577206f776e657220697320746865207a65726f2061646472657373416464726573733a20696e73756666696369656e742062616c616e636520666f722063616c6c4f776e61626c653a2063616c6c6572206973206e6f7420746865206f776e65725361666545524332303a204552433230206f7065726174696f6e20646964206e6f7420737563636565645361666545524332303a20617070726f76652066726f6d206e6f6e2d7a65726f20746f206e6f6e2d7a65726f20616c6c6f77616e6365a26469706673582212208be1625def1fed2bcea30180ce927a25cea36175f4315e9376842e40f6c447be64736f6c634300060c0033",
  "linkReferences": {},
  "deployedLinkReferences": {}
}