{
  "_format": "hh-sol-artifact-1",
  "contractName": "Arbitrager",
  "sourceName": "contracts/test/Arbitrager.sol",
  "abi": [
    {
      "anonymous": false,
      "inputs": [
        {
          "indexed": true,
          "internalType": "address",
          "name": "previousOwner",
          "type": "address"
        },
        {
          "indexed": true,
          "internalType": "address",
          "name": "newOwner",
          "type": "address"
        }
      ],
      "name": "OwnershipTransferred",
      "type": "event"
    },
    {
      "inputs": [
        {
          "internalType": "uint256",
          "name": "amount",
          "type": "uint256"
        },
        {
          "internalType": "contract IERC20",
          "name": "arbToken",
          "type": "address"
        },
        {
          "internalType": "contract IERC20",
          "name": "pairToken",
          "type": "address"
        },
        {
          "internalType": "contract IBaseAdapter",
          "name": "sellAdapter",
          "type": "address"
        },
        {
          "internalType": "contract IBaseAdapter",
          "name": "buyAdapter",
          "type": "address"
        }
      ],
      "name": "arbitrage",
      "outputs": [],
      "stateMutability": "nonpayable",
      "type": "function"
    },
    {
      "inputs": [
        {
          "internalType": "address",
          "name": "lender",
          "type": "address"
        },
        {
          "internalType": "uint256",
          "name": "amount",
          "type": "uint256"
        },
        {
          "internalType": "contract IERC20",
          "name": "loanToken",
          "type": "address"
        },
        {
          "internalType": "contract IERC20",
          "name": "pairToken",
          "type": "address"
        },
        {
          "internalType": "contract IBaseAdapter",
          "name": "sellAdapter",
          "type": "address"
        },
        {
          "internalType": "contract IBaseAdapter",
          "name": "buyAdapter",
          "type": "address"
        }
      ],
      "name": "arbitrageLoan",
      "outputs": [],
      "stateMutability": "nonpayable",
      "type": "function"
    },
    {
      "inputs": [],
      "name": "owner",
      "outputs": [
        {
          "internalType": "address",
          "name": "",
          "type": "address"
        }
      ],
      "stateMutability": "view",
      "type": "function"
    },
    {
      "inputs": [],
      "name": "renounceOwnership",
      "outputs": [],
      "stateMutability": "nonpayable",
      "type": "function"
    },
    {
      "inputs": [
        {
          "internalType": "address",
          "name": "newOwner",
          "type": "address"
        }
      ],
      "name": "transferOwnership",
      "outputs": [],
      "stateMutability": "nonpayable",
      "type": "function"
    },
    {
      "inputs": [
        {
          "internalType": "contract IERC20",
          "name": "token",
          "type": "address"
        }
      ],
      "name": "withdraw",
      "outputs": [],
      "stateMutability": "nonpayable",
      "type": "function"
    }
  ],
  "bytecode": "0x608060405234801561001057600080fd5b50600061001b61006a565b600080546001600160a01b0319166001600160a01b0383169081178255604051929350917f8be0079c531659141344cd1fd0a4f28419497f9722a3daafe3b4186f6b6457e0908290a35061006e565b3390565b610bbf8061007d6000396000f3fe608060405234801561001057600080fd5b50600436106100725760003560e01c8063976abbeb11610050578063976abbeb146100cb578063bfdc643f14610117578063f2fde38b1461015b57610072565b806351cff8d914610077578063715018a61461009f5780638da5cb5b146100a7575b600080fd5b61009d6004803603602081101561008d57600080fd5b50356001600160a01b0316610181565b005b61009d6101f7565b6100af6102ab565b604080516001600160a01b039092168252519081900360200190f35b61009d600480360360c08110156100e157600080fd5b506001600160a01b03813581169160208101359160408201358116916060810135821691608082013581169160a00135166102ba565b61009d600480360360a081101561012d57600080fd5b508035906001600160a01b0360208201358116916040810135821691606082013581169160800135166102ec565b61009d6004803603602081101561017157600080fd5b50356001600160a01b031661036a565b610189610474565b6000546001600160a01b039081169116146101eb576040805162461bcd60e51b815260206004820181905260248201527f4f776e61626c653a2063616c6c6572206973206e6f7420746865206f776e6572604482015290519081900360640190fd5b6101f481610478565b50565b6101ff610474565b6000546001600160a01b03908116911614610261576040805162461bcd60e51b815260206004820181905260248201527f4f776e61626c653a2063616c6c6572206973206e6f7420746865206f776e6572604482015290519081900360640190fd5b600080546040516001600160a01b03909116907f8be0079c531659141344cd1fd0a4f28419497f9722a3daafe3b4186f6b6457e0908390a3600080546001600160a01b0319169055565b6000546001600160a01b031690565b6102c78585858585610506565b6102db6001600160a01b03851687876106bb565b6102e484610478565b505050505050565b6102f4610474565b6000546001600160a01b03908116911614610356576040805162461bcd60e51b815260206004820181905260248201527f4f776e61626c653a2063616c6c6572206973206e6f7420746865206f776e6572604482015290519081900360640190fd5b6103638585858585610506565b5050505050565b610372610474565b6000546001600160a01b039081169116146103d4576040805162461bcd60e51b815260206004820181905260248201527f4f776e61626c653a2063616c6c6572206973206e6f7420746865206f776e6572604482015290519081900360640190fd5b6001600160a01b0381166104195760405162461bcd60e51b8152600401808060200182810382526026815260200180610b086026913960400191505060405180910390fd5b600080546040516001600160a01b03808516939216917f8be0079c531659141344cd1fd0a4f28419497f9722a3daafe3b4186f6b6457e091a3600080546001600160a01b0319166001600160a01b0392909216919091179055565b3390565b6101f46104836102ab565b604080516370a0823160e01b815230600482015290516001600160a01b038516916370a08231916024808301926020929190829003018186803b1580156104c957600080fd5b505afa1580156104dd573d6000803e3d6000fd5b505050506040513d60208110156104f357600080fd5b50516001600160a01b03841691906106bb565b61051a6001600160a01b0385168387610712565b6040805163230f11c760e01b8152600481018790526000602482018190526001600160a01b0387811660448401528681166064840152306084840181905260a484015292519285169263230f11c79260c480820193929182900301818387803b15801561058657600080fd5b505af115801561059a573d6000803e3d6000fd5b505050506000836001600160a01b03166370a08231306040518263ffffffff1660e01b815260040180826001600160a01b0316815260200191505060206040518083038186803b1580156105ed57600080fd5b505afa158015610601573d6000803e3d6000fd5b505050506040513d602081101561061757600080fd5b5051905061062f6001600160a01b0385168383610712565b6040805163230f11c760e01b8152600481018390526000602482018190526001600160a01b0387811660448401528881166064840152306084840181905260a484015292519285169263230f11c79260c480820193929182900301818387803b15801561069b57600080fd5b505af11580156106af573d6000803e3d6000fd5b50505050505050505050565b604080516001600160a01b038416602482015260448082018490528251808303909101815260649091019091526020810180516001600160e01b031663a9059cbb60e01b17905261070d908490610821565b505050565b801580610798575060408051636eb1769f60e11b81523060048201526001600160a01b03848116602483015291519185169163dd62ed3e91604480820192602092909190829003018186803b15801561076a57600080fd5b505afa15801561077e573d6000803e3d6000fd5b505050506040513d602081101561079457600080fd5b5051155b6107d35760405162461bcd60e51b8152600401808060200182810382526036815260200180610b546036913960400191505060405180910390fd5b604080516001600160a01b038416602482015260448082018490528251808303909101815260649091019091526020810180516001600160e01b031663095ea7b360e01b17905261070d9084905b6060610876826040518060400160405280602081526020017f5361666545524332303a206c6f772d6c6576656c2063616c6c206661696c6564815250856001600160a01b03166108e89092919063ffffffff16565b80519091501561070d5780806020019051602081101561089557600080fd5b505161070d576040805162461bcd60e51b815260206004820152601360248201527f5361666545524332303a20217375636365737300000000000000000000000000604482015290519081900360640190fd5b60606108f78484600085610901565b90505b9392505050565b6060824710156109425760405162461bcd60e51b8152600401808060200182810382526026815260200180610b2e6026913960400191505060405180910390fd5b61094b85610a5d565b61099c576040805162461bcd60e51b815260206004820152601d60248201527f416464726573733a2063616c6c20746f206e6f6e2d636f6e7472616374000000604482015290519081900360640190fd5b60006060866001600160a01b031685876040518082805190602001908083835b602083106109db5780518252601f1990920191602091820191016109bc565b6001836020036101000a03801982511681845116808217855250505050505090500191505060006040518083038185875af1925050503d8060008114610a3d576040519150601f19603f3d011682016040523d82523d6000602084013e610a42565b606091505b5091509150610a52828286610a63565b979650505050505050565b3b151590565b60608315610a725750816108fa565b825115610a825782518084602001fd5b8160405162461bcd60e51b81526004018080602001828103825283818151815260200191508051906020019080838360005b83811015610acc578181015183820152602001610ab4565b50505050905090810190601f168015610af95780820380516001836020036101000a031916815260200191505b509250505060405180910390fdfe4f776e61626c653a206e6577206f776e657220697320746865207a65726f2061646472657373416464726573733a20696e73756666696369656e742062616c616e636520666f722063616c6c5361666545524332303a20617070726f76652066726f6d206e6f6e2d7a65726f20746f206e6f6e2d7a65726f20616c6c6f77616e6365a26469706673582212204b1b97e5bd1cf76a1a3a1abc85ad1974ae318e2f5ccacc258cf58e7818a2d82c64736f6c634300060c0033",
  "linkReferences": {},
  "deployedLinkReferences": {}
}