{
  "_format": "hh-sol-artifact-1",
  "contractName": "YEarnV2Estimator",
  "sourceName": "contracts/oracles/estimators/YEarnV2Estimator.sol",
  "abi": [
    {
      "inputs": [
        {
          "internalType": "uint256",
          "name": "balance",
          "type": "uint256"
        },
        {
          "internalType": "address",
          "name": "token",
          "type": "address"
        }
      ],
      "name": "estimateItem",
      "outputs": [
        {
          "internalType": "int256",
          "name": "",
          "type": "int256"
        }
      ],
      "stateMutability": "view",
      "type": "function"
    }
  ],
  "bytecode": "0x608060405234801561001057600080fd5b506103f5806100206000396000f3fe608060405234801561001057600080fd5b506004361061002b5760003560e01c8063b44a043b14610030575b600080fd5b61005c6004803603604081101561004657600080fd5b50803590602001356001600160a01b031661006e565b60408051918252519081900360200190f35b600080826001600160a01b031663fc0c546a6040518163ffffffff1660e01b815260040160206040518083038186803b1580156100aa57600080fd5b505afa1580156100be573d6000803e3d6000fd5b505050506040513d60208110156100d457600080fd5b50516040805163313ce56760e01b815290519192506000916101d4916001600160a01b0385169163313ce56791600480820192602092909190829003018186803b15801561012157600080fd5b505afa158015610135573d6000803e3d6000fd5b505050506040513d602081101561014b57600080fd5b505160408051634ca9858360e11b8152905160ff909216600a0a916101ce916001600160a01b038916916399530b0691600480820192602092909190829003018186803b15801561019b57600080fd5b505afa1580156101af573d6000803e3d6000fd5b505050506040513d60208110156101c557600080fd5b50518890610262565b906102c2565b9050336001600160a01b031663b44a043b82846040518363ffffffff1660e01b815260040180838152602001826001600160a01b031681526020019250505060206040518083038186803b15801561022b57600080fd5b505afa15801561023f573d6000803e3d6000fd5b505050506040513d602081101561025557600080fd5b5051925050505b92915050565b6000826102715750600061025c565b8282028284828161027e57fe5b04146102bb5760405162461bcd60e51b815260040180806020018281038252602181526020018061039f6021913960400191505060405180910390fd5b9392505050565b60006102bb83836040518060400160405280601a815260200179536166654d6174683a206469766973696f6e206279207a65726f60301b815250600081836103885760405162461bcd60e51b81526004018080602001828103825283818151815260200191508051906020019080838360005b8381101561034d578181015183820152602001610335565b50505050905090810190601f16801561037a5780820380516001836020036101000a031916815260200191505b509250505060405180910390fd5b50600083858161039457fe5b049594505050505056fe536166654d6174683a206d756c7469706c69636174696f6e206f766572666c6f77a2646970667358221220589e37502d7c82a6932dfbf0fdb922fdf4781e672a657095dda8cb90d55b21ab64736f6c634300060c0033",
  "linkReferences": {},
  "deployedLinkReferences": {}
}