{
  "_format": "hh-sol-artifact-1",
  "contractName": "YEarnV2Estimator",
  "sourceName": "contracts/oracles/estimators/YEarnV2Estimator.sol",
  "abi": [
    {
      "inputs": [
        {
          "internalType": "contract IStrategy",
          "name": "strategy",
          "type": "address"
        },
        {
          "internalType": "address",
          "name": "token",
          "type": "address"
        }
      ],
      "name": "estimateItem",
      "outputs": [
        {
          "internalType": "int256",
          "name": "",
          "type": "int256"
        }
      ],
      "stateMutability": "view",
      "type": "function"
    },
    {
      "inputs": [
        {
          "internalType": "contract IStrategy",
          "name": "strategy",
          "type": "address"
        },
        {
          "internalType": "address",
          "name": "token",
          "type": "address"
        },
        {
          "internalType": "uint256",
          "name": "balance",
          "type": "uint256"
        }
      ],
      "name": "estimateItem",
      "outputs": [
        {
          "internalType": "int256",
          "name": "",
          "type": "int256"
        }
      ],
      "stateMutability": "view",
      "type": "function"
    }
  ],
  "bytecode": "0x608060405234801561001057600080fd5b506103fc806100206000396000f3fe608060405234801561001057600080fd5b50600436106100365760003560e01c80632a58188a1461003b578063ecb1927e1461007b575b600080fd5b6100696004803603604081101561005157600080fd5b506001600160a01b03813581169160200135166100b1565b60408051918252519081900360200190f35b6100696004803603606081101561009157600080fd5b506001600160a01b03813581169160208101359091169060400135610144565b600080826001600160a01b03166370a08231856040518263ffffffff1660e01b815260040180826001600160a01b0316815260200191505060206040518083038186803b15801561010157600080fd5b505afa158015610115573d6000803e3d6000fd5b505050506040513d602081101561012b57600080fd5b5051905061013a848483610144565b9150505b92915050565b600080836001600160a01b031663fc0c546a6040518163ffffffff1660e01b815260040160206040518083038186803b15801561018057600080fd5b505afa158015610194573d6000803e3d6000fd5b505050506040513d60208110156101aa57600080fd5b50516040805163313ce56760e01b815290519192506000916001600160a01b0387169163313ce567916004808301926020929190829003018186803b1580156101f257600080fd5b505afa158015610206573d6000803e3d6000fd5b505050506040513d602081101561021c57600080fd5b505160408051634ca9858360e11b8152905160ff909216600a0a9161029f916001600160a01b038916916399530b0691600480820192602092909190829003018186803b15801561026c57600080fd5b505afa158015610280573d6000803e3d6000fd5b505050506040513d602081101561029657600080fd5b50518690610345565b816102a657fe5b049050336001600160a01b031663ecb1927e8784846040518463ffffffff1660e01b815260040180846001600160a01b03168152602001836001600160a01b03168152602001828152602001935050505060206040518083038186803b15801561030f57600080fd5b505afa158015610323573d6000803e3d6000fd5b505050506040513d602081101561033957600080fd5b50519695505050505050565b6000826103545750600061013e565b8282028284828161036157fe5b041461039e5760405162461bcd60e51b81526004018080602001828103825260218152602001806103a66021913960400191505060405180910390fd5b939250505056fe536166654d6174683a206d756c7469706c69636174696f6e206f766572666c6f77a2646970667358221220e6fba89f1be7d5b8c81ef5fb76a9cfaa8cc7728cdddd4490df2d302a935d3dd764736f6c634300060c0033",
  "linkReferences": {},
  "deployedLinkReferences": {}
}