{
    "_format": "hh-sol-artifact-1",
    "contractName": "UniswapV3Adapter",
    "sourceName": "contracts/adapters/exchanges/UniswapV3Adapter.sol",
    "abi": [
        {
            "inputs": [
                {
                    "internalType": "address",
                    "name": "registry_",
                    "type": "address"
                },
                {
                    "internalType": "address",
                    "name": "factory_",
                    "type": "address"
                },
                {
                    "internalType": "address",
                    "name": "router_",
                    "type": "address"
                },
                {
                    "internalType": "address",
                    "name": "weth_",
                    "type": "address"
                }
            ],
            "stateMutability": "nonpayable",
            "type": "constructor"
        },
        {
            "inputs": [],
            "name": "factory",
            "outputs": [
                {
                    "internalType": "contract IUniswapV3Factory",
                    "name": "",
                    "type": "address"
                }
            ],
            "stateMutability": "view",
            "type": "function"
        },
        {
            "inputs": [],
            "name": "registry",
            "outputs": [
                {
                    "internalType": "contract IUniswapV3Registry",
                    "name": "",
                    "type": "address"
                }
            ],
            "stateMutability": "view",
            "type": "function"
        },
        {
            "inputs": [],
            "name": "router",
            "outputs": [
                {
                    "internalType": "contract ISwapRouter",
                    "name": "",
                    "type": "address"
                }
            ],
            "stateMutability": "view",
            "type": "function"
        },
        {
            "inputs": [
                {
                    "internalType": "uint256",
                    "name": "amount",
                    "type": "uint256"
                },
                {
                    "internalType": "address",
                    "name": "tokenIn",
                    "type": "address"
                },
                {
                    "internalType": "address",
                    "name": "tokenOut",
                    "type": "address"
                }
            ],
            "name": "spotPrice",
            "outputs": [
                {
                    "internalType": "uint256",
                    "name": "",
                    "type": "uint256"
                }
            ],
            "stateMutability": "view",
            "type": "function"
        },
        {
            "inputs": [
                {
                    "internalType": "uint256",
                    "name": "amount",
                    "type": "uint256"
                },
                {
                    "internalType": "uint256",
                    "name": "expected",
                    "type": "uint256"
                },
                {
                    "internalType": "address",
                    "name": "tokenIn",
                    "type": "address"
                },
                {
                    "internalType": "address",
                    "name": "tokenOut",
                    "type": "address"
                },
                {
                    "internalType": "address",
                    "name": "from",
                    "type": "address"
                },
                {
                    "internalType": "address",
                    "name": "to",
                    "type": "address"
                }
            ],
            "name": "swap",
            "outputs": [],
            "stateMutability": "nonpayable",
            "type": "function"
        },
        {
            "inputs": [],
            "name": "weth",
            "outputs": [
                {
                    "internalType": "address",
                    "name": "",
                    "type": "address"
                }
            ],
            "stateMutability": "view",
            "type": "function"
        }
    ],
    "bytecode": "0x6101006040523480156200001257600080fd5b506040516200136d3803806200136d833981016040819052620000359162000081565b6001600160601b0319606091821b811660805293811b841660c05291821b831660a052901b1660e052620000dd565b80516001600160a01b03811681146200007c57600080fd5b919050565b6000806000806080858703121562000097578384fd5b620000a28562000064565b9350620000b26020860162000064565b9250620000c26040860162000064565b9150620000d26060860162000064565b905092959194509250565b60805160601c60a05160601c60c05160601c60e05160601c61123562000138600039806101415280610168528061058b5250806101c152806103895280610543525080610358528061056752508061030f52506112356000f3fe608060405234801561001057600080fd5b50600436106100625760003560e01c8063230f11c7146100675780633fc8cef31461007c57806377ec159d1461009a5780637b103999146100ba578063c45a0155146100c2578063f887ea40146100ca575b600080fd5b61007a610075366004610ffd565b6100d2565b005b61008461030d565b604051610091919061106c565b60405180910390f35b6100ad6100a8366004610fbc565b610331565b6040516100919190611158565b610084610541565b610084610565565b610084610589565b826001600160a01b0316846001600160a01b0316141561010d5760405162461bcd60e51b8152600401610104906110c2565b60405180910390fd5b6001600160a01b0382163014610132576101326001600160a01b0385168330896105ad565b6101666001600160a01b0385167f00000000000000000000000000000000000000000000000000000000000000008861060d565b7f00000000000000000000000000000000000000000000000000000000000000006001600160a01b031663414bf389604051806101000160405280876001600160a01b03168152602001866001600160a01b031681526020017f00000000000000000000000000000000000000000000000000000000000000006001600160a01b031663fee9989889896040518363ffffffff1660e01b815260040161020d929190611080565b60206040518083038186803b15801561022557600080fd5b505afa158015610239573d6000803e3d6000fd5b505050506040513d601f19601f8201168201806040525081019061025d9190610f81565b62ffffff168152602001846001600160a01b0316815260200142815260200189815260200188815260200160006001600160a01b03168152506040518263ffffffff1660e01b81526004016102b291906110ef565b602060405180830381600087803b1580156102cc57600080fd5b505af11580156102e0573d6000803e3d6000fd5b505050506040513d601f19601f820116820180604052508101906103049190610fa4565b50505050505050565b7f000000000000000000000000000000000000000000000000000000000000000081565b6000816001600160a01b0316836001600160a01b0316141561035457508261053a565b60007f00000000000000000000000000000000000000000000000000000000000000006001600160a01b0316631698ee8285857f00000000000000000000000000000000000000000000000000000000000000006001600160a01b031663fee9989889896040518363ffffffff1660e01b81526004016103d5929190611080565b60206040518083038186803b1580156103ed57600080fd5b505afa158015610401573d6000803e3d6000fd5b505050506040513d601f19601f820116820180604052508101906104259190610f81565b6040518463ffffffff1660e01b81526004016104439392919061109a565b60206040518083038186803b15801561045b57600080fd5b505afa15801561046f573d6000803e3d6000fd5b505050506040513d601f19601f820116820180604052508101906104939190610ec5565b90506001600160a01b03811615610534576000816001600160a01b0316633850c7bd6040518163ffffffff1660e01b815260040160e06040518083038186803b1580156104df57600080fd5b505afa1580156104f3573d6000803e3d6000fd5b505050506040513d601f19601f820116820180604052508101906105179190610ee1565b505050505091505061052b81878787610725565b9250505061053a565b60009150505b9392505050565b7f000000000000000000000000000000000000000000000000000000000000000081565b7f000000000000000000000000000000000000000000000000000000000000000081565b7f000000000000000000000000000000000000000000000000000000000000000081565b604080516001600160a01b0380861660248301528416604482015260648082018490528251808303909101815260849091019091526020810180516001600160e01b03166323b872dd60e01b179052610607908590610817565b50505050565b801580610693575060408051636eb1769f60e11b81523060048201526001600160a01b03848116602483015291519185169163dd62ed3e91604480820192602092909190829003018186803b15801561066557600080fd5b505afa158015610679573d6000803e3d6000fd5b505050506040513d602081101561068f57600080fd5b5051155b6106ce5760405162461bcd60e51b81526004018080602001828103825260368152602001806111ca6036913960400191505060405180910390fd5b604080516001600160a01b038416602482015260448082018490528251808303909101815260649091019091526020810180516001600160e01b031663095ea7b360e01b179052610720908490610817565b505050565b600080610731866108c8565b90506001600160801b036001600160a01b038216116107a0576001600160a01b03808216800290848116908616106107805761077b600160c01b876001600160801b031683610bef565b610798565b61079881876001600160801b0316600160c01b610bef565b92505061080e565b60006107ba6001600160a01b03831680600160401b610bef565b9050836001600160a01b0316856001600160a01b0316106107f2576107ed600160801b876001600160801b031683610bef565b61080a565b61080a81876001600160801b0316600160801b610bef565b9250505b50949350505050565b600061086c826040518060400160405280602081526020017f5361666545524332303a206c6f772d6c6576656c2063616c6c206661696c6564815250856001600160a01b0316610c9e9092919063ffffffff16565b8051909150156107205780806020019051602081101561088b57600080fd5b50516107205760405162461bcd60e51b815260040180806020018281038252602a8152602001806111a0602a913960400191505060405180910390fd5b60008060008360020b126108df578260020b6108e7565b8260020b6000035b9050620d89e8811115610925576040805162461bcd60e51b81526020600482015260016024820152601560fa1b604482015290519081900360640190fd5b60006001821661093957600160801b61094b565b6ffffcb933bd6fad37aa2d162d1a5940015b6001600160881b031690506002821615610975576ffff97272373d413259a46990580e213a0260801c5b6004821615610994576ffff2e50f5f656932ef12357cf3c7fdcc0260801c5b60088216156109b3576fffe5caca7e10e4e61c3624eaa0941cd00260801c5b60108216156109d2576fffcb9843d60f6159c9db58835c9266440260801c5b60208216156109f1576fff973b41fa98c081472e6896dfb254c00260801c5b6040821615610a10576fff2ea16466c96a3843ec78b326b528610260801c5b6080821615610a2f576ffe5dee046a99a2a811c461f1969c30530260801c5b610100821615610a4f576ffcbe86c7900a88aedcffc83b479aa3a40260801c5b610200821615610a6f576ff987a7253ac413176f2b074cf7815e540260801c5b610400821615610a8f576ff3392b0822b70005940c7a398e4b70f30260801c5b610800821615610aaf576fe7159475a2c29b7443b29c7fa6e889d90260801c5b611000821615610acf576fd097f3bdfd2022b8845ad8f792aa58250260801c5b612000821615610aef576fa9f746462d870fdf8a65dc1f90e061e50260801c5b614000821615610b0f576f70d869a156d2a1b890bb3df62baf32f70260801c5b618000821615610b2f576f31be135f97d08fd981231505542fcfa60260801c5b62010000821615610b50576f09aa508b5b7a84e1c677de54f3e99bc90260801c5b62020000821615610b70576e5d6af8dedb81196699c329225ee6040260801c5b62040000821615610b8f576d2216e584f5fa1ea926041bedfe980260801c5b62080000821615610bac576b048a170391f7dc42444e8fa20260801c5b60008460020b1315610bc7578060001981610bc357fe5b0490505b600160201b810615610bda576001610bdd565b60005b60ff16602082901c0192505050919050565b6000808060001985870986860292508281109083900303905080610c255760008411610c1a57600080fd5b50829004905061053a565b808411610c3157600080fd5b6000848688096000868103871696879004966002600389028118808a02820302808a02820302808a02820302808a02820302808a02820302808a02909103029181900381900460010186841190950394909402919094039290920491909117919091029150509392505050565b6060610cad8484600085610cb5565b949350505050565b606082471015610cf65760405162461bcd60e51b815260040180806020018281038252602681526020018061117a6026913960400191505060405180910390fd5b610cff85610e05565b610d50576040805162461bcd60e51b815260206004820152601d60248201527f416464726573733a2063616c6c20746f206e6f6e2d636f6e7472616374000000604482015290519081900360640190fd5b600080866001600160a01b031685876040518082805190602001908083835b60208310610d8e5780518252601f199092019160209182019101610d6f565b6001836020036101000a03801982511681845116808217855250505050505090500191505060006040518083038185875af1925050503d8060008114610df0576040519150601f19603f3d011682016040523d82523d6000602084013e610df5565b606091505b509150915061080a828286610e0f565b803b15155b919050565b60608315610e1e57508161053a565b825115610e2e5782518084602001fd5b8160405162461bcd60e51b81526004018080602001828103825283818151815260200191508051906020019080838360005b83811015610e78578181015183820152602001610e60565b50505050905090810190601f168015610ea55780820380516001836020036101000a031916815260200191505b509250505060405180910390fd5b805161ffff81168114610e0a57600080fd5b600060208284031215610ed6578081fd5b815161053a81611161565b600080600080600080600060e0888a031215610efb578283fd5b8751610f0681611161565b8097505060208801518060020b8114610f1d578384fd5b9550610f2b60408901610eb3565b9450610f3960608901610eb3565b9350610f4760808901610eb3565b925060a088015160ff81168114610f5c578283fd5b60c08901519092508015158114610f71578182fd5b8091505092959891949750929550565b600060208284031215610f92578081fd5b815162ffffff8116811461053a578182fd5b600060208284031215610fb5578081fd5b5051919050565b600080600060608486031215610fd0578283fd5b833592506020840135610fe281611161565b91506040840135610ff281611161565b809150509250925092565b60008060008060008060c08789031215611015578182fd5b8635955060208701359450604087013561102e81611161565b9350606087013561103e81611161565b9250608087013561104e81611161565b915060a087013561105e81611161565b809150509295509295509295565b6001600160a01b0391909116815260200190565b6001600160a01b0392831681529116602082015260400190565b6001600160a01b03938416815291909216602082015262ffffff909116604082015260600190565b6020808252601390820152720a8ded6cadce640c6c2dcdcdee840dac2e8c6d606b1b604082015260600190565b81516001600160a01b03908116825260208084015182169083015260408084015162ffffff16908301526060808401518216908301526080808401519083015260a0838101519083015260c0808401519083015260e09283015116918101919091526101000190565b90815260200190565b6001600160a01b038116811461117657600080fd5b5056fe416464726573733a20696e73756666696369656e742062616c616e636520666f722063616c6c5361666545524332303a204552433230206f7065726174696f6e20646964206e6f7420737563636565645361666545524332303a20617070726f76652066726f6d206e6f6e2d7a65726f20746f206e6f6e2d7a65726f20616c6c6f77616e6365a2646970667358221220965d43dac593691f8061cc21832fe6d3b3f05cd4f2edbeb5b9ef7360a7af423964736f6c63430007060033",
    "linkReferences": {},
    "deployedLinkReferences": {}
}