{
  "_format": "hh-sol-artifact-1",
  "contractName": "EnsoStakingAdapter",
  "sourceName": "contracts/adapters/staking/EnsoStakingAdapter.sol",
  "abi": [
    {
      "inputs": [
        {
          "internalType": "address",
          "name": "staking_",
          "type": "address"
        },
        {
          "internalType": "address",
          "name": "stakedToken_",
          "type": "address"
        },
        {
          "internalType": "address",
          "name": "distributionToken_",
          "type": "address"
        },
        {
          "internalType": "address",
          "name": "weth_",
          "type": "address"
        }
      ],
      "stateMutability": "nonpayable",
      "type": "constructor"
    },
    {
      "anonymous": false,
      "inputs": [
        {
          "indexed": false,
          "internalType": "address",
          "name": "from",
          "type": "address"
        },
        {
          "indexed": false,
          "internalType": "address",
          "name": "to",
          "type": "address"
        },
        {
          "indexed": false,
          "internalType": "address",
          "name": "token",
          "type": "address"
        },
        {
          "indexed": false,
          "internalType": "uint256",
          "name": "amount",
          "type": "uint256"
        }
      ],
      "name": "RewardsClaimed",
      "type": "event"
    },
    {
      "inputs": [
        {
          "internalType": "address",
          "name": "token",
          "type": "address"
        }
      ],
      "name": "claim",
      "outputs": [],
      "stateMutability": "nonpayable",
      "type": "function"
    },
    {
      "inputs": [],
      "name": "distributionToken",
      "outputs": [
        {
          "internalType": "address",
          "name": "",
          "type": "address"
        }
      ],
      "stateMutability": "view",
      "type": "function"
    },
    {
      "inputs": [],
      "name": "stakedToken",
      "outputs": [
        {
          "internalType": "address",
          "name": "",
          "type": "address"
        }
      ],
      "stateMutability": "view",
      "type": "function"
    },
    {
      "inputs": [],
      "name": "staking",
      "outputs": [
        {
          "internalType": "address",
          "name": "",
          "type": "address"
        }
      ],
      "stateMutability": "view",
      "type": "function"
    },
    {
      "inputs": [
        {
          "internalType": "uint256",
          "name": "amount",
          "type": "uint256"
        },
        {
          "internalType": "uint256",
          "name": "expected",
          "type": "uint256"
        },
        {
          "internalType": "address",
          "name": "tokenIn",
          "type": "address"
        },
        {
          "internalType": "address",
          "name": "tokenOut",
          "type": "address"
        },
        {
          "internalType": "address",
          "name": "from",
          "type": "address"
        },
        {
          "internalType": "address",
          "name": "to",
          "type": "address"
        }
      ],
      "name": "swap",
      "outputs": [],
      "stateMutability": "nonpayable",
      "type": "function"
    },
    {
      "inputs": [],
      "name": "weth",
      "outputs": [
        {
          "internalType": "address",
          "name": "",
          "type": "address"
        }
      ],
      "stateMutability": "view",
      "type": "function"
    }
  ],
  "bytecode": "0x61010060405234801561001157600080fd5b506040516113843803806113848339818101604052608081101561003457600080fd5b508051602082015160408301516060938401516001600160601b031990851b811660805292841b831660a05290831b821660c05290911b1660e05260805160601c60a05160601c60c05160601c60e05160601c6112986100ec600039806102b652806106fc5280610af852508061027c52806107365280610b1c52508061011952806101ac52806103ea528061041352806104b35280610558528061060652806108c55280610ad4525080610ab052506112986000f3fe608060405234801561001057600080fd5b50600436106100625760003560e01c80631e83409a14610067578063230f11c71461008f5780633fc8cef3146100d95780634cf088d9146100fd5780639d13906214610105578063cc7a262e1461010d575b600080fd5b61008d6004803603602081101561007d57600080fd5b50356001600160a01b0316610115565b005b61008d600480360360c08110156100a557600080fd5b508035906020810135906001600160a01b0360408201358116916060810135821691608082013581169160a0013516610216565b6100e1610aae565b604080516001600160a01b039092168252519081900360200190f35b6100e1610ad2565b6100e1610af6565b6100e1610b1a565b60007f00000000000000000000000000000000000000000000000000000000000000006001600160a01b0316634e71d92d6040518163ffffffff1660e01b8152600401602060405180830381600087803b15801561017257600080fd5b505af1158015610186573d6000803e3d6000fd5b505050506040513d602081101561019c57600080fd5b5051604080516001600160a01b037f0000000000000000000000000000000000000000000000000000000000000000811682523060208301528516818301526060810183905290519192507f5637d7f962248a7f05a7ab69eec6446e31f3d0a299d997f135a65c62806e7891919081900360800190a15050565b826001600160a01b0316846001600160a01b0316141561027a576040805162461bcd60e51b815260206004820152601a60248201527939bbb0b81d103a37b5b2b7399031b0b73737ba1036b0ba31b41760311b604482015290519081900360640190fd5b7f00000000000000000000000000000000000000000000000000000000000000006001600160a01b0316846001600160a01b031614156106fa577f00000000000000000000000000000000000000000000000000000000000000006001600160a01b0316836001600160a01b031614610336576040805162461bcd60e51b815260206004820152601960248201527839bbb0b81d1034b73b30b634b210303a37b5b2b727baba301760391b604482015290519081900360640190fd5b6001600160a01b038216301461035b5761035b6001600160a01b038516833089610b3e565b6000836001600160a01b03166370a08231836040518263ffffffff1660e01b815260040180826001600160a01b0316815260200191505060206040518083038186803b1580156103aa57600080fd5b505afa1580156103be573d6000803e3d6000fd5b505050506040513d60208110156103d457600080fd5b505190506000806104116001600160a01b0388167f0000000000000000000000000000000000000000000000000000000000000000600019610b9e565b7f00000000000000000000000000000000000000000000000000000000000000006001600160a01b0316636f1e8533856040518263ffffffff1660e01b815260040180826001600160a01b03168152602001915050602060405180830381600087803b15801561048057600080fd5b505af1158015610494573d6000803e3d6000fd5b505050506040513d60208110156104aa57600080fd5b505115610556577f00000000000000000000000000000000000000000000000000000000000000006001600160a01b03166395add8b4856104ea8c610cb6565b6040518363ffffffff1660e01b815260040180836001600160a01b03168152602001826001600160801b0316815260200192505050600060405180830381600087803b15801561053957600080fd5b505af115801561054d573d6000803e3d6000fd5b505050506105f7565b7f00000000000000000000000000000000000000000000000000000000000000006001600160a01b03166370458d858561058f8c610cb6565b6040518363ffffffff1660e01b815260040180836001600160a01b03168152602001826001600160801b0316815260200192505050600060405180830381600087803b1580156105de57600080fd5b505af11580156105f2573d6000803e3d6000fd5b505050505b61062c6001600160a01b0388167f00000000000000000000000000000000000000000000000000000000000000006000610b9e565b856001600160a01b03166370a08231856040518263ffffffff1660e01b815260040180826001600160a01b0316815260200191505060206040518083038186803b15801561067957600080fd5b505afa15801561068d573d6000803e3d6000fd5b505050506040513d60208110156106a357600080fd5b505191506106b18284610cfe565b9050878110156106f25760405162461bcd60e51b81526004018080602001828103825260228152602001806111c06022913960400191505060405180910390fd5b505050610aa6565b7f00000000000000000000000000000000000000000000000000000000000000006001600160a01b0316846001600160a01b03161415610a5c577f00000000000000000000000000000000000000000000000000000000000000006001600160a01b0316836001600160a01b0316146107b6576040805162461bcd60e51b815260206004820152601960248201527839bbb0b81d1034b73b30b634b210303a37b5b2b727baba301760391b604482015290519081900360640190fd5b600061083c6003610836876001600160a01b0316638cc5e5336040518163ffffffff1660e01b815260040160206040518083038186803b1580156107f957600080fd5b505afa15801561080d573d6000803e3d6000fd5b505050506040513d602081101561082357600080fd5b50518a9063ffffffff90811690610d4916565b90610da2565b90506000846001600160a01b03166370a08231856040518263ffffffff1660e01b815260040180826001600160a01b0316815260200191505060206040518083038186803b15801561088d57600080fd5b505afa1580156108a1573d6000803e3d6000fd5b505050506040513d60208110156108b757600080fd5b505190506001600160a01b037f0000000000000000000000000000000000000000000000000000000000000000166371e01f35856108f485610cb6565b6040518363ffffffff1660e01b815260040180836001600160a01b03168152602001826001600160801b0316815260200192505050600060405180830381600087803b15801561094357600080fd5b505af1158015610957573d6000803e3d6000fd5b505050506000856001600160a01b03166370a08231866040518263ffffffff1660e01b815260040180826001600160a01b0316815260200191505060206040518083038186803b1580156109aa57600080fd5b505afa1580156109be573d6000803e3d6000fd5b505050506040513d60208110156109d457600080fd5b5051905060006109e48284610cfe565b905088811015610a255760405162461bcd60e51b81526004018080602001828103825260228152602001806111c06022913960400191505060405180910390fd5b856001600160a01b0316856001600160a01b031614610a5357610a536001600160a01b038816878784610b3e565b50505050610aa6565b6040805162461bcd60e51b815260206004820152601a60248201527939bbb0b81d103a37b5b2b7103737ba1039bab83837b93a32b21760311b604482015290519081900360640190fd5b505050505050565b7f000000000000000000000000000000000000000000000000000000000000000081565b7f000000000000000000000000000000000000000000000000000000000000000081565b7f000000000000000000000000000000000000000000000000000000000000000081565b7f000000000000000000000000000000000000000000000000000000000000000081565b604080516001600160a01b0380861660248301528416604482015260648082018490528251808303909101815260849091019091526020810180516001600160e01b03166323b872dd60e01b179052610b98908590610de1565b50505050565b801580610c24575060408051636eb1769f60e11b81523060048201526001600160a01b03848116602483015291519185169163dd62ed3e91604480820192602092909190829003018186803b158015610bf657600080fd5b505afa158015610c0a573d6000803e3d6000fd5b505050506040513d6020811015610c2057600080fd5b5051155b610c5f5760405162461bcd60e51b815260040180806020018281038252603681526020018061122d6036913960400191505060405180910390fd5b604080516001600160a01b038416602482015260448082018490528251808303909101815260649091019091526020810180516001600160e01b031663095ea7b360e01b179052610cb1908490610de1565b505050565b6000600160801b8210610cfa5760405162461bcd60e51b81526004018080602001828103825260278152602001806111736027913960400191505060405180910390fd5b5090565b6000610d4083836040518060400160405280601e81526020017f536166654d6174683a207375627472616374696f6e206f766572666c6f770000815250610e92565b90505b92915050565b600082610d5857506000610d43565b82820282848281610d6557fe5b0414610d405760405162461bcd60e51b81526004018080602001828103825260218152602001806111e26021913960400191505060405180910390fd5b6000610d4083836040518060400160405280601a815260200179536166654d6174683a206469766973696f6e206279207a65726f60301b815250610f2e565b6060610e36826040518060400160405280602081526020017f5361666545524332303a206c6f772d6c6576656c2063616c6c206661696c6564815250856001600160a01b0316610f939092919063ffffffff16565b805190915015610cb157808060200190516020811015610e5557600080fd5b5051610cb15760405162461bcd60e51b815260040180806020018281038252602a815260200180611203602a913960400191505060405180910390fd5b60008184841115610f215760405162461bcd60e51b81526004018080602001828103825283818151815260200191508051906020019080838360005b83811015610ee6578181015183820152602001610ece565b50505050905090810190601f168015610f135780820380516001836020036101000a031916815260200191505b509250505060405180910390fd5b50508183035b9392505050565b60008183610f7d5760405162461bcd60e51b8152602060048201818152835160248401528351909283926044909101919085019080838360008315610ee6578181015183820152602001610ece565b506000838581610f8957fe5b0495945050505050565b6060610fa28484600085610faa565b949350505050565b606082471015610feb5760405162461bcd60e51b815260040180806020018281038252602681526020018061119a6026913960400191505060405180910390fd5b610ff485611106565b611045576040805162461bcd60e51b815260206004820152601d60248201527f416464726573733a2063616c6c20746f206e6f6e2d636f6e7472616374000000604482015290519081900360640190fd5b60006060866001600160a01b031685876040518082805190602001908083835b602083106110845780518252601f199092019160209182019101611065565b6001836020036101000a03801982511681845116808217855250505050505090500191505060006040518083038185875af1925050503d80600081146110e6576040519150601f19603f3d011682016040523d82523d6000602084013e6110eb565b606091505b50915091506110fb82828661110c565b979650505050505050565b3b151590565b6060831561111b575081610f27565b82511561112b5782518084602001fd5b60405162461bcd60e51b8152602060048201818152845160248401528451859391928392604401919085019080838360008315610ee6578181015183820152602001610ece56fe53616665436173743a2076616c756520646f65736e27742066697420696e203132382062697473416464726573733a20696e73756666696369656e742062616c616e636520666f722063616c6c737761703a20496e73756666696369656e7420746f6b656e4f757420616d6f756e74536166654d6174683a206d756c7469706c69636174696f6e206f766572666c6f775361666545524332303a204552433230206f7065726174696f6e20646964206e6f7420737563636565645361666545524332303a20617070726f76652066726f6d206e6f6e2d7a65726f20746f206e6f6e2d7a65726f20616c6c6f77616e6365a2646970667358221220782897380d0ce1c7a75b2e45c896adff7ecd60490519201ed7d46d4269b3781364736f6c634300060c0033",
  "linkReferences": {},
  "deployedLinkReferences": {}
}