{
  "_format": "hh-sol-artifact-1",
  "contractName": "EnsoStakingAdapter",
  "sourceName": "contracts/adapters/staking/EnsoStakingAdapter.sol",
  "abi": [
    {
      "inputs": [
        {
          "internalType": "address",
          "name": "staking_",
          "type": "address"
        },
        {
          "internalType": "address",
          "name": "stakedToken_",
          "type": "address"
        },
        {
          "internalType": "address",
          "name": "distributionToken_",
          "type": "address"
        },
        {
          "internalType": "address",
          "name": "weth_",
          "type": "address"
        }
      ],
      "stateMutability": "nonpayable",
      "type": "constructor"
    },
    {
      "anonymous": false,
      "inputs": [
        {
          "indexed": false,
          "internalType": "address",
          "name": "from",
          "type": "address"
        },
        {
          "indexed": false,
          "internalType": "address",
          "name": "to",
          "type": "address"
        },
        {
          "indexed": false,
          "internalType": "address",
          "name": "token",
          "type": "address"
        },
        {
          "indexed": false,
          "internalType": "uint256",
          "name": "amount",
          "type": "uint256"
        }
      ],
      "name": "RewardsClaimed",
      "type": "event"
    },
    {
      "inputs": [
        {
          "internalType": "address",
          "name": "token",
          "type": "address"
        }
      ],
      "name": "claim",
      "outputs": [],
      "stateMutability": "nonpayable",
      "type": "function"
    },
    {
      "inputs": [],
      "name": "distributionToken",
      "outputs": [
        {
          "internalType": "address",
          "name": "",
          "type": "address"
        }
      ],
      "stateMutability": "view",
      "type": "function"
    },
    {
      "inputs": [],
      "name": "stakedToken",
      "outputs": [
        {
          "internalType": "address",
          "name": "",
          "type": "address"
        }
      ],
      "stateMutability": "view",
      "type": "function"
    },
    {
      "inputs": [],
      "name": "staking",
      "outputs": [
        {
          "internalType": "address",
          "name": "",
          "type": "address"
        }
      ],
      "stateMutability": "view",
      "type": "function"
    },
    {
      "inputs": [
        {
          "internalType": "uint256",
          "name": "amount",
          "type": "uint256"
        },
        {
          "internalType": "uint256",
          "name": "expected",
          "type": "uint256"
        },
        {
          "internalType": "address",
          "name": "tokenIn",
          "type": "address"
        },
        {
          "internalType": "address",
          "name": "tokenOut",
          "type": "address"
        },
        {
          "internalType": "address",
          "name": "from",
          "type": "address"
        },
        {
          "internalType": "address",
          "name": "to",
          "type": "address"
        }
      ],
      "name": "swap",
      "outputs": [],
      "stateMutability": "nonpayable",
      "type": "function"
    },
    {
      "inputs": [],
      "name": "weth",
      "outputs": [
        {
          "internalType": "address",
          "name": "",
          "type": "address"
        }
      ],
      "stateMutability": "view",
      "type": "function"
    }
  ],
  "bytecode": "0x61010060405234801561001157600080fd5b5060405161138f38038061138f8339818101604052608081101561003457600080fd5b508051602082015160408301516060938401516001600160601b031990851b811660805292841b831660a05290831b821660c05290911b1660e05260805160601c60a05160601c60c05160601c60e05160601c6112a36100ec600039806102b652806107d05280610c4c52508061027c528061080a5280610c7052508061011952806101ac52806103ee528061049d528061051b52806105c0528061067052806109995280610c28525080610c0452506112a36000f3fe608060405234801561001057600080fd5b50600436106100625760003560e01c80631e83409a14610067578063230f11c71461008f5780633fc8cef3146100d95780634cf088d9146100fd5780639d13906214610105578063cc7a262e1461010d575b600080fd5b61008d6004803603602081101561007d57600080fd5b50356001600160a01b0316610115565b005b61008d600480360360c08110156100a557600080fd5b508035906020810135906001600160a01b0360408201358116916060810135821691608082013581169160a0013516610216565b6100e1610c02565b604080516001600160a01b039092168252519081900360200190f35b6100e1610c26565b6100e1610c4a565b6100e1610c6e565b60007f00000000000000000000000000000000000000000000000000000000000000006001600160a01b0316634e71d92d6040518163ffffffff1660e01b8152600401602060405180830381600087803b15801561017257600080fd5b505af1158015610186573d6000803e3d6000fd5b505050506040513d602081101561019c57600080fd5b5051604080516001600160a01b037f0000000000000000000000000000000000000000000000000000000000000000811682523060208301528516818301526060810183905290519192507f5637d7f962248a7f05a7ab69eec6446e31f3d0a299d997f135a65c62806e7891919081900360800190a15050565b826001600160a01b0316846001600160a01b0316141561027a576040805162461bcd60e51b815260206004820152601a60248201527939bbb0b81d103a37b5b2b7399031b0b73737ba1036b0ba31b41760311b604482015290519081900360640190fd5b7f00000000000000000000000000000000000000000000000000000000000000006001600160a01b0316846001600160a01b031614156107ce577f00000000000000000000000000000000000000000000000000000000000000006001600160a01b0316836001600160a01b031614610336576040805162461bcd60e51b815260206004820152601960248201527839bbb0b81d1034b73b30b634b210303a37b5b2b727baba301760391b604482015290519081900360640190fd5b6001600160a01b038216301461035b5761035b6001600160a01b038516833089610c92565b6000836001600160a01b03166370a08231836040518263ffffffff1660e01b815260040180826001600160a01b0316815260200191505060206040518083038186803b1580156103aa57600080fd5b505afa1580156103be573d6000803e3d6000fd5b505050506040513d60208110156103d457600080fd5b50516040805163095ea7b360e01b81526001600160a01b037f00000000000000000000000000000000000000000000000000000000000000008116600483015260001960248301529151929350600092839289169163095ea7b391604480830192602092919082900301818787803b15801561044f57600080fd5b505af1158015610463573d6000803e3d6000fd5b505050506040513d602081101561047957600080fd5b505060408051636f1e853360e01b81526001600160a01b03868116600483015291517f000000000000000000000000000000000000000000000000000000000000000090921691636f1e8533916024808201926020929091908290030181600087803b1580156104e857600080fd5b505af11580156104fc573d6000803e3d6000fd5b505050506040513d602081101561051257600080fd5b5051156105be577f00000000000000000000000000000000000000000000000000000000000000006001600160a01b03166395add8b4856105528c610cf2565b6040518363ffffffff1660e01b815260040180836001600160a01b03168152602001826001600160801b0316815260200192505050600060405180830381600087803b1580156105a157600080fd5b505af11580156105b5573d6000803e3d6000fd5b5050505061065f565b7f00000000000000000000000000000000000000000000000000000000000000006001600160a01b03166370458d85856105f78c610cf2565b6040518363ffffffff1660e01b815260040180836001600160a01b03168152602001826001600160801b0316815260200192505050600060405180830381600087803b15801561064657600080fd5b505af115801561065a573d6000803e3d6000fd5b505050505b866001600160a01b031663095ea7b37f000000000000000000000000000000000000000000000000000000000000000060006040518363ffffffff1660e01b815260040180836001600160a01b0316815260200182815260200192505050602060405180830381600087803b1580156106d757600080fd5b505af11580156106eb573d6000803e3d6000fd5b505050506040513d602081101561070157600080fd5b5050604080516370a0823160e01b81526001600160a01b0386811660048301529151918816916370a0823191602480820192602092909190829003018186803b15801561074d57600080fd5b505afa158015610761573d6000803e3d6000fd5b505050506040513d602081101561077757600080fd5b505191506107858284610d3a565b9050878110156107c65760405162461bcd60e51b81526004018080602001828103825260228152602001806112016022913960400191505060405180910390fd5b505050610bfa565b7f00000000000000000000000000000000000000000000000000000000000000006001600160a01b0316846001600160a01b03161415610bb0577f00000000000000000000000000000000000000000000000000000000000000006001600160a01b0316836001600160a01b03161461088a576040805162461bcd60e51b815260206004820152601960248201527839bbb0b81d1034b73b30b634b210303a37b5b2b727baba301760391b604482015290519081900360640190fd5b6000610910600361090a876001600160a01b0316638cc5e5336040518163ffffffff1660e01b815260040160206040518083038186803b1580156108cd57600080fd5b505afa1580156108e1573d6000803e3d6000fd5b505050506040513d60208110156108f757600080fd5b50518a9063ffffffff90811690610d8516565b90610dde565b90506000846001600160a01b03166370a08231856040518263ffffffff1660e01b815260040180826001600160a01b0316815260200191505060206040518083038186803b15801561096157600080fd5b505afa158015610975573d6000803e3d6000fd5b505050506040513d602081101561098b57600080fd5b505190506001600160a01b037f0000000000000000000000000000000000000000000000000000000000000000166371e01f35856109c885610cf2565b6040518363ffffffff1660e01b815260040180836001600160a01b03168152602001826001600160801b0316815260200192505050600060405180830381600087803b158015610a1757600080fd5b505af1158015610a2b573d6000803e3d6000fd5b505050506000856001600160a01b03166370a08231866040518263ffffffff1660e01b815260040180826001600160a01b0316815260200191505060206040518083038186803b158015610a7e57600080fd5b505afa158015610a92573d6000803e3d6000fd5b505050506040513d6020811015610aa857600080fd5b505190506000610ab88284610d3a565b905088811015610af95760405162461bcd60e51b81526004018080602001828103825260228152602001806112016022913960400191505060405180910390fd5b856001600160a01b0316856001600160a01b031614610ba757866001600160a01b03166323b872dd8787846040518463ffffffff1660e01b815260040180846001600160a01b03168152602001836001600160a01b031681526020018281526020019350505050602060405180830381600087803b158015610b7a57600080fd5b505af1158015610b8e573d6000803e3d6000fd5b505050506040513d6020811015610ba457600080fd5b50505b50505050610bfa565b6040805162461bcd60e51b815260206004820152601a60248201527939bbb0b81d103a37b5b2b7103737ba1039bab83837b93a32b21760311b604482015290519081900360640190fd5b505050505050565b7f000000000000000000000000000000000000000000000000000000000000000081565b7f000000000000000000000000000000000000000000000000000000000000000081565b7f000000000000000000000000000000000000000000000000000000000000000081565b7f000000000000000000000000000000000000000000000000000000000000000081565b604080516001600160a01b0380861660248301528416604482015260648082018490528251808303909101815260849091019091526020810180516001600160e01b03166323b872dd60e01b179052610cec908590610e1d565b50505050565b6000600160801b8210610d365760405162461bcd60e51b81526004018080602001828103825260278152602001806111b46027913960400191505060405180910390fd5b5090565b6000610d7c83836040518060400160405280601e81526020017f536166654d6174683a207375627472616374696f6e206f766572666c6f770000815250610ed3565b90505b92915050565b600082610d9457506000610d7f565b82820282848281610da157fe5b0414610d7c5760405162461bcd60e51b81526004018080602001828103825260218152602001806112236021913960400191505060405180910390fd5b6000610d7c83836040518060400160405280601a815260200179536166654d6174683a206469766973696f6e206279207a65726f60301b815250610f6f565b6060610e72826040518060400160405280602081526020017f5361666545524332303a206c6f772d6c6576656c2063616c6c206661696c6564815250856001600160a01b0316610fd49092919063ffffffff16565b805190915015610ece57808060200190516020811015610e9157600080fd5b5051610ece5760405162461bcd60e51b815260040180806020018281038252602a815260200180611244602a913960400191505060405180910390fd5b505050565b60008184841115610f625760405162461bcd60e51b81526004018080602001828103825283818151815260200191508051906020019080838360005b83811015610f27578181015183820152602001610f0f565b50505050905090810190601f168015610f545780820380516001836020036101000a031916815260200191505b509250505060405180910390fd5b50508183035b9392505050565b60008183610fbe5760405162461bcd60e51b8152602060048201818152835160248401528351909283926044909101919085019080838360008315610f27578181015183820152602001610f0f565b506000838581610fca57fe5b0495945050505050565b6060610fe38484600085610feb565b949350505050565b60608247101561102c5760405162461bcd60e51b81526004018080602001828103825260268152602001806111db6026913960400191505060405180910390fd5b61103585611147565b611086576040805162461bcd60e51b815260206004820152601d60248201527f416464726573733a2063616c6c20746f206e6f6e2d636f6e7472616374000000604482015290519081900360640190fd5b60006060866001600160a01b031685876040518082805190602001908083835b602083106110c55780518252601f1990920191602091820191016110a6565b6001836020036101000a03801982511681845116808217855250505050505090500191505060006040518083038185875af1925050503d8060008114611127576040519150601f19603f3d011682016040523d82523d6000602084013e61112c565b606091505b509150915061113c82828661114d565b979650505050505050565b3b151590565b6060831561115c575081610f68565b82511561116c5782518084602001fd5b60405162461bcd60e51b8152602060048201818152845160248401528451859391928392604401919085019080838360008315610f27578181015183820152602001610f0f56fe53616665436173743a2076616c756520646f65736e27742066697420696e203132382062697473416464726573733a20696e73756666696369656e742062616c616e636520666f722063616c6c737761703a20496e73756666696369656e7420746f6b656e4f757420616d6f756e74536166654d6174683a206d756c7469706c69636174696f6e206f766572666c6f775361666545524332303a204552433230206f7065726174696f6e20646964206e6f742073756363656564a2646970667358221220c51a63fc713a1a7e058f7693ce8cb3d3f815786069e1eb6a0c0db24691a376e764736f6c634300060c0033",
  "linkReferences": {},
  "deployedLinkReferences": {}
}