{
  "_format": "hh-sol-artifact-1",
  "contractName": "BalancerAdapter",
  "sourceName": "contracts/adapters/exchanges/BalancerAdapter.sol",
  "abi": [
    {
      "inputs": [
        {
          "internalType": "address",
          "name": "registry_",
          "type": "address"
        },
        {
          "internalType": "address",
          "name": "weth_",
          "type": "address"
        }
      ],
      "stateMutability": "nonpayable",
      "type": "constructor"
    },
    {
      "inputs": [],
      "name": "registry",
      "outputs": [
        {
          "internalType": "contract RegistryInterface",
          "name": "",
          "type": "address"
        }
      ],
      "stateMutability": "view",
      "type": "function"
    },
    {
      "inputs": [
        {
          "internalType": "uint256",
          "name": "amount",
          "type": "uint256"
        },
        {
          "internalType": "address",
          "name": "tokenIn",
          "type": "address"
        },
        {
          "internalType": "address",
          "name": "tokenOut",
          "type": "address"
        }
      ],
      "name": "spotPrice",
      "outputs": [
        {
          "internalType": "uint256",
          "name": "",
          "type": "uint256"
        }
      ],
      "stateMutability": "view",
      "type": "function"
    },
    {
      "inputs": [
        {
          "internalType": "uint256",
          "name": "amount",
          "type": "uint256"
        },
        {
          "internalType": "uint256",
          "name": "expected",
          "type": "uint256"
        },
        {
          "internalType": "address",
          "name": "tokenIn",
          "type": "address"
        },
        {
          "internalType": "address",
          "name": "tokenOut",
          "type": "address"
        },
        {
          "internalType": "address",
          "name": "from",
          "type": "address"
        },
        {
          "internalType": "address",
          "name": "to",
          "type": "address"
        }
      ],
      "name": "swap",
      "outputs": [],
      "stateMutability": "nonpayable",
      "type": "function"
    },
    {
      "inputs": [],
      "name": "weth",
      "outputs": [
        {
          "internalType": "address",
          "name": "",
          "type": "address"
        }
      ],
      "stateMutability": "view",
      "type": "function"
    }
  ],
  "bytecode": "0x60c060405234801561001057600080fd5b506040516116143803806116148339818101604052604081101561003357600080fd5b5080516020909101516001600160601b0319606091821b811660805291901b1660a05260805160601c60a05160601c611590610084600039806101dd528061020752508061019b52506115906000f3fe608060405234801561001057600080fd5b506004361061004c5760003560e01c8063230f11c7146100515780633fc8cef31461009d57806377ec159d146100c15780637b10399914610107575b600080fd5b61009b600480360360c081101561006757600080fd5b508035906020810135906001600160a01b0360408201358116916060810135821691608082013581169160a001351661010f565b005b6100a5610199565b604080516001600160a01b039092168252519081900360200190f35b6100f5600480360360608110156100d757600080fd5b508035906001600160a01b03602082013581169160400135166101bd565b60408051918252519081900360200190f35b6100a56101db565b826001600160a01b0316846001600160a01b0316141561016c576040805162461bcd60e51b81526020600482015260136024820152720a8ded6cadce640c6c2dcdcdee840dac2e8c6d606b1b604482015290519081900360640190fd5b606061017d858589600360006101ff565b50905061018f81868686868c8c6106a2565b5050505050505050565b7f000000000000000000000000000000000000000000000000000000000000000081565b6000806101cf848487600360016101ff565b925050505b9392505050565b7f000000000000000000000000000000000000000000000000000000000000000081565b6060600060607f00000000000000000000000000000000000000000000000000000000000000006001600160a01b031663bfdbfc438989886040518463ffffffff1660e01b815260040180846001600160a01b03168152602001836001600160a01b03168152602001828152602001935050505060006040518083038186803b15801561028b57600080fd5b505afa15801561029f573d6000803e3d6000fd5b505050506040513d6000823e601f3d908101601f1916820160405260208110156102c857600080fd5b8101908080516040519392919084600160201b8211156102e757600080fd5b9083019060208201858111156102fc57600080fd5b82518660208202830111600160201b8211171561031857600080fd5b82525081516020918201928201910280838360005b8381101561034557818101518382015260200161032d565b505050509050016040525050509050606081516001600160401b038111801561036d57600080fd5b506040519080825280602002602001820160405280156103a757816020015b610394611442565b81526020019060019003908161038c5790505b5090506000805b8351811015610420576103d58b8b8684815181106103c857fe5b602002602001015161098a565b8382815181106103e157fe5b60200260200101819052506104168382815181106103fb57fe5b602002602001015160c0015183610c5a90919063ffffffff16565b91506001016103ae565b50606082516001600160401b038111801561043a57600080fd5b50604051908082528060200260200182016040528015610464578160200160208202803683370190505b5090506000805b84518110156104f0576104a8846104a287848151811061048757fe5b602002602001015160c001518e610cbb90919063ffffffff16565b90610d14565b8382815181106104b457fe5b6020026020010181815250506104e68382815181106104cf57fe5b602002602001015183610c5a90919063ffffffff16565b915060010161046b565b5089811015610547576105296105068b83610d53565b8360008151811061051357fe5b6020026020010151610c5a90919063ffffffff16565b8260008151811061053657fe5b602002602001018181525050610591565b610577610554828c610d53565b8360008151811061056157fe5b6020026020010151610d5390919063ffffffff16565b8260008151811061058457fe5b6020026020010181815250505b83516001600160401b03811180156105a857600080fd5b506040519080825280602002602001820160405280156105e257816020015b6105cf611488565b8152602001906001900390816105c75790505b50965060005b8451811015610685576040518060c0016040528086838151811061060857fe5b6020026020010151600001516001600160a01b031681526020018e6001600160a01b031681526020018d6001600160a01b0316815260200184838151811061064c57fe5b602002602001015181526020016000815260200160001981525088828151811061067257fe5b60209081029190910101526001016105e8565b5061069182858a610d95565b955050505050509550959350505050565b60006001600160a01b03851630146106c9576106c96001600160a01b038816863086610f05565b60005b8851811015610877576106dd611488565b8982815181106106e957fe5b60209081029190910181015180820151815160408051636eb1769f60e11b81523060048201526001600160a01b0380841660248301529151949650929491939085169263dd62ed3e926044808301939192829003018186803b15801561074e57600080fd5b505afa158015610762573d6000803e3d6000fd5b505050506040513d602081101561077857600080fd5b505115610797578251610797906001600160a01b038416906000610f65565b825160608401516107b2916001600160a01b03851691610f65565b60208301516060840151604080860151608087015160a08801518351638201aa3f60e01b81526001600160a01b03968716600482015260248101959095529185166044850152606484015260848301528051600093851692638201aa3f9260a480830193919282900301818787803b15801561082d57600080fd5b505af1158015610841573d6000803e3d6000fd5b505050506040513d604081101561085757600080fd5b505190506108658187610c5a565b955050600190930192506106cc915050565b50818110156108bd576040805162461bcd60e51b815260206004820152600d60248201526c11549497d31253525517d3d555609a1b604482015290519081900360640190fd5b6001600160a01b03841630146108e1576108e16001600160a01b038716858361107d565b6001600160a01b038516301461097f5761097f85886001600160a01b03166370a08231306040518263ffffffff1660e01b815260040180826001600160a01b0316815260200191505060206040518083038186803b15801561094257600080fd5b505afa158015610956573d6000803e3d6000fd5b505050506040513d602081101561096c57600080fd5b50516001600160a01b038a16919061107d565b979650505050505050565b610992611442565b60008290506000816001600160a01b031663f8b2cb4f876040518263ffffffff1660e01b815260040180826001600160a01b0316815260200191505060206040518083038186803b1580156109e657600080fd5b505afa1580156109fa573d6000803e3d6000fd5b505050506040513d6020811015610a1057600080fd5b50516040805163f8b2cb4f60e01b81526001600160a01b03888116600483015291519293506000929185169163f8b2cb4f91602480820192602092909190829003018186803b158015610a6257600080fd5b505afa158015610a76573d6000803e3d6000fd5b505050506040513d6020811015610a8c57600080fd5b505160408051634a46c67360e11b81526001600160a01b038a8116600483015291519293506000929186169163948d8ce691602480820192602092909190829003018186803b158015610ade57600080fd5b505afa158015610af2573d6000803e3d6000fd5b505050506040513d6020811015610b0857600080fd5b505160408051634a46c67360e11b81526001600160a01b038a8116600483015291519293506000929187169163948d8ce691602480820192602092909190829003018186803b158015610b5a57600080fd5b505afa158015610b6e573d6000803e3d6000fd5b505050506040513d6020811015610b8457600080fd5b505160408051631a995bed60e31b815290519192506000916001600160a01b0388169163d4cadf68916004808301926020929190829003018186803b158015610bcc57600080fd5b505afa158015610be0573d6000803e3d6000fd5b505050506040513d6020811015610bf657600080fd5b505190506000610c078486856110cf565b9050610c11611442565b506040805160e0810182526001600160a01b038b16815260208101979097528601939093526060850193909352608084015260a083019190915260c08201529150509392505050565b600082820183811015610cb2576040805162461bcd60e51b815260206004820152601b60248201527a536166654d6174683a206164646974696f6e206f766572666c6f7760281b604482015290519081900360640190fd5b90505b92915050565b600082610cca57506000610cb5565b82820282848281610cd757fe5b0414610cb25760405162461bcd60e51b81526004018080602001828103825260218152602001806114da6021913960400191505060405180910390fd5b6000610cb283836040518060400160405280601a815260200179536166654d6174683a206469766973696f6e206279207a65726f60301b81525061110e565b6000610cb283836040518060400160405280601e81526020017f536166654d6174683a207375627472616374696f6e206f766572666c6f7700008152506111b0565b6000805b8451811015610efd576000848281518110610db057fe5b6020026020010151600001516001600160a01b031663ba9530a6868481518110610dd657fe5b602002602001015160200151878581518110610dee57fe5b602002602001015160400151888681518110610e0657fe5b602002602001015160600151898781518110610e1e57fe5b6020026020010151608001518b8881518110610e3657fe5b60200260200101518a610e60578b8981518110610e4f57fe5b602002602001015160a00151610e63565b60005b6040518763ffffffff1660e01b815260040180878152602001868152602001858152602001848152602001838152602001828152602001965050505050505060206040518083038186803b158015610eba57600080fd5b505afa158015610ece573d6000803e3d6000fd5b505050506040513d6020811015610ee457600080fd5b50519050610ef28382610c5a565b925050600101610d99565b509392505050565b604080516001600160a01b0380861660248301528416604482015260648082018490528251808303909101815260849091019091526020810180516001600160e01b03166323b872dd60e01b179052610f5f90859061120a565b50505050565b801580610feb575060408051636eb1769f60e11b81523060048201526001600160a01b03848116602483015291519185169163dd62ed3e91604480820192602092909190829003018186803b158015610fbd57600080fd5b505afa158015610fd1573d6000803e3d6000fd5b505050506040513d6020811015610fe757600080fd5b5051155b6110265760405162461bcd60e51b81526004018080602001828103825260368152602001806115256036913960400191505060405180910390fd5b604080516001600160a01b038416602482015260448082018490528251808303909101815260649091019091526020810180516001600160e01b031663095ea7b360e01b17905261107890849061120a565b505050565b604080516001600160a01b038416602482015260448082018490528251808303909101815260649091019091526020810180516001600160e01b031663a9059cbb60e01b17905261107890849061120a565b6000611106670de0b6b3a76400006104a2856111006110ee878a610c5a565b6104a28a670de0b6b3a7640000610cbb565b90610cbb565b949350505050565b6000818361119a5760405162461bcd60e51b81526004018080602001828103825283818151815260200191508051906020019080838360005b8381101561115f578181015183820152602001611147565b50505050905090810190601f16801561118c5780820380516001836020036101000a031916815260200191505b509250505060405180910390fd5b5060008385816111a657fe5b0495945050505050565b600081848411156112025760405162461bcd60e51b815260206004820181815283516024840152835190928392604490910191908501908083836000831561115f578181015183820152602001611147565b505050900390565b606061125f826040518060400160405280602081526020017f5361666545524332303a206c6f772d6c6576656c2063616c6c206661696c6564815250856001600160a01b03166112bb9092919063ffffffff16565b8051909150156110785780806020019051602081101561127e57600080fd5b50516110785760405162461bcd60e51b815260040180806020018281038252602a8152602001806114fb602a913960400191505060405180910390fd5b60606111068484600085856112cf856113d6565b611320576040805162461bcd60e51b815260206004820152601d60248201527f416464726573733a2063616c6c20746f206e6f6e2d636f6e7472616374000000604482015290519081900360640190fd5b60006060866001600160a01b031685876040518082805190602001908083835b6020831061135f5780518252601f199092019160209182019101611340565b6001836020036101000a03801982511681845116808217855250505050505090500191505060006040518083038185875af1925050503d80600081146113c1576040519150601f19603f3d011682016040523d82523d6000602084013e6113c6565b606091505b509150915061097f8282866113dc565b3b151590565b606083156113eb5750816101d4565b8251156113fb5782518084602001fd5b60405162461bcd60e51b815260206004820181815284516024840152845185939192839260440191908501908083836000831561115f578181015183820152602001611147565b6040518060e0016040528060006001600160a01b031681526020016000815260200160008152602001600081526020016000815260200160008152602001600081525090565b6040518060c0016040528060006001600160a01b0316815260200160006001600160a01b0316815260200160006001600160a01b03168152602001600081526020016000815260200160008152509056fe536166654d6174683a206d756c7469706c69636174696f6e206f766572666c6f775361666545524332303a204552433230206f7065726174696f6e20646964206e6f7420737563636565645361666545524332303a20617070726f76652066726f6d206e6f6e2d7a65726f20746f206e6f6e2d7a65726f20616c6c6f77616e6365a2646970667358221220ede2f2f9d1246fb8d474693732a1bac15c00f5b028894946ee6d5edd55a217e564736f6c634300060c0033",
  "linkReferences": {},
  "deployedLinkReferences": {}
}