{
  "_format": "hh-sol-artifact-1",
  "contractName": "BalancerAdapter",
  "sourceName": "contracts/adapters/exchanges/BalancerAdapter.sol",
  "abi": [
    {
      "inputs": [
        {
          "internalType": "address",
          "name": "registry_",
          "type": "address"
        },
        {
          "internalType": "address",
          "name": "weth_",
          "type": "address"
        }
      ],
      "stateMutability": "nonpayable",
      "type": "constructor"
    },
    {
      "inputs": [],
      "name": "registry",
      "outputs": [
        {
          "internalType": "contract RegistryInterface",
          "name": "",
          "type": "address"
        }
      ],
      "stateMutability": "view",
      "type": "function"
    },
    {
      "inputs": [
        {
          "internalType": "uint256",
          "name": "amount",
          "type": "uint256"
        },
        {
          "internalType": "uint256",
          "name": "expected",
          "type": "uint256"
        },
        {
          "internalType": "address",
          "name": "tokenIn",
          "type": "address"
        },
        {
          "internalType": "address",
          "name": "tokenOut",
          "type": "address"
        },
        {
          "internalType": "address",
          "name": "from",
          "type": "address"
        },
        {
          "internalType": "address",
          "name": "to",
          "type": "address"
        }
      ],
      "name": "swap",
      "outputs": [],
      "stateMutability": "nonpayable",
      "type": "function"
    },
    {
      "inputs": [],
      "name": "weth",
      "outputs": [
        {
          "internalType": "address",
          "name": "",
          "type": "address"
        }
      ],
      "stateMutability": "view",
      "type": "function"
    }
  ],
  "bytecode": "0x60c060405234801561001057600080fd5b506040516114db3803806114db8339818101604052604081101561003357600080fd5b5080516020909101516001600160601b0319606091821b811660805291901b1660a05260805160601c60a05160601c6114576100846000398061017852806101a252508061015452506114576000f3fe608060405234801561001057600080fd5b50600436106100415760003560e01c8063230f11c7146100465780633fc8cef3146100925780637b103999146100b6575b600080fd5b610090600480360360c081101561005c57600080fd5b508035906020810135906001600160a01b0360408201358116916060810135821691608082013581169160a00135166100be565b005b61009a610152565b604080516001600160a01b039092168252519081900360200190f35b61009a610176565b826001600160a01b0316846001600160a01b03161415610125576040805162461bcd60e51b815260206004820152601360248201527f546f6b656e732063616e6e6f74206d6174636800000000000000000000000000604482015290519081900360640190fd5b60606101368585896003600061019a565b50905061014881868686868c8c610642565b5050505050505050565b7f000000000000000000000000000000000000000000000000000000000000000081565b7f000000000000000000000000000000000000000000000000000000000000000081565b6060600060607f00000000000000000000000000000000000000000000000000000000000000006001600160a01b031663bfdbfc438989886040518463ffffffff1660e01b815260040180846001600160a01b03168152602001836001600160a01b03168152602001828152602001935050505060006040518083038186803b15801561022657600080fd5b505afa15801561023a573d6000803e3d6000fd5b505050506040513d6000823e601f3d908101601f19168201604052602081101561026357600080fd5b810190808051604051939291908464010000000082111561028357600080fd5b90830190602082018581111561029857600080fd5b82518660208202830111640100000000821117156102b557600080fd5b82525081516020918201928201910280838360005b838110156102e25781810151838201526020016102ca565b5050505090500160405250505090506060815167ffffffffffffffff8111801561030b57600080fd5b5060405190808252806020026020018201604052801561034557816020015b610332611369565b81526020019060019003908161032a5790505b5090506000805b83518110156103be576103738b8b86848151811061036657fe5b6020026020010151610956565b83828151811061037f57fe5b60200260200101819052506103b483828151811061039957fe5b602002602001015160c0015183610c2790919063ffffffff16565b915060010161034c565b506060825167ffffffffffffffff811180156103d957600080fd5b50604051908082528060200260200182016040528015610403578160200160208202803683370190505b5090506000805b845181101561048f576104478461044187848151811061042657fe5b602002602001015160c001518e610c8a90919063ffffffff16565b90610ce3565b83828151811061045357fe5b60200260200101818152505061048583828151811061046e57fe5b602002602001015183610c2790919063ffffffff16565b915060010161040a565b50898110156104e6576104c86104a58b83610d25565b836000815181106104b257fe5b6020026020010151610c2790919063ffffffff16565b826000815181106104d557fe5b602002602001018181525050610530565b6105166104f3828c610d25565b8360008151811061050057fe5b6020026020010151610d2590919063ffffffff16565b8260008151811061052357fe5b6020026020010181815250505b835167ffffffffffffffff8111801561054857600080fd5b5060405190808252806020026020018201604052801561058257816020015b61056f6113af565b8152602001906001900390816105675790505b50965060005b8451811015610625576040518060c001604052808683815181106105a857fe5b6020026020010151600001516001600160a01b031681526020018e6001600160a01b031681526020018d6001600160a01b031681526020018483815181106105ec57fe5b602002602001015181526020016000815260200160001981525088828151811061061257fe5b6020908102919091010152600101610588565b5061063182858a610d67565b955050505050509550959350505050565b60006001600160a01b0385163014610669576106696001600160a01b038816863086610ed7565b60005b88518110156108435761067d6113af565b89828151811061068957fe5b602090810291909101810151908101518151606083015192935090916106bb906001600160a01b038416908390610f37565b60208301516060840151604080860151608087015160a08801518351638201aa3f60e01b81526001600160a01b03968716600482015260248101959095529185166044850152606484015260848301528051600093851692638201aa3f9260a480830193919282900301818787803b15801561073657600080fd5b505af115801561074a573d6000803e3d6000fd5b505050506040513d604081101561076057600080fd5b5051845160408051636eb1769f60e11b81523060048201526001600160a01b03928316602482015290519293509085169163dd62ed3e91604480820192602092909190829003018186803b1580156107b757600080fd5b505afa1580156107cb573d6000803e3d6000fd5b505050506040513d60208110156107e157600080fd5b505115610827576040805162461bcd60e51b815260206004820152600f60248201526e0496e636f6d706c657465207377617608c1b604482015290519081900360640190fd5b6108318187610c27565b9550506001909301925061066c915050565b5081811015610889576040805162461bcd60e51b815260206004820152600d60248201526c11549497d31253525517d3d555609a1b604482015290519081900360640190fd5b6001600160a01b03841630146108ad576108ad6001600160a01b0387168583610f8e565b6001600160a01b038516301461094b5761094b85886001600160a01b03166370a08231306040518263ffffffff1660e01b815260040180826001600160a01b0316815260200191505060206040518083038186803b15801561090e57600080fd5b505afa158015610922573d6000803e3d6000fd5b505050506040513d602081101561093857600080fd5b50516001600160a01b038a169190610f8e565b979650505050505050565b61095e611369565b60008290506000816001600160a01b031663f8b2cb4f876040518263ffffffff1660e01b815260040180826001600160a01b0316815260200191505060206040518083038186803b1580156109b257600080fd5b505afa1580156109c6573d6000803e3d6000fd5b505050506040513d60208110156109dc57600080fd5b50516040805163f8b2cb4f60e01b81526001600160a01b03888116600483015291519293506000929185169163f8b2cb4f91602480820192602092909190829003018186803b158015610a2e57600080fd5b505afa158015610a42573d6000803e3d6000fd5b505050506040513d6020811015610a5857600080fd5b505160408051634a46c67360e11b81526001600160a01b038a8116600483015291519293506000929186169163948d8ce691602480820192602092909190829003018186803b158015610aaa57600080fd5b505afa158015610abe573d6000803e3d6000fd5b505050506040513d6020811015610ad457600080fd5b505160408051634a46c67360e11b81526001600160a01b038a8116600483015291519293506000929187169163948d8ce691602480820192602092909190829003018186803b158015610b2657600080fd5b505afa158015610b3a573d6000803e3d6000fd5b505050506040513d6020811015610b5057600080fd5b505160408051631a995bed60e31b815290519192506000916001600160a01b0388169163d4cadf68916004808301926020929190829003018186803b158015610b9857600080fd5b505afa158015610bac573d6000803e3d6000fd5b505050506040513d6020811015610bc257600080fd5b505190506000610bd3848685610fe0565b9050610bdd611369565b506040805160e0810182526001600160a01b038b16815260208101979097528601939093526060850193909352608084015260a083019190915260c08201529150505b9392505050565b600082820183811015610c81576040805162461bcd60e51b815260206004820152601b60248201527f536166654d6174683a206164646974696f6e206f766572666c6f770000000000604482015290519081900360640190fd5b90505b92915050565b600082610c9957506000610c84565b82820282848281610ca657fe5b0414610c815760405162461bcd60e51b81526004018080602001828103825260218152602001806114016021913960400191505060405180910390fd5b6000610c8183836040518060400160405280601a81526020017f536166654d6174683a206469766973696f6e206279207a65726f00000000000081525061101f565b6000610c8183836040518060400160405280601e81526020017f536166654d6174683a207375627472616374696f6e206f766572666c6f7700008152506110c1565b6000805b8451811015610ecf576000848281518110610d8257fe5b6020026020010151600001516001600160a01b031663ba9530a6868481518110610da857fe5b602002602001015160200151878581518110610dc057fe5b602002602001015160400151888681518110610dd857fe5b602002602001015160600151898781518110610df057fe5b6020026020010151608001518b8881518110610e0857fe5b60200260200101518a610e32578b8981518110610e2157fe5b602002602001015160a00151610e35565b60005b6040518763ffffffff1660e01b815260040180878152602001868152602001858152602001848152602001838152602001828152602001965050505050505060206040518083038186803b158015610e8c57600080fd5b505afa158015610ea0573d6000803e3d6000fd5b505050506040513d6020811015610eb657600080fd5b50519050610ec48382610c27565b925050600101610d6b565b509392505050565b604080516001600160a01b0380861660248301528416604482015260648082018490528251808303909101815260849091019091526020810180516001600160e01b03166323b872dd60e01b179052610f3190859061111b565b50505050565b604080516001600160a01b038416602482015260448082018490528251808303909101815260649091019091526020810180516001600160e01b031663095ea7b360e01b179052610f8990849061111b565b505050565b604080516001600160a01b038416602482015260448082018490528251808303909101815260649091019091526020810180516001600160e01b031663a9059cbb60e01b179052610f8990849061111b565b6000611017670de0b6b3a764000061044185611011610fff878a610c27565b6104418a670de0b6b3a7640000610c8a565b90610c8a565b949350505050565b600081836110ab5760405162461bcd60e51b81526004018080602001828103825283818151815260200191508051906020019080838360005b83811015611070578181015183820152602001611058565b50505050905090810190601f16801561109d5780820380516001836020036101000a031916815260200191505b509250505060405180910390fd5b5060008385816110b757fe5b0495945050505050565b600081848411156111135760405162461bcd60e51b8152602060048201818152835160248401528351909283926044909101919085019080838360008315611070578181015183820152602001611058565b505050900390565b6060611170826040518060400160405280602081526020017f5361666545524332303a206c6f772d6c6576656c2063616c6c206661696c6564815250856001600160a01b03166111e29092919063ffffffff16565b805190915015610f895780806020019051602081101561118f57600080fd5b5051610f89576040805162461bcd60e51b815260206004820152601360248201527f5361666545524332303a20217375636365737300000000000000000000000000604482015290519081900360640190fd5b60606110178484600085856111f6856112fd565b611247576040805162461bcd60e51b815260206004820152601d60248201527f416464726573733a2063616c6c20746f206e6f6e2d636f6e7472616374000000604482015290519081900360640190fd5b60006060866001600160a01b031685876040518082805190602001908083835b602083106112865780518252601f199092019160209182019101611267565b6001836020036101000a03801982511681845116808217855250505050505090500191505060006040518083038185875af1925050503d80600081146112e8576040519150601f19603f3d011682016040523d82523d6000602084013e6112ed565b606091505b509150915061094b828286611303565b3b151590565b60608315611312575081610c20565b8251156113225782518084602001fd5b60405162461bcd60e51b8152602060048201818152845160248401528451859391928392604401919085019080838360008315611070578181015183820152602001611058565b6040518060e0016040528060006001600160a01b031681526020016000815260200160008152602001600081526020016000815260200160008152602001600081525090565b6040518060c0016040528060006001600160a01b0316815260200160006001600160a01b0316815260200160006001600160a01b03168152602001600081526020016000815260200160008152509056fe536166654d6174683a206d756c7469706c69636174696f6e206f766572666c6f77a2646970667358221220d822ae0144042888ebb129b1479cfae8f56d171cc18621cb450348130538b3cf64736f6c634300060c0033",
  "linkReferences": {},
  "deployedLinkReferences": {}
}