{
  "_format": "hh-sol-artifact-1",
  "contractName": "StrategyTokenStorage",
  "sourceName": "contracts/StrategyTokenStorage.sol",
  "abi": [
    {
      "inputs": [],
      "name": "DOMAIN_SEPARATOR",
      "outputs": [
        {
          "internalType": "bytes32",
          "name": "",
          "type": "bytes32"
        }
      ],
      "stateMutability": "view",
      "type": "function"
    }
  ],
  "bytecode": "0x6080604052348015600f57600080fd5b5060818061001e6000396000f3fe6080604052348015600f57600080fd5b506004361060285760003560e01c80633644e51514602d575b600080fd5b60336045565b60408051918252519081900360200190f35b6000548156fea2646970667358221220d36a77472c24bf6661222e0c886456a7d2139f3d799914b966ad4e26a39cb69964736f6c634300060c0033",
  "linkReferences": {},
  "deployedLinkReferences": {}
}