{
  "_format": "hh-sol-artifact-1",
  "contractName": "CurveDepositZapRegistry",
  "sourceName": "contracts/oracles/registries/CurveDepositZapRegistry.sol",
  "abi": [
    {
      "anonymous": false,
      "inputs": [
        {
          "indexed": true,
          "internalType": "address",
          "name": "previousOwner",
          "type": "address"
        },
        {
          "indexed": true,
          "internalType": "address",
          "name": "newOwner",
          "type": "address"
        }
      ],
      "name": "OwnershipTransferred",
      "type": "event"
    },
    {
      "inputs": [
        {
          "internalType": "address",
          "name": "token",
          "type": "address"
        },
        {
          "internalType": "address",
          "name": "depositZap",
          "type": "address"
        },
        {
          "internalType": "uint256",
          "name": "indexType",
          "type": "uint256"
        }
      ],
      "name": "addZap",
      "outputs": [],
      "stateMutability": "nonpayable",
      "type": "function"
    },
    {
      "inputs": [
        {
          "internalType": "address",
          "name": "zap",
          "type": "address"
        }
      ],
      "name": "getIndexType",
      "outputs": [
        {
          "internalType": "uint256",
          "name": "",
          "type": "uint256"
        }
      ],
      "stateMutability": "view",
      "type": "function"
    },
    {
      "inputs": [
        {
          "internalType": "address",
          "name": "token",
          "type": "address"
        }
      ],
      "name": "getZap",
      "outputs": [
        {
          "internalType": "address",
          "name": "",
          "type": "address"
        }
      ],
      "stateMutability": "view",
      "type": "function"
    },
    {
      "inputs": [],
      "name": "owner",
      "outputs": [
        {
          "internalType": "address",
          "name": "",
          "type": "address"
        }
      ],
      "stateMutability": "view",
      "type": "function"
    },
    {
      "inputs": [],
      "name": "renounceOwnership",
      "outputs": [],
      "stateMutability": "nonpayable",
      "type": "function"
    },
    {
      "inputs": [
        {
          "internalType": "address",
          "name": "newOwner",
          "type": "address"
        }
      ],
      "name": "transferOwnership",
      "outputs": [],
      "stateMutability": "nonpayable",
      "type": "function"
    }
  ],
  "bytecode": "0x608060405234801561001057600080fd5b50600061001b61006a565b600080546001600160a01b0319166001600160a01b0383169081178255604051929350917f8be0079c531659141344cd1fd0a4f28419497f9722a3daafe3b4186f6b6457e0908290a35061006e565b3390565b61046f8061007d6000396000f3fe608060405234801561001057600080fd5b50600436106100725760003560e01c80638da5cb5b116100505780638da5cb5b146100f957806391e2851f14610101578063f2fde38b1461013957610072565b8063317d3735146100775780633db02416146100b9578063715018a6146100f1575b600080fd5b61009d6004803603602081101561008d57600080fd5b50356001600160a01b031661015f565b604080516001600160a01b039092168252519081900360200190f35b6100ef600480360360608110156100cf57600080fd5b506001600160a01b0381358116916020810135909116906040013561017d565b005b6100ef610227565b61009d6102db565b6101276004803603602081101561011757600080fd5b50356001600160a01b03166102ea565b60408051918252519081900360200190f35b6100ef6004803603602081101561014f57600080fd5b50356001600160a01b0316610305565b6001600160a01b039081166000908152600160205260409020541690565b61018561040f565b6000546001600160a01b039081169116146101e7576040805162461bcd60e51b815260206004820181905260248201527f4f776e61626c653a2063616c6c6572206973206e6f7420746865206f776e6572604482015290519081900360640190fd5b6001600160a01b0392831660009081526001602090815260408083208054969095166001600160a01b031990961686179094559381526002909352912055565b61022f61040f565b6000546001600160a01b03908116911614610291576040805162461bcd60e51b815260206004820181905260248201527f4f776e61626c653a2063616c6c6572206973206e6f7420746865206f776e6572604482015290519081900360640190fd5b600080546040516001600160a01b03909116907f8be0079c531659141344cd1fd0a4f28419497f9722a3daafe3b4186f6b6457e0908390a3600080546001600160a01b0319169055565b6000546001600160a01b031690565b6001600160a01b031660009081526002602052604090205490565b61030d61040f565b6000546001600160a01b0390811691161461036f576040805162461bcd60e51b815260206004820181905260248201527f4f776e61626c653a2063616c6c6572206973206e6f7420746865206f776e6572604482015290519081900360640190fd5b6001600160a01b0381166103b45760405162461bcd60e51b81526004018080602001828103825260268152602001806104146026913960400191505060405180910390fd5b600080546040516001600160a01b03808516939216917f8be0079c531659141344cd1fd0a4f28419497f9722a3daafe3b4186f6b6457e091a3600080546001600160a01b0319166001600160a01b0392909216919091179055565b339056fe4f776e61626c653a206e6577206f776e657220697320746865207a65726f2061646472657373a26469706673582212204bf37b73d6c263345f6aeec899e8981d40aab71f6ae5b9da5f5e358350fcf02164736f6c634300060c0033",
  "linkReferences": {},
  "deployedLinkReferences": {}
}