{
    "_format": "hh-sol-artifact-1",
    "contractName": "TokenRegistry",
    "sourceName": "contracts/oracles/registries/TokenRegistry.sol",
    "abi": [
        {
            "anonymous": false,
            "inputs": [
                {
                    "indexed": false,
                    "internalType": "address",
                    "name": "estimator",
                    "type": "address"
                },
                {
                    "indexed": false,
                    "internalType": "uint256",
                    "name": "estimatorCategoryIndex",
                    "type": "uint256"
                }
            ],
            "name": "EstimatorAdded",
            "type": "event"
        },
        {
            "anonymous": false,
            "inputs": [
                {
                    "indexed": false,
                    "internalType": "address",
                    "name": "token",
                    "type": "address"
                },
                {
                    "indexed": false,
                    "internalType": "uint256",
                    "name": "itemCategoryIndex",
                    "type": "uint256"
                },
                {
                    "indexed": false,
                    "internalType": "uint256",
                    "name": "estimatorCategoryIndex",
                    "type": "uint256"
                }
            ],
            "name": "ItemAdded",
            "type": "event"
        },
        {
            "anonymous": false,
            "inputs": [
                {
                    "indexed": true,
                    "internalType": "address",
                    "name": "previousOwner",
                    "type": "address"
                },
                {
                    "indexed": true,
                    "internalType": "address",
                    "name": "newOwner",
                    "type": "address"
                }
            ],
            "name": "OwnershipTransferred",
            "type": "event"
        },
        {
            "inputs": [
                {
                    "internalType": "uint256",
                    "name": "estimatorCategoryIndex",
                    "type": "uint256"
                },
                {
                    "internalType": "address",
                    "name": "estimator",
                    "type": "address"
                }
            ],
            "name": "addEstimator",
            "outputs": [],
            "stateMutability": "nonpayable",
            "type": "function"
        },
        {
            "inputs": [
                {
                    "internalType": "uint256",
                    "name": "itemCategoryIndex",
                    "type": "uint256"
                },
                {
                    "internalType": "uint256",
                    "name": "estimatorCategoryIndex",
                    "type": "uint256"
                },
                {
                    "internalType": "address",
                    "name": "token",
                    "type": "address"
                }
            ],
            "name": "addItem",
            "outputs": [],
            "stateMutability": "nonpayable",
            "type": "function"
        },
        {
            "inputs": [
                {
                    "internalType": "uint256[]",
                    "name": "itemCategoryIndex",
                    "type": "uint256[]"
                },
                {
                    "internalType": "uint256[]",
                    "name": "estimatorCategoryIndex",
                    "type": "uint256[]"
                },
                {
                    "internalType": "address[]",
                    "name": "token",
                    "type": "address[]"
                }
            ],
            "name": "addItems",
            "outputs": [],
            "stateMutability": "nonpayable",
            "type": "function"
        },
        {
            "inputs": [
                {
                    "internalType": "address",
                    "name": "",
                    "type": "address"
                }
            ],
            "name": "estimatorCategories",
            "outputs": [
                {
                    "internalType": "uint256",
                    "name": "",
                    "type": "uint256"
                }
            ],
            "stateMutability": "view",
            "type": "function"
        },
        {
            "inputs": [
                {
                    "internalType": "uint256",
                    "name": "",
                    "type": "uint256"
                }
            ],
            "name": "estimators",
            "outputs": [
                {
                    "internalType": "contract IEstimator",
                    "name": "",
                    "type": "address"
                }
            ],
            "stateMutability": "view",
            "type": "function"
        },
        {
            "inputs": [
                {
                    "internalType": "address",
                    "name": "token",
                    "type": "address"
                }
            ],
            "name": "getEstimator",
            "outputs": [
                {
                    "internalType": "contract IEstimator",
                    "name": "",
                    "type": "address"
                }
            ],
            "stateMutability": "view",
            "type": "function"
        },
        {
            "inputs": [
                {
                    "internalType": "address",
                    "name": "",
                    "type": "address"
                }
            ],
            "name": "itemCategories",
            "outputs": [
                {
                    "internalType": "uint256",
                    "name": "",
                    "type": "uint256"
                }
            ],
            "stateMutability": "view",
            "type": "function"
        },
        {
            "inputs": [],
            "name": "owner",
            "outputs": [
                {
                    "internalType": "address",
                    "name": "",
                    "type": "address"
                }
            ],
            "stateMutability": "view",
            "type": "function"
        },
        {
            "inputs": [],
            "name": "renounceOwnership",
            "outputs": [],
            "stateMutability": "nonpayable",
            "type": "function"
        },
        {
            "inputs": [
                {
                    "internalType": "address",
                    "name": "newOwner",
                    "type": "address"
                }
            ],
            "name": "transferOwnership",
            "outputs": [],
            "stateMutability": "nonpayable",
            "type": "function"
        }
    ],
    "bytecode": "0x608060405234801561001057600080fd5b50600061001b61006a565b600080546001600160a01b0319166001600160a01b0383169081178255604051929350917f8be0079c531659141344cd1fd0a4f28419497f9722a3daafe3b4186f6b6457e0908290a35061006e565b3390565b6108758061007d6000396000f3fe608060405234801561001057600080fd5b506004361061008e5760003560e01c806346a7483714610093578063715018a6146100cb57806373052503146100d55780638da5cb5b146101e357806397d39de414610207578063aaba01941461022d578063bbe985c414610253578063c066bd1a14610270578063d33a10f7146102a2578063f2fde38b146102ce575b600080fd5b6100b9600480360360208110156100a957600080fd5b50356001600160a01b03166102f4565b60408051918252519081900360200190f35b6100d3610306565b005b6100d3600480360360608110156100eb57600080fd5b810190602081018135600160201b81111561010557600080fd5b82018360208201111561011757600080fd5b803590602001918460208302840111600160201b8311171561013857600080fd5b919390929091602081019035600160201b81111561015557600080fd5b82018360208201111561016757600080fd5b803590602001918460208302840111600160201b8311171561018857600080fd5b919390929091602081019035600160201b8111156101a557600080fd5b8201836020820111156101b757600080fd5b803590602001918460208302840111600160201b831117156101d857600080fd5b5090925090506103a8565b6101eb6104b7565b604080516001600160a01b039092168252519081900360200190f35b6100b96004803603602081101561021d57600080fd5b50356001600160a01b03166104c6565b6101eb6004803603602081101561024357600080fd5b50356001600160a01b03166104d8565b6101eb6004803603602081101561026957600080fd5b5035610503565b6100d36004803603606081101561028657600080fd5b50803590602081013590604001356001600160a01b031661051e565b6100d3600480360360408110156102b857600080fd5b50803590602001356001600160a01b031661063b565b6100d3600480360360208110156102e457600080fd5b50356001600160a01b03166106fd565b60026020526000908152604090205481565b61030e6107f5565b6000546001600160a01b0390811691161461035e576040805162461bcd60e51b81526020600482018190526024820152600080516020610820833981519152604482015290519081900360640190fd5b600080546040516001600160a01b03909116907f8be0079c531659141344cd1fd0a4f28419497f9722a3daafe3b4186f6b6457e0908390a3600080546001600160a01b0319169055565b6103b06107f5565b6000546001600160a01b03908116911614610400576040805162461bcd60e51b81526020600482018190526024820152600080516020610820833981519152604482015290519081900360640190fd5b84808214610450576040805162461bcd60e51b81526020600482015260186024820152774d69736d617463686564206172726179206c656e6774687360401b604482015290519081900360640190fd5b60005b818110156104ad576104a588888381811061046a57fe5b9050602002013587878481811061047d57fe5b9050602002013586868581811061049057fe5b905060200201356001600160a01b031661051e565b600101610453565b5050505050505050565b6000546001600160a01b031690565b60016020526000908152604090205481565b6001600160a01b03908116600090815260026020908152604080832054835260039091529020541690565b6003602052600090815260409020546001600160a01b031681565b6105266107f5565b6000546001600160a01b03908116911614610576576040805162461bcd60e51b81526020600482018190526024820152600080516020610820833981519152604482015290519081900360640190fd5b6000828152600360205260409020546001600160a01b03166105d2576040805162461bcd60e51b815260206004820152601060248201526f496e76616c69642063617465676f727960801b604482015290519081900360640190fd5b6001600160a01b0381166000818152600160209081526040808320879055600282529182902085905581519283528201859052818101849052517f2ca052d1528c7374eb2dbaeecad56c46f2a51fa48de7916e8ecee5642859e9709181900360600190a1505050565b6106436107f5565b6000546001600160a01b03908116911614610693576040805162461bcd60e51b81526020600482018190526024820152600080516020610820833981519152604482015290519081900360640190fd5b60008281526003602090815260409182902080546001600160a01b0319166001600160a01b038516908117909155825190815290810184905281517f2590ad30ef40889e89601712f1da7ba772b88c03dd2c8466edbbaa9b95ddc1f8929181900390910190a15050565b6107056107f5565b6000546001600160a01b03908116911614610755576040805162461bcd60e51b81526020600482018190526024820152600080516020610820833981519152604482015290519081900360640190fd5b6001600160a01b03811661079a5760405162461bcd60e51b81526004018080602001828103825260268152602001806107fa6026913960400191505060405180910390fd5b600080546040516001600160a01b03808516939216917f8be0079c531659141344cd1fd0a4f28419497f9722a3daafe3b4186f6b6457e091a3600080546001600160a01b0319166001600160a01b0392909216919091179055565b339056fe4f776e61626c653a206e6577206f776e657220697320746865207a65726f20616464726573734f776e61626c653a2063616c6c6572206973206e6f7420746865206f776e6572a264697066735822122033629cc9ab8c7594e326a3c830b94f7088520dce740b660d8d6de70c96ee3f5764736f6c634300060c0033",
    "linkReferences": {},
    "deployedLinkReferences": {}
}