{
  "_format": "hh-sol-artifact-1",
  "contractName": "RewardsDistributionRecipient",
  "sourceName": "contracts/mocks/staking/RewardsDistributionRecipient.sol",
  "abi": [
    {
      "inputs": [
        {
          "internalType": "address",
          "name": "_owner",
          "type": "address"
        }
      ],
      "stateMutability": "nonpayable",
      "type": "constructor"
    },
    {
      "anonymous": false,
      "inputs": [
        {
          "indexed": false,
          "internalType": "address",
          "name": "oldOwner",
          "type": "address"
        },
        {
          "indexed": false,
          "internalType": "address",
          "name": "newOwner",
          "type": "address"
        }
      ],
      "name": "OwnerChanged",
      "type": "event"
    },
    {
      "anonymous": false,
      "inputs": [
        {
          "indexed": false,
          "internalType": "address",
          "name": "newOwner",
          "type": "address"
        }
      ],
      "name": "OwnerNominated",
      "type": "event"
    },
    {
      "inputs": [],
      "name": "acceptOwnership",
      "outputs": [],
      "stateMutability": "nonpayable",
      "type": "function"
    },
    {
      "inputs": [
        {
          "internalType": "address",
          "name": "_owner",
          "type": "address"
        }
      ],
      "name": "nominateNewOwner",
      "outputs": [],
      "stateMutability": "nonpayable",
      "type": "function"
    },
    {
      "inputs": [],
      "name": "nominatedOwner",
      "outputs": [
        {
          "internalType": "address",
          "name": "",
          "type": "address"
        }
      ],
      "stateMutability": "view",
      "type": "function"
    },
    {
      "inputs": [
        {
          "internalType": "uint256",
          "name": "reward",
          "type": "uint256"
        }
      ],
      "name": "notifyRewardAmount",
      "outputs": [],
      "stateMutability": "nonpayable",
      "type": "function"
    },
    {
      "inputs": [],
      "name": "owner",
      "outputs": [
        {
          "internalType": "address",
          "name": "",
          "type": "address"
        }
      ],
      "stateMutability": "view",
      "type": "function"
    },
    {
      "inputs": [],
      "name": "rewardsDistribution",
      "outputs": [
        {
          "internalType": "address",
          "name": "",
          "type": "address"
        }
      ],
      "stateMutability": "view",
      "type": "function"
    },
    {
      "inputs": [
        {
          "internalType": "address",
          "name": "_rewardsDistribution",
          "type": "address"
        }
      ],
      "name": "setRewardsDistribution",
      "outputs": [],
      "stateMutability": "nonpayable",
      "type": "function"
    }
  ],
  "bytecode": "0x608060405234801561001057600080fd5b5060405161047a38038061047a8339818101604052602081101561003357600080fd5b5051806001600160a01b038116610091576040805162461bcd60e51b815260206004820152601960248201527f4f776e657220616464726573732063616e6e6f74206265203000000000000000604482015290519081900360640190fd5b600080546001600160a01b0319166001600160a01b038316908117825560408051928352602083019190915280517fb532073b38c83145e3e5135377a08bf9aab55bc0fd7c1179cd4fb995d2a5159c9281900390910190a15050610380806100fa6000396000f3fe608060405234801561001057600080fd5b506004361061007d5760003560e01c80633fc6df6e1161005b5780633fc6df6e146100ed57806353a47bb71461011157806379ba5097146101195780638da5cb5b146101215761007d565b80631627540c1461008257806319762143146100aa5780633c6b16ab146100d0575b600080fd5b6100a86004803603602081101561009857600080fd5b50356001600160a01b0316610129565b005b6100a8600480360360208110156100c057600080fd5b50356001600160a01b0316610185565b6100a8600480360360208110156100e657600080fd5b50356101af565b6100f56101b2565b604080516001600160a01b039092168252519081900360200190f35b6100f56101c1565b6100a86101d0565b6100f561028c565b61013161029b565b600180546001600160a01b0383166001600160a01b0319909116811790915560408051918252517f906a1c6bd7e3091ea86693dd029a831c19049ce77f1dce2ce0bab1cacbabce229181900360200190a150565b61018d61029b565b600280546001600160a01b0319166001600160a01b0392909216919091179055565b50565b6002546001600160a01b031681565b6001546001600160a01b031681565b6001546001600160a01b031633146102195760405162461bcd60e51b81526004018080602001828103825260358152602001806102e76035913960400191505060405180910390fd5b600054600154604080516001600160a01b03938416815292909116602083015280517fb532073b38c83145e3e5135377a08bf9aab55bc0fd7c1179cd4fb995d2a5159c9281900390910190a160018054600080546001600160a01b03199081166001600160a01b03841617909155169055565b6000546001600160a01b031681565b6000546001600160a01b031633146102e45760405162461bcd60e51b815260040180806020018281038252602f81526020018061031c602f913960400191505060405180910390fd5b56fe596f75206d757374206265206e6f6d696e61746564206265666f726520796f752063616e20616363657074206f776e6572736869704f6e6c792074686520636f6e7472616374206f776e6572206d617920706572666f726d207468697320616374696f6ea2646970667358221220954cbd69238eec4717c9f563ef43005da85f8efc8ec783b33f828adb61b6936864736f6c63430007060033",
  "linkReferences": {},
  "deployedLinkReferences": {}
}