{
    "_format": "hh-sol-artifact-1",
    "contractName": "AaveV2DebtAdapter",
    "sourceName": "contracts/adapters/borrow/AaveV2DebtAdapter.sol",
    "abi": [
        {
            "inputs": [
                {
                    "internalType": "address",
                    "name": "addressesProvider_",
                    "type": "address"
                },
                {
                    "internalType": "address",
                    "name": "weth_",
                    "type": "address"
                }
            ],
            "stateMutability": "nonpayable",
            "type": "constructor"
        },
        {
            "inputs": [],
            "name": "addressesProvider",
            "outputs": [
                {
                    "internalType": "contract ILendingPoolAddressesProvider",
                    "name": "",
                    "type": "address"
                }
            ],
            "stateMutability": "view",
            "type": "function"
        },
        {
            "inputs": [
                {
                    "internalType": "uint256",
                    "name": "amount",
                    "type": "uint256"
                },
                {
                    "internalType": "uint256",
                    "name": "expected",
                    "type": "uint256"
                },
                {
                    "internalType": "address",
                    "name": "tokenIn",
                    "type": "address"
                },
                {
                    "internalType": "address",
                    "name": "tokenOut",
                    "type": "address"
                },
                {
                    "internalType": "address",
                    "name": "from",
                    "type": "address"
                },
                {
                    "internalType": "address",
                    "name": "to",
                    "type": "address"
                }
            ],
            "name": "swap",
            "outputs": [],
            "stateMutability": "nonpayable",
            "type": "function"
        },
        {
            "inputs": [],
            "name": "weth",
            "outputs": [
                {
                    "internalType": "address",
                    "name": "",
                    "type": "address"
                }
            ],
            "stateMutability": "view",
            "type": "function"
        }
    ],
    "bytecode": "0x60c060405234801561001057600080fd5b5060405161131238038061131283398101604081905261002f9161004e565b6001600160601b0319606091821b811660805291901b1660a05261009f565b60008060408385031215610060578182fd5b825161006b81610087565b602084015190925061007c81610087565b809150509250929050565b6001600160a01b038116811461009c57600080fd5b50565b60805160601c60a05160601c6112236100ef6000398060c0528061033b52806104e55280610736528061084c5280610a4f525080610239528061031752806104a8528061067f52506112236000f3fe608060405234801561001057600080fd5b50600436106100415760003560e01c8063230f11c7146100465780633fc8cef31461005b578063c72c4d1014610079575b600080fd5b610059610054366004610e3f565b610081565b005b610063610315565b6040516100709190610eeb565b60405180910390f35b610063610339565b826001600160a01b0316846001600160a01b031614156100bc5760405162461bcd60e51b81526004016100b3906110a5565b60405180910390fd5b60007f00000000000000000000000000000000000000000000000000000000000000006001600160a01b0316630261bf8b6040518163ffffffff1660e01b815260040160206040518083038186803b15801561011757600080fd5b505afa15801561012b573d6000803e3d6000fd5b505050506040513d601f19601f8201168201806040525081019061014f9190610deb565b90506001600160a01b038416610223576001600160a01b0383163014610184576101846001600160a01b03861684308a61035d565b6101986001600160a01b03861682896103bb565b60405163573ade8160e01b81526001600160a01b0382169063573ade81906101cb9088908b906001908890600401610f56565b602060405180830381600087803b1580156101e557600080fd5b505af11580156101f9573d6000803e3d6000fd5b505050506040513d601f19601f8201168201806040525081019061021d9190610e27565b5061030c565b6001600160a01b03851661004157600061025e887f000000000000000000000000000000000000000000000000000000000000000087610483565b9050868110156102805760405162461bcd60e51b81526004016100b39061102e565b60405163a415bcad60e01b81526001600160a01b0383169063a415bcad906102b690889085906001906000908b90600401610f81565b600060405180830381600087803b1580156102d057600080fd5b505af11580156102e4573d6000803e3d6000fd5b505050506001600160a01b038316301461021d5761021d6001600160a01b0386168483610b6d565b50505050505050565b7f000000000000000000000000000000000000000000000000000000000000000081565b7f000000000000000000000000000000000000000000000000000000000000000081565b6103b5846323b872dd60e01b85858560405160240161037e93929190610f19565b60408051601f198184030181529190526020810180516001600160e01b03166001600160e01b031990931692909217909152610b8c565b50505050565b8015806104435750604051636eb1769f60e11b81526001600160a01b0384169063dd62ed3e906103f19030908690600401610eff565b60206040518083038186803b15801561040957600080fd5b505afa15801561041d573d6000803e3d6000fd5b505050506040513d601f19601f820116820180604052508101906104419190610e27565b155b61045f5760405162461bcd60e51b81526004016100b390611153565b61047e8363095ea7b360e01b848460405160240161037e929190610f3d565b505050565b6000816001600160a01b0316836001600160a01b031614156104a6575082610b66565b7f00000000000000000000000000000000000000000000000000000000000000006001600160a01b0316836001600160a01b0316141561067d576106767f00000000000000000000000000000000000000000000000000000000000000006001600160a01b031663fca513a86040518163ffffffff1660e01b815260040160206040518083038186803b15801561053c57600080fd5b505afa158015610550573d6000803e3d6000fd5b505050506040513d601f19601f820116820180604052508101906105749190610deb565b6001600160a01b031663b3596f07846040518263ffffffff1660e01b815260040161059f9190610eeb565b60206040518083038186803b1580156105b757600080fd5b505afa1580156105cb573d6000803e3d6000fd5b505050506040513d601f19601f820116820180604052508101906105ef9190610e27565b610670846001600160a01b031663313ce5676040518163ffffffff1660e01b815260040160206040518083038186803b15801561062b57600080fd5b505afa15801561063f573d6000803e3d6000fd5b505050506040513d601f19601f820116820180604052508101906106639190610eae565b879060ff16600a0a610c1b565b90610c5e565b9050610b66565b7f00000000000000000000000000000000000000000000000000000000000000006001600160a01b0316826001600160a01b0316141561084757610676836001600160a01b031663313ce5676040518163ffffffff1660e01b815260040160206040518083038186803b1580156106f357600080fd5b505afa158015610707573d6000803e3d6000fd5b505050506040513d601f19601f8201168201806040525081019061072b9190610eae565b60ff16600a0a6106707f00000000000000000000000000000000000000000000000000000000000000006001600160a01b031663fca513a86040518163ffffffff1660e01b815260040160206040518083038186803b15801561078d57600080fd5b505afa1580156107a1573d6000803e3d6000fd5b505050506040513d601f19601f820116820180604052508101906107c59190610deb565b6001600160a01b031663b3596f07876040518263ffffffff1660e01b81526004016107f09190610eeb565b60206040518083038186803b15801561080857600080fd5b505afa15801561081c573d6000803e3d6000fd5b505050506040513d601f19601f820116820180604052508101906108409190610e27565b8790610c1b565b6106767f00000000000000000000000000000000000000000000000000000000000000006001600160a01b031663fca513a86040518163ffffffff1660e01b815260040160206040518083038186803b1580156108a357600080fd5b505afa1580156108b7573d6000803e3d6000fd5b505050506040513d601f19601f820116820180604052508101906108db9190610deb565b6001600160a01b031663b3596f07846040518263ffffffff1660e01b81526004016109069190610eeb565b60206040518083038186803b15801561091e57600080fd5b505afa158015610932573d6000803e3d6000fd5b505050506040513d601f19601f820116820180604052508101906109569190610e27565b610670856001600160a01b031663313ce5676040518163ffffffff1660e01b815260040160206040518083038186803b15801561099257600080fd5b505afa1580156109a6573d6000803e3d6000fd5b505050506040513d601f19601f820116820180604052508101906109ca9190610eae565b60ff16600a0a610670866001600160a01b031663313ce5676040518163ffffffff1660e01b815260040160206040518083038186803b158015610a0c57600080fd5b505afa158015610a20573d6000803e3d6000fd5b505050506040513d601f19601f82011682018060405250810190610a449190610eae565b60ff16600a0a610b607f00000000000000000000000000000000000000000000000000000000000000006001600160a01b031663fca513a86040518163ffffffff1660e01b815260040160206040518083038186803b158015610aa657600080fd5b505afa158015610aba573d6000803e3d6000fd5b505050506040513d601f19601f82011682018060405250810190610ade9190610deb565b6001600160a01b031663b3596f078b6040518263ffffffff1660e01b8152600401610b099190610eeb565b60206040518083038186803b158015610b2157600080fd5b505afa158015610b35573d6000803e3d6000fd5b505050506040513d601f19601f82011682018060405250810190610b599190610e27565b8b90610c1b565b90610c1b565b9392505050565b61047e8363a9059cbb60e01b848460405160240161037e929190610f3d565b6060610be1826040518060400160405280602081526020017f5361666545524332303a206c6f772d6c6576656c2063616c6c206661696c6564815250856001600160a01b0316610c9d9092919063ffffffff16565b80519091501561047e5780806020019051810190610bff9190610e07565b61047e5760405162461bcd60e51b81526004016100b390611109565b600082610c2a57506000610c58565b82820282848281610c3757fe5b0414610c555760405162461bcd60e51b81526004016100b390611064565b90505b92915050565b6000610c5583836040518060400160405280601a815260200179536166654d6174683a206469766973696f6e206279207a65726f60301b815250610cb4565b6060610cac8484600085610ceb565b949350505050565b60008183610cd55760405162461bcd60e51b81526004016100b39190610fb5565b506000838581610ce157fe5b0495945050505050565b606082471015610d0d5760405162461bcd60e51b81526004016100b390610fe8565b610d1685610dac565b610d325760405162461bcd60e51b81526004016100b3906110d2565b60006060866001600160a01b03168587604051610d4f9190610ecf565b60006040518083038185875af1925050503d8060008114610d8c576040519150601f19603f3d011682016040523d82523d6000602084013e610d91565b606091505b5091509150610da1828286610db2565b979650505050505050565b3b151590565b60608315610dc1575081610b66565b825115610dd15782518084602001fd5b8160405162461bcd60e51b81526004016100b39190610fb5565b600060208284031215610dfc578081fd5b8151610c55816111d5565b600060208284031215610e18578081fd5b81518015158114610c55578182fd5b600060208284031215610e38578081fd5b5051919050565b60008060008060008060c08789031215610e57578182fd5b86359550602087013594506040870135610e70816111d5565b93506060870135610e80816111d5565b92506080870135610e90816111d5565b915060a0870135610ea0816111d5565b809150509295509295509295565b600060208284031215610ebf578081fd5b815160ff81168114610c55578182fd5b60008251610ee18184602087016111a9565b9190910192915050565b6001600160a01b0391909116815260200190565b6001600160a01b0392831681529116602082015260400190565b6001600160a01b039384168152919092166020820152604081019190915260600190565b6001600160a01b03929092168252602082015260400190565b6001600160a01b03948516815260208101939093526040830191909152909116606082015260800190565b6001600160a01b0395861681526020810194909452604084019290925261ffff166060830152909116608082015260a00190565b6000602082528251806020840152610fd48160408501602087016111a9565b601f01601f19169190910160400192915050565b60208082526026908201527f416464726573733a20696e73756666696369656e742062616c616e636520666f6040820152651c8818d85b1b60d21b606082015260800190565b6020808252601c908201527b125b9cdd59999a58da595b9d081d1bdad95b93dd5d08185b5bdd5b9d60221b604082015260600190565b60208082526021908201527f536166654d6174683a206d756c7469706c69636174696f6e206f766572666c6f6040820152607760f81b606082015260800190565b6020808252601390820152720a8ded6cadce640c6c2dcdcdee840dac2e8c6d606b1b604082015260600190565b6020808252601d908201527f416464726573733a2063616c6c20746f206e6f6e2d636f6e7472616374000000604082015260600190565b6020808252602a908201527f5361666545524332303a204552433230206f7065726174696f6e20646964206e6040820152691bdd081cdd58d8d9595960b21b606082015260800190565b60208082526036908201527f5361666545524332303a20617070726f76652066726f6d206e6f6e2d7a65726f60408201527520746f206e6f6e2d7a65726f20616c6c6f77616e636560501b606082015260800190565b60005b838110156111c45781810151838201526020016111ac565b838111156103b55750506000910152565b6001600160a01b03811681146111ea57600080fd5b5056fea26469706673582212200eaf4353e81c5a39a35f69d729fbcf673838d683c999f548e97fe680b14a102d64736f6c634300060c0033",
    "linkReferences": {},
    "deployedLinkReferences": {}
}