{
    "_format": "hh-sol-artifact-1",
    "contractName": "UniswapNaiveOracle",
    "sourceName": "contracts/test/UniswapNaiveOracle.sol",
    "abi": [
        {
            "inputs": [
                {
                    "internalType": "address",
                    "name": "factory_",
                    "type": "address"
                },
                {
                    "internalType": "address",
                    "name": "weth_",
                    "type": "address"
                }
            ],
            "stateMutability": "nonpayable",
            "type": "constructor"
        },
        {
            "inputs": [
                {
                    "internalType": "uint256",
                    "name": "amount",
                    "type": "uint256"
                },
                {
                    "internalType": "address",
                    "name": "input",
                    "type": "address"
                }
            ],
            "name": "consult",
            "outputs": [
                {
                    "internalType": "uint256",
                    "name": "",
                    "type": "uint256"
                }
            ],
            "stateMutability": "view",
            "type": "function"
        },
        {
            "inputs": [
                {
                    "internalType": "address",
                    "name": "account",
                    "type": "address"
                },
                {
                    "internalType": "address[]",
                    "name": "tokens",
                    "type": "address[]"
                }
            ],
            "name": "estimateTotal",
            "outputs": [
                {
                    "internalType": "uint256",
                    "name": "",
                    "type": "uint256"
                },
                {
                    "internalType": "uint256[]",
                    "name": "",
                    "type": "uint256[]"
                }
            ],
            "stateMutability": "view",
            "type": "function"
        },
        {
            "inputs": [],
            "name": "factory",
            "outputs": [
                {
                    "internalType": "address",
                    "name": "",
                    "type": "address"
                }
            ],
            "stateMutability": "view",
            "type": "function"
        },
        {
            "inputs": [],
            "name": "weth",
            "outputs": [
                {
                    "internalType": "address",
                    "name": "",
                    "type": "address"
                }
            ],
            "stateMutability": "view",
            "type": "function"
        }
    ],
    "bytecode": "0x608060405234801561001057600080fd5b506040516109ae3803806109ae8339818101604052604081101561003357600080fd5b508051602090910151600180546001600160a01b039384166001600160a01b031991821617909155600080549390921692169190911790556109348061007a6000396000f3fe608060405234801561001057600080fd5b506004361061004c5760003560e01c80633fc8cef314610051578063c45a015514610075578063d077bf321461007d578063ebe680c414610189575b600080fd5b6100596101c7565b604080516001600160a01b039092168252519081900360200190f35b6100596101d6565b61012e6004803603604081101561009357600080fd5b6001600160a01b038235169190810190604081016020820135600160201b8111156100bd57600080fd5b8201836020820111156100cf57600080fd5b803590602001918460208302840111600160201b831117156100f057600080fd5b9190808060200260200160405190810160405280939291908181526020018383602002808284376000920191909152509295506101e5945050505050565b6040518083815260200180602001828103825283818151815260200191508051906020019060200280838360005b8381101561017457818101518382015260200161015c565b50505050905001935050505060405180910390f35b6101b56004803603604081101561019f57600080fd5b50803590602001356001600160a01b0316610366565b60408051918252519081900360200190f35b6000546001600160a01b031681565b6001546001600160a01b031681565b6000606060006060845167ffffffffffffffff8111801561020557600080fd5b5060405190808252806020026020018201604052801561022f578160200160208202803683370190505b50905060005b8551811015610358576000806001600160a01b031687838151811061025657fe5b60200260200101516001600160a01b0316141561027e57506001600160a01b0387163161032b565b61032887838151811061028d57fe5b60200260200101516001600160a01b03166370a082318a6040518263ffffffff1660e01b815260040180826001600160a01b0316815260200191505060206040518083038186803b1580156102e157600080fd5b505afa1580156102f5573d6000803e3d6000fd5b505050506040513d602081101561030b57600080fd5b5051885189908590811061031b57fe5b6020026020010151610366565b90505b61033584826104b4565b93508083838151811061034457fe5b602090810291909101015250600101610235565b5090925090505b9250929050565b600080546001600160a01b03838116911614156103845750816104ae565b82610391575060006104ae565b600154600080546040805163e6a4390560e01b81526001600160a01b038781166004830152928316602482015290519293919091169163e6a4390591604480820192602092909190829003018186803b1580156103ed57600080fd5b505afa158015610401573d6000803e3d6000fd5b505050506040513d602081101561041757600080fd5b505190506001600160a01b038116610476576040805162461bcd60e51b815260206004820152601d60248201527f636f6e73756c743a207061697220646f6573206e6f742065786973742e000000604482015290519081900360640190fd5b6001546000805490918291610499916001600160a01b0390811691889116610513565b915091506104a88683836105da565b93505050505b92915050565b60008282018381101561050c576040805162461bcd60e51b815260206004820152601b60248201527a536166654d6174683a206164646974696f6e206f766572666c6f7760281b604482015290519081900360640190fd5b9392505050565b60008060006105228585610680565b509050600080610533888888610757565b6001600160a01b0316630902f1ac6040518163ffffffff1660e01b815260040160606040518083038186803b15801561056b57600080fd5b505afa15801561057f573d6000803e3d6000fd5b505050506040513d606081101561059557600080fd5b5080516020909101516001600160701b0391821693501690506001600160a01b03878116908416146105c85780826105cb565b81815b90999098509650505050505050565b600080841161061a5760405162461bcd60e51b81526004018080602001828103825260258152602001806108da6025913960400191505060405180910390fd5b60008311801561062a5750600082115b6106655760405162461bcd60e51b81526004018080602001828103825260288152602001806108916028913960400191505060405180910390fd5b826106708584610812565b8161067757fe5b04949350505050565b600080826001600160a01b0316846001600160a01b031614156106d45760405162461bcd60e51b815260040180806020018281038252602581526020018061086c6025913960400191505060405180910390fd5b826001600160a01b0316846001600160a01b0316106106f45782846106f7565b83835b90925090506001600160a01b03821661035f576040805162461bcd60e51b815260206004820152601e60248201527f556e697377617056324c6962726172793a205a45524f5f414444524553530000604482015290519081900360640190fd5b60008060006107668585610680565b604080516001600160601b0319606094851b811660208084019190915293851b81166034830152825160288184030181526048830184528051908501206001600160f81b031960688401529a90941b9093166069840152607d8301989098527f96e8ac4277198ff8b6f785478aa9a39f403cb768dd02cbee326c3e7da348845f609d808401919091528851808403909101815260bd909201909752805196019590952095945050505050565b600082610821575060006104ae565b8282028284828161082e57fe5b041461050c5760405162461bcd60e51b81526004018080602001828103825260218152602001806108b96021913960400191505060405180910390fdfe556e697377617056324c6962726172793a204944454e544943414c5f414444524553534553556e697377617056324c6962726172793a20494e53554646494349454e545f4c4951554944495459536166654d6174683a206d756c7469706c69636174696f6e206f766572666c6f77556e697377617056324c6962726172793a20494e53554646494349454e545f414d4f554e54a2646970667358221220fea10308e711e3d6943be20bd882714d72c0bc2f1f28e0cec095d03b041bc28d64736f6c634300060c0033",
    "linkReferences": {},
    "deployedLinkReferences": {}
}