{
  "_format": "hh-sol-artifact-1",
  "contractName": "LibraryWrapper",
  "sourceName": "contracts/test/LibraryWrapper.sol",
  "abi": [
    {
      "inputs": [
        {
          "internalType": "address",
          "name": "oracle_",
          "type": "address"
        },
        {
          "internalType": "address",
          "name": "strategy_",
          "type": "address"
        },
        {
          "internalType": "address",
          "name": "controller_",
          "type": "address"
        }
      ],
      "stateMutability": "nonpayable",
      "type": "constructor"
    },
    {
      "inputs": [],
      "name": "controller",
      "outputs": [
        {
          "internalType": "contract IStrategyController",
          "name": "",
          "type": "address"
        }
      ],
      "stateMutability": "view",
      "type": "function"
    },
    {
      "inputs": [
        {
          "internalType": "uint256",
          "name": "total",
          "type": "uint256"
        },
        {
          "internalType": "address",
          "name": "token",
          "type": "address"
        }
      ],
      "name": "getExpectedTokenValue",
      "outputs": [
        {
          "internalType": "int256",
          "name": "",
          "type": "int256"
        }
      ],
      "stateMutability": "view",
      "type": "function"
    },
    {
      "inputs": [
        {
          "internalType": "int256",
          "name": "expectedValue",
          "type": "int256"
        },
        {
          "internalType": "uint256",
          "name": "range",
          "type": "uint256"
        }
      ],
      "name": "getRange",
      "outputs": [
        {
          "internalType": "int256",
          "name": "",
          "type": "int256"
        }
      ],
      "stateMutability": "pure",
      "type": "function"
    },
    {
      "inputs": [
        {
          "internalType": "int256",
          "name": "expectedValue",
          "type": "int256"
        }
      ],
      "name": "getRebalanceRange",
      "outputs": [
        {
          "internalType": "int256",
          "name": "",
          "type": "int256"
        }
      ],
      "stateMutability": "view",
      "type": "function"
    },
    {
      "inputs": [],
      "name": "getStrategyValue",
      "outputs": [
        {
          "internalType": "uint256",
          "name": "",
          "type": "uint256"
        }
      ],
      "stateMutability": "view",
      "type": "function"
    },
    {
      "inputs": [
        {
          "internalType": "address",
          "name": "token",
          "type": "address"
        }
      ],
      "name": "getTokenValue",
      "outputs": [
        {
          "internalType": "int256",
          "name": "",
          "type": "int256"
        }
      ],
      "stateMutability": "view",
      "type": "function"
    },
    {
      "inputs": [],
      "name": "isBalanced",
      "outputs": [
        {
          "internalType": "bool",
          "name": "balanced",
          "type": "bool"
        }
      ],
      "stateMutability": "view",
      "type": "function"
    },
    {
      "inputs": [],
      "name": "isBalancedInner",
      "outputs": [
        {
          "internalType": "bool",
          "name": "balanced",
          "type": "bool"
        }
      ],
      "stateMutability": "view",
      "type": "function"
    },
    {
      "inputs": [],
      "name": "oracle",
      "outputs": [
        {
          "internalType": "contract IOracle",
          "name": "",
          "type": "address"
        }
      ],
      "stateMutability": "view",
      "type": "function"
    },
    {
      "inputs": [],
      "name": "strategy",
      "outputs": [
        {
          "internalType": "contract IStrategy",
          "name": "",
          "type": "address"
        }
      ],
      "stateMutability": "view",
      "type": "function"
    }
  ],
  "bytecode": "0x608060405234801561001057600080fd5b5060405161105738038061105783398101604081905261002f91610071565b600080546001600160a01b039485166001600160a01b0319918216179091556001805493851693821693909317909255600280549190931691161790556100d5565b600080600060608486031215610085578283fd5b8351610090816100bd565b60208501519093506100a1816100bd565b60408501519092506100b2816100bd565b809150509250925092565b6001600160a01b03811681146100d257600080fd5b50565b610f73806100e46000396000f3fe608060405234801561001057600080fd5b506004361061009e5760003560e01c8063bc6dd5f211610066578063bc6dd5f214610111578063cb03a46414610119578063ef47800214610121578063f1c5d6c214610134578063f77c4791146101475761009e565b806344e7653c146100a35780636be50242146100cc57806372bc0c90146100df5780637dc0d1d0146100f4578063a8c62e7614610109575b600080fd5b6100b66100b1366004610d5f565b61014f565b6040516100c39190610e67565b60405180910390f35b6100b66100da366004610d8f565b61026b565b6100e7610300565b6040516100c39190610e38565b6100fc6103ab565b6040516100c39190610e24565b6100fc6103ba565b6100b66103c9565b6100e7610475565b6100b661012f366004610db0565b61053b565b6100b6610142366004610c32565b610584565b6100fc61059d565b600080600160009054906101000a90046001600160a01b03166001600160a01b0316633dfe9f6a6040518163ffffffff1660e01b815260040160206040518083038186803b1580156101a057600080fd5b505afa1580156101b4573d6000803e3d6000fd5b505050506040513d601f19601f820116820180604052508101906101d89190610d77565b6040516335f2812160e11b815290915073__$59902e9d6730bb3d0c2c9d68301f7cefef$__90636be50242906102149086908590600401610e70565b60206040518083038186803b15801561022c57600080fd5b505af4158015610240573d6000803e3d6000fd5b505050506040513d601f19601f820116820180604052508101906102649190610d77565b9392505050565b6040516335f2812160e11b815260009073__$59902e9d6730bb3d0c2c9d68301f7cefef$__90636be50242906102a79086908690600401610e70565b60206040518083038186803b1580156102bf57600080fd5b505af41580156102d3573d6000803e3d6000fd5b505050506040513d601f19601f820116820180604052508101906102f79190610d77565b90505b92915050565b60015460008054604051631c5206d560e31b8152919273__$721dcd65ec47a727df519a81069c85cfb6$__9263e29036a89261034f926001600160a01b03908116929116908690600401610e43565b60006040518083038186803b15801561036757600080fd5b505af415801561037b573d6000803e3d6000fd5b505050506040513d6000823e601f3d908101601f191682016040526103a39190810190610d03565b509091505090565b6000546001600160a01b031681565b6001546001600160a01b031681565b600080546001546040517fff4a190200000000000000000000000000000000000000000000000000000000815283926001600160a01b039081169263ff4a19029261041a9290911690600401610e24565b60006040518083038186803b15801561043257600080fd5b505afa158015610446573d6000803e3d6000fd5b505050506040513d6000823e601f3d908101601f1916820160405261046e9190810190610ddf565b5091505090565b60015460008054600254604080516394b7f53960e01b81529051939473__$721dcd65ec47a727df519a81069c85cfb6$__9463e29036a8946001600160a01b0392831694908316939216916394b7f539916004808301926020929190829003018186803b1580156104e557600080fd5b505afa1580156104f9573d6000803e3d6000fd5b505050506040513d601f19601f8201168201806040525081019061051d9190610d77565b6040518463ffffffff1660e01b815260040161034f93929190610e43565b600154604051632d5c025d60e11b815260009173__$59902e9d6730bb3d0c2c9d68301f7cefef$__91635ab804ba916102a79187916001600160a01b0316908790600401610ebf565b6001546000906102fa906001600160a01b0316836105ac565b6002546001600160a01b031681565b60006001600160a01b0382166105cd57506001600160a01b038216316102fa565b6001600160a01b0382811614156109a9576060836001600160a01b031663803c88906040518163ffffffff1660e01b815260040160006040518083038186803b15801561061957600080fd5b505afa15801561062d573d6000803e3d6000fd5b505050506040513d6000823e601f3d908101601f191682016040526106559190810190610c6a565b90506000805b82518110156107a1576000548351610797916001600160a01b03169063ecb1927e90899087908690811061068b57fe5b602002602001015187868151811061069f57fe5b60200260200101516001600160a01b03166370a082318c6040518263ffffffff1660e01b81526004016106d29190610e24565b60206040518083038186803b1580156106ea57600080fd5b505afa1580156106fe573d6000803e3d6000fd5b505050506040513d601f19601f820116820180604052508101906107229190610d77565b6040518463ffffffff1660e01b815260040161074093929190610e43565b60206040518083038186803b15801561075857600080fd5b505afa15801561076c573d6000803e3d6000fd5b505050506040513d601f19601f820116820180604052508101906107909190610d77565b8390610b75565b915060010161065b565b506000546040805163c925777560e01b8152905161099f926001600160a01b03169163ecb1927e918991849163c925777591600480820192602092909190829003018186803b1580156107f357600080fd5b505afa158015610807573d6000803e3d6000fd5b505050506040513d601f19601f8201168201806040525081019061082b9190610c4e565b60008054906101000a90046001600160a01b03166001600160a01b031663c92577756040518163ffffffff1660e01b815260040160206040518083038186803b15801561087757600080fd5b505afa15801561088b573d6000803e3d6000fd5b505050506040513d601f19601f820116820180604052508101906108af9190610c4e565b6001600160a01b03166370a082318b6040518263ffffffff1660e01b81526004016108da9190610e24565b60206040518083038186803b1580156108f257600080fd5b505afa158015610906573d6000803e3d6000fd5b505050506040513d601f19601f8201168201806040525081019061092a9190610d77565b6040518463ffffffff1660e01b815260040161094893929190610e43565b60206040518083038186803b15801561096057600080fd5b505afa158015610974573d6000803e3d6000fd5b505050506040513d601f19601f820116820180604052508101906109989190610d77565b8290610b75565b92506102fa915050565b60008054906101000a90046001600160a01b03166001600160a01b0316633fc8cef36040518163ffffffff1660e01b815260040160206040518083038186803b1580156109f557600080fd5b505afa158015610a09573d6000803e3d6000fd5b505050506040513d601f19601f82011682018060405250810190610a2d9190610c4e565b6001600160a01b0316826001600160a01b03161415610ac9576040516370a0823160e01b81526001600160a01b038316906370a0823190610a72908690600401610e24565b60206040518083038186803b158015610a8a57600080fd5b505afa158015610a9e573d6000803e3d6000fd5b505050506040513d601f19601f82011682018060405250810190610ac29190610d77565b90506102fa565b6000546040516370a0823160e01b81526001600160a01b039182169163ecb1927e9186918691908216906370a0823190610b07908590600401610e24565b60206040518083038186803b158015610b1f57600080fd5b505afa158015610b33573d6000803e3d6000fd5b505050506040513d601f19601f82011682018060405250810190610b579190610d77565b6040518463ffffffff1660e01b8152600401610a7293929190610e43565b6000828201818312801590610b8a5750838112155b80610b9f5750600083128015610b9f57508381125b6102f75760405162461bcd60e51b8152600401610bbb90610e7e565b60405180910390fd5b600082601f830112610bd4578081fd5b8151610be7610be282610f05565b610ede565b818152915060208083019084810181840286018201871015610c0857600080fd5b60005b84811015610c2757815184529282019290820190600101610c0b565b505050505092915050565b600060208284031215610c43578081fd5b81356102f781610f25565b600060208284031215610c5f578081fd5b81516102f781610f25565b60006020808385031215610c7c578182fd5b825167ffffffffffffffff811115610c92578283fd5b8301601f81018513610ca2578283fd5b8051610cb0610be282610f05565b8181528381019083850185840285018601891015610ccc578687fd5b8694505b83851015610cf7578051610ce381610f25565b835260019490940193918501918501610cd0565b50979650505050505050565b600080600060608486031215610d17578182fd5b83518015158114610d26578283fd5b60208501516040860151919450925067ffffffffffffffff811115610d49578182fd5b610d5586828701610bc4565b9150509250925092565b600060208284031215610d70578081fd5b5035919050565b600060208284031215610d88578081fd5b5051919050565b60008060408385031215610da1578182fd5b50508035926020909101359150565b60008060408385031215610dc2578182fd5b823591506020830135610dd481610f25565b809150509250929050565b60008060408385031215610df1578182fd5b82519150602083015167ffffffffffffffff811115610e0e578182fd5b610e1a85828601610bc4565b9150509250929050565b6001600160a01b0391909116815260200190565b901515815260200190565b6001600160a01b039384168152919092166020820152604081019190915260600190565b90815260200190565b918252602082015260400190565b60208082526021908201527f5369676e6564536166654d6174683a206164646974696f6e206f766572666c6f6040820152607760f81b606082015260800190565b9283526001600160a01b03918216602084015216604082015260600190565b60405181810167ffffffffffffffff81118282101715610efd57600080fd5b604052919050565b600067ffffffffffffffff821115610f1b578081fd5b5060209081020190565b6001600160a01b0381168114610f3a57600080fd5b5056fea264697066735822122032f7c5176ab9196b846f1c35d75a2b90e5ae48e87d3e5ac85e88e7d03e60fe5864736f6c634300060c0033",
  "linkReferences": {
    "contracts/libraries/ControllerLibrary.sol": {
      "ControllerLibrary": [
        {
          "length": 20,
          "start": 1020
        },
        {
          "length": 20,
          "start": 1399
        }
      ]
    },
    "contracts/libraries/StrategyLibrary.sol": {
      "StrategyLibrary": [
        {
          "length": 20,
          "start": 718
        },
        {
          "length": 20,
          "start": 865
        },
        {
          "length": 20,
          "start": 1588
        }
      ]
    }
  },
  "deployedLinkReferences": {
    "contracts/libraries/ControllerLibrary.sol": {
      "ControllerLibrary": [
        {
          "length": 20,
          "start": 792
        },
        {
          "length": 20,
          "start": 1171
        }
      ]
    },
    "contracts/libraries/StrategyLibrary.sol": {
      "StrategyLibrary": [
        {
          "length": 20,
          "start": 490
        },
        {
          "length": 20,
          "start": 637
        },
        {
          "length": 20,
          "start": 1360
        }
      ]
    }
  }
}