{
  "_format": "hh-sol-artifact-1",
  "contractName": "LibraryWrapper",
  "sourceName": "contracts/test/LibraryWrapper.sol",
  "abi": [
    {
      "inputs": [
        {
          "internalType": "address",
          "name": "oracle_",
          "type": "address"
        },
        {
          "internalType": "address",
          "name": "strategy_",
          "type": "address"
        }
      ],
      "stateMutability": "nonpayable",
      "type": "constructor"
    },
    {
      "inputs": [
        {
          "internalType": "uint256",
          "name": "total",
          "type": "uint256"
        },
        {
          "internalType": "address",
          "name": "token",
          "type": "address"
        }
      ],
      "name": "getExpectedTokenValue",
      "outputs": [
        {
          "internalType": "int256",
          "name": "",
          "type": "int256"
        }
      ],
      "stateMutability": "view",
      "type": "function"
    },
    {
      "inputs": [
        {
          "internalType": "int256",
          "name": "expectedValue",
          "type": "int256"
        },
        {
          "internalType": "uint256",
          "name": "range",
          "type": "uint256"
        }
      ],
      "name": "getRange",
      "outputs": [
        {
          "internalType": "int256",
          "name": "",
          "type": "int256"
        }
      ],
      "stateMutability": "pure",
      "type": "function"
    },
    {
      "inputs": [
        {
          "internalType": "int256",
          "name": "expectedValue",
          "type": "int256"
        }
      ],
      "name": "getRebalanceRange",
      "outputs": [
        {
          "internalType": "int256",
          "name": "",
          "type": "int256"
        }
      ],
      "stateMutability": "view",
      "type": "function"
    },
    {
      "inputs": [],
      "name": "getStrategyValue",
      "outputs": [
        {
          "internalType": "uint256",
          "name": "",
          "type": "uint256"
        }
      ],
      "stateMutability": "view",
      "type": "function"
    },
    {
      "inputs": [
        {
          "internalType": "address",
          "name": "token",
          "type": "address"
        }
      ],
      "name": "getTokenValue",
      "outputs": [
        {
          "internalType": "int256",
          "name": "",
          "type": "int256"
        }
      ],
      "stateMutability": "view",
      "type": "function"
    },
    {
      "inputs": [],
      "name": "isBalanced",
      "outputs": [
        {
          "internalType": "bool",
          "name": "",
          "type": "bool"
        }
      ],
      "stateMutability": "view",
      "type": "function"
    },
    {
      "inputs": [
        {
          "internalType": "uint256",
          "name": "alertThreshold",
          "type": "uint256"
        }
      ],
      "name": "isRebalanceNeeded",
      "outputs": [
        {
          "internalType": "bool",
          "name": "",
          "type": "bool"
        }
      ],
      "stateMutability": "view",
      "type": "function"
    },
    {
      "inputs": [],
      "name": "oracle",
      "outputs": [
        {
          "internalType": "contract IOracle",
          "name": "",
          "type": "address"
        }
      ],
      "stateMutability": "view",
      "type": "function"
    },
    {
      "inputs": [],
      "name": "strategy",
      "outputs": [
        {
          "internalType": "contract IStrategy",
          "name": "",
          "type": "address"
        }
      ],
      "stateMutability": "view",
      "type": "function"
    }
  ],
  "bytecode": "0x608060405234801561001057600080fd5b5060405161159238038061159283398101604081905261002f91610060565b600080546001600160a01b039384166001600160a01b031991821617909155600180549290931691161790556100b1565b60008060408385031215610072578182fd5b825161007d81610099565b602084015190925061008e81610099565b809150509250929050565b6001600160a01b03811681146100ae57600080fd5b50565b6114d2806100c06000396000f3fe608060405234801561001057600080fd5b50600436106100835760003560e01c80634460e92a1461008857806344e7653c146100b15780636be50242146100d15780637dc0d1d0146100e4578063a8c62e76146100f9578063bc6dd5f214610101578063cb03a46414610109578063ef47800214610111578063f1c5d6c214610124575b600080fd5b61009b610096366004611233565b610137565b6040516100a89190611362565b60405180910390f35b6100c46100bf366004611233565b61014b565b6040516100a8919061136d565b6100c46100df366004611263565b610267565b6100ec6102fc565b6040516100a8919061134e565b6100ec61030b565b6100c461031a565b61009b6103b0565b6100c461011f366004611284565b610445565b6100c461013236600461115e565b61048e565b600080610143836104a7565b159392505050565b600080600160009054906101000a90046001600160a01b03166001600160a01b0316633dfe9f6a6040518163ffffffff1660e01b815260040160206040518083038186803b15801561019c57600080fd5b505afa1580156101b0573d6000803e3d6000fd5b505050506040513d601f19601f820116820180604052508101906101d4919061124b565b6040516335f2812160e11b815290915073__$59902e9d6730bb3d0c2c9d68301f7cefef$__90636be50242906102109086908590600401611376565b60206040518083038186803b15801561022857600080fd5b505af415801561023c573d6000803e3d6000fd5b505050506040513d601f19601f82011682018060405250810190610260919061124b565b9392505050565b6040516335f2812160e11b815260009073__$59902e9d6730bb3d0c2c9d68301f7cefef$__90636be50242906102a39086908690600401611376565b60206040518083038186803b1580156102bb57600080fd5b505af41580156102cf573d6000803e3d6000fd5b505050506040513d601f19601f820116820180604052508101906102f3919061124b565b90505b92915050565b6000546001600160a01b031681565b6001546001600160a01b031681565b600080546001546040516001625af37f60e11b0319815283926001600160a01b039081169263ff4a190292610355929091169060040161134e565b60006040518083038186803b15801561036d57600080fd5b505afa158015610381573d6000803e3d6000fd5b505050506040513d6000823e601f3d908101601f191682016040526103a991908101906112b3565b5091505090565b6000610440600160009054906101000a90046001600160a01b03166001600160a01b0316633dfe9f6a6040518163ffffffff1660e01b815260040160206040518083038186803b15801561040357600080fd5b505afa158015610417573d6000803e3d6000fd5b505050506040513d601f19601f8201168201806040525081019061043b919061124b565b6104a7565b905090565b600154604051632d5c025d60e11b815260009173__$59902e9d6730bb3d0c2c9d68301f7cefef$__91635ab804ba916102a39187916001600160a01b0316908790600401611420565b6001546000906102f6906001600160a01b031683610a9a565b600080546001546040516001625af37f60e11b0319815283926060926001600160a01b039182169263ff4a1902926104e392169060040161134e565b60006040518083038186803b1580156104fb57600080fd5b505afa15801561050f573d6000803e3d6000fd5b505050506040513d6000823e601f3d908101601f1916820160405261053791908101906112b3565b915091506000600190506060600160009054906101000a90046001600160a01b03166001600160a01b031663c06fad066040518163ffffffff1660e01b815260040160006040518083038186803b15801561059157600080fd5b505afa1580156105a5573d6000803e3d6000fd5b505050506040513d6000823e601f3d908101601f191682016040526105cd9190810190611196565b905060005b815181101561084457600073__$59902e9d6730bb3d0c2c9d68301f7cefef$__635ab804ba87600160009054906101000a90046001600160a01b031686868151811061061a57fe5b60200260200101516040518463ffffffff1660e01b815260040161064093929190611420565b60206040518083038186803b15801561065857600080fd5b505af415801561066c573d6000803e3d6000fd5b505050506040513d601f19601f82011682018060405250810190610690919061124b565b9050600081131561078d576040516335f2812160e11b815260009073__$59902e9d6730bb3d0c2c9d68301f7cefef$__90636be50242906106d79085908d90600401611376565b60206040518083038186803b1580156106ef57600080fd5b505af4158015610703573d6000803e3d6000fd5b505050506040513d601f19601f82011682018060405250810190610727919061124b565b905061073382826110c9565b86848151811061073f57fe5b6020026020010151131561075857600094505050610844565b6107628282611118565b86848151811061076e57fe5b6020026020010151121561078757600094505050610844565b5061083b565b6040516335f2812160e11b815273__$59902e9d6730bb3d0c2c9d68301f7cefef$__90636be50242906107c7908990600190600401611376565b60206040518083038186803b1580156107df57600080fd5b505af41580156107f3573d6000803e3d6000fd5b505050506040513d601f19601f82011682018060405250810190610817919061124b565b85838151811061082357fe5b6020026020010151131561083b576000935050610844565b506001016105d2565b508115610a915760015460408051630dca59c160e01b815290516060926001600160a01b031691630dca59c1916004808301926000929190829003018186803b15801561089057600080fd5b505afa1580156108a4573d6000803e3d6000fd5b505050506040513d6000823e601f3d908101601f191682016040526108cc9190810190611196565b905060005b8151811015610a8e57600073__$59902e9d6730bb3d0c2c9d68301f7cefef$__635ab804ba88600160009054906101000a90046001600160a01b031686868151811061091957fe5b60200260200101516040518463ffffffff1660e01b815260040161093f93929190611420565b60206040518083038186803b15801561095757600080fd5b505af415801561096b573d6000803e3d6000fd5b505050506040513d601f19601f8201168201806040525081019061098f919061124b565b9050600073__$59902e9d6730bb3d0c2c9d68301f7cefef$__636be50242838c6040518363ffffffff1660e01b81526004016109cc929190611376565b60206040518083038186803b1580156109e457600080fd5b505af41580156109f8573d6000803e3d6000fd5b505050506040513d601f19601f82011682018060405250810190610a1c919061124b565b85519091508301610a2d83836110c9565b888281518110610a3957fe5b60200260200101511215610a535760009650505050610a8e565b610a5d8383611118565b888281518110610a6957fe5b60200260200101511315610a835760009650505050610a8e565b5050506001016108d1565b50505b50949350505050565b60006001600160a01b038216610abb57506001600160a01b038216316102f6565b6001600160a01b038281161415610e90576060836001600160a01b031663803c88906040518163ffffffff1660e01b815260040160006040518083038186803b158015610b0757600080fd5b505afa158015610b1b573d6000803e3d6000fd5b505050506040513d6000823e601f3d908101601f19168201604052610b439190810190611196565b90506000805b8251811015610c8c576000548351610c82916001600160a01b03169063b44a043b90869085908110610b7757fe5b60200260200101516001600160a01b03166370a082318a6040518263ffffffff1660e01b8152600401610baa919061134e565b60206040518083038186803b158015610bc257600080fd5b505afa158015610bd6573d6000803e3d6000fd5b505050506040513d601f19601f82011682018060405250810190610bfa919061124b565b868581518110610c0657fe5b60200260200101516040518363ffffffff1660e01b8152600401610c2b929190611409565b60206040518083038186803b158015610c4357600080fd5b505afa158015610c57573d6000803e3d6000fd5b505050506040513d601f19601f82011682018060405250810190610c7b919061124b565b83906110c9565b9150600101610b49565b506000546040805163c925777560e01b81529051610e86926001600160a01b03169163b44a043b91839163c9257775916004808301926020929190829003018186803b158015610cdb57600080fd5b505afa158015610cef573d6000803e3d6000fd5b505050506040513d601f19601f82011682018060405250810190610d13919061117a565b6001600160a01b03166370a08231896040518263ffffffff1660e01b8152600401610d3e919061134e565b60206040518083038186803b158015610d5657600080fd5b505afa158015610d6a573d6000803e3d6000fd5b505050506040513d601f19601f82011682018060405250810190610d8e919061124b565b60008054906101000a90046001600160a01b03166001600160a01b031663c92577756040518163ffffffff1660e01b815260040160206040518083038186803b158015610dda57600080fd5b505afa158015610dee573d6000803e3d6000fd5b505050506040513d601f19601f82011682018060405250810190610e12919061117a565b6040518363ffffffff1660e01b8152600401610e2f929190611409565b60206040518083038186803b158015610e4757600080fd5b505afa158015610e5b573d6000803e3d6000fd5b505050506040513d601f19601f82011682018060405250810190610e7f919061124b565b82906110c9565b92506102f6915050565b60008054906101000a90046001600160a01b03166001600160a01b0316633fc8cef36040518163ffffffff1660e01b815260040160206040518083038186803b158015610edc57600080fd5b505afa158015610ef0573d6000803e3d6000fd5b505050506040513d601f19601f82011682018060405250810190610f14919061117a565b6001600160a01b0316826001600160a01b03161415610fb0576040516370a0823160e01b81526001600160a01b038316906370a0823190610f5990869060040161134e565b60206040518083038186803b158015610f7157600080fd5b505afa158015610f85573d6000803e3d6000fd5b505050506040513d601f19601f82011682018060405250810190610fa9919061124b565b90506102f6565b826001600160a01b0316637dc0d1d06040518163ffffffff1660e01b815260040160206040518083038186803b158015610fe957600080fd5b505afa158015610ffd573d6000803e3d6000fd5b505050506040513d601f19601f82011682018060405250810190611021919061117a565b6001600160a01b031663b44a043b836001600160a01b03166370a08231866040518263ffffffff1660e01b815260040161105b919061134e565b60206040518083038186803b15801561107357600080fd5b505afa158015611087573d6000803e3d6000fd5b505050506040513d601f19601f820116820180604052508101906110ab919061124b565b846040518363ffffffff1660e01b8152600401610f59929190611409565b60008282018183128015906110de5750838112155b806110f357506000831280156110f357508381125b6102f35760405162461bcd60e51b815260040161110f90611384565b60405180910390fd5b600081830381831280159061112d5750838113155b80611142575060008312801561114257508381135b6102f35760405162461bcd60e51b815260040161110f906113c5565b60006020828403121561116f578081fd5b81356102f381611484565b60006020828403121561118b578081fd5b81516102f381611484565b600060208083850312156111a8578182fd5b82516001600160401b038111156111bd578283fd5b8301601f810185136111cd578283fd5b80516111e06111db82611465565b61143f565b81815283810190838501858402850186018910156111fc578687fd5b8694505b8385101561122757805161121381611484565b835260019490940193918501918501611200565b50979650505050505050565b600060208284031215611244578081fd5b5035919050565b60006020828403121561125c578081fd5b5051919050565b60008060408385031215611275578081fd5b50508035926020909101359150565b60008060408385031215611296578182fd5b8235915060208301356112a881611484565b809150509250929050565b600080604083850312156112c5578182fd5b825191506020808401516001600160401b038111156112e2578283fd5b8401601f810186136112f2578283fd5b80516113006111db82611465565b81815283810190838501858402850186018a101561131c578687fd5b8694505b8385101561133e578051835260019490940193918501918501611320565b5080955050505050509250929050565b6001600160a01b0391909116815260200190565b901515815260200190565b90815260200190565b918252602082015260400190565b60208082526021908201527f5369676e6564536166654d6174683a206164646974696f6e206f766572666c6f6040820152607760f81b606082015260800190565b60208082526024908201527f5369676e6564536166654d6174683a207375627472616374696f6e206f766572604082015263666c6f7760e01b606082015260800190565b9182526001600160a01b0316602082015260400190565b9283526001600160a01b03918216602084015216604082015260600190565b6040518181016001600160401b038111828210171561145d57600080fd5b604052919050565b60006001600160401b0382111561147a578081fd5b5060209081020190565b6001600160a01b038116811461149957600080fd5b5056fea2646970667358221220fea31b29e89da1893c7d285e184597f5447e2937b0797e6c4ed70c7b64ae78be64736f6c634300060c0033",
  "linkReferences": {
    "contracts/libraries/StrategyLibrary.sol": {
      "StrategyLibrary": [
        {
          "length": 20,
          "start": 678
        },
        {
          "length": 20,
          "start": 825
        },
        {
          "length": 20,
          "start": 1306
        },
        {
          "length": 20,
          "start": 1695
        },
        {
          "length": 20,
          "start": 1901
        },
        {
          "length": 20,
          "start": 2140
        },
        {
          "length": 20,
          "start": 2462
        },
        {
          "length": 20,
          "start": 2645
        }
      ]
    }
  },
  "deployedLinkReferences": {
    "contracts/libraries/StrategyLibrary.sol": {
      "StrategyLibrary": [
        {
          "length": 20,
          "start": 486
        },
        {
          "length": 20,
          "start": 633
        },
        {
          "length": 20,
          "start": 1114
        },
        {
          "length": 20,
          "start": 1503
        },
        {
          "length": 20,
          "start": 1709
        },
        {
          "length": 20,
          "start": 1948
        },
        {
          "length": 20,
          "start": 2270
        },
        {
          "length": 20,
          "start": 2453
        }
      ]
    }
  }
}