{
    "_format": "hh-sol-artifact-1",
    "contractName": "GenericRouter",
    "sourceName": "contracts/routers/GenericRouter.sol",
    "abi": [
        {
            "inputs": [
                {
                    "internalType": "address",
                    "name": "controller_",
                    "type": "address"
                }
            ],
            "stateMutability": "nonpayable",
            "type": "constructor"
        },
        {
            "inputs": [],
            "name": "CALL_REVERT_PREFIX",
            "outputs": [
                {
                    "internalType": "string",
                    "name": "",
                    "type": "string"
                }
            ],
            "stateMutability": "view",
            "type": "function"
        },
        {
            "inputs": [],
            "name": "category",
            "outputs": [
                {
                    "internalType": "enum IStrategyRouter.RouterCategory",
                    "name": "",
                    "type": "uint8"
                }
            ],
            "stateMutability": "view",
            "type": "function"
        },
        {
            "inputs": [],
            "name": "controller",
            "outputs": [
                {
                    "internalType": "contract IStrategyController",
                    "name": "",
                    "type": "address"
                }
            ],
            "stateMutability": "view",
            "type": "function"
        },
        {
            "inputs": [
                {
                    "internalType": "address",
                    "name": "adapter",
                    "type": "address"
                },
                {
                    "internalType": "uint256",
                    "name": "amount",
                    "type": "uint256"
                },
                {
                    "internalType": "uint256",
                    "name": "expected",
                    "type": "uint256"
                },
                {
                    "internalType": "address",
                    "name": "tokenIn",
                    "type": "address"
                },
                {
                    "internalType": "address",
                    "name": "tokenOut",
                    "type": "address"
                },
                {
                    "internalType": "address",
                    "name": "from",
                    "type": "address"
                },
                {
                    "internalType": "address",
                    "name": "to",
                    "type": "address"
                }
            ],
            "name": "delegateSwap",
            "outputs": [],
            "stateMutability": "nonpayable",
            "type": "function"
        },
        {
            "inputs": [
                {
                    "internalType": "address",
                    "name": "",
                    "type": "address"
                },
                {
                    "internalType": "bytes",
                    "name": "data",
                    "type": "bytes"
                }
            ],
            "name": "deposit",
            "outputs": [],
            "stateMutability": "nonpayable",
            "type": "function"
        },
        {
            "inputs": [
                {
                    "components": [
                        {
                            "internalType": "address",
                            "name": "target",
                            "type": "address"
                        },
                        {
                            "internalType": "bytes",
                            "name": "callData",
                            "type": "bytes"
                        }
                    ],
                    "internalType": "struct Multicall.Call[]",
                    "name": "calls",
                    "type": "tuple[]"
                }
            ],
            "name": "encodeCalls",
            "outputs": [
                {
                    "internalType": "bytes",
                    "name": "data",
                    "type": "bytes"
                }
            ],
            "stateMutability": "pure",
            "type": "function"
        },
        {
            "inputs": [
                {
                    "internalType": "address",
                    "name": "",
                    "type": "address"
                },
                {
                    "internalType": "bytes",
                    "name": "data",
                    "type": "bytes"
                }
            ],
            "name": "rebalance",
            "outputs": [],
            "stateMutability": "nonpayable",
            "type": "function"
        },
        {
            "inputs": [
                {
                    "internalType": "address",
                    "name": "",
                    "type": "address"
                },
                {
                    "internalType": "bytes",
                    "name": "data",
                    "type": "bytes"
                }
            ],
            "name": "restructure",
            "outputs": [],
            "stateMutability": "nonpayable",
            "type": "function"
        },
        {
            "inputs": [
                {
                    "internalType": "address",
                    "name": "adapter",
                    "type": "address"
                },
                {
                    "internalType": "address",
                    "name": "tokenIn",
                    "type": "address"
                },
                {
                    "internalType": "address",
                    "name": "tokenOut",
                    "type": "address"
                },
                {
                    "internalType": "address",
                    "name": "from",
                    "type": "address"
                },
                {
                    "internalType": "address",
                    "name": "to",
                    "type": "address"
                }
            ],
            "name": "settleSwap",
            "outputs": [],
            "stateMutability": "nonpayable",
            "type": "function"
        },
        {
            "inputs": [
                {
                    "internalType": "address",
                    "name": "token",
                    "type": "address"
                },
                {
                    "internalType": "address",
                    "name": "to",
                    "type": "address"
                }
            ],
            "name": "settleTransfer",
            "outputs": [],
            "stateMutability": "nonpayable",
            "type": "function"
        },
        {
            "inputs": [
                {
                    "internalType": "address",
                    "name": "token",
                    "type": "address"
                },
                {
                    "internalType": "address",
                    "name": "from",
                    "type": "address"
                },
                {
                    "internalType": "address",
                    "name": "to",
                    "type": "address"
                }
            ],
            "name": "settleTransferFrom",
            "outputs": [],
            "stateMutability": "nonpayable",
            "type": "function"
        },
        {
            "inputs": [],
            "name": "weth",
            "outputs": [
                {
                    "internalType": "address",
                    "name": "",
                    "type": "address"
                }
            ],
            "stateMutability": "view",
            "type": "function"
        },
        {
            "inputs": [
                {
                    "internalType": "address",
                    "name": "",
                    "type": "address"
                },
                {
                    "internalType": "bytes",
                    "name": "data",
                    "type": "bytes"
                }
            ],
            "name": "withdraw",
            "outputs": [],
            "stateMutability": "nonpayable",
            "type": "function"
        }
    ],
    "bytecode": "0x60e06040523480156200001157600080fd5b50604051620017103803806200171083398101604081905262000034916200015a565b600060808190526001600160601b0319606083901b1660a052604080516307dc0d1d60e41b8152905183916001600160a01b03831691637dc0d1d091600480820192602092909190829003018186803b1580156200009157600080fd5b505afa158015620000a6573d6000803e3d6000fd5b505050506040513d601f19601f82011682018060405250810190620000cc91906200015a565b6001600160a01b0316633fc8cef36040518163ffffffff1660e01b815260040160206040518083038186803b1580156200010557600080fd5b505afa1580156200011a573d6000803e3d6000fd5b505050506040513d601f19601f820116820180604052508101906200014091906200015a565b60601b6001600160601b03191660c0525062000199915050565b6000602082840312156200016c578081fd5b8151620001798162000180565b9392505050565b6001600160a01b03811681146200019657600080fd5b50565b60805160f81c60a05160601c60c05160601c611532620001de600039806101b452508061024952806103745280610552528061059952508061052e52506115326000f3fe608060405234801561001057600080fd5b50600436106100af5760003560e01c806319a83f92146100b45780633fc8cef3146100d25780634031d095146100e75780634438a7eb146100fa5780634bb78b141461010f5780638005168d14610122578063ba11d5d014610135578063beff455314610148578063c5067ad41461015b578063cf2c52cb14610135578063ea1ea75e14610135578063ef430aa61461016e578063f77c479114610183575b600080fd5b6100bc61018b565b6040516100c99190611291565b60405180910390f35b6100da6101b2565b6040516100c99190611162565b6100bc6100f5366004610e59565b6101d6565b61010d610108366004610dd6565b610202565b005b61010d61011d366004610d0a565b610247565b61010d610130366004610c9a565b6102af565b61010d610143366004610d89565b610372565b61010d610156366004610c18565b6103e1565b61010d610169366004610c50565b610486565b61017661052c565b6040516100c991906112a4565b6100da610550565b6040518060400160405280600b81526020016a026bab63a34b1b0b6361d160ad1b81525081565b7f000000000000000000000000000000000000000000000000000000000000000081565b606082826040516020016101eb9291906111b3565b604051602081830303815290604052905092915050565b61020a610574565b61021987878787878787610595565b61023e5760405162461bcd60e51b8152600401610235906112e1565b60405180910390fd5b50505050505050565b7f00000000000000000000000000000000000000000000000000000000000000006001600160a01b0316331461028f5760405162461bcd60e51b8152600401610235906112b8565b606061029d82840184610ec7565b90506102a881610750565b5050505050565b6102b7610574565b6040516370a0823160e01b81526000906001600160a01b038616906370a08231906102e6908690600401611162565b60206040518083038186803b1580156102fe57600080fd5b505afa158015610312573d6000803e3d6000fd5b505050506040513d601f19601f8201168201806040525081019061033691906110d3565b9050801561036a5761034e8682600088888888610595565b61036a5760405162461bcd60e51b8152600401610235906112e1565b505050505050565b7f00000000000000000000000000000000000000000000000000000000000000006001600160a01b031633146103ba5760405162461bcd60e51b8152600401610235906112b8565b6060818060200190518101906103d09190610f99565b90506103db81610750565b50505050565b6103e9610574565b6040516370a0823160e01b815282906000906001600160a01b038316906370a082319061041a903090600401611162565b60206040518083038186803b15801561043257600080fd5b505afa158015610446573d6000803e3d6000fd5b505050506040513d601f19601f8201168201806040525081019061046a91906110d3565b905080156103db576103db6001600160a01b0383168483610885565b61048e610574565b6040516370a0823160e01b815283906000906001600160a01b038316906370a08231906104bf908790600401611162565b60206040518083038186803b1580156104d757600080fd5b505afa1580156104eb573d6000803e3d6000fd5b505050506040513d601f19601f8201168201806040525081019061050f91906110d3565b905080156102a8576102a86001600160a01b0383168585846108e0565b7f000000000000000000000000000000000000000000000000000000000000000081565b7f000000000000000000000000000000000000000000000000000000000000000081565b3330146105935760405162461bcd60e51b815260040161023590611306565b565b60007f00000000000000000000000000000000000000000000000000000000000000006001600160a01b03166393e59dc16040518163ffffffff1660e01b815260040160206040518083038186803b1580156105f057600080fd5b505afa158015610604573d6000803e3d6000fd5b505050506040513d601f19601f82011682018060405250810190610628919061107d565b6001600160a01b031663d8b964e6896040518263ffffffff1660e01b81526004016106539190611162565b60206040518083038186803b15801561066b57600080fd5b505afa15801561067f573d6000803e3d6000fd5b505050506040513d601f19601f820116820180604052508101906106a3919061105d565b6106bf5760405162461bcd60e51b815260040161023590611373565b60607f230f11c7cc54d258ee9bfebf8292225b43b26633217971638b4a8364be584e178888888888886040516024016106fd9695949392919061141a565b60408051601f198184030181529190526020810180516001600160e01b03166001600160e01b031990931692909217909152905060005a90506000808351602085018d85f49a9950505050505050505050565b606081516001600160401b038111801561076957600080fd5b5060405190808252806020026020018201604052801561079d57816020015b60608152602001906001900390816107885790505b50905060005b825181101561087f576107b4610b55565b8382815181106107c057fe5b602002602001015190506000606082600001516001600160a01b031683602001516040516107ee9190611117565b6000604051808303816000865af19150503d806000811461082b576040519150601f19603f3d011682016040523d82523d6000602084013e610830565b606091505b50915091508161085c5761084381610901565b60405162461bcd60e51b81526004016102359190611291565b8085858151811061086957fe5b60209081029190910101525050506001016107a3565b50919050565b6108db8363a9059cbb60e01b84846040516024016108a492919061119a565b60408051601f198184030181529190526020810180516001600160e01b03166001600160e01b03199093169290921790915261095d565b505050565b6103db846323b872dd60e01b8585856040516024016108a493929190611176565b60608061090d836109ec565b90506040518060400160405280600b81526020016a026bab63a34b1b0b6361d160ad1b81525081604051602001610945929190611133565b6040516020818303038152906040529150505b919050565b60606109b2826040518060400160405280602081526020017f5361666545524332303a206c6f772d6c6576656c2063616c6c206661696c6564815250856001600160a01b0316610a3c9092919063ffffffff16565b8051909150156108db57808060200190518101906109d0919061105d565b6108db5760405162461bcd60e51b8152600401610235906113d0565b6060604482511015610a22575060408051808201909152600d81526c4e6f20726576657274206d736760981b6020820152610958565b81806020019051810190610a369190611099565b92915050565b6060610a4b8484600085610a55565b90505b9392505050565b606082471015610a775760405162461bcd60e51b81526004016102359061132d565b610a8085610b16565b610a9c5760405162461bcd60e51b815260040161023590611399565b60006060866001600160a01b03168587604051610ab99190611117565b60006040518083038185875af1925050503d8060008114610af6576040519150601f19603f3d011682016040523d82523d6000602084013e610afb565b606091505b5091509150610b0b828286610b1c565b979650505050505050565b3b151590565b60608315610b2b575081610a4e565b825115610b3b5782518084602001fd5b8160405162461bcd60e51b81526004016102359190611291565b60408051808201909152600081526060602082015290565b8035610a36816114e4565b600082601f830112610b88578081fd5b8135610b9b610b9682611495565b611450565b9150808252836020828501011115610bb257600080fd5b8060208401602084013760009082016020015292915050565b600082601f830112610bdb578081fd5b8151610be9610b9682611495565b9150808252836020828501011115610c0057600080fd5b610c118160208401602086016114b8565b5092915050565b60008060408385031215610c2a578182fd5b8235610c35816114e4565b91506020830135610c45816114e4565b809150509250929050565b600080600060608486031215610c64578081fd5b8335610c6f816114e4565b92506020840135610c7f816114e4565b91506040840135610c8f816114e4565b809150509250925092565b600080600080600060a08688031215610cb1578081fd5b8535610cbc816114e4565b94506020860135610ccc816114e4565b93506040860135610cdc816114e4565b92506060860135610cec816114e4565b91506080860135610cfc816114e4565b809150509295509295909350565b600080600060408486031215610d1e578283fd5b8335610d29816114e4565b925060208401356001600160401b0380821115610d44578384fd5b818601915086601f830112610d57578384fd5b813581811115610d65578485fd5b876020828501011115610d76578485fd5b6020830194508093505050509250925092565b60008060408385031215610d9b578182fd5b8235610da6816114e4565b915060208301356001600160401b03811115610dc0578182fd5b610dcc85828601610b78565b9150509250929050565b600080600080600080600060e0888a031215610df0578182fd5b8735610dfb816114e4565b965060208801359550604088013594506060880135610e19816114e4565b93506080880135610e29816114e4565b925060a0880135610e39816114e4565b915060c0880135610e49816114e4565b8091505092959891949750929550565b60008060208385031215610e6b578182fd5b82356001600160401b0380821115610e81578384fd5b818501915085601f830112610e94578384fd5b813581811115610ea2578485fd5b8660208083028501011115610eb5578485fd5b60209290920196919550909350505050565b60006020808385031215610ed9578182fd5b82356001600160401b0380821115610eef578384fd5b818501915085601f830112610f02578384fd5b8135610f10610b9682611476565b81815284810190848601875b84811015610f8a5781358701604080601f19838f03011215610f3c578a8bfd5b610f4581611450565b610f518e8c8501610b6d565b8152908201359088821115610f64578b8cfd5b610f728e8c84860101610b78565b818c0152865250509287019290870190600101610f1c565b50909998505050505050505050565b60006020808385031215610fab578182fd5b82516001600160401b0380821115610fc1578384fd5b818501915085601f830112610fd4578384fd5b8151610fe2610b9682611476565b81815284810190848601875b84811015610f8a5781518701604080601f19838f0301121561100e578a8bfd5b61101781611450565b8a830151611024816114e4565b8152908201519088821115611037578b8cfd5b6110458e8c84860101610bcb565b818c0152865250509287019290870190600101610fee565b60006020828403121561106e578081fd5b81518015158114610a4e578182fd5b60006020828403121561108e578081fd5b8151610a4e816114e4565b6000602082840312156110aa578081fd5b81516001600160401b038111156110bf578182fd5b6110cb84828501610bcb565b949350505050565b6000602082840312156110e4578081fd5b5051919050565b600081518084526111038160208601602086016114b8565b601f01601f19169290920160200192915050565b600082516111298184602087016114b8565b9190910192915050565b600083516111458184602088016114b8565b8351908301906111598183602088016114b8565b01949350505050565b6001600160a01b0391909116815260200190565b6001600160a01b039384168152919092166020820152604081019190915260600190565b6001600160a01b03929092168252602082015260400190565b602080825281810183905260009060408084018583028501820187855b8881101561128357878303603f190184528135368b9003603e190181126111f5578788fd5b8a018035611202816114e4565b6001600160a01b031684528087013536829003601e19018112611223578889fd5b810180356001600160401b0381111561123a57898afd5b80360383131561124857898afd5b8789870152808887015260609250808983018488013785810183018a905295880195601f01601f1916909401019250908501906001016111d0565b509098975050505050505050565b600060208252610a4e60208301846110eb565b60208101600483106112b257fe5b91905290565b6020808252600f908201526e27b7363c9031b7b73a3937b63632b960891b604082015260600190565b6020808252600b908201526a14ddd85c0819985a5b195960aa1b604082015260600190565b6020808252600d908201526c13db9b1e481a5b9d195c9b985b609a1b604082015260600190565b60208082526026908201527f416464726573733a20696e73756666696369656e742062616c616e636520666f6040820152651c8818d85b1b60d21b606082015260800190565b6020808252600c908201526b139bdd08185c1c1c9bdd995960a21b604082015260600190565b6020808252601d908201527f416464726573733a2063616c6c20746f206e6f6e2d636f6e7472616374000000604082015260600190565b6020808252602a908201527f5361666545524332303a204552433230206f7065726174696f6e20646964206e6040820152691bdd081cdd58d8d9595960b21b606082015260800190565b95865260208601949094526001600160a01b0392831660408601529082166060850152811660808401521660a082015260c00190565b6040518181016001600160401b038111828210171561146e57600080fd5b604052919050565b60006001600160401b0382111561148b578081fd5b5060209081020190565b60006001600160401b038211156114aa578081fd5b50601f01601f191660200190565b60005b838110156114d35781810151838201526020016114bb565b838111156103db5750506000910152565b6001600160a01b03811681146114f957600080fd5b5056fea26469706673582212202e6f5ce390cfed285ab81eb7d5db5773510c13f339507642595977c377eb04b564736f6c634300060c0033",
    "linkReferences": {},
    "deployedLinkReferences": {}
}