{
  "_format": "hh-sol-artifact-1",
  "contractName": "MetaStrategyAdapter",
  "sourceName": "contracts/adapters/strategy/MetaStrategyAdapter.sol",
  "abi": [
    {
      "inputs": [
        {
          "internalType": "address",
          "name": "controller_",
          "type": "address"
        },
        {
          "internalType": "address",
          "name": "router_",
          "type": "address"
        },
        {
          "internalType": "address",
          "name": "weth_",
          "type": "address"
        }
      ],
      "stateMutability": "nonpayable",
      "type": "constructor"
    },
    {
      "inputs": [],
      "name": "DEFAULT_SLIPPAGE",
      "outputs": [
        {
          "internalType": "uint256",
          "name": "",
          "type": "uint256"
        }
      ],
      "stateMutability": "view",
      "type": "function"
    },
    {
      "inputs": [],
      "name": "controller",
      "outputs": [
        {
          "internalType": "contract IStrategyController",
          "name": "",
          "type": "address"
        }
      ],
      "stateMutability": "view",
      "type": "function"
    },
    {
      "inputs": [],
      "name": "router",
      "outputs": [
        {
          "internalType": "contract IStrategyRouter",
          "name": "",
          "type": "address"
        }
      ],
      "stateMutability": "view",
      "type": "function"
    },
    {
      "inputs": [
        {
          "internalType": "uint256",
          "name": "amount",
          "type": "uint256"
        },
        {
          "internalType": "uint256",
          "name": "expected",
          "type": "uint256"
        },
        {
          "internalType": "address",
          "name": "tokenIn",
          "type": "address"
        },
        {
          "internalType": "address",
          "name": "tokenOut",
          "type": "address"
        },
        {
          "internalType": "address",
          "name": "from",
          "type": "address"
        },
        {
          "internalType": "address",
          "name": "to",
          "type": "address"
        }
      ],
      "name": "swap",
      "outputs": [],
      "stateMutability": "nonpayable",
      "type": "function"
    },
    {
      "inputs": [],
      "name": "weth",
      "outputs": [
        {
          "internalType": "address",
          "name": "",
          "type": "address"
        }
      ],
      "stateMutability": "view",
      "type": "function"
    }
  ],
  "bytecode": "0x60e060405234801561001057600080fd5b50604051610d23380380610d2383398101604081905261002f91610054565b6001600160601b0319606091821b811660805292811b831660a0521b1660c0526100b8565b600080600060608486031215610068578283fd5b8351610073816100a0565b6020850151909350610084816100a0565b6040850151909250610095816100a0565b809150509250925092565b6001600160a01b03811681146100b557600080fd5b50565b60805160601c60a05160601c60c05160601c610bfb610128600039806101dd528061021a528061028552806102e6528061033c528061045152806105d0525080610256528061042252806105ac52508060f1528061012c52806101a352806103d352806105825250610bfb6000f3fe608060405234801561001057600080fd5b50600436106100575760003560e01c8063230f11c71461005c5780633fc8cef314610071578063a87985101461008f578063f77c4791146100a4578063f887ea40146100ac575b600080fd5b61006f61006a3660046108a0565b6100b4565b005b610079610580565b604051610086919061092b565b60405180910390f35b6100976105a4565b6040516100869190610b78565b6100796105aa565b6100796105ce565b826001600160a01b0316846001600160a01b031614156100ef5760405162461bcd60e51b81526004016100e690610ac0565b60405180910390fd5b7f00000000000000000000000000000000000000000000000000000000000000006001600160a01b0316846001600160a01b0316148061016057507f00000000000000000000000000000000000000000000000000000000000000006001600160a01b0316836001600160a01b0316145b61017c5760405162461bcd60e51b81526004016100e690610af7565b6001600160a01b03821630146101a1576101a16001600160a01b0385168330896105f2565b7f00000000000000000000000000000000000000000000000000000000000000006001600160a01b0316846001600160a01b031614156103d1577f00000000000000000000000000000000000000000000000000000000000000006001600160a01b0316301461023f5761023f6001600160a01b0385167f00000000000000000000000000000000000000000000000000000000000000008861067d565b6040516371b8dc6960e01b81526001600160a01b037f000000000000000000000000000000000000000000000000000000000000000016906371b8dc69906102b39086907f0000000000000000000000000000000000000000000000000000000000000000908b906103d490600401610996565b600060405180830381600087803b1580156102cd57600080fd5b505af11580156102e1573d6000803e3d6000fd5b5050507f00000000000000000000000000000000000000000000000000000000000000006001600160a01b0316301490506103d157604051636eb1769f60e11b81526001600160a01b0385169063dd62ed3e906103649030907f00000000000000000000000000000000000000000000000000000000000000009060040161093f565b60206040518083038186803b15801561037c57600080fd5b505afa158015610390573d6000803e3d6000fd5b505050506040513d601f19601f820116820180604052508101906103b49190610888565b156103d15760405162461bcd60e51b81526004016100e690610b4f565b7f00000000000000000000000000000000000000000000000000000000000000006001600160a01b0316836001600160a01b031614156104b25760405163716e261560e01b81526001600160a01b037f0000000000000000000000000000000000000000000000000000000000000000169063716e26159061047f9087907f0000000000000000000000000000000000000000000000000000000000000000908b906103d490600401610996565b600060405180830381600087803b15801561049957600080fd5b505af11580156104ad573d6000803e3d6000fd5b505050505b6040516370a0823160e01b81526000906001600160a01b038516906370a08231906104e190309060040161092b565b60206040518083038186803b1580156104f957600080fd5b505afa15801561050d573d6000803e3d6000fd5b505050506040513d601f19601f820116820180604052508101906105319190610888565b9050858110156105535760405162461bcd60e51b81526004016100e690610a89565b6001600160a01b0382163014610577576105776001600160a01b03851683836106a1565b50505050505050565b7f000000000000000000000000000000000000000000000000000000000000000081565b6103d481565b7f000000000000000000000000000000000000000000000000000000000000000081565b7f000000000000000000000000000000000000000000000000000000000000000081565b610677846323b872dd60e01b85858560405160240161061393929190610959565b60408051601f198184030181529190526020810180517bffffffffffffffffffffffffffffffffffffffffffffffffffffffff167fffffffff00000000000000000000000000000000000000000000000000000000909316929092179091526106c0565b50505050565b61069c8363095ea7b360e01b848460405160240161061392919061097d565b505050565b61069c8363a9059cbb60e01b848460405160240161061392919061097d565b6060610715826040518060400160405280602081526020017f5361666545524332303a206c6f772d6c6576656c2063616c6c206661696c6564815250856001600160a01b031661074f9092919063ffffffff16565b80519091501561069c57808060200190518101906107339190610868565b61069c5760405162461bcd60e51b81526004016100e690610a52565b606061075e8484600085610768565b90505b9392505050565b60608247101561078a5760405162461bcd60e51b81526004016100e690610a0c565b61079385610829565b6107af5760405162461bcd60e51b81526004016100e690610b18565b60006060866001600160a01b031685876040516107cc919061090f565b60006040518083038185875af1925050503d8060008114610809576040519150601f19603f3d011682016040523d82523d6000602084013e61080e565b606091505b509150915061081e82828661082f565b979650505050505050565b3b151590565b6060831561083e575081610761565b82511561084e5782518084602001fd5b8160405162461bcd60e51b81526004016100e691906109d9565b600060208284031215610879578081fd5b81518015158114610761578182fd5b600060208284031215610899578081fd5b5051919050565b60008060008060008060c087890312156108b8578182fd5b863595506020870135945060408701356108d181610bad565b935060608701356108e181610bad565b925060808701356108f181610bad565b915060a087013561090181610bad565b809150509295509295509295565b60008251610921818460208701610b81565b9190910192915050565b6001600160a01b0391909116815260200190565b6001600160a01b0392831681529116602082015260400190565b6001600160a01b039384168152919092166020820152604081019190915260600190565b6001600160a01b03929092168252602082015260400190565b6001600160a01b0394851681529290931660208301526040820152606081019190915260a06080820181905260029082015261060f60f31b60c082015260e00190565b60006020825282518060208401526109f8816040850160208701610b81565b601f01601f19169190910160400192915050565b60208082526026908201527f416464726573733a20696e73756666696369656e742062616c616e636520666f6040820152651c8818d85b1b60d21b606082015260800190565b60208082526013908201527f5361666545524332303a20217375636365737300000000000000000000000000604082015260600190565b6020808252601c908201527f496e73756666696369656e7420746f6b656e4f757420616d6f756e7400000000604082015260600190565b60208082526013908201527f546f6b656e732063616e6e6f74206d6174636800000000000000000000000000604082015260600190565b60208082526007908201526609cde40ae8aa8960cb1b604082015260600190565b6020808252601d908201527f416464726573733a2063616c6c20746f206e6f6e2d636f6e7472616374000000604082015260600190565b6020808252600f908201526e0496e636f6d706c657465207377617608c1b604082015260600190565b90815260200190565b60005b83811015610b9c578181015183820152602001610b84565b838111156106775750506000910152565b6001600160a01b0381168114610bc257600080fd5b5056fea26469706673582212204c4e007c5c1dab43df2441028aff8ee0c1fad269a111dc7ee8999ae3a870007264736f6c634300060c0033",
  "linkReferences": {},
  "deployedLinkReferences": {}
}