{
    "_format": "hh-sol-artifact-1",
    "contractName": "CurveGaugeAdapter",
    "sourceName": "contracts/adapters/vaults/CurveGaugeAdapter.sol",
    "abi": [
        {
            "inputs": [
                {
                    "internalType": "address",
                    "name": "addressProvider_",
                    "type": "address"
                },
                {
                    "internalType": "address",
                    "name": "weth_",
                    "type": "address"
                }
            ],
            "stateMutability": "nonpayable",
            "type": "constructor"
        },
        {
            "inputs": [],
            "name": "addressProvider",
            "outputs": [
                {
                    "internalType": "contract ICurveAddressProvider",
                    "name": "",
                    "type": "address"
                }
            ],
            "stateMutability": "view",
            "type": "function"
        },
        {
            "inputs": [
                {
                    "internalType": "address",
                    "name": "token",
                    "type": "address"
                }
            ],
            "name": "claim",
            "outputs": [],
            "stateMutability": "nonpayable",
            "type": "function"
        },
        {
            "inputs": [
                {
                    "internalType": "uint256",
                    "name": "amount",
                    "type": "uint256"
                },
                {
                    "internalType": "uint256",
                    "name": "expected",
                    "type": "uint256"
                },
                {
                    "internalType": "address",
                    "name": "tokenIn",
                    "type": "address"
                },
                {
                    "internalType": "address",
                    "name": "tokenOut",
                    "type": "address"
                },
                {
                    "internalType": "address",
                    "name": "from",
                    "type": "address"
                },
                {
                    "internalType": "address",
                    "name": "to",
                    "type": "address"
                }
            ],
            "name": "swap",
            "outputs": [],
            "stateMutability": "nonpayable",
            "type": "function"
        },
        {
            "inputs": [],
            "name": "weth",
            "outputs": [
                {
                    "internalType": "address",
                    "name": "",
                    "type": "address"
                }
            ],
            "stateMutability": "view",
            "type": "function"
        }
    ],
    "bytecode": "0x60c060405234801561001057600080fd5b50604051610d7b380380610d7b83398101604081905261002f9161004e565b6001600160601b0319606091821b811660805291901b1660a05261009f565b60008060408385031215610060578182fd5b825161006b81610087565b602084015190925061007c81610087565b809150509250929050565b6001600160a01b038116811461009c57600080fd5b50565b60805160601c60a05160601c610cae6100cd6000398061014252806105a25250806105c65250610cae6000f3fe608060405234801561001057600080fd5b506004361061004c5760003560e01c80631e83409a14610051578063230f11c7146100665780632954018c146100795780633fc8cef314610097575b600080fd5b61006461005f3660046108d5565b61009f565b005b610064610074366004610945565b610103565b6100816105a0565b60405161008e91906109d0565b60405180910390f35b6100816105c4565b604051634274debf60e11b815281906001600160a01b038216906384e9bd7e906100cd9030906004016109d0565b600060405180830381600087803b1580156100e757600080fd5b505af11580156100fb573d6000803e3d6000fd5b505050505050565b826001600160a01b0316846001600160a01b0316141561013e5760405162461bcd60e51b815260040161013590610b10565b60405180910390fd5b60007f00000000000000000000000000000000000000000000000000000000000000006001600160a01b031663a262904b6040518163ffffffff1660e01b815260040160206040518083038186803b15801561019957600080fd5b505afa1580156101ad573d6000803e3d6000fd5b505050506040513d601f19601f820116820180604052508101906101d191906108f1565b60405163bdf475c360e01b81529091506000906001600160a01b0383169063bdf475c3906102039089906004016109d0565b60206040518083038186803b15801561021b57600080fd5b505afa15801561022f573d6000803e3d6000fd5b505050506040513d601f19601f8201168201806040525081019061025391906108f1565b6001600160a01b0316146103a6576000849050856001600160a01b0316816001600160a01b03166382c630666040518163ffffffff1660e01b815260040160206040518083038186803b1580156102a957600080fd5b505afa1580156102bd573d6000803e3d6000fd5b505050506040513d601f19601f820116820180604052508101906102e191906108f1565b6001600160a01b0316146103075760405162461bcd60e51b815260040161013590610a6e565b6001600160a01b038416301461032c5761032c6001600160a01b03871685308b6105e8565b6103406001600160a01b038716868a610646565b604051636e553f6560e01b81526001600160a01b03821690636e553f659061036e908b903090600401610c1d565b600060405180830381600087803b15801561038857600080fd5b505af115801561039c573d6000803e3d6000fd5b50505050506104d1565b6000859050846001600160a01b0316816001600160a01b03166382c630666040518163ffffffff1660e01b815260040160206040518083038186803b1580156103ee57600080fd5b505afa158015610402573d6000803e3d6000fd5b505050506040513d601f19601f8201168201806040525081019061042691906108f1565b6001600160a01b03161461044c5760405162461bcd60e51b815260040161013590610a6e565b6001600160a01b0384163014610471576104716001600160a01b03871685308b6105e8565b604051632e1a7d4d60e01b81526001600160a01b03821690632e1a7d4d9061049d908b90600401610c14565b600060405180830381600087803b1580156104b757600080fd5b505af11580156104cb573d6000803e3d6000fd5b50505050505b6040516370a0823160e01b81526000906001600160a01b038616906370a08231906105009030906004016109d0565b60206040518083038186803b15801561051857600080fd5b505afa15801561052c573d6000803e3d6000fd5b505050506040513d601f19601f82011682018060405250810190610550919061092d565b9050868110156105725760405162461bcd60e51b815260040161013590610ada565b6001600160a01b0383163014610596576105966001600160a01b038616848361070e565b5050505050505050565b7f000000000000000000000000000000000000000000000000000000000000000081565b7f000000000000000000000000000000000000000000000000000000000000000081565b610640846323b872dd60e01b858585604051602401610609939291906109fe565b60408051601f198184030181529190526020810180516001600160e01b03166001600160e01b03199093169290921790915261072d565b50505050565b8015806106ce5750604051636eb1769f60e11b81526001600160a01b0384169063dd62ed3e9061067c90309086906004016109e4565b60206040518083038186803b15801561069457600080fd5b505afa1580156106a8573d6000803e3d6000fd5b505050506040513d601f19601f820116820180604052508101906106cc919061092d565b155b6106ea5760405162461bcd60e51b815260040161013590610bbe565b6107098363095ea7b360e01b8484604051602401610609929190610a22565b505050565b6107098363a9059cbb60e01b8484604051602401610609929190610a22565b6060610782826040518060400160405280602081526020017f5361666545524332303a206c6f772d6c6576656c2063616c6c206661696c6564815250856001600160a01b03166107bc9092919063ffffffff16565b80519091501561070957808060200190518101906107a0919061090d565b6107095760405162461bcd60e51b815260040161013590610b74565b60606107cb84846000856107d5565b90505b9392505050565b6060824710156107f75760405162461bcd60e51b815260040161013590610a94565b61080085610896565b61081c5760405162461bcd60e51b815260040161013590610b3d565b60006060866001600160a01b0316858760405161083991906109b4565b60006040518083038185875af1925050503d8060008114610876576040519150601f19603f3d011682016040523d82523d6000602084013e61087b565b606091505b509150915061088b82828661089c565b979650505050505050565b3b151590565b606083156108ab5750816107ce565b8251156108bb5782518084602001fd5b8160405162461bcd60e51b81526004016101359190610a3b565b6000602082840312156108e6578081fd5b81356107ce81610c60565b600060208284031215610902578081fd5b81516107ce81610c60565b60006020828403121561091e578081fd5b815180151581146107ce578182fd5b60006020828403121561093e578081fd5b5051919050565b60008060008060008060c0878903121561095d578182fd5b8635955060208701359450604087013561097681610c60565b9350606087013561098681610c60565b9250608087013561099681610c60565b915060a08701356109a681610c60565b809150509295509295509295565b600082516109c6818460208701610c34565b9190910192915050565b6001600160a01b0391909116815260200190565b6001600160a01b0392831681529116602082015260400190565b6001600160a01b039384168152919092166020820152604081019190915260600190565b6001600160a01b03929092168252602082015260400190565b6000602082528251806020840152610a5a816040850160208701610c34565b601f01601f19169190910160400192915050565b6020808252600c908201526b496e636f6d70617469626c6560a01b604082015260600190565b60208082526026908201527f416464726573733a20696e73756666696369656e742062616c616e636520666f6040820152651c8818d85b1b60d21b606082015260800190565b6020808252601c908201527b125b9cdd59999a58da595b9d081d1bdad95b93dd5d08185b5bdd5b9d60221b604082015260600190565b6020808252601390820152720a8ded6cadce640c6c2dcdcdee840dac2e8c6d606b1b604082015260600190565b6020808252601d908201527f416464726573733a2063616c6c20746f206e6f6e2d636f6e7472616374000000604082015260600190565b6020808252602a908201527f5361666545524332303a204552433230206f7065726174696f6e20646964206e6040820152691bdd081cdd58d8d9595960b21b606082015260800190565b60208082526036908201527f5361666545524332303a20617070726f76652066726f6d206e6f6e2d7a65726f60408201527520746f206e6f6e2d7a65726f20616c6c6f77616e636560501b606082015260800190565b90815260200190565b9182526001600160a01b0316602082015260400190565b60005b83811015610c4f578181015183820152602001610c37565b838111156106405750506000910152565b6001600160a01b0381168114610c7557600080fd5b5056fea2646970667358221220aa11596a99f41d09e46b0aa02befa288f862fa8f353b3a9611c515212762b5a364736f6c634300060c0033",
    "linkReferences": {},
    "deployedLinkReferences": {}
}