{
  "_format": "hh-sol-artifact-1",
  "contractName": "MaliciousAdapter",
  "sourceName": "contracts/test/MaliciousAdapter.sol",
  "abi": [
    {
      "inputs": [
        {
          "internalType": "address",
          "name": "weth_",
          "type": "address"
        }
      ],
      "stateMutability": "nonpayable",
      "type": "constructor"
    },
    {
      "inputs": [],
      "name": "attacker",
      "outputs": [
        {
          "internalType": "address",
          "name": "",
          "type": "address"
        }
      ],
      "stateMutability": "view",
      "type": "function"
    },
    {
      "inputs": [
        {
          "internalType": "uint256",
          "name": "amount",
          "type": "uint256"
        },
        {
          "internalType": "uint256",
          "name": "expected",
          "type": "uint256"
        },
        {
          "internalType": "address",
          "name": "tokenIn",
          "type": "address"
        },
        {
          "internalType": "address",
          "name": "tokenOut",
          "type": "address"
        },
        {
          "internalType": "address",
          "name": "from",
          "type": "address"
        },
        {
          "internalType": "address",
          "name": "to",
          "type": "address"
        }
      ],
      "name": "swap",
      "outputs": [],
      "stateMutability": "nonpayable",
      "type": "function"
    },
    {
      "inputs": [],
      "name": "weth",
      "outputs": [
        {
          "internalType": "address",
          "name": "",
          "type": "address"
        }
      ],
      "stateMutability": "view",
      "type": "function"
    }
  ],
  "bytecode": "0x60c060405234801561001057600080fd5b506040516102743803806102748339818101604052602081101561003357600080fd5b5051606081811b6001600160601b031916608052339081901b60a0526001600160a01b03909116906101f861007c6000398060d052806101a052508061017c52506101f86000f3fe608060405234801561001057600080fd5b50600436106100415760003560e01c8063230f11c7146100465780633fc8cef31461009257806348eb76ee146100b6575b600080fd5b610090600480360360c081101561005c57600080fd5b508035906020810135906001600160a01b0360408201358116916060810135821691608082013581169160a00135166100be565b005b61009a61017a565b604080516001600160a01b039092168252519081900360200190f35b61009a61019e565b836001600160a01b03166323b872dd837f0000000000000000000000000000000000000000000000000000000000000000896040518463ffffffff1660e01b815260040180846001600160a01b03168152602001836001600160a01b031681526020018281526020019350505050602060405180830381600087803b15801561014657600080fd5b505af115801561015a573d6000803e3d6000fd5b505050506040513d602081101561017057600080fd5b5050505050505050565b7f000000000000000000000000000000000000000000000000000000000000000081565b7f00000000000000000000000000000000000000000000000000000000000000008156fea26469706673582212202f72e8a340d338ca73f1b7e047380e3dbf09e6395623288c53845723411fbf8664736f6c634300060c0033",
  "linkReferences": {},
  "deployedLinkReferences": {}
}