{
  "_format": "hh-sol-artifact-1",
  "contractName": "MaliciousAdapter",
  "sourceName": "contracts/test/MaliciousAdapter.sol",
  "abi": [
    {
      "inputs": [
        {
          "internalType": "address",
          "name": "weth_",
          "type": "address"
        }
      ],
      "stateMutability": "nonpayable",
      "type": "constructor"
    },
    {
      "inputs": [],
      "name": "attacker",
      "outputs": [
        {
          "internalType": "address",
          "name": "",
          "type": "address"
        }
      ],
      "stateMutability": "view",
      "type": "function"
    },
    {
      "inputs": [
        {
          "internalType": "uint256",
          "name": "amount",
          "type": "uint256"
        },
        {
          "internalType": "address",
          "name": "tokenIn",
          "type": "address"
        },
        {
          "internalType": "address",
          "name": "tokenOut",
          "type": "address"
        }
      ],
      "name": "spotPrice",
      "outputs": [
        {
          "internalType": "uint256",
          "name": "",
          "type": "uint256"
        }
      ],
      "stateMutability": "view",
      "type": "function"
    },
    {
      "inputs": [
        {
          "internalType": "uint256",
          "name": "amount",
          "type": "uint256"
        },
        {
          "internalType": "uint256",
          "name": "expected",
          "type": "uint256"
        },
        {
          "internalType": "address",
          "name": "tokenIn",
          "type": "address"
        },
        {
          "internalType": "address",
          "name": "tokenOut",
          "type": "address"
        },
        {
          "internalType": "address",
          "name": "from",
          "type": "address"
        },
        {
          "internalType": "address",
          "name": "to",
          "type": "address"
        }
      ],
      "name": "swap",
      "outputs": [],
      "stateMutability": "nonpayable",
      "type": "function"
    },
    {
      "inputs": [],
      "name": "weth",
      "outputs": [
        {
          "internalType": "address",
          "name": "",
          "type": "address"
        }
      ],
      "stateMutability": "view",
      "type": "function"
    }
  ],
  "bytecode": "0x60c060405234801561001057600080fd5b506040516102cd3803806102cd8339818101604052602081101561003357600080fd5b5051606081811b6001600160601b031916608052339081901b60a0526001600160a01b039091169061025061007d6000398061012152806101f15250806101cd52506102506000f3fe608060405234801561001057600080fd5b506004361061004c5760003560e01c8063230f11c7146100515780633fc8cef31461009d57806348eb76ee146100c157806377ec159d146100c9575b600080fd5b61009b600480360360c081101561006757600080fd5b508035906020810135906001600160a01b0360408201358116916060810135821691608082013581169160a001351661010f565b005b6100a56101cb565b604080516001600160a01b039092168252519081900360200190f35b6100a56101ef565b6100fd600480360360608110156100df57600080fd5b508035906001600160a01b0360208201358116916040013516610213565b60408051918252519081900360200190f35b836001600160a01b03166323b872dd837f0000000000000000000000000000000000000000000000000000000000000000896040518463ffffffff1660e01b815260040180846001600160a01b03168152602001836001600160a01b031681526020018281526020019350505050602060405180830381600087803b15801561019757600080fd5b505af11580156101ab573d6000803e3d6000fd5b505050506040513d60208110156101c157600080fd5b5050505050505050565b7f000000000000000000000000000000000000000000000000000000000000000081565b7f000000000000000000000000000000000000000000000000000000000000000081565b509091905056fea264697066735822122078e4e6a9a748d10ef2bdbc85713e034e48881e12d2e8d37df89365d9b616af4064736f6c634300060c0033",
  "linkReferences": {},
  "deployedLinkReferences": {}
}