{
  "_format": "hh-sol-artifact-1",
  "contractName": "StrategyLibrary",
  "sourceName": "contracts/libraries/StrategyLibrary.sol",
  "abi": [
    {
      "inputs": [
        {
          "internalType": "uint256",
          "name": "total",
          "type": "uint256"
        },
        {
          "internalType": "address",
          "name": "strategy",
          "type": "address"
        },
        {
          "internalType": "address",
          "name": "token",
          "type": "address"
        }
      ],
      "name": "getExpectedTokenValue",
      "outputs": [
        {
          "internalType": "int256",
          "name": "",
          "type": "int256"
        }
      ],
      "stateMutability": "view",
      "type": "function"
    },
    {
      "inputs": [
        {
          "internalType": "int256",
          "name": "expectedValue",
          "type": "int256"
        },
        {
          "internalType": "uint256",
          "name": "threshold",
          "type": "uint256"
        }
      ],
      "name": "getRange",
      "outputs": [
        {
          "internalType": "int256",
          "name": "",
          "type": "int256"
        }
      ],
      "stateMutability": "pure",
      "type": "function"
    }
  ],
  "bytecode": "0x6103d4610026600b82828239805160001a60731461001957fe5b30600052607381538281f3fe73000000000000000000000000000000000000000030146080604052600436106100405760003560e01c80635ab804ba146100455780636be502421461006e575b600080fd5b61005861005336600461026b565b610081565b60405161006591906102c0565b60405180910390f35b61005861007c36600461024a565b610132565b600080836001600160a01b0316633ebbc9c4846040518263ffffffff1660e01b81526004016100b091906102ac565b60206040518083038186803b1580156100c857600080fd5b505afa1580156100dc573d6000803e3d6000fd5b505050506040513d601f19601f820116820180604052508101906101009190610232565b90508061011157600091505061012b565b6101276103e8610121878461015a565b906101ce565b9150505b9392505050565b60008161014157506000610154565b6101516103e8610121858561015a565b90505b92915050565b60008261016957506000610154565b8260001914801561017d5750600160ff1b82145b156101a35760405162461bcd60e51b815260040161019a9061030a565b60405180910390fd5b828202828482816101b057fe5b05146101515760405162461bcd60e51b815260040161019a9061030a565b6000816101ed5760405162461bcd60e51b815260040161019a90610351565b816000191480156102015750600160ff1b83145b1561021e5760405162461bcd60e51b815260040161019a906102c9565b600082848161022957fe5b05949350505050565b600060208284031215610243578081fd5b5051919050565b6000806040838503121561025c578081fd5b50508035926020909101359150565b60008060006060848603121561027f578081fd5b83359250602084013561029181610386565b915060408401356102a181610386565b809150509250925092565b6001600160a01b0391909116815260200190565b90815260200190565b60208082526021908201527f5369676e6564536166654d6174683a206469766973696f6e206f766572666c6f6040820152607760f81b606082015260800190565b60208082526027908201527f5369676e6564536166654d6174683a206d756c7469706c69636174696f6e206f604082015266766572666c6f7760c81b606082015260800190565b6020808252818101527f5369676e6564536166654d6174683a206469766973696f6e206279207a65726f604082015260600190565b6001600160a01b038116811461039b57600080fd5b5056fea2646970667358221220a3a92f3908d71ac5e05a8a5467a6c2fba703faac337edf4f2bda1db7d210b0b364736f6c634300060c0033",
  "linkReferences": {},
  "deployedLinkReferences": {}
}