{
  "_format": "hh-sol-artifact-1",
  "contractName": "TestBinaryTree",
  "sourceName": "contracts/test/TestBinaryTree.sol",
  "abi": [
    {
      "inputs": [],
      "name": "fuzzAddressArrayReadInto",
      "outputs": [],
      "stateMutability": "nonpayable",
      "type": "function"
    },
    {
      "inputs": [],
      "name": "fuzzBinaryTreeWithPayloadReadInto",
      "outputs": [],
      "stateMutability": "nonpayable",
      "type": "function"
    },
    {
      "inputs": [],
      "name": "wall",
      "outputs": [
        {
          "internalType": "uint256",
          "name": "",
          "type": "uint256"
        }
      ],
      "stateMutability": "view",
      "type": "function"
    }
  ],
  "bytecode": "0x6080604052600160005534801561001557600080fd5b50610b19806100256000396000f3fe608060405234801561001057600080fd5b50600436106100415760003560e01c806316360f6d146100465780634ab7e2db14610050578063678c710314610058575b600080fd5b61004e610072565b005b61004e610301565b6100606105a1565b60408051918252519081900360200190f35b60016000556040805160148082526102a0820190925260609160208201610280803683370190505090506100a4610a96565b6100ac6105a7565b90506000805b83518110156100f857604080516020808201849052825180830382018152918301909252805191012091506100f0836001600160a01b0384166105f1565b6001016100b2565b506060835167ffffffffffffffff8111801561011357600080fd5b5060405190808252806020026020018201604052801561013d578160200160208202803683370190505b50905061014c8382600061069c565b5060005b815181101561027a5760018251038110156101ea5781816001018151811061017457fe5b60200260200101516001600160a01b031682828151811061019157fe5b60200260200101516001600160a01b0316116101ea576040805162461bcd60e51b81526020600482015260136024820152723932b9bab63a103737ba1037b93232b932b21760691b604482015290519081900360640190fd5b60005b85518110156102715785818151811061020257fe5b60200260200101516001600160a01b031683838151811061021f57fe5b60200260200101516001600160a01b0316141561026957600086828151811061024457fe5b60200260200101906001600160a01b031690816001600160a01b031681525050610271565b6001016101ed565b50600101610150565b5060005b84518110156102fa5760006001600160a01b031685828151811061029e57fe5b60200260200101516001600160a01b0316146102f2576040805162461bcd60e51b815260206004820152600e60248201526d3737ba1030b636103337bab7321760911b604482015290519081900360640190fd5b60010161027e565b5050505050565b60016000556040805160148082526102a082019092526060916020820161028080368337019050509050610333610ab9565b61033b61075d565b90506000805b835181101561038f5760408051602080820184905282518083038201815282840180855281519190920120600082526060909201909252925061038790849084906107a7565b600101610341565b506060835167ffffffffffffffff811180156103aa57600080fd5b506040519080825280602002602001820160405280156103d4578160200160208202803683370190505b5090506060845167ffffffffffffffff811180156103f157600080fd5b5060405190808252806020026020018201604052801561042557816020015b60608152602001906001900390816104105790505b509050610433848383610862565b60005b600183510381101561052b5760028351038110156104c15782816001018151811061045d57fe5b602002602001015183828151811061047157fe5b6020026020010151116104c1576040805162461bcd60e51b81526020600482015260136024820152723932b9bab63a103737ba1037b93232b932b21760691b604482015290519081900360640190fd5b60005b8651811015610522578681815181106104d957fe5b60200260200101518483815181106104ed57fe5b6020026020010151141561051a57600087828151811061050957fe5b602002602001018181525050610522565b6001016104c4565b50600101610436565b5060005b85518110156105995785818151811061054457fe5b6020026020010151600014610591576040805162461bcd60e51b815260206004820152600e60248201526d3737ba1030b636103337bab7321760911b604482015290519081900360640190fd5b60010161052f565b505050505050565b60005481565b6105af610a96565b6105b7610a96565b6040805160028082526060820190925290816020015b6105d5610a96565b8152602001906001900390816105cd5750506040820152919050565b8151610607576001825260208201819052610698565b808260200151141561061857610698565b6000818360200151111561062a575060015b8260400151818151811061063a57fe5b602002602001015160000151156106715761066c8360400151828151811061065e57fe5b6020026020010151836105f1565b610696565b61067a82610918565b8360400151828151811061068a57fe5b60200260200101819052505b505b5050565b600083604001516000815181106106af57fe5b602002602001015160000151156106e6576106e384604001516000815181106106d457fe5b6020026020010151848461069c565b91505b83602001518383815181106106f757fe5b60200260200101906001600160a01b031690816001600160a01b031681525050816001019150836040015160018151811061072e57fe5b602002602001015160000151156107565761075384604001516001815181106106d457fe5b91505b5092915050565b610765610ab9565b61076d610ab9565b6040805160028082526060820190925290816020015b61078b610ab9565b8152602001906001900390816107835750506060820152919050565b82516107c457600183526020830182905260408301819052610696565b81836020015114156107dc5760408301819052610696565b600082846020015111156107ee575060015b836060015181815181106107fe57fe5b60200260200101516000015115610836576108318460600151828151811061082257fe5b602002602001015184846107a7565b61085c565b610840838361096e565b8460600151828151811061085057fe5b60200260200101819052505b50505050565b80518251146108b8576040805162461bcd60e51b815260206004820152601a60248201527f72656164496e746f3a206c656e677468206d69736d617463682e000000000000604482015290519081900360640190fd5b805161090b576040805162461bcd60e51b815260206004820152601c60248201527f72656164496e746f3a206172726179206c656e677468203d3d20302e00000000604482015290519081900360640190fd5b61085c83838360006109cb565b610920610a96565b610928610a96565b60018152602081018390526040805160028082526060820190925290816020015b610951610a96565b815260200190600190039081610949575050604082015292915050565b610976610ab9565b61097e610ab9565b60018152602081018490526040808201849052805160028082526060820190925290816020015b6109ad610ab9565b8152602001906001900390816109a557505060608201529392505050565b600084606001516000815181106109de57fe5b60200260200101516000015115610a1657610a138560600151600081518110610a0357fe5b60200260200101518585856109cb565b91505b8460200151848381518110610a2757fe5b6020026020010181815250508460400151838381518110610a4457fe5b60200260200101819052508160010191508460600151600181518110610a6657fe5b60200260200101516000015115610a8e57610a8b8560600151600181518110610a0357fe5b91505b509392505050565b604051806060016040528060001515815260200160008152602001606081525090565b6040518060800160405280600015158152602001600081526020016060815260200160608152509056fea264697066735822122057287b28a298863172b4257adbb095f01c58e124e8d571140102cd4a9efdf9fc64736f6c634300060c0033",
  "linkReferences": {},
  "deployedLinkReferences": {}
}