{
  "_format": "hh-sol-artifact-1",
  "contractName": "UniswapV2Estimator",
  "sourceName": "contracts/oracles/estimators/UniswapV2Estimator.sol",
  "abi": [
    {
      "inputs": [],
      "name": "MAX_PRICE_DEVIATION_ABOVE",
      "outputs": [
        {
          "internalType": "uint256",
          "name": "",
          "type": "uint256"
        }
      ],
      "stateMutability": "view",
      "type": "function"
    },
    {
      "inputs": [],
      "name": "MAX_PRICE_DEVIATION_BELOW",
      "outputs": [
        {
          "internalType": "uint256",
          "name": "",
          "type": "uint256"
        }
      ],
      "stateMutability": "view",
      "type": "function"
    },
    {
      "inputs": [
        {
          "internalType": "uint256",
          "name": "balance",
          "type": "uint256"
        },
        {
          "internalType": "address",
          "name": "token",
          "type": "address"
        }
      ],
      "name": "estimateItem",
      "outputs": [
        {
          "internalType": "int256",
          "name": "",
          "type": "int256"
        }
      ],
      "stateMutability": "view",
      "type": "function"
    }
  ],
  "bytecode": "0x608060405234801561001057600080fd5b50610ce5806100206000396000f3fe608060405234801561001057600080fd5b50600436106100415760003560e01c8063430ec6b914610046578063b44a043b14610064578063fc9c9dcb14610077575b600080fd5b61004e61007f565b60405161005b9190610a63565b60405180910390f35b61004e610072366004610a34565b61008b565b61004e6100bb565b67016345785d8a000081565b60006100b2670de0b6b3a76400006100ac6100a5856100c7565b869061037b565b906103e6565b90505b92915050565b67018abef7846071c781565b6000806000836001600160a01b0316630902f1ac6040518163ffffffff1660e01b815260040160606040518083038186803b15801561010557600080fd5b505afa158015610119573d6000803e3d6000fd5b505050506040513d601f19601f8201168201806040525081019061013d91906109e0565b50915091506000846001600160a01b0316630dfe16816040518163ffffffff1660e01b815260040160206040518083038186803b15801561017d57600080fd5b505afa158015610191573d6000803e3d6000fd5b505050506040513d601f19601f820116820180604052508101906101b591906109ac565b90506000856001600160a01b031663d21220a76040518163ffffffff1660e01b815260040160206040518083038186803b1580156101f257600080fd5b505afa158015610206573d6000803e3d6000fd5b505050506040513d601f19601f8201168201806040525081019061022a91906109ac565b60405163b44a043b60e01b8152909150600090339063b44a043b9061025e906001600160701b038916908790600401610c6b565b60206040518083038186803b15801561027657600080fd5b505afa15801561028a573d6000803e3d6000fd5b505050506040513d601f19601f820116820180604052508101906102ae91906109c8565b60405163b44a043b60e01b8152909150600090339063b44a043b906102e2906001600160701b038916908790600401610c6b565b60206040518083038186803b1580156102fa57600080fd5b505afa15801561030e573d6000803e3d6000fd5b505050506040513d601f19601f8201168201806040525081019061033291906109c8565b905061033e828261044a565b156103645760405162461bcd60e51b815260040161035b90610b5f565b60405180910390fd5b61036f8883836104b1565b98975050505050505050565b60008261038a575060006100b5565b8260001914801561039e5750600160ff1b82145b156103bb5760405162461bcd60e51b815260040161035b90610bc9565b828202828482816103c857fe5b05146100b25760405162461bcd60e51b815260040161035b90610bc9565b6000816104055760405162461bcd60e51b815260040161035b90610c36565b816000191480156104195750600160ff1b83145b156104365760405162461bcd60e51b815260040161035b90610b1e565b600082848161044157fe5b05949350505050565b60008061045784846104d1565b9050610473670de0b6b3a764000067018abef7846071c7610570565b8111806104985750610495670de0b6b3a764000067016345785d8a0000610595565b81105b156104a75760019150506100b5565b5060009392505050565b60008282016104c8816104c3876105d7565b6104d1565b95945050505050565b6000816104f05760405162461bcd60e51b815260040161035b90610c10565b670de0b6b3a764000083028315806105185750670de0b6b3a764000084828161051557fe5b04145b6105345760405162461bcd60e51b815260040161035b90610af4565b6002830481018181101561055a5760405162461bcd60e51b815260040161035b90610af4565b600084828161056557fe5b049695505050505050565b6000828201838110156100b25760405162461bcd60e51b815260040161035b90610abf565b60006100b283836040518060400160405280601e81526020017f536166654d6174683a207375627472616374696f6e206f766572666c6f7700008152506108d0565b6000816001600160a01b03166318160ddd6040518163ffffffff1660e01b815260040160206040518083038186803b15801561061257600080fd5b505afa158015610626573d6000803e3d6000fd5b505050506040513d601f19601f8201168201806040525081019061064a91906109c8565b90506000826001600160a01b031663c45a01556040518163ffffffff1660e01b815260040160206040518083038186803b15801561068757600080fd5b505afa15801561069b573d6000803e3d6000fd5b505050506040513d601f19601f820116820180604052508101906106bf91906109ac565b6001600160a01b031663017e7e586040518163ffffffff1660e01b815260040160206040518083038186803b1580156106f757600080fd5b505afa15801561070b573d6000803e3d6000fd5b505050506040513d601f19601f8201168201806040525081019061072f91906109ac565b90506001600160a01b038116158015906108c9576000846001600160a01b0316637464fc3d6040518163ffffffff1660e01b815260040160206040518083038186803b15801561077e57600080fd5b505afa158015610792573d6000803e3d6000fd5b505050506040513d601f19601f820116820180604052508101906107b691906109c8565b905080156108c757600080866001600160a01b0316630902f1ac6040518163ffffffff1660e01b815260040160606040518083038186803b1580156107fa57600080fd5b505afa15801561080e573d6000803e3d6000fd5b505050506040513d601f19601f8201168201806040525081019061083291906109e0565b509092509050600061085a6108536001600160701b038086169085166108fc565b6000610936565b90506000610869856000610936565b9050808211156108c25760006108896108828484610595565b8a906108fc565b905060006108a28361089c8660056108fc565b90610570565b905060008183816108af57fe5b0490506108bc8b82610570565b9a505050505b505050505b505b5050919050565b600081848411156108f45760405162461bcd60e51b815260040161035b9190610a6c565b505050900390565b60008261090b575060006100b5565b8282028284828161091857fe5b04146100b25760405162461bcd60e51b815260040161035b90610b88565b6000600383111561099d575081600160028204015b818110156109975780915082156109795760028161096986846104d1565b018161097157fe5b049050610992565b60028182868161098557fe5b04018161098e57fe5b0490505b61094b565b506100b5565b82156100b55750600192915050565b6000602082840312156109bd578081fd5b81516100b281610c82565b6000602082840312156109d9578081fd5b5051919050565b6000806000606084860312156109f4578182fd5b83516109ff81610c9a565b6020850151909350610a1081610c9a565b604085015190925063ffffffff81168114610a29578182fd5b809150509250925092565b60008060408385031215610a46578182fd5b823591506020830135610a5881610c82565b809150509250929050565b90815260200190565b6000602080835283518082850152825b81811015610a9857858101830151858201604001528201610a7c565b81811115610aa95783604083870101525b50601f01601f1916929092016040019392505050565b6020808252601b908201527a536166654d6174683a206164646974696f6e206f766572666c6f7760281b604082015260600190565b60208082526010908201526f11549497d1125597d25395115493905360821b604082015260600190565b60208082526021908201527f5369676e6564536166654d6174683a206469766973696f6e206f766572666c6f6040820152607760f81b606082015260800190565b6020808252600f908201526e283934b1b2903232bb34b0ba34b7b760891b604082015260600190565b60208082526021908201527f536166654d6174683a206d756c7469706c69636174696f6e206f766572666c6f6040820152607760f81b606082015260800190565b60208082526027908201527f5369676e6564536166654d6174683a206d756c7469706c69636174696f6e206f604082015266766572666c6f7760c81b606082015260800190565b6020808252600c908201526b4552525f4449565f5a45524f60a01b604082015260600190565b6020808252818101527f5369676e6564536166654d6174683a206469766973696f6e206279207a65726f604082015260600190565b9182526001600160a01b0316602082015260400190565b6001600160a01b0381168114610c9757600080fd5b50565b6001600160701b0381168114610c9757600080fdfea2646970667358221220e1f34e0a09b23e9838bb3f8cbd5cad951a9ef34474add716a7abbaee69e861fd64736f6c634300060c0033",
  "linkReferences": {},
  "deployedLinkReferences": {}
}