{
  "_format": "hh-sol-artifact-1",
  "contractName": "BalancerRegistry",
  "sourceName": "contracts/test/BalancerRegistry.sol",
  "abi": [
    {
      "inputs": [
        {
          "internalType": "address",
          "name": "_bfactory",
          "type": "address"
        }
      ],
      "stateMutability": "nonpayable",
      "type": "constructor"
    },
    {
      "anonymous": false,
      "inputs": [
        {
          "indexed": true,
          "internalType": "address",
          "name": "token1",
          "type": "address"
        },
        {
          "indexed": true,
          "internalType": "address",
          "name": "token2",
          "type": "address"
        },
        {
          "indexed": false,
          "internalType": "bytes32",
          "name": "oldIndices",
          "type": "bytes32"
        },
        {
          "indexed": false,
          "internalType": "bytes32",
          "name": "newIndices",
          "type": "bytes32"
        }
      ],
      "name": "IndicesUpdated",
      "type": "event"
    },
    {
      "anonymous": false,
      "inputs": [
        {
          "indexed": true,
          "internalType": "address",
          "name": "pool",
          "type": "address"
        },
        {
          "indexed": true,
          "internalType": "address",
          "name": "token1",
          "type": "address"
        },
        {
          "indexed": true,
          "internalType": "address",
          "name": "token2",
          "type": "address"
        }
      ],
      "name": "PoolTokenPairAdded",
      "type": "event"
    },
    {
      "inputs": [
        {
          "internalType": "address",
          "name": "token1",
          "type": "address"
        },
        {
          "internalType": "address",
          "name": "token2",
          "type": "address"
        },
        {
          "internalType": "address[]",
          "name": "pools",
          "type": "address[]"
        }
      ],
      "name": "_getEffectiveLiquidityForPoolsPurge",
      "outputs": [
        {
          "internalType": "uint256[]",
          "name": "effectiveLiquidity",
          "type": "uint256[]"
        }
      ],
      "stateMutability": "nonpayable",
      "type": "function"
    },
    {
      "inputs": [
        {
          "internalType": "address",
          "name": "pool",
          "type": "address"
        },
        {
          "internalType": "address",
          "name": "token1",
          "type": "address"
        },
        {
          "internalType": "address",
          "name": "token2",
          "type": "address"
        }
      ],
      "name": "addPoolPair",
      "outputs": [
        {
          "internalType": "uint256",
          "name": "listed",
          "type": "uint256"
        }
      ],
      "stateMutability": "nonpayable",
      "type": "function"
    },
    {
      "inputs": [
        {
          "internalType": "address[]",
          "name": "pools",
          "type": "address[]"
        },
        {
          "internalType": "address",
          "name": "token1",
          "type": "address"
        },
        {
          "internalType": "address",
          "name": "token2",
          "type": "address"
        }
      ],
      "name": "addPools",
      "outputs": [
        {
          "internalType": "uint256[]",
          "name": "listed",
          "type": "uint256[]"
        }
      ],
      "stateMutability": "nonpayable",
      "type": "function"
    },
    {
      "inputs": [],
      "name": "bfactory",
      "outputs": [
        {
          "internalType": "contract IBFactory",
          "name": "",
          "type": "address"
        }
      ],
      "stateMutability": "view",
      "type": "function"
    },
    {
      "inputs": [
        {
          "internalType": "address",
          "name": "fromToken",
          "type": "address"
        },
        {
          "internalType": "address",
          "name": "destToken",
          "type": "address"
        }
      ],
      "name": "getBestPools",
      "outputs": [
        {
          "internalType": "address[]",
          "name": "pools",
          "type": "address[]"
        }
      ],
      "stateMutability": "view",
      "type": "function"
    },
    {
      "inputs": [
        {
          "internalType": "address",
          "name": "fromToken",
          "type": "address"
        },
        {
          "internalType": "address",
          "name": "destToken",
          "type": "address"
        },
        {
          "internalType": "uint256",
          "name": "limit",
          "type": "uint256"
        }
      ],
      "name": "getBestPoolsWithLimit",
      "outputs": [
        {
          "internalType": "address[]",
          "name": "pools",
          "type": "address[]"
        }
      ],
      "stateMutability": "view",
      "type": "function"
    },
    {
      "inputs": [
        {
          "internalType": "address",
          "name": "pool",
          "type": "address"
        },
        {
          "internalType": "address",
          "name": "fromToken",
          "type": "address"
        },
        {
          "internalType": "address",
          "name": "destToken",
          "type": "address"
        }
      ],
      "name": "getPairInfo",
      "outputs": [
        {
          "internalType": "uint256",
          "name": "weight1",
          "type": "uint256"
        },
        {
          "internalType": "uint256",
          "name": "weight2",
          "type": "uint256"
        },
        {
          "internalType": "uint256",
          "name": "swapFee",
          "type": "uint256"
        }
      ],
      "stateMutability": "view",
      "type": "function"
    },
    {
      "inputs": [
        {
          "internalType": "address",
          "name": "fromToken",
          "type": "address"
        },
        {
          "internalType": "address",
          "name": "destToken",
          "type": "address"
        },
        {
          "internalType": "uint256",
          "name": "offset",
          "type": "uint256"
        },
        {
          "internalType": "uint256",
          "name": "limit",
          "type": "uint256"
        }
      ],
      "name": "getPoolsWithLimit",
      "outputs": [
        {
          "internalType": "address[]",
          "name": "result",
          "type": "address[]"
        }
      ],
      "stateMutability": "view",
      "type": "function"
    },
    {
      "inputs": [
        {
          "internalType": "address[]",
          "name": "tokens",
          "type": "address[]"
        },
        {
          "internalType": "uint256",
          "name": "lengthLimit",
          "type": "uint256"
        }
      ],
      "name": "sortPools",
      "outputs": [],
      "stateMutability": "nonpayable",
      "type": "function"
    },
    {
      "inputs": [
        {
          "internalType": "address[]",
          "name": "tokens",
          "type": "address[]"
        },
        {
          "internalType": "uint256",
          "name": "lengthLimit",
          "type": "uint256"
        }
      ],
      "name": "sortPoolsWithPurge",
      "outputs": [],
      "stateMutability": "nonpayable",
      "type": "function"
    }
  ],
  "bytecode": "0x608060405234801561001057600080fd5b5060405161219f38038061219f8339818101604052602081101561003357600080fd5b5051600280546001600160a01b0319166001600160a01b0390921691909117905561213c806100636000396000f3fe608060405234801561001057600080fd5b506004361061008e5760003560e01c80632013c70614610093578063500b6c711461019d5780637a846457146101e757806388376fbe14610257578063a2754996146102d6578063b108cd3714610344578063b176e29514610380578063bfdbfc43146103a4578063e7156fa3146103da578063f540697014610408575b600080fd5b61014d600480360360608110156100a957600080fd5b6001600160a01b038235811692602081013590911691810190606081016040820135600160201b8111156100dc57600080fd5b8201836020820111156100ee57600080fd5b803590602001918460208302840111600160201b8311171561010f57600080fd5b91908080602002602001604051908101604052809392919081815260200183836020028082843760009201919091525092955061045e945050505050565b60408051602080825283518183015283519192839290830191858101910280838360005b83811015610189578181015183820152602001610171565b505050509050019250505060405180910390f35b6101d5600480360360608110156101b357600080fd5b506001600160a01b0381358116916020810135821691604090910135166109e2565b60408051918252519081900360200190f35b610255600480360360408110156101fd57600080fd5b810190602081018135600160201b81111561021757600080fd5b82018360208201111561022957600080fd5b803590602001918460208302840111600160201b8311171561024a57600080fd5b919350915035610f3e565b005b61014d6004803603606081101561026d57600080fd5b810190602081018135600160201b81111561028757600080fd5b82018360208201111561029957600080fd5b803590602001918460208302840111600160201b831117156102ba57600080fd5b91935091506001600160a01b038135811691602001351661120b565b610255600480360360408110156102ec57600080fd5b810190602081018135600160201b81111561030657600080fd5b82018360208201111561031857600080fd5b803590602001918460208302840111600160201b8311171561033957600080fd5b9193509150356112a9565b61014d6004803603608081101561035a57600080fd5b506001600160a01b03813581169160208101359091169060408101359060600135611500565b6103886115d6565b604080516001600160a01b039092168252519081900360200190f35b61014d600480360360608110156103ba57600080fd5b506001600160a01b038135811691602081013590911690604001356115e5565b61014d600480360360408110156103f057600080fd5b506001600160a01b03813581169160200135166116f8565b6104406004803603606081101561041e57600080fd5b506001600160a01b03813581169160208101358216916040909101351661170f565b60408051938452602084019290925282820152519081900360600190f35b606060008061046d86866117a1565b905060005b84518110156108225761048361209c565b6001600087848151811061049357fe5b6020908102919091018101516001600160a01b03908116835282820193909352604091820160009081208782528252829020825160808101845281546001600160501b038082168352600160501b8204811694830194909452600160a01b900490921692820192909252600190910154606082015291508781169089161015610732578051602082015161053e916001600160501b039081169161053991839116611803565b61185b565b6001600088858151811061054e57fe5b60200260200101516001600160a01b03166001600160a01b0316815260200190815260200160002060008581526020019081526020016000206001018190555061067c86838151811061059d57fe5b60200260200101516001600160a01b031663f8b2cb4f896040518263ffffffff1660e01b815260040180826001600160a01b0316815260200191505060206040518083038186803b1580156105f157600080fd5b505afa158015610605573d6000803e3d6000fd5b505050506040513d602081101561061b57600080fd5b505187516001906000908a908790811061063157fe5b60200260200101516001600160a01b03166001600160a01b0316815260200190815260200160002060008681526020019081526020016000206001015461196e90919063ffffffff16565b6001600088858151811061068c57fe5b60200260200101516001600160a01b03166001600160a01b0316815260200190815260200160002060008581526020019081526020016000206001018190555061072b600160008885815181106106df57fe5b60200260200101516001600160a01b03166001600160a01b031681526020019081526020016000206000858152602001908152602001600020600101548561180390919063ffffffff16565b9350610819565b60208101518151610754916001600160501b0390811691610539911682611803565b6001600088858151811061076457fe5b60200260200101516001600160a01b03166001600160a01b031681526020019081526020016000206000858152602001908152602001600020600101819055506107b386838151811061059d57fe5b600160008885815181106107c357fe5b60200260200101516001600160a01b03166001600160a01b03168152602001908152602001600020600085815260200190815260200160002060010181905550610816600160008885815181106106df57fe5b93505b50600101610472565b5060006108378367016345785d8a00006119c7565b905060005b600083815260208190526040902061085390611a89565b8110156108ec57600083815260208190526040812083916001916108779085611a94565b6001600160a01b03166001600160a01b0316815260200190815260200160002060008581526020019081526020016000206001015410156108e45760008381526020819052604090206108e2906108ce9083611a94565b600085815260208190526040902090611aa0565b505b60010161083c565b50600082815260208190526040902061090490611a89565b6001600160401b038111801561091957600080fd5b50604051908082528060200260200182016040528015610943578160200160208202803683370190505b50935060005b600083815260208190526040902061096090611a89565b8110156109d7576000838152602081905260408120600191906109839084611a94565b6001600160a01b03166001600160a01b031681526020019081526020016000206000848152602001908152602001600020600101548582815181106109c457fe5b6020908102919091010152600101610949565b505050509392505050565b6002546040805163615db6e160e11b81526001600160a01b0386811660048301529151600093929092169163c2bb6dc291602480820192602092909190829003018186803b158015610a3357600080fd5b505afa158015610a47573d6000803e3d6000fd5b505050506040513d6020811015610a5d57600080fd5b5051610aa0576040805162461bcd60e51b815260206004820152600d60248201526c11549497d393d517d09413d3d3609a1b604482015290519081900360640190fd5b6000846001600160a01b031663d4cadf686040518163ffffffff1660e01b815260040160206040518083038186803b158015610adb57600080fd5b505afa158015610aef573d6000803e3d6000fd5b505050506040513d6020811015610b0557600080fd5b50519050666a94d74f430000811115610b58576040805162461bcd60e51b815260206004820152601060248201526f08aa4a4be8c8a8abea89e9ebe90928e960831b604482015290519081900360640190fd5b6000610b6485856117a1565b6000818152602081905260409020909150610b7f9087611ab5565b50836001600160a01b0316856001600160a01b03161015610d43576040518060800160405280876001600160a01b031663948d8ce6886040518263ffffffff1660e01b815260040180826001600160a01b0316815260200191505060206040518083038186803b158015610bf257600080fd5b505afa158015610c06573d6000803e3d6000fd5b505050506040513d6020811015610c1c57600080fd5b50516001600160501b0316815260408051634a46c67360e11b81526001600160a01b0388811660048301529151602093840193928b169263948d8ce69260248082019391829003018186803b158015610c7457600080fd5b505afa158015610c88573d6000803e3d6000fd5b505050506040513d6020811015610c9e57600080fd5b50516001600160501b039081168252848116602083810191909152600060409384018190526001600160a01b038b16815260018083528482208783528352908490208551815493870151958701518516600160a01b02600160a01b600160f01b0319968616600160501b02600160501b600160a01b0319929096166001600160501b031990951694909417169390931793909316178155606090920151910155610ee8565b6040518060800160405280876001600160a01b031663948d8ce6876040518263ffffffff1660e01b815260040180826001600160a01b0316815260200191505060206040518083038186803b158015610d9b57600080fd5b505afa158015610daf573d6000803e3d6000fd5b505050506040513d6020811015610dc557600080fd5b50516001600160501b0316815260408051634a46c67360e11b81526001600160a01b0389811660048301529151602093840193928b169263948d8ce69260248082019391829003018186803b158015610e1d57600080fd5b505afa158015610e31573d6000803e3d6000fd5b505050506040513d6020811015610e4757600080fd5b50516001600160501b039081168252848116602083810191909152600060409384018190526001600160a01b038b16815260018083528482208783528352908490208551815493870151958701518516600160a01b02600160a01b600160f01b0319968616600160501b02600160501b600160a01b0319929096166001600160501b0319909516949094171693909317939093161781556060909201519101555b836001600160a01b0316856001600160a01b0316876001600160a01b03167f181090c3a4bc51a62093032ebf96fd26ff1f27c2145aa9a28c8a5b9f627bcdd460405160405180910390a450506001019392505050565b60005b8281101561120557600181015b838110156111fc576000610f98868685818110610f6757fe5b905060200201356001600160a01b0316878785818110610f8357fe5b905060200201356001600160a01b03166117a1565b90506060610fea878786818110610fab57fe5b905060200201356001600160a01b0316888886818110610fc757fe5b905060200201356001600160a01b03166000610fe56101008a611aca565b611500565b9050606061102f888887818110610ffd57fe5b905060200201356001600160a01b031689898781811061101957fe5b905060200201356001600160a01b031684611ae0565b9050600061103c82611d5a565b60008581526020819052604090206002015490915081146111ec5788888681811061106357fe5b905060200201356001600160a01b03166001600160a01b031689898881811061108857fe5b905060200201356001600160a01b03166001600160a01b0316106110c7578888878181106110b257fe5b905060200201356001600160a01b03166110e4565b8888868181106110d357fe5b905060200201356001600160a01b03165b6001600160a01b03168989878181106110f957fe5b905060200201356001600160a01b03166001600160a01b03168a8a8981811061111e57fe5b905060200201356001600160a01b03166001600160a01b03161061115d5789898781811061114857fe5b905060200201356001600160a01b031661117a565b89898881811061116957fe5b905060200201356001600160a01b03165b6001600160a01b03167fa91f9532dc66c94302dbfd7be21a31cdee3b1c97e8b3064aab212b8e64e936c56000808881526020019081526020016000206002015484604051808381526020018281526020019250505060405180910390a360008481526020819052604090206002018190555b505060019092019150610f4e9050565b50600101610f41565b50505050565b6060836001600160401b038111801561122357600080fd5b5060405190808252806020026020018201604052801561124d578160200160208202803683370190505b50905060005b848110156112a05761128186868381811061126a57fe5b905060200201356001600160a01b031685856109e2565b82828151811061128d57fe5b6020908102919091010152600101611253565b50949350505050565b60005b8281101561120557600181015b838110156114f75760006112d2868685818110610f6757fe5b905060606112e5878786818110610fab57fe5b9050606061132a8888878181106112f857fe5b905060200201356001600160a01b031689898781811061131457fe5b905060200201356001600160a01b03168461045e565b9050600061133782611d5a565b60008581526020819052604090206002015490915081146114e75788888681811061135e57fe5b905060200201356001600160a01b03166001600160a01b031689898881811061138357fe5b905060200201356001600160a01b03166001600160a01b0316106113c2578888878181106113ad57fe5b905060200201356001600160a01b03166113df565b8888868181106113ce57fe5b905060200201356001600160a01b03165b6001600160a01b03168989878181106113f457fe5b905060200201356001600160a01b03166001600160a01b03168a8a8981811061141957fe5b905060200201356001600160a01b03166001600160a01b0316106114585789898781811061144357fe5b905060200201356001600160a01b0316611475565b89898881811061146457fe5b905060200201356001600160a01b03165b6001600160a01b03167fa91f9532dc66c94302dbfd7be21a31cdee3b1c97e8b3064aab212b8e64e936c56000808881526020019081526020016000206002015484604051808381526020018281526020019250505060405180910390a360008481526020819052604090206002018190555b5050600190920191506112b99050565b506001016112ac565b6060600061150e86866117a1565b90506115388385611532600080868152602001908152602001600020600001611a89565b03611aca565b6001600160401b038111801561154d57600080fd5b50604051908082528060200260200182016040528015611577578160200160208202803683370190505b50915060005b82518110156115cc5760008281526020819052604090206115a090868301611a94565b8382815181106115ac57fe5b6001600160a01b039092166020928302919091019091015260010161157d565b5050949350505050565b6002546001600160a01b031681565b606060006115f385856117a1565b6000818152602081905260408120600201549192505b600082826020811061161757fe5b1a60f81b6001600160f81b03191611801561163b5750611638856020611aca565b81105b1561164857600101611609565b806001600160401b038111801561165e57600080fd5b50604051908082528060200260200182016040528015611688578160200160208202803683370190505b50935060005b818110156109d75760006116b060018584602081106116a957fe5b1a90611e33565b60008681526020819052604090209091506116cb9082611a94565b8683815181106116d757fe5b6001600160a01b03909216602092830291909101909101525060010161168e565b6060611706838360206115e5565b90505b92915050565b60008060008061171f86866117a1565b905061172961209c565b506001600160a01b03969096166000908152600160208181526040808420998452988152918890208851608081018a5281546001600160501b03808216808452600160501b83048216968401879052600160a01b909204169a82018b9052919092015460609092019190915297909695509350505050565b6000816001600160a01b0316836001600160a01b0316106117c257826117c4565b815b6001600160801b03166080836001600160a01b0316856001600160a01b0316106117ee57836117f0565b845b6001600160801b0316901b179392505050565b600082820183811015611706576040805162461bcd60e51b815260206004820152601b60248201527a536166654d6174683a206164646974696f6e206f766572666c6f7760281b604482015290519081900360640190fd5b60008161189e576040805162461bcd60e51b815260206004820152600c60248201526b4552525f4449565f5a45524f60a01b604482015290519081900360640190fd5b670de0b6b3a764000083028315806118c65750670de0b6b3a76400008482816118c357fe5b04145b61190a576040805162461bcd60e51b815260206004820152601060248201526f11549497d1125597d25395115493905360821b604482015290519081900360640190fd5b60028304810181811015611958576040805162461bcd60e51b815260206004820152601060248201526f11549497d1125597d25395115493905360821b604482015290519081900360640190fd5b600084828161196357fe5b049695505050505050565b60008261197d57506000611709565b8282028284828161198a57fe5b04146117065760405162461bcd60e51b81526004018080602001828103825260218152602001806120e66021913960400191505060405180910390fd5b60008282028315806119e15750828482816119de57fe5b04145b611a25576040805162461bcd60e51b815260206004820152601060248201526f4552525f4d554c5f4f564552464c4f5760801b604482015290519081900360640190fd5b6706f05b59d3b20000810181811015611a78576040805162461bcd60e51b815260206004820152601060248201526f4552525f4d554c5f4f564552464c4f5760801b604482015290519081900360640190fd5b6000670de0b6b3a764000082611963565b600061170982611e75565b60006117068383611e79565b6000611706836001600160a01b038416611edd565b6000611706836001600160a01b038416611fa3565b6000818310611ad95781611706565b5090919050565b606081516001600160401b0381118015611af957600080fd5b50604051908082528060200260200182016040528015611b23578160200160208202803683370190505b50905060005b8251811015611d52576000611b3e86866117a1565b9050611b4861209c565b60016000868581518110611b5857fe5b6020908102919091018101516001600160a01b03908116835282820193909352604091820160009081208682528252829020825160808101845281546001600160501b038082168352600160501b8204811694830194909452600160a01b900490921692820192909252600190910154606082015291508681169088161015611ce65780516020820151611bfe916001600160501b039081169161053991839116611803565b848481518110611c0a57fe5b602002602001018181525050611cc9858481518110611c2557fe5b60200260200101516001600160a01b031663f8b2cb4f886040518263ffffffff1660e01b815260040180826001600160a01b0316815260200191505060206040518083038186803b158015611c7957600080fd5b505afa158015611c8d573d6000803e3d6000fd5b505050506040513d6020811015611ca357600080fd5b50518551869086908110611cb357fe5b602002602001015161196e90919063ffffffff16565b848481518110611cd557fe5b602002602001018181525050611d48565b60208101518151611d08916001600160501b0390811691610539911682611803565b848481518110611d1457fe5b602002602001018181525050611d2f858481518110611c2557fe5b848481518110611d3b57fe5b6020026020010181815250505b5050600101611b29565b509392505050565b600080600019815b611d6e85516020611aca565b811015611e2a576000805b8651811015611df857868281518110611d8e57fe5b6020026020010151878281518110611da257fe5b6020026020010151118015611dc9575083878281518110611dbf57fe5b6020026020010151105b80611de7575083878381518110611ddc57fe5b602002602001015110155b15611df0578091505b600101611d79565b50858181518110611e0557fe5b602090810291909101015160019182016008840260f8031b9490941793925001611d62565b50909392505050565b600061170683836040518060400160405280601e81526020017f536166654d6174683a207375627472616374696f6e206f766572666c6f770000815250611fed565b5490565b81546000908210611ebb5760405162461bcd60e51b81526004018080602001828103825260228152602001806120c46022913960400191505060405180910390fd5b826000018281548110611eca57fe5b9060005260206000200154905092915050565b60008181526001830160205260408120548015611f995783546000198083019190810190600090879083908110611f1057fe5b9060005260206000200154905080876000018481548110611f2d57fe5b600091825260208083209091019290925582815260018981019092526040902090840190558654879080611f5d57fe5b60019003818190600052602060002001600090559055866001016000878152602001908152602001600020600090556001945050505050611709565b6000915050611709565b6000611faf8383612084565b611fe557508154600181810184556000848152602080822090930184905584548482528286019093526040902091909155611709565b506000611709565b6000818484111561207c5760405162461bcd60e51b81526004018080602001828103825283818151815260200191508051906020019080838360005b83811015612041578181015183820152602001612029565b50505050905090810190601f16801561206e5780820380516001836020036101000a031916815260200191505b509250505060405180910390fd5b505050900390565b60009081526001919091016020526040902054151590565b6040805160808101825260008082526020820181905291810182905260608101919091529056fe456e756d657261626c655365743a20696e646578206f7574206f6620626f756e6473536166654d6174683a206d756c7469706c69636174696f6e206f766572666c6f77a26469706673582212200ec2b6a9fb5f0ad8dae98c73ad2c2d5d08af48817c927b924db869d368c03c9b64736f6c634300060c0033",
  "linkReferences": {},
  "deployedLinkReferences": {}
}