{
  "_format": "hh-sol-artifact-1",
  "contractName": "SmartWallet",
  "sourceName": "contracts/test/SmartWallet.sol",
  "abi": [
    {
      "anonymous": false,
      "inputs": [
        {
          "indexed": false,
          "internalType": "bytes[]",
          "name": "returnData",
          "type": "bytes[]"
        }
      ],
      "name": "Executed",
      "type": "event"
    },
    {
      "inputs": [],
      "name": "CALL_REVERT_PREFIX",
      "outputs": [
        {
          "internalType": "string",
          "name": "",
          "type": "string"
        }
      ],
      "stateMutability": "view",
      "type": "function"
    },
    {
      "inputs": [
        {
          "components": [
            {
              "internalType": "address",
              "name": "target",
              "type": "address"
            },
            {
              "internalType": "bytes",
              "name": "callData",
              "type": "bytes"
            }
          ],
          "internalType": "struct Multicall.Call[]",
          "name": "calls",
          "type": "tuple[]"
        }
      ],
      "name": "encodeCalls",
      "outputs": [
        {
          "internalType": "bytes",
          "name": "data",
          "type": "bytes"
        }
      ],
      "stateMutability": "pure",
      "type": "function"
    },
    {
      "inputs": [
        {
          "components": [
            {
              "internalType": "address",
              "name": "target",
              "type": "address"
            },
            {
              "internalType": "bytes",
              "name": "callData",
              "type": "bytes"
            }
          ],
          "internalType": "struct Multicall.Call[]",
          "name": "calls",
          "type": "tuple[]"
        }
      ],
      "name": "execute",
      "outputs": [],
      "stateMutability": "nonpayable",
      "type": "function"
    }
  ],
  "bytecode": "0x608060405234801561001057600080fd5b5061065c806100206000396000f3fe608060405234801561001057600080fd5b50600436106100415760003560e01c806319a83f92146100465780634031d09514610064578063baae8abf14610077575b600080fd5b61004e61008c565b60405161005b91906105b6565b60405180910390f35b61004e6100723660046102e4565b6100b3565b61008a610085366004610352565b6100df565b005b6040518060400160405280600b81526020016a026bab63a34b1b0b6361d160ad1b81525081565b606082826040516020016100c89291906104d9565b604051602081830303815290604052905092915050565b60606100ea82610127565b90507f0a3a47cf2fc71b027d704f24ce22bc76b6430ba1691f5241daf1893bdde7a5868160405161011b9190610479565b60405180910390a15050565b606081516001600160401b038111801561014057600080fd5b5060405190808252806020026020018201604052801561017457816020015b606081526020019060019003908161015f5790505b50905060005b82518110156102415761018b610247565b83828151811061019757fe5b602002602001015190506000606082600001516001600160a01b031683602001516040516101c5919061045d565b6000604051808303816000865af19150503d8060008114610202576040519150601f19603f3d011682016040523d82523d6000602084013e610207565b606091505b50915091508161021e576040513d806000833e8082fd5b8085858151811061022b57fe5b602090810291909101015250505060010161017a565b50919050565b60408051808201909152600081526060602082015290565b80356001600160a01b038116811461027657600080fd5b92915050565b600082601f83011261028c578081fd5b81356001600160401b038111156102a1578182fd5b6102b4601f8201601f19166020016105d0565b91508082528360208285010111156102cb57600080fd5b8060208401602084013760009082016020015292915050565b600080602083850312156102f6578182fd5b82356001600160401b038082111561030c578384fd5b818501915085601f83011261031f578384fd5b81358181111561032d578485fd5b8660208083028501011115610340578485fd5b60209290920196919550909350505050565b60006020808385031215610364578182fd5b82356001600160401b038082111561037a578384fd5b818501915085601f83011261038d578384fd5b81358181111561039b578485fd5b6103a884858302016105d0565b81815284810190848601875b848110156104225781358701604080601f19838f030112156103d4578a8bfd5b6103dd816105d0565b6103e98e8c850161025f565b81529082013590888211156103fc578b8cfd5b61040a8e8c8486010161027c565b818c01528652505092870192908701906001016103b4565b50909998505050505050505050565b600081518084526104498160208601602086016105f6565b601f01601f19169290920160200192915050565b6000825161046f8184602087016105f6565b9190910192915050565b6000602080830181845280855180835260408601915060408482028701019250838701855b828110156104cc57603f198886030184526104ba858351610431565b9450928501929085019060010161049e565b5092979650505050505050565b602080825281810183905260009060408084018583028501820187855b888110156105a857878303603f190184528135368b9003603e1901811261051b578788fd5b8a018681016001600160a01b03610532828461025f565b1685523536829003601e19018112610548578889fd5b810180356001600160401b0381111561055f57898afd5b80360383131561056d57898afd5b8789870152808887015260609250808983018488013785810183018a905295880195601f01601f1916909401019250908501906001016104f6565b509098975050505050505050565b6000602082526105c96020830184610431565b9392505050565b6040518181016001600160401b03811182821017156105ee57600080fd5b604052919050565b60005b838110156106115781810151838201526020016105f9565b83811115610620576000848401525b5050505056fea2646970667358221220ba0114a40f69416e72c7acd7c9b6d0dda0f4998a3747881dd8ad2ec7aa1595fe64736f6c634300060c0033",
  "linkReferences": {},
  "deployedLinkReferences": {}
}