{
  "_format": "hh-sol-artifact-1",
  "contractName": "SmartWallet",
  "sourceName": "contracts/test/SmartWallet.sol",
  "abi": [
    {
      "anonymous": false,
      "inputs": [
        {
          "indexed": false,
          "internalType": "bytes[]",
          "name": "returnData",
          "type": "bytes[]"
        }
      ],
      "name": "Executed",
      "type": "event"
    },
    {
      "inputs": [],
      "name": "CALL_REVERT_PREFIX",
      "outputs": [
        {
          "internalType": "string",
          "name": "",
          "type": "string"
        }
      ],
      "stateMutability": "view",
      "type": "function"
    },
    {
      "inputs": [
        {
          "components": [
            {
              "internalType": "address",
              "name": "target",
              "type": "address"
            },
            {
              "internalType": "bytes",
              "name": "callData",
              "type": "bytes"
            }
          ],
          "internalType": "struct Multicall.Call[]",
          "name": "calls",
          "type": "tuple[]"
        }
      ],
      "name": "encodeCalls",
      "outputs": [
        {
          "internalType": "bytes",
          "name": "data",
          "type": "bytes"
        }
      ],
      "stateMutability": "pure",
      "type": "function"
    },
    {
      "inputs": [
        {
          "components": [
            {
              "internalType": "address",
              "name": "target",
              "type": "address"
            },
            {
              "internalType": "bytes",
              "name": "callData",
              "type": "bytes"
            }
          ],
          "internalType": "struct Multicall.Call[]",
          "name": "calls",
          "type": "tuple[]"
        }
      ],
      "name": "execute",
      "outputs": [],
      "stateMutability": "nonpayable",
      "type": "function"
    }
  ],
  "bytecode": "0x608060405234801561001057600080fd5b506106d6806100206000396000f3fe608060405234801561001057600080fd5b50600436106100415760003560e01c806319a83f92146100465780634031d09514610064578063baae8abf14610077575b600080fd5b61004e61008c565b60405161005b91906105e0565b60405180910390f35b61004e61007236600461030a565b6100b3565b61008a610085366004610379565b6100df565b005b6040518060400160405280600b81526020016a026bab63a34b1b0b6361d160ad1b81525081565b606082826040516020016100c8929190610501565b604051602081830303815290604052905092915050565b60606100ea82610127565b90507f0a3a47cf2fc71b027d704f24ce22bc76b6430ba1691f5241daf1893bdde7a5868160405161011b91906104a1565b60405180910390a15050565b80516060908067ffffffffffffffff8111801561014357600080fd5b5060405190808252806020026020018201604052801561017757816020015b60608152602001906001900390816101625790505b50915061018261026c565b6000805b838110156102635785818151811061019a57fe5b6020026020010151925082513b9150816101cf5760405162461bcd60e51b81526004016101c6906105fa565b60405180910390fd5b82600001516001600160a01b031683602001516040516101ef9190610485565b6000604051808303816000865af19150503d806000811461022c576040519150601f19603f3d011682016040523d82523d6000602084013e610231565b606091505b5086838151811061023e57fe5b602090810291909101015291508161025b573d806000803e806000fd5b600101610186565b50505050919050565b60408051808201909152600081526060602082015290565b80356001600160a01b038116811461029b57600080fd5b92915050565b600082601f8301126102b1578081fd5b813567ffffffffffffffff8111156102c7578182fd5b6102da601f8201601f1916602001610631565b91508082528360208285010111156102f157600080fd5b8060208401602084013760009082016020015292915050565b6000806020838503121561031c578182fd5b823567ffffffffffffffff80821115610333578384fd5b818501915085601f830112610346578384fd5b813581811115610354578485fd5b8660208083028501011115610367578485fd5b60209290920196919550909350505050565b6000602080838503121561038b578182fd5b823567ffffffffffffffff808211156103a2578384fd5b818501915085601f8301126103b5578384fd5b8135818111156103c3578485fd5b6103d08485830201610631565b81815284810190848601875b8481101561044a5781358701604080601f19838f030112156103fc578a8bfd5b61040581610631565b6104118e8c8501610284565b8152908201359088821115610424578b8cfd5b6104328e8c848601016102a1565b818c01528652505092870192908701906001016103dc565b50909998505050505050505050565b60008151808452610471816020860160208601610658565b601f01601f19169290920160200192915050565b60008251610497818460208701610658565b9190910192915050565b6000602080830181845280855180835260408601915060408482028701019250838701855b828110156104f457603f198886030184526104e2858351610459565b945092850192908501906001016104c6565b5092979650505050505050565b602080825281810183905260009060408084018583028501820187855b888110156105d257878303603f190184528135368b9003603e19018112610543578788fd5b8a01803561055081610688565b6001600160a01b031684528087013536829003601e19018112610571578889fd5b8101803567ffffffffffffffff81111561058957898afd5b80360383131561059757898afd5b8789870152808887015260609250808983018488013785810183018a905295880195601f01601f19169094010192509085019060010161051e565b509098975050505050505050565b6000602082526105f36020830184610459565b9392505050565b6020808252601a908201527f6167677265676174653a206e6f74206120636f6e74726163742e000000000000604082015260600190565b60405181810167ffffffffffffffff8111828210171561065057600080fd5b604052919050565b60005b8381101561067357818101518382015260200161065b565b83811115610682576000848401525b50505050565b6001600160a01b038116811461069d57600080fd5b5056fea26469706673582212204b82a08208cda09e61b9deab594c5dc5abdb92f2458f52a91c7522f361e5952164736f6c634300060c0033",
  "linkReferences": {},
  "deployedLinkReferences": {}
}