{
    "_format": "hh-sol-artifact-1",
    "contractName": "AaveV2Adapter",
    "sourceName": "contracts/adapters/lending/AaveV2Adapter.sol",
    "abi": [
        {
            "inputs": [
                {
                    "internalType": "address",
                    "name": "addressesProvider_",
                    "type": "address"
                },
                {
                    "internalType": "address",
                    "name": "strategyController_",
                    "type": "address"
                },
                {
                    "internalType": "address",
                    "name": "weth_",
                    "type": "address"
                }
            ],
            "stateMutability": "nonpayable",
            "type": "constructor"
        },
        {
            "inputs": [],
            "name": "addressesProvider",
            "outputs": [
                {
                    "internalType": "contract ILendingPoolAddressesProvider",
                    "name": "",
                    "type": "address"
                }
            ],
            "stateMutability": "view",
            "type": "function"
        },
        {
            "inputs": [],
            "name": "gasCostProvider",
            "outputs": [
                {
                    "internalType": "contract GasCostProvider",
                    "name": "",
                    "type": "address"
                }
            ],
            "stateMutability": "view",
            "type": "function"
        },
        {
            "inputs": [],
            "name": "strategyController",
            "outputs": [
                {
                    "internalType": "contract IStrategyController",
                    "name": "",
                    "type": "address"
                }
            ],
            "stateMutability": "view",
            "type": "function"
        },
        {
            "inputs": [
                {
                    "internalType": "uint256",
                    "name": "amount",
                    "type": "uint256"
                },
                {
                    "internalType": "uint256",
                    "name": "expected",
                    "type": "uint256"
                },
                {
                    "internalType": "address",
                    "name": "tokenIn",
                    "type": "address"
                },
                {
                    "internalType": "address",
                    "name": "tokenOut",
                    "type": "address"
                },
                {
                    "internalType": "address",
                    "name": "from",
                    "type": "address"
                },
                {
                    "internalType": "address",
                    "name": "to",
                    "type": "address"
                }
            ],
            "name": "swap",
            "outputs": [],
            "stateMutability": "nonpayable",
            "type": "function"
        },
        {
            "inputs": [],
            "name": "weth",
            "outputs": [
                {
                    "internalType": "address",
                    "name": "",
                    "type": "address"
                }
            ],
            "stateMutability": "view",
            "type": "function"
        }
    ],
    "bytecode": "0x6101006040523480156200001257600080fd5b5060405162001555380380620015558339810160408190526200003591620000be565b6001600160601b0319606082811b821660805284811b821660a05283901b1660c0526040516117709033906200006b90620000b0565b6200007892919062000111565b604051809103906000f08015801562000095573d6000803e3d6000fd5b5060601b6001600160601b03191660e0525062000141915050565b6105578062000ffe83390190565b600080600060608486031215620000d3578283fd5b8351620000e08162000128565b6020850151909350620000f38162000128565b6040850151909250620001068162000128565b809150509250925092565b9182526001600160a01b0316602082015260400190565b6001600160a01b03811681146200013e57600080fd5b50565b60805160601c60a05160601c60c05160601c60e05160601c610e68620001966000398061066d528061073b52508060a8528061031c5250806101fd528061052d52806106915250806106495250610e686000f3fe608060405234801561001057600080fd5b50600436106100565760003560e01c8062258d6b1461005b578063230f11c7146100795780633fc8cef31461008e578063a555e74b14610096578063c72c4d101461009e575b600080fd5b6100636100a6565b6040516100709190610b5a565b60405180910390f35b61008c610087366004610acf565b6100ca565b005b610063610647565b61006361066b565b61006361068f565b7f000000000000000000000000000000000000000000000000000000000000000081565b826001600160a01b0316846001600160a01b031614156101055760405162461bcd60e51b81526004016100fc90610cea565b60405180910390fd5b848610156101255760405162461bcd60e51b81526004016100fc90610cb4565b6001600160a01b038216301461014a5761014a6001600160a01b0385168330896106b3565b61015383610711565b1561048a57836001600160a01b0316836001600160a01b031663b16a19de6040518163ffffffff1660e01b815260040160206040518083038186803b15801561019b57600080fd5b505afa1580156101af573d6000803e3d6000fd5b505050506040513d601f19601f820116820180604052508101906101d39190610a7b565b6001600160a01b0316146101f95760405162461bcd60e51b81526004016100fc90610c48565b60007f00000000000000000000000000000000000000000000000000000000000000006001600160a01b0316630261bf8b6040518163ffffffff1660e01b815260040160206040518083038186803b15801561025457600080fd5b505afa158015610268573d6000803e3d6000fd5b505050506040513d601f19601f8201168201806040525081019061028c9190610a7b565b90506102a26001600160a01b038616828961080b565b60405163e8eda9df60e01b81526001600160a01b0382169063e8eda9df906102d59088908b908790600090600401610be8565b600060405180830381600087803b1580156102ef57600080fd5b505af1158015610303573d6000803e3d6000fd5b505060405163cbca47db60e01b81526001600160a01b037f000000000000000000000000000000000000000000000000000000000000000016925063cbca47db9150610353908590600401610b5a565b60206040518083038186803b15801561036b57600080fd5b505afa15801561037f573d6000803e3d6000fd5b505050506040513d601f19601f820116820180604052508101906103a39190610a97565b15610484576000829050806001600160a01b031663d1cc8c9d6040518163ffffffff1660e01b815260040160206040518083038186803b1580156103e657600080fd5b505afa1580156103fa573d6000803e3d6000fd5b505050506040513d601f19601f8201168201806040525081019061041e9190610a97565b156104825760405163886abef560e01b81526001600160a01b0382169063886abef59061044f908990600401610b5a565b600060405180830381600087803b15801561046957600080fd5b505af115801561047d573d6000803e3d6000fd5b505050505b505b5061063f565b826001600160a01b0316846001600160a01b031663b16a19de6040518163ffffffff1660e01b815260040160206040518083038186803b1580156104cd57600080fd5b505afa1580156104e1573d6000803e3d6000fd5b505050506040513d601f19601f820116820180604052508101906105059190610a7b565b6001600160a01b03161461052b5760405162461bcd60e51b81526004016100fc90610c48565b7f00000000000000000000000000000000000000000000000000000000000000006001600160a01b0316630261bf8b6040518163ffffffff1660e01b815260040160206040518083038186803b15801561058457600080fd5b505afa158015610598573d6000803e3d6000fd5b505050506040513d601f19601f820116820180604052508101906105bc9190610a7b565b6001600160a01b03166369328dec8488846040518463ffffffff1660e01b81526004016105eb93929190610bc5565b602060405180830381600087803b15801561060557600080fd5b505af1158015610619573d6000803e3d6000fd5b505050506040513d601f19601f8201168201806040525081019061063d9190610ab7565b505b505050505050565b7f000000000000000000000000000000000000000000000000000000000000000081565b7f000000000000000000000000000000000000000000000000000000000000000081565b7f000000000000000000000000000000000000000000000000000000000000000081565b61070b846323b872dd60e01b8585856040516024016106d493929190610b88565b60408051601f198184030181529190526020810180516001600160e01b03166001600160e01b0319909316929092179091526108d3565b50505050565b6000807fb16a19de4224283fa4cedf7c621a3cea4e1b1dc9122d01b4093ee3537fd658a0905060007f00000000000000000000000000000000000000000000000000000000000000006001600160a01b0316631d5e3fe56040518163ffffffff1660e01b815260040160206040518083038186803b15801561079257600080fd5b505afa1580156107a6573d6000803e3d6000fd5b505050506040513d601f19601f820116820180604052508101906107ca9190610ab7565b9050600080604051602081016040528481526020816004838a88fa9250805191505081801561080157506001600160a01b03811615155b9695505050505050565b8015806108935750604051636eb1769f60e11b81526001600160a01b0384169063dd62ed3e906108419030908690600401610b6e565b60206040518083038186803b15801561085957600080fd5b505afa15801561086d573d6000803e3d6000fd5b505050506040513d601f19601f820116820180604052508101906108919190610ab7565b155b6108af5760405162461bcd60e51b81526004016100fc90610d98565b6108ce8363095ea7b360e01b84846040516024016106d4929190610bac565b505050565b6060610928826040518060400160405280602081526020017f5361666545524332303a206c6f772d6c6576656c2063616c6c206661696c6564815250856001600160a01b03166109629092919063ffffffff16565b8051909150156108ce57808060200190518101906109469190610a97565b6108ce5760405162461bcd60e51b81526004016100fc90610d4e565b6060610971848460008561097b565b90505b9392505050565b60608247101561099d5760405162461bcd60e51b81526004016100fc90610c6e565b6109a685610a3c565b6109c25760405162461bcd60e51b81526004016100fc90610d17565b60006060866001600160a01b031685876040516109df9190610b3e565b60006040518083038185875af1925050503d8060008114610a1c576040519150601f19603f3d011682016040523d82523d6000602084013e610a21565b606091505b5091509150610a31828286610a42565b979650505050505050565b3b151590565b60608315610a51575081610974565b825115610a615782518084602001fd5b8160405162461bcd60e51b81526004016100fc9190610c15565b600060208284031215610a8c578081fd5b815161097481610e1a565b600060208284031215610aa8578081fd5b81518015158114610974578182fd5b600060208284031215610ac8578081fd5b5051919050565b60008060008060008060c08789031215610ae7578182fd5b86359550602087013594506040870135610b0081610e1a565b93506060870135610b1081610e1a565b92506080870135610b2081610e1a565b915060a0870135610b3081610e1a565b809150509295509295509295565b60008251610b50818460208701610dee565b9190910192915050565b6001600160a01b0391909116815260200190565b6001600160a01b0392831681529116602082015260400190565b6001600160a01b039384168152919092166020820152604081019190915260600190565b6001600160a01b03929092168252602082015260400190565b6001600160a01b0393841681526020810192909252909116604082015260600190565b6001600160a01b03948516815260208101939093529216604082015261ffff909116606082015260800190565b6000602082528251806020840152610c34816040850160208701610dee565b601f01601f19169190910160400192915050565b6020808252600c908201526b496e636f6d70617469626c6560a01b604082015260600190565b60208082526026908201527f416464726573733a20696e73756666696369656e742062616c616e636520666f6040820152651c8818d85b1b60d21b606082015260800190565b6020808252601c908201527b125b9cdd59999a58da595b9d081d1bdad95b93dd5d08185b5bdd5b9d60221b604082015260600190565b6020808252601390820152720a8ded6cadce640c6c2dcdcdee840dac2e8c6d606b1b604082015260600190565b6020808252601d908201527f416464726573733a2063616c6c20746f206e6f6e2d636f6e7472616374000000604082015260600190565b6020808252602a908201527f5361666545524332303a204552433230206f7065726174696f6e20646964206e6040820152691bdd081cdd58d8d9595960b21b606082015260800190565b60208082526036908201527f5361666545524332303a20617070726f76652066726f6d206e6f6e2d7a65726f60408201527520746f206e6f6e2d7a65726f20616c6c6f77616e636560501b606082015260800190565b60005b83811015610e09578181015183820152602001610df1565b8381111561070b5750506000910152565b6001600160a01b0381168114610e2f57600080fd5b5056fea26469706673582212208b7f99f02100364679d05993dd24e74890be4d4de11e9d58bdd46a1935ac321164736f6c634300060c0033608060405234801561001057600080fd5b506040516105573803806105578339818101604052604081101561003357600080fd5b5080516020909101516000610046610093565b600080546001600160a01b0319166001600160a01b038316908117825560405192935091600080516020610537833981519152908290a350600182905561008c81610097565b505061018f565b3390565b61009f610093565b6000546001600160a01b03908116911614610101576040805162461bcd60e51b815260206004820181905260248201527f4f776e61626c653a2063616c6c6572206973206e6f7420746865206f776e6572604482015290519081900360640190fd5b6001600160a01b0381166101465760405162461bcd60e51b81526004018080602001828103825260268152602001806105116026913960400191505060405180910390fd5b600080546040516001600160a01b038085169392169160008051602061053783398151915291a3600080546001600160a01b0319166001600160a01b0392909216919091179055565b6103738061019e6000396000f3fe608060405234801561001057600080fd5b50600436106100575760003560e01c80631d5e3fe51461005c578063715018a6146100765780638da5cb5b14610080578063b227a534146100a4578063f2fde38b146100c1575b600080fd5b6100646100e7565b60408051918252519081900360200190f35b61007e6100ed565b005b61008861018f565b604080516001600160a01b039092168252519081900360200190f35b61007e600480360360208110156100ba57600080fd5b503561019e565b61007e600480360360208110156100d757600080fd5b50356001600160a01b03166101fb565b60015481565b6100f56102f3565b6000546001600160a01b03908116911614610145576040805162461bcd60e51b8152602060048201819052602482015260008051602061031e833981519152604482015290519081900360640190fd5b600080546040516001600160a01b03909116907f8be0079c531659141344cd1fd0a4f28419497f9722a3daafe3b4186f6b6457e0908390a3600080546001600160a01b0319169055565b6000546001600160a01b031690565b6101a66102f3565b6000546001600160a01b039081169116146101f6576040805162461bcd60e51b8152602060048201819052602482015260008051602061031e833981519152604482015290519081900360640190fd5b600155565b6102036102f3565b6000546001600160a01b03908116911614610253576040805162461bcd60e51b8152602060048201819052602482015260008051602061031e833981519152604482015290519081900360640190fd5b6001600160a01b0381166102985760405162461bcd60e51b81526004018080602001828103825260268152602001806102f86026913960400191505060405180910390fd5b600080546040516001600160a01b03808516939216917f8be0079c531659141344cd1fd0a4f28419497f9722a3daafe3b4186f6b6457e091a3600080546001600160a01b0319166001600160a01b0392909216919091179055565b339056fe4f776e61626c653a206e6577206f776e657220697320746865207a65726f20616464726573734f776e61626c653a2063616c6c6572206973206e6f7420746865206f776e6572a2646970667358221220db74bee37227cde69c27937852ed0dd8a00ff93a8381e0059ea7d632c505835d64736f6c634300060c00334f776e61626c653a206e6577206f776e657220697320746865207a65726f20616464726573738be0079c531659141344cd1fd0a4f28419497f9722a3daafe3b4186f6b6457e0",
    "linkReferences": {},
    "deployedLinkReferences": {}
}