{
  "_format": "hh-sol-artifact-1",
  "contractName": "UniswapV2LPAdapter",
  "sourceName": "contracts/adapters/liquidity/UniswapV2LPAdapter.sol",
  "abi": [
    {
      "inputs": [
        {
          "internalType": "address",
          "name": "factory_",
          "type": "address"
        },
        {
          "internalType": "address",
          "name": "weth_",
          "type": "address"
        }
      ],
      "stateMutability": "nonpayable",
      "type": "constructor"
    },
    {
      "inputs": [],
      "name": "factory",
      "outputs": [
        {
          "internalType": "address",
          "name": "",
          "type": "address"
        }
      ],
      "stateMutability": "view",
      "type": "function"
    },
    {
      "inputs": [
        {
          "internalType": "uint256",
          "name": "amount",
          "type": "uint256"
        },
        {
          "internalType": "address",
          "name": "tokenIn",
          "type": "address"
        },
        {
          "internalType": "address",
          "name": "tokenOut",
          "type": "address"
        }
      ],
      "name": "spotPrice",
      "outputs": [
        {
          "internalType": "uint256",
          "name": "",
          "type": "uint256"
        }
      ],
      "stateMutability": "view",
      "type": "function"
    },
    {
      "inputs": [
        {
          "internalType": "uint256",
          "name": "amount",
          "type": "uint256"
        },
        {
          "internalType": "uint256",
          "name": "expected",
          "type": "uint256"
        },
        {
          "internalType": "address",
          "name": "tokenIn",
          "type": "address"
        },
        {
          "internalType": "address",
          "name": "tokenOut",
          "type": "address"
        },
        {
          "internalType": "address",
          "name": "from",
          "type": "address"
        },
        {
          "internalType": "address",
          "name": "to",
          "type": "address"
        }
      ],
      "name": "swap",
      "outputs": [],
      "stateMutability": "nonpayable",
      "type": "function"
    },
    {
      "inputs": [],
      "name": "weth",
      "outputs": [
        {
          "internalType": "address",
          "name": "",
          "type": "address"
        }
      ],
      "stateMutability": "view",
      "type": "function"
    }
  ],
  "bytecode": "0x60c060405234801561001057600080fd5b506040516121383803806121388339818101604052604081101561003357600080fd5b5080516020909101516001600160601b0319606091821b811660805291901b1660a05260805160601c60a05160601c6120416100f760003980610d5b5280610e915280610f4c528061112452806111df52806113c3528061169a52508061016e528061045a5280610704528061074b52806108f352806109225280610a3b5280610cef5280610d1e5280610e4a5280610eb25280610ef15280610f6d5280610fa1528061114652806111845280611200528061165152806116bb52506120416000f3fe608060405234801561001057600080fd5b506004361061004c5760003560e01c8063230f11c7146100515780633fc8cef31461009d57806377ec159d146100c1578063c45a015514610107575b600080fd5b61009b600480360360c081101561006757600080fd5b508035906020810135906001600160a01b0360408201358116916060810135821691608082013581169160a001351661010f565b005b6100a5610702565b604080516001600160a01b039092168252519081900360200190f35b6100f5600480360360608110156100d757600080fd5b508035906001600160a01b0360208201358116916040013516610726565b60408051918252519081900360200190f35b6100a5610d59565b826001600160a01b0316846001600160a01b0316141561016c576040805162461bcd60e51b81526020600482015260136024820152720a8ded6cadce640c6c2dcdcdee840dac2e8c6d606b1b604482015290519081900360640190fd5b7f00000000000000000000000000000000000000000000000000000000000000006001600160a01b0316846001600160a01b03161415610458576001600160a01b03821630146101cb576101cb6001600160a01b038516833089610d7d565b60008390506000816001600160a01b0316630dfe16816040518163ffffffff1660e01b815260040160206040518083038186803b15801561020b57600080fd5b505afa15801561021f573d6000803e3d6000fd5b505050506040513d602081101561023557600080fd5b50516040805163d21220a760e01b815290519192506000916001600160a01b0385169163d21220a7916004808301926020929190829003018186803b15801561027d57600080fd5b505afa158015610291573d6000803e3d6000fd5b505050506040513d60208110156102a757600080fd5b810190808051906020019092919050505090506000806103308885858e896001600160a01b03166318160ddd6040518163ffffffff1660e01b815260040160206040518083038186803b1580156102fd57600080fd5b505afa158015610311573d6000803e3d6000fd5b505050506040513d602081101561032757600080fd5b50516000610ddd565b9150915060006103408386610e46565b9050600061034e8386610e46565b90506103646001600160a01b0387168b846110c3565b6103786001600160a01b0386168b836110c3565b6000876001600160a01b0316636a6278428a6040518263ffffffff1660e01b815260040180826001600160a01b03168152602001915050602060405180830381600087803b1580156103c957600080fd5b505af11580156103dd573d6000803e3d6000fd5b505050506040513d60208110156103f357600080fd5b505190508c81101561044b576040805162461bcd60e51b815260206004820152601c60248201527b125b9cdd59999a58da595b9d081d1bdad95b93dd5d08185b5bdd5b9d60221b604482015290519081900360640190fd5b50505050505050506106fa565b7f00000000000000000000000000000000000000000000000000000000000000006001600160a01b0316836001600160a01b031614156106b7576001600160a01b03821630146104bc576104b76001600160a01b038516838689610d7d565b6104d0565b6104d06001600160a01b03851685886110c3565b60008490506000816001600160a01b0316630dfe16816040518163ffffffff1660e01b815260040160206040518083038186803b15801561051057600080fd5b505afa158015610524573d6000803e3d6000fd5b505050506040513d602081101561053a57600080fd5b50516040805163d21220a760e01b815290519192506000916001600160a01b0385169163d21220a7916004808301926020929190829003018186803b15801561058257600080fd5b505afa158015610596573d6000803e3d6000fd5b505050506040513d60208110156105ac57600080fd5b50516040805163226bf2d160e21b8152306004820152815192935060009283926001600160a01b038816926389afcb44926024808301939282900301818787803b1580156105f957600080fd5b505af115801561060d573d6000803e3d6000fd5b505050506040513d604081101561062357600080fd5b5080516020909101519092509050600061063e83868961111a565b9050600061064d83868a61111a565b90508b61065a8383611340565b116106ab576040805162461bcd60e51b815260206004820152601c60248201527b125b9cdd59999a58da595b9d081d1bdad95b93dd5d08185b5bdd5b9d60221b604482015290519081900360640190fd5b505050505050506106fa565b6040805162461bcd60e51b8152602060048201526013602482015272151bdad95b881b9bdd081cdd5c1c1bdc9d1959606a1b604482015290519081900360640190fd5b505050505050565b7f000000000000000000000000000000000000000000000000000000000000000081565b6000816001600160a01b0316836001600160a01b03161415610749575082610d52565b7f00000000000000000000000000000000000000000000000000000000000000006001600160a01b0316836001600160a01b03161415610a395760008290506000816001600160a01b0316630dfe16816040518163ffffffff1660e01b815260040160206040518083038186803b1580156107c357600080fd5b505afa1580156107d7573d6000803e3d6000fd5b505050506040513d60208110156107ed57600080fd5b50516040805163d21220a760e01b815290519192506000916001600160a01b0385169163d21220a7916004808301926020929190829003018186803b15801561083557600080fd5b505afa158015610849573d6000803e3d6000fd5b505050506040513d602081101561085f57600080fd5b5051604080516318160ddd60e01b815290519192506000916001600160a01b038616916318160ddd916004808301926020929190829003018186803b1580156108a757600080fd5b505afa1580156108bb573d6000803e3d6000fd5b505050506040513d60208110156108d157600080fd5b505190506000806108e78886868d876001610ddd565b915091506000610918837f000000000000000000000000000000000000000000000000000000000000000088611398565b90506000610947837f000000000000000000000000000000000000000000000000000000000000000088611398565b90508461097b5761096c6103e86109666109618585611402565b61145b565b906114ad565b98505050505050505050610d52565b600080896001600160a01b0316630902f1ac6040518163ffffffff1660e01b815260040160606040518083038186803b1580156109b757600080fd5b505afa1580156109cb573d6000803e3d6000fd5b505050506040513d60608110156109e157600080fd5b5080516020909101516001600160701b039182169350169050610a2882610a08868a611402565b81610a0f57fe5b0482610a1b868b611402565b81610a2257fe5b046114ef565b9a5050505050505050505050610d52565b7f00000000000000000000000000000000000000000000000000000000000000006001600160a01b0316826001600160a01b03161415610d4e5760008390506000816001600160a01b0316630dfe16816040518163ffffffff1660e01b815260040160206040518083038186803b158015610ab357600080fd5b505afa158015610ac7573d6000803e3d6000fd5b505050506040513d6020811015610add57600080fd5b50516040805163d21220a760e01b815290519192506000916001600160a01b0385169163d21220a7916004808301926020929190829003018186803b158015610b2557600080fd5b505afa158015610b39573d6000803e3d6000fd5b505050506040513d6020811015610b4f57600080fd5b5051604080516318160ddd60e01b815290519192506000916001600160a01b038616916318160ddd916004808301926020929190829003018186803b158015610b9757600080fd5b505afa158015610bab573d6000803e3d6000fd5b505050506040513d6020811015610bc157600080fd5b5051604080516370a0823160e01b81526001600160a01b038a8116600483015291519293506000928492610c4c92908816916370a0823191602480820192602092909190829003018186803b158015610c1957600080fd5b505afa158015610c2d573d6000803e3d6000fd5b505050506040513d6020811015610c4357600080fd5b50518b90611402565b81610c5357fe5b049050600082610cdc856001600160a01b03166370a082318c6040518263ffffffff1660e01b815260040180826001600160a01b0316815260200191505060206040518083038186803b158015610ca957600080fd5b505afa158015610cbd573d6000803e3d6000fd5b505050506040513d6020811015610cd357600080fd5b50518c90611402565b81610ce357fe5b0490506000610d1383877f0000000000000000000000000000000000000000000000000000000000000000611398565b90506000610d4283877f0000000000000000000000000000000000000000000000000000000000000000611398565b905061096c8282611340565b5060005b9392505050565b7f000000000000000000000000000000000000000000000000000000000000000081565b604080516001600160a01b0380861660248301528416604482015260648082018490528251808303909101815260849091019091526020810180516001600160e01b03166323b872dd60e01b179052610dd7908590611505565b50505050565b6000806000610dee888a87876115b6565b90506000610dfe888b88886115b6565b90506000610e0c8383611340565b90506000610e2482610e1e8b87611402565b90611713565b90506000610e328a836114ad565b919d919c50909a5050505050505050505050565b60007f00000000000000000000000000000000000000000000000000000000000000006001600160a01b0316826001600160a01b03161415610e895750816110bd565b600080610ed77f00000000000000000000000000000000000000000000000000000000000000007f000000000000000000000000000000000000000000000000000000000000000086611752565b915091506000610ee8868484611819565b90506000610f167f0000000000000000000000000000000000000000000000000000000000000000876118f1565b509050600080826001600160a01b0316886001600160a01b031614610f3d57600084610f41565b8360005b915091506000610f927f00000000000000000000000000000000000000000000000000000000000000007f00000000000000000000000000000000000000000000000000000000000000008b6119cf565b9050610fc86001600160a01b037f000000000000000000000000000000000000000000000000000000000000000016828c6110c3565b604080516000808252602082019283905263022c0d9f60e01b835260248201868152604483018690523060648401819052608060848501908152845160a486018190526001600160a01b0388169663022c0d9f968b968b9691949193919260c486019290918190849084905b8381101561104c578181015183820152602001611034565b50505050905090810190601f1680156110795780820380516001836020036101000a031916815260200191505b5095505050505050600060405180830381600087803b15801561109b57600080fd5b505af11580156110af573d6000803e3d6000fd5b509699505050505050505050505b92915050565b604080516001600160a01b038416602482015260448082018490528251808303909101815260649091019091526020810180516001600160e01b031663a9059cbb60e01b179052611115908490611505565b505050565b600080600061116a7f0000000000000000000000000000000000000000000000000000000000000000867f0000000000000000000000000000000000000000000000000000000000000000611752565b91509150600061117b878484611819565b905060006111a97f0000000000000000000000000000000000000000000000000000000000000000886118f1565b509050600080826001600160a01b0316896001600160a01b0316146111d0578360006111d4565b6000845b9150915060006112257f00000000000000000000000000000000000000000000000000000000000000007f00000000000000000000000000000000000000000000000000000000000000008c6119cf565b905061123b6001600160a01b038b16828d6110c3565b604080516000808252602082019092526001600160a01b0383169163022c0d9f91869186918e91506040518563ffffffff1660e01b815260040180858152602001848152602001836001600160a01b0316815260200180602001828103825283818151815260200191508051906020019080838360005b838110156112ca5781810151838201526020016112b2565b50505050905090810190601f1680156112f75780820380516001836020036101000a031916815260200191505b5095505050505050600060405180830381600087803b15801561131957600080fd5b505af115801561132d573d6000803e3d6000fd5b50969d9c50505050505050505050505050565b600082820183811015610d52576040805162461bcd60e51b815260206004820152601b60248201527a536166654d6174683a206164646974696f6e206f766572666c6f7760281b604482015290519081900360640190fd5b6000816001600160a01b0316836001600160a01b031614156113bb575082610d52565b6000806113e97f00000000000000000000000000000000000000000000000000000000000000008686611752565b915091506113f8868383611a8a565b9695505050505050565b600082611411575060006110bd565b8282028284828161141e57fe5b0414610d525760405162461bcd60e51b8152600401808060200182810382526021815260200180611f716021913960400191505060405180910390fd5b6000600382111561149e575080600160028204015b818110156114985780915060028182858161148757fe5b04018161149057fe5b049050611470565b506114a8565b81156114a8575060015b919050565b6000610d5283836040518060400160405280601e81526020017f536166654d6174683a207375627472616374696f6e206f766572666c6f770000815250611b30565b60008183106114fe5781610d52565b5090919050565b606061155a826040518060400160405280602081526020017f5361666545524332303a206c6f772d6c6576656c2063616c6c206661696c6564815250856001600160a01b0316611bc79092919063ffffffff16565b8051909150156111155780806020019051602081101561157957600080fd5b50516111155760405162461bcd60e51b815260040180806020018281038252602a815260200180611fb7602a913960400191505060405180910390fd5b600080856001600160a01b03166370a08231866040518263ffffffff1660e01b815260040180826001600160a01b0316815260200191505060206040518083038186803b15801561160657600080fd5b505afa15801561161a573d6000803e3d6000fd5b505050506040513d602081101561163057600080fd5b50519050600084611645633b9aca0084611402565b8161164c57fe5b0490507f00000000000000000000000000000000000000000000000000000000000000006001600160a01b0316876001600160a01b0316141561169257915061170b9050565b6000806116e07f00000000000000000000000000000000000000000000000000000000000000007f00000000000000000000000000000000000000000000000000000000000000008b611752565b915091508515611700576116f5838284611a8a565b94505050505061170b565b6116f5838383611bd6565b949350505050565b6000610d5283836040518060400160405280601a815260200179536166654d6174683a206469766973696f6e206279207a65726f60301b815250611ca4565b600080600061176185856118f1565b5090506000806117728888886119cf565b6001600160a01b0316630902f1ac6040518163ffffffff1660e01b815260040160606040518083038186803b1580156117aa57600080fd5b505afa1580156117be573d6000803e3d6000fd5b505050506040513d60608110156117d457600080fd5b5080516020909101516001600160701b0391821693501690506001600160a01b038781169084161461180757808261180a565b81815b90999098509650505050505050565b60008084116118595760405162461bcd60e51b815260040180806020018281038252602b815260200180611fe1602b913960400191505060405180910390fd5b6000831180156118695750600082115b6118a45760405162461bcd60e51b8152600401808060200182810382526028815260200180611f496028913960400191505060405180910390fd5b60006118b2856103e5611402565b905060006118c08285611402565b905060006118da836118d4886103e8611402565b90611340565b90508082816118e557fe5b04979650505050505050565b600080826001600160a01b0316846001600160a01b031614156119455760405162461bcd60e51b8152600401808060200182810382526025815260200180611efe6025913960400191505060405180910390fd5b826001600160a01b0316846001600160a01b031610611965578284611968565b83835b90925090506001600160a01b0382166119c8576040805162461bcd60e51b815260206004820152601e60248201527f556e697377617056324c6962726172793a205a45524f5f414444524553530000604482015290519081900360640190fd5b9250929050565b60008060006119de85856118f1565b604080516001600160601b0319606094851b811660208084019190915293851b81166034830152825160288184030181526048830184528051908501206001600160f81b031960688401529a90941b9093166069840152607d8301989098527f96e8ac4277198ff8b6f785478aa9a39f403cb768dd02cbee326c3e7da348845f609d808401919091528851808403909101815260bd909201909752805196019590952095945050505050565b6000808411611aca5760405162461bcd60e51b8152600401808060200182810382526025815260200180611f926025913960400191505060405180910390fd5b600083118015611ada5750600082115b611b155760405162461bcd60e51b8152600401808060200182810382526028815260200180611f496028913960400191505060405180910390fd5b82611b208584611402565b81611b2757fe5b04949350505050565b60008184841115611bbf5760405162461bcd60e51b81526004018080602001828103825283818151815260200191508051906020019080838360005b83811015611b84578181015183820152602001611b6c565b50505050905090810190601f168015611bb15780820380516001836020036101000a031916815260200191505b509250505060405180910390fd5b505050900390565b606061170b8484600085611d09565b6000808411611c165760405162461bcd60e51b815260040180806020018281038252602c815260200180611ed2602c913960400191505060405180910390fd5b600083118015611c265750600082115b611c615760405162461bcd60e51b8152600401808060200182810382526028815260200180611f496028913960400191505060405180910390fd5b6000611c796103e8611c738688611402565b90611402565b90506000611c8d6103e5611c7386896114ad565b90506113f86001828481611c9d57fe5b0490611340565b60008183611cf35760405162461bcd60e51b8152602060048201818152835160248401528351909283926044909101919085019080838360008315611b84578181015183820152602001611b6c565b506000838581611cff57fe5b0495945050505050565b606082471015611d4a5760405162461bcd60e51b8152600401808060200182810382526026815260200180611f236026913960400191505060405180910390fd5b611d5385611e65565b611da4576040805162461bcd60e51b815260206004820152601d60248201527f416464726573733a2063616c6c20746f206e6f6e2d636f6e7472616374000000604482015290519081900360640190fd5b60006060866001600160a01b031685876040518082805190602001908083835b60208310611de35780518252601f199092019160209182019101611dc4565b6001836020036101000a03801982511681845116808217855250505050505090500191505060006040518083038185875af1925050503d8060008114611e45576040519150601f19603f3d011682016040523d82523d6000602084013e611e4a565b606091505b5091509150611e5a828286611e6b565b979650505050505050565b3b151590565b60608315611e7a575081610d52565b825115611e8a5782518084602001fd5b60405162461bcd60e51b8152602060048201818152845160248401528451859391928392604401919085019080838360008315611b84578181015183820152602001611b6c56fe556e697377617056324c6962726172793a20494e53554646494349454e545f4f55545055545f414d4f554e54556e697377617056324c6962726172793a204944454e544943414c5f414444524553534553416464726573733a20696e73756666696369656e742062616c616e636520666f722063616c6c556e697377617056324c6962726172793a20494e53554646494349454e545f4c4951554944495459536166654d6174683a206d756c7469706c69636174696f6e206f766572666c6f77556e697377617056324c6962726172793a20494e53554646494349454e545f414d4f554e545361666545524332303a204552433230206f7065726174696f6e20646964206e6f742073756363656564556e697377617056324c6962726172793a20494e53554646494349454e545f494e5055545f414d4f554e54a264697066735822122085ec5aa4b6c90f8128429f65e858a51c01668d9c2a71d69e0231ea59cbf66bda64736f6c634300060c0033",
  "linkReferences": {},
  "deployedLinkReferences": {}
}