{
  "_format": "hh-sol-artifact-1",
  "contractName": "UniswapV2LPAdapter",
  "sourceName": "contracts/adapters/liquidity/UniswapV2LPAdapter.sol",
  "abi": [
    {
      "inputs": [
        {
          "internalType": "address",
          "name": "factory_",
          "type": "address"
        },
        {
          "internalType": "address",
          "name": "weth_",
          "type": "address"
        }
      ],
      "stateMutability": "nonpayable",
      "type": "constructor"
    },
    {
      "inputs": [],
      "name": "factory",
      "outputs": [
        {
          "internalType": "address",
          "name": "",
          "type": "address"
        }
      ],
      "stateMutability": "view",
      "type": "function"
    },
    {
      "inputs": [
        {
          "internalType": "uint256",
          "name": "amount",
          "type": "uint256"
        },
        {
          "internalType": "address",
          "name": "tokenIn",
          "type": "address"
        },
        {
          "internalType": "address",
          "name": "tokenOut",
          "type": "address"
        }
      ],
      "name": "spotPrice",
      "outputs": [
        {
          "internalType": "uint256",
          "name": "",
          "type": "uint256"
        }
      ],
      "stateMutability": "view",
      "type": "function"
    },
    {
      "inputs": [
        {
          "internalType": "uint256",
          "name": "amount",
          "type": "uint256"
        },
        {
          "internalType": "uint256",
          "name": "expected",
          "type": "uint256"
        },
        {
          "internalType": "address",
          "name": "tokenIn",
          "type": "address"
        },
        {
          "internalType": "address",
          "name": "tokenOut",
          "type": "address"
        },
        {
          "internalType": "address",
          "name": "from",
          "type": "address"
        },
        {
          "internalType": "address",
          "name": "to",
          "type": "address"
        }
      ],
      "name": "swap",
      "outputs": [],
      "stateMutability": "nonpayable",
      "type": "function"
    },
    {
      "inputs": [],
      "name": "weth",
      "outputs": [
        {
          "internalType": "address",
          "name": "",
          "type": "address"
        }
      ],
      "stateMutability": "view",
      "type": "function"
    }
  ],
  "bytecode": "0x60c060405234801561001057600080fd5b50604051612e2f380380612e2f8339818101604052604081101561003357600080fd5b5080516020909101516001600160601b0319606091821b811660805291901b1660a05260805160601c60a05160601c612cf761013860003980610bbd52806110ab5280611166528061145c52806118a2528061199a5280611b325280611bed528061214d52806126c552508061016e52806101d25280610271528061040352806106ae52806106f5528061073452806107d3528061088e5280610b425280610b715280610d1e5280610d8e5280610fdf52806110cd528061110b52806111875280611408528061147d52806116e7528061171652806119bb5280611b535280611b925280611c0e5280611c42528061216e528061267c52806126e65250612cf76000f3fe608060405234801561001057600080fd5b506004361061004c5760003560e01c8063230f11c7146100515780633fc8cef31461009d57806377ec159d146100c1578063c45a015514610107575b600080fd5b61009b600480360360c081101561006757600080fd5b508035906020810135906001600160a01b0360408201358116916060810135821691608082013581169160a001351661010f565b005b6100a56106ac565b604080516001600160a01b039092168252519081900360200190f35b6100f5600480360360608110156100d757600080fd5b508035906001600160a01b03602082013581169160400135166106d0565b60408051918252519081900360200190f35b6100a5610bbb565b826001600160a01b0316846001600160a01b0316141561016c576040805162461bcd60e51b81526020600482015260136024820152720a8ded6cadce640c6c2dcdcdee840dac2e8c6d606b1b604482015290519081900360640190fd5b7f00000000000000000000000000000000000000000000000000000000000000006001600160a01b0316846001600160a01b03161415610401576001600160a01b03821630146101cb576101cb6001600160a01b038516833089610bdf565b60008390507f00000000000000000000000000000000000000000000000000000000000000006001600160a01b0316816001600160a01b0316630dfe16816040518163ffffffff1660e01b815260040160206040518083038186803b15801561023357600080fd5b505afa158015610247573d6000803e3d6000fd5b505050506040513d602081101561025d57600080fd5b50516001600160a01b0316148061030957507f00000000000000000000000000000000000000000000000000000000000000006001600160a01b0316816001600160a01b031663d21220a76040518163ffffffff1660e01b815260040160206040518083038186803b1580156102d257600080fd5b505afa1580156102e6573d6000803e3d6000fd5b505050506040513d60208110156102fc57600080fd5b50516001600160a01b0316145b1561031d576103188782610c3f565b610327565b6103278782610dd2565b6000816001600160a01b0316636a627842846040518263ffffffff1660e01b815260040180826001600160a01b03168152602001915050602060405180830381600087803b15801561037857600080fd5b505af115801561038c573d6000803e3d6000fd5b505050506040513d60208110156103a257600080fd5b50519050868110156103fa576040805162461bcd60e51b815260206004820152601c60248201527b125b9cdd59999a58da595b9d081d1bdad95b93dd5d08185b5bdd5b9d60221b604482015290519081900360640190fd5b50506106a4565b7f00000000000000000000000000000000000000000000000000000000000000006001600160a01b0316836001600160a01b03161415610661576001600160a01b0382163014610465576104606001600160a01b038516838689610bdf565b610479565b6104796001600160a01b0385168588610f84565b60008490506000816001600160a01b0316630dfe16816040518163ffffffff1660e01b815260040160206040518083038186803b1580156104b957600080fd5b505afa1580156104cd573d6000803e3d6000fd5b505050506040513d60208110156104e357600080fd5b50516040805163d21220a760e01b815290519192506000916001600160a01b0385169163d21220a7916004808301926020929190829003018186803b15801561052b57600080fd5b505afa15801561053f573d6000803e3d6000fd5b505050506040513d602081101561055557600080fd5b50516040805163226bf2d160e21b8152306004820152815192935060009283926001600160a01b038816926389afcb44926024808301939282900301818787803b1580156105a257600080fd5b505af11580156105b6573d6000803e3d6000fd5b505050506040513d60408110156105cc57600080fd5b508051602090910151909250905060006105e7838689610fdb565b905060006105f683868a610fdb565b90508b61060383836112c7565b1015610655576040805162461bcd60e51b815260206004820152601c60248201527b125b9cdd59999a58da595b9d081d1bdad95b93dd5d08185b5bdd5b9d60221b604482015290519081900360640190fd5b505050505050506106a4565b6040805162461bcd60e51b8152602060048201526013602482015272151bdad95b881b9bdd081cdd5c1c1bdc9d1959606a1b604482015290519081900360640190fd5b505050505050565b7f000000000000000000000000000000000000000000000000000000000000000081565b6000816001600160a01b0316836001600160a01b031614156106f3575082610bb4565b7f00000000000000000000000000000000000000000000000000000000000000006001600160a01b0316836001600160a01b0316141561088c5760008290507f00000000000000000000000000000000000000000000000000000000000000006001600160a01b0316816001600160a01b0316630dfe16816040518163ffffffff1660e01b815260040160206040518083038186803b15801561079557600080fd5b505afa1580156107a9573d6000803e3d6000fd5b505050506040513d60208110156107bf57600080fd5b50516001600160a01b0316148061086b57507f00000000000000000000000000000000000000000000000000000000000000006001600160a01b0316816001600160a01b031663d21220a76040518163ffffffff1660e01b815260040160206040518083038186803b15801561083457600080fd5b505afa158015610848573d6000803e3d6000fd5b505050506040513d602081101561085e57600080fd5b50516001600160a01b0316145b156108825761087a8582611328565b915050610bb4565b61087a858261157b565b7f00000000000000000000000000000000000000000000000000000000000000006001600160a01b0316826001600160a01b03161415610bb05760008390506000816001600160a01b0316630dfe16816040518163ffffffff1660e01b815260040160206040518083038186803b15801561090657600080fd5b505afa15801561091a573d6000803e3d6000fd5b505050506040513d602081101561093057600080fd5b50516040805163d21220a760e01b815290519192506000916001600160a01b0385169163d21220a7916004808301926020929190829003018186803b15801561097857600080fd5b505afa15801561098c573d6000803e3d6000fd5b505050506040513d60208110156109a257600080fd5b5051604080516318160ddd60e01b815290519192506000916001600160a01b038616916318160ddd916004808301926020929190829003018186803b1580156109ea57600080fd5b505afa1580156109fe573d6000803e3d6000fd5b505050506040513d6020811015610a1457600080fd5b5051604080516370a0823160e01b81526001600160a01b038a8116600483015291519293506000928492610a9f92908816916370a0823191602480820192602092909190829003018186803b158015610a6c57600080fd5b505afa158015610a80573d6000803e3d6000fd5b505050506040513d6020811015610a9657600080fd5b50518b9061181e565b81610aa657fe5b049050600082610b2f856001600160a01b03166370a082318c6040518263ffffffff1660e01b815260040180826001600160a01b0316815260200191505060206040518083038186803b158015610afc57600080fd5b505afa158015610b10573d6000803e3d6000fd5b505050506040513d6020811015610b2657600080fd5b50518c9061181e565b81610b3657fe5b0490506000610b6683877f0000000000000000000000000000000000000000000000000000000000000000611877565b90506000610b9583877f0000000000000000000000000000000000000000000000000000000000000000611877565b9050610ba182826112c7565b98505050505050505050610bb4565b5060005b9392505050565b7f000000000000000000000000000000000000000000000000000000000000000081565b604080516001600160a01b0380861660248301528416604482015260648082018490528251808303909101815260849091019091526020810180516001600160e01b03166323b872dd60e01b179052610c399085906118e1565b50505050565b6000816001600160a01b0316630dfe16816040518163ffffffff1660e01b815260040160206040518083038186803b158015610c7a57600080fd5b505afa158015610c8e573d6000803e3d6000fd5b505050506040513d6020811015610ca457600080fd5b50516040805163d21220a760e01b815290519192506000916001600160a01b0385169163d21220a7916004808301926020929190829003018186803b158015610cec57600080fd5b505afa158015610d00573d6000803e3d6000fd5b505050506040513d6020811015610d1657600080fd5b5051905060007f00000000000000000000000000000000000000000000000000000000000000006001600160a01b0390811690841614610d565782610d58565b815b90506000610d668683611992565b90506000610d748284611b28565b9050610db586610d848985611d62565b6001600160a01b037f0000000000000000000000000000000000000000000000000000000000000000169190610f84565b610dc96001600160a01b0384168783610f84565b50505050505050565b6000816001600160a01b0316630dfe16816040518163ffffffff1660e01b815260040160206040518083038186803b158015610e0d57600080fd5b505afa158015610e21573d6000803e3d6000fd5b505050506040513d6020811015610e3757600080fd5b50516040805163d21220a760e01b815290519192506000916001600160a01b0385169163d21220a7916004808301926020929190829003018186803b158015610e7f57600080fd5b505afa158015610e93573d6000803e3d6000fd5b505050506040513d6020811015610ea957600080fd5b81019080805190602001909291905050509050600080610f3285858589896001600160a01b03166318160ddd6040518163ffffffff1660e01b815260040160206040518083038186803b158015610eff57600080fd5b505afa158015610f13573d6000803e3d6000fd5b505050506040513d6020811015610f2957600080fd5b50516000611da4565b915091506000610f428386611b28565b90506000610f508386611b28565b9050610f666001600160a01b0387168884610f84565b610f7a6001600160a01b0386168883610f84565b5050505050505050565b604080516001600160a01b038416602482015260448082018490528251808303909101815260649091019091526020810180516001600160e01b031663a9059cbb60e01b179052610fd69084906118e1565b505050565b60007f00000000000000000000000000000000000000000000000000000000000000006001600160a01b0316836001600160a01b031614156110a357826001600160a01b031663a9059cbb83866040518363ffffffff1660e01b815260040180836001600160a01b0316815260200182815260200192505050602060405180830381600087803b15801561106e57600080fd5b505af1158015611082573d6000803e3d6000fd5b505050506040513d602081101561109857600080fd5b50849150610bb49050565b6000806110f17f0000000000000000000000000000000000000000000000000000000000000000867f0000000000000000000000000000000000000000000000000000000000000000611e0d565b915091506000611102878484611ed4565b905060006111307f000000000000000000000000000000000000000000000000000000000000000088611fac565b509050600080826001600160a01b0316896001600160a01b0316146111575783600061115b565b6000845b9150915060006111ac7f00000000000000000000000000000000000000000000000000000000000000007f00000000000000000000000000000000000000000000000000000000000000008c61208a565b90506111c26001600160a01b038b16828d610f84565b604080516000808252602082019092526001600160a01b0383169163022c0d9f91869186918e91506040518563ffffffff1660e01b815260040180858152602001848152602001836001600160a01b0316815260200180602001828103825283818151815260200191508051906020019080838360005b83811015611251578181015183820152602001611239565b50505050905090810190601f16801561127e5780820380516001836020036101000a031916815260200191505b5095505050505050600060405180830381600087803b1580156112a057600080fd5b505af11580156112b4573d6000803e3d6000fd5b50969d9c50505050505050505050505050565b60008282018381101561131f576040805162461bcd60e51b815260206004820152601b60248201527a536166654d6174683a206164646974696f6e206f766572666c6f7760281b604482015290519081900360640190fd5b90505b92915050565b6000806000836001600160a01b0316630dfe16816040518163ffffffff1660e01b815260040160206040518083038186803b15801561136657600080fd5b505afa15801561137a573d6000803e3d6000fd5b505050506040513d602081101561139057600080fd5b50516040805163d21220a760e01b815290519192506000916001600160a01b0387169163d21220a7916004808301926020929190829003018186803b1580156113d857600080fd5b505afa1580156113ec573d6000803e3d6000fd5b505050506040513d602081101561140257600080fd5b505190507f00000000000000000000000000000000000000000000000000000000000000006001600160a01b03908116908316146114405781611442565b805b9250505060006114528583612145565b90506000806114a27f00000000000000000000000000000000000000000000000000000000000000007f000000000000000000000000000000000000000000000000000000000000000086611e0d565b9150915060006114b3848484612202565b90506114bf83856112c7565b92506114cb8282611d62565b91506000876001600160a01b03166318160ddd6040518163ffffffff1660e01b815260040160206040518083038186803b15801561150857600080fd5b505afa15801561151c573d6000803e3d6000fd5b505050506040513d602081101561153257600080fd5b5051905061156e8461154e836115488d8a611d62565b9061181e565b8161155557fe5b0484611561858561181e565b8161156857fe5b046122a8565b9998505050505050505050565b600080826001600160a01b0316630dfe16816040518163ffffffff1660e01b815260040160206040518083038186803b1580156115b757600080fd5b505afa1580156115cb573d6000803e3d6000fd5b505050506040513d60208110156115e157600080fd5b50516040805163d21220a760e01b815290519192506000916001600160a01b0386169163d21220a7916004808301926020929190829003018186803b15801561162957600080fd5b505afa15801561163d573d6000803e3d6000fd5b505050506040513d602081101561165357600080fd5b5051604080516318160ddd60e01b815290519192506000916001600160a01b038716916318160ddd916004808301926020929190829003018186803b15801561169b57600080fd5b505afa1580156116af573d6000803e3d6000fd5b505050506040513d60208110156116c557600080fd5b505190506000806116db8786868b876001611da4565b91509150600061170c837f000000000000000000000000000000000000000000000000000000000000000088611877565b9050600061173b837f000000000000000000000000000000000000000000000000000000000000000088611877565b90508461176e576117606103e861175a611755858561181e565b6122be565b90611d62565b975050505050505050611322565b6000808a6001600160a01b0316630902f1ac6040518163ffffffff1660e01b815260040160606040518083038186803b1580156117aa57600080fd5b505afa1580156117be573d6000803e3d6000fd5b505050506040513d60608110156117d457600080fd5b5080516020909101516001600160701b03918216935016905061180e826117fb868a61181e565b8161180257fe5b0482611561868b61181e565b9c9b505050505050505050505050565b60008261182d57506000611322565b8282028284828161183a57fe5b041461131f5760405162461bcd60e51b8152600401808060200182810382526021815260200180612bb06021913960400191505060405180910390fd5b6000816001600160a01b0316836001600160a01b0316141561189a575082610bb4565b6000806118c87f00000000000000000000000000000000000000000000000000000000000000008686611e0d565b915091506118d7868383612202565b9695505050505050565b6060611936826040518060400160405280602081526020017f5361666545524332303a206c6f772d6c6576656c2063616c6c206661696c6564815250856001600160a01b03166123109092919063ffffffff16565b805190915015610fd65780806020019051602081101561195557600080fd5b5051610fd65760405162461bcd60e51b815260040180806020018281038252602a815260200180612c6d602a913960400191505060405180910390fd5b6000806119e07f00000000000000000000000000000000000000000000000000000000000000007f000000000000000000000000000000000000000000000000000000000000000085611e0d565b509050838160006119ff6103e56119f9846107cd61231f565b906123c8565b90506000611a206103e56119f986611a1a6103e7198861231f565b9061231f565b90506000611a42611a3260048461231f565b611a3c858061231f565b90612480565b90506000811215611a845760405162461bcd60e51b8152600401808060200182810382526029815260200180612b876029913960400191505060405180910390fd5b600083810390611a93836122be565b905060026000611aa7826119f986866124e5565b9050806000128015611ab857508881125b15611ace57995061132298505050505050505050565b611adc826119f98686612480565b9050806000128015611aed57508881125b61180e5760405162461bcd60e51b815260040180806020018281038252602c815260200180612c1d602c913960400191505060405180910390fd5b6000806000611b787f00000000000000000000000000000000000000000000000000000000000000007f000000000000000000000000000000000000000000000000000000000000000086611e0d565b915091506000611b89868484611ed4565b90506000611bb77f000000000000000000000000000000000000000000000000000000000000000087611fac565b509050600080826001600160a01b0316886001600160a01b031614611bde57600084611be2565b8360005b915091506000611c337f00000000000000000000000000000000000000000000000000000000000000007f00000000000000000000000000000000000000000000000000000000000000008b61208a565b9050611c696001600160a01b037f000000000000000000000000000000000000000000000000000000000000000016828c610f84565b604080516000808252602082019283905263022c0d9f60e01b835260248201868152604483018690523060648401819052608060848501908152845160a486018190526001600160a01b0388169663022c0d9f968b968b9691949193919260c486019290918190849084905b83811015611ced578181015183820152602001611cd5565b50505050905090810190601f168015611d1a5780820380516001836020036101000a031916815260200191505b5095505050505050600060405180830381600087803b158015611d3c57600080fd5b505af1158015611d50573d6000803e3d6000fd5b50969c9b505050505050505050505050565b600061131f83836040518060400160405280601e81526020017f536166654d6174683a207375627472616374696f6e206f766572666c6f77000081525061254a565b6000806000611db5888a87876125e1565b90506000611dc5888b88886125e1565b90506000611dd383836112c7565b90506000611deb82611de58b8761181e565b90612736565b90506000611df98a83611d62565b919d919c50909a5050505050505050505050565b6000806000611e1c8585611fac565b509050600080611e2d88888861208a565b6001600160a01b0316630902f1ac6040518163ffffffff1660e01b815260040160606040518083038186803b158015611e6557600080fd5b505afa158015611e79573d6000803e3d6000fd5b505050506040513d6060811015611e8f57600080fd5b5080516020909101516001600160701b0391821693501690506001600160a01b0387811690841614611ec2578082611ec5565b81815b90999098509650505050505050565b6000808411611f145760405162461bcd60e51b815260040180806020018281038252602b815260200180612c97602b913960400191505060405180910390fd5b600083118015611f245750600082115b611f5f5760405162461bcd60e51b8152600401808060200182810382526028815260200180612b5f6028913960400191505060405180910390fd5b6000611f6d856103e561181e565b90506000611f7b828561181e565b90506000611f9583611f8f886103e861181e565b906112c7565b9050808281611fa057fe5b04979650505050505050565b600080826001600160a01b0316846001600160a01b031614156120005760405162461bcd60e51b8152600401808060200182810382526025815260200180612ab86025913960400191505060405180910390fd5b826001600160a01b0316846001600160a01b031610612020578284612023565b83835b90925090506001600160a01b038216612083576040805162461bcd60e51b815260206004820152601e60248201527f556e697377617056324c6962726172793a205a45524f5f414444524553530000604482015290519081900360640190fd5b9250929050565b60008060006120998585611fac565b604080516001600160601b0319606094851b811660208084019190915293851b81166034830152825160288184030181526048830184528051908501206001600160f81b031960688401529a90941b9093166069840152607d8301989098527f96e8ac4277198ff8b6f785478aa9a39f403cb768dd02cbee326c3e7da348845f609d808401919091528851808403909101815260bd909201909752805196019590952095945050505050565b6000806121937f00000000000000000000000000000000000000000000000000000000000000007f000000000000000000000000000000000000000000000000000000000000000085611e0d565b50905060006121ba6121b06121a960028561181e565b87906112c7565b611de5878561181e565b90508481106121fa5760405162461bcd60e51b815260040180806020018281038252603b815260200180612b03603b913960400191505060405180910390fd5b949350505050565b60008084116122425760405162461bcd60e51b8152600401808060200182810382526025815260200180612bf86025913960400191505060405180910390fd5b6000831180156122525750600082115b61228d5760405162461bcd60e51b8152600401808060200182810382526028815260200180612b5f6028913960400191505060405180910390fd5b82612298858461181e565b8161229f57fe5b04949350505050565b60008183106122b7578161131f565b5090919050565b60006003821115612301575080600160028204015b818110156122fb578091506002818285816122ea57fe5b0401816122f357fe5b0490506122d3565b5061230b565b811561230b575060015b919050565b60606121fa8484600085612775565b60008261232e57506000611322565b826000191480156123425750600160ff1b82145b1561237e5760405162461bcd60e51b8152600401808060200182810382526027815260200180612bd16027913960400191505060405180910390fd5b8282028284828161238b57fe5b051461131f5760405162461bcd60e51b8152600401808060200182810382526027815260200180612bd16027913960400191505060405180910390fd5b60008161241c576040805162461bcd60e51b815260206004820181905260248201527f5369676e6564536166654d6174683a206469766973696f6e206279207a65726f604482015290519081900360640190fd5b816000191480156124305750600160ff1b83145b1561246c5760405162461bcd60e51b8152600401808060200182810382526021815260200180612b3e6021913960400191505060405180910390fd5b600082848161247757fe5b05949350505050565b60008183038183128015906124955750838113155b806124aa57506000831280156124aa57508381135b61131f5760405162461bcd60e51b8152600401808060200182810382526024815260200180612c496024913960400191505060405180910390fd5b60008282018183128015906124fa5750838112155b8061250f575060008312801561250f57508381125b61131f5760405162461bcd60e51b8152600401808060200182810382526021815260200180612a976021913960400191505060405180910390fd5b600081848411156125d95760405162461bcd60e51b81526004018080602001828103825283818151815260200191508051906020019080838360005b8381101561259e578181015183820152602001612586565b50505050905090810190601f1680156125cb5780820380516001836020036101000a031916815260200191505b509250505060405180910390fd5b505050900390565b600080856001600160a01b03166370a08231866040518263ffffffff1660e01b815260040180826001600160a01b0316815260200191505060206040518083038186803b15801561263157600080fd5b505afa158015612645573d6000803e3d6000fd5b505050506040513d602081101561265b57600080fd5b50519050600084612670633b9aca008461181e565b8161267757fe5b0490507f00000000000000000000000000000000000000000000000000000000000000006001600160a01b0316876001600160a01b031614156126bd5791506121fa9050565b60008061270b7f00000000000000000000000000000000000000000000000000000000000000007f00000000000000000000000000000000000000000000000000000000000000008b611e0d565b91509150851561272b57612720838284612202565b9450505050506121fa565b6127208383836128d1565b600061131f83836040518060400160405280601a815260200179536166654d6174683a206469766973696f6e206279207a65726f60301b815250612999565b6060824710156127b65760405162461bcd60e51b8152600401808060200182810382526026815260200180612add6026913960400191505060405180910390fd5b6127bf856129fe565b612810576040805162461bcd60e51b815260206004820152601d60248201527f416464726573733a2063616c6c20746f206e6f6e2d636f6e7472616374000000604482015290519081900360640190fd5b60006060866001600160a01b031685876040518082805190602001908083835b6020831061284f5780518252601f199092019160209182019101612830565b6001836020036101000a03801982511681845116808217855250505050505090500191505060006040518083038185875af1925050503d80600081146128b1576040519150601f19603f3d011682016040523d82523d6000602084013e6128b6565b606091505b50915091506128c6828286612a04565b979650505050505050565b60008084116129115760405162461bcd60e51b815260040180806020018281038252602c815260200180612a6b602c913960400191505060405180910390fd5b6000831180156129215750600082115b61295c5760405162461bcd60e51b8152600401808060200182810382526028815260200180612b5f6028913960400191505060405180910390fd5b600061296e6103e8611548868861181e565b905060006129826103e56115488689611d62565b90506118d7600182848161299257fe5b04906112c7565b600081836129e85760405162461bcd60e51b815260206004820181815283516024840152835190928392604490910191908501908083836000831561259e578181015183820152602001612586565b5060008385816129f457fe5b0495945050505050565b3b151590565b60608315612a13575081610bb4565b825115612a235782518084602001fd5b60405162461bcd60e51b815260206004820181815284516024840152845185939192839260440191908501908083836000831561259e57818101518382015260200161258656fe556e697377617056324c6962726172793a20494e53554646494349454e545f4f55545055545f414d4f554e545369676e6564536166654d6174683a206164646974696f6e206f766572666c6f77556e697377617056324c6962726172793a204944454e544943414c5f414444524553534553416464726573733a20696e73756666696369656e742062616c616e636520666f722063616c6c5f63616c63756c61746557657468546f53656c6c49676e6f72696e67466565733a20736f6c7574696f6e206973206f7574206f662072616e67652e5369676e6564536166654d6174683a206469766973696f6e206f766572666c6f77556e697377617056324c6962726172793a20494e53554646494349454e545f4c49515549444954595f63616c63756c61746557657468546f53656c6c3a20736f6c7574696f6e20696d6167696e6172792e536166654d6174683a206d756c7469706c69636174696f6e206f766572666c6f775369676e6564536166654d6174683a206d756c7469706c69636174696f6e206f766572666c6f77556e697377617056324c6962726172793a20494e53554646494349454e545f414d4f554e545f63616c63756c61746557657468546f53656c6c3a20736f6c7574696f6e206f7574206f662072616e67652e5369676e6564536166654d6174683a207375627472616374696f6e206f766572666c6f775361666545524332303a204552433230206f7065726174696f6e20646964206e6f742073756363656564556e697377617056324c6962726172793a20494e53554646494349454e545f494e5055545f414d4f554e54a2646970667358221220a54d5b95278cd8f9ad4154a6ac153d5809bb58a5885d6df8ceaac7adbba9cfab64736f6c634300060c0033",
  "linkReferences": {},
  "deployedLinkReferences": {}
}