{
  "_format": "hh-sol-artifact-1",
  "contractName": "UniswapV2LPAdapter",
  "sourceName": "contracts/adapters/liquidity/UniswapV2LPAdapter.sol",
  "abi": [
    {
      "inputs": [
        {
          "internalType": "address",
          "name": "factory_",
          "type": "address"
        },
        {
          "internalType": "address",
          "name": "weth_",
          "type": "address"
        }
      ],
      "stateMutability": "nonpayable",
      "type": "constructor"
    },
    {
      "inputs": [],
      "name": "factory",
      "outputs": [
        {
          "internalType": "address",
          "name": "",
          "type": "address"
        }
      ],
      "stateMutability": "view",
      "type": "function"
    },
    {
      "inputs": [
        {
          "internalType": "uint256",
          "name": "amount",
          "type": "uint256"
        },
        {
          "internalType": "uint256",
          "name": "expected",
          "type": "uint256"
        },
        {
          "internalType": "address",
          "name": "tokenIn",
          "type": "address"
        },
        {
          "internalType": "address",
          "name": "tokenOut",
          "type": "address"
        },
        {
          "internalType": "address",
          "name": "from",
          "type": "address"
        },
        {
          "internalType": "address",
          "name": "to",
          "type": "address"
        }
      ],
      "name": "swap",
      "outputs": [],
      "stateMutability": "nonpayable",
      "type": "function"
    },
    {
      "inputs": [],
      "name": "weth",
      "outputs": [
        {
          "internalType": "address",
          "name": "",
          "type": "address"
        }
      ],
      "stateMutability": "view",
      "type": "function"
    }
  ],
  "bytecode": "0x60c060405234801561001057600080fd5b506040516121443803806121448339818101604052604081101561003357600080fd5b5080516020909101516001600160601b0319606091821b811660805291901b1660a05260805160601c60a05160601c6120576100ed600039806106815280610b6d5280610c285280610ea5528061104d52806111085280611a3852508061011d5280610181528061022052806103b2528061065d52806107e252806108525280610aa15280610b8f5280610bcd5280610c495280610ec6528061106e52806110ad5280611129528061115d5280611a5952506120576000f3fe608060405234801561001057600080fd5b50600436106100415760003560e01c8063230f11c7146100465780633fc8cef314610092578063c45a0155146100b6575b600080fd5b610090600480360360c081101561005c57600080fd5b508035906020810135906001600160a01b0360408201358116916060810135821691608082013581169160a00135166100be565b005b61009a61065b565b604080516001600160a01b039092168252519081900360200190f35b61009a61067f565b826001600160a01b0316846001600160a01b0316141561011b576040805162461bcd60e51b81526020600482015260136024820152720a8ded6cadce640c6c2dcdcdee840dac2e8c6d606b1b604482015290519081900360640190fd5b7f00000000000000000000000000000000000000000000000000000000000000006001600160a01b0316846001600160a01b031614156103b0576001600160a01b038216301461017a5761017a6001600160a01b0385168330896106a3565b60008390507f00000000000000000000000000000000000000000000000000000000000000006001600160a01b0316816001600160a01b0316630dfe16816040518163ffffffff1660e01b815260040160206040518083038186803b1580156101e257600080fd5b505afa1580156101f6573d6000803e3d6000fd5b505050506040513d602081101561020c57600080fd5b50516001600160a01b031614806102b857507f00000000000000000000000000000000000000000000000000000000000000006001600160a01b0316816001600160a01b031663d21220a76040518163ffffffff1660e01b815260040160206040518083038186803b15801561028157600080fd5b505afa158015610295573d6000803e3d6000fd5b505050506040513d60208110156102ab57600080fd5b50516001600160a01b0316145b156102cc576102c78782610703565b6102d6565b6102d68782610896565b6000816001600160a01b0316636a627842846040518263ffffffff1660e01b815260040180826001600160a01b03168152602001915050602060405180830381600087803b15801561032757600080fd5b505af115801561033b573d6000803e3d6000fd5b505050506040513d602081101561035157600080fd5b50519050868110156103a9576040805162461bcd60e51b815260206004820152601c60248201527b125b9cdd59999a58da595b9d081d1bdad95b93dd5d08185b5bdd5b9d60221b604482015290519081900360640190fd5b5050610653565b7f00000000000000000000000000000000000000000000000000000000000000006001600160a01b0316836001600160a01b03161415610610576001600160a01b03821630146104145761040f6001600160a01b0385168386896106a3565b610428565b6104286001600160a01b0385168588610a46565b60008490506000816001600160a01b0316630dfe16816040518163ffffffff1660e01b815260040160206040518083038186803b15801561046857600080fd5b505afa15801561047c573d6000803e3d6000fd5b505050506040513d602081101561049257600080fd5b50516040805163d21220a760e01b815290519192506000916001600160a01b0385169163d21220a7916004808301926020929190829003018186803b1580156104da57600080fd5b505afa1580156104ee573d6000803e3d6000fd5b505050506040513d602081101561050457600080fd5b50516040805163226bf2d160e21b8152306004820152815192935060009283926001600160a01b038816926389afcb44926024808301939282900301818787803b15801561055157600080fd5b505af1158015610565573d6000803e3d6000fd5b505050506040513d604081101561057b57600080fd5b50805160209091015190925090506000610596838689610a9d565b905060006105a583868a610a9d565b90508b6105b28383610d8b565b1015610604576040805162461bcd60e51b815260206004820152601c60248201527b125b9cdd59999a58da595b9d081d1bdad95b93dd5d08185b5bdd5b9d60221b604482015290519081900360640190fd5b50505050505050610653565b6040805162461bcd60e51b8152602060048201526013602482015272151bdad95b881b9bdd081cdd5c1c1bdc9d1959606a1b604482015290519081900360640190fd5b505050505050565b7f000000000000000000000000000000000000000000000000000000000000000081565b7f000000000000000000000000000000000000000000000000000000000000000081565b604080516001600160a01b0380861660248301528416604482015260648082018490528251808303909101815260849091019091526020810180516001600160e01b03166323b872dd60e01b1790526106fd908590610dec565b50505050565b6000816001600160a01b0316630dfe16816040518163ffffffff1660e01b815260040160206040518083038186803b15801561073e57600080fd5b505afa158015610752573d6000803e3d6000fd5b505050506040513d602081101561076857600080fd5b50516040805163d21220a760e01b815290519192506000916001600160a01b0385169163d21220a7916004808301926020929190829003018186803b1580156107b057600080fd5b505afa1580156107c4573d6000803e3d6000fd5b505050506040513d60208110156107da57600080fd5b5051905060007f00000000000000000000000000000000000000000000000000000000000000006001600160a01b039081169084161461081a578261081c565b815b9050600061082a8683610e9d565b905060006108388284611043565b905061087986610848898561127d565b6001600160a01b037f0000000000000000000000000000000000000000000000000000000000000000169190610a46565b61088d6001600160a01b0384168783610a46565b50505050505050565b6000816001600160a01b0316630dfe16816040518163ffffffff1660e01b815260040160206040518083038186803b1580156108d157600080fd5b505afa1580156108e5573d6000803e3d6000fd5b505050506040513d60208110156108fb57600080fd5b50516040805163d21220a760e01b815290519192506000916001600160a01b0385169163d21220a7916004808301926020929190829003018186803b15801561094357600080fd5b505afa158015610957573d6000803e3d6000fd5b505050506040513d602081101561096d57600080fd5b810190808051906020019092919050505090506000806109f485858589896001600160a01b03166318160ddd6040518163ffffffff1660e01b815260040160206040518083038186803b1580156109c357600080fd5b505afa1580156109d7573d6000803e3d6000fd5b505050506040513d60208110156109ed57600080fd5b50516112bf565b915091506000610a048386611043565b90506000610a128386611043565b9050610a286001600160a01b0387168884610a46565b610a3c6001600160a01b0386168883610a46565b5050505050505050565b604080516001600160a01b038416602482015260448082018490528251808303909101815260649091019091526020810180516001600160e01b031663a9059cbb60e01b179052610a98908490610dec565b505050565b60007f00000000000000000000000000000000000000000000000000000000000000006001600160a01b0316836001600160a01b03161415610b6557826001600160a01b031663a9059cbb83866040518363ffffffff1660e01b815260040180836001600160a01b0316815260200182815260200192505050602060405180830381600087803b158015610b3057600080fd5b505af1158015610b44573d6000803e3d6000fd5b505050506040513d6020811015610b5a57600080fd5b50849150610d849050565b600080610bb37f0000000000000000000000000000000000000000000000000000000000000000867f00000000000000000000000000000000000000000000000000000000000000006113ad565b915091506000610bc4878484611474565b90506000610bf27f00000000000000000000000000000000000000000000000000000000000000008861154c565b509050600080826001600160a01b0316896001600160a01b031614610c1957836000610c1d565b6000845b915091506000610c6e7f00000000000000000000000000000000000000000000000000000000000000007f00000000000000000000000000000000000000000000000000000000000000008c61162a565b9050610c846001600160a01b038b16828d610a46565b604080516000808252602082019092526001600160a01b0383169163022c0d9f91869186918e91506040518563ffffffff1660e01b815260040180858152602001848152602001836001600160a01b0316815260200180602001828103825283818151815260200191508051906020019080838360005b83811015610d13578181015183820152602001610cfb565b50505050905090810190601f168015610d405780820380516001836020036101000a031916815260200191505b5095505050505050600060405180830381600087803b158015610d6257600080fd5b505af1158015610d76573d6000803e3d6000fd5b509699505050505050505050505b9392505050565b600082820183811015610de3576040805162461bcd60e51b815260206004820152601b60248201527a536166654d6174683a206164646974696f6e206f766572666c6f7760281b604482015290519081900360640190fd5b90505b92915050565b6060610e41826040518060400160405280602081526020017f5361666545524332303a206c6f772d6c6576656c2063616c6c206661696c6564815250856001600160a01b03166116e59092919063ffffffff16565b805190915015610a9857808060200190516020811015610e6057600080fd5b5051610a985760405162461bcd60e51b815260040180806020018281038252602a815260200180611fcd602a913960400191505060405180910390fd5b600080610eeb7f00000000000000000000000000000000000000000000000000000000000000007f0000000000000000000000000000000000000000000000000000000000000000856113ad565b50905083816000610f0a6103e5610f04846107cd6116fc565b906117a5565b90506000610f2b6103e5610f0486610f256103e719886116fc565b906116fc565b90506000610f4d610f3d6004846116fc565b610f4785806116fc565b9061185d565b90506000811215610f8f5760405162461bcd60e51b8152600401808060200182810382526029815260200180611f0c6029913960400191505060405180910390fd5b600083810390610f9e836118c2565b905060026000610fb282610f048686611914565b9050806000128015610fc357508881125b15610fd9579950610de698505050505050505050565b610fe782610f04868661185d565b9050806000128015610ff857508881125b6110335760405162461bcd60e51b815260040180806020018281038252602c815260200180611f7d602c913960400191505060405180910390fd5b9c9b505050505050505050505050565b60008060006110937f00000000000000000000000000000000000000000000000000000000000000007f0000000000000000000000000000000000000000000000000000000000000000866113ad565b9150915060006110a4868484611474565b905060006110d27f00000000000000000000000000000000000000000000000000000000000000008761154c565b509050600080826001600160a01b0316886001600160a01b0316146110f9576000846110fd565b8360005b91509150600061114e7f00000000000000000000000000000000000000000000000000000000000000007f00000000000000000000000000000000000000000000000000000000000000008b61162a565b90506111846001600160a01b037f000000000000000000000000000000000000000000000000000000000000000016828c610a46565b604080516000808252602082019283905263022c0d9f60e01b835260248201868152604483018690523060648401819052608060848501908152845160a486018190526001600160a01b0388169663022c0d9f968b968b9691949193919260c486019290918190849084905b838110156112085781810151838201526020016111f0565b50505050905090810190601f1680156112355780820380516001836020036101000a031916815260200191505b5095505050505050600060405180830381600087803b15801561125757600080fd5b505af115801561126b573d6000803e3d6000fd5b50969c9b505050505050505050505050565b6000610de383836040518060400160405280601e81526020017f536166654d6174683a207375627472616374696f6e206f766572666c6f770000815250611979565b600080600080886001600160a01b0316630902f1ac6040518163ffffffff1660e01b815260040160606040518083038186803b1580156112fe57600080fd5b505afa158015611312573d6000803e3d6000fd5b505050506040513d606081101561132857600080fd5b5080516020909101519092509050600061134c896001600160701b03851688611a10565b9050600061136489846001600160701b031689611a10565b905060006113728383610d8b565b9050600061138a826113848c87611a98565b90611af1565b905060006113988b8361127d565b919e919d50909b505050505050505050505050565b60008060006113bc858561154c565b5090506000806113cd88888861162a565b6001600160a01b0316630902f1ac6040518163ffffffff1660e01b815260040160606040518083038186803b15801561140557600080fd5b505afa158015611419573d6000803e3d6000fd5b505050506040513d606081101561142f57600080fd5b5080516020909101516001600160701b0391821693501690506001600160a01b0387811690841614611462578082611465565b81815b90999098509650505050505050565b60008084116114b45760405162461bcd60e51b815260040180806020018281038252602b815260200180611ff7602b913960400191505060405180910390fd5b6000831180156114c45750600082115b6114ff5760405162461bcd60e51b8152600401808060200182810382526028815260200180611ee46028913960400191505060405180910390fd5b600061150d856103e5611a98565b9050600061151b8285611a98565b905060006115358361152f886103e8611a98565b90610d8b565b905080828161154057fe5b04979650505050505050565b600080826001600160a01b0316846001600160a01b031614156115a05760405162461bcd60e51b8152600401808060200182810382526025815260200180611e786025913960400191505060405180910390fd5b826001600160a01b0316846001600160a01b0316106115c05782846115c3565b83835b90925090506001600160a01b038216611623576040805162461bcd60e51b815260206004820152601e60248201527f556e697377617056324c6962726172793a205a45524f5f414444524553530000604482015290519081900360640190fd5b9250929050565b6000806000611639858561154c565b604080516001600160601b0319606094851b811660208084019190915293851b81166034830152825160288184030181526048830184528051908501206001600160f81b031960688401529a90941b9093166069840152607d8301989098527f96e8ac4277198ff8b6f785478aa9a39f403cb768dd02cbee326c3e7da348845f609d808401919091528851808403909101815260bd909201909752805196019590952095945050505050565b60606116f48484600085611b30565b949350505050565b60008261170b57506000610de6565b8260001914801561171f5750600160ff1b82145b1561175b5760405162461bcd60e51b8152600401808060200182810382526027815260200180611f566027913960400191505060405180910390fd5b8282028284828161176857fe5b0514610de35760405162461bcd60e51b8152600401808060200182810382526027815260200180611f566027913960400191505060405180910390fd5b6000816117f9576040805162461bcd60e51b815260206004820181905260248201527f5369676e6564536166654d6174683a206469766973696f6e206279207a65726f604482015290519081900360640190fd5b8160001914801561180d5750600160ff1b83145b156118495760405162461bcd60e51b8152600401808060200182810382526021815260200180611ec36021913960400191505060405180910390fd5b600082848161185457fe5b05949350505050565b60008183038183128015906118725750838113155b80611887575060008312801561188757508381135b610de35760405162461bcd60e51b8152600401808060200182810382526024815260200180611fa96024913960400191505060405180910390fd5b60006003821115611905575080600160028204015b818110156118ff578091506002818285816118ee57fe5b0401816118f757fe5b0490506118d7565b5061190f565b811561190f575060015b919050565b60008282018183128015906119295750838112155b8061193e575060008312801561193e57508381125b610de35760405162461bcd60e51b8152600401808060200182810382526021815260200180611e576021913960400191505060405180910390fd5b60008184841115611a085760405162461bcd60e51b81526004018080602001828103825283818151815260200191508051906020019080838360005b838110156119cd5781810151838201526020016119b5565b50505050905090810190601f1680156119fa5780820380516001836020036101000a031916815260200191505b509250505060405180910390fd5b505050900390565b60008082611a26670de0b6b3a764000086611a98565b81611a2d57fe5b049050600080611a7e7f00000000000000000000000000000000000000000000000000000000000000007f0000000000000000000000000000000000000000000000000000000000000000896113ad565b91509150611a8d838383611c81565b979650505050505050565b600082611aa757506000610de6565b82820282848281611ab457fe5b0414610de35760405162461bcd60e51b8152600401808060200182810382526021815260200180611f356021913960400191505060405180910390fd5b6000610de383836040518060400160405280601a815260200179536166654d6174683a206469766973696f6e206279207a65726f60301b815250611d59565b606082471015611b715760405162461bcd60e51b8152600401808060200182810382526026815260200180611e9d6026913960400191505060405180910390fd5b611b7a85611dbe565b611bcb576040805162461bcd60e51b815260206004820152601d60248201527f416464726573733a2063616c6c20746f206e6f6e2d636f6e7472616374000000604482015290519081900360640190fd5b60006060866001600160a01b031685876040518082805190602001908083835b60208310611c0a5780518252601f199092019160209182019101611beb565b6001836020036101000a03801982511681845116808217855250505050505090500191505060006040518083038185875af1925050503d8060008114611c6c576040519150601f19603f3d011682016040523d82523d6000602084013e611c71565b606091505b5091509150611a8d828286611dc4565b6000808411611cc15760405162461bcd60e51b815260040180806020018281038252602c815260200180611e2b602c913960400191505060405180910390fd5b600083118015611cd15750600082115b611d0c5760405162461bcd60e51b8152600401808060200182810382526028815260200180611ee46028913960400191505060405180910390fd5b6000611d246103e8611d1e8688611a98565b90611a98565b90506000611d386103e5611d1e868961127d565b9050611d4f6001828481611d4857fe5b0490610d8b565b9695505050505050565b60008183611da85760405162461bcd60e51b81526020600482018181528351602484015283519092839260449091019190850190808383600083156119cd5781810151838201526020016119b5565b506000838581611db457fe5b0495945050505050565b3b151590565b60608315611dd3575081610d84565b825115611de35782518084602001fd5b60405162461bcd60e51b81526020600482018181528451602484015284518593919283926044019190850190808383600083156119cd5781810151838201526020016119b556fe556e697377617056324c6962726172793a20494e53554646494349454e545f4f55545055545f414d4f554e545369676e6564536166654d6174683a206164646974696f6e206f766572666c6f77556e697377617056324c6962726172793a204944454e544943414c5f414444524553534553416464726573733a20696e73756666696369656e742062616c616e636520666f722063616c6c5369676e6564536166654d6174683a206469766973696f6e206f766572666c6f77556e697377617056324c6962726172793a20494e53554646494349454e545f4c49515549444954595f63616c63756c61746557657468546f53656c6c3a20736f6c7574696f6e20696d6167696e6172792e536166654d6174683a206d756c7469706c69636174696f6e206f766572666c6f775369676e6564536166654d6174683a206d756c7469706c69636174696f6e206f766572666c6f775f63616c63756c61746557657468546f53656c6c3a20736f6c7574696f6e206f7574206f662072616e67652e5369676e6564536166654d6174683a207375627472616374696f6e206f766572666c6f775361666545524332303a204552433230206f7065726174696f6e20646964206e6f742073756363656564556e697377617056324c6962726172793a20494e53554646494349454e545f494e5055545f414d4f554e54a264697066735822122054912f512ac71313f10edb2a7aa5dfeeaa1e2b57960bd8a2ba216a36b5d7f42564736f6c634300060c0033",
  "linkReferences": {},
  "deployedLinkReferences": {}
}