{
    "_format": "hh-sol-artifact-1",
    "contractName": "MetaStrategyAdapter",
    "sourceName": "contracts/adapters/strategy/MetaStrategyAdapter.sol",
    "abi": [
        {
            "inputs": [
                {
                    "internalType": "address",
                    "name": "controller_",
                    "type": "address"
                },
                {
                    "internalType": "address",
                    "name": "router_",
                    "type": "address"
                },
                {
                    "internalType": "address",
                    "name": "weth_",
                    "type": "address"
                }
            ],
            "stateMutability": "nonpayable",
            "type": "constructor"
        },
        {
            "inputs": [],
            "name": "DEFAULT_SLIPPAGE",
            "outputs": [
                {
                    "internalType": "uint256",
                    "name": "",
                    "type": "uint256"
                }
            ],
            "stateMutability": "view",
            "type": "function"
        },
        {
            "inputs": [],
            "name": "controller",
            "outputs": [
                {
                    "internalType": "contract IStrategyController",
                    "name": "",
                    "type": "address"
                }
            ],
            "stateMutability": "view",
            "type": "function"
        },
        {
            "inputs": [],
            "name": "router",
            "outputs": [
                {
                    "internalType": "contract IStrategyRouter",
                    "name": "",
                    "type": "address"
                }
            ],
            "stateMutability": "view",
            "type": "function"
        },
        {
            "inputs": [
                {
                    "internalType": "uint256",
                    "name": "amount",
                    "type": "uint256"
                },
                {
                    "internalType": "address",
                    "name": "tokenIn",
                    "type": "address"
                },
                {
                    "internalType": "address",
                    "name": "tokenOut",
                    "type": "address"
                }
            ],
            "name": "spotPrice",
            "outputs": [
                {
                    "internalType": "uint256",
                    "name": "",
                    "type": "uint256"
                }
            ],
            "stateMutability": "view",
            "type": "function"
        },
        {
            "inputs": [
                {
                    "internalType": "uint256",
                    "name": "amount",
                    "type": "uint256"
                },
                {
                    "internalType": "uint256",
                    "name": "expected",
                    "type": "uint256"
                },
                {
                    "internalType": "address",
                    "name": "tokenIn",
                    "type": "address"
                },
                {
                    "internalType": "address",
                    "name": "tokenOut",
                    "type": "address"
                },
                {
                    "internalType": "address",
                    "name": "from",
                    "type": "address"
                },
                {
                    "internalType": "address",
                    "name": "to",
                    "type": "address"
                }
            ],
            "name": "swap",
            "outputs": [],
            "stateMutability": "nonpayable",
            "type": "function"
        },
        {
            "inputs": [],
            "name": "weth",
            "outputs": [
                {
                    "internalType": "address",
                    "name": "",
                    "type": "address"
                }
            ],
            "stateMutability": "view",
            "type": "function"
        }
    ],
    "bytecode": "0x60e06040523480156200001157600080fd5b50604051620019cd380380620019cd83398101604081905262000034916200005a565b6001600160601b0319606091821b811660805292811b831660a0521b1660c052620000c6565b6000806000606084860312156200006f578283fd5b83516200007c81620000ad565b60208501519093506200008f81620000ad565b6040850151909250620000a281620000ad565b809150509250925092565b6001600160a01b0381168114620000c357600080fd5b50565b60805160601c60a05160601c60c05160601c61187c62000151600039806101fb528061023852806102a35280610304528061034352806103e9528061057f52508061027452806103ba528061055b52508061010f528061014a52806101c1528061036b528061051a528061070b52806108d25280610ab25280610c845280610eb6525061187c6000f3fe608060405234801561001057600080fd5b50600436106100625760003560e01c8063230f11c7146100675780633fc8cef31461007c57806377ec159d1461009a578063a8798510146100ba578063f77c4791146100c2578063f887ea40146100ca575b600080fd5b61007a610075366004611412565b6100d2565b005b610084610518565b604051610091919061149d565b60405180910390f35b6100ad6100a8366004611336565b61053c565b6040516100919190611795565b6100ad610553565b610084610559565b61008461057d565b826001600160a01b0316846001600160a01b0316141561010d5760405162461bcd60e51b815260040161010490611670565b60405180910390fd5b7f00000000000000000000000000000000000000000000000000000000000000006001600160a01b0316846001600160a01b0316148061017e57507f00000000000000000000000000000000000000000000000000000000000000006001600160a01b0316836001600160a01b0316145b61019a5760405162461bcd60e51b81526004016101049061169d565b6001600160a01b03821630146101bf576101bf6001600160a01b0385168330896105a1565b7f00000000000000000000000000000000000000000000000000000000000000006001600160a01b0316846001600160a01b03161415610369577f00000000000000000000000000000000000000000000000000000000000000006001600160a01b0316301461025d5761025d6001600160a01b0385167f0000000000000000000000000000000000000000000000000000000000000000886105ff565b6040516371b8dc6960e01b81526001600160a01b037f000000000000000000000000000000000000000000000000000000000000000016906371b8dc69906102d19086907f0000000000000000000000000000000000000000000000000000000000000000908b906103d490600401611508565b600060405180830381600087803b1580156102eb57600080fd5b505af11580156102ff573d6000803e3d6000fd5b5050507f00000000000000000000000000000000000000000000000000000000000000006001600160a01b031630149050610369576103696001600160a01b0385167f000000000000000000000000000000000000000000000000000000000000000060006105ff565b7f00000000000000000000000000000000000000000000000000000000000000006001600160a01b0316836001600160a01b0316141561044a5760405163716e261560e01b81526001600160a01b037f0000000000000000000000000000000000000000000000000000000000000000169063716e2615906104179087907f0000000000000000000000000000000000000000000000000000000000000000908b906103d490600401611508565b600060405180830381600087803b15801561043157600080fd5b505af1158015610445573d6000803e3d6000fd5b505050505b6040516370a0823160e01b81526000906001600160a01b038516906370a082319061047990309060040161149d565b60206040518083038186803b15801561049157600080fd5b505afa1580156104a5573d6000803e3d6000fd5b505050506040513d601f19601f820116820180604052508101906104c9919061131e565b9050858110156104eb5760405162461bcd60e51b8152600401610104906115f9565b6001600160a01b038216301461050f5761050f6001600160a01b03851683836106c7565b50505050505050565b7f000000000000000000000000000000000000000000000000000000000000000081565b60006105498484846106e6565b90505b9392505050565b6103d481565b7f000000000000000000000000000000000000000000000000000000000000000081565b7f000000000000000000000000000000000000000000000000000000000000000081565b6105f9846323b872dd60e01b8585856040516024016105c2939291906114cb565b60408051601f198184030181529190526020810180516001600160e01b03166001600160e01b031990931692909217909152610d68565b50505050565b8015806106875750604051636eb1769f60e11b81526001600160a01b0384169063dd62ed3e9061063590309086906004016114b1565b60206040518083038186803b15801561064d57600080fd5b505afa158015610661573d6000803e3d6000fd5b505050506040513d601f19601f82011682018060405250810190610685919061131e565b155b6106a35760405162461bcd60e51b81526004016101049061173f565b6106c28363095ea7b360e01b84846040516024016105c29291906114ef565b505050565b6106c28363a9059cbb60e01b84846040516024016105c29291906114ef565b6000816001600160a01b0316836001600160a01b0316141561070957508261054c565b7f00000000000000000000000000000000000000000000000000000000000000006001600160a01b0316836001600160a01b031614156108d05760008290506000816001600160a01b03166318160ddd6040518163ffffffff1660e01b815260040160206040518083038186803b15801561078357600080fd5b505afa158015610797573d6000803e3d6000fd5b505050506040513d601f19601f820116820180604052508101906107bb919061131e565b90506000826001600160a01b0316637dc0d1d06040518163ffffffff1660e01b815260040160206040518083038186803b1580156107f857600080fd5b505afa15801561080c573d6000803e3d6000fd5b505050506040513d601f19601f820116820180604052508101906108309190611252565b6001600160a01b031663ff4a1902846040518263ffffffff1660e01b815260040161085b919061149d565b60006040518083038186803b15801561087357600080fd5b505afa158015610887573d6000803e3d6000fd5b505050506040513d6000823e601f3d908101601f191682016040526108af9190810190611377565b5090506108c6816108c0848a610df7565b90610e3a565b935050505061054c565b7f00000000000000000000000000000000000000000000000000000000000000006001600160a01b0316826001600160a01b03161415610d5e5760008390506060816001600160a01b031663c06fad066040518163ffffffff1660e01b815260040160006040518083038186803b15801561094a57600080fd5b505afa15801561095e573d6000803e3d6000fd5b505050506040513d6000823e601f3d908101601f1916820160405261098691908101906111f8565b90506000826001600160a01b03166318160ddd6040518163ffffffff1660e01b815260040160206040518083038186803b1580156109c357600080fd5b505afa1580156109d7573d6000803e3d6000fd5b505050506040513d601f19601f820116820180604052508101906109fb919061131e565b90506000805b8351811015610d52576000848281518110610a1857fe5b602002602001015190506000610aae856108c08d856001600160a01b03166370a082318c6040518263ffffffff1660e01b8152600401610a58919061149d565b60206040518083038186803b158015610a7057600080fd5b505afa158015610a84573d6000803e3d6000fd5b505050506040513d601f19601f82011682018060405250810190610aa8919061131e565b90610df7565b90507f00000000000000000000000000000000000000000000000000000000000000006001600160a01b0316826001600160a01b03161415610afb57610af48482610e79565b9350610d48565b6000876001600160a01b0316637dc0d1d06040518163ffffffff1660e01b815260040160206040518083038186803b158015610b3657600080fd5b505afa158015610b4a573d6000803e3d6000fd5b505050506040513d601f19601f82011682018060405250810190610b6e9190611252565b6001600160a01b0316639d23c4c76040518163ffffffff1660e01b815260040160206040518083038186803b158015610ba657600080fd5b505afa158015610bba573d6000803e3d6000fd5b505050506040513d601f19601f82011682018060405250810190610bde9190611252565b6001600160a01b03166346a74837846040518263ffffffff1660e01b8152600401610c09919061149d565b60206040518083038186803b158015610c2157600080fd5b505afa158015610c35573d6000803e3d6000fd5b505050506040513d601f19601f82011682018060405250810190610c59919061131e565b6012811115610c6457fe5b90506004816012811115610c7457fe5b1415610cb657610caf610ca883857f00000000000000000000000000000000000000000000000000000000000000006106e6565b8690610e79565b9450610d46565b610d43610ca8896001600160a01b031663336685fc866040518263ffffffff1660e01b8152600401610ce8919061149d565b60006040518083038186803b158015610d0057600080fd5b505afa158015610d14573d6000803e3d6000fd5b505050506040513d6000823e601f3d908101601f19168201604052610d3c919081019061126e565b8486610e9e565b94505b505b5050600101610a01565b50935061054c92505050565b5060009392505050565b6060610dbd826040518060400160405280602081526020017f5361666545524332303a206c6f772d6c6576656c2063616c6c206661696c6564815250856001600160a01b0316610fd49092919063ffffffff16565b8051909150156106c25780806020019051810190610ddb9190611232565b6106c25760405162461bcd60e51b8152600401610104906116f5565b600082610e0657506000610e34565b82820282848281610e1357fe5b0414610e315760405162461bcd60e51b81526004016101049061162f565b90505b92915050565b6000610e3183836040518060400160405280601a815260200179536166654d6174683a206469766973696f6e206279207a65726f60301b815250610fe3565b600082820183811015610e315760405162461bcd60e51b81526004016101049061157e565b6000805b845151811015610fcb5760008082610edc577f00000000000000000000000000000000000000000000000000000000000000009150610efa565b86602001516001840381518110610eef57fe5b602002602001015191505b86515160001901831415610f0f575083610f2a565b86602001518381518110610f1f57fe5b602002602001015190505b8651805184908110610f3857fe5b60200260200101516001600160a01b03166377ec159d8784846040518463ffffffff1660e01b8152600401610f6f9392919061179e565b60206040518083038186803b158015610f8757600080fd5b505afa158015610f9b573d6000803e3d6000fd5b505050506040513d601f19601f82011682018060405250810190610fbf919061131e565b95505050600101610ea2565b50919392505050565b6060610549848460008561101a565b600081836110045760405162461bcd60e51b8152600401610104919061154b565b50600083858161101057fe5b0495945050505050565b60608247101561103c5760405162461bcd60e51b8152600401610104906115b3565b611045856110db565b6110615760405162461bcd60e51b8152600401610104906116be565b60006060866001600160a01b0316858760405161107e9190611481565b60006040518083038185875af1925050503d80600081146110bb576040519150601f19603f3d011682016040523d82523d6000602084013e6110c0565b606091505b50915091506110d08282866110e1565b979650505050505050565b3b151590565b606083156110f057508161054c565b8251156111005782518084602001fd5b8160405162461bcd60e51b8152600401610104919061154b565b600082601f83011261112a578081fd5b815161113d611138826117e3565b6117bd565b81815291506020808301908481018184028601820187101561115e57600080fd5b60005b848110156111865781516111748161182e565b84529282019290820190600101611161565b505050505092915050565b600082601f8301126111a1578081fd5b81516001600160401b038111156111b6578182fd5b6111c9601f8201601f19166020016117bd565b91508082528360208285010111156111e057600080fd5b6111f1816020840160208601611802565b5092915050565b600060208284031215611209578081fd5b81516001600160401b0381111561121e578182fd5b61122a8482850161111a565b949350505050565b600060208284031215611243578081fd5b81518015158114610e31578182fd5b600060208284031215611263578081fd5b8151610e318161182e565b60006020828403121561127f578081fd5b81516001600160401b0380821115611295578283fd5b90830190606082860312156112a8578283fd5b6112b260606117bd565b8251828111156112c0578485fd5b6112cc8782860161111a565b8252506020830151828111156112e0578485fd5b6112ec8782860161111a565b602083015250604083015182811115611303578485fd5b61130f87828601611191565b60408301525095945050505050565b60006020828403121561132f578081fd5b5051919050565b60008060006060848603121561134a578182fd5b83359250602084013561135c8161182e565b9150604084013561136c8161182e565b809150509250925092565b60008060408385031215611389578182fd5b825191506020808401516001600160401b038111156113a6578283fd5b8401601f810186136113b6578283fd5b80516113c4611138826117e3565b81815283810190838501858402850186018a10156113e0578687fd5b8694505b838510156114025780518352600194909401939185019185016113e4565b5080955050505050509250929050565b60008060008060008060c0878903121561142a578182fd5b863595506020870135945060408701356114438161182e565b935060608701356114538161182e565b925060808701356114638161182e565b915060a08701356114738161182e565b809150509295509295509295565b60008251611493818460208701611802565b9190910192915050565b6001600160a01b0391909116815260200190565b6001600160a01b0392831681529116602082015260400190565b6001600160a01b039384168152919092166020820152604081019190915260600190565b6001600160a01b03929092168252602082015260400190565b6001600160a01b0394851681529290931660208301526040820152606081019190915260a06080820181905260029082015261060f60f31b60c082015260e00190565b600060208252825180602084015261156a816040850160208701611802565b601f01601f19169190910160400192915050565b6020808252601b908201527a536166654d6174683a206164646974696f6e206f766572666c6f7760281b604082015260600190565b60208082526026908201527f416464726573733a20696e73756666696369656e742062616c616e636520666f6040820152651c8818d85b1b60d21b606082015260800190565b6020808252601c908201527b125b9cdd59999a58da595b9d081d1bdad95b93dd5d08185b5bdd5b9d60221b604082015260600190565b60208082526021908201527f536166654d6174683a206d756c7469706c69636174696f6e206f766572666c6f6040820152607760f81b606082015260800190565b6020808252601390820152720a8ded6cadce640c6c2dcdcdee840dac2e8c6d606b1b604082015260600190565b60208082526007908201526609cde40ae8aa8960cb1b604082015260600190565b6020808252601d908201527f416464726573733a2063616c6c20746f206e6f6e2d636f6e7472616374000000604082015260600190565b6020808252602a908201527f5361666545524332303a204552433230206f7065726174696f6e20646964206e6040820152691bdd081cdd58d8d9595960b21b606082015260800190565b60208082526036908201527f5361666545524332303a20617070726f76652066726f6d206e6f6e2d7a65726f60408201527520746f206e6f6e2d7a65726f20616c6c6f77616e636560501b606082015260800190565b90815260200190565b9283526001600160a01b03918216602084015216604082015260600190565b6040518181016001600160401b03811182821017156117db57600080fd5b604052919050565b60006001600160401b038211156117f8578081fd5b5060209081020190565b60005b8381101561181d578181015183820152602001611805565b838111156105f95750506000910152565b6001600160a01b038116811461184357600080fd5b5056fea2646970667358221220f6f820e6fbfe392082875855227bdc4794e17a49ee8d36d13d841aa72091780b64736f6c634300060c0033",
    "linkReferences": {},
    "deployedLinkReferences": {}
}