{
    "_format": "hh-sol-artifact-1",
    "contractName": "MetaStrategyAdapter",
    "sourceName": "contracts/adapters/strategy/MetaStrategyAdapter.sol",
    "abi": [
        {
            "inputs": [
                {
                    "internalType": "address",
                    "name": "controller_",
                    "type": "address"
                },
                {
                    "internalType": "address",
                    "name": "router_",
                    "type": "address"
                },
                {
                    "internalType": "address",
                    "name": "weth_",
                    "type": "address"
                }
            ],
            "stateMutability": "nonpayable",
            "type": "constructor"
        },
        {
            "inputs": [],
            "name": "DEFAULT_SLIPPAGE",
            "outputs": [
                {
                    "internalType": "uint256",
                    "name": "",
                    "type": "uint256"
                }
            ],
            "stateMutability": "view",
            "type": "function"
        },
        {
            "inputs": [],
            "name": "controller",
            "outputs": [
                {
                    "internalType": "contract IStrategyController",
                    "name": "",
                    "type": "address"
                }
            ],
            "stateMutability": "view",
            "type": "function"
        },
        {
            "inputs": [],
            "name": "router",
            "outputs": [
                {
                    "internalType": "contract IStrategyRouter",
                    "name": "",
                    "type": "address"
                }
            ],
            "stateMutability": "view",
            "type": "function"
        },
        {
            "inputs": [
                {
                    "internalType": "uint256",
                    "name": "amount",
                    "type": "uint256"
                },
                {
                    "internalType": "uint256",
                    "name": "expected",
                    "type": "uint256"
                },
                {
                    "internalType": "address",
                    "name": "tokenIn",
                    "type": "address"
                },
                {
                    "internalType": "address",
                    "name": "tokenOut",
                    "type": "address"
                },
                {
                    "internalType": "address",
                    "name": "from",
                    "type": "address"
                },
                {
                    "internalType": "address",
                    "name": "to",
                    "type": "address"
                }
            ],
            "name": "swap",
            "outputs": [],
            "stateMutability": "nonpayable",
            "type": "function"
        },
        {
            "inputs": [],
            "name": "weth",
            "outputs": [
                {
                    "internalType": "address",
                    "name": "",
                    "type": "address"
                }
            ],
            "stateMutability": "view",
            "type": "function"
        }
    ],
    "bytecode": "0x60e060405234801561001057600080fd5b50604051610d49380380610d4983398101604081905261002f91610054565b6001600160601b0319606091821b811660805292811b831660a0521b1660c0526100b8565b600080600060608486031215610068578283fd5b8351610073816100a0565b6020850151909350610084816100a0565b6040850151909250610095816100a0565b809150509250925092565b6001600160a01b03811681146100b557600080fd5b50565b60805160601c60a05160601c60c05160601c610c21610128600039806101dd528061021a528061028552806102e6528061032552806103cb528061054a525080610256528061039c528061052652508060f1528061012c52806101a3528061034d52806104fc5250610c216000f3fe608060405234801561001057600080fd5b50600436106100575760003560e01c8063230f11c71461005c5780633fc8cef314610071578063a87985101461008f578063f77c4791146100a4578063f887ea40146100ac575b600080fd5b61006f61006a366004610891565b6100b4565b005b6100796104fa565b604051610086919061091c565b60405180910390f35b61009761051e565b6040516100869190610b9e565b610079610524565b610079610548565b826001600160a01b0316846001600160a01b031614156100ef5760405162461bcd60e51b81526004016100e690610a79565b60405180910390fd5b7f00000000000000000000000000000000000000000000000000000000000000006001600160a01b0316846001600160a01b0316148061016057507f00000000000000000000000000000000000000000000000000000000000000006001600160a01b0316836001600160a01b0316145b61017c5760405162461bcd60e51b81526004016100e690610aa6565b6001600160a01b03821630146101a1576101a16001600160a01b03851683308961056c565b7f00000000000000000000000000000000000000000000000000000000000000006001600160a01b0316846001600160a01b0316141561034b577f00000000000000000000000000000000000000000000000000000000000000006001600160a01b0316301461023f5761023f6001600160a01b0385167f0000000000000000000000000000000000000000000000000000000000000000886105ca565b6040516371b8dc6960e01b81526001600160a01b037f000000000000000000000000000000000000000000000000000000000000000016906371b8dc69906102b39086907f0000000000000000000000000000000000000000000000000000000000000000908b906103d490600401610987565b600060405180830381600087803b1580156102cd57600080fd5b505af11580156102e1573d6000803e3d6000fd5b5050507f00000000000000000000000000000000000000000000000000000000000000006001600160a01b03163014905061034b5761034b6001600160a01b0385167f000000000000000000000000000000000000000000000000000000000000000060006105ca565b7f00000000000000000000000000000000000000000000000000000000000000006001600160a01b0316836001600160a01b0316141561042c5760405163716e261560e01b81526001600160a01b037f0000000000000000000000000000000000000000000000000000000000000000169063716e2615906103f99087907f0000000000000000000000000000000000000000000000000000000000000000908b906103d490600401610987565b600060405180830381600087803b15801561041357600080fd5b505af1158015610427573d6000803e3d6000fd5b505050505b6040516370a0823160e01b81526000906001600160a01b038516906370a082319061045b90309060040161091c565b60206040518083038186803b15801561047357600080fd5b505afa158015610487573d6000803e3d6000fd5b505050506040513d601f19601f820116820180604052508101906104ab9190610879565b9050858110156104cd5760405162461bcd60e51b81526004016100e690610a43565b6001600160a01b03821630146104f1576104f16001600160a01b0385168383610692565b50505050505050565b7f000000000000000000000000000000000000000000000000000000000000000081565b6103d481565b7f000000000000000000000000000000000000000000000000000000000000000081565b7f000000000000000000000000000000000000000000000000000000000000000081565b6105c4846323b872dd60e01b85858560405160240161058d9392919061094a565b60408051601f198184030181529190526020810180516001600160e01b03166001600160e01b0319909316929092179091526106b1565b50505050565b8015806106525750604051636eb1769f60e11b81526001600160a01b0384169063dd62ed3e906106009030908690600401610930565b60206040518083038186803b15801561061857600080fd5b505afa15801561062c573d6000803e3d6000fd5b505050506040513d601f19601f820116820180604052508101906106509190610879565b155b61066e5760405162461bcd60e51b81526004016100e690610b48565b61068d8363095ea7b360e01b848460405160240161058d92919061096e565b505050565b61068d8363a9059cbb60e01b848460405160240161058d92919061096e565b6060610706826040518060400160405280602081526020017f5361666545524332303a206c6f772d6c6576656c2063616c6c206661696c6564815250856001600160a01b03166107409092919063ffffffff16565b80519091501561068d57808060200190518101906107249190610859565b61068d5760405162461bcd60e51b81526004016100e690610afe565b606061074f8484600085610759565b90505b9392505050565b60608247101561077b5760405162461bcd60e51b81526004016100e6906109fd565b6107848561081a565b6107a05760405162461bcd60e51b81526004016100e690610ac7565b60006060866001600160a01b031685876040516107bd9190610900565b60006040518083038185875af1925050503d80600081146107fa576040519150601f19603f3d011682016040523d82523d6000602084013e6107ff565b606091505b509150915061080f828286610820565b979650505050505050565b3b151590565b6060831561082f575081610752565b82511561083f5782518084602001fd5b8160405162461bcd60e51b81526004016100e691906109ca565b60006020828403121561086a578081fd5b81518015158114610752578182fd5b60006020828403121561088a578081fd5b5051919050565b60008060008060008060c087890312156108a9578182fd5b863595506020870135945060408701356108c281610bd3565b935060608701356108d281610bd3565b925060808701356108e281610bd3565b915060a08701356108f281610bd3565b809150509295509295509295565b60008251610912818460208701610ba7565b9190910192915050565b6001600160a01b0391909116815260200190565b6001600160a01b0392831681529116602082015260400190565b6001600160a01b039384168152919092166020820152604081019190915260600190565b6001600160a01b03929092168252602082015260400190565b6001600160a01b0394851681529290931660208301526040820152606081019190915260a06080820181905260029082015261060f60f31b60c082015260e00190565b60006020825282518060208401526109e9816040850160208701610ba7565b601f01601f19169190910160400192915050565b60208082526026908201527f416464726573733a20696e73756666696369656e742062616c616e636520666f6040820152651c8818d85b1b60d21b606082015260800190565b6020808252601c908201527b125b9cdd59999a58da595b9d081d1bdad95b93dd5d08185b5bdd5b9d60221b604082015260600190565b6020808252601390820152720a8ded6cadce640c6c2dcdcdee840dac2e8c6d606b1b604082015260600190565b60208082526007908201526609cde40ae8aa8960cb1b604082015260600190565b6020808252601d908201527f416464726573733a2063616c6c20746f206e6f6e2d636f6e7472616374000000604082015260600190565b6020808252602a908201527f5361666545524332303a204552433230206f7065726174696f6e20646964206e6040820152691bdd081cdd58d8d9595960b21b606082015260800190565b60208082526036908201527f5361666545524332303a20617070726f76652066726f6d206e6f6e2d7a65726f60408201527520746f206e6f6e2d7a65726f20616c6c6f77616e636560501b606082015260800190565b90815260200190565b60005b83811015610bc2578181015183820152602001610baa565b838111156105c45750506000910152565b6001600160a01b0381168114610be857600080fd5b5056fea2646970667358221220c2eef30ea31bbd0fe6599c9cf472d9f0bc82250fae2ad707b4d13dfc844df46164736f6c634300060c0033",
    "linkReferences": {},
    "deployedLinkReferences": {}
}