{
    "_format": "hh-sol-artifact-1",
    "contractName": "MetaStrategyAdapter",
    "sourceName": "contracts/adapters/strategy/MetaStrategyAdapter.sol",
    "abi": [
        {
            "inputs": [
                {
                    "internalType": "address",
                    "name": "controller_",
                    "type": "address"
                },
                {
                    "internalType": "address",
                    "name": "router_",
                    "type": "address"
                },
                {
                    "internalType": "address",
                    "name": "weth_",
                    "type": "address"
                }
            ],
            "stateMutability": "nonpayable",
            "type": "constructor"
        },
        {
            "inputs": [],
            "name": "DEFAULT_SLIPPAGE",
            "outputs": [
                {
                    "internalType": "uint256",
                    "name": "",
                    "type": "uint256"
                }
            ],
            "stateMutability": "view",
            "type": "function"
        },
        {
            "inputs": [],
            "name": "controller",
            "outputs": [
                {
                    "internalType": "contract IStrategyController",
                    "name": "",
                    "type": "address"
                }
            ],
            "stateMutability": "view",
            "type": "function"
        },
        {
            "inputs": [],
            "name": "router",
            "outputs": [
                {
                    "internalType": "contract IStrategyRouter",
                    "name": "",
                    "type": "address"
                }
            ],
            "stateMutability": "view",
            "type": "function"
        },
        {
            "inputs": [
                {
                    "internalType": "uint256",
                    "name": "amount",
                    "type": "uint256"
                },
                {
                    "internalType": "address",
                    "name": "tokenIn",
                    "type": "address"
                },
                {
                    "internalType": "address",
                    "name": "tokenOut",
                    "type": "address"
                }
            ],
            "name": "spotPrice",
            "outputs": [
                {
                    "internalType": "uint256",
                    "name": "",
                    "type": "uint256"
                }
            ],
            "stateMutability": "view",
            "type": "function"
        },
        {
            "inputs": [
                {
                    "internalType": "uint256",
                    "name": "amount",
                    "type": "uint256"
                },
                {
                    "internalType": "uint256",
                    "name": "expected",
                    "type": "uint256"
                },
                {
                    "internalType": "address",
                    "name": "tokenIn",
                    "type": "address"
                },
                {
                    "internalType": "address",
                    "name": "tokenOut",
                    "type": "address"
                },
                {
                    "internalType": "address",
                    "name": "from",
                    "type": "address"
                },
                {
                    "internalType": "address",
                    "name": "to",
                    "type": "address"
                }
            ],
            "name": "swap",
            "outputs": [],
            "stateMutability": "nonpayable",
            "type": "function"
        },
        {
            "inputs": [],
            "name": "weth",
            "outputs": [
                {
                    "internalType": "address",
                    "name": "",
                    "type": "address"
                }
            ],
            "stateMutability": "view",
            "type": "function"
        }
    ],
    "bytecode": "0x60e06040523480156200001157600080fd5b506040516200199e3803806200199e83398101604081905262000034916200005a565b6001600160601b0319606091821b811660805292811b831660a0521b1660c052620000c6565b6000806000606084860312156200006f578283fd5b83516200007c81620000ad565b60208501519093506200008f81620000ad565b6040850151909250620000a281620000ad565b809150509250925092565b6001600160a01b0381168114620000c357600080fd5b50565b60805160601c60a05160601c60c05160601c61184d62000151600039806101fb528061023852806102a35280610304528061034352806103e9528061057f52508061027452806103ba528061055b52508061010f528061014a52806101c1528061036b528061051a528061070b52806108d25280610ab25280610c6e5280610ea0525061184d6000f3fe608060405234801561001057600080fd5b50600436106100625760003560e01c8063230f11c7146100675780633fc8cef31461007c57806377ec159d1461009a578063a8798510146100ba578063f77c4791146100c2578063f887ea40146100ca575b600080fd5b61007a6100753660046113e3565b6100d2565b005b610084610518565b604051610091919061146e565b60405180910390f35b6100ad6100a8366004611307565b61053c565b6040516100919190611766565b6100ad610553565b610084610559565b61008461057d565b826001600160a01b0316846001600160a01b0316141561010d5760405162461bcd60e51b815260040161010490611641565b60405180910390fd5b7f00000000000000000000000000000000000000000000000000000000000000006001600160a01b0316846001600160a01b0316148061017e57507f00000000000000000000000000000000000000000000000000000000000000006001600160a01b0316836001600160a01b0316145b61019a5760405162461bcd60e51b81526004016101049061166e565b6001600160a01b03821630146101bf576101bf6001600160a01b0385168330896105a1565b7f00000000000000000000000000000000000000000000000000000000000000006001600160a01b0316846001600160a01b03161415610369577f00000000000000000000000000000000000000000000000000000000000000006001600160a01b0316301461025d5761025d6001600160a01b0385167f0000000000000000000000000000000000000000000000000000000000000000886105ff565b6040516371b8dc6960e01b81526001600160a01b037f000000000000000000000000000000000000000000000000000000000000000016906371b8dc69906102d19086907f0000000000000000000000000000000000000000000000000000000000000000908b906103d4906004016114d9565b600060405180830381600087803b1580156102eb57600080fd5b505af11580156102ff573d6000803e3d6000fd5b5050507f00000000000000000000000000000000000000000000000000000000000000006001600160a01b031630149050610369576103696001600160a01b0385167f000000000000000000000000000000000000000000000000000000000000000060006105ff565b7f00000000000000000000000000000000000000000000000000000000000000006001600160a01b0316836001600160a01b0316141561044a5760405163716e261560e01b81526001600160a01b037f0000000000000000000000000000000000000000000000000000000000000000169063716e2615906104179087907f0000000000000000000000000000000000000000000000000000000000000000908b906103d4906004016114d9565b600060405180830381600087803b15801561043157600080fd5b505af1158015610445573d6000803e3d6000fd5b505050505b6040516370a0823160e01b81526000906001600160a01b038516906370a082319061047990309060040161146e565b60206040518083038186803b15801561049157600080fd5b505afa1580156104a5573d6000803e3d6000fd5b505050506040513d601f19601f820116820180604052508101906104c991906112ef565b9050858110156104eb5760405162461bcd60e51b8152600401610104906115ca565b6001600160a01b038216301461050f5761050f6001600160a01b03851683836106c7565b50505050505050565b7f000000000000000000000000000000000000000000000000000000000000000081565b60006105498484846106e6565b90505b9392505050565b6103d481565b7f000000000000000000000000000000000000000000000000000000000000000081565b7f000000000000000000000000000000000000000000000000000000000000000081565b6105f9846323b872dd60e01b8585856040516024016105c29392919061149c565b60408051601f198184030181529190526020810180516001600160e01b03166001600160e01b031990931692909217909152610d52565b50505050565b8015806106875750604051636eb1769f60e11b81526001600160a01b0384169063dd62ed3e906106359030908690600401611482565b60206040518083038186803b15801561064d57600080fd5b505afa158015610661573d6000803e3d6000fd5b505050506040513d601f19601f8201168201806040525081019061068591906112ef565b155b6106a35760405162461bcd60e51b815260040161010490611710565b6106c28363095ea7b360e01b84846040516024016105c29291906114c0565b505050565b6106c28363a9059cbb60e01b84846040516024016105c29291906114c0565b6000816001600160a01b0316836001600160a01b0316141561070957508261054c565b7f00000000000000000000000000000000000000000000000000000000000000006001600160a01b0316836001600160a01b031614156108d05760008290506000816001600160a01b03166318160ddd6040518163ffffffff1660e01b815260040160206040518083038186803b15801561078357600080fd5b505afa158015610797573d6000803e3d6000fd5b505050506040513d601f19601f820116820180604052508101906107bb91906112ef565b90506000826001600160a01b0316637dc0d1d06040518163ffffffff1660e01b815260040160206040518083038186803b1580156107f857600080fd5b505afa15801561080c573d6000803e3d6000fd5b505050506040513d601f19601f8201168201806040525081019061083091906111d5565b6001600160a01b031663ff4a1902846040518263ffffffff1660e01b815260040161085b919061146e565b60006040518083038186803b15801561087357600080fd5b505afa158015610887573d6000803e3d6000fd5b505050506040513d6000823e601f3d908101601f191682016040526108af9190810190611348565b5090506108c6816108c0848a610de1565b90610e24565b935050505061054c565b7f00000000000000000000000000000000000000000000000000000000000000006001600160a01b0316826001600160a01b03161415610d485760008390506060816001600160a01b031663c06fad066040518163ffffffff1660e01b815260040160006040518083038186803b15801561094a57600080fd5b505afa15801561095e573d6000803e3d6000fd5b505050506040513d6000823e601f3d908101601f19168201604052610986919081019061117b565b90506000826001600160a01b03166318160ddd6040518163ffffffff1660e01b815260040160206040518083038186803b1580156109c357600080fd5b505afa1580156109d7573d6000803e3d6000fd5b505050506040513d601f19601f820116820180604052508101906109fb91906112ef565b90506000805b8351811015610d3c576000848281518110610a1857fe5b602002602001015190506000610aae856108c08d856001600160a01b03166370a082318c6040518263ffffffff1660e01b8152600401610a58919061146e565b60206040518083038186803b158015610a7057600080fd5b505afa158015610a84573d6000803e3d6000fd5b505050506040513d601f19601f82011682018060405250810190610aa891906112ef565b90610de1565b90507f00000000000000000000000000000000000000000000000000000000000000006001600160a01b0316826001600160a01b03161415610afb57610af48482610e63565b9350610d32565b6000876001600160a01b0316637dc0d1d06040518163ffffffff1660e01b815260040160206040518083038186803b158015610b3657600080fd5b505afa158015610b4a573d6000803e3d6000fd5b505050506040513d601f19601f82011682018060405250810190610b6e91906111d5565b6001600160a01b0316639d23c4c76040518163ffffffff1660e01b815260040160206040518083038186803b158015610ba657600080fd5b505afa158015610bba573d6000803e3d6000fd5b505050506040513d601f19601f82011682018060405250810190610bde91906111d5565b6001600160a01b03166346a74837846040518263ffffffff1660e01b8152600401610c09919061146e565b60206040518083038186803b158015610c2157600080fd5b505afa158015610c35573d6000803e3d6000fd5b505050506040513d601f19601f82011682018060405250810190610c5991906112ef565b90506002811415610ca057610c99610c9283857f00000000000000000000000000000000000000000000000000000000000000006106e6565b8690610e63565b9450610d30565b610d2d610c92896001600160a01b031663336685fc866040518263ffffffff1660e01b8152600401610cd2919061146e565b60006040518083038186803b158015610cea57600080fd5b505afa158015610cfe573d6000803e3d6000fd5b505050506040513d6000823e601f3d908101601f19168201604052610d2691908101906111f1565b8486610e88565b94505b505b5050600101610a01565b50935061054c92505050565b5060009392505050565b6060610da7826040518060400160405280602081526020017f5361666545524332303a206c6f772d6c6576656c2063616c6c206661696c6564815250856001600160a01b0316610fbe9092919063ffffffff16565b8051909150156106c25780806020019051810190610dc591906111b5565b6106c25760405162461bcd60e51b8152600401610104906116c6565b600082610df057506000610e1e565b82820282848281610dfd57fe5b0414610e1b5760405162461bcd60e51b815260040161010490611600565b90505b92915050565b6000610e1b83836040518060400160405280601a815260200179536166654d6174683a206469766973696f6e206279207a65726f60301b815250610fcd565b600082820183811015610e1b5760405162461bcd60e51b81526004016101049061154f565b6000805b845151811015610fb55760008082610ec6577f00000000000000000000000000000000000000000000000000000000000000009150610ee4565b86602001516001840381518110610ed957fe5b602002602001015191505b86515160001901831415610ef9575083610f14565b86602001518381518110610f0957fe5b602002602001015190505b8651805184908110610f2257fe5b60200260200101516001600160a01b03166377ec159d8784846040518463ffffffff1660e01b8152600401610f599392919061176f565b60206040518083038186803b158015610f7157600080fd5b505afa158015610f85573d6000803e3d6000fd5b505050506040513d601f19601f82011682018060405250810190610fa991906112ef565b95505050600101610e8c565b50919392505050565b60606105498484600085611004565b60008183610fee5760405162461bcd60e51b8152600401610104919061151c565b506000838581610ffa57fe5b0495945050505050565b6060824710156110265760405162461bcd60e51b815260040161010490611584565b61102f856110c5565b61104b5760405162461bcd60e51b81526004016101049061168f565b60006060866001600160a01b031685876040516110689190611452565b60006040518083038185875af1925050503d80600081146110a5576040519150601f19603f3d011682016040523d82523d6000602084013e6110aa565b606091505b50915091506110ba8282866110cb565b979650505050505050565b3b151590565b606083156110da57508161054c565b8251156110ea5782518084602001fd5b8160405162461bcd60e51b8152600401610104919061151c565b600082601f830112611114578081fd5b8151611127611122826117b4565b61178e565b81815291506020808301908481018184028601820187101561114857600080fd5b60005b8481101561117057815161115e816117ff565b8452928201929082019060010161114b565b505050505092915050565b60006020828403121561118c578081fd5b81516001600160401b038111156111a1578182fd5b6111ad84828501611104565b949350505050565b6000602082840312156111c6578081fd5b81518015158114610e1b578182fd5b6000602082840312156111e6578081fd5b8151610e1b816117ff565b60006020808385031215611203578182fd5b82516001600160401b0380821115611219578384fd5b908401906060828703121561122c578384fd5b611236606061178e565b825182811115611244578586fd5b61125088828601611104565b8252508383015182811115611263578586fd5b61126f88828601611104565b8583015250604083015182811115611285578586fd5b80840193505086601f840112611299578485fd5b8251828111156112a7578586fd5b6112b9601f8201601f1916860161178e565b925080835287858286010111156112ce578586fd5b6112dd818685018787016117d3565b50604081019190915295945050505050565b600060208284031215611300578081fd5b5051919050565b60008060006060848603121561131b578182fd5b83359250602084013561132d816117ff565b9150604084013561133d816117ff565b809150509250925092565b6000806040838503121561135a578182fd5b825191506020808401516001600160401b03811115611377578283fd5b8401601f81018613611387578283fd5b8051611395611122826117b4565b81815283810190838501858402850186018a10156113b1578687fd5b8694505b838510156113d35780518352600194909401939185019185016113b5565b5080955050505050509250929050565b60008060008060008060c087890312156113fb578182fd5b86359550602087013594506040870135611414816117ff565b93506060870135611424816117ff565b92506080870135611434816117ff565b915060a0870135611444816117ff565b809150509295509295509295565b600082516114648184602087016117d3565b9190910192915050565b6001600160a01b0391909116815260200190565b6001600160a01b0392831681529116602082015260400190565b6001600160a01b039384168152919092166020820152604081019190915260600190565b6001600160a01b03929092168252602082015260400190565b6001600160a01b0394851681529290931660208301526040820152606081019190915260a06080820181905260029082015261060f60f31b60c082015260e00190565b600060208252825180602084015261153b8160408501602087016117d3565b601f01601f19169190910160400192915050565b6020808252601b908201527a536166654d6174683a206164646974696f6e206f766572666c6f7760281b604082015260600190565b60208082526026908201527f416464726573733a20696e73756666696369656e742062616c616e636520666f6040820152651c8818d85b1b60d21b606082015260800190565b6020808252601c908201527b125b9cdd59999a58da595b9d081d1bdad95b93dd5d08185b5bdd5b9d60221b604082015260600190565b60208082526021908201527f536166654d6174683a206d756c7469706c69636174696f6e206f766572666c6f6040820152607760f81b606082015260800190565b6020808252601390820152720a8ded6cadce640c6c2dcdcdee840dac2e8c6d606b1b604082015260600190565b60208082526007908201526609cde40ae8aa8960cb1b604082015260600190565b6020808252601d908201527f416464726573733a2063616c6c20746f206e6f6e2d636f6e7472616374000000604082015260600190565b6020808252602a908201527f5361666545524332303a204552433230206f7065726174696f6e20646964206e6040820152691bdd081cdd58d8d9595960b21b606082015260800190565b60208082526036908201527f5361666545524332303a20617070726f76652066726f6d206e6f6e2d7a65726f60408201527520746f206e6f6e2d7a65726f20616c6c6f77616e636560501b606082015260800190565b90815260200190565b9283526001600160a01b03918216602084015216604082015260600190565b6040518181016001600160401b03811182821017156117ac57600080fd5b604052919050565b60006001600160401b038211156117c9578081fd5b5060209081020190565b60005b838110156117ee5781810151838201526020016117d6565b838111156105f95750506000910152565b6001600160a01b038116811461181457600080fd5b5056fea26469706673582212205a12d5a6340734d7df1a26f0460988e141d101db6b27594a83300202a52143a164736f6c634300060c0033",
    "linkReferences": {},
    "deployedLinkReferences": {}
}