{
  "_format": "hh-sol-artifact-1",
  "contractName": "PausableToken",
  "sourceName": "contracts/test/weird_tokens/Pausable.sol",
  "abi": [
    {
      "inputs": [
        {
          "internalType": "uint256",
          "name": "_totalSupply",
          "type": "uint256"
        }
      ],
      "stateMutability": "nonpayable",
      "type": "constructor"
    },
    {
      "anonymous": false,
      "inputs": [
        {
          "indexed": true,
          "internalType": "address",
          "name": "src",
          "type": "address"
        },
        {
          "indexed": true,
          "internalType": "address",
          "name": "guy",
          "type": "address"
        },
        {
          "indexed": false,
          "internalType": "uint256",
          "name": "wad",
          "type": "uint256"
        }
      ],
      "name": "Approval",
      "type": "event"
    },
    {
      "anonymous": false,
      "inputs": [
        {
          "indexed": true,
          "internalType": "address",
          "name": "src",
          "type": "address"
        },
        {
          "indexed": true,
          "internalType": "address",
          "name": "dst",
          "type": "address"
        },
        {
          "indexed": false,
          "internalType": "uint256",
          "name": "wad",
          "type": "uint256"
        }
      ],
      "name": "Transfer",
      "type": "event"
    },
    {
      "inputs": [
        {
          "internalType": "address",
          "name": "",
          "type": "address"
        },
        {
          "internalType": "address",
          "name": "",
          "type": "address"
        }
      ],
      "name": "allowance",
      "outputs": [
        {
          "internalType": "uint256",
          "name": "",
          "type": "uint256"
        }
      ],
      "stateMutability": "view",
      "type": "function"
    },
    {
      "inputs": [
        {
          "internalType": "address",
          "name": "usr",
          "type": "address"
        },
        {
          "internalType": "uint256",
          "name": "wad",
          "type": "uint256"
        }
      ],
      "name": "approve",
      "outputs": [
        {
          "internalType": "bool",
          "name": "",
          "type": "bool"
        }
      ],
      "stateMutability": "nonpayable",
      "type": "function"
    },
    {
      "inputs": [
        {
          "internalType": "address",
          "name": "",
          "type": "address"
        }
      ],
      "name": "balanceOf",
      "outputs": [
        {
          "internalType": "uint256",
          "name": "",
          "type": "uint256"
        }
      ],
      "stateMutability": "view",
      "type": "function"
    },
    {
      "inputs": [],
      "name": "decimals",
      "outputs": [
        {
          "internalType": "uint8",
          "name": "",
          "type": "uint8"
        }
      ],
      "stateMutability": "view",
      "type": "function"
    },
    {
      "inputs": [],
      "name": "name",
      "outputs": [
        {
          "internalType": "string",
          "name": "",
          "type": "string"
        }
      ],
      "stateMutability": "view",
      "type": "function"
    },
    {
      "inputs": [],
      "name": "start",
      "outputs": [],
      "stateMutability": "nonpayable",
      "type": "function"
    },
    {
      "inputs": [],
      "name": "stop",
      "outputs": [],
      "stateMutability": "nonpayable",
      "type": "function"
    },
    {
      "inputs": [],
      "name": "symbol",
      "outputs": [
        {
          "internalType": "string",
          "name": "",
          "type": "string"
        }
      ],
      "stateMutability": "view",
      "type": "function"
    },
    {
      "inputs": [],
      "name": "totalSupply",
      "outputs": [
        {
          "internalType": "uint256",
          "name": "",
          "type": "uint256"
        }
      ],
      "stateMutability": "view",
      "type": "function"
    },
    {
      "inputs": [
        {
          "internalType": "address",
          "name": "dst",
          "type": "address"
        },
        {
          "internalType": "uint256",
          "name": "wad",
          "type": "uint256"
        }
      ],
      "name": "transfer",
      "outputs": [
        {
          "internalType": "bool",
          "name": "",
          "type": "bool"
        }
      ],
      "stateMutability": "nonpayable",
      "type": "function"
    },
    {
      "inputs": [
        {
          "internalType": "address",
          "name": "src",
          "type": "address"
        },
        {
          "internalType": "address",
          "name": "dst",
          "type": "address"
        },
        {
          "internalType": "uint256",
          "name": "wad",
          "type": "uint256"
        }
      ],
      "name": "transferFrom",
      "outputs": [
        {
          "internalType": "bool",
          "name": "",
          "type": "bool"
        }
      ],
      "stateMutability": "nonpayable",
      "type": "function"
    }
  ],
  "bytecode": "0x60806040526000805460ff191660121790556004805460ff60a01b1916600160a01b17905534801561003057600080fd5b5060405161088b38038061088b8339818101604052602081101561005357600080fd5b5051600181905533600081815260026020908152604080832085905580518581529051859493927fddf252ad1be2c89b69c2b068fc378daa952ba7f163c4a11628f55a4df523b3ef928290030190a35050600480546001600160a01b031916331790556107c6806100c56000396000f3fe608060405234801561001057600080fd5b50600436106100b95760003560e01c8063313ce56711610081578063a9059cbb1161005b578063a9059cbb14610221578063be9a65551461024d578063dd62ed3e14610255576100b9565b8063313ce567146101d557806370a08231146101f357806395d89b4114610219576100b9565b806306fdde03146100be57806307da68f51461013b578063095ea7b31461014557806318160ddd1461018557806323b872dd1461019f575b600080fd5b6100c6610283565b6040805160208082528351818301528351919283929083019185019080838360005b838110156101005781810151838201526020016100e8565b50505050905090810190601f16801561012d5780820380516001836020036101000a031916815260200191505b509250505060405180910390f35b6101436102a4565b005b6101716004803603604081101561015b57600080fd5b506001600160a01b038135169060200135610301565b604080519115158252519081900360200190f35b61018d61035e565b60408051918252519081900360200190f35b610171600480360360608110156101b557600080fd5b506001600160a01b03813581169160208101359091169060400135610364565b6101dd6103c1565b6040805160ff9092168252519081900360200190f35b61018d6004803603602081101561020957600080fd5b50356001600160a01b03166103ca565b6100c66103dc565b6101716004803603604081101561023757600080fd5b506001600160a01b0381351690602001356103fb565b61014361044f565b61018d6004803603604081101561026b57600080fd5b506001600160a01b03813581169160200135166104b2565b604051806040016040528060058152602001642a37b5b2b760d91b81525081565b6004546001600160a01b031633146102f2576040805162461bcd60e51b815260206004820152600c60248201526b1d5b985d5d1a1bdc9a5cd95960a21b604482015290519081900360640190fd5b6004805460ff60a01b19169055565b600454600090600160a01b900460ff1661034b576040805162461bcd60e51b81526020600482015260066024820152651c185d5cd95960d21b604482015290519081900360640190fd5b61035583836104cf565b90505b92915050565b60015481565b600454600090600160a01b900460ff166103ae576040805162461bcd60e51b81526020600482015260066024820152651c185d5cd95960d21b604482015290519081900360640190fd5b6103b9848484610535565b949350505050565b60005460ff1681565b60026020526000908152604090205481565b604051806040016040528060038152602001622a25a760e91b81525081565b600454600090600160a01b900460ff16610445576040805162461bcd60e51b81526020600482015260066024820152651c185d5cd95960d21b604482015290519081900360640190fd5b6103558383610763565b6004546001600160a01b0316331461049d576040805162461bcd60e51b815260206004820152600c60248201526b1d5b985d5d1a1bdc9a5cd95960a21b604482015290519081900360640190fd5b6004805460ff60a01b1916600160a01b179055565b600360209081526000928352604080842090915290825290205481565b3360008181526003602090815260408083206001600160a01b038716808552908352818420869055815186815291519394909390927f8c5be1e5ebec7d5bd14f71427d1e84f3dd0314c0f7b2291e5b200ac8c7c3b925928290030190a350600192915050565b6001600160a01b0383166000908152600260205260408120548211156105a2576040805162461bcd60e51b815260206004820152601460248201527f696e73756666696369656e742d62616c616e6365000000000000000000000000604482015290519081900360640190fd5b6001600160a01b03841633148015906105e057506001600160a01b038416600090815260036020908152604080832033845290915290205460001914155b156106b0576001600160a01b038416600090815260036020908152604080832033845290915290205482111561065d576040805162461bcd60e51b815260206004820152601660248201527f696e73756666696369656e742d616c6c6f77616e636500000000000000000000604482015290519081900360640190fd5b6001600160a01b038416600090815260036020908152604080832033845290915290205461068b9083610770565b6001600160a01b03851660009081526003602090815260408083203384529091529020555b6001600160a01b0384166000908152600260205260409020546106d39083610770565b6001600160a01b0380861660009081526002602052604080822093909355908516815220546107029083610780565b6001600160a01b0380851660008181526002602090815260409182902094909455805186815290519193928816927fddf252ad1be2c89b69c2b068fc378daa952ba7f163c4a11628f55a4df523b3ef92918290030190a35060019392505050565b6000610355338484610364565b8082038281111561035857600080fd5b8082018281101561035857600080fdfea2646970667358221220df53cd2984c233690aaff11441f8173c0c9edc9f99c0b895be8a50da8192f77664736f6c634300060c0033",
  "linkReferences": {},
  "deployedLinkReferences": {}
}