{
  "_format": "hh-sol-artifact-1",
  "contractName": "ReentrantToken",
  "sourceName": "contracts/test/weird_tokens/Reentrant.sol",
  "abi": [
    {
      "inputs": [
        {
          "internalType": "uint256",
          "name": "_totalSupply",
          "type": "uint256"
        }
      ],
      "stateMutability": "nonpayable",
      "type": "constructor"
    },
    {
      "anonymous": false,
      "inputs": [
        {
          "indexed": true,
          "internalType": "address",
          "name": "src",
          "type": "address"
        },
        {
          "indexed": true,
          "internalType": "address",
          "name": "guy",
          "type": "address"
        },
        {
          "indexed": false,
          "internalType": "uint256",
          "name": "wad",
          "type": "uint256"
        }
      ],
      "name": "Approval",
      "type": "event"
    },
    {
      "anonymous": false,
      "inputs": [
        {
          "indexed": true,
          "internalType": "address",
          "name": "src",
          "type": "address"
        },
        {
          "indexed": true,
          "internalType": "address",
          "name": "dst",
          "type": "address"
        },
        {
          "indexed": false,
          "internalType": "uint256",
          "name": "wad",
          "type": "uint256"
        }
      ],
      "name": "Transfer",
      "type": "event"
    },
    {
      "inputs": [
        {
          "internalType": "address",
          "name": "",
          "type": "address"
        },
        {
          "internalType": "address",
          "name": "",
          "type": "address"
        }
      ],
      "name": "allowance",
      "outputs": [
        {
          "internalType": "uint256",
          "name": "",
          "type": "uint256"
        }
      ],
      "stateMutability": "view",
      "type": "function"
    },
    {
      "inputs": [
        {
          "internalType": "address",
          "name": "usr",
          "type": "address"
        },
        {
          "internalType": "uint256",
          "name": "wad",
          "type": "uint256"
        }
      ],
      "name": "approve",
      "outputs": [
        {
          "internalType": "bool",
          "name": "",
          "type": "bool"
        }
      ],
      "stateMutability": "nonpayable",
      "type": "function"
    },
    {
      "inputs": [
        {
          "internalType": "address",
          "name": "",
          "type": "address"
        }
      ],
      "name": "balanceOf",
      "outputs": [
        {
          "internalType": "uint256",
          "name": "",
          "type": "uint256"
        }
      ],
      "stateMutability": "view",
      "type": "function"
    },
    {
      "inputs": [],
      "name": "decimals",
      "outputs": [
        {
          "internalType": "uint8",
          "name": "",
          "type": "uint8"
        }
      ],
      "stateMutability": "view",
      "type": "function"
    },
    {
      "inputs": [],
      "name": "name",
      "outputs": [
        {
          "internalType": "string",
          "name": "",
          "type": "string"
        }
      ],
      "stateMutability": "view",
      "type": "function"
    },
    {
      "inputs": [
        {
          "internalType": "address",
          "name": "addr",
          "type": "address"
        },
        {
          "internalType": "bytes",
          "name": "data",
          "type": "bytes"
        }
      ],
      "name": "setTarget",
      "outputs": [],
      "stateMutability": "nonpayable",
      "type": "function"
    },
    {
      "inputs": [],
      "name": "symbol",
      "outputs": [
        {
          "internalType": "string",
          "name": "",
          "type": "string"
        }
      ],
      "stateMutability": "view",
      "type": "function"
    },
    {
      "inputs": [
        {
          "internalType": "address",
          "name": "",
          "type": "address"
        }
      ],
      "name": "targets",
      "outputs": [
        {
          "internalType": "bytes",
          "name": "data",
          "type": "bytes"
        },
        {
          "internalType": "address",
          "name": "addr",
          "type": "address"
        }
      ],
      "stateMutability": "view",
      "type": "function"
    },
    {
      "inputs": [],
      "name": "totalSupply",
      "outputs": [
        {
          "internalType": "uint256",
          "name": "",
          "type": "uint256"
        }
      ],
      "stateMutability": "view",
      "type": "function"
    },
    {
      "inputs": [
        {
          "internalType": "address",
          "name": "dst",
          "type": "address"
        },
        {
          "internalType": "uint256",
          "name": "wad",
          "type": "uint256"
        }
      ],
      "name": "transfer",
      "outputs": [
        {
          "internalType": "bool",
          "name": "",
          "type": "bool"
        }
      ],
      "stateMutability": "nonpayable",
      "type": "function"
    },
    {
      "inputs": [
        {
          "internalType": "address",
          "name": "src",
          "type": "address"
        },
        {
          "internalType": "address",
          "name": "dst",
          "type": "address"
        },
        {
          "internalType": "uint256",
          "name": "wad",
          "type": "uint256"
        }
      ],
      "name": "transferFrom",
      "outputs": [
        {
          "internalType": "bool",
          "name": "res",
          "type": "bool"
        }
      ],
      "stateMutability": "nonpayable",
      "type": "function"
    }
  ],
  "bytecode": "0x60806040526000805460ff1916601217905534801561001d57600080fd5b50604051610b65380380610b658339818101604052602081101561004057600080fd5b5051600181905533600081815260026020908152604080832085905580518581529051859493927fddf252ad1be2c89b69c2b068fc378daa952ba7f163c4a11628f55a4df523b3ef928290030190a35050610ac5806100a06000396000f3fe608060405234801561001057600080fd5b50600436106100995760003560e01c806306fdde031461009e578063095ea7b31461011b57806318160ddd1461015b57806323b872dd14610175578063313ce567146101ab5780633641eaf1146101c9578063562c47841461024957806370a08231146102f757806395d89b411461031d578063a9059cbb14610325578063dd62ed3e14610351575b600080fd5b6100a661037f565b6040805160208082528351818301528351919283929083019185019080838360005b838110156100e05781810151838201526020016100c8565b50505050905090810190601f16801561010d5780820380516001836020036101000a031916815260200191505b509250505060405180910390f35b6101476004803603604081101561013157600080fd5b506001600160a01b0381351690602001356103a0565b604080519115158252519081900360200190f35b610163610407565b60408051918252519081900360200190f35b6101476004803603606081101561018b57600080fd5b506001600160a01b0381358116916020810135909116906040013561040d565b6101b36105ef565b6040805160ff9092168252519081900360200190f35b610247600480360360408110156101df57600080fd5b6001600160a01b038235169190810190604081016020820135600160201b81111561020957600080fd5b82018360208201111561021b57600080fd5b803590602001918460018302840111600160201b8311171561023c57600080fd5b5090925090506105f8565b005b61026f6004803603602081101561025f57600080fd5b50356001600160a01b0316610694565b6040518080602001836001600160a01b03168152602001828103825284818151815260200191508051906020019080838360005b838110156102bb5781810151838201526020016102a3565b50505050905090810190601f1680156102e85780820380516001836020036101000a031916815260200191505b50935050505060405180910390f35b6101636004803603602081101561030d57600080fd5b50356001600160a01b0316610744565b6100a6610756565b6101476004803603604081101561033b57600080fd5b506001600160a01b038135169060200135610775565b6101636004803603604081101561036757600080fd5b506001600160a01b0381358116916020013516610789565b604051806040016040528060058152602001642a37b5b2b760d91b81525081565b3360008181526003602090815260408083206001600160a01b038716808552908352818420869055815186815291519394909390927f8c5be1e5ebec7d5bd14f71427d1e84f3dd0314c0f7b2291e5b200ac8c7c3b925928290030190a35060015b92915050565b60015481565b600061041a8484846107a6565b90506104246109e4565b6001600160a01b0385166000908152600460209081526040918290208251815460026001821615610100026000190190911604601f81018490049093028101606090810185529381018381529093919284928491908401828280156104ca5780601f1061049f576101008083540402835291602001916104ca565b820191906000526020600020905b8154815290600101906020018083116104ad57829003601f168201915b5050509183525050600191909101546001600160a01b039081166020928301529082015191925016156105e757600081602001516001600160a01b03165a83516040518151819060208401908083835b602083106105395780518252601f19909201916020918201910161051a565b6001836020036101000a03801982511681845116808217855250505050505090500191505060006040518083038160008787f1925050503d806000811461059c576040519150601f19603f3d011682016040523d82523d6000602084013e6105a1565b606091505b50509050806105e5576040805162461bcd60e51b815260206004820152600b60248201526a18d85b1b0819985a5b195960aa1b604482015290519081900360640190fd5b505b509392505050565b60005460ff1681565b6040805160606020601f8501819004028201810183529181018381529091829190859085908190850183828082843760009201829052509385525050506001600160a01b0386166020928301523381526004825260409020825180519192610665928492909101906109fc565b5060209190910151600190910180546001600160a01b0319166001600160a01b03909216919091179055505050565b60046020908152600091825260409182902080548351601f6002600019610100600186161502019093169290920491820184900484028101840190945280845290929183919083018282801561072b5780601f106107005761010080835404028352916020019161072b565b820191906000526020600020905b81548152906001019060200180831161070e57829003601f168201915b505050600190930154919250506001600160a01b031682565b60026020526000908152604090205481565b604051806040016040528060038152602001622a25a760e91b81525081565b600061078233848461040d565b9392505050565b600360209081526000928352604080842090915290825290205481565b6001600160a01b03831660009081526002602052604081205482111561080a576040805162461bcd60e51b8152602060048201526014602482015273696e73756666696369656e742d62616c616e636560601b604482015290519081900360640190fd5b6001600160a01b038416331480159061084857506001600160a01b038416600090815260036020908152604080832033845290915290205460001914155b15610911576001600160a01b03841660009081526003602090815260408083203384529091529020548211156108be576040805162461bcd60e51b8152602060048201526016602482015275696e73756666696369656e742d616c6c6f77616e636560501b604482015290519081900360640190fd5b6001600160a01b03841660009081526003602090815260408083203384529091529020546108ec90836109c4565b6001600160a01b03851660009081526003602090815260408083203384529091529020555b6001600160a01b03841660009081526002602052604090205461093490836109c4565b6001600160a01b03808616600090815260026020526040808220939093559085168152205461096390836109d4565b6001600160a01b0380851660008181526002602090815260409182902094909455805186815290519193928816927fddf252ad1be2c89b69c2b068fc378daa952ba7f163c4a11628f55a4df523b3ef92918290030190a35060019392505050565b8082038281111561040157600080fd5b8082018281101561040157600080fd5b60408051808201909152606081526000602082015290565b828054600181600116156101000203166002900490600052602060002090601f016020900481019282601f10610a3d57805160ff1916838001178555610a6a565b82800160010185558215610a6a579182015b82811115610a6a578251825591602001919060010190610a4f565b50610a76929150610a7a565b5090565b5b80821115610a765760008155600101610a7b56fea26469706673582212209549e9817290dce8c44e71402e3b9b232c31ea58ad97b3c9dd7d411f192633fe64736f6c634300060c0033",
  "linkReferences": {},
  "deployedLinkReferences": {}
}