{
  "_format": "hh-sol-artifact-1",
  "contractName": "StrategyControllerPaused",
  "sourceName": "contracts/implementations/recovery/StrategyControllerPaused.sol",
  "abi": [
    {
      "inputs": [
        {
          "internalType": "address",
          "name": "factory_",
          "type": "address"
        }
      ],
      "stateMutability": "nonpayable",
      "type": "constructor"
    },
    {
      "anonymous": false,
      "inputs": [
        {
          "indexed": true,
          "internalType": "address",
          "name": "strategy",
          "type": "address"
        },
        {
          "indexed": false,
          "internalType": "uint256",
          "name": "totalBefore",
          "type": "uint256"
        },
        {
          "indexed": false,
          "internalType": "uint256",
          "name": "totalAfter",
          "type": "uint256"
        }
      ],
      "name": "Balanced",
      "type": "event"
    },
    {
      "anonymous": false,
      "inputs": [
        {
          "indexed": true,
          "internalType": "address",
          "name": "strategy",
          "type": "address"
        },
        {
          "indexed": true,
          "internalType": "address",
          "name": "account",
          "type": "address"
        },
        {
          "indexed": false,
          "internalType": "uint256",
          "name": "value",
          "type": "uint256"
        },
        {
          "indexed": false,
          "internalType": "uint256",
          "name": "amount",
          "type": "uint256"
        }
      ],
      "name": "Deposit",
      "type": "event"
    },
    {
      "anonymous": false,
      "inputs": [
        {
          "indexed": true,
          "internalType": "address",
          "name": "strategy",
          "type": "address"
        },
        {
          "components": [
            {
              "internalType": "address",
              "name": "item",
              "type": "address"
            },
            {
              "internalType": "int256",
              "name": "percentage",
              "type": "int256"
            },
            {
              "components": [
                {
                  "internalType": "address[]",
                  "name": "adapters",
                  "type": "address[]"
                },
                {
                  "internalType": "address[]",
                  "name": "path",
                  "type": "address[]"
                },
                {
                  "internalType": "bytes",
                  "name": "cache",
                  "type": "bytes"
                }
              ],
              "internalType": "struct StrategyTypes.TradeData",
              "name": "data",
              "type": "tuple"
            }
          ],
          "indexed": false,
          "internalType": "struct StrategyTypes.StrategyItem[]",
          "name": "items",
          "type": "tuple[]"
        },
        {
          "indexed": true,
          "internalType": "bool",
          "name": "finalized",
          "type": "bool"
        }
      ],
      "name": "NewStructure",
      "type": "event"
    },
    {
      "anonymous": false,
      "inputs": [
        {
          "indexed": true,
          "internalType": "address",
          "name": "strategy",
          "type": "address"
        },
        {
          "indexed": false,
          "internalType": "enum StrategyTypes.TimelockCategory",
          "name": "category",
          "type": "uint8"
        },
        {
          "indexed": false,
          "internalType": "uint256",
          "name": "newValue",
          "type": "uint256"
        },
        {
          "indexed": true,
          "internalType": "bool",
          "name": "finalized",
          "type": "bool"
        }
      ],
      "name": "NewValue",
      "type": "event"
    },
    {
      "anonymous": false,
      "inputs": [
        {
          "indexed": true,
          "internalType": "uint256",
          "name": "rebalanceTimelockPeriod",
          "type": "uint256"
        },
        {
          "indexed": true,
          "internalType": "uint256",
          "name": "rebalanceThreshold",
          "type": "uint256"
        },
        {
          "indexed": true,
          "internalType": "bool",
          "name": "finalized",
          "type": "bool"
        }
      ],
      "name": "RebalanceParametersUpdated",
      "type": "event"
    },
    {
      "anonymous": false,
      "inputs": [
        {
          "indexed": true,
          "internalType": "address",
          "name": "strategy",
          "type": "address"
        },
        {
          "indexed": true,
          "internalType": "address",
          "name": "adapter",
          "type": "address"
        },
        {
          "indexed": true,
          "internalType": "address",
          "name": "token",
          "type": "address"
        }
      ],
      "name": "Repositioned",
      "type": "event"
    },
    {
      "anonymous": false,
      "inputs": [
        {
          "indexed": true,
          "internalType": "address",
          "name": "strategy",
          "type": "address"
        }
      ],
      "name": "StrategyOpen",
      "type": "event"
    },
    {
      "anonymous": false,
      "inputs": [
        {
          "indexed": true,
          "internalType": "address",
          "name": "strategy",
          "type": "address"
        }
      ],
      "name": "StrategySet",
      "type": "event"
    },
    {
      "anonymous": false,
      "inputs": [
        {
          "indexed": true,
          "internalType": "address",
          "name": "strategy",
          "type": "address"
        },
        {
          "indexed": true,
          "internalType": "address",
          "name": "item",
          "type": "address"
        },
        {
          "components": [
            {
              "internalType": "address[]",
              "name": "adapters",
              "type": "address[]"
            },
            {
              "internalType": "address[]",
              "name": "path",
              "type": "address[]"
            },
            {
              "internalType": "bytes",
              "name": "cache",
              "type": "bytes"
            }
          ],
          "indexed": false,
          "internalType": "struct StrategyTypes.TradeData",
          "name": "data",
          "type": "tuple"
        },
        {
          "indexed": true,
          "internalType": "bool",
          "name": "finalized",
          "type": "bool"
        }
      ],
      "name": "UpdateTradeData",
      "type": "event"
    },
    {
      "anonymous": false,
      "inputs": [
        {
          "indexed": true,
          "internalType": "address",
          "name": "strategy",
          "type": "address"
        },
        {
          "indexed": true,
          "internalType": "address",
          "name": "account",
          "type": "address"
        },
        {
          "indexed": false,
          "internalType": "uint256",
          "name": "value",
          "type": "uint256"
        },
        {
          "indexed": false,
          "internalType": "uint256",
          "name": "amount",
          "type": "uint256"
        }
      ],
      "name": "Withdraw",
      "type": "event"
    },
    {
      "inputs": [
        {
          "internalType": "contract IStrategy",
          "name": "strategy",
          "type": "address"
        }
      ],
      "name": "claimAll",
      "outputs": [],
      "stateMutability": "nonpayable",
      "type": "function"
    },
    {
      "inputs": [
        {
          "internalType": "contract IStrategy",
          "name": "strategy",
          "type": "address"
        },
        {
          "internalType": "contract IStrategyRouter",
          "name": "router",
          "type": "address"
        },
        {
          "internalType": "uint256",
          "name": "amount",
          "type": "uint256"
        },
        {
          "internalType": "uint256",
          "name": "slippage",
          "type": "uint256"
        },
        {
          "internalType": "bytes",
          "name": "data",
          "type": "bytes"
        }
      ],
      "name": "deposit",
      "outputs": [],
      "stateMutability": "payable",
      "type": "function"
    },
    {
      "inputs": [],
      "name": "factory",
      "outputs": [
        {
          "internalType": "address",
          "name": "",
          "type": "address"
        }
      ],
      "stateMutability": "view",
      "type": "function"
    },
    {
      "inputs": [
        {
          "internalType": "contract IStrategy",
          "name": "strategy",
          "type": "address"
        },
        {
          "internalType": "contract IStrategyRouter",
          "name": "router",
          "type": "address"
        },
        {
          "internalType": "bytes",
          "name": "data",
          "type": "bytes"
        }
      ],
      "name": "finalizeStructure",
      "outputs": [],
      "stateMutability": "nonpayable",
      "type": "function"
    },
    {
      "inputs": [
        {
          "internalType": "contract IStrategy",
          "name": "strategy",
          "type": "address"
        }
      ],
      "name": "finalizeTradeData",
      "outputs": [],
      "stateMutability": "nonpayable",
      "type": "function"
    },
    {
      "inputs": [
        {
          "internalType": "contract IStrategy",
          "name": "strategy",
          "type": "address"
        }
      ],
      "name": "finalizeValue",
      "outputs": [],
      "stateMutability": "nonpayable",
      "type": "function"
    },
    {
      "inputs": [],
      "name": "initialize",
      "outputs": [],
      "stateMutability": "nonpayable",
      "type": "function"
    },
    {
      "inputs": [
        {
          "internalType": "address",
          "name": "strategy",
          "type": "address"
        }
      ],
      "name": "initialized",
      "outputs": [
        {
          "internalType": "bool",
          "name": "",
          "type": "bool"
        }
      ],
      "stateMutability": "view",
      "type": "function"
    },
    {
      "inputs": [
        {
          "internalType": "contract IStrategy",
          "name": "strategy",
          "type": "address"
        }
      ],
      "name": "openStrategy",
      "outputs": [],
      "stateMutability": "nonpayable",
      "type": "function"
    },
    {
      "inputs": [],
      "name": "oracle",
      "outputs": [
        {
          "internalType": "contract IOracle",
          "name": "",
          "type": "address"
        }
      ],
      "stateMutability": "view",
      "type": "function"
    },
    {
      "inputs": [],
      "name": "pool",
      "outputs": [
        {
          "internalType": "address",
          "name": "",
          "type": "address"
        }
      ],
      "stateMutability": "view",
      "type": "function"
    },
    {
      "inputs": [
        {
          "internalType": "contract IStrategy",
          "name": "strategy",
          "type": "address"
        },
        {
          "internalType": "contract IStrategyRouter",
          "name": "router",
          "type": "address"
        },
        {
          "internalType": "bytes",
          "name": "data",
          "type": "bytes"
        }
      ],
      "name": "rebalance",
      "outputs": [],
      "stateMutability": "nonpayable",
      "type": "function"
    },
    {
      "inputs": [],
      "name": "rebalanceThresholdScalar",
      "outputs": [
        {
          "internalType": "uint256",
          "name": "",
          "type": "uint256"
        }
      ],
      "stateMutability": "view",
      "type": "function"
    },
    {
      "inputs": [
        {
          "internalType": "contract IStrategy",
          "name": "strategy",
          "type": "address"
        },
        {
          "internalType": "address",
          "name": "token",
          "type": "address"
        }
      ],
      "name": "repositionSynths",
      "outputs": [],
      "stateMutability": "nonpayable",
      "type": "function"
    },
    {
      "inputs": [
        {
          "internalType": "contract IStrategy",
          "name": "strategy",
          "type": "address"
        },
        {
          "components": [
            {
              "internalType": "address",
              "name": "item",
              "type": "address"
            },
            {
              "internalType": "int256",
              "name": "percentage",
              "type": "int256"
            },
            {
              "components": [
                {
                  "internalType": "address[]",
                  "name": "adapters",
                  "type": "address[]"
                },
                {
                  "internalType": "address[]",
                  "name": "path",
                  "type": "address[]"
                },
                {
                  "internalType": "bytes",
                  "name": "cache",
                  "type": "bytes"
                }
              ],
              "internalType": "struct StrategyTypes.TradeData",
              "name": "data",
              "type": "tuple"
            }
          ],
          "internalType": "struct StrategyTypes.StrategyItem[]",
          "name": "strategyItems",
          "type": "tuple[]"
        }
      ],
      "name": "restructure",
      "outputs": [],
      "stateMutability": "nonpayable",
      "type": "function"
    },
    {
      "inputs": [
        {
          "internalType": "contract IStrategy",
          "name": "strategy",
          "type": "address"
        }
      ],
      "name": "setStrategy",
      "outputs": [],
      "stateMutability": "nonpayable",
      "type": "function"
    },
    {
      "inputs": [
        {
          "internalType": "address",
          "name": "manager_",
          "type": "address"
        },
        {
          "internalType": "address",
          "name": "strategy_",
          "type": "address"
        },
        {
          "components": [
            {
              "internalType": "uint32",
              "name": "timelock",
              "type": "uint32"
            },
            {
              "internalType": "uint16",
              "name": "rebalanceThreshold",
              "type": "uint16"
            },
            {
              "internalType": "uint16",
              "name": "rebalanceSlippage",
              "type": "uint16"
            },
            {
              "internalType": "uint16",
              "name": "restructureSlippage",
              "type": "uint16"
            },
            {
              "internalType": "uint16",
              "name": "managementFee",
              "type": "uint16"
            },
            {
              "internalType": "bool",
              "name": "social",
              "type": "bool"
            },
            {
              "internalType": "bool",
              "name": "set",
              "type": "bool"
            }
          ],
          "internalType": "struct StrategyTypes.InitialState",
          "name": "state_",
          "type": "tuple"
        },
        {
          "internalType": "address",
          "name": "router_",
          "type": "address"
        },
        {
          "internalType": "bytes",
          "name": "data_",
          "type": "bytes"
        }
      ],
      "name": "setupStrategy",
      "outputs": [],
      "stateMutability": "payable",
      "type": "function"
    },
    {
      "inputs": [
        {
          "internalType": "address",
          "name": "strategy",
          "type": "address"
        }
      ],
      "name": "strategyState",
      "outputs": [
        {
          "components": [
            {
              "internalType": "uint32",
              "name": "timelock",
              "type": "uint32"
            },
            {
              "internalType": "uint16",
              "name": "rebalanceSlippage",
              "type": "uint16"
            },
            {
              "internalType": "uint16",
              "name": "restructureSlippage",
              "type": "uint16"
            },
            {
              "internalType": "bool",
              "name": "social",
              "type": "bool"
            },
            {
              "internalType": "bool",
              "name": "set",
              "type": "bool"
            }
          ],
          "internalType": "struct StrategyTypes.StrategyState",
          "name": "",
          "type": "tuple"
        }
      ],
      "stateMutability": "view",
      "type": "function"
    },
    {
      "inputs": [],
      "name": "updateAddresses",
      "outputs": [],
      "stateMutability": "nonpayable",
      "type": "function"
    },
    {
      "inputs": [
        {
          "internalType": "uint256",
          "name": "rebalanceTimelockPeriod",
          "type": "uint256"
        },
        {
          "internalType": "uint256",
          "name": "rebalanceThresholdScalar",
          "type": "uint256"
        }
      ],
      "name": "updateRebalanceParameters",
      "outputs": [],
      "stateMutability": "nonpayable",
      "type": "function"
    },
    {
      "inputs": [
        {
          "internalType": "contract IStrategy",
          "name": "strategy",
          "type": "address"
        },
        {
          "internalType": "address",
          "name": "item",
          "type": "address"
        },
        {
          "components": [
            {
              "internalType": "address[]",
              "name": "adapters",
              "type": "address[]"
            },
            {
              "internalType": "address[]",
              "name": "path",
              "type": "address[]"
            },
            {
              "internalType": "bytes",
              "name": "cache",
              "type": "bytes"
            }
          ],
          "internalType": "struct StrategyTypes.TradeData",
          "name": "data",
          "type": "tuple"
        }
      ],
      "name": "updateTradeData",
      "outputs": [],
      "stateMutability": "nonpayable",
      "type": "function"
    },
    {
      "inputs": [
        {
          "internalType": "contract IStrategy",
          "name": "strategy",
          "type": "address"
        },
        {
          "internalType": "enum StrategyTypes.TimelockCategory",
          "name": "category",
          "type": "uint8"
        },
        {
          "internalType": "uint256",
          "name": "newValue",
          "type": "uint256"
        }
      ],
      "name": "updateValue",
      "outputs": [],
      "stateMutability": "nonpayable",
      "type": "function"
    },
    {
      "inputs": [
        {
          "internalType": "address",
          "name": "strategy",
          "type": "address"
        },
        {
          "components": [
            {
              "internalType": "address",
              "name": "item",
              "type": "address"
            },
            {
              "internalType": "int256",
              "name": "percentage",
              "type": "int256"
            },
            {
              "components": [
                {
                  "internalType": "address[]",
                  "name": "adapters",
                  "type": "address[]"
                },
                {
                  "internalType": "address[]",
                  "name": "path",
                  "type": "address[]"
                },
                {
                  "internalType": "bytes",
                  "name": "cache",
                  "type": "bytes"
                }
              ],
              "internalType": "struct StrategyTypes.TradeData",
              "name": "data",
              "type": "tuple"
            }
          ],
          "internalType": "struct StrategyTypes.StrategyItem[]",
          "name": "newItems",
          "type": "tuple[]"
        }
      ],
      "name": "verifyStructure",
      "outputs": [],
      "stateMutability": "view",
      "type": "function"
    },
    {
      "inputs": [],
      "name": "weth",
      "outputs": [
        {
          "internalType": "address",
          "name": "",
          "type": "address"
        }
      ],
      "stateMutability": "view",
      "type": "function"
    },
    {
      "inputs": [],
      "name": "whitelist",
      "outputs": [
        {
          "internalType": "contract IWhitelist",
          "name": "",
          "type": "address"
        }
      ],
      "stateMutability": "view",
      "type": "function"
    },
    {
      "inputs": [
        {
          "internalType": "contract IStrategy",
          "name": "strategy",
          "type": "address"
        },
        {
          "internalType": "contract IStrategyRouter",
          "name": "router",
          "type": "address"
        },
        {
          "internalType": "uint256",
          "name": "amount",
          "type": "uint256"
        },
        {
          "internalType": "uint256",
          "name": "slippage",
          "type": "uint256"
        },
        {
          "internalType": "bytes",
          "name": "data",
          "type": "bytes"
        }
      ],
      "name": "withdrawETH",
      "outputs": [],
      "stateMutability": "nonpayable",
      "type": "function"
    },
    {
      "inputs": [
        {
          "internalType": "contract IStrategy",
          "name": "strategy",
          "type": "address"
        },
        {
          "internalType": "contract IStrategyRouter",
          "name": "router",
          "type": "address"
        },
        {
          "internalType": "uint256",
          "name": "amount",
          "type": "uint256"
        },
        {
          "internalType": "uint256",
          "name": "slippage",
          "type": "uint256"
        },
        {
          "internalType": "bytes",
          "name": "data",
          "type": "bytes"
        }
      ],
      "name": "withdrawWETH",
      "outputs": [],
      "stateMutability": "nonpayable",
      "type": "function"
    },
    {
      "stateMutability": "payable",
      "type": "receive"
    }
  ],
  "bytecode": "0x60a06040523480156200001157600080fd5b5060405162001ac538038062001ac58339810160408190526200003491620000e6565b603954610100900460ff168062000050575062000050620000e0565b806200005f575060395460ff16155b620000875760405162461bcd60e51b81526004016200007e9062000116565b60405180910390fd5b603954610100900460ff16158015620000b3576039805460ff1961ff0019909116610100171660011790555b6001600160601b0319606083901b166080528015620000d8576039805461ff00191690555b505062000164565b303b1590565b600060208284031215620000f8578081fd5b81516001600160a01b03811681146200010f578182fd5b9392505050565b6020808252602e908201527f496e697469616c697a61626c653a20636f6e747261637420697320616c72656160408201526d191e481a5b9a5d1a585b1a5e995960921b606082015260800190565b60805160601c61193e62000187600039806104ff52806109ce525061193e6000f3fe6080604052600436106101b05760003560e01c80637dc0d1d0116100ec578063c45a01551161008a578063dde684a511610064578063dde684a5146103a3578063e26db6fc146103d0578063e64e66d0146103e5578063f21f533914610400576101d6565b8063c45a015514610341578063cbca47db14610356578063d5504f0214610383576101d6565b80638e734e87116100c65780638e734e871461025e57806393e59dc1146102ef57806394b7f53914610304578063b947135214610326576101d6565b80637dc0d1d0146102c5578063805e09b4146101db5780638129fc1c146102da576101d6565b80633fc8cef311610159578063716e261511610133578063716e26151461028e57806371b8dc69146102a95780637240ffa8146102b757806377329f351461025e576101d6565b80633fc8cef3146102795780634e31a5b41461025e578063502117ed1461028e576101d6565b806329d7364a1161018a57806329d7364a146102435780632e61e8671461025e57806333a100ca1461025e576101d6565b806301843e93146101db57806316f0115b146101fd578063271c32d714610228576101d6565b366101d65760405162461bcd60e51b81526004016101cd906117b2565b60405180910390fd5b600080fd5b3480156101e757600080fd5b506101fb6101f6366004611435565b61041b565b005b34801561020957600080fd5b50610212610433565b60405161021f919061156c565b60405180910390f35b34801561023457600080fd5b506101fb6101f6366004611397565b34801561024f57600080fd5b506101fb6101f63660046113cf565b34801561026a57600080fd5b506101fb6101f6366004611149565b34801561028557600080fd5b50610212610442565b34801561029a57600080fd5b506101fb6101f6366004611495565b6101fb6101f6366004611495565b6101fb6101f6366004611181565b3480156102d157600080fd5b50610212610451565b3480156102e657600080fd5b506101fb610460565b3480156102fb57600080fd5b506102126104e8565b34801561031057600080fd5b506103196104f7565b60405161021f9190611895565b34801561033257600080fd5b506101fb6101f6366004611294565b34801561034d57600080fd5b506102126104fd565b34801561036257600080fd5b50610376610371366004611149565b610521565b60405161021f9190611580565b34801561038f57600080fd5b506101fb61039e366004611294565b61053e565b3480156103af57600080fd5b506103c36103be366004611149565b61093b565b60405161021f9190611847565b3480156103dc57600080fd5b506101fb6109ca565b3480156103f157600080fd5b506101fb6101f636600461154b565b34801561040c57600080fd5b506101fb6101f63660046114f0565b60405162461bcd60e51b81526004016101cd906117b2565b6007546001600160a01b031690565b6002546001600160a01b031690565b6001546001600160a01b031690565b603954610100900460ff16806104795750610479610c5b565b80610487575060395460ff16155b6104a35760405162461bcd60e51b81526004016101cd9061173d565b603954610100900460ff1615801561041b576039805460ff1961ff00199091166101001716600117905560405162461bcd60e51b81526004016101cd906117b2565b50565b6000546001600160a01b031690565b600a5490565b7f000000000000000000000000000000000000000000000000000000000000000081565b6001600160a01b0316600090815260046020526040902054151590565b600081511161055f5760405162461bcd60e51b81526004016101cd906115e9565b60006001600160a01b03168160008151811061057757fe5b6020026020010151600001516001600160a01b031614156105aa5760405162461bcd60e51b81526004016101cd90611698565b6000196001600160a01b0316816001835103815181106105c657fe5b6020026020010151600001516001600160a01b031614156105f95760405162461bcd60e51b81526004016101cd90611698565b6000610603610451565b6001600160a01b0316639d23c4c76040518163ffffffff1660e01b815260040160206040518083038186803b15801561063b57600080fd5b505afa15801561064f573d6000803e3d6000fd5b505050506040513d601f19601f820116820180604052508101906106739190611165565b90506000805b835181101561091357600084828151811061069057fe5b602002602001015160000151905081600014806106ef57508460018303815181106106b757fe5b6020026020010151600001516001600160a01b03168583815181106106d857fe5b6020026020010151600001516001600160a01b0316115b61070b5760405162461bcd60e51b81526004016101cd906115c2565b600085838151811061071957fe5b60200260200101516020015190506002600381111561073457fe5b6040516325f4e77960e21b81526001600160a01b038716906397d39de49061076090869060040161156c565b60206040518083038186803b15801561077857600080fd5b505afa15801561078c573d6000803e3d6000fd5b505050506040513d601f19601f820116820180604052508101906107b09190611533565b14156107ff5760008113156107d75760405162461bcd60e51b81526004016101cd90611620565b61270f198112156107fa5760405162461bcd60e51b81526004016101cd906117e9565b610842565b60008112156108205760405162461bcd60e51b81526004016101cd906116cf565b6127108113156108425760405162461bcd60e51b81526004016101cd906117e9565b6040516346a7483760e01b81526000906001600160a01b038716906346a748379061087190869060040161156c565b60206040518083038186803b15801561088957600080fd5b505afa15801561089d573d6000803e3d6000fd5b505050506040513d601f19601f820116820180604052508101906108c19190611533565b905060038114156108e45760405162461bcd60e51b81526004016101cd9061178b565b60028114156108f8576108f8888488610c61565b6109028583610e6a565b945050600190920191506106799050565b506103e881146109355760405162461bcd60e51b81526004016101cd90611706565b50505050565b610943610eb9565b506001600160a01b0316600090815260056020908152604091829020825160a081018452905463ffffffff8116825261ffff6401000000008204811693830193909352660100000000000081049092169281019290925260ff6801000000000000000082048116151560608401526901000000000000000000909104161515608082015290565b60007f00000000000000000000000000000000000000000000000000000000000000009050806001600160a01b03166393e59dc16040518163ffffffff1660e01b815260040160206040518083038186803b158015610a2857600080fd5b505afa158015610a3c573d6000803e3d6000fd5b505050506040513d601f19601f82011682018060405250810190610a609190611165565b6000806101000a8154816001600160a01b0302191690836001600160a01b031602179055506000816001600160a01b0316637dc0d1d06040518163ffffffff1660e01b815260040160206040518083038186803b158015610ac057600080fd5b505afa158015610ad4573d6000803e3d6000fd5b505050506040513d601f19601f82011682018060405250810190610af89190611165565b6001549091506001600160a01b03808316911614610c5757600180546001600160a01b0319166001600160a01b03831690811790915560408051633fc8cef360e01b81529051839291633fc8cef3916004808301926020929190829003018186803b158015610b6657600080fd5b505afa158015610b7a573d6000803e3d6000fd5b505050506040513d601f19601f82011682018060405250810190610b9e9190611165565b600260006101000a8154816001600160a01b0302191690836001600160a01b03160217905550806001600160a01b031663c92577756040518163ffffffff1660e01b815260040160206040518083038186803b158015610bfd57600080fd5b505afa158015610c11573d6000803e3d6000fd5b505050506040513d601f19601f82011682018060405250810190610c359190611165565b600380546001600160a01b0319166001600160a01b0392909216919091179055505b5050565b303b1590565b826001600160a01b0316826001600160a01b03161415610c935760405162461bcd60e51b81526004016101cd90611810565b816001600160a01b031663494089496040518163ffffffff1660e01b815260040160206040518083038186803b158015610ccc57600080fd5b505afa158015610ce0573d6000803e3d6000fd5b505050506040513d601f19601f82011682018060405250810190610d04919061137b565b15610d215760405162461bcd60e51b81526004016101cd9061158b565b6060826001600160a01b031663c06fad066040518163ffffffff1660e01b815260040160006040518083038186803b158015610d5c57600080fd5b505afa158015610d70573d6000803e3d6000fd5b505050506040513d6000823e601f3d908101601f19168201604052610d9891908101906112e2565b905060005b8151811015610e63576002836001600160a01b03166346a74837848481518110610dc357fe5b60200260200101516040518263ffffffff1660e01b8152600401610de7919061156c565b60206040518083038186803b158015610dff57600080fd5b505afa158015610e13573d6000803e3d6000fd5b505050506040513d601f19601f82011682018060405250810190610e379190611533565b1415610e5b57610e5b85838381518110610e4d57fe5b602002602001015185610c61565b600101610d9d565b5050505050565b6000828201818312801590610e7f5750838112155b80610e945750600083128015610e9457508381125b610eb05760405162461bcd60e51b81526004016101cd90611657565b90505b92915050565b6040805160a08101825260008082526020820181905291810182905260608101829052608081019190915290565b8035610eb3816118e5565b600082601f830112610f02578081fd5b8135610f15610f10826118c5565b61189e565b818152915060208083019084810181840286018201871015610f3657600080fd5b60005b84811015610f5e578135610f4c816118e5565b84529282019290820190600101610f39565b505050505092915050565b600082601f830112610f79578081fd5b8135610f87610f10826118c5565b818152915060208083019084810160005b84811015610f5e5781358701606080601f19838c03011215610fb957600080fd5b610fc28161189e565b610fce8b878501610ee7565b815260408381013587830152918301359167ffffffffffffffff831115610ff457600080fd5b6110028c888587010161108e565b90820152865250509282019290820190600101610f98565b8035610eb3816118fa565b600082601f830112611035578081fd5b813567ffffffffffffffff81111561104b578182fd5b61105e601f8201601f191660200161189e565b915080825283602082850101111561107557600080fd5b8060208401602084013760009082016020015292915050565b60006060828403121561109f578081fd5b6110a9606061189e565b9050813567ffffffffffffffff808211156110c357600080fd5b6110cf85838601610ef2565b835260208401359150808211156110e557600080fd5b6110f185838601610ef2565b6020840152604084013591508082111561110a57600080fd5b5061111784828501611025565b60408301525092915050565b803561ffff81168114610eb357600080fd5b803563ffffffff81168114610eb357600080fd5b60006020828403121561115a578081fd5b8135610eb0816118e5565b600060208284031215611176578081fd5b8151610eb0816118e5565b600080600080600085870361016081121561119a578182fd5b86356111a5816118e5565b955060208701356111b5816118e5565b945060e0603f19820112156111c8578182fd5b506111d360e061189e565b6111e08860408901611135565b81526111ef8860608901611123565b60208201526112018860808901611123565b60408201526112138860a08901611123565b60608201526112258860c08901611123565b60808201526112378860e0890161101a565b60a082015261124a88610100890161101a565b60c0820152925061125f876101208801610ee7565b915061014086013567ffffffffffffffff81111561127b578182fd5b61128788828901611025565b9150509295509295909350565b600080604083850312156112a6578182fd5b82356112b1816118e5565b9150602083013567ffffffffffffffff8111156112cc578182fd5b6112d885828601610f69565b9150509250929050565b600060208083850312156112f4578182fd5b825167ffffffffffffffff81111561130a578283fd5b8301601f8101851361131a578283fd5b8051611328610f10826118c5565b8181528381019083850185840285018601891015611344578687fd5b8694505b8385101561136f57805161135b816118e5565b835260019490940193918501918501611348565b50979650505050505050565b60006020828403121561138c578081fd5b8151610eb0816118fa565b600080604083850312156113a9578182fd5b82356113b4816118e5565b915060208301356113c4816118e5565b809150509250929050565b6000806000606084860312156113e3578081fd5b83356113ee816118e5565b925060208401356113fe816118e5565b9150604084013567ffffffffffffffff811115611419578182fd5b84016060818703121561142a578182fd5b809150509250925092565b600080600060608486031215611449578081fd5b8335611454816118e5565b92506020840135611464816118e5565b9150604084013567ffffffffffffffff81111561147f578182fd5b61148b86828701611025565b9150509250925092565b600080600080600060a086880312156114ac578283fd5b85356114b7816118e5565b945060208601356114c7816118e5565b93506040860135925060608601359150608086013567ffffffffffffffff81111561127b578182fd5b600080600060608486031215611504578081fd5b833561150f816118e5565b9250602084013560088110611522578182fd5b929592945050506040919091013590565b600060208284031215611544578081fd5b5051919050565b6000806040838503121561155d578182fd5b50508035926020909101359150565b6001600160a01b0391909116815260200190565b901515815260200190565b60208082526014908201527f53796e746873206e6f7420737570706f72746564000000000000000000000000604082015260600190565b6020808252600d908201526c4974656d206f72646572696e6760981b604082015260600190565b6020808252601a908201527f43616e6e6f742073657420656d70747920737472756374757265000000000000604082015260600190565b60208082526017908201527f446562742063616e6e6f7420626520706f736974697665000000000000000000604082015260600190565b60208082526021908201527f5369676e6564536166654d6174683a206164646974696f6e206f766572666c6f6040820152607760f81b606082015260800190565b60208082526011908201527f496e76616c6964206974656d2061646472000000000000000000000000000000604082015260600190565b60208082526018908201527f546f6b656e2063616e6e6f74206265206e656761746976650000000000000000604082015260600190565b60208082526016908201527f546f74616c2070657263656e746167652077726f6e6700000000000000000000604082015260600190565b6020808252602e908201527f496e697469616c697a61626c653a20636f6e747261637420697320616c72656160408201526d191e481a5b9a5d1a585b1a5e995960921b606082015260800190565b6020808252600d908201526c151bdad95b88189b1bd8dad959609a1b604082015260600190565b60208082526018908201527f5374726174656779436f6e74726f6c6c65725061757365640000000000000000604082015260600190565b6020808252600d908201526c4f7574206f6620626f756e647360981b604082015260600190565b60208082526011908201527f4379636c696320646570656e64656e6379000000000000000000000000000000604082015260600190565b600060a08201905063ffffffff8351168252602083015161ffff8082166020850152806040860151166040850152505060608301511515606083015260808301511515608083015292915050565b90815260200190565b60405181810167ffffffffffffffff811182821017156118bd57600080fd5b604052919050565b600067ffffffffffffffff8211156118db578081fd5b5060209081020190565b6001600160a01b03811681146104e557600080fd5b80151581146104e557600080fdfea2646970667358221220c61d75f0e5b0ed556f087ef1a0d2c949d3a2e885a644f6822b6b473cae0c1b2164736f6c634300060c0033",
  "linkReferences": {},
  "deployedLinkReferences": {}
}