{
  "_format": "hh-sol-artifact-1",
  "contractName": "BBronze",
  "sourceName": "@balancer-labs/core/contracts/BColor.sol",
  "abi": [
    {
      "constant": true,
      "inputs": [],
      "name": "getColor",
      "outputs": [
        {
          "internalType": "bytes32",
          "name": "",
          "type": "bytes32"
        }
      ],
      "payable": false,
      "stateMutability": "view",
      "type": "function"
    }
  ],
  "bytecode": "0x6080604052348015600f57600080fd5b5060878061001e6000396000f3fe6080604052348015600f57600080fd5b506004361060285760003560e01c80639a86139b14602d575b600080fd5b60336045565b60408051918252519081900360200190f35b6542524f4e5a4560d01b9056fea265627a7a72315820a0f172082cd2839f6d6f8580bcc737b64be766557cfe126d39253b67c45f2d9164736f6c634300050c0032",
  "linkReferences": {},
  "deployedLinkReferences": {}
}