{
    "_format": "hh-sol-artifact-1",
    "contractName": "CurveDepositZapRegistry",
    "sourceName": "contracts/oracles/registries/CurveDepositZapRegistry.sol",
    "abi": [
        {
            "anonymous": false,
            "inputs": [
                {
                    "indexed": true,
                    "internalType": "address",
                    "name": "previousOwner",
                    "type": "address"
                },
                {
                    "indexed": true,
                    "internalType": "address",
                    "name": "newOwner",
                    "type": "address"
                }
            ],
            "name": "OwnershipTransferred",
            "type": "event"
        },
        {
            "inputs": [
                {
                    "internalType": "address",
                    "name": "token",
                    "type": "address"
                },
                {
                    "internalType": "address",
                    "name": "depositZap",
                    "type": "address"
                },
                {
                    "internalType": "uint256",
                    "name": "indexType",
                    "type": "uint256"
                }
            ],
            "name": "addZap",
            "outputs": [],
            "stateMutability": "nonpayable",
            "type": "function"
        },
        {
            "inputs": [
                {
                    "internalType": "address",
                    "name": "zap",
                    "type": "address"
                }
            ],
            "name": "getIndexType",
            "outputs": [
                {
                    "internalType": "uint256",
                    "name": "",
                    "type": "uint256"
                }
            ],
            "stateMutability": "view",
            "type": "function"
        },
        {
            "inputs": [
                {
                    "internalType": "address",
                    "name": "token",
                    "type": "address"
                }
            ],
            "name": "getZap",
            "outputs": [
                {
                    "internalType": "address",
                    "name": "",
                    "type": "address"
                }
            ],
            "stateMutability": "view",
            "type": "function"
        },
        {
            "inputs": [],
            "name": "owner",
            "outputs": [
                {
                    "internalType": "address",
                    "name": "",
                    "type": "address"
                }
            ],
            "stateMutability": "view",
            "type": "function"
        },
        {
            "inputs": [],
            "name": "renounceOwnership",
            "outputs": [],
            "stateMutability": "nonpayable",
            "type": "function"
        },
        {
            "inputs": [
                {
                    "internalType": "address",
                    "name": "newOwner",
                    "type": "address"
                }
            ],
            "name": "transferOwnership",
            "outputs": [],
            "stateMutability": "nonpayable",
            "type": "function"
        }
    ],
    "bytecode": "0x608060405234801561001057600080fd5b50600061001b61006a565b600080546001600160a01b0319166001600160a01b0383169081178255604051929350917f8be0079c531659141344cd1fd0a4f28419497f9722a3daafe3b4186f6b6457e0908290a35061006e565b3390565b6104498061007d6000396000f3fe608060405234801561001057600080fd5b50600436106100625760003560e01c8063317d3735146100675780633db02416146100a9578063715018a6146100e15780638da5cb5b146100e957806391e2851f146100f1578063f2fde38b14610129575b600080fd5b61008d6004803603602081101561007d57600080fd5b50356001600160a01b031661014f565b604080516001600160a01b039092168252519081900360200190f35b6100df600480360360608110156100bf57600080fd5b506001600160a01b0381358116916020810135909116906040013561016d565b005b6100df610205565b61008d6102a7565b6101176004803603602081101561010757600080fd5b50356001600160a01b03166102b6565b60408051918252519081900360200190f35b6100df6004803603602081101561013f57600080fd5b50356001600160a01b03166102d1565b6001600160a01b039081166000908152600160205260409020541690565b6101756103c9565b6000546001600160a01b039081169116146101c5576040805162461bcd60e51b815260206004820181905260248201526000805160206103f4833981519152604482015290519081900360640190fd5b6001600160a01b0392831660009081526001602090815260408083208054969095166001600160a01b031990961686179094559381526002909352912055565b61020d6103c9565b6000546001600160a01b0390811691161461025d576040805162461bcd60e51b815260206004820181905260248201526000805160206103f4833981519152604482015290519081900360640190fd5b600080546040516001600160a01b03909116907f8be0079c531659141344cd1fd0a4f28419497f9722a3daafe3b4186f6b6457e0908390a3600080546001600160a01b0319169055565b6000546001600160a01b031690565b6001600160a01b031660009081526002602052604090205490565b6102d96103c9565b6000546001600160a01b03908116911614610329576040805162461bcd60e51b815260206004820181905260248201526000805160206103f4833981519152604482015290519081900360640190fd5b6001600160a01b03811661036e5760405162461bcd60e51b81526004018080602001828103825260268152602001806103ce6026913960400191505060405180910390fd5b600080546040516001600160a01b03808516939216917f8be0079c531659141344cd1fd0a4f28419497f9722a3daafe3b4186f6b6457e091a3600080546001600160a01b0319166001600160a01b0392909216919091179055565b339056fe4f776e61626c653a206e6577206f776e657220697320746865207a65726f20616464726573734f776e61626c653a2063616c6c6572206973206e6f7420746865206f776e6572a26469706673582212207363c1b65f699566c58d741c56353f12a97858023eefe148d1b60d6a46c8da8764736f6c634300060c0033",
    "linkReferences": {},
    "deployedLinkReferences": {}
}