{
    "_format": "hh-sol-artifact-1",
    "contractName": "CurveDepositZapRegistry",
    "sourceName": "contracts/oracles/registries/CurveDepositZapRegistry.sol",
    "abi": [
        {
            "anonymous": false,
            "inputs": [
                {
                    "indexed": true,
                    "internalType": "address",
                    "name": "previousOwner",
                    "type": "address"
                },
                {
                    "indexed": true,
                    "internalType": "address",
                    "name": "newOwner",
                    "type": "address"
                }
            ],
            "name": "OwnershipTransferred",
            "type": "event"
        },
        {
            "inputs": [
                {
                    "internalType": "address",
                    "name": "token",
                    "type": "address"
                },
                {
                    "internalType": "address",
                    "name": "depositZap",
                    "type": "address"
                }
            ],
            "name": "addZap",
            "outputs": [],
            "stateMutability": "nonpayable",
            "type": "function"
        },
        {
            "inputs": [
                {
                    "internalType": "address",
                    "name": "token",
                    "type": "address"
                }
            ],
            "name": "getZap",
            "outputs": [
                {
                    "internalType": "address",
                    "name": "",
                    "type": "address"
                }
            ],
            "stateMutability": "view",
            "type": "function"
        },
        {
            "inputs": [],
            "name": "owner",
            "outputs": [
                {
                    "internalType": "address",
                    "name": "",
                    "type": "address"
                }
            ],
            "stateMutability": "view",
            "type": "function"
        },
        {
            "inputs": [],
            "name": "renounceOwnership",
            "outputs": [],
            "stateMutability": "nonpayable",
            "type": "function"
        },
        {
            "inputs": [
                {
                    "internalType": "address",
                    "name": "newOwner",
                    "type": "address"
                }
            ],
            "name": "transferOwnership",
            "outputs": [],
            "stateMutability": "nonpayable",
            "type": "function"
        }
    ],
    "bytecode": "0x608060405234801561001057600080fd5b50600061001b61006a565b600080546001600160a01b0319166001600160a01b0383169081178255604051929350917f8be0079c531659141344cd1fd0a4f28419497f9722a3daafe3b4186f6b6457e0908290a35061006e565b3390565b6103d18061007d6000396000f3fe608060405234801561001057600080fd5b50600436106100575760003560e01c8063317d37351461005c57806351b073d01461009e578063715018a6146100ce5780638da5cb5b146100d6578063f2fde38b146100de575b600080fd5b6100826004803603602081101561007257600080fd5b50356001600160a01b0316610104565b604080516001600160a01b039092168252519081900360200190f35b6100cc600480360360408110156100b457600080fd5b506001600160a01b0381358116916020013516610122565b005b6100cc6101a8565b61008261024a565b6100cc600480360360208110156100f457600080fd5b50356001600160a01b0316610259565b6001600160a01b039081166000908152600160205260409020541690565b61012a610351565b6000546001600160a01b0390811691161461017a576040805162461bcd60e51b8152602060048201819052602482015260008051602061037c833981519152604482015290519081900360640190fd5b6001600160a01b03918216600090815260016020526040902080546001600160a01b03191691909216179055565b6101b0610351565b6000546001600160a01b03908116911614610200576040805162461bcd60e51b8152602060048201819052602482015260008051602061037c833981519152604482015290519081900360640190fd5b600080546040516001600160a01b03909116907f8be0079c531659141344cd1fd0a4f28419497f9722a3daafe3b4186f6b6457e0908390a3600080546001600160a01b0319169055565b6000546001600160a01b031690565b610261610351565b6000546001600160a01b039081169116146102b1576040805162461bcd60e51b8152602060048201819052602482015260008051602061037c833981519152604482015290519081900360640190fd5b6001600160a01b0381166102f65760405162461bcd60e51b81526004018080602001828103825260268152602001806103566026913960400191505060405180910390fd5b600080546040516001600160a01b03808516939216917f8be0079c531659141344cd1fd0a4f28419497f9722a3daafe3b4186f6b6457e091a3600080546001600160a01b0319166001600160a01b0392909216919091179055565b339056fe4f776e61626c653a206e6577206f776e657220697320746865207a65726f20616464726573734f776e61626c653a2063616c6c6572206973206e6f7420746865206f776e6572a26469706673582212206e4ca9c3e182de71eed7a61710ec82ad4979caefeb1b65cca6f0c2a443782cc164736f6c634300060c0033",
    "linkReferences": {},
    "deployedLinkReferences": {}
}