{
    "_format": "hh-sol-artifact-1",
    "contractName": "CurveAdapter",
    "sourceName": "contracts/adapters/exchanges/CurveAdapter.sol",
    "abi": [
        {
            "inputs": [
                {
                    "internalType": "address",
                    "name": "addressProvider_",
                    "type": "address"
                },
                {
                    "internalType": "address",
                    "name": "weth_",
                    "type": "address"
                }
            ],
            "stateMutability": "nonpayable",
            "type": "constructor"
        },
        {
            "inputs": [],
            "name": "addressProvider",
            "outputs": [
                {
                    "internalType": "contract ICurveAddressProvider",
                    "name": "",
                    "type": "address"
                }
            ],
            "stateMutability": "view",
            "type": "function"
        },
        {
            "inputs": [
                {
                    "internalType": "uint256",
                    "name": "amount",
                    "type": "uint256"
                },
                {
                    "internalType": "uint256",
                    "name": "expected",
                    "type": "uint256"
                },
                {
                    "internalType": "address",
                    "name": "tokenIn",
                    "type": "address"
                },
                {
                    "internalType": "address",
                    "name": "tokenOut",
                    "type": "address"
                },
                {
                    "internalType": "address",
                    "name": "from",
                    "type": "address"
                },
                {
                    "internalType": "address",
                    "name": "to",
                    "type": "address"
                }
            ],
            "name": "swap",
            "outputs": [],
            "stateMutability": "nonpayable",
            "type": "function"
        },
        {
            "inputs": [],
            "name": "weth",
            "outputs": [
                {
                    "internalType": "address",
                    "name": "",
                    "type": "address"
                }
            ],
            "stateMutability": "view",
            "type": "function"
        }
    ],
    "bytecode": "0x60c060405234801561001057600080fd5b50604051610cb5380380610cb583398101604081905261002f9161004e565b6001600160601b0319606091821b811660805291901b1660a05261009f565b60008060408385031215610060578182fd5b825161006b81610087565b602084015190925061007c81610087565b809150509250929050565b6001600160a01b038116811461009c57600080fd5b50565b60805160601c60a05160601c610be96100cc6000398060c0528061046c5250806104905250610be96000f3fe608060405234801561001057600080fd5b50600436106100415760003560e01c8063230f11c7146100465780632954018c1461005b5780633fc8cef314610079575b600080fd5b61005961005436600461083b565b610081565b005b61006361046a565b60405161007091906108c6565b60405180910390f35b61006361048e565b826001600160a01b0316846001600160a01b031614156100bc5760405162461bcd60e51b81526004016100b390610a26565b60405180910390fd5b60007f00000000000000000000000000000000000000000000000000000000000000006001600160a01b031663a262904b6040518163ffffffff1660e01b815260040160206040518083038186803b15801561011757600080fd5b505afa15801561012b573d6000803e3d6000fd5b505050506040513d601f19601f8201168201806040525081019061014f919061079f565b90506001600160a01b0383163014610176576101766001600160a01b03861684308a6104b2565b604051636982eb0b60e01b81526000906001600160a01b03831690636982eb0b906101a990899089908690600401610917565b60206040518083038186803b1580156101c157600080fd5b505afa1580156101d5573d6000803e3d6000fd5b505050506040513d601f19601f820116820180604052508101906101f9919061079f565b90506001600160a01b0381166102215760405162461bcd60e51b81526004016100b390610b2a565b6000806000846001600160a01b031663eb85226d858b8b6040518463ffffffff1660e01b8152600401610256939291906108f4565b60606040518083038186803b15801561026e57600080fd5b505afa158015610282573d6000803e3d6000fd5b505050506040513d601f19601f820116820180604052508101906102a691906107d7565b919450925090506102c16001600160a01b038a16858d610510565b801561033157836001600160a01b031663a6417ed684848e60016040518563ffffffff1660e01b81526004016102fa9493929190610954565b600060405180830381600087803b15801561031457600080fd5b505af1158015610328573d6000803e3d6000fd5b50505050610397565b836001600160a01b0316633df0212484848e60016040518563ffffffff1660e01b81526004016103649493929190610954565b600060405180830381600087803b15801561037e57600080fd5b505af1158015610392573d6000803e3d6000fd5b505050505b6040516370a0823160e01b81526000906001600160a01b038a16906370a08231906103c69030906004016108c6565b60206040518083038186803b1580156103de57600080fd5b505afa1580156103f2573d6000803e3d6000fd5b505050506040513d601f19601f820116820180604052508101906104169190610823565b90508a8110156104385760405162461bcd60e51b81526004016100b3906109f0565b6001600160a01b038716301461045c5761045c6001600160a01b038a1688836105d8565b505050505050505050505050565b7f000000000000000000000000000000000000000000000000000000000000000081565b7f000000000000000000000000000000000000000000000000000000000000000081565b61050a846323b872dd60e01b8585856040516024016104d393929190610917565b60408051601f198184030181529190526020810180516001600160e01b03166001600160e01b0319909316929092179091526105f7565b50505050565b8015806105985750604051636eb1769f60e11b81526001600160a01b0384169063dd62ed3e9061054690309086906004016108da565b60206040518083038186803b15801561055e57600080fd5b505afa158015610572573d6000803e3d6000fd5b505050506040513d601f19601f820116820180604052508101906105969190610823565b155b6105b45760405162461bcd60e51b81526004016100b390610ad4565b6105d38363095ea7b360e01b84846040516024016104d392919061093b565b505050565b6105d38363a9059cbb60e01b84846040516024016104d392919061093b565b606061064c826040518060400160405280602081526020017f5361666545524332303a206c6f772d6c6576656c2063616c6c206661696c6564815250856001600160a01b03166106869092919063ffffffff16565b8051909150156105d3578080602001905181019061066a91906107bb565b6105d35760405162461bcd60e51b81526004016100b390610a8a565b6060610695848460008561069f565b90505b9392505050565b6060824710156106c15760405162461bcd60e51b81526004016100b3906109aa565b6106ca85610760565b6106e65760405162461bcd60e51b81526004016100b390610a53565b60006060866001600160a01b0316858760405161070391906108aa565b60006040518083038185875af1925050503d8060008114610740576040519150601f19603f3d011682016040523d82523d6000602084013e610745565b606091505b5091509150610755828286610766565b979650505050505050565b3b151590565b60608315610775575081610698565b8251156107855782518084602001fd5b8160405162461bcd60e51b81526004016100b39190610977565b6000602082840312156107b0578081fd5b815161069881610b7e565b6000602082840312156107cc578081fd5b815161069881610b96565b6000806000606084860312156107eb578182fd5b83516107f681610ba4565b602085015190935061080781610ba4565b604085015190925061081881610b96565b809150509250925092565b600060208284031215610834578081fd5b5051919050565b60008060008060008060c08789031215610853578182fd5b8635955060208701359450604087013561086c81610b7e565b9350606087013561087c81610b7e565b9250608087013561088c81610b7e565b915060a087013561089c81610b7e565b809150509295509295509295565b600082516108bc818460208701610b52565b9190910192915050565b6001600160a01b0391909116815260200190565b6001600160a01b0392831681529116602082015260400190565b6001600160a01b0393841681529183166020830152909116604082015260600190565b6001600160a01b039384168152919092166020820152604081019190915260600190565b6001600160a01b03929092168252602082015260400190565b600f94850b81529290930b60208301526040820152606081019190915260800190565b6000602082528251806020840152610996816040850160208701610b52565b601f01601f19169190910160400192915050565b60208082526026908201527f416464726573733a20696e73756666696369656e742062616c616e636520666f6040820152651c8818d85b1b60d21b606082015260800190565b6020808252601c908201527b125b9cdd59999a58da595b9d081d1bdad95b93dd5d08185b5bdd5b9d60221b604082015260600190565b6020808252601390820152720a8ded6cadce640c6c2dcdcdee840dac2e8c6d606b1b604082015260600190565b6020808252601d908201527f416464726573733a2063616c6c20746f206e6f6e2d636f6e7472616374000000604082015260600190565b6020808252602a908201527f5361666545524332303a204552433230206f7065726174696f6e20646964206e6040820152691bdd081cdd58d8d9595960b21b606082015260800190565b60208082526036908201527f5361666545524332303a20617070726f76652066726f6d206e6f6e2d7a65726f60408201527520746f206e6f6e2d7a65726f20616c6c6f77616e636560501b606082015260800190565b6020808252600e908201526d141bdbdb081b9bdd08199bdd5b9960921b604082015260600190565b60005b83811015610b6d578181015183820152602001610b55565b8381111561050a5750506000910152565b6001600160a01b0381168114610b9357600080fd5b50565b8015158114610b9357600080fd5b80600f0b8114610b9357600080fdfea26469706673582212205f8e1907e5c026c16bbdacd4e1c482c402f7bb83d69c142d67421a2e7d64dd7f64736f6c634300060c0033",
    "linkReferences": {},
    "deployedLinkReferences": {}
}