{
    "_format": "hh-sol-artifact-1",
    "contractName": "CompoundAdapter",
    "sourceName": "contracts/adapters/lending/CompoundAdapter.sol",
    "abi": [
        {
            "inputs": [
                {
                    "internalType": "address",
                    "name": "comptroller_",
                    "type": "address"
                },
                {
                    "internalType": "address",
                    "name": "weth_",
                    "type": "address"
                }
            ],
            "stateMutability": "nonpayable",
            "type": "constructor"
        },
        {
            "inputs": [
                {
                    "internalType": "address",
                    "name": "token",
                    "type": "address"
                }
            ],
            "name": "claim",
            "outputs": [],
            "stateMutability": "nonpayable",
            "type": "function"
        },
        {
            "inputs": [],
            "name": "comptroller",
            "outputs": [
                {
                    "internalType": "contract IComptroller",
                    "name": "",
                    "type": "address"
                }
            ],
            "stateMutability": "view",
            "type": "function"
        },
        {
            "inputs": [],
            "name": "gasCostProvider",
            "outputs": [
                {
                    "internalType": "contract GasCostProvider",
                    "name": "",
                    "type": "address"
                }
            ],
            "stateMutability": "view",
            "type": "function"
        },
        {
            "inputs": [
                {
                    "internalType": "uint256",
                    "name": "amount",
                    "type": "uint256"
                },
                {
                    "internalType": "uint256",
                    "name": "expected",
                    "type": "uint256"
                },
                {
                    "internalType": "address",
                    "name": "tokenIn",
                    "type": "address"
                },
                {
                    "internalType": "address",
                    "name": "tokenOut",
                    "type": "address"
                },
                {
                    "internalType": "address",
                    "name": "from",
                    "type": "address"
                },
                {
                    "internalType": "address",
                    "name": "to",
                    "type": "address"
                }
            ],
            "name": "swap",
            "outputs": [],
            "stateMutability": "nonpayable",
            "type": "function"
        },
        {
            "inputs": [],
            "name": "weth",
            "outputs": [
                {
                    "internalType": "address",
                    "name": "",
                    "type": "address"
                }
            ],
            "stateMutability": "view",
            "type": "function"
        }
    ],
    "bytecode": "0x60e060405234801561001057600080fd5b5060405161135d38038061135d83398101604081905261002f916100a8565b6001600160601b0319606082811b821660805283901b1660a05260405161019090339061005b9061009b565b6100669291906100e1565b604051809103906000f080158015610082573d6000803e3d6000fd5b5060601b6001600160601b03191660c052506101109050565b61055780610e0683390190565b600080604083850312156100ba578182fd5b82516100c5816100f8565b60208401519092506100d6816100f8565b809150509250929050565b9182526001600160a01b0316602082015260400190565b6001600160a01b038116811461010d57600080fd5b50565b60805160601c60a05160601c60c05160601c610cb761014f600039806105ce528061067852508061010652806105aa5250806105865250610cb76000f3fe608060405234801561001057600080fd5b50600436106100575760003560e01c80631e83409a1461005c578063230f11c7146100715780633fc8cef3146100845780635fe3b567146100a2578063a555e74b146100aa575b600080fd5b61006f61006a366004610909565b6100b2565b005b61006f61007f366004610979565b610175565b61008c610584565b6040516100999190610a04565b60405180910390f35b61008c6105a8565b61008c6105cc565b6040805160018082528183019092526060916020808301908036833701905050905081816000815181106100e257fe5b6001600160a01b03928316602091820292909201015260405162e1ed9760e51b81527f000000000000000000000000000000000000000000000000000000000000000090911690631c3db2e09061013f9030908590600401610a3c565b600060405180830381600087803b15801561015957600080fd5b505af115801561016d573d6000803e3d6000fd5b505050505050565b826001600160a01b0316846001600160a01b031614156101b05760405162461bcd60e51b81526004016101a790610b86565b60405180910390fd5b6001600160a01b03821630146101d5576101d56001600160a01b0385168330896105f0565b6101de8361064e565b1561038f576000839050846001600160a01b0316816001600160a01b0316636f307dc36040518163ffffffff1660e01b815260040160206040518083038186803b15801561022b57600080fd5b505afa15801561023f573d6000803e3d6000fd5b505050506040513d601f19601f820116820180604052508101906102639190610925565b6001600160a01b0316146102895760405162461bcd60e51b81526004016101a790610ae4565b60405163095ea7b360e01b81526001600160a01b0386169063095ea7b3906102b79087908b90600401610a98565b602060405180830381600087803b1580156102d157600080fd5b505af11580156102e5573d6000803e3d6000fd5b505050506040513d601f19601f820116820180604052508101906103099190610941565b5060405163140e25ad60e31b81526001600160a01b0382169063a0712d6890610336908a90600401610c34565b602060405180830381600087803b15801561035057600080fd5b505af1158015610364573d6000803e3d6000fd5b505050506040513d601f19601f820116820180604052508101906103889190610961565b50506104b6565b6000849050836001600160a01b0316816001600160a01b0316636f307dc36040518163ffffffff1660e01b815260040160206040518083038186803b1580156103d757600080fd5b505afa1580156103eb573d6000803e3d6000fd5b505050506040513d601f19601f8201168201806040525081019061040f9190610925565b6001600160a01b0316146104355760405162461bcd60e51b81526004016101a790610ae4565b60405163db006a7560e01b81526001600160a01b0382169063db006a7590610461908a90600401610c34565b602060405180830381600087803b15801561047b57600080fd5b505af115801561048f573d6000803e3d6000fd5b505050506040513d601f19601f820116820180604052508101906104b39190610961565b50505b6040516370a0823160e01b81526000906001600160a01b038516906370a08231906104e5903090600401610a04565b60206040518083038186803b1580156104fd57600080fd5b505afa158015610511573d6000803e3d6000fd5b505050506040513d601f19601f820116820180604052508101906105359190610961565b9050858110156105575760405162461bcd60e51b81526004016101a790610b50565b6001600160a01b038216301461057b5761057b6001600160a01b038516838361073d565b50505050505050565b7f000000000000000000000000000000000000000000000000000000000000000081565b7f000000000000000000000000000000000000000000000000000000000000000081565b7f000000000000000000000000000000000000000000000000000000000000000081565b610648846323b872dd60e01b85858560405160240161061193929190610a18565b60408051601f198184030181529190526020810180516001600160e01b03166001600160e01b031990931692909217909152610761565b50505050565b6000807ffe9c44aeb9aa3bd9800cbbeef59b38e7295a4671305eb11aea7bb897e4eea907905060007f00000000000000000000000000000000000000000000000000000000000000006001600160a01b0316631d5e3fe56040518163ffffffff1660e01b815260040160206040518083038186803b1580156106cf57600080fd5b505afa1580156106e3573d6000803e3d6000fd5b505050506040513d601f19601f820116820180604052508101906107079190610961565b9050600080604051602081016040528481526020816004838a88fa925080519150508180156107335750805b9695505050505050565b61075c8363a9059cbb60e01b8484604051602401610611929190610a98565b505050565b60606107b6826040518060400160405280602081526020017f5361666545524332303a206c6f772d6c6576656c2063616c6c206661696c6564815250856001600160a01b03166107f09092919063ffffffff16565b80519091501561075c57808060200190518101906107d49190610941565b61075c5760405162461bcd60e51b81526004016101a790610bea565b60606107ff8484600085610809565b90505b9392505050565b60608247101561082b5760405162461bcd60e51b81526004016101a790610b0a565b610834856108ca565b6108505760405162461bcd60e51b81526004016101a790610bb3565b60006060866001600160a01b0316858760405161086d91906109e8565b60006040518083038185875af1925050503d80600081146108aa576040519150601f19603f3d011682016040523d82523d6000602084013e6108af565b606091505b50915091506108bf8282866108d0565b979650505050505050565b3b151590565b606083156108df575081610802565b8251156108ef5782518084602001fd5b8160405162461bcd60e51b81526004016101a79190610ab1565b60006020828403121561091a578081fd5b813561080281610c69565b600060208284031215610936578081fd5b815161080281610c69565b600060208284031215610952578081fd5b81518015158114610802578182fd5b600060208284031215610972578081fd5b5051919050565b60008060008060008060c08789031215610991578182fd5b863595506020870135945060408701356109aa81610c69565b935060608701356109ba81610c69565b925060808701356109ca81610c69565b915060a08701356109da81610c69565b809150509295509295509295565b600082516109fa818460208701610c3d565b9190910192915050565b6001600160a01b0391909116815260200190565b6001600160a01b039384168152919092166020820152604081019190915260600190565b6001600160a01b038381168252604060208084018290528451918401829052600092858201929091906060860190855b81811015610a8a578551851683529483019491830191600101610a6c565b509098975050505050505050565b6001600160a01b03929092168252602082015260400190565b6000602082528251806020840152610ad0816040850160208701610c3d565b601f01601f19169190910160400192915050565b6020808252600c908201526b496e636f6d70617469626c6560a01b604082015260600190565b60208082526026908201527f416464726573733a20696e73756666696369656e742062616c616e636520666f6040820152651c8818d85b1b60d21b606082015260800190565b6020808252601c908201527b125b9cdd59999a58da595b9d081d1bdad95b93dd5d08185b5bdd5b9d60221b604082015260600190565b6020808252601390820152720a8ded6cadce640c6c2dcdcdee840dac2e8c6d606b1b604082015260600190565b6020808252601d908201527f416464726573733a2063616c6c20746f206e6f6e2d636f6e7472616374000000604082015260600190565b6020808252602a908201527f5361666545524332303a204552433230206f7065726174696f6e20646964206e6040820152691bdd081cdd58d8d9595960b21b606082015260800190565b90815260200190565b60005b83811015610c58578181015183820152602001610c40565b838111156106485750506000910152565b6001600160a01b0381168114610c7e57600080fd5b5056fea2646970667358221220dd7adf71ee2fd53f2ef403360ce5c80bc7d26fbd3f168ade26eca0c960cd3dd164736f6c634300060c0033608060405234801561001057600080fd5b506040516105573803806105578339818101604052604081101561003357600080fd5b5080516020909101516000610046610093565b600080546001600160a01b0319166001600160a01b038316908117825560405192935091600080516020610537833981519152908290a350600182905561008c81610097565b505061018f565b3390565b61009f610093565b6000546001600160a01b03908116911614610101576040805162461bcd60e51b815260206004820181905260248201527f4f776e61626c653a2063616c6c6572206973206e6f7420746865206f776e6572604482015290519081900360640190fd5b6001600160a01b0381166101465760405162461bcd60e51b81526004018080602001828103825260268152602001806105116026913960400191505060405180910390fd5b600080546040516001600160a01b038085169392169160008051602061053783398151915291a3600080546001600160a01b0319166001600160a01b0392909216919091179055565b6103738061019e6000396000f3fe608060405234801561001057600080fd5b50600436106100575760003560e01c80631d5e3fe51461005c578063715018a6146100765780638da5cb5b14610080578063b227a534146100a4578063f2fde38b146100c1575b600080fd5b6100646100e7565b60408051918252519081900360200190f35b61007e6100ed565b005b61008861018f565b604080516001600160a01b039092168252519081900360200190f35b61007e600480360360208110156100ba57600080fd5b503561019e565b61007e600480360360208110156100d757600080fd5b50356001600160a01b03166101fb565b60015481565b6100f56102f3565b6000546001600160a01b03908116911614610145576040805162461bcd60e51b8152602060048201819052602482015260008051602061031e833981519152604482015290519081900360640190fd5b600080546040516001600160a01b03909116907f8be0079c531659141344cd1fd0a4f28419497f9722a3daafe3b4186f6b6457e0908390a3600080546001600160a01b0319169055565b6000546001600160a01b031690565b6101a66102f3565b6000546001600160a01b039081169116146101f6576040805162461bcd60e51b8152602060048201819052602482015260008051602061031e833981519152604482015290519081900360640190fd5b600155565b6102036102f3565b6000546001600160a01b03908116911614610253576040805162461bcd60e51b8152602060048201819052602482015260008051602061031e833981519152604482015290519081900360640190fd5b6001600160a01b0381166102985760405162461bcd60e51b81526004018080602001828103825260268152602001806102f86026913960400191505060405180910390fd5b600080546040516001600160a01b03808516939216917f8be0079c531659141344cd1fd0a4f28419497f9722a3daafe3b4186f6b6457e091a3600080546001600160a01b0319166001600160a01b0392909216919091179055565b339056fe4f776e61626c653a206e6577206f776e657220697320746865207a65726f20616464726573734f776e61626c653a2063616c6c6572206973206e6f7420746865206f776e6572a2646970667358221220db74bee37227cde69c27937852ed0dd8a00ff93a8381e0059ea7d632c505835d64736f6c634300060c00334f776e61626c653a206e6577206f776e657220697320746865207a65726f20616464726573738be0079c531659141344cd1fd0a4f28419497f9722a3daafe3b4186f6b6457e0",
    "linkReferences": {},
    "deployedLinkReferences": {}
}