{
    "_format": "hh-sol-artifact-1",
    "contractName": "CompoundAdapter",
    "sourceName": "contracts/adapters/lending/CompoundAdapter.sol",
    "abi": [
        {
            "inputs": [
                {
                    "internalType": "address",
                    "name": "comptroller_",
                    "type": "address"
                },
                {
                    "internalType": "address",
                    "name": "weth_",
                    "type": "address"
                }
            ],
            "stateMutability": "nonpayable",
            "type": "constructor"
        },
        {
            "inputs": [
                {
                    "internalType": "address",
                    "name": "token",
                    "type": "address"
                }
            ],
            "name": "claim",
            "outputs": [],
            "stateMutability": "nonpayable",
            "type": "function"
        },
        {
            "inputs": [],
            "name": "comptroller",
            "outputs": [
                {
                    "internalType": "contract IComptroller",
                    "name": "",
                    "type": "address"
                }
            ],
            "stateMutability": "view",
            "type": "function"
        },
        {
            "inputs": [
                {
                    "internalType": "uint256",
                    "name": "amount",
                    "type": "uint256"
                },
                {
                    "internalType": "address",
                    "name": "tokenIn",
                    "type": "address"
                },
                {
                    "internalType": "address",
                    "name": "tokenOut",
                    "type": "address"
                }
            ],
            "name": "spotPrice",
            "outputs": [
                {
                    "internalType": "uint256",
                    "name": "",
                    "type": "uint256"
                }
            ],
            "stateMutability": "view",
            "type": "function"
        },
        {
            "inputs": [
                {
                    "internalType": "uint256",
                    "name": "amount",
                    "type": "uint256"
                },
                {
                    "internalType": "uint256",
                    "name": "expected",
                    "type": "uint256"
                },
                {
                    "internalType": "address",
                    "name": "tokenIn",
                    "type": "address"
                },
                {
                    "internalType": "address",
                    "name": "tokenOut",
                    "type": "address"
                },
                {
                    "internalType": "address",
                    "name": "from",
                    "type": "address"
                },
                {
                    "internalType": "address",
                    "name": "to",
                    "type": "address"
                }
            ],
            "name": "swap",
            "outputs": [],
            "stateMutability": "nonpayable",
            "type": "function"
        },
        {
            "inputs": [],
            "name": "weth",
            "outputs": [
                {
                    "internalType": "address",
                    "name": "",
                    "type": "address"
                }
            ],
            "stateMutability": "view",
            "type": "function"
        }
    ],
    "bytecode": "0x60c060405234801561001057600080fd5b5060405161109638038061109683398101604081905261002f9161004e565b6001600160601b0319606091821b811660805291901b1660a05261009f565b60008060408385031215610060578182fd5b825161006b81610087565b602084015190925061007c81610087565b809150509250929050565b6001600160a01b038116811461009c57600080fd5b50565b60805160601c60a05160601c610fc96100cd6000398061011e52806105c252508061059e5250610fc96000f3fe608060405234801561001057600080fd5b50600436106100575760003560e01c80631e83409a1461005c578063230f11c7146100715780633fc8cef3146100845780635fe3b567146100a257806377ec159d146100aa575b600080fd5b61006f61006a366004610b99565b6100ca565b005b61006f61007f366004610c4a565b61018d565b61008c61059c565b6040516100999190610cd5565b60405180910390f35b61008c6105c0565b6100bd6100b8366004610c09565b6105e4565b6040516100999190610f46565b6040805160018082528183019092526060916020808301908036833701905050905081816000815181106100fa57fe5b6001600160a01b03928316602091820292909201015260405162e1ed9760e51b81527f000000000000000000000000000000000000000000000000000000000000000090911690631c3db2e0906101579030908590600401610d0d565b600060405180830381600087803b15801561017157600080fd5b505af1158015610185573d6000803e3d6000fd5b505050505050565b826001600160a01b0316846001600160a01b031614156101c85760405162461bcd60e51b81526004016101bf90610e98565b60405180910390fd5b6001600160a01b03821630146101ed576101ed6001600160a01b03851683308961086f565b6101f6836108cd565b156103a7576000839050846001600160a01b0316816001600160a01b0316636f307dc36040518163ffffffff1660e01b815260040160206040518083038186803b15801561024357600080fd5b505afa158015610257573d6000803e3d6000fd5b505050506040513d601f19601f8201168201806040525081019061027b9190610bb5565b6001600160a01b0316146102a15760405162461bcd60e51b81526004016101bf90610db5565b60405163095ea7b360e01b81526001600160a01b0386169063095ea7b3906102cf9087908b90600401610d69565b602060405180830381600087803b1580156102e957600080fd5b505af11580156102fd573d6000803e3d6000fd5b505050506040513d601f19601f820116820180604052508101906103219190610bd1565b5060405163140e25ad60e31b81526001600160a01b0382169063a0712d689061034e908a90600401610f46565b602060405180830381600087803b15801561036857600080fd5b505af115801561037c573d6000803e3d6000fd5b505050506040513d601f19601f820116820180604052508101906103a09190610bf1565b50506104ce565b6000849050836001600160a01b0316816001600160a01b0316636f307dc36040518163ffffffff1660e01b815260040160206040518083038186803b1580156103ef57600080fd5b505afa158015610403573d6000803e3d6000fd5b505050506040513d601f19601f820116820180604052508101906104279190610bb5565b6001600160a01b03161461044d5760405162461bcd60e51b81526004016101bf90610db5565b60405163db006a7560e01b81526001600160a01b0382169063db006a7590610479908a90600401610f46565b602060405180830381600087803b15801561049357600080fd5b505af11580156104a7573d6000803e3d6000fd5b505050506040513d601f19601f820116820180604052508101906104cb9190610bf1565b50505b6040516370a0823160e01b81526000906001600160a01b038516906370a08231906104fd903090600401610cd5565b60206040518083038186803b15801561051557600080fd5b505afa158015610529573d6000803e3d6000fd5b505050506040513d601f19601f8201168201806040525081019061054d9190610bf1565b90508581101561056f5760405162461bcd60e51b81526004016101bf90610e21565b6001600160a01b0382163014610593576105936001600160a01b0385168383610916565b50505050505050565b7f000000000000000000000000000000000000000000000000000000000000000081565b7f000000000000000000000000000000000000000000000000000000000000000081565b6000816001600160a01b0316836001600160a01b03161415610607575082610868565b610610826108cd565b1561073e576000829050836001600160a01b0316816001600160a01b0316636f307dc36040518163ffffffff1660e01b815260040160206040518083038186803b15801561065d57600080fd5b505afa158015610671573d6000803e3d6000fd5b505050506040513d601f19601f820116820180604052508101906106959190610bb5565b6001600160a01b0316141561073857610730816001600160a01b031663182df0f56040518163ffffffff1660e01b815260040160206040518083038186803b1580156106e057600080fd5b505afa1580156106f4573d6000803e3d6000fd5b505050506040513d601f19601f820116820180604052508101906107189190610bf1565b61072a87670de0b6b3a764000061093a565b9061097d565b915050610868565b50610864565b610747836108cd565b15610864576000839050826001600160a01b0316816001600160a01b0316636f307dc36040518163ffffffff1660e01b815260040160206040518083038186803b15801561079457600080fd5b505afa1580156107a8573d6000803e3d6000fd5b505050506040513d601f19601f820116820180604052508101906107cc9190610bb5565b6001600160a01b0316141561086257610730670de0b6b3a764000061072a836001600160a01b031663182df0f56040518163ffffffff1660e01b815260040160206040518083038186803b15801561082357600080fd5b505afa158015610837573d6000803e3d6000fd5b505050506040513d601f19601f8201168201806040525081019061085b9190610bf1565b889061093a565b505b5060005b9392505050565b6108c7846323b872dd60e01b85858560405160240161089093929190610ce9565b60408051601f198184030181529190526020810180516001600160e01b03166001600160e01b0319909316929092179091526109bc565b50505050565b6000807ffe9c44aeb9aa3bd9800cbbeef59b38e7295a4671305eb11aea7bb897e4eea907905060006040516020810160405282815260208160048388610190fa95945050505050565b6109358363a9059cbb60e01b8484604051602401610890929190610d69565b505050565b60008261094957506000610977565b8282028284828161095657fe5b04146109745760405162461bcd60e51b81526004016101bf90610e57565b90505b92915050565b600061097483836040518060400160405280601a815260200179536166654d6174683a206469766973696f6e206279207a65726f60301b815250610a4b565b6060610a11826040518060400160405280602081526020017f5361666545524332303a206c6f772d6c6576656c2063616c6c206661696c6564815250856001600160a01b0316610a829092919063ffffffff16565b8051909150156109355780806020019051810190610a2f9190610bd1565b6109355760405162461bcd60e51b81526004016101bf90610efc565b60008183610a6c5760405162461bcd60e51b81526004016101bf9190610d82565b506000838581610a7857fe5b0495945050505050565b6060610a918484600085610a99565b949350505050565b606082471015610abb5760405162461bcd60e51b81526004016101bf90610ddb565b610ac485610b5a565b610ae05760405162461bcd60e51b81526004016101bf90610ec5565b60006060866001600160a01b03168587604051610afd9190610cb9565b60006040518083038185875af1925050503d8060008114610b3a576040519150601f19603f3d011682016040523d82523d6000602084013e610b3f565b606091505b5091509150610b4f828286610b60565b979650505050505050565b3b151590565b60608315610b6f575081610868565b825115610b7f5782518084602001fd5b8160405162461bcd60e51b81526004016101bf9190610d82565b600060208284031215610baa578081fd5b813561097481610f7b565b600060208284031215610bc6578081fd5b815161097481610f7b565b600060208284031215610be2578081fd5b81518015158114610974578182fd5b600060208284031215610c02578081fd5b5051919050565b600080600060608486031215610c1d578182fd5b833592506020840135610c2f81610f7b565b91506040840135610c3f81610f7b565b809150509250925092565b60008060008060008060c08789031215610c62578182fd5b86359550602087013594506040870135610c7b81610f7b565b93506060870135610c8b81610f7b565b92506080870135610c9b81610f7b565b915060a0870135610cab81610f7b565b809150509295509295509295565b60008251610ccb818460208701610f4f565b9190910192915050565b6001600160a01b0391909116815260200190565b6001600160a01b039384168152919092166020820152604081019190915260600190565b6001600160a01b038381168252604060208084018290528451918401829052600092858201929091906060860190855b81811015610d5b578551851683529483019491830191600101610d3d565b509098975050505050505050565b6001600160a01b03929092168252602082015260400190565b6000602082528251806020840152610da1816040850160208701610f4f565b601f01601f19169190910160400192915050565b6020808252600c908201526b496e636f6d70617469626c6560a01b604082015260600190565b60208082526026908201527f416464726573733a20696e73756666696369656e742062616c616e636520666f6040820152651c8818d85b1b60d21b606082015260800190565b6020808252601c908201527b125b9cdd59999a58da595b9d081d1bdad95b93dd5d08185b5bdd5b9d60221b604082015260600190565b60208082526021908201527f536166654d6174683a206d756c7469706c69636174696f6e206f766572666c6f6040820152607760f81b606082015260800190565b6020808252601390820152720a8ded6cadce640c6c2dcdcdee840dac2e8c6d606b1b604082015260600190565b6020808252601d908201527f416464726573733a2063616c6c20746f206e6f6e2d636f6e7472616374000000604082015260600190565b6020808252602a908201527f5361666545524332303a204552433230206f7065726174696f6e20646964206e6040820152691bdd081cdd58d8d9595960b21b606082015260800190565b90815260200190565b60005b83811015610f6a578181015183820152602001610f52565b838111156108c75750506000910152565b6001600160a01b0381168114610f9057600080fd5b5056fea26469706673582212202107b966a608915b3588e10619bf37e6cca7ab1fda76de2fb13952634a0b824f64736f6c634300060c0033",
    "linkReferences": {},
    "deployedLinkReferences": {}
}