{
    "_format": "hh-sol-artifact-1",
    "contractName": "StrategyLibrary",
    "sourceName": "contracts/libraries/StrategyLibrary.sol",
    "abi": [
        {
            "inputs": [
                {
                    "internalType": "address",
                    "name": "strategy",
                    "type": "address"
                },
                {
                    "internalType": "uint256",
                    "name": "total",
                    "type": "uint256"
                },
                {
                    "internalType": "int256[]",
                    "name": "estimates",
                    "type": "int256[]"
                }
            ],
            "name": "amountOutOfBalance",
            "outputs": [
                {
                    "internalType": "uint256",
                    "name": "",
                    "type": "uint256"
                }
            ],
            "stateMutability": "view",
            "type": "function"
        },
        {
            "inputs": [
                {
                    "internalType": "address",
                    "name": "strategy",
                    "type": "address"
                },
                {
                    "internalType": "uint256",
                    "name": "balanceBefore",
                    "type": "uint256"
                },
                {
                    "internalType": "uint256",
                    "name": "total",
                    "type": "uint256"
                },
                {
                    "internalType": "int256[]",
                    "name": "estimates",
                    "type": "int256[]"
                }
            ],
            "name": "checkBalance",
            "outputs": [],
            "stateMutability": "view",
            "type": "function"
        },
        {
            "inputs": [
                {
                    "internalType": "uint256",
                    "name": "total",
                    "type": "uint256"
                },
                {
                    "internalType": "address",
                    "name": "strategy",
                    "type": "address"
                },
                {
                    "internalType": "address",
                    "name": "token",
                    "type": "address"
                }
            ],
            "name": "getExpectedTokenValue",
            "outputs": [
                {
                    "internalType": "int256",
                    "name": "",
                    "type": "int256"
                }
            ],
            "stateMutability": "view",
            "type": "function"
        },
        {
            "inputs": [
                {
                    "internalType": "int256",
                    "name": "expectedValue",
                    "type": "int256"
                },
                {
                    "internalType": "uint256",
                    "name": "threshold",
                    "type": "uint256"
                }
            ],
            "name": "getRange",
            "outputs": [
                {
                    "internalType": "int256",
                    "name": "",
                    "type": "int256"
                }
            ],
            "stateMutability": "pure",
            "type": "function"
        },
        {
            "inputs": [
                {
                    "internalType": "address",
                    "name": "strategy",
                    "type": "address"
                },
                {
                    "internalType": "address",
                    "name": "oracle",
                    "type": "address"
                }
            ],
            "name": "verifyBalance",
            "outputs": [
                {
                    "internalType": "bool",
                    "name": "",
                    "type": "bool"
                },
                {
                    "internalType": "uint256",
                    "name": "",
                    "type": "uint256"
                },
                {
                    "internalType": "int256[]",
                    "name": "",
                    "type": "int256[]"
                }
            ],
            "stateMutability": "view",
            "type": "function"
        }
    ],
    "bytecode": "0x611226610026600b82828239805160001a60731461001957fe5b30600052607381538281f3fe73000000000000000000000000000000000000000030146080604052600436106100615760003560e01c806323c4ca79146100665780635ab804ba146100f85780636a5ff7631461013e5780636be50242146101fd578063fa88c05314610220575b600080fd5b6100946004803603604081101561007c57600080fd5b506001600160a01b03813581169160200135166102d6565b60405180841515815260200183815260200180602001828103825283818151815260200191508051906020019060200280838360005b838110156100e25781810151838201526020016100ca565b5050505090500194505050505060405180910390f35b61012c6004803603606081101561010e57600080fd5b508035906001600160a01b0360208201358116916040013516610816565b60408051918252519081900360200190f35b6101fb6004803603608081101561015457600080fd5b6001600160a01b038235169160208101359160408201359190810190608081016060820135600160201b81111561018a57600080fd5b82018360208201111561019c57600080fd5b803590602001918460208302840111600160201b831117156101bd57600080fd5b9190808060200260200160405190810160405280939291908181526020018383602002808284376000920191909152509295506108c4945050505050565b005b61012c6004803603604081101561021357600080fd5b50803590602001356109a8565b61012c6004803603606081101561023657600080fd5b6001600160a01b0382351691602081013591810190606081016040820135600160201b81111561026557600080fd5b82018360208201111561027757600080fd5b803590602001918460208302840111600160201b8311171561029857600080fd5b9190808060200260200160405190810160405280939291908181526020018383602002808284376000920191909152509295506109d0945050505050565b600080606060006060856001600160a01b031663ff4a1902886040518263ffffffff1660e01b815260040180826001600160a01b0316815260200191505060006040518083038186803b15801561032c57600080fd5b505afa158015610340573d6000803e3d6000fd5b505050506040513d6000823e601f3d908101601f19168201604090815281101561036957600080fd5b815160208301805160405192949293830192919084600160201b82111561038f57600080fd5b9083019060208201858111156103a457600080fd5b82518660208202830111600160201b821117156103c057600080fd5b82525081516020918201928201910280838360005b838110156103ed5781810151838201526020016103d5565b50505050905001604052505050915091506000876001600160a01b0316633dfe9f6a6040518163ffffffff1660e01b815260040160206040518083038186803b15801561043957600080fd5b505afa15801561044d573d6000803e3d6000fd5b505050506040513d602081101561046357600080fd5b505160408051636037d68360e11b815290519192506001916060916001600160a01b038c169163c06fad0691600480820192600092909190829003018186803b1580156104af57600080fd5b505afa1580156104c3573d6000803e3d6000fd5b505050506040513d6000823e601f3d908101601f1916820160405260208110156104ec57600080fd5b8101908080516040519392919084600160201b82111561050b57600080fd5b90830190602082018581111561052057600080fd5b82518660208202830111600160201b8211171561053c57600080fd5b82525081516020918201928201910280838360005b83811015610569578181015183820152602001610551565b50505050905001604052505050905060005b81518110156106595760006105a4878d85858151811061059757fe5b6020026020010151610816565b905060008113156106215760006105bb82876109a8565b90506105c78282610d85565b8784815181106105d357fe5b602002602001015113156105ec57600094505050610659565b6105f68282610dea565b87848151811061060257fe5b6020026020010151121561061b57600094505050610659565b50610650565b61062c8760016109a8565b86838151811061063857fe5b60200260200101511315610650576000935050610659565b5060010161057b565b5081156108065760608a6001600160a01b0316630dca59c16040518163ffffffff1660e01b815260040160006040518083038186803b15801561069b57600080fd5b505afa1580156106af573d6000803e3d6000fd5b505050506040513d6000823e601f3d908101601f1916820160405260208110156106d857600080fd5b8101908080516040519392919084600160201b8211156106f757600080fd5b90830190602082018581111561070c57600080fd5b82518660208202830111600160201b8211171561072857600080fd5b82525081516020918201928201910280838360005b8381101561075557818101518382015260200161073d565b50505050905001604052505050905060005b8151811015610803576000610783888e85858151811061059757fe5b9050600061079182886109a8565b855190915083016107a28383610d85565b8982815181106107ae57fe5b602002602001015112156107c85760009650505050610803565b6107d28383610dea565b8982815181106107de57fe5b602002602001015113156107f85760009650505050610803565b505050600101610767565b50505b5095509193509150509250925092565b600080836001600160a01b0316633ebbc9c4846040518263ffffffff1660e01b815260040180826001600160a01b0316815260200191505060206040518083038186803b15801561086657600080fd5b505afa15801561087a573d6000803e3d6000fd5b505050506040513d602081101561089057600080fd5b50519050806108a35760009150506108bd565b6108b96103e86108b38784610e4f565b90610ef8565b9150505b9392505050565b60006108d18584846109d0565b90506109566103e8610950876001600160a01b0316633dfe9f6a6040518163ffffffff1660e01b815260040160206040518083038186803b15801561091557600080fd5b505afa158015610929573d6000803e3d6000fd5b505050506040513d602081101561093f57600080fd5b5051670de0b6b3a764000090610fb0565b90611009565b8111156109a157838111156109a1576040805162461bcd60e51b815260206004820152600c60248201526b4c6f73742062616c616e636560a01b604482015290519081900360640190fd5b5050505050565b6000816109b7575060006109ca565b6109c76103e86108b38585610e4f565b90505b92915050565b6000826109df575060006108bd565b60006060856001600160a01b031663c06fad066040518163ffffffff1660e01b815260040160006040518083038186803b158015610a1c57600080fd5b505afa158015610a30573d6000803e3d6000fd5b505050506040513d6000823e601f3d908101601f191682016040526020811015610a5957600080fd5b8101908080516040519392919084600160201b821115610a7857600080fd5b908301906020820185811115610a8d57600080fd5b82518660208202830111600160201b82111715610aa957600080fd5b82525081516020918201928201910280838360005b83811015610ad6578181015183820152602001610abe565b50505050905001604052505050905060005b8151811015610ba8576000610b04878985858151811061059757fe5b905080868381518110610b1357fe5b60200260200101511315610b5857610b51610b4a82888581518110610b3457fe5b6020026020010151610dea90919063ffffffff16565b8590611048565b9350610b9f565b80868381518110610b6557fe5b60200260200101511215610b9f57610b9c610b4a878481518110610b8557fe5b602002602001015183610dea90919063ffffffff16565b93505b50600101610ae8565b506060866001600160a01b0316630dca59c16040518163ffffffff1660e01b815260040160006040518083038186803b158015610be457600080fd5b505afa158015610bf8573d6000803e3d6000fd5b505050506040513d6000823e601f3d908101601f191682016040526020811015610c2157600080fd5b8101908080516040519392919084600160201b821115610c4057600080fd5b908301906020820185811115610c5557600080fd5b82518660208202830111600160201b82111715610c7157600080fd5b82525081516020918201928201910280838360005b83811015610c9e578181015183820152602001610c86565b50505050905001604052505050905060005b8151811015610d63576000610ccc888a85858151811061059757fe5b9050600082855101905081888281518110610ce357fe5b60200260200101511315610d1257610d0b610d04838a8481518110610b3457fe5b8790611048565b9550610d59565b81888281518110610d1f57fe5b60200260200101511215610d5957610d56610d04898381518110610d3f57fe5b602002602001015184610dea90919063ffffffff16565b95505b5050600101610cb0565b50610d7a8661095085670de0b6b3a7640000610fb0565b979650505050505050565b6000828201818312801590610d9a5750838112155b80610daf5750600083128015610daf57508381125b6109c75760405162461bcd60e51b81526004018080602001828103825260218152602001806111436021913960400191505060405180910390fd5b6000818303818312801590610dff5750838113155b80610e145750600083128015610e1457508381135b6109c75760405162461bcd60e51b81526004018080602001828103825260248152602001806111cd6024913960400191505060405180910390fd5b600082610e5e575060006109ca565b82600019148015610e725750600160ff1b82145b15610eae5760405162461bcd60e51b81526004018080602001828103825260278152602001806111a66027913960400191505060405180910390fd5b82820282848281610ebb57fe5b05146109c75760405162461bcd60e51b81526004018080602001828103825260278152602001806111a66027913960400191505060405180910390fd5b600081610f4c576040805162461bcd60e51b815260206004820181905260248201527f5369676e6564536166654d6174683a206469766973696f6e206279207a65726f604482015290519081900360640190fd5b81600019148015610f605750600160ff1b83145b15610f9c5760405162461bcd60e51b81526004018080602001828103825260218152602001806111646021913960400191505060405180910390fd5b6000828481610fa757fe5b05949350505050565b600082610fbf575060006109ca565b82820282848281610fcc57fe5b04146109c75760405162461bcd60e51b81526004018080602001828103825260218152602001806111856021913960400191505060405180910390fd5b60006109c783836040518060400160405280601a815260200179536166654d6174683a206469766973696f6e206279207a65726f60301b8152506110a0565b6000828201838110156109c7576040805162461bcd60e51b815260206004820152601b60248201527a536166654d6174683a206164646974696f6e206f766572666c6f7760281b604482015290519081900360640190fd5b6000818361112c5760405162461bcd60e51b81526004018080602001828103825283818151815260200191508051906020019080838360005b838110156110f15781810151838201526020016110d9565b50505050905090810190601f16801561111e5780820380516001836020036101000a031916815260200191505b509250505060405180910390fd5b50600083858161113857fe5b049594505050505056fe5369676e6564536166654d6174683a206164646974696f6e206f766572666c6f775369676e6564536166654d6174683a206469766973696f6e206f766572666c6f77536166654d6174683a206d756c7469706c69636174696f6e206f766572666c6f775369676e6564536166654d6174683a206d756c7469706c69636174696f6e206f766572666c6f775369676e6564536166654d6174683a207375627472616374696f6e206f766572666c6f77a2646970667358221220708a35a0f44bb3bd3123ee2b6437a745b5426b9e043b4a761c9bb8f7ea9da04164736f6c634300060c0033",
    "linkReferences": {},
    "deployedLinkReferences": {}
}