{
  "_format": "hh-sol-artifact-1",
  "contractName": "BMath",
  "sourceName": "@balancer-labs/core/contracts/BMath.sol",
  "abi": [
    {
      "constant": true,
      "inputs": [],
      "name": "BONE",
      "outputs": [
        {
          "internalType": "uint256",
          "name": "",
          "type": "uint256"
        }
      ],
      "payable": false,
      "stateMutability": "view",
      "type": "function"
    },
    {
      "constant": true,
      "inputs": [],
      "name": "BPOW_PRECISION",
      "outputs": [
        {
          "internalType": "uint256",
          "name": "",
          "type": "uint256"
        }
      ],
      "payable": false,
      "stateMutability": "view",
      "type": "function"
    },
    {
      "constant": true,
      "inputs": [],
      "name": "EXIT_FEE",
      "outputs": [
        {
          "internalType": "uint256",
          "name": "",
          "type": "uint256"
        }
      ],
      "payable": false,
      "stateMutability": "view",
      "type": "function"
    },
    {
      "constant": true,
      "inputs": [],
      "name": "INIT_POOL_SUPPLY",
      "outputs": [
        {
          "internalType": "uint256",
          "name": "",
          "type": "uint256"
        }
      ],
      "payable": false,
      "stateMutability": "view",
      "type": "function"
    },
    {
      "constant": true,
      "inputs": [],
      "name": "MAX_BOUND_TOKENS",
      "outputs": [
        {
          "internalType": "uint256",
          "name": "",
          "type": "uint256"
        }
      ],
      "payable": false,
      "stateMutability": "view",
      "type": "function"
    },
    {
      "constant": true,
      "inputs": [],
      "name": "MAX_BPOW_BASE",
      "outputs": [
        {
          "internalType": "uint256",
          "name": "",
          "type": "uint256"
        }
      ],
      "payable": false,
      "stateMutability": "view",
      "type": "function"
    },
    {
      "constant": true,
      "inputs": [],
      "name": "MAX_FEE",
      "outputs": [
        {
          "internalType": "uint256",
          "name": "",
          "type": "uint256"
        }
      ],
      "payable": false,
      "stateMutability": "view",
      "type": "function"
    },
    {
      "constant": true,
      "inputs": [],
      "name": "MAX_IN_RATIO",
      "outputs": [
        {
          "internalType": "uint256",
          "name": "",
          "type": "uint256"
        }
      ],
      "payable": false,
      "stateMutability": "view",
      "type": "function"
    },
    {
      "constant": true,
      "inputs": [],
      "name": "MAX_OUT_RATIO",
      "outputs": [
        {
          "internalType": "uint256",
          "name": "",
          "type": "uint256"
        }
      ],
      "payable": false,
      "stateMutability": "view",
      "type": "function"
    },
    {
      "constant": true,
      "inputs": [],
      "name": "MAX_TOTAL_WEIGHT",
      "outputs": [
        {
          "internalType": "uint256",
          "name": "",
          "type": "uint256"
        }
      ],
      "payable": false,
      "stateMutability": "view",
      "type": "function"
    },
    {
      "constant": true,
      "inputs": [],
      "name": "MAX_WEIGHT",
      "outputs": [
        {
          "internalType": "uint256",
          "name": "",
          "type": "uint256"
        }
      ],
      "payable": false,
      "stateMutability": "view",
      "type": "function"
    },
    {
      "constant": true,
      "inputs": [],
      "name": "MIN_BALANCE",
      "outputs": [
        {
          "internalType": "uint256",
          "name": "",
          "type": "uint256"
        }
      ],
      "payable": false,
      "stateMutability": "view",
      "type": "function"
    },
    {
      "constant": true,
      "inputs": [],
      "name": "MIN_BOUND_TOKENS",
      "outputs": [
        {
          "internalType": "uint256",
          "name": "",
          "type": "uint256"
        }
      ],
      "payable": false,
      "stateMutability": "view",
      "type": "function"
    },
    {
      "constant": true,
      "inputs": [],
      "name": "MIN_BPOW_BASE",
      "outputs": [
        {
          "internalType": "uint256",
          "name": "",
          "type": "uint256"
        }
      ],
      "payable": false,
      "stateMutability": "view",
      "type": "function"
    },
    {
      "constant": true,
      "inputs": [],
      "name": "MIN_FEE",
      "outputs": [
        {
          "internalType": "uint256",
          "name": "",
          "type": "uint256"
        }
      ],
      "payable": false,
      "stateMutability": "view",
      "type": "function"
    },
    {
      "constant": true,
      "inputs": [],
      "name": "MIN_WEIGHT",
      "outputs": [
        {
          "internalType": "uint256",
          "name": "",
          "type": "uint256"
        }
      ],
      "payable": false,
      "stateMutability": "view",
      "type": "function"
    },
    {
      "constant": true,
      "inputs": [
        {
          "internalType": "uint256",
          "name": "tokenBalanceIn",
          "type": "uint256"
        },
        {
          "internalType": "uint256",
          "name": "tokenWeightIn",
          "type": "uint256"
        },
        {
          "internalType": "uint256",
          "name": "tokenBalanceOut",
          "type": "uint256"
        },
        {
          "internalType": "uint256",
          "name": "tokenWeightOut",
          "type": "uint256"
        },
        {
          "internalType": "uint256",
          "name": "tokenAmountOut",
          "type": "uint256"
        },
        {
          "internalType": "uint256",
          "name": "swapFee",
          "type": "uint256"
        }
      ],
      "name": "calcInGivenOut",
      "outputs": [
        {
          "internalType": "uint256",
          "name": "tokenAmountIn",
          "type": "uint256"
        }
      ],
      "payable": false,
      "stateMutability": "pure",
      "type": "function"
    },
    {
      "constant": true,
      "inputs": [
        {
          "internalType": "uint256",
          "name": "tokenBalanceIn",
          "type": "uint256"
        },
        {
          "internalType": "uint256",
          "name": "tokenWeightIn",
          "type": "uint256"
        },
        {
          "internalType": "uint256",
          "name": "tokenBalanceOut",
          "type": "uint256"
        },
        {
          "internalType": "uint256",
          "name": "tokenWeightOut",
          "type": "uint256"
        },
        {
          "internalType": "uint256",
          "name": "tokenAmountIn",
          "type": "uint256"
        },
        {
          "internalType": "uint256",
          "name": "swapFee",
          "type": "uint256"
        }
      ],
      "name": "calcOutGivenIn",
      "outputs": [
        {
          "internalType": "uint256",
          "name": "tokenAmountOut",
          "type": "uint256"
        }
      ],
      "payable": false,
      "stateMutability": "pure",
      "type": "function"
    },
    {
      "constant": true,
      "inputs": [
        {
          "internalType": "uint256",
          "name": "tokenBalanceOut",
          "type": "uint256"
        },
        {
          "internalType": "uint256",
          "name": "tokenWeightOut",
          "type": "uint256"
        },
        {
          "internalType": "uint256",
          "name": "poolSupply",
          "type": "uint256"
        },
        {
          "internalType": "uint256",
          "name": "totalWeight",
          "type": "uint256"
        },
        {
          "internalType": "uint256",
          "name": "tokenAmountOut",
          "type": "uint256"
        },
        {
          "internalType": "uint256",
          "name": "swapFee",
          "type": "uint256"
        }
      ],
      "name": "calcPoolInGivenSingleOut",
      "outputs": [
        {
          "internalType": "uint256",
          "name": "poolAmountIn",
          "type": "uint256"
        }
      ],
      "payable": false,
      "stateMutability": "pure",
      "type": "function"
    },
    {
      "constant": true,
      "inputs": [
        {
          "internalType": "uint256",
          "name": "tokenBalanceIn",
          "type": "uint256"
        },
        {
          "internalType": "uint256",
          "name": "tokenWeightIn",
          "type": "uint256"
        },
        {
          "internalType": "uint256",
          "name": "poolSupply",
          "type": "uint256"
        },
        {
          "internalType": "uint256",
          "name": "totalWeight",
          "type": "uint256"
        },
        {
          "internalType": "uint256",
          "name": "tokenAmountIn",
          "type": "uint256"
        },
        {
          "internalType": "uint256",
          "name": "swapFee",
          "type": "uint256"
        }
      ],
      "name": "calcPoolOutGivenSingleIn",
      "outputs": [
        {
          "internalType": "uint256",
          "name": "poolAmountOut",
          "type": "uint256"
        }
      ],
      "payable": false,
      "stateMutability": "pure",
      "type": "function"
    },
    {
      "constant": true,
      "inputs": [
        {
          "internalType": "uint256",
          "name": "tokenBalanceIn",
          "type": "uint256"
        },
        {
          "internalType": "uint256",
          "name": "tokenWeightIn",
          "type": "uint256"
        },
        {
          "internalType": "uint256",
          "name": "poolSupply",
          "type": "uint256"
        },
        {
          "internalType": "uint256",
          "name": "totalWeight",
          "type": "uint256"
        },
        {
          "internalType": "uint256",
          "name": "poolAmountOut",
          "type": "uint256"
        },
        {
          "internalType": "uint256",
          "name": "swapFee",
          "type": "uint256"
        }
      ],
      "name": "calcSingleInGivenPoolOut",
      "outputs": [
        {
          "internalType": "uint256",
          "name": "tokenAmountIn",
          "type": "uint256"
        }
      ],
      "payable": false,
      "stateMutability": "pure",
      "type": "function"
    },
    {
      "constant": true,
      "inputs": [
        {
          "internalType": "uint256",
          "name": "tokenBalanceOut",
          "type": "uint256"
        },
        {
          "internalType": "uint256",
          "name": "tokenWeightOut",
          "type": "uint256"
        },
        {
          "internalType": "uint256",
          "name": "poolSupply",
          "type": "uint256"
        },
        {
          "internalType": "uint256",
          "name": "totalWeight",
          "type": "uint256"
        },
        {
          "internalType": "uint256",
          "name": "poolAmountIn",
          "type": "uint256"
        },
        {
          "internalType": "uint256",
          "name": "swapFee",
          "type": "uint256"
        }
      ],
      "name": "calcSingleOutGivenPoolIn",
      "outputs": [
        {
          "internalType": "uint256",
          "name": "tokenAmountOut",
          "type": "uint256"
        }
      ],
      "payable": false,
      "stateMutability": "pure",
      "type": "function"
    },
    {
      "constant": true,
      "inputs": [
        {
          "internalType": "uint256",
          "name": "tokenBalanceIn",
          "type": "uint256"
        },
        {
          "internalType": "uint256",
          "name": "tokenWeightIn",
          "type": "uint256"
        },
        {
          "internalType": "uint256",
          "name": "tokenBalanceOut",
          "type": "uint256"
        },
        {
          "internalType": "uint256",
          "name": "tokenWeightOut",
          "type": "uint256"
        },
        {
          "internalType": "uint256",
          "name": "swapFee",
          "type": "uint256"
        }
      ],
      "name": "calcSpotPrice",
      "outputs": [
        {
          "internalType": "uint256",
          "name": "spotPrice",
          "type": "uint256"
        }
      ],
      "payable": false,
      "stateMutability": "pure",
      "type": "function"
    },
    {
      "constant": true,
      "inputs": [],
      "name": "getColor",
      "outputs": [
        {
          "internalType": "bytes32",
          "name": "",
          "type": "bytes32"
        }
      ],
      "payable": false,
      "stateMutability": "view",
      "type": "function"
    }
  ],
  "bytecode": "0x608060405234801561001057600080fd5b50610d8b806100206000396000f3fe608060405234801561001057600080fd5b50600436106101285760003560e01c806309a3bbe41461012d578063189d00ca14610147578063218b53821461014f5780635c1bbaf71461015757806376c7a3c71461019257806382f652ad1461019a5780638656b653146101d5578063867378c51461021057806389298012146102185780639381cd2b14610253578063992e2a921461025b5780639a86139b14610263578063a221ee491461026b578063b0e0d136146102a0578063b7b800a4146102a8578063ba019dab146102b0578063ba9530a6146102b8578063bc063e1a146102f3578063bc694ea2146102fb578063c36596a61461014f578063c6580d1214610303578063e4a28a521461012d578063ec0930211461030b578063f8d6aed414610313575b600080fd5b61013561034e565b60408051918252519081900360200190f35b61013561035b565b61013561036f565b610135600480360360c081101561016d57600080fd5b5080359060208101359060408101359060608101359060808101359060a0013561037b565b610135610433565b610135600480360360c08110156101b057600080fd5b5080359060208101359060408101359060608101359060808101359060a00135610445565b610135600480360360c08110156101eb57600080fd5b5080359060208101359060408101359060608101359060808101359060a00135610504565b6101356105a5565b610135600480360360c081101561022e57600080fd5b5080359060208101359060408101359060608101359060808101359060a001356105b9565b610135610669565b610135610676565b610135610682565b610135600480360360a081101561028157600080fd5b508035906020810135906040810135906060810135906080013561068f565b6101356106f4565b6101356106f9565b6101356106fe565b610135600480360360c08110156102ce57600080fd5b5080359060208101359060408101359060608101359060808101359060a00135610703565b610135610784565b610135610794565b6101356107a0565b6101356107a5565b610135600480360360c081101561032957600080fd5b5080359060208101359060408101359060608101359060808101359060a001356107b5565b6802b5e3af16b188000081565b6402540be400670de0b6b3a76400005b0481565b670de0b6b3a764000081565b6000806103888786610838565b90506000610396878661094d565b905060006103a48289610838565b905060006103ba670de0b6b3a764000085610838565b905060006103c883836109a1565b905060006103d6828e610aaf565b905060006103e4828f610b71565b905060006104036103fd670de0b6b3a76400008a610b71565b8b610aaf565b90506104208261041b670de0b6b3a764000084610b71565b610838565b9f9e505050505050505050505050505050565b620f4240670de0b6b3a764000061036b565b6000806104528786610838565b90506000610468670de0b6b3a764000083610b71565b905060006104768286610aaf565b905060006104908761041b670de0b6b3a764000085610b71565b9050600061049e8c83610b71565b905060006104ac828e610838565b905060006104ba82886109a1565b905060006104c8828e610aaf565b905060006104d68e83610b71565b90506104ef8161041b670de0b6b3a76400006000610b71565b99505050505050505050509695505050505050565b6000806105118786610838565b9050600061053061052a670de0b6b3a764000084610b71565b85610aaf565b9050600061054f8661054a670de0b6b3a764000085610b71565b610aaf565b9050600061055d8b8361094d565b9050600061056b828d610838565b9050600061057982876109a1565b90506000610587828d610aaf565b9050610593818d610b71565b9e9d5050505050505050505050505050565b64e8d4a51000670de0b6b3a764000061036b565b6000806105c68786610838565b905060006105e18561054a670de0b6b3a76400006000610b71565b905060006105ef8883610b71565b905060006105fd828a610838565b9050600061061c82610617670de0b6b3a764000088610838565b6109a1565b9050600061062a828e610aaf565b905060006106388e83610b71565b905060006106516103fd670de0b6b3a76400008a610b71565b90506104208261054a670de0b6b3a764000084610b71565b68056bc75e2d6310000081565b6704a03ce68d21555681565b6542524f4e5a4560d01b90565b60008061069c8787610838565b905060006106aa8686610838565b905060006106b88383610838565b905060006106da670de0b6b3a764000061041b670de0b6b3a764000089610b71565b90506106e68282610aaf565b9a9950505050505050505050565b600881565b600281565b600181565b6000806107108786610838565b90506000610726670de0b6b3a764000085610b71565b90506107328582610aaf565b905060006107448a61041b8c8561094d565b9050600061075282856109a1565b90506000610768670de0b6b3a764000083610b71565b90506107748a82610aaf565b9c9b505050505050505050505050565b600a670de0b6b3a764000061036b565b671bc16d674ec7ffff81565b600081565b6002670de0b6b3a764000061036b565b6000806107c28588610838565b905060006107d08786610b71565b905060006107de8883610838565b905060006107ec82856109a1565b905061080081670de0b6b3a7640000610b71565b9050610814670de0b6b3a764000087610b71565b94506108296108238c83610aaf565b86610838565b9b9a5050505050505050505050565b60008161087b576040805162461bcd60e51b815260206004820152600c60248201526b4552525f4449565f5a45524f60a01b604482015290519081900360640190fd5b670de0b6b3a764000083028315806108a35750670de0b6b3a76400008482816108a057fe5b04145b6108e7576040805162461bcd60e51b815260206004820152601060248201526f11549497d1125597d25395115493905360821b604482015290519081900360640190fd5b60028304810181811015610935576040805162461bcd60e51b815260206004820152601060248201526f11549497d1125597d25395115493905360821b604482015290519081900360640190fd5b600084828161094057fe5b0493505050505b92915050565b60008282018381101561099a576040805162461bcd60e51b815260206004820152601060248201526f4552525f4144445f4f564552464c4f5760801b604482015290519081900360640190fd5b9392505050565b600060018310156109f1576040805162461bcd60e51b81526020600482015260156024820152744552525f42504f575f424153455f544f4f5f4c4f5760581b604482015290519081900360640190fd5b671bc16d674ec7ffff831115610a47576040805162461bcd60e51b815260206004820152601660248201527508aa4a4be84a09eaebe8482a68abea89e9ebe90928e960531b604482015290519081900360640190fd5b6000610a5283610bd3565b90506000610a608483610b71565b90506000610a7686610a7185610bee565b610bfc565b905081610a87579250610947915050565b6000610a9887846305f5e100610c53565b9050610aa48282610aaf565b979650505050505050565b6000828202831580610ac9575082848281610ac657fe5b04145b610b0d576040805162461bcd60e51b815260206004820152601060248201526f4552525f4d554c5f4f564552464c4f5760801b604482015290519081900360640190fd5b6706f05b59d3b20000810181811015610b60576040805162461bcd60e51b815260206004820152601060248201526f4552525f4d554c5f4f564552464c4f5760801b604482015290519081900360640190fd5b6000670de0b6b3a764000082610940565b6000806000610b808585610d31565b915091508015610bcb576040805162461bcd60e51b81526020600482015260116024820152704552525f5355425f554e444552464c4f5760781b604482015290519081900360640190fd5b509392505050565b6000670de0b6b3a7640000610be783610bee565b0292915050565b670de0b6b3a7640000900490565b60008060028306610c1557670de0b6b3a7640000610c17565b835b90506002830492505b821561099a57610c308485610aaf565b93506002830615610c4857610c458185610aaf565b90505b600283049250610c20565b6000828180610c6a87670de0b6b3a7640000610d31565b9092509050670de0b6b3a764000080600060015b888410610d22576000670de0b6b3a764000082029050600080610cb28a610cad85670de0b6b3a7640000610b71565b610d31565b91509150610cc48761054a848c610aaf565b9650610cd08784610838565b965086610cdf57505050610d22565b8715610ce9579315935b8015610cf3579315935b8415610d0a57610d038688610b71565b9550610d17565b610d14868861094d565b95505b505050600101610c7e565b50909998505050505050505050565b600080828410610d475750508082036000610d4f565b505081810360015b925092905056fea265627a7a7231582003978125242cc823ba6066b56c68d8bdc9309552c37b56002524f398ee19b1cb64736f6c634300050c0032",
  "linkReferences": {},
  "deployedLinkReferences": {}
}