{
  "_format": "hh-sol-artifact-1",
  "contractName": "FullRouter",
  "sourceName": "contracts/routers/FullRouter.sol",
  "abi": [
    {
      "inputs": [
        {
          "internalType": "address",
          "name": "addressesProvider_",
          "type": "address"
        },
        {
          "internalType": "address",
          "name": "controller_",
          "type": "address"
        }
      ],
      "stateMutability": "nonpayable",
      "type": "constructor"
    },
    {
      "inputs": [],
      "name": "addressesProvider",
      "outputs": [
        {
          "internalType": "contract ILendingPoolAddressesProvider",
          "name": "",
          "type": "address"
        }
      ],
      "stateMutability": "view",
      "type": "function"
    },
    {
      "inputs": [],
      "name": "category",
      "outputs": [
        {
          "internalType": "enum IStrategyRouter.RouterCategory",
          "name": "",
          "type": "uint8"
        }
      ],
      "stateMutability": "view",
      "type": "function"
    },
    {
      "inputs": [],
      "name": "controller",
      "outputs": [
        {
          "internalType": "contract IStrategyController",
          "name": "",
          "type": "address"
        }
      ],
      "stateMutability": "view",
      "type": "function"
    },
    {
      "inputs": [
        {
          "internalType": "address",
          "name": "strategy",
          "type": "address"
        },
        {
          "internalType": "bytes",
          "name": "data",
          "type": "bytes"
        }
      ],
      "name": "deposit",
      "outputs": [],
      "stateMutability": "nonpayable",
      "type": "function"
    },
    {
      "inputs": [
        {
          "internalType": "address",
          "name": "strategy",
          "type": "address"
        },
        {
          "internalType": "bytes",
          "name": "data",
          "type": "bytes"
        }
      ],
      "name": "rebalance",
      "outputs": [],
      "stateMutability": "nonpayable",
      "type": "function"
    },
    {
      "inputs": [
        {
          "internalType": "address",
          "name": "strategy",
          "type": "address"
        },
        {
          "internalType": "bytes",
          "name": "data",
          "type": "bytes"
        }
      ],
      "name": "restructure",
      "outputs": [],
      "stateMutability": "nonpayable",
      "type": "function"
    },
    {
      "inputs": [],
      "name": "susd",
      "outputs": [
        {
          "internalType": "address",
          "name": "",
          "type": "address"
        }
      ],
      "stateMutability": "view",
      "type": "function"
    },
    {
      "inputs": [],
      "name": "weth",
      "outputs": [
        {
          "internalType": "address",
          "name": "",
          "type": "address"
        }
      ],
      "stateMutability": "view",
      "type": "function"
    },
    {
      "inputs": [
        {
          "internalType": "address",
          "name": "strategy",
          "type": "address"
        },
        {
          "internalType": "bytes",
          "name": "data",
          "type": "bytes"
        }
      ],
      "name": "withdraw",
      "outputs": [],
      "stateMutability": "nonpayable",
      "type": "function"
    }
  ],
  "bytecode": "0x6101206040523480156200001257600080fd5b50604051620051d3380380620051d3833981016040819052620000359162000291565b600160f81b6080526001600160601b0319606082901b1660a052604080516307dc0d1d60e41b8152905160019183916001600160a01b03831691637dc0d1d0916004808301926020929190829003018186803b1580156200009557600080fd5b505afa158015620000aa573d6000803e3d6000fd5b505050506040513d601f19601f82011682018060405250810190620000d091906200026b565b6001600160a01b0316633fc8cef36040518163ffffffff1660e01b815260040160206040518083038186803b1580156200010957600080fd5b505afa1580156200011e573d6000803e3d6000fd5b505050506040513d601f19601f820116820180604052508101906200014491906200026b565b6001600160601b0319606091821b811660c0529085901b1660e0525050604080516307dc0d1d60e41b815290516001600160a01b03831691637dc0d1d0916004808301926020929190829003018186803b158015620001a257600080fd5b505afa158015620001b7573d6000803e3d6000fd5b505050506040513d601f19601f82011682018060405250810190620001dd91906200026b565b6001600160a01b031663c92577756040518163ffffffff1660e01b815260040160206040518083038186803b1580156200021657600080fd5b505afa1580156200022b573d6000803e3d6000fd5b505050506040513d601f19601f820116820180604052508101906200025191906200026b565b60601b6001600160601b0319166101005250620002e89050565b6000602082840312156200027d578081fd5b81516200028a81620002cf565b9392505050565b60008060408385031215620002a4578081fd5b8251620002b181620002cf565b6020840151909250620002c481620002cf565b809150509250929050565b6001600160a01b0381168114620002e557600080fd5b50565b60805160f81c60a05160601c60c05160601c60e05160601c6101005160601c614e1a620003b9600039806109d052806120d852806122d4528061236a52806123f852806130065250806109ac528061121a5280613c105250806101235280611195528061134552806117965280611b9952806124f952806125b1528061265552806126a25280612d025280613ac15280613ca6528061415c525080610147528061073852806109f45280610ba5528061104f52806112af52806137455280613d7052508061102b5250614e1a6000f3fe608060405234801561001057600080fd5b50600436106100835760003560e01c80633fc8cef3146100885780634bb78b14146100a6578063ba11d5d0146100bb578063c72c4d10146100ce578063c9257775146100d6578063cf2c52cb146100de578063ea1ea75e146100f1578063ef430aa614610104578063f77c479114610119575b600080fd5b610090610121565b60405161009d9190614962565b60405180910390f35b6100b96100b436600461453b565b610145565b005b6100b96100c936600461453b565b610736565b6100906109aa565b6100906109ce565b6100b96100ec36600461453b565b6109f2565b6100b96100ff36600461453b565b610ba3565b61010c611029565b60405161009d91906149b3565b61009061104d565b7f000000000000000000000000000000000000000000000000000000000000000081565b7f00000000000000000000000000000000000000000000000000000000000000006001600160a01b031633146101965760405162461bcd60e51b815260040161018d90614a1f565b60405180910390fd5b60008060606101a7848601866148b0565b9194509250905060006101cc670de0b6b3a76400006101c68587611071565b906110b4565b90506101d883826110f3565b92506060876001600160a01b031663c06fad066040518163ffffffff1660e01b815260040160006040518083038186803b15801561021557600080fd5b505afa158015610229573d6000803e3d6000fd5b505050506040513d6000823e601f3d908101601f1916820160405261025191908101906145ba565b90506060886001600160a01b0316630dca59c16040518163ffffffff1660e01b815260040160006040518083038186803b15801561028e57600080fd5b505afa1580156102a2573d6000803e3d6000fd5b505050506040513d6000823e601f3d908101601f191682016040526102ca91908101906145ba565b905060005b81518110156104515760008582855101815181106102e957fe5b60200260200101519050600073__$59902e9d6730bb3d0c2c9d68301f7cefef$__635ab804ba898e87878151811061031d57fe5b60200260200101516040518463ffffffff1660e01b815260040161034393929190614d06565b60206040518083038186803b15801561035b57600080fd5b505af415801561036f573d6000803e3d6000fd5b505050506040513d601f19601f82011682018060405250810190610393919061460c565b905080821215610447576104478c6001600160a01b031663336685fc8686815181106103bb57fe5b60200260200101516040518263ffffffff1660e01b81526004016103df9190614962565b60006040518083038186803b1580156103f757600080fd5b505afa15801561040b573d6000803e3d6000fd5b505050506040513d6000823e601f3d908101601f191682016040526104339190810190614624565b61043d8484611135565b6000038a8f61117b565b50506001016102cf565b505060005b815181101561072b57600084828151811061046d57fe5b6020026020010151905060008060008c6001600160a01b03166001600160a01b0316815260200190815260200160002060008585815181106104ab57fe5b60200260200101516001600160a01b03166001600160a01b03168152602001908152602001600020541315610596576000808b6001600160a01b03166001600160a01b03168152602001908152602001600020600084848151811061050c57fe5b60200260200101516001600160a01b03166001600160a01b031681526020019081526020016000205490506000808b6001600160a01b03166001600160a01b03168152602001908152602001600020600084848151811061056957fe5b60200260200101516001600160a01b03166001600160a01b03168152602001908152602001600020600090555b600073__$59902e9d6730bb3d0c2c9d68301f7cefef$__635ab804ba888d8787815181106105c057fe5b60200260200101516040518463ffffffff1660e01b81526004016105e693929190614d06565b60206040518083038186803b1580156105fe57600080fd5b505af4158015610612573d6000803e3d6000fd5b505050506040513d601f19601f82011682018060405250810190610636919061460c565b905080821315610721576107218b6001600160a01b031663336685fc86868151811061065e57fe5b60200260200101516040518263ffffffff1660e01b81526004016106829190614962565b60006040518083038186803b15801561069a57600080fd5b505afa1580156106ae573d6000803e3d6000fd5b505050506040513d6000823e601f3d908101601f191682016040526106d69190810190614624565b6107078d8787815181106106e657fe5b6020026020010151610701868861113590919063ffffffff16565b87611a0f565b86868151811061071357fe5b60200260200101518e611ab9565b5050600101610456565b505050505050505050565b7f00000000000000000000000000000000000000000000000000000000000000006001600160a01b0316331461077e5760405162461bcd60e51b815260040161018d90614a1f565b60006060808061079085870187614823565b93509350935093506107a58785858585611c0d565b60006060886001600160a01b0316637dc0d1d06040518163ffffffff1660e01b815260040160206040518083038186803b1580156107e257600080fd5b505afa1580156107f6573d6000803e3d6000fd5b505050506040513d601f19601f8201168201806040525081019061081a91906144f4565b6001600160a01b031663ff4a19028a6040518263ffffffff1660e01b81526004016108459190614962565b60006040518083038186803b15801561085d57600080fd5b505afa158015610871573d6000803e3d6000fd5b505050506040513d6000823e601f3d908101601f191682016040526108999190810190614788565b915091506060896001600160a01b031663c06fad066040518163ffffffff1660e01b815260040160006040518083038186803b1580156108d857600080fd5b505afa1580156108ec573d6000803e3d6000fd5b505050506040513d6000823e601f3d908101601f1916820160405261091491908101906145ba565b905060608a6001600160a01b0316630dca59c16040518163ffffffff1660e01b815260040160006040518083038186803b15801561095157600080fd5b505afa158015610965573d6000803e3d6000fd5b505050506040513d6000823e601f3d908101601f1916820160405261098d91908101906145ba565b905061099d8b8c86868686612154565b5050505050505050505050565b7f000000000000000000000000000000000000000000000000000000000000000081565b7f000000000000000000000000000000000000000000000000000000000000000081565b7f00000000000000000000000000000000000000000000000000000000000000006001600160a01b03163314610a3a5760405162461bcd60e51b815260040161018d90614a1f565b600080610a4983850185614510565b915091506060856001600160a01b031663c06fad066040518163ffffffff1660e01b815260040160006040518083038186803b158015610a8857600080fd5b505afa158015610a9c573d6000803e3d6000fd5b505050506040513d6000823e601f3d908101601f19168201604052610ac491908101906145ba565b90506060866001600160a01b0316630dca59c16040518163ffffffff1660e01b815260040160006040518083038186803b158015610b0157600080fd5b505afa158015610b15573d6000803e3d6000fd5b505050506040513d6000823e601f3d908101601f19168201604052610b3d91908101906145ba565b9050606081518351016001016001600160401b0381118015610b5e57600080fd5b50604051908082528060200260200182016040528015610b88578160200160208202803683370190505b509050610b99888686848787612154565b5050505050505050565b7f00000000000000000000000000000000000000000000000000000000000000006001600160a01b03163314610beb5760405162461bcd60e51b815260040161018d90614a1f565b60006060610bfb83850185614744565b915091506060856001600160a01b031663c06fad066040518163ffffffff1660e01b815260040160006040518083038186803b158015610c3a57600080fd5b505afa158015610c4e573d6000803e3d6000fd5b505050506040513d6000823e601f3d908101601f19168201604052610c7691908101906145ba565b90506060866001600160a01b0316630dca59c16040518163ffffffff1660e01b815260040160006040518083038186803b158015610cb357600080fd5b505afa158015610cc7573d6000803e3d6000fd5b505050506040513d6000823e601f3d908101601f19168201604052610cef91908101906145ba565b905060005b8151811015610d3a57610d3288838381518110610d0d57fe5b602002602001015187878588510181518110610d2557fe5b60200260200101516126d3565b600101610cf4565b50606082516001600160401b0381118015610d5457600080fd5b50604051908082528060200260200182016040528015610d7e578160200160208202803683370190505b50905060005b8351811015610edc576000848281518110610d9b57fe5b602002602001015190506000868381518110610db357fe5b6020908102919091018101516001600160a01b03808e16600090815280845260408082209287168252919093528220549092501315610e1857506001600160a01b038a8116600090815260208181526040808320938516835292905290812080549190555b600073__$59902e9d6730bb3d0c2c9d68301f7cefef$__635ab804ba8a8e866040518463ffffffff1660e01b8152600401610e5593929190614d06565b60206040518083038186803b158015610e6d57600080fd5b505af4158015610e81573d6000803e3d6000fd5b505050506040513d601f19601f82011682018060405250810190610ea5919061460c565b9050610eb38c84848461291f565b610ed15780858581518110610ec457fe5b6020026020010181815250505b505050600101610d84565b5060005b8351811015610f5f57818181518110610ef557fe5b6020026020010151600014610f57576000848281518110610f1257fe5b602002602001015190506000838381518110610f2a57fe5b60200260200101519050610f548b8c848a8781518110610f4657fe5b602002602001015185612ae4565b50505b600101610ee0565b50876001600160a01b031663494089496040518163ffffffff1660e01b815260040160206040518083038186803b158015610f9957600080fd5b505afa158015610fad573d6000803e3d6000fd5b505050506040513d601f19601f82011682018060405250810190610fd191906145ec565b15610fe057610fe08886612da4565b60005b825181101561072b5761102189848381518110610ffc57fe5b60200260200101518888858951018151811061101457fe5b602002602001015161304b565b600101610fe3565b7f000000000000000000000000000000000000000000000000000000000000000081565b7f000000000000000000000000000000000000000000000000000000000000000081565b600082611080575060006110ae565b8282028284828161108d57fe5b04146110ab5760405162461bcd60e51b815260040161018d90614b25565b90505b92915050565b60006110ab83836040518060400160405280601a815260200179536166654d6174683a206469766973696f6e206279207a65726f60301b8152506132a8565b60006110ab83836040518060400160405280601e81526020017f536166654d6174683a207375627472616374696f6e206f766572666c6f7700008152506132e1565b600081830381831280159061114a5750838113155b8061115f575060008312801561115f57508381135b6110ab5760405162461bcd60e51b815260040161018d90614c43565b821580156111e65750602084015180516001600160a01b037f000000000000000000000000000000000000000000000000000000000000000016919060001981019081106111c557fe5b60200260200101516001600160a01b03161415806111e65750604084015151155b156111f057611a09565b602084015151845151146112165760405162461bcd60e51b815260040161018d90614bad565b60007f00000000000000000000000000000000000000000000000000000000000000006001600160a01b0316630261bf8b6040518163ffffffff1660e01b815260040160206040518083038186803b15801561127157600080fd5b505afa158015611285573d6000803e3d6000fd5b505050506040513d601f19601f820116820180604052508101906112a991906144f4565b905060007f00000000000000000000000000000000000000000000000000000000000000006001600160a01b0316637dc0d1d06040518163ffffffff1660e01b815260040160206040518083038186803b15801561130657600080fd5b505afa15801561131a573d6000803e3d6000fd5b505050506040513d601f19601f8201168201806040525081019061133e91906144f4565b90506060807f00000000000000000000000000000000000000000000000000000000000000006001600160a01b0316886020015160018a6020015151038151811061138557fe5b60200260200101516001600160a01b03161461145c57611455836001600160a01b031663b44a043b670de0b6b3a76400008b6020015160018d602001515103815181106113ce57fe5b60200260200101516040518363ffffffff1660e01b81526004016113f39291906149d5565b60206040518083038186803b15801561140b57600080fd5b505afa15801561141f573d6000803e3d6000fd5b505050506040513d601f19601f82011682018060405250810190611443919061460c565b6101c689670de0b6b3a7640000611071565b9650611603565b6040880151511561160357876040015180602001905181019061147f91906145ba565b915081516001600160401b038111801561149857600080fd5b506040519080825280602002602001820160405280156114c2578160200160208202803683370190505b509050866115455760005b825181101561153f576114f784878584815181106114e757fe5b60200260200101518a600061330d565b82828151811061150357fe5b60200260200101818152505061153582828151811061151e57fe5b60200260200101518961350890919063ffffffff16565b97506001016114cd565b50611603565b8660005b83518110156115f8576001845111156115ae57600061157f868987858151811061156f57fe5b60200260200101518c600061330d565b905080831161158e5782611590565b805b84838151811061159c57fe5b602002602001018181525050506115c8565b818382815181106115bb57fe5b6020026020010181815250505b6115ee8382815181106115d757fe5b6020026020010151836110f390919063ffffffff16565b9150600101611549565b50801561160157fe5b505b8615610b995781511561182e57604051632fe4a15f60e21b81526000906001600160a01b0386169063bf92857c9061163f908990600401614962565b60c06040518083038186803b15801561165757600080fd5b505afa15801561166b573d6000803e3d6000fd5b505050506040513d601f19601f8201168201806040525081019061168f91906148fd565b505050925050506000805b84518110156117765760008482815181106116b157fe5b60200260200101511180156116c65750600083115b1561176e576000611700878a8885815181106116de57fe5b60200260200101518886815181106116f257fe5b60200260200101518861352d565b90506117288186848151811061171257fe5b60200260200101516110f390919063ffffffff16565b85838151811061173457fe5b602090810291909101015261174984826110f3565b9350600085838151811061175957fe5b6020026020010151111561176c57600192505b505b60010161169a565b508061182b576040516370a0823160e01b81526000906001600160a01b037f000000000000000000000000000000000000000000000000000000000000000016906370a08231906117cb908b90600401614962565b60206040518083038186803b1580156117e357600080fd5b505afa1580156117f7573d6000803e3d6000fd5b505050506040513d601f19601f8201168201806040525081019061181b919061460c565b9050808a1115611829578099505b505b50505b875151600019015b6000811261153f576000808a60200151838151811061185157fe5b60200260200101519050600080600060018e600001515103861415611917576040516370a0823160e01b81526000906001600160a01b038616906370a082319061189f908f90600401614962565b60206040518083038186803b1580156118b757600080fd5b505afa1580156118cb573d6000803e3d6000fd5b505050506040513d601f19601f820116820180604052508101906118ef919061460c565b90508d81116118fe5780611900565b8d5b95508b925061190f8e876110f3565b9d5050611999565b6040516370a0823160e01b81523092506001600160a01b038516906370a0823190611946908590600401614962565b60206040518083038186803b15801561195e57600080fd5b505afa158015611972573d6000803e3d6000fd5b505050506040513d601f19601f82011682018060405250810190611996919061460c565b94505b84156119f757856119af575060009150896119d0565b8d6020015160018703815181106119c257fe5b602002602001015192503090505b6119f78e6000015187815181106119e357fe5b602002602001015186600187878787613743565b50506000199093019250611836915050565b50505050565b600080846001600160a01b03166370a08231876040518263ffffffff1660e01b8152600401611a3e9190614962565b60206040518083038186803b158015611a5657600080fd5b505afa158015611a6a573d6000803e3d6000fd5b505050506040513d601f19601f82011682018060405250810190611a8e919061460c565b905083831115611aae57611aa6836101c68387611071565b915050611ab1565b90505b949350505050565b8215611a0957835151600019015b60008112611c0657600080600080600060018a600001515103861415611af557879350889450869150611b91565b89602001518681518110611b0557fe5b60200260200101519350309150836001600160a01b03166370a08231836040518263ffffffff1660e01b8152600401611b3e9190614962565b60206040518083038186803b158015611b5657600080fd5b505afa158015611b6a573d6000803e3d6000fd5b505050506040513d601f19601f82011682018060405250810190611b8e919061460c565b94505b85611bc057507f0000000000000000000000000000000000000000000000000000000000000000915085611be1565b89602001516001870381518110611bd357fe5b602002602001015192503090505b611bf48a6000015187815181106119e357fe5b50506000199093019250611ac7915050565b5050505050565b60005b8151811015611d95576000848285510181518110611c2a57fe5b60200260200101519050866001600160a01b0316633ebbc9c4848481518110611c4f57fe5b60200260200101516040518263ffffffff1660e01b8152600401611c739190614962565b60206040518083038186803b158015611c8b57600080fd5b505afa158015611c9f573d6000803e3d6000fd5b505050506040513d601f19601f82011682018060405250810190611cc3919061460c565b611d6d57611d68876001600160a01b031663336685fc858581518110611ce557fe5b60200260200101516040518263ffffffff1660e01b8152600401611d099190614962565b60006040518083038186803b158015611d2157600080fd5b505afa158015611d35573d6000803e3d6000fd5b505050506040513d6000823e601f3d908101601f19168201604052611d5d9190810190614624565b82600003888a61117b565b611d8c565b611d8c87848481518110611d7d57fe5b602002602001015188846126d3565b50600101611c10565b5060005b825181101561205b576000838281518110611db057fe5b602002602001015190506000858381518110611dc857fe5b6020908102919091018101516001600160a01b03808b16600090815280845260408082209287168252919093528220549092501315611e2d57506001600160a01b03878116600090815260208181526040808320938516835292905290812080549190555b604051630faef27160e21b81526001600160a01b03891690633ebbc9c490611e59908590600401614962565b60206040518083038186803b158015611e7157600080fd5b505afa158015611e85573d6000803e3d6000fd5b505050506040513d601f19601f82011682018060405250810190611ea9919061460c565b611fb957604051630cd9a17f60e21b8152611fb4906001600160a01b038a169063336685fc90611edd908690600401614962565b60006040518083038186803b158015611ef557600080fd5b505afa158015611f09573d6000803e3d6000fd5b505050506040513d6000823e601f3d908101601f19168201604052611f319190810190614624565b6040516370a0823160e01b81526001600160a01b038516906370a0823190611f5d908d90600401614962565b60206040518083038186803b158015611f7557600080fd5b505afa158015611f89573d6000803e3d6000fd5b505050506040513d601f19601f82011682018060405250810190611fad919061460c565b848b611ab9565b612051565b61204f88838373__$59902e9d6730bb3d0c2c9d68301f7cefef$__635ab804ba8c8e896040518463ffffffff1660e01b8152600401611ffa93929190614d06565b60206040518083038186803b15801561201257600080fd5b505af4158015612026573d6000803e3d6000fd5b505050506040513d601f19601f8201168201806040525081019061204a919061460c565b61291f565b505b5050600101611d99565b50846001600160a01b031663494089496040518163ffffffff1660e01b815260040160206040518083038186803b15801561209557600080fd5b505afa1580156120a9573d6000803e3d6000fd5b505050506040513d601f19601f820116820180604052508101906120cd91906145ec565b15611c065761214c857f00000000000000000000000000000000000000000000000000000000000000008560018751038151811061210757fe5b602002602001015173__$59902e9d6730bb3d0c2c9d68301f7cefef$__635ab804ba898b6000196040518463ffffffff1660e01b8152600401611ffa93929190614d06565b505050505050565b60005b825181101561222b57600083828151811061216e57fe5b6020026020010151905061222288888388868151811061218a57fe5b602002602001015173__$59902e9d6730bb3d0c2c9d68301f7cefef$__635ab804ba8c8f896040518463ffffffff1660e01b81526004016121cd93929190614d06565b60206040518083038186803b1580156121e557600080fd5b505af41580156121f9573d6000803e3d6000fd5b505050506040513d601f19601f8201168201806040525081019061221d919061460c565b612ae4565b50600101612157565b50856001600160a01b031663494089496040518163ffffffff1660e01b815260040160206040518083038186803b15801561226557600080fd5b505afa158015612279573d6000803e3d6000fd5b505050506040513d601f19601f8201168201806040525081019061229d91906145ec565b15612495576000866001600160a01b0316866001600160a01b03161461235e576040516370a0823160e01b81526001600160a01b037f000000000000000000000000000000000000000000000000000000000000000016906370a0823190612309908a90600401614962565b60206040518083038186803b15801561232157600080fd5b505afa158015612335573d6000803e3d6000fd5b505050506040513d601f19601f82011682018060405250810190612359919061460c565b612361565b60005b90506123de87877f00000000000000000000000000000000000000000000000000000000000000008760018951038151811061239957fe5b602002602001015173__$59902e9d6730bb3d0c2c9d68301f7cefef$__635ab804ba8b8e6000196040518463ffffffff1660e01b81526004016121cd93929190614d06565b6040516370a0823160e01b81526000906001600160a01b037f000000000000000000000000000000000000000000000000000000000000000016906370a082319061242d908b90600401614962565b60206040518083038186803b15801561244557600080fd5b505afa158015612459573d6000803e3d6000fd5b505050506040513d601f19601f8201168201806040525081019061247d919061460c565b90506124928861248d83856110f3565b612da4565b50505b60005b81518110156124d1576124c9878383815181106124b157fe5b60200260200101518787858851018151811061101457fe5b600101612498565b50604051630faef27160e21b81526000906001600160a01b03881690633ebbc9c490612521907f000000000000000000000000000000000000000000000000000000000000000090600401614962565b60206040518083038186803b15801561253957600080fd5b505afa15801561254d573d6000803e3d6000fd5b505050506040513d601f19601f82011682018060405250810190612571919061460c565b90506000811380156125955750866001600160a01b0316866001600160a01b031614155b156126ca576001600160a01b0386163014156126815761267c877f00000000000000000000000000000000000000000000000000000000000000006001600160a01b03166370a08231896040518263ffffffff1660e01b81526004016125fb9190614962565b60206040518083038186803b15801561261357600080fd5b505afa158015612627573d6000803e3d6000fd5b505050506040513d601f19601f8201168201806040525081019061264b919061460c565b6001600160a01b037f0000000000000000000000000000000000000000000000000000000000000000169190613910565b6126ca565b60006126936103e86101c68885611071565b9050610b996001600160a01b037f000000000000000000000000000000000000000000000000000000000000000016888a8461396b565b50505050505050565b604051632d5c025d60e11b815260009073__$59902e9d6730bb3d0c2c9d68301f7cefef$__90635ab804ba9061271190869089908990600401614d06565b60206040518083038186803b15801561272957600080fd5b505af415801561273d573d6000803e3d6000fd5b505050506040513d601f19601f82011682018060405250810190612761919061460c565b9050600073__$59902e9d6730bb3d0c2c9d68301f7cefef$__636be5024283886001600160a01b0316633dfe9f6a6040518163ffffffff1660e01b815260040160206040518083038186803b1580156127b957600080fd5b505afa1580156127cd573d6000803e3d6000fd5b505050506040513d601f19601f820116820180604052508101906127f1919061460c565b6040518363ffffffff1660e01b815260040161280e9291906149c7565b60206040518083038186803b15801561282657600080fd5b505af415801561283a573d6000803e3d6000fd5b505050506040513d601f19601f8201168201806040525081019061285e919061460c565b9050612868614397565b604051630cd9a17f60e21b81526001600160a01b0388169063336685fc90612894908990600401614962565b60006040518083038186803b1580156128ac57600080fd5b505afa1580156128c0573d6000803e3d6000fd5b505050506040513d6000823e601f3d908101601f191682016040526128e89190810190614624565b905060006128f6848461398c565b8512612903576000612911565b61290d8585611135565b6000035b9050610b998282888b61117b565b60008073__$59902e9d6730bb3d0c2c9d68301f7cefef$__636be5024284886001600160a01b0316633dfe9f6a6040518163ffffffff1660e01b815260040160206040518083038186803b15801561297657600080fd5b505afa15801561298a573d6000803e3d6000fd5b505050506040513d601f19601f820116820180604052508101906129ae919061460c565b6040518363ffffffff1660e01b81526004016129cb9291906149c7565b60206040518083038186803b1580156129e357600080fd5b505af41580156129f7573d6000803e3d6000fd5b505050506040513d601f19601f82011682018060405250810190612a1b919061460c565b9050612a27838261398c565b841315612ad857604051630cd9a17f60e21b8152612ace906001600160a01b0388169063336685fc90612a5e908990600401614962565b60006040518083038186803b158015612a7657600080fd5b505afa158015612a8a573d6000803e3d6000fd5b505050506040513d6000823e601f3d908101601f19168201604052612ab29190810190614624565b612ac78888612ac18989611135565b89611a0f565b8789611ab9565b6001915050611ab1565b50600095945050505050565b600082612af2575080612c0f565b600073__$59902e9d6730bb3d0c2c9d68301f7cefef$__636be5024284896001600160a01b0316633dfe9f6a6040518163ffffffff1660e01b815260040160206040518083038186803b158015612b4857600080fd5b505afa158015612b5c573d6000803e3d6000fd5b505050506040513d601f19601f82011682018060405250810190612b80919061460c565b6040518363ffffffff1660e01b8152600401612b9d9291906149c7565b60206040518083038186803b158015612bb557600080fd5b505af4158015612bc9573d6000803e3d6000fd5b505050506040513d601f19601f82011682018060405250810190612bed919061460c565b9050612bf98382611135565b841215612c0d57612c0a8385611135565b91505b505b600081131561214c57612c20614397565b604051630cd9a17f60e21b81526001600160a01b0388169063336685fc90612c4c908890600401614962565b60006040518083038186803b158015612c6457600080fd5b505afa158015612c78573d6000803e3d6000fd5b505050506040513d6000823e601f3d908101601f19168201604052612ca09190810190614624565b60408101515190915015612ce85760008160400151806020019051810190612cc89190614722565b9050612ce46103e8612cde8561ffff85166139d2565b90613a3d565b9250505b6040516370a0823160e01b81526000906001600160a01b037f000000000000000000000000000000000000000000000000000000000000000016906370a0823190612d37908a90600401614962565b60206040518083038186803b158015612d4f57600080fd5b505afa158015612d63573d6000803e3d6000fd5b505050506040513d601f19601f82011682018060405250810190612d87919061460c565b9050610b9982828511612d9a5784612d9c565b825b888b8b613aa1565b604051630faef27160e21b81526000906001600160a01b03841690633ebbc9c490612dd59060001990600401614962565b60206040518083038186803b158015612ded57600080fd5b505afa158015612e01573d6000803e3d6000fd5b505050506040513d601f19601f82011682018060405250810190612e25919061460c565b90506060836001600160a01b031663803c88906040518163ffffffff1660e01b815260040160006040518083038186803b158015612e6257600080fd5b505afa158015612e76573d6000803e3d6000fd5b505050506040513d6000823e601f3d908101601f19168201604052612e9e91908101906145ba565b905060005b8151811015611c06576000856001600160a01b0316633ebbc9c4848481518110612ec957fe5b60200260200101516040518263ffffffff1660e01b8152600401612eed9190614962565b60206040518083038186803b158015612f0557600080fd5b505afa158015612f19573d6000803e3d6000fd5b505050506040513d601f19601f82011682018060405250810190612f3d919061460c565b90508015613042576000612f55856101c68885611071565b9050613040876001600160a01b031663336685fc868681518110612f7557fe5b60200260200101516040518263ffffffff1660e01b8152600401612f999190614962565b60006040518083038186803b158015612fb157600080fd5b505afa158015612fc5573d6000803e3d6000fd5b505050506040513d6000823e601f3d908101601f19168201604052612fed9190810190614624565b518051600090612ff957fe5b60200260200101518260017f000000000000000000000000000000000000000000000000000000000000000088888151811061303157fe5b60200260200101518c8d613743565b505b50600101612ea3565b604051632d5c025d60e11b815260009073__$59902e9d6730bb3d0c2c9d68301f7cefef$__90635ab804ba9061308990869089908990600401614d06565b60206040518083038186803b1580156130a157600080fd5b505af41580156130b5573d6000803e3d6000fd5b505050506040513d601f19601f820116820180604052508101906130d9919061460c565b90506000826130e9575080613206565b600073__$59902e9d6730bb3d0c2c9d68301f7cefef$__636be5024284896001600160a01b0316633dfe9f6a6040518163ffffffff1660e01b815260040160206040518083038186803b15801561313f57600080fd5b505afa158015613153573d6000803e3d6000fd5b505050506040513d601f19601f82011682018060405250810190613177919061460c565b6040518363ffffffff1660e01b81526004016131949291906149c7565b60206040518083038186803b1580156131ac57600080fd5b505af41580156131c0573d6000803e3d6000fd5b505050506040513d601f19601f820116820180604052508101906131e4919061460c565b90506131f08382611135565b841315613204576132018385611135565b91505b505b600081121561214c57613217614397565b604051630cd9a17f60e21b81526001600160a01b0388169063336685fc90613243908990600401614962565b60006040518083038186803b15801561325b57600080fd5b505afa15801561326f573d6000803e3d6000fd5b505050506040513d6000823e601f3d908101601f191682016040526132979190810190614624565b90506126ca8183600003878a613be6565b600081836132c95760405162461bcd60e51b815260040161018d91906149ec565b5060008385816132d557fe5b049150505b9392505050565b600081848411156133055760405162461bcd60e51b815260040161018d91906149ec565b505050900390565b600080866001600160a01b031663b44a043b866001600160a01b03166370a08231896040518263ffffffff1660e01b815260040161334b9190614962565b60206040518083038186803b15801561336357600080fd5b505afa158015613377573d6000803e3d6000fd5b505050506040513d601f19601f8201168201806040525081019061339b919061460c565b876040518363ffffffff1660e01b81526004016133b99291906149d5565b60206040518083038186803b1580156133d157600080fd5b505afa1580156133e5573d6000803e3d6000fd5b505050506040513d601f19601f82011682018060405250810190613409919061460c565b9050600073__$59902e9d6730bb3d0c2c9d68301f7cefef$__635ab804ba8689896040518463ffffffff1660e01b815260040161344893929190614d06565b60206040518083038186803b15801561346057600080fd5b505af4158015613474573d6000803e3d6000fd5b505050506040513d601f19601f82011682018060405250810190613498919061460c565b905083156134c057818113156134bb576134b28183611135565b925050506134ff565b6134f8565b6001600160a01b03808816600090815260208181526040808320938a16835292905220829055808213156134f8576134b28282611135565b6000925050505b95945050505050565b6000828201838110156110ab5760405162461bcd60e51b815260040161018d90614a48565b60008082841161353d578361353f565b825b6001600160a01b03808816600090815260208181526040808320938a1683529290522054909150806135835760405162461bcd60e51b815260040161018d90614bdb565b604051630cd9a17f60e21b815261361a906001600160a01b0389169063336685fc906135b3908a90600401614962565b60006040518083038186803b1580156135cb57600080fd5b505afa1580156135df573d6000803e3d6000fd5b505050506040513d6000823e601f3d908101601f191682016040526136079190810190614624565b61361389898686611a0f565b888a611ab9565b876001600160a01b031663b44a043b876001600160a01b03166370a082318a6040518263ffffffff1660e01b81526004016136559190614962565b60206040518083038186803b15801561366d57600080fd5b505afa158015613681573d6000803e3d6000fd5b505050506040513d601f19601f820116820180604052508101906136a5919061460c565b886040518363ffffffff1660e01b81526004016136c39291906149d5565b60206040518083038186803b1580156136db57600080fd5b505afa1580156136ef573d6000803e3d6000fd5b505050506040513d601f19601f82011682018060405250810190613713919061460c565b6001600160a01b03808916600090815260208181526040808320938b168352929052205550905095945050505050565b7f00000000000000000000000000000000000000000000000000000000000000006001600160a01b03166393e59dc16040518163ffffffff1660e01b815260040160206040518083038186803b15801561379c57600080fd5b505afa1580156137b0573d6000803e3d6000fd5b505050506040513d601f19601f820116820180604052508101906137d491906144f4565b6001600160a01b031663d8b964e6886040518263ffffffff1660e01b81526004016137ff9190614962565b60206040518083038186803b15801561381757600080fd5b505afa15801561382b573d6000803e3d6000fd5b505050506040513d601f19601f8201168201806040525081019061384f91906145ec565b61386b5760405162461bcd60e51b815260040161018d90614abe565b60607f230f11c7cc54d258ee9bfebf8292225b43b26633217971638b4a8364be584e178787878787876040516024016138a996959493929190614d25565b60408051601f198184030181529190526020810180516001600160e01b03166001600160e01b031990931692909217909152905060005a905060008060008451602086018d86f4905080613904576040513d806000833e8082fd5b50505050505050505050565b6139668363a9059cbb60e01b848460405160240161392f92919061499a565b60408051601f198184030181529190526020810180516001600160e01b03166001600160e01b0319909316929092179091526140c8565b505050565b611a09846323b872dd60e01b85858560405160240161392f93929190614976565b60008282018183128015906139a15750838112155b806139b657506000831280156139b657508381125b6110ab5760405162461bcd60e51b815260040161018d90614a7d565b6000826139e1575060006110ae565b826000191480156139f55750600160ff1b82145b15613a125760405162461bcd60e51b815260040161018d90614b66565b82820282848281613a1f57fe5b05146110ab5760405162461bcd60e51b815260040161018d90614b66565b600081613a5c5760405162461bcd60e51b815260040161018d90614cd1565b81600019148015613a705750600160ff1b83145b15613a8d5760405162461bcd60e51b815260040161018d90614ae4565b6000828481613a9857fe5b05949350505050565b8315611c065760005b85515181101561214c5760008080808085613aed577f00000000000000000000000000000000000000000000000000000000000000009350899450869150613b8c565b8a602001516001870381518110613b0057fe5b60200260200101519350309150836001600160a01b03166370a08231836040518263ffffffff1660e01b8152600401613b399190614962565b60206040518083038186803b158015613b5157600080fd5b505afa158015613b65573d6000803e3d6000fd5b505050506040513d601f19601f82011682018060405250810190613b89919061460c565b94505b8a515160001901861415613ba4575087915086613bc2565b8a602001518681518110613bb457fe5b602002602001015192503090505b613bd58b6000015187815181106119e357fe5b505060019093019250613aaa915050565b60208401515184515114613c0c5760405162461bcd60e51b815260040161018d90614bad565b60007f00000000000000000000000000000000000000000000000000000000000000006001600160a01b0316630261bf8b6040518163ffffffff1660e01b815260040160206040518083038186803b158015613c6757600080fd5b505afa158015613c7b573d6000803e3d6000fd5b505050506040513d601f19601f82011682018060405250810190613c9f91906144f4565b90506060807f00000000000000000000000000000000000000000000000000000000000000006001600160a01b0316876020015160018960200151510381518110613ce657fe5b60200260200101516001600160a01b0316148015613d0957506000876040015151115b15613e50578660400151806020019051810190613d2691906145ba565b915081516001600160401b0381118015613d3f57600080fd5b50604051908082528060200260200182016040528015613d69578160200160208202803683370190505b50905060007f00000000000000000000000000000000000000000000000000000000000000006001600160a01b0316637dc0d1d06040518163ffffffff1660e01b815260040160206040518083038186803b158015613dc757600080fd5b505afa158015613ddb573d6000803e3d6000fd5b505050506040513d601f19601f82011682018060405250810190613dff91906144f4565b905060005b8351811015613e4d57613e2e8287868481518110613e1e57fe5b60200260200101518a600161330d565b838281518110613e3a57fe5b6020908102919091010152600101613e04565b50505b85156126ca57604051632fe4a15f60e21b81526000906001600160a01b0385169063bf92857c90613e85908890600401614962565b60c06040518083038186803b158015613e9d57600080fd5b505afa158015613eb1573d6000803e3d6000fd5b505050506040513d601f19601f82011682018060405250810190613ed591906148fd565b5050509250505060005b8851518110156140295760008060008b602001518481518110613efe57fe5b602002602001015190506000808560001415613f3d57600093508c8711613f255786613f27565b8c5b94508a9150613f368d866110f3565b9c50613fdc565b8d602001516001870381518110613f5057fe5b60200260200101519350309150836001600160a01b03166370a08231836040518263ffffffff1660e01b8152600401613f899190614962565b60206040518083038186803b158015613fa157600080fd5b505afa158015613fb5573d6000803e3d6000fd5b505050506040513d601f19601f82011682018060405250810190613fd9919061460c565b94505b8415614018578d51516000190186148015613ff657508851155b15614002575089614005565b50305b6140188e6000015187815181106119e357fe5b505060019093019250613edf915050565b508251156140c25760005b83518110156140c057600083828151811061404b57fe5b602002602001015111156140b857600061408c8786848151811061406b57fe5b602002602001015186858151811061407f57fe5b6020026020010151614157565b905061409e8185848151811061171257fe5b8483815181106140aa57fe5b602002602001018181525050505b600101614034565b505b50613e50565b606061411d826040518060400160405280602081526020017f5361666545524332303a206c6f772d6c6576656c2063616c6c206661696c6564815250856001600160a01b03166142ae9092919063ffffffff16565b805190915015613966578080602001905181019061413b91906145ec565b6139665760405162461bcd60e51b815260040161018d90614c87565b6000807f00000000000000000000000000000000000000000000000000000000000000006001600160a01b03166370a08231306040518263ffffffff1660e01b81526004016141a69190614962565b60206040518083038186803b1580156141be57600080fd5b505afa1580156141d2573d6000803e3d6000fd5b505050506040513d601f19601f820116820180604052508101906141f6919061460c565b905080156142a657600081841161420d578361420f565b815b905061429d866001600160a01b031663336685fc876040518263ffffffff1660e01b81526004016142409190614962565b60006040518083038186803b15801561425857600080fd5b505afa15801561426c573d6000803e3d6000fd5b505050506040513d6000823e601f3d908101601f191682016040526142949190810190614624565b82878930613aa1565b91506132da9050565b509392505050565b6060611ab18484600085856142c285614358565b6142de5760405162461bcd60e51b815260040161018d90614c0c565b60006060866001600160a01b031685876040516142fb9190614946565b60006040518083038185875af1925050503d8060008114614338576040519150601f19603f3d011682016040523d82523d6000602084013e61433d565b606091505b509150915061434d82828661435e565b979650505050505050565b3b151590565b6060831561436d5750816132da565b82511561437d5782518084602001fd5b8160405162461bcd60e51b815260040161018d91906149ec565b60405180606001604052806060815260200160608152602001606081525090565b600082601f8301126143c8578081fd5b81356143db6143d682614d81565b614d5b565b8181529150602080830190848101818402860182018710156143fc57600080fd5b60005b8481101561442457813561441281614dcc565b845292820192908201906001016143ff565b505050505092915050565b600082601f83011261443f578081fd5b815161444d6143d682614d81565b81815291506020808301908481018184028601820187101561446e57600080fd5b60005b8481101561442457815161448481614dcc565b84529282019290820190600101614471565b600082601f8301126144a6578081fd5b81356144b46143d682614d81565b8181529150602080830190848101818402860182018710156144d557600080fd5b60005b84811015614424578135845292820192908201906001016144d8565b600060208284031215614505578081fd5b81516110ab81614dcc565b60008060408385031215614522578081fd5b823561452d81614dcc565b946020939093013593505050565b60008060006040848603121561454f578081fd5b833561455a81614dcc565b925060208401356001600160401b0380821115614575578283fd5b818601915086601f830112614588578283fd5b813581811115614596578384fd5b8760208285010111156145a7578384fd5b6020830194508093505050509250925092565b6000602082840312156145cb578081fd5b81516001600160401b038111156145e0578182fd5b611ab18482850161442f565b6000602082840312156145fd578081fd5b815180151581146110ab578182fd5b60006020828403121561461d578081fd5b5051919050565b60006020808385031215614636578182fd5b82516001600160401b038082111561464c578384fd5b908401906060828703121561465f578384fd5b6146696060614d5b565b825182811115614677578586fd5b6146838882860161442f565b8252508383015182811115614696578586fd5b6146a28882860161442f565b85830152506040830151828111156146b8578586fd5b80840193505086601f8401126146cc578485fd5b8251828111156146da578586fd5b6146ec601f8201601f19168601614d5b565b92508083528785828601011115614701578586fd5b61471081868501878701614da0565b50604081019190915295945050505050565b600060208284031215614733578081fd5b815161ffff811681146110ab578182fd5b60008060408385031215614756578182fd5b8235915060208301356001600160401b03811115614772578182fd5b61477e85828601614496565b9150509250929050565b6000806040838503121561479a578182fd5b825191506020808401516001600160401b038111156147b7578283fd5b8401601f810186136147c7578283fd5b80516147d56143d682614d81565b81815283810190838501858402850186018a10156147f1578687fd5b8694505b838510156148135780518352600194909401939185019185016147f5565b5080955050505050509250929050565b60008060008060808587031215614838578182fd5b8435935060208501356001600160401b0380821115614855578384fd5b61486188838901614496565b94506040870135915080821115614876578384fd5b614882888389016143b8565b93506060870135915080821115614897578283fd5b506148a4878288016143b8565b91505092959194509250565b6000806000606084860312156148c4578081fd5b833592506020840135915060408401356001600160401b038111156148e7578182fd5b6148f386828701614496565b9150509250925092565b60008060008060008060c08789031215614915578384fd5b865195506020870151945060408701519350606087015192506080870151915060a087015190509295509295509295565b60008251614958818460208701614da0565b9190910192915050565b6001600160a01b0391909116815260200190565b6001600160a01b039384168152919092166020820152604081019190915260600190565b6001600160a01b03929092168252602082015260400190565b60208101600483106149c157fe5b91905290565b918252602082015260400190565b9182526001600160a01b0316602082015260400190565b6000602082528251806020840152614a0b816040850160208701614da0565b601f01601f19169190910160400192915050565b6020808252600f908201526e27b7363c9031b7b73a3937b63632b960891b604082015260600190565b6020808252601b908201527a536166654d6174683a206164646974696f6e206f766572666c6f7760281b604082015260600190565b60208082526021908201527f5369676e6564536166654d6174683a206164646974696f6e206f766572666c6f6040820152607760f81b606082015260800190565b6020808252600c908201526b139bdd08185c1c1c9bdd995960a21b604082015260600190565b60208082526021908201527f5369676e6564536166654d6174683a206469766973696f6e206f766572666c6f6040820152607760f81b606082015260800190565b60208082526021908201527f536166654d6174683a206d756c7469706c69636174696f6e206f766572666c6f6040820152607760f81b606082015260800190565b60208082526027908201527f5369676e6564536166654d6174683a206d756c7469706c69636174696f6e206f604082015266766572666c6f7760c81b606082015260800190565b602080825260149082015273496e636f7272656374207472616465206461746160601b604082015260600190565b602080825260179082015276125b9cdd59999a58da595b9d0818dbdb1b185d195c985b604a1b604082015260600190565b6020808252601d908201527f416464726573733a2063616c6c20746f206e6f6e2d636f6e7472616374000000604082015260600190565b60208082526024908201527f5369676e6564536166654d6174683a207375627472616374696f6e206f766572604082015263666c6f7760e01b606082015260800190565b6020808252602a908201527f5361666545524332303a204552433230206f7065726174696f6e20646964206e6040820152691bdd081cdd58d8d9595960b21b606082015260800190565b6020808252818101527f5369676e6564536166654d6174683a206469766973696f6e206279207a65726f604082015260600190565b9283526001600160a01b03918216602084015216604082015260600190565b95865260208601949094526001600160a01b0392831660408601529082166060850152811660808401521660a082015260c00190565b6040518181016001600160401b0381118282101715614d7957600080fd5b604052919050565b60006001600160401b03821115614d96578081fd5b5060209081020190565b60005b83811015614dbb578181015183820152602001614da3565b83811115611a095750506000910152565b6001600160a01b0381168114614de157600080fd5b5056fea26469706673582212203d7ee8983a8b110938dd7636e5e1798cf148d891992062fb53a82df4ea0b40e664736f6c634300060c0033",
  "linkReferences": {
    "contracts/libraries/StrategyLibrary.sol": {
      "StrategyLibrary": [
        {
          "length": 20,
          "start": 1712
        },
        {
          "length": 20,
          "start": 2387
        },
        {
          "length": 20,
          "start": 4565
        },
        {
          "length": 20,
          "start": 9082
        },
        {
          "length": 20,
          "start": 9418
        },
        {
          "length": 20,
          "start": 9549
        },
        {
          "length": 20,
          "start": 10076
        },
        {
          "length": 20,
          "start": 10910
        },
        {
          "length": 20,
          "start": 11040
        },
        {
          "length": 20,
          "start": 11485
        },
        {
          "length": 20,
          "start": 11951
        },
        {
          "length": 20,
          "start": 13334
        },
        {
          "length": 20,
          "start": 13478
        },
        {
          "length": 20,
          "start": 14280
        }
      ]
    }
  },
  "deployedLinkReferences": {
    "contracts/libraries/StrategyLibrary.sol": {
      "StrategyLibrary": [
        {
          "length": 20,
          "start": 759
        },
        {
          "length": 20,
          "start": 1434
        },
        {
          "length": 20,
          "start": 3612
        },
        {
          "length": 20,
          "start": 8129
        },
        {
          "length": 20,
          "start": 8465
        },
        {
          "length": 20,
          "start": 8596
        },
        {
          "length": 20,
          "start": 9123
        },
        {
          "length": 20,
          "start": 9957
        },
        {
          "length": 20,
          "start": 10087
        },
        {
          "length": 20,
          "start": 10532
        },
        {
          "length": 20,
          "start": 10998
        },
        {
          "length": 20,
          "start": 12381
        },
        {
          "length": 20,
          "start": 12525
        },
        {
          "length": 20,
          "start": 13327
        }
      ]
    }
  }
}