{
  "_format": "hh-sol-artifact-1",
  "contractName": "FullRouter",
  "sourceName": "contracts/routers/FullRouter.sol",
  "abi": [
    {
      "inputs": [
        {
          "internalType": "address",
          "name": "addressesProvider_",
          "type": "address"
        },
        {
          "internalType": "address",
          "name": "controller_",
          "type": "address"
        }
      ],
      "stateMutability": "nonpayable",
      "type": "constructor"
    },
    {
      "inputs": [],
      "name": "addressesProvider",
      "outputs": [
        {
          "internalType": "contract ILendingPoolAddressesProvider",
          "name": "",
          "type": "address"
        }
      ],
      "stateMutability": "view",
      "type": "function"
    },
    {
      "inputs": [],
      "name": "category",
      "outputs": [
        {
          "internalType": "enum IStrategyRouter.RouterCategory",
          "name": "",
          "type": "uint8"
        }
      ],
      "stateMutability": "view",
      "type": "function"
    },
    {
      "inputs": [],
      "name": "controller",
      "outputs": [
        {
          "internalType": "contract IStrategyController",
          "name": "",
          "type": "address"
        }
      ],
      "stateMutability": "view",
      "type": "function"
    },
    {
      "inputs": [
        {
          "internalType": "address",
          "name": "strategy",
          "type": "address"
        },
        {
          "internalType": "bytes",
          "name": "data",
          "type": "bytes"
        }
      ],
      "name": "deposit",
      "outputs": [],
      "stateMutability": "nonpayable",
      "type": "function"
    },
    {
      "inputs": [
        {
          "internalType": "address",
          "name": "strategy",
          "type": "address"
        },
        {
          "internalType": "bytes",
          "name": "data",
          "type": "bytes"
        }
      ],
      "name": "rebalance",
      "outputs": [],
      "stateMutability": "nonpayable",
      "type": "function"
    },
    {
      "inputs": [
        {
          "internalType": "address",
          "name": "strategy",
          "type": "address"
        },
        {
          "internalType": "bytes",
          "name": "data",
          "type": "bytes"
        }
      ],
      "name": "restructure",
      "outputs": [],
      "stateMutability": "nonpayable",
      "type": "function"
    },
    {
      "inputs": [],
      "name": "susd",
      "outputs": [
        {
          "internalType": "address",
          "name": "",
          "type": "address"
        }
      ],
      "stateMutability": "view",
      "type": "function"
    },
    {
      "inputs": [],
      "name": "weth",
      "outputs": [
        {
          "internalType": "address",
          "name": "",
          "type": "address"
        }
      ],
      "stateMutability": "view",
      "type": "function"
    },
    {
      "inputs": [
        {
          "internalType": "address",
          "name": "strategy",
          "type": "address"
        },
        {
          "internalType": "bytes",
          "name": "data",
          "type": "bytes"
        }
      ],
      "name": "withdraw",
      "outputs": [],
      "stateMutability": "nonpayable",
      "type": "function"
    }
  ],
  "bytecode": "0x60806040523480156200001157600080fd5b5060405162004ffb38038062004ffb8339810160408190526200003491620002c4565b60008054600160ff199091168117610100600160a81b0319166101006001600160a01b0385811682029290921793849055604080516307dc0d1d60e41b815290519394869492900490921691637dc0d1d0916004808301926020929190829003018186803b158015620000a657600080fd5b505afa158015620000bb573d6000803e3d6000fd5b505050506040513d601f19601f82011682018060405250810190620000e191906200029e565b6001600160a01b0316633fc8cef36040518163ffffffff1660e01b815260040160206040518083038186803b1580156200011a57600080fd5b505afa1580156200012f573d6000803e3d6000fd5b505050506040513d601f19601f820116820180604052508101906200015591906200029e565b600180546001600160a01b03199081166001600160a01b039384161790915560028054909116868316179055600054604080516307dc0d1d60e41b815290516101009092049092169350637dc0d1d092506004808301926020929190829003018186803b158015620001c657600080fd5b505afa158015620001db573d6000803e3d6000fd5b505050506040513d601f19601f820116820180604052508101906200020191906200029e565b6001600160a01b031663c92577756040518163ffffffff1660e01b815260040160206040518083038186803b1580156200023a57600080fd5b505afa1580156200024f573d6000803e3d6000fd5b505050506040513d601f19601f820116820180604052508101906200027591906200029e565b600380546001600160a01b0319166001600160a01b0392909216919091179055506200031b9050565b600060208284031215620002b0578081fd5b8151620002bd8162000302565b9392505050565b60008060408385031215620002d7578081fd5b8251620002e48162000302565b6020840151909250620002f78162000302565b809150509250929050565b6001600160a01b03811681146200031857600080fd5b50565b614cd0806200032b6000396000f3fe608060405234801561001057600080fd5b50600436106100835760003560e01c80633fc8cef3146100885780634bb78b14146100a6578063ba11d5d0146100bb578063c72c4d10146100ce578063c9257775146100d6578063cf2c52cb146100de578063ea1ea75e146100f1578063ef430aa614610104578063f77c479114610119575b600080fd5b610090610121565b60405161009d9190614824565b60405180910390f35b6100b96100b436600461444b565b610130565b005b6100b96100c936600461444b565b610704565b61009061095f565b61009061096e565b6100b96100ec36600461444b565b61097d565b6100b96100ff36600461444b565b610b15565b61010c610ffe565b60405161009d9190614875565b610090611007565b6001546001600160a01b031681565b60005461010090046001600160a01b031633146101685760405162461bcd60e51b815260040161015f906148e1565b60405180910390fd5b600080606061017984860186614772565b91945092509050600061019e670de0b6b3a7640000610198858761101b565b9061105e565b90506101aa838261109d565b92506060876001600160a01b031663c06fad066040518163ffffffff1660e01b815260040160006040518083038186803b1580156101e757600080fd5b505afa1580156101fb573d6000803e3d6000fd5b505050506040513d6000823e601f3d908101601f1916820160405261022391908101906144ca565b90506060886001600160a01b0316630dca59c16040518163ffffffff1660e01b815260040160006040518083038186803b15801561026057600080fd5b505afa158015610274573d6000803e3d6000fd5b505050506040513d6000823e601f3d908101601f1916820160405261029c91908101906144ca565b905060005b81518110156104235760008582855101815181106102bb57fe5b60200260200101519050600073__$59902e9d6730bb3d0c2c9d68301f7cefef$__635ab804ba898e8787815181106102ef57fe5b60200260200101516040518463ffffffff1660e01b815260040161031593929190614bbc565b60206040518083038186803b15801561032d57600080fd5b505af4158015610341573d6000803e3d6000fd5b505050506040513d601f19601f82011682018060405250810190610365919061451c565b905080821215610419576104198c6001600160a01b031663336685fc86868151811061038d57fe5b60200260200101516040518263ffffffff1660e01b81526004016103b19190614824565b60006040518083038186803b1580156103c957600080fd5b505afa1580156103dd573d6000803e3d6000fd5b505050506040513d6000823e601f3d908101601f191682016040526104059190810190614534565b61040f84846110df565b6000038a8f611125565b50506001016102a1565b505060005b81518110156106f957600084828151811061043f57fe5b602002602001015190506000600460008c6001600160a01b03166001600160a01b03168152602001908152602001600020600085858151811061047e57fe5b60200260200101516001600160a01b03166001600160a01b03168152602001908152602001600020541315610561576001600160a01b038a16600090815260046020526040812084519091908590859081106104d657fe5b60200260200101516001600160a01b03166001600160a01b03168152602001908152602001600020549050600460008b6001600160a01b03166001600160a01b03168152602001908152602001600020600084848151811061053457fe5b60200260200101516001600160a01b03166001600160a01b03168152602001908152602001600020600090555b600073__$59902e9d6730bb3d0c2c9d68301f7cefef$__635ab804ba888d87878151811061058b57fe5b60200260200101516040518463ffffffff1660e01b81526004016105b193929190614bbc565b60206040518083038186803b1580156105c957600080fd5b505af41580156105dd573d6000803e3d6000fd5b505050506040513d601f19601f82011682018060405250810190610601919061451c565b9050808213156106ef57610613614240565b8b6001600160a01b031663336685fc86868151811061062e57fe5b60200260200101516040518263ffffffff1660e01b81526004016106529190614824565b60006040518083038186803b15801561066a57600080fd5b505afa15801561067e573d6000803e3d6000fd5b505050506040513d6000823e601f3d908101601f191682016040526106a69190810190614534565b90506106ed816106d3816106ba87876110df565b8989815181106106c657fe5b6020026020010151611ad9565b8787815181106106df57fe5b60200260200101518f611bfd565b505b5050600101610428565b505050505050505050565b60005461010090046001600160a01b031633146107335760405162461bcd60e51b815260040161015f906148e1565b600060608080610745858701876146e5565b935093509350935061075a8785858585611d58565b60006060886001600160a01b0316637dc0d1d06040518163ffffffff1660e01b815260040160206040518083038186803b15801561079757600080fd5b505afa1580156107ab573d6000803e3d6000fd5b505050506040513d601f19601f820116820180604052508101906107cf9190614404565b6001600160a01b031663ff4a19028a6040518263ffffffff1660e01b81526004016107fa9190614824565b60006040518083038186803b15801561081257600080fd5b505afa158015610826573d6000803e3d6000fd5b505050506040513d6000823e601f3d908101601f1916820160405261084e919081019061464a565b915091506060896001600160a01b031663c06fad066040518163ffffffff1660e01b815260040160006040518083038186803b15801561088d57600080fd5b505afa1580156108a1573d6000803e3d6000fd5b505050506040513d6000823e601f3d908101601f191682016040526108c991908101906144ca565b905060608a6001600160a01b0316630dca59c16040518163ffffffff1660e01b815260040160006040518083038186803b15801561090657600080fd5b505afa15801561091a573d6000803e3d6000fd5b505050506040513d6000823e601f3d908101601f1916820160405261094291908101906144ca565b90506109528b8c86868686612294565b5050505050505050505050565b6002546001600160a01b031681565b6003546001600160a01b031681565b60005461010090046001600160a01b031633146109ac5760405162461bcd60e51b815260040161015f906148e1565b6000806109bb83850185614420565b915091506060856001600160a01b031663c06fad066040518163ffffffff1660e01b815260040160006040518083038186803b1580156109fa57600080fd5b505afa158015610a0e573d6000803e3d6000fd5b505050506040513d6000823e601f3d908101601f19168201604052610a3691908101906144ca565b90506060866001600160a01b0316630dca59c16040518163ffffffff1660e01b815260040160006040518083038186803b158015610a7357600080fd5b505afa158015610a87573d6000803e3d6000fd5b505050506040513d6000823e601f3d908101601f19168201604052610aaf91908101906144ca565b9050606081518351016001016001600160401b0381118015610ad057600080fd5b50604051908082528060200260200182016040528015610afa578160200160208202803683370190505b509050610b0b888686848787612294565b5050505050505050565b60005461010090046001600160a01b03163314610b445760405162461bcd60e51b815260040161015f906148e1565b60006060610b5483850185614606565b915091506060856001600160a01b031663c06fad066040518163ffffffff1660e01b815260040160006040518083038186803b158015610b9357600080fd5b505afa158015610ba7573d6000803e3d6000fd5b505050506040513d6000823e601f3d908101601f19168201604052610bcf91908101906144ca565b90506060866001600160a01b0316630dca59c16040518163ffffffff1660e01b815260040160006040518083038186803b158015610c0c57600080fd5b505afa158015610c20573d6000803e3d6000fd5b505050506040513d6000823e601f3d908101601f19168201604052610c4891908101906144ca565b905060005b8151811015610c9357610c8b88838381518110610c6657fe5b602002602001015187878588510181518110610c7e57fe5b6020026020010151612626565b600101610c4d565b50606082516001600160401b0381118015610cad57600080fd5b50604051908082528060200260200182016040528015610cd7578160200160208202803683370190505b50905060005b8351811015610e39576000848281518110610cf457fe5b602002602001015190506000868381518110610d0c57fe5b6020908102919091018101516001600160a01b03808e1660009081526004845260408082209287168252919093528220549092501315610d7457506001600160a01b038a81166000908152600460209081526040808320938516835292905290812080549190555b600073__$59902e9d6730bb3d0c2c9d68301f7cefef$__635ab804ba8a8e866040518463ffffffff1660e01b8152600401610db193929190614bbc565b60206040518083038186803b158015610dc957600080fd5b505af4158015610ddd573d6000803e3d6000fd5b505050506040513d601f19601f82011682018060405250810190610e01919061451c565b9050610e0f8c848484612872565b610e2e576001858581518110610e2157fe5b6020026020010181815250505b505050600101610cdd565b5060005b8351811015610f3457818181518110610e5257fe5b602002602001015160011415610f2c576000848281518110610e7057fe5b60200260200101519050600073__$59902e9d6730bb3d0c2c9d68301f7cefef$__635ab804ba898d856040518463ffffffff1660e01b8152600401610eb793929190614bbc565b60206040518083038186803b158015610ecf57600080fd5b505af4158015610ee3573d6000803e3d6000fd5b505050506040513d601f19601f82011682018060405250810190610f07919061451c565b9050610f298b8c848a8781518110610f1b57fe5b602002602001015185612a43565b50505b600101610e3d565b50876001600160a01b031663494089496040518163ffffffff1660e01b815260040160206040518083038186803b158015610f6e57600080fd5b505afa158015610f82573d6000803e3d6000fd5b505050506040513d601f19601f82011682018060405250810190610fa691906144fc565b15610fb557610fb58886612ce5565b60005b82518110156106f957610ff689848381518110610fd157fe5b602002602001015188888589510181518110610fe957fe5b602002602001015161303a565b600101610fb8565b60005460ff1681565b60005461010090046001600160a01b031681565b60008261102a57506000611058565b8282028284828161103757fe5b04146110555760405162461bcd60e51b815260040161015f90614a0c565b90505b92915050565b600061105583836040518060400160405280601a815260200179536166654d6174683a206469766973696f6e206279207a65726f60301b815250613297565b600061105583836040518060400160405280601e81526020017f536166654d6174683a207375627472616374696f6e206f766572666c6f7700008152506132ce565b60008183038183128015906110f45750838113155b80611109575060008312801561110957508381135b6110555760405162461bcd60e51b815260040161015f90614af9565b821580156111735750600154602085015180516001600160a01b0390921691600019810190811061115257fe5b60200260200101516001600160a01b03161415806111735750604084015151155b1561117d57611ad3565b602084015151845151146111a35760405162461bcd60e51b815260040161015f90614a94565b60025460408051630261bf8b60e01b815290516000926001600160a01b031691630261bf8b916004808301926020929190829003018186803b1580156111e857600080fd5b505afa1580156111fc573d6000803e3d6000fd5b505050506040513d601f19601f820116820180604052508101906112209190614404565b905060008060019054906101000a90046001600160a01b03166001600160a01b0316637dc0d1d06040518163ffffffff1660e01b815260040160206040518083038186803b15801561127157600080fd5b505afa158015611285573d6000803e3d6000fd5b505050506040513d601f19601f820116820180604052508101906112a99190614404565b6001546020880151805192935060609283926001600160a01b0316919060001981019081106112d457fe5b60200260200101516001600160a01b0316146113ab576113a4836001600160a01b031663b44a043b670de0b6b3a76400008b6020015160018d6020015151038151811061131d57fe5b60200260200101516040518363ffffffff1660e01b8152600401611342929190614897565b60206040518083038186803b15801561135a57600080fd5b505afa15801561136e573d6000803e3d6000fd5b505050506040513d601f19601f82011682018060405250810190611392919061451c565b61019889670de0b6b3a764000061101b565b9650611550565b604088015151156115505787604001518060200190518101906113ce91906144ca565b915081516001600160401b03811180156113e757600080fd5b50604051908082528060200260200182016040528015611411578160200160208202803683370190505b509050866114935760005b825181101561148d576114458684838151811061143557fe5b60200260200101518960006132fa565b82828151811061145157fe5b60200260200101818152505061148382828151811061146c57fe5b60200260200101518961355190919063ffffffff16565b975060010161141c565b50611550565b8660005b8351811015611545576001845111156114fb5760006114cc888684815181106114bc57fe5b60200260200101518b60006132fa565b90508083116114db57826114dd565b805b8483815181106114e957fe5b60200260200101818152505050611515565b8183828151811061150857fe5b6020026020010181815250505b61153b83828151811061152457fe5b60200260200101518361109d90919063ffffffff16565b9150600101611497565b50801561154e57fe5b505b86156119535781511561175c57604051632fe4a15f60e21b81526000906001600160a01b0386169063bf92857c9061158c908990600401614824565b60c06040518083038186803b1580156115a457600080fd5b505afa1580156115b8573d6000803e3d6000fd5b505050506040513d601f19601f820116820180604052508101906115dc91906147bf565b505050925050506000805b84518110156116c25760008482815181106115fe57fe5b60200260200101511180156116135750600083115b156116ba57600061164c8987848151811061162a57fe5b602002602001015187858151811061163e57fe5b602002602001015187613576565b90506116748186848151811061165e57fe5b602002602001015161109d90919063ffffffff16565b85838151811061168057fe5b6020908102919091010152611695848261109d565b935060008583815181106116a557fe5b602002602001015111156116b857600192505b505b6001016115e7565b5080611759576001546040516370a0823160e01b81526000916001600160a01b0316906370a08231906116f9908b90600401614824565b60206040518083038186803b15801561171157600080fd5b505afa158015611725573d6000803e3d6000fd5b505050506040513d601f19601f82011682018060405250810190611749919061451c565b9050808a1115611757578099505b505b50505b875151600019015b6000811261148d576000808a60200151838151811061177f57fe5b60200260200101519050600080600060018e600001515103861415611845576040516370a0823160e01b81526000906001600160a01b038616906370a08231906117cd908f90600401614824565b60206040518083038186803b1580156117e557600080fd5b505afa1580156117f9573d6000803e3d6000fd5b505050506040513d601f19601f8201168201806040525081019061181d919061451c565b90508d811161182c578061182e565b8d5b95508b925061183d8e8761109d565b9d50506118c7565b6040516370a0823160e01b81523092506001600160a01b038516906370a0823190611874908590600401614824565b60206040518083038186803b15801561188c57600080fd5b505afa1580156118a0573d6000803e3d6000fd5b505050506040513d601f19601f820116820180604052508101906118c4919061451c565b94505b841561194157856118dd575060009150896118fe565b8d6020015160018703815181106118f057fe5b602002602001015192503090505b6119258e60000151878151811061191157fe5b6020026020010151866001878787876136ca565b6119415760405162461bcd60e51b815260040161015f9061490a565b50506000199093019250611764915050565b60005b82518110156106f957836001600160a01b031663b44a043b84838151811061197a57fe5b60200260200101516001600160a01b03166370a08231896040518263ffffffff1660e01b81526004016119ad9190614824565b60206040518083038186803b1580156119c557600080fd5b505afa1580156119d9573d6000803e3d6000fd5b505050506040513d601f19601f820116820180604052508101906119fd919061451c565b858481518110611a0957fe5b60200260200101516040518363ffffffff1660e01b8152600401611a2e929190614897565b60206040518083038186803b158015611a4657600080fd5b505afa158015611a5a573d6000803e3d6000fd5b505050506040513d601f19601f82011682018060405250810190611a7e919061451c565b6001600160a01b03871660009081526004602052604081208551909190869085908110611aa757fe5b6020908102919091018101516001600160a01b0316825281019190915260400160002055600101611956565b50505050565b6000805b845151811015611bf15760008082611b02576001546001600160a01b03169150611b20565b86602001516001840381518110611b1557fe5b602002602001015191505b86515160001901831415611b35575083611b50565b86602001518381518110611b4557fe5b602002602001015190505b8651805184908110611b5e57fe5b60200260200101516001600160a01b03166377ec159d8784846040518463ffffffff1660e01b8152600401611b9593929190614bbc565b60206040518083038186803b158015611bad57600080fd5b505afa158015611bc1573d6000803e3d6000fd5b505050506040513d601f19601f82011682018060405250810190611be5919061451c565b95505050600101611add565b508290505b9392505050565b8215611ad357835151600019015b60008112611d5157600080600080600060018a600001515103861415611c3957879350889450869150611cd5565b89602001518681518110611c4957fe5b60200260200101519350309150836001600160a01b03166370a08231836040518263ffffffff1660e01b8152600401611c829190614824565b60206040518083038186803b158015611c9a57600080fd5b505afa158015611cae573d6000803e3d6000fd5b505050506040513d601f19601f82011682018060405250810190611cd2919061451c565b94505b85611cef57506001546001600160a01b0316915085611d10565b89602001516001870381518110611d0257fe5b602002602001015192503090505b611d238a60000151878151811061191157fe5b611d3f5760405162461bcd60e51b815260040161015f9061490a565b50506000199093019250611c0b915050565b5050505050565b60005b8151811015611ee0576000848285510181518110611d7557fe5b60200260200101519050866001600160a01b0316633ebbc9c4848481518110611d9a57fe5b60200260200101516040518263ffffffff1660e01b8152600401611dbe9190614824565b60206040518083038186803b158015611dd657600080fd5b505afa158015611dea573d6000803e3d6000fd5b505050506040513d601f19601f82011682018060405250810190611e0e919061451c565b611eb857611eb3876001600160a01b031663336685fc858581518110611e3057fe5b60200260200101516040518263ffffffff1660e01b8152600401611e549190614824565b60006040518083038186803b158015611e6c57600080fd5b505afa158015611e80573d6000803e3d6000fd5b505050506040513d6000823e601f3d908101601f19168201604052611ea89190810190614534565b82600003888a611125565b611ed7565b611ed787848481518110611ec857fe5b60200260200101518884612626565b50600101611d5b565b5060005b82518110156121a9576000838281518110611efb57fe5b602002602001015190506000858381518110611f1357fe5b6020908102919091018101516001600160a01b03808b1660009081526004845260408082209287168252919093528220549092501315611f7b57506001600160a01b038781166000908152600460209081526040808320938516835292905290812080549190555b604051630faef27160e21b81526001600160a01b03891690633ebbc9c490611fa7908590600401614824565b60206040518083038186803b158015611fbf57600080fd5b505afa158015611fd3573d6000803e3d6000fd5b505050506040513d601f19601f82011682018060405250810190611ff7919061451c565b61210757604051630cd9a17f60e21b8152612102906001600160a01b038a169063336685fc9061202b908690600401614824565b60006040518083038186803b15801561204357600080fd5b505afa158015612057573d6000803e3d6000fd5b505050506040513d6000823e601f3d908101601f1916820160405261207f9190810190614534565b6040516370a0823160e01b81526001600160a01b038516906370a08231906120ab908d90600401614824565b60206040518083038186803b1580156120c357600080fd5b505afa1580156120d7573d6000803e3d6000fd5b505050506040513d601f19601f820116820180604052508101906120fb919061451c565b848b611bfd565b61219f565b61219d88838373__$59902e9d6730bb3d0c2c9d68301f7cefef$__635ab804ba8c8e896040518463ffffffff1660e01b815260040161214893929190614bbc565b60206040518083038186803b15801561216057600080fd5b505af4158015612174573d6000803e3d6000fd5b505050506040513d601f19601f82011682018060405250810190612198919061451c565b612872565b505b5050600101611ee4565b50846001600160a01b031663494089496040518163ffffffff1660e01b815260040160206040518083038186803b1580156121e357600080fd5b505afa1580156121f7573d6000803e3d6000fd5b505050506040513d601f19601f8201168201806040525081019061221b91906144fc565b15611d5157600354835161228c9187916001600160a01b03909116908690600019810190811061224757fe5b602002602001015173__$59902e9d6730bb3d0c2c9d68301f7cefef$__635ab804ba898b6000196040518463ffffffff1660e01b815260040161214893929190614bbc565b505050505050565b60005b825181101561236b5760008382815181106122ae57fe5b602002602001015190506123628888838886815181106122ca57fe5b602002602001015173__$59902e9d6730bb3d0c2c9d68301f7cefef$__635ab804ba8c8f896040518463ffffffff1660e01b815260040161230d93929190614bbc565b60206040518083038186803b15801561232557600080fd5b505af4158015612339573d6000803e3d6000fd5b505050506040513d601f19601f8201168201806040525081019061235d919061451c565b612a43565b50600101612297565b50856001600160a01b031663494089496040518163ffffffff1660e01b815260040160206040518083038186803b1580156123a557600080fd5b505afa1580156123b9573d6000803e3d6000fd5b505050506040513d601f19601f820116820180604052508101906123dd91906144fc565b1561245857600354835161244e91889188916001600160a01b0316908790600019810190811061240957fe5b602002602001015173__$59902e9d6730bb3d0c2c9d68301f7cefef$__635ab804ba8a8d6000196040518463ffffffff1660e01b815260040161230d93929190614bbc565b6124588685612ce5565b60005b81518110156124945761248c8783838151811061247457fe5b602002602001015187878588510181518110610fe957fe5b60010161245b565b50600154604051630faef27160e21b81526000916001600160a01b03808a1692633ebbc9c4926124c8921690600401614824565b60206040518083038186803b1580156124e057600080fd5b505afa1580156124f4573d6000803e3d6000fd5b505050506040513d601f19601f82011682018060405250810190612518919061451c565b905060008113801561253c5750866001600160a01b0316866001600160a01b031614155b1561261d576001600160a01b0386163014156125f0576001546040516370a0823160e01b81526125eb9189916001600160a01b03909116906370a0823190612588908b90600401614824565b60206040518083038186803b1580156125a057600080fd5b505afa1580156125b4573d6000803e3d6000fd5b505050506040513d601f19601f820116820180604052508101906125d8919061451c565b6001546001600160a01b03169190613879565b61261d565b60006126026103e8610198888561101b565b600154909150610b0b906001600160a01b0316888a846138d4565b50505050505050565b604051632d5c025d60e11b815260009073__$59902e9d6730bb3d0c2c9d68301f7cefef$__90635ab804ba9061266490869089908990600401614bbc565b60206040518083038186803b15801561267c57600080fd5b505af4158015612690573d6000803e3d6000fd5b505050506040513d601f19601f820116820180604052508101906126b4919061451c565b9050600073__$59902e9d6730bb3d0c2c9d68301f7cefef$__636be5024283886001600160a01b0316633dfe9f6a6040518163ffffffff1660e01b815260040160206040518083038186803b15801561270c57600080fd5b505afa158015612720573d6000803e3d6000fd5b505050506040513d601f19601f82011682018060405250810190612744919061451c565b6040518363ffffffff1660e01b8152600401612761929190614889565b60206040518083038186803b15801561277957600080fd5b505af415801561278d573d6000803e3d6000fd5b505050506040513d601f19601f820116820180604052508101906127b1919061451c565b90506127bb614240565b604051630cd9a17f60e21b81526001600160a01b0388169063336685fc906127e7908990600401614824565b60006040518083038186803b1580156127ff57600080fd5b505afa158015612813573d6000803e3d6000fd5b505050506040513d6000823e601f3d908101601f1916820160405261283b9190810190614534565b9050600061284984846138f5565b8512612856576000612864565b61286085856110df565b6000035b9050610b0b8282888b611125565b60008073__$59902e9d6730bb3d0c2c9d68301f7cefef$__636be5024284886001600160a01b0316633dfe9f6a6040518163ffffffff1660e01b815260040160206040518083038186803b1580156128c957600080fd5b505afa1580156128dd573d6000803e3d6000fd5b505050506040513d601f19601f82011682018060405250810190612901919061451c565b6040518363ffffffff1660e01b815260040161291e929190614889565b60206040518083038186803b15801561293657600080fd5b505af415801561294a573d6000803e3d6000fd5b505050506040513d601f19601f8201168201806040525081019061296e919061451c565b905061297a83826138f5565b841315612a3557612989614240565b604051630cd9a17f60e21b81526001600160a01b0388169063336685fc906129b5908990600401614824565b60006040518083038186803b1580156129cd57600080fd5b505afa1580156129e1573d6000803e3d6000fd5b505050506040513d6000823e601f3d908101601f19168201604052612a099190810190614534565b9050612a2a81612a2381612a1d89896110df565b8a611ad9565b888a611bfd565b600192505050612a3b565b60009150505b949350505050565b600082612a51575080612b6e565b600073__$59902e9d6730bb3d0c2c9d68301f7cefef$__636be5024284896001600160a01b0316633dfe9f6a6040518163ffffffff1660e01b815260040160206040518083038186803b158015612aa757600080fd5b505afa158015612abb573d6000803e3d6000fd5b505050506040513d601f19601f82011682018060405250810190612adf919061451c565b6040518363ffffffff1660e01b8152600401612afc929190614889565b60206040518083038186803b158015612b1457600080fd5b505af4158015612b28573d6000803e3d6000fd5b505050506040513d601f19601f82011682018060405250810190612b4c919061451c565b9050612b5883826110df565b841215612b6c57612b6983856110df565b91505b505b600081131561228c57612b7f614240565b604051630cd9a17f60e21b81526001600160a01b0388169063336685fc90612bab908890600401614824565b60006040518083038186803b158015612bc357600080fd5b505afa158015612bd7573d6000803e3d6000fd5b505050506040513d6000823e601f3d908101601f19168201604052612bff9190810190614534565b60408101515190915015612c475760008160400151806020019051810190612c2791906145e4565b9050612c436103e8612c3d8561ffff851661393b565b906139a6565b9250505b6001546040516370a0823160e01b81526000916001600160a01b0316906370a0823190612c78908a90600401614824565b60206040518083038186803b158015612c9057600080fd5b505afa158015612ca4573d6000803e3d6000fd5b505050506040513d601f19601f82011682018060405250810190612cc8919061451c565b9050610b0b82828511612cdb5784612cdd565b825b888b8b613a0a565b60008060019054906101000a90046001600160a01b03166001600160a01b0316637dc0d1d06040518163ffffffff1660e01b815260040160206040518083038186803b158015612d3457600080fd5b505afa158015612d48573d6000803e3d6000fd5b505050506040513d601f19601f82011682018060405250810190612d6c9190614404565b60035460405163b44a043b60e01b81526001600160a01b039283169263b44a043b92612da892670de0b6b3a76400009290911690600401614897565b60206040518083038186803b158015612dc057600080fd5b505afa158015612dd4573d6000803e3d6000fd5b505050506040513d601f19601f82011682018060405250810190612df8919061451c565b90506060836001600160a01b031663803c88906040518163ffffffff1660e01b815260040160006040518083038186803b158015612e3557600080fd5b505afa158015612e49573d6000803e3d6000fd5b505050506040513d6000823e601f3d908101601f19168201604052612e7191908101906144ca565b905060005b8151811015611d51576000612f3584610198670de0b6b3a764000073__$59902e9d6730bb3d0c2c9d68301f7cefef$__635ab804ba8a8c8a8a81518110612eb957fe5b60200260200101516040518463ffffffff1660e01b8152600401612edf93929190614bbc565b60206040518083038186803b158015612ef757600080fd5b505af4158015612f0b573d6000803e3d6000fd5b505050506040513d601f19601f82011682018060405250810190612f2f919061451c565b9061101b565b9050613015866001600160a01b031663336685fc858581518110612f5557fe5b60200260200101516040518263ffffffff1660e01b8152600401612f799190614824565b60006040518083038186803b158015612f9157600080fd5b505afa158015612fa5573d6000803e3d6000fd5b505050506040513d6000823e601f3d908101601f19168201604052612fcd9190810190614534565b518051600090612fd957fe5b6020026020010151826001600360009054906101000a90046001600160a01b031687878151811061300657fe5b60200260200101518b8c6136ca565b6130315760405162461bcd60e51b815260040161015f9061490a565b50600101612e76565b604051632d5c025d60e11b815260009073__$59902e9d6730bb3d0c2c9d68301f7cefef$__90635ab804ba9061307890869089908990600401614bbc565b60206040518083038186803b15801561309057600080fd5b505af41580156130a4573d6000803e3d6000fd5b505050506040513d601f19601f820116820180604052508101906130c8919061451c565b90506000826130d85750806131f5565b600073__$59902e9d6730bb3d0c2c9d68301f7cefef$__636be5024284896001600160a01b0316633dfe9f6a6040518163ffffffff1660e01b815260040160206040518083038186803b15801561312e57600080fd5b505afa158015613142573d6000803e3d6000fd5b505050506040513d601f19601f82011682018060405250810190613166919061451c565b6040518363ffffffff1660e01b8152600401613183929190614889565b60206040518083038186803b15801561319b57600080fd5b505af41580156131af573d6000803e3d6000fd5b505050506040513d601f19601f820116820180604052508101906131d3919061451c565b90506131df83826110df565b8413156131f3576131f083856110df565b91505b505b600081121561228c57613206614240565b604051630cd9a17f60e21b81526001600160a01b0388169063336685fc90613232908990600401614824565b60006040518083038186803b15801561324a57600080fd5b505afa15801561325e573d6000803e3d6000fd5b505050506040513d6000823e601f3d908101601f191682016040526132869190810190614534565b905061261d8183600003878a613b56565b600081836132b85760405162461bcd60e51b815260040161015f91906148ae565b5060008385816132c457fe5b0495945050505050565b600081848411156132f25760405162461bcd60e51b815260040161015f91906148ae565b505050900390565b600080600060019054906101000a90046001600160a01b03166001600160a01b0316637dc0d1d06040518163ffffffff1660e01b815260040160206040518083038186803b15801561334b57600080fd5b505afa15801561335f573d6000803e3d6000fd5b505050506040513d601f19601f820116820180604052508101906133839190614404565b6001600160a01b031663b44a043b866001600160a01b03166370a08231896040518263ffffffff1660e01b81526004016133bd9190614824565b60206040518083038186803b1580156133d557600080fd5b505afa1580156133e9573d6000803e3d6000fd5b505050506040513d601f19601f8201168201806040525081019061340d919061451c565b876040518363ffffffff1660e01b815260040161342b929190614897565b60206040518083038186803b15801561344357600080fd5b505afa158015613457573d6000803e3d6000fd5b505050506040513d601f19601f8201168201806040525081019061347b919061451c565b9050600073__$59902e9d6730bb3d0c2c9d68301f7cefef$__635ab804ba8689896040518463ffffffff1660e01b81526004016134ba93929190614bbc565b60206040518083038186803b1580156134d257600080fd5b505af41580156134e6573d6000803e3d6000fd5b505050506040513d601f19601f8201168201806040525081019061350a919061451c565b90508315613532578181111561352d57613524818361109d565b92505050612a3b565b613544565b8082111561354457613524828261109d565b5060009695505050505050565b6000828201838110156110555760405162461bcd60e51b815260040161015f9061492f565b6000808284116135865783613588565b825b9050613592614240565b604051630cd9a17f60e21b81526001600160a01b0388169063336685fc906135be908990600401614824565b60006040518083038186803b1580156135d657600080fd5b505afa1580156135ea573d6000803e3d6000fd5b505050506040513d6000823e601f3d908101601f191682016040526136129190810190614534565b90506000613621828489611ad9565b90506000876001600160a01b03166370a082318a6040518263ffffffff1660e01b81526004016136519190614824565b60206040518083038186803b15801561366957600080fd5b505afa15801561367d573d6000803e3d6000fd5b505050506040513d601f19601f820116820180604052508101906136a1919061451c565b90506136bd838284116136b457836136b6565b825b8a8c611bfd565b5091979650505050505050565b60008060019054906101000a90046001600160a01b03166001600160a01b03166393e59dc16040518163ffffffff1660e01b815260040160206040518083038186803b15801561371957600080fd5b505afa15801561372d573d6000803e3d6000fd5b505050506040513d601f19601f820116820180604052508101906137519190614404565b6001600160a01b031663d8b964e6896040518263ffffffff1660e01b815260040161377c9190614824565b60206040518083038186803b15801561379457600080fd5b505afa1580156137a8573d6000803e3d6000fd5b505050506040513d601f19601f820116820180604052508101906137cc91906144fc565b6137e85760405162461bcd60e51b815260040161015f906149a5565b60607f230f11c7cc54d258ee9bfebf8292225b43b26633217971638b4a8364be584e1788888888888860405160240161382696959493929190614bdb565b60408051601f198184030181529190526020810180516001600160e01b03166001600160e01b031990931692909217909152905060005a90506000808351602085018d85f49a9950505050505050505050565b6138cf8363a9059cbb60e01b848460405160240161389892919061485c565b60408051601f198184030181529190526020810180516001600160e01b03166001600160e01b031990931692909217909152613f8b565b505050565b611ad3846323b872dd60e01b85858560405160240161389893929190614838565b600082820181831280159061390a5750838112155b8061391f575060008312801561391f57508381125b6110555760405162461bcd60e51b815260040161015f90614964565b60008261394a57506000611058565b8260001914801561395e5750600160ff1b82145b1561397b5760405162461bcd60e51b815260040161015f90614a4d565b8282028284828161398857fe5b05146110555760405162461bcd60e51b815260040161015f90614a4d565b6000816139c55760405162461bcd60e51b815260040161015f90614b87565b816000191480156139d95750600160ff1b83145b156139f65760405162461bcd60e51b815260040161015f906149cb565b6000828481613a0157fe5b05949350505050565b8315611d515760005b85515181101561228c5760008080808085613a41576001548a95506001600160a01b03169350869150613ae0565b8a602001516001870381518110613a5457fe5b60200260200101519350309150836001600160a01b03166370a08231836040518263ffffffff1660e01b8152600401613a8d9190614824565b60206040518083038186803b158015613aa557600080fd5b505afa158015613ab9573d6000803e3d6000fd5b505050506040513d601f19601f82011682018060405250810190613add919061451c565b94505b8a515160001901861415613af8575087915086613b16565b8a602001518681518110613b0857fe5b602002602001015192503090505b613b298b60000151878151811061191157fe5b613b455760405162461bcd60e51b815260040161015f9061490a565b505060019093019250613a13915050565b60208401515184515114613b7c5760405162461bcd60e51b815260040161015f90614a94565b60025460408051630261bf8b60e01b815290516000926001600160a01b031691630261bf8b916004808301926020929190829003018186803b158015613bc157600080fd5b505afa158015613bd5573d6000803e3d6000fd5b505050506040513d601f19601f82011682018060405250810190613bf99190614404565b6001546020870151805192935060609283926001600160a01b031691906000198101908110613c2457fe5b60200260200101516001600160a01b0316148015613c4757506000876040015151115b15613cf7578660400151806020019051810190613c6491906144ca565b915081516001600160401b0381118015613c7d57600080fd5b50604051908082528060200260200182016040528015613ca7578160200160208202803683370190505b50905060005b8251811015613cf557613cd685848381518110613cc657fe5b60200260200101518860016132fa565b828281518110613ce257fe5b6020908102919091010152600101613cad565b505b851561261d57604051632fe4a15f60e21b81526000906001600160a01b0385169063bf92857c90613d2c908890600401614824565b60c06040518083038186803b158015613d4457600080fd5b505afa158015613d58573d6000803e3d6000fd5b505050506040513d601f19601f82011682018060405250810190613d7c91906147bf565b5050509250505060005b885151811015613eec5760008060008b602001518481518110613da557fe5b602002602001015190506000808560001415613de457600093508c8711613dcc5786613dce565b8c5b94508a9150613ddd8d8661109d565b9c50613e83565b8d602001516001870381518110613df757fe5b60200260200101519350309150836001600160a01b03166370a08231836040518263ffffffff1660e01b8152600401613e309190614824565b60206040518083038186803b158015613e4857600080fd5b505afa158015613e5c573d6000803e3d6000fd5b505050506040513d601f19601f82011682018060405250810190613e80919061451c565b94505b8415613edb578d51516000190186148015613e9d57508851155b15613ea9575089613eac565b50305b613ebf8e60000151878151811061191157fe5b613edb5760405162461bcd60e51b815260040161015f9061490a565b505060019093019250613d86915050565b50825115613f855760005b8351811015613f83576000838281518110613f0e57fe5b60200260200101511115613f7b576000613f4f87868481518110613f2e57fe5b6020026020010151868581518110613f4257fe5b602002602001015161401a565b9050613f618185848151811061165e57fe5b848381518110613f6d57fe5b602002602001018181525050505b600101613ef7565b505b50613cf7565b6060613fe0826040518060400160405280602081526020017f5361666545524332303a206c6f772d6c6576656c2063616c6c206661696c6564815250856001600160a01b03166141579092919063ffffffff16565b8051909150156138cf5780806020019051810190613ffe91906144fc565b6138cf5760405162461bcd60e51b815260040161015f90614b3d565b6001546040516370a0823160e01b815260009182916001600160a01b03909116906370a082319061404f903090600401614824565b60206040518083038186803b15801561406757600080fd5b505afa15801561407b573d6000803e3d6000fd5b505050506040513d601f19601f8201168201806040525081019061409f919061451c565b9050801561414f5760008184116140b657836140b8565b815b9050614146866001600160a01b031663336685fc876040518263ffffffff1660e01b81526004016140e99190614824565b60006040518083038186803b15801561410157600080fd5b505afa158015614115573d6000803e3d6000fd5b505050506040513d6000823e601f3d908101601f1916820160405261413d9190810190614534565b82878930613a0a565b9150611bf69050565b509392505050565b6060612a3b84846000858561416b85614201565b6141875760405162461bcd60e51b815260040161015f90614ac2565b60006060866001600160a01b031685876040516141a49190614808565b60006040518083038185875af1925050503d80600081146141e1576040519150601f19603f3d011682016040523d82523d6000602084013e6141e6565b606091505b50915091506141f6828286614207565b979650505050505050565b3b151590565b60608315614216575081611bf6565b8251156142265782518084602001fd5b8160405162461bcd60e51b815260040161015f91906148ae565b60405180606001604052806060815260200160608152602001606081525090565b600082601f830112614271578081fd5b813561428461427f82614c37565b614c11565b8181529150602080830190848101818402860182018710156142a557600080fd5b60005b848110156142cd5781356142bb81614c82565b845292820192908201906001016142a8565b505050505092915050565b600082601f8301126142e8578081fd5b81516142f661427f82614c37565b81815291506020808301908481018184028601820187101561431757600080fd5b60005b848110156142cd57815161432d81614c82565b8452928201929082019060010161431a565b600082601f83011261434f578081fd5b813561435d61427f82614c37565b81815291506020808301908481018184028601820187101561437e57600080fd5b60005b848110156142cd57813584529282019290820190600101614381565b600082601f8301126143ad578081fd5b81516001600160401b038111156143c2578182fd5b6143d5601f8201601f1916602001614c11565b91508082528360208285010111156143ec57600080fd5b6143fd816020840160208601614c56565b5092915050565b600060208284031215614415578081fd5b815161105581614c82565b60008060408385031215614432578081fd5b823561443d81614c82565b946020939093013593505050565b60008060006040848603121561445f578081fd5b833561446a81614c82565b925060208401356001600160401b0380821115614485578283fd5b818601915086601f830112614498578283fd5b8135818111156144a6578384fd5b8760208285010111156144b7578384fd5b6020830194508093505050509250925092565b6000602082840312156144db578081fd5b81516001600160401b038111156144f0578182fd5b612a3b848285016142d8565b60006020828403121561450d578081fd5b81518015158114611055578182fd5b60006020828403121561452d578081fd5b5051919050565b600060208284031215614545578081fd5b81516001600160401b038082111561455b578283fd5b908301906060828603121561456e578283fd5b6145786060614c11565b825182811115614586578485fd5b614592878286016142d8565b8252506020830151828111156145a6578485fd5b6145b2878286016142d8565b6020830152506040830151828111156145c9578485fd5b6145d58782860161439d565b60408301525095945050505050565b6000602082840312156145f5578081fd5b815161ffff81168114611055578182fd5b60008060408385031215614618578182fd5b8235915060208301356001600160401b03811115614634578182fd5b6146408582860161433f565b9150509250929050565b6000806040838503121561465c578182fd5b825191506020808401516001600160401b03811115614679578283fd5b8401601f81018613614689578283fd5b805161469761427f82614c37565b81815283810190838501858402850186018a10156146b3578687fd5b8694505b838510156146d55780518352600194909401939185019185016146b7565b5080955050505050509250929050565b600080600080608085870312156146fa578182fd5b8435935060208501356001600160401b0380821115614717578384fd5b6147238883890161433f565b94506040870135915080821115614738578384fd5b61474488838901614261565b93506060870135915080821115614759578283fd5b5061476687828801614261565b91505092959194509250565b600080600060608486031215614786578081fd5b833592506020840135915060408401356001600160401b038111156147a9578182fd5b6147b58682870161433f565b9150509250925092565b60008060008060008060c087890312156147d7578384fd5b865195506020870151945060408701519350606087015192506080870151915060a087015190509295509295509295565b6000825161481a818460208701614c56565b9190910192915050565b6001600160a01b0391909116815260200190565b6001600160a01b039384168152919092166020820152604081019190915260600190565b6001600160a01b03929092168252602082015260400190565b602081016004831061488357fe5b91905290565b918252602082015260400190565b9182526001600160a01b0316602082015260400190565b60006020825282518060208401526148cd816040850160208701614c56565b601f01601f19169190910160400192915050565b6020808252600f908201526e27b7363c9031b7b73a3937b63632b960891b604082015260600190565b6020808252600b908201526a14ddd85c0819985a5b195960aa1b604082015260600190565b6020808252601b908201527a536166654d6174683a206164646974696f6e206f766572666c6f7760281b604082015260600190565b60208082526021908201527f5369676e6564536166654d6174683a206164646974696f6e206f766572666c6f6040820152607760f81b606082015260800190565b6020808252600c908201526b139bdd08185c1c1c9bdd995960a21b604082015260600190565b60208082526021908201527f5369676e6564536166654d6174683a206469766973696f6e206f766572666c6f6040820152607760f81b606082015260800190565b60208082526021908201527f536166654d6174683a206d756c7469706c69636174696f6e206f766572666c6f6040820152607760f81b606082015260800190565b60208082526027908201527f5369676e6564536166654d6174683a206d756c7469706c69636174696f6e206f604082015266766572666c6f7760c81b606082015260800190565b602080825260149082015273496e636f7272656374207472616465206461746160601b604082015260600190565b6020808252601d908201527f416464726573733a2063616c6c20746f206e6f6e2d636f6e7472616374000000604082015260600190565b60208082526024908201527f5369676e6564536166654d6174683a207375627472616374696f6e206f766572604082015263666c6f7760e01b606082015260800190565b6020808252602a908201527f5361666545524332303a204552433230206f7065726174696f6e20646964206e6040820152691bdd081cdd58d8d9595960b21b606082015260800190565b6020808252818101527f5369676e6564536166654d6174683a206469766973696f6e206279207a65726f604082015260600190565b9283526001600160a01b03918216602084015216604082015260600190565b95865260208601949094526001600160a01b0392831660408601529082166060850152811660808401521660a082015260c00190565b6040518181016001600160401b0381118282101715614c2f57600080fd5b604052919050565b60006001600160401b03821115614c4c578081fd5b5060209081020190565b60005b83811015614c71578181015183820152602001614c59565b83811115611ad35750506000910152565b6001600160a01b0381168114614c9757600080fd5b5056fea264697066735822122048aa36058ac4b51c7ccc205bfc5bfa3b30b095c1ea1e60a559986142e05cebd564736f6c634300060c0033",
  "linkReferences": {
    "contracts/libraries/StrategyLibrary.sol": {
      "StrategyLibrary": [
        {
          "length": 20,
          "start": 1524
        },
        {
          "length": 20,
          "start": 2192
        },
        {
          "length": 20,
          "start": 4259
        },
        {
          "length": 20,
          "start": 4521
        },
        {
          "length": 20,
          "start": 9274
        },
        {
          "length": 20,
          "start": 9596
        },
        {
          "length": 20,
          "start": 9727
        },
        {
          "length": 20,
          "start": 10046
        },
        {
          "length": 20,
          "start": 10595
        },
        {
          "length": 20,
          "start": 10725
        },
        {
          "length": 20,
          "start": 11170
        },
        {
          "length": 20,
          "start": 11648
        },
        {
          "length": 20,
          "start": 12734
        },
        {
          "length": 20,
          "start": 13175
        },
        {
          "length": 20,
          "start": 13319
        },
        {
          "length": 20,
          "start": 14252
        }
      ]
    }
  },
  "deployedLinkReferences": {
    "contracts/libraries/StrategyLibrary.sol": {
      "StrategyLibrary": [
        {
          "length": 20,
          "start": 713
        },
        {
          "length": 20,
          "start": 1381
        },
        {
          "length": 20,
          "start": 3448
        },
        {
          "length": 20,
          "start": 3710
        },
        {
          "length": 20,
          "start": 8463
        },
        {
          "length": 20,
          "start": 8785
        },
        {
          "length": 20,
          "start": 8916
        },
        {
          "length": 20,
          "start": 9235
        },
        {
          "length": 20,
          "start": 9784
        },
        {
          "length": 20,
          "start": 9914
        },
        {
          "length": 20,
          "start": 10359
        },
        {
          "length": 20,
          "start": 10837
        },
        {
          "length": 20,
          "start": 11923
        },
        {
          "length": 20,
          "start": 12364
        },
        {
          "length": 20,
          "start": 12508
        },
        {
          "length": 20,
          "start": 13441
        }
      ]
    }
  }
}