{
  "_format": "hh-sol-artifact-1",
  "contractName": "ControllerLibrary",
  "sourceName": "contracts/libraries/ControllerLibrary.sol",
  "abi": [
    {
      "anonymous": false,
      "inputs": [
        {
          "indexed": true,
          "internalType": "address",
          "name": "strategy",
          "type": "address"
        },
        {
          "indexed": false,
          "internalType": "uint256",
          "name": "totalBefore",
          "type": "uint256"
        },
        {
          "indexed": false,
          "internalType": "uint256",
          "name": "totalAfter",
          "type": "uint256"
        }
      ],
      "name": "Balanced",
      "type": "event"
    },
    {
      "anonymous": false,
      "inputs": [
        {
          "indexed": true,
          "internalType": "address",
          "name": "strategy",
          "type": "address"
        },
        {
          "indexed": true,
          "internalType": "address",
          "name": "account",
          "type": "address"
        },
        {
          "indexed": false,
          "internalType": "uint256",
          "name": "value",
          "type": "uint256"
        },
        {
          "indexed": false,
          "internalType": "uint256",
          "name": "amount",
          "type": "uint256"
        }
      ],
      "name": "Deposit",
      "type": "event"
    },
    {
      "anonymous": false,
      "inputs": [
        {
          "indexed": true,
          "internalType": "address",
          "name": "strategy",
          "type": "address"
        },
        {
          "indexed": true,
          "internalType": "address",
          "name": "adapter",
          "type": "address"
        },
        {
          "indexed": true,
          "internalType": "address",
          "name": "token",
          "type": "address"
        }
      ],
      "name": "Repositioned",
      "type": "event"
    },
    {
      "anonymous": false,
      "inputs": [
        {
          "indexed": true,
          "internalType": "address",
          "name": "strategy",
          "type": "address"
        },
        {
          "indexed": true,
          "internalType": "address",
          "name": "account",
          "type": "address"
        },
        {
          "indexed": false,
          "internalType": "uint256",
          "name": "value",
          "type": "uint256"
        },
        {
          "indexed": false,
          "internalType": "uint256",
          "name": "amount",
          "type": "uint256"
        }
      ],
      "name": "Withdraw",
      "type": "event"
    },
    {
      "inputs": [
        {
          "internalType": "address",
          "name": "strategy",
          "type": "address"
        },
        {
          "internalType": "uint256",
          "name": "total",
          "type": "uint256"
        },
        {
          "internalType": "int256[]",
          "name": "estimates",
          "type": "int256[]"
        }
      ],
      "name": "amountOutOfBalance",
      "outputs": [
        {
          "internalType": "uint256",
          "name": "",
          "type": "uint256"
        }
      ],
      "stateMutability": "view",
      "type": "function"
    },
    {
      "inputs": [
        {
          "internalType": "address",
          "name": "strategy",
          "type": "address"
        },
        {
          "internalType": "uint256",
          "name": "balanceBefore",
          "type": "uint256"
        },
        {
          "internalType": "uint256",
          "name": "total",
          "type": "uint256"
        },
        {
          "internalType": "int256[]",
          "name": "estimates",
          "type": "int256[]"
        }
      ],
      "name": "checkBalance",
      "outputs": [],
      "stateMutability": "view",
      "type": "function"
    },
    {
      "inputs": [],
      "name": "self",
      "outputs": [
        {
          "internalType": "address",
          "name": "",
          "type": "address"
        }
      ],
      "stateMutability": "view",
      "type": "function"
    },
    {
      "inputs": [
        {
          "internalType": "contract IStrategy",
          "name": "strategy",
          "type": "IStrategy"
        },
        {
          "internalType": "contract IOracle",
          "name": "oracle",
          "type": "IOracle"
        },
        {
          "internalType": "uint256",
          "name": "rebalanceThresholdScalar",
          "type": "uint256"
        }
      ],
      "name": "verifyBalance",
      "outputs": [
        {
          "internalType": "bool",
          "name": "",
          "type": "bool"
        },
        {
          "internalType": "uint256",
          "name": "",
          "type": "uint256"
        },
        {
          "internalType": "int256[]",
          "name": "",
          "type": "int256[]"
        }
      ],
      "stateMutability": "view",
      "type": "function"
    },
    {
      "inputs": [
        {
          "internalType": "address",
          "name": "strategy",
          "type": "address"
        },
        {
          "internalType": "address[]",
          "name": "newDebt",
          "type": "address[]"
        },
        {
          "internalType": "address[]",
          "name": "formerDebt",
          "type": "address[]"
        }
      ],
      "name": "verifyFormerDebt",
      "outputs": [],
      "stateMutability": "view",
      "type": "function"
    },
    {
      "inputs": [
        {
          "internalType": "address",
          "name": "strategy",
          "type": "address"
        },
        {
          "components": [
            {
              "internalType": "address",
              "name": "item",
              "type": "address"
            },
            {
              "internalType": "int256",
              "name": "percentage",
              "type": "int256"
            },
            {
              "components": [
                {
                  "internalType": "address[]",
                  "name": "adapters",
                  "type": "address[]"
                },
                {
                  "internalType": "address[]",
                  "name": "path",
                  "type": "address[]"
                },
                {
                  "internalType": "bytes",
                  "name": "cache",
                  "type": "bytes"
                }
              ],
              "internalType": "struct StrategyTypes.TradeData",
              "name": "data",
              "type": "tuple"
            }
          ],
          "internalType": "struct StrategyTypes.StrategyItem[]",
          "name": "newItems",
          "type": "tuple[]"
        }
      ],
      "name": "verifyStructure",
      "outputs": [],
      "stateMutability": "view",
      "type": "function"
    }
  ],
  "bytecode": "0x6155a162000027600b82828239805160001a60731461001a57fe5b30600052607381538281f3fe73000000000000000000000000000000000000000030146080604052600436106100e95760003560e01c80637104ddb211610096578063dd9e5c4e11610070578063dd9e5c4e146101e7578063df26245814610215578063e29036a814610235578063fa88c05314610257576100e9565b80637104ddb214610196578063b6af9fb3146101b4578063c3353e83146101c7576100e9565b806328147ea1116100c757806328147ea1146101505780633554b19a146101635780636a5ff76314610183576100e9565b806303183b0e146100ee5780630493c47f1461011057806314dbe2bb14610130575b600080fd5b8180156100fa57600080fd5b5061010e610109366004614575565b610277565b005b81801561011c57600080fd5b5061010e61012b36600461466d565b6108c2565b81801561013c57600080fd5b5061010e61014b366004614885565b610f40565b61010e61015e3660046143da565b610f56565b81801561016f57600080fd5b5061010e61017e3660046147b3565b6113f7565b61010e6101913660046144cd565b611407565b61019e6114cd565b6040516101ab9190614c1a565b60405180910390f35b61010e6101c2366004614361565b6114d1565b8180156101d357600080fd5b5061010e6101e236600461471a565b6115ae565b8180156101f357600080fd5b5061020761020236600461492a565b61185e565b6040516101ab929190614c2e565b81801561022157600080fd5b5061010e6102303660046145bf565b612265565b61024861024336600461462d565b6122a6565b6040516101ab93929190614d31565b61026a610265366004614476565b612359565b6040516101ab9190615456565b826001600160a01b0316634a2f38a56040518163ffffffff1660e01b8152600401600060405180830381600087803b1580156102b257600080fd5b505af11580156102c6573d6000803e3d6000fd5b505050506000816001600160a01b0316836001600160a01b0316141561049b576102f0600061271a565b90506060846001600160a01b031663803c88906040518163ffffffff1660e01b815260040160006040518083038186803b15801561032d57600080fd5b505afa158015610341573d6000803e3d6000fd5b505050506040513d6000823e601f3d908101601f191682016040526103699190810190614522565b805190915060005b8181101561049357600083828151811061038757fe5b60200260200101516001600160a01b03166370a08231896040518263ffffffff1660e01b81526004016103ba9190614c1a565b60206040518083038186803b1580156103d257600080fd5b505afa1580156103e6573d6000803e3d6000fd5b505050506040513d601f19601f8201168201806040525081019061040a91906149bd565b9050801561048a57876001600160a01b0316631434ffac868387868151811061042f57fe5b60200260200101518a6040518563ffffffff1660e01b81526004016104579493929190614ca7565b600060405180830381600087803b15801561047157600080fd5b505af1158015610485573d6000803e3d6000fd5b505050505b50600101610371565b505050610872565b6001600160a01b038381161415610779576104b6600061271a565b90506000826001600160a01b03166370a08231866040518263ffffffff1660e01b81526004016104e69190614c1a565b60206040518083038186803b1580156104fe57600080fd5b505afa158015610512573d6000803e3d6000fd5b505050506040513d601f19601f8201168201806040525081019061053691906149bd565b90506000856001600160a01b0316633ebbc9c46000196040518263ffffffff1660e01b81526004016105689190614c1a565b60206040518083038186803b15801561058057600080fd5b505afa158015610594573d6000803e3d6000fd5b505050506040513d601f19601f820116820180604052508101906105b891906149bd565b90506060866001600160a01b031663803c88906040518163ffffffff1660e01b815260040160006040518083038186803b1580156105f557600080fd5b505afa158015610609573d6000803e3d6000fd5b505050506040513d6000823e601f3d908101601f191682016040526106319190810190614522565b805190915060005b8181101561076f5760006106e6856106e08c6001600160a01b0316633ebbc9c488878151811061066557fe5b60200260200101516040518263ffffffff1660e01b81526004016106899190614c1a565b60206040518083038186803b1580156106a157600080fd5b505afa1580156106b5573d6000803e3d6000fd5b505050506040513d601f19601f820116820180604052508101906106d991906149bd565b89906128db565b9061294f565b9050801561076657896001600160a01b0316631434ffac88838b88878151811061070c57fe5b60200260200101516040518563ffffffff1660e01b81526004016107339493929190614ca7565b600060405180830381600087803b15801561074d57600080fd5b505af1158015610761573d6000803e3d6000fd5b505050505b50600101610639565b5050505050610872565b610783600161271a565b90506000836001600160a01b03166370a08231866040518263ffffffff1660e01b81526004016107b39190614c1a565b60206040518083038186803b1580156107cb57600080fd5b505afa1580156107df573d6000803e3d6000fd5b505050506040513d601f19601f8201168201806040525081019061080391906149bd565b905080156108705760405163050d3feb60e21b81526001600160a01b03861690631434ffac9061083d908590859089908990600401614ca7565b600060405180830381600087803b15801561085757600080fd5b505af115801561086b573d6000803e3d6000fd5b505050505b505b826001600160a01b0316816001600160a01b0316856001600160a01b03167fdb9f6e03bacb5e51739b47a2a64341967017d6d8fce305029f3c30b6f3bfc80d60405160405180910390a450505050565b6108cb886129b3565b6108d485612abe565b610956898a6001600160a01b0316630dca59c16040518163ffffffff1660e01b815260040160006040518083038186803b15801561091157600080fd5b505afa158015610925573d6000803e3d6000fd5b505050506040513d6000823e601f3d908101601f1916820160405261094d9190810190614522565b8a600019612ae0565b6000306001600160a01b0316637dc0d1d06040518163ffffffff1660e01b815260040160206040518083038186803b15801561099157600080fd5b505afa1580156109a5573d6000803e3d6000fd5b505050506040513d601f19601f820116820180604052508101906109c99190614345565b90506001600160a01b03831615610b11576109ee6001600160a01b0384168a89612d60565b6000896001600160a01b031663ef430aa66040518163ffffffff1660e01b815260040160206040518083038186803b158015610a2957600080fd5b505afa158015610a3d573d6000803e3d6000fd5b505050506040513d601f19601f82011682018060405250810190610a61919061499e565b6003811115610a6c57fe5b14610a96573087604051602001610a84929190614c2e565b60405160208183030381529060405291505b60405163cf2c52cb60e01b81526001600160a01b038a169063cf2c52cb90610ac4908d908690600401614c85565b600060405180830381600087803b158015610ade57600080fd5b505af1158015610af2573d6000803e3d6000fd5b50610b0c925050506001600160a01b0384168a6000612d60565b610c1a565b6000896001600160a01b031663ef430aa66040518163ffffffff1660e01b815260040160206040518083038186803b158015610b4c57600080fd5b505afa158015610b60573d6000803e3d6000fd5b505050506040513d601f19601f82011682018060405250810190610b84919061499e565b6003811115610b8f57fe5b14610bb9578787604051602001610ba7929190614c2e565b60405160208183030381529060405291505b60405163cf2c52cb60e01b81526001600160a01b038a169063cf2c52cb90610be7908d908690600401614c85565b600060405180830381600087803b158015610c0157600080fd5b505af1158015610c15573d6000803e3d6000fd5b505050505b610c9b8a8b6001600160a01b0316630dca59c16040518163ffffffff1660e01b815260040160006040518083038186803b158015610c5757600080fd5b505afa158015610c6b573d6000803e3d6000fd5b505050506040513d6000823e601f3d908101601f19168201604052610c939190810190614522565b8b6000612ae0565b60006060826001600160a01b031663ff4a19028d6040518263ffffffff1660e01b8152600401610ccb9190614c1a565b60006040518083038186803b158015610ce357600080fd5b505afa158015610cf7573d6000803e3d6000fd5b505050506040513d6000823e601f3d908101601f19168201604052610d1f9190810190614afc565b91509150868211610d4b5760405162461bcd60e51b8152600401610d4290614ebc565b60405180910390fd5b610d578c878484611407565b868203610d65818b8b612e8c565b6000808e6001600160a01b03166318160ddd6040518163ffffffff1660e01b815260040160206040518083038186803b158015610da157600080fd5b505afa158015610db5573d6000803e3d6000fd5b505050506040513d601f19601f82011682018060405250810190610dd991906149bd565b905080610de65784610dfa565b610dfa8a610df48386612ec0565b90612efa565b915081610e195760405162461bcd60e51b8152600401610d4290614f17565b6001600160a01b038f1663dbbc5aca86610e338486612f3c565b6040518363ffffffff1660e01b8152600401610e50929190614d87565b600060405180830381600087803b158015610e6a57600080fd5b505af1158015610e7e573d6000803e3d6000fd5b505050508e6001600160a01b03166340c10f198e846040518363ffffffff1660e01b8152600401610eb0929190614c2e565b600060405180830381600087803b158015610eca57600080fd5b505af1158015610ede573d6000803e3d6000fd5b50505050508b6001600160a01b03168e6001600160a01b03167fdcbc1c05240f31ff3ad067ef1ee35ce4997762752e3a095284754544f4c709d78d84604051610f28929190614d87565b60405180910390a35050505050505050505050505050565b610f4e868686868686612f61565b505050505050565b8051610f745760405162461bcd60e51b8152600401610d4290614e2c565b60006001600160a01b031681600081518110610f8c57fe5b6020026020010151600001516001600160a01b03161415610fbf5760405162461bcd60e51b8152600401610d4290614fc6565b6000196001600160a01b031681600183510381518110610fdb57fe5b6020026020010151600001516001600160a01b0316141561100e5760405162461bcd60e51b8152600401610d4290614fc6565b6000306001600160a01b0316637dc0d1d06040518163ffffffff1660e01b815260040160206040518083038186803b15801561104957600080fd5b505afa15801561105d573d6000803e3d6000fd5b505050506040513d601f19601f820116820180604052508101906110819190614345565b6001600160a01b0316639d23c4c76040518163ffffffff1660e01b815260040160206040518083038186803b1580156110b957600080fd5b505afa1580156110cd573d6000803e3d6000fd5b505050506040513d601f19601f820116820180604052508101906110f19190614345565b905060008060008060008651905060005b818110156113a45787818151811061111657fe5b60200260200101516000015192508060001480611175575087600182038151811061113d57fe5b6020026020010151600001516001600160a01b031688828151811061115e57fe5b6020026020010151600001516001600160a01b0316115b6111915760405162461bcd60e51b8152600401610d4290614ddf565b600088828151811061119f57fe5b60200260200101516020015190506000886001600160a01b03166397d39de4866040518263ffffffff1660e01b81526004016111db9190614c1a565b60206040518083038186803b1580156111f357600080fd5b505afa158015611207573d6000803e3d6000fd5b505050506040513d601f19601f8201168201806040525081019061122b91906149bd565b905060028114156112835760019650600082131561125b5760405162461bcd60e51b8152600401610d4290614ee0565b61270f1982121561127e5760405162461bcd60e51b8152600401610d429061528e565b6112d4565b600181141561129157600197505b60008212156112b25760405162461bcd60e51b8152600401610d4290615043565b6127108213156112d45760405162461bcd60e51b8152600401610d429061528e565b6040516346a7483760e01b81526000906001600160a01b038b16906346a7483790611303908990600401614c1a565b60206040518083038186803b15801561131b57600080fd5b505afa15801561132f573d6000803e3d6000fd5b505050506040513d601f19601f8201168201806040525081019061135391906149bd565b905060038114156113765760405162461bcd60e51b8152600401610d42906151bd565b600281141561138a5761138a8c878c613059565b611394878461325d565b9650505050806001019050611102565b508480156113af5750835b156113cc5760405162461bcd60e51b8152600401610d42906150e8565b6103e883146113ed5760405162461bcd60e51b8152600401610d42906150b1565b5050505050505050565b6113ed88888888888888886132a3565b6000611414858484612359565b905061149f6103e8610df4876001600160a01b0316633dfe9f6a6040518163ffffffff1660e01b815260040160206040518083038186803b15801561145857600080fd5b505afa15801561146c573d6000803e3d6000fd5b505050506040513d601f19601f8201168201806040525081019061149091906149bd565b670de0b6b3a764000090612ec0565b8111156114c657838111156114c65760405162461bcd60e51b8152600401610d4290614e06565b5050505050565b3090565b6114dc818484613315565b8051909150600090815b818110156115a5578381815181106114fa57fe5b60200260200101516001600160a01b03166370a08231886040518263ffffffff1660e01b815260040161152d9190614c1a565b60206040518083038186803b15801561154557600080fd5b505afa158015611559573d6000803e3d6000fd5b505050506040513d601f19601f8201168201806040525081019061157d91906149bd565b9250821561159d5760405162461bcd60e51b8152600401610d4290614f8f565b6001016114e6565b50505050505050565b6115b7866129b3565b866001600160a01b0316634a2f38a56040518163ffffffff1660e01b8152600401600060405180830381600087803b1580156115f257600080fd5b505af1158015611606573d6000803e3d6000fd5b50505050600080606061161a8a89876122a6565b925092509250821561163e5760405162461bcd60e51b8152600401610d4290614e63565b6000896001600160a01b031663ef430aa66040518163ffffffff1660e01b815260040160206040518083038186803b15801561167957600080fd5b505afa15801561168d573d6000803e3d6000fd5b505050506040513d601f19601f820116820180604052508101906116b1919061499e565b60038111156116bc57fe5b146116e65781816040516020016116d492919061547e565b60405160208183030381529060405293505b6117018a8a8b6001600160a01b031663ea1ea75e8b89612f61565b6000806117108c8b60006122a6565b5091509150816117325760405162461bcd60e51b8152600401610d42906152b5565b61173d81858a612e8c565b8b6001600160a01b031663dbbc5aca828e6001600160a01b03166318160ddd6040518163ffffffff1660e01b815260040160206040518083038186803b15801561178657600080fd5b505afa15801561179a573d6000803e3d6000fd5b505050506040513d601f19601f820116820180604052508101906117be91906149bd565b6040518363ffffffff1660e01b81526004016117db929190614d87565b600060405180830381600087803b1580156117f557600080fd5b505af1158015611809573d6000803e3d6000fd5b505050508b6001600160a01b03167f3c68b618895163690097ea6be7a9e23fd831b0ba9eb05d65df5a4c20164caee78583604051611848929190614d87565b60405180910390a2505050505050505050505050565b60008061186a866129b3565b846118875760405162461bcd60e51b8152600401610d429061526c565b61189084612abe565b866001600160a01b0316634a2f38a56040518163ffffffff1660e01b8152600401600060405180830381600087803b1580156118cb57600080fd5b505af11580156118df573d6000803e3d6000fd5b505050506000306001600160a01b03166316f0115b6040518163ffffffff1660e01b815260040160206040518083038186803b15801561191e57600080fd5b505afa158015611932573d6000803e3d6000fd5b505050506040513d601f19601f820116820180604052508101906119569190614345565b905060008060006060306001600160a01b0316637dc0d1d06040518163ffffffff1660e01b815260040160206040518083038186803b15801561199857600080fd5b505afa1580156119ac573d6000803e3d6000fd5b505050506040513d601f19601f820116820180604052508101906119d09190614345565b6001600160a01b031663ff4a19028d6040518263ffffffff1660e01b81526004016119fb9190614c1a565b60006040518083038186803b158015611a1357600080fd5b505afa158015611a27573d6000803e3d6000fd5b505050506040513d6000823e601f3d908101601f19168201604052611a4f9190810190614afc565b9093509050611a5f8c8483612359565b915060008c6001600160a01b03166318160ddd6040518163ffffffff1660e01b815260040160206040518083038186803b158015611a9c57600080fd5b505afa158015611ab0573d6000803e3d6000fd5b505050506040513d601f19601f82011682018060405250810190611ad491906149bd565b604051632770a7eb60e21b81529091506001600160a01b038e1690639dc29fac90611b059033908f90600401614c2e565b602060405180830381600087803b158015611b1f57600080fd5b505af1158015611b33573d6000803e3d6000fd5b505050506040513d601f19601f82011682018060405250810190611b5791906149bd565b9a50611b6781610df4868e612ec0565b965060008c6001600160a01b031663ef430aa66040518163ffffffff1660e01b815260040160206040518083038186803b158015611ba457600080fd5b505afa158015611bb8573d6000803e3d6000fd5b505050506040513d601f19601f82011682018060405250810190611bdc919061499e565b6003811115611be757fe5b14611d9b576040516370a0823160e01b81526000906001600160a01b038f16906370a0823190611c1b908a90600401614c1a565b60206040518083038186803b158015611c3357600080fd5b505afa158015611c47573d6000803e3d6000fd5b505050506040513d601f19601f82011682018060405250810190611c6b91906149bd565b90508015611d58576000611c94611c828e84612f3c565b610df484670de0b6b3a7640000612ec0565b9050662386f26fc1000081118015611cb3575067016345785d8a000081105b15611d56578e6001600160a01b0316639dc29fac89846040518363ffffffff1660e01b8152600401611ce6929190614c2e565b602060405180830381600087803b158015611d0057600080fd5b505af1158015611d14573d6000803e3d6000fd5b505050506040513d601f19601f82011682018060405250810190611d3891906149bd565b50611d4783610df48885612ec0565b9650611d538d83612f3c565b9c505b505b506000611d7182610df48e670de0b6b3a7640000612ec0565b9050808584604051602001611d8893929190615497565b6040516020818303038152906040529950505b5050306001600160a01b0316633fc8cef36040518163ffffffff1660e01b815260040160206040518083038186803b158015611dd657600080fd5b505afa158015611dea573d6000803e3d6000fd5b505050506040513d601f19601f82011682018060405250810190611e0e9190614345565b9550611e2b8b8b8c6001600160a01b0316634bb78b148a8c612f61565b60006060306001600160a01b0316637dc0d1d06040518163ffffffff1660e01b815260040160206040518083038186803b158015611e6857600080fd5b505afa158015611e7c573d6000803e3d6000fd5b505050506040513d601f19601f82011682018060405250810190611ea09190614345565b6001600160a01b031663ff4a19028e6040518263ffffffff1660e01b8152600401611ecb9190614c1a565b60006040518083038186803b158015611ee357600080fd5b505afa158015611ef7573d6000803e3d6000fd5b505050506040513d6000823e601f3d908101601f19168201604052611f1f9190810190614afc565b915091506000886001600160a01b03166370a082318f6040518263ffffffff1660e01b8152600401611f519190614c1a565b60206040518083038186803b158015611f6957600080fd5b505afa158015611f7d573d6000803e3d6000fd5b505050506040513d601f19601f82011682018060405250810190611fa191906149bd565b9050611fad818761344c565b9050600083861115611fef576000611fc5878661344c565b9050898110611fe65760405162461bcd60e51b8152600401610d4290615312565b89039050611ff2565b50875b8181111561200d57612005828a8e612e8c565b81985061201c565b612018818a8e612e8c565b8098505b6120308761202a868c61344c565b9061344c565b935050506120408d848484611407565b8c6001600160a01b031663dbbc5aca838f6001600160a01b03166318160ddd6040518163ffffffff1660e01b815260040160206040518083038186803b15801561208957600080fd5b505afa15801561209d573d6000803e3d6000fd5b505050506040513d601f19601f820116820180604052508101906120c191906149bd565b6040518363ffffffff1660e01b81526004016120de929190614d87565b600060405180830381600087803b1580156120f857600080fd5b505af115801561210c573d6000803e3d6000fd5b5050506001600160a01b038e16905063da3e3397893061212c8b8a612f3c565b6040518463ffffffff1660e01b815260040161214a93929190614c61565b600060405180830381600087803b15801561216457600080fd5b505af1158015612178573d6000803e3d6000fd5b505050508460001461220857876001600160a01b03166323b872dd8e88886040518463ffffffff1660e01b81526004016121b493929190614c61565b602060405180830381600087803b1580156121ce57600080fd5b505af11580156121e2573d6000803e3d6000fd5b505050506040513d601f19601f820116820180604052508101906122069190614555565b505b336001600160a01b03168d6001600160a01b03167ff341246adaac6f497bc2a656f546ab9e182111d630394f0c57c710a59a2cb567898e60405161224d929190614d87565b60405180910390a35050505050509550959350505050565b6114c685858580806020026020016040519081016040528093929190818152602001838360200280828437600092019190915250879250869150612ae09050565b60008060606000866001600160a01b0316633dfe9f6a6040518163ffffffff1660e01b815260040160206040518083038186803b1580156122e657600080fd5b505afa1580156122fa573d6000803e3d6000fd5b505050506040513d601f19601f8201168201806040525081019061231e91906149bd565b9050841561233e576103e86123338287612ec0565b8161233a57fe5b0490505b61234987878361348e565b9350935093505093509350939050565b60008261236857506000612713565b60006060856001600160a01b031663c06fad066040518163ffffffff1660e01b815260040160006040518083038186803b1580156123a557600080fd5b505afa1580156123b9573d6000803e3d6000fd5b505050506040513d6000823e601f3d908101601f191682016040526123e19190810190614522565b805190915060005b8181101561253557600073__$59902e9d6730bb3d0c2c9d68301f7cefef$__635ab804ba898b87868151811061241b57fe5b60200260200101516040518463ffffffff1660e01b81526004016124419392919061545f565b60206040518083038186803b15801561245957600080fd5b505af415801561246d573d6000803e3d6000fd5b505050506040513d601f19601f8201168201806040525081019061249191906149bd565b9050808783815181106124a057fe5b602002602001015113156124e5576124de6124d7828985815181106124c157fe5b6020026020010151613a3990919063ffffffff16565b8690612f3c565b945061252c565b808783815181106124f257fe5b6020026020010151121561252c576125296124d788848151811061251257fe5b602002602001015183613a3990919063ffffffff16565b94505b506001016123e9565b506060876001600160a01b0316630dca59c16040518163ffffffff1660e01b815260040160006040518083038186803b15801561257157600080fd5b505afa158015612585573d6000803e3d6000fd5b505050506040513d6000823e601f3d908101601f191682016040526125ad9190810190614522565b90508051915060005b828110156126f557600073__$59902e9d6730bb3d0c2c9d68301f7cefef$__635ab804ba8a8c8686815181106125e857fe5b60200260200101516040518463ffffffff1660e01b815260040161260e9392919061545f565b60206040518083038186803b15801561262657600080fd5b505af415801561263a573d6000803e3d6000fd5b505050506040513d601f19601f8201168201806040525081019061265e91906149bd565b905060008286510190508189828151811061267557fe5b602002602001015113156126a45761269d612696838b84815181106124c157fe5b8890612f3c565b96506126eb565b818982815181106126b157fe5b602002602001015112156126eb576126e86126968a83815181106126d157fe5b602002602001015184613a3990919063ffffffff16565b96505b50506001016125b6565b5061270c87610df486670de0b6b3a7640000612ec0565b9450505050505b9392505050565b6000612724613fc5565b306001600160a01b0316637dc0d1d06040518163ffffffff1660e01b815260040160206040518083038186803b15801561275d57600080fd5b505afa158015612771573d6000803e3d6000fd5b505050506040513d601f19601f820116820180604052508101906127959190614345565b6001600160a01b0316639d23c4c76040518163ffffffff1660e01b815260040160206040518083038186803b1580156127cd57600080fd5b505afa1580156127e1573d6000803e3d6000fd5b505050506040513d601f19601f820116820180604052508101906128059190614345565b6001600160a01b0316635109dfcd6000196040518263ffffffff1660e01b81526004016128329190614c1a565b60006040518083038186803b15801561284a57600080fd5b505afa15801561285e573d6000803e3d6000fd5b505050506040513d6000823e601f3d908101601f1916820160405261288691908101906149d5565b9050600083600181111561289657fe5b8251515190915081106128bb5760405162461bcd60e51b8152600401610d4290615145565b8151518051829081106128ca57fe5b602002602001015192505050919050565b6000826128ea57506000612949565b826000191480156128fe5750600160ff1b82145b1561291b5760405162461bcd60e51b8152600401610d4290615225565b8282028284828161292857fe5b05146129465760405162461bcd60e51b8152600401610d4290615225565b90505b92915050565b60008161296e5760405162461bcd60e51b8152600401610d429061538d565b816000191480156129825750600160ff1b83145b1561299f5760405162461bcd60e51b8152600401610d429061517c565b60008284816129aa57fe5b05949350505050565b306001600160a01b03166393e59dc16040518163ffffffff1660e01b815260040160206040518083038186803b1580156129ec57600080fd5b505afa158015612a00573d6000803e3d6000fd5b505050506040513d601f19601f82011682018060405250810190612a249190614345565b6001600160a01b031663d8b964e6826040518263ffffffff1660e01b8152600401612a4f9190614c1a565b60206040518083038186803b158015612a6757600080fd5b505afa158015612a7b573d6000803e3d6000fd5b505050506040513d601f19601f82011682018060405250810190612a9f9190614555565b612abb5760405162461bcd60e51b8152600401610d429061511f565b50565b6103e8811115612abb5760405162461bcd60e51b8152600401610d429061528e565b825115612b4a5760405163081bd8a560e41b81526001600160a01b038516906381bd8a5090612b1790869086908690600401614cd2565b600060405180830381600087803b158015612b3157600080fd5b505af1158015612b45573d6000803e3d6000fd5b505050505b836001600160a01b031663d1cc8c9d6040518163ffffffff1660e01b815260040160206040518083038186803b158015612b8357600080fd5b505afa158015612b97573d6000803e3d6000fd5b505050506040513d601f19601f82011682018060405250810190612bbb9190614555565b15612c885780612c295760405163c0d7865560e01b81526001600160a01b0385169063c0d7865590612bf290600090600401614c1a565b600060405180830381600087803b158015612c0c57600080fd5b505af1158015612c20573d6000803e3d6000fd5b50505050612c88565b60405163c0d7865560e01b81526001600160a01b0385169063c0d7865590612c55908590600401614c1a565b600060405180830381600087803b158015612c6f57600080fd5b505af1158015612c83573d6000803e3d6000fd5b505050505b836001600160a01b031663494089496040518163ffffffff1660e01b815260040160206040518083038186803b158015612cc157600080fd5b505afa158015612cd5573d6000803e3d6000fd5b505050506040513d601f19601f82011682018060405250810190612cf99190614555565b15612d5a5760405163bfba814160e01b81526001600160a01b0385169063bfba814190612d2c9085908590600401614c2e565b600060405180830381600087803b158015612d4657600080fd5b505af11580156113ed573d6000803e3d6000fd5b50505050565b801580612de85750604051636eb1769f60e11b81526001600160a01b0384169063dd62ed3e90612d969030908690600401614c47565b60206040518083038186803b158015612dae57600080fd5b505afa158015612dc2573d6000803e3d6000fd5b505050506040513d601f19601f82011682018060405250810190612de691906149bd565b155b612e045760405162461bcd60e51b8152600401610d42906153c2565b612e878363095ea7b360e01b8484604051602401612e23929190614c2e565b60408051601f198184030181529190526020810180517bffffffffffffffffffffffffffffffffffffffffffffffffffffffff167fffffffff0000000000000000000000000000000000000000000000000000000090931692909217909152613a7f565b505050565b6103e8612e998383612ec0565b81612ea057fe5b04831015612e875760405162461bcd60e51b8152600401610d4290615312565b600082612ecf57506000612949565b82820282848281612edc57fe5b04146129465760405162461bcd60e51b8152600401610d42906151e4565b600061294683836040518060400160405280601a81526020017f536166654d6174683a206469766973696f6e206279207a65726f000000000000815250613b0e565b6000828201838110156129465760405162461bcd60e51b8152600401610d4290614e85565b610f4e86868686868b6001600160a01b031663c06fad066040518163ffffffff1660e01b815260040160006040518083038186803b158015612fa257600080fd5b505afa158015612fb6573d6000803e3d6000fd5b505050506040513d6000823e601f3d908101601f19168201604052612fde9190810190614522565b8c6001600160a01b0316630dca59c16040518163ffffffff1660e01b815260040160006040518083038186803b15801561301757600080fd5b505afa15801561302b573d6000803e3d6000fd5b505050506040513d6000823e601f3d908101601f191682016040526130539190810190614522565b886132a3565b826001600160a01b0316826001600160a01b0316141561308b5760405162461bcd60e51b8152600401610d429061541f565b816001600160a01b031663494089496040518163ffffffff1660e01b815260040160206040518083038186803b1580156130c457600080fd5b505afa1580156130d8573d6000803e3d6000fd5b505050506040513d601f19601f820116820180604052508101906130fc9190614555565b156131195760405162461bcd60e51b8152600401610d4290614da8565b6060826001600160a01b031663c06fad066040518163ffffffff1660e01b815260040160006040518083038186803b15801561315457600080fd5b505afa158015613168573d6000803e3d6000fd5b505050506040513d6000823e601f3d908101601f191682016040526131909190810190614522565b805190915060005b81811015610f4e576002846001600160a01b03166346a748378584815181106131bd57fe5b60200260200101516040518263ffffffff1660e01b81526004016131e19190614c1a565b60206040518083038186803b1580156131f957600080fd5b505afa15801561320d573d6000803e3d6000fd5b505050506040513d601f19601f8201168201806040525081019061323191906149bd565b1415613255576132558684838151811061324757fe5b602002602001015186613059565b600101613198565b60008282018183128015906132725750838112155b80613287575060008312801561328757508381125b6129465760405162461bcd60e51b8152600401610d4290614f4e565b6132b3888585858b600019613b45565b858589836040518363ffffffff1660e01b81526004016132d4929190614c85565b600060405180830381600087803b1580156132ee57600080fd5b505af1158015613302573d6000803e3d6000fd5b505050506113ed888585858b6000613b45565b606061331f613fe5565b613327613c1f565b90508260005b818110156133715761336986868381811061334457fe5b90506020020160208101906133599190614329565b84906001600160a01b0316613c69565b60010161332d565b5061337a613fe5565b613382613c1f565b905060008751925060005b838110156133e85760008982815181106133a357fe5b60200260200101516001600160a01b031690506133c98187613d1390919063ffffffff16565b516133df576133d88482613c69565b8260010192505b5060010161338d565b508015613441578067ffffffffffffffff8111801561340657600080fd5b50604051908082528060200260200182016040528015613430578160200160208202803683370190505b50945061343f82866000613d73565b505b505050509392505050565b600061294683836040518060400160405280601e81526020017f536166654d6174683a207375627472616374696f6e206f766572666c6f770000815250613e34565b600080606060006060866001600160a01b031663ff4a1902896040518263ffffffff1660e01b81526004016134c39190614c1a565b60006040518083038186803b1580156134db57600080fd5b505afa1580156134ef573d6000803e3d6000fd5b505050506040513d6000823e601f3d908101601f191682016040526135179190810190614afc565b915091506000600190506060896001600160a01b031663c06fad066040518163ffffffff1660e01b815260040160006040518083038186803b15801561355c57600080fd5b505afa158015613570573d6000803e3d6000fd5b505050506040513d6000823e601f3d908101601f191682016040526135989190810190614522565b905060005b81518110156137fa57600073__$59902e9d6730bb3d0c2c9d68301f7cefef$__635ab804ba878e8686815181106135d057fe5b60200260200101516040518463ffffffff1660e01b81526004016135f69392919061545f565b60206040518083038186803b15801561360e57600080fd5b505af4158015613622573d6000803e3d6000fd5b505050506040513d601f19601f8201168201806040525081019061364691906149bd565b90506000811315613743576040516335f2812160e11b815260009073__$59902e9d6730bb3d0c2c9d68301f7cefef$__90636be502429061368d9085908f90600401614d87565b60206040518083038186803b1580156136a557600080fd5b505af41580156136b9573d6000803e3d6000fd5b505050506040513d601f19601f820116820180604052508101906136dd91906149bd565b90506136e9828261325d565b8684815181106136f557fe5b6020026020010151131561370e576000945050506137fa565b6137188282613a39565b86848151811061372457fe5b6020026020010151121561373d576000945050506137fa565b506137f1565b6040516335f2812160e11b815273__$59902e9d6730bb3d0c2c9d68301f7cefef$__90636be502429061377d908990600190600401614d87565b60206040518083038186803b15801561379557600080fd5b505af41580156137a9573d6000803e3d6000fd5b505050506040513d601f19601f820116820180604052508101906137cd91906149bd565b8583815181106137d957fe5b602002602001015113156137f15760009350506137fa565b5060010161359d565b508115613a2b5760608a6001600160a01b0316630dca59c16040518163ffffffff1660e01b815260040160006040518083038186803b15801561383c57600080fd5b505afa158015613850573d6000803e3d6000fd5b505050506040513d6000823e601f3d908101601f191682016040526138789190810190614522565b905060005b8151811015613a2857600073__$59902e9d6730bb3d0c2c9d68301f7cefef$__635ab804ba888f8686815181106138b057fe5b60200260200101516040518463ffffffff1660e01b81526004016138d69392919061545f565b60206040518083038186803b1580156138ee57600080fd5b505af4158015613902573d6000803e3d6000fd5b505050506040513d601f19601f8201168201806040525081019061392691906149bd565b9050600073__$59902e9d6730bb3d0c2c9d68301f7cefef$__636be50242838e6040518363ffffffff1660e01b8152600401613963929190614d87565b60206040518083038186803b15801561397b57600080fd5b505af415801561398f573d6000803e3d6000fd5b505050506040513d601f19601f820116820180604052508101906139b391906149bd565b855190915083016139c4838361325d565b8882815181106139d057fe5b602002602001015112156139ea5760009650505050613a28565b6139f48383613a39565b888281518110613a0057fe5b60200260200101511315613a1a5760009650505050613a28565b50505080600101905061387d565b50505b509891975095509350505050565b6000818303818312801590613a4e5750838113155b80613a635750600083128015613a6357508381135b6129465760405162461bcd60e51b8152600401610d4290615349565b6060613ad4826040518060400160405280602081526020017f5361666545524332303a206c6f772d6c6576656c2063616c6c206661696c6564815250856001600160a01b0316613e609092919063ffffffff16565b805190915015612e875780806020019051810190613af29190614555565b612e875760405162461bcd60e51b8152600401610d429061507a565b60008183613b2f5760405162461bcd60e51b8152600401610d429190614d95565b506000838581613b3b57fe5b0495945050505050565b60405163da3e339760e01b81526001600160a01b0387169063da3e339790613b7590889086908690600401614c61565b600060405180830381600087803b158015613b8f57600080fd5b505af1158015613ba3573d6000803e3d6000fd5b505050508351600014613c1357604051630eaa4c9560e21b81526001600160a01b03871690633aa9325490613be090879086908690600401614cd2565b600060405180830381600087803b158015613bfa57600080fd5b505af1158015613c0e573d6000803e3d6000fd5b505050505b610f4e86848484612ae0565b613c27613fe5565b613c2f613fe5565b6040805160028082526060820190925290816020015b613c4d613fe5565b815260200190600190039081613c455750506040820152919050565b8151613c7f576001825260208201819052613d0f565b8082602001511415613c9057613d0f565b60008183602001511115613ca2575060015b82604001518181518110613cb257fe5b60200260200101516000015115613ce957613ce483604001518281518110613cd657fe5b602002602001015183613c69565b612e87565b613cf282613e6f565b83604001518281518110613d0257fe5b6020026020010181905250505b5050565b613d1b613fe5565b82511580613d2c5750818360200151145b15613d38575081612949565b60008284602001511115613d4a575060015b613d6b84604001518281518110613d5d57fe5b602002602001015184613d13565b949350505050565b60008360400151600081518110613d8657fe5b60200260200101516000015115613dbd57613dba8460400151600081518110613dab57fe5b60200260200101518484613d73565b91505b8360200151838381518110613dce57fe5b60200260200101906001600160a01b031690816001600160a01b0316815250508160010191508360400151600181518110613e0557fe5b60200260200101516000015115613e2d57613e2a8460400151600181518110613dab57fe5b91505b5092915050565b60008184841115613e585760405162461bcd60e51b8152600401610d429190614d95565b505050900390565b6060613d6b8484600085613ec5565b613e77613fe5565b613e7f613fe5565b60018152602081018390526040805160028082526060820190925290816020015b613ea8613fe5565b815260200190600190039081613ea0575050604082015292915050565b606082471015613ee75760405162461bcd60e51b8152600401610d4290614ffd565b613ef085613f86565b613f0c5760405162461bcd60e51b8152600401610d42906152db565b60006060866001600160a01b03168587604051613f299190614bfe565b60006040518083038185875af1925050503d8060008114613f66576040519150601f19603f3d011682016040523d82523d6000602084013e613f6b565b606091505b5091509150613f7b828286613f8c565b979650505050505050565b3b151590565b60608315613f9b575081612713565b825115613fab5782518084602001fd5b8160405162461bcd60e51b8152600401610d429190614d95565b6040518060400160405280613fd8614008565b8152600060209091015290565b604051806060016040528060001515815260200160008152602001606081525090565b60405180606001604052806060815260200160608152602001606081525090565b803561294981615556565b805161294981615556565b60008083601f840112614050578182fd5b50813567ffffffffffffffff811115614067578182fd5b602083019150836020808302850101111561408157600080fd5b9250929050565b600082601f830112614098578081fd5b81356140ab6140a6826154e6565b6154bf565b8181529150602080830190848101818402860182018710156140cc57600080fd5b60005b848110156140f45781356140e281615556565b845292820192908201906001016140cf565b505050505092915050565b600082601f83011261410f578081fd5b815161411d6140a6826154e6565b81815291506020808301908481018184028601820187101561413e57600080fd5b60005b848110156140f457815161415481615556565b84529282019290820190600101614141565b600082601f830112614176578081fd5b81356141846140a6826154e6565b8181529150602080830190848101818402860182018710156141a557600080fd5b60005b848110156140f4578135845292820192908201906001016141a8565b600082601f8301126141d4578081fd5b81356141e26140a682615506565b91508082528360208285010111156141f957600080fd5b8060208401602084013760009082016020015292915050565b600080823567ffffffffffffffff198116811461422d578283fd5b8060601c925063ffffffff8160401c169150509250929050565b600060608284031215614258578081fd5b61426260606154bf565b9050813561426f81615556565b815260208281013590820152604082013567ffffffffffffffff8082111561429657600080fd5b90830190606082860312156142aa57600080fd5b6142b460606154bf565b8235828111156142c357600080fd5b6142cf87828601614088565b8252506020830135828111156142e457600080fd5b6142f087828601614088565b60208301525060408301358281111561430857600080fd5b614314878286016141c4565b60408301525080604085015250505092915050565b60006020828403121561433a578081fd5b813561294681615556565b600060208284031215614356578081fd5b815161294681615556565b60008060008060608587031215614376578283fd5b843561438181615556565b9350602085013567ffffffffffffffff8082111561439d578485fd5b6143a98883890161403f565b909550935060408701359150808211156143c1578283fd5b506143ce87828801614088565b91505092959194509250565b600080604083850312156143ec578182fd5b82356143f781615556565b915060208381013567ffffffffffffffff811115614413578283fd5b8401601f81018613614423578283fd5b80356144316140a6826154e6565b81815283810190838501865b84811015614466576144548b888435890101614247565b8452928601929086019060010161443d565b5096999098509650505050505050565b60008060006060848603121561448a578081fd5b833561449581615556565b925060208401359150604084013567ffffffffffffffff8111156144b7578182fd5b6144c386828701614166565b9150509250925092565b600080600080608085870312156144e2578182fd5b84356144ed81615556565b93506020850135925060408501359150606085013567ffffffffffffffff811115614516578182fd5b6143ce87828801614166565b600060208284031215614533578081fd5b815167ffffffffffffffff811115614549578182fd5b613d6b848285016140ff565b600060208284031215614566578081fd5b81518015158114612946578182fd5b600080600060608486031215614589578081fd5b833561459481615556565b925060208401356145a481615556565b915060408401356145b481615556565b809150509250925092565b6000806000806000608086880312156145d6578283fd5b85356145e181615556565b9450602086013567ffffffffffffffff8111156145fc578384fd5b6146088882890161403f565b909550935050604086013561461c81615556565b949793965091946060013592915050565b600080600060608486031215614641578081fd5b833561464c81615556565b9250602084013561465c81615556565b929592945050506040919091013590565b60008060008060008060008060006101208a8c03121561468b578687fd5b893561469681615556565b985060208a01356146a681615556565b975060408a01356146b681615556565b965060608a0135955060808a0135945060a08a0135935060c08a0135925060e08a01356146e281615556565b91506101008a013567ffffffffffffffff8111156146fe578182fd5b61470a8c828d016141c4565b9150509295985092959850929598565b600080600080600080600060e0888a031215614734578081fd5b873561473f81615556565b9650602088013561474f81615556565b9550604088013561475f81615556565b9450606088013561476f81615556565b93506080880135925060a0880135915060c088013567ffffffffffffffff811115614798578182fd5b6147a48a828b016141c4565b91505092959891949750929550565b60008060008060008060008060e0898b0312156147ce578182fd5b88356147d981615556565b975060208901356147e981615556565b96506147f88a60408b01614212565b909650945061480a8a60608b01614029565b9350608089013567ffffffffffffffff80821115614826578384fd5b6148328c838d01614088565b945060a08b0135915080821115614847578384fd5b6148538c838d01614088565b935060c08b0135915080821115614868578283fd5b506148758b828c016141c4565b9150509295985092959890939650565b60008060008060008060a0878903121561489d578384fd5b86356148a881615556565b955060208701356148b881615556565b9450604087013567ffffffffffffffff19811681146148d5578485fd5b8060601c945063ffffffff8160401c1693505060608701356148f681615556565b9150608087013567ffffffffffffffff811115614911578182fd5b61491d89828a016141c4565b9150509295509295509295565b600080600080600060a08688031215614941578283fd5b853561494c81615556565b9450602086013561495c81615556565b93506040860135925060608601359150608086013567ffffffffffffffff811115614985578182fd5b614991888289016141c4565b9150509295509295909350565b6000602082840312156149af578081fd5b815160048110612946578182fd5b6000602082840312156149ce578081fd5b5051919050565b600060208083850312156149e7578182fd5b825167ffffffffffffffff808211156149fe578384fd5b9084019060408287031215614a11578384fd5b614a1b60406154bf565b825182811115614a29578586fd5b830160608189031215614a3a578586fd5b614a4460606154bf565b815184811115614a52578788fd5b614a5e8a8285016140ff565b8252508582015184811115614a71578788fd5b614a7d8a8285016140ff565b8783015250604082015184811115614a93578788fd5b82019350601f84018913614aa5578687fd5b83519150614ab56140a683615506565b8281528987848701011115614ac8578788fd5b614ad78388830189880161552a565b6040820152825250614aeb87848601614034565b848201528094505050505092915050565b60008060408385031215614b0e578182fd5b8251915060208084015167ffffffffffffffff811115614b2c578283fd5b8401601f81018613614b3c578283fd5b8051614b4a6140a6826154e6565b81815283810190838501858402850186018a1015614b66578687fd5b8694505b83851015614b88578051835260019490940193918501918501614b6a565b5080955050505050509250929050565b6000815180845260208085019450808401835b83811015614bc757815187529582019590820190600101614bab565b509495945050505050565b60008151808452614bea81602086016020860161552a565b601f01601f19169290920160200192915050565b60008251614c1081846020870161552a565b9190910192915050565b6001600160a01b0391909116815260200190565b6001600160a01b03929092168252602082015260400190565b6001600160a01b0392831681529116602082015260400190565b6001600160a01b039384168152919092166020820152604081019190915260600190565b60006001600160a01b038416825260406020830152613d6b6040830184614bd2565b6001600160a01b03948516815260208101939093529083166040830152909116606082015260800190565b606080825284519082018190526000906020906080840190828801845b82811015614d145781516001600160a01b031684529284019290840190600101614cef565b5050506001600160a01b0395909516908301525060400152919050565b600060608201851515835260208581850152606060408501528185518084526080860191508287019350845b81811015614d7957845183529383019391830191600101614d5d565b509098975050505050505050565b918252602082015260400190565b6000602082526129466020830184614bd2565b60208082526014908201527f53796e746873206e6f7420737570706f72746564000000000000000000000000604082015260600190565b6020808252600d908201526c4974656d206f72646572696e6760981b604082015260600190565b6020808252600c908201526b4c6f73742062616c616e636560a01b604082015260600190565b6020808252601a908201527f43616e6e6f742073657420656d70747920737472756374757265000000000000604082015260600190565b60208082526008908201526710985b185b98d95960c21b604082015260600190565b6020808252601b908201527f536166654d6174683a206164646974696f6e206f766572666c6f770000000000604082015260600190565b6020808252600a90820152694c6f73742076616c756560b01b604082015260600190565b60208082526017908201527f446562742063616e6e6f7420626520706f736974697665000000000000000000604082015260600190565b60208082526011908201527f496e7375666669656e7420746f6b656e73000000000000000000000000000000604082015260600190565b60208082526021908201527f5369676e6564536166654d6174683a206164646974696f6e206f766572666c6f6040820152607760f81b606082015260800190565b60208082526015908201527f466f726d657220646562742072656d61696e696e670000000000000000000000604082015260600190565b60208082526011908201527f496e76616c6964206974656d2061646472000000000000000000000000000000604082015260600190565b60208082526026908201527f416464726573733a20696e73756666696369656e742062616c616e636520666f6040820152651c8818d85b1b60d21b606082015260800190565b60208082526018908201527f546f6b656e2063616e6e6f74206265206e656761746976650000000000000000604082015260600190565b60208082526013908201527f5361666545524332303a20217375636365737300000000000000000000000000604082015260600190565b60208082526016908201527f546f74616c2070657263656e746167652077726f6e6700000000000000000000604082015260600190565b60208082526012908201527f4e6f2073796e74687320616e6420646562740000000000000000000000000000604082015260600190565b6020808252600c908201526b139bdd08185c1c1c9bdd995960a21b604082015260600190565b60208082526015908201527f496e76616c6964206164617074657220696e6465780000000000000000000000604082015260600190565b60208082526021908201527f5369676e6564536166654d6174683a206469766973696f6e206f766572666c6f6040820152607760f81b606082015260800190565b6020808252600d908201526c151bdad95b88189b1bd8dad959609a1b604082015260600190565b60208082526021908201527f536166654d6174683a206d756c7469706c69636174696f6e206f766572666c6f6040820152607760f81b606082015260800190565b60208082526027908201527f5369676e6564536166654d6174683a206d756c7469706c69636174696f6e206f604082015266766572666c6f7760c81b606082015260800190565b6020808252600890820152670c08185b5bdd5b9d60c21b604082015260600190565b6020808252600d908201526c4f7574206f6620626f756e647360981b604082015260600190565b6020808252600c908201526b139bdd0818985b185b98d95960a21b604082015260600190565b6020808252601d908201527f416464726573733a2063616c6c20746f206e6f6e2d636f6e7472616374000000604082015260600190565b60208082526011908201527f546f6f206d75636820736c697070616765000000000000000000000000000000604082015260600190565b60208082526024908201527f5369676e6564536166654d6174683a207375627472616374696f6e206f766572604082015263666c6f7760e01b606082015260800190565b6020808252818101527f5369676e6564536166654d6174683a206469766973696f6e206279207a65726f604082015260600190565b60208082526036908201527f5361666545524332303a20617070726f76652066726f6d206e6f6e2d7a65726f60408201527f20746f206e6f6e2d7a65726f20616c6c6f77616e636500000000000000000000606082015260800190565b60208082526011908201527f4379636c696320646570656e64656e6379000000000000000000000000000000604082015260600190565b90815260200190565b9283526001600160a01b03918216602084015216604082015260600190565b600083825260406020830152613d6b6040830184614b98565b6000848252836020830152606060408301526154b66060830184614b98565b95945050505050565b60405181810167ffffffffffffffff811182821017156154de57600080fd5b604052919050565b600067ffffffffffffffff8211156154fc578081fd5b5060209081020190565b600067ffffffffffffffff82111561551c578081fd5b50601f01601f191660200190565b60005b8381101561554557818101518382015260200161552d565b83811115612d5a5750506000910152565b6001600160a01b0381168114612abb57600080fdfea264697066735822122079402bca003c5e30ca1409d5af8da13d554a80bf8b89270cb77cd63fb1ce8ada64736f6c634300060c0033",
  "linkReferences": {
    "contracts/libraries/StrategyLibrary.sol": {
      "StrategyLibrary": [
        {
          "length": 20,
          "start": 9244
        },
        {
          "length": 20,
          "start": 9705
        },
        {
          "length": 20,
          "start": 13777
        },
        {
          "length": 20,
          "start": 13962
        },
        {
          "length": 20,
          "start": 14201
        },
        {
          "length": 20,
          "start": 14513
        },
        {
          "length": 20,
          "start": 14675
        }
      ]
    }
  },
  "deployedLinkReferences": {
    "contracts/libraries/StrategyLibrary.sol": {
      "StrategyLibrary": [
        {
          "length": 20,
          "start": 9205
        },
        {
          "length": 20,
          "start": 9666
        },
        {
          "length": 20,
          "start": 13738
        },
        {
          "length": 20,
          "start": 13923
        },
        {
          "length": 20,
          "start": 14162
        },
        {
          "length": 20,
          "start": 14474
        },
        {
          "length": 20,
          "start": 14636
        }
      ]
    }
  }
}