{
    "_format": "hh-sol-artifact-1",
    "contractName": "AaveLendAdapter",
    "sourceName": "contracts/adapters/lending/AaveLendAdapter.sol",
    "abi": [
        {
            "inputs": [
                {
                    "internalType": "address",
                    "name": "addressesProvider_",
                    "type": "address"
                },
                {
                    "internalType": "address",
                    "name": "strategyController_",
                    "type": "address"
                },
                {
                    "internalType": "address",
                    "name": "weth_",
                    "type": "address"
                }
            ],
            "stateMutability": "nonpayable",
            "type": "constructor"
        },
        {
            "inputs": [],
            "name": "addressesProvider",
            "outputs": [
                {
                    "internalType": "contract ILendingPoolAddressesProvider",
                    "name": "",
                    "type": "address"
                }
            ],
            "stateMutability": "view",
            "type": "function"
        },
        {
            "inputs": [
                {
                    "internalType": "uint256",
                    "name": "amount",
                    "type": "uint256"
                },
                {
                    "internalType": "address",
                    "name": "tokenIn",
                    "type": "address"
                },
                {
                    "internalType": "address",
                    "name": "tokenOut",
                    "type": "address"
                }
            ],
            "name": "spotPrice",
            "outputs": [
                {
                    "internalType": "uint256",
                    "name": "",
                    "type": "uint256"
                }
            ],
            "stateMutability": "view",
            "type": "function"
        },
        {
            "inputs": [],
            "name": "strategyController",
            "outputs": [
                {
                    "internalType": "contract IStrategyController",
                    "name": "",
                    "type": "address"
                }
            ],
            "stateMutability": "view",
            "type": "function"
        },
        {
            "inputs": [
                {
                    "internalType": "uint256",
                    "name": "amount",
                    "type": "uint256"
                },
                {
                    "internalType": "uint256",
                    "name": "expected",
                    "type": "uint256"
                },
                {
                    "internalType": "address",
                    "name": "tokenIn",
                    "type": "address"
                },
                {
                    "internalType": "address",
                    "name": "tokenOut",
                    "type": "address"
                },
                {
                    "internalType": "address",
                    "name": "from",
                    "type": "address"
                },
                {
                    "internalType": "address",
                    "name": "to",
                    "type": "address"
                }
            ],
            "name": "swap",
            "outputs": [],
            "stateMutability": "nonpayable",
            "type": "function"
        },
        {
            "inputs": [],
            "name": "weth",
            "outputs": [
                {
                    "internalType": "address",
                    "name": "",
                    "type": "address"
                }
            ],
            "stateMutability": "view",
            "type": "function"
        }
    ],
    "bytecode": "0x60e060405234801561001057600080fd5b50604051610db5380380610db583398101604081905261002f91610054565b6001600160601b0319606091821b811660805292811b831660a0521b1660c0526100b8565b600080600060608486031215610068578283fd5b8351610073816100a0565b6020850151909350610084816100a0565b6040850151909250610095816100a0565b809150509250925092565b6001600160a01b03811681146100b557600080fd5b50565b60805160601c60a05160601c60c05160601c610cba6100fb6000398060c052806103a25250806102155280610536528061067f5250806106525250610cba6000f3fe608060405234801561001057600080fd5b50600436106100565760003560e01c8062258d6b1461005b578063230f11c7146100795780633fc8cef31461008e57806377ec159d14610096578063c72c4d10146100b6575b600080fd5b6100636100be565b6040516100709190610a13565b60405180910390f35b61008c610087366004610988565b6100e2565b005b610063610650565b6100a96100a4366004610947565b610674565b6040516100709190610c37565b61006361067d565b7f000000000000000000000000000000000000000000000000000000000000000081565b826001600160a01b0316846001600160a01b0316141561011d5760405162461bcd60e51b815260040161011490610b89565b60405180910390fd5b8486101561013d5760405162461bcd60e51b815260040161011490610b53565b6001600160a01b0382163014610162576101626001600160a01b0385168330896106a1565b61016b836106ff565b1561049357836001600160a01b0316836001600160a01b031663b16a19de6040518163ffffffff1660e01b815260040160206040518083038186803b1580156101b357600080fd5b505afa1580156101c7573d6000803e3d6000fd5b505050506040513d601f19601f820116820180604052508101906101eb91906108f3565b6001600160a01b0316146102115760405162461bcd60e51b815260040161011490610ae7565b60007f00000000000000000000000000000000000000000000000000000000000000006001600160a01b0316630261bf8b6040518163ffffffff1660e01b815260040160206040518083038186803b15801561026c57600080fd5b505afa158015610280573d6000803e3d6000fd5b505050506040513d601f19601f820116820180604052508101906102a491906108f3565b60405163095ea7b360e01b81529091506001600160a01b0386169063095ea7b3906102d59084908b90600401610a4b565b602060405180830381600087803b1580156102ef57600080fd5b505af1158015610303573d6000803e3d6000fd5b505050506040513d601f19601f82011682018060405250810190610327919061090f565b5060405163e8eda9df60e01b81526001600160a01b0382169063e8eda9df9061035b9088908b908790600090600401610a87565b600060405180830381600087803b15801561037557600080fd5b505af1158015610389573d6000803e3d6000fd5b505060405163cbca47db60e01b81526001600160a01b037f000000000000000000000000000000000000000000000000000000000000000016925063cbca47db91506103d9908590600401610a13565b60206040518083038186803b1580156103f157600080fd5b505afa158015610405573d6000803e3d6000fd5b505050506040513d601f19601f82011682018060405250810190610429919061090f565b1561048d5760405163886abef560e01b81526001600160a01b0383169063886abef59061045a908890600401610a13565b600060405180830381600087803b15801561047457600080fd5b505af1158015610488573d6000803e3d6000fd5b505050505b50610648565b826001600160a01b0316846001600160a01b031663b16a19de6040518163ffffffff1660e01b815260040160206040518083038186803b1580156104d657600080fd5b505afa1580156104ea573d6000803e3d6000fd5b505050506040513d601f19601f8201168201806040525081019061050e91906108f3565b6001600160a01b0316146105345760405162461bcd60e51b815260040161011490610ae7565b7f00000000000000000000000000000000000000000000000000000000000000006001600160a01b0316630261bf8b6040518163ffffffff1660e01b815260040160206040518083038186803b15801561058d57600080fd5b505afa1580156105a1573d6000803e3d6000fd5b505050506040513d601f19601f820116820180604052508101906105c591906108f3565b6001600160a01b03166369328dec8488846040518463ffffffff1660e01b81526004016105f493929190610a64565b602060405180830381600087803b15801561060e57600080fd5b505af1158015610622573d6000803e3d6000fd5b505050506040513d601f19601f82011682018060405250810190610646919061092f565b505b505050505050565b7f000000000000000000000000000000000000000000000000000000000000000081565b825b9392505050565b7f000000000000000000000000000000000000000000000000000000000000000081565b6106f9846323b872dd60e01b8585856040516024016106c293929190610a27565b60408051601f198184030181529190526020810180516001600160e01b03166001600160e01b031990931692909217909152610748565b50505050565b6000807fb16a19de4224283fa4cedf7c621a3cea4e1b1dc9122d01b4093ee3537fd658a0905060006040516020810160405282815260208160048388611770fa95945050505050565b606061079d826040518060400160405280602081526020017f5361666545524332303a206c6f772d6c6576656c2063616c6c206661696c6564815250856001600160a01b03166107dc9092919063ffffffff16565b8051909150156107d757808060200190518101906107bb919061090f565b6107d75760405162461bcd60e51b815260040161011490610bed565b505050565b60606107eb84846000856107f3565b949350505050565b6060824710156108155760405162461bcd60e51b815260040161011490610b0d565b61081e856108b4565b61083a5760405162461bcd60e51b815260040161011490610bb6565b60006060866001600160a01b0316858760405161085791906109f7565b60006040518083038185875af1925050503d8060008114610894576040519150601f19603f3d011682016040523d82523d6000602084013e610899565b606091505b50915091506108a98282866108ba565b979650505050505050565b3b151590565b606083156108c9575081610676565b8251156108d95782518084602001fd5b8160405162461bcd60e51b81526004016101149190610ab4565b600060208284031215610904578081fd5b815161067681610c6c565b600060208284031215610920578081fd5b81518015158114610676578182fd5b600060208284031215610940578081fd5b5051919050565b60008060006060848603121561095b578182fd5b83359250602084013561096d81610c6c565b9150604084013561097d81610c6c565b809150509250925092565b60008060008060008060c087890312156109a0578182fd5b863595506020870135945060408701356109b981610c6c565b935060608701356109c981610c6c565b925060808701356109d981610c6c565b915060a08701356109e981610c6c565b809150509295509295509295565b60008251610a09818460208701610c40565b9190910192915050565b6001600160a01b0391909116815260200190565b6001600160a01b039384168152919092166020820152604081019190915260600190565b6001600160a01b03929092168252602082015260400190565b6001600160a01b0393841681526020810192909252909116604082015260600190565b6001600160a01b03948516815260208101939093529216604082015261ffff909116606082015260800190565b6000602082528251806020840152610ad3816040850160208701610c40565b601f01601f19169190910160400192915050565b6020808252600c908201526b496e636f6d70617469626c6560a01b604082015260600190565b60208082526026908201527f416464726573733a20696e73756666696369656e742062616c616e636520666f6040820152651c8818d85b1b60d21b606082015260800190565b6020808252601c908201527b125b9cdd59999a58da595b9d081d1bdad95b93dd5d08185b5bdd5b9d60221b604082015260600190565b6020808252601390820152720a8ded6cadce640c6c2dcdcdee840dac2e8c6d606b1b604082015260600190565b6020808252601d908201527f416464726573733a2063616c6c20746f206e6f6e2d636f6e7472616374000000604082015260600190565b6020808252602a908201527f5361666545524332303a204552433230206f7065726174696f6e20646964206e6040820152691bdd081cdd58d8d9595960b21b606082015260800190565b90815260200190565b60005b83811015610c5b578181015183820152602001610c43565b838111156106f95750506000910152565b6001600160a01b0381168114610c8157600080fd5b5056fea2646970667358221220a91fd7f08d306f1ea04e092e908319034b5c9bc4e7f8e8437fdcafe45911260f64736f6c634300060c0033",
    "linkReferences": {},
    "deployedLinkReferences": {}
}