{
  "_format": "hh-sol-artifact-1",
  "contractName": "MulticallRouter",
  "sourceName": "contracts/routers/MulticallRouter.sol",
  "abi": [
    {
      "inputs": [
        {
          "internalType": "address",
          "name": "controller_",
          "type": "address"
        }
      ],
      "stateMutability": "nonpayable",
      "type": "constructor"
    },
    {
      "inputs": [],
      "name": "category",
      "outputs": [
        {
          "internalType": "enum IStrategyRouter.RouterCategory",
          "name": "",
          "type": "uint8"
        }
      ],
      "stateMutability": "view",
      "type": "function"
    },
    {
      "inputs": [],
      "name": "controller",
      "outputs": [
        {
          "internalType": "contract IStrategyController",
          "name": "",
          "type": "address"
        }
      ],
      "stateMutability": "view",
      "type": "function"
    },
    {
      "inputs": [
        {
          "internalType": "address",
          "name": "adapter",
          "type": "address"
        },
        {
          "internalType": "uint256",
          "name": "amount",
          "type": "uint256"
        },
        {
          "internalType": "uint256",
          "name": "expected",
          "type": "uint256"
        },
        {
          "internalType": "address",
          "name": "tokenIn",
          "type": "address"
        },
        {
          "internalType": "address",
          "name": "tokenOut",
          "type": "address"
        },
        {
          "internalType": "address",
          "name": "from",
          "type": "address"
        },
        {
          "internalType": "address",
          "name": "to",
          "type": "address"
        }
      ],
      "name": "delegateSwap",
      "outputs": [],
      "stateMutability": "nonpayable",
      "type": "function"
    },
    {
      "inputs": [
        {
          "internalType": "address",
          "name": "",
          "type": "address"
        },
        {
          "internalType": "bytes",
          "name": "data",
          "type": "bytes"
        }
      ],
      "name": "deposit",
      "outputs": [],
      "stateMutability": "nonpayable",
      "type": "function"
    },
    {
      "inputs": [
        {
          "components": [
            {
              "internalType": "address",
              "name": "target",
              "type": "address"
            },
            {
              "internalType": "bytes",
              "name": "callData",
              "type": "bytes"
            }
          ],
          "internalType": "struct Multicall.Call[]",
          "name": "calls",
          "type": "tuple[]"
        }
      ],
      "name": "encodeCalls",
      "outputs": [
        {
          "internalType": "bytes",
          "name": "data",
          "type": "bytes"
        }
      ],
      "stateMutability": "pure",
      "type": "function"
    },
    {
      "inputs": [
        {
          "internalType": "address",
          "name": "",
          "type": "address"
        },
        {
          "internalType": "bytes",
          "name": "data",
          "type": "bytes"
        }
      ],
      "name": "rebalance",
      "outputs": [],
      "stateMutability": "nonpayable",
      "type": "function"
    },
    {
      "inputs": [
        {
          "internalType": "address",
          "name": "",
          "type": "address"
        },
        {
          "internalType": "bytes",
          "name": "data",
          "type": "bytes"
        }
      ],
      "name": "restructure",
      "outputs": [],
      "stateMutability": "nonpayable",
      "type": "function"
    },
    {
      "inputs": [
        {
          "internalType": "address",
          "name": "adapter",
          "type": "address"
        },
        {
          "internalType": "uint256",
          "name": "expected",
          "type": "uint256"
        },
        {
          "internalType": "address",
          "name": "tokenIn",
          "type": "address"
        },
        {
          "internalType": "address",
          "name": "tokenOut",
          "type": "address"
        },
        {
          "internalType": "address",
          "name": "from",
          "type": "address"
        },
        {
          "internalType": "address",
          "name": "to",
          "type": "address"
        }
      ],
      "name": "settleSwap",
      "outputs": [],
      "stateMutability": "nonpayable",
      "type": "function"
    },
    {
      "inputs": [
        {
          "internalType": "address",
          "name": "token",
          "type": "address"
        },
        {
          "internalType": "address",
          "name": "to",
          "type": "address"
        }
      ],
      "name": "settleTransfer",
      "outputs": [],
      "stateMutability": "nonpayable",
      "type": "function"
    },
    {
      "inputs": [
        {
          "internalType": "address",
          "name": "token",
          "type": "address"
        },
        {
          "internalType": "address",
          "name": "from",
          "type": "address"
        },
        {
          "internalType": "address",
          "name": "to",
          "type": "address"
        }
      ],
      "name": "settleTransferFrom",
      "outputs": [],
      "stateMutability": "nonpayable",
      "type": "function"
    },
    {
      "inputs": [],
      "name": "weth",
      "outputs": [
        {
          "internalType": "address",
          "name": "",
          "type": "address"
        }
      ],
      "stateMutability": "view",
      "type": "function"
    },
    {
      "inputs": [
        {
          "internalType": "address",
          "name": "",
          "type": "address"
        },
        {
          "internalType": "bytes",
          "name": "data",
          "type": "bytes"
        }
      ],
      "name": "withdraw",
      "outputs": [],
      "stateMutability": "nonpayable",
      "type": "function"
    }
  ],
  "bytecode": "0x60e06040523480156200001157600080fd5b50604051620015b1380380620015b183398101604081905262000034916200015a565b600060808190526001600160601b0319606083901b1660a052604080516307dc0d1d60e41b8152905183916001600160a01b03831691637dc0d1d091600480820192602092909190829003018186803b1580156200009157600080fd5b505afa158015620000a6573d6000803e3d6000fd5b505050506040513d601f19601f82011682018060405250810190620000cc91906200015a565b6001600160a01b0316633fc8cef36040518163ffffffff1660e01b815260040160206040518083038186803b1580156200010557600080fd5b505afa1580156200011a573d6000803e3d6000fd5b505050506040513d601f19601f820116820180604052508101906200014091906200015a565b60601b6001600160601b03191660c0525062000199915050565b6000602082840312156200016c578081fd5b8151620001798162000180565b9392505050565b6001600160a01b03811681146200019657600080fd5b50565b60805160f81c60a05160601c60c05160601c6113d3620001de600039806101aa52508061021a52806103295280610507528061054c5250806104e352506113d36000f3fe608060405234801561001057600080fd5b50600436106100d45760003560e01c8063beff455311610081578063ea1ea75e1161005b578063ea1ea75e14610152578063ef430aa61461018b578063f77c4791146101a0576100d4565b8063beff455314610165578063c5067ad414610178578063cf2c52cb14610152576100d4565b80634bb78b14116100b25780634bb78b141461012c578063914e390e1461013f578063ba11d5d014610152576100d4565b80633fc8cef3146100d95780634031d095146100f75780634438a7eb14610117575b600080fd5b6100e16101a8565b6040516100ee9190611000565b60405180910390f35b61010a610105366004610d25565b6101cc565b6040516100ee9190611130565b61012a610125366004610ca2565b6101f8565b005b61012a61013a366004610b5c565b610218565b61012a61014d366004610c2a565b610289565b61012a610160366004610bdc565b610327565b61012a610173366004610ada565b610396565b61012a610186366004610b12565b61043b565b6101936104e1565b6040516100ee9190611143565b6100e1610505565b7f000000000000000000000000000000000000000000000000000000000000000081565b606082826040516020016101e1929190611051565b604051602081830303815290604052905092915050565b610200610529565b61020f8787878787878761054a565b50505050505050565b7f00000000000000000000000000000000000000000000000000000000000000006001600160a01b031633146102695760405162461bcd60e51b815260040161026090611157565b60405180910390fd5b606061027782840184610d94565b9050610282816106fe565b5050505050565b610291610529565b6040516370a0823160e01b81526000906001600160a01b038616906370a08231906102c0908690600401611000565b60206040518083038186803b1580156102d857600080fd5b505afa1580156102ec573d6000803e3d6000fd5b505050506040513d601f19601f820116820180604052508101906103109190610fa0565b9050801561020f5761020f8782888888888861054a565b7f00000000000000000000000000000000000000000000000000000000000000006001600160a01b0316331461036f5760405162461bcd60e51b815260040161026090611157565b6060818060200190518101906103859190610e67565b9050610390816106fe565b50505050565b61039e610529565b6040516370a0823160e01b815282906000906001600160a01b038316906370a08231906103cf903090600401611000565b60206040518083038186803b1580156103e757600080fd5b505afa1580156103fb573d6000803e3d6000fd5b505050506040513d601f19601f8201168201806040525081019061041f9190610fa0565b90508015610390576103906001600160a01b038316848361083a565b610443610529565b6040516370a0823160e01b815283906000906001600160a01b038316906370a0823190610474908790600401611000565b60206040518083038186803b15801561048c57600080fd5b505afa1580156104a0573d6000803e3d6000fd5b505050506040513d601f19601f820116820180604052508101906104c49190610fa0565b90508015610282576102826001600160a01b038316858584610895565b7f000000000000000000000000000000000000000000000000000000000000000081565b7f000000000000000000000000000000000000000000000000000000000000000081565b3330146105485760405162461bcd60e51b815260040161026090611180565b565b7f00000000000000000000000000000000000000000000000000000000000000006001600160a01b03166393e59dc16040518163ffffffff1660e01b815260040160206040518083038186803b1580156105a357600080fd5b505afa1580156105b7573d6000803e3d6000fd5b505050506040513d601f19601f820116820180604052508101906105db9190610f84565b6001600160a01b031663d8b964e6886040518263ffffffff1660e01b81526004016106069190611000565b60206040518083038186803b15801561061e57600080fd5b505afa158015610632573d6000803e3d6000fd5b505050506040513d601f19601f820116820180604052508101906106569190610f64565b6106725760405162461bcd60e51b81526004016102609061125b565b606063230f11c760e01b878787878787604051602401610697969594939291906112b8565b60408051601f198184030181529190526020810180516001600160e01b03166001600160e01b031990931692909217909152905060005a905060008060008451602086018d86f49050806106f2576040513d806000833e8082fd5b50505050505050505050565b80516060908067ffffffffffffffff8111801561071a57600080fd5b5060405190808252806020026020018201604052801561074e57816020015b60608152602001906001900390816107395790505b509150610759610a5e565b6000805b838110156108315785818151811061077157fe5b6020026020010151925082513b91508161079d5760405162461bcd60e51b8152600401610260906111a7565b82600001516001600160a01b031683602001516040516107bd9190610fe4565b6000604051808303816000865af19150503d80600081146107fa576040519150601f19603f3d011682016040523d82523d6000602084013e6107ff565b606091505b5086838151811061080c57fe5b6020908102919091010152915081610829573d806000803e806000fd5b60010161075d565b50505050919050565b6108908363a9059cbb60e01b8484604051602401610859929190611038565b60408051601f198184030181529190526020810180516001600160e01b03166001600160e01b0319909316929092179091526108b6565b505050565b610390846323b872dd60e01b85858560405160240161085993929190611014565b606061090b826040518060400160405280602081526020017f5361666545524332303a206c6f772d6c6576656c2063616c6c206661696c6564815250856001600160a01b03166109459092919063ffffffff16565b80519091501561089057808060200190518101906109299190610f64565b6108905760405162461bcd60e51b815260040161026090611224565b6060610954848460008561095e565b90505b9392505050565b6060824710156109805760405162461bcd60e51b8152600401610260906111de565b61098985610a1f565b6109a55760405162461bcd60e51b815260040161026090611281565b60006060866001600160a01b031685876040516109c29190610fe4565b60006040518083038185875af1925050503d80600081146109ff576040519150601f19603f3d011682016040523d82523d6000602084013e610a04565b606091505b5091509150610a14828286610a25565b979650505050505050565b3b151590565b60608315610a34575081610957565b825115610a445782518084602001fd5b8160405162461bcd60e51b81526004016102609190611130565b60408051808201909152600081526060602082015290565b8035610a8181611385565b92915050565b600082601f830112610a97578081fd5b8135610aaa610aa582611335565b6112ee565b9150808252836020828501011115610ac157600080fd5b8060208401602084013760009082016020015292915050565b60008060408385031215610aec578182fd5b8235610af781611385565b91506020830135610b0781611385565b809150509250929050565b600080600060608486031215610b26578081fd5b8335610b3181611385565b92506020840135610b4181611385565b91506040840135610b5181611385565b809150509250925092565b600080600060408486031215610b70578283fd5b8335610b7b81611385565b9250602084013567ffffffffffffffff80821115610b97578384fd5b818601915086601f830112610baa578384fd5b813581811115610bb8578485fd5b876020828501011115610bc9578485fd5b6020830194508093505050509250925092565b60008060408385031215610bee578182fd5b8235610bf981611385565b9150602083013567ffffffffffffffff811115610c14578182fd5b610c2085828601610a87565b9150509250929050565b60008060008060008060c08789031215610c42578182fd5b8635610c4d81611385565b9550602087013594506040870135610c6481611385565b93506060870135610c7481611385565b92506080870135610c8481611385565b915060a0870135610c9481611385565b809150509295509295509295565b600080600080600080600060e0888a031215610cbc578081fd5b8735610cc781611385565b965060208801359550604088013594506060880135610ce581611385565b93506080880135610cf581611385565b925060a0880135610d0581611385565b915060c0880135610d1581611385565b8091505092959891949750929550565b60008060208385031215610d37578182fd5b823567ffffffffffffffff80821115610d4e578384fd5b818501915085601f830112610d61578384fd5b813581811115610d6f578485fd5b8660208083028501011115610d82578485fd5b60209290920196919550909350505050565b60006020808385031215610da6578182fd5b823567ffffffffffffffff80821115610dbd578384fd5b818501915085601f830112610dd0578384fd5b8135610dde610aa582611315565b81815284810190848601875b84811015610e585781358701604080601f19838f03011215610e0a578a8bfd5b610e13816112ee565b610e1f8e8c8501610a76565b8152908201359088821115610e32578b8cfd5b610e408e8c84860101610a87565b818c0152865250509287019290870190600101610dea565b50909998505050505050505050565b60006020808385031215610e79578182fd5b825167ffffffffffffffff80821115610e90578384fd5b818501915085601f830112610ea3578384fd5b8151610eb1610aa582611315565b81815284810190848601875b84811015610e585781518701604080601f19838f03011215610edd578a8bfd5b610ee6816112ee565b8a830151610ef381611385565b81528282015189811115610f05578c8dfd5b8084019350508d603f840112610f19578b8cfd5b8a830151610f29610aa582611335565b8181528f84838701011115610f3c578d8efd5b610f4b828e8301868801611359565b828d015250865250509287019290870190600101610ebd565b600060208284031215610f75578081fd5b81518015158114610957578182fd5b600060208284031215610f95578081fd5b815161095781611385565b600060208284031215610fb1578081fd5b5051919050565b60008151808452610fd0816020860160208601611359565b601f01601f19169290920160200192915050565b60008251610ff6818460208701611359565b9190910192915050565b6001600160a01b0391909116815260200190565b6001600160a01b039384168152919092166020820152604081019190915260600190565b6001600160a01b03929092168252602082015260400190565b602080825281810183905260009060408084018583028501820187855b8881101561112257878303603f190184528135368b9003603e19018112611093578788fd5b8a0180356110a081611385565b6001600160a01b031684528087013536829003601e190181126110c1578889fd5b8101803567ffffffffffffffff8111156110d957898afd5b8036038313156110e757898afd5b8789870152808887015260609250808983018488013785810183018a905295880195601f01601f19169094010192509085019060010161106e565b509098975050505050505050565b6000602082526109576020830184610fb8565b602081016004831061115157fe5b91905290565b6020808252600f908201526e27b7363c9031b7b73a3937b63632b960891b604082015260600190565b6020808252600d908201526c13db9b1e481a5b9d195c9b985b609a1b604082015260600190565b6020808252601a908201527f6167677265676174653a206e6f74206120636f6e74726163742e000000000000604082015260600190565b60208082526026908201527f416464726573733a20696e73756666696369656e742062616c616e636520666f6040820152651c8818d85b1b60d21b606082015260800190565b60208082526013908201527f5361666545524332303a20217375636365737300000000000000000000000000604082015260600190565b6020808252600c908201526b139bdd08185c1c1c9bdd995960a21b604082015260600190565b6020808252601d908201527f416464726573733a2063616c6c20746f206e6f6e2d636f6e7472616374000000604082015260600190565b95865260208601949094526001600160a01b0392831660408601529082166060850152811660808401521660a082015260c00190565b60405181810167ffffffffffffffff8111828210171561130d57600080fd5b604052919050565b600067ffffffffffffffff82111561132b578081fd5b5060209081020190565b600067ffffffffffffffff82111561134b578081fd5b50601f01601f191660200190565b60005b8381101561137457818101518382015260200161135c565b838111156103905750506000910152565b6001600160a01b038116811461139a57600080fd5b5056fea2646970667358221220fff40acecd0363c3fccf8e4432bf02568cbce9c9eacef19effc6c88cbd0110cd64736f6c634300060c0033",
  "linkReferences": {},
  "deployedLinkReferences": {}
}