{
  "_format": "hh-sol-artifact-1",
  "contractName": "AaveV2Estimator",
  "sourceName": "contracts/oracles/estimators/AaveV2Estimator.sol",
  "abi": [
    {
      "inputs": [
        {
          "internalType": "address",
          "name": "user",
          "type": "address"
        },
        {
          "internalType": "address",
          "name": "token",
          "type": "address"
        }
      ],
      "name": "estimateItem",
      "outputs": [
        {
          "internalType": "int256",
          "name": "",
          "type": "int256"
        }
      ],
      "stateMutability": "view",
      "type": "function"
    },
    {
      "inputs": [
        {
          "internalType": "uint256",
          "name": "balance",
          "type": "uint256"
        },
        {
          "internalType": "address",
          "name": "token",
          "type": "address"
        }
      ],
      "name": "estimateItem",
      "outputs": [
        {
          "internalType": "int256",
          "name": "",
          "type": "int256"
        }
      ],
      "stateMutability": "view",
      "type": "function"
    }
  ],
  "bytecode": "0x608060405234801561001057600080fd5b5061026d806100206000396000f3fe608060405234801561001057600080fd5b50600436106100365760003560e01c80632a58188a1461003b578063b44a043b1461007b575b600080fd5b6100696004803603604081101561005157600080fd5b506001600160a01b03813581169160200135166100a7565b60408051918252519081900360200190f35b6100696004803603604081101561009157600080fd5b50803590602001356001600160a01b0316610137565b600080826001600160a01b03166370a08231856040518263ffffffff1660e01b815260040180826001600160a01b0316815260200191505060206040518083038186803b1580156100f757600080fd5b505afa15801561010b573d6000803e3d6000fd5b505050506040513d602081101561012157600080fd5b5051905061012f818461014a565b949350505050565b6000610143838361014a565b9392505050565b600080826001600160a01b031663b16a19de6040518163ffffffff1660e01b815260040160206040518083038186803b15801561018657600080fd5b505afa15801561019a573d6000803e3d6000fd5b505050506040513d60208110156101b057600080fd5b50516040805163b44a043b60e01b8152600481018790526001600160a01b03831660248201529051919250339163b44a043b91604480820192602092909190829003018186803b15801561020357600080fd5b505afa158015610217573d6000803e3d6000fd5b505050506040513d602081101561022d57600080fd5b505194935050505056fea2646970667358221220d0dee1fd4c86ee9891dcff3ed79411d176a78870500554d1894fdeb043d7a01b64736f6c634300060c0033",
  "linkReferences": {},
  "deployedLinkReferences": {}
}