{
  "_format": "hh-sol-artifact-1",
  "contractName": "Proxy",
  "sourceName": "contracts/test/weird_tokens/Upgradable.sol",
  "abi": [
    {
      "inputs": [
        {
          "internalType": "uint256",
          "name": "totalSupply",
          "type": "uint256"
        }
      ],
      "stateMutability": "nonpayable",
      "type": "constructor"
    },
    {
      "stateMutability": "payable",
      "type": "fallback"
    },
    {
      "inputs": [
        {
          "internalType": "address",
          "name": "usr",
          "type": "address"
        }
      ],
      "name": "give",
      "outputs": [],
      "stateMutability": "nonpayable",
      "type": "function"
    },
    {
      "inputs": [],
      "name": "implementation",
      "outputs": [
        {
          "internalType": "address",
          "name": "impl",
          "type": "address"
        }
      ],
      "stateMutability": "view",
      "type": "function"
    },
    {
      "inputs": [],
      "name": "owner",
      "outputs": [
        {
          "internalType": "address",
          "name": "usr",
          "type": "address"
        }
      ],
      "stateMutability": "view",
      "type": "function"
    },
    {
      "inputs": [
        {
          "internalType": "address",
          "name": "impl",
          "type": "address"
        }
      ],
      "name": "upgrade",
      "outputs": [],
      "stateMutability": "nonpayable",
      "type": "function"
    },
    {
      "stateMutability": "payable",
      "type": "receive"
    }
  ],
  "bytecode": "0x608060405234801561001057600080fd5b50604051610b6d380380610b6d8339818101604052602081101561003357600080fd5b505161003e3361007d565b6100778160405161004e9061017e565b90815260405190819003602001906000f080158015610071573d6000803e3d6000fd5b506100eb565b5061018b565b61008561016b565b6001600160a01b0316336001600160a01b0316146100d9576040805162461bcd60e51b815260206004820152600c60248201526b1d5b985d5d1a1bdc9a5cd95960a21b604482015290519081900360640190fd5b600080516020610b4d83398151915255565b6100f361016b565b6001600160a01b0316336001600160a01b031614610147576040805162461bcd60e51b815260206004820152600c60248201526b1d5b985d5d1a1bdc9a5cd95960a21b604482015290519081900360640190fd5b7f360894a13ba1a3210667c828492db98dca3e2076cc3735a920a3ca505d382bbc55565b600080516020610b4d8339815191525490565b610666806104e783390190565b61034d8061019a6000396000f3fe6080604052600436106100435760003560e01c80630900f0101461011f5780635c60da1b146101545780638da5cb5b14610185578063bdf86a661461019a57610095565b36610095576040805162461bcd60e51b815260206004820152601260248201527f646f6e27742073656e64206d6520455448210000000000000000000000000000604482015290519081900360640190fd5b600061009f6101cd565b905060006060826001600160a01b03165a60003660405180838380828437604051920194506000935090915050808303818686f4925050503d8060008114610103576040519150601f19603f3d011682016040523d82523d6000602084013e610108565b606091505b50915091508161011757600080fd5b805160208201f35b34801561012b57600080fd5b506101526004803603602081101561014257600080fd5b50356001600160a01b03166101f2565b005b34801561016057600080fd5b506101696101cd565b604080516001600160a01b039092168252519081900360200190f35b34801561019157600080fd5b50610169610272565b3480156101a657600080fd5b50610152600480360360208110156101bd57600080fd5b50356001600160a01b0316610297565b7f360894a13ba1a3210667c828492db98dca3e2076cc3735a920a3ca505d382bbc5490565b6101fa610272565b6001600160a01b0316336001600160a01b03161461024e576040805162461bcd60e51b815260206004820152600c60248201526b1d5b985d5d1a1bdc9a5cd95960a21b604482015290519081900360640190fd5b7f360894a13ba1a3210667c828492db98dca3e2076cc3735a920a3ca505d382bbc55565b7fb53127684a568b3173ae13b9f8a6016e243e63b6e8ee1178d6a717850b5d61035490565b61029f610272565b6001600160a01b0316336001600160a01b0316146102f3576040805162461bcd60e51b815260206004820152600c60248201526b1d5b985d5d1a1bdc9a5cd95960a21b604482015290519081900360640190fd5b7fb53127684a568b3173ae13b9f8a6016e243e63b6e8ee1178d6a717850b5d61035556fea26469706673582212205599631fdb4afc33c9813b055615858e5628ce36bac6b0a7a95c09244159afe564736f6c634300060c003360806040526000805460ff1916601217905534801561001d57600080fd5b506040516106663803806106668339818101604052602081101561004057600080fd5b50516001819055336000818152600260209081526040808320859055805185815290517fddf252ad1be2c89b69c2b068fc378daa952ba7f163c4a11628f55a4df523b3ef929181900390910190a3506105c88061009e6000396000f3fe608060405234801561001057600080fd5b50600436106100935760003560e01c8063313ce56711610066578063313ce567146101a557806370a08231146101c357806395d89b41146101e9578063a9059cbb146101f1578063dd62ed3e1461021d57610093565b806306fdde0314610098578063095ea7b31461011557806318160ddd1461015557806323b872dd1461016f575b600080fd5b6100a061024b565b6040805160208082528351818301528351919283929083019185019080838360005b838110156100da5781810151838201526020016100c2565b50505050905090810190601f1680156101075780820380516001836020036101000a031916815260200191505b509250505060405180910390f35b6101416004803603604081101561012b57600080fd5b506001600160a01b03813516906020013561026c565b604080519115158252519081900360200190f35b61015d6102d3565b60408051918252519081900360200190f35b6101416004803603606081101561018557600080fd5b506001600160a01b038135811691602081013590911690604001356102d9565b6101ad610507565b6040805160ff9092168252519081900360200190f35b61015d600480360360208110156101d957600080fd5b50356001600160a01b0316610510565b6100a0610522565b6101416004803603604081101561020757600080fd5b506001600160a01b038135169060200135610541565b61015d6004803603604081101561023357600080fd5b506001600160a01b0381358116916020013516610555565b604051806040016040528060058152602001642a37b5b2b760d91b81525081565b3360008181526003602090815260408083206001600160a01b038716808552908352818420869055815186815291519394909390927f8c5be1e5ebec7d5bd14f71427d1e84f3dd0314c0f7b2291e5b200ac8c7c3b925928290030190a35060015b92915050565b60015481565b6001600160a01b038316600090815260026020526040812054821115610346576040805162461bcd60e51b815260206004820152601460248201527f696e73756666696369656e742d62616c616e6365000000000000000000000000604482015290519081900360640190fd5b6001600160a01b038416331480159061038457506001600160a01b038416600090815260036020908152604080832033845290915290205460001914155b15610454576001600160a01b0384166000908152600360209081526040808320338452909152902054821115610401576040805162461bcd60e51b815260206004820152601660248201527f696e73756666696369656e742d616c6c6f77616e636500000000000000000000604482015290519081900360640190fd5b6001600160a01b038416600090815260036020908152604080832033845290915290205461042f9083610572565b6001600160a01b03851660009081526003602090815260408083203384529091529020555b6001600160a01b0384166000908152600260205260409020546104779083610572565b6001600160a01b0380861660009081526002602052604080822093909355908516815220546104a69083610582565b6001600160a01b0380851660008181526002602090815260409182902094909455805186815290519193928816927fddf252ad1be2c89b69c2b068fc378daa952ba7f163c4a11628f55a4df523b3ef92918290030190a35060019392505050565b60005460ff1681565b60026020526000908152604090205481565b604051806040016040528060038152602001622a25a760e91b81525081565b600061054e3384846102d9565b9392505050565b600360209081526000928352604080842090915290825290205481565b808203828111156102cd57600080fd5b808201828110156102cd57600080fdfea2646970667358221220b15934e1538497a09304ba0b64eb4348c9572eb4f8170564887d9527f2ad95c864736f6c634300060c0033b53127684a568b3173ae13b9f8a6016e243e63b6e8ee1178d6a717850b5d6103",
  "linkReferences": {},
  "deployedLinkReferences": {}
}