{
  "_format": "hh-sol-artifact-1",
  "contractName": "CurveEstimator",
  "sourceName": "contracts/oracles/estimators/CurveEstimator.sol",
  "abi": [
    {
      "inputs": [],
      "name": "ADDRESS_PROVIDER",
      "outputs": [
        {
          "internalType": "contract IAddressProvider",
          "name": "",
          "type": "address"
        }
      ],
      "stateMutability": "view",
      "type": "function"
    },
    {
      "inputs": [],
      "name": "SBTC",
      "outputs": [
        {
          "internalType": "address",
          "name": "",
          "type": "address"
        }
      ],
      "stateMutability": "view",
      "type": "function"
    },
    {
      "inputs": [],
      "name": "SUSD",
      "outputs": [
        {
          "internalType": "address",
          "name": "",
          "type": "address"
        }
      ],
      "stateMutability": "view",
      "type": "function"
    },
    {
      "inputs": [],
      "name": "TRICRYPTO2",
      "outputs": [
        {
          "internalType": "address",
          "name": "",
          "type": "address"
        }
      ],
      "stateMutability": "view",
      "type": "function"
    },
    {
      "inputs": [],
      "name": "TRICRYPTO2_POOL",
      "outputs": [
        {
          "internalType": "address",
          "name": "",
          "type": "address"
        }
      ],
      "stateMutability": "view",
      "type": "function"
    },
    {
      "inputs": [],
      "name": "USDT",
      "outputs": [
        {
          "internalType": "address",
          "name": "",
          "type": "address"
        }
      ],
      "stateMutability": "view",
      "type": "function"
    },
    {
      "inputs": [],
      "name": "WBTC",
      "outputs": [
        {
          "internalType": "address",
          "name": "",
          "type": "address"
        }
      ],
      "stateMutability": "view",
      "type": "function"
    },
    {
      "inputs": [],
      "name": "WETH",
      "outputs": [
        {
          "internalType": "address",
          "name": "",
          "type": "address"
        }
      ],
      "stateMutability": "view",
      "type": "function"
    },
    {
      "inputs": [
        {
          "internalType": "uint256",
          "name": "balance",
          "type": "uint256"
        },
        {
          "internalType": "address",
          "name": "token",
          "type": "address"
        }
      ],
      "name": "estimateItem",
      "outputs": [
        {
          "internalType": "int256",
          "name": "",
          "type": "int256"
        }
      ],
      "stateMutability": "view",
      "type": "function"
    }
  ],
  "bytecode": "0x608060405234801561001057600080fd5b50610ee5806100206000396000f3fe608060405234801561001057600080fd5b50600436106100835760003560e01c806315d8eeba146100885780631848effa146100ac5780633cfae174146100b45780634dede3de146100bc578063ad5c4648146100c4578063b44a043b146100cc578063bfefe2351461010a578063c54e44eb14610112578063da9b202f1461011a575b600080fd5b610090610122565b604080516001600160a01b039092168252519081900360200190f35b61009061013a565b61009061014e565b610090610166565b61009061017e565b6100f8600480360360408110156100e257600080fd5b50803590602001356001600160a01b0316610196565b60408051918252519081900360200190f35b610090610977565b61009061098f565b6100906109a7565b7357ab1ec28d129707052df4df418d58a2d46d5f5181565b6f22d53366457f9d5e68ec105046fc438381565b73c4ad29ba4b3c580e6d59105fff484999997675ff81565b732260fac5e5542a773aa44fbcfedf7c193bc2c59981565b73c02aaa39b223fe8d0a0e5c4f27ead9083c756cc281565b60006001600160a01b03821673c4ad29ba4b3c580e6d59105fff484999997675ff14156102bb576101c5610e06565b73dac17f958d2ee523a2206206994597c13d831ec78152732260fac5e5542a773aa44fbcfedf7c193bc2c599602082015273c02aaa39b223fe8d0a0e5c4f27ead9083c756cc26040820152600061023273d51a44d3fae010294c616388b506acda1bfaae468360036109bf565b90506000846001600160a01b03166318160ddd6040518163ffffffff1660e01b815260040160206040518083038186803b15801561026f57600080fd5b505afa158015610283573d6000803e3d6000fd5b505050506040513d602081101561029957600080fd5b505190506102b1816102ab8489610aff565b90610baf565b9350505050610971565b60006f22d53366457f9d5e68ec105046fc43836001600160a01b031663a262904b6040518163ffffffff1660e01b815260040160206040518083038186803b15801561030657600080fd5b505afa15801561031a573d6000803e3d6000fd5b505050506040513d602081101561033057600080fd5b50516040805163bdf475c360e01b81526001600160a01b03868116600483015291519293506000929184169163bdf475c391602480820192602092909190829003018186803b15801561038257600080fd5b505afa158015610396573d6000803e3d6000fd5b505050506040513d60208110156103ac57600080fd5b5051604080516319b4e59b60e21b81526001600160a01b0380841660048301529151929350600092918516916366d3966c91602480820192602092909190829003018186803b1580156103fe57600080fd5b505afa158015610412573d6000803e3d6000fd5b505050506040513d602081101561042857600080fd5b5051604080516362db83a560e11b81526001600160a01b03888116600483015291519293506000929186169163c5b7074a91602480820192602092909190829003018186803b15801561047a57600080fd5b505afa15801561048e573d6000803e3d6000fd5b505050506040513d60208110156104a457600080fd5b5051905060006104c6670de0b6b3a76400006104c08a85610c67565b90610cc0565b90508261055e576040805163b44a043b60e01b8152600481018390527357ab1ec28d129707052df4df418d58a2d46d5f5160248201529051339163b44a043b916044808301926020929190829003018186803b15801561052557600080fd5b505afa158015610539573d6000803e3d6000fd5b505050506040513d602081101561054f57600080fd5b50519550610971945050505050565b82600114156105735794506109719350505050565b82600214156105d4576040805163b44a043b60e01b81526004810183905273fe18be6b3bd88a2d2a7f928d00292e7a9963cfc660248201529051339163b44a043b916044808301926020929190829003018186803b15801561052557600080fd5b82600314156107bd576000856001600160a01b031663940494f1866040518263ffffffff1660e01b815260040180826001600160a01b03168152602001915050604080518083038186803b15801561062b57600080fd5b505afa15801561063f573d6000803e3d6000fd5b505050506040513d604081101561065557600080fd5b50519050610661610e06565b866001600160a01b0316639ac90d3d876040518263ffffffff1660e01b815260040180826001600160a01b031681526020019150506101006040518083038186803b1580156106af57600080fd5b505afa1580156106c3573d6000803e3d6000fd5b505050506040513d601f19601f820116820180604052506101008110156106e957600080fd5b50905060005b828110156107b557600082826008811061070557fe5b602002015190506000336001600160a01b031663b44a043b87846040518363ffffffff1660e01b815260040180838152602001826001600160a01b031681526020019250505060206040518083038186803b15801561076357600080fd5b505afa158015610777573d6000803e3d6000fd5b505050506040513d602081101561078d57600080fd5b5051905060008113156107ab57995061097198505050505050505050565b50506001016106ef565b50505061096b565b826004141561096b576000856001600160a01b031663940494f1866040518263ffffffff1660e01b815260040180826001600160a01b03168152602001915050604080518083038186803b15801561081457600080fd5b505afa158015610828573d6000803e3d6000fd5b505050506040513d604081101561083e57600080fd5b5051905061084a610e06565b866001600160a01b0316639ac90d3d876040518263ffffffff1660e01b815260040180826001600160a01b031681526020019150506101006040518083038186803b15801561089857600080fd5b505afa1580156108ac573d6000803e3d6000fd5b505050506040513d601f19601f820116820180604052506101008110156108d257600080fd5b50905060006108e28783856109bf565b905060008a6001600160a01b03166318160ddd6040518163ffffffff1660e01b815260040160206040518083038186803b15801561091f57600080fd5b505afa158015610933573d6000803e3d6000fd5b505050506040513d602081101561094957600080fd5b5051905061095b816102ab848f610aff565b9950505050505050505050610971565b50505050505b92915050565b73d51a44d3fae010294c616388b506acda1bfaae4681565b73dac17f958d2ee523a2206206994597c13d831ec781565b73fe18be6b3bd88a2d2a7f928d00292e7a9963cfc681565b600080805b83811015610af65760008582600881106109da57fe5b60200201519050610aeb336001600160a01b031663b44a043b836001600160a01b03166370a082318b6040518263ffffffff1660e01b815260040180826001600160a01b0316815260200191505060206040518083038186803b158015610a4057600080fd5b505afa158015610a54573d6000803e3d6000fd5b505050506040513d6020811015610a6a57600080fd5b5051604080516001600160e01b031960e085901b16815260048101929092526001600160a01b0386166024830152516044808301926020929190829003018186803b158015610ab857600080fd5b505afa158015610acc573d6000803e3d6000fd5b505050506040513d6020811015610ae257600080fd5b50518490610cff565b9250506001016109c4565b50949350505050565b600082610b0e57506000610971565b82600019148015610b225750600160ff1b82145b15610b5e5760405162461bcd60e51b8152600401808060200182810382526027815260200180610e896027913960400191505060405180910390fd5b82820282848281610b6b57fe5b0514610ba85760405162461bcd60e51b8152600401808060200182810382526027815260200180610e896027913960400191505060405180910390fd5b9392505050565b600081610c03576040805162461bcd60e51b815260206004820181905260248201527f5369676e6564536166654d6174683a206469766973696f6e206279207a65726f604482015290519081900360640190fd5b81600019148015610c175750600160ff1b83145b15610c535760405162461bcd60e51b8152600401808060200182810382526021815260200180610e476021913960400191505060405180910390fd5b6000828481610c5e57fe5b05949350505050565b600082610c7657506000610971565b82820282848281610c8357fe5b0414610ba85760405162461bcd60e51b8152600401808060200182810382526021815260200180610e686021913960400191505060405180910390fd5b6000610ba883836040518060400160405280601a815260200179536166654d6174683a206469766973696f6e206279207a65726f60301b815250610d64565b6000828201818312801590610d145750838112155b80610d295750600083128015610d2957508381125b610ba85760405162461bcd60e51b8152600401808060200182810382526021815260200180610e266021913960400191505060405180910390fd5b60008183610df05760405162461bcd60e51b81526004018080602001828103825283818151815260200191508051906020019080838360005b83811015610db5578181015183820152602001610d9d565b50505050905090810190601f168015610de25780820380516001836020036101000a031916815260200191505b509250505060405180910390fd5b506000838581610dfc57fe5b0495945050505050565b604051806101000160405280600890602082028036833750919291505056fe5369676e6564536166654d6174683a206164646974696f6e206f766572666c6f775369676e6564536166654d6174683a206469766973696f6e206f766572666c6f77536166654d6174683a206d756c7469706c69636174696f6e206f766572666c6f775369676e6564536166654d6174683a206d756c7469706c69636174696f6e206f766572666c6f77a26469706673582212207e8eb59f23833cd00411bfc7731edf8ea809ee139cc7c7f53aaa1f679da45bbe64736f6c634300060c0033",
  "linkReferences": {},
  "deployedLinkReferences": {}
}