{
  "_format": "hh-sol-artifact-1",
  "contractName": "CurveEstimator",
  "sourceName": "contracts/oracles/estimators/CurveEstimator.sol",
  "abi": [
    {
      "inputs": [],
      "name": "ADDRESS_PROVIDER",
      "outputs": [
        {
          "internalType": "contract IAddressProvider",
          "name": "",
          "type": "address"
        }
      ],
      "stateMutability": "view",
      "type": "function"
    },
    {
      "inputs": [],
      "name": "SBTC",
      "outputs": [
        {
          "internalType": "address",
          "name": "",
          "type": "address"
        }
      ],
      "stateMutability": "view",
      "type": "function"
    },
    {
      "inputs": [],
      "name": "SUSD",
      "outputs": [
        {
          "internalType": "address",
          "name": "",
          "type": "address"
        }
      ],
      "stateMutability": "view",
      "type": "function"
    },
    {
      "inputs": [],
      "name": "TRICRYPTO2",
      "outputs": [
        {
          "internalType": "address",
          "name": "",
          "type": "address"
        }
      ],
      "stateMutability": "view",
      "type": "function"
    },
    {
      "inputs": [],
      "name": "TRICRYPTO2_ORACLE",
      "outputs": [
        {
          "internalType": "address",
          "name": "",
          "type": "address"
        }
      ],
      "stateMutability": "view",
      "type": "function"
    },
    {
      "inputs": [],
      "name": "USDT",
      "outputs": [
        {
          "internalType": "address",
          "name": "",
          "type": "address"
        }
      ],
      "stateMutability": "view",
      "type": "function"
    },
    {
      "inputs": [
        {
          "internalType": "uint256",
          "name": "balance",
          "type": "uint256"
        },
        {
          "internalType": "address",
          "name": "token",
          "type": "address"
        }
      ],
      "name": "estimateItem",
      "outputs": [
        {
          "internalType": "int256",
          "name": "",
          "type": "int256"
        }
      ],
      "stateMutability": "view",
      "type": "function"
    }
  ],
  "bytecode": "0x608060405234801561001057600080fd5b50610a3b806100206000396000f3fe608060405234801561001057600080fd5b506004361061006d5760003560e01c806315d8eeba146100725780631848effa146100965780633cfae1741461009e5780635ed55cd1146100a6578063b44a043b146100ae578063c54e44eb146100ec578063da9b202f146100f4575b600080fd5b61007a6100fc565b604080516001600160a01b039092168252519081900360200190f35b61007a610114565b61007a610128565b61007a610140565b6100da600480360360408110156100c457600080fd5b50803590602001356001600160a01b0316610158565b60408051918252519081900360200190f35b61007a610859565b61007a610871565b7357ab1ec28d129707052df4df418d58a2d46d5f5181565b6f22d53366457f9d5e68ec105046fc438381565b73c4ad29ba4b3c580e6d59105fff484999997675ff81565b73e8b2989276e2ca8fdea2268e3551b2b4b241895081565b60006001600160a01b03821673c4ad29ba4b3c580e6d59105fff484999997675ff14156102b057600073e8b2989276e2ca8fdea2268e3551b2b4b24189506001600160a01b03166354f0f7d56040518163ffffffff1660e01b815260040160206040518083038186803b1580156101ce57600080fd5b505afa1580156101e2573d6000803e3d6000fd5b505050506040513d60208110156101f857600080fd5b505190503363b44a043b61022268327cb2734119d3b7a9601e1b61021c8589610889565b906108e9565b73dac17f958d2ee523a2206206994597c13d831ec76040518363ffffffff1660e01b815260040180838152602001826001600160a01b031681526020019250505060206040518083038186803b15801561027b57600080fd5b505afa15801561028f573d6000803e3d6000fd5b505050506040513d60208110156102a557600080fd5b505191506108539050565b60006f22d53366457f9d5e68ec105046fc43836001600160a01b031663a262904b6040518163ffffffff1660e01b815260040160206040518083038186803b1580156102fb57600080fd5b505afa15801561030f573d6000803e3d6000fd5b505050506040513d602081101561032557600080fd5b50516040805163bdf475c360e01b81526001600160a01b03868116600483015291519293506000929184169163bdf475c391602480820192602092909190829003018186803b15801561037757600080fd5b505afa15801561038b573d6000803e3d6000fd5b505050506040513d60208110156103a157600080fd5b5051604080516319b4e59b60e21b81526001600160a01b0380841660048301529151929350600092918516916366d3966c91602480820192602092909190829003018186803b1580156103f357600080fd5b505afa158015610407573d6000803e3d6000fd5b505050506040513d602081101561041d57600080fd5b505190506004811015610816576000836001600160a01b031663c5b7074a876040518263ffffffff1660e01b815260040180826001600160a01b0316815260200191505060206040518083038186803b15801561047957600080fd5b505afa15801561048d573d6000803e3d6000fd5b505050506040513d60208110156104a357600080fd5b5051905060006104bf670de0b6b3a764000061021c8a85610889565b905082610557576040805163b44a043b60e01b8152600481018390527357ab1ec28d129707052df4df418d58a2d46d5f5160248201529051339163b44a043b916044808301926020929190829003018186803b15801561051e57600080fd5b505afa158015610532573d6000803e3d6000fd5b505050506040513d602081101561054857600080fd5b50519550610853945050505050565b826001141561056c5794506108539350505050565b82600214156105cd576040805163b44a043b60e01b81526004810183905273fe18be6b3bd88a2d2a7f928d00292e7a9963cfc660248201529051339163b44a043b916044808301926020929190829003018186803b15801561051e57600080fd5b6000856001600160a01b031663940494f1866040518263ffffffff1660e01b815260040180826001600160a01b03168152602001915050604080518083038186803b15801561061b57600080fd5b505afa15801561062f573d6000803e3d6000fd5b505050506040513d604081101561064557600080fd5b505190506106516109c5565b866001600160a01b0316639ac90d3d876040518263ffffffff1660e01b815260040180826001600160a01b031681526020019150506101006040518083038186803b15801561069f57600080fd5b505afa1580156106b3573d6000803e3d6000fd5b505050506040513d601f19601f820116820180604052506101008110156106d957600080fd5b50905060005b828110156107d65760008282600881106106f557fe5b60200201519050336001600160a01b031663b44a043b86836040518363ffffffff1660e01b815260040180838152602001826001600160a01b031681526020019250505060206040518083038186803b15801561075157600080fd5b505afa92505050801561077657506040513d602081101561077157600080fd5b505160015b6107b1573d8080156107a4576040519150601f19603f3d011682016040523d82523d6000602084013e6107a9565b606091505b5050506107ce565b60008113156107cb57995061085398505050505050505050565b50505b6001016106df565b506040805162461bcd60e51b815260206004820152600f60248201526e105cdcd95d081b9bdd08199bdd5b99608a1b604482015290519081900360640190fd5b6040805162461bcd60e51b815260206004820152600d60248201526c139bdd081cdd5c1c1bdc9d1959609a1b604482015290519081900360640190fd5b92915050565b73dac17f958d2ee523a2206206994597c13d831ec781565b73fe18be6b3bd88a2d2a7f928d00292e7a9963cfc681565b60008261089857506000610853565b828202828482816108a557fe5b04146108e25760405162461bcd60e51b81526004018080602001828103825260218152602001806109e56021913960400191505060405180910390fd5b9392505050565b60006108e283836040518060400160405280601a815260200179536166654d6174683a206469766973696f6e206279207a65726f60301b815250600081836109af5760405162461bcd60e51b81526004018080602001828103825283818151815260200191508051906020019080838360005b8381101561097457818101518382015260200161095c565b50505050905090810190601f1680156109a15780820380516001836020036101000a031916815260200191505b509250505060405180910390fd5b5060008385816109bb57fe5b0495945050505050565b604051806101000160405280600890602082028036833750919291505056fe536166654d6174683a206d756c7469706c69636174696f6e206f766572666c6f77a2646970667358221220d41a83e4cee4181bc9a83528b90d525514644f28c7ab52caae5322d1e0084c7264736f6c634300060c0033",
  "linkReferences": {},
  "deployedLinkReferences": {}
}