{
  "_format": "hh-sol-artifact-1",
  "contractName": "RevertDebug",
  "sourceName": "contracts/helpers/RevertDebug.sol",
  "abi": [
    {
      "inputs": [],
      "name": "CALL_REVERT_PREFIX",
      "outputs": [
        {
          "internalType": "string",
          "name": "",
          "type": "string"
        }
      ],
      "stateMutability": "view",
      "type": "function"
    }
  ],
  "bytecode": "0x608060405234801561001057600080fd5b5060f28061001f6000396000f3fe6080604052348015600f57600080fd5b506004361060285760003560e01c806319a83f9214602d575b600080fd5b60566040518060400160405280600b81526020016a026bab63a34b1b0b6361d160ad1b81525081565b60405160619190606a565b60405180910390f35b600060208083528351808285015260005b81811015609557858101830151858201604001528201607b565b8181111560a6576000604083870101525b50601f01601f191692909201604001939250505056fea2646970667358221220af75e1c688de4597ac8a11ae0aecc3b897cee820e2dd90f964ee45c6b7d1c2e664736f6c634300080b0033",
  "linkReferences": {},
  "deployedLinkReferences": {}
}