{
  "_format": "hh-sol-artifact-1",
  "contractName": "Leverage2XAdapter",
  "sourceName": "contracts/adapters/borrow/Leverage2XAdapter.sol",
  "abi": [
    {
      "inputs": [
        {
          "internalType": "address",
          "name": "defaultAdapter_",
          "type": "address"
        },
        {
          "internalType": "address",
          "name": "aaveV2Adapter_",
          "type": "address"
        },
        {
          "internalType": "address",
          "name": "aaveV2DebtAdapter_",
          "type": "address"
        },
        {
          "internalType": "address",
          "name": "debtToken_",
          "type": "address"
        },
        {
          "internalType": "address",
          "name": "weth_",
          "type": "address"
        }
      ],
      "stateMutability": "nonpayable",
      "type": "constructor"
    },
    {
      "inputs": [],
      "name": "aaveV2Adapter",
      "outputs": [
        {
          "internalType": "address",
          "name": "",
          "type": "address"
        }
      ],
      "stateMutability": "view",
      "type": "function"
    },
    {
      "inputs": [],
      "name": "aaveV2DebtAdapter",
      "outputs": [
        {
          "internalType": "address",
          "name": "",
          "type": "address"
        }
      ],
      "stateMutability": "view",
      "type": "function"
    },
    {
      "inputs": [],
      "name": "debtToken",
      "outputs": [
        {
          "internalType": "address",
          "name": "",
          "type": "address"
        }
      ],
      "stateMutability": "view",
      "type": "function"
    },
    {
      "inputs": [],
      "name": "defaultAdapter",
      "outputs": [
        {
          "internalType": "address",
          "name": "",
          "type": "address"
        }
      ],
      "stateMutability": "view",
      "type": "function"
    },
    {
      "inputs": [],
      "name": "gasCostProvider",
      "outputs": [
        {
          "internalType": "contract GasCostProvider",
          "name": "",
          "type": "address"
        }
      ],
      "stateMutability": "view",
      "type": "function"
    },
    {
      "inputs": [
        {
          "internalType": "uint256",
          "name": "amount",
          "type": "uint256"
        },
        {
          "internalType": "uint256",
          "name": "expected",
          "type": "uint256"
        },
        {
          "internalType": "address",
          "name": "tokenIn",
          "type": "address"
        },
        {
          "internalType": "address",
          "name": "tokenOut",
          "type": "address"
        },
        {
          "internalType": "address",
          "name": "from",
          "type": "address"
        },
        {
          "internalType": "address",
          "name": "to",
          "type": "address"
        }
      ],
      "name": "swap",
      "outputs": [],
      "stateMutability": "nonpayable",
      "type": "function"
    },
    {
      "inputs": [],
      "name": "weth",
      "outputs": [
        {
          "internalType": "address",
          "name": "",
          "type": "address"
        }
      ],
      "stateMutability": "view",
      "type": "function"
    }
  ],
  "bytecode": "0x6101406040523480156200001257600080fd5b506040516200156b3803806200156b8339810160408190526200003591620000d2565b6001600160601b0319606082811b821660805286811b821660a05285811b821660c05284811b821660e05283901b16610100526040516117709033906200007c90620000c4565b6200008992919062000151565b604051809103906000f080158015620000a6573d6000803e3d6000fd5b5060601b6001600160601b0319166101205250620001819350505050565b610557806200101483390190565b600080600080600060a08688031215620000ea578081fd5b8551620000f78162000168565b60208701519095506200010a8162000168565b60408701519094506200011d8162000168565b6060870151909350620001308162000168565b6080870151909250620001438162000168565b809150509295509295909350565b9182526001600160a01b0316602082015260400190565b6001600160a01b03811681146200017e57600080fd5b50565b60805160601c60a05160601c60c05160601c60e05160601c6101005160601c6101205160601c610dfb620002196000398061061752806106e552508061027852806102c452806103625280610489528061063b52508061024852806104395280610587525080610218528061038e52806104d852806105cf5250806102a3528061046852806105f35250806105ab5250610dfb6000f3fe608060405234801561001057600080fd5b506004361061006d5760003560e01c8063230f11c71461007257806325796f07146100875780633fc8cef3146100a55780635cafdf00146100ad578063734e6cad146100b5578063a555e74b146100bd578063f8d89898146100c5575b600080fd5b610085610080366004610ad6565b6100cd565b005b61008f610585565b60405161009c9190610b61565b60405180910390f35b61008f6105a9565b61008f6105cd565b61008f6105f1565b61008f610615565b61008f610639565b826001600160a01b0316846001600160a01b031614156101085760405162461bcd60e51b81526004016100ff90610c6e565b60405180910390fd5b848610156101285760405162461bcd60e51b81526004016100ff90610c38565b6001600160a01b038216301461014d5761014d6001600160a01b03851683308961065d565b610156836106bb565b6101725760405162461bcd60e51b81526004016100ff90610cd2565b836001600160a01b0316836001600160a01b031663b16a19de6040518163ffffffff1660e01b815260040160206040518083038186803b1580156101b557600080fd5b505afa1580156101c9573d6000803e3d6000fd5b505050506040513d601f19601f820116820180604052508101906101ed9190610a82565b6001600160a01b0316146102135760405162461bcd60e51b81526004016100ff90610bcc565b6102437f0000000000000000000000000000000000000000000000000000000000000000876001878730876107b5565b61029e7f000000000000000000000000000000000000000000000000000000000000000061027288600261085a565b600160007f000000000000000000000000000000000000000000000000000000000000000086306107b5565b6103897f00000000000000000000000000000000000000000000000000000000000000007f00000000000000000000000000000000000000000000000000000000000000006001600160a01b03166370a08231306040518263ffffffff1660e01b815260040161030e9190610b61565b60206040518083038186803b15801561032657600080fd5b505afa15801561033a573d6000803e3d6000fd5b505050506040513d601f19601f8201168201806040525081019061035e9190610abe565b60017f00000000000000000000000000000000000000000000000000000000000000008830306107b5565b6104347f0000000000000000000000000000000000000000000000000000000000000000856001600160a01b03166370a08231306040518263ffffffff1660e01b81526004016103d99190610b61565b60206040518083038186803b1580156103f157600080fd5b505afa158015610405573d6000803e3d6000fd5b505050506040513d601f19601f820116820180604052508101906104299190610abe565b6001878730876107b5565b6104637f000000000000000000000000000000000000000000000000000000000000000061027288600261085a565b6104d37f00000000000000000000000000000000000000000000000000000000000000007f00000000000000000000000000000000000000000000000000000000000000006001600160a01b03166370a08231306040518263ffffffff1660e01b815260040161030e9190610b61565b61057d7f0000000000000000000000000000000000000000000000000000000000000000856001600160a01b03166370a08231306040518263ffffffff1660e01b81526004016105239190610b61565b60206040518083038186803b15801561053b57600080fd5b505afa15801561054f573d6000803e3d6000fd5b505050506040513d601f19601f820116820180604052508101906105739190610abe565b87878730876107b5565b505050505050565b7f000000000000000000000000000000000000000000000000000000000000000081565b7f000000000000000000000000000000000000000000000000000000000000000081565b7f000000000000000000000000000000000000000000000000000000000000000081565b7f000000000000000000000000000000000000000000000000000000000000000081565b7f000000000000000000000000000000000000000000000000000000000000000081565b7f000000000000000000000000000000000000000000000000000000000000000081565b6106b5846323b872dd60e01b85858560405160240161067e93929190610b75565b60408051601f198184030181529190526020810180516001600160e01b03166001600160e01b0319909316929092179091526108a0565b50505050565b6000807fb16a19de4224283fa4cedf7c621a3cea4e1b1dc9122d01b4093ee3537fd658a0905060007f00000000000000000000000000000000000000000000000000000000000000006001600160a01b0316631d5e3fe56040518163ffffffff1660e01b815260040160206040518083038186803b15801561073c57600080fd5b505afa158015610750573d6000803e3d6000fd5b505050506040513d601f19601f820116820180604052508101906107749190610abe565b9050600080604051602081016040528481526020816004838a88fa925080519150508180156107ab57506001600160a01b03811615155b9695505050505050565b600060607f230f11c7cc54d258ee9bfebf8292225b43b26633217971638b4a8364be584e178888888888886040516024016107f596959493929190610d4b565b60408051601f198184030181529190526020810180516001600160e01b03166001600160e01b031990931692909217909152905060005a90506000808351602085018d85f492508261084e576040513d806000833e8082fd5b50505050505050505050565b600061089983836040518060400160405280601a815260200179536166654d6174683a206469766973696f6e206279207a65726f60301b815250610934565b9392505050565b60606108f5826040518060400160405280602081526020017f5361666545524332303a206c6f772d6c6576656c2063616c6c206661696c6564815250856001600160a01b031661096b9092919063ffffffff16565b80519091501561092f57808060200190518101906109139190610a9e565b61092f5760405162461bcd60e51b81526004016100ff90610d01565b505050565b600081836109555760405162461bcd60e51b81526004016100ff9190610b99565b50600083858161096157fe5b0495945050505050565b606061097a8484600085610982565b949350505050565b6060824710156109a45760405162461bcd60e51b81526004016100ff90610bf2565b6109ad85610a43565b6109c95760405162461bcd60e51b81526004016100ff90610c9b565b60006060866001600160a01b031685876040516109e69190610b45565b60006040518083038185875af1925050503d8060008114610a23576040519150601f19603f3d011682016040523d82523d6000602084013e610a28565b606091505b5091509150610a38828286610a49565b979650505050505050565b3b151590565b60608315610a58575081610899565b825115610a685782518084602001fd5b8160405162461bcd60e51b81526004016100ff9190610b99565b600060208284031215610a93578081fd5b815161089981610dad565b600060208284031215610aaf578081fd5b81518015158114610899578182fd5b600060208284031215610acf578081fd5b5051919050565b60008060008060008060c08789031215610aee578182fd5b86359550602087013594506040870135610b0781610dad565b93506060870135610b1781610dad565b92506080870135610b2781610dad565b915060a0870135610b3781610dad565b809150509295509295509295565b60008251610b57818460208701610d81565b9190910192915050565b6001600160a01b0391909116815260200190565b6001600160a01b039384168152919092166020820152604081019190915260600190565b6000602082528251806020840152610bb8816040850160208701610d81565b601f01601f19169190910160400192915050565b6020808252600c908201526b496e636f6d70617469626c6560a01b604082015260600190565b60208082526026908201527f416464726573733a20696e73756666696369656e742062616c616e636520666f6040820152651c8818d85b1b60d21b606082015260800190565b6020808252601c908201527b125b9cdd59999a58da595b9d081d1bdad95b93dd5d08185b5bdd5b9d60221b604082015260600190565b6020808252601390820152720a8ded6cadce640c6c2dcdcdee840dac2e8c6d606b1b604082015260600190565b6020808252601d908201527f416464726573733a2063616c6c20746f206e6f6e2d636f6e7472616374000000604082015260600190565b60208082526015908201527413db9b1e481cdd5c1c1bdc9d1cc819195c1bdcda5d605a1b604082015260600190565b6020808252602a908201527f5361666545524332303a204552433230206f7065726174696f6e20646964206e6040820152691bdd081cdd58d8d9595960b21b606082015260800190565b95865260208601949094526001600160a01b0392831660408601529082166060850152811660808401521660a082015260c00190565b60005b83811015610d9c578181015183820152602001610d84565b838111156106b55750506000910152565b6001600160a01b0381168114610dc257600080fd5b5056fea26469706673582212207953072a705abc8b97aed149c9cb12eb1396d6097eae8ac3e53e1d9b81e7a73e64736f6c634300060c0033608060405234801561001057600080fd5b506040516105573803806105578339818101604052604081101561003357600080fd5b5080516020909101516000610046610093565b600080546001600160a01b0319166001600160a01b038316908117825560405192935091600080516020610537833981519152908290a350600182905561008c81610097565b505061018f565b3390565b61009f610093565b6000546001600160a01b03908116911614610101576040805162461bcd60e51b815260206004820181905260248201527f4f776e61626c653a2063616c6c6572206973206e6f7420746865206f776e6572604482015290519081900360640190fd5b6001600160a01b0381166101465760405162461bcd60e51b81526004018080602001828103825260268152602001806105116026913960400191505060405180910390fd5b600080546040516001600160a01b038085169392169160008051602061053783398151915291a3600080546001600160a01b0319166001600160a01b0392909216919091179055565b6103738061019e6000396000f3fe608060405234801561001057600080fd5b50600436106100575760003560e01c80631d5e3fe51461005c578063715018a6146100765780638da5cb5b14610080578063b227a534146100a4578063f2fde38b146100c1575b600080fd5b6100646100e7565b60408051918252519081900360200190f35b61007e6100ed565b005b61008861018f565b604080516001600160a01b039092168252519081900360200190f35b61007e600480360360208110156100ba57600080fd5b503561019e565b61007e600480360360208110156100d757600080fd5b50356001600160a01b03166101fb565b60015481565b6100f56102f3565b6000546001600160a01b03908116911614610145576040805162461bcd60e51b8152602060048201819052602482015260008051602061031e833981519152604482015290519081900360640190fd5b600080546040516001600160a01b03909116907f8be0079c531659141344cd1fd0a4f28419497f9722a3daafe3b4186f6b6457e0908390a3600080546001600160a01b0319169055565b6000546001600160a01b031690565b6101a66102f3565b6000546001600160a01b039081169116146101f6576040805162461bcd60e51b8152602060048201819052602482015260008051602061031e833981519152604482015290519081900360640190fd5b600155565b6102036102f3565b6000546001600160a01b03908116911614610253576040805162461bcd60e51b8152602060048201819052602482015260008051602061031e833981519152604482015290519081900360640190fd5b6001600160a01b0381166102985760405162461bcd60e51b81526004018080602001828103825260268152602001806102f86026913960400191505060405180910390fd5b600080546040516001600160a01b03808516939216917f8be0079c531659141344cd1fd0a4f28419497f9722a3daafe3b4186f6b6457e091a3600080546001600160a01b0319166001600160a01b0392909216919091179055565b339056fe4f776e61626c653a206e6577206f776e657220697320746865207a65726f20616464726573734f776e61626c653a2063616c6c6572206973206e6f7420746865206f776e6572a2646970667358221220db74bee37227cde69c27937852ed0dd8a00ff93a8381e0059ea7d632c505835d64736f6c634300060c00334f776e61626c653a206e6577206f776e657220697320746865207a65726f20616464726573738be0079c531659141344cd1fd0a4f28419497f9722a3daafe3b4186f6b6457e0",
  "linkReferences": {},
  "deployedLinkReferences": {}
}