{
  "_format": "hh-sol-artifact-1",
  "contractName": "Leverage2XAdapter",
  "sourceName": "contracts/adapters/borrow/Leverage2XAdapter.sol",
  "abi": [
    {
      "inputs": [
        {
          "internalType": "address",
          "name": "defaultAdapter_",
          "type": "address"
        },
        {
          "internalType": "address",
          "name": "aaveV2Adapter_",
          "type": "address"
        },
        {
          "internalType": "address",
          "name": "aaveV2DebtAdapter_",
          "type": "address"
        },
        {
          "internalType": "address",
          "name": "addressesProvider_",
          "type": "address"
        },
        {
          "internalType": "address",
          "name": "debtToken_",
          "type": "address"
        },
        {
          "internalType": "address",
          "name": "weth_",
          "type": "address"
        }
      ],
      "stateMutability": "nonpayable",
      "type": "constructor"
    },
    {
      "inputs": [],
      "name": "aaveV2Adapter",
      "outputs": [
        {
          "internalType": "address",
          "name": "",
          "type": "address"
        }
      ],
      "stateMutability": "view",
      "type": "function"
    },
    {
      "inputs": [],
      "name": "aaveV2DebtAdapter",
      "outputs": [
        {
          "internalType": "address",
          "name": "",
          "type": "address"
        }
      ],
      "stateMutability": "view",
      "type": "function"
    },
    {
      "inputs": [],
      "name": "addressesProvider",
      "outputs": [
        {
          "internalType": "contract ILendingPoolAddressesProvider",
          "name": "",
          "type": "address"
        }
      ],
      "stateMutability": "view",
      "type": "function"
    },
    {
      "inputs": [],
      "name": "debtToken",
      "outputs": [
        {
          "internalType": "address",
          "name": "",
          "type": "address"
        }
      ],
      "stateMutability": "view",
      "type": "function"
    },
    {
      "inputs": [],
      "name": "defaultAdapter",
      "outputs": [
        {
          "internalType": "address",
          "name": "",
          "type": "address"
        }
      ],
      "stateMutability": "view",
      "type": "function"
    },
    {
      "inputs": [],
      "name": "gasCostProvider",
      "outputs": [
        {
          "internalType": "contract GasCostProvider",
          "name": "",
          "type": "address"
        }
      ],
      "stateMutability": "view",
      "type": "function"
    },
    {
      "inputs": [
        {
          "internalType": "uint256",
          "name": "amount",
          "type": "uint256"
        },
        {
          "internalType": "uint256",
          "name": "expected",
          "type": "uint256"
        },
        {
          "internalType": "address",
          "name": "tokenIn",
          "type": "address"
        },
        {
          "internalType": "address",
          "name": "tokenOut",
          "type": "address"
        },
        {
          "internalType": "address",
          "name": "from",
          "type": "address"
        },
        {
          "internalType": "address",
          "name": "to",
          "type": "address"
        }
      ],
      "name": "swap",
      "outputs": [],
      "stateMutability": "nonpayable",
      "type": "function"
    },
    {
      "inputs": [],
      "name": "weth",
      "outputs": [
        {
          "internalType": "address",
          "name": "",
          "type": "address"
        }
      ],
      "stateMutability": "view",
      "type": "function"
    }
  ],
  "bytecode": "0x6101a06040523480156200001257600080fd5b5060405162001e7438038062001e748339810160408190526200003591620001d4565b6001600160601b0319606082811b821660805287811b821660a05286811b821660c05285811b821660e05283901b16610100526040516117709033906200007c9062000183565b620000899291906200025a565b604051809103906000f080158015620000a6573d6000803e3d6000fd5b506001600160601b0319606091821b8116610120529084901b166101405260408051631f94a27560e31b815290516001600160a01b0385169163fca513a8916004808301926020929190829003018186803b1580156200010557600080fd5b505afa1580156200011a573d6000803e3d6000fd5b505050506040513d601f19601f82011682018060405250810190620001409190620001af565b60601b6001600160601b0319166101605250507fb16a19de4224283fa4cedf7c621a3cea4e1b1dc9122d01b4093ee3537fd658a061018052506200027192505050565b61056d806200190783390190565b80516001600160a01b0381168114620001a957600080fd5b92915050565b600060208284031215620001c1578081fd5b620001cd838362000191565b9392505050565b60008060008060008060c08789031215620001ed578182fd5b620001f9888862000191565b95506200020a886020890162000191565b94506200021b886040890162000191565b93506200022c886060890162000191565b92506200023d886080890162000191565b91506200024e8860a0890162000191565b90509295509295509295565b9182526001600160a01b0316602082015260400190565b60805160601c60a05160601c60c05160601c60e05160601c6101005160601c6101205160601c6101405160601c6101605160601c610180516115b7620003506000398061087c525080610a755280610c3e5280610d095280610e845250806107d35250806107af52806108a15250806103e9528061043552806104d352806105d4528061062052806107f75250806103bf52806105aa528061071f52508061036052806104ff528061066f528061076752508061041452806105ff528061078b52508061039452806107435280610a225280610b8a52506115b76000f3fe608060405234801561001057600080fd5b50600436106100885760003560e01c8063734e6cad1161005b578063734e6cad146100d0578063a555e74b146100d8578063c72c4d10146100e0578063f8d89898146100e857610088565b8063230f11c71461008d57806325796f07146100a25780633fc8cef3146100c05780635cafdf00146100c8575b600080fd5b6100a061009b3660046111fb565b6100f0565b005b6100aa61071d565b6040516100b791906112a7565b60405180910390f35b6100aa610741565b6100aa610765565b6100aa610789565b6100aa6107ad565b6100aa6107d1565b6100aa6107f5565b826001600160a01b0316846001600160a01b0316141561012b5760405162461bcd60e51b815260040161012290611462565b60405180910390fd5b8486101561014b5760405162461bcd60e51b8152600401610122906113ea565b6001600160a01b0382163014610295576040516370a0823160e01b81526000906001600160a01b038616906370a082319061018a9030906004016112a7565b60206040518083038186803b1580156101a257600080fd5b505afa1580156101b6573d6000803e3d6000fd5b505050506040513d601f19601f820116820180604052508101906101da91906111e3565b90506101f16001600160a01b03861684308a610819565b6040516370a0823160e01b81526000906001600160a01b038716906370a08231906102209030906004016112a7565b60206040518083038186803b15801561023857600080fd5b505afa15801561024c573d6000803e3d6000fd5b505050506040513d601f19601f8201168201806040525081019061027091906111e3565b90508181116102915760405162461bcd60e51b815260040161012290611312565b0395505b61029e83610877565b6102ba5760405162461bcd60e51b8152600401610122906114d0565b836001600160a01b0316836001600160a01b031663b16a19de6040518163ffffffff1660e01b815260040160206040518083038186803b1580156102fd57600080fd5b505afa158015610311573d6000803e3d6000fd5b505050506040513d601f19601f8201168201806040525081019061033591906111a7565b6001600160a01b03161461035b5760405162461bcd60e51b815260040161012290611347565b61038b7f000000000000000000000000000000000000000000000000000000000000000087600187873087610971565b60006103b887867f00000000000000000000000000000000000000000000000000000000000000006109fd565b905061040f7f0000000000000000000000000000000000000000000000000000000000000000600183901c600160007f00000000000000000000000000000000000000000000000000000000000000008730610971565b6104fa7f00000000000000000000000000000000000000000000000000000000000000007f00000000000000000000000000000000000000000000000000000000000000006001600160a01b03166370a08231306040518263ffffffff1660e01b815260040161047f91906112a7565b60206040518083038186803b15801561049757600080fd5b505afa1580156104ab573d6000803e3d6000fd5b505050506040513d601f19601f820116820180604052508101906104cf91906111e3565b60017f0000000000000000000000000000000000000000000000000000000000000000893030610971565b6105a57f0000000000000000000000000000000000000000000000000000000000000000866001600160a01b03166370a08231306040518263ffffffff1660e01b815260040161054a91906112a7565b60206040518083038186803b15801561056257600080fd5b505afa158015610576573d6000803e3d6000fd5b505050506040513d601f19601f8201168201806040525081019061059a91906111e3565b600188883088610971565b6105fa7f0000000000000000000000000000000000000000000000000000000000000000600183901c600160007f00000000000000000000000000000000000000000000000000000000000000008730610971565b61066a7f00000000000000000000000000000000000000000000000000000000000000007f00000000000000000000000000000000000000000000000000000000000000006001600160a01b03166370a08231306040518263ffffffff1660e01b815260040161047f91906112a7565b6107147f0000000000000000000000000000000000000000000000000000000000000000866001600160a01b03166370a08231306040518263ffffffff1660e01b81526004016106ba91906112a7565b60206040518083038186803b1580156106d257600080fd5b505afa1580156106e6573d6000803e3d6000fd5b505050506040513d601f19601f8201168201806040525081019061070a91906111e3565b8888883088610971565b50505050505050565b7f000000000000000000000000000000000000000000000000000000000000000081565b7f000000000000000000000000000000000000000000000000000000000000000081565b7f000000000000000000000000000000000000000000000000000000000000000081565b7f000000000000000000000000000000000000000000000000000000000000000081565b7f000000000000000000000000000000000000000000000000000000000000000081565b7f000000000000000000000000000000000000000000000000000000000000000081565b7f000000000000000000000000000000000000000000000000000000000000000081565b610871846323b872dd60e01b85858560405160240161083a939291906112bb565b60408051601f198184030181529190526020810180516001600160e01b03166001600160e01b031990931692909217909152610f40565b50505050565b6000807f0000000000000000000000000000000000000000000000000000000000000000905060007f00000000000000000000000000000000000000000000000000000000000000006001600160a01b0316631d5e3fe56040518163ffffffff1660e01b815260040160206040518083038186803b1580156108f857600080fd5b505afa15801561090c573d6000803e3d6000fd5b505050506040513d601f19601f8201168201806040525081019061093091906111e3565b9050600080604051602081016040528481526020816004838a88fa9250805191505081801561096757506001600160a01b03811615155b9695505050505050565b6000606063230f11c760e01b88888888888860405160240161099896959493929190611507565b60408051601f198184030181529190526020810180516001600160e01b03166001600160e01b031990931692909217909152905060005a90506000808351602085018d85f49250826109f1576040513d806000833e8082fd5b50505050505050505050565b6000816001600160a01b0316836001600160a01b03161415610a20575082610f39565b7f00000000000000000000000000000000000000000000000000000000000000006001600160a01b0316836001600160a01b03161415610b885760405163b3596f0760e01b8152610b81906001600160a01b037f0000000000000000000000000000000000000000000000000000000000000000169063b3596f0790610aaa9086906004016112a7565b60206040518083038186803b158015610ac257600080fd5b505afa158015610ad6573d6000803e3d6000fd5b505050506040513d601f19601f82011682018060405250810190610afa91906111e3565b610b7b846001600160a01b031663313ce5676040518163ffffffff1660e01b815260040160206040518083038186803b158015610b3657600080fd5b505afa158015610b4a573d6000803e3d6000fd5b505050506040513d601f19601f82011682018060405250810190610b6e919061126a565b879060ff16600a0a610fd4565b90611017565b9050610f39565b7f00000000000000000000000000000000000000000000000000000000000000006001600160a01b0316826001600160a01b03161415610cee57826001600160a01b031663313ce5676040518163ffffffff1660e01b815260040160206040518083038186803b158015610bfb57600080fd5b505afa158015610c0f573d6000803e3d6000fd5b505050506040513d601f19601f82011682018060405250810190610c33919061126a565b60ff16600a0a610cdf7f00000000000000000000000000000000000000000000000000000000000000006001600160a01b031663b3596f07866040518263ffffffff1660e01b8152600401610c8891906112a7565b60206040518083038186803b158015610ca057600080fd5b505afa158015610cb4573d6000803e3d6000fd5b505050506040513d601f19601f82011682018060405250810190610cd891906111e3565b8690610fd4565b81610ce657fe5b049050610f39565b60405163b3596f0760e01b8152610b81906001600160a01b037f0000000000000000000000000000000000000000000000000000000000000000169063b3596f0790610d3e9086906004016112a7565b60206040518083038186803b158015610d5657600080fd5b505afa158015610d6a573d6000803e3d6000fd5b505050506040513d601f19601f82011682018060405250810190610d8e91906111e3565b846001600160a01b031663313ce5676040518163ffffffff1660e01b815260040160206040518083038186803b158015610dc757600080fd5b505afa158015610ddb573d6000803e3d6000fd5b505050506040513d601f19601f82011682018060405250810190610dff919061126a565b60ff16600a0a610f2b856001600160a01b031663313ce5676040518163ffffffff1660e01b815260040160206040518083038186803b158015610e4157600080fd5b505afa158015610e55573d6000803e3d6000fd5b505050506040513d601f19601f82011682018060405250810190610e79919061126a565b60ff16600a0a610f257f00000000000000000000000000000000000000000000000000000000000000006001600160a01b031663b3596f078a6040518263ffffffff1660e01b8152600401610ece91906112a7565b60206040518083038186803b158015610ee657600080fd5b505afa158015610efa573d6000803e3d6000fd5b505050506040513d601f19601f82011682018060405250810190610f1e91906111e3565b8a90610fd4565b90610fd4565b81610f3257fe5b0490611017565b9392505050565b6060610f95826040518060400160405280602081526020017f5361666545524332303a206c6f772d6c6576656c2063616c6c206661696c6564815250856001600160a01b03166110599092919063ffffffff16565b805190915015610fcf5780806020019051810190610fb391906111c3565b610fcf5760405162461bcd60e51b8152600401610122906113b3565b505050565b600082610fe357506000611011565b82820282848281610ff057fe5b041461100e5760405162461bcd60e51b815260040161012290611421565b90505b92915050565b600061100e83836040518060400160405280601a81526020017f536166654d6174683a206469766973696f6e206279207a65726f000000000000815250611070565b606061106884846000856110a7565b949350505050565b600081836110915760405162461bcd60e51b815260040161012291906112df565b50600083858161109d57fe5b0495945050505050565b6060824710156110c95760405162461bcd60e51b81526004016101229061136d565b6110d285611168565b6110ee5760405162461bcd60e51b815260040161012290611499565b60006060866001600160a01b0316858760405161110b919061128b565b60006040518083038185875af1925050503d8060008114611148576040519150601f19603f3d011682016040523d82523d6000602084013e61114d565b606091505b509150915061115d82828661116e565b979650505050505050565b3b151590565b6060831561117d575081610f39565b82511561118d5782518084602001fd5b8160405162461bcd60e51b815260040161012291906112df565b6000602082840312156111b8578081fd5b815161100e81611569565b6000602082840312156111d4578081fd5b8151801515811461100e578182fd5b6000602082840312156111f4578081fd5b5051919050565b60008060008060008060c08789031215611213578182fd5b8635955060208701359450604087013561122c81611569565b9350606087013561123c81611569565b9250608087013561124c81611569565b915060a087013561125c81611569565b809150509295509295509295565b60006020828403121561127b578081fd5b815160ff8116811461100e578182fd5b6000825161129d81846020870161153d565b9190910192915050565b6001600160a01b0391909116815260200190565b6001600160a01b039384168152919092166020820152604081019190915260600190565b60006020825282518060208401526112fe81604085016020870161153d565b601f01601f19169190910160400192915050565b6020808252818101527f4e6f20746f6b656e73207472616e7366657272656420746f2061646170746572604082015260600190565b6020808252600c908201526b496e636f6d70617469626c6560a01b604082015260600190565b60208082526026908201527f416464726573733a20696e73756666696369656e742062616c616e636520666f6040820152651c8818d85b1b60d21b606082015260800190565b60208082526013908201527f5361666545524332303a20217375636365737300000000000000000000000000604082015260600190565b6020808252601c908201527f496e73756666696369656e7420746f6b656e4f757420616d6f756e7400000000604082015260600190565b60208082526021908201527f536166654d6174683a206d756c7469706c69636174696f6e206f766572666c6f6040820152607760f81b606082015260800190565b60208082526013908201527f546f6b656e732063616e6e6f74206d6174636800000000000000000000000000604082015260600190565b6020808252601d908201527f416464726573733a2063616c6c20746f206e6f6e2d636f6e7472616374000000604082015260600190565b60208082526015908201527f4f6e6c7920737570706f727473206465706f7369740000000000000000000000604082015260600190565b95865260208601949094526001600160a01b0392831660408601529082166060850152811660808401521660a082015260c00190565b60005b83811015611558578181015183820152602001611540565b838111156108715750506000910152565b6001600160a01b038116811461157e57600080fd5b5056fea2646970667358221220241e63e88912314d9a8d10ff650f28cfa556a2e299f3d8848d98d67a9845056c64736f6c634300060c0033608060405234801561001057600080fd5b5060405161056d38038061056d8339818101604052604081101561003357600080fd5b5080516020909101516000610046610093565b600080546001600160a01b0319166001600160a01b03831690811782556040519293509160008051602061054d833981519152908290a350600182905561008c81610097565b505061018f565b3390565b61009f610093565b6000546001600160a01b03908116911614610101576040805162461bcd60e51b815260206004820181905260248201527f4f776e61626c653a2063616c6c6572206973206e6f7420746865206f776e6572604482015290519081900360640190fd5b6001600160a01b0381166101465760405162461bcd60e51b81526004018080602001828103825260268152602001806105276026913960400191505060405180910390fd5b600080546040516001600160a01b038085169392169160008051602061054d83398151915291a3600080546001600160a01b0319166001600160a01b0392909216919091179055565b6103898061019e6000396000f3fe608060405234801561001057600080fd5b50600436106100575760003560e01c80631d5e3fe51461005c578063715018a6146100765780638da5cb5b14610080578063b227a534146100a4578063f2fde38b146100c1575b600080fd5b6100646100e7565b60408051918252519081900360200190f35b61007e6100ed565b005b6100886101a1565b604080516001600160a01b039092168252519081900360200190f35b61007e600480360360208110156100ba57600080fd5b50356101b0565b61007e600480360360208110156100d757600080fd5b50356001600160a01b031661021f565b60015481565b6100f5610329565b6000546001600160a01b03908116911614610157576040805162461bcd60e51b815260206004820181905260248201527f4f776e61626c653a2063616c6c6572206973206e6f7420746865206f776e6572604482015290519081900360640190fd5b600080546040516001600160a01b03909116907f8be0079c531659141344cd1fd0a4f28419497f9722a3daafe3b4186f6b6457e0908390a3600080546001600160a01b0319169055565b6000546001600160a01b031690565b6101b8610329565b6000546001600160a01b0390811691161461021a576040805162461bcd60e51b815260206004820181905260248201527f4f776e61626c653a2063616c6c6572206973206e6f7420746865206f776e6572604482015290519081900360640190fd5b600155565b610227610329565b6000546001600160a01b03908116911614610289576040805162461bcd60e51b815260206004820181905260248201527f4f776e61626c653a2063616c6c6572206973206e6f7420746865206f776e6572604482015290519081900360640190fd5b6001600160a01b0381166102ce5760405162461bcd60e51b815260040180806020018281038252602681526020018061032e6026913960400191505060405180910390fd5b600080546040516001600160a01b03808516939216917f8be0079c531659141344cd1fd0a4f28419497f9722a3daafe3b4186f6b6457e091a3600080546001600160a01b0319166001600160a01b0392909216919091179055565b339056fe4f776e61626c653a206e6577206f776e657220697320746865207a65726f2061646472657373a2646970667358221220d7002ce83391506c39ab3da9ef80ac607d8e94b3c627021ce5bc188d3f24991364736f6c634300060c00334f776e61626c653a206e6577206f776e657220697320746865207a65726f20616464726573738be0079c531659141344cd1fd0a4f28419497f9722a3daafe3b4186f6b6457e0",
  "linkReferences": {},
  "deployedLinkReferences": {}
}