{
  "_format": "hh-sol-artifact-1",
  "contractName": "Leverage2XAdapter",
  "sourceName": "contracts/adapters/borrow/Leverage2XAdapter.sol",
  "abi": [
    {
      "inputs": [
        {
          "internalType": "address",
          "name": "defaultAdapter_",
          "type": "address"
        },
        {
          "internalType": "address",
          "name": "aaveV2Adapter_",
          "type": "address"
        },
        {
          "internalType": "address",
          "name": "aaveV2DebtAdapter_",
          "type": "address"
        },
        {
          "internalType": "address",
          "name": "addressesProvider_",
          "type": "address"
        },
        {
          "internalType": "address",
          "name": "debtToken_",
          "type": "address"
        },
        {
          "internalType": "address",
          "name": "weth_",
          "type": "address"
        }
      ],
      "stateMutability": "nonpayable",
      "type": "constructor"
    },
    {
      "inputs": [],
      "name": "aaveV2Adapter",
      "outputs": [
        {
          "internalType": "address",
          "name": "",
          "type": "address"
        }
      ],
      "stateMutability": "view",
      "type": "function"
    },
    {
      "inputs": [],
      "name": "aaveV2DebtAdapter",
      "outputs": [
        {
          "internalType": "address",
          "name": "",
          "type": "address"
        }
      ],
      "stateMutability": "view",
      "type": "function"
    },
    {
      "inputs": [],
      "name": "addressesProvider",
      "outputs": [
        {
          "internalType": "contract ILendingPoolAddressesProvider",
          "name": "",
          "type": "address"
        }
      ],
      "stateMutability": "view",
      "type": "function"
    },
    {
      "inputs": [],
      "name": "debtToken",
      "outputs": [
        {
          "internalType": "address",
          "name": "",
          "type": "address"
        }
      ],
      "stateMutability": "view",
      "type": "function"
    },
    {
      "inputs": [],
      "name": "defaultAdapter",
      "outputs": [
        {
          "internalType": "address",
          "name": "",
          "type": "address"
        }
      ],
      "stateMutability": "view",
      "type": "function"
    },
    {
      "inputs": [],
      "name": "gasCostProvider",
      "outputs": [
        {
          "internalType": "contract GasCostProvider",
          "name": "",
          "type": "address"
        }
      ],
      "stateMutability": "view",
      "type": "function"
    },
    {
      "inputs": [
        {
          "internalType": "uint256",
          "name": "amount",
          "type": "uint256"
        },
        {
          "internalType": "uint256",
          "name": "expected",
          "type": "uint256"
        },
        {
          "internalType": "address",
          "name": "tokenIn",
          "type": "address"
        },
        {
          "internalType": "address",
          "name": "tokenOut",
          "type": "address"
        },
        {
          "internalType": "address",
          "name": "from",
          "type": "address"
        },
        {
          "internalType": "address",
          "name": "to",
          "type": "address"
        }
      ],
      "name": "swap",
      "outputs": [],
      "stateMutability": "nonpayable",
      "type": "function"
    },
    {
      "inputs": [],
      "name": "weth",
      "outputs": [
        {
          "internalType": "address",
          "name": "",
          "type": "address"
        }
      ],
      "stateMutability": "view",
      "type": "function"
    }
  ],
  "bytecode": "0x6101606040523480156200001257600080fd5b5060405162001da338038062001da38339810160408190526200003591620000fd565b6001600160601b0319606082811b821660805287811b821660a05286811b821660c05285811b821660e05283901b16610100526040516117709033906200007c90620000d1565b6200008992919062000183565b604051809103906000f080158015620000a6573d6000803e3d6000fd5b506001600160601b0319606091821b81166101205293901b90921661014052506200019a9350505050565b610557806200184c83390190565b80516001600160a01b0381168114620000f757600080fd5b92915050565b60008060008060008060c0878903121562000116578182fd5b620001228888620000df565b9550620001338860208901620000df565b9450620001448860408901620000df565b9350620001558860608901620000df565b9250620001668860808901620000df565b9150620001778860a08901620000df565b90509295509295509295565b9182526001600160a01b0316602082015260400190565b60805160601c60a05160601c60c05160601c60e05160601c6101005160601c6101205160601c6101405160601c6115ea620002626000398061067e52806109235280610b745280610c8a5280610e8d52508061065a528061074c5250806102ba528061030652806103a452806104cb52806106a252508061028a528061047b52806105ca52508061022b52806103d0528061051a52806106125250806102e552806104aa528061063652508061025f52806105ee52806108e65280610abd52506115ea6000f3fe608060405234801561001057600080fd5b50600436106100785760003560e01c8063230f11c71461007d57806325796f07146100925780633fc8cef3146100b05780635cafdf00146100b8578063734e6cad146100c0578063a555e74b146100c8578063c72c4d10146100d0578063f8d89898146100d8575b600080fd5b61009061008b366004611263565b6100e0565b005b61009a6105c8565b6040516100a7919061130f565b60405180910390f35b61009a6105ec565b61009a610610565b61009a610634565b61009a610658565b61009a61067c565b61009a6106a0565b826001600160a01b0316846001600160a01b0316141561011b5760405162461bcd60e51b81526004016101129061145d565b60405180910390fd5b8486101561013b5760405162461bcd60e51b8152600401610112906113e6565b6001600160a01b0382163014610160576101606001600160a01b0385168330896106c4565b61016983610722565b6101855760405162461bcd60e51b8152600401610112906114c1565b836001600160a01b0316836001600160a01b031663b16a19de6040518163ffffffff1660e01b815260040160206040518083038186803b1580156101c857600080fd5b505afa1580156101dc573d6000803e3d6000fd5b505050506040513d601f19601f82011682018060405250810190610200919061120f565b6001600160a01b0316146102265760405162461bcd60e51b81526004016101129061137a565b6102567f00000000000000000000000000000000000000000000000000000000000000008760018787308761081c565b600061028387867f00000000000000000000000000000000000000000000000000000000000000006108c1565b90506102e07f00000000000000000000000000000000000000000000000000000000000000006102b4836002610fab565b600160007f0000000000000000000000000000000000000000000000000000000000000000873061081c565b6103cb7f00000000000000000000000000000000000000000000000000000000000000007f00000000000000000000000000000000000000000000000000000000000000006001600160a01b03166370a08231306040518263ffffffff1660e01b8152600401610350919061130f565b60206040518083038186803b15801561036857600080fd5b505afa15801561037c573d6000803e3d6000fd5b505050506040513d601f19601f820116820180604052508101906103a0919061124b565b60017f000000000000000000000000000000000000000000000000000000000000000089303061081c565b6104767f0000000000000000000000000000000000000000000000000000000000000000866001600160a01b03166370a08231306040518263ffffffff1660e01b815260040161041b919061130f565b60206040518083038186803b15801561043357600080fd5b505afa158015610447573d6000803e3d6000fd5b505050506040513d601f19601f8201168201806040525081019061046b919061124b565b60018888308861081c565b6104a57f00000000000000000000000000000000000000000000000000000000000000006102b4836002610fab565b6105157f00000000000000000000000000000000000000000000000000000000000000007f00000000000000000000000000000000000000000000000000000000000000006001600160a01b03166370a08231306040518263ffffffff1660e01b8152600401610350919061130f565b6105bf7f0000000000000000000000000000000000000000000000000000000000000000866001600160a01b03166370a08231306040518263ffffffff1660e01b8152600401610565919061130f565b60206040518083038186803b15801561057d57600080fd5b505afa158015610591573d6000803e3d6000fd5b505050506040513d601f19601f820116820180604052508101906105b5919061124b565b888888308861081c565b50505050505050565b7f000000000000000000000000000000000000000000000000000000000000000081565b7f000000000000000000000000000000000000000000000000000000000000000081565b7f000000000000000000000000000000000000000000000000000000000000000081565b7f000000000000000000000000000000000000000000000000000000000000000081565b7f000000000000000000000000000000000000000000000000000000000000000081565b7f000000000000000000000000000000000000000000000000000000000000000081565b7f000000000000000000000000000000000000000000000000000000000000000081565b61071c846323b872dd60e01b8585856040516024016106e593929190611323565b60408051601f198184030181529190526020810180516001600160e01b03166001600160e01b031990931692909217909152610ff3565b50505050565b6000807fb16a19de4224283fa4cedf7c621a3cea4e1b1dc9122d01b4093ee3537fd658a0905060007f00000000000000000000000000000000000000000000000000000000000000006001600160a01b0316631d5e3fe56040518163ffffffff1660e01b815260040160206040518083038186803b1580156107a357600080fd5b505afa1580156107b7573d6000803e3d6000fd5b505050506040513d601f19601f820116820180604052508101906107db919061124b565b9050600080604051602081016040528481526020816004838a88fa9250805191505081801561081257506001600160a01b03811615155b9695505050505050565b600060607f230f11c7cc54d258ee9bfebf8292225b43b26633217971638b4a8364be584e1788888888888860405160240161085c9695949392919061153a565b60408051601f198184030181529190526020810180516001600160e01b03166001600160e01b031990931692909217909152905060005a90506000808351602085018d85f49250826108b5576040513d806000833e8082fd5b50505050505050505050565b6000816001600160a01b0316836001600160a01b031614156108e4575082610fa4565b7f00000000000000000000000000000000000000000000000000000000000000006001600160a01b0316836001600160a01b03161415610abb57610ab47f00000000000000000000000000000000000000000000000000000000000000006001600160a01b031663fca513a86040518163ffffffff1660e01b815260040160206040518083038186803b15801561097a57600080fd5b505afa15801561098e573d6000803e3d6000fd5b505050506040513d601f19601f820116820180604052508101906109b2919061120f565b6001600160a01b031663b3596f07846040518263ffffffff1660e01b81526004016109dd919061130f565b60206040518083038186803b1580156109f557600080fd5b505afa158015610a09573d6000803e3d6000fd5b505050506040513d601f19601f82011682018060405250810190610a2d919061124b565b610aae846001600160a01b031663313ce5676040518163ffffffff1660e01b815260040160206040518083038186803b158015610a6957600080fd5b505afa158015610a7d573d6000803e3d6000fd5b505050506040513d601f19601f82011682018060405250810190610aa191906112d2565b879060ff16600a0a611087565b90610fab565b9050610fa4565b7f00000000000000000000000000000000000000000000000000000000000000006001600160a01b0316826001600160a01b03161415610c8557610ab4836001600160a01b031663313ce5676040518163ffffffff1660e01b815260040160206040518083038186803b158015610b3157600080fd5b505afa158015610b45573d6000803e3d6000fd5b505050506040513d601f19601f82011682018060405250810190610b6991906112d2565b60ff16600a0a610aae7f00000000000000000000000000000000000000000000000000000000000000006001600160a01b031663fca513a86040518163ffffffff1660e01b815260040160206040518083038186803b158015610bcb57600080fd5b505afa158015610bdf573d6000803e3d6000fd5b505050506040513d601f19601f82011682018060405250810190610c03919061120f565b6001600160a01b031663b3596f07876040518263ffffffff1660e01b8152600401610c2e919061130f565b60206040518083038186803b158015610c4657600080fd5b505afa158015610c5a573d6000803e3d6000fd5b505050506040513d601f19601f82011682018060405250810190610c7e919061124b565b8790611087565b610ab47f00000000000000000000000000000000000000000000000000000000000000006001600160a01b031663fca513a86040518163ffffffff1660e01b815260040160206040518083038186803b158015610ce157600080fd5b505afa158015610cf5573d6000803e3d6000fd5b505050506040513d601f19601f82011682018060405250810190610d19919061120f565b6001600160a01b031663b3596f07846040518263ffffffff1660e01b8152600401610d44919061130f565b60206040518083038186803b158015610d5c57600080fd5b505afa158015610d70573d6000803e3d6000fd5b505050506040513d601f19601f82011682018060405250810190610d94919061124b565b610aae856001600160a01b031663313ce5676040518163ffffffff1660e01b815260040160206040518083038186803b158015610dd057600080fd5b505afa158015610de4573d6000803e3d6000fd5b505050506040513d601f19601f82011682018060405250810190610e0891906112d2565b60ff16600a0a610aae866001600160a01b031663313ce5676040518163ffffffff1660e01b815260040160206040518083038186803b158015610e4a57600080fd5b505afa158015610e5e573d6000803e3d6000fd5b505050506040513d601f19601f82011682018060405250810190610e8291906112d2565b60ff16600a0a610f9e7f00000000000000000000000000000000000000000000000000000000000000006001600160a01b031663fca513a86040518163ffffffff1660e01b815260040160206040518083038186803b158015610ee457600080fd5b505afa158015610ef8573d6000803e3d6000fd5b505050506040513d601f19601f82011682018060405250810190610f1c919061120f565b6001600160a01b031663b3596f078b6040518263ffffffff1660e01b8152600401610f47919061130f565b60206040518083038186803b158015610f5f57600080fd5b505afa158015610f73573d6000803e3d6000fd5b505050506040513d601f19601f82011682018060405250810190610f97919061124b565b8b90611087565b90611087565b9392505050565b6000610fea83836040518060400160405280601a815260200179536166654d6174683a206469766973696f6e206279207a65726f60301b8152506110c1565b90505b92915050565b6060611048826040518060400160405280602081526020017f5361666545524332303a206c6f772d6c6576656c2063616c6c206661696c6564815250856001600160a01b03166110f89092919063ffffffff16565b8051909150156110825780806020019051810190611066919061122b565b6110825760405162461bcd60e51b8152600401610112906114f0565b505050565b60008261109657506000610fed565b828202828482816110a357fe5b0414610fea5760405162461bcd60e51b81526004016101129061141c565b600081836110e25760405162461bcd60e51b81526004016101129190611347565b5060008385816110ee57fe5b0495945050505050565b6060611107848460008561110f565b949350505050565b6060824710156111315760405162461bcd60e51b8152600401610112906113a0565b61113a856111d0565b6111565760405162461bcd60e51b81526004016101129061148a565b60006060866001600160a01b0316858760405161117391906112f3565b60006040518083038185875af1925050503d80600081146111b0576040519150601f19603f3d011682016040523d82523d6000602084013e6111b5565b606091505b50915091506111c58282866111d6565b979650505050505050565b3b151590565b606083156111e5575081610fa4565b8251156111f55782518084602001fd5b8160405162461bcd60e51b81526004016101129190611347565b600060208284031215611220578081fd5b8151610fea8161159c565b60006020828403121561123c578081fd5b81518015158114610fea578182fd5b60006020828403121561125c578081fd5b5051919050565b60008060008060008060c0878903121561127b578182fd5b863595506020870135945060408701356112948161159c565b935060608701356112a48161159c565b925060808701356112b48161159c565b915060a08701356112c48161159c565b809150509295509295509295565b6000602082840312156112e3578081fd5b815160ff81168114610fea578182fd5b60008251611305818460208701611570565b9190910192915050565b6001600160a01b0391909116815260200190565b6001600160a01b039384168152919092166020820152604081019190915260600190565b6000602082528251806020840152611366816040850160208701611570565b601f01601f19169190910160400192915050565b6020808252600c908201526b496e636f6d70617469626c6560a01b604082015260600190565b60208082526026908201527f416464726573733a20696e73756666696369656e742062616c616e636520666f6040820152651c8818d85b1b60d21b606082015260800190565b6020808252601c908201527b125b9cdd59999a58da595b9d081d1bdad95b93dd5d08185b5bdd5b9d60221b604082015260600190565b60208082526021908201527f536166654d6174683a206d756c7469706c69636174696f6e206f766572666c6f6040820152607760f81b606082015260800190565b6020808252601390820152720a8ded6cadce640c6c2dcdcdee840dac2e8c6d606b1b604082015260600190565b6020808252601d908201527f416464726573733a2063616c6c20746f206e6f6e2d636f6e7472616374000000604082015260600190565b60208082526015908201527413db9b1e481cdd5c1c1bdc9d1cc819195c1bdcda5d605a1b604082015260600190565b6020808252602a908201527f5361666545524332303a204552433230206f7065726174696f6e20646964206e6040820152691bdd081cdd58d8d9595960b21b606082015260800190565b95865260208601949094526001600160a01b0392831660408601529082166060850152811660808401521660a082015260c00190565b60005b8381101561158b578181015183820152602001611573565b8381111561071c5750506000910152565b6001600160a01b03811681146115b157600080fd5b5056fea2646970667358221220149567fb2e0ea4146a702ff62c2f727d0d9290e800e554ed095adeec7e56367f64736f6c634300060c0033608060405234801561001057600080fd5b506040516105573803806105578339818101604052604081101561003357600080fd5b5080516020909101516000610046610093565b600080546001600160a01b0319166001600160a01b038316908117825560405192935091600080516020610537833981519152908290a350600182905561008c81610097565b505061018f565b3390565b61009f610093565b6000546001600160a01b03908116911614610101576040805162461bcd60e51b815260206004820181905260248201527f4f776e61626c653a2063616c6c6572206973206e6f7420746865206f776e6572604482015290519081900360640190fd5b6001600160a01b0381166101465760405162461bcd60e51b81526004018080602001828103825260268152602001806105116026913960400191505060405180910390fd5b600080546040516001600160a01b038085169392169160008051602061053783398151915291a3600080546001600160a01b0319166001600160a01b0392909216919091179055565b6103738061019e6000396000f3fe608060405234801561001057600080fd5b50600436106100575760003560e01c80631d5e3fe51461005c578063715018a6146100765780638da5cb5b14610080578063b227a534146100a4578063f2fde38b146100c1575b600080fd5b6100646100e7565b60408051918252519081900360200190f35b61007e6100ed565b005b61008861018f565b604080516001600160a01b039092168252519081900360200190f35b61007e600480360360208110156100ba57600080fd5b503561019e565b61007e600480360360208110156100d757600080fd5b50356001600160a01b03166101fb565b60015481565b6100f56102f3565b6000546001600160a01b03908116911614610145576040805162461bcd60e51b8152602060048201819052602482015260008051602061031e833981519152604482015290519081900360640190fd5b600080546040516001600160a01b03909116907f8be0079c531659141344cd1fd0a4f28419497f9722a3daafe3b4186f6b6457e0908390a3600080546001600160a01b0319169055565b6000546001600160a01b031690565b6101a66102f3565b6000546001600160a01b039081169116146101f6576040805162461bcd60e51b8152602060048201819052602482015260008051602061031e833981519152604482015290519081900360640190fd5b600155565b6102036102f3565b6000546001600160a01b03908116911614610253576040805162461bcd60e51b8152602060048201819052602482015260008051602061031e833981519152604482015290519081900360640190fd5b6001600160a01b0381166102985760405162461bcd60e51b81526004018080602001828103825260268152602001806102f86026913960400191505060405180910390fd5b600080546040516001600160a01b03808516939216917f8be0079c531659141344cd1fd0a4f28419497f9722a3daafe3b4186f6b6457e091a3600080546001600160a01b0319166001600160a01b0392909216919091179055565b339056fe4f776e61626c653a206e6577206f776e657220697320746865207a65726f20616464726573734f776e61626c653a2063616c6c6572206973206e6f7420746865206f776e6572a2646970667358221220db74bee37227cde69c27937852ed0dd8a00ff93a8381e0059ea7d632c505835d64736f6c634300060c00334f776e61626c653a206e6577206f776e657220697320746865207a65726f20616464726573738be0079c531659141344cd1fd0a4f28419497f9722a3daafe3b4186f6b6457e0",
  "linkReferences": {},
  "deployedLinkReferences": {}
}