{
    "_format": "hh-sol-artifact-1",
    "contractName": "PlatformProxyAdmin",
    "sourceName": "contracts/PlatformProxyAdmin.sol",
    "abi": [
        {
            "inputs": [],
            "stateMutability": "nonpayable",
            "type": "constructor"
        },
        {
            "anonymous": false,
            "inputs": [
                {
                    "indexed": true,
                    "internalType": "address",
                    "name": "previousOwner",
                    "type": "address"
                },
                {
                    "indexed": true,
                    "internalType": "address",
                    "name": "newOwner",
                    "type": "address"
                }
            ],
            "name": "OwnershipTransferred",
            "type": "event"
        },
        {
            "inputs": [
                {
                    "internalType": "contract TransparentUpgradeableProxy",
                    "name": "proxy",
                    "type": "address"
                },
                {
                    "internalType": "address",
                    "name": "newAdmin",
                    "type": "address"
                }
            ],
            "name": "changeProxyAdmin",
            "outputs": [],
            "stateMutability": "nonpayable",
            "type": "function"
        },
        {
            "inputs": [],
            "name": "controller",
            "outputs": [
                {
                    "internalType": "address payable",
                    "name": "",
                    "type": "address"
                }
            ],
            "stateMutability": "view",
            "type": "function"
        },
        {
            "inputs": [],
            "name": "controllerImplementation",
            "outputs": [
                {
                    "internalType": "address",
                    "name": "",
                    "type": "address"
                }
            ],
            "stateMutability": "view",
            "type": "function"
        },
        {
            "inputs": [],
            "name": "factory",
            "outputs": [
                {
                    "internalType": "address payable",
                    "name": "",
                    "type": "address"
                }
            ],
            "stateMutability": "view",
            "type": "function"
        },
        {
            "inputs": [],
            "name": "factoryImplementation",
            "outputs": [
                {
                    "internalType": "address",
                    "name": "",
                    "type": "address"
                }
            ],
            "stateMutability": "view",
            "type": "function"
        },
        {
            "inputs": [
                {
                    "internalType": "contract TransparentUpgradeableProxy",
                    "name": "proxy",
                    "type": "address"
                }
            ],
            "name": "getProxyAdmin",
            "outputs": [
                {
                    "internalType": "address",
                    "name": "",
                    "type": "address"
                }
            ],
            "stateMutability": "view",
            "type": "function"
        },
        {
            "inputs": [
                {
                    "internalType": "contract TransparentUpgradeableProxy",
                    "name": "proxy",
                    "type": "address"
                }
            ],
            "name": "getProxyImplementation",
            "outputs": [
                {
                    "internalType": "address",
                    "name": "",
                    "type": "address"
                }
            ],
            "stateMutability": "view",
            "type": "function"
        },
        {
            "inputs": [
                {
                    "internalType": "address",
                    "name": "controllerImplementation",
                    "type": "address"
                },
                {
                    "internalType": "address",
                    "name": "factoryImplementation",
                    "type": "address"
                },
                {
                    "internalType": "address",
                    "name": "strategyImplementation",
                    "type": "address"
                },
                {
                    "internalType": "address",
                    "name": "oracle",
                    "type": "address"
                },
                {
                    "internalType": "address",
                    "name": "registry",
                    "type": "address"
                },
                {
                    "internalType": "address",
                    "name": "whitelist",
                    "type": "address"
                },
                {
                    "internalType": "address",
                    "name": "pool",
                    "type": "address"
                }
            ],
            "name": "initialize",
            "outputs": [],
            "stateMutability": "nonpayable",
            "type": "function"
        },
        {
            "inputs": [],
            "name": "owner",
            "outputs": [
                {
                    "internalType": "address",
                    "name": "",
                    "type": "address"
                }
            ],
            "stateMutability": "view",
            "type": "function"
        },
        {
            "inputs": [],
            "name": "renounceOwnership",
            "outputs": [],
            "stateMutability": "nonpayable",
            "type": "function"
        },
        {
            "inputs": [
                {
                    "internalType": "address",
                    "name": "newOwner",
                    "type": "address"
                }
            ],
            "name": "transferOwnership",
            "outputs": [],
            "stateMutability": "nonpayable",
            "type": "function"
        },
        {
            "inputs": [
                {
                    "internalType": "contract TransparentUpgradeableProxy",
                    "name": "proxy",
                    "type": "address"
                },
                {
                    "internalType": "address",
                    "name": "implementation",
                    "type": "address"
                }
            ],
            "name": "upgrade",
            "outputs": [],
            "stateMutability": "nonpayable",
            "type": "function"
        },
        {
            "inputs": [
                {
                    "internalType": "contract TransparentUpgradeableProxy",
                    "name": "proxy",
                    "type": "address"
                },
                {
                    "internalType": "address",
                    "name": "implementation",
                    "type": "address"
                },
                {
                    "internalType": "bytes",
                    "name": "data",
                    "type": "bytes"
                }
            ],
            "name": "upgradeAndCall",
            "outputs": [],
            "stateMutability": "payable",
            "type": "function"
        }
    ],
    "bytecode": "0x60c06040523480156200001157600080fd5b5060006200001e62000101565b600080546001600160a01b0319166001600160a01b0383169081178255604051929350917f8be0079c531659141344cd1fd0a4f28419497f9722a3daafe3b4186f6b6457e0908290a35060408051808201909152601281527129ba3930ba32b3bca1b7b73a3937b63632b960711b60208201526200009c9062000105565b60601b6001600160601b03191660805260408051808201909152601481527f537472617465677950726f7879466163746f72790000000000000000000000006020820152620000eb9062000105565b60601b6001600160601b03191660a05262000369565b3390565b60008060ff60f81b30846040516020018082805190602001908083835b60208310620001435780518252601f19909201916020918201910162000122565b6001836020036101000a038019825116818451168082178552505050505050905001915050604051602081830303815290604052805190602001206040518060200162000190906200035b565b601f19828203810183526000601f9092011681815260208101604081815230908301818152606080850183905260808501908152845160a0860181905292958695949293919260c086019290918190849084905b83811015620001fe578181015183820152602001620001e4565b50505050905090810190601f1680156200022c5780820380516001836020036101000a031916815260200191505b509450505050506040516020818303038152906040526040516020018083805190602001908083835b60208310620002765780518252601f19909201916020918201910162000255565b51815160209384036101000a600019018019909216911617905285519190930192850191508083835b60208310620002c05780518252601f1990920191602091820191016200029f565b6001836020036101000a038019825116818451168082178552505050505050905001925050506040516020818303038152906040528051906020012060405160200180856001600160f81b0319168152600101846001600160a01b031660601b81526014018381526020018281526020019450505050506040516020818303038152906040528051906020012090508060001c915050919050565b6108da80620019ef83390190565b60805160601c60a05160601c6116526200039d6000398061078a5280610b4552508061093a5280610cc852506116526000f3fe608060405260043610620000b05760003560e01c8063204e1c7a14620000b55780633587647614620001085780636e1dc8fc1462000173578063715018a6146200018b5780637eff275e14620001a35780638da5cb5b14620001e25780638e6c095914620001fa5780639623609d146200021257806399a88ec414620002d5578063c45a01551462000314578063f2fde38b146200032c578063f3b7dead1462000363578063f77c4791146200039a575b600080fd5b348015620000c257600080fd5b50620000ec60048036036020811015620000db57600080fd5b50356001600160a01b0316620003b2565b604080516001600160a01b039092168252519081900360200190f35b3480156200011557600080fd5b5062000171600480360360e08110156200012e57600080fd5b506001600160a01b038135811691602081013582169160408201358116916060810135821691608082013581169160a081013582169160c0909101351662000448565b005b3480156200018057600080fd5b50620000ec62000782565b3480156200019857600080fd5b5062000171620007b4565b348015620001b057600080fd5b506200017160048036036040811015620001c957600080fd5b506001600160a01b03813581169160200135166200085a565b348015620001ef57600080fd5b50620000ec62000923565b3480156200020757600080fd5b50620000ec62000932565b62000171600480360360608110156200022a57600080fd5b6001600160a01b038235811692602081013590911691810190606081016040820135600160201b8111156200025e57600080fd5b8201836020820111156200027157600080fd5b803590602001918460018302840111600160201b831117156200029357600080fd5b91908080601f0160208091040260200160405190810160405280939291908181526020018383808284376000920191909152509295506200095f945050505050565b348015620002e257600080fd5b506200017160048036036040811015620002fb57600080fd5b506001600160a01b038135811691602001351662000a97565b3480156200032157600080fd5b50620000ec62000b43565b3480156200033957600080fd5b5062000171600480360360208110156200035257600080fd5b50356001600160a01b031662000b67565b3480156200037057600080fd5b50620000ec600480360360208110156200038957600080fd5b50356001600160a01b031662000c65565b348015620003a757600080fd5b50620000ec62000cc6565b6000806060836001600160a01b03166040518080635c60da1b60e01b8152506004019050600060405180830381855afa9150503d806000811462000413576040519150601f19603f3d011682016040523d82523d6000602084013e62000418565b606091505b5091509150816200042857600080fd5b8080602001905160208110156200043e57600080fd5b5051949350505050565b600054600160a01b900460ff161562000496576040805162461bcd60e51b815260206004820152600b60248201526a125b9a5d1a585b1a5e995960aa1b604482015290519081900360640190fd5b6000805460ff60a01b1916600160a01b178155604080517129ba3930ba32b3bca1b7b73a3937b63632b960711b60208083019190915282518083036012018152603283018085528151919092012084825260529092019092529030908190604051620005029062000cee565b80846001600160a01b03168152602001836001600160a01b0316815260200180602001828103825283818151815260200191508051906020019080838360005b838110156200055c57818101518382015260200162000542565b50505050905090810190601f1680156200058a5780820380516001836020036101000a031916815260200191505b509450505050508190604051809103906000f5905080158015620005b2573d6000803e3d6000fd5b506040805173537472617465677950726f7879466163746f727960601b602080830191909152825160148184030181526034830180855281519190920120600080835260549093019093529293509130908190604051620006139062000cee565b80846001600160a01b03168152602001836001600160a01b0316815260200180602001828103825283818151815260200191508051906020019080838360005b838110156200066d57818101518382015260200162000653565b50505050905090810190601f1680156200069b5780820380516001836020036101000a031916815260200191505b509450505050508190604051809103906000f5905080158015620006c3573d6000803e3d6000fd5b50604080513360248201526001600160a01b03808b166044830152808a166064830152808916608483015280881660a4830152861660c4808301919091528251808303909101815260e49091019091526020810180516001600160e01b031663cc2a9a5b60e01b1790529091506200073f9082908a906200095f565b6040805160048152602481019091526020810180516001600160e01b031663204a7f0760e21b179052620007779083908b906200095f565b505050505050505050565b6000620007af7f0000000000000000000000000000000000000000000000000000000000000000620003b2565b905090565b620007be62000cea565b6000546001600160a01b0390811691161462000810576040805162461bcd60e51b81526020600482018190526024820152600080516020620015fd833981519152604482015290519081900360640190fd5b600080546040516001600160a01b03909116907f8be0079c531659141344cd1fd0a4f28419497f9722a3daafe3b4186f6b6457e0908390a3600080546001600160a01b0319169055565b6200086462000cea565b6000546001600160a01b03908116911614620008b6576040805162461bcd60e51b81526020600482018190526024820152600080516020620015fd833981519152604482015290519081900360640190fd5b816001600160a01b0316638f283970826040518263ffffffff1660e01b815260040180826001600160a01b03168152602001915050600060405180830381600087803b1580156200090657600080fd5b505af11580156200091b573d6000803e3d6000fd5b505050505050565b6000546001600160a01b031690565b6000620007af7f0000000000000000000000000000000000000000000000000000000000000000620003b2565b6200096962000cea565b6000546001600160a01b03908116911614620009bb576040805162461bcd60e51b81526020600482018190526024820152600080516020620015fd833981519152604482015290519081900360640190fd5b826001600160a01b0316634f1ef2863484846040518463ffffffff1660e01b815260040180836001600160a01b0316815260200180602001828103825283818151815260200191508051906020019080838360005b8381101562000a2a57818101518382015260200162000a10565b50505050905090810190601f16801562000a585780820380516001836020036101000a031916815260200191505b5093505050506000604051808303818588803b15801562000a7857600080fd5b505af115801562000a8d573d6000803e3d6000fd5b5050505050505050565b62000aa162000cea565b6000546001600160a01b0390811691161462000af3576040805162461bcd60e51b81526020600482018190526024820152600080516020620015fd833981519152604482015290519081900360640190fd5b816001600160a01b0316633659cfe6826040518263ffffffff1660e01b815260040180826001600160a01b03168152602001915050600060405180830381600087803b1580156200090657600080fd5b7f000000000000000000000000000000000000000000000000000000000000000081565b62000b7162000cea565b6000546001600160a01b0390811691161462000bc3576040805162461bcd60e51b81526020600482018190526024820152600080516020620015fd833981519152604482015290519081900360640190fd5b6001600160a01b03811662000c0a5760405162461bcd60e51b8152600401808060200182810382526026815260200180620015d76026913960400191505060405180910390fd5b600080546040516001600160a01b03808516939216917f8be0079c531659141344cd1fd0a4f28419497f9722a3daafe3b4186f6b6457e091a3600080546001600160a01b0319166001600160a01b0392909216919091179055565b6000806060836001600160a01b031660405180806303e1469160e61b8152506004019050600060405180830381855afa9150503d806000811462000413576040519150601f19603f3d011682016040523d82523d6000602084013e62000418565b7f000000000000000000000000000000000000000000000000000000000000000081565b3390565b6108da8062000cfd8339019056fe60806040526040516108da3803806108da8339818101604052606081101561002657600080fd5b8151602083015160408085018051915193959294830192918464010000000082111561005157600080fd5b90830190602082018581111561006657600080fd5b825164010000000081118282018810171561008057600080fd5b82525081516020918201929091019080838360005b838110156100ad578181015183820152602001610095565b50505050905090810190601f1680156100da5780820380516001836020036101000a031916815260200191505b50604052508491508290506100ee826101bf565b8051156101a6576000826001600160a01b0316826040518082805190602001908083835b602083106101315780518252601f199092019160209182019101610112565b6001836020036101000a038019825116818451168082178552505050505050905001915050600060405180830381855af49150503d8060008114610191576040519150601f19603f3d011682016040523d82523d6000602084013e610196565b606091505b50509050806101a457600080fd5b505b506101ae9050565b6101b782610231565b50505061025b565b6101d28161025560201b6103b21760201c565b61020d5760405162461bcd60e51b81526004018080602001828103825260368152602001806108a46036913960400191505060405180910390fd5b7f360894a13ba1a3210667c828492db98dca3e2076cc3735a920a3ca505d382bbc55565b7fb53127684a568b3173ae13b9f8a6016e243e63b6e8ee1178d6a717850b5d610355565b3b151590565b61063a8061026a6000396000f3fe60806040526004361061004e5760003560e01c80633659cfe6146100655780634f1ef286146100985780635c60da1b146101165780638f28397014610147578063f851a4401461017a5761005d565b3661005d5761005b61018f565b005b61005b61018f565b34801561007157600080fd5b5061005b6004803603602081101561008857600080fd5b50356001600160a01b03166101a9565b61005b600480360360408110156100ae57600080fd5b6001600160a01b038235169190810190604081016020820135600160201b8111156100d857600080fd5b8201836020820111156100ea57600080fd5b803590602001918460018302840111600160201b8311171561010b57600080fd5b5090925090506101e3565b34801561012257600080fd5b5061012b610290565b604080516001600160a01b039092168252519081900360200190f35b34801561015357600080fd5b5061005b6004803603602081101561016a57600080fd5b50356001600160a01b03166102cd565b34801561018657600080fd5b5061012b610387565b6101976103b8565b6101a76101a2610418565b61043d565b565b6101b1610461565b6001600160a01b0316336001600160a01b031614156101d8576101d381610486565b6101e0565b6101e061018f565b50565b6101eb610461565b6001600160a01b0316336001600160a01b031614156102835761020d83610486565b6000836001600160a01b031683836040518083838082843760405192019450600093509091505080830381855af49150503d806000811461026a576040519150601f19603f3d011682016040523d82523d6000602084013e61026f565b606091505b505090508061027d57600080fd5b5061028b565b61028b61018f565b505050565b600061029a610461565b6001600160a01b0316336001600160a01b031614156102c2576102bb610418565b90506102ca565b6102ca61018f565b90565b6102d5610461565b6001600160a01b0316336001600160a01b031614156101d8576001600160a01b0381166103335760405162461bcd60e51b815260040180806020018281038252603a815260200180610553603a913960400191505060405180910390fd5b7f7e644d79422f17c01e4894b5f4f588d331ebfa28653d42ae832dc59e38c9798f61035c610461565b604080516001600160a01b03928316815291841660208301528051918290030190a16101d3816104c6565b6000610391610461565b6001600160a01b0316336001600160a01b031614156102c2576102bb610461565b3b151590565b6103c0610461565b6001600160a01b0316336001600160a01b031614156104105760405162461bcd60e51b81526004018080602001828103825260428152602001806105c36042913960600191505060405180910390fd5b6101a76101a7565b7f360894a13ba1a3210667c828492db98dca3e2076cc3735a920a3ca505d382bbc5490565b3660008037600080366000845af43d6000803e80801561045c573d6000f35b3d6000fd5b7fb53127684a568b3173ae13b9f8a6016e243e63b6e8ee1178d6a717850b5d61035490565b61048f816104ea565b6040516001600160a01b038216907fbc7cd75a20ee27fd9adebab32041f755214dbc6bffa90cc0225b39da2e5c2d3b90600090a250565b7fb53127684a568b3173ae13b9f8a6016e243e63b6e8ee1178d6a717850b5d610355565b6104f3816103b2565b61052e5760405162461bcd60e51b815260040180806020018281038252603681526020018061058d6036913960400191505060405180910390fd5b7f360894a13ba1a3210667c828492db98dca3e2076cc3735a920a3ca505d382bbc5556fe5472616e73706172656e745570677261646561626c6550726f78793a206e65772061646d696e20697320746865207a65726f20616464726573735570677261646561626c6550726f78793a206e657720696d706c656d656e746174696f6e206973206e6f74206120636f6e74726163745472616e73706172656e745570677261646561626c6550726f78793a2061646d696e2063616e6e6f742066616c6c6261636b20746f2070726f787920746172676574a2646970667358221220a28cc12b25f88123b1eb319a1aa70df7b9cd1893ed1f7056673f940f30f1796664736f6c634300060c00335570677261646561626c6550726f78793a206e657720696d706c656d656e746174696f6e206973206e6f74206120636f6e74726163744f776e61626c653a206e6577206f776e657220697320746865207a65726f20616464726573734f776e61626c653a2063616c6c6572206973206e6f7420746865206f776e6572a264697066735822122020122cb0fe636d4021ee0310e894232bff7996460a044dcbbe218ab95cecbc7964736f6c634300060c003360806040526040516108da3803806108da8339818101604052606081101561002657600080fd5b8151602083015160408085018051915193959294830192918464010000000082111561005157600080fd5b90830190602082018581111561006657600080fd5b825164010000000081118282018810171561008057600080fd5b82525081516020918201929091019080838360005b838110156100ad578181015183820152602001610095565b50505050905090810190601f1680156100da5780820380516001836020036101000a031916815260200191505b50604052508491508290506100ee826101bf565b8051156101a6576000826001600160a01b0316826040518082805190602001908083835b602083106101315780518252601f199092019160209182019101610112565b6001836020036101000a038019825116818451168082178552505050505050905001915050600060405180830381855af49150503d8060008114610191576040519150601f19603f3d011682016040523d82523d6000602084013e610196565b606091505b50509050806101a457600080fd5b505b506101ae9050565b6101b782610231565b50505061025b565b6101d28161025560201b6103b21760201c565b61020d5760405162461bcd60e51b81526004018080602001828103825260368152602001806108a46036913960400191505060405180910390fd5b7f360894a13ba1a3210667c828492db98dca3e2076cc3735a920a3ca505d382bbc55565b7fb53127684a568b3173ae13b9f8a6016e243e63b6e8ee1178d6a717850b5d610355565b3b151590565b61063a8061026a6000396000f3fe60806040526004361061004e5760003560e01c80633659cfe6146100655780634f1ef286146100985780635c60da1b146101165780638f28397014610147578063f851a4401461017a5761005d565b3661005d5761005b61018f565b005b61005b61018f565b34801561007157600080fd5b5061005b6004803603602081101561008857600080fd5b50356001600160a01b03166101a9565b61005b600480360360408110156100ae57600080fd5b6001600160a01b038235169190810190604081016020820135600160201b8111156100d857600080fd5b8201836020820111156100ea57600080fd5b803590602001918460018302840111600160201b8311171561010b57600080fd5b5090925090506101e3565b34801561012257600080fd5b5061012b610290565b604080516001600160a01b039092168252519081900360200190f35b34801561015357600080fd5b5061005b6004803603602081101561016a57600080fd5b50356001600160a01b03166102cd565b34801561018657600080fd5b5061012b610387565b6101976103b8565b6101a76101a2610418565b61043d565b565b6101b1610461565b6001600160a01b0316336001600160a01b031614156101d8576101d381610486565b6101e0565b6101e061018f565b50565b6101eb610461565b6001600160a01b0316336001600160a01b031614156102835761020d83610486565b6000836001600160a01b031683836040518083838082843760405192019450600093509091505080830381855af49150503d806000811461026a576040519150601f19603f3d011682016040523d82523d6000602084013e61026f565b606091505b505090508061027d57600080fd5b5061028b565b61028b61018f565b505050565b600061029a610461565b6001600160a01b0316336001600160a01b031614156102c2576102bb610418565b90506102ca565b6102ca61018f565b90565b6102d5610461565b6001600160a01b0316336001600160a01b031614156101d8576001600160a01b0381166103335760405162461bcd60e51b815260040180806020018281038252603a815260200180610553603a913960400191505060405180910390fd5b7f7e644d79422f17c01e4894b5f4f588d331ebfa28653d42ae832dc59e38c9798f61035c610461565b604080516001600160a01b03928316815291841660208301528051918290030190a16101d3816104c6565b6000610391610461565b6001600160a01b0316336001600160a01b031614156102c2576102bb610461565b3b151590565b6103c0610461565b6001600160a01b0316336001600160a01b031614156104105760405162461bcd60e51b81526004018080602001828103825260428152602001806105c36042913960600191505060405180910390fd5b6101a76101a7565b7f360894a13ba1a3210667c828492db98dca3e2076cc3735a920a3ca505d382bbc5490565b3660008037600080366000845af43d6000803e80801561045c573d6000f35b3d6000fd5b7fb53127684a568b3173ae13b9f8a6016e243e63b6e8ee1178d6a717850b5d61035490565b61048f816104ea565b6040516001600160a01b038216907fbc7cd75a20ee27fd9adebab32041f755214dbc6bffa90cc0225b39da2e5c2d3b90600090a250565b7fb53127684a568b3173ae13b9f8a6016e243e63b6e8ee1178d6a717850b5d610355565b6104f3816103b2565b61052e5760405162461bcd60e51b815260040180806020018281038252603681526020018061058d6036913960400191505060405180910390fd5b7f360894a13ba1a3210667c828492db98dca3e2076cc3735a920a3ca505d382bbc5556fe5472616e73706172656e745570677261646561626c6550726f78793a206e65772061646d696e20697320746865207a65726f20616464726573735570677261646561626c6550726f78793a206e657720696d706c656d656e746174696f6e206973206e6f74206120636f6e74726163745472616e73706172656e745570677261646561626c6550726f78793a2061646d696e2063616e6e6f742066616c6c6261636b20746f2070726f787920746172676574a2646970667358221220a28cc12b25f88123b1eb319a1aa70df7b9cd1893ed1f7056673f940f30f1796664736f6c634300060c00335570677261646561626c6550726f78793a206e657720696d706c656d656e746174696f6e206973206e6f74206120636f6e7472616374",
    "linkReferences": {},
    "deployedLinkReferences": {}
}