{
  "_format": "hh-sol-artifact-1",
  "contractName": "Strategy",
  "sourceName": "contracts/Strategy.sol",
  "abi": [
    {
      "inputs": [
        {
          "internalType": "address",
          "name": "factory_",
          "type": "address"
        },
        {
          "internalType": "address",
          "name": "controller_",
          "type": "address"
        },
        {
          "internalType": "address",
          "name": "synthetixResolver_",
          "type": "address"
        },
        {
          "internalType": "address",
          "name": "aaveResolver_",
          "type": "address"
        }
      ],
      "stateMutability": "nonpayable",
      "type": "constructor"
    },
    {
      "anonymous": false,
      "inputs": [
        {
          "indexed": true,
          "internalType": "address",
          "name": "owner",
          "type": "address"
        },
        {
          "indexed": true,
          "internalType": "address",
          "name": "spender",
          "type": "address"
        },
        {
          "indexed": false,
          "internalType": "uint256",
          "name": "value",
          "type": "uint256"
        }
      ],
      "name": "Approval",
      "type": "event"
    },
    {
      "anonymous": false,
      "inputs": [
        {
          "indexed": true,
          "internalType": "address",
          "name": "account",
          "type": "address"
        },
        {
          "indexed": false,
          "internalType": "uint256",
          "name": "amount",
          "type": "uint256"
        }
      ],
      "name": "PerformanceFee",
      "type": "event"
    },
    {
      "anonymous": false,
      "inputs": [
        {
          "indexed": false,
          "internalType": "uint256",
          "name": "amount",
          "type": "uint256"
        }
      ],
      "name": "StreamingFee",
      "type": "event"
    },
    {
      "anonymous": false,
      "inputs": [
        {
          "indexed": true,
          "internalType": "address",
          "name": "from",
          "type": "address"
        },
        {
          "indexed": true,
          "internalType": "address",
          "name": "to",
          "type": "address"
        },
        {
          "indexed": false,
          "internalType": "uint256",
          "name": "value",
          "type": "uint256"
        }
      ],
      "name": "Transfer",
      "type": "event"
    },
    {
      "anonymous": false,
      "inputs": [
        {
          "indexed": false,
          "internalType": "address",
          "name": "manager",
          "type": "address"
        }
      ],
      "name": "UpdateManager",
      "type": "event"
    },
    {
      "anonymous": false,
      "inputs": [
        {
          "indexed": true,
          "internalType": "address",
          "name": "account",
          "type": "address"
        },
        {
          "indexed": false,
          "internalType": "uint256",
          "name": "amount",
          "type": "uint256"
        },
        {
          "indexed": false,
          "internalType": "uint256[]",
          "name": "amounts",
          "type": "uint256[]"
        }
      ],
      "name": "Withdraw",
      "type": "event"
    },
    {
      "anonymous": false,
      "inputs": [
        {
          "indexed": true,
          "internalType": "address",
          "name": "account",
          "type": "address"
        },
        {
          "indexed": false,
          "internalType": "uint256",
          "name": "amount",
          "type": "uint256"
        }
      ],
      "name": "WithdrawalFee",
      "type": "event"
    },
    {
      "inputs": [],
      "name": "BALANCE_LOW",
      "outputs": [
        {
          "internalType": "string",
          "name": "",
          "type": "string"
        }
      ],
      "stateMutability": "view",
      "type": "function"
    },
    {
      "inputs": [],
      "name": "DOMAIN_SEPARATOR",
      "outputs": [
        {
          "internalType": "bytes32",
          "name": "",
          "type": "bytes32"
        }
      ],
      "stateMutability": "view",
      "type": "function"
    },
    {
      "inputs": [],
      "name": "PERMIT_TYPEHASH",
      "outputs": [
        {
          "internalType": "bytes32",
          "name": "",
          "type": "bytes32"
        }
      ],
      "stateMutability": "view",
      "type": "function"
    },
    {
      "inputs": [],
      "name": "STREAM_FEE",
      "outputs": [
        {
          "internalType": "uint256",
          "name": "",
          "type": "uint256"
        }
      ],
      "stateMutability": "view",
      "type": "function"
    },
    {
      "inputs": [],
      "name": "WITHDRAWAL_FEE",
      "outputs": [
        {
          "internalType": "uint256",
          "name": "",
          "type": "uint256"
        }
      ],
      "stateMutability": "view",
      "type": "function"
    },
    {
      "inputs": [
        {
          "internalType": "address",
          "name": "owner",
          "type": "address"
        },
        {
          "internalType": "address",
          "name": "spender",
          "type": "address"
        }
      ],
      "name": "allowance",
      "outputs": [
        {
          "internalType": "uint256",
          "name": "",
          "type": "uint256"
        }
      ],
      "stateMutability": "view",
      "type": "function"
    },
    {
      "inputs": [
        {
          "internalType": "address",
          "name": "spender",
          "type": "address"
        },
        {
          "internalType": "uint256",
          "name": "amount",
          "type": "uint256"
        }
      ],
      "name": "approve",
      "outputs": [
        {
          "internalType": "bool",
          "name": "",
          "type": "bool"
        }
      ],
      "stateMutability": "nonpayable",
      "type": "function"
    },
    {
      "inputs": [
        {
          "internalType": "address",
          "name": "token",
          "type": "address"
        },
        {
          "internalType": "address",
          "name": "account",
          "type": "address"
        },
        {
          "internalType": "uint256",
          "name": "amount",
          "type": "uint256"
        }
      ],
      "name": "approveDebt",
      "outputs": [],
      "stateMutability": "nonpayable",
      "type": "function"
    },
    {
      "inputs": [
        {
          "internalType": "address",
          "name": "account",
          "type": "address"
        },
        {
          "internalType": "uint256",
          "name": "amount",
          "type": "uint256"
        }
      ],
      "name": "approveSynths",
      "outputs": [],
      "stateMutability": "nonpayable",
      "type": "function"
    },
    {
      "inputs": [
        {
          "internalType": "address",
          "name": "token",
          "type": "address"
        },
        {
          "internalType": "address",
          "name": "account",
          "type": "address"
        },
        {
          "internalType": "uint256",
          "name": "amount",
          "type": "uint256"
        }
      ],
      "name": "approveToken",
      "outputs": [],
      "stateMutability": "nonpayable",
      "type": "function"
    },
    {
      "inputs": [
        {
          "internalType": "address",
          "name": "account",
          "type": "address"
        }
      ],
      "name": "balanceOf",
      "outputs": [
        {
          "internalType": "uint256",
          "name": "",
          "type": "uint256"
        }
      ],
      "stateMutability": "view",
      "type": "function"
    },
    {
      "inputs": [
        {
          "internalType": "address",
          "name": "account",
          "type": "address"
        },
        {
          "internalType": "uint256",
          "name": "amount",
          "type": "uint256"
        }
      ],
      "name": "burn",
      "outputs": [
        {
          "internalType": "uint256",
          "name": "",
          "type": "uint256"
        }
      ],
      "stateMutability": "nonpayable",
      "type": "function"
    },
    {
      "inputs": [],
      "name": "chainId",
      "outputs": [
        {
          "internalType": "uint256",
          "name": "id",
          "type": "uint256"
        }
      ],
      "stateMutability": "pure",
      "type": "function"
    },
    {
      "inputs": [],
      "name": "controller",
      "outputs": [
        {
          "internalType": "address",
          "name": "",
          "type": "address"
        }
      ],
      "stateMutability": "view",
      "type": "function"
    },
    {
      "inputs": [],
      "name": "debt",
      "outputs": [
        {
          "internalType": "address[]",
          "name": "",
          "type": "address[]"
        }
      ],
      "stateMutability": "view",
      "type": "function"
    },
    {
      "inputs": [],
      "name": "decimals",
      "outputs": [
        {
          "internalType": "uint8",
          "name": "",
          "type": "uint8"
        }
      ],
      "stateMutability": "view",
      "type": "function"
    },
    {
      "inputs": [
        {
          "internalType": "address",
          "name": "spender",
          "type": "address"
        },
        {
          "internalType": "uint256",
          "name": "subtractedValue",
          "type": "uint256"
        }
      ],
      "name": "decreaseAllowance",
      "outputs": [
        {
          "internalType": "bool",
          "name": "",
          "type": "bool"
        }
      ],
      "stateMutability": "nonpayable",
      "type": "function"
    },
    {
      "inputs": [
        {
          "internalType": "address",
          "name": "adapter",
          "type": "address"
        },
        {
          "internalType": "address",
          "name": "token",
          "type": "address"
        }
      ],
      "name": "delegateClaimRewards",
      "outputs": [],
      "stateMutability": "nonpayable",
      "type": "function"
    },
    {
      "inputs": [
        {
          "internalType": "address",
          "name": "adapter",
          "type": "address"
        },
        {
          "internalType": "uint256",
          "name": "amount",
          "type": "uint256"
        },
        {
          "internalType": "address",
          "name": "tokenIn",
          "type": "address"
        },
        {
          "internalType": "address",
          "name": "tokenOut",
          "type": "address"
        }
      ],
      "name": "delegateSwap",
      "outputs": [],
      "stateMutability": "nonpayable",
      "type": "function"
    },
    {
      "inputs": [],
      "name": "factory",
      "outputs": [
        {
          "internalType": "address",
          "name": "",
          "type": "address"
        }
      ],
      "stateMutability": "view",
      "type": "function"
    },
    {
      "inputs": [],
      "name": "getLastTokenValue",
      "outputs": [
        {
          "internalType": "uint256",
          "name": "",
          "type": "uint256"
        }
      ],
      "stateMutability": "view",
      "type": "function"
    },
    {
      "inputs": [
        {
          "internalType": "address",
          "name": "account",
          "type": "address"
        }
      ],
      "name": "getPaidTokenValue",
      "outputs": [
        {
          "internalType": "uint256",
          "name": "",
          "type": "uint256"
        }
      ],
      "stateMutability": "view",
      "type": "function"
    },
    {
      "inputs": [
        {
          "internalType": "address",
          "name": "item",
          "type": "address"
        }
      ],
      "name": "getPercentage",
      "outputs": [
        {
          "internalType": "int256",
          "name": "",
          "type": "int256"
        }
      ],
      "stateMutability": "view",
      "type": "function"
    },
    {
      "inputs": [
        {
          "internalType": "address",
          "name": "account",
          "type": "address"
        }
      ],
      "name": "getPerformanceFeeOwed",
      "outputs": [
        {
          "internalType": "uint256",
          "name": "",
          "type": "uint256"
        }
      ],
      "stateMutability": "view",
      "type": "function"
    },
    {
      "inputs": [
        {
          "internalType": "address",
          "name": "item",
          "type": "address"
        }
      ],
      "name": "getTradeData",
      "outputs": [
        {
          "components": [
            {
              "internalType": "address[]",
              "name": "adapters",
              "type": "address[]"
            },
            {
              "internalType": "address[]",
              "name": "path",
              "type": "address[]"
            },
            {
              "internalType": "bytes",
              "name": "cache",
              "type": "bytes"
            }
          ],
          "internalType": "struct StrategyTypes.TradeData",
          "name": "",
          "type": "tuple"
        }
      ],
      "stateMutability": "view",
      "type": "function"
    },
    {
      "inputs": [
        {
          "internalType": "address",
          "name": "spender",
          "type": "address"
        },
        {
          "internalType": "uint256",
          "name": "addedValue",
          "type": "uint256"
        }
      ],
      "name": "increaseAllowance",
      "outputs": [
        {
          "internalType": "bool",
          "name": "",
          "type": "bool"
        }
      ],
      "stateMutability": "nonpayable",
      "type": "function"
    },
    {
      "inputs": [
        {
          "internalType": "string",
          "name": "name_",
          "type": "string"
        },
        {
          "internalType": "string",
          "name": "symbol_",
          "type": "string"
        },
        {
          "internalType": "string",
          "name": "version_",
          "type": "string"
        },
        {
          "internalType": "address",
          "name": "manager_",
          "type": "address"
        },
        {
          "components": [
            {
              "internalType": "address",
              "name": "item",
              "type": "address"
            },
            {
              "internalType": "int256",
              "name": "percentage",
              "type": "int256"
            },
            {
              "components": [
                {
                  "internalType": "address[]",
                  "name": "adapters",
                  "type": "address[]"
                },
                {
                  "internalType": "address[]",
                  "name": "path",
                  "type": "address[]"
                },
                {
                  "internalType": "bytes",
                  "name": "cache",
                  "type": "bytes"
                }
              ],
              "internalType": "struct StrategyTypes.TradeData",
              "name": "data",
              "type": "tuple"
            }
          ],
          "internalType": "struct StrategyTypes.StrategyItem[]",
          "name": "strategyItems_",
          "type": "tuple[]"
        }
      ],
      "name": "initialize",
      "outputs": [
        {
          "internalType": "bool",
          "name": "",
          "type": "bool"
        }
      ],
      "stateMutability": "nonpayable",
      "type": "function"
    },
    {
      "inputs": [],
      "name": "issueStreamingFee",
      "outputs": [],
      "stateMutability": "nonpayable",
      "type": "function"
    },
    {
      "inputs": [],
      "name": "items",
      "outputs": [
        {
          "internalType": "address[]",
          "name": "",
          "type": "address[]"
        }
      ],
      "stateMutability": "view",
      "type": "function"
    },
    {
      "inputs": [],
      "name": "lock",
      "outputs": [],
      "stateMutability": "nonpayable",
      "type": "function"
    },
    {
      "inputs": [],
      "name": "locked",
      "outputs": [
        {
          "internalType": "bool",
          "name": "",
          "type": "bool"
        }
      ],
      "stateMutability": "view",
      "type": "function"
    },
    {
      "inputs": [],
      "name": "manager",
      "outputs": [
        {
          "internalType": "address",
          "name": "",
          "type": "address"
        }
      ],
      "stateMutability": "view",
      "type": "function"
    },
    {
      "inputs": [
        {
          "internalType": "address",
          "name": "account",
          "type": "address"
        },
        {
          "internalType": "uint256",
          "name": "amount",
          "type": "uint256"
        }
      ],
      "name": "mint",
      "outputs": [],
      "stateMutability": "nonpayable",
      "type": "function"
    },
    {
      "inputs": [],
      "name": "name",
      "outputs": [
        {
          "internalType": "string",
          "name": "",
          "type": "string"
        }
      ],
      "stateMutability": "view",
      "type": "function"
    },
    {
      "inputs": [
        {
          "internalType": "address",
          "name": "owner",
          "type": "address"
        }
      ],
      "name": "nonces",
      "outputs": [
        {
          "internalType": "uint256",
          "name": "",
          "type": "uint256"
        }
      ],
      "stateMutability": "view",
      "type": "function"
    },
    {
      "inputs": [],
      "name": "oracle",
      "outputs": [
        {
          "internalType": "contract IOracle",
          "name": "",
          "type": "address"
        }
      ],
      "stateMutability": "view",
      "type": "function"
    },
    {
      "inputs": [],
      "name": "performanceFee",
      "outputs": [
        {
          "internalType": "uint256",
          "name": "",
          "type": "uint256"
        }
      ],
      "stateMutability": "view",
      "type": "function"
    },
    {
      "inputs": [
        {
          "internalType": "address",
          "name": "owner",
          "type": "address"
        },
        {
          "internalType": "address",
          "name": "spender",
          "type": "address"
        },
        {
          "internalType": "uint256",
          "name": "value",
          "type": "uint256"
        },
        {
          "internalType": "uint256",
          "name": "deadline",
          "type": "uint256"
        },
        {
          "internalType": "uint8",
          "name": "v",
          "type": "uint8"
        },
        {
          "internalType": "bytes32",
          "name": "r",
          "type": "bytes32"
        },
        {
          "internalType": "bytes32",
          "name": "s",
          "type": "bytes32"
        }
      ],
      "name": "permit",
      "outputs": [],
      "stateMutability": "nonpayable",
      "type": "function"
    },
    {
      "inputs": [],
      "name": "rebalanceThreshold",
      "outputs": [
        {
          "internalType": "uint256",
          "name": "",
          "type": "uint256"
        }
      ],
      "stateMutability": "view",
      "type": "function"
    },
    {
      "inputs": [
        {
          "internalType": "address",
          "name": "token",
          "type": "address"
        }
      ],
      "name": "setCollateral",
      "outputs": [],
      "stateMutability": "nonpayable",
      "type": "function"
    },
    {
      "inputs": [
        {
          "components": [
            {
              "internalType": "address",
              "name": "item",
              "type": "address"
            },
            {
              "internalType": "int256",
              "name": "percentage",
              "type": "int256"
            },
            {
              "components": [
                {
                  "internalType": "address[]",
                  "name": "adapters",
                  "type": "address[]"
                },
                {
                  "internalType": "address[]",
                  "name": "path",
                  "type": "address[]"
                },
                {
                  "internalType": "bytes",
                  "name": "cache",
                  "type": "bytes"
                }
              ],
              "internalType": "struct StrategyTypes.TradeData",
              "name": "data",
              "type": "tuple"
            }
          ],
          "internalType": "struct StrategyTypes.StrategyItem[]",
          "name": "newItems",
          "type": "tuple[]"
        }
      ],
      "name": "setStructure",
      "outputs": [],
      "stateMutability": "nonpayable",
      "type": "function"
    },
    {
      "inputs": [],
      "name": "settleSynths",
      "outputs": [],
      "stateMutability": "nonpayable",
      "type": "function"
    },
    {
      "inputs": [],
      "name": "supportsSynths",
      "outputs": [
        {
          "internalType": "bool",
          "name": "",
          "type": "bool"
        }
      ],
      "stateMutability": "view",
      "type": "function"
    },
    {
      "inputs": [],
      "name": "symbol",
      "outputs": [
        {
          "internalType": "string",
          "name": "",
          "type": "string"
        }
      ],
      "stateMutability": "view",
      "type": "function"
    },
    {
      "inputs": [],
      "name": "synths",
      "outputs": [
        {
          "internalType": "address[]",
          "name": "",
          "type": "address[]"
        }
      ],
      "stateMutability": "view",
      "type": "function"
    },
    {
      "inputs": [],
      "name": "totalSupply",
      "outputs": [
        {
          "internalType": "uint256",
          "name": "",
          "type": "uint256"
        }
      ],
      "stateMutability": "view",
      "type": "function"
    },
    {
      "inputs": [
        {
          "internalType": "address",
          "name": "recipient",
          "type": "address"
        },
        {
          "internalType": "uint256",
          "name": "amount",
          "type": "uint256"
        }
      ],
      "name": "transfer",
      "outputs": [
        {
          "internalType": "bool",
          "name": "",
          "type": "bool"
        }
      ],
      "stateMutability": "nonpayable",
      "type": "function"
    },
    {
      "inputs": [
        {
          "internalType": "address",
          "name": "sender",
          "type": "address"
        },
        {
          "internalType": "address",
          "name": "recipient",
          "type": "address"
        },
        {
          "internalType": "uint256",
          "name": "amount",
          "type": "uint256"
        }
      ],
      "name": "transferFrom",
      "outputs": [
        {
          "internalType": "bool",
          "name": "",
          "type": "bool"
        }
      ],
      "stateMutability": "nonpayable",
      "type": "function"
    },
    {
      "inputs": [],
      "name": "unlock",
      "outputs": [],
      "stateMutability": "nonpayable",
      "type": "function"
    },
    {
      "inputs": [],
      "name": "updateAddresses",
      "outputs": [],
      "stateMutability": "nonpayable",
      "type": "function"
    },
    {
      "inputs": [
        {
          "internalType": "address",
          "name": "newManager",
          "type": "address"
        }
      ],
      "name": "updateManager",
      "outputs": [],
      "stateMutability": "nonpayable",
      "type": "function"
    },
    {
      "inputs": [
        {
          "internalType": "uint16",
          "name": "fee",
          "type": "uint16"
        }
      ],
      "name": "updatePerformanceFee",
      "outputs": [],
      "stateMutability": "nonpayable",
      "type": "function"
    },
    {
      "inputs": [
        {
          "internalType": "uint16",
          "name": "threshold",
          "type": "uint16"
        }
      ],
      "name": "updateRebalanceThreshold",
      "outputs": [],
      "stateMutability": "nonpayable",
      "type": "function"
    },
    {
      "inputs": [],
      "name": "updateTokenValue",
      "outputs": [],
      "stateMutability": "nonpayable",
      "type": "function"
    },
    {
      "inputs": [
        {
          "internalType": "uint256",
          "name": "total",
          "type": "uint256"
        },
        {
          "internalType": "uint256",
          "name": "supply",
          "type": "uint256"
        }
      ],
      "name": "updateTokenValue",
      "outputs": [],
      "stateMutability": "nonpayable",
      "type": "function"
    },
    {
      "inputs": [
        {
          "internalType": "address",
          "name": "item",
          "type": "address"
        },
        {
          "components": [
            {
              "internalType": "address[]",
              "name": "adapters",
              "type": "address[]"
            },
            {
              "internalType": "address[]",
              "name": "path",
              "type": "address[]"
            },
            {
              "internalType": "bytes",
              "name": "cache",
              "type": "bytes"
            }
          ],
          "internalType": "struct StrategyTypes.TradeData",
          "name": "data",
          "type": "tuple"
        }
      ],
      "name": "updateTradeData",
      "outputs": [],
      "stateMutability": "nonpayable",
      "type": "function"
    },
    {
      "inputs": [
        {
          "internalType": "string",
          "name": "newVersion",
          "type": "string"
        }
      ],
      "name": "updateVersion",
      "outputs": [],
      "stateMutability": "nonpayable",
      "type": "function"
    },
    {
      "inputs": [],
      "name": "version",
      "outputs": [
        {
          "internalType": "string",
          "name": "",
          "type": "string"
        }
      ],
      "stateMutability": "view",
      "type": "function"
    },
    {
      "inputs": [],
      "name": "whitelist",
      "outputs": [
        {
          "internalType": "contract IWhitelist",
          "name": "",
          "type": "address"
        }
      ],
      "stateMutability": "view",
      "type": "function"
    },
    {
      "inputs": [
        {
          "internalType": "uint256",
          "name": "amount",
          "type": "uint256"
        }
      ],
      "name": "withdrawAll",
      "outputs": [],
      "stateMutability": "nonpayable",
      "type": "function"
    },
    {
      "inputs": [
        {
          "internalType": "address[]",
          "name": "holders",
          "type": "address[]"
        }
      ],
      "name": "withdrawPerformanceFee",
      "outputs": [],
      "stateMutability": "nonpayable",
      "type": "function"
    },
    {
      "inputs": [],
      "name": "withdrawStreamingFee",
      "outputs": [],
      "stateMutability": "nonpayable",
      "type": "function"
    }
  ],
  "bytecode": "0x6101006040523480156200001257600080fd5b506040516200517a3803806200517a833981016040819052620000359162000120565b601554610100900460ff168062000051575062000051620000fc565b8062000060575060155460ff16155b620000885760405162461bcd60e51b81526004016200007f9062000180565b60405180910390fd5b601554610100900460ff16158015620000b4576015805460ff1961ff0019909116610100171660011790555b6001600160601b0319606086811b821660c05285811b821660e05284811b821660805283901b1660a0528015620000f1576015805461ff00191690555b5050505050620001ce565b303b1590565b80516001600160a01b03811681146200011a57600080fd5b92915050565b6000806000806080858703121562000136578384fd5b62000142868662000102565b935062000153866020870162000102565b925062000164866040870162000102565b915062000175866060870162000102565b905092959194509250565b6020808252602e908201527f496e697469616c697a61626c653a20636f6e747261637420697320616c72656160408201526d191e481a5b9a5d1a585b1a5e995960921b606082015260800190565b60805160601c60a05160601c60c05160601c60e05160601c614f0b6200026f6000398061079a5280610b5c528061118352806114e65280611c395280611d015280611d72528061215f52806121bf5280612210528061228652806122e252806127fd52806128b052806128d452508061121152806115455280611f9452806123d1525080611326525080610c4d5280610cd85280611de95250614f0b6000f3fe608060405234801561001057600080fd5b50600436106102da5760003560e01c80638db16ff3116101845780638db16ff3146104d7578063939a2bfc146104ea57806393e59dc1146104f2578063958e2d31146104fa57806395d89b411461050d5780639a8a0592146105155780639b45c5c41461051d5780639dc29fac146105255780639f14705014610538578063a457c2d714610540578063a5d33ed514610553578063a69df4b51461055b578063a9059cbb14610563578063aa7f9bae14610576578063bfba814114610589578063c06fad061461059c578063c45a0155146105a4578063cacefe56146105ac578063cf309012146105bf578063d505accf146105c7578063d7450788146105da578063d81076a3146105ed578063d95a24b314610600578063da3e339714610613578063dbbc5aca14610626578063dd62ed3e14610639578063df3568d91461064c578063e26db6fc1461065f578063f729023f14610667578063f77c47911461067a578063f83d08ba14610682576102da565b806306fdde03146102df578063095ea7b3146102fd5780630dca59c11461031d5780631434ffac146103325780631649741c1461034757806318160ddd1461034f57806323b872dd1461036457806330adf81f14610377578063313ce5671461037f578063336685fc146103945780633644e515146103b457806339509351146103bc5780633dfe9f6a146103cf5780633ebbc9c4146103d757806340c10f19146103ea578063481c6a75146103fd57806349408949146104125780634a2f38a51461041a57806354fd4d501461042257806358aba00f1461042a5780636ee26c4e1461043d578063709ac1c31461045057806370a08231146104635780637240f9af146104765780637a1bb162146104895780637dc0d1d0146104915780637ecebe0014610499578063803c8890146104ac57806387788782146104b4578063886abef5146104bc5780638aac766b146104cf575b600080fd5b6102e761068a565b6040516102f49190614908565b60405180910390f35b61031061030b3660046142e1565b610720565b6040516102f49190614876565b610325610737565b6040516102f49190614863565b61034561034036600461430c565b610798565b005b6102e76108a0565b6103576108c7565b6040516102f49190614881565b6103106103723660046141df565b6108cd565b610357610950565b610387610974565b6040516102f49190614e01565b6103a76103a236600461416f565b610979565b6040516102f49190614d68565b610357610af9565b6103106103ca3660046142e1565b610aff565b610357610b35565b6103576103e536600461416f565b610b3f565b6103456103f83660046142e1565b610b5a565b610405610c0f565b6040516102f49190614769565b610310610c1e565b610345610c26565b6102e7610f9c565b61034561043836600461416f565b610ffd565b61034561044b3660046141a7565b6110bf565b61034561045e3660046144e8565b611181565b61035761047136600461416f565b6111eb565b6103456104843660046143fa565b611206565b610357611275565b610405611280565b6103576104a736600461416f565b61128f565b6103256112aa565b61035761130a565b6103456104ca36600461416f565b61131b565b610345611413565b6103456104e536600461435e565b611438565b6103456114e4565b610405611541565b61034561050836600461450a565b6115d9565b6102e7611bba565b610357611c1b565b610357611c1f565b6103576105333660046142e1565b611c35565b610345611c89565b61031061054e3660046142e1565b611ca1565b610357611cf4565b610345611cff565b6103106105713660046142e1565b611d47565b61035761058436600461416f565b611d54565b6103456105973660046142e1565b611d70565b610325611f32565b610405611f92565b6103576105ba36600461416f565b611fb6565b610310611fd1565b6103456105d536600461421f565b611fdc565b6103456105e83660046144e8565b61215d565b6103456105fb366004614390565b6121bd565b61034561060e3660046141df565b61220e565b6103456106213660046141df565b612284565b6103456106343660046145bd565b6122e0565b6103576106473660046141a7565b612336565b61034561065a366004614294565b612361565b6103456123cd565b61031061067536600461442c565b6126cd565b6104056128ae565b6103456128d2565b60058054604080516020601f60026000196101006001881615020190951694909404938401819004810282018101909252828152606093909290918301828280156107165780601f106106eb57610100808354040283529160200191610716565b820191906000526020600020905b8154815290600101906020018083116106f957829003601f168201915b5050505050905090565b600061072d338484612922565b5060015b92915050565b6060601280548060200260200160405190810160405280929190818152602001828054801561071657602002820191906000526020600020905b81546001600160a01b03168152600190910190602001808311610771575050505050905090565b7f00000000000000000000000000000000000000000000000000000000000000006001600160a01b031633146107e95760405162461bcd60e51b81526004016107e0906149c6565b60405180910390fd5b6107f28461299c565b60607f230f11c7cc54d258ee9bfebf8292225b43b26633217971638b4a8364be584e178460018585303060405160240161083196959493929190614dc8565b60408051601f198184030181529190526020810180516001600160e01b03166001600160e01b031990931692909217909152905060005a905060008060008451602086018a86f49050806108975760405162461bcd60e51b81526004016107e090614973565b50505050505050565b6040518060400160405280601d8152602001600080516020614e9683398151915281525081565b60045490565b60006108da848484612a3b565b604080518082018252601881527745524332303a20616c6c6f77616e636520746f6f206c6f7760401b6020808301919091526001600160a01b03871660009081526001825283812033808352925292909220546109459287929091610940918790612b23565b612922565b5060015b9392505050565b7f6e71edae12b1b97f4d1f60370fef10105fa2faae0126114a169c64845d6126c981565b601281565b610981613df3565b6001600160a01b038216600090815260146020908152604091829020825181546080938102820184019094526060810184815290939192849284918401828280156109f557602002820191906000526020600020905b81546001600160a01b031681526001909101906020018083116109d7575b5050505050815260200160018201805480602002602001604051908101604052809291908181526020018280548015610a5757602002820191906000526020600020905b81546001600160a01b03168152600190910190602001808311610a39575b5050509183525050600282810180546040805160206001841615610100026000190190931694909404601f81018390048302850183019091528084529381019390830182828015610ae95780601f10610abe57610100808354040283529160200191610ae9565b820191906000526020600020905b815481529060010190602001808311610acc57829003601f168201915b5050505050815250509050919050565b60005481565b3360008181526001602090815260408083206001600160a01b0387168452909152812054909161072d9185906109409086612b4f565b60095461ffff1690565b6001600160a01b031660009081526013602052604090205490565b7f00000000000000000000000000000000000000000000000000000000000000006001600160a01b03163314610ba25760405162461bcd60e51b81526004016107e0906149c6565b600c546009546008546001600160a01b0390921691600091610be49186918691600160701b9091046001600160801b031690600160e81b900461ffff16612b74565b90508015610bf657610bf68282612d12565b610c008484612d4c565b610c0982612dd1565b50505050565b600b546001600160a01b031690565b601154151590565b610c2e610c1e565b15610f9a576040516321f8a72160e01b81526000906001600160a01b037f000000000000000000000000000000000000000000000000000000000000000016906321f8a72190610c8090600401614b99565b602060405180830381600087803b158015610c9a57600080fd5b505af1158015610cae573d6000803e3d6000fd5b505050506040513d601f19601f82011682018060405250810190610cd2919061418b565b905060007f00000000000000000000000000000000000000000000000000000000000000006001600160a01b03166321f8a7216040518163ffffffff1660e01b8152600401610d2090614bfa565b602060405180830381600087803b158015610d3a57600080fd5b505af1158015610d4e573d6000803e3d6000fd5b505050506040513d601f19601f82011682018060405250810190610d72919061418b565b6040516306c5a00b60e21b81529091506001600160a01b03831690631b16802c90610da1903090600401614842565b606060405180830381600087803b158015610dbb57600080fd5b505af1158015610dcf573d6000803e3d6000fd5b505050506040513d601f19601f82011682018060405250810190610df391906145de565b50505060005b601154811015610f9657826001600160a01b0316631b16802c30846001600160a01b03166316b2213f60118681548110610e2f57fe5b6000918252602091829020015460408051636a5c1cc960e11b815290516001600160a01b039092169263d4b8399292600480840193829003018186803b158015610e7857600080fd5b505afa158015610e8c573d6000803e3d6000fd5b505050506040513d601f19601f82011682018060405250810190610eb0919061418b565b6040518263ffffffff1660e01b8152600401610ecc9190614769565b60206040518083038186803b158015610ee457600080fd5b505afa158015610ef8573d6000803e3d6000fd5b505050506040513d601f19601f82011682018060405250810190610f1c91906143e2565b6040518363ffffffff1660e01b8152600401610f39929190614829565b606060405180830381600087803b158015610f5357600080fd5b505af1158015610f67573d6000803e3d6000fd5b505050506040513d601f19601f82011682018060405250810190610f8b91906145de565b505050600101610df9565b5050505b565b60078054604080516020601f60026000196101006001881615020190951694909404938401819004810282018101909252828152606093909290918301828280156107165780601f106106eb57610100808354040283529160200191610716565b611005612e3b565b600b546001600160a01b03828116911614156110335760405162461bcd60e51b81526004016107e090614a90565b600954600b80546001600160a01b039081166000908152600a6020526040808220600160701b9095046001600160801b031690945590841680825290839020600019905581546001600160a01b031916179055517f5c18ab5c697b63d102fc7e14c77bfaef0f1013206eca139920fd389277814e09906110b4908390614769565b60405180910390a150565b6110c7612e65565b6110cf612e3b565b6110d88261299c565b60607f1e83409a4600994e83773c811443f8c040c23a89ea11e24724996a8b477016a18260405160240161110c9190614769565b60408051601f198184030181529190526020810180516001600160e01b03166001600160e01b031990931692909217909152905060005a905060008060008451602086018886f49050806111725760405162461bcd60e51b81526004016107e090614ce0565b61117a612e97565b5050505050565b7f00000000000000000000000000000000000000000000000000000000000000006001600160a01b031633146111c95760405162461bcd60e51b81526004016107e0906149c6565b6008805461ffff909216600160e81b0261ffff60e81b19909216919091179055565b6001600160a01b031660009081526002602052604090205490565b336001600160a01b037f0000000000000000000000000000000000000000000000000000000000000000161461124e5760405162461bcd60e51b81526004016107e090614940565b8051611261906007906020840190613e14565b5061126a612ea3565b6112726123cd565b50565b66038e67b515a02981565b600d546001600160a01b031690565b6001600160a01b031660009081526003602052604090205490565b60606011805480602002602001604051908101604052809291908181526020018280548015610716576020028201919060005260206000209081546001600160a01b03168152600190910190602001808311610771575050505050905090565b600854600160e81b900461ffff1690565b6113243361299c565b7f00000000000000000000000000000000000000000000000000000000000000006001600160a01b0316630261bf8b6040518163ffffffff1660e01b8152600401602060405180830381600087803b15801561137f57600080fd5b505af1158015611393573d6000803e3d6000fd5b505050506040513d601f19601f820116820180604052508101906113b7919061418b565b6001600160a01b0316635a3b74b98260016040518363ffffffff1660e01b81526004016113e592919061480e565b600060405180830381600087803b1580156113ff57600080fd5b505af115801561117a573d6000803e3d6000fd5b61141b612e65565b600c54611430906001600160a01b0316612f2c565b610f9a612e97565b611440612e65565b611448612e3b565b611450612ff3565b600854600160e81b900461ffff166000805b835181101561149c5761149261148b85838151811061147d57fe5b60200260200101518561308b565b8390612b4f565b9150600101611462565b50600081116114bd5760405162461bcd60e51b81526004016107e090614c71565b600c546001600160a01b03166114d38183612d12565b6114dc81612dd1565b610c09612e97565b7f00000000000000000000000000000000000000000000000000000000000000006001600160a01b0316331461152c5760405162461bcd60e51b81526004016107e0906149c6565b600c54610f9a906001600160a01b0316612f2c565b60007f00000000000000000000000000000000000000000000000000000000000000006001600160a01b03166393e59dc16040518163ffffffff1660e01b815260040160206040518083038186803b15801561159c57600080fd5b505afa1580156115b0573d6000803e3d6000fd5b505050506040513d601f19601f820116820180604052508101906115d4919061418b565b905090565b6115e1612e65565b601254156116015760405162461bcd60e51b81526004016107e090614998565b600081116116215760405162461bcd60e51b81526004016107e090614bd8565b611629610c26565b600454600090611639338461310f565b92506116578161165185670de0b6b3a7640000613146565b90613180565b6010546011549193509150801515600081611675578360010161167c565b8284016002015b90506060816001600160401b038111801561169657600080fd5b506040519080825280602002602001820160405280156116c0578160200160208202803683370190505b5090506060826001600160401b03811180156116db57600080fd5b50604051908082528060200260200182016040528015611705578160200160208202803683370190505b50905060005b8681101561180c5760006010828154811061172257fe5b60009182526020822001546040516370a0823160e01b81526001600160a01b03909116925082906370a082319061175d903090600401614769565b60206040518083038186803b15801561177557600080fd5b505afa158015611789573d6000803e3d6000fd5b505050506040513d601f19601f820116820180604052508101906117ad91906143e2565b90506117c5670de0b6b3a7640000611651838d613146565b8484815181106117d157fe5b602002602001018181525050818584815181106117ea57fe5b6001600160a01b0390921660209283029190910190910152505060010161170b565b508315611a0757855b6002840381101561191b57600060118883038154811061183157fe5b60009182526020822001546040516370a0823160e01b81526001600160a01b03909116925082906370a082319061186c903090600401614769565b60206040518083038186803b15801561188457600080fd5b505afa158015611898573d6000803e3d6000fd5b505050506040513d601f19601f820116820180604052508101906118bc91906143e2565b90506118d4670de0b6b3a7640000611651838d613146565b8484815181106118e057fe5b602002602001018181525050818584815181106118f957fe5b6001600160a01b03909216602092830291909101909101525050600101611815565b50600f546040516370a0823160e01b81526001600160a01b039091169060009082906370a0823190611951903090600401614769565b60206040518083038186803b15801561196957600080fd5b505afa15801561197d573d6000803e3d6000fd5b505050506040513d601f19601f820116820180604052508101906119a191906143e2565b90506119b9670de0b6b3a7640000611651838c613146565b8360028703815181106119c857fe5b602002602001018181525050818460028703815181106119e457fe5b60200260200101906001600160a01b031690816001600160a01b03168152505050505b600e546040516370a0823160e01b81526001600160a01b039091169060009082906370a0823190611a3c903090600401614769565b60206040518083038186803b158015611a5457600080fd5b505afa158015611a68573d6000803e3d6000fd5b505050506040513d601f19601f82011682018060405250810190611a8c91906143e2565b9050611aa4670de0b6b3a7640000611651838c613146565b836001870381518110611ab357fe5b60200260200101818152505081846001870381518110611acf57fe5b60200260200101906001600160a01b031690816001600160a01b03168152505060005b85811015611b62576000848281518110611b0857fe5b60200260200101511115611b5a57611b5a33858381518110611b2657fe5b6020026020010151878481518110611b3a57fe5b60200260200101516001600160a01b03166131bf9092919063ffffffff16565b600101611af2565b50336001600160a01b03167faef68853d1f7f9e4e5fe02896078a87a319c7b257208dac49346c8f03b36c6858b85604051611b9e929190614d7b565b60405180910390a2611bae612e97565b50505050505050505050565b60068054604080516020601f60026000196101006001881615020190951694909404938401819004810282018101909252828152606093909290918301828280156107165780601f106106eb57610100808354040283529160200191610716565b4690565b600954600160701b90046001600160801b031690565b60007f00000000000000000000000000000000000000000000000000000000000000006001600160a01b03163314611c7f5760405162461bcd60e51b81526004016107e0906149c6565b610949838361310f565b611c91612e65565b611c99612e3b565b611430612ff3565b3360009081526001602090815260408083206001600160a01b038616845290915281205482811015611ce55760405162461bcd60e51b81526004016107e090614d06565b61094533856109408487613215565b66071afd498d000081565b7f00000000000000000000000000000000000000000000000000000000000000006001600160a01b031633146114305760405162461bcd60e51b81526004016107e0906149c6565b600061072d338484612a3b565b600854600090610731908390600160e81b900461ffff16613257565b7f00000000000000000000000000000000000000000000000000000000000000006001600160a01b03163314611db85760405162461bcd60e51b81526004016107e0906149c6565b600f54611dcf906001600160a01b031683836132dd565b6040516321f8a72160e01b81526000906001600160a01b037f000000000000000000000000000000000000000000000000000000000000000016906321f8a72190611e1c90600401614d4b565b602060405180830381600087803b158015611e3657600080fd5b505af1158015611e4a573d6000803e3d6000fd5b505050506040513d601f19601f82011682018060405250810190611e6e919061418b565b905081611ed857604051635c8ab77d60e11b81526001600160a01b0382169063b9156efa90611ea1908690600401614769565b600060405180830381600087803b158015611ebb57600080fd5b505af1158015611ecf573d6000803e3d6000fd5b50505050610f96565b60405163447fbc6360e01b81526001600160a01b0382169063447fbc6390611f04908690600401614769565b600060405180830381600087803b158015611f1e57600080fd5b505af1158015610897573d6000803e3d6000fd5b60606010805480602002602001604051908101604052809291908181526020018280548015610716576020028201919060005260206000209081546001600160a01b03168152600190910190602001808311610771575050505050905090565b7f000000000000000000000000000000000000000000000000000000000000000081565b6001600160a01b03166000908152600a602052604090205490565b60085460ff16151590565b83421115611ffc5760405162461bcd60e51b81526004016107e090614bae565b600080546001600160a01b0389168252600360209081526040808420549051612050927f6e71edae12b1b97f4d1f60370fef10105fa2faae0126114a169c64845d6126c9928d928d928d92918d910161488a565b6040516020818303038152906040528051906020012060405160200161207792919061474e565b6040516020818303038152906040528051906020012090506000600182868686604051600081526020016040526040516120b494939291906148ea565b6020604051602081039080840390855afa1580156120d6573d6000803e3d6000fd5b5050604051601f1901519150506001600160a01b0381161580159061210c5750886001600160a01b0316816001600160a01b0316145b6121285760405162461bcd60e51b81526004016107e090614a65565b6001600160a01b038916600090815260036020526040902080546001019055612152898989612922565b505050505050505050565b7f00000000000000000000000000000000000000000000000000000000000000006001600160a01b031633146121a55760405162461bcd60e51b81526004016107e0906149c6565b6009805461ffff191661ffff92909216919091179055565b7f00000000000000000000000000000000000000000000000000000000000000006001600160a01b031633146122055760405162461bcd60e51b81526004016107e0906149c6565b611272816132fc565b7f00000000000000000000000000000000000000000000000000000000000000006001600160a01b031633146122565760405162461bcd60e51b81526004016107e0906149c6565b604051630c04a8a160e41b81526001600160a01b0384169063c04a8a1090611f049085908590600401614829565b7f00000000000000000000000000000000000000000000000000000000000000006001600160a01b031633146122cc5760405162461bcd60e51b81526004016107e0906149c6565b610f966001600160a01b03841683836132dd565b7f00000000000000000000000000000000000000000000000000000000000000006001600160a01b031633146123285760405162461bcd60e51b81526004016107e0906149c6565b6123328282613880565b5050565b6001600160a01b03918216600090815260016020908152604080832093909416825291909152205490565b612369612e3b565b6001600160a01b0382166000908152601460209081526040909120825180518493612398928492910190613e92565b5060208281015180516123b19260018501920190613e92565b506040820151805161117a916002840191602090910190613e14565b60007f000000000000000000000000000000000000000000000000000000000000000090506000816001600160a01b03166316f0115b6040518163ffffffff1660e01b815260040160206040518083038186803b15801561242d57600080fd5b505afa158015612441573d6000803e3d6000fd5b505050506040513d601f19601f82011682018060405250810190612465919061418b565b600c549091506001600160a01b0390811690821681146124f6576001600160a01b038116156124c5576009546001600160a01b0382166000908152600a60205260409020600160701b9091046001600160801b031690556124c582612dd1565b6001600160a01b0382166000818152600a602052604090206000199055600c80546001600160a01b03191690911790555b6000836001600160a01b0316637dc0d1d06040518163ffffffff1660e01b815260040160206040518083038186803b15801561253157600080fd5b505afa158015612545573d6000803e3d6000fd5b505050506040513d601f19601f82011682018060405250810190612569919061418b565b600d549091506001600160a01b03808316911614610c0957600d80546001600160a01b0319166001600160a01b03831690811790915560408051633fc8cef360e01b81529051839291633fc8cef3916004808301926020929190829003018186803b1580156125d757600080fd5b505afa1580156125eb573d6000803e3d6000fd5b505050506040513d601f19601f8201168201806040525081019061260f919061418b565b600e60006101000a8154816001600160a01b0302191690836001600160a01b03160217905550806001600160a01b031663c92577756040518163ffffffff1660e01b815260040160206040518083038186803b15801561266e57600080fd5b505afa158015612682573d6000803e3d6000fd5b505050506040513d601f19601f820116820180604052508101906126a6919061418b565b600f80546001600160a01b0319166001600160a01b03929092169190911790555050505050565b601554600090610100900460ff16806126e957506126e96138c6565b806126f7575060155460ff16155b6127135760405162461bcd60e51b81526004016107e090614ae3565b601554610100900460ff1615801561273e576015805460ff1961ff0019909116610100171660011790555b600b80546001600160a01b0319166001600160a01b038616179055865161276c9060059060208a0190613e14565b508551612780906006906020890190613e14565b508451612794906007906020880190613e14565b5060098054600160701b600160f01b0319166503782dace9d960821b1762010000600160701b03191662010000426001600160601b0316021790556127d7612ea3565b6127df6123cd565b82511561288e57604051636aa8278160e11b81526001600160a01b037f0000000000000000000000000000000000000000000000000000000000000000169063d5504f0290612834903090879060040161477d565b60206040518083038186803b15801561284c57600080fd5b505afa158015612860573d6000803e3d6000fd5b505050506040513d601f19601f8201168201806040525081019061288491906143c2565b5061288e836132fc565b6001915080156128a4576015805461ff00191690555b5095945050505050565b7f000000000000000000000000000000000000000000000000000000000000000081565b7f00000000000000000000000000000000000000000000000000000000000000006001600160a01b0316331461291a5760405162461bcd60e51b81526004016107e0906149c6565b610f9a612e65565b61292b836138cc565b612934826138cc565b6001600160a01b0380841660008181526001602090815260408083209487168084529490915290819020849055517f8c5be1e5ebec7d5bd14f71427d1e84f3dd0314c0f7b2291e5b200ac8c7c3b9259061298f908590614881565b60405180910390a3505050565b6129a4611541565b6001600160a01b031663d8b964e6826040518263ffffffff1660e01b81526004016129cf9190614769565b60206040518083038186803b1580156129e757600080fd5b505afa1580156129fb573d6000803e3d6000fd5b505050506040513d601f19601f82011682018060405250810190612a1f91906143c2565b6112725760405162461bcd60e51b81526004016107e090614abd565b612a44836138cc565b612a4d826138cc565b612a588184846138f2565b604080518082018252601d8152600080516020614e968339815191526020808301919091526001600160a01b038616600090815260029091529190912054612aa1918390612b23565b6001600160a01b038085166000908152600260205260408082209390935590841681522054612ad09082612b4f565b6001600160a01b038316600090815260026020526040902055612af283613a13565b816001600160a01b0316836001600160a01b0316600080516020614eb68339815191528360405161298f9190614881565b60008184841115612b475760405162461bcd60e51b81526004016107e09190614908565b505050900390565b6000828201838110156109495760405162461bcd60e51b81526004016107e0906149ef565b6001600160a01b0384166000908152600a60205260408120548015612c9857600019811415612ba7576000915050612d0a565b6009546001600160a01b038716600090815260026020526040812054600160701b9092046001600160801b0316919082841015612bf057612bea82858589613a4a565b90508293505b868414612c2157612c038289868a613a79565b6001600160a01b038a166000908152600a6020526040902055612c45565b82841415612c45576001600160a01b0389166000908152600a602052604090208490555b8015612c8d57886001600160a01b03167f620154c7367c3805aa5a57be3421bcd8ae0de705b07bb7880c7ebdd1eff8423782604051612c849190614881565b60405180910390a25b9350612d0a92505050565b600b546001600160a01b0387811691161480612cc15750600c546001600160a01b038781169116145b15612ce8576001600160a01b0386166000908152600a602052604090206000199055612d04565b6001600160a01b0386166000908152600a602052604090208490555b60009150505b949350505050565b6000612d266103e86116518461012c613146565b9050612d328382612d4c565b600b54610f96906001600160a01b0316612d4c8484613215565b612d55826138cc565b600454612d629082612b4f565b6004556001600160a01b038216600090815260026020526040902054612d889082612b4f565b6001600160a01b038316600081815260026020526040808220939093559151909190600080516020614eb683398151915290612dc5908590614881565b60405180910390a35050565b6001600160a01b038116600090815260026020526040902054600454612e099166038e67b515a02991612e0391613215565b90613146565b6001600160c01b0316600860016101000a8154816001600160e01b0302191690836001600160e01b0316021790555050565b600b546001600160a01b03163314610f9a5760405162461bcd60e51b81526004016107e09061491b565b60085460ff1615612e885760405162461bcd60e51b81526004016107e090614b31565b6008805460ff19166001179055565b6008805460ff19169055565b7f8b73c3c69bb8fe3d512ecc4cf759cc79239f7b179b0ffacaa9a75d522b39400f6005604051612ed391906146de565b60405180910390206007604051612eea91906146de565b6040518091039020612efa611c1b565b30604051602001612f0f9594939291906148be565b60408051601f198184030181529190528051602090910120600055565b600954600090612f4c9042906201000090046001600160601b0316613215565b9050801561233257600854600090612f8890670de0b6b3a764000090611651906301e1338090829061010090046001600160e01b031687613146565b9050612f948382612d4c565b6009805462010000600160701b03191662010000426001600160601b0316021790556040517f66c77f845ffc734f7250e8a5399169a71b617eedc0063f899cf6c7db19d6b56290612fe6908390614881565b60405180910390a1505050565b6000612ffd611280565b6001600160a01b031663ff4a1902306040518263ffffffff1660e01b81526004016130289190614769565b60006040518083038186803b15801561304057600080fd5b505afa158015613054573d6000803e3d6000fd5b505050506040513d6000823e601f3d908101601f1916820160405261307c9190810190614522565b50905061127281600454613880565b6000806130988484613257565b90508015610949576009546001600160a01b0385166000818152600a602052604090819020600160701b9093046001600160801b031690925590517f620154c7367c3805aa5a57be3421bcd8ae0de705b07bb7880c7ebdd1eff8423790613100908490614881565b60405180910390a29392505050565b600c546000906001600160a01b0316613129848285613aae565b92506131358484613b48565b61313e81612dd1565b509092915050565b60008261315557506000610731565b8282028284828161316257fe5b04146109495760405162461bcd60e51b81526004016107e090614b58565b600061094983836040518060400160405280601a815260200179536166654d6174683a206469766973696f6e206279207a65726f60301b815250613bfe565b610f968363a9059cbb60e01b84846040516024016131de929190614829565b60408051601f198184030181529190526020810180516001600160e01b03166001600160e01b031990931692909217909152613c35565b600061094983836040518060400160405280601e81526020017f536166654d6174683a207375627472616374696f6e206f766572666c6f770000815250612b23565b6001600160a01b0382166000908152600a6020526040812054600954600160701b90046001600160801b031611156132d4576001600160a01b038316600090815260026020908152604080832054600a909252909120546009546132cd929190600160701b90046001600160801b031685613a4a565b9050610731565b50600092915050565b610f968363095ea7b360e01b84846040516024016131de929190614829565b600e54600f546001600160a01b039182166000818152601360205260408082208290559284168082529281208190559283527ffb6d6027b5f732b20a35ac70fa9750b827225cf3381fb0470a562cc7f36ee53c839055915b60105481101561339c57601360006010838154811061336f57fe5b60009182526020808320909101546001600160a01b03168352820192909252604001812055600101613354565b5060005b6012548110156133e85760136000601283815481106133bb57fe5b60009182526020808320909101546001600160a01b031683528201929092526040018120556001016133a0565b5060005b60115481101561343457601360006011838154811061340757fe5b60009182526020808320909101546001600160a01b031683528201929092526040018120556001016133ec565b5061344160126000613ef3565b61344d60106000613ef3565b61345960116000613ef3565b6000613463611280565b6001600160a01b0316639d23c4c76040518163ffffffff1660e01b815260040160206040518083038186803b15801561349b57600080fd5b505afa1580156134af573d6000803e3d6000fd5b505050506040513d601f19601f820116820180604052508101906134d3919061418b565b90506000805b85518110156137a55760008682815181106134f057fe5b602002602001015160000151905086828151811061350a57fe5b6020908102919091018101516040908101516001600160a01b0384166000908152601484529190912081518051929391926135489284920190613e92565b5060208281015180516135619260018501920190613e92565b506040820151805161357d916002840191602090910190613e14565b5090505086828151811061358d57fe5b60200260200101516020015160136000836001600160a01b03166001600160a01b03168152602001908152602001600020819055506000846001600160a01b03166397d39de4836040518263ffffffff1660e01b81526004016135f09190614769565b60206040518083038186803b15801561360857600080fd5b505afa15801561361c573d6000803e3d6000fd5b505050506040513d601f19601f8201168201806040525081019061364091906143e2565b600381111561364b57fe5b9050600081600381111561365b57fe5b14156136b157601080546001810182556000919091527f1b6847dc741a1b0cd08d278845f9d819d87b734759afb55fe2de5cb82a9ae6720180546001600160a01b0319166001600160a01b03841617905561379b565b60018160038111156136bf57fe5b141561373b576001600160a01b0382166000908152601360205260409020546136e9908590613cc4565b601180546001810182556000919091527f31ecc21a745e3968a04e9570e4425bc18fa8019c68028196b546d1669c200c680180546001600160a01b0319166001600160a01b038516179055935061379b565b600281600381111561374957fe5b141561379b57601280546001810182556000919091527fbb8a6a4669ba250d26cd7a459eca9d215f8307e33aebe50379bc5a3617ec34440180546001600160a01b0319166001600160a01b0384161790555b50506001016134d9565b506011541561380d576001600160a01b0383166000908152601360205260409020546137d2908290613cc4565b6001600160a01b0360005260136020527ffb6d6027b5f732b20a35ac70fa9750b827225cf3381fb0470a562cc7f36ee53c819055905061117a565b6001600160a01b038316600090815260136020526040812054131561117a57601080546001810182556000919091527f1b6847dc741a1b0cd08d278845f9d819d87b734759afb55fe2de5cb82a9ae6720180546001600160a01b0385166001600160a01b03199091161790555050505050565b80156123325761389c8161165184670de0b6b3a7640000613146565b6009600e6101000a8154816001600160801b0302191690836001600160801b031602179055505050565b303b1590565b6001600160a01b0381166112725760405162461bcd60e51b81526004016107e090614c0c565b600854600160e81b900461ffff168015610c09576001600160a01b038084166000908152600a602052604080822054928516825290205480158015613938575060001982105b1561395d576001600160a01b0384166000908152600a60205260409020829055613a0b565b6000613969868561308b565b6001600160a01b0387166000908152600a60205260408120549450909150600019841080156139a95750600954600160701b90046001600160801b031684115b6139c557600954600160701b90046001600160801b03166139c7565b835b90506139d861148b878a8489612b74565b91508115613a0857600c546001600160a01b03166139f581612f2c565b6139ff8184612d12565b61215281612dd1565b50505b505050505050565b6001600160a01b038116600090815260026020526040902054611272576001600160a01b03166000908152600a6020526040812055565b600080613a578486613215565b9050613a6f846116516103e88187612e038c88613146565b9695505050505050565b6000613aa5613a888686612b4f565b611651613a958786613146565b613a9f8988613146565b90612b4f565b95945050505050565b6000826001600160a01b0316846001600160a01b03161415613ad1575080610949565b6000613af0670de0b6b3a76400006116518566071afd498d0000613146565b9050613afd858583612a3b565b846001600160a01b03167fc18340ba98721bcff47f10f30da90ced66f2b96b9afed4cbdf4e0184b4a7046982604051613b369190614881565b60405180910390a2613aa58382613215565b613b51826138cc565b604080518082018252601d8152600080516020614e968339815191526020808301919091526001600160a01b038516600090815260029091529190912054613b9a918390612b23565b6001600160a01b038316600090815260026020526040902055600454613bc09082613215565b600455613bcc82613a13565b60006001600160a01b0316826001600160a01b0316600080516020614eb683398151915283604051612dc59190614881565b60008183613c1f5760405162461bcd60e51b81526004016107e09190614908565b506000838581613c2b57fe5b0495945050505050565b6060613c8a826040518060400160405280602081526020017f5361666545524332303a206c6f772d6c6576656c2063616c6c206661696c6564815250856001600160a01b0316613d0a9092919063ffffffff16565b805190915015610f965780806020019051810190613ca891906143c2565b610f965760405162461bcd60e51b81526004016107e090614c96565b6000828201818312801590613cd95750838112155b80613cee5750600083128015613cee57508381125b6109495760405162461bcd60e51b81526004016107e090614a24565b6060612d0a848460008585613d1e85613db4565b613d3a5760405162461bcd60e51b81526004016107e090614c3a565b60006060866001600160a01b03168587604051613d5791906146c2565b60006040518083038185875af1925050503d8060008114613d94576040519150601f19603f3d011682016040523d82523d6000602084013e613d99565b606091505b5091509150613da9828286613dba565b979650505050505050565b3b151590565b60608315613dc9575081610949565b825115613dd95782518084602001fd5b8160405162461bcd60e51b81526004016107e09190614908565b60405180606001604052806060815260200160608152602001606081525090565b828054600181600116156101000203166002900490600052602060002090601f016020900481019282601f10613e5557805160ff1916838001178555613e82565b82800160010185558215613e82579182015b82811115613e82578251825591602001919060010190613e67565b50613e8e929150613f0d565b5090565b828054828255906000526020600020908101928215613ee7579160200282015b82811115613ee757825182546001600160a01b0319166001600160a01b03909116178255602090920191600190910190613eb2565b50613e8e929150613f22565b508054600082559060005260206000209081019061127291905b5b80821115613e8e5760008155600101613f0e565b5b80821115613e8e5780546001600160a01b0319168155600101613f23565b803561073181614e80565b600082601f830112613f5c578081fd5b8135613f6f613f6a82614e35565b614e0f565b818152915060208083019084810181840286018201871015613f9057600080fd5b60005b84811015613fb8578135613fa681614e80565b84529282019290820190600101613f93565b505050505092915050565b600082601f830112613fd3578081fd5b8135613fe1613f6a82614e35565b818152915060208083019084810160005b84811015613fb85781358701606080601f19838c0301121561401357600080fd5b61401c81614e0f565b6140288b878501613f41565b81526040838101358783015291830135916001600160401b0383111561404d57600080fd5b61405b8c88858701016140db565b90820152865250509282019290820190600101613ff2565b600082601f830112614083578081fd5b81356001600160401b03811115614098578182fd5b6140ab601f8201601f1916602001614e0f565b91508082528360208285010111156140c257600080fd5b8060208401602084013760009082016020015292915050565b6000606082840312156140ec578081fd5b6140f66060614e0f565b905081356001600160401b038082111561410f57600080fd5b61411b85838601613f4c565b8352602084013591508082111561413157600080fd5b61413d85838601613f4c565b6020840152604084013591508082111561415657600080fd5b5061416384828501614073565b60408301525092915050565b600060208284031215614180578081fd5b813561094981614e80565b60006020828403121561419c578081fd5b815161094981614e80565b600080604083850312156141b9578081fd5b82356141c481614e80565b915060208301356141d481614e80565b809150509250929050565b6000806000606084860312156141f3578081fd5b83356141fe81614e80565b9250602084013561420e81614e80565b929592945050506040919091013590565b600080600080600080600060e0888a031215614239578283fd5b873561424481614e80565b9650602088013561425481614e80565b95506040880135945060608801359350608088013560ff81168114614277578384fd5b9699959850939692959460a0840135945060c09093013592915050565b600080604083850312156142a6578182fd5b82356142b181614e80565b915060208301356001600160401b038111156142cb578182fd5b6142d7858286016140db565b9150509250929050565b600080604083850312156142f3578182fd5b82356142fe81614e80565b946020939093013593505050565b60008060008060808587031215614321578182fd5b843561432c81614e80565b935060208501359250604085013561434381614e80565b9150606085013561435381614e80565b939692955090935050565b60006020828403121561436f578081fd5b81356001600160401b03811115614384578182fd5b612d0a84828501613f4c565b6000602082840312156143a1578081fd5b81356001600160401b038111156143b6578182fd5b612d0a84828501613fc3565b6000602082840312156143d3578081fd5b81518015158114610949578182fd5b6000602082840312156143f3578081fd5b5051919050565b60006020828403121561440b578081fd5b81356001600160401b03811115614420578182fd5b612d0a84828501614073565b600080600080600060a08688031215614443578283fd5b85356001600160401b0380821115614459578485fd5b61446589838a01614073565b9650602088013591508082111561447a578485fd5b61448689838a01614073565b9550604088013591508082111561449b578485fd5b6144a789838a01614073565b9450606088013591506144b982614e80565b909250608087013590808211156144ce578283fd5b506144db88828901613fc3565b9150509295509295909350565b6000602082840312156144f9578081fd5b813561ffff81168114610949578182fd5b60006020828403121561451b578081fd5b5035919050565b60008060408385031215614534578182fd5b825191506020808401516001600160401b03811115614551578283fd5b8401601f81018613614561578283fd5b805161456f613f6a82614e35565b81815283810190838501858402850186018a101561458b578687fd5b8694505b838510156145ad57805183526001949094019391850191850161458f565b5080955050505050509250929050565b600080604083850312156145cf578182fd5b50508035926020909101359150565b6000806000606084860312156145f2578081fd5b8351925060208401519150604084015190509250925092565b6000815180845260208085019450808401835b838110156146435781516001600160a01b03168752958201959082019060010161461e565b509495945050505050565b60008151808452614666816020860160208601614e54565b601f01601f19169290920160200192915050565b600081516060845261468f606085018261460b565b9050602083015184820360208601526146a8828261460b565b91505060408301518482036040860152613aa5828261464e565b600082516146d4818460208701614e54565b9190910192915050565b60008083546001808216600081146146fd576001811461471457614743565b60ff198316865260028304607f1686019350614743565b600283048786526020808720875b8381101561473b5781548a820152908501908201614722565b505050860193505b509195945050505050565b61190160f01b81526002810192909252602282015260420190565b6001600160a01b0391909116815260200190565b6001600160a01b03838116825260406020808401829052845184830181905260009360609290918387019080830288018501898401885b838110156147fd578a8303605f19018552815180518816845286810151878501528901518984018990526147ea8985018261467a565b95870195935050908501906001016147b4565b50909b9a5050505050505050505050565b6001600160a01b039290921682521515602082015260400190565b6001600160a01b03929092168252602082015260400190565b6001600160a01b03919091168152631cd554d160e21b602082015260400190565b600060208252610949602083018461460b565b901515815260200190565b90815260200190565b9586526001600160a01b0394851660208701529290931660408501526060840152608083019190915260a082015260c00190565b9485526020850193909352604084019190915260608301526001600160a01b0316608082015260a00190565b93845260ff9290921660208401526040830152606082015260800190565b600060208252610949602083018461464e565b6020808252600b908201526a2737ba1036b0b730b3b2b960a91b604082015260600190565b6020808252601990820152784f6e6c7920537472617465677950726f7879466163746f727960381b604082015260600190565b6020808252600b908201526a14ddd85c0819985a5b195960aa1b604082015260600190565b60208082526014908201527310d85b9b9bdd081dda5d1a191c985dc81919589d60621b604082015260600190565b6020808252600f908201526e436f6e74726f6c6c6572206f6e6c7960881b604082015260600190565b6020808252601b908201527a536166654d6174683a206164646974696f6e206f766572666c6f7760281b604082015260600190565b60208082526021908201527f5369676e6564536166654d6174683a206164646974696f6e206f766572666c6f6040820152607760f81b606082015260800190565b602080825260119082015270496e76616c6964207369676e617475726560781b604082015260600190565b60208082526013908201527213585b9859d95c88185b1c9958591e481cd95d606a1b604082015260600190565b6020808252600c908201526b139bdd08185c1c1c9bdd995960a21b604082015260600190565b6020808252602e908201527f496e697469616c697a61626c653a20636f6e747261637420697320616c72656160408201526d191e481a5b9a5d1a585b1a5e995960921b606082015260800190565b6020808252600d908201526c4e6f205265656e7472616e637960981b604082015260600190565b60208082526021908201527f536166654d6174683a206d756c7469706c69636174696f6e206f766572666c6f6040820152607760f81b606082015260800190565b6822bc31b430b733b2b960b91b815260200190565b60208082526010908201526f4578706972656420646561646c696e6560801b604082015260600190565b6020808252600890820152670c08185b5bdd5b9d60c21b604082015260600190565b6524b9b9bab2b960d11b815260200190565b60208082526014908201527345524332303a204e6f206164647265737328302960601b604082015260600190565b6020808252601d908201527f416464726573733a2063616c6c20746f206e6f6e2d636f6e7472616374000000604082015260600190565b6020808252600b908201526a4e6f206561726e696e677360a81b604082015260600190565b6020808252602a908201527f5361666545524332303a204552433230206f7065726174696f6e20646964206e6040820152691bdd081cdd58d8d9595960b21b606082015260800190565b6020808252600c908201526b10db185a5b4819985a5b195960a21b604082015260600190565b60208082526025908201527f45524332303a2064656372656173656420616c6c6f77616e63652062656c6f77604082015264207a65726f60d81b606082015260800190565b7044656c6567617465417070726f76616c7360781b815260200190565b600060208252610949602083018461467a565b60006040820184835260206040818501528185518084526060860191508287019350845b81811015614dbb57845183529383019391830191600101614d9f565b5090979650505050505050565b95865260ff9490941660208601526001600160a01b0392831660408601529082166060850152811660808401521660a082015260c00190565b60ff91909116815260200190565b6040518181016001600160401b0381118282101715614e2d57600080fd5b604052919050565b60006001600160401b03821115614e4a578081fd5b5060209081020190565b60005b83811015614e6f578181015183820152602001614e57565b83811115610c095750506000910152565b6001600160a01b038116811461127257600080fdfe45524332303a20416d6f756e7420657863656564732062616c616e6365000000ddf252ad1be2c89b69c2b068fc378daa952ba7f163c4a11628f55a4df523b3efa2646970667358221220c3f7c8bf888f0b3544edf37f2b71e2f6b1d876b420640385ff1932c09837a62964736f6c634300060c0033",
  "linkReferences": {},
  "deployedLinkReferences": {}
}