{
  "_format": "hh-sol-artifact-1",
  "contractName": "Strategy",
  "sourceName": "contracts/Strategy.sol",
  "abi": [
    {
      "inputs": [
        {
          "internalType": "address",
          "name": "factory_",
          "type": "address"
        },
        {
          "internalType": "address",
          "name": "controller_",
          "type": "address"
        },
        {
          "internalType": "address",
          "name": "synthetixResolver_",
          "type": "address"
        },
        {
          "internalType": "address",
          "name": "aaveResolver_",
          "type": "address"
        }
      ],
      "stateMutability": "nonpayable",
      "type": "constructor"
    },
    {
      "anonymous": false,
      "inputs": [
        {
          "indexed": true,
          "internalType": "address",
          "name": "owner",
          "type": "address"
        },
        {
          "indexed": true,
          "internalType": "address",
          "name": "spender",
          "type": "address"
        },
        {
          "indexed": false,
          "internalType": "uint256",
          "name": "value",
          "type": "uint256"
        }
      ],
      "name": "Approval",
      "type": "event"
    },
    {
      "anonymous": false,
      "inputs": [],
      "name": "ClaimablesUpdated",
      "type": "event"
    },
    {
      "anonymous": false,
      "inputs": [
        {
          "indexed": false,
          "internalType": "uint256",
          "name": "amount",
          "type": "uint256"
        }
      ],
      "name": "ManagementFee",
      "type": "event"
    },
    {
      "anonymous": false,
      "inputs": [
        {
          "indexed": true,
          "internalType": "address",
          "name": "adapter",
          "type": "address"
        },
        {
          "indexed": true,
          "internalType": "address[]",
          "name": "tokens",
          "type": "address[]"
        }
      ],
      "name": "RewardsClaimed",
      "type": "event"
    },
    {
      "anonymous": false,
      "inputs": [],
      "name": "RewardsUpdated",
      "type": "event"
    },
    {
      "anonymous": false,
      "inputs": [
        {
          "indexed": false,
          "internalType": "uint256",
          "name": "amount",
          "type": "uint256"
        }
      ],
      "name": "StreamingFee",
      "type": "event"
    },
    {
      "anonymous": false,
      "inputs": [
        {
          "indexed": true,
          "internalType": "address",
          "name": "from",
          "type": "address"
        },
        {
          "indexed": true,
          "internalType": "address",
          "name": "to",
          "type": "address"
        },
        {
          "indexed": false,
          "internalType": "uint256",
          "name": "value",
          "type": "uint256"
        }
      ],
      "name": "Transfer",
      "type": "event"
    },
    {
      "anonymous": false,
      "inputs": [
        {
          "indexed": false,
          "internalType": "address",
          "name": "manager",
          "type": "address"
        }
      ],
      "name": "UpdateManager",
      "type": "event"
    },
    {
      "anonymous": false,
      "inputs": [
        {
          "indexed": true,
          "internalType": "string",
          "name": "newVersion",
          "type": "string"
        }
      ],
      "name": "VersionUpdated",
      "type": "event"
    },
    {
      "anonymous": false,
      "inputs": [
        {
          "indexed": true,
          "internalType": "address",
          "name": "account",
          "type": "address"
        },
        {
          "indexed": false,
          "internalType": "uint256",
          "name": "amount",
          "type": "uint256"
        },
        {
          "indexed": false,
          "internalType": "uint256[]",
          "name": "amounts",
          "type": "uint256[]"
        }
      ],
      "name": "Withdraw",
      "type": "event"
    },
    {
      "inputs": [],
      "name": "BALANCE_LOW",
      "outputs": [
        {
          "internalType": "string",
          "name": "",
          "type": "string"
        }
      ],
      "stateMutability": "view",
      "type": "function"
    },
    {
      "inputs": [],
      "name": "DOMAIN_SEPARATOR",
      "outputs": [
        {
          "internalType": "bytes32",
          "name": "",
          "type": "bytes32"
        }
      ],
      "stateMutability": "view",
      "type": "function"
    },
    {
      "inputs": [],
      "name": "PERMIT_TYPEHASH",
      "outputs": [
        {
          "internalType": "bytes32",
          "name": "",
          "type": "bytes32"
        }
      ],
      "stateMutability": "view",
      "type": "function"
    },
    {
      "inputs": [
        {
          "internalType": "address",
          "name": "owner",
          "type": "address"
        },
        {
          "internalType": "address",
          "name": "spender",
          "type": "address"
        }
      ],
      "name": "allowance",
      "outputs": [
        {
          "internalType": "uint256",
          "name": "",
          "type": "uint256"
        }
      ],
      "stateMutability": "view",
      "type": "function"
    },
    {
      "inputs": [
        {
          "internalType": "address",
          "name": "spender",
          "type": "address"
        },
        {
          "internalType": "uint256",
          "name": "amount",
          "type": "uint256"
        }
      ],
      "name": "approve",
      "outputs": [
        {
          "internalType": "bool",
          "name": "",
          "type": "bool"
        }
      ],
      "stateMutability": "nonpayable",
      "type": "function"
    },
    {
      "inputs": [
        {
          "internalType": "address[]",
          "name": "tokens",
          "type": "address[]"
        },
        {
          "internalType": "address",
          "name": "account",
          "type": "address"
        },
        {
          "internalType": "uint256",
          "name": "amount",
          "type": "uint256"
        }
      ],
      "name": "approveDebt",
      "outputs": [],
      "stateMutability": "nonpayable",
      "type": "function"
    },
    {
      "inputs": [
        {
          "internalType": "address",
          "name": "account",
          "type": "address"
        },
        {
          "internalType": "uint256",
          "name": "amount",
          "type": "uint256"
        }
      ],
      "name": "approveSynths",
      "outputs": [],
      "stateMutability": "nonpayable",
      "type": "function"
    },
    {
      "inputs": [
        {
          "internalType": "address",
          "name": "token",
          "type": "address"
        },
        {
          "internalType": "address",
          "name": "account",
          "type": "address"
        },
        {
          "internalType": "uint256",
          "name": "amount",
          "type": "uint256"
        }
      ],
      "name": "approveToken",
      "outputs": [],
      "stateMutability": "nonpayable",
      "type": "function"
    },
    {
      "inputs": [
        {
          "internalType": "address[]",
          "name": "tokens",
          "type": "address[]"
        },
        {
          "internalType": "address",
          "name": "account",
          "type": "address"
        },
        {
          "internalType": "uint256",
          "name": "amount",
          "type": "uint256"
        }
      ],
      "name": "approveTokens",
      "outputs": [],
      "stateMutability": "nonpayable",
      "type": "function"
    },
    {
      "inputs": [
        {
          "internalType": "address",
          "name": "account",
          "type": "address"
        }
      ],
      "name": "balanceOf",
      "outputs": [
        {
          "internalType": "uint256",
          "name": "",
          "type": "uint256"
        }
      ],
      "stateMutability": "view",
      "type": "function"
    },
    {
      "inputs": [
        {
          "internalType": "address",
          "name": "account",
          "type": "address"
        },
        {
          "internalType": "uint256",
          "name": "amount",
          "type": "uint256"
        }
      ],
      "name": "burn",
      "outputs": [
        {
          "internalType": "uint256",
          "name": "",
          "type": "uint256"
        }
      ],
      "stateMutability": "nonpayable",
      "type": "function"
    },
    {
      "inputs": [],
      "name": "chainId",
      "outputs": [
        {
          "internalType": "uint256",
          "name": "id",
          "type": "uint256"
        }
      ],
      "stateMutability": "pure",
      "type": "function"
    },
    {
      "inputs": [],
      "name": "claimAll",
      "outputs": [],
      "stateMutability": "nonpayable",
      "type": "function"
    },
    {
      "inputs": [],
      "name": "debt",
      "outputs": [
        {
          "internalType": "address[]",
          "name": "",
          "type": "address[]"
        }
      ],
      "stateMutability": "view",
      "type": "function"
    },
    {
      "inputs": [],
      "name": "decimals",
      "outputs": [
        {
          "internalType": "uint8",
          "name": "",
          "type": "uint8"
        }
      ],
      "stateMutability": "view",
      "type": "function"
    },
    {
      "inputs": [
        {
          "internalType": "address",
          "name": "spender",
          "type": "address"
        },
        {
          "internalType": "uint256",
          "name": "subtractedValue",
          "type": "uint256"
        }
      ],
      "name": "decreaseAllowance",
      "outputs": [
        {
          "internalType": "bool",
          "name": "",
          "type": "bool"
        }
      ],
      "stateMutability": "nonpayable",
      "type": "function"
    },
    {
      "inputs": [
        {
          "internalType": "address",
          "name": "adapter",
          "type": "address"
        },
        {
          "internalType": "uint256",
          "name": "amount",
          "type": "uint256"
        },
        {
          "internalType": "address",
          "name": "tokenIn",
          "type": "address"
        },
        {
          "internalType": "address",
          "name": "tokenOut",
          "type": "address"
        }
      ],
      "name": "delegateSwap",
      "outputs": [],
      "stateMutability": "nonpayable",
      "type": "function"
    },
    {
      "inputs": [],
      "name": "factory",
      "outputs": [
        {
          "internalType": "address",
          "name": "",
          "type": "address"
        }
      ],
      "stateMutability": "view",
      "type": "function"
    },
    {
      "inputs": [],
      "name": "getAllRewardTokens",
      "outputs": [
        {
          "internalType": "address[]",
          "name": "rewardTokens",
          "type": "address[]"
        }
      ],
      "stateMutability": "view",
      "type": "function"
    },
    {
      "inputs": [
        {
          "internalType": "address",
          "name": "item",
          "type": "address"
        }
      ],
      "name": "getPercentage",
      "outputs": [
        {
          "internalType": "int256",
          "name": "",
          "type": "int256"
        }
      ],
      "stateMutability": "view",
      "type": "function"
    },
    {
      "inputs": [
        {
          "internalType": "address",
          "name": "item",
          "type": "address"
        }
      ],
      "name": "getTradeData",
      "outputs": [
        {
          "components": [
            {
              "internalType": "address[]",
              "name": "adapters",
              "type": "address[]"
            },
            {
              "internalType": "address[]",
              "name": "path",
              "type": "address[]"
            },
            {
              "internalType": "bytes",
              "name": "cache",
              "type": "bytes"
            }
          ],
          "internalType": "struct StrategyTypes.TradeData",
          "name": "",
          "type": "tuple"
        }
      ],
      "stateMutability": "view",
      "type": "function"
    },
    {
      "inputs": [
        {
          "internalType": "address",
          "name": "spender",
          "type": "address"
        },
        {
          "internalType": "uint256",
          "name": "addedValue",
          "type": "uint256"
        }
      ],
      "name": "increaseAllowance",
      "outputs": [
        {
          "internalType": "bool",
          "name": "",
          "type": "bool"
        }
      ],
      "stateMutability": "nonpayable",
      "type": "function"
    },
    {
      "inputs": [
        {
          "internalType": "string",
          "name": "name_",
          "type": "string"
        },
        {
          "internalType": "string",
          "name": "symbol_",
          "type": "string"
        },
        {
          "internalType": "string",
          "name": "version_",
          "type": "string"
        },
        {
          "internalType": "address",
          "name": "manager_",
          "type": "address"
        },
        {
          "components": [
            {
              "internalType": "address",
              "name": "item",
              "type": "address"
            },
            {
              "internalType": "int256",
              "name": "percentage",
              "type": "int256"
            },
            {
              "components": [
                {
                  "internalType": "address[]",
                  "name": "adapters",
                  "type": "address[]"
                },
                {
                  "internalType": "address[]",
                  "name": "path",
                  "type": "address[]"
                },
                {
                  "internalType": "bytes",
                  "name": "cache",
                  "type": "bytes"
                }
              ],
              "internalType": "struct StrategyTypes.TradeData",
              "name": "data",
              "type": "tuple"
            }
          ],
          "internalType": "struct StrategyTypes.StrategyItem[]",
          "name": "strategyItems_",
          "type": "tuple[]"
        }
      ],
      "name": "initialize",
      "outputs": [
        {
          "internalType": "bool",
          "name": "",
          "type": "bool"
        }
      ],
      "stateMutability": "nonpayable",
      "type": "function"
    },
    {
      "inputs": [],
      "name": "issueStreamingFee",
      "outputs": [],
      "stateMutability": "nonpayable",
      "type": "function"
    },
    {
      "inputs": [],
      "name": "items",
      "outputs": [
        {
          "internalType": "address[]",
          "name": "",
          "type": "address[]"
        }
      ],
      "stateMutability": "view",
      "type": "function"
    },
    {
      "inputs": [
        {
          "internalType": "enum StrategyTypes.LockType",
          "name": "lt",
          "type": "uint8"
        }
      ],
      "name": "lock",
      "outputs": [],
      "stateMutability": "nonpayable",
      "type": "function"
    },
    {
      "inputs": [],
      "name": "lockType",
      "outputs": [
        {
          "internalType": "enum StrategyTypes.LockType",
          "name": "",
          "type": "uint8"
        }
      ],
      "stateMutability": "view",
      "type": "function"
    },
    {
      "inputs": [],
      "name": "locked",
      "outputs": [
        {
          "internalType": "bool",
          "name": "",
          "type": "bool"
        }
      ],
      "stateMutability": "view",
      "type": "function"
    },
    {
      "inputs": [],
      "name": "managementFee",
      "outputs": [
        {
          "internalType": "uint256",
          "name": "",
          "type": "uint256"
        }
      ],
      "stateMutability": "view",
      "type": "function"
    },
    {
      "inputs": [],
      "name": "manager",
      "outputs": [
        {
          "internalType": "address",
          "name": "",
          "type": "address"
        }
      ],
      "stateMutability": "view",
      "type": "function"
    },
    {
      "inputs": [
        {
          "internalType": "address",
          "name": "account",
          "type": "address"
        },
        {
          "internalType": "uint256",
          "name": "amount",
          "type": "uint256"
        }
      ],
      "name": "mint",
      "outputs": [],
      "stateMutability": "nonpayable",
      "type": "function"
    },
    {
      "inputs": [],
      "name": "name",
      "outputs": [
        {
          "internalType": "string",
          "name": "",
          "type": "string"
        }
      ],
      "stateMutability": "view",
      "type": "function"
    },
    {
      "inputs": [
        {
          "internalType": "address",
          "name": "owner",
          "type": "address"
        }
      ],
      "name": "nonces",
      "outputs": [
        {
          "internalType": "uint256",
          "name": "",
          "type": "uint256"
        }
      ],
      "stateMutability": "view",
      "type": "function"
    },
    {
      "inputs": [
        {
          "internalType": "address",
          "name": "owner",
          "type": "address"
        },
        {
          "internalType": "address",
          "name": "spender",
          "type": "address"
        },
        {
          "internalType": "uint256",
          "name": "value",
          "type": "uint256"
        },
        {
          "internalType": "uint256",
          "name": "deadline",
          "type": "uint256"
        },
        {
          "internalType": "uint8",
          "name": "v",
          "type": "uint8"
        },
        {
          "internalType": "bytes32",
          "name": "r",
          "type": "bytes32"
        },
        {
          "internalType": "bytes32",
          "name": "s",
          "type": "bytes32"
        }
      ],
      "name": "permit",
      "outputs": [],
      "stateMutability": "nonpayable",
      "type": "function"
    },
    {
      "inputs": [],
      "name": "rebalanceThreshold",
      "outputs": [
        {
          "internalType": "uint256",
          "name": "",
          "type": "uint256"
        }
      ],
      "stateMutability": "view",
      "type": "function"
    },
    {
      "inputs": [
        {
          "internalType": "address",
          "name": "token",
          "type": "address"
        }
      ],
      "name": "setCollateral",
      "outputs": [],
      "stateMutability": "nonpayable",
      "type": "function"
    },
    {
      "inputs": [
        {
          "internalType": "address",
          "name": "router",
          "type": "address"
        }
      ],
      "name": "setRouter",
      "outputs": [],
      "stateMutability": "nonpayable",
      "type": "function"
    },
    {
      "inputs": [
        {
          "components": [
            {
              "internalType": "address",
              "name": "item",
              "type": "address"
            },
            {
              "internalType": "int256",
              "name": "percentage",
              "type": "int256"
            },
            {
              "components": [
                {
                  "internalType": "address[]",
                  "name": "adapters",
                  "type": "address[]"
                },
                {
                  "internalType": "address[]",
                  "name": "path",
                  "type": "address[]"
                },
                {
                  "internalType": "bytes",
                  "name": "cache",
                  "type": "bytes"
                }
              ],
              "internalType": "struct StrategyTypes.TradeData",
              "name": "data",
              "type": "tuple"
            }
          ],
          "internalType": "struct StrategyTypes.StrategyItem[]",
          "name": "newItems",
          "type": "tuple[]"
        }
      ],
      "name": "setStructure",
      "outputs": [],
      "stateMutability": "nonpayable",
      "type": "function"
    },
    {
      "inputs": [],
      "name": "settleSynths",
      "outputs": [],
      "stateMutability": "nonpayable",
      "type": "function"
    },
    {
      "inputs": [],
      "name": "supportsDebt",
      "outputs": [
        {
          "internalType": "bool",
          "name": "",
          "type": "bool"
        }
      ],
      "stateMutability": "view",
      "type": "function"
    },
    {
      "inputs": [],
      "name": "supportsSynths",
      "outputs": [
        {
          "internalType": "bool",
          "name": "",
          "type": "bool"
        }
      ],
      "stateMutability": "view",
      "type": "function"
    },
    {
      "inputs": [],
      "name": "symbol",
      "outputs": [
        {
          "internalType": "string",
          "name": "",
          "type": "string"
        }
      ],
      "stateMutability": "view",
      "type": "function"
    },
    {
      "inputs": [],
      "name": "synths",
      "outputs": [
        {
          "internalType": "address[]",
          "name": "",
          "type": "address[]"
        }
      ],
      "stateMutability": "view",
      "type": "function"
    },
    {
      "inputs": [],
      "name": "totalSupply",
      "outputs": [
        {
          "internalType": "uint256",
          "name": "",
          "type": "uint256"
        }
      ],
      "stateMutability": "view",
      "type": "function"
    },
    {
      "inputs": [
        {
          "internalType": "address",
          "name": "recipient",
          "type": "address"
        },
        {
          "internalType": "uint256",
          "name": "amount",
          "type": "uint256"
        }
      ],
      "name": "transfer",
      "outputs": [
        {
          "internalType": "bool",
          "name": "",
          "type": "bool"
        }
      ],
      "stateMutability": "nonpayable",
      "type": "function"
    },
    {
      "inputs": [
        {
          "internalType": "address",
          "name": "sender",
          "type": "address"
        },
        {
          "internalType": "address",
          "name": "recipient",
          "type": "address"
        },
        {
          "internalType": "uint256",
          "name": "amount",
          "type": "uint256"
        }
      ],
      "name": "transferFrom",
      "outputs": [
        {
          "internalType": "bool",
          "name": "",
          "type": "bool"
        }
      ],
      "stateMutability": "nonpayable",
      "type": "function"
    },
    {
      "inputs": [],
      "name": "unlock",
      "outputs": [],
      "stateMutability": "nonpayable",
      "type": "function"
    },
    {
      "inputs": [],
      "name": "updateAddresses",
      "outputs": [],
      "stateMutability": "nonpayable",
      "type": "function"
    },
    {
      "inputs": [],
      "name": "updateClaimables",
      "outputs": [],
      "stateMutability": "nonpayable",
      "type": "function"
    },
    {
      "inputs": [
        {
          "internalType": "uint16",
          "name": "fee",
          "type": "uint16"
        }
      ],
      "name": "updateManagementFee",
      "outputs": [],
      "stateMutability": "nonpayable",
      "type": "function"
    },
    {
      "inputs": [
        {
          "internalType": "address",
          "name": "newManager",
          "type": "address"
        }
      ],
      "name": "updateManager",
      "outputs": [],
      "stateMutability": "nonpayable",
      "type": "function"
    },
    {
      "inputs": [
        {
          "internalType": "uint16",
          "name": "fee",
          "type": "uint16"
        }
      ],
      "name": "updatePerformanceFee",
      "outputs": [],
      "stateMutability": "nonpayable",
      "type": "function"
    },
    {
      "inputs": [
        {
          "internalType": "uint16",
          "name": "threshold",
          "type": "uint16"
        }
      ],
      "name": "updateRebalanceThreshold",
      "outputs": [],
      "stateMutability": "nonpayable",
      "type": "function"
    },
    {
      "inputs": [],
      "name": "updateRewards",
      "outputs": [],
      "stateMutability": "nonpayable",
      "type": "function"
    },
    {
      "inputs": [
        {
          "internalType": "uint256",
          "name": "total",
          "type": "uint256"
        },
        {
          "internalType": "uint256",
          "name": "supply",
          "type": "uint256"
        }
      ],
      "name": "updateTokenValue",
      "outputs": [],
      "stateMutability": "nonpayable",
      "type": "function"
    },
    {
      "inputs": [
        {
          "internalType": "address",
          "name": "item",
          "type": "address"
        },
        {
          "components": [
            {
              "internalType": "address[]",
              "name": "adapters",
              "type": "address[]"
            },
            {
              "internalType": "address[]",
              "name": "path",
              "type": "address[]"
            },
            {
              "internalType": "bytes",
              "name": "cache",
              "type": "bytes"
            }
          ],
          "internalType": "struct StrategyTypes.TradeData",
          "name": "data",
          "type": "tuple"
        }
      ],
      "name": "updateTradeData",
      "outputs": [],
      "stateMutability": "nonpayable",
      "type": "function"
    },
    {
      "inputs": [
        {
          "internalType": "string",
          "name": "newVersion",
          "type": "string"
        }
      ],
      "name": "updateVersion",
      "outputs": [],
      "stateMutability": "nonpayable",
      "type": "function"
    },
    {
      "inputs": [],
      "name": "version",
      "outputs": [
        {
          "internalType": "string",
          "name": "",
          "type": "string"
        }
      ],
      "stateMutability": "view",
      "type": "function"
    },
    {
      "inputs": [
        {
          "internalType": "uint256",
          "name": "amount",
          "type": "uint256"
        }
      ],
      "name": "withdrawAll",
      "outputs": [],
      "stateMutability": "nonpayable",
      "type": "function"
    },
    {
      "inputs": [],
      "name": "withdrawStreamingFee",
      "outputs": [],
      "stateMutability": "nonpayable",
      "type": "function"
    }
  ],
  "bytecode": "0x6101006040523480156200001257600080fd5b50604051620058ea380380620058ea83398101604081905262000035916200012b565b6001600160601b0319606085811b821660805284901b1660a05260485460ff61010090910416806200006c57506200006c62000107565b806200007b575060485460ff16155b620000a35760405162461bcd60e51b81526004016200009a906200018b565b60405180910390fd5b604854610100900460ff16158015620000cf576048805460ff1961ff0019909116610100171660011790555b6001600160601b0319606084811b821660c05283901b1660e0528015620000fc576048805461ff00191690555b5050505050620001d9565b303b1590565b80516001600160a01b03811681146200012557600080fd5b92915050565b6000806000806080858703121562000141578384fd5b6200014d86866200010d565b93506200015e86602087016200010d565b92506200016f86604087016200010d565b91506200018086606087016200010d565b905092959194509250565b6020808252602e908201527f496e697469616c697a61626c653a20636f6e747261637420697320616c72656160408201526d191e481a5b9a5d1a585b1a5e995960921b606082015260800190565b60805160601c60a05160601c60c05160601c60e05160601c6156936200025760003980611656525080610fa552806110305280611bd7525080611e54528061266f52806127845250806108655280610cca528061148b52806117755280611e0c5280611e8852806122225280612d3352806134df52506156936000f3fe608060405234801561001057600080fd5b50600436106103a45760003560e01c8063886abef5116101e9578063c0d786551161010f578063d7450788116100ad578063dd62ed3e1161007c578063dd62ed3e14610710578063df3568d914610723578063e26db6fc14610736578063f729023f1461073e576103a4565b8063d7450788146106c4578063d81076a3146106d7578063da3e3397146106ea578063dbbc5aca146106fd576103a4565b8063cf309012116100e9578063cf30901214610699578063d1058e59146106a1578063d1cc8c9d146106a9578063d505accf146106b1576103a4565b8063c0d786551461066b578063c10af4c71461067e578063c45a015514610691576103a4565b80639dc29fac11610187578063a6f7f5d611610156578063a6f7f5d614610635578063a9059cbb1461063d578063bfba814114610650578063c06fad0614610663576103a4565b80639dc29fac146105f45780639f3d4e6914610607578063a457c2d71461061a578063a69df4b51461062d576103a4565b8063939a2bfc116101c3578063939a2bfc146105c9578063958e2d31146105d157806395d89b41146105e45780639a8a0592146105ec576103a4565b8063886abef5146105a65780638aac766b146105b957806392f79427146105c1576103a4565b80633e158b0c116102ce57806358aba00f1161026c578063765d48971161023b578063765d4897146105635780637ecebe0014610578578063803c88901461058b57806381bd8a5014610593576103a4565b806358aba00f14610517578063709ac1c31461052a57806370a082311461053d5780637240f9af14610550576103a4565b8063481c6a75116102a8578063481c6a75146104ea57806349408949146104ff5780634a2f38a51461050757806354fd4d501461050f576103a4565b80633e158b0c146104bc5780633ebbc9c4146104c457806340c10f19146104d7576103a4565b806323b872dd116103465780633644e515116103155780633644e51514610486578063395093511461048e5780633aa93254146104a15780633dfe9f6a146104b4576103a4565b806323b872dd1461043657806330adf81f14610449578063313ce56714610451578063336685fc14610466576103a4565b806312edb24c1161038257806312edb24c146103fc5780631434ffac146104045780631649741c1461041957806318160ddd14610421576103a4565b806306fdde03146103a9578063095ea7b3146103c75780630dca59c1146103e7575b600080fd5b6103b1610751565b6040516103be919061502e565b60405180910390f35b6103da6103d53660046146bb565b6107e7565b6040516103be9190614f88565b6103ef6107fe565b6040516103be9190614eaa565b6103ef61085f565b6104176104123660046146e6565b610988565b005b6103b1610a1a565b610429610a53565b6040516103be9190614f93565b6103da6104443660046145b8565b610a59565b610429610a7c565b610459610aa0565b6040516103be919061558b565b610479610474366004614548565b610aa5565b6040516103be91906154a1565b610429610c26565b6103da61049c3660046146bb565b610c2c565b6104176104af36600461476b565b610c67565b610429610cbc565b610417610cc6565b6104296104d2366004614548565b610ecc565b6104176104e53660046146bb565b610ee7565b6104f2610f67565b6040516103be9190614dad565b6103da610f76565b610417610f7e565b6103b16112f5565b610417610525366004614548565b611356565b610417610538366004614b83565b611439565b61042961054b366004614548565b611462565b61041761055e3660046149a4565b61147d565b61056b61151e565b6040516103be919061501a565b610429610586366004614548565b611527565b6103ef611542565b6104176105a136600461476b565b6115a2565b6104176105b4366004614548565b611635565b610417611743565b610417611771565b610417611812565b6104176105df366004614ba5565b611836565b6103b1611a26565b610429611a87565b6104296106023660046146bb565b611a8b565b610417610615366004614985565b611af3565b6103da6106283660046146bb565b611b04565b610417611b57565b610429611b5f565b6103da61064b3660046146bb565b611b91565b61041761065e3660046146bb565b611b9e565b6103ef611d25565b610417610679366004614548565b611d85565b61041761068c366004614b83565b611daf565b6104f2611e0a565b6103da611e2e565b610417611e49565b6103da611f33565b6104176106bf3660046145f8565b611f3b565b6104176106d2366004614b83565b6120bc565b6104176106e536600461486a565b6120dc565b6104176106f83660046145b8565b612155565b61041761070b366004614bbd565b612171565b61042961071e366004614580565b612187565b61041761073136600461466d565b6121b2565b61041761221e565b6103da61074c3660046149d7565b612503565b60058054604080516020601f60026000196101006001881615020190951694909404938401819004810282018101909252828152606093909290918301828280156107dd5780601f106107b2576101008083540402835291602001916107dd565b820191906000526020600020905b8154815290600101906020018083116107c057829003601f168201915b5050505050905090565b60006107f43384846126ff565b5060015b92915050565b606060138054806020026020016040519081016040528092919081815260200182805480156107dd57602002820191906000526020600020905b81546001600160a01b03168152600190910190602001808311610838575050505050905090565b606060007f00000000000000000000000000000000000000000000000000000000000000006001600160a01b0316639d23c4c76040518163ffffffff1660e01b815260040160206040518083038186803b1580156108bc57600080fd5b505afa1580156108d0573d6000803e3d6000fd5b505050506040513d601f19601f820116820180604052508101906108f49190614564565b6040516312b2269360e01b815290915073__$fc0154010e32601d661a12a0bdc5aced23$__906312b226939061092e908490600401614dad565b60006040518083038186803b15801561094657600080fd5b505af415801561095a573d6000803e3d6000fd5b505050506040513d6000823e601f3d908101601f191682016040526109829190810190614738565b91505090565b610990612779565b606063230f11c760e01b846001858530306040516024016109b696959493929190615552565b60408051601f198184030181529190526020810180516001600160e01b03166001600160e01b031990931692909217909152905060005a905060008060008451602086018a86f4905080610a11576040513d806000833e8082fd5b50505050505050565b6040518060400160405280601d81526020017f45524332303a20416d6f756e7420657863656564732062616c616e636500000081525081565b60045490565b6000610a668433846127c1565b610a7184848461281d565b5060015b9392505050565b7f6e71edae12b1b97f4d1f60370fef10105fa2faae0126114a169c64845d6126c981565b601281565b610aad61400c565b6001600160a01b03821660009081526015602090815260409182902082518154608093810282018401909452606081018481529093919284928491840182828015610b2157602002820191906000526020600020905b81546001600160a01b03168152600190910190602001808311610b03575b5050505050815260200160018201805480602002602001604051908101604052809291908181526020018280548015610b8357602002820191906000526020600020905b81546001600160a01b03168152600190910190602001808311610b65575b5050509183525050600282810180546040805160206001841615610100026000190190931694909404601f81018390048302850183019091528084529381019390830182828015610c155780601f10610bea57610100808354040283529160200191610c15565b820191906000526020600020905b815481529060010190602001808311610bf857829003601f168201915b50505050508152505090505b919050565b60005481565b3360008181526001602090815260408083206001600160a01b038716845290915281205490916107f4918590610c6290866128fe565b6126ff565b610c6f612779565b825160005b81811015610cb557610cad8484878481518110610c8d57fe5b60200260200101516001600160a01b03166129239092919063ffffffff16565b600101610c74565b5050505050565b60095461ffff1690565b60007f00000000000000000000000000000000000000000000000000000000000000006001600160a01b0316639d23c4c76040518163ffffffff1660e01b815260040160206040518083038186803b158015610d2157600080fd5b505afa158015610d35573d6000803e3d6000fd5b505050506040513d601f19601f82011682018060405250810190610d599190614564565b9050610d6361402d565b610d6b612979565b9050610dd1816011805480602002602001604051908101604052809291908181526020018280548015610dc757602002820191906000526020600020905b81546001600160a01b03168152600190910190602001808311610da9575b50505050506129c3565b610e33816013805480602002602001604051908101604052809291908181526020018280548015610dc7576020028201919060005260206000209081546001600160a01b03168152600190910190602001808311610da95750505050506129c3565b610e95816012805480602002602001604051908101604052809291908181526020018280548015610dc7576020028201919060005260206000209081546001600160a01b03168152600190910190602001808311610da95750505050506129c3565b610e9f8183612a31565b6040517f28f9d1f1c65ba624526e3167f6fa468542d3d20ab4da211a2351edf5f64dfc7c90600090a15050565b6001600160a01b031660009081526014602052604090205490565b610eef612779565b600c54600b546001600160a01b03918216919081169084168114801590610f285750816001600160a01b0316846001600160a01b031614155b15610f4d57600954610f4d9085908590600160701b90046001600160801b0316612c0b565b610f578484612cbd565b610f618282612d2f565b50505050565b600b546001600160a01b031690565b601254151590565b610f86610f76565b156112f3576040516321f8a72160e01b81526000906001600160a01b037f000000000000000000000000000000000000000000000000000000000000000016906321f8a72190610fd890600401615382565b602060405180830381600087803b158015610ff257600080fd5b505af1158015611006573d6000803e3d6000fd5b505050506040513d601f19601f8201168201806040525081019061102a9190614564565b905060007f00000000000000000000000000000000000000000000000000000000000000006001600160a01b03166321f8a7216040518163ffffffff1660e01b8152600401611078906153f8565b602060405180830381600087803b15801561109257600080fd5b505af11580156110a6573d6000803e3d6000fd5b505050506040513d601f19601f820116820180604052508101906110ca9190614564565b6040516306c5a00b60e21b81529091506001600160a01b03831690631b16802c906110f9903090600401614e89565b606060405180830381600087803b15801561111357600080fd5b505af1158015611127573d6000803e3d6000fd5b505050506040513d601f19601f8201168201806040525081019061114b9190614bde565b5050601254905060005b81811015610f6157836001600160a01b0316631b16802c30856001600160a01b03166316b2213f6012868154811061118957fe5b6000918252602091829020015460408051636a5c1cc960e11b815290516001600160a01b039092169263d4b8399292600480840193829003018186803b1580156111d257600080fd5b505afa1580156111e6573d6000803e3d6000fd5b505050506040513d601f19601f8201168201806040525081019061120a9190614564565b6040518263ffffffff1660e01b81526004016112269190614dad565b60206040518083038186803b15801561123e57600080fd5b505afa158015611252573d6000803e3d6000fd5b505050506040513d601f19601f82011682018060405250810190611276919061496d565b6040518363ffffffff1660e01b8152600401611293929190614e70565b606060405180830381600087803b1580156112ad57600080fd5b505af11580156112c1573d6000803e3d6000fd5b505050506040513d601f19601f820116820180604052508101906112e59190614bde565b505050806001019050611155565b565b60078054604080516020601f60026000196101006001881615020190951694909404938401819004810282018101909252828152606093909290918301828280156107dd5780601f106107b2576101008083540402835291602001916107dd565b61135e612e80565b600b54600c546001600160a01b03918216911661137b8183612eaa565b6113a1826001600160a01b0316846001600160a01b0316141566b3e5dea2190e04612fed565b6009546001600160a01b038381166000908152600a6020526040808220600160701b9094046001600160801b03169093559085168082529190206000199055600b80546001600160a01b03191690911790556113fd8184612d2f565b7f5c18ab5c697b63d102fc7e14c77bfaef0f1013206eca139920fd389277814e098360405161142c9190614dad565b60405180910390a1505050565b611441612779565b60405162461bcd60e51b8152600401611459906152f3565b60405180910390fd5b6001600160a01b031660009081526002602052604090205490565b6114b9336001600160a01b037f0000000000000000000000000000000000000000000000000000000000000000161466b3e5dea2190e05612fed565b80516114cc906007906020840190614050565b506114d561301a565b6114dd61221e565b806040516114eb9190614d06565b604051908190038120907f6a32d7cc9dce117d55c00a92483b418c8ee6ad1756eb85159d6ab5bb4e44754f90600090a250565b60085460ff1690565b6001600160a01b031660009081526003602052604090205490565b606060128054806020026020016040519081016040528092919081815260200182805480156107dd576020028201919060005260206000209081546001600160a01b03168152600190910190602001808311610838575050505050905090565b6115aa612779565b825160005b81811015610cb5578481815181106115c357fe5b60200260200101516001600160a01b031663c04a8a1085856040518363ffffffff1660e01b81526004016115f8929190614e70565b600060405180830381600087803b15801561161257600080fd5b505af1158015611626573d6000803e3d6000fd5b505050508060010190506115af565b601054611654906001600160a01b0316331466b3e5dea2190e00612fed565b7f00000000000000000000000000000000000000000000000000000000000000006001600160a01b0316630261bf8b6040518163ffffffff1660e01b8152600401602060405180830381600087803b1580156116af57600080fd5b505af11580156116c3573d6000803e3d6000fd5b505050506040513d601f19601f820116820180604052508101906116e79190614564565b6001600160a01b0316635a3b74b98260016040518363ffffffff1660e01b8152600401611715929190614e55565b600060405180830381600087803b15801561172f57600080fd5b505af1158015610cb5573d6000803e3d6000fd5b61174d60026130a3565b600c54600b54611769916001600160a01b039081169116612eaa565b6112f3613121565b60007f00000000000000000000000000000000000000000000000000000000000000006001600160a01b0316639d23c4c76040518163ffffffff1660e01b815260040160206040518083038186803b1580156117cc57600080fd5b505afa1580156117e0573d6000803e3d6000fd5b505050506040513d601f19601f820116820180604052508101906118049190614564565b905061180f81613130565b50565b61181a612779565b600c54600b546112f3916001600160a01b039081169116612eaa565b61184060026130a3565b601354611855901566b3e5dea2190e01612fed565b61186881151566b3e5dea2190e02612fed565b611870610f7e565b600454600c54600b5460009291611895916001600160a01b0391821691163386613254565b6118b1816118ab85670de0b6b3a7640000613272565b906132ac565b600e54600f54604051636d8c674d60e01b815292945060609350839273__$fc0154010e32601d661a12a0bdc5aced23$__92636d8c674d9261190d9288926011926012926001600160a01b0392831692909116906004016154b4565b60006040518083038186803b15801561192557600080fd5b505af4158015611939573d6000803e3d6000fd5b505050506040513d6000823e601f3d908101601f1916820160405261196191908101906147b2565b8151919350915060005b818110156119da5782818151811061197f57fe5b60200260200101516000146119d2576119d23384838151811061199e57fe5b60200260200101518684815181106119b257fe5b60200260200101516001600160a01b03166132ee9092919063ffffffff16565b60010161196b565b50336001600160a01b03167faef68853d1f7f9e4e5fe02896078a87a319c7b257208dac49346c8f03b36c6858684604051611a16929190615505565b60405180910390a2610cb5613121565b60068054604080516020601f60026000196101006001881615020190951694909404938401819004810282018101909252828152606093909290918301828280156107dd5780601f106107b2576101008083540402835291602001916107dd565b4690565b6000611a95612779565b600c546001600160a01b03908116908416811415611abc57611ab7848461330d565b611aeb565b600b546001600160a01b039081169085168114611add57611add85856133c6565b611ae982828787613254565b505b509092915050565b611afb612779565b61180f816130a3565b3360009081526001602090815260408083206001600160a01b038616845290915281205482811015611b485760405162461bcd60e51b8152600401611459906151f1565b610a713385610c628487613400565b611769612779565b6017546000906103e8611b7a82670de0b6b3a76400006128fe565b81611b8157fe5b048181611b8a57fe5b0491505090565b60006107f433848461281d565b611ba6612779565b600f54611bbd906001600160a01b03168383612923565b6040516321f8a72160e01b81526000906001600160a01b037f000000000000000000000000000000000000000000000000000000000000000016906321f8a72190611c0a90600401615478565b602060405180830381600087803b158015611c2457600080fd5b505af1158015611c38573d6000803e3d6000fd5b505050506040513d601f19601f82011682018060405250810190611c5c9190614564565b905081611cc657604051635c8ab77d60e11b81526001600160a01b0382169063b9156efa90611c8f908690600401614dad565b600060405180830381600087803b158015611ca957600080fd5b505af1158015611cbd573d6000803e3d6000fd5b50505050611d20565b60405163447fbc6360e01b81526001600160a01b0382169063447fbc6390611cf2908690600401614dad565b600060405180830381600087803b158015611d0c57600080fd5b505af1158015610a11573d6000803e3d6000fd5b505050565b606060118054806020026020016040519081016040528092919081815260200182805480156107dd576020028201919060005260206000209081546001600160a01b03168152600190910190602001808311610838575050505050905090565b611d8d612779565b601080546001600160a01b0319166001600160a01b0392909216919091179055565b611db7612779565b600c54600b546001600160a01b039182169116611dd48282612eaa565b611dfd611de76103e861ffff8616613400565b6118ab670de0b6b3a764000061ffff8716613272565b601755611d208282612d2f565b7f000000000000000000000000000000000000000000000000000000000000000090565b6000600160085460ff166006811115611e4357fe5b11905090565b336001600160a01b037f00000000000000000000000000000000000000000000000000000000000000001614801590611eab5750336001600160a01b037f00000000000000000000000000000000000000000000000000000000000000001614155b15611ecf57600b54611ecf906001600160a01b0316331466b3e5dea2190e03612fed565b604051632a9c9d8360e11b815273__$fc0154010e32601d661a12a0bdc5aced23$__906355393b0690611f0790601690600401614ebd565b60006040518083038186803b158015611f1f57600080fd5b505af4158015610f61573d6000803e3d6000fd5b601354151590565b83421115611f5b5760405162461bcd60e51b8152600401611459906153ce565b600080546001600160a01b0389168252600360209081526040808420549051611faf927f6e71edae12b1b97f4d1f60370fef10105fa2faae0126114a169c64845d6126c9928d928d928d92918d9101614f9c565b60405160208183030381529060405280519060200120604051602001611fd6929190614d92565b6040516020818303038152906040528051906020012090506000600182868686604051600081526020016040526040516120139493929190614ffc565b6020604051602081039080840390855afa158015612035573d6000803e3d6000fd5b5050604051601f1901519150506001600160a01b0381161580159061206b5750886001600160a01b0316816001600160a01b0316145b6120875760405162461bcd60e51b8152600401611459906151ba565b6001600160a01b0389166000908152600360205260409020805460010190556120b18989896126ff565b505050505050505050565b6120c4612779565b6009805461ffff191661ffff92909216919091179055565b6120e4612779565b604051632a9c9d8360e11b815273__$fc0154010e32601d661a12a0bdc5aced23$__906355393b069061211c90601690600401614ebd565b60006040518083038186803b15801561213457600080fd5b505af4158015612148573d6000803e3d6000fd5b5050505061180f81613442565b61215d612779565b611d206001600160a01b0384168383612923565b612179612779565b61218382826136cb565b5050565b6001600160a01b03918216600090815260016020908152604080832093909416825291909152205490565b6121ba612779565b6001600160a01b03821660009081526015602090815260409091208251805184936121e99284929101906140ca565b50602082810151805161220292600185019201906140ca565b5060408201518051610cb5916002840191602090910190614050565b60007f000000000000000000000000000000000000000000000000000000000000000090506000816001600160a01b03166316f0115b6040518163ffffffff1660e01b815260040160206040518083038186803b15801561227e57600080fd5b505afa158015612292573d6000803e3d6000fd5b505050506040513d601f19601f820116820180604052508101906122b69190614564565b600c549091506001600160a01b039081169082168114612360576001600160a01b0381161561232f57600b546001600160a01b03166122f58282612eaa565b6122ff8382612d2f565b506009546001600160a01b0382166000908152600a60205260409020600160701b9091046001600160801b031690555b6001600160a01b0382166000818152600a602052604090206000199055600c80546001600160a01b03191690911790555b6000836001600160a01b0316637dc0d1d06040518163ffffffff1660e01b815260040160206040518083038186803b15801561239b57600080fd5b505afa1580156123af573d6000803e3d6000fd5b505050506040513d601f19601f820116820180604052508101906123d39190614564565b9050806001600160a01b0316633fc8cef36040518163ffffffff1660e01b815260040160206040518083038186803b15801561240e57600080fd5b505afa158015612422573d6000803e3d6000fd5b505050506040513d601f19601f820116820180604052508101906124469190614564565b600e60006101000a8154816001600160a01b0302191690836001600160a01b03160217905550806001600160a01b031663c92577756040518163ffffffff1660e01b815260040160206040518083038186803b1580156124a557600080fd5b505afa1580156124b9573d6000803e3d6000fd5b505050506040513d601f19601f820116820180604052508101906124dd9190614564565b600f80546001600160a01b0319166001600160a01b039290921691909117905550505050565b604854600090610100900460ff168061251f575061251f61371e565b8061252d575060485460ff16155b6125495760405162461bcd60e51b8152600401611459906152a5565b604854610100900460ff16158015612574576048805460ff1961ff0019909116610100171660011790555b600b80546001600160a01b0319166001600160a01b03861617905586516125a29060059060208a0190614050565b5085516125b6906006906020890190614050565b5084516125ca906007906020880190614050565b50600980547fffff00000000000000000000000000000000ffffffffffffffffffffffffffff166503782dace9d960821b176dffffffffffffffffffffffff0000191662010000426bffffffffffffffffffffffff16021790556001600160a01b0384166000908152600a60205260409020600019905561264961301a565b61265161221e565b8251156126df57604051636aa8278160e11b81526001600160a01b037f0000000000000000000000000000000000000000000000000000000000000000169063d5504f02906126a69030908790600401614dc1565b60006040518083038186803b1580156126be57600080fd5b505afa1580156126d2573d6000803e3d6000fd5b505050506126df83613442565b6001915080156126f5576048805461ff00191690555b5095945050505050565b61270883613724565b61271182613724565b6001600160a01b0380841660008181526001602090815260408083209487168084529490915290819020849055517f8c5be1e5ebec7d5bd14f71427d1e84f3dd0314c0f7b2291e5b200ac8c7c3b9259061276c908590614f93565b60405180910390a3505050565b336001600160a01b037f000000000000000000000000000000000000000000000000000000000000000016146112f35760405162461bcd60e51b81526004016114599061509b565b6001600160a01b038084166000908152600160209081526040808320938616835292905220546000198114610f6157818110156128105760405162461bcd60e51b8152600401611459906150fb565b610f6184848484036126ff565b600c54600b546001600160a01b03918216919081169060009086168214806128565750826001600160a01b0316866001600160a01b0316145b156128635750600161286d565b61286d86856133c6565b816001600160a01b0316856001600160a01b0316148061289e5750826001600160a01b0316856001600160a01b0316145b156128ab575060016128cb565b6009546128cb9086908690600160701b90046001600160801b0316612c0b565b80156128db576128db8383612eaa565b6128e686868661374a565b80156128f6576128f68383612d2f565b505050505050565b600082820183811015610a755760405162461bcd60e51b8152600401611459906150c4565b611d208363095ea7b360e01b8484604051602401612942929190614e70565b60408051601f198184030181529190526020810180516001600160e01b03166001600160e01b031990931692909217909152613817565b61298161402d565b61298961402d565b6040805160028082526060820190925290816020015b6129a761402d565b81526020019060019003908161299f5750506040820152919050565b805160005b81811015610f61576129ed848483815181106129e057fe5b60200260200101516138a6565b156129f757612a29565b612a29838281518110612a0657fe5b60200260200101516001600160a01b031660001b856138bb90919063ffffffff16565b6001016129c8565b612a3a81613130565b6040516312b2269360e01b815260609073__$fc0154010e32601d661a12a0bdc5aced23$__906312b2269390612a74908590600401614dad565b60006040518083038186803b158015612a8c57600080fd5b505af4158015612aa0573d6000803e3d6000fd5b505050506040513d6000823e601f3d908101601f19168201604052612ac89190810190614738565b9050612ad261412b565b815160005b818110156128f657612aef868583815181106129e057fe5b15612af957612c03565b612b2b848281518110612b0857fe5b60200260200101516001600160a01b031660001b876138bb90919063ffffffff16565b6040518060600160405280858381518110612b4257fe5b60200260200101516001600160a01b0316815260200160008152602001866001600160a01b0316635109dfcd878581518110612b7a57fe5b60200260200101516040518263ffffffff1660e01b8152600401612b9e9190614dad565b60006040518083038186803b158015612bb657600080fd5b505afa158015612bca573d6000803e3d6000fd5b505050506040513d6000823e601f3d908101601f19168201604052612bf29190810190614a94565b5190529250612c0183866138c5565b505b600101612ad7565b6001600160a01b03831660009081526002602052604090205480612c49576001600160a01b0384166000908152600a60205260409020829055610f61565b6001600160a01b0384166000908152600a6020526040812054612c6d908390613272565b90506000612c7b8585613272565b9050612c8783866128fe565b612c9183836128fe565b81612c9857fe5b6001600160a01b0388166000908152600a602052604090209190049055505050505050565b612cc682613724565b600454612cd390826128fe565b6004556001600160a01b038216600081815260026020526040808220805485019055517fddf252ad1be2c89b69c2b068fc378daa952ba7f163c4a11628f55a4df523b3ef90612d23908590614f93565b60405180910390a35050565b60007f00000000000000000000000000000000000000000000000000000000000000006001600160a01b031663cb5453646040518163ffffffff1660e01b815260040160206040518083038186803b158015612d8a57600080fd5b505afa158015612d9e573d6000803e3d6000fd5b505050506040513d601f19601f82011682018060405250810190612dc2919061496d565b6001600160a01b03841660009081526002602052604090205460045491925090612df8908390612df29084613400565b90613272565b600880546001600160e01b0392909216610100027fffffff00000000000000000000000000000000000000000000000000000000ff9092169190911790556017548015610cb5576001600160a01b038416600090815260026020526040902054600454612e76918391612df29190612e709087613400565b90613400565b6018555050505050565b600b546001600160a01b031633146112f35760405162461bcd60e51b815260040161145990615076565b600954600090612ecf9042906201000090046bffffffffffffffffffffffff16613400565b90508015611d20576008546000906b011241ea620fcd152a60000090612f039061010090046001600160e01b031684613272565b81612f0a57fe5b049050612f178482612cbd565b7f66c77f845ffc734f7250e8a5399169a71b617eedc0063f899cf6c7db19d6b56281604051612f469190614f93565b60405180910390a16018548015612fba576b011241ea620fcd152a600000612f6e8285613272565b81612f7557fe5b049150612f828483612cbd565b7ff87c0f8ad312d5441c433caa79ac7e44a7c9e1445da8d2aea7b5b7d58de66d3f82604051612fb19190614f93565b60405180910390a15b5050600980546dffffffffffffffffffffffff0000191662010000426bffffffffffffffffffffffff1602179055505050565b8115612ff857612183565b61300181613a7a565b60405162461bcd60e51b8152600401611459919061502e565b7f8b73c3c69bb8fe3d512ecc4cf759cc79239f7b179b0ffacaa9a75d522b39400f600560405161304a9190614d22565b604051809103902060076040516130619190614d22565b6040518091039020613071611a87565b30604051602001613086959493929190614fd0565b60408051601f198184030181529190528051602090910120600055565b600160085460ff1660068111156130b657fe5b11156130d45760405162461bcd60e51b81526004016114599061531a565b60028160068111156130e257fe5b10156131005760405162461bcd60e51b815260040161145990615397565b6008805482919060ff1916600183600681111561311957fe5b021790555050565b6008805460ff19166001179055565b61313c6016600061414f565b604051630f636c6760e31b815260609073__$fc0154010e32601d661a12a0bdc5aced23$__90637b1b633890613176908590600401614dad565b60006040518083038186803b15801561318e57600080fd5b505af41580156131a2573d6000803e3d6000fd5b505050506040513d6000823e601f3d908101601f191682016040526131ca919081019061489d565b8051909250905060005b818110156132255760168382815181106131ea57fe5b6020908102919091018101518254600181018455600093845292829020815161321c9491909101929190910190614050565b506001016131d4565b506040517fb7b9d9bcaf096a71db18424c5ed30512ff143f0260ffe2d8bd7200105ecbdb9590600090a1505050565b61325e8484612eaa565b613268828261330d565b610f618484612d2f565b600082613281575060006107f8565b8282028284828161328e57fe5b0414610a755760405162461bcd60e51b815260040161145990615341565b6000610a7583836040518060400160405280601a81526020017f536166654d6174683a206469766973696f6e206279207a65726f000000000000815250613acd565b611d208363a9059cbb60e01b8484604051602401612942929190614e70565b61331682613724565b604080518082018252601d81527f45524332303a20416d6f756e7420657863656564732062616c616e63650000006020808301919091526001600160a01b038516600090815260029091529190912054613371918390613b04565b6001600160a01b0383166000818152600260205260408082209390935560048054859003905591517fddf252ad1be2c89b69c2b068fc378daa952ba7f163c4a11628f55a4df523b3ef90612d23908590614f93565b6001600160a01b038216600090815260026020526040902054811061218357506001600160a01b03166000908152600a6020526040812055565b6000610a7583836040518060400160405280601e81526020017f536166654d6174683a207375627472616374696f6e206f766572666c6f770000815250613b04565b600e54600f546001600160a01b039182166000818152601460205260408082208290559284168082529281208190559283527feef591571549cf9b667da255ab4bb2a90dfdcb77845d7bc32c3bf4528eee03db929092556134a36011613b30565b6134ad6013613b30565b6134b76012613b30565b6134c36011600061416d565b6134cf6013600061416d565b6134db6012600061416d565b60007f00000000000000000000000000000000000000000000000000000000000000006001600160a01b0316639d23c4c76040518163ffffffff1660e01b815260040160206040518083038186803b15801561353657600080fd5b505afa15801561354a573d6000803e3d6000fd5b505050506040513d601f19601f8201168201806040525081019061356e9190614564565b9050600061357a61402d565b613582612979565b865190915060005b818110156135ee576135b96135b28983815181106135a457fe5b6020026020010151876138c5565b8590613be4565b93506135e68882815181106135ca57fe5b60209081029190910101515184906001600160a01b03166138bb565b60010161358a565b5060125415613656576001600160a01b03851660009081526014602052604090205461361b908490613be4565b6001600160a01b0360005260146020527feef591571549cf9b667da255ab4bb2a90dfdcb77845d7bc32c3bf4528eee03db81905592506136c1565b6001600160a01b03851660009081526014602052604081205413156136c157601180546001810182556000919091527f31ecc21a745e3968a04e9570e4425bc18fa8019c68028196b546d1669c200c680180546001600160a01b0319166001600160a01b0387161790555b610a118285612a31565b8015612183576136f4816136e784670de0b6b3a7640000613272565b816136ee57fe5b04613c2a565b6009600e6101000a8154816001600160801b0302191690836001600160801b031602179055505050565b303b1590565b6001600160a01b03811661180f5760405162461bcd60e51b81526004016114599061540a565b61375383613724565b61375c82613724565b604080518082018252601d81527f45524332303a20416d6f756e7420657863656564732062616c616e63650000006020808301919091526001600160a01b0386166000908152600290915291909120546137b7918390613b04565b6001600160a01b03808516600081815260026020526040808220949094559185168083529183902080548501905591519091907fddf252ad1be2c89b69c2b068fc378daa952ba7f163c4a11628f55a4df523b3ef9061276c908590614f93565b606061386c826040518060400160405280602081526020017f5361666545524332303a206c6f772d6c6576656c2063616c6c206661696c6564815250856001600160a01b0316613c539092919063ffffffff16565b805190915015611d20578080602001905181019061388a919061494d565b611d205760405162461bcd60e51b81526004016114599061526e565b6000610a75836001600160a01b038416613c62565b6121838282613c8c565b81516040808401516001600160a01b0383166000908152601560209081529281208251805192959491926138fc92849201906140ca565b50602082810151805161391592600185019201906140ca565b5060408201518051613931916002840191602090910190614050565b5050506020808501516001600160a01b038084166000908152601490935260408084209290925590516325f4e77960e21b8152908516906397d39de49061397c908590600401614dad565b60206040518083038186803b15801561399457600080fd5b505afa1580156139a8573d6000803e3d6000fd5b505050506040513d601f19601f820116820180604052508101906139cc919061496d565b60038111156139d757fe5b9050600080808360038111156139e957fe5b14156139f757506011613a31565b6001836003811115613a0557fe5b1415613a1957505060208501516012613a31565b6002836003811115613a2757fe5b1415613a31575060135b6003836003811115613a3f57fe5b10156126f55780546001810182556000828152602090200180546001600160a01b0319166001600160a01b0386161790555095945050505050565b606081613aa257506040805180820190915260048152630307830360e41b6020820152610c21565b8160005b8115613abb5760089190911c90600101613aa6565b613ac58482613d35565b949350505050565b60008183613aee5760405162461bcd60e51b8152600401611459919061502e565b506000838581613afa57fe5b0495945050505050565b60008184841115613b285760405162461bcd60e51b8152600401611459919061502e565b505050900390565b606081805480602002602001604051908101604052809291908181526020018280548015613b8757602002820191906000526020600020905b81546001600160a01b03168152600190910190602001808311613b69575b505083519394506000925050505b81811015610f615760146000848381518110613bad57fe5b60200260200101516001600160a01b03166001600160a01b0316815260200190815260200160002060009055806001019050613b95565b6000828201818312801590613bf95750838112155b80613c0e5750600083128015613c0e57508381125b610a755760405162461bcd60e51b815260040161145990615179565b6000600160801b8210613c4f5760405162461bcd60e51b815260040161145990615132565b5090565b6060613ac58484600085613e5e565b6000613c6c61402d565b613c768484613f1f565b805190915015613c8557600191505b5092915050565b8151613ca2576001825260208201819052612183565b8082602001511415613cb357612183565b60008183602001511115613cc5575060015b82604001518181518110613cd557fe5b60200260200101516000015115613d0c57613d0783604001518281518110613cf957fe5b602002602001015183613c8c565b611d20565b613d1582613f77565b83604001518281518110613d2557fe5b6020026020010181905250505050565b6060808260020260020167ffffffffffffffff81118015613d5557600080fd5b506040519080825280601f01601f191660200182016040528015613d80576020820181803683370190505b509050600360fc1b81600081518110613d9557fe5b60200101906001600160f81b031916908160001a905350600f60fb1b81600181518110613dbe57fe5b60200101906001600160f81b031916908160001a905350600160028402015b6001811115613e3f576f181899199a1a9b1b9c1cb0b131b232b360811b85600f1660108110613e0857fe5b1a60f81b828281518110613e1857fe5b60200101906001600160f81b031916908160001a90535060049490941c9360001901613ddd565b508315610a755760405162461bcd60e51b815260040161145990615041565b606082471015613e805760405162461bcd60e51b815260040161145990615228565b613e8985613fcd565b613ea55760405162461bcd60e51b815260040161145990615441565b60006060866001600160a01b03168587604051613ec29190614d06565b60006040518083038185875af1925050503d8060008114613eff576040519150601f19603f3d011682016040523d82523d6000602084013e613f04565b606091505b5091509150613f14828286613fd3565b979650505050505050565b613f2761402d565b82511580613f385750818360200151145b15613f445750816107f8565b60008284602001511115613f56575060015b613ac584604001518281518110613f6957fe5b602002602001015184613f1f565b613f7f61402d565b613f8761402d565b60018152602081018390526040805160028082526060820190925290816020015b613fb061402d565b815260200190600190039081613fa8575050604082015292915050565b3b151590565b60608315613fe2575081610a75565b825115613ff25782518084602001fd5b8160405162461bcd60e51b8152600401611459919061502e565b60405180606001604052806060815260200160608152602001606081525090565b604051806060016040528060001515815260200160008152602001606081525090565b828054600181600116156101000203166002900490600052602060002090601f016020900481019282601f1061409157805160ff19168380011785556140be565b828001600101855582156140be579182015b828111156140be5782518255916020019190600101906140a3565b50613c4f929150614187565b82805482825590600052602060002090810192821561411f579160200282015b8281111561411f57825182546001600160a01b0319166001600160a01b039091161782556020909201916001909101906140ea565b50613c4f92915061419c565b604080516060810182526000808252602082015290810161414a61400c565b905290565b508054600082559060005260206000209081019061180f91906141bb565b508054600082559060005260206000209081019061180f91905b5b80821115613c4f5760008155600101614188565b5b80821115613c4f5780546001600160a01b031916815560010161419d565b80821115613c4f5760006141cf82826141d8565b506001016141bb565b50805460018160011615610100020316600290046000825580601f106141fe575061180f565b601f01602090049060005260206000209081019061180f9190614187565b80356107f881615648565b80516107f881615648565b600082601f830112614242578081fd5b8135614255614250826155c0565b615599565b81815291506020808301908481018184028601820187101561427657600080fd5b60005b8481101561429e57813561428c81615648565b84529282019290820190600101614279565b505050505092915050565b600082601f8301126142b9578081fd5b81516142c7614250826155c0565b8181529150602080830190848101818402860182018710156142e857600080fd5b60005b8481101561429e5781516142fe81615648565b845292820192908201906001016142eb565b600082601f830112614320578081fd5b813561432e614250826155c0565b818152915060208083019084810160005b8481101561429e5781358701606080601f19838c0301121561436057600080fd5b61436981615599565b6143758b87850161421c565b815260408381013587830152918301359167ffffffffffffffff83111561439b57600080fd5b6143a98c88858701016144b3565b9082015286525050928201929082019060010161433f565b600082601f8301126143d1578081fd5b81516143df614250826155c0565b81815291506020808301908481018184028601820187101561440057600080fd5b60005b8481101561429e57815184529282019290820190600101614403565b600082601f83011261442f578081fd5b813561443d614250826155e0565b915080825283602082850101111561445457600080fd5b8060208401602084013760009082016020015292915050565b600082601f83011261447d578081fd5b815161448b614250826155e0565b91508082528360208285010111156144a257600080fd5b613c8581602084016020860161561c565b6000606082840312156144c4578081fd5b6144ce6060615599565b9050813567ffffffffffffffff808211156144e857600080fd5b6144f485838601614232565b8352602084013591508082111561450a57600080fd5b61451685838601614232565b6020840152604084013591508082111561452f57600080fd5b5061453c8482850161441f565b60408301525092915050565b600060208284031215614559578081fd5b8135610a7581615648565b600060208284031215614575578081fd5b8151610a7581615648565b60008060408385031215614592578081fd5b823561459d81615648565b915060208301356145ad81615648565b809150509250929050565b6000806000606084860312156145cc578081fd5b83356145d781615648565b925060208401356145e781615648565b929592945050506040919091013590565b600080600080600080600060e0888a031215614612578485fd5b873561461d81615648565b9650602088013561462d81615648565b95506040880135945060608801359350608088013560ff81168114614650578384fd5b9699959850939692959460a0840135945060c09093013592915050565b6000806040838503121561467f578182fd5b823561468a81615648565b9150602083013567ffffffffffffffff8111156146a5578182fd5b6146b1858286016144b3565b9150509250929050565b600080604083850312156146cd578182fd5b82356146d881615648565b946020939093013593505050565b600080600080608085870312156146fb578182fd5b843561470681615648565b935060208501359250604085013561471d81615648565b9150606085013561472d81615648565b939692955090935050565b600060208284031215614749578081fd5b815167ffffffffffffffff81111561475f578182fd5b613ac5848285016142a9565b60008060006060848603121561477f578081fd5b833567ffffffffffffffff811115614795578182fd5b6147a186828701614232565b93505060208401356145e781615648565b600080604083850312156147c4578182fd5b825167ffffffffffffffff808211156147db578384fd5b818501915085601f8301126147ee578384fd5b81516147fc614250826155c0565b80828252602080830192508086018a82838702890101111561481c578889fd5b8896505b84871015614846576148328b82614227565b845260019690960195928101928101614820565b50880151909650935050508082111561485d578283fd5b506146b1858286016143c1565b60006020828403121561487b578081fd5b813567ffffffffffffffff811115614891578182fd5b613ac584828501614310565b600080604083850312156148af578182fd5b825167ffffffffffffffff808211156148c6578384fd5b6148d2868387016143c1565b93506020915081850151818111156148e8578384fd5b85019050601f810186136148fa578283fd5b8051614908614250826155c0565b81815283810190838501865b8481101561493d5761492b8b88845189010161446d565b84529286019290860190600101614914565b5096999098509650505050505050565b60006020828403121561495e578081fd5b81518015158114610a75578182fd5b60006020828403121561497e578081fd5b5051919050565b600060208284031215614996578081fd5b813560078110610a75578182fd5b6000602082840312156149b5578081fd5b813567ffffffffffffffff8111156149cb578182fd5b613ac58482850161441f565b600080600080600060a086880312156149ee578283fd5b853567ffffffffffffffff80821115614a05578485fd5b614a1189838a0161441f565b96506020880135915080821115614a26578485fd5b614a3289838a0161441f565b95506040880135915080821115614a47578485fd5b614a5389838a0161441f565b945060608801359150614a6582615648565b90925060808701359080821115614a7a578283fd5b50614a8788828901614310565b9150509295509295909350565b600060208284031215614aa5578081fd5b815167ffffffffffffffff80821115614abc578283fd5b9083019060408286031215614acf578283fd5b614ad96040615599565b825182811115614ae7578485fd5b830160608188031215614af8578485fd5b614b026060615599565b815184811115614b10578687fd5b614b1c898285016142a9565b825250602082015184811115614b30578687fd5b614b3c898285016142a9565b602083015250604082015184811115614b53578687fd5b614b5f8982850161446d565b604083015250825250614b758660208501614227565b602082015295945050505050565b600060208284031215614b94578081fd5b813561ffff81168114610a75578182fd5b600060208284031215614bb6578081fd5b5035919050565b60008060408385031215614bcf578182fd5b50508035926020909101359150565b600080600060608486031215614bf2578081fd5b8351925060208401519150604084015190509250925092565b6000815180845260208085019450808401835b83811015614c435781516001600160a01b031687529582019590820190600101614c1e565b509495945050505050565b6000815480845260208085019450838352808320835b83811015614c435781546001600160a01b031687529582019560019182019101614c64565b60008151808452614ca181602086016020860161561c565b601f01601f19169290920160200192915050565b6000815160608452614cca6060850182614c0b565b905060208301518482036020860152614ce38282614c0b565b91505060408301518482036040860152614cfd8282614c89565b95945050505050565b60008251614d1881846020870161561c565b9190910192915050565b6000808354600180821660008114614d415760018114614d5857614d87565b60ff198316865260028304607f1686019350614d87565b600283048786526020808720875b83811015614d7f5781548a820152908501908201614d66565b505050860193505b509195945050505050565b61190160f01b81526002810192909252602282015260420190565b6001600160a01b0391909116815260200190565b600060408083016001600160a01b03861684526020828186015281865180845260609350838701915083838202880101838901875b83811015614e4557605f198a84030185528151614e138151615610565b84528087015187850152880151888401889052614e3288850182614cb5565b9587019593505090850190600101614df6565b50909a9950505050505050505050565b6001600160a01b039290921682521515602082015260400190565b6001600160a01b03929092168252602082015260400190565b6001600160a01b03919091168152631cd554d160e21b602082015260400190565b600060208252610a756020830184614c0b565b6000602080830181845280855480835260409250828601915082848202870101878652848620865b83811015614f7a57888303603f190185528154889060018082168015614f125760018114614f2e57614f64565b60028304607f16875260ff1983168b8801528987019350614f64565b60028304808852614f3e87615604565b8d5b82811015614f5b5781548a82018f0152908401908d01614f40565b89018d01955050505b5096890196919450509190910190600101614ee5565b509098975050505050505050565b901515815260200190565b90815260200190565b9586526001600160a01b0394851660208701529290931660408501526060840152608083019190915260a082015260c00190565b9485526020850193909352604084019190915260608301526001600160a01b0316608082015260a00190565b93845260ff9290921660208401526040830152606082015260800190565b602081016007831061502857fe5b91905290565b600060208252610a756020830184614c89565b6020808252818101527f537472696e67733a20686578206c656e67746820696e73756666696369656e74604082015260600190565b6020808252600b908201526a2737ba1036b0b730b3b2b960a91b604082015260600190565b6020808252600f908201526e436f6e74726f6c6c6572206f6e6c7960881b604082015260600190565b6020808252601b908201527f536166654d6174683a206164646974696f6e206f766572666c6f770000000000604082015260600190565b6020808252601d908201527f45524332303a20696e73756666696369656e7420616c6c6f77616e6365000000604082015260600190565b60208082526027908201527f53616665436173743a2076616c756520646f65736e27742066697420696e20316040820152663238206269747360c81b606082015260800190565b60208082526021908201527f5369676e6564536166654d6174683a206164646974696f6e206f766572666c6f6040820152607760f81b606082015260800190565b60208082526011908201527f496e76616c6964207369676e6174757265000000000000000000000000000000604082015260600190565b6020808252601e908201527f45524332303a2064656372656173656420616c6c6f77616e6365203c20300000604082015260600190565b60208082526026908201527f416464726573733a20696e73756666696369656e742062616c616e636520666f6040820152651c8818d85b1b60d21b606082015260800190565b60208082526013908201527f5361666545524332303a20217375636365737300000000000000000000000000604082015260600190565b6020808252602e908201527f496e697469616c697a61626c653a20636f6e747261637420697320616c72656160408201526d191e481a5b9a5d1a585b1a5e995960921b606082015260800190565b6020808252600d908201526c1b9bdd081cdd5c1c1bdc9d1959609a1b604082015260600190565b6020808252600d908201526c4e6f205265656e7472616e637960981b604082015260600190565b60208082526021908201527f536166654d6174683a206d756c7469706c69636174696f6e206f766572666c6f6040820152607760f81b606082015260800190565b6822bc31b430b733b2b960b91b815260200190565b60208082526011908201527f496e76616c6964206c6f636b2074797065000000000000000000000000000000604082015260600190565b60208082526010908201526f4578706972656420646561646c696e6560801b604082015260600190565b6524b9b9bab2b960d11b815260200190565b60208082526014908201527f45524332303a204e6f2061646472657373283029000000000000000000000000604082015260600190565b6020808252601d908201527f416464726573733a2063616c6c20746f206e6f6e2d636f6e7472616374000000604082015260600190565b7f44656c6567617465417070726f76616c73000000000000000000000000000000815260200190565b600060208252610a756020830184614cb5565b600086825260a060208301526154cd60a0830187614c4e565b82810360408401526154df8187614c4e565b9150506001600160a01b0380851660608401528084166080840152509695505050505050565b60006040820184835260206040818501528185518084526060860191508287019350845b8181101561554557845183529383019391830191600101615529565b5090979650505050505050565b95865260ff9490941660208601526001600160a01b0392831660408601529082166060850152811660808401521660a082015260c00190565b60ff91909116815260200190565b60405181810167ffffffffffffffff811182821017156155b857600080fd5b604052919050565b600067ffffffffffffffff8211156155d6578081fd5b5060209081020190565b600067ffffffffffffffff8211156155f6578081fd5b50601f01601f191660200190565b60009081526020902090565b6001600160a01b031690565b60005b8381101561563757818101518382015260200161561f565b83811115610f615750506000910152565b6001600160a01b038116811461180f57600080fdfea2646970667358221220ffe63623146d329cf15bbe35a9c165b5978f9276cac02a46e7fa5c50920c605a64736f6c634300060c0033",
  "linkReferences": {
    "contracts/libraries/StrategyClaim.sol": {
      "StrategyClaim": [
        {
          "length": 20,
          "start": 2909
        },
        {
          "length": 20,
          "start": 6950
        },
        {
          "length": 20,
          "start": 8501
        },
        {
          "length": 20,
          "start": 9034
        },
        {
          "length": 20,
          "start": 11427
        },
        {
          "length": 20,
          "start": 13221
        }
      ]
    }
  },
  "deployedLinkReferences": {
    "contracts/libraries/StrategyClaim.sol": {
      "StrategyClaim": [
        {
          "length": 20,
          "start": 2310
        },
        {
          "length": 20,
          "start": 6351
        },
        {
          "length": 20,
          "start": 7902
        },
        {
          "length": 20,
          "start": 8435
        },
        {
          "length": 20,
          "start": 10828
        },
        {
          "length": 20,
          "start": 12622
        }
      ]
    }
  }
}