{
  "_format": "hh-sol-artifact-1",
  "contractName": "Strategy",
  "sourceName": "contracts/Strategy.sol",
  "abi": [
    {
      "inputs": [
        {
          "internalType": "address",
          "name": "factory_",
          "type": "address"
        },
        {
          "internalType": "address",
          "name": "controller_",
          "type": "address"
        },
        {
          "internalType": "address",
          "name": "synthetixResolver_",
          "type": "address"
        },
        {
          "internalType": "address",
          "name": "aaveResolver_",
          "type": "address"
        }
      ],
      "stateMutability": "nonpayable",
      "type": "constructor"
    },
    {
      "anonymous": false,
      "inputs": [
        {
          "indexed": true,
          "internalType": "address",
          "name": "owner",
          "type": "address"
        },
        {
          "indexed": true,
          "internalType": "address",
          "name": "spender",
          "type": "address"
        },
        {
          "indexed": false,
          "internalType": "uint256",
          "name": "value",
          "type": "uint256"
        }
      ],
      "name": "Approval",
      "type": "event"
    },
    {
      "anonymous": false,
      "inputs": [
        {
          "indexed": true,
          "internalType": "address",
          "name": "account",
          "type": "address"
        },
        {
          "indexed": false,
          "internalType": "uint256",
          "name": "amount",
          "type": "uint256"
        }
      ],
      "name": "PerformanceFee",
      "type": "event"
    },
    {
      "anonymous": false,
      "inputs": [
        {
          "indexed": true,
          "internalType": "address",
          "name": "adapter",
          "type": "address"
        },
        {
          "indexed": true,
          "internalType": "address",
          "name": "token",
          "type": "address"
        }
      ],
      "name": "RewardsClaimed",
      "type": "event"
    },
    {
      "anonymous": false,
      "inputs": [
        {
          "indexed": false,
          "internalType": "uint256",
          "name": "amount",
          "type": "uint256"
        }
      ],
      "name": "StreamingFee",
      "type": "event"
    },
    {
      "anonymous": false,
      "inputs": [
        {
          "indexed": true,
          "internalType": "address",
          "name": "from",
          "type": "address"
        },
        {
          "indexed": true,
          "internalType": "address",
          "name": "to",
          "type": "address"
        },
        {
          "indexed": false,
          "internalType": "uint256",
          "name": "value",
          "type": "uint256"
        }
      ],
      "name": "Transfer",
      "type": "event"
    },
    {
      "anonymous": false,
      "inputs": [
        {
          "indexed": false,
          "internalType": "address",
          "name": "manager",
          "type": "address"
        }
      ],
      "name": "UpdateManager",
      "type": "event"
    },
    {
      "anonymous": false,
      "inputs": [
        {
          "indexed": true,
          "internalType": "address",
          "name": "account",
          "type": "address"
        },
        {
          "indexed": false,
          "internalType": "uint256",
          "name": "amount",
          "type": "uint256"
        },
        {
          "indexed": false,
          "internalType": "uint256[]",
          "name": "amounts",
          "type": "uint256[]"
        }
      ],
      "name": "Withdraw",
      "type": "event"
    },
    {
      "anonymous": false,
      "inputs": [
        {
          "indexed": true,
          "internalType": "address",
          "name": "account",
          "type": "address"
        },
        {
          "indexed": false,
          "internalType": "uint256",
          "name": "amount",
          "type": "uint256"
        }
      ],
      "name": "WithdrawalFee",
      "type": "event"
    },
    {
      "inputs": [],
      "name": "BALANCE_LOW",
      "outputs": [
        {
          "internalType": "string",
          "name": "",
          "type": "string"
        }
      ],
      "stateMutability": "view",
      "type": "function"
    },
    {
      "inputs": [],
      "name": "DOMAIN_SEPARATOR",
      "outputs": [
        {
          "internalType": "bytes32",
          "name": "",
          "type": "bytes32"
        }
      ],
      "stateMutability": "view",
      "type": "function"
    },
    {
      "inputs": [],
      "name": "PERMIT_TYPEHASH",
      "outputs": [
        {
          "internalType": "bytes32",
          "name": "",
          "type": "bytes32"
        }
      ],
      "stateMutability": "view",
      "type": "function"
    },
    {
      "inputs": [],
      "name": "STREAM_FEE",
      "outputs": [
        {
          "internalType": "uint256",
          "name": "",
          "type": "uint256"
        }
      ],
      "stateMutability": "view",
      "type": "function"
    },
    {
      "inputs": [],
      "name": "WITHDRAWAL_FEE",
      "outputs": [
        {
          "internalType": "uint256",
          "name": "",
          "type": "uint256"
        }
      ],
      "stateMutability": "view",
      "type": "function"
    },
    {
      "inputs": [
        {
          "internalType": "address",
          "name": "owner",
          "type": "address"
        },
        {
          "internalType": "address",
          "name": "spender",
          "type": "address"
        }
      ],
      "name": "allowance",
      "outputs": [
        {
          "internalType": "uint256",
          "name": "",
          "type": "uint256"
        }
      ],
      "stateMutability": "view",
      "type": "function"
    },
    {
      "inputs": [
        {
          "internalType": "address",
          "name": "spender",
          "type": "address"
        },
        {
          "internalType": "uint256",
          "name": "amount",
          "type": "uint256"
        }
      ],
      "name": "approve",
      "outputs": [
        {
          "internalType": "bool",
          "name": "",
          "type": "bool"
        }
      ],
      "stateMutability": "nonpayable",
      "type": "function"
    },
    {
      "inputs": [
        {
          "internalType": "address[]",
          "name": "tokens",
          "type": "address[]"
        },
        {
          "internalType": "address",
          "name": "account",
          "type": "address"
        },
        {
          "internalType": "uint256",
          "name": "amount",
          "type": "uint256"
        }
      ],
      "name": "approveDebt",
      "outputs": [],
      "stateMutability": "nonpayable",
      "type": "function"
    },
    {
      "inputs": [
        {
          "internalType": "address",
          "name": "account",
          "type": "address"
        },
        {
          "internalType": "uint256",
          "name": "amount",
          "type": "uint256"
        }
      ],
      "name": "approveSynths",
      "outputs": [],
      "stateMutability": "nonpayable",
      "type": "function"
    },
    {
      "inputs": [
        {
          "internalType": "address",
          "name": "token",
          "type": "address"
        },
        {
          "internalType": "address",
          "name": "account",
          "type": "address"
        },
        {
          "internalType": "uint256",
          "name": "amount",
          "type": "uint256"
        }
      ],
      "name": "approveToken",
      "outputs": [],
      "stateMutability": "nonpayable",
      "type": "function"
    },
    {
      "inputs": [
        {
          "internalType": "address[]",
          "name": "tokens",
          "type": "address[]"
        },
        {
          "internalType": "address",
          "name": "account",
          "type": "address"
        },
        {
          "internalType": "uint256",
          "name": "amount",
          "type": "uint256"
        }
      ],
      "name": "approveTokens",
      "outputs": [],
      "stateMutability": "nonpayable",
      "type": "function"
    },
    {
      "inputs": [
        {
          "internalType": "address",
          "name": "account",
          "type": "address"
        }
      ],
      "name": "balanceOf",
      "outputs": [
        {
          "internalType": "uint256",
          "name": "",
          "type": "uint256"
        }
      ],
      "stateMutability": "view",
      "type": "function"
    },
    {
      "inputs": [
        {
          "internalType": "address[]",
          "name": "adapters",
          "type": "address[]"
        },
        {
          "internalType": "address[]",
          "name": "tokens",
          "type": "address[]"
        }
      ],
      "name": "batchClaimRewards",
      "outputs": [],
      "stateMutability": "nonpayable",
      "type": "function"
    },
    {
      "inputs": [
        {
          "internalType": "address",
          "name": "account",
          "type": "address"
        },
        {
          "internalType": "uint256",
          "name": "amount",
          "type": "uint256"
        }
      ],
      "name": "burn",
      "outputs": [
        {
          "internalType": "uint256",
          "name": "",
          "type": "uint256"
        }
      ],
      "stateMutability": "nonpayable",
      "type": "function"
    },
    {
      "inputs": [],
      "name": "chainId",
      "outputs": [
        {
          "internalType": "uint256",
          "name": "id",
          "type": "uint256"
        }
      ],
      "stateMutability": "pure",
      "type": "function"
    },
    {
      "inputs": [
        {
          "internalType": "address",
          "name": "adapter",
          "type": "address"
        },
        {
          "internalType": "address",
          "name": "token",
          "type": "address"
        }
      ],
      "name": "claimRewards",
      "outputs": [],
      "stateMutability": "nonpayable",
      "type": "function"
    },
    {
      "inputs": [],
      "name": "controller",
      "outputs": [
        {
          "internalType": "address",
          "name": "",
          "type": "address"
        }
      ],
      "stateMutability": "view",
      "type": "function"
    },
    {
      "inputs": [],
      "name": "debt",
      "outputs": [
        {
          "internalType": "address[]",
          "name": "",
          "type": "address[]"
        }
      ],
      "stateMutability": "view",
      "type": "function"
    },
    {
      "inputs": [],
      "name": "decimals",
      "outputs": [
        {
          "internalType": "uint8",
          "name": "",
          "type": "uint8"
        }
      ],
      "stateMutability": "view",
      "type": "function"
    },
    {
      "inputs": [
        {
          "internalType": "address",
          "name": "spender",
          "type": "address"
        },
        {
          "internalType": "uint256",
          "name": "subtractedValue",
          "type": "uint256"
        }
      ],
      "name": "decreaseAllowance",
      "outputs": [
        {
          "internalType": "bool",
          "name": "",
          "type": "bool"
        }
      ],
      "stateMutability": "nonpayable",
      "type": "function"
    },
    {
      "inputs": [
        {
          "internalType": "address",
          "name": "adapter",
          "type": "address"
        },
        {
          "internalType": "uint256",
          "name": "amount",
          "type": "uint256"
        },
        {
          "internalType": "address",
          "name": "tokenIn",
          "type": "address"
        },
        {
          "internalType": "address",
          "name": "tokenOut",
          "type": "address"
        }
      ],
      "name": "delegateSwap",
      "outputs": [],
      "stateMutability": "nonpayable",
      "type": "function"
    },
    {
      "inputs": [],
      "name": "factory",
      "outputs": [
        {
          "internalType": "address",
          "name": "",
          "type": "address"
        }
      ],
      "stateMutability": "view",
      "type": "function"
    },
    {
      "inputs": [],
      "name": "getLastTokenValue",
      "outputs": [
        {
          "internalType": "uint256",
          "name": "",
          "type": "uint256"
        }
      ],
      "stateMutability": "view",
      "type": "function"
    },
    {
      "inputs": [
        {
          "internalType": "address",
          "name": "account",
          "type": "address"
        }
      ],
      "name": "getPaidTokenValue",
      "outputs": [
        {
          "internalType": "uint256",
          "name": "",
          "type": "uint256"
        }
      ],
      "stateMutability": "view",
      "type": "function"
    },
    {
      "inputs": [
        {
          "internalType": "address",
          "name": "item",
          "type": "address"
        }
      ],
      "name": "getPercentage",
      "outputs": [
        {
          "internalType": "int256",
          "name": "",
          "type": "int256"
        }
      ],
      "stateMutability": "view",
      "type": "function"
    },
    {
      "inputs": [
        {
          "internalType": "address",
          "name": "account",
          "type": "address"
        }
      ],
      "name": "getPerformanceFeeOwed",
      "outputs": [
        {
          "internalType": "uint256",
          "name": "",
          "type": "uint256"
        }
      ],
      "stateMutability": "view",
      "type": "function"
    },
    {
      "inputs": [
        {
          "internalType": "address",
          "name": "item",
          "type": "address"
        }
      ],
      "name": "getTradeData",
      "outputs": [
        {
          "components": [
            {
              "internalType": "address[]",
              "name": "adapters",
              "type": "address[]"
            },
            {
              "internalType": "address[]",
              "name": "path",
              "type": "address[]"
            },
            {
              "internalType": "bytes",
              "name": "cache",
              "type": "bytes"
            }
          ],
          "internalType": "struct StrategyTypes.TradeData",
          "name": "",
          "type": "tuple"
        }
      ],
      "stateMutability": "view",
      "type": "function"
    },
    {
      "inputs": [
        {
          "internalType": "address",
          "name": "spender",
          "type": "address"
        },
        {
          "internalType": "uint256",
          "name": "addedValue",
          "type": "uint256"
        }
      ],
      "name": "increaseAllowance",
      "outputs": [
        {
          "internalType": "bool",
          "name": "",
          "type": "bool"
        }
      ],
      "stateMutability": "nonpayable",
      "type": "function"
    },
    {
      "inputs": [
        {
          "internalType": "string",
          "name": "name_",
          "type": "string"
        },
        {
          "internalType": "string",
          "name": "symbol_",
          "type": "string"
        },
        {
          "internalType": "string",
          "name": "version_",
          "type": "string"
        },
        {
          "internalType": "address",
          "name": "manager_",
          "type": "address"
        },
        {
          "components": [
            {
              "internalType": "address",
              "name": "item",
              "type": "address"
            },
            {
              "internalType": "int256",
              "name": "percentage",
              "type": "int256"
            },
            {
              "components": [
                {
                  "internalType": "address[]",
                  "name": "adapters",
                  "type": "address[]"
                },
                {
                  "internalType": "address[]",
                  "name": "path",
                  "type": "address[]"
                },
                {
                  "internalType": "bytes",
                  "name": "cache",
                  "type": "bytes"
                }
              ],
              "internalType": "struct StrategyTypes.TradeData",
              "name": "data",
              "type": "tuple"
            }
          ],
          "internalType": "struct StrategyTypes.StrategyItem[]",
          "name": "strategyItems_",
          "type": "tuple[]"
        }
      ],
      "name": "initialize",
      "outputs": [
        {
          "internalType": "bool",
          "name": "",
          "type": "bool"
        }
      ],
      "stateMutability": "nonpayable",
      "type": "function"
    },
    {
      "inputs": [],
      "name": "issueStreamingFee",
      "outputs": [],
      "stateMutability": "nonpayable",
      "type": "function"
    },
    {
      "inputs": [],
      "name": "items",
      "outputs": [
        {
          "internalType": "address[]",
          "name": "",
          "type": "address[]"
        }
      ],
      "stateMutability": "view",
      "type": "function"
    },
    {
      "inputs": [],
      "name": "lock",
      "outputs": [],
      "stateMutability": "nonpayable",
      "type": "function"
    },
    {
      "inputs": [],
      "name": "locked",
      "outputs": [
        {
          "internalType": "bool",
          "name": "",
          "type": "bool"
        }
      ],
      "stateMutability": "view",
      "type": "function"
    },
    {
      "inputs": [],
      "name": "manager",
      "outputs": [
        {
          "internalType": "address",
          "name": "",
          "type": "address"
        }
      ],
      "stateMutability": "view",
      "type": "function"
    },
    {
      "inputs": [
        {
          "internalType": "address",
          "name": "account",
          "type": "address"
        },
        {
          "internalType": "uint256",
          "name": "amount",
          "type": "uint256"
        }
      ],
      "name": "mint",
      "outputs": [],
      "stateMutability": "nonpayable",
      "type": "function"
    },
    {
      "inputs": [],
      "name": "name",
      "outputs": [
        {
          "internalType": "string",
          "name": "",
          "type": "string"
        }
      ],
      "stateMutability": "view",
      "type": "function"
    },
    {
      "inputs": [
        {
          "internalType": "address",
          "name": "owner",
          "type": "address"
        }
      ],
      "name": "nonces",
      "outputs": [
        {
          "internalType": "uint256",
          "name": "",
          "type": "uint256"
        }
      ],
      "stateMutability": "view",
      "type": "function"
    },
    {
      "inputs": [],
      "name": "oracle",
      "outputs": [
        {
          "internalType": "contract IOracle",
          "name": "",
          "type": "address"
        }
      ],
      "stateMutability": "view",
      "type": "function"
    },
    {
      "inputs": [],
      "name": "performanceFee",
      "outputs": [
        {
          "internalType": "uint256",
          "name": "",
          "type": "uint256"
        }
      ],
      "stateMutability": "view",
      "type": "function"
    },
    {
      "inputs": [
        {
          "internalType": "address",
          "name": "owner",
          "type": "address"
        },
        {
          "internalType": "address",
          "name": "spender",
          "type": "address"
        },
        {
          "internalType": "uint256",
          "name": "value",
          "type": "uint256"
        },
        {
          "internalType": "uint256",
          "name": "deadline",
          "type": "uint256"
        },
        {
          "internalType": "uint8",
          "name": "v",
          "type": "uint8"
        },
        {
          "internalType": "bytes32",
          "name": "r",
          "type": "bytes32"
        },
        {
          "internalType": "bytes32",
          "name": "s",
          "type": "bytes32"
        }
      ],
      "name": "permit",
      "outputs": [],
      "stateMutability": "nonpayable",
      "type": "function"
    },
    {
      "inputs": [],
      "name": "rebalanceThreshold",
      "outputs": [
        {
          "internalType": "uint256",
          "name": "",
          "type": "uint256"
        }
      ],
      "stateMutability": "view",
      "type": "function"
    },
    {
      "inputs": [
        {
          "internalType": "address",
          "name": "token",
          "type": "address"
        }
      ],
      "name": "setCollateral",
      "outputs": [],
      "stateMutability": "nonpayable",
      "type": "function"
    },
    {
      "inputs": [
        {
          "internalType": "address",
          "name": "router",
          "type": "address"
        }
      ],
      "name": "setRouter",
      "outputs": [],
      "stateMutability": "nonpayable",
      "type": "function"
    },
    {
      "inputs": [
        {
          "components": [
            {
              "internalType": "address",
              "name": "item",
              "type": "address"
            },
            {
              "internalType": "int256",
              "name": "percentage",
              "type": "int256"
            },
            {
              "components": [
                {
                  "internalType": "address[]",
                  "name": "adapters",
                  "type": "address[]"
                },
                {
                  "internalType": "address[]",
                  "name": "path",
                  "type": "address[]"
                },
                {
                  "internalType": "bytes",
                  "name": "cache",
                  "type": "bytes"
                }
              ],
              "internalType": "struct StrategyTypes.TradeData",
              "name": "data",
              "type": "tuple"
            }
          ],
          "internalType": "struct StrategyTypes.StrategyItem[]",
          "name": "newItems",
          "type": "tuple[]"
        }
      ],
      "name": "setStructure",
      "outputs": [],
      "stateMutability": "nonpayable",
      "type": "function"
    },
    {
      "inputs": [],
      "name": "settleSynths",
      "outputs": [],
      "stateMutability": "nonpayable",
      "type": "function"
    },
    {
      "inputs": [],
      "name": "supportsDebt",
      "outputs": [
        {
          "internalType": "bool",
          "name": "",
          "type": "bool"
        }
      ],
      "stateMutability": "view",
      "type": "function"
    },
    {
      "inputs": [],
      "name": "supportsSynths",
      "outputs": [
        {
          "internalType": "bool",
          "name": "",
          "type": "bool"
        }
      ],
      "stateMutability": "view",
      "type": "function"
    },
    {
      "inputs": [],
      "name": "symbol",
      "outputs": [
        {
          "internalType": "string",
          "name": "",
          "type": "string"
        }
      ],
      "stateMutability": "view",
      "type": "function"
    },
    {
      "inputs": [],
      "name": "synths",
      "outputs": [
        {
          "internalType": "address[]",
          "name": "",
          "type": "address[]"
        }
      ],
      "stateMutability": "view",
      "type": "function"
    },
    {
      "inputs": [],
      "name": "totalSupply",
      "outputs": [
        {
          "internalType": "uint256",
          "name": "",
          "type": "uint256"
        }
      ],
      "stateMutability": "view",
      "type": "function"
    },
    {
      "inputs": [
        {
          "internalType": "address",
          "name": "recipient",
          "type": "address"
        },
        {
          "internalType": "uint256",
          "name": "amount",
          "type": "uint256"
        }
      ],
      "name": "transfer",
      "outputs": [
        {
          "internalType": "bool",
          "name": "",
          "type": "bool"
        }
      ],
      "stateMutability": "nonpayable",
      "type": "function"
    },
    {
      "inputs": [
        {
          "internalType": "address",
          "name": "sender",
          "type": "address"
        },
        {
          "internalType": "address",
          "name": "recipient",
          "type": "address"
        },
        {
          "internalType": "uint256",
          "name": "amount",
          "type": "uint256"
        }
      ],
      "name": "transferFrom",
      "outputs": [
        {
          "internalType": "bool",
          "name": "",
          "type": "bool"
        }
      ],
      "stateMutability": "nonpayable",
      "type": "function"
    },
    {
      "inputs": [],
      "name": "unlock",
      "outputs": [],
      "stateMutability": "nonpayable",
      "type": "function"
    },
    {
      "inputs": [],
      "name": "updateAddresses",
      "outputs": [],
      "stateMutability": "nonpayable",
      "type": "function"
    },
    {
      "inputs": [
        {
          "internalType": "address",
          "name": "newManager",
          "type": "address"
        }
      ],
      "name": "updateManager",
      "outputs": [],
      "stateMutability": "nonpayable",
      "type": "function"
    },
    {
      "inputs": [
        {
          "internalType": "uint16",
          "name": "fee",
          "type": "uint16"
        }
      ],
      "name": "updatePerformanceFee",
      "outputs": [],
      "stateMutability": "nonpayable",
      "type": "function"
    },
    {
      "inputs": [
        {
          "internalType": "uint16",
          "name": "threshold",
          "type": "uint16"
        }
      ],
      "name": "updateRebalanceThreshold",
      "outputs": [],
      "stateMutability": "nonpayable",
      "type": "function"
    },
    {
      "inputs": [],
      "name": "updateTokenValue",
      "outputs": [],
      "stateMutability": "nonpayable",
      "type": "function"
    },
    {
      "inputs": [
        {
          "internalType": "uint256",
          "name": "total",
          "type": "uint256"
        },
        {
          "internalType": "uint256",
          "name": "supply",
          "type": "uint256"
        }
      ],
      "name": "updateTokenValue",
      "outputs": [],
      "stateMutability": "nonpayable",
      "type": "function"
    },
    {
      "inputs": [
        {
          "internalType": "address",
          "name": "item",
          "type": "address"
        },
        {
          "components": [
            {
              "internalType": "address[]",
              "name": "adapters",
              "type": "address[]"
            },
            {
              "internalType": "address[]",
              "name": "path",
              "type": "address[]"
            },
            {
              "internalType": "bytes",
              "name": "cache",
              "type": "bytes"
            }
          ],
          "internalType": "struct StrategyTypes.TradeData",
          "name": "data",
          "type": "tuple"
        }
      ],
      "name": "updateTradeData",
      "outputs": [],
      "stateMutability": "nonpayable",
      "type": "function"
    },
    {
      "inputs": [
        {
          "internalType": "string",
          "name": "newVersion",
          "type": "string"
        }
      ],
      "name": "updateVersion",
      "outputs": [],
      "stateMutability": "nonpayable",
      "type": "function"
    },
    {
      "inputs": [],
      "name": "version",
      "outputs": [
        {
          "internalType": "string",
          "name": "",
          "type": "string"
        }
      ],
      "stateMutability": "view",
      "type": "function"
    },
    {
      "inputs": [],
      "name": "whitelist",
      "outputs": [
        {
          "internalType": "contract IWhitelist",
          "name": "",
          "type": "address"
        }
      ],
      "stateMutability": "view",
      "type": "function"
    },
    {
      "inputs": [
        {
          "internalType": "uint256",
          "name": "amount",
          "type": "uint256"
        }
      ],
      "name": "withdrawAll",
      "outputs": [],
      "stateMutability": "nonpayable",
      "type": "function"
    },
    {
      "inputs": [
        {
          "internalType": "address[]",
          "name": "holders",
          "type": "address[]"
        }
      ],
      "name": "withdrawPerformanceFee",
      "outputs": [],
      "stateMutability": "nonpayable",
      "type": "function"
    },
    {
      "inputs": [],
      "name": "withdrawStreamingFee",
      "outputs": [],
      "stateMutability": "nonpayable",
      "type": "function"
    }
  ],
  "bytecode": "0x6101006040523480156200001257600080fd5b506040516200554738038062005547833981016040819052620000359162000120565b604854610100900460ff168062000051575062000051620000fc565b8062000060575060485460ff16155b620000885760405162461bcd60e51b81526004016200007f9062000180565b60405180910390fd5b604854610100900460ff16158015620000b4576048805460ff1961ff0019909116610100171660011790555b6001600160601b0319606086811b821660c05285811b821660e05284811b821660805283901b1660a0528015620000f1576048805461ff00191690555b5050505050620001ce565b303b1590565b80516001600160a01b03811681146200011a57600080fd5b92915050565b6000806000806080858703121562000136578384fd5b62000142868662000102565b935062000153866020870162000102565b925062000164866040870162000102565b915062000175866060870162000102565b905092959194509250565b6020808252602e908201527f496e697469616c697a61626c653a20636f6e747261637420697320616c72656160408201526d191e481a5b9a5d1a585b1a5e995960921b606082015260800190565b60805160601c60a05160601c60c05160601c60e05160601c6152ce62000279600039806108275280610bb95280610c7152806111d052806113db52806116b05280611e035280611ecb5280611f3c528061215e528061239b52806123fb528061244c52806124a852806129e15280612a945280612ab852508061125e528061170f52806121c852806125935250806114e9525080610d5c5280610de75280611fb352506152ce6000f3fe608060405234801561001057600080fd5b50600436106103265760003560e01c80638db16ff3116101aa578063c0d78655116100f5578063c0d7865514610616578063c45a015514610629578063cacefe5614610631578063cf30901214610644578063d1cc8c9d1461064c578063d505accf14610654578063d745078814610667578063d81076a31461067a578063da3e33971461068d578063dbbc5aca146106a0578063dd62ed3e146106b3578063df3568d9146106c6578063e26db6fc146106d9578063f1e42ccd146106e1578063f729023f146106f4578063f77c479114610707578063f83d08ba1461070f57610326565b80638db16ff314610549578063939a2bfc1461055c57806393e59dc114610564578063958e2d311461056c57806395d89b411461057f5780639a8a0592146105875780639b45c5c41461058f5780639dc29fac146105975780639f147050146105aa578063a457c2d7146105b2578063a5d33ed5146105c5578063a69df4b5146105cd578063a9059cbb146105d5578063aa7f9bae146105e8578063bfba8141146105fb578063c06fad061461060e57610326565b8063481c6a7511610275578063481c6a751461045c57806349408949146104715780634a2f38a51461047957806354fd4d501461048157806358aba00f14610489578063709ac1c31461049c57806370a08231146104af5780637240f9af146104c25780637a1bb162146104d55780637dc0d1d0146104dd5780637ea2417b146104e55780637ecebe00146104f8578063803c88901461050b57806381bd8a50146105135780638778878214610526578063886abef51461052e5780638aac766b1461054157610326565b806306fdde031461032b578063095ea7b3146103495780630dca59c1146103695780631434ffac1461037e5780631649741c1461039357806318160ddd1461039b57806323b872dd146103b057806330adf81f146103c3578063313ce567146103cb578063336685fc146103e05780633644e5151461040057806339509351146104085780633aa932541461041b5780633dfe9f6a1461042e5780633ebbc9c41461043657806340c10f1914610449575b600080fd5b610333610717565b6040516103409190614cc3565b60405180910390f35b61035c6103573660046145f1565b6107ad565b6040516103409190614c31565b6103716107c4565b6040516103409190614c1e565b61039161038c36600461461c565b610825565b005b610333610922565b6103a3610949565b6040516103409190614c3c565b61035c6103be3660046144ef565b61094f565b6103a36109d2565b6103d36109f6565b60405161034091906151c4565b6103f36103ee36600461447f565b6109fb565b604051610340919061512b565b6103a3610b7b565b61035c6104163660046145f1565b610b81565b6103916104293660046146a0565b610bb7565b6103a3610c4a565b6103a361044436600461447f565b610c54565b6103916104573660046145f1565b610c6f565b610464610d1e565b6040516103409190614b22565b61035c610d2d565b610391610d35565b6103336110ab565b61039161049736600461447f565b61110c565b6103916104aa366004614894565b6111ce565b6103a36104bd36600461447f565b611238565b6103916104d03660046147a6565b611253565b6103a36112c2565b6104646112cd565b6103916104f33660046146e6565b6112dc565b6103a361050636600461447f565b61135e565b610371611379565b6103916105213660046146a0565b6113d9565b6103a36114ac565b61039161053c36600461447f565b6114bd565b6103916115dd565b61039161055736600461466e565b611602565b6103916116ae565b61046461170b565b61039161057a3660046148b6565b6117a3565b610333611d84565b6103a3611de5565b6103a3611de9565b6103a36105a53660046145f1565b611dff565b610391611e53565b61035c6105c03660046145f1565b611e6b565b6103a3611ebe565b610391611ec9565b61035c6105e33660046145f1565b611f11565b6103a36105f636600461447f565b611f1e565b6103916106093660046145f1565b611f3a565b6103716120fc565b61039161062436600461447f565b61215c565b6104646121c6565b6103a361063f36600461447f565b6121ea565b61035c612205565b61035c612210565b61039161066236600461452f565b612218565b610391610675366004614894565b612399565b61039161068836600461473c565b6123f9565b61039161069b3660046144ef565b61244a565b6103916106ae366004614969565b6124a6565b6103a36106c13660046144b7565b6124f8565b6103916106d43660046145a4565b612523565b61039161258f565b6103916106ef3660046144b7565b61288f565b61035c6107023660046147d8565b6128b1565b610464612a92565b610391612ab6565b60058054604080516020601f60026000196101006001881615020190951694909404938401819004810282018101909252828152606093909290918301828280156107a35780601f10610778576101008083540402835291602001916107a3565b820191906000526020600020905b81548152906001019060200180831161078657829003601f168201915b5050505050905090565b60006107ba338484612b06565b5060015b92915050565b606060138054806020026020016040519081016040528092919081815260200182805480156107a357602002820191906000526020600020905b81546001600160a01b031681526001909101906020018083116107fe575050505050905090565b7f00000000000000000000000000000000000000000000000000000000000000006001600160a01b031633146108765760405162461bcd60e51b815260040161086d90614d5c565b60405180910390fd5b61087f84612b80565b60607f230f11c7cc54d258ee9bfebf8292225b43b26633217971638b4a8364be584e17846001858530306040516024016108be9695949392919061518b565b60408051601f198184030181529190526020810180516001600160e01b03166001600160e01b031990931692909217909152905060005a905060008060008451602086018a86f4905080610919576040513d806000833e8082fd5b50505050505050565b6040518060400160405280601d815260200160008051602061525983398151915281525081565b60045490565b600061095c848484612c1f565b604080518082018252601881527745524332303a20616c6c6f77616e636520746f6f206c6f7760401b6020808301919091526001600160a01b03871660009081526001825283812033808352925292909220546109c792879290916109c2918790612d07565b612b06565b5060015b9392505050565b7f6e71edae12b1b97f4d1f60370fef10105fa2faae0126114a169c64845d6126c981565b601281565b610a03614103565b6001600160a01b03821660009081526015602090815260409182902082518154608093810282018401909452606081018481529093919284928491840182828015610a7757602002820191906000526020600020905b81546001600160a01b03168152600190910190602001808311610a59575b5050505050815260200160018201805480602002602001604051908101604052809291908181526020018280548015610ad957602002820191906000526020600020905b81546001600160a01b03168152600190910190602001808311610abb575b5050509183525050600282810180546040805160206001841615610100026000190190931694909404601f81018390048302850183019091528084529381019390830182828015610b6b5780601f10610b4057610100808354040283529160200191610b6b565b820191906000526020600020905b815481529060010190602001808311610b4e57829003601f168201915b5050505050815250509050919050565b60005481565b3360008181526001602090815260408083206001600160a01b038716845290915281205490916107ba9185906109c29086612d33565b7f00000000000000000000000000000000000000000000000000000000000000006001600160a01b03163314610bff5760405162461bcd60e51b815260040161086d90614d5c565b60005b8351811015610c4457610c3c8383868481518110610c1c57fe5b60200260200101516001600160a01b0316612d589092919063ffffffff16565b600101610c02565b50505050565b60095461ffff1690565b6001600160a01b031660009081526014602052604090205490565b7f00000000000000000000000000000000000000000000000000000000000000006001600160a01b03163314610cb75760405162461bcd60e51b815260040161086d90614d5c565b600c546009546008546001600160a01b0390921691600091610cf99186918691600160701b9091046001600160801b031690600160e81b900461ffff16612dae565b90508015610d0b57610d0b8282612f4c565b610d158484612f86565b610c448261300b565b600b546001600160a01b031690565b601254151590565b610d3d610d2d565b156110a9576040516321f8a72160e01b81526000906001600160a01b037f000000000000000000000000000000000000000000000000000000000000000016906321f8a72190610d8f90600401614f82565b602060405180830381600087803b158015610da957600080fd5b505af1158015610dbd573d6000803e3d6000fd5b505050506040513d601f19601f82011682018060405250810190610de1919061449b565b905060007f00000000000000000000000000000000000000000000000000000000000000006001600160a01b03166321f8a7216040518163ffffffff1660e01b8152600401610e2f90614fe3565b602060405180830381600087803b158015610e4957600080fd5b505af1158015610e5d573d6000803e3d6000fd5b505050506040513d601f19601f82011682018060405250810190610e81919061449b565b6040516306c5a00b60e21b81529091506001600160a01b03831690631b16802c90610eb0903090600401614bfd565b606060405180830381600087803b158015610eca57600080fd5b505af1158015610ede573d6000803e3d6000fd5b505050506040513d601f19601f82011682018060405250810190610f02919061498a565b50505060005b6012548110156110a557826001600160a01b0316631b16802c30846001600160a01b03166316b2213f60128681548110610f3e57fe5b6000918252602091829020015460408051636a5c1cc960e11b815290516001600160a01b039092169263d4b8399292600480840193829003018186803b158015610f8757600080fd5b505afa158015610f9b573d6000803e3d6000fd5b505050506040513d601f19601f82011682018060405250810190610fbf919061449b565b6040518263ffffffff1660e01b8152600401610fdb9190614b22565b60206040518083038186803b158015610ff357600080fd5b505afa158015611007573d6000803e3d6000fd5b505050506040513d601f19601f8201168201806040525081019061102b919061478e565b6040518363ffffffff1660e01b8152600401611048929190614be4565b606060405180830381600087803b15801561106257600080fd5b505af1158015611076573d6000803e3d6000fd5b505050506040513d601f19601f8201168201806040525081019061109a919061498a565b505050600101610f08565b5050505b565b60078054604080516020601f60026000196101006001881615020190951694909404938401819004810282018101909252828152606093909290918301828280156107a35780601f10610778576101008083540402835291602001916107a3565b611114613075565b600b546001600160a01b03828116911614156111425760405162461bcd60e51b815260040161086d90614e4b565b600954600b80546001600160a01b039081166000908152600a6020526040808220600160701b9095046001600160801b031690945590841680825290839020600019905581546001600160a01b031916179055517f5c18ab5c697b63d102fc7e14c77bfaef0f1013206eca139920fd389277814e09906111c3908390614b22565b60405180910390a150565b7f00000000000000000000000000000000000000000000000000000000000000006001600160a01b031633146112165760405162461bcd60e51b815260040161086d90614d5c565b6008805461ffff909216600160e81b0261ffff60e81b19909216919091179055565b6001600160a01b031660009081526002602052604090205490565b336001600160a01b037f0000000000000000000000000000000000000000000000000000000000000000161461129b5760405162461bcd60e51b815260040161086d90614cfb565b80516112ae906007906020840190614124565b506112b761309f565b6112bf61258f565b50565b66038e67b515a02981565b600d546001600160a01b031690565b6112e4613128565b6112ec613075565b805182511461130d5760405162461bcd60e51b815260040161086d90614e9e565b60005b82518110156113515761134983828151811061132857fe5b602002602001015183838151811061133c57fe5b602002602001015161315a565b600101611310565b5061135a613239565b5050565b6001600160a01b031660009081526003602052604090205490565b606060128054806020026020016040519081016040528092919081815260200182805480156107a3576020028201919060005260206000209081546001600160a01b031681526001909101906020018083116107fe575050505050905090565b7f00000000000000000000000000000000000000000000000000000000000000006001600160a01b031633146114215760405162461bcd60e51b815260040161086d90614d5c565b60005b8351811015610c445783818151811061143957fe5b60200260200101516001600160a01b031663c04a8a1084846040518363ffffffff1660e01b815260040161146e929190614be4565b600060405180830381600087803b15801561148857600080fd5b505af115801561149c573d6000803e3d6000fd5b5050600190920191506114249050565b600854600160e81b900461ffff1690565b6010546001600160a01b031633146114e75760405162461bcd60e51b815260040161086d90614d85565b7f00000000000000000000000000000000000000000000000000000000000000006001600160a01b0316630261bf8b6040518163ffffffff1660e01b8152600401602060405180830381600087803b15801561154257600080fd5b505af1158015611556573d6000803e3d6000fd5b505050506040513d601f19601f8201168201806040525081019061157a919061449b565b6001600160a01b0316635a3b74b98260016040518363ffffffff1660e01b81526004016115a8929190614bc9565b600060405180830381600087803b1580156115c257600080fd5b505af11580156115d6573d6000803e3d6000fd5b5050505050565b6115e5613128565b600c546115fa906001600160a01b0316613245565b6110a9613239565b61160a613128565b611612613075565b61161a61330c565b600854600160e81b900461ffff166000805b83518110156116665761165c61165585838151811061164757fe5b6020026020010151856133a4565b8390612d33565b915060010161162c565b50600081116116875760405162461bcd60e51b815260040161086d9061505a565b600c546001600160a01b031661169d8183612f4c565b6116a68161300b565b610c44613239565b7f00000000000000000000000000000000000000000000000000000000000000006001600160a01b031633146116f65760405162461bcd60e51b815260040161086d90614d5c565b600c546110a9906001600160a01b0316613245565b60007f00000000000000000000000000000000000000000000000000000000000000006001600160a01b03166393e59dc16040518163ffffffff1660e01b815260040160206040518083038186803b15801561176657600080fd5b505afa15801561177a573d6000803e3d6000fd5b505050506040513d601f19601f8201168201806040525081019061179e919061449b565b905090565b6117ab613128565b601354156117cb5760405162461bcd60e51b815260040161086d90614d2e565b600081116117eb5760405162461bcd60e51b815260040161086d90614fc1565b6117f3610d35565b6004546000906118033384613428565b92506118218161181b85670de0b6b3a764000061345f565b90613499565b601154601254919350915080151560008161183f5783600101611846565b8284016002015b90506060816001600160401b038111801561186057600080fd5b5060405190808252806020026020018201604052801561188a578160200160208202803683370190505b5090506060826001600160401b03811180156118a557600080fd5b506040519080825280602002602001820160405280156118cf578160200160208202803683370190505b50905060005b868110156119d6576000601182815481106118ec57fe5b60009182526020822001546040516370a0823160e01b81526001600160a01b03909116925082906370a0823190611927903090600401614b22565b60206040518083038186803b15801561193f57600080fd5b505afa158015611953573d6000803e3d6000fd5b505050506040513d601f19601f82011682018060405250810190611977919061478e565b905061198f670de0b6b3a764000061181b838d61345f565b84848151811061199b57fe5b602002602001018181525050818584815181106119b457fe5b6001600160a01b039092166020928302919091019091015250506001016118d5565b508315611bd157855b60028403811015611ae55760006012888303815481106119fb57fe5b60009182526020822001546040516370a0823160e01b81526001600160a01b03909116925082906370a0823190611a36903090600401614b22565b60206040518083038186803b158015611a4e57600080fd5b505afa158015611a62573d6000803e3d6000fd5b505050506040513d601f19601f82011682018060405250810190611a86919061478e565b9050611a9e670de0b6b3a764000061181b838d61345f565b848481518110611aaa57fe5b60200260200101818152505081858481518110611ac357fe5b6001600160a01b039092166020928302919091019091015250506001016119df565b50600f546040516370a0823160e01b81526001600160a01b039091169060009082906370a0823190611b1b903090600401614b22565b60206040518083038186803b158015611b3357600080fd5b505afa158015611b47573d6000803e3d6000fd5b505050506040513d601f19601f82011682018060405250810190611b6b919061478e565b9050611b83670de0b6b3a764000061181b838c61345f565b836002870381518110611b9257fe5b60200260200101818152505081846002870381518110611bae57fe5b60200260200101906001600160a01b031690816001600160a01b03168152505050505b600e546040516370a0823160e01b81526001600160a01b039091169060009082906370a0823190611c06903090600401614b22565b60206040518083038186803b158015611c1e57600080fd5b505afa158015611c32573d6000803e3d6000fd5b505050506040513d601f19601f82011682018060405250810190611c56919061478e565b9050611c6e670de0b6b3a764000061181b838c61345f565b836001870381518110611c7d57fe5b60200260200101818152505081846001870381518110611c9957fe5b60200260200101906001600160a01b031690816001600160a01b03168152505060005b85811015611d2c576000848281518110611cd257fe5b60200260200101511115611d2457611d2433858381518110611cf057fe5b6020026020010151878481518110611d0457fe5b60200260200101516001600160a01b03166134d89092919063ffffffff16565b600101611cbc565b50336001600160a01b03167faef68853d1f7f9e4e5fe02896078a87a319c7b257208dac49346c8f03b36c6858b85604051611d6892919061513e565b60405180910390a2611d78613239565b50505050505050505050565b60068054604080516020601f60026000196101006001881615020190951694909404938401819004810282018101909252828152606093909290918301828280156107a35780601f10610778576101008083540402835291602001916107a3565b4690565b600954600160701b90046001600160801b031690565b60007f00000000000000000000000000000000000000000000000000000000000000006001600160a01b03163314611e495760405162461bcd60e51b815260040161086d90614d5c565b6109cb8383613428565b611e5b613128565b611e63613075565b6115fa61330c565b3360009081526001602090815260408083206001600160a01b038616845290915281205482811015611eaf5760405162461bcd60e51b815260040161086d906150c9565b6109c733856109c284876134f7565b66071afd498d000081565b7f00000000000000000000000000000000000000000000000000000000000000006001600160a01b031633146115fa5760405162461bcd60e51b815260040161086d90614d5c565b60006107ba338484612c1f565b6008546000906107be908390600160e81b900461ffff16613539565b7f00000000000000000000000000000000000000000000000000000000000000006001600160a01b03163314611f825760405162461bcd60e51b815260040161086d90614d5c565b600f54611f99906001600160a01b03168383612d58565b6040516321f8a72160e01b81526000906001600160a01b037f000000000000000000000000000000000000000000000000000000000000000016906321f8a72190611fe69060040161510e565b602060405180830381600087803b15801561200057600080fd5b505af1158015612014573d6000803e3d6000fd5b505050506040513d601f19601f82011682018060405250810190612038919061449b565b9050816120a257604051635c8ab77d60e11b81526001600160a01b0382169063b9156efa9061206b908690600401614b22565b600060405180830381600087803b15801561208557600080fd5b505af1158015612099573d6000803e3d6000fd5b505050506110a5565b60405163447fbc6360e01b81526001600160a01b0382169063447fbc63906120ce908690600401614b22565b600060405180830381600087803b1580156120e857600080fd5b505af1158015610919573d6000803e3d6000fd5b606060118054806020026020016040519081016040528092919081815260200182805480156107a3576020028201919060005260206000209081546001600160a01b031681526001909101906020018083116107fe575050505050905090565b7f00000000000000000000000000000000000000000000000000000000000000006001600160a01b031633146121a45760405162461bcd60e51b815260040161086d90614d5c565b601080546001600160a01b0319166001600160a01b0392909216919091179055565b7f000000000000000000000000000000000000000000000000000000000000000081565b6001600160a01b03166000908152600a602052604090205490565b60085460ff16151590565b601354151590565b834211156122385760405162461bcd60e51b815260040161086d90614f97565b600080546001600160a01b038916825260036020908152604080842054905161228c927f6e71edae12b1b97f4d1f60370fef10105fa2faae0126114a169c64845d6126c9928d928d928d92918d9101614c45565b604051602081830303815290604052805190602001206040516020016122b3929190614b07565b6040516020818303038152906040528051906020012090506000600182868686604051600081526020016040526040516122f09493929190614ca5565b6020604051602081039080840390855afa158015612312573d6000803e3d6000fd5b5050604051601f1901519150506001600160a01b038116158015906123485750886001600160a01b0316816001600160a01b0316145b6123645760405162461bcd60e51b815260040161086d90614e20565b6001600160a01b03891660009081526003602052604090208054600101905561238e898989612b06565b505050505050505050565b7f00000000000000000000000000000000000000000000000000000000000000006001600160a01b031633146123e15760405162461bcd60e51b815260040161086d90614d5c565b6009805461ffff191661ffff92909216919091179055565b7f00000000000000000000000000000000000000000000000000000000000000006001600160a01b031633146124415760405162461bcd60e51b815260040161086d90614d5c565b6112bf816135bf565b7f00000000000000000000000000000000000000000000000000000000000000006001600160a01b031633146124925760405162461bcd60e51b815260040161086d90614d5c565b6110a56001600160a01b0384168383612d58565b7f00000000000000000000000000000000000000000000000000000000000000006001600160a01b031633146124ee5760405162461bcd60e51b815260040161086d90614d5c565b61135a8282613b43565b6001600160a01b03918216600090815260016020908152604080832093909416825291909152205490565b61252b613075565b6001600160a01b038216600090815260156020908152604090912082518051849361255a9284929101906141a2565b50602082810151805161257392600185019201906141a2565b50604082015180516115d6916002840191602090910190614124565b60007f000000000000000000000000000000000000000000000000000000000000000090506000816001600160a01b03166316f0115b6040518163ffffffff1660e01b815260040160206040518083038186803b1580156125ef57600080fd5b505afa158015612603573d6000803e3d6000fd5b505050506040513d601f19601f82011682018060405250810190612627919061449b565b600c549091506001600160a01b0390811690821681146126b8576001600160a01b03811615612687576009546001600160a01b0382166000908152600a60205260409020600160701b9091046001600160801b031690556126878261300b565b6001600160a01b0382166000818152600a602052604090206000199055600c80546001600160a01b03191690911790555b6000836001600160a01b0316637dc0d1d06040518163ffffffff1660e01b815260040160206040518083038186803b1580156126f357600080fd5b505afa158015612707573d6000803e3d6000fd5b505050506040513d601f19601f8201168201806040525081019061272b919061449b565b600d549091506001600160a01b03808316911614610c4457600d80546001600160a01b0319166001600160a01b03831690811790915560408051633fc8cef360e01b81529051839291633fc8cef3916004808301926020929190829003018186803b15801561279957600080fd5b505afa1580156127ad573d6000803e3d6000fd5b505050506040513d601f19601f820116820180604052508101906127d1919061449b565b600e60006101000a8154816001600160a01b0302191690836001600160a01b03160217905550806001600160a01b031663c92577756040518163ffffffff1660e01b815260040160206040518083038186803b15801561283057600080fd5b505afa158015612844573d6000803e3d6000fd5b505050506040513d601f19601f82011682018060405250810190612868919061449b565b600f80546001600160a01b0319166001600160a01b03929092169190911790555050505050565b612897613128565b61289f613075565b6128a9828261315a565b61135a613239565b604854600090610100900460ff16806128cd57506128cd613b89565b806128db575060485460ff16155b6128f75760405162461bcd60e51b815260040161086d90614ecc565b604854610100900460ff16158015612922576048805460ff1961ff0019909116610100171660011790555b600b80546001600160a01b0319166001600160a01b03861617905586516129509060059060208a0190614124565b508551612964906006906020890190614124565b508451612978906007906020880190614124565b5060098054600160701b600160f01b0319166503782dace9d960821b1762010000600160701b03191662010000426001600160601b0316021790556129bb61309f565b6129c361258f565b825115612a7257604051636aa8278160e11b81526001600160a01b037f0000000000000000000000000000000000000000000000000000000000000000169063d5504f0290612a189030908790600401614b36565b60206040518083038186803b158015612a3057600080fd5b505afa158015612a44573d6000803e3d6000fd5b505050506040513d601f19601f82011682018060405250810190612a68919061476e565b50612a72836135bf565b600191508015612a88576048805461ff00191690555b5095945050505050565b7f000000000000000000000000000000000000000000000000000000000000000081565b7f00000000000000000000000000000000000000000000000000000000000000006001600160a01b03163314612afe5760405162461bcd60e51b815260040161086d90614d5c565b6110a9613128565b612b0f83613b8f565b612b1882613b8f565b6001600160a01b0380841660008181526001602090815260408083209487168084529490915290819020849055517f8c5be1e5ebec7d5bd14f71427d1e84f3dd0314c0f7b2291e5b200ac8c7c3b92590612b73908590614c3c565b60405180910390a3505050565b612b8861170b565b6001600160a01b031663d8b964e6826040518263ffffffff1660e01b8152600401612bb39190614b22565b60206040518083038186803b158015612bcb57600080fd5b505afa158015612bdf573d6000803e3d6000fd5b505050506040513d601f19601f82011682018060405250810190612c03919061476e565b6112bf5760405162461bcd60e51b815260040161086d90614e78565b612c2883613b8f565b612c3182613b8f565b612c3c818484613bb5565b604080518082018252601d81526000805160206152598339815191526020808301919091526001600160a01b038616600090815260029091529190912054612c85918390612d07565b6001600160a01b038085166000908152600260205260408082209390935590841681522054612cb49082612d33565b6001600160a01b038316600090815260026020526040902055612cd683613d23565b816001600160a01b0316836001600160a01b031660008051602061527983398151915283604051612b739190614c3c565b60008184841115612d2b5760405162461bcd60e51b815260040161086d9190614cc3565b505050900390565b6000828201838110156109cb5760405162461bcd60e51b815260040161086d90614daa565b6110a58363095ea7b360e01b8484604051602401612d77929190614be4565b60408051601f198184030181529190526020810180516001600160e01b03166001600160e01b031990931692909217909152613d5a565b6001600160a01b0384166000908152600a60205260408120548015612ed257600019811415612de1576000915050612f44565b6009546001600160a01b038716600090815260026020526040812054600160701b9092046001600160801b0316919082841015612e2a57612e2482858589613de9565b90508293505b868414612e5b57612e3d8289868a613e18565b6001600160a01b038a166000908152600a6020526040902055612e7f565b82841415612e7f576001600160a01b0389166000908152600a602052604090208490555b8015612ec757886001600160a01b03167f620154c7367c3805aa5a57be3421bcd8ae0de705b07bb7880c7ebdd1eff8423782604051612ebe9190614c3c565b60405180910390a25b9350612f4492505050565b600b546001600160a01b0387811691161480612efb5750600c546001600160a01b038781169116145b15612f22576001600160a01b0386166000908152600a602052604090206000199055612f3e565b6001600160a01b0386166000908152600a602052604090208490555b60009150505b949350505050565b6000612f606103e861181b8461012c61345f565b9050612f6c8382612f86565b600b546110a5906001600160a01b0316612f8684846134f7565b612f8f82613b8f565b600454612f9c9082612d33565b6004556001600160a01b038216600090815260026020526040902054612fc29082612d33565b6001600160a01b03831660008181526002602052604080822093909355915190919060008051602061527983398151915290612fff908590614c3c565b60405180910390a35050565b6001600160a01b0381166000908152600260205260409020546004546130439166038e67b515a0299161303d916134f7565b9061345f565b6001600160c01b0316600860016101000a8154816001600160e01b0302191690836001600160e01b0316021790555050565b600b546001600160a01b031633146110a95760405162461bcd60e51b815260040161086d90614cd6565b7f8b73c3c69bb8fe3d512ecc4cf759cc79239f7b179b0ffacaa9a75d522b39400f60056040516130cf9190614a97565b604051809103902060076040516130e69190614a97565b60405180910390206130f6611de5565b3060405160200161310b959493929190614c79565b60408051601f198184030181529190528051602090910120600055565b60085460ff161561314b5760405162461bcd60e51b815260040161086d90614f1a565b6008805460ff19166001179055565b61316382612b80565b60607f1e83409a4600994e83773c811443f8c040c23a89ea11e24724996a8b477016a1826040516024016131979190614b22565b60408051601f198184030181529190526020810180516001600160e01b03166001600160e01b031990931692909217909152905060005a905060008060008451602086018886f49050806131f2576040513d806000833e8082fd5b836001600160a01b0316856001600160a01b03167f76fefaa578826cd28a6d72d47460f755534b9a481c773721143222296cc4cc5a60405160405180910390a35050505050565b6008805460ff19169055565b6009546000906132659042906201000090046001600160601b03166134f7565b9050801561135a576008546000906132a190670de0b6b3a76400009061181b906301e1338090829061010090046001600160e01b03168761345f565b90506132ad8382612f86565b6009805462010000600160701b03191662010000426001600160601b0316021790556040517f66c77f845ffc734f7250e8a5399169a71b617eedc0063f899cf6c7db19d6b562906132ff908390614c3c565b60405180910390a1505050565b60006133166112cd565b6001600160a01b031663ff4a1902306040518263ffffffff1660e01b81526004016133419190614b22565b60006040518083038186803b15801561335957600080fd5b505afa15801561336d573d6000803e3d6000fd5b505050506040513d6000823e601f3d908101601f1916820160405261339591908101906148ce565b5090506112bf81600454613b43565b6000806133b18484613539565b905080156109cb576009546001600160a01b0385166000818152600a602052604090819020600160701b9093046001600160801b031690925590517f620154c7367c3805aa5a57be3421bcd8ae0de705b07bb7880c7ebdd1eff8423790613419908490614c3c565b60405180910390a29392505050565b600c546000906001600160a01b0316613442848285613e4d565b925061344e8484613ee7565b6134578161300b565b509092915050565b60008261346e575060006107be565b8282028284828161347b57fe5b04146109cb5760405162461bcd60e51b815260040161086d90614f41565b60006109cb83836040518060400160405280601a815260200179536166654d6174683a206469766973696f6e206279207a65726f60301b815250613f9d565b6110a58363a9059cbb60e01b8484604051602401612d77929190614be4565b60006109cb83836040518060400160405280601e81526020017f536166654d6174683a207375627472616374696f6e206f766572666c6f770000815250612d07565b6001600160a01b0382166000908152600a6020526040812054600954600160701b90046001600160801b031611156135b6576001600160a01b038316600090815260026020908152604080832054600a909252909120546009546135af929190600160701b90046001600160801b031685613de9565b90506107be565b50600092915050565b600e54600f546001600160a01b039182166000818152601460205260408082208290559284168082529281208190559283527feef591571549cf9b667da255ab4bb2a90dfdcb77845d7bc32c3bf4528eee03db839055915b60115481101561365f57601460006011838154811061363257fe5b60009182526020808320909101546001600160a01b03168352820192909252604001812055600101613617565b5060005b6013548110156136ab57601460006013838154811061367e57fe5b60009182526020808320909101546001600160a01b03168352820192909252604001812055600101613663565b5060005b6012548110156136f75760146000601283815481106136ca57fe5b60009182526020808320909101546001600160a01b031683528201929092526040018120556001016136af565b5061370460136000614203565b61371060116000614203565b61371c60126000614203565b60006137266112cd565b6001600160a01b0316639d23c4c76040518163ffffffff1660e01b815260040160206040518083038186803b15801561375e57600080fd5b505afa158015613772573d6000803e3d6000fd5b505050506040513d601f19601f82011682018060405250810190613796919061449b565b90506000805b8551811015613a685760008682815181106137b357fe5b60200260200101516000015190508682815181106137cd57fe5b6020908102919091018101516040908101516001600160a01b03841660009081526015845291909120815180519293919261380b92849201906141a2565b50602082810151805161382492600185019201906141a2565b5060408201518051613840916002840191602090910190614124565b5090505086828151811061385057fe5b60200260200101516020015160146000836001600160a01b03166001600160a01b03168152602001908152602001600020819055506000846001600160a01b03166397d39de4836040518263ffffffff1660e01b81526004016138b39190614b22565b60206040518083038186803b1580156138cb57600080fd5b505afa1580156138df573d6000803e3d6000fd5b505050506040513d601f19601f82011682018060405250810190613903919061478e565b600381111561390e57fe5b9050600081600381111561391e57fe5b141561397457601180546001810182556000919091527f31ecc21a745e3968a04e9570e4425bc18fa8019c68028196b546d1669c200c680180546001600160a01b0319166001600160a01b038416179055613a5e565b600181600381111561398257fe5b14156139fe576001600160a01b0382166000908152601460205260409020546139ac908590613fd4565b601280546001810182556000919091527fbb8a6a4669ba250d26cd7a459eca9d215f8307e33aebe50379bc5a3617ec34440180546001600160a01b0319166001600160a01b0385161790559350613a5e565b6002816003811115613a0c57fe5b1415613a5e57601380546001810182556000919091527f66de8ffda797e3de9c05e8fc57b3bf0ec28a930d40b0d285d93c06501cf6a0900180546001600160a01b0319166001600160a01b0384161790555b505060010161379c565b5060125415613ad0576001600160a01b038316600090815260146020526040902054613a95908290613fd4565b6001600160a01b0360005260146020527feef591571549cf9b667da255ab4bb2a90dfdcb77845d7bc32c3bf4528eee03db81905590506115d6565b6001600160a01b03831660009081526014602052604081205413156115d657601180546001810182556000919091527f31ecc21a745e3968a04e9570e4425bc18fa8019c68028196b546d1669c200c680180546001600160a01b0385166001600160a01b03199091161790555050505050565b801561135a57613b5f8161181b84670de0b6b3a764000061345f565b6009600e6101000a8154816001600160801b0302191690836001600160801b031602179055505050565b303b1590565b6001600160a01b0381166112bf5760405162461bcd60e51b815260040161086d90614ff5565b600854600160e81b900461ffff168015610c44576001600160a01b038084166000908152600a602052604080822054928516825290205480158015613bfb575060001982105b15613c20576001600160a01b0384166000908152600a60205260409020829055613d1b565b600c546001600160a01b03908116906000908716821480613c525750816001600160a01b0316866001600160a01b0316145b90508015613c6357613c6382613245565b6000613c6f88876133a4565b6001600160a01b0389166000908152600a6020526040812054965090915060001986108015613caf5750600954600160701b90046001600160801b031686115b613ccb57600954600160701b90046001600160801b0316613ccd565b855b9050613cde611655898c848b612dae565b91508115613d0c5782613cf457613cf484613245565b613cfe8483612f4c565b613d078461300b565b611d78565b8215611d7857611d788461300b565b505050505050565b6001600160a01b0381166000908152600260205260409020546112bf576001600160a01b03166000908152600a6020526040812055565b6060613daf826040518060400160405280602081526020017f5361666545524332303a206c6f772d6c6576656c2063616c6c206661696c6564815250856001600160a01b031661401a9092919063ffffffff16565b8051909150156110a55780806020019051810190613dcd919061476e565b6110a55760405162461bcd60e51b815260040161086d9061507f565b600080613df684866134f7565b9050613e0e8461181b6103e8818761303d8c8861345f565b9695505050505050565b6000613e44613e278686612d33565b61181b613e34878661345f565b613e3e898861345f565b90612d33565b95945050505050565b6000826001600160a01b0316846001600160a01b03161415613e705750806109cb565b6000613e8f670de0b6b3a764000061181b8566071afd498d000061345f565b9050613e9c858583612c1f565b846001600160a01b03167fc18340ba98721bcff47f10f30da90ced66f2b96b9afed4cbdf4e0184b4a7046982604051613ed59190614c3c565b60405180910390a2613e4483826134f7565b613ef082613b8f565b604080518082018252601d81526000805160206152598339815191526020808301919091526001600160a01b038516600090815260029091529190912054613f39918390612d07565b6001600160a01b038316600090815260026020526040902055600454613f5f90826134f7565b600455613f6b82613d23565b60006001600160a01b0316826001600160a01b031660008051602061527983398151915283604051612fff9190614c3c565b60008183613fbe5760405162461bcd60e51b815260040161086d9190614cc3565b506000838581613fca57fe5b0495945050505050565b6000828201818312801590613fe95750838112155b80613ffe5750600083128015613ffe57508381125b6109cb5760405162461bcd60e51b815260040161086d90614ddf565b6060612f4484846000858561402e856140c4565b61404a5760405162461bcd60e51b815260040161086d90615023565b60006060866001600160a01b031685876040516140679190614a7b565b60006040518083038185875af1925050503d80600081146140a4576040519150601f19603f3d011682016040523d82523d6000602084013e6140a9565b606091505b50915091506140b98282866140ca565b979650505050505050565b3b151590565b606083156140d95750816109cb565b8251156140e95782518084602001fd5b8160405162461bcd60e51b815260040161086d9190614cc3565b60405180606001604052806060815260200160608152602001606081525090565b828054600181600116156101000203166002900490600052602060002090601f016020900481019282601f1061416557805160ff1916838001178555614192565b82800160010185558215614192579182015b82811115614192578251825591602001919060010190614177565b5061419e92915061421d565b5090565b8280548282559060005260206000209081019282156141f7579160200282015b828111156141f757825182546001600160a01b0319166001600160a01b039091161782556020909201916001909101906141c2565b5061419e929150614232565b50805460008255906000526020600020908101906112bf91905b5b8082111561419e576000815560010161421e565b5b8082111561419e5780546001600160a01b0319168155600101614233565b80356107be81615243565b600082601f83011261426c578081fd5b813561427f61427a826151f8565b6151d2565b8181529150602080830190848101818402860182018710156142a057600080fd5b60005b848110156142c85781356142b681615243565b845292820192908201906001016142a3565b505050505092915050565b600082601f8301126142e3578081fd5b81356142f161427a826151f8565b818152915060208083019084810160005b848110156142c85781358701606080601f19838c0301121561432357600080fd5b61432c816151d2565b6143388b878501614251565b81526040838101358783015291830135916001600160401b0383111561435d57600080fd5b61436b8c88858701016143eb565b90820152865250509282019290820190600101614302565b600082601f830112614393578081fd5b81356001600160401b038111156143a8578182fd5b6143bb601f8201601f19166020016151d2565b91508082528360208285010111156143d257600080fd5b8060208401602084013760009082016020015292915050565b6000606082840312156143fc578081fd5b61440660606151d2565b905081356001600160401b038082111561441f57600080fd5b61442b8583860161425c565b8352602084013591508082111561444157600080fd5b61444d8583860161425c565b6020840152604084013591508082111561446657600080fd5b5061447384828501614383565b60408301525092915050565b600060208284031215614490578081fd5b81356109cb81615243565b6000602082840312156144ac578081fd5b81516109cb81615243565b600080604083850312156144c9578081fd5b82356144d481615243565b915060208301356144e481615243565b809150509250929050565b600080600060608486031215614503578081fd5b833561450e81615243565b9250602084013561451e81615243565b929592945050506040919091013590565b600080600080600080600060e0888a031215614549578283fd5b873561455481615243565b9650602088013561456481615243565b95506040880135945060608801359350608088013560ff81168114614587578384fd5b9699959850939692959460a0840135945060c09093013592915050565b600080604083850312156145b6578182fd5b82356145c181615243565b915060208301356001600160401b038111156145db578182fd5b6145e7858286016143eb565b9150509250929050565b60008060408385031215614603578182fd5b823561460e81615243565b946020939093013593505050565b60008060008060808587031215614631578182fd5b843561463c81615243565b935060208501359250604085013561465381615243565b9150606085013561466381615243565b939692955090935050565b60006020828403121561467f578081fd5b81356001600160401b03811115614694578182fd5b612f448482850161425c565b6000806000606084860312156146b4578081fd5b83356001600160401b038111156146c9578182fd5b6146d58682870161425c565b935050602084013561451e81615243565b600080604083850312156146f8578182fd5b82356001600160401b038082111561470e578384fd5b61471a8683870161425c565b9350602085013591508082111561472f578283fd5b506145e78582860161425c565b60006020828403121561474d578081fd5b81356001600160401b03811115614762578182fd5b612f44848285016142d3565b60006020828403121561477f578081fd5b815180151581146109cb578182fd5b60006020828403121561479f578081fd5b5051919050565b6000602082840312156147b7578081fd5b81356001600160401b038111156147cc578182fd5b612f4484828501614383565b600080600080600060a086880312156147ef578283fd5b85356001600160401b0380821115614805578485fd5b61481189838a01614383565b96506020880135915080821115614826578485fd5b61483289838a01614383565b95506040880135915080821115614847578485fd5b61485389838a01614383565b94506060880135915061486582615243565b9092506080870135908082111561487a578283fd5b50614887888289016142d3565b9150509295509295909350565b6000602082840312156148a5578081fd5b813561ffff811681146109cb578182fd5b6000602082840312156148c7578081fd5b5035919050565b600080604083850312156148e0578182fd5b825191506020808401516001600160401b038111156148fd578283fd5b8401601f8101861361490d578283fd5b805161491b61427a826151f8565b81815283810190838501858402850186018a1015614937578687fd5b8694505b8385101561495957805183526001949094019391850191850161493b565b5080955050505050509250929050565b6000806040838503121561497b578182fd5b50508035926020909101359150565b60008060006060848603121561499e578081fd5b8351925060208401519150604084015190509250925092565b6001600160a01b03169052565b6000815180845260208085019450808401835b838110156149fc5781516001600160a01b0316875295820195908201906001016149d7565b509495945050505050565b60008151808452614a1f816020860160208601615217565b601f01601f19169290920160200192915050565b6000815160608452614a4860608501826149c4565b905060208301518482036020860152614a6182826149c4565b91505060408301518482036040860152613e448282614a07565b60008251614a8d818460208701615217565b9190910192915050565b6000808354600180821660008114614ab65760018114614acd57614afc565b60ff198316865260028304607f1686019350614afc565b600283048786526020808720875b83811015614af45781548a820152908501908201614adb565b505050860193505b509195945050505050565b61190160f01b81526002810192909252602282015260420190565b6001600160a01b0391909116815260200190565b6001600160a01b0383168152604060208083018290528351838301819052600092916060918286019080830287018401888401875b83811015614bb957605f198a84030185528151614b898482516149b7565b8087015184880152880151888401889052614ba688850182614a33565b9587019593505090850190600101614b6b565b50909a9950505050505050505050565b6001600160a01b039290921682521515602082015260400190565b6001600160a01b03929092168252602082015260400190565b6001600160a01b03919091168152631cd554d160e21b602082015260400190565b6000602082526109cb60208301846149c4565b901515815260200190565b90815260200190565b9586526001600160a01b0394851660208701529290931660408501526060840152608083019190915260a082015260c00190565b9485526020850193909352604084019190915260608301526001600160a01b0316608082015260a00190565b93845260ff9290921660208401526040830152606082015260800190565b6000602082526109cb6020830184614a07565b6020808252600b908201526a2737ba1036b0b730b3b2b960a91b604082015260600190565b6020808252601990820152784f6e6c7920537472617465677950726f7879466163746f727960381b604082015260600190565b60208082526014908201527310d85b9b9bdd081dda5d1a191c985dc81919589d60621b604082015260600190565b6020808252600f908201526e436f6e74726f6c6c6572206f6e6c7960881b604082015260600190565b6020808252600b908201526a526f75746572206f6e6c7960a81b604082015260600190565b6020808252601b908201527a536166654d6174683a206164646974696f6e206f766572666c6f7760281b604082015260600190565b60208082526021908201527f5369676e6564536166654d6174683a206164646974696f6e206f766572666c6f6040820152607760f81b606082015260800190565b602080825260119082015270496e76616c6964207369676e617475726560781b604082015260600190565b60208082526013908201527213585b9859d95c88185b1c9958591e481cd95d606a1b604082015260600190565b6020808252600c908201526b139bdd08185c1c1c9bdd995960a21b604082015260600190565b602080825260149082015273496e636f727265637420706172616d657465727360601b604082015260600190565b6020808252602e908201527f496e697469616c697a61626c653a20636f6e747261637420697320616c72656160408201526d191e481a5b9a5d1a585b1a5e995960921b606082015260800190565b6020808252600d908201526c4e6f205265656e7472616e637960981b604082015260600190565b60208082526021908201527f536166654d6174683a206d756c7469706c69636174696f6e206f766572666c6f6040820152607760f81b606082015260800190565b6822bc31b430b733b2b960b91b815260200190565b60208082526010908201526f4578706972656420646561646c696e6560801b604082015260600190565b6020808252600890820152670c08185b5bdd5b9d60c21b604082015260600190565b6524b9b9bab2b960d11b815260200190565b60208082526014908201527345524332303a204e6f206164647265737328302960601b604082015260600190565b6020808252601d908201527f416464726573733a2063616c6c20746f206e6f6e2d636f6e7472616374000000604082015260600190565b6020808252600b908201526a4e6f206561726e696e677360a81b604082015260600190565b6020808252602a908201527f5361666545524332303a204552433230206f7065726174696f6e20646964206e6040820152691bdd081cdd58d8d9595960b21b606082015260800190565b60208082526025908201527f45524332303a2064656372656173656420616c6c6f77616e63652062656c6f77604082015264207a65726f60d81b606082015260800190565b7044656c6567617465417070726f76616c7360781b815260200190565b6000602082526109cb6020830184614a33565b60006040820184835260206040818501528185518084526060860191508287019350845b8181101561517e57845183529383019391830191600101615162565b5090979650505050505050565b95865260ff9490941660208601526001600160a01b0392831660408601529082166060850152811660808401521660a082015260c00190565b60ff91909116815260200190565b6040518181016001600160401b03811182821017156151f057600080fd5b604052919050565b60006001600160401b0382111561520d578081fd5b5060209081020190565b60005b8381101561523257818101518382015260200161521a565b83811115610c445750506000910152565b6001600160a01b03811681146112bf57600080fdfe45524332303a20416d6f756e7420657863656564732062616c616e6365000000ddf252ad1be2c89b69c2b068fc378daa952ba7f163c4a11628f55a4df523b3efa2646970667358221220b93a9b461baab43f63b3d10b1d0269dc18256315810cfc6829f9f700ff5676a664736f6c634300060c0033",
  "linkReferences": {},
  "deployedLinkReferences": {}
}