{
  "_format": "hh-sol-artifact-1",
  "contractName": "Strategy",
  "sourceName": "contracts/Strategy.sol",
  "abi": [
    {
      "inputs": [
        {
          "internalType": "address",
          "name": "factory_",
          "type": "address"
        },
        {
          "internalType": "address",
          "name": "controller_",
          "type": "address"
        },
        {
          "internalType": "address",
          "name": "synthetixResolver_",
          "type": "address"
        },
        {
          "internalType": "address",
          "name": "aaveResolver_",
          "type": "address"
        }
      ],
      "stateMutability": "nonpayable",
      "type": "constructor"
    },
    {
      "anonymous": false,
      "inputs": [
        {
          "indexed": true,
          "internalType": "address",
          "name": "owner",
          "type": "address"
        },
        {
          "indexed": true,
          "internalType": "address",
          "name": "spender",
          "type": "address"
        },
        {
          "indexed": false,
          "internalType": "uint256",
          "name": "value",
          "type": "uint256"
        }
      ],
      "name": "Approval",
      "type": "event"
    },
    {
      "anonymous": false,
      "inputs": [
        {
          "indexed": true,
          "internalType": "address",
          "name": "account",
          "type": "address"
        },
        {
          "indexed": false,
          "internalType": "uint256",
          "name": "amount",
          "type": "uint256"
        }
      ],
      "name": "PerformanceFee",
      "type": "event"
    },
    {
      "anonymous": false,
      "inputs": [
        {
          "indexed": true,
          "internalType": "address",
          "name": "adapter",
          "type": "address"
        },
        {
          "indexed": true,
          "internalType": "address",
          "name": "token",
          "type": "address"
        }
      ],
      "name": "RewardsClaimed",
      "type": "event"
    },
    {
      "anonymous": false,
      "inputs": [
        {
          "indexed": false,
          "internalType": "uint256",
          "name": "amount",
          "type": "uint256"
        }
      ],
      "name": "StreamingFee",
      "type": "event"
    },
    {
      "anonymous": false,
      "inputs": [
        {
          "indexed": true,
          "internalType": "address",
          "name": "from",
          "type": "address"
        },
        {
          "indexed": true,
          "internalType": "address",
          "name": "to",
          "type": "address"
        },
        {
          "indexed": false,
          "internalType": "uint256",
          "name": "value",
          "type": "uint256"
        }
      ],
      "name": "Transfer",
      "type": "event"
    },
    {
      "anonymous": false,
      "inputs": [
        {
          "indexed": false,
          "internalType": "address",
          "name": "manager",
          "type": "address"
        }
      ],
      "name": "UpdateManager",
      "type": "event"
    },
    {
      "anonymous": false,
      "inputs": [
        {
          "indexed": true,
          "internalType": "address",
          "name": "account",
          "type": "address"
        },
        {
          "indexed": false,
          "internalType": "uint256",
          "name": "amount",
          "type": "uint256"
        },
        {
          "indexed": false,
          "internalType": "uint256[]",
          "name": "amounts",
          "type": "uint256[]"
        }
      ],
      "name": "Withdraw",
      "type": "event"
    },
    {
      "anonymous": false,
      "inputs": [
        {
          "indexed": true,
          "internalType": "address",
          "name": "account",
          "type": "address"
        },
        {
          "indexed": false,
          "internalType": "uint256",
          "name": "amount",
          "type": "uint256"
        }
      ],
      "name": "WithdrawalFee",
      "type": "event"
    },
    {
      "inputs": [],
      "name": "BALANCE_LOW",
      "outputs": [
        {
          "internalType": "string",
          "name": "",
          "type": "string"
        }
      ],
      "stateMutability": "view",
      "type": "function"
    },
    {
      "inputs": [],
      "name": "DOMAIN_SEPARATOR",
      "outputs": [
        {
          "internalType": "bytes32",
          "name": "",
          "type": "bytes32"
        }
      ],
      "stateMutability": "view",
      "type": "function"
    },
    {
      "inputs": [],
      "name": "PERMIT_TYPEHASH",
      "outputs": [
        {
          "internalType": "bytes32",
          "name": "",
          "type": "bytes32"
        }
      ],
      "stateMutability": "view",
      "type": "function"
    },
    {
      "inputs": [],
      "name": "STREAM_FEE",
      "outputs": [
        {
          "internalType": "uint256",
          "name": "",
          "type": "uint256"
        }
      ],
      "stateMutability": "view",
      "type": "function"
    },
    {
      "inputs": [],
      "name": "WITHDRAWAL_FEE",
      "outputs": [
        {
          "internalType": "uint256",
          "name": "",
          "type": "uint256"
        }
      ],
      "stateMutability": "view",
      "type": "function"
    },
    {
      "inputs": [
        {
          "internalType": "address",
          "name": "owner",
          "type": "address"
        },
        {
          "internalType": "address",
          "name": "spender",
          "type": "address"
        }
      ],
      "name": "allowance",
      "outputs": [
        {
          "internalType": "uint256",
          "name": "",
          "type": "uint256"
        }
      ],
      "stateMutability": "view",
      "type": "function"
    },
    {
      "inputs": [
        {
          "internalType": "address",
          "name": "spender",
          "type": "address"
        },
        {
          "internalType": "uint256",
          "name": "amount",
          "type": "uint256"
        }
      ],
      "name": "approve",
      "outputs": [
        {
          "internalType": "bool",
          "name": "",
          "type": "bool"
        }
      ],
      "stateMutability": "nonpayable",
      "type": "function"
    },
    {
      "inputs": [
        {
          "internalType": "address[]",
          "name": "tokens",
          "type": "address[]"
        },
        {
          "internalType": "address",
          "name": "account",
          "type": "address"
        },
        {
          "internalType": "uint256",
          "name": "amount",
          "type": "uint256"
        }
      ],
      "name": "approveDebt",
      "outputs": [],
      "stateMutability": "nonpayable",
      "type": "function"
    },
    {
      "inputs": [
        {
          "internalType": "address",
          "name": "account",
          "type": "address"
        },
        {
          "internalType": "uint256",
          "name": "amount",
          "type": "uint256"
        }
      ],
      "name": "approveSynths",
      "outputs": [],
      "stateMutability": "nonpayable",
      "type": "function"
    },
    {
      "inputs": [
        {
          "internalType": "address",
          "name": "token",
          "type": "address"
        },
        {
          "internalType": "address",
          "name": "account",
          "type": "address"
        },
        {
          "internalType": "uint256",
          "name": "amount",
          "type": "uint256"
        }
      ],
      "name": "approveToken",
      "outputs": [],
      "stateMutability": "nonpayable",
      "type": "function"
    },
    {
      "inputs": [
        {
          "internalType": "address[]",
          "name": "tokens",
          "type": "address[]"
        },
        {
          "internalType": "address",
          "name": "account",
          "type": "address"
        },
        {
          "internalType": "uint256",
          "name": "amount",
          "type": "uint256"
        }
      ],
      "name": "approveTokens",
      "outputs": [],
      "stateMutability": "nonpayable",
      "type": "function"
    },
    {
      "inputs": [
        {
          "internalType": "address",
          "name": "account",
          "type": "address"
        }
      ],
      "name": "balanceOf",
      "outputs": [
        {
          "internalType": "uint256",
          "name": "",
          "type": "uint256"
        }
      ],
      "stateMutability": "view",
      "type": "function"
    },
    {
      "inputs": [
        {
          "internalType": "address[]",
          "name": "adapters",
          "type": "address[]"
        },
        {
          "internalType": "address[]",
          "name": "tokens",
          "type": "address[]"
        }
      ],
      "name": "batchClaimRewards",
      "outputs": [],
      "stateMutability": "nonpayable",
      "type": "function"
    },
    {
      "inputs": [
        {
          "internalType": "address",
          "name": "account",
          "type": "address"
        },
        {
          "internalType": "uint256",
          "name": "amount",
          "type": "uint256"
        }
      ],
      "name": "burn",
      "outputs": [
        {
          "internalType": "uint256",
          "name": "",
          "type": "uint256"
        }
      ],
      "stateMutability": "nonpayable",
      "type": "function"
    },
    {
      "inputs": [],
      "name": "chainId",
      "outputs": [
        {
          "internalType": "uint256",
          "name": "id",
          "type": "uint256"
        }
      ],
      "stateMutability": "pure",
      "type": "function"
    },
    {
      "inputs": [
        {
          "internalType": "address",
          "name": "adapter",
          "type": "address"
        },
        {
          "internalType": "address",
          "name": "token",
          "type": "address"
        }
      ],
      "name": "claimRewards",
      "outputs": [],
      "stateMutability": "nonpayable",
      "type": "function"
    },
    {
      "inputs": [],
      "name": "controller",
      "outputs": [
        {
          "internalType": "address",
          "name": "",
          "type": "address"
        }
      ],
      "stateMutability": "view",
      "type": "function"
    },
    {
      "inputs": [],
      "name": "debt",
      "outputs": [
        {
          "internalType": "address[]",
          "name": "",
          "type": "address[]"
        }
      ],
      "stateMutability": "view",
      "type": "function"
    },
    {
      "inputs": [],
      "name": "decimals",
      "outputs": [
        {
          "internalType": "uint8",
          "name": "",
          "type": "uint8"
        }
      ],
      "stateMutability": "view",
      "type": "function"
    },
    {
      "inputs": [
        {
          "internalType": "address",
          "name": "spender",
          "type": "address"
        },
        {
          "internalType": "uint256",
          "name": "subtractedValue",
          "type": "uint256"
        }
      ],
      "name": "decreaseAllowance",
      "outputs": [
        {
          "internalType": "bool",
          "name": "",
          "type": "bool"
        }
      ],
      "stateMutability": "nonpayable",
      "type": "function"
    },
    {
      "inputs": [
        {
          "internalType": "address",
          "name": "adapter",
          "type": "address"
        },
        {
          "internalType": "uint256",
          "name": "amount",
          "type": "uint256"
        },
        {
          "internalType": "address",
          "name": "tokenIn",
          "type": "address"
        },
        {
          "internalType": "address",
          "name": "tokenOut",
          "type": "address"
        }
      ],
      "name": "delegateSwap",
      "outputs": [],
      "stateMutability": "nonpayable",
      "type": "function"
    },
    {
      "inputs": [],
      "name": "factory",
      "outputs": [
        {
          "internalType": "address",
          "name": "",
          "type": "address"
        }
      ],
      "stateMutability": "view",
      "type": "function"
    },
    {
      "inputs": [],
      "name": "getLastTokenValue",
      "outputs": [
        {
          "internalType": "uint256",
          "name": "",
          "type": "uint256"
        }
      ],
      "stateMutability": "view",
      "type": "function"
    },
    {
      "inputs": [
        {
          "internalType": "address",
          "name": "account",
          "type": "address"
        }
      ],
      "name": "getPaidTokenValue",
      "outputs": [
        {
          "internalType": "uint256",
          "name": "",
          "type": "uint256"
        }
      ],
      "stateMutability": "view",
      "type": "function"
    },
    {
      "inputs": [
        {
          "internalType": "address",
          "name": "item",
          "type": "address"
        }
      ],
      "name": "getPercentage",
      "outputs": [
        {
          "internalType": "int256",
          "name": "",
          "type": "int256"
        }
      ],
      "stateMutability": "view",
      "type": "function"
    },
    {
      "inputs": [
        {
          "internalType": "address",
          "name": "account",
          "type": "address"
        }
      ],
      "name": "getPerformanceFeeOwed",
      "outputs": [
        {
          "internalType": "uint256",
          "name": "",
          "type": "uint256"
        }
      ],
      "stateMutability": "view",
      "type": "function"
    },
    {
      "inputs": [
        {
          "internalType": "address",
          "name": "item",
          "type": "address"
        }
      ],
      "name": "getTradeData",
      "outputs": [
        {
          "components": [
            {
              "internalType": "address[]",
              "name": "adapters",
              "type": "address[]"
            },
            {
              "internalType": "address[]",
              "name": "path",
              "type": "address[]"
            },
            {
              "internalType": "bytes",
              "name": "cache",
              "type": "bytes"
            }
          ],
          "internalType": "struct StrategyTypes.TradeData",
          "name": "",
          "type": "tuple"
        }
      ],
      "stateMutability": "view",
      "type": "function"
    },
    {
      "inputs": [
        {
          "internalType": "address",
          "name": "spender",
          "type": "address"
        },
        {
          "internalType": "uint256",
          "name": "addedValue",
          "type": "uint256"
        }
      ],
      "name": "increaseAllowance",
      "outputs": [
        {
          "internalType": "bool",
          "name": "",
          "type": "bool"
        }
      ],
      "stateMutability": "nonpayable",
      "type": "function"
    },
    {
      "inputs": [
        {
          "internalType": "string",
          "name": "name_",
          "type": "string"
        },
        {
          "internalType": "string",
          "name": "symbol_",
          "type": "string"
        },
        {
          "internalType": "string",
          "name": "version_",
          "type": "string"
        },
        {
          "internalType": "address",
          "name": "manager_",
          "type": "address"
        },
        {
          "components": [
            {
              "internalType": "address",
              "name": "item",
              "type": "address"
            },
            {
              "internalType": "int256",
              "name": "percentage",
              "type": "int256"
            },
            {
              "components": [
                {
                  "internalType": "address[]",
                  "name": "adapters",
                  "type": "address[]"
                },
                {
                  "internalType": "address[]",
                  "name": "path",
                  "type": "address[]"
                },
                {
                  "internalType": "bytes",
                  "name": "cache",
                  "type": "bytes"
                }
              ],
              "internalType": "struct StrategyTypes.TradeData",
              "name": "data",
              "type": "tuple"
            }
          ],
          "internalType": "struct StrategyTypes.StrategyItem[]",
          "name": "strategyItems_",
          "type": "tuple[]"
        }
      ],
      "name": "initialize",
      "outputs": [
        {
          "internalType": "bool",
          "name": "",
          "type": "bool"
        }
      ],
      "stateMutability": "nonpayable",
      "type": "function"
    },
    {
      "inputs": [],
      "name": "issueStreamingFee",
      "outputs": [],
      "stateMutability": "nonpayable",
      "type": "function"
    },
    {
      "inputs": [],
      "name": "items",
      "outputs": [
        {
          "internalType": "address[]",
          "name": "",
          "type": "address[]"
        }
      ],
      "stateMutability": "view",
      "type": "function"
    },
    {
      "inputs": [],
      "name": "lock",
      "outputs": [],
      "stateMutability": "nonpayable",
      "type": "function"
    },
    {
      "inputs": [],
      "name": "locked",
      "outputs": [
        {
          "internalType": "bool",
          "name": "",
          "type": "bool"
        }
      ],
      "stateMutability": "view",
      "type": "function"
    },
    {
      "inputs": [],
      "name": "manager",
      "outputs": [
        {
          "internalType": "address",
          "name": "",
          "type": "address"
        }
      ],
      "stateMutability": "view",
      "type": "function"
    },
    {
      "inputs": [
        {
          "internalType": "address",
          "name": "account",
          "type": "address"
        },
        {
          "internalType": "uint256",
          "name": "amount",
          "type": "uint256"
        }
      ],
      "name": "mint",
      "outputs": [],
      "stateMutability": "nonpayable",
      "type": "function"
    },
    {
      "inputs": [],
      "name": "name",
      "outputs": [
        {
          "internalType": "string",
          "name": "",
          "type": "string"
        }
      ],
      "stateMutability": "view",
      "type": "function"
    },
    {
      "inputs": [
        {
          "internalType": "address",
          "name": "owner",
          "type": "address"
        }
      ],
      "name": "nonces",
      "outputs": [
        {
          "internalType": "uint256",
          "name": "",
          "type": "uint256"
        }
      ],
      "stateMutability": "view",
      "type": "function"
    },
    {
      "inputs": [],
      "name": "oracle",
      "outputs": [
        {
          "internalType": "contract IOracle",
          "name": "",
          "type": "address"
        }
      ],
      "stateMutability": "view",
      "type": "function"
    },
    {
      "inputs": [],
      "name": "performanceFee",
      "outputs": [
        {
          "internalType": "uint256",
          "name": "",
          "type": "uint256"
        }
      ],
      "stateMutability": "view",
      "type": "function"
    },
    {
      "inputs": [
        {
          "internalType": "address",
          "name": "owner",
          "type": "address"
        },
        {
          "internalType": "address",
          "name": "spender",
          "type": "address"
        },
        {
          "internalType": "uint256",
          "name": "value",
          "type": "uint256"
        },
        {
          "internalType": "uint256",
          "name": "deadline",
          "type": "uint256"
        },
        {
          "internalType": "uint8",
          "name": "v",
          "type": "uint8"
        },
        {
          "internalType": "bytes32",
          "name": "r",
          "type": "bytes32"
        },
        {
          "internalType": "bytes32",
          "name": "s",
          "type": "bytes32"
        }
      ],
      "name": "permit",
      "outputs": [],
      "stateMutability": "nonpayable",
      "type": "function"
    },
    {
      "inputs": [],
      "name": "rebalanceThreshold",
      "outputs": [
        {
          "internalType": "uint256",
          "name": "",
          "type": "uint256"
        }
      ],
      "stateMutability": "view",
      "type": "function"
    },
    {
      "inputs": [
        {
          "internalType": "address",
          "name": "token",
          "type": "address"
        }
      ],
      "name": "setCollateral",
      "outputs": [],
      "stateMutability": "nonpayable",
      "type": "function"
    },
    {
      "inputs": [
        {
          "internalType": "address",
          "name": "router",
          "type": "address"
        }
      ],
      "name": "setRouter",
      "outputs": [],
      "stateMutability": "nonpayable",
      "type": "function"
    },
    {
      "inputs": [
        {
          "components": [
            {
              "internalType": "address",
              "name": "item",
              "type": "address"
            },
            {
              "internalType": "int256",
              "name": "percentage",
              "type": "int256"
            },
            {
              "components": [
                {
                  "internalType": "address[]",
                  "name": "adapters",
                  "type": "address[]"
                },
                {
                  "internalType": "address[]",
                  "name": "path",
                  "type": "address[]"
                },
                {
                  "internalType": "bytes",
                  "name": "cache",
                  "type": "bytes"
                }
              ],
              "internalType": "struct StrategyTypes.TradeData",
              "name": "data",
              "type": "tuple"
            }
          ],
          "internalType": "struct StrategyTypes.StrategyItem[]",
          "name": "newItems",
          "type": "tuple[]"
        }
      ],
      "name": "setStructure",
      "outputs": [],
      "stateMutability": "nonpayable",
      "type": "function"
    },
    {
      "inputs": [],
      "name": "settleSynths",
      "outputs": [],
      "stateMutability": "nonpayable",
      "type": "function"
    },
    {
      "inputs": [],
      "name": "supportsDebt",
      "outputs": [
        {
          "internalType": "bool",
          "name": "",
          "type": "bool"
        }
      ],
      "stateMutability": "view",
      "type": "function"
    },
    {
      "inputs": [],
      "name": "supportsSynths",
      "outputs": [
        {
          "internalType": "bool",
          "name": "",
          "type": "bool"
        }
      ],
      "stateMutability": "view",
      "type": "function"
    },
    {
      "inputs": [],
      "name": "symbol",
      "outputs": [
        {
          "internalType": "string",
          "name": "",
          "type": "string"
        }
      ],
      "stateMutability": "view",
      "type": "function"
    },
    {
      "inputs": [],
      "name": "synths",
      "outputs": [
        {
          "internalType": "address[]",
          "name": "",
          "type": "address[]"
        }
      ],
      "stateMutability": "view",
      "type": "function"
    },
    {
      "inputs": [],
      "name": "totalSupply",
      "outputs": [
        {
          "internalType": "uint256",
          "name": "",
          "type": "uint256"
        }
      ],
      "stateMutability": "view",
      "type": "function"
    },
    {
      "inputs": [
        {
          "internalType": "address",
          "name": "recipient",
          "type": "address"
        },
        {
          "internalType": "uint256",
          "name": "amount",
          "type": "uint256"
        }
      ],
      "name": "transfer",
      "outputs": [
        {
          "internalType": "bool",
          "name": "",
          "type": "bool"
        }
      ],
      "stateMutability": "nonpayable",
      "type": "function"
    },
    {
      "inputs": [
        {
          "internalType": "address",
          "name": "sender",
          "type": "address"
        },
        {
          "internalType": "address",
          "name": "recipient",
          "type": "address"
        },
        {
          "internalType": "uint256",
          "name": "amount",
          "type": "uint256"
        }
      ],
      "name": "transferFrom",
      "outputs": [
        {
          "internalType": "bool",
          "name": "",
          "type": "bool"
        }
      ],
      "stateMutability": "nonpayable",
      "type": "function"
    },
    {
      "inputs": [],
      "name": "unlock",
      "outputs": [],
      "stateMutability": "nonpayable",
      "type": "function"
    },
    {
      "inputs": [],
      "name": "updateAddresses",
      "outputs": [],
      "stateMutability": "nonpayable",
      "type": "function"
    },
    {
      "inputs": [
        {
          "internalType": "address",
          "name": "newManager",
          "type": "address"
        }
      ],
      "name": "updateManager",
      "outputs": [],
      "stateMutability": "nonpayable",
      "type": "function"
    },
    {
      "inputs": [
        {
          "internalType": "uint16",
          "name": "fee",
          "type": "uint16"
        }
      ],
      "name": "updatePerformanceFee",
      "outputs": [],
      "stateMutability": "nonpayable",
      "type": "function"
    },
    {
      "inputs": [
        {
          "internalType": "uint16",
          "name": "threshold",
          "type": "uint16"
        }
      ],
      "name": "updateRebalanceThreshold",
      "outputs": [],
      "stateMutability": "nonpayable",
      "type": "function"
    },
    {
      "inputs": [],
      "name": "updateTokenValue",
      "outputs": [],
      "stateMutability": "nonpayable",
      "type": "function"
    },
    {
      "inputs": [
        {
          "internalType": "uint256",
          "name": "total",
          "type": "uint256"
        },
        {
          "internalType": "uint256",
          "name": "supply",
          "type": "uint256"
        }
      ],
      "name": "updateTokenValue",
      "outputs": [],
      "stateMutability": "nonpayable",
      "type": "function"
    },
    {
      "inputs": [
        {
          "internalType": "address",
          "name": "item",
          "type": "address"
        },
        {
          "components": [
            {
              "internalType": "address[]",
              "name": "adapters",
              "type": "address[]"
            },
            {
              "internalType": "address[]",
              "name": "path",
              "type": "address[]"
            },
            {
              "internalType": "bytes",
              "name": "cache",
              "type": "bytes"
            }
          ],
          "internalType": "struct StrategyTypes.TradeData",
          "name": "data",
          "type": "tuple"
        }
      ],
      "name": "updateTradeData",
      "outputs": [],
      "stateMutability": "nonpayable",
      "type": "function"
    },
    {
      "inputs": [
        {
          "internalType": "string",
          "name": "newVersion",
          "type": "string"
        }
      ],
      "name": "updateVersion",
      "outputs": [],
      "stateMutability": "nonpayable",
      "type": "function"
    },
    {
      "inputs": [],
      "name": "version",
      "outputs": [
        {
          "internalType": "string",
          "name": "",
          "type": "string"
        }
      ],
      "stateMutability": "view",
      "type": "function"
    },
    {
      "inputs": [],
      "name": "whitelist",
      "outputs": [
        {
          "internalType": "contract IWhitelist",
          "name": "",
          "type": "address"
        }
      ],
      "stateMutability": "view",
      "type": "function"
    },
    {
      "inputs": [
        {
          "internalType": "uint256",
          "name": "amount",
          "type": "uint256"
        }
      ],
      "name": "withdrawAll",
      "outputs": [],
      "stateMutability": "nonpayable",
      "type": "function"
    },
    {
      "inputs": [
        {
          "internalType": "address[]",
          "name": "holders",
          "type": "address[]"
        }
      ],
      "name": "withdrawPerformanceFee",
      "outputs": [],
      "stateMutability": "nonpayable",
      "type": "function"
    },
    {
      "inputs": [],
      "name": "withdrawStreamingFee",
      "outputs": [],
      "stateMutability": "nonpayable",
      "type": "function"
    }
  ],
  "bytecode": "0x6101006040523480156200001257600080fd5b506040516200559e3803806200559e833981016040819052620000359162000120565b604854610100900460ff168062000051575062000051620000fc565b8062000060575060485460ff16155b620000885760405162461bcd60e51b81526004016200007f9062000180565b60405180910390fd5b604854610100900460ff16158015620000b4576048805460ff1961ff0019909116610100171660011790555b6001600160601b0319606086811b821660c05285811b821660e05284811b821660805283901b1660a0528015620000f1576048805461ff00191690555b5050505050620001ce565b303b1590565b80516001600160a01b03811681146200011a57600080fd5b92915050565b6000806000806080858703121562000136578384fd5b62000142868662000102565b935062000153866020870162000102565b925062000164866040870162000102565b915062000175866060870162000102565b905092959194509250565b6020808252602e908201527f496e697469616c697a61626c653a20636f6e747261637420697320616c72656160408201526d191e481a5b9a5d1a585b1a5e995960921b606082015260800190565b60805160601c60a05160601c60c05160601c60e05160601c61532562000279600039806108275280610bc45280610c7c52806111db52806113e652806116bb5280611e0e5280611ed65280611f47528061216952806123a65280612406528061245752806124b352806129ec5280612a9f5280612ac3525080611269528061171a52806121d3528061259e5250806114f4525080610d675280610df25280611fbe52506153256000f3fe608060405234801561001057600080fd5b50600436106103265760003560e01c80638db16ff3116101aa578063c0d78655116100f5578063c0d7865514610616578063c45a015514610629578063cacefe5614610631578063cf30901214610644578063d1cc8c9d1461064c578063d505accf14610654578063d745078814610667578063d81076a31461067a578063da3e33971461068d578063dbbc5aca146106a0578063dd62ed3e146106b3578063df3568d9146106c6578063e26db6fc146106d9578063f1e42ccd146106e1578063f729023f146106f4578063f77c479114610707578063f83d08ba1461070f57610326565b80638db16ff314610549578063939a2bfc1461055c57806393e59dc114610564578063958e2d311461056c57806395d89b411461057f5780639a8a0592146105875780639b45c5c41461058f5780639dc29fac146105975780639f147050146105aa578063a457c2d7146105b2578063a5d33ed5146105c5578063a69df4b5146105cd578063a9059cbb146105d5578063aa7f9bae146105e8578063bfba8141146105fb578063c06fad061461060e57610326565b8063481c6a7511610275578063481c6a751461045c57806349408949146104715780634a2f38a51461047957806354fd4d501461048157806358aba00f14610489578063709ac1c31461049c57806370a08231146104af5780637240f9af146104c25780637a1bb162146104d55780637dc0d1d0146104dd5780637ea2417b146104e55780637ecebe00146104f8578063803c88901461050b57806381bd8a50146105135780638778878214610526578063886abef51461052e5780638aac766b1461054157610326565b806306fdde031461032b578063095ea7b3146103495780630dca59c1146103695780631434ffac1461037e5780631649741c1461039357806318160ddd1461039b57806323b872dd146103b057806330adf81f146103c3578063313ce567146103cb578063336685fc146103e05780633644e5151461040057806339509351146104085780633aa932541461041b5780633dfe9f6a1461042e5780633ebbc9c41461043657806340c10f1914610449575b600080fd5b610333610717565b6040516103409190614cc3565b60405180910390f35b61035c6103573660046145fd565b6107ad565b6040516103409190614c31565b6103716107c4565b6040516103409190614c1e565b61039161038c366004614628565b610825565b005b61033361092d565b6103a3610954565b6040516103409190614c3c565b61035c6103be3660046144fb565b61095a565b6103a36109dd565b6103d3610a01565b604051610340919061520f565b6103f36103ee36600461448b565b610a06565b6040516103409190615176565b6103a3610b86565b61035c6104163660046145fd565b610b8c565b6103916104293660046146ac565b610bc2565b6103a3610c55565b6103a361044436600461448b565b610c5f565b6103916104573660046145fd565b610c7a565b610464610d29565b6040516103409190614b21565b61035c610d38565b610391610d40565b6103336110b6565b61039161049736600461448b565b611117565b6103916104aa3660046148a0565b6111d9565b6103a36104bd36600461448b565b611243565b6103916104d03660046147b2565b61125e565b6103a36112cd565b6104646112d8565b6103916104f33660046146f2565b6112e7565b6103a361050636600461448b565b611369565b610371611384565b6103916105213660046146ac565b6113e4565b6103a36114b7565b61039161053c36600461448b565b6114c8565b6103916115e8565b61039161055736600461467a565b61160d565b6103916116b9565b610464611716565b61039161057a3660046148c2565b6117ae565b610333611d8f565b6103a3611df0565b6103a3611df4565b6103a36105a53660046145fd565b611e0a565b610391611e5e565b61035c6105c03660046145fd565b611e76565b6103a3611ec9565b610391611ed4565b61035c6105e33660046145fd565b611f1c565b6103a36105f636600461448b565b611f29565b6103916106093660046145fd565b611f45565b610371612107565b61039161062436600461448b565b612167565b6104646121d1565b6103a361063f36600461448b565b6121f5565b61035c612210565b61035c61221b565b61039161066236600461453b565b612223565b6103916106753660046148a0565b6123a4565b610391610688366004614748565b612404565b61039161069b3660046144fb565b612455565b6103916106ae366004614975565b6124b1565b6103a36106c13660046144c3565b612503565b6103916106d43660046145b0565b61252e565b61039161259a565b6103916106ef3660046144c3565b61289a565b61035c6107023660046147e4565b6128bc565b610464612a9d565b610391612ac1565b60058054604080516020601f60026000196101006001881615020190951694909404938401819004810282018101909252828152606093909290918301828280156107a35780601f10610778576101008083540402835291602001916107a3565b820191906000526020600020905b81548152906001019060200180831161078657829003601f168201915b5050505050905090565b60006107ba338484612b11565b5060015b92915050565b606060138054806020026020016040519081016040528092919081815260200182805480156107a357602002820191906000526020600020905b81546001600160a01b031681526001909101906020018083116107fe575050505050905090565b7f00000000000000000000000000000000000000000000000000000000000000006001600160a01b031633146108765760405162461bcd60e51b815260040161086d90614d81565b60405180910390fd5b61087f84612b8b565b60607f230f11c7cc54d258ee9bfebf8292225b43b26633217971638b4a8364be584e17846001858530306040516024016108be969594939291906151d6565b60408051601f198184030181529190526020810180516001600160e01b03166001600160e01b031990931692909217909152905060005a905060008060008451602086018a86f49050806109245760405162461bcd60e51b815260040161086d90614d2e565b50505050505050565b6040518060400160405280601d81526020016000805160206152b083398151915281525081565b60045490565b6000610967848484612c2a565b604080518082018252601881527745524332303a20616c6c6f77616e636520746f6f206c6f7760401b6020808301919091526001600160a01b03871660009081526001825283812033808352925292909220546109d292879290916109cd918790612d12565b612b11565b5060015b9392505050565b7f6e71edae12b1b97f4d1f60370fef10105fa2faae0126114a169c64845d6126c981565b601281565b610a0e614119565b6001600160a01b03821660009081526015602090815260409182902082518154608093810282018401909452606081018481529093919284928491840182828015610a8257602002820191906000526020600020905b81546001600160a01b03168152600190910190602001808311610a64575b5050505050815260200160018201805480602002602001604051908101604052809291908181526020018280548015610ae457602002820191906000526020600020905b81546001600160a01b03168152600190910190602001808311610ac6575b5050509183525050600282810180546040805160206001841615610100026000190190931694909404601f81018390048302850183019091528084529381019390830182828015610b765780601f10610b4b57610100808354040283529160200191610b76565b820191906000526020600020905b815481529060010190602001808311610b5957829003601f168201915b5050505050815250509050919050565b60005481565b3360008181526001602090815260408083206001600160a01b038716845290915281205490916107ba9185906109cd9086612d3e565b7f00000000000000000000000000000000000000000000000000000000000000006001600160a01b03163314610c0a5760405162461bcd60e51b815260040161086d90614d81565b60005b8351811015610c4f57610c478383868481518110610c2757fe5b60200260200101516001600160a01b0316612d639092919063ffffffff16565b600101610c0d565b50505050565b60095461ffff1690565b6001600160a01b031660009081526014602052604090205490565b7f00000000000000000000000000000000000000000000000000000000000000006001600160a01b03163314610cc25760405162461bcd60e51b815260040161086d90614d81565b600c546009546008546001600160a01b0390921691600091610d049186918691600160701b9091046001600160801b031690600160e81b900461ffff16612db9565b90508015610d1657610d168282612f57565b610d208484612f91565b610c4f82613016565b600b546001600160a01b031690565b601254151590565b610d48610d38565b156110b4576040516321f8a72160e01b81526000906001600160a01b037f000000000000000000000000000000000000000000000000000000000000000016906321f8a72190610d9a90600401614fa7565b602060405180830381600087803b158015610db457600080fd5b505af1158015610dc8573d6000803e3d6000fd5b505050506040513d601f19601f82011682018060405250810190610dec91906144a7565b905060007f00000000000000000000000000000000000000000000000000000000000000006001600160a01b03166321f8a7216040518163ffffffff1660e01b8152600401610e3a90615008565b602060405180830381600087803b158015610e5457600080fd5b505af1158015610e68573d6000803e3d6000fd5b505050506040513d601f19601f82011682018060405250810190610e8c91906144a7565b6040516306c5a00b60e21b81529091506001600160a01b03831690631b16802c90610ebb903090600401614bfd565b606060405180830381600087803b158015610ed557600080fd5b505af1158015610ee9573d6000803e3d6000fd5b505050506040513d601f19601f82011682018060405250810190610f0d9190614996565b50505060005b6012548110156110b057826001600160a01b0316631b16802c30846001600160a01b03166316b2213f60128681548110610f4957fe5b6000918252602091829020015460408051636a5c1cc960e11b815290516001600160a01b039092169263d4b8399292600480840193829003018186803b158015610f9257600080fd5b505afa158015610fa6573d6000803e3d6000fd5b505050506040513d601f19601f82011682018060405250810190610fca91906144a7565b6040518263ffffffff1660e01b8152600401610fe69190614b21565b60206040518083038186803b158015610ffe57600080fd5b505afa158015611012573d6000803e3d6000fd5b505050506040513d601f19601f82011682018060405250810190611036919061479a565b6040518363ffffffff1660e01b8152600401611053929190614be4565b606060405180830381600087803b15801561106d57600080fd5b505af1158015611081573d6000803e3d6000fd5b505050506040513d601f19601f820116820180604052508101906110a59190614996565b505050600101610f13565b5050505b565b60078054604080516020601f60026000196101006001881615020190951694909404938401819004810282018101909252828152606093909290918301828280156107a35780601f10610778576101008083540402835291602001916107a3565b61111f613080565b600b546001600160a01b038281169116141561114d5760405162461bcd60e51b815260040161086d90614e70565b600954600b80546001600160a01b039081166000908152600a6020526040808220600160701b9095046001600160801b031690945590841680825290839020600019905581546001600160a01b031916179055517f5c18ab5c697b63d102fc7e14c77bfaef0f1013206eca139920fd389277814e09906111ce908390614b21565b60405180910390a150565b7f00000000000000000000000000000000000000000000000000000000000000006001600160a01b031633146112215760405162461bcd60e51b815260040161086d90614d81565b6008805461ffff909216600160e81b0261ffff60e81b19909216919091179055565b6001600160a01b031660009081526002602052604090205490565b336001600160a01b037f000000000000000000000000000000000000000000000000000000000000000016146112a65760405162461bcd60e51b815260040161086d90614cfb565b80516112b990600790602084019061413a565b506112c26130aa565b6112ca61259a565b50565b66038e67b515a02981565b600d546001600160a01b031690565b6112ef613133565b6112f7613080565b80518251146113185760405162461bcd60e51b815260040161086d90614ec3565b60005b825181101561135c5761135483828151811061133357fe5b602002602001015183838151811061134757fe5b6020026020010151613165565b60010161131b565b5061136561324f565b5050565b6001600160a01b031660009081526003602052604090205490565b606060128054806020026020016040519081016040528092919081815260200182805480156107a3576020028201919060005260206000209081546001600160a01b031681526001909101906020018083116107fe575050505050905090565b7f00000000000000000000000000000000000000000000000000000000000000006001600160a01b0316331461142c5760405162461bcd60e51b815260040161086d90614d81565b60005b8351811015610c4f5783818151811061144457fe5b60200260200101516001600160a01b031663c04a8a1084846040518363ffffffff1660e01b8152600401611479929190614be4565b600060405180830381600087803b15801561149357600080fd5b505af11580156114a7573d6000803e3d6000fd5b50506001909201915061142f9050565b600854600160e81b900461ffff1690565b6010546001600160a01b031633146114f25760405162461bcd60e51b815260040161086d90614daa565b7f00000000000000000000000000000000000000000000000000000000000000006001600160a01b0316630261bf8b6040518163ffffffff1660e01b8152600401602060405180830381600087803b15801561154d57600080fd5b505af1158015611561573d6000803e3d6000fd5b505050506040513d601f19601f8201168201806040525081019061158591906144a7565b6001600160a01b0316635a3b74b98260016040518363ffffffff1660e01b81526004016115b3929190614bc9565b600060405180830381600087803b1580156115cd57600080fd5b505af11580156115e1573d6000803e3d6000fd5b5050505050565b6115f0613133565b600c54611605906001600160a01b031661325b565b6110b461324f565b611615613133565b61161d613080565b611625613322565b600854600160e81b900461ffff166000805b83518110156116715761166761166085838151811061165257fe5b6020026020010151856133ba565b8390612d3e565b9150600101611637565b50600081116116925760405162461bcd60e51b815260040161086d9061507f565b600c546001600160a01b03166116a88183612f57565b6116b181613016565b610c4f61324f565b7f00000000000000000000000000000000000000000000000000000000000000006001600160a01b031633146117015760405162461bcd60e51b815260040161086d90614d81565b600c546110b4906001600160a01b031661325b565b60007f00000000000000000000000000000000000000000000000000000000000000006001600160a01b03166393e59dc16040518163ffffffff1660e01b815260040160206040518083038186803b15801561177157600080fd5b505afa158015611785573d6000803e3d6000fd5b505050506040513d601f19601f820116820180604052508101906117a991906144a7565b905090565b6117b6613133565b601354156117d65760405162461bcd60e51b815260040161086d90614d53565b600081116117f65760405162461bcd60e51b815260040161086d90614fe6565b6117fe610d40565b60045460009061180e338461343e565b925061182c8161182685670de0b6b3a7640000613475565b906134af565b601154601254919350915080151560008161184a5783600101611851565b8284016002015b90506060816001600160401b038111801561186b57600080fd5b50604051908082528060200260200182016040528015611895578160200160208202803683370190505b5090506060826001600160401b03811180156118b057600080fd5b506040519080825280602002602001820160405280156118da578160200160208202803683370190505b50905060005b868110156119e1576000601182815481106118f757fe5b60009182526020822001546040516370a0823160e01b81526001600160a01b03909116925082906370a0823190611932903090600401614b21565b60206040518083038186803b15801561194a57600080fd5b505afa15801561195e573d6000803e3d6000fd5b505050506040513d601f19601f82011682018060405250810190611982919061479a565b905061199a670de0b6b3a7640000611826838d613475565b8484815181106119a657fe5b602002602001018181525050818584815181106119bf57fe5b6001600160a01b039092166020928302919091019091015250506001016118e0565b508315611bdc57855b60028403811015611af0576000601288830381548110611a0657fe5b60009182526020822001546040516370a0823160e01b81526001600160a01b03909116925082906370a0823190611a41903090600401614b21565b60206040518083038186803b158015611a5957600080fd5b505afa158015611a6d573d6000803e3d6000fd5b505050506040513d601f19601f82011682018060405250810190611a91919061479a565b9050611aa9670de0b6b3a7640000611826838d613475565b848481518110611ab557fe5b60200260200101818152505081858481518110611ace57fe5b6001600160a01b039092166020928302919091019091015250506001016119ea565b50600f546040516370a0823160e01b81526001600160a01b039091169060009082906370a0823190611b26903090600401614b21565b60206040518083038186803b158015611b3e57600080fd5b505afa158015611b52573d6000803e3d6000fd5b505050506040513d601f19601f82011682018060405250810190611b76919061479a565b9050611b8e670de0b6b3a7640000611826838c613475565b836002870381518110611b9d57fe5b60200260200101818152505081846002870381518110611bb957fe5b60200260200101906001600160a01b031690816001600160a01b03168152505050505b600e546040516370a0823160e01b81526001600160a01b039091169060009082906370a0823190611c11903090600401614b21565b60206040518083038186803b158015611c2957600080fd5b505afa158015611c3d573d6000803e3d6000fd5b505050506040513d601f19601f82011682018060405250810190611c61919061479a565b9050611c79670de0b6b3a7640000611826838c613475565b836001870381518110611c8857fe5b60200260200101818152505081846001870381518110611ca457fe5b60200260200101906001600160a01b031690816001600160a01b03168152505060005b85811015611d37576000848281518110611cdd57fe5b60200260200101511115611d2f57611d2f33858381518110611cfb57fe5b6020026020010151878481518110611d0f57fe5b60200260200101516001600160a01b03166134ee9092919063ffffffff16565b600101611cc7565b50336001600160a01b03167faef68853d1f7f9e4e5fe02896078a87a319c7b257208dac49346c8f03b36c6858b85604051611d73929190615189565b60405180910390a2611d8361324f565b50505050505050505050565b60068054604080516020601f60026000196101006001881615020190951694909404938401819004810282018101909252828152606093909290918301828280156107a35780601f10610778576101008083540402835291602001916107a3565b4690565b600954600160701b90046001600160801b031690565b60007f00000000000000000000000000000000000000000000000000000000000000006001600160a01b03163314611e545760405162461bcd60e51b815260040161086d90614d81565b6109d6838361343e565b611e66613133565b611e6e613080565b611605613322565b3360009081526001602090815260408083206001600160a01b038616845290915281205482811015611eba5760405162461bcd60e51b815260040161086d90615114565b6109d233856109cd848761350d565b66071afd498d000081565b7f00000000000000000000000000000000000000000000000000000000000000006001600160a01b031633146116055760405162461bcd60e51b815260040161086d90614d81565b60006107ba338484612c2a565b6008546000906107be908390600160e81b900461ffff1661354f565b7f00000000000000000000000000000000000000000000000000000000000000006001600160a01b03163314611f8d5760405162461bcd60e51b815260040161086d90614d81565b600f54611fa4906001600160a01b03168383612d63565b6040516321f8a72160e01b81526000906001600160a01b037f000000000000000000000000000000000000000000000000000000000000000016906321f8a72190611ff190600401615159565b602060405180830381600087803b15801561200b57600080fd5b505af115801561201f573d6000803e3d6000fd5b505050506040513d601f19601f8201168201806040525081019061204391906144a7565b9050816120ad57604051635c8ab77d60e11b81526001600160a01b0382169063b9156efa90612076908690600401614b21565b600060405180830381600087803b15801561209057600080fd5b505af11580156120a4573d6000803e3d6000fd5b505050506110b0565b60405163447fbc6360e01b81526001600160a01b0382169063447fbc63906120d9908690600401614b21565b600060405180830381600087803b1580156120f357600080fd5b505af1158015610924573d6000803e3d6000fd5b606060118054806020026020016040519081016040528092919081815260200182805480156107a3576020028201919060005260206000209081546001600160a01b031681526001909101906020018083116107fe575050505050905090565b7f00000000000000000000000000000000000000000000000000000000000000006001600160a01b031633146121af5760405162461bcd60e51b815260040161086d90614d81565b601080546001600160a01b0319166001600160a01b0392909216919091179055565b7f000000000000000000000000000000000000000000000000000000000000000081565b6001600160a01b03166000908152600a602052604090205490565b60085460ff16151590565b601354151590565b834211156122435760405162461bcd60e51b815260040161086d90614fbc565b600080546001600160a01b0389168252600360209081526040808420549051612297927f6e71edae12b1b97f4d1f60370fef10105fa2faae0126114a169c64845d6126c9928d928d928d92918d9101614c45565b604051602081830303815290604052805190602001206040516020016122be929190614b06565b6040516020818303038152906040528051906020012090506000600182868686604051600081526020016040526040516122fb9493929190614ca5565b6020604051602081039080840390855afa15801561231d573d6000803e3d6000fd5b5050604051601f1901519150506001600160a01b038116158015906123535750886001600160a01b0316816001600160a01b0316145b61236f5760405162461bcd60e51b815260040161086d90614e45565b6001600160a01b038916600090815260036020526040902080546001019055612399898989612b11565b505050505050505050565b7f00000000000000000000000000000000000000000000000000000000000000006001600160a01b031633146123ec5760405162461bcd60e51b815260040161086d90614d81565b6009805461ffff191661ffff92909216919091179055565b7f00000000000000000000000000000000000000000000000000000000000000006001600160a01b0316331461244c5760405162461bcd60e51b815260040161086d90614d81565b6112ca816135d5565b7f00000000000000000000000000000000000000000000000000000000000000006001600160a01b0316331461249d5760405162461bcd60e51b815260040161086d90614d81565b6110b06001600160a01b0384168383612d63565b7f00000000000000000000000000000000000000000000000000000000000000006001600160a01b031633146124f95760405162461bcd60e51b815260040161086d90614d81565b6113658282613b59565b6001600160a01b03918216600090815260016020908152604080832093909416825291909152205490565b612536613080565b6001600160a01b03821660009081526015602090815260409091208251805184936125659284929101906141b8565b50602082810151805161257e92600185019201906141b8565b50604082015180516115e191600284019160209091019061413a565b60007f000000000000000000000000000000000000000000000000000000000000000090506000816001600160a01b03166316f0115b6040518163ffffffff1660e01b815260040160206040518083038186803b1580156125fa57600080fd5b505afa15801561260e573d6000803e3d6000fd5b505050506040513d601f19601f8201168201806040525081019061263291906144a7565b600c549091506001600160a01b0390811690821681146126c3576001600160a01b03811615612692576009546001600160a01b0382166000908152600a60205260409020600160701b9091046001600160801b0316905561269282613016565b6001600160a01b0382166000818152600a602052604090206000199055600c80546001600160a01b03191690911790555b6000836001600160a01b0316637dc0d1d06040518163ffffffff1660e01b815260040160206040518083038186803b1580156126fe57600080fd5b505afa158015612712573d6000803e3d6000fd5b505050506040513d601f19601f8201168201806040525081019061273691906144a7565b600d549091506001600160a01b03808316911614610c4f57600d80546001600160a01b0319166001600160a01b03831690811790915560408051633fc8cef360e01b81529051839291633fc8cef3916004808301926020929190829003018186803b1580156127a457600080fd5b505afa1580156127b8573d6000803e3d6000fd5b505050506040513d601f19601f820116820180604052508101906127dc91906144a7565b600e60006101000a8154816001600160a01b0302191690836001600160a01b03160217905550806001600160a01b031663c92577756040518163ffffffff1660e01b815260040160206040518083038186803b15801561283b57600080fd5b505afa15801561284f573d6000803e3d6000fd5b505050506040513d601f19601f8201168201806040525081019061287391906144a7565b600f80546001600160a01b0319166001600160a01b03929092169190911790555050505050565b6128a2613133565b6128aa613080565b6128b48282613165565b61136561324f565b604854600090610100900460ff16806128d857506128d8613b9f565b806128e6575060485460ff16155b6129025760405162461bcd60e51b815260040161086d90614ef1565b604854610100900460ff1615801561292d576048805460ff1961ff0019909116610100171660011790555b600b80546001600160a01b0319166001600160a01b038616179055865161295b9060059060208a019061413a565b50855161296f90600690602089019061413a565b50845161298390600790602088019061413a565b5060098054600160701b600160f01b0319166503782dace9d960821b1762010000600160701b03191662010000426001600160601b0316021790556129c66130aa565b6129ce61259a565b825115612a7d57604051636aa8278160e11b81526001600160a01b037f0000000000000000000000000000000000000000000000000000000000000000169063d5504f0290612a239030908790600401614b35565b60206040518083038186803b158015612a3b57600080fd5b505afa158015612a4f573d6000803e3d6000fd5b505050506040513d601f19601f82011682018060405250810190612a73919061477a565b50612a7d836135d5565b600191508015612a93576048805461ff00191690555b5095945050505050565b7f000000000000000000000000000000000000000000000000000000000000000081565b7f00000000000000000000000000000000000000000000000000000000000000006001600160a01b03163314612b095760405162461bcd60e51b815260040161086d90614d81565b6110b4613133565b612b1a83613ba5565b612b2382613ba5565b6001600160a01b0380841660008181526001602090815260408083209487168084529490915290819020849055517f8c5be1e5ebec7d5bd14f71427d1e84f3dd0314c0f7b2291e5b200ac8c7c3b92590612b7e908590614c3c565b60405180910390a3505050565b612b93611716565b6001600160a01b031663d8b964e6826040518263ffffffff1660e01b8152600401612bbe9190614b21565b60206040518083038186803b158015612bd657600080fd5b505afa158015612bea573d6000803e3d6000fd5b505050506040513d601f19601f82011682018060405250810190612c0e919061477a565b6112ca5760405162461bcd60e51b815260040161086d90614e9d565b612c3383613ba5565b612c3c82613ba5565b612c47818484613bcb565b604080518082018252601d81526000805160206152b08339815191526020808301919091526001600160a01b038616600090815260029091529190912054612c90918390612d12565b6001600160a01b038085166000908152600260205260408082209390935590841681522054612cbf9082612d3e565b6001600160a01b038316600090815260026020526040902055612ce183613d39565b816001600160a01b0316836001600160a01b03166000805160206152d083398151915283604051612b7e9190614c3c565b60008184841115612d365760405162461bcd60e51b815260040161086d9190614cc3565b505050900390565b6000828201838110156109d65760405162461bcd60e51b815260040161086d90614dcf565b6110b08363095ea7b360e01b8484604051602401612d82929190614be4565b60408051601f198184030181529190526020810180516001600160e01b03166001600160e01b031990931692909217909152613d70565b6001600160a01b0384166000908152600a60205260408120548015612edd57600019811415612dec576000915050612f4f565b6009546001600160a01b038716600090815260026020526040812054600160701b9092046001600160801b0316919082841015612e3557612e2f82858589613dff565b90508293505b868414612e6657612e488289868a613e2e565b6001600160a01b038a166000908152600a6020526040902055612e8a565b82841415612e8a576001600160a01b0389166000908152600a602052604090208490555b8015612ed257886001600160a01b03167f620154c7367c3805aa5a57be3421bcd8ae0de705b07bb7880c7ebdd1eff8423782604051612ec99190614c3c565b60405180910390a25b9350612f4f92505050565b600b546001600160a01b0387811691161480612f065750600c546001600160a01b038781169116145b15612f2d576001600160a01b0386166000908152600a602052604090206000199055612f49565b6001600160a01b0386166000908152600a602052604090208490555b60009150505b949350505050565b6000612f6b6103e86118268461012c613475565b9050612f778382612f91565b600b546110b0906001600160a01b0316612f91848461350d565b612f9a82613ba5565b600454612fa79082612d3e565b6004556001600160a01b038216600090815260026020526040902054612fcd9082612d3e565b6001600160a01b0383166000818152600260205260408082209390935591519091906000805160206152d08339815191529061300a908590614c3c565b60405180910390a35050565b6001600160a01b03811660009081526002602052604090205460045461304e9166038e67b515a029916130489161350d565b90613475565b6001600160c01b0316600860016101000a8154816001600160e01b0302191690836001600160e01b0316021790555050565b600b546001600160a01b031633146110b45760405162461bcd60e51b815260040161086d90614cd6565b7f8b73c3c69bb8fe3d512ecc4cf759cc79239f7b179b0ffacaa9a75d522b39400f60056040516130da9190614a96565b604051809103902060076040516130f19190614a96565b6040518091039020613101611df0565b30604051602001613116959493929190614c79565b60408051601f198184030181529190528051602090910120600055565b60085460ff16156131565760405162461bcd60e51b815260040161086d90614f3f565b6008805460ff19166001179055565b61316e82612b8b565b60607f1e83409a4600994e83773c811443f8c040c23a89ea11e24724996a8b477016a1826040516024016131a29190614b21565b60408051601f198184030181529190526020810180516001600160e01b03166001600160e01b031990931692909217909152905060005a905060008060008451602086018886f49050806132085760405162461bcd60e51b815260040161086d906150ee565b836001600160a01b0316856001600160a01b03167f76fefaa578826cd28a6d72d47460f755534b9a481c773721143222296cc4cc5a60405160405180910390a35050505050565b6008805460ff19169055565b60095460009061327b9042906201000090046001600160601b031661350d565b90508015611365576008546000906132b790670de0b6b3a764000090611826906301e1338090829061010090046001600160e01b031687613475565b90506132c38382612f91565b6009805462010000600160701b03191662010000426001600160601b0316021790556040517f66c77f845ffc734f7250e8a5399169a71b617eedc0063f899cf6c7db19d6b56290613315908390614c3c565b60405180910390a1505050565b600061332c6112d8565b6001600160a01b031663ff4a1902306040518263ffffffff1660e01b81526004016133579190614b21565b60006040518083038186803b15801561336f57600080fd5b505afa158015613383573d6000803e3d6000fd5b505050506040513d6000823e601f3d908101601f191682016040526133ab91908101906148da565b5090506112ca81600454613b59565b6000806133c7848461354f565b905080156109d6576009546001600160a01b0385166000818152600a602052604090819020600160701b9093046001600160801b031690925590517f620154c7367c3805aa5a57be3421bcd8ae0de705b07bb7880c7ebdd1eff842379061342f908490614c3c565b60405180910390a29392505050565b600c546000906001600160a01b0316613458848285613e63565b92506134648484613efd565b61346d81613016565b509092915050565b600082613484575060006107be565b8282028284828161349157fe5b04146109d65760405162461bcd60e51b815260040161086d90614f66565b60006109d683836040518060400160405280601a815260200179536166654d6174683a206469766973696f6e206279207a65726f60301b815250613fb3565b6110b08363a9059cbb60e01b8484604051602401612d82929190614be4565b60006109d683836040518060400160405280601e81526020017f536166654d6174683a207375627472616374696f6e206f766572666c6f770000815250612d12565b6001600160a01b0382166000908152600a6020526040812054600954600160701b90046001600160801b031611156135cc576001600160a01b038316600090815260026020908152604080832054600a909252909120546009546135c5929190600160701b90046001600160801b031685613dff565b90506107be565b50600092915050565b600e54600f546001600160a01b039182166000818152601460205260408082208290559284168082529281208190559283527feef591571549cf9b667da255ab4bb2a90dfdcb77845d7bc32c3bf4528eee03db839055915b60115481101561367557601460006011838154811061364857fe5b60009182526020808320909101546001600160a01b0316835282019290925260400181205560010161362d565b5060005b6013548110156136c157601460006013838154811061369457fe5b60009182526020808320909101546001600160a01b03168352820192909252604001812055600101613679565b5060005b60125481101561370d5760146000601283815481106136e057fe5b60009182526020808320909101546001600160a01b031683528201929092526040018120556001016136c5565b5061371a60136000614219565b61372660116000614219565b61373260126000614219565b600061373c6112d8565b6001600160a01b0316639d23c4c76040518163ffffffff1660e01b815260040160206040518083038186803b15801561377457600080fd5b505afa158015613788573d6000803e3d6000fd5b505050506040513d601f19601f820116820180604052508101906137ac91906144a7565b90506000805b8551811015613a7e5760008682815181106137c957fe5b60200260200101516000015190508682815181106137e357fe5b6020908102919091018101516040908101516001600160a01b03841660009081526015845291909120815180519293919261382192849201906141b8565b50602082810151805161383a92600185019201906141b8565b506040820151805161385691600284019160209091019061413a565b5090505086828151811061386657fe5b60200260200101516020015160146000836001600160a01b03166001600160a01b03168152602001908152602001600020819055506000846001600160a01b03166397d39de4836040518263ffffffff1660e01b81526004016138c99190614b21565b60206040518083038186803b1580156138e157600080fd5b505afa1580156138f5573d6000803e3d6000fd5b505050506040513d601f19601f82011682018060405250810190613919919061479a565b600381111561392457fe5b9050600081600381111561393457fe5b141561398a57601180546001810182556000919091527f31ecc21a745e3968a04e9570e4425bc18fa8019c68028196b546d1669c200c680180546001600160a01b0319166001600160a01b038416179055613a74565b600181600381111561399857fe5b1415613a14576001600160a01b0382166000908152601460205260409020546139c2908590613fea565b601280546001810182556000919091527fbb8a6a4669ba250d26cd7a459eca9d215f8307e33aebe50379bc5a3617ec34440180546001600160a01b0319166001600160a01b0385161790559350613a74565b6002816003811115613a2257fe5b1415613a7457601380546001810182556000919091527f66de8ffda797e3de9c05e8fc57b3bf0ec28a930d40b0d285d93c06501cf6a0900180546001600160a01b0319166001600160a01b0384161790555b50506001016137b2565b5060125415613ae6576001600160a01b038316600090815260146020526040902054613aab908290613fea565b6001600160a01b0360005260146020527feef591571549cf9b667da255ab4bb2a90dfdcb77845d7bc32c3bf4528eee03db81905590506115e1565b6001600160a01b03831660009081526014602052604081205413156115e157601180546001810182556000919091527f31ecc21a745e3968a04e9570e4425bc18fa8019c68028196b546d1669c200c680180546001600160a01b0385166001600160a01b03199091161790555050505050565b801561136557613b758161182684670de0b6b3a7640000613475565b6009600e6101000a8154816001600160801b0302191690836001600160801b031602179055505050565b303b1590565b6001600160a01b0381166112ca5760405162461bcd60e51b815260040161086d9061501a565b600854600160e81b900461ffff168015610c4f576001600160a01b038084166000908152600a602052604080822054928516825290205480158015613c11575060001982105b15613c36576001600160a01b0384166000908152600a60205260409020829055613d31565b600c546001600160a01b03908116906000908716821480613c685750816001600160a01b0316866001600160a01b0316145b90508015613c7957613c798261325b565b6000613c8588876133ba565b6001600160a01b0389166000908152600a6020526040812054965090915060001986108015613cc55750600954600160701b90046001600160801b031686115b613ce157600954600160701b90046001600160801b0316613ce3565b855b9050613cf4611660898c848b612db9565b91508115613d225782613d0a57613d0a8461325b565b613d148483612f57565b613d1d84613016565b611d83565b8215611d8357611d8384613016565b505050505050565b6001600160a01b0381166000908152600260205260409020546112ca576001600160a01b03166000908152600a6020526040812055565b6060613dc5826040518060400160405280602081526020017f5361666545524332303a206c6f772d6c6576656c2063616c6c206661696c6564815250856001600160a01b03166140309092919063ffffffff16565b8051909150156110b05780806020019051810190613de3919061477a565b6110b05760405162461bcd60e51b815260040161086d906150a4565b600080613e0c848661350d565b9050613e24846118266103e881876130488c88613475565b9695505050505050565b6000613e5a613e3d8686612d3e565b611826613e4a8786613475565b613e548988613475565b90612d3e565b95945050505050565b6000826001600160a01b0316846001600160a01b03161415613e865750806109d6565b6000613ea5670de0b6b3a76400006118268566071afd498d0000613475565b9050613eb2858583612c2a565b846001600160a01b03167fc18340ba98721bcff47f10f30da90ced66f2b96b9afed4cbdf4e0184b4a7046982604051613eeb9190614c3c565b60405180910390a2613e5a838261350d565b613f0682613ba5565b604080518082018252601d81526000805160206152b08339815191526020808301919091526001600160a01b038516600090815260029091529190912054613f4f918390612d12565b6001600160a01b038316600090815260026020526040902055600454613f75908261350d565b600455613f8182613d39565b60006001600160a01b0316826001600160a01b03166000805160206152d08339815191528360405161300a9190614c3c565b60008183613fd45760405162461bcd60e51b815260040161086d9190614cc3565b506000838581613fe057fe5b0495945050505050565b6000828201818312801590613fff5750838112155b80614014575060008312801561401457508381125b6109d65760405162461bcd60e51b815260040161086d90614e04565b6060612f4f848460008585614044856140da565b6140605760405162461bcd60e51b815260040161086d90615048565b60006060866001600160a01b0316858760405161407d9190614a7a565b60006040518083038185875af1925050503d80600081146140ba576040519150601f19603f3d011682016040523d82523d6000602084013e6140bf565b606091505b50915091506140cf8282866140e0565b979650505050505050565b3b151590565b606083156140ef5750816109d6565b8251156140ff5782518084602001fd5b8160405162461bcd60e51b815260040161086d9190614cc3565b60405180606001604052806060815260200160608152602001606081525090565b828054600181600116156101000203166002900490600052602060002090601f016020900481019282601f1061417b57805160ff19168380011785556141a8565b828001600101855582156141a8579182015b828111156141a857825182559160200191906001019061418d565b506141b4929150614233565b5090565b82805482825590600052602060002090810192821561420d579160200282015b8281111561420d57825182546001600160a01b0319166001600160a01b039091161782556020909201916001909101906141d8565b506141b4929150614248565b50805460008255906000526020600020908101906112ca91905b5b808211156141b45760008155600101614234565b5b808211156141b45780546001600160a01b0319168155600101614249565b600082601f830112614277578081fd5b813561428a61428582615243565b61521d565b8181529150602080830190848101818402860182018710156142ab57600080fd5b60005b848110156142d35781356142c18161529a565b845292820192908201906001016142ae565b505050505092915050565b600082601f8301126142ee578081fd5b81356142fc61428582615243565b818152915060208083019084810160005b848110156142d35781358701606080601f19838c0301121561432e57600080fd5b6143378161521d565b858301356143448161529a565b81526040838101358783015291830135916001600160401b0383111561436957600080fd5b6143778c88858701016143f7565b9082015286525050928201929082019060010161430d565b600082601f83011261439f578081fd5b81356001600160401b038111156143b4578182fd5b6143c7601f8201601f191660200161521d565b91508082528360208285010111156143de57600080fd5b8060208401602084013760009082016020015292915050565b600060608284031215614408578081fd5b614412606061521d565b905081356001600160401b038082111561442b57600080fd5b61443785838601614267565b8352602084013591508082111561444d57600080fd5b61445985838601614267565b6020840152604084013591508082111561447257600080fd5b5061447f8482850161438f565b60408301525092915050565b60006020828403121561449c578081fd5b81356109d68161529a565b6000602082840312156144b8578081fd5b81516109d68161529a565b600080604083850312156144d5578081fd5b82356144e08161529a565b915060208301356144f08161529a565b809150509250929050565b60008060006060848603121561450f578081fd5b833561451a8161529a565b9250602084013561452a8161529a565b929592945050506040919091013590565b600080600080600080600060e0888a031215614555578283fd5b87356145608161529a565b965060208801356145708161529a565b95506040880135945060608801359350608088013560ff81168114614593578384fd5b9699959850939692959460a0840135945060c09093013592915050565b600080604083850312156145c2578182fd5b82356145cd8161529a565b915060208301356001600160401b038111156145e7578182fd5b6145f3858286016143f7565b9150509250929050565b6000806040838503121561460f578182fd5b823561461a8161529a565b946020939093013593505050565b6000806000806080858703121561463d578182fd5b84356146488161529a565b935060208501359250604085013561465f8161529a565b9150606085013561466f8161529a565b939692955090935050565b60006020828403121561468b578081fd5b81356001600160401b038111156146a0578182fd5b612f4f84828501614267565b6000806000606084860312156146c0578081fd5b83356001600160401b038111156146d5578182fd5b6146e186828701614267565b935050602084013561452a8161529a565b60008060408385031215614704578182fd5b82356001600160401b038082111561471a578384fd5b61472686838701614267565b9350602085013591508082111561473b578283fd5b506145f385828601614267565b600060208284031215614759578081fd5b81356001600160401b0381111561476e578182fd5b612f4f848285016142de565b60006020828403121561478b578081fd5b815180151581146109d6578182fd5b6000602082840312156147ab578081fd5b5051919050565b6000602082840312156147c3578081fd5b81356001600160401b038111156147d8578182fd5b612f4f8482850161438f565b600080600080600060a086880312156147fb578283fd5b85356001600160401b0380821115614811578485fd5b61481d89838a0161438f565b96506020880135915080821115614832578485fd5b61483e89838a0161438f565b95506040880135915080821115614853578485fd5b61485f89838a0161438f565b9450606088013591506148718261529a565b90925060808701359080821115614886578283fd5b50614893888289016142de565b9150509295509295909350565b6000602082840312156148b1578081fd5b813561ffff811681146109d6578182fd5b6000602082840312156148d3578081fd5b5035919050565b600080604083850312156148ec578182fd5b825191506020808401516001600160401b03811115614909578283fd5b8401601f81018613614919578283fd5b805161492761428582615243565b81815283810190838501858402850186018a1015614943578687fd5b8694505b83851015614965578051835260019490940193918501918501614947565b5080955050505050509250929050565b60008060408385031215614987578182fd5b50508035926020909101359150565b6000806000606084860312156149aa578081fd5b8351925060208401519150604084015190509250925092565b6000815180845260208085019450808401835b838110156149fb5781516001600160a01b0316875295820195908201906001016149d6565b509495945050505050565b60008151808452614a1e81602086016020860161526e565b601f01601f19169290920160200192915050565b6000815160608452614a4760608501826149c3565b905060208301518482036020860152614a6082826149c3565b91505060408301518482036040860152613e5a8282614a06565b60008251614a8c81846020870161526e565b9190910192915050565b6000808354600180821660008114614ab55760018114614acc57614afb565b60ff198316865260028304607f1686019350614afb565b600283048786526020808720875b83811015614af35781548a820152908501908201614ada565b505050860193505b509195945050505050565b61190160f01b81526002810192909252602282015260420190565b6001600160a01b0391909116815260200190565b6001600160a01b0383168152604060208083018290528351838301819052600092916060918286019080830287018401888401875b83811015614bb957605f198a84030185528151614b878151615262565b84528087015187850152880151888401889052614ba688850182614a32565b9587019593505090850190600101614b6a565b50909a9950505050505050505050565b6001600160a01b039290921682521515602082015260400190565b6001600160a01b03929092168252602082015260400190565b6001600160a01b03919091168152631cd554d160e21b602082015260400190565b6000602082526109d660208301846149c3565b901515815260200190565b90815260200190565b9586526001600160a01b0394851660208701529290931660408501526060840152608083019190915260a082015260c00190565b9485526020850193909352604084019190915260608301526001600160a01b0316608082015260a00190565b93845260ff9290921660208401526040830152606082015260800190565b6000602082526109d66020830184614a06565b6020808252600b908201526a2737ba1036b0b730b3b2b960a91b604082015260600190565b6020808252601990820152784f6e6c7920537472617465677950726f7879466163746f727960381b604082015260600190565b6020808252600b908201526a14ddd85c0819985a5b195960aa1b604082015260600190565b60208082526014908201527310d85b9b9bdd081dda5d1a191c985dc81919589d60621b604082015260600190565b6020808252600f908201526e436f6e74726f6c6c6572206f6e6c7960881b604082015260600190565b6020808252600b908201526a526f75746572206f6e6c7960a81b604082015260600190565b6020808252601b908201527a536166654d6174683a206164646974696f6e206f766572666c6f7760281b604082015260600190565b60208082526021908201527f5369676e6564536166654d6174683a206164646974696f6e206f766572666c6f6040820152607760f81b606082015260800190565b602080825260119082015270496e76616c6964207369676e617475726560781b604082015260600190565b60208082526013908201527213585b9859d95c88185b1c9958591e481cd95d606a1b604082015260600190565b6020808252600c908201526b139bdd08185c1c1c9bdd995960a21b604082015260600190565b602080825260149082015273496e636f727265637420706172616d657465727360601b604082015260600190565b6020808252602e908201527f496e697469616c697a61626c653a20636f6e747261637420697320616c72656160408201526d191e481a5b9a5d1a585b1a5e995960921b606082015260800190565b6020808252600d908201526c4e6f205265656e7472616e637960981b604082015260600190565b60208082526021908201527f536166654d6174683a206d756c7469706c69636174696f6e206f766572666c6f6040820152607760f81b606082015260800190565b6822bc31b430b733b2b960b91b815260200190565b60208082526010908201526f4578706972656420646561646c696e6560801b604082015260600190565b6020808252600890820152670c08185b5bdd5b9d60c21b604082015260600190565b6524b9b9bab2b960d11b815260200190565b60208082526014908201527345524332303a204e6f206164647265737328302960601b604082015260600190565b6020808252601d908201527f416464726573733a2063616c6c20746f206e6f6e2d636f6e7472616374000000604082015260600190565b6020808252600b908201526a4e6f206561726e696e677360a81b604082015260600190565b6020808252602a908201527f5361666545524332303a204552433230206f7065726174696f6e20646964206e6040820152691bdd081cdd58d8d9595960b21b606082015260800190565b6020808252600c908201526b10db185a5b4819985a5b195960a21b604082015260600190565b60208082526025908201527f45524332303a2064656372656173656420616c6c6f77616e63652062656c6f77604082015264207a65726f60d81b606082015260800190565b7044656c6567617465417070726f76616c7360781b815260200190565b6000602082526109d66020830184614a32565b60006040820184835260206040818501528185518084526060860191508287019350845b818110156151c9578451835293830193918301916001016151ad565b5090979650505050505050565b95865260ff9490941660208601526001600160a01b0392831660408601529082166060850152811660808401521660a082015260c00190565b60ff91909116815260200190565b6040518181016001600160401b038111828210171561523b57600080fd5b604052919050565b60006001600160401b03821115615258578081fd5b5060209081020190565b6001600160a01b031690565b60005b83811015615289578181015183820152602001615271565b83811115610c4f5750506000910152565b6001600160a01b03811681146112ca57600080fdfe45524332303a20416d6f756e7420657863656564732062616c616e6365000000ddf252ad1be2c89b69c2b068fc378daa952ba7f163c4a11628f55a4df523b3efa2646970667358221220b71a663c512f88d88e25d7e2e557e33300d4bc6fd6080d76992364e5effebab664736f6c634300060c0033",
  "linkReferences": {},
  "deployedLinkReferences": {}
}