{
  "_format": "hh-sol-artifact-1",
  "contractName": "AaveLendAdapter",
  "sourceName": "contracts/adapters/lending/AaveLendAdapter.sol",
  "abi": [
    {
      "inputs": [
        {
          "internalType": "address",
          "name": "addressesProvider_",
          "type": "address"
        },
        {
          "internalType": "address",
          "name": "strategyController_",
          "type": "address"
        },
        {
          "internalType": "address",
          "name": "weth_",
          "type": "address"
        }
      ],
      "stateMutability": "nonpayable",
      "type": "constructor"
    },
    {
      "inputs": [],
      "name": "addressesProvider",
      "outputs": [
        {
          "internalType": "contract ILendingPoolAddressesProvider",
          "name": "",
          "type": "address"
        }
      ],
      "stateMutability": "view",
      "type": "function"
    },
    {
      "inputs": [],
      "name": "gasCostProvider",
      "outputs": [
        {
          "internalType": "contract GasCostProvider",
          "name": "",
          "type": "address"
        }
      ],
      "stateMutability": "view",
      "type": "function"
    },
    {
      "inputs": [
        {
          "internalType": "uint256",
          "name": "amount",
          "type": "uint256"
        },
        {
          "internalType": "address",
          "name": "tokenIn",
          "type": "address"
        },
        {
          "internalType": "address",
          "name": "tokenOut",
          "type": "address"
        }
      ],
      "name": "spotPrice",
      "outputs": [
        {
          "internalType": "uint256",
          "name": "",
          "type": "uint256"
        }
      ],
      "stateMutability": "view",
      "type": "function"
    },
    {
      "inputs": [],
      "name": "strategyController",
      "outputs": [
        {
          "internalType": "contract IStrategyController",
          "name": "",
          "type": "address"
        }
      ],
      "stateMutability": "view",
      "type": "function"
    },
    {
      "inputs": [
        {
          "internalType": "uint256",
          "name": "amount",
          "type": "uint256"
        },
        {
          "internalType": "uint256",
          "name": "expected",
          "type": "uint256"
        },
        {
          "internalType": "address",
          "name": "tokenIn",
          "type": "address"
        },
        {
          "internalType": "address",
          "name": "tokenOut",
          "type": "address"
        },
        {
          "internalType": "address",
          "name": "from",
          "type": "address"
        },
        {
          "internalType": "address",
          "name": "to",
          "type": "address"
        }
      ],
      "name": "swap",
      "outputs": [],
      "stateMutability": "nonpayable",
      "type": "function"
    },
    {
      "inputs": [],
      "name": "weth",
      "outputs": [
        {
          "internalType": "address",
          "name": "",
          "type": "address"
        }
      ],
      "stateMutability": "view",
      "type": "function"
    }
  ],
  "bytecode": "0x6101006040523480156200001257600080fd5b506040516200150c3803806200150c8339810160408190526200003591620000be565b6001600160601b0319606082811b821660805284811b821660a05283901b1660c0526040516117709033906200006b90620000b0565b6200007892919062000111565b604051809103906000f08015801562000095573d6000803e3d6000fd5b5060601b6001600160601b03191660e0525062000141915050565b6105578062000fb583390190565b600080600060608486031215620000d3578283fd5b8351620000e08162000128565b6020850151909350620000f38162000128565b6040850151909250620001068162000128565b809150509250925092565b9182526001600160a01b0316602082015260400190565b6001600160a01b03811681146200013e57600080fd5b50565b60805160601c60a05160601c60c05160601c60e05160601c610e1f620001966000398061070f52806107dd52508060d352806103b552508061022852806105c652806107335250806106e25250610e1f6000f3fe608060405234801561001057600080fd5b50600436106100615760003560e01c8062258d6b14610066578063230f11c7146100845780633fc8cef31461009957806377ec159d146100a1578063a555e74b146100c1578063c72c4d10146100c9575b600080fd5b61006e6100d1565b60405161007b9190610b78565b60405180910390f35b610097610092366004610aed565b6100f5565b005b61006e6106e0565b6100b46100af366004610aac565b610704565b60405161007b9190610d9c565b61006e61070d565b61006e610731565b7f000000000000000000000000000000000000000000000000000000000000000081565b826001600160a01b0316846001600160a01b031614156101305760405162461bcd60e51b815260040161012790610cee565b60405180910390fd5b848610156101505760405162461bcd60e51b815260040161012790610cb8565b6001600160a01b0382163014610175576101756001600160a01b038516833089610755565b61017e836107b3565b1561052357836001600160a01b0316836001600160a01b031663b16a19de6040518163ffffffff1660e01b815260040160206040518083038186803b1580156101c657600080fd5b505afa1580156101da573d6000803e3d6000fd5b505050506040513d601f19601f820116820180604052508101906101fe9190610a58565b6001600160a01b0316146102245760405162461bcd60e51b815260040161012790610c4c565b60007f00000000000000000000000000000000000000000000000000000000000000006001600160a01b0316630261bf8b6040518163ffffffff1660e01b815260040160206040518083038186803b15801561027f57600080fd5b505afa158015610293573d6000803e3d6000fd5b505050506040513d601f19601f820116820180604052508101906102b79190610a58565b60405163095ea7b360e01b81529091506001600160a01b0386169063095ea7b3906102e89084908b90600401610bb0565b602060405180830381600087803b15801561030257600080fd5b505af1158015610316573d6000803e3d6000fd5b505050506040513d601f19601f8201168201806040525081019061033a9190610a74565b5060405163e8eda9df60e01b81526001600160a01b0382169063e8eda9df9061036e9088908b908790600090600401610bec565b600060405180830381600087803b15801561038857600080fd5b505af115801561039c573d6000803e3d6000fd5b505060405163cbca47db60e01b81526001600160a01b037f000000000000000000000000000000000000000000000000000000000000000016925063cbca47db91506103ec908590600401610b78565b60206040518083038186803b15801561040457600080fd5b505afa158015610418573d6000803e3d6000fd5b505050506040513d601f19601f8201168201806040525081019061043c9190610a74565b1561051d576000829050806001600160a01b031663d1cc8c9d6040518163ffffffff1660e01b815260040160206040518083038186803b15801561047f57600080fd5b505afa158015610493573d6000803e3d6000fd5b505050506040513d601f19601f820116820180604052508101906104b79190610a74565b1561051b5760405163886abef560e01b81526001600160a01b0382169063886abef5906104e8908990600401610b78565b600060405180830381600087803b15801561050257600080fd5b505af1158015610516573d6000803e3d6000fd5b505050505b505b506106d8565b826001600160a01b0316846001600160a01b031663b16a19de6040518163ffffffff1660e01b815260040160206040518083038186803b15801561056657600080fd5b505afa15801561057a573d6000803e3d6000fd5b505050506040513d601f19601f8201168201806040525081019061059e9190610a58565b6001600160a01b0316146105c45760405162461bcd60e51b815260040161012790610c4c565b7f00000000000000000000000000000000000000000000000000000000000000006001600160a01b0316630261bf8b6040518163ffffffff1660e01b815260040160206040518083038186803b15801561061d57600080fd5b505afa158015610631573d6000803e3d6000fd5b505050506040513d601f19601f820116820180604052508101906106559190610a58565b6001600160a01b03166369328dec8488846040518463ffffffff1660e01b815260040161068493929190610bc9565b602060405180830381600087803b15801561069e57600080fd5b505af11580156106b2573d6000803e3d6000fd5b505050506040513d601f19601f820116820180604052508101906106d69190610a94565b505b505050505050565b7f000000000000000000000000000000000000000000000000000000000000000081565b825b9392505050565b7f000000000000000000000000000000000000000000000000000000000000000081565b7f000000000000000000000000000000000000000000000000000000000000000081565b6107ad846323b872dd60e01b85858560405160240161077693929190610b8c565b60408051601f198184030181529190526020810180516001600160e01b03166001600160e01b0319909316929092179091526108ad565b50505050565b6000807fb16a19de4224283fa4cedf7c621a3cea4e1b1dc9122d01b4093ee3537fd658a0905060007f00000000000000000000000000000000000000000000000000000000000000006001600160a01b0316631d5e3fe56040518163ffffffff1660e01b815260040160206040518083038186803b15801561083457600080fd5b505afa158015610848573d6000803e3d6000fd5b505050506040513d601f19601f8201168201806040525081019061086c9190610a94565b9050600080604051602081016040528481526020816004838a88fa925080519150508180156108a357506001600160a01b03811615155b9695505050505050565b6060610902826040518060400160405280602081526020017f5361666545524332303a206c6f772d6c6576656c2063616c6c206661696c6564815250856001600160a01b03166109419092919063ffffffff16565b80519091501561093c57808060200190518101906109209190610a74565b61093c5760405162461bcd60e51b815260040161012790610d52565b505050565b60606109508484600085610958565b949350505050565b60608247101561097a5760405162461bcd60e51b815260040161012790610c72565b61098385610a19565b61099f5760405162461bcd60e51b815260040161012790610d1b565b60006060866001600160a01b031685876040516109bc9190610b5c565b60006040518083038185875af1925050503d80600081146109f9576040519150601f19603f3d011682016040523d82523d6000602084013e6109fe565b606091505b5091509150610a0e828286610a1f565b979650505050505050565b3b151590565b60608315610a2e575081610706565b825115610a3e5782518084602001fd5b8160405162461bcd60e51b81526004016101279190610c19565b600060208284031215610a69578081fd5b815161070681610dd1565b600060208284031215610a85578081fd5b81518015158114610706578182fd5b600060208284031215610aa5578081fd5b5051919050565b600080600060608486031215610ac0578182fd5b833592506020840135610ad281610dd1565b91506040840135610ae281610dd1565b809150509250925092565b60008060008060008060c08789031215610b05578182fd5b86359550602087013594506040870135610b1e81610dd1565b93506060870135610b2e81610dd1565b92506080870135610b3e81610dd1565b915060a0870135610b4e81610dd1565b809150509295509295509295565b60008251610b6e818460208701610da5565b9190910192915050565b6001600160a01b0391909116815260200190565b6001600160a01b039384168152919092166020820152604081019190915260600190565b6001600160a01b03929092168252602082015260400190565b6001600160a01b0393841681526020810192909252909116604082015260600190565b6001600160a01b03948516815260208101939093529216604082015261ffff909116606082015260800190565b6000602082528251806020840152610c38816040850160208701610da5565b601f01601f19169190910160400192915050565b6020808252600c908201526b496e636f6d70617469626c6560a01b604082015260600190565b60208082526026908201527f416464726573733a20696e73756666696369656e742062616c616e636520666f6040820152651c8818d85b1b60d21b606082015260800190565b6020808252601c908201527b125b9cdd59999a58da595b9d081d1bdad95b93dd5d08185b5bdd5b9d60221b604082015260600190565b6020808252601390820152720a8ded6cadce640c6c2dcdcdee840dac2e8c6d606b1b604082015260600190565b6020808252601d908201527f416464726573733a2063616c6c20746f206e6f6e2d636f6e7472616374000000604082015260600190565b6020808252602a908201527f5361666545524332303a204552433230206f7065726174696f6e20646964206e6040820152691bdd081cdd58d8d9595960b21b606082015260800190565b90815260200190565b60005b83811015610dc0578181015183820152602001610da8565b838111156107ad5750506000910152565b6001600160a01b0381168114610de657600080fd5b5056fea2646970667358221220f42c5f5435a49068394189b0934d776d984411b8ac71e18757d2fbe2223fb11564736f6c634300060c0033608060405234801561001057600080fd5b506040516105573803806105578339818101604052604081101561003357600080fd5b5080516020909101516000610046610093565b600080546001600160a01b0319166001600160a01b038316908117825560405192935091600080516020610537833981519152908290a350600182905561008c81610097565b505061018f565b3390565b61009f610093565b6000546001600160a01b03908116911614610101576040805162461bcd60e51b815260206004820181905260248201527f4f776e61626c653a2063616c6c6572206973206e6f7420746865206f776e6572604482015290519081900360640190fd5b6001600160a01b0381166101465760405162461bcd60e51b81526004018080602001828103825260268152602001806105116026913960400191505060405180910390fd5b600080546040516001600160a01b038085169392169160008051602061053783398151915291a3600080546001600160a01b0319166001600160a01b0392909216919091179055565b6103738061019e6000396000f3fe608060405234801561001057600080fd5b50600436106100575760003560e01c80631d5e3fe51461005c578063715018a6146100765780638da5cb5b14610080578063b227a534146100a4578063f2fde38b146100c1575b600080fd5b6100646100e7565b60408051918252519081900360200190f35b61007e6100ed565b005b61008861018f565b604080516001600160a01b039092168252519081900360200190f35b61007e600480360360208110156100ba57600080fd5b503561019e565b61007e600480360360208110156100d757600080fd5b50356001600160a01b03166101fb565b60015481565b6100f56102f3565b6000546001600160a01b03908116911614610145576040805162461bcd60e51b8152602060048201819052602482015260008051602061031e833981519152604482015290519081900360640190fd5b600080546040516001600160a01b03909116907f8be0079c531659141344cd1fd0a4f28419497f9722a3daafe3b4186f6b6457e0908390a3600080546001600160a01b0319169055565b6000546001600160a01b031690565b6101a66102f3565b6000546001600160a01b039081169116146101f6576040805162461bcd60e51b8152602060048201819052602482015260008051602061031e833981519152604482015290519081900360640190fd5b600155565b6102036102f3565b6000546001600160a01b03908116911614610253576040805162461bcd60e51b8152602060048201819052602482015260008051602061031e833981519152604482015290519081900360640190fd5b6001600160a01b0381166102985760405162461bcd60e51b81526004018080602001828103825260268152602001806102f86026913960400191505060405180910390fd5b600080546040516001600160a01b03808516939216917f8be0079c531659141344cd1fd0a4f28419497f9722a3daafe3b4186f6b6457e091a3600080546001600160a01b0319166001600160a01b0392909216919091179055565b339056fe4f776e61626c653a206e6577206f776e657220697320746865207a65726f20616464726573734f776e61626c653a2063616c6c6572206973206e6f7420746865206f776e6572a2646970667358221220db74bee37227cde69c27937852ed0dd8a00ff93a8381e0059ea7d632c505835d64736f6c634300060c00334f776e61626c653a206e6577206f776e657220697320746865207a65726f20616464726573738be0079c531659141344cd1fd0a4f28419497f9722a3daafe3b4186f6b6457e0",
  "linkReferences": {},
  "deployedLinkReferences": {}
}