{
  "_format": "hh-sol-artifact-1",
  "contractName": "Whitelist",
  "sourceName": "contracts/Whitelist.sol",
  "abi": [
    {
      "anonymous": false,
      "inputs": [
        {
          "indexed": true,
          "internalType": "address",
          "name": "previousOwner",
          "type": "address"
        },
        {
          "indexed": true,
          "internalType": "address",
          "name": "newOwner",
          "type": "address"
        }
      ],
      "name": "OwnershipTransferred",
      "type": "event"
    },
    {
      "inputs": [
        {
          "internalType": "address",
          "name": "account",
          "type": "address"
        }
      ],
      "name": "approve",
      "outputs": [],
      "stateMutability": "nonpayable",
      "type": "function"
    },
    {
      "inputs": [
        {
          "internalType": "address",
          "name": "account",
          "type": "address"
        }
      ],
      "name": "approved",
      "outputs": [
        {
          "internalType": "bool",
          "name": "",
          "type": "bool"
        }
      ],
      "stateMutability": "view",
      "type": "function"
    },
    {
      "inputs": [],
      "name": "owner",
      "outputs": [
        {
          "internalType": "address",
          "name": "",
          "type": "address"
        }
      ],
      "stateMutability": "view",
      "type": "function"
    },
    {
      "inputs": [],
      "name": "renounceOwnership",
      "outputs": [],
      "stateMutability": "nonpayable",
      "type": "function"
    },
    {
      "inputs": [
        {
          "internalType": "address",
          "name": "account",
          "type": "address"
        }
      ],
      "name": "revoke",
      "outputs": [],
      "stateMutability": "nonpayable",
      "type": "function"
    },
    {
      "inputs": [
        {
          "internalType": "address",
          "name": "newOwner",
          "type": "address"
        }
      ],
      "name": "transferOwnership",
      "outputs": [],
      "stateMutability": "nonpayable",
      "type": "function"
    }
  ],
  "bytecode": "0x608060405234801561001057600080fd5b50600061001b61006a565b600080546001600160a01b0319166001600160a01b0383169081178255604051929350917f8be0079c531659141344cd1fd0a4f28419497f9722a3daafe3b4186f6b6457e0908290a35061006e565b3390565b61052b8061007d6000396000f3fe608060405234801561001057600080fd5b50600436106100625760003560e01c8063715018a61461006757806374a8f103146100715780638da5cb5b14610097578063d8b964e6146100bb578063daea85c5146100f5578063f2fde38b1461011b575b600080fd5b61006f610141565b005b61006f6004803603602081101561008757600080fd5b50356001600160a01b03166101e3565b61009f6102b1565b604080516001600160a01b039092168252519081900360200190f35b6100e1600480360360208110156100d157600080fd5b50356001600160a01b03166102c0565b604080519115158252519081900360200190f35b61006f6004803603602081101561010b57600080fd5b50356001600160a01b03166102dd565b61006f6004803603602081101561013157600080fd5b50356001600160a01b03166103b3565b6101496104ab565b6000546001600160a01b03908116911614610199576040805162461bcd60e51b815260206004820181905260248201526000805160206104d6833981519152604482015290519081900360640190fd5b600080546040516001600160a01b03909116907f8be0079c531659141344cd1fd0a4f28419497f9722a3daafe3b4186f6b6457e0908390a3600080546001600160a01b0319169055565b6101eb6104ab565b6000546001600160a01b0390811691161461023b576040805162461bcd60e51b815260206004820181905260248201526000805160206104d6833981519152604482015290519081900360640190fd5b6001600160a01b038116600090815260016020526040902054610297576040805162461bcd60e51b815260206004820152600f60248201526e139bdd081dda1a5d195b1a5cdd1959608a1b604482015290519081900360640190fd5b6001600160a01b0316600090815260016020526040812055565b6000546001600160a01b031690565b6001600160a01b0316600090815260016020526040902054151590565b6102e56104ab565b6000546001600160a01b03908116911614610335576040805162461bcd60e51b815260206004820181905260248201526000805160206104d6833981519152604482015290519081900360640190fd5b6001600160a01b03811660009081526001602052604090205415610396576040805162461bcd60e51b8152602060048201526013602482015272105b1c9958591e481dda1a5d195b1a5cdd1959606a1b604482015290519081900360640190fd5b6001600160a01b0316600090815260016020819052604090912055565b6103bb6104ab565b6000546001600160a01b0390811691161461040b576040805162461bcd60e51b815260206004820181905260248201526000805160206104d6833981519152604482015290519081900360640190fd5b6001600160a01b0381166104505760405162461bcd60e51b81526004018080602001828103825260268152602001806104b06026913960400191505060405180910390fd5b600080546040516001600160a01b03808516939216917f8be0079c531659141344cd1fd0a4f28419497f9722a3daafe3b4186f6b6457e091a3600080546001600160a01b0319166001600160a01b0392909216919091179055565b339056fe4f776e61626c653a206e6577206f776e657220697320746865207a65726f20616464726573734f776e61626c653a2063616c6c6572206973206e6f7420746865206f776e6572a2646970667358221220a64f1ab58b8a2db81b69c6f71f95bd43c15e386e230e46dc0f94e44432e58f9964736f6c634300060c0033",
  "linkReferences": {},
  "deployedLinkReferences": {}
}