{
  "_format": "hh-sol-artifact-1",
  "contractName": "Whitelist",
  "sourceName": "contracts/Whitelist.sol",
  "abi": [
    {
      "anonymous": false,
      "inputs": [
        {
          "indexed": true,
          "internalType": "address",
          "name": "previousOwner",
          "type": "address"
        },
        {
          "indexed": true,
          "internalType": "address",
          "name": "newOwner",
          "type": "address"
        }
      ],
      "name": "OwnershipTransferred",
      "type": "event"
    },
    {
      "inputs": [
        {
          "internalType": "address",
          "name": "account",
          "type": "address"
        }
      ],
      "name": "approve",
      "outputs": [],
      "stateMutability": "nonpayable",
      "type": "function"
    },
    {
      "inputs": [
        {
          "internalType": "address",
          "name": "account",
          "type": "address"
        }
      ],
      "name": "approved",
      "outputs": [
        {
          "internalType": "bool",
          "name": "",
          "type": "bool"
        }
      ],
      "stateMutability": "view",
      "type": "function"
    },
    {
      "inputs": [],
      "name": "owner",
      "outputs": [
        {
          "internalType": "address",
          "name": "",
          "type": "address"
        }
      ],
      "stateMutability": "view",
      "type": "function"
    },
    {
      "inputs": [],
      "name": "renounceOwnership",
      "outputs": [],
      "stateMutability": "nonpayable",
      "type": "function"
    },
    {
      "inputs": [
        {
          "internalType": "address",
          "name": "account",
          "type": "address"
        }
      ],
      "name": "revoke",
      "outputs": [],
      "stateMutability": "nonpayable",
      "type": "function"
    },
    {
      "inputs": [
        {
          "internalType": "address",
          "name": "newOwner",
          "type": "address"
        }
      ],
      "name": "transferOwnership",
      "outputs": [],
      "stateMutability": "nonpayable",
      "type": "function"
    }
  ],
  "bytecode": "0x608060405234801561001057600080fd5b50600061001b61006a565b600080546001600160a01b0319166001600160a01b0383169081178255604051929350917f8be0079c531659141344cd1fd0a4f28419497f9722a3daafe3b4186f6b6457e0908290a35061006e565b3390565b61056d8061007d6000396000f3fe608060405234801561001057600080fd5b50600436106100725760003560e01c8063d8b964e611610050578063d8b964e6146100cb578063daea85c514610105578063f2fde38b1461012b57610072565b8063715018a61461007757806374a8f103146100815780638da5cb5b146100a7575b600080fd5b61007f610151565b005b61007f6004803603602081101561009757600080fd5b50356001600160a01b0316610205565b6100af6102e5565b604080516001600160a01b039092168252519081900360200190f35b6100f1600480360360208110156100e157600080fd5b50356001600160a01b03166102f4565b604080519115158252519081900360200190f35b61007f6004803603602081101561011b57600080fd5b50356001600160a01b0316610311565b61007f6004803603602081101561014157600080fd5b50356001600160a01b0316610403565b61015961050d565b6000546001600160a01b039081169116146101bb576040805162461bcd60e51b815260206004820181905260248201527f4f776e61626c653a2063616c6c6572206973206e6f7420746865206f776e6572604482015290519081900360640190fd5b600080546040516001600160a01b03909116907f8be0079c531659141344cd1fd0a4f28419497f9722a3daafe3b4186f6b6457e0908390a3600080546001600160a01b0319169055565b61020d61050d565b6000546001600160a01b0390811691161461026f576040805162461bcd60e51b815260206004820181905260248201527f4f776e61626c653a2063616c6c6572206973206e6f7420746865206f776e6572604482015290519081900360640190fd5b6001600160a01b0381166000908152600160205260409020546102cb576040805162461bcd60e51b815260206004820152600f60248201526e139bdd081dda1a5d195b1a5cdd1959608a1b604482015290519081900360640190fd5b6001600160a01b0316600090815260016020526040812055565b6000546001600160a01b031690565b6001600160a01b0316600090815260016020526040902054151590565b61031961050d565b6000546001600160a01b0390811691161461037b576040805162461bcd60e51b815260206004820181905260248201527f4f776e61626c653a2063616c6c6572206973206e6f7420746865206f776e6572604482015290519081900360640190fd5b6001600160a01b038116600090815260016020526040902054156103e6576040805162461bcd60e51b815260206004820152601360248201527f416c72656164792077686974656c697374656400000000000000000000000000604482015290519081900360640190fd5b6001600160a01b0316600090815260016020819052604090912055565b61040b61050d565b6000546001600160a01b0390811691161461046d576040805162461bcd60e51b815260206004820181905260248201527f4f776e61626c653a2063616c6c6572206973206e6f7420746865206f776e6572604482015290519081900360640190fd5b6001600160a01b0381166104b25760405162461bcd60e51b81526004018080602001828103825260268152602001806105126026913960400191505060405180910390fd5b600080546040516001600160a01b03808516939216917f8be0079c531659141344cd1fd0a4f28419497f9722a3daafe3b4186f6b6457e091a3600080546001600160a01b0319166001600160a01b0392909216919091179055565b339056fe4f776e61626c653a206e6577206f776e657220697320746865207a65726f2061646472657373a2646970667358221220ecdd334c4ac0445335f4459458ca0ee1587e855695a67324534a12fabb45c3de64736f6c634300060c0033",
  "linkReferences": {},
  "deployedLinkReferences": {}
}