{
  "_format": "hh-sol-artifact-1",
  "contractName": "ProxiedToken",
  "sourceName": "contracts/test/weird_tokens/Proxied.sol",
  "abi": [
    {
      "inputs": [
        {
          "internalType": "uint256",
          "name": "_totalSupply",
          "type": "uint256"
        }
      ],
      "stateMutability": "nonpayable",
      "type": "constructor"
    },
    {
      "anonymous": false,
      "inputs": [
        {
          "indexed": true,
          "internalType": "address",
          "name": "src",
          "type": "address"
        },
        {
          "indexed": true,
          "internalType": "address",
          "name": "guy",
          "type": "address"
        },
        {
          "indexed": false,
          "internalType": "uint256",
          "name": "wad",
          "type": "uint256"
        }
      ],
      "name": "Approval",
      "type": "event"
    },
    {
      "anonymous": false,
      "inputs": [
        {
          "indexed": true,
          "internalType": "address",
          "name": "src",
          "type": "address"
        },
        {
          "indexed": true,
          "internalType": "address",
          "name": "dst",
          "type": "address"
        },
        {
          "indexed": false,
          "internalType": "uint256",
          "name": "wad",
          "type": "uint256"
        }
      ],
      "name": "Transfer",
      "type": "event"
    },
    {
      "inputs": [
        {
          "internalType": "address",
          "name": "",
          "type": "address"
        }
      ],
      "name": "admin",
      "outputs": [
        {
          "internalType": "bool",
          "name": "",
          "type": "bool"
        }
      ],
      "stateMutability": "view",
      "type": "function"
    },
    {
      "inputs": [
        {
          "internalType": "address",
          "name": "",
          "type": "address"
        },
        {
          "internalType": "address",
          "name": "",
          "type": "address"
        }
      ],
      "name": "allowance",
      "outputs": [
        {
          "internalType": "uint256",
          "name": "",
          "type": "uint256"
        }
      ],
      "stateMutability": "view",
      "type": "function"
    },
    {
      "inputs": [
        {
          "internalType": "address",
          "name": "usr",
          "type": "address"
        },
        {
          "internalType": "uint256",
          "name": "wad",
          "type": "uint256"
        }
      ],
      "name": "approve",
      "outputs": [
        {
          "internalType": "bool",
          "name": "",
          "type": "bool"
        }
      ],
      "stateMutability": "nonpayable",
      "type": "function"
    },
    {
      "inputs": [
        {
          "internalType": "address",
          "name": "",
          "type": "address"
        }
      ],
      "name": "balanceOf",
      "outputs": [
        {
          "internalType": "uint256",
          "name": "",
          "type": "uint256"
        }
      ],
      "stateMutability": "view",
      "type": "function"
    },
    {
      "inputs": [],
      "name": "decimals",
      "outputs": [
        {
          "internalType": "uint8",
          "name": "",
          "type": "uint8"
        }
      ],
      "stateMutability": "view",
      "type": "function"
    },
    {
      "inputs": [
        {
          "internalType": "address",
          "name": "",
          "type": "address"
        }
      ],
      "name": "delegators",
      "outputs": [
        {
          "internalType": "bool",
          "name": "",
          "type": "bool"
        }
      ],
      "stateMutability": "view",
      "type": "function"
    },
    {
      "inputs": [
        {
          "internalType": "address",
          "name": "usr",
          "type": "address"
        }
      ],
      "name": "deny",
      "outputs": [],
      "stateMutability": "nonpayable",
      "type": "function"
    },
    {
      "inputs": [],
      "name": "name",
      "outputs": [
        {
          "internalType": "string",
          "name": "",
          "type": "string"
        }
      ],
      "stateMutability": "view",
      "type": "function"
    },
    {
      "inputs": [
        {
          "internalType": "address",
          "name": "usr",
          "type": "address"
        }
      ],
      "name": "rely",
      "outputs": [],
      "stateMutability": "nonpayable",
      "type": "function"
    },
    {
      "inputs": [
        {
          "internalType": "address",
          "name": "delegator",
          "type": "address"
        },
        {
          "internalType": "bool",
          "name": "status",
          "type": "bool"
        }
      ],
      "name": "setDelegator",
      "outputs": [],
      "stateMutability": "nonpayable",
      "type": "function"
    },
    {
      "inputs": [],
      "name": "symbol",
      "outputs": [
        {
          "internalType": "string",
          "name": "",
          "type": "string"
        }
      ],
      "stateMutability": "view",
      "type": "function"
    },
    {
      "inputs": [],
      "name": "totalSupply",
      "outputs": [
        {
          "internalType": "uint256",
          "name": "",
          "type": "uint256"
        }
      ],
      "stateMutability": "view",
      "type": "function"
    },
    {
      "inputs": [
        {
          "internalType": "address",
          "name": "dst",
          "type": "address"
        },
        {
          "internalType": "uint256",
          "name": "wad",
          "type": "uint256"
        }
      ],
      "name": "transfer",
      "outputs": [
        {
          "internalType": "bool",
          "name": "",
          "type": "bool"
        }
      ],
      "stateMutability": "nonpayable",
      "type": "function"
    },
    {
      "inputs": [
        {
          "internalType": "address",
          "name": "src",
          "type": "address"
        },
        {
          "internalType": "address",
          "name": "dst",
          "type": "address"
        },
        {
          "internalType": "uint256",
          "name": "wad",
          "type": "uint256"
        }
      ],
      "name": "transferFrom",
      "outputs": [
        {
          "internalType": "bool",
          "name": "",
          "type": "bool"
        }
      ],
      "stateMutability": "nonpayable",
      "type": "function"
    }
  ],
  "bytecode": "0x608060405234801561001057600080fd5b50604051610ac8380380610ac88339818101604052602081101561003357600080fd5b5051336000818152600360209081526040808320805460ff191660019081179091558584558252808320859055805185815290517fddf252ad1be2c89b69c2b068fc378daa952ba7f163c4a11628f55a4df523b3ef929181900390910190a350610a26806100a26000396000f3fe608060405234801561001057600080fd5b50600436106100ea5760003560e01c806370a082311161008c5780639c52a7f1116100665780639c52a7f1146102bc578063a6df9849146102e2578063a9059cbb14610310578063dd62ed3e1461033c576100ea565b806370a08231146102685780638d23fc611461028e57806395d89b41146102b4576100ea565b806323b872dd116100c857806323b872dd146101c6578063313ce567146101fc57806363a846f81461021a57806365fae35e14610240576100ea565b806306fdde03146100ef578063095ea7b31461016c57806318160ddd146101ac575b600080fd5b6100f761036a565b6040805160208082528351818301528351919283929083019185019080838360005b83811015610131578181015183820152602001610119565b50505050905090810190601f16801561015e5780820380516001836020036101000a031916815260200191505b509250505060405180910390f35b6101986004803603604081101561018257600080fd5b506001600160a01b03813516906020013561038b565b604080519115158252519081900360200190f35b6101b46103ff565b60408051918252519081900360200190f35b610198600480360360608110156101dc57600080fd5b506001600160a01b03813581169160208101359091169060400135610405565b610204610479565b6040805160ff9092168252519081900360200190f35b6101986004803603602081101561023057600080fd5b50356001600160a01b031661047e565b6102666004803603602081101561025657600080fd5b50356001600160a01b0316610493565b005b6101b46004803603602081101561027e57600080fd5b50356001600160a01b031661050c565b610198600480360360208110156102a457600080fd5b50356001600160a01b031661051e565b6100f7610533565b610266600480360360208110156102d257600080fd5b50356001600160a01b0316610552565b610266600480360360408110156102f857600080fd5b506001600160a01b03813516906020013515156105c8565b6101986004803603604081101561032657600080fd5b506001600160a01b038135169060200135610648565b6101b46004803603604081101561035257600080fd5b506001600160a01b03813581169160200135166106bb565b604051806040016040528060058152602001642a37b5b2b760d91b81525081565b3360009081526004602052604081205460ff166103e4576040805162461bcd60e51b81526020600482015260126024820152711b9bdb8b59195b1959d85d1bdc8b58d85b1b60721b604482015290519081900360640190fd5b6103f66103ef6106d8565b8484610725565b90505b92915050565b60005481565b3360009081526004602052604081205460ff1661045e576040805162461bcd60e51b81526020600482015260126024820152711b9bdb8b59195b1959d85d1bdc8b58d85b1b60721b604482015290519081900360640190fd5b6104716104696106d8565b858585610790565b949350505050565b601281565b60036020526000908152604090205460ff1681565b3360009081526003602052604090205460ff166104e8576040805162461bcd60e51b815260206004820152600e60248201526d1b9bdb8b58591b5a5b8b58d85b1b60921b604482015290519081900360640190fd5b6001600160a01b03166000908152600360205260409020805460ff19166001179055565b60016020526000908152604090205481565b60046020526000908152604090205460ff1681565b604051806040016040528060038152602001622a25a760e91b81525081565b3360009081526003602052604090205460ff166105a7576040805162461bcd60e51b815260206004820152600e60248201526d1b9bdb8b58591b5a5b8b58d85b1b60921b604482015290519081900360640190fd5b6001600160a01b03166000908152600360205260409020805460ff19169055565b3360009081526003602052604090205460ff1661061d576040805162461bcd60e51b815260206004820152600e60248201526d1b9bdb8b58591b5a5b8b58d85b1b60921b604482015290519081900360640190fd5b6001600160a01b03919091166000908152600460205260409020805460ff1916911515919091179055565b3360009081526004602052604081205460ff166106a1576040805162461bcd60e51b81526020600482015260126024820152711b9bdb8b59195b1959d85d1bdc8b58d85b1b60721b604482015290519081900360640190fd5b6103f66106ac6106d8565b6106b46106d8565b8585610790565b600260209081526000928352604080842090915290825290205481565b600060606000368080601f0160208091040260200160405190810160405280939291908181526020018383808284376000920191909152505050503601516001600160a01b031692915050565b6001600160a01b03808416600081815260026020908152604080832094871680845294825280832086905580518681529051929493927f8c5be1e5ebec7d5bd14f71427d1e84f3dd0314c0f7b2291e5b200ac8c7c3b925929181900390910190a35060019392505050565b6001600160a01b0383166000908152600160205260408120548211156107fd576040805162461bcd60e51b815260206004820152601460248201527f696e73756666696369656e742d62616c616e6365000000000000000000000000604482015290519081900360640190fd5b846001600160a01b0316846001600160a01b03161415801561084657506001600160a01b0380851660009081526002602090815260408083209389168352929052205460001914155b1561091c576001600160a01b038085166000908152600260209081526040808320938916835292905220548211156108c5576040805162461bcd60e51b815260206004820152601660248201527f696e73756666696369656e742d616c6c6f77616e636500000000000000000000604482015290519081900360640190fd5b6001600160a01b038085166000908152600260209081526040808320938916835292905220546108f590836109d0565b6001600160a01b038086166000908152600260209081526040808320938a16835292905220555b6001600160a01b03841660009081526001602052604090205461093f90836109d0565b6001600160a01b03808616600090815260016020526040808220939093559085168152205461096e90836109e0565b6001600160a01b0380851660008181526001602090815260409182902094909455805186815290519193928816927fddf252ad1be2c89b69c2b068fc378daa952ba7f163c4a11628f55a4df523b3ef92918290030190a3506001949350505050565b808203828111156103f957600080fd5b808201828110156103f957600080fdfea2646970667358221220036ed51dc8a60f4aea60df82d325bcd0e214cbd9f10fc2fd66302ab1307d29f964736f6c634300060c0033",
  "linkReferences": {},
  "deployedLinkReferences": {}
}