{
  "_format": "hh-sol-artifact-1",
  "contractName": "ProxiedToken",
  "sourceName": "contracts/test/weird_tokens/Proxied.sol",
  "abi": [
    {
      "inputs": [
        {
          "internalType": "uint256",
          "name": "_totalSupply",
          "type": "uint256"
        }
      ],
      "stateMutability": "nonpayable",
      "type": "constructor"
    },
    {
      "anonymous": false,
      "inputs": [
        {
          "indexed": true,
          "internalType": "address",
          "name": "src",
          "type": "address"
        },
        {
          "indexed": true,
          "internalType": "address",
          "name": "guy",
          "type": "address"
        },
        {
          "indexed": false,
          "internalType": "uint256",
          "name": "wad",
          "type": "uint256"
        }
      ],
      "name": "Approval",
      "type": "event"
    },
    {
      "anonymous": false,
      "inputs": [
        {
          "indexed": true,
          "internalType": "address",
          "name": "src",
          "type": "address"
        },
        {
          "indexed": true,
          "internalType": "address",
          "name": "dst",
          "type": "address"
        },
        {
          "indexed": false,
          "internalType": "uint256",
          "name": "wad",
          "type": "uint256"
        }
      ],
      "name": "Transfer",
      "type": "event"
    },
    {
      "inputs": [
        {
          "internalType": "address",
          "name": "",
          "type": "address"
        }
      ],
      "name": "admin",
      "outputs": [
        {
          "internalType": "bool",
          "name": "",
          "type": "bool"
        }
      ],
      "stateMutability": "view",
      "type": "function"
    },
    {
      "inputs": [
        {
          "internalType": "address",
          "name": "",
          "type": "address"
        },
        {
          "internalType": "address",
          "name": "",
          "type": "address"
        }
      ],
      "name": "allowance",
      "outputs": [
        {
          "internalType": "uint256",
          "name": "",
          "type": "uint256"
        }
      ],
      "stateMutability": "view",
      "type": "function"
    },
    {
      "inputs": [
        {
          "internalType": "address",
          "name": "usr",
          "type": "address"
        },
        {
          "internalType": "uint256",
          "name": "wad",
          "type": "uint256"
        }
      ],
      "name": "approve",
      "outputs": [
        {
          "internalType": "bool",
          "name": "",
          "type": "bool"
        }
      ],
      "stateMutability": "nonpayable",
      "type": "function"
    },
    {
      "inputs": [
        {
          "internalType": "address",
          "name": "",
          "type": "address"
        }
      ],
      "name": "balanceOf",
      "outputs": [
        {
          "internalType": "uint256",
          "name": "",
          "type": "uint256"
        }
      ],
      "stateMutability": "view",
      "type": "function"
    },
    {
      "inputs": [],
      "name": "decimals",
      "outputs": [
        {
          "internalType": "uint8",
          "name": "",
          "type": "uint8"
        }
      ],
      "stateMutability": "view",
      "type": "function"
    },
    {
      "inputs": [
        {
          "internalType": "address",
          "name": "",
          "type": "address"
        }
      ],
      "name": "delegators",
      "outputs": [
        {
          "internalType": "bool",
          "name": "",
          "type": "bool"
        }
      ],
      "stateMutability": "view",
      "type": "function"
    },
    {
      "inputs": [
        {
          "internalType": "address",
          "name": "usr",
          "type": "address"
        }
      ],
      "name": "deny",
      "outputs": [],
      "stateMutability": "nonpayable",
      "type": "function"
    },
    {
      "inputs": [],
      "name": "name",
      "outputs": [
        {
          "internalType": "string",
          "name": "",
          "type": "string"
        }
      ],
      "stateMutability": "view",
      "type": "function"
    },
    {
      "inputs": [
        {
          "internalType": "address",
          "name": "usr",
          "type": "address"
        }
      ],
      "name": "rely",
      "outputs": [],
      "stateMutability": "nonpayable",
      "type": "function"
    },
    {
      "inputs": [
        {
          "internalType": "address",
          "name": "delegator",
          "type": "address"
        },
        {
          "internalType": "bool",
          "name": "status",
          "type": "bool"
        }
      ],
      "name": "setDelegator",
      "outputs": [],
      "stateMutability": "nonpayable",
      "type": "function"
    },
    {
      "inputs": [],
      "name": "symbol",
      "outputs": [
        {
          "internalType": "string",
          "name": "",
          "type": "string"
        }
      ],
      "stateMutability": "view",
      "type": "function"
    },
    {
      "inputs": [],
      "name": "totalSupply",
      "outputs": [
        {
          "internalType": "uint256",
          "name": "",
          "type": "uint256"
        }
      ],
      "stateMutability": "view",
      "type": "function"
    },
    {
      "inputs": [
        {
          "internalType": "address",
          "name": "dst",
          "type": "address"
        },
        {
          "internalType": "uint256",
          "name": "wad",
          "type": "uint256"
        }
      ],
      "name": "transfer",
      "outputs": [
        {
          "internalType": "bool",
          "name": "",
          "type": "bool"
        }
      ],
      "stateMutability": "nonpayable",
      "type": "function"
    },
    {
      "inputs": [
        {
          "internalType": "address",
          "name": "src",
          "type": "address"
        },
        {
          "internalType": "address",
          "name": "dst",
          "type": "address"
        },
        {
          "internalType": "uint256",
          "name": "wad",
          "type": "uint256"
        }
      ],
      "name": "transferFrom",
      "outputs": [
        {
          "internalType": "bool",
          "name": "",
          "type": "bool"
        }
      ],
      "stateMutability": "nonpayable",
      "type": "function"
    }
  ],
  "bytecode": "0x608060405234801561001057600080fd5b50604051610a88380380610a888339818101604052602081101561003357600080fd5b5051336000818152600360209081526040808320805460ff191660019081179091558584558252808320859055805185815290517fddf252ad1be2c89b69c2b068fc378daa952ba7f163c4a11628f55a4df523b3ef929181900390910190a3506109e6806100a26000396000f3fe608060405234801561001057600080fd5b50600436106100ba5760003560e01c806306fdde03146100bf578063095ea7b31461013c57806318160ddd1461017c57806323b872dd14610196578063313ce567146101cc57806363a846f8146101ea57806365fae35e1461021057806370a08231146102385780638d23fc611461025e57806395d89b41146102845780639c52a7f11461028c578063a6df9849146102b2578063a9059cbb146102e0578063dd62ed3e1461030c575b600080fd5b6100c761033a565b6040805160208082528351818301528351919283929083019185019080838360005b838110156101015781810151838201526020016100e9565b50505050905090810190601f16801561012e5780820380516001836020036101000a031916815260200191505b509250505060405180910390f35b6101686004803603604081101561015257600080fd5b506001600160a01b03813516906020013561035b565b604080519115158252519081900360200190f35b6101846103cf565b60408051918252519081900360200190f35b610168600480360360608110156101ac57600080fd5b506001600160a01b038135811691602081013590911690604001356103d5565b6101d4610449565b6040805160ff9092168252519081900360200190f35b6101686004803603602081101561020057600080fd5b50356001600160a01b031661044e565b6102366004803603602081101561022657600080fd5b50356001600160a01b0316610463565b005b6101846004803603602081101561024e57600080fd5b50356001600160a01b03166104dc565b6101686004803603602081101561027457600080fd5b50356001600160a01b03166104ee565b6100c7610503565b610236600480360360208110156102a257600080fd5b50356001600160a01b0316610522565b610236600480360360408110156102c857600080fd5b506001600160a01b0381351690602001351515610598565b610168600480360360408110156102f657600080fd5b506001600160a01b038135169060200135610618565b6101846004803603604081101561032257600080fd5b506001600160a01b038135811691602001351661068b565b604051806040016040528060058152602001642a37b5b2b760d91b81525081565b3360009081526004602052604081205460ff166103b4576040805162461bcd60e51b81526020600482015260126024820152711b9bdb8b59195b1959d85d1bdc8b58d85b1b60721b604482015290519081900360640190fd5b6103c66103bf6106a8565b84846106f5565b90505b92915050565b60005481565b3360009081526004602052604081205460ff1661042e576040805162461bcd60e51b81526020600482015260126024820152711b9bdb8b59195b1959d85d1bdc8b58d85b1b60721b604482015290519081900360640190fd5b6104416104396106a8565b858585610760565b949350505050565b601281565b60036020526000908152604090205460ff1681565b3360009081526003602052604090205460ff166104b8576040805162461bcd60e51b815260206004820152600e60248201526d1b9bdb8b58591b5a5b8b58d85b1b60921b604482015290519081900360640190fd5b6001600160a01b03166000908152600360205260409020805460ff19166001179055565b60016020526000908152604090205481565b60046020526000908152604090205460ff1681565b604051806040016040528060038152602001622a25a760e91b81525081565b3360009081526003602052604090205460ff16610577576040805162461bcd60e51b815260206004820152600e60248201526d1b9bdb8b58591b5a5b8b58d85b1b60921b604482015290519081900360640190fd5b6001600160a01b03166000908152600360205260409020805460ff19169055565b3360009081526003602052604090205460ff166105ed576040805162461bcd60e51b815260206004820152600e60248201526d1b9bdb8b58591b5a5b8b58d85b1b60921b604482015290519081900360640190fd5b6001600160a01b03919091166000908152600460205260409020805460ff1916911515919091179055565b3360009081526004602052604081205460ff16610671576040805162461bcd60e51b81526020600482015260126024820152711b9bdb8b59195b1959d85d1bdc8b58d85b1b60721b604482015290519081900360640190fd5b6103c661067c6106a8565b6106846106a8565b8585610760565b600260209081526000928352604080842090915290825290205481565b600060606000368080601f0160208091040260200160405190810160405280939291908181526020018383808284376000920191909152505050503601516001600160a01b031692915050565b6001600160a01b03808416600081815260026020908152604080832094871680845294825280832086905580518681529051929493927f8c5be1e5ebec7d5bd14f71427d1e84f3dd0314c0f7b2291e5b200ac8c7c3b925929181900390910190a35060019392505050565b6001600160a01b0383166000908152600160205260408120548211156107c4576040805162461bcd60e51b8152602060048201526014602482015273696e73756666696369656e742d62616c616e636560601b604482015290519081900360640190fd5b846001600160a01b0316846001600160a01b03161415801561080d57506001600160a01b0380851660009081526002602090815260408083209389168352929052205460001914155b156108dc576001600160a01b03808516600090815260026020908152604080832093891683529290522054821115610885576040805162461bcd60e51b8152602060048201526016602482015275696e73756666696369656e742d616c6c6f77616e636560501b604482015290519081900360640190fd5b6001600160a01b038085166000908152600260209081526040808320938916835292905220546108b59083610990565b6001600160a01b038086166000908152600260209081526040808320938a16835292905220555b6001600160a01b0384166000908152600160205260409020546108ff9083610990565b6001600160a01b03808616600090815260016020526040808220939093559085168152205461092e90836109a0565b6001600160a01b0380851660008181526001602090815260409182902094909455805186815290519193928816927fddf252ad1be2c89b69c2b068fc378daa952ba7f163c4a11628f55a4df523b3ef92918290030190a3506001949350505050565b808203828111156103c957600080fd5b808201828110156103c957600080fdfea26469706673582212209c2cd27ae5742f911be51208b6f964686b5da62edd162fecc4f7e3226e517f6264736f6c634300060c0033",
  "linkReferences": {},
  "deployedLinkReferences": {}
}