{
  "_format": "hh-sol-artifact-1",
  "contractName": "TokenProxy",
  "sourceName": "contracts/test/weird_tokens/Proxied.sol",
  "abi": [
    {
      "inputs": [
        {
          "internalType": "address",
          "name": "_impl",
          "type": "address"
        }
      ],
      "stateMutability": "nonpayable",
      "type": "constructor"
    },
    {
      "stateMutability": "payable",
      "type": "fallback"
    },
    {
      "inputs": [],
      "name": "impl",
      "outputs": [
        {
          "internalType": "address payable",
          "name": "",
          "type": "address"
        }
      ],
      "stateMutability": "view",
      "type": "function"
    },
    {
      "stateMutability": "payable",
      "type": "receive"
    }
  ],
  "bytecode": "0x60a060405234801561001057600080fd5b506040516101c73803806101c78339818101604052602081101561003357600080fd5b5051606081901b6001600160601b0319166080526001600160a01b031661015c61006b6000398060795280610104525061015c6000f3fe6080604052600436106100225760003560e01c80638abf6077146100c457610074565b36610074576040805162461bcd60e51b815260206004820152601260248201527f646f6e27742073656e64206d6520455448210000000000000000000000000000604482015290519081900360640190fd5b6040517f00000000000000000000000000000000000000000000000000000000000000009036600082373336820152600080602036018334865af13d806000843e8180156100c0578184f35b8184fd5b3480156100d057600080fd5b506100d9610102565b6040805173ffffffffffffffffffffffffffffffffffffffff9092168252519081900360200190f35b7f00000000000000000000000000000000000000000000000000000000000000008156fea264697066735822122071996b3581c5e8212d2ae4e8efd6dc02e422c64777b908eb4736075828eef39764736f6c634300060c0033",
  "linkReferences": {},
  "deployedLinkReferences": {}
}