{
  "_format": "hh-sol-artifact-1",
  "contractName": "StakingMock",
  "sourceName": "contracts/mocks/StakingMock.sol",
  "abi": [
    {
      "inputs": [
        {
          "internalType": "address",
          "name": "stakingToken",
          "type": "address"
        }
      ],
      "stateMutability": "nonpayable",
      "type": "constructor"
    },
    {
      "inputs": [],
      "name": "HasntStarted",
      "type": "error"
    },
    {
      "inputs": [],
      "name": "InvalidStakeTime",
      "type": "error"
    },
    {
      "inputs": [],
      "name": "MustBeStaker",
      "type": "error"
    },
    {
      "inputs": [],
      "name": "StakeExpired",
      "type": "error"
    },
    {
      "inputs": [],
      "name": "StakeIsLocked",
      "type": "error"
    },
    {
      "inputs": [],
      "name": "ValueTooLow",
      "type": "error"
    },
    {
      "inputs": [],
      "name": "ZeroAmountProvided",
      "type": "error"
    },
    {
      "anonymous": false,
      "inputs": [
        {
          "indexed": true,
          "internalType": "address",
          "name": "owner",
          "type": "address"
        },
        {
          "indexed": true,
          "internalType": "address",
          "name": "spender",
          "type": "address"
        },
        {
          "indexed": false,
          "internalType": "uint256",
          "name": "value",
          "type": "uint256"
        }
      ],
      "name": "Approval",
      "type": "event"
    },
    {
      "anonymous": false,
      "inputs": [
        {
          "indexed": true,
          "internalType": "address",
          "name": "staker",
          "type": "address"
        },
        {
          "indexed": false,
          "internalType": "address",
          "name": "receiver",
          "type": "address"
        },
        {
          "indexed": false,
          "internalType": "uint256",
          "name": "earned",
          "type": "uint256"
        }
      ],
      "name": "ClaimedReward",
      "type": "event"
    },
    {
      "anonymous": false,
      "inputs": [
        {
          "indexed": true,
          "internalType": "address",
          "name": "delegator",
          "type": "address"
        },
        {
          "indexed": true,
          "internalType": "address",
          "name": "fromDelegate",
          "type": "address"
        },
        {
          "indexed": true,
          "internalType": "address",
          "name": "toDelegate",
          "type": "address"
        }
      ],
      "name": "DelegateChanged",
      "type": "event"
    },
    {
      "anonymous": false,
      "inputs": [
        {
          "indexed": true,
          "internalType": "address",
          "name": "delegate",
          "type": "address"
        },
        {
          "indexed": false,
          "internalType": "uint256",
          "name": "previousBalance",
          "type": "uint256"
        },
        {
          "indexed": false,
          "internalType": "uint256",
          "name": "newBalance",
          "type": "uint256"
        }
      ],
      "name": "DelegateVotesChanged",
      "type": "event"
    },
    {
      "anonymous": false,
      "inputs": [
        {
          "indexed": true,
          "internalType": "address",
          "name": "staker",
          "type": "address"
        },
        {
          "indexed": false,
          "internalType": "uint256",
          "name": "earned",
          "type": "uint256"
        }
      ],
      "name": "Reinvested",
      "type": "event"
    },
    {
      "anonymous": false,
      "inputs": [
        {
          "indexed": true,
          "internalType": "address",
          "name": "staker",
          "type": "address"
        },
        {
          "indexed": false,
          "internalType": "uint128",
          "name": "amount",
          "type": "uint128"
        },
        {
          "indexed": false,
          "internalType": "uint32",
          "name": "stakeHours",
          "type": "uint32"
        }
      ],
      "name": "Restaked",
      "type": "event"
    },
    {
      "anonymous": false,
      "inputs": [
        {
          "indexed": true,
          "internalType": "address",
          "name": "sender",
          "type": "address"
        },
        {
          "indexed": false,
          "internalType": "uint256",
          "name": "amount",
          "type": "uint256"
        }
      ],
      "name": "RewardsReceived",
      "type": "event"
    },
    {
      "anonymous": false,
      "inputs": [
        {
          "indexed": true,
          "internalType": "address",
          "name": "staker",
          "type": "address"
        },
        {
          "indexed": false,
          "internalType": "uint32",
          "name": "hoursExtended",
          "type": "uint32"
        }
      ],
      "name": "StakeExtended",
      "type": "event"
    },
    {
      "anonymous": false,
      "inputs": [
        {
          "indexed": true,
          "internalType": "address",
          "name": "staker",
          "type": "address"
        },
        {
          "indexed": false,
          "internalType": "uint128",
          "name": "amount",
          "type": "uint128"
        }
      ],
      "name": "Staked",
      "type": "event"
    },
    {
      "anonymous": false,
      "inputs": [
        {
          "indexed": true,
          "internalType": "address",
          "name": "from",
          "type": "address"
        },
        {
          "indexed": true,
          "internalType": "address",
          "name": "to",
          "type": "address"
        },
        {
          "indexed": false,
          "internalType": "uint256",
          "name": "value",
          "type": "uint256"
        }
      ],
      "name": "Transfer",
      "type": "event"
    },
    {
      "anonymous": false,
      "inputs": [
        {
          "indexed": true,
          "internalType": "address",
          "name": "staker",
          "type": "address"
        },
        {
          "indexed": false,
          "internalType": "uint128",
          "name": "amount",
          "type": "uint128"
        }
      ],
      "name": "Unstaked",
      "type": "event"
    },
    {
      "inputs": [],
      "name": "DOMAIN_SEPARATOR",
      "outputs": [
        {
          "internalType": "bytes32",
          "name": "",
          "type": "bytes32"
        }
      ],
      "stateMutability": "view",
      "type": "function"
    },
    {
      "inputs": [
        {
          "internalType": "bytes32",
          "name": "structHash",
          "type": "bytes32"
        }
      ],
      "name": "_hashTypedDataV4",
      "outputs": [
        {
          "internalType": "bytes32",
          "name": "",
          "type": "bytes32"
        }
      ],
      "stateMutability": "view",
      "type": "function"
    },
    {
      "inputs": [
        {
          "internalType": "address",
          "name": "owner",
          "type": "address"
        },
        {
          "internalType": "address",
          "name": "spender",
          "type": "address"
        }
      ],
      "name": "allowance",
      "outputs": [
        {
          "internalType": "uint256",
          "name": "",
          "type": "uint256"
        }
      ],
      "stateMutability": "view",
      "type": "function"
    },
    {
      "inputs": [
        {
          "internalType": "address",
          "name": "spender",
          "type": "address"
        },
        {
          "internalType": "uint256",
          "name": "amount",
          "type": "uint256"
        }
      ],
      "name": "approve",
      "outputs": [
        {
          "internalType": "bool",
          "name": "",
          "type": "bool"
        }
      ],
      "stateMutability": "nonpayable",
      "type": "function"
    },
    {
      "inputs": [
        {
          "internalType": "address",
          "name": "account",
          "type": "address"
        }
      ],
      "name": "balanceOf",
      "outputs": [
        {
          "internalType": "uint256",
          "name": "",
          "type": "uint256"
        }
      ],
      "stateMutability": "view",
      "type": "function"
    },
    {
      "inputs": [
        {
          "internalType": "uint128",
          "name": "amount",
          "type": "uint128"
        },
        {
          "internalType": "uint32",
          "name": "stakeHours",
          "type": "uint32"
        }
      ],
      "name": "boostModifier",
      "outputs": [
        {
          "internalType": "uint256",
          "name": "",
          "type": "uint256"
        }
      ],
      "stateMutability": "view",
      "type": "function"
    },
    {
      "inputs": [
        {
          "internalType": "address",
          "name": "account",
          "type": "address"
        },
        {
          "internalType": "uint32",
          "name": "pos",
          "type": "uint32"
        }
      ],
      "name": "checkpoints",
      "outputs": [
        {
          "components": [
            {
              "internalType": "uint32",
              "name": "fromBlock",
              "type": "uint32"
            },
            {
              "internalType": "uint224",
              "name": "votes",
              "type": "uint224"
            }
          ],
          "internalType": "struct ERC20Votes.Checkpoint",
          "name": "",
          "type": "tuple"
        }
      ],
      "stateMutability": "view",
      "type": "function"
    },
    {
      "inputs": [],
      "name": "claim",
      "outputs": [
        {
          "internalType": "uint256",
          "name": "owed",
          "type": "uint256"
        }
      ],
      "stateMutability": "nonpayable",
      "type": "function"
    },
    {
      "inputs": [
        {
          "internalType": "address",
          "name": "receiver",
          "type": "address"
        }
      ],
      "name": "claimTo",
      "outputs": [
        {
          "internalType": "uint256",
          "name": "owed",
          "type": "uint256"
        }
      ],
      "stateMutability": "nonpayable",
      "type": "function"
    },
    {
      "inputs": [],
      "name": "currentHour",
      "outputs": [
        {
          "internalType": "uint32",
          "name": "hour",
          "type": "uint32"
        }
      ],
      "stateMutability": "view",
      "type": "function"
    },
    {
      "inputs": [],
      "name": "decimals",
      "outputs": [
        {
          "internalType": "uint8",
          "name": "",
          "type": "uint8"
        }
      ],
      "stateMutability": "view",
      "type": "function"
    },
    {
      "inputs": [
        {
          "internalType": "address",
          "name": "delegatee",
          "type": "address"
        }
      ],
      "name": "delegate",
      "outputs": [],
      "stateMutability": "nonpayable",
      "type": "function"
    },
    {
      "inputs": [
        {
          "internalType": "address",
          "name": "delegatee",
          "type": "address"
        },
        {
          "internalType": "uint256",
          "name": "nonce",
          "type": "uint256"
        },
        {
          "internalType": "uint256",
          "name": "expiry",
          "type": "uint256"
        },
        {
          "internalType": "uint8",
          "name": "v",
          "type": "uint8"
        },
        {
          "internalType": "bytes32",
          "name": "r",
          "type": "bytes32"
        },
        {
          "internalType": "bytes32",
          "name": "s",
          "type": "bytes32"
        }
      ],
      "name": "delegateBySig",
      "outputs": [],
      "stateMutability": "nonpayable",
      "type": "function"
    },
    {
      "inputs": [
        {
          "internalType": "address",
          "name": "account",
          "type": "address"
        }
      ],
      "name": "delegates",
      "outputs": [
        {
          "internalType": "address",
          "name": "",
          "type": "address"
        }
      ],
      "stateMutability": "view",
      "type": "function"
    },
    {
      "inputs": [],
      "name": "enso",
      "outputs": [
        {
          "internalType": "address",
          "name": "enso",
          "type": "address"
        }
      ],
      "stateMutability": "view",
      "type": "function"
    },
    {
      "inputs": [
        {
          "internalType": "uint32",
          "name": "hoursMore",
          "type": "uint32"
        }
      ],
      "name": "extendStake",
      "outputs": [],
      "stateMutability": "nonpayable",
      "type": "function"
    },
    {
      "inputs": [
        {
          "internalType": "address",
          "name": "account",
          "type": "address"
        }
      ],
      "name": "getCurrentVotes",
      "outputs": [
        {
          "internalType": "uint96",
          "name": "",
          "type": "uint96"
        }
      ],
      "stateMutability": "view",
      "type": "function"
    },
    {
      "inputs": [
        {
          "internalType": "uint256",
          "name": "blockNumber",
          "type": "uint256"
        }
      ],
      "name": "getPastTotalSupply",
      "outputs": [
        {
          "internalType": "uint256",
          "name": "",
          "type": "uint256"
        }
      ],
      "stateMutability": "view",
      "type": "function"
    },
    {
      "inputs": [
        {
          "internalType": "address",
          "name": "account",
          "type": "address"
        },
        {
          "internalType": "uint256",
          "name": "blockNumber",
          "type": "uint256"
        }
      ],
      "name": "getPastVotes",
      "outputs": [
        {
          "internalType": "uint256",
          "name": "",
          "type": "uint256"
        }
      ],
      "stateMutability": "view",
      "type": "function"
    },
    {
      "inputs": [
        {
          "internalType": "address",
          "name": "account",
          "type": "address"
        },
        {
          "internalType": "uint256",
          "name": "blockNumber",
          "type": "uint256"
        }
      ],
      "name": "getPriorVotes",
      "outputs": [
        {
          "internalType": "uint96",
          "name": "",
          "type": "uint96"
        }
      ],
      "stateMutability": "view",
      "type": "function"
    },
    {
      "inputs": [
        {
          "internalType": "address",
          "name": "account",
          "type": "address"
        }
      ],
      "name": "getVotes",
      "outputs": [
        {
          "internalType": "uint256",
          "name": "",
          "type": "uint256"
        }
      ],
      "stateMutability": "view",
      "type": "function"
    },
    {
      "inputs": [
        {
          "internalType": "address",
          "name": "user",
          "type": "address"
        },
        {
          "internalType": "uint32",
          "name": "hourNow",
          "type": "uint32"
        }
      ],
      "name": "isLocked",
      "outputs": [
        {
          "internalType": "bool",
          "name": "",
          "type": "bool"
        }
      ],
      "stateMutability": "view",
      "type": "function"
    },
    {
      "inputs": [
        {
          "internalType": "address",
          "name": "user",
          "type": "address"
        }
      ],
      "name": "isLockedNow",
      "outputs": [
        {
          "internalType": "bool",
          "name": "",
          "type": "bool"
        }
      ],
      "stateMutability": "view",
      "type": "function"
    },
    {
      "inputs": [
        {
          "internalType": "address",
          "name": "user",
          "type": "address"
        }
      ],
      "name": "isStaker",
      "outputs": [
        {
          "internalType": "bool",
          "name": "",
          "type": "bool"
        }
      ],
      "stateMutability": "view",
      "type": "function"
    },
    {
      "inputs": [
        {
          "internalType": "uint128",
          "name": "amount",
          "type": "uint128"
        }
      ],
      "name": "issueRewards",
      "outputs": [],
      "stateMutability": "nonpayable",
      "type": "function"
    },
    {
      "inputs": [],
      "name": "maxHours",
      "outputs": [
        {
          "internalType": "uint32",
          "name": "",
          "type": "uint32"
        }
      ],
      "stateMutability": "view",
      "type": "function"
    },
    {
      "inputs": [],
      "name": "minStake",
      "outputs": [
        {
          "internalType": "uint128",
          "name": "",
          "type": "uint128"
        }
      ],
      "stateMutability": "view",
      "type": "function"
    },
    {
      "inputs": [],
      "name": "name",
      "outputs": [
        {
          "internalType": "string",
          "name": "",
          "type": "string"
        }
      ],
      "stateMutability": "view",
      "type": "function"
    },
    {
      "inputs": [
        {
          "internalType": "address",
          "name": "owner",
          "type": "address"
        }
      ],
      "name": "nonces",
      "outputs": [
        {
          "internalType": "uint256",
          "name": "",
          "type": "uint256"
        }
      ],
      "stateMutability": "view",
      "type": "function"
    },
    {
      "inputs": [
        {
          "internalType": "address",
          "name": "account",
          "type": "address"
        }
      ],
      "name": "numCheckpoints",
      "outputs": [
        {
          "internalType": "uint32",
          "name": "",
          "type": "uint32"
        }
      ],
      "stateMutability": "view",
      "type": "function"
    },
    {
      "inputs": [
        {
          "internalType": "address",
          "name": "owner",
          "type": "address"
        },
        {
          "internalType": "address",
          "name": "spender",
          "type": "address"
        },
        {
          "internalType": "uint256",
          "name": "value",
          "type": "uint256"
        },
        {
          "internalType": "uint256",
          "name": "deadline",
          "type": "uint256"
        },
        {
          "internalType": "uint8",
          "name": "v",
          "type": "uint8"
        },
        {
          "internalType": "bytes32",
          "name": "r",
          "type": "bytes32"
        },
        {
          "internalType": "bytes32",
          "name": "s",
          "type": "bytes32"
        }
      ],
      "name": "permit",
      "outputs": [],
      "stateMutability": "nonpayable",
      "type": "function"
    },
    {
      "inputs": [],
      "name": "reinvest",
      "outputs": [],
      "stateMutability": "nonpayable",
      "type": "function"
    },
    {
      "inputs": [
        {
          "internalType": "uint32",
          "name": "hoursToStake",
          "type": "uint32"
        },
        {
          "internalType": "uint128",
          "name": "amountToAdd",
          "type": "uint128"
        }
      ],
      "name": "restake",
      "outputs": [],
      "stateMutability": "nonpayable",
      "type": "function"
    },
    {
      "inputs": [
        {
          "internalType": "address",
          "name": "user",
          "type": "address"
        },
        {
          "internalType": "uint128",
          "name": "amountToAdd",
          "type": "uint128"
        }
      ],
      "name": "restakeFor",
      "outputs": [],
      "stateMutability": "nonpayable",
      "type": "function"
    },
    {
      "inputs": [],
      "name": "rewards",
      "outputs": [
        {
          "internalType": "uint256",
          "name": "earned_",
          "type": "uint256"
        },
        {
          "internalType": "uint256",
          "name": "rewardsPerToken_",
          "type": "uint256"
        }
      ],
      "stateMutability": "view",
      "type": "function"
    },
    {
      "inputs": [
        {
          "internalType": "uint128",
          "name": "amount",
          "type": "uint128"
        },
        {
          "internalType": "uint32",
          "name": "hoursToStake",
          "type": "uint32"
        }
      ],
      "name": "stake",
      "outputs": [],
      "stateMutability": "nonpayable",
      "type": "function"
    },
    {
      "inputs": [
        {
          "internalType": "address",
          "name": "user",
          "type": "address"
        },
        {
          "internalType": "uint128",
          "name": "amount",
          "type": "uint128"
        }
      ],
      "name": "stakeFor",
      "outputs": [],
      "stateMutability": "nonpayable",
      "type": "function"
    },
    {
      "inputs": [
        {
          "internalType": "uint128",
          "name": "amount",
          "type": "uint128"
        },
        {
          "internalType": "uint32",
          "name": "hoursToStake",
          "type": "uint32"
        },
        {
          "internalType": "uint8",
          "name": "v",
          "type": "uint8"
        },
        {
          "internalType": "bytes32",
          "name": "r",
          "type": "bytes32"
        },
        {
          "internalType": "bytes32",
          "name": "s",
          "type": "bytes32"
        },
        {
          "internalType": "uint256",
          "name": "deadline",
          "type": "uint256"
        }
      ],
      "name": "stakeWithPermit",
      "outputs": [],
      "stateMutability": "nonpayable",
      "type": "function"
    },
    {
      "inputs": [],
      "name": "startTimestamp",
      "outputs": [
        {
          "internalType": "uint128",
          "name": "",
          "type": "uint128"
        }
      ],
      "stateMutability": "view",
      "type": "function"
    },
    {
      "inputs": [],
      "name": "symbol",
      "outputs": [
        {
          "internalType": "string",
          "name": "",
          "type": "string"
        }
      ],
      "stateMutability": "view",
      "type": "function"
    },
    {
      "inputs": [],
      "name": "totalSupply",
      "outputs": [
        {
          "internalType": "uint256",
          "name": "",
          "type": "uint256"
        }
      ],
      "stateMutability": "view",
      "type": "function"
    },
    {
      "inputs": [
        {
          "internalType": "address",
          "name": "addr",
          "type": "address"
        }
      ],
      "name": "unclaimedAmount",
      "outputs": [
        {
          "internalType": "uint256",
          "name": "unclaimed",
          "type": "uint256"
        }
      ],
      "stateMutability": "view",
      "type": "function"
    },
    {
      "inputs": [
        {
          "internalType": "uint128",
          "name": "amount",
          "type": "uint128"
        }
      ],
      "name": "unstake",
      "outputs": [],
      "stateMutability": "nonpayable",
      "type": "function"
    },
    {
      "inputs": [
        {
          "internalType": "address",
          "name": "user",
          "type": "address"
        },
        {
          "internalType": "uint128",
          "name": "amount",
          "type": "uint128"
        }
      ],
      "name": "unstakeFor",
      "outputs": [],
      "stateMutability": "nonpayable",
      "type": "function"
    },
    {
      "inputs": [
        {
          "internalType": "address",
          "name": "user",
          "type": "address"
        }
      ],
      "name": "userRewards",
      "outputs": [
        {
          "internalType": "uint256",
          "name": "lastRewardPerToken_",
          "type": "uint256"
        },
        {
          "internalType": "uint256",
          "name": "owed_",
          "type": "uint256"
        }
      ],
      "stateMutability": "view",
      "type": "function"
    },
    {
      "inputs": [
        {
          "internalType": "address",
          "name": "",
          "type": "address"
        }
      ],
      "name": "userStakes",
      "outputs": [
        {
          "internalType": "uint128",
          "name": "amount",
          "type": "uint128"
        },
        {
          "internalType": "uint32",
          "name": "hourIn",
          "type": "uint32"
        },
        {
          "internalType": "uint32",
          "name": "stakeHours",
          "type": "uint32"
        }
      ],
      "stateMutability": "view",
      "type": "function"
    }
  ],
  "bytecode": "0x6101c06040527f6e71edae12b1b97f4d1f60370fef10105fa2faae0126114a169c64845d6126c9610120526402540be400610180523480156200004157600080fd5b506040516200378d3803806200378d83398101604081905262000064916200026e565b806040518060400160405280600a8152602001695374616b6564456e736f60b01b81525080604051806040016040528060018152602001603160f81b8152506040518060400160405280600a8152602001695374616b6564456e736f60b01b8152506040518060400160405280600581526020016473454e534f60d81b8152508160039080519060200190620000fc929190620001c8565b50805162000112906004906020840190620001c8565b5050825160209384012082519284019290922060c083815260e08290524660a0818152604080517f8b73c3c69bb8fe3d512ecc4cf759cc79239f7b179b0ffacaa9a75d522b39400f818a01819052818301989098526060810195909552608080860193909352308583015280518086039092018252939092019092528051940193909320909252610100525050426001600160801b031661014052614470610160526001600160a01b03166101a05250620002dd565b828054620001d690620002a0565b90600052602060002090601f016020900481019282620001fa576000855562000245565b82601f106200021557805160ff191683800117855562000245565b8280016001018555821562000245579182015b828111156200024557825182559160200191906001019062000228565b506200025392915062000257565b5090565b5b8082111562000253576000815560010162000258565b6000602082840312156200028157600080fd5b81516001600160a01b03811681146200029957600080fd5b9392505050565b600181811c90821680620002b557607f821691505b60208210811415620002d757634e487b7160e01b600052602260045260246000fd5b50919050565b60805160a05160c05160e05161010051610120516101405161016051610180516101a0516133e0620003ad600039600081816105ee0152818161081f0152818161090f01528181610a8f01528181610c2e01528181610c8e01528181610d9b015281816117fc0152611b360152600081816102fa01526124da015260008181610476015281816120dc0152612143015260008181610660015261145f015260006111c5015260006116090152600061165801526000611633015260006115b7015260006115e001526133e06000f3fe608060405234801561001057600080fd5b506004361061022a5760003560e01c80638cc5e5331161012c5780638cc5e533146104745780638da7ad231461049a5780638e539e8c1461050857806395add8b41461051b57806395d89b411461052e5780639ab24eb0146105365780639ec5a89414610549578063a262f5f814610554578063a6a6b02914610567578063a8ad9a321461057a578063b0f4a23f1461058d578063b4b5ea57146105a0578063bcc82714146105b3578063c3cda520146105c6578063c8f1ecd8146105d9578063ce40c7cd146105ec578063d2b94d0c14610612578063d47785a914610625578063d505accf14610638578063dd62ed3e1461064b578063e6fd48bc1461065e578063f1127ed814610684578063fdb5a03e146106c157600080fd5b8063020e185d1461022f5780630660f1e81461025157806306fdde0314610297578063095ea7b3146102ac57806318160ddd146102cf578063313ce567146102e15780633644e515146102f0578063375b3c0a146102f85780633a46b1a8146103305780634388986814610343578063458a1d6e146103585780634e71d92d1461036b578063587cde1e146103735780635c19a95c1461039e5780636f1e8533146103b15780636fcfff45146103c457806370458d85146103d757806370a08231146103ea57806371e01f35146103fd578063782d6fe1146104105780637ecebe001461043b5780637ee3f17f1461044e5780637f47bc2e14610461575b600080fd5b6102376106c9565b60405163ffffffff90911681526020015b60405180910390f35b61028261025f366004612ea3565b6001600160a01b03166000908152600a6020526040902080546001909101549091565b60408051928352602083019190915201610248565b61029f6106d8565b6040516102489190612eea565b6102bf6102ba366004612f1d565b61076a565b6040519015158152602001610248565b6002545b604051908152602001610248565b60405160128152602001610248565b6102d3610782565b7f000000000000000000000000000000000000000000000000000000000000000066ffffffffffffff165b6040516102489190612f47565b6102d361033e366004612f1d565b61078c565b610356610351366004612f86565b6107df565b005b610356610366366004612fb9565b6107ee565b6102d36107fb565b610386610381366004612ea3565b610849565b6040516001600160a01b039091168152602001610248565b6103566103ac366004612ea3565b610867565b6102bf6103bf366004612ea3565b610871565b6102376103d2366004612ea3565b6108d4565b6103566103e5366004612fd4565b6108f6565b6102d36103f8366004612ea3565b6109b2565b61035661040b366004612fd4565b6109cd565b61042361041e366004612f1d565b6109eb565b6040516001600160601b039091168152602001610248565b6102d3610449366004612ea3565b6109ff565b6102bf61045c366004612ea3565b610a1d565b61035661046f366004612ff0565b610a82565b7f0000000000000000000000000000000000000000000000000000000000000000610237565b6104dc6104a8366004612ea3565b6009602052600090815260409020546001600160801b0381169063ffffffff600160801b8204811691600160a01b90041683565b604080516001600160801b03909416845263ffffffff9283166020850152911690820152606001610248565b6102d361051636600461301a565b610b2f565b610356610529366004612fd4565b610b5b565b61029f610b7a565b6102d3610544366004612ea3565b610b89565b600b54600c54610282565b6102d3610562366004612ea3565b610c0f565b610356610575366004612fb9565b610c5a565b6102d3610588366004612ea3565b610d3f565b61035661059b366004613044565b610d53565b6104236105ae366004612ea3565b610e11565b6103566105c13660046130a3565b610e1f565b6103566105d43660046130be565b610f87565b6102d36105e736600461301a565b6110b9565b7f0000000000000000000000000000000000000000000000000000000000000000610386565b6102bf610620366004613116565b611107565b6102d3610633366004612ff0565b611165565b610356610646366004613132565b611171565b6102d361065936600461319c565b6112d5565b7f0000000000000000000000000000000000000000000000000000000000000000610323565b610697610692366004613116565b611300565b60408051825163ffffffff1681526020928301516001600160e01b03169281019290925201610248565b610356611383565b60006106d361144d565b905090565b6060600380546106e7906131c6565b80601f0160208091040260200160405190810160405280929190818152602001828054610713906131c6565b80156107605780601f1061073557610100808354040283529160200191610760565b820191906000526020600020905b81548152906001019060200180831161074357829003601f168201915b5050505050905090565b60003361077881858561148f565b5060019392505050565b60006106d36115b3565b60004382106107b65760405162461bcd60e51b81526004016107ad906131fb565b60405180910390fd5b6001600160a01b03831660009081526007602052604090206107d890836116a6565b9392505050565b6107ea338383611762565b5050565b6107f83382611938565b50565b6000610810333361080b336109b2565b611bae565b90506108466001600160a01b037f0000000000000000000000000000000000000000000000000000000000000000163383611c3e565b90565b6001600160a01b039081166000908152600660205260409020541690565b6107f83382611c94565b6001600160a01b0381166000908152600960209081526040808320815160608101835290546001600160801b038116825263ffffffff600160801b8204811694830194909452600160a01b9004909216908201526108ce90611d1a565b92915050565b6001600160a01b0381166000908152600760205260408120546108ce90611d29565b600061090061144d565b90506109406001600160a01b037f00000000000000000000000000000000000000000000000000000000000000001633306001600160801b038616611d92565b6001600160a01b0383166000908152600960209081526040808320815160608101835290546001600160801b038116825263ffffffff600160801b8204811694830194909452600160a01b9004909216908201526109ad91859185919085906109a890611d1a565b611dca565b505050565b6001600160a01b031660009081526020819052604090205490565b6109e18233836001600160801b0316611f7e565b6107ea8282611938565b60006107d86109fa848461078c565b611ff2565b6001600160a01b0381166000908152600560205260408120546108ce565b6001600160a01b0381166000908152600960209081526040808320815160608101835290546001600160801b038116825263ffffffff600160801b8204811694830194909452600160a01b9004909216908201526108ce90610a7d61144d565b61205a565b610ac06001600160a01b037f00000000000000000000000000000000000000000000000000000000000000001633306001600160801b038616611d92565b6000610aca61144d565b33600081815260096020908152604091829020825160608101845290546001600160801b038116825263ffffffff600160801b8204811693830193909352600160a01b9004909116918101919091529192506109ad918590859085906109a890611d1a565b6000438210610b505760405162461bcd60e51b81526004016107ad906131fb565b6108ce6008836116a6565b610b6e8233610b69856109b2565b611f7e565b6107ea82600083611762565b6060600480546106e7906131c6565b6001600160a01b0381166000908152600760205260408120548015610bfc576001600160a01b0383166000908152600760205260409020610bcb600183613248565b81548110610bdb57610bdb61325f565b600091825260209091200154600160201b90046001600160e01b0316610bff565b60005b6001600160e01b03169392505050565b6000610c1f338361080b336109b2565b9050610c556001600160a01b037f0000000000000000000000000000000000000000000000000000000000000000168383611c3e565b919050565b6001600160801b038116610c8157604051638b12710760e01b815260040160405180910390fd5b610cbf6001600160a01b037f00000000000000000000000000000000000000000000000000000000000000001633306001600160801b038516611d92565b610cdb610ccb60025490565b6001600160801b03831690612085565b600c6000828254610cec9190613275565b9091555050600b80546001600160801b03831601905560405133907f577e40010b42fd80bafa850999e7cec91750c749202445266b373708c592942090610d34908490612f47565b60405180910390a250565b60006108ce82610d4e846109b2565b61209f565b60405163d505accf60e01b81523360048201523060248201526001600160801b03871660448201526064810182905260ff8516608482015260a4810184905260c481018390527f00000000000000000000000000000000000000000000000000000000000000006001600160a01b03169063d505accf9060e401600060405180830381600087803b158015610de757600080fd5b505af1158015610dfb573d6000803e3d6000fd5b50505050610e098686610a82565b505050505050565b60006108ce6109fa83610b89565b33600090815260096020908152604091829020825160608101845290546001600160801b038116825263ffffffff600160801b8204811693830193909352600160a01b900490911691810191909152610e7781611d1a565b610e9457604051633489fc8960e21b815260040160405180910390fd5b610ea081610a7d61144d565b610ebd57604051634ffb268b60e01b815260040160405180910390fd5b60018263ffffffff161015610ee5576040516356e9617160e01b815260040160405180910390fd5b610efd816040015183610ef8919061328d565b6120da565b336000818152600960205260409020805463ffffffff600160a01b808304821687019091160263ffffffff60a01b199091161790558151610f489190610f439085612127565b612198565b60405163ffffffff8316815233907fc5e60b815a22d37cfce625d1338820d144d055a008fe2e84b2ed7596bce369769060200160405180910390a25050565b83421115610fd75760405162461bcd60e51b815260206004820152601d60248201527f4552433230566f7465733a207369676e6174757265206578706972656400000060448201526064016107ad565b604080517fe48329057bfd03d55e49b547132e39cffd9c1820ad7b9d4c5307691425d15adf60208201526001600160a01b038816918101919091526060810186905260808101859052600090611051906110499060a001604051602081830303815290604052805190602001206110b9565b8585856121f7565b905061105c8161221f565b86146110a65760405162461bcd60e51b81526020600482015260196024820152784552433230566f7465733a20696e76616c6964206e6f6e636560381b60448201526064016107ad565b6110b08188611c94565b50505050505050565b60006108ce6110c66115b3565b8360405161190160f01b6020820152602281018390526042810182905260009060620160405160208183030381529060405280519060200120905092915050565b6001600160a01b0382166000908152600960209081526040808320815160608101835290546001600160801b038116825263ffffffff600160801b8204811694830194909452600160a01b9004909216908201526107d8908361205a565b60006107d88383612127565b834211156111c15760405162461bcd60e51b815260206004820152601d60248201527f45524332305065726d69743a206578706972656420646561646c696e6500000060448201526064016107ad565b60007f00000000000000000000000000000000000000000000000000000000000000008888886111f08c61221f565b6040805160208101969096526001600160a01b0394851690860152929091166060840152608083015260a082015260c0810186905260e001604051602081830303815290604052805190602001209050600061124b826110b9565b9050600061125b828787876121f7565b9050896001600160a01b0316816001600160a01b0316146112be5760405162461bcd60e51b815260206004820152601e60248201527f45524332305065726d69743a20696e76616c6964207369676e6174757265000060448201526064016107ad565b6112c98a8a8a61148f565b50505050505050505050565b6001600160a01b03918216600090815260016020908152604080832093909416825291909152205490565b60408051808201909152600080825260208201526001600160a01b0383166000908152600760205260409020805463ffffffff84169081106113445761134461325f565b60009182526020918290206040805180820190915291015463ffffffff81168252600160201b90046001600160e01b0316918101919091529392505050565b33600090815260096020908152604091829020825160608101845290546001600160801b038116825263ffffffff600160801b8204811693830193909352600160a01b9004909116918101919091526113db90611d1a565b6113f857604051633489fc8960e21b815260040160405180910390fd5b600061140330610c0f565b905061141b3382600061141461144d565b6001611dca565b60405181815233907f67c7aa1ef9dbf8081996d7391bf5dc8fb772decabf5ea08418509004fc4ca3e290602001610d34565b6000610e106114856001600160801b037f00000000000000000000000000000000000000000000000000000000000000001642613248565b6106d391906132b5565b6001600160a01b0383166114f15760405162461bcd60e51b8152602060048201526024808201527f45524332303a20617070726f76652066726f6d20746865207a65726f206164646044820152637265737360e01b60648201526084016107ad565b6001600160a01b0382166115525760405162461bcd60e51b815260206004820152602260248201527f45524332303a20617070726f766520746f20746865207a65726f206164647265604482015261737360f01b60648201526084016107ad565b6001600160a01b0383811660008181526001602090815260408083209487168084529482529182902085905590518481527f8c5be1e5ebec7d5bd14f71427d1e84f3dd0314c0f7b2291e5b200ac8c7c3b925910160405180910390a3505050565b60007f000000000000000000000000000000000000000000000000000000000000000046141561160257507f000000000000000000000000000000000000000000000000000000000000000090565b50604080517f00000000000000000000000000000000000000000000000000000000000000006020808301919091527f0000000000000000000000000000000000000000000000000000000000000000828401527f000000000000000000000000000000000000000000000000000000000000000060608301524660808301523060a0808401919091528351808403909101815260c0909201909252805191012090565b8154600090815b8181101561170a5760006116c18284612247565b9050848682815481106116d6576116d661325f565b60009182526020909120015463ffffffff1611156116f657809250611704565b611701816001613275565b91505b506116ad565b811561174d578461171c600184613248565b8154811061172c5761172c61325f565b600091825260209091200154600160201b90046001600160e01b0316611750565b60005b6001600160e01b031695945050505050565b6001600160a01b038316600090815260096020908152604091829020825160608101845290546001600160801b038116825263ffffffff600160801b8204811693830193909352600160a01b9004909116918101919091526117c381611d1a565b6117e057604051633489fc8960e21b815260040160405180910390fd5b6001600160801b0382161561184c5761182d6001600160a01b037f00000000000000000000000000000000000000000000000000000000000000001633306001600160801b038616611d92565b818160000181815161183f91906132d7565b6001600160801b03169052505b600061185661144d565b9050611862828261205a565b156118805760405163856807e360e01b815260040160405180910390fd5b6001600160a01b038516600090815260096020526040812080546001600160c01b03191690556118af866109b2565b90506118bd86308384612262565b8351016001600160801b03168084526118db90879087856000611dca565b8251604080516001600160801b03909216825263ffffffff871660208301526001600160a01b038816917f92c4d283e500ef21e29c42fe29df436d0834701f360312f552fa85d6336bda0b910160405180910390a2505050505050565b6001600160a01b038216600090815260096020908152604091829020825160608101845290546001600160801b038116825263ffffffff600160801b8204811693830193909352600160a01b90049091169181019190915261199981611d1a565b6119b657604051633489fc8960e21b815260040160405180910390fd5b6119c281610a7d61144d565b156119e05760405163856807e360e01b815260040160405180910390fd5b60006119f36119ee856109b2565b612282565b9050600082600001516001600160801b0316846001600160801b031610611a45575081516001600160a01b038516600090815260096020526040902080546001600160c01b0319169055925080611b07565b6001600160801b038416611a6c57604051638b12710760e01b815260040160405180910390fd5b611aa583600001516001600160801b0316856001600160801b0316846001600160801b0316611a9b91906132f9565b6119ee91906132b5565b90506001600160801b038116611ace57604051635321e1df60e01b815260040160405180910390fd5b6001600160a01b038516600090815260096020526040902080546001600160801b03808216879003166001600160801b03199091161790555b611b258586836001600160801b0316856001600160801b0316612262565b90930192611b666001600160a01b037f000000000000000000000000000000000000000000000000000000000000000016866001600160801b038716611c3e565b846001600160a01b03167f23eb338ed2df691870bc931bf6328c55b2708178ecf1f1b3e889afca4418adea85604051611b9f9190612f47565b60405180910390a25050505050565b6000611bba8483612298565b506001600160a01b0383166000908152600a602052604090206001015480156107d8576001600160a01b0384166000908152600a6020526040808220600101919091555133907faee3654837b73cc93e61b5d33f82d45b1df4dbe682913819f5ce40de23518e7290611c2f9086908590613318565b60405180910390a29392505050565b6109ad8363a9059cbb60e01b8484604051602401611c5d929190613318565b60408051601f198184030181529190526020810180516001600160e01b03166001600160e01b0319909316929092179091526122d8565b6000611c9f83610849565b90506000611cac846109b2565b6001600160a01b0385811660008181526006602052604080822080546001600160a01b031916898616908117909155905194955093928616927f3134e8a2e6d97e929a7e54011ea5485d7d196dd5f0ba4d4ef95803e8e3fc257f9190a4611d148284836123aa565b50505050565b516001600160801b0316151590565b600063ffffffff821115611d8e5760405162461bcd60e51b815260206004820152602660248201527f53616665436173743a2076616c756520646f65736e27742066697420696e203360448201526532206269747360d01b60648201526084016107ad565b5090565b6040516001600160a01b0380851660248301528316604482015260648101829052611d149085906323b872dd60e01b90608401611c5d565b63ffffffff8216611dee576040516334baa30160e21b815260040160405180910390fd5b8015611e78576001600160a01b038516600090815260096020908152604091829020825160608101845290546001600160801b038116825263ffffffff600160801b8204811693830193909352600160a01b900490911691810191909152611e56908361205a565b611e7357604051634ffb268b60e01b815260040160405180910390fd5b611ed7565b611e81836120da565b6001600160a01b0385166000908152600960205260409020805463ffffffff858116600160a01b0263ffffffff60a01b19918616600160801b029190911667ffffffffffffffff60801b19909216919091171790555b611ee0846124d8565b6001600160a01b038516600090815260096020526040902080546001600160801b038082168701166001600160801b0319909116179081905563ffffffff600160801b82048116840391600160a01b900416819003611f4387610f438884612127565b5050846001600160a01b03167f2eefbcc6809174727cb788be082c392be6c822829c56ab5eb44d528e9d9f37f985604051611b9f9190612f47565b6000611f8a84846112d5565b90506000198114611d145781811015611fe55760405162461bcd60e51b815260206004820152601d60248201527f45524332303a20696e73756666696369656e7420616c6c6f77616e636500000060448201526064016107ad565b611d14848484840361148f565b60006001600160601b03821115611d8e5760405162461bcd60e51b815260206004820152602660248201527f53616665436173743a2076616c756520646f65736e27742066697420696e203960448201526536206269747360d01b60648201526084016107ad565b6000826040015163ffffffff168360200151836120779190613331565b63ffffffff16109392505050565b60006107d8836904ee2d6d415b85acef8160201b8461252b565b6001600160a01b0382166000908152600a6020526040812054600c5482916120c691613248565b90506120d28382612559565b949350505050565b7f000000000000000000000000000000000000000000000000000000000000000063ffffffff168163ffffffff1611156107f8576040516356e9617160e01b815260040160405180910390fd5b6000808263ffffffff161161213d57600161213f565b815b91507f000000000000000000000000000000000000000000000000000000000000000063ffffffff16836001600160801b03168363ffffffff1661218391906132f9565b61218e9060036132f9565b6107d891906132b5565b60006121a783610d4e856109b2565b905080156121d1576001600160a01b0383166000908152600a602052604090206001018054820190555b600c546001600160a01b0384166000908152600a60205260409020556109ad8383612573565b6000806000612208878787876125fd565b91509150612215816126e0565b5095945050505050565b6001600160a01b03811660009081526005602052604090208054600181018255905b50919050565b600061225660028484186132b5565b6107d890848416613275565b600061226e8584612896565b612279858584611bae565b95945050505050565b60006001600160801b03821115611d8e57600080fd5b60006122a4838361209f565b905080156109ad57600c546001600160a01b0384166000908152600a60205260409020908155600101805482019055505050565b600061232d826040518060400160405280602081526020017f5361666545524332303a206c6f772d6c6576656c2063616c6c206661696c6564815250856001600160a01b03166128ae9092919063ffffffff16565b8051909150156109ad578080602001905181019061234b9190613356565b6109ad5760405162461bcd60e51b815260206004820152602a60248201527f5361666545524332303a204552433230206f7065726174696f6e20646964206e6044820152691bdd081cdd58d8d9595960b21b60648201526084016107ad565b816001600160a01b0316836001600160a01b0316141580156123cc5750600081115b156109ad576001600160a01b0383161561245a576001600160a01b03831660009081526007602052604081208190612407906128bd856128c9565b91509150846001600160a01b03167fdec2bacdd2f05b59de34da9b523dff8be42e5e38e818c82fdb0bae774387a724838360405161244f929190918252602082015260400190565b60405180910390a250505b6001600160a01b038216156109ad576001600160a01b0382166000908152600760205260408120819061249090612a40856128c9565b91509150836001600160a01b03167fdec2bacdd2f05b59de34da9b523dff8be42e5e38e818c82fdb0bae774387a7248383604051611b9f929190918252602082015260400190565b7f000000000000000000000000000000000000000000000000000000000000000066ffffffffffffff16816001600160801b031610156107f857604051635321e1df60e01b815260040160405180910390fd5b82820281151584158583048514171661254357600080fd5b6001826001830304018115150290509392505050565b60006107d883836904ee2d6d415b85acef8160201b612a4c565b61257d8282612a6b565b6002546001600160601b0310156125ef5760405162461bcd60e51b815260206004820152603060248201527f4552433230566f7465733a20746f74616c20737570706c79207269736b73206f60448201526f766572666c6f77696e6720766f74657360801b60648201526084016107ad565b611d146008612a40836128c9565b6000806fa2a8918ca85bafe22016d0b997e4df60600160ff1b0383111561262a57506000905060036126d7565b8460ff16601b1415801561264257508460ff16601c14155b1561265357506000905060046126d7565b6040805160008082526020820180845289905260ff881692820192909252606081018690526080810185905260019060a0016020604051602081039080840390855afa1580156126a7573d6000803e3d6000fd5b5050604051601f1901519150506001600160a01b0381166126d0576000600192509250506126d7565b9150600090505b94509492505050565b60008160048111156126f4576126f4613378565b14156126fd5750565b600181600481111561271157612711613378565b141561275a5760405162461bcd60e51b815260206004820152601860248201527745434453413a20696e76616c6964207369676e617475726560401b60448201526064016107ad565b600281600481111561276e5761276e613378565b14156127bc5760405162461bcd60e51b815260206004820152601f60248201527f45434453413a20696e76616c6964207369676e6174757265206c656e6774680060448201526064016107ad565b60038160048111156127d0576127d0613378565b14156128295760405162461bcd60e51b815260206004820152602260248201527f45434453413a20696e76616c6964207369676e6174757265202773272076616c604482015261756560f01b60648201526084016107ad565b600481600481111561283d5761283d613378565b14156107f85760405162461bcd60e51b815260206004820152602260248201527f45434453413a20696e76616c6964207369676e6174757265202776272076616c604482015261756560f01b60648201526084016107ad565b6128a08282612b52565b611d1460086128bd836128c9565b60606120d28484600085612ca7565b60006107d88284613248565b82546000908190801561291357856128e2600183613248565b815481106128f2576128f261325f565b600091825260209091200154600160201b90046001600160e01b0316612916565b60005b6001600160e01b0316925061292f83858763ffffffff16565b915060008111801561296d57504386612949600184613248565b815481106129595761295961325f565b60009182526020909120015463ffffffff16145b156129cd5761297b82612dcf565b86612987600184613248565b815481106129975761299761325f565b9060005260206000200160000160046101000a8154816001600160e01b0302191690836001600160e01b03160217905550612a37565b8560405180604001604052806129e243611d29565b63ffffffff1681526020016129f685612dcf565b6001600160e01b039081169091528254600181018455600093845260209384902083519490930151909116600160201b0263ffffffff909316929092179101555b50935093915050565b60006107d88284613275565b828202811515841585830485141716612a6457600080fd5b0492915050565b6001600160a01b038216612ac15760405162461bcd60e51b815260206004820152601f60248201527f45524332303a206d696e7420746f20746865207a65726f20616464726573730060448201526064016107ad565b8060026000828254612ad39190613275565b90915550506001600160a01b03821660009081526020819052604081208054839290612b00908490613275565b90915550506040518181526001600160a01b038316906000907fddf252ad1be2c89b69c2b068fc378daa952ba7f163c4a11628f55a4df523b3ef9060200160405180910390a36107ea60008383612e38565b6001600160a01b038216612bb25760405162461bcd60e51b815260206004820152602160248201527f45524332303a206275726e2066726f6d20746865207a65726f206164647265736044820152607360f81b60648201526084016107ad565b6001600160a01b03821660009081526020819052604090205481811015612c265760405162461bcd60e51b815260206004820152602260248201527f45524332303a206275726e20616d6f756e7420657863656564732062616c616e604482015261636560f01b60648201526084016107ad565b6001600160a01b0383166000908152602081905260408120838303905560028054849290612c55908490613248565b90915550506040518281526000906001600160a01b038516907fddf252ad1be2c89b69c2b068fc378daa952ba7f163c4a11628f55a4df523b3ef9060200160405180910390a36109ad83600084612e38565b606082471015612d085760405162461bcd60e51b815260206004820152602660248201527f416464726573733a20696e73756666696369656e742062616c616e636520666f6044820152651c8818d85b1b60d21b60648201526084016107ad565b843b612d565760405162461bcd60e51b815260206004820152601d60248201527f416464726573733a2063616c6c20746f206e6f6e2d636f6e747261637400000060448201526064016107ad565b600080866001600160a01b03168587604051612d72919061338e565b60006040518083038185875af1925050503d8060008114612daf576040519150601f19603f3d011682016040523d82523d6000602084013e612db4565b606091505b5091509150612dc4828286612e53565b979650505050505050565b60006001600160e01b03821115611d8e5760405162461bcd60e51b815260206004820152602760248201527f53616665436173743a2076616c756520646f65736e27742066697420696e20326044820152663234206269747360c81b60648201526084016107ad565b6109ad612e4484610849565b612e4d84610849565b836123aa565b60608315612e625750816107d8565b825115612e725782518084602001fd5b8160405162461bcd60e51b81526004016107ad9190612eea565b80356001600160a01b0381168114610c5557600080fd5b600060208284031215612eb557600080fd5b6107d882612e8c565b60005b83811015612ed9578181015183820152602001612ec1565b83811115611d145750506000910152565b6020815260008251806020840152612f09816040850160208701612ebe565b601f01601f19169190910160400192915050565b60008060408385031215612f3057600080fd5b612f3983612e8c565b946020939093013593505050565b6001600160801b0391909116815260200190565b803563ffffffff81168114610c5557600080fd5b80356001600160801b0381168114610c5557600080fd5b60008060408385031215612f9957600080fd5b612fa283612f5b565b9150612fb060208401612f6f565b90509250929050565b600060208284031215612fcb57600080fd5b6107d882612f6f565b60008060408385031215612fe757600080fd5b612fa283612e8c565b6000806040838503121561300357600080fd5b61300c83612f6f565b9150612fb060208401612f5b565b60006020828403121561302c57600080fd5b5035919050565b803560ff81168114610c5557600080fd5b60008060008060008060c0878903121561305d57600080fd5b61306687612f6f565b955061307460208801612f5b565b945061308260408801613033565b9350606087013592506080870135915060a087013590509295509295509295565b6000602082840312156130b557600080fd5b6107d882612f5b565b60008060008060008060c087890312156130d757600080fd5b6130e087612e8c565b955060208701359450604087013593506130fc60608801613033565b92506080870135915060a087013590509295509295509295565b6000806040838503121561312957600080fd5b61300c83612e8c565b600080600080600080600060e0888a03121561314d57600080fd5b61315688612e8c565b965061316460208901612e8c565b9550604088013594506060880135935061318060808901613033565b925060a0880135915060c0880135905092959891949750929550565b600080604083850312156131af57600080fd5b6131b883612e8c565b9150612fb060208401612e8c565b600181811c908216806131da57607f821691505b6020821081141561224157634e487b7160e01b600052602260045260246000fd5b6020808252601f908201527f4552433230566f7465733a20626c6f636b206e6f7420796574206d696e656400604082015260600190565b634e487b7160e01b600052601160045260246000fd5b60008282101561325a5761325a613232565b500390565b634e487b7160e01b600052603260045260246000fd5b6000821982111561328857613288613232565b500190565b600063ffffffff8083168185168083038211156132ac576132ac613232565b01949350505050565b6000826132d257634e487b7160e01b600052601260045260246000fd5b500490565b60006001600160801b038281168482168083038211156132ac576132ac613232565b600081600019048311821515161561331357613313613232565b500290565b6001600160a01b03929092168252602082015260400190565b600063ffffffff8381169083168181101561334e5761334e613232565b039392505050565b60006020828403121561336857600080fd5b815180151581146107d857600080fd5b634e487b7160e01b600052602160045260246000fd5b600082516133a0818460208701612ebe565b919091019291505056fea2646970667358221220d22ad230fd2377a710b9b138597c6335a6f214b0ae829de5b63d48b1cf9b525564736f6c634300080b0033",
  "linkReferences": {},
  "deployedLinkReferences": {}
}