{
  "_format": "hh-sol-artifact-1",
  "contractName": "StrategyProxyFactory",
  "sourceName": "contracts/StrategyProxyFactory.sol",
  "abi": [
    {
      "inputs": [
        {
          "internalType": "address",
          "name": "controller_",
          "type": "address"
        }
      ],
      "stateMutability": "nonpayable",
      "type": "constructor"
    },
    {
      "anonymous": false,
      "inputs": [
        {
          "indexed": false,
          "internalType": "address",
          "name": "newOracle",
          "type": "address"
        }
      ],
      "name": "NewOracle",
      "type": "event"
    },
    {
      "anonymous": false,
      "inputs": [
        {
          "indexed": false,
          "internalType": "address",
          "name": "newPool",
          "type": "address"
        }
      ],
      "name": "NewPool",
      "type": "event"
    },
    {
      "anonymous": false,
      "inputs": [
        {
          "indexed": false,
          "internalType": "address",
          "name": "strategy",
          "type": "address"
        },
        {
          "indexed": false,
          "internalType": "address",
          "name": "manager",
          "type": "address"
        },
        {
          "indexed": false,
          "internalType": "string",
          "name": "name",
          "type": "string"
        },
        {
          "indexed": false,
          "internalType": "string",
          "name": "symbol",
          "type": "string"
        },
        {
          "components": [
            {
              "internalType": "address",
              "name": "item",
              "type": "address"
            },
            {
              "internalType": "int256",
              "name": "percentage",
              "type": "int256"
            },
            {
              "components": [
                {
                  "internalType": "address[]",
                  "name": "adapters",
                  "type": "address[]"
                },
                {
                  "internalType": "address[]",
                  "name": "path",
                  "type": "address[]"
                },
                {
                  "internalType": "bytes",
                  "name": "cache",
                  "type": "bytes"
                }
              ],
              "internalType": "struct StrategyTypes.TradeData",
              "name": "data",
              "type": "tuple"
            }
          ],
          "indexed": false,
          "internalType": "struct StrategyTypes.StrategyItem[]",
          "name": "items",
          "type": "tuple[]"
        }
      ],
      "name": "NewStrategy",
      "type": "event"
    },
    {
      "anonymous": false,
      "inputs": [
        {
          "indexed": false,
          "internalType": "address",
          "name": "newWhitelist",
          "type": "address"
        }
      ],
      "name": "NewWhitelist",
      "type": "event"
    },
    {
      "anonymous": false,
      "inputs": [
        {
          "indexed": true,
          "internalType": "address",
          "name": "previousOwner",
          "type": "address"
        },
        {
          "indexed": true,
          "internalType": "address",
          "name": "newOwner",
          "type": "address"
        }
      ],
      "name": "OwnershipTransferred",
      "type": "event"
    },
    {
      "anonymous": false,
      "inputs": [
        {
          "indexed": false,
          "internalType": "address",
          "name": "newImplementation",
          "type": "address"
        },
        {
          "indexed": false,
          "internalType": "string",
          "name": "version",
          "type": "string"
        }
      ],
      "name": "Update",
      "type": "event"
    },
    {
      "inputs": [],
      "name": "ZERO_ADDRESS",
      "outputs": [
        {
          "internalType": "string",
          "name": "",
          "type": "string"
        }
      ],
      "stateMutability": "view",
      "type": "function"
    },
    {
      "inputs": [
        {
          "internalType": "uint256",
          "name": "estimatorCategoryIndex",
          "type": "uint256"
        },
        {
          "internalType": "address",
          "name": "estimator",
          "type": "address"
        }
      ],
      "name": "addEstimatorToRegistry",
      "outputs": [],
      "stateMutability": "nonpayable",
      "type": "function"
    },
    {
      "inputs": [
        {
          "internalType": "uint256",
          "name": "itemCategoryIndex",
          "type": "uint256"
        },
        {
          "internalType": "uint256",
          "name": "estimatorCategoryIndex",
          "type": "uint256"
        },
        {
          "internalType": "address",
          "name": "token",
          "type": "address"
        }
      ],
      "name": "addItemToRegistry",
      "outputs": [],
      "stateMutability": "nonpayable",
      "type": "function"
    },
    {
      "inputs": [
        {
          "internalType": "uint256[]",
          "name": "itemCategoryIndex",
          "type": "uint256[]"
        },
        {
          "internalType": "uint256[]",
          "name": "estimatorCategoryIndex",
          "type": "uint256[]"
        },
        {
          "internalType": "address[]",
          "name": "tokens",
          "type": "address[]"
        }
      ],
      "name": "addItemsToRegistry",
      "outputs": [],
      "stateMutability": "nonpayable",
      "type": "function"
    },
    {
      "inputs": [],
      "name": "admin",
      "outputs": [
        {
          "internalType": "address",
          "name": "",
          "type": "address"
        }
      ],
      "stateMutability": "view",
      "type": "function"
    },
    {
      "inputs": [],
      "name": "controller",
      "outputs": [
        {
          "internalType": "address",
          "name": "",
          "type": "address"
        }
      ],
      "stateMutability": "view",
      "type": "function"
    },
    {
      "inputs": [
        {
          "internalType": "address",
          "name": "manager",
          "type": "address"
        },
        {
          "internalType": "string",
          "name": "name",
          "type": "string"
        },
        {
          "internalType": "string",
          "name": "symbol",
          "type": "string"
        },
        {
          "components": [
            {
              "internalType": "address",
              "name": "item",
              "type": "address"
            },
            {
              "internalType": "int256",
              "name": "percentage",
              "type": "int256"
            },
            {
              "components": [
                {
                  "internalType": "address[]",
                  "name": "adapters",
                  "type": "address[]"
                },
                {
                  "internalType": "address[]",
                  "name": "path",
                  "type": "address[]"
                },
                {
                  "internalType": "bytes",
                  "name": "cache",
                  "type": "bytes"
                }
              ],
              "internalType": "struct StrategyTypes.TradeData",
              "name": "data",
              "type": "tuple"
            }
          ],
          "internalType": "struct StrategyTypes.StrategyItem[]",
          "name": "strategyItems",
          "type": "tuple[]"
        },
        {
          "components": [
            {
              "internalType": "uint32",
              "name": "timelock",
              "type": "uint32"
            },
            {
              "internalType": "uint16",
              "name": "rebalanceThreshold",
              "type": "uint16"
            },
            {
              "internalType": "uint16",
              "name": "rebalanceSlippage",
              "type": "uint16"
            },
            {
              "internalType": "uint16",
              "name": "restructureSlippage",
              "type": "uint16"
            },
            {
              "internalType": "uint16",
              "name": "performanceFee",
              "type": "uint16"
            },
            {
              "internalType": "bool",
              "name": "social",
              "type": "bool"
            },
            {
              "internalType": "bool",
              "name": "set",
              "type": "bool"
            }
          ],
          "internalType": "struct StrategyTypes.InitialState",
          "name": "strategyState",
          "type": "tuple"
        },
        {
          "internalType": "address",
          "name": "router",
          "type": "address"
        },
        {
          "internalType": "bytes",
          "name": "data",
          "type": "bytes"
        }
      ],
      "name": "createStrategy",
      "outputs": [
        {
          "internalType": "address",
          "name": "",
          "type": "address"
        }
      ],
      "stateMutability": "payable",
      "type": "function"
    },
    {
      "inputs": [
        {
          "internalType": "address",
          "name": "proxy",
          "type": "address"
        }
      ],
      "name": "getManager",
      "outputs": [
        {
          "internalType": "address",
          "name": "",
          "type": "address"
        }
      ],
      "stateMutability": "view",
      "type": "function"
    },
    {
      "inputs": [],
      "name": "implementation",
      "outputs": [
        {
          "internalType": "address",
          "name": "",
          "type": "address"
        }
      ],
      "stateMutability": "view",
      "type": "function"
    },
    {
      "inputs": [
        {
          "internalType": "address",
          "name": "owner_",
          "type": "address"
        },
        {
          "internalType": "address",
          "name": "implementation_",
          "type": "address"
        },
        {
          "internalType": "address",
          "name": "oracle_",
          "type": "address"
        },
        {
          "internalType": "address",
          "name": "registry_",
          "type": "address"
        },
        {
          "internalType": "address",
          "name": "whitelist_",
          "type": "address"
        },
        {
          "internalType": "address",
          "name": "pool_",
          "type": "address"
        }
      ],
      "name": "initialize",
      "outputs": [
        {
          "internalType": "bool",
          "name": "",
          "type": "bool"
        }
      ],
      "stateMutability": "nonpayable",
      "type": "function"
    },
    {
      "inputs": [],
      "name": "oracle",
      "outputs": [
        {
          "internalType": "address",
          "name": "",
          "type": "address"
        }
      ],
      "stateMutability": "view",
      "type": "function"
    },
    {
      "inputs": [],
      "name": "owner",
      "outputs": [
        {
          "internalType": "address",
          "name": "",
          "type": "address"
        }
      ],
      "stateMutability": "view",
      "type": "function"
    },
    {
      "inputs": [],
      "name": "pool",
      "outputs": [
        {
          "internalType": "address",
          "name": "",
          "type": "address"
        }
      ],
      "stateMutability": "view",
      "type": "function"
    },
    {
      "inputs": [],
      "name": "renounceOwnership",
      "outputs": [],
      "stateMutability": "nonpayable",
      "type": "function"
    },
    {
      "inputs": [
        {
          "internalType": "address",
          "name": "manager",
          "type": "address"
        },
        {
          "internalType": "string",
          "name": "name",
          "type": "string"
        },
        {
          "internalType": "string",
          "name": "symbol",
          "type": "string"
        }
      ],
      "name": "salt",
      "outputs": [
        {
          "internalType": "bytes32",
          "name": "",
          "type": "bytes32"
        }
      ],
      "stateMutability": "pure",
      "type": "function"
    },
    {
      "inputs": [
        {
          "internalType": "address",
          "name": "newOwner",
          "type": "address"
        }
      ],
      "name": "transferOwnership",
      "outputs": [],
      "stateMutability": "nonpayable",
      "type": "function"
    },
    {
      "inputs": [
        {
          "internalType": "address",
          "name": "newImplementation",
          "type": "address"
        },
        {
          "internalType": "string",
          "name": "newVersion",
          "type": "string"
        }
      ],
      "name": "updateImplementation",
      "outputs": [],
      "stateMutability": "nonpayable",
      "type": "function"
    },
    {
      "inputs": [
        {
          "internalType": "address",
          "name": "newOracle",
          "type": "address"
        }
      ],
      "name": "updateOracle",
      "outputs": [],
      "stateMutability": "nonpayable",
      "type": "function"
    },
    {
      "inputs": [
        {
          "internalType": "address",
          "name": "newPool",
          "type": "address"
        }
      ],
      "name": "updatePool",
      "outputs": [],
      "stateMutability": "nonpayable",
      "type": "function"
    },
    {
      "inputs": [
        {
          "internalType": "address",
          "name": "proxy",
          "type": "address"
        }
      ],
      "name": "updateProxyVersion",
      "outputs": [],
      "stateMutability": "nonpayable",
      "type": "function"
    },
    {
      "inputs": [
        {
          "internalType": "address",
          "name": "newWhitelist",
          "type": "address"
        }
      ],
      "name": "updateWhitelist",
      "outputs": [],
      "stateMutability": "nonpayable",
      "type": "function"
    },
    {
      "inputs": [],
      "name": "version",
      "outputs": [
        {
          "internalType": "string",
          "name": "",
          "type": "string"
        }
      ],
      "stateMutability": "view",
      "type": "function"
    },
    {
      "inputs": [],
      "name": "whitelist",
      "outputs": [
        {
          "internalType": "address",
          "name": "",
          "type": "address"
        }
      ],
      "stateMutability": "view",
      "type": "function"
    }
  ],
  "bytecode": "0x60a06040523480156200001157600080fd5b5060405162003677380380620036778339810160408190526200003491620000fb565b603a54610100900460ff168062000050575062000050620000f5565b806200005f5750603a5460ff16155b6200009c5760405162461bcd60e51b815260040180806020018281038252602e81526020018062003649602e913960400191505060405180910390fd5b603a54610100900460ff16158015620000c857603a805460ff1961ff0019909116610100171660011790555b6001600160601b0319606083901b166080528015620000ed57603a805461ff00191690555b50506200012b565b303b1590565b6000602082840312156200010d578081fd5b81516001600160a01b038116811462000124578182fd5b9392505050565b60805160601c6134fb6200014e60003980611561528061179552506134fb6000f3fe608060405260043610620001285760003560e01c806316f0115b146200012d5780631963282d146200015d5780631cb44dfc14620001845780632016d1f914620001a95780632a954d6d14620001c05780633d0f963e14620001f45780633d5840631462000219578063538ba4f9146200023e57806354fd4d5014620002655780635c60da1b146200027d578063671095161462000295578063715018a614620002ba57806376f513d014620002d25780637b46c54f14620002f75780637dc0d1d0146200031c5780638da5cb5b146200033457806390a2702c146200034c57806393e59dc11462000371578063cc2a9a5b1462000389578063f03633f514620003bd578063f2fde38b14620003e2578063f77c47911462000407578063f851a440146200041f575b600080fd5b3480156200013a57600080fd5b506200014562000437565b604051620001549190620022e7565b60405180910390f35b3480156200016a57600080fd5b50620001826200017c36600462001dd7565b62000446565b005b3480156200019157600080fd5b5062000182620001a336600462001d04565b62000672565b62000145620001ba36600462001ea5565b62000776565b348015620001cd57600080fd5b50620001e5620001df36600462001e2a565b620007e5565b60405162000154919062002533565b3480156200020157600080fd5b50620001826200021336600462001d04565b6200081d565b3480156200022657600080fd5b50620001456200023836600462001d04565b62000915565b3480156200024b57600080fd5b506200025662000994565b6040516200015491906200253c565b3480156200027257600080fd5b5062000256620009bc565b3480156200028a57600080fd5b506200014562000a56565b348015620002a257600080fd5b5062000182620002b436600462002053565b62000a65565b348015620002c757600080fd5b506200018262000afe565b348015620002df57600080fd5b5062000182620002f136600462001f95565b62000b64565b3480156200030457600080fd5b50620001826200031636600462001d04565b62000c09565b3480156200032957600080fd5b506200014562000d01565b3480156200034157600080fd5b506200014562000d10565b3480156200035957600080fd5b50620001826200036b36600462002085565b62000d1f565b3480156200037e57600080fd5b506200014562000d5e565b3480156200039657600080fd5b50620003ae620003a836600462001d49565b62000d6d565b60405162000154919062002528565b348015620003ca57600080fd5b5062000182620003dc36600462001d04565b620013d5565b348015620003ef57600080fd5b50620001826200040136600462001d04565b62001468565b3480156200041457600080fd5b50620001456200155f565b3480156200042c57600080fd5b506200014562001583565b6004546001600160a01b031690565b6040805180820190915260158152600080516020620034a6833981519152602082015282906001600160a01b038216620005015760405162461bcd60e51b81526004018080602001828103825283818151815260200191508051906020019080838360005b83811015620004c5578181015183820152602001620004ab565b50505050905090810190601f168015620004f35780820380516001836020036101000a031916815260200191505b509250505060405180910390fd5b506001546001600160a01b03163314620005385760405162461bcd60e51b81526004016200052f9062002617565b60405180910390fd5b60078054604080516020601f60026000196101006001881615020190951694909404938401819004810282018101909252828152620005d59390929091830182828015620005ca5780601f106200059e57610100808354040283529160200191620005ca565b820191906000526020600020905b815481529060010190602001808311620005ac57829003601f168201915b505050505062001592565b620005e08362001592565b11620006005760405162461bcd60e51b81526004016200052f90620025ca565b600680546001600160a01b0319166001600160a01b03851617905581516200063090600790602085019062001891565b507fc6ee1e1e08307ce2d854c77911cf72b51710027139dd730756959e981480edb7836007604051620006659291906200247b565b60405180910390a1505050565b6040805180820190915260158152600080516020620034a6833981519152602082015281906001600160a01b038216620006ef5760405162461bcd60e51b8152602060048201818152835160248401528351909283926044909101919085019080838360008315620004c5578181015183820152602001620004ab565b506001546001600160a01b031633146200071d5760405162461bcd60e51b81526004016200052f9062002617565b600380546001600160a01b0319166001600160a01b0384161790556040517fb3eacd0e351fafdfefdec84e1cd19679b38dbcd63ea7c2c24da17fd2bc3b3c0e906200076a908490620022e7565b60405180910390a15050565b60008062000787898989896200166c565b90507fede2a7fd12d6667169c5e5c571f43c9ef7ba9423166a58666482541a13d15a5e818a8a8a8a604051620007c295949392919062002332565b60405180910390a1620007d9898287878762001786565b98975050505050505050565b6000838383604051602001620007fe9392919062002437565b6040516020818303038152906040528051906020012090509392505050565b6040805180820190915260158152600080516020620034a6833981519152602082015281906001600160a01b0382166200089a5760405162461bcd60e51b8152602060048201818152835160248401528351909283926044909101919085019080838360008315620004c5578181015183820152602001620004ab565b506001546001600160a01b03163314620008c85760405162461bcd60e51b81526004016200052f9062002617565b600280546001600160a01b0319166001600160a01b0384161790556040517f934730203236e0bdf255807d75b091578e1065be48dfcdae28f41ca47e1f58e1906200076a908490620022e7565b6000816001600160a01b031663481c6a756040518163ffffffff1660e01b815260040160206040518083038186803b1580156200095157600080fd5b505afa15801562000966573d6000803e3d6000fd5b505050506040513d601f19601f820116820180604052508101906200098c919062001d2a565b90505b919050565b604051806040016040528060158152602001600080516020620034a683398151915281525081565b60078054604080516020601f600260001961010060018816150201909516949094049384018190048102820181019092528281526060939092909183018282801562000a4c5780601f1062000a205761010080835404028352916020019162000a4c565b820191906000526020600020905b81548152906001019060200180831162000a2e57829003601f168201915b5050505050905090565b6006546001600160a01b031690565b6001546001600160a01b0316331462000a925760405162461bcd60e51b81526004016200052f9062002617565b60055460405163d33a10f760e01b81526001600160a01b039091169063d33a10f79062000ac690859085906004016200263a565b600060405180830381600087803b15801562000ae157600080fd5b505af115801562000af6573d6000803e3d6000fd5b505050505050565b6001546001600160a01b0316331462000b2b5760405162461bcd60e51b81526004016200052f9062002617565b6001546040516000916001600160a01b03169060008051602062003486833981519152908390a3600180546001600160a01b0319169055565b6001546001600160a01b0316331462000b915760405162461bcd60e51b81526004016200052f9062002617565b600554604051637305250360e01b81526001600160a01b039091169063730525039062000bcd90899089908990899089908990600401620024a9565b600060405180830381600087803b15801562000be857600080fd5b505af115801562000bfd573d6000803e3d6000fd5b50505050505050505050565b6040805180820190915260158152600080516020620034a6833981519152602082015281906001600160a01b03821662000c865760405162461bcd60e51b8152602060048201818152835160248401528351909283926044909101919085019080838360008315620004c5578181015183820152602001620004ab565b506001546001600160a01b0316331462000cb45760405162461bcd60e51b81526004016200052f9062002617565b600480546001600160a01b0319166001600160a01b0384161790556040517fcfb199724e80ef87a82c051c6bcbe15ca80dbd143a1a7ca4f90be72f4fd6bf87906200076a908490620022e7565b6003546001600160a01b031690565b6001546001600160a01b031681565b6001546001600160a01b0316331462000d4c5760405162461bcd60e51b81526004016200052f9062002617565b62000d598383836200181c565b505050565b6002546001600160a01b031690565b603a54600090610100900460ff168062000d8c575062000d8c6200188b565b8062000d9b5750603a5460ff16155b62000dd85760405162461bcd60e51b815260040180806020018281038252602e81526020018062003458602e913960400191505060405180910390fd5b603a54610100900460ff1615801562000e0457603a805460ff1961ff0019909116610100171660011790555b6040805180820190915260158152600080516020620034a6833981519152602082015288906001600160a01b03821662000e815760405162461bcd60e51b8152602060048201818152835160248401528351909283926044909101919085019080838360008315620004c5578181015183820152602001620004ab565b506040805180820190915260158152600080516020620034a6833981519152602082015288906001600160a01b03821662000eff5760405162461bcd60e51b8152602060048201818152835160248401528351909283926044909101919085019080838360008315620004c5578181015183820152602001620004ab565b506040805180820190915260158152600080516020620034a6833981519152602082015288906001600160a01b03821662000f7d5760405162461bcd60e51b8152602060048201818152835160248401528351909283926044909101919085019080838360008315620004c5578181015183820152602001620004ab565b506040805180820190915260158152600080516020620034a6833981519152602082015288906001600160a01b03821662000ffb5760405162461bcd60e51b8152602060048201818152835160248401528351909283926044909101919085019080838360008315620004c5578181015183820152602001620004ab565b506040805180820190915260158152600080516020620034a6833981519152602082015288906001600160a01b038216620010795760405162461bcd60e51b8152602060048201818152835160248401528351909283926044909101919085019080838360008315620004c5578181015183820152602001620004ab565b506040805180820190915260158152600080516020620034a6833981519152602082015288906001600160a01b038216620010f75760405162461bcd60e51b8152602060048201818152835160248401528351909283926044909101919085019080838360008315620004c5578181015183820152602001620004ab565b50604051620011069062001926565b604051809103906000f08015801562001123573d6000803e3d6000fd5b506000806101000a8154816001600160a01b0302191690836001600160a01b031602179055508d600160006101000a8154816001600160a01b0302191690836001600160a01b031602179055508c600660006101000a8154816001600160a01b0302191690836001600160a01b031602179055508b600360006101000a8154816001600160a01b0302191690836001600160a01b031602179055508a600560006101000a8154816001600160a01b0302191690836001600160a01b0316021790555089600260006101000a8154816001600160a01b0302191690836001600160a01b0316021790555088600460006101000a8154816001600160a01b0302191690836001600160a01b03160217905550604051806040016040528060018152602001603160f81b815250600790805190602001906200126492919062001891565b506006546040517fc6ee1e1e08307ce2d854c77911cf72b51710027139dd730756959e981480edb791620012a7916001600160a01b03909116906007906200247b565b60405180910390a16003546040517fb3eacd0e351fafdfefdec84e1cd19679b38dbcd63ea7c2c24da17fd2bc3b3c0e91620012ee916001600160a01b0390911690620022e7565b60405180910390a16002546040517f934730203236e0bdf255807d75b091578e1065be48dfcdae28f41ca47e1f58e19162001335916001600160a01b0390911690620022e7565b60405180910390a16004546040517fcfb199724e80ef87a82c051c6bcbe15ca80dbd143a1a7ca4f90be72f4fd6bf87916200137c916001600160a01b0390911690620022e7565b60405180910390a16001546040516001600160a01b039091169060009060008051602062003486833981519152908290a3600197505050505050508015620013ca57603a805461ff00191690555b509695505050505050565b6000546001600160a01b03163314620014025760405162461bcd60e51b81526004016200052f90620025f3565b604051637240f9af60e01b81526001600160a01b03821690637240f9af906200143190600790600401620025b5565b600060405180830381600087803b1580156200144c57600080fd5b505af115801562001461573d6000803e3d6000fd5b5050505050565b6040805180820190915260158152600080516020620034a6833981519152602082015281906001600160a01b038216620014e55760405162461bcd60e51b8152602060048201818152835160248401528351909283926044909101919085019080838360008315620004c5578181015183820152602001620004ab565b506001546001600160a01b03163314620015135760405162461bcd60e51b81526004016200052f9062002617565b6001546040516001600160a01b038085169216906000805160206200348683398151915290600090a350600180546001600160a01b0319166001600160a01b0392909216919091179055565b7f000000000000000000000000000000000000000000000000000000000000000081565b6000546001600160a01b031681565b80516000908290600190600019015b825181101562001664576030838281518110620015ba57fe5b016020015160f81c10801590620015e657506039838281518110620015db57fe5b016020015160f81c11155b62001631576040805162461bcd60e51b815260206004820152601660248201527524b73b30b634b21039ba3934b7339034b73a32b3b2b960511b604482015290519081900360640190fd5b8160308483815181106200164157fe5b016020015160f81c0360ff16029390930192600a919091029060001901620015a1565b505050919050565b6000806200167c868686620007e5565b600654600080546040805192835260208301908190526001600160a01b03938416939091169190620016ae9062001934565b620016bc93929190620022fb565b8190604051809103906000f5905080158015620016dd573d6000803e3d6000fd5b509050620016ef60006002836200181c565b60405163f729023f60e01b81526001600160a01b0382169063f729023f906200172690889088906007908c908a9060040162002551565b602060405180830381600087803b1580156200174157600080fd5b505af115801562001756573d6000803e3d6000fd5b505050506040513d601f19601f820116820180604052508101906200177c919062002034565b5095945050505050565b604051630e481ff560e31b81527f0000000000000000000000000000000000000000000000000000000000000000906001600160a01b03821690637240ffa8903490620017e0908a908a908a908a908a906004016200238a565b6000604051808303818588803b158015620017fa57600080fd5b505af11580156200180f573d6000803e3d6000fd5b5050505050505050505050565b6005546040516360335e8d60e11b81526001600160a01b039091169063c066bd1a90620018529086908690869060040162002651565b600060405180830381600087803b1580156200186d57600080fd5b505af115801562001882573d6000803e3d6000fd5b50505050505050565b303b1590565b828054600181600116156101000203166002900490600052602060002090601f016020900481019282620018c9576000855562001914565b82601f10620018e457805160ff191683800117855562001914565b8280016001018555821562001914579182015b8281111562001914578251825591602001919060010190620018f7565b506200192292915062001942565b5090565b61049780620026e783390190565b6108da8062002b7e83390190565b5b8082111562001922576000815560010162001943565b80356200098f81620026be565b60008083601f84011262001978578182fd5b5081356001600160401b038111156200198f578182fd5b6020830191508360208083028501011115620019aa57600080fd5b9250929050565b600082601f830112620019c2578081fd5b81356020620019db620019d58362002694565b62002670565b8281528181019085830183850287018401881015620019f8578586fd5b855b8581101562001a2357813562001a1081620026be565b84529284019290840190600101620019fa565b5090979650505050505050565b600082601f83011262001a41578081fd5b602062001a53620019d5843562002694565b8335815281810190828501845b863581101562001b9f5781358701601f196060828b038201121562001a83578788fd5b604051606081016001600160401b03828210818311171562001aa157fe5b8160405289850135915062001ab682620026be565b9082526040840135898301526060840135908082111562001ad5578a8bfd5b938101936060858e038501121562001aeb578a8bfd5b6040519350606084019150838210818311171562001b0557fe5b816040528985013591508082111562001b1c578a8bfd5b62001b2c8d8b84880101620019b1565b8452604085013591508082111562001b42578a8bfd5b62001b528d8b84880101620019b1565b8a850152606085013591508082111562001b6a578a8bfd5b5062001b7b8c8a8387010162001bb8565b60408481019190915282019290925286525050928401929084019060010162001a60565b50909695505050505050565b80356200098f81620026d7565b600082601f83011262001bc9578081fd5b81356001600160401b0381111562001bdd57fe5b62001bf2601f8201601f191660200162002670565b81815284602083860101111562001c07578283fd5b816020850160208301379081016020019190915292915050565b600060e0828403121562001c33578081fd5b60405160e081018181106001600160401b038211171562001c5057fe5b60405290508062001c618362001cef565b815262001c716020840162001cdc565b602082015262001c846040840162001cdc565b604082015262001c976060840162001cdc565b606082015262001caa6080840162001cdc565b608082015262001cbd60a0840162001bab565b60a082015262001cd060c0840162001bab565b60c08201525092915050565b803561ffff811681146200098f57600080fd5b803563ffffffff811681146200098f57600080fd5b60006020828403121562001d16578081fd5b813562001d2381620026be565b9392505050565b60006020828403121562001d3c578081fd5b815162001d2381620026be565b60008060008060008060c0878903121562001d62578182fd5b863562001d6f81620026be565b9550602087013562001d8181620026be565b9450604087013562001d9381620026be565b9350606087013562001da581620026be565b9250608087013562001db781620026be565b915060a087013562001dc981620026be565b809150509295509295509295565b6000806040838503121562001dea578182fd5b823562001df781620026be565b915060208301356001600160401b0381111562001e12578182fd5b62001e208582860162001bb8565b9150509250929050565b60008060006060848603121562001e3f578081fd5b833562001e4c81620026be565b925060208401356001600160401b038082111562001e68578283fd5b62001e768783880162001bb8565b9350604086013591508082111562001e8c578283fd5b5062001e9b8682870162001bb8565b9150509250925092565b60008060008060008060006101a0888a03121562001ec1578485fd5b62001ecc8862001959565b965060208801356001600160401b038082111562001ee8578687fd5b62001ef68b838c0162001bb8565b975060408a013591508082111562001f0c578687fd5b62001f1a8b838c0162001bb8565b965060608a013591508082111562001f30578283fd5b62001f3e8b838c0162001a30565b955062001f4f8b60808c0162001c21565b945062001f606101608b0162001959565b93506101808a013591508082111562001f77578283fd5b5062001f868a828b0162001bb8565b91505092959891949750929550565b6000806000806000806060878903121562001fae578384fd5b86356001600160401b038082111562001fc5578586fd5b62001fd38a838b0162001966565b9098509650602089013591508082111562001fec578586fd5b62001ffa8a838b0162001966565b9096509450604089013591508082111562002013578384fd5b506200202289828a0162001966565b979a9699509497509295939492505050565b60006020828403121562002046578081fd5b815162001d2381620026d7565b6000806040838503121562002066578182fd5b8235915060208301356200207a81620026be565b809150509250929050565b6000806000606084860312156200209a578081fd5b83359250602084013591506040840135620020b581620026be565b809150509250925092565b6001600160a01b03169052565b6000815180845260208085019450808401835b83811015620021075781516001600160a01b031687529582019590820190600101620020e0565b509495945050505050565b60008282518085526020808601955080818302840101818601855b8481101562001a2357858303601f19018952815180516001600160a01b03168452848101518585015260409081015160608286018190528151818701829052919290916200217f60c0880182620020cd565b92505086830151605f19808885030160808901526200219f8483620020cd565b929094015187830390940160a0880152509050620021be81836200220e565b9a86019a94505050908301906001016200212d565b81835260006001600160fb1b03831115620021ec578081fd5b6020830280836020870137939093016020019283525090919050565b15159052565b60008151808452815b81811015620022355760208185018101518683018201520162002217565b81811115620022475782602083870101525b50601f01601f19169290920160200192915050565b600081546001808216600081146200227d57600181146200229c57620022de565b60028304607f16865260ff1983166020870152604086019350620022de565b60028304808752620022ae86620026b2565b60005b82811015620022d45781546020828b0101528482019150602081019050620022b1565b8801602001955050505b50505092915050565b6001600160a01b0391909116815260200190565b6001600160a01b0384811682528316602082015260606040820181905260009062002329908301846200220e565b95945050505050565b6001600160a01b0386811682528516602082015260a06040820181905260009062002360908301866200220e565b82810360608401526200237481866200220e565b90508281036080840152620007d9818562002112565b600061016060018060a01b03808916845280881660208501525063ffffffff8651166040840152602086015161ffff80821660608601528060408901511660808601528060608901511660a08601528060808901511660c0860152505060a0860151620023fb60e085018262002208565b5060c08601516200241161010085018262002208565b5062002422610120840186620020c0565b80610140840152620007d9818401856200220e565b6001600160a01b03841681526060602082018190526000906200245d908301856200220e565b82810360408401526200247181856200220e565b9695505050505050565b6001600160a01b0383168152604060208201819052600090620024a1908301846200225c565b949350505050565b600060608252620024bf60608301888a620021d3565b602083820381850152620024d582888a620021d3565b84810360408601528581528692508101835b8681101562002519578335620024fd81620026be565b6001600160a01b031682529282019290820190600101620024e7565b509a9950505050505050505050565b901515815260200190565b90815260200190565b60006020825262001d2360208301846200220e565b600060a082526200256660a08301886200220e565b82810360208401526200257a81886200220e565b905082810360408401526200259081876200225c565b6001600160a01b038616606085015283810360808501529050620007d9818562002112565b60006020825262001d2360208301846200225c565b6020808252600f908201526e24b73b30b634b2103b32b939b4b7b760891b604082015260600190565b6020808252600a908201526927b7363c9030b236b4b760b11b604082015260600190565b6020808252600990820152682737ba1037bbb732b960b91b604082015260600190565b9182526001600160a01b0316602082015260400190565b92835260208301919091526001600160a01b0316604082015260600190565b6040518181016001600160401b03811182821017156200268c57fe5b604052919050565b60006001600160401b03821115620026a857fe5b5060209081020190565b60009081526020902090565b6001600160a01b0381168114620026d457600080fd5b50565b8015158114620026d457600080fdfe60a060405234801561001057600080fd5b5033606081901b60805261045d61003a6000398060aa52806101775280610269525061045d6000f3fe608060405234801561001057600080fd5b50600436106100415760003560e01c80630900f01014610046578063204e1c7a1461005b578063f3b7dead14610084575b600080fd5b61005961005436600461039a565b610097565b005b61006e61006936600461039a565b6102d6565b60405161007b91906103d6565b60405180910390f35b61006e61009236600461039a565b61035c565b604051633d58406360e01b8152819033907f00000000000000000000000000000000000000000000000000000000000000006001600160a01b031690633d584063906100e79085906004016103d6565b60206040518083038186803b1580156100ff57600080fd5b505afa158015610113573d6000803e3d6000fd5b505050506040513d601f19601f820116820180604052508101906101379190610377565b6001600160a01b0316146101665760405162461bcd60e51b815260040161015d906103ea565b60405180910390fd5b816001600160a01b0316633659cfe67f00000000000000000000000000000000000000000000000000000000000000006001600160a01b0316635c60da1b6040518163ffffffff1660e01b815260040160206040518083038186803b1580156101ce57600080fd5b505afa1580156101e2573d6000803e3d6000fd5b505050506040513d601f19601f820116820180604052508101906102069190610377565b6040518263ffffffff1660e01b815260040161022291906103d6565b600060405180830381600087803b15801561023c57600080fd5b505af1158015610250573d6000803e3d6000fd5b505060405163f03633f560e01b81526001600160a01b037f000000000000000000000000000000000000000000000000000000000000000016925063f03633f591506102a09085906004016103d6565b600060405180830381600087803b1580156102ba57600080fd5b505af11580156102ce573d6000803e3d6000fd5b505050505050565b6000806000836001600160a01b03166040516102f1906103b6565b600060405180830381855afa9150503d806000811461032c576040519150601f19603f3d011682016040523d82523d6000602084013e610331565b606091505b50915091508161034057600080fd5b808060200190518101906103549190610377565b949350505050565b6000806000836001600160a01b03166040516102f1906103c6565b600060208284031215610388578081fd5b81516103938161040f565b9392505050565b6000602082840312156103ab578081fd5b81356103938161040f565b635c60da1b60e01b815260040190565b6303e1469160e61b815260040190565b6001600160a01b0391909116815260200190565b6020808252600b908201526a2737ba1036b0b730b3b2b960a91b604082015260600190565b6001600160a01b038116811461042457600080fd5b5056fea2646970667358221220a734f98818b504f3f19760865491ccd34aba41841a2c9cd1860c221648bd28ab64736f6c6343000706003360806040526040516108da3803806108da8339818101604052606081101561002657600080fd5b8151602083015160408085018051915193959294830192918464010000000082111561005157600080fd5b90830190602082018581111561006657600080fd5b825164010000000081118282018810171561008057600080fd5b82525081516020918201929091019080838360005b838110156100ad578181015183820152602001610095565b50505050905090810190601f1680156100da5780820380516001836020036101000a031916815260200191505b50604052508491508290506100ee826101bf565b8051156101a6576000826001600160a01b0316826040518082805190602001908083835b602083106101315780518252601f199092019160209182019101610112565b6001836020036101000a038019825116818451168082178552505050505050905001915050600060405180830381855af49150503d8060008114610191576040519150601f19603f3d011682016040523d82523d6000602084013e610196565b606091505b50509050806101a457600080fd5b505b506101ae9050565b6101b782610231565b50505061025b565b6101d28161025560201b6103b21760201c565b61020d5760405162461bcd60e51b81526004018080602001828103825260368152602001806108a46036913960400191505060405180910390fd5b7f360894a13ba1a3210667c828492db98dca3e2076cc3735a920a3ca505d382bbc55565b7fb53127684a568b3173ae13b9f8a6016e243e63b6e8ee1178d6a717850b5d610355565b3b151590565b61063a8061026a6000396000f3fe60806040526004361061004e5760003560e01c80633659cfe6146100655780634f1ef286146100985780635c60da1b146101165780638f28397014610147578063f851a4401461017a5761005d565b3661005d5761005b61018f565b005b61005b61018f565b34801561007157600080fd5b5061005b6004803603602081101561008857600080fd5b50356001600160a01b03166101a9565b61005b600480360360408110156100ae57600080fd5b6001600160a01b038235169190810190604081016020820135600160201b8111156100d857600080fd5b8201836020820111156100ea57600080fd5b803590602001918460018302840111600160201b8311171561010b57600080fd5b5090925090506101e3565b34801561012257600080fd5b5061012b610290565b604080516001600160a01b039092168252519081900360200190f35b34801561015357600080fd5b5061005b6004803603602081101561016a57600080fd5b50356001600160a01b03166102cd565b34801561018657600080fd5b5061012b610387565b6101976103b8565b6101a76101a2610418565b61043d565b565b6101b1610461565b6001600160a01b0316336001600160a01b031614156101d8576101d381610486565b6101e0565b6101e061018f565b50565b6101eb610461565b6001600160a01b0316336001600160a01b031614156102835761020d83610486565b6000836001600160a01b031683836040518083838082843760405192019450600093509091505080830381855af49150503d806000811461026a576040519150601f19603f3d011682016040523d82523d6000602084013e61026f565b606091505b505090508061027d57600080fd5b5061028b565b61028b61018f565b505050565b600061029a610461565b6001600160a01b0316336001600160a01b031614156102c2576102bb610418565b90506102ca565b6102ca61018f565b90565b6102d5610461565b6001600160a01b0316336001600160a01b031614156101d8576001600160a01b0381166103335760405162461bcd60e51b815260040180806020018281038252603a815260200180610553603a913960400191505060405180910390fd5b7f7e644d79422f17c01e4894b5f4f588d331ebfa28653d42ae832dc59e38c9798f61035c610461565b604080516001600160a01b03928316815291841660208301528051918290030190a16101d3816104c6565b6000610391610461565b6001600160a01b0316336001600160a01b031614156102c2576102bb610461565b3b151590565b6103c0610461565b6001600160a01b0316336001600160a01b031614156104105760405162461bcd60e51b81526004018080602001828103825260428152602001806105c36042913960600191505060405180910390fd5b6101a76101a7565b7f360894a13ba1a3210667c828492db98dca3e2076cc3735a920a3ca505d382bbc5490565b3660008037600080366000845af43d6000803e80801561045c573d6000f35b3d6000fd5b7fb53127684a568b3173ae13b9f8a6016e243e63b6e8ee1178d6a717850b5d61035490565b61048f816104ea565b6040516001600160a01b038216907fbc7cd75a20ee27fd9adebab32041f755214dbc6bffa90cc0225b39da2e5c2d3b90600090a250565b7fb53127684a568b3173ae13b9f8a6016e243e63b6e8ee1178d6a717850b5d610355565b6104f3816103b2565b61052e5760405162461bcd60e51b815260040180806020018281038252603681526020018061058d6036913960400191505060405180910390fd5b7f360894a13ba1a3210667c828492db98dca3e2076cc3735a920a3ca505d382bbc5556fe5472616e73706172656e745570677261646561626c6550726f78793a206e65772061646d696e20697320746865207a65726f20616464726573735570677261646561626c6550726f78793a206e657720696d706c656d656e746174696f6e206973206e6f74206120636f6e74726163745472616e73706172656e745570677261646561626c6550726f78793a2061646d696e2063616e6e6f742066616c6c6261636b20746f2070726f787920746172676574a2646970667358221220bc9e83ced1154891d7111a7898501d4459698ef4bf8e5598d4a92b36c267d9a164736f6c634300070600335570677261646561626c6550726f78793a206e657720696d706c656d656e746174696f6e206973206e6f74206120636f6e7472616374496e697469616c697a61626c653a20636f6e747261637420697320616c726561647920696e697469616c697a65648be0079c531659141344cd1fd0a4f28419497f9722a3daafe3b4186f6b6457e05a65726f20616464726573732070726f76696465640000000000000000000000a264697066735822122051f0ba6d07444c94b5322df6a79dd2e5eafe0773f5cdeef595c4986fbfb8495664736f6c63430007060033496e697469616c697a61626c653a20636f6e747261637420697320616c726561647920696e697469616c697a6564",
  "linkReferences": {},
  "deployedLinkReferences": {}
}