{
  "_format": "hh-sol-artifact-1",
  "contractName": "UniswapV3Adapter",
  "sourceName": "contracts/adapters/exchanges/UniswapV3Adapter.sol",
  "abi": [
    {
      "inputs": [
        {
          "internalType": "address",
          "name": "registry_",
          "type": "address"
        },
        {
          "internalType": "address",
          "name": "factory_",
          "type": "address"
        },
        {
          "internalType": "address",
          "name": "router_",
          "type": "address"
        },
        {
          "internalType": "address",
          "name": "weth_",
          "type": "address"
        }
      ],
      "stateMutability": "nonpayable",
      "type": "constructor"
    },
    {
      "inputs": [],
      "name": "factory",
      "outputs": [
        {
          "internalType": "contract IUniswapV3Factory",
          "name": "",
          "type": "address"
        }
      ],
      "stateMutability": "view",
      "type": "function"
    },
    {
      "inputs": [],
      "name": "registry",
      "outputs": [
        {
          "internalType": "contract IUniswapV3Registry",
          "name": "",
          "type": "address"
        }
      ],
      "stateMutability": "view",
      "type": "function"
    },
    {
      "inputs": [],
      "name": "router",
      "outputs": [
        {
          "internalType": "contract ISwapRouter",
          "name": "",
          "type": "address"
        }
      ],
      "stateMutability": "view",
      "type": "function"
    },
    {
      "inputs": [
        {
          "internalType": "uint256",
          "name": "amount",
          "type": "uint256"
        },
        {
          "internalType": "address",
          "name": "tokenIn",
          "type": "address"
        },
        {
          "internalType": "address",
          "name": "tokenOut",
          "type": "address"
        }
      ],
      "name": "spotPrice",
      "outputs": [
        {
          "internalType": "uint256",
          "name": "",
          "type": "uint256"
        }
      ],
      "stateMutability": "view",
      "type": "function"
    },
    {
      "inputs": [
        {
          "internalType": "uint256",
          "name": "amount",
          "type": "uint256"
        },
        {
          "internalType": "uint256",
          "name": "expected",
          "type": "uint256"
        },
        {
          "internalType": "address",
          "name": "tokenIn",
          "type": "address"
        },
        {
          "internalType": "address",
          "name": "tokenOut",
          "type": "address"
        },
        {
          "internalType": "address",
          "name": "from",
          "type": "address"
        },
        {
          "internalType": "address",
          "name": "to",
          "type": "address"
        }
      ],
      "name": "swap",
      "outputs": [],
      "stateMutability": "nonpayable",
      "type": "function"
    },
    {
      "inputs": [],
      "name": "weth",
      "outputs": [
        {
          "internalType": "address",
          "name": "",
          "type": "address"
        }
      ],
      "stateMutability": "view",
      "type": "function"
    }
  ],
  "bytecode": "0x61010060405234801561001157600080fd5b506040516110133803806110138339810160408190526100309161007b565b6001600160601b0319606091821b811660805293811b841660c05291821b831660a052901b1660e0526100d2565b80516001600160a01b038116811461007557600080fd5b92915050565b60008060008060808587031215610090578384fd5b61009a868661005e565b93506100a9866020870161005e565b92506100b8866040870161005e565b91506100c7866060870161005e565b905092959194509250565b60805160601c60a05160601c60c05160601c60e05160601c610ee761012c600039806101415280610168528061060b5250806101c1528061038952806105c352508061035852806105e752508061030f5250610ee76000f3fe608060405234801561001057600080fd5b50600436106100625760003560e01c8063230f11c7146100675780633fc8cef31461007c57806377ec159d1461009a5780637b103999146100ba578063c45a0155146100c2578063f887ea40146100ca575b600080fd5b61007a610075366004610b1f565b6100d2565b005b61008461030d565b6040516100919190610baa565b60405180910390f35b6100ad6100a8366004610ade565b610331565b6040516100919190610e64565b6100846105c1565b6100846105e5565b610084610609565b826001600160a01b0316846001600160a01b0316141561010d5760405162461bcd60e51b815260040161010490610cf7565b60405180910390fd5b6001600160a01b0382163014610132576101326001600160a01b03851683308961062d565b6101666001600160a01b0385167f00000000000000000000000000000000000000000000000000000000000000008861068b565b7f00000000000000000000000000000000000000000000000000000000000000006001600160a01b031663414bf389604051806101000160405280876001600160a01b03168152602001866001600160a01b031681526020017f00000000000000000000000000000000000000000000000000000000000000006001600160a01b031663fee9989889896040518363ffffffff1660e01b815260040161020d929190610bbe565b60206040518083038186803b15801561022557600080fd5b505afa158015610239573d6000803e3d6000fd5b505050506040513d601f19601f8201168201806040525081019061025d9190610aa3565b62ffffff168152602001846001600160a01b0316815260200142815260200189815260200188815260200160006001600160a01b03168152506040518263ffffffff1660e01b81526004016102b29190610dfb565b602060405180830381600087803b1580156102cc57600080fd5b505af11580156102e0573d6000803e3d6000fd5b505050506040513d601f19601f820116820180604052508101906103049190610ac6565b50505050505050565b7f000000000000000000000000000000000000000000000000000000000000000081565b6000816001600160a01b0316836001600160a01b031614156103545750826105ba565b60007f00000000000000000000000000000000000000000000000000000000000000006001600160a01b0316631698ee8285857f00000000000000000000000000000000000000000000000000000000000000006001600160a01b031663fee9989889896040518363ffffffff1660e01b81526004016103d5929190610bbe565b60206040518083038186803b1580156103ed57600080fd5b505afa158015610401573d6000803e3d6000fd5b505050506040513d601f19601f820116820180604052508101906104259190610aa3565b6040518463ffffffff1660e01b815260040161044393929190610bd8565b60206040518083038186803b15801561045b57600080fd5b505afa15801561046f573d6000803e3d6000fd5b505050506040513d601f19601f8201168201806040525081019061049391906109c4565b90506001600160a01b038116156105b4576000816001600160a01b0316633850c7bd6040518163ffffffff1660e01b815260040160e06040518083038186803b1580156104df57600080fd5b505afa1580156104f3573d6000803e3d6000fd5b505050506040513d601f19601f820116820180604052508101906105179190610a00565b5050505050509050600060c061055a670de0b6b3a7640000610554856001600160a01b0316866001600160a01b031661075390919063ffffffff16565b90610753565b901c9050846001600160a01b0316866001600160a01b0316111561059e576105948161058e89670de0b6b3a7640000610753565b90610796565b93505050506105ba565b610594670de0b6b3a764000061058e8984610753565b60009150505b9392505050565b7f000000000000000000000000000000000000000000000000000000000000000081565b7f000000000000000000000000000000000000000000000000000000000000000081565b7f000000000000000000000000000000000000000000000000000000000000000081565b610685846323b872dd60e01b85858560405160240161064e93929190610c00565b60408051601f198184030181529190526020810180516001600160e01b03166001600160e01b0319909316929092179091526107d5565b50505050565b8015806107135750604051636eb1769f60e11b81526001600160a01b0384169063dd62ed3e906106c19030908690600401610bbe565b60206040518083038186803b1580156106d957600080fd5b505afa1580156106ed573d6000803e3d6000fd5b505050506040513d601f19601f820116820180604052508101906107119190610ac6565b155b61072f5760405162461bcd60e51b815260040161010490610da5565b61074e8363095ea7b360e01b848460405160240161064e929190610c24565b505050565b60008261076257506000610790565b8282028284828161076f57fe5b041461078d5760405162461bcd60e51b815260040161010490610cb6565b90505b92915050565b600061078d83836040518060400160405280601a815260200179536166654d6174683a206469766973696f6e206279207a65726f60301b815250610864565b606061082a826040518060400160405280602081526020017f5361666545524332303a206c6f772d6c6576656c2063616c6c206661696c6564815250856001600160a01b031661089b9092919063ffffffff16565b80519091501561074e578080602001905181019061084891906109e0565b61074e5760405162461bcd60e51b815260040161010490610d5b565b600081836108855760405162461bcd60e51b81526004016101049190610c3d565b50600083858161089157fe5b0495945050505050565b60606108aa84846000856108b2565b949350505050565b6060824710156108d45760405162461bcd60e51b815260040161010490610c70565b6108dd85610973565b6108f95760405162461bcd60e51b815260040161010490610d24565b60006060866001600160a01b031685876040516109169190610b8e565b60006040518083038185875af1925050503d8060008114610953576040519150601f19603f3d011682016040523d82523d6000602084013e610958565b606091505b5091509150610968828286610979565b979650505050505050565b3b151590565b606083156109885750816105ba565b8251156109985782518084602001fd5b8160405162461bcd60e51b81526004016101049190610c3d565b805161ffff8116811461079057600080fd5b6000602082840312156109d5578081fd5b815161078d81610e99565b6000602082840312156109f1578081fd5b8151801515811461078d578182fd5b600080600080600080600060e0888a031215610a1a578283fd5b8751610a2581610e99565b8097505060208801518060020b8114610a3c578384fd5b9550610a4b8960408a016109b2565b9450610a5a8960608a016109b2565b9350610a698960808a016109b2565b925060a088015160ff81168114610a7e578283fd5b60c08901519092508015158114610a93578182fd5b8091505092959891949750929550565b600060208284031215610ab4578081fd5b815162ffffff8116811461078d578182fd5b600060208284031215610ad7578081fd5b5051919050565b600080600060608486031215610af2578283fd5b833592506020840135610b0481610e99565b91506040840135610b1481610e99565b809150509250925092565b60008060008060008060c08789031215610b37578182fd5b86359550602087013594506040870135610b5081610e99565b93506060870135610b6081610e99565b92506080870135610b7081610e99565b915060a0870135610b8081610e99565b809150509295509295509295565b60008251610ba0818460208701610e6d565b9190910192915050565b6001600160a01b0391909116815260200190565b6001600160a01b0392831681529116602082015260400190565b6001600160a01b03938416815291909216602082015262ffffff909116604082015260600190565b6001600160a01b039384168152919092166020820152604081019190915260600190565b6001600160a01b03929092168252602082015260400190565b6000602082528251806020840152610c5c816040850160208701610e6d565b601f01601f19169190910160400192915050565b60208082526026908201527f416464726573733a20696e73756666696369656e742062616c616e636520666f6040820152651c8818d85b1b60d21b606082015260800190565b60208082526021908201527f536166654d6174683a206d756c7469706c69636174696f6e206f766572666c6f6040820152607760f81b606082015260800190565b6020808252601390820152720a8ded6cadce640c6c2dcdcdee840dac2e8c6d606b1b604082015260600190565b6020808252601d908201527f416464726573733a2063616c6c20746f206e6f6e2d636f6e7472616374000000604082015260600190565b6020808252602a908201527f5361666545524332303a204552433230206f7065726174696f6e20646964206e6040820152691bdd081cdd58d8d9595960b21b606082015260800190565b60208082526036908201527f5361666545524332303a20617070726f76652066726f6d206e6f6e2d7a65726f60408201527520746f206e6f6e2d7a65726f20616c6c6f77616e636560501b606082015260800190565b81516001600160a01b03908116825260208084015182169083015260408084015162ffffff16908301526060808401518216908301526080808401519083015260a0838101519083015260c0808401519083015260e09283015116918101919091526101000190565b90815260200190565b60005b83811015610e88578181015183820152602001610e70565b838111156106855750506000910152565b6001600160a01b0381168114610eae57600080fd5b5056fea26469706673582212201f7f27d25e0c7457a36cb6921460e0a6d13fef5e665c431e6395562d3127b5d164736f6c634300060c0033",
  "linkReferences": {},
  "deployedLinkReferences": {}
}