{
  "_format": "hh-sol-artifact-1",
  "contractName": "UniswapV3Adapter",
  "sourceName": "contracts/adapters/exchanges/UniswapV3Adapter.sol",
  "abi": [
    {
      "inputs": [
        {
          "internalType": "address",
          "name": "registry_",
          "type": "address"
        },
        {
          "internalType": "address",
          "name": "router_",
          "type": "address"
        },
        {
          "internalType": "address",
          "name": "weth_",
          "type": "address"
        }
      ],
      "stateMutability": "nonpayable",
      "type": "constructor"
    },
    {
      "inputs": [],
      "name": "registry",
      "outputs": [
        {
          "internalType": "contract IUniswapV3Registry",
          "name": "",
          "type": "address"
        }
      ],
      "stateMutability": "view",
      "type": "function"
    },
    {
      "inputs": [],
      "name": "router",
      "outputs": [
        {
          "internalType": "contract ISwapRouter",
          "name": "",
          "type": "address"
        }
      ],
      "stateMutability": "view",
      "type": "function"
    },
    {
      "inputs": [
        {
          "internalType": "uint256",
          "name": "amount",
          "type": "uint256"
        },
        {
          "internalType": "uint256",
          "name": "expected",
          "type": "uint256"
        },
        {
          "internalType": "address",
          "name": "tokenIn",
          "type": "address"
        },
        {
          "internalType": "address",
          "name": "tokenOut",
          "type": "address"
        },
        {
          "internalType": "address",
          "name": "from",
          "type": "address"
        },
        {
          "internalType": "address",
          "name": "to",
          "type": "address"
        }
      ],
      "name": "swap",
      "outputs": [],
      "stateMutability": "nonpayable",
      "type": "function"
    },
    {
      "inputs": [],
      "name": "weth",
      "outputs": [
        {
          "internalType": "address",
          "name": "",
          "type": "address"
        }
      ],
      "stateMutability": "view",
      "type": "function"
    }
  ],
  "bytecode": "0x60e060405234801561001057600080fd5b50604051610ab3380380610ab383398101604081905261002f91610070565b6001600160601b0319606091821b811660805292811b831660a0521b1660c0526100b2565b80516001600160a01b038116811461006b57600080fd5b919050565b600080600060608486031215610084578283fd5b61008d84610054565b925061009b60208501610054565b91506100a960408501610054565b90509250925092565b60805160601c60a05160601c60c05160601c6109bd6100f660003980610103528061012a528061031952508061018352806102f55250806102d152506109bd6000f3fe608060405234801561001057600080fd5b506004361061004c5760003560e01c8063230f11c7146100515780633fc8cef3146100665780637b10399914610084578063f887ea401461008c575b600080fd5b61006461005f3660046107d8565b610094565b005b61006e6102cf565b60405161007b919061083d565b60405180910390f35b61006e6102f3565b61006e610317565b826001600160a01b0316846001600160a01b031614156100cf5760405162461bcd60e51b81526004016100c69061086b565b60405180910390fd5b6001600160a01b03821630146100f4576100f46001600160a01b03851683308961033b565b6101286001600160a01b0385167f00000000000000000000000000000000000000000000000000000000000000008861039b565b7f00000000000000000000000000000000000000000000000000000000000000006001600160a01b031663414bf389604051806101000160405280876001600160a01b03168152602001866001600160a01b031681526020017f00000000000000000000000000000000000000000000000000000000000000006001600160a01b031663fee9989889896040518363ffffffff1660e01b81526004016101cf929190610851565b60206040518083038186803b1580156101e757600080fd5b505afa1580156101fb573d6000803e3d6000fd5b505050506040513d601f19601f8201168201806040525081019061021f919061079d565b62ffffff168152602001846001600160a01b0316815260200142815260200189815260200188815260200160006001600160a01b03168152506040518263ffffffff1660e01b81526004016102749190610898565b602060405180830381600087803b15801561028e57600080fd5b505af11580156102a2573d6000803e3d6000fd5b505050506040513d601f19601f820116820180604052508101906102c691906107c0565b50505050505050565b7f000000000000000000000000000000000000000000000000000000000000000081565b7f000000000000000000000000000000000000000000000000000000000000000081565b7f000000000000000000000000000000000000000000000000000000000000000081565b604080516001600160a01b0380861660248301528416604482015260648082018490528251808303909101815260849091019091526020810180516001600160e01b03166323b872dd60e01b1790526103959085906104b3565b50505050565b801580610421575060408051636eb1769f60e11b81523060048201526001600160a01b03848116602483015291519185169163dd62ed3e91604480820192602092909190829003018186803b1580156103f357600080fd5b505afa158015610407573d6000803e3d6000fd5b505050506040513d602081101561041d57600080fd5b5051155b61045c5760405162461bcd60e51b81526004018080602001828103825260368152602001806109526036913960400191505060405180910390fd5b604080516001600160a01b038416602482015260448082018490528251808303909101815260649091019091526020810180516001600160e01b031663095ea7b360e01b1790526104ae9084906104b3565b505050565b6000610508826040518060400160405280602081526020017f5361666545524332303a206c6f772d6c6576656c2063616c6c206661696c6564815250856001600160a01b03166105649092919063ffffffff16565b8051909150156104ae5780806020019051602081101561052757600080fd5b50516104ae5760405162461bcd60e51b815260040180806020018281038252602a815260200180610928602a913960400191505060405180910390fd5b6060610573848460008561057d565b90505b9392505050565b6060824710156105be5760405162461bcd60e51b81526004018080602001828103825260268152602001806109026026913960400191505060405180910390fd5b6105c7856106d8565b610618576040805162461bcd60e51b815260206004820152601d60248201527f416464726573733a2063616c6c20746f206e6f6e2d636f6e7472616374000000604482015290519081900360640190fd5b600080866001600160a01b031685876040518082805190602001908083835b602083106106565780518252601f199092019160209182019101610637565b6001836020036101000a03801982511681845116808217855250505050505090500191505060006040518083038185875af1925050503d80600081146106b8576040519150601f19603f3d011682016040523d82523d6000602084013e6106bd565b606091505b50915091506106cd8282866106e2565b979650505050505050565b803b15155b919050565b606083156106f1575081610576565b8251156107015782518084602001fd5b8160405162461bcd60e51b81526004018080602001828103825283818151815260200191508051906020019080838360005b8381101561074b578181015183820152602001610733565b50505050905090810190601f1680156107785780820380516001836020036101000a031916815260200191505b509250505060405180910390fd5b80356001600160a01b03811681146106dd57600080fd5b6000602082840312156107ae578081fd5b815162ffffff81168114610576578182fd5b6000602082840312156107d1578081fd5b5051919050565b60008060008060008060c087890312156107f0578182fd5b863595506020870135945061080760408801610786565b935061081560608801610786565b925061082360808801610786565b915061083160a08801610786565b90509295509295509295565b6001600160a01b0391909116815260200190565b6001600160a01b0392831681529116602082015260400190565b6020808252601390820152720a8ded6cadce640c6c2dcdcdee840dac2e8c6d606b1b604082015260600190565b81516001600160a01b03908116825260208084015182169083015260408084015162ffffff16908301526060808401518216908301526080808401519083015260a0838101519083015260c0808401519083015260e0928301511691810191909152610100019056fe416464726573733a20696e73756666696369656e742062616c616e636520666f722063616c6c5361666545524332303a204552433230206f7065726174696f6e20646964206e6f7420737563636565645361666545524332303a20617070726f76652066726f6d206e6f6e2d7a65726f20746f206e6f6e2d7a65726f20616c6c6f77616e6365a26469706673582212205603ada7b5b9918817038f51e8e2c50ddc90852fcf4c82e29526fd8de928fdaa64736f6c63430007060033",
  "linkReferences": {},
  "deployedLinkReferences": {}
}