{
  "_format": "hh-sol-artifact-1",
  "contractName": "UniswapV3Adapter",
  "sourceName": "contracts/adapters/exchanges/UniswapV3Adapter.sol",
  "abi": [
    {
      "inputs": [
        {
          "internalType": "address",
          "name": "registry_",
          "type": "address"
        },
        {
          "internalType": "address",
          "name": "router_",
          "type": "address"
        },
        {
          "internalType": "address",
          "name": "weth_",
          "type": "address"
        }
      ],
      "stateMutability": "nonpayable",
      "type": "constructor"
    },
    {
      "inputs": [],
      "name": "registry",
      "outputs": [
        {
          "internalType": "contract IUniswapV3Registry",
          "name": "",
          "type": "address"
        }
      ],
      "stateMutability": "view",
      "type": "function"
    },
    {
      "inputs": [],
      "name": "router",
      "outputs": [
        {
          "internalType": "contract ISwapRouter",
          "name": "",
          "type": "address"
        }
      ],
      "stateMutability": "view",
      "type": "function"
    },
    {
      "inputs": [
        {
          "internalType": "uint256",
          "name": "amount",
          "type": "uint256"
        },
        {
          "internalType": "uint256",
          "name": "expected",
          "type": "uint256"
        },
        {
          "internalType": "address",
          "name": "tokenIn",
          "type": "address"
        },
        {
          "internalType": "address",
          "name": "tokenOut",
          "type": "address"
        },
        {
          "internalType": "address",
          "name": "from",
          "type": "address"
        },
        {
          "internalType": "address",
          "name": "to",
          "type": "address"
        }
      ],
      "name": "swap",
      "outputs": [],
      "stateMutability": "nonpayable",
      "type": "function"
    },
    {
      "inputs": [],
      "name": "weth",
      "outputs": [
        {
          "internalType": "address",
          "name": "",
          "type": "address"
        }
      ],
      "stateMutability": "view",
      "type": "function"
    }
  ],
  "bytecode": "0x60e060405234801561001057600080fd5b50604051610bda380380610bda83398101604081905261002f91610070565b6001600160601b0319606091821b811660805292811b831660a0521b1660c0526100b2565b80516001600160a01b038116811461006b57600080fd5b919050565b600080600060608486031215610084578283fd5b61008d84610054565b925061009b60208501610054565b91506100a960408501610054565b90509250925092565b60805160601c60a05160601c60c05160601c610adf6100fb600039806101cb528061024b52806102f952806103e152508061010e52806103bd5250806103995250610adf6000f3fe608060405234801561001057600080fd5b506004361061004c5760003560e01c8063230f11c7146100515780633fc8cef3146100665780637b10399914610084578063f887ea401461008c575b600080fd5b61006461005f3660046108a0565b610094565b005b61006e610397565b60405161007b9190610905565b60405180910390f35b61006e6103bb565b61006e6103df565b826001600160a01b0316846001600160a01b031614156100cf5760405162461bcd60e51b81526004016100c690610964565b60405180910390fd5b6001600160a01b03821630146100f4576100f46001600160a01b038516833089610403565b604051631fdd331360e31b81526000906001600160a01b037f0000000000000000000000000000000000000000000000000000000000000000169063fee99898906101459088908890600401610919565b60206040518083038186803b15801561015d57600080fd5b505afa158015610171573d6000803e3d6000fd5b505050506040513d601f19601f820116820180604052508101906101959190610865565b905060008162ffffff16116101bc5760405162461bcd60e51b81526004016100c690610933565b6101f06001600160a01b0386167f000000000000000000000000000000000000000000000000000000000000000089610463565b60408051610100810182526001600160a01b038781168252868116602083015262ffffff841682840152848116606083015242608083015260a082018a905260c08201899052600060e0830152915163414bf38960e01b81527f00000000000000000000000000000000000000000000000000000000000000009092169163414bf38991610280916004016109ba565b602060405180830381600087803b15801561029a57600080fd5b505af11580156102ae573d6000803e3d6000fd5b505050506040513d601f19601f820116820180604052508101906102d29190610888565b50604051636eb1769f60e11b81526001600160a01b0386169063dd62ed3e906103219030907f000000000000000000000000000000000000000000000000000000000000000090600401610919565b60206040518083038186803b15801561033957600080fd5b505afa15801561034d573d6000803e3d6000fd5b505050506040513d601f19601f820116820180604052508101906103719190610888565b1561038e5760405162461bcd60e51b81526004016100c690610991565b50505050505050565b7f000000000000000000000000000000000000000000000000000000000000000081565b7f000000000000000000000000000000000000000000000000000000000000000081565b7f000000000000000000000000000000000000000000000000000000000000000081565b604080516001600160a01b0380861660248301528416604482015260648082018490528251808303909101815260849091019091526020810180516001600160e01b03166323b872dd60e01b17905261045d90859061057b565b50505050565b8015806104e9575060408051636eb1769f60e11b81523060048201526001600160a01b03848116602483015291519185169163dd62ed3e91604480820192602092909190829003018186803b1580156104bb57600080fd5b505afa1580156104cf573d6000803e3d6000fd5b505050506040513d60208110156104e557600080fd5b5051155b6105245760405162461bcd60e51b8152600401808060200182810382526036815260200180610a746036913960400191505060405180910390fd5b604080516001600160a01b038416602482015260448082018490528251808303909101815260649091019091526020810180516001600160e01b031663095ea7b360e01b17905261057690849061057b565b505050565b60006105d0826040518060400160405280602081526020017f5361666545524332303a206c6f772d6c6576656c2063616c6c206661696c6564815250856001600160a01b031661062c9092919063ffffffff16565b805190915015610576578080602001905160208110156105ef57600080fd5b50516105765760405162461bcd60e51b815260040180806020018281038252602a815260200180610a4a602a913960400191505060405180910390fd5b606061063b8484600085610645565b90505b9392505050565b6060824710156106865760405162461bcd60e51b8152600401808060200182810382526026815260200180610a246026913960400191505060405180910390fd5b61068f856107a0565b6106e0576040805162461bcd60e51b815260206004820152601d60248201527f416464726573733a2063616c6c20746f206e6f6e2d636f6e7472616374000000604482015290519081900360640190fd5b600080866001600160a01b031685876040518082805190602001908083835b6020831061071e5780518252601f1990920191602091820191016106ff565b6001836020036101000a03801982511681845116808217855250505050505090500191505060006040518083038185875af1925050503d8060008114610780576040519150601f19603f3d011682016040523d82523d6000602084013e610785565b606091505b50915091506107958282866107aa565b979650505050505050565b803b15155b919050565b606083156107b957508161063e565b8251156107c95782518084602001fd5b8160405162461bcd60e51b81526004018080602001828103825283818151815260200191508051906020019080838360005b838110156108135781810151838201526020016107fb565b50505050905090810190601f1680156108405780820380516001836020036101000a031916815260200191505b509250505060405180910390fd5b80356001600160a01b03811681146107a557600080fd5b600060208284031215610876578081fd5b815162ffffff8116811461063e578182fd5b600060208284031215610899578081fd5b5051919050565b60008060008060008060c087890312156108b8578182fd5b86359550602087013594506108cf6040880161084e565b93506108dd6060880161084e565b92506108eb6080880161084e565b91506108f960a0880161084e565b90509295509295509295565b6001600160a01b0391909116815260200190565b6001600160a01b0392831681529116602082015260400190565b60208082526017908201527614185a5c88199959481b9bdd081c9959da5cdd195c9959604a1b604082015260600190565b6020808252601390820152720a8ded6cadce640c6c2dcdcdee840dac2e8c6d606b1b604082015260600190565b6020808252600f908201526e0496e636f6d706c657465207377617608c1b604082015260600190565b81516001600160a01b03908116825260208084015182169083015260408084015162ffffff16908301526060808401518216908301526080808401519083015260a0838101519083015260c0808401519083015260e0928301511691810191909152610100019056fe416464726573733a20696e73756666696369656e742062616c616e636520666f722063616c6c5361666545524332303a204552433230206f7065726174696f6e20646964206e6f7420737563636565645361666545524332303a20617070726f76652066726f6d206e6f6e2d7a65726f20746f206e6f6e2d7a65726f20616c6c6f77616e6365a264697066735822122056966e9de720e807387bb7614a5d94f6a909c7a7e597119b3ef89ec8ad9a570c64736f6c63430007060033",
  "linkReferences": {},
  "deployedLinkReferences": {}
}