{
  "_format": "hh-sol-artifact-1",
  "contractName": "TokenRegistry",
  "sourceName": "contracts/oracles/registries/TokenRegistry.sol",
  "abi": [
    {
      "anonymous": false,
      "inputs": [
        {
          "indexed": false,
          "internalType": "address",
          "name": "estimator",
          "type": "address"
        },
        {
          "indexed": false,
          "internalType": "uint256",
          "name": "estimatorCategoryIndex",
          "type": "uint256"
        }
      ],
      "name": "EstimatorAdded",
      "type": "event"
    },
    {
      "anonymous": false,
      "inputs": [
        {
          "indexed": false,
          "internalType": "address",
          "name": "token",
          "type": "address"
        },
        {
          "indexed": false,
          "internalType": "uint256",
          "name": "itemCategoryIndex",
          "type": "uint256"
        },
        {
          "indexed": false,
          "internalType": "uint256",
          "name": "estimatorCategoryIndex",
          "type": "uint256"
        }
      ],
      "name": "ItemAdded",
      "type": "event"
    },
    {
      "anonymous": false,
      "inputs": [
        {
          "indexed": true,
          "internalType": "address",
          "name": "previousOwner",
          "type": "address"
        },
        {
          "indexed": true,
          "internalType": "address",
          "name": "newOwner",
          "type": "address"
        }
      ],
      "name": "OwnershipTransferred",
      "type": "event"
    },
    {
      "inputs": [
        {
          "internalType": "uint256",
          "name": "estimatorCategoryIndex",
          "type": "uint256"
        },
        {
          "internalType": "address",
          "name": "estimator",
          "type": "address"
        }
      ],
      "name": "addEstimator",
      "outputs": [],
      "stateMutability": "nonpayable",
      "type": "function"
    },
    {
      "inputs": [
        {
          "internalType": "uint256",
          "name": "itemCategoryIndex",
          "type": "uint256"
        },
        {
          "internalType": "uint256",
          "name": "estimatorCategoryIndex",
          "type": "uint256"
        },
        {
          "internalType": "address",
          "name": "token",
          "type": "address"
        }
      ],
      "name": "addItem",
      "outputs": [],
      "stateMutability": "nonpayable",
      "type": "function"
    },
    {
      "inputs": [
        {
          "internalType": "uint256",
          "name": "itemCategoryIndex",
          "type": "uint256"
        },
        {
          "internalType": "uint256",
          "name": "estimatorCategoryIndex",
          "type": "uint256"
        },
        {
          "internalType": "address",
          "name": "token",
          "type": "address"
        },
        {
          "components": [
            {
              "internalType": "address[]",
              "name": "adapters",
              "type": "address[]"
            },
            {
              "internalType": "address[]",
              "name": "path",
              "type": "address[]"
            },
            {
              "internalType": "bytes",
              "name": "cache",
              "type": "bytes"
            }
          ],
          "internalType": "struct StrategyTypes.TradeData",
          "name": "tradeData",
          "type": "tuple"
        },
        {
          "internalType": "address",
          "name": "rewardsAdapter",
          "type": "address"
        }
      ],
      "name": "addItemDetailed",
      "outputs": [],
      "stateMutability": "nonpayable",
      "type": "function"
    },
    {
      "inputs": [
        {
          "internalType": "uint256[]",
          "name": "itemCategoryIndexes",
          "type": "uint256[]"
        },
        {
          "internalType": "uint256[]",
          "name": "estimatorCategoryIndexes",
          "type": "uint256[]"
        },
        {
          "internalType": "address[]",
          "name": "tokens",
          "type": "address[]"
        }
      ],
      "name": "addItems",
      "outputs": [],
      "stateMutability": "nonpayable",
      "type": "function"
    },
    {
      "inputs": [
        {
          "internalType": "uint256[]",
          "name": "itemCategoryIndexes",
          "type": "uint256[]"
        },
        {
          "internalType": "uint256[]",
          "name": "estimatorCategoryIndexes",
          "type": "uint256[]"
        },
        {
          "internalType": "address[]",
          "name": "tokens",
          "type": "address[]"
        },
        {
          "components": [
            {
              "internalType": "address[]",
              "name": "adapters",
              "type": "address[]"
            },
            {
              "internalType": "address[]",
              "name": "path",
              "type": "address[]"
            },
            {
              "internalType": "bytes",
              "name": "cache",
              "type": "bytes"
            }
          ],
          "internalType": "struct StrategyTypes.TradeData[]",
          "name": "tradesData",
          "type": "tuple[]"
        },
        {
          "internalType": "address[]",
          "name": "rewardsAdapters",
          "type": "address[]"
        }
      ],
      "name": "addItemsDetailed",
      "outputs": [],
      "stateMutability": "nonpayable",
      "type": "function"
    },
    {
      "inputs": [
        {
          "internalType": "address",
          "name": "",
          "type": "address"
        }
      ],
      "name": "estimatorCategories",
      "outputs": [
        {
          "internalType": "uint256",
          "name": "",
          "type": "uint256"
        }
      ],
      "stateMutability": "view",
      "type": "function"
    },
    {
      "inputs": [
        {
          "internalType": "uint256",
          "name": "",
          "type": "uint256"
        }
      ],
      "name": "estimators",
      "outputs": [
        {
          "internalType": "contract IEstimator",
          "name": "",
          "type": "address"
        }
      ],
      "stateMutability": "view",
      "type": "function"
    },
    {
      "inputs": [
        {
          "internalType": "address",
          "name": "token",
          "type": "address"
        }
      ],
      "name": "getEstimator",
      "outputs": [
        {
          "internalType": "contract IEstimator",
          "name": "",
          "type": "address"
        }
      ],
      "stateMutability": "view",
      "type": "function"
    },
    {
      "inputs": [
        {
          "internalType": "address",
          "name": "item",
          "type": "address"
        }
      ],
      "name": "isClaimable",
      "outputs": [
        {
          "internalType": "bool",
          "name": "",
          "type": "bool"
        }
      ],
      "stateMutability": "view",
      "type": "function"
    },
    {
      "inputs": [
        {
          "internalType": "address",
          "name": "",
          "type": "address"
        }
      ],
      "name": "itemCategories",
      "outputs": [
        {
          "internalType": "uint256",
          "name": "",
          "type": "uint256"
        }
      ],
      "stateMutability": "view",
      "type": "function"
    },
    {
      "inputs": [
        {
          "internalType": "address",
          "name": "item",
          "type": "address"
        }
      ],
      "name": "itemDetails",
      "outputs": [
        {
          "components": [
            {
              "components": [
                {
                  "internalType": "address[]",
                  "name": "adapters",
                  "type": "address[]"
                },
                {
                  "internalType": "address[]",
                  "name": "path",
                  "type": "address[]"
                },
                {
                  "internalType": "bytes",
                  "name": "cache",
                  "type": "bytes"
                }
              ],
              "internalType": "struct StrategyTypes.TradeData",
              "name": "tradeData",
              "type": "tuple"
            },
            {
              "internalType": "address",
              "name": "rewardsAdapter",
              "type": "address"
            }
          ],
          "internalType": "struct ITokenRegistry.ItemDetails",
          "name": "",
          "type": "tuple"
        }
      ],
      "stateMutability": "view",
      "type": "function"
    },
    {
      "inputs": [],
      "name": "owner",
      "outputs": [
        {
          "internalType": "address",
          "name": "",
          "type": "address"
        }
      ],
      "stateMutability": "view",
      "type": "function"
    },
    {
      "inputs": [],
      "name": "renounceOwnership",
      "outputs": [],
      "stateMutability": "nonpayable",
      "type": "function"
    },
    {
      "inputs": [
        {
          "internalType": "address",
          "name": "newOwner",
          "type": "address"
        }
      ],
      "name": "transferOwnership",
      "outputs": [],
      "stateMutability": "nonpayable",
      "type": "function"
    }
  ],
  "bytecode": "0x608060405234801561001057600080fd5b50600061001b61006a565b600080546001600160a01b0319166001600160a01b0383169081178255604051929350917f8be0079c531659141344cd1fd0a4f28419497f9722a3daafe3b4186f6b6457e0908290a35061006e565b3390565b6112c68061007d6000396000f3fe608060405234801561001057600080fd5b50600436106100ea5760003560e01c806397d39de41161008c578063c066bd1a11610066578063c066bd1a146101d6578063c0ae4c7e146101e9578063d33a10f7146101fc578063f2fde38b1461020f576100ea565b806397d39de41461019d578063aaba0194146101b0578063bbe985c4146101c3576100ea565b80636c539462116100c85780636c53946214610158578063715018a61461016d57806373052503146101755780638da5cb5b14610188576100ea565b8063292fec04146100ef57806346a74837146101185780635109dfcd14610138575b600080fd5b6101026100fd366004610d3e565b610222565b60405161010f919061105e565b60405180910390f35b61012b610126366004610d3e565b610245565b60405161010f91906111f8565b61014b610146366004610d3e565b610257565b60405161010f9190611145565b61016b610166366004610f57565b6103f6565b005b61016b610448565b61016b610183366004610d60565b6104c7565b610190610593565b60405161010f9190611010565b61012b6101ab366004610d3e565b6105a2565b6101906101be366004610d3e565b6105b4565b6101906101d1366004610edb565b6105df565b61016b6101e4366004610f1f565b6105fa565b61016b6101f7366004610df6565b61063f565b61016b61020a366004610ef3565b61075a565b61016b61021d366004610d3e565b6107f4565b6001600160a01b0390811660009081526004602052604090206003015416151590565b60026020526000908152604090205481565b61025f6109e6565b6001600160a01b0382166000908152600460209081526040918290208251815460c093810282018401855260a08201818152919492938593840192859284928491908701828280156102da57602002820191906000526020600020905b81546001600160a01b031681526001909101906020018083116102bc575b505050505081526020016001820180548060200260200160405190810160405280929190818152602001828054801561033c57602002820191906000526020600020905b81546001600160a01b0316815260019091019060200180831161031e575b5050509183525050600282810180546040805160206001841615610100026000190190931694909404601f810183900483028501830190915280845293810193908301828280156103ce5780601f106103a3576101008083540402835291602001916103ce565b820191906000526020600020905b8154815290600101906020018083116103b157829003601f168201915b505050919092525050508152600391909101546001600160a01b031660209091015292915050565b6103fe6108aa565b6000546001600160a01b039081169116146104345760405162461bcd60e51b815260040161042b906110af565b60405180910390fd5b61044185858585856108ae565b5050505050565b6104506108aa565b6000546001600160a01b0390811691161461047d5760405162461bcd60e51b815260040161042b906110af565b600080546040516001600160a01b03909116907f8be0079c531659141344cd1fd0a4f28419497f9722a3daafe3b4186f6b6457e0908390a3600080546001600160a01b0319169055565b6104cf6108aa565b6000546001600160a01b039081169116146104fc5760405162461bcd60e51b815260040161042b906110af565b84838114801561050b57508181145b6105275760405162461bcd60e51b815260040161042b906110e4565b60005b818110156105895761058188888381811061054157fe5b9050602002013587878481811061055457fe5b9050602002013586868581811061056757fe5b905060200201602081019061057c9190610d3e565b610949565b60010161052a565b5050505050505050565b6000546001600160a01b031690565b60016020526000908152604090205481565b6001600160a01b03908116600090815260026020908152604080832054835260039091529020541690565b6003602052600090815260409020546001600160a01b031681565b6106026108aa565b6000546001600160a01b0390811691161461062f5760405162461bcd60e51b815260040161042b906110af565b61063a838383610949565b505050565b6106476108aa565b6000546001600160a01b039081169116146106745760405162461bcd60e51b815260040161042b906110af565b87868114801561068357508481145b801561068f5750808451145b801561069a57508181145b6106b65760405162461bcd60e51b815260040161042b906110e4565b60005b8181101561074d576107458b8b838181106106d057fe5b905060200201358a8a848181106106e357fe5b905060200201358989858181106106f657fe5b905060200201602081019061070b9190610d3e565b88858151811061071757fe5b602002602001015188888781811061072b57fe5b90506020020160208101906107409190610d3e565b6108ae565b6001016106b9565b5050505050505050505050565b6107626108aa565b6000546001600160a01b0390811691161461078f5760405162461bcd60e51b815260040161042b906110af565b6000828152600360205260409081902080546001600160a01b0319166001600160a01b038416179055517f2590ad30ef40889e89601712f1da7ba772b88c03dd2c8466edbbaa9b95ddc1f8906107e89083908590611024565b60405180910390a15050565b6107fc6108aa565b6000546001600160a01b039081169116146108295760405162461bcd60e51b815260040161042b906110af565b6001600160a01b03811661084f5760405162461bcd60e51b815260040161042b90611069565b600080546040516001600160a01b03808516939216917f8be0079c531659141344cd1fd0a4f28419497f9722a3daafe3b4186f6b6457e091a3600080546001600160a01b0319166001600160a01b0392909216919091179055565b3390565b6001600160a01b0383166000908152600460209081526040909120835180519192859284926108e1928492910190610a06565b5060208281015180516108fa9260018501920190610a06565b5060408201518051610916916002840191602090910190610a6b565b5050506003810180546001600160a01b0319166001600160a01b038416179055610941868686610949565b505050505050565b6000828152600360205260409020546001600160a01b031661097d5760405162461bcd60e51b815260040161042b9061111b565b6001600160a01b0381166000908152600160209081526040808320869055600290915290819020839055517f2ca052d1528c7374eb2dbaeecad56c46f2a51fa48de7916e8ecee5642859e970906109d99083908690869061103d565b60405180910390a1505050565b60405180604001604052806109f9610ae5565b8152600060209091015290565b828054828255906000526020600020908101928215610a5b579160200282015b82811115610a5b57825182546001600160a01b0319166001600160a01b03909116178255602090920191600190910190610a26565b50610a67929150610b06565b5090565b828054600181600116156101000203166002900490600052602060002090601f016020900481019282601f10610aac57805160ff1916838001178555610ad9565b82800160010185558215610ad9579182015b82811115610ad9578251825591602001919060010190610abe565b50610a67929150610b25565b60405180606001604052806060815260200160608152602001606081525090565b5b80821115610a675780546001600160a01b0319168155600101610b07565b5b80821115610a675760008155600101610b26565b80356001600160a01b0381168114610b5157600080fd5b92915050565b60008083601f840112610b68578182fd5b50813567ffffffffffffffff811115610b7f578182fd5b6020830191508360208083028501011115610b9957600080fd5b9250929050565b600082601f830112610bb0578081fd5b8135610bc3610bbe82611228565b611201565b818152915060208083019084810181840286018201871015610be457600080fd5b60005b84811015610c0b57610bf98883610b3a565b84529282019290820190600101610be7565b505050505092915050565b600082601f830112610c26578081fd5b8135610c34610bbe82611228565b818152915060208083019084810160005b84811015610c0b57610c5c888484358a0101610c6e565b84529282019290820190600101610c45565b600060608284031215610c7f578081fd5b610c896060611201565b9050813567ffffffffffffffff80821115610ca357600080fd5b610caf85838601610ba0565b83526020840135915080821115610cc557600080fd5b610cd185838601610ba0565b60208401526040840135915080821115610cea57600080fd5b508201601f81018413610cfc57600080fd5b8035610d0a610bbe82611248565b818152856020838501011115610d1f57600080fd5b610d3082602083016020860161126c565b604084015250909392505050565b600060208284031215610d4f578081fd5b610d598383610b3a565b9392505050565b60008060008060008060608789031215610d78578182fd5b863567ffffffffffffffff80821115610d8f578384fd5b610d9b8a838b01610b57565b90985096506020890135915080821115610db3578384fd5b610dbf8a838b01610b57565b90965094506040890135915080821115610dd7578384fd5b50610de489828a01610b57565b979a9699509497509295939492505050565b600080600080600080600080600060a08a8c031215610e13578283fd5b893567ffffffffffffffff80821115610e2a578485fd5b610e368d838e01610b57565b909b50995060208c0135915080821115610e4e578485fd5b610e5a8d838e01610b57565b909950975060408c0135915080821115610e72578485fd5b610e7e8d838e01610b57565b909750955060608c0135915080821115610e96578485fd5b610ea28d838e01610c16565b945060808c0135915080821115610eb7578384fd5b50610ec48c828d01610b57565b915080935050809150509295985092959850929598565b600060208284031215610eec578081fd5b5035919050565b60008060408385031215610f05578182fd5b82359150610f168460208501610b3a565b90509250929050565b600080600060608486031215610f33578283fd5b83359250602084013591506040840135610f4c81611278565b809150509250925092565b600080600080600060a08688031215610f6e578081fd5b85359450602086013593506040860135610f8781611278565b9250606086013567ffffffffffffffff811115610fa2578182fd5b610fae88828901610c6e565b9250506080860135610fbf81611278565b809150509295509295909350565b6000815180845260208085019450808401835b838110156110055781516001600160a01b031687529582019590820190600101610fe0565b509495945050505050565b6001600160a01b0391909116815260200190565b6001600160a01b03929092168252602082015260400190565b6001600160a01b039390931683526020830191909152604082015260600190565b901515815260200190565b60208082526026908201527f4f776e61626c653a206e6577206f776e657220697320746865207a65726f206160408201526564647265737360d01b606082015260800190565b6020808252818101527f4f776e61626c653a2063616c6c6572206973206e6f7420746865206f776e6572604082015260600190565b60208082526018908201527f4d69736d617463686564206172726179206c656e677468730000000000000000604082015260600190565b60208082526010908201526f496e76616c69642063617465676f727960801b604082015260600190565b600060208083528351604082850152805160608086015261116960c0860182610fcd565b905082820151605f19808784030160808801526111868383610fcd565b925060408401519350808784030160a088015250508151808252845b818110156111bd5783810185015183820186015284016111a2565b818111156111cd57858583850101525b506001600160a01b038488015116604087015283601f19601f83011683010194505050505092915050565b90815260200190565b60405181810167ffffffffffffffff8111828210171561122057600080fd5b604052919050565b600067ffffffffffffffff82111561123e578081fd5b5060209081020190565b600067ffffffffffffffff82111561125e578081fd5b50601f01601f191660200190565b82818337506000910152565b6001600160a01b038116811461128d57600080fd5b5056fea264697066735822122032878a3024653588b74f00baa44f082e7be28808ad9320cd4351658c4dd8257b64736f6c634300060c0033",
  "linkReferences": {},
  "deployedLinkReferences": {}
}