{
  "_format": "hh-sol-artifact-1",
  "contractName": "TokenRegistry",
  "sourceName": "contracts/oracles/registries/TokenRegistry.sol",
  "abi": [
    {
      "anonymous": false,
      "inputs": [
        {
          "indexed": false,
          "internalType": "address",
          "name": "estimator",
          "type": "address"
        },
        {
          "indexed": false,
          "internalType": "uint256",
          "name": "estimatorCategoryIndex",
          "type": "uint256"
        }
      ],
      "name": "EstimatorAdded",
      "type": "event"
    },
    {
      "anonymous": false,
      "inputs": [
        {
          "indexed": false,
          "internalType": "address",
          "name": "token",
          "type": "address"
        },
        {
          "indexed": false,
          "internalType": "uint256",
          "name": "itemCategoryIndex",
          "type": "uint256"
        },
        {
          "indexed": false,
          "internalType": "uint256",
          "name": "estimatorCategoryIndex",
          "type": "uint256"
        }
      ],
      "name": "ItemAdded",
      "type": "event"
    },
    {
      "anonymous": false,
      "inputs": [
        {
          "indexed": true,
          "internalType": "address",
          "name": "previousOwner",
          "type": "address"
        },
        {
          "indexed": true,
          "internalType": "address",
          "name": "newOwner",
          "type": "address"
        }
      ],
      "name": "OwnershipTransferred",
      "type": "event"
    },
    {
      "inputs": [
        {
          "internalType": "uint256",
          "name": "estimatorCategoryIndex",
          "type": "uint256"
        },
        {
          "internalType": "address",
          "name": "estimator",
          "type": "address"
        }
      ],
      "name": "addEstimator",
      "outputs": [],
      "stateMutability": "nonpayable",
      "type": "function"
    },
    {
      "inputs": [
        {
          "internalType": "uint256",
          "name": "itemCategoryIndex",
          "type": "uint256"
        },
        {
          "internalType": "uint256",
          "name": "estimatorCategoryIndex",
          "type": "uint256"
        },
        {
          "internalType": "address",
          "name": "token",
          "type": "address"
        }
      ],
      "name": "addItem",
      "outputs": [],
      "stateMutability": "nonpayable",
      "type": "function"
    },
    {
      "inputs": [
        {
          "internalType": "address",
          "name": "",
          "type": "address"
        }
      ],
      "name": "estimatorCategories",
      "outputs": [
        {
          "internalType": "uint256",
          "name": "",
          "type": "uint256"
        }
      ],
      "stateMutability": "view",
      "type": "function"
    },
    {
      "inputs": [
        {
          "internalType": "uint256",
          "name": "",
          "type": "uint256"
        }
      ],
      "name": "estimators",
      "outputs": [
        {
          "internalType": "contract IEstimator",
          "name": "",
          "type": "address"
        }
      ],
      "stateMutability": "view",
      "type": "function"
    },
    {
      "inputs": [
        {
          "internalType": "address",
          "name": "token",
          "type": "address"
        }
      ],
      "name": "getEstimator",
      "outputs": [
        {
          "internalType": "contract IEstimator",
          "name": "",
          "type": "address"
        }
      ],
      "stateMutability": "view",
      "type": "function"
    },
    {
      "inputs": [
        {
          "internalType": "address",
          "name": "",
          "type": "address"
        }
      ],
      "name": "itemCategories",
      "outputs": [
        {
          "internalType": "uint256",
          "name": "",
          "type": "uint256"
        }
      ],
      "stateMutability": "view",
      "type": "function"
    },
    {
      "inputs": [],
      "name": "owner",
      "outputs": [
        {
          "internalType": "address",
          "name": "",
          "type": "address"
        }
      ],
      "stateMutability": "view",
      "type": "function"
    },
    {
      "inputs": [],
      "name": "renounceOwnership",
      "outputs": [],
      "stateMutability": "nonpayable",
      "type": "function"
    },
    {
      "inputs": [
        {
          "internalType": "address",
          "name": "newOwner",
          "type": "address"
        }
      ],
      "name": "transferOwnership",
      "outputs": [],
      "stateMutability": "nonpayable",
      "type": "function"
    }
  ],
  "bytecode": "0x608060405234801561001057600080fd5b50600061001b61006a565b600080546001600160a01b0319166001600160a01b0383169081178255604051929350917f8be0079c531659141344cd1fd0a4f28419497f9722a3daafe3b4186f6b6457e0908290a35061006e565b3390565b61064d8061007d6000396000f3fe608060405234801561001057600080fd5b50600436106100835760003560e01c806346a7483714610088578063715018a6146100c05780638da5cb5b146100ca57806397d39de4146100ee578063aaba019414610114578063bbe985c41461013a578063c066bd1a14610157578063d33a10f714610189578063f2fde38b146101b5575b600080fd5b6100ae6004803603602081101561009e57600080fd5b50356001600160a01b03166101db565b60408051918252519081900360200190f35b6100c86101ed565b005b6100d261028f565b604080516001600160a01b039092168252519081900360200190f35b6100ae6004803603602081101561010457600080fd5b50356001600160a01b031661029e565b6100d26004803603602081101561012a57600080fd5b50356001600160a01b03166102b0565b6100d26004803603602081101561015057600080fd5b50356102db565b6100c86004803603606081101561016d57600080fd5b50803590602081013590604001356001600160a01b03166102f6565b6100c86004803603604081101561019f57600080fd5b50803590602001356001600160a01b0316610413565b6100c8600480360360208110156101cb57600080fd5b50356001600160a01b03166104d5565b60026020526000908152604090205481565b6101f56105cd565b6000546001600160a01b03908116911614610245576040805162461bcd60e51b815260206004820181905260248201526000805160206105f8833981519152604482015290519081900360640190fd5b600080546040516001600160a01b03909116907f8be0079c531659141344cd1fd0a4f28419497f9722a3daafe3b4186f6b6457e0908390a3600080546001600160a01b0319169055565b6000546001600160a01b031690565b60016020526000908152604090205481565b6001600160a01b03908116600090815260026020908152604080832054835260039091529020541690565b6003602052600090815260409020546001600160a01b031681565b6102fe6105cd565b6000546001600160a01b0390811691161461034e576040805162461bcd60e51b815260206004820181905260248201526000805160206105f8833981519152604482015290519081900360640190fd5b6000828152600360205260409020546001600160a01b03166103aa576040805162461bcd60e51b815260206004820152601060248201526f496e76616c69642063617465676f727960801b604482015290519081900360640190fd5b6001600160a01b0381166000818152600160209081526040808320879055600282529182902085905581519283528201859052818101849052517f2ca052d1528c7374eb2dbaeecad56c46f2a51fa48de7916e8ecee5642859e9709181900360600190a1505050565b61041b6105cd565b6000546001600160a01b0390811691161461046b576040805162461bcd60e51b815260206004820181905260248201526000805160206105f8833981519152604482015290519081900360640190fd5b60008281526003602090815260409182902080546001600160a01b0319166001600160a01b038516908117909155825190815290810184905281517f2590ad30ef40889e89601712f1da7ba772b88c03dd2c8466edbbaa9b95ddc1f8929181900390910190a15050565b6104dd6105cd565b6000546001600160a01b0390811691161461052d576040805162461bcd60e51b815260206004820181905260248201526000805160206105f8833981519152604482015290519081900360640190fd5b6001600160a01b0381166105725760405162461bcd60e51b81526004018080602001828103825260268152602001806105d26026913960400191505060405180910390fd5b600080546040516001600160a01b03808516939216917f8be0079c531659141344cd1fd0a4f28419497f9722a3daafe3b4186f6b6457e091a3600080546001600160a01b0319166001600160a01b0392909216919091179055565b339056fe4f776e61626c653a206e6577206f776e657220697320746865207a65726f20616464726573734f776e61626c653a2063616c6c6572206973206e6f7420746865206f776e6572a2646970667358221220c0bb703c06d7a1496f65a6628876dc76b2a634d673719e92ac9d75dd120d2a0f64736f6c634300060c0033",
  "linkReferences": {},
  "deployedLinkReferences": {}
}