{
  "_format": "hh-sol-artifact-1",
  "contractName": "AaveBorrowAdapter",
  "sourceName": "contracts/adapters/borrow/AaveBorrowAdapter.sol",
  "abi": [
    {
      "inputs": [
        {
          "internalType": "address",
          "name": "addressesProvider_",
          "type": "address"
        },
        {
          "internalType": "address",
          "name": "weth_",
          "type": "address"
        }
      ],
      "stateMutability": "nonpayable",
      "type": "constructor"
    },
    {
      "inputs": [],
      "name": "addressesProvider",
      "outputs": [
        {
          "internalType": "contract ILendingPoolAddressesProvider",
          "name": "",
          "type": "address"
        }
      ],
      "stateMutability": "view",
      "type": "function"
    },
    {
      "inputs": [
        {
          "internalType": "uint256",
          "name": "amount",
          "type": "uint256"
        },
        {
          "internalType": "address",
          "name": "tokenIn",
          "type": "address"
        },
        {
          "internalType": "address",
          "name": "tokenOut",
          "type": "address"
        }
      ],
      "name": "spotPrice",
      "outputs": [
        {
          "internalType": "uint256",
          "name": "",
          "type": "uint256"
        }
      ],
      "stateMutability": "view",
      "type": "function"
    },
    {
      "inputs": [
        {
          "internalType": "uint256",
          "name": "amount",
          "type": "uint256"
        },
        {
          "internalType": "uint256",
          "name": "expected",
          "type": "uint256"
        },
        {
          "internalType": "address",
          "name": "tokenIn",
          "type": "address"
        },
        {
          "internalType": "address",
          "name": "tokenOut",
          "type": "address"
        },
        {
          "internalType": "address",
          "name": "from",
          "type": "address"
        },
        {
          "internalType": "address",
          "name": "to",
          "type": "address"
        }
      ],
      "name": "swap",
      "outputs": [],
      "stateMutability": "nonpayable",
      "type": "function"
    },
    {
      "inputs": [],
      "name": "weth",
      "outputs": [
        {
          "internalType": "address",
          "name": "",
          "type": "address"
        }
      ],
      "stateMutability": "view",
      "type": "function"
    }
  ],
  "bytecode": "0x60c060405234801561001057600080fd5b5060405161134338038061134383398101604081905261002f9161004e565b6001600160601b0319606091821b811660805291901b1660a05261009f565b60008060408385031215610060578182fd5b825161006b81610087565b602084015190925061007c81610087565b809150509250929050565b6001600160a01b038116811461009c57600080fd5b50565b60805160601c60a05160601c61124a6100f96000398060eb5280610459528061053b5280610785528061089b5280610a9e5250806102d152806103af52806103e8528061042752806104fe52806106ce525061124a6000f3fe608060405234801561001057600080fd5b506004361061004c5760003560e01c8063230f11c7146100515780633fc8cef31461006657806377ec159d14610084578063c72c4d10146100a4575b600080fd5b61006461005f366004610ecd565b6100ac565b005b61006e6103ad565b60405161007b9190610f79565b60405180910390f35b610097610092366004610e8c565b6103d1565b60405161007b91906111c7565b61006e610457565b826001600160a01b0316846001600160a01b031614156100e75760405162461bcd60e51b81526004016100de90611119565b60405180910390fd5b60007f00000000000000000000000000000000000000000000000000000000000000006001600160a01b0316630261bf8b6040518163ffffffff1660e01b815260040160206040518083038186803b15801561014257600080fd5b505afa158015610156573d6000803e3d6000fd5b505050506040513d601f19601f8201168201806040525081019061017a9190610e38565b90506001600160a01b0384166102bb576001600160a01b03831630146101af576101af6001600160a01b03861684308a61047b565b60405163095ea7b360e01b81526001600160a01b0386169063095ea7b3906101dd9084908b90600401610fb1565b602060405180830381600087803b1580156101f757600080fd5b505af115801561020b573d6000803e3d6000fd5b505050506040513d601f19601f8201168201806040525081019061022f9190610e54565b5060405163573ade8160e01b81526001600160a01b0382169063573ade81906102639088908b906001908890600401610fca565b602060405180830381600087803b15801561027d57600080fd5b505af1158015610291573d6000803e3d6000fd5b505050506040513d601f19601f820116820180604052508101906102b59190610e74565b506103a4565b6001600160a01b03851661004c5760006102f6887f0000000000000000000000000000000000000000000000000000000000000000876104d9565b9050868110156103185760405162461bcd60e51b81526004016100de906110a2565b60405163a415bcad60e01b81526001600160a01b0383169063a415bcad9061034e90889085906001906000908b90600401610ff5565b600060405180830381600087803b15801561036857600080fd5b505af115801561037c573d6000803e3d6000fd5b505050506001600160a01b03831630146102b5576102b56001600160a01b0386168483610bb5565b50505050505050565b7f000000000000000000000000000000000000000000000000000000000000000081565b60006001600160a01b0382166104135761040c84847f00000000000000000000000000000000000000000000000000000000000000006104d9565b9050610450565b6001600160a01b03831661044c5761040c847f0000000000000000000000000000000000000000000000000000000000000000846104d9565b5060005b9392505050565b7f000000000000000000000000000000000000000000000000000000000000000081565b6104d3846323b872dd60e01b85858560405160240161049c93929190610f8d565b60408051601f198184030181529190526020810180516001600160e01b03166001600160e01b031990931692909217909152610bd9565b50505050565b6000816001600160a01b0316836001600160a01b031614156104fc575082610450565b7f00000000000000000000000000000000000000000000000000000000000000006001600160a01b0316836001600160a01b031614156106cc5761040c7f00000000000000000000000000000000000000000000000000000000000000006001600160a01b031663fca513a86040518163ffffffff1660e01b815260040160206040518083038186803b15801561059257600080fd5b505afa1580156105a6573d6000803e3d6000fd5b505050506040513d601f19601f820116820180604052508101906105ca9190610e38565b6001600160a01b031663b3596f07846040518263ffffffff1660e01b81526004016105f59190610f79565b60206040518083038186803b15801561060d57600080fd5b505afa158015610621573d6000803e3d6000fd5b505050506040513d601f19601f820116820180604052508101906106459190610e74565b6106c6846001600160a01b031663313ce5676040518163ffffffff1660e01b815260040160206040518083038186803b15801561068157600080fd5b505afa158015610695573d6000803e3d6000fd5b505050506040513d601f19601f820116820180604052508101906106b99190610f3c565b879060ff16600a0a610c68565b90610cab565b7f00000000000000000000000000000000000000000000000000000000000000006001600160a01b0316826001600160a01b031614156108965761040c836001600160a01b031663313ce5676040518163ffffffff1660e01b815260040160206040518083038186803b15801561074257600080fd5b505afa158015610756573d6000803e3d6000fd5b505050506040513d601f19601f8201168201806040525081019061077a9190610f3c565b60ff16600a0a6106c67f00000000000000000000000000000000000000000000000000000000000000006001600160a01b031663fca513a86040518163ffffffff1660e01b815260040160206040518083038186803b1580156107dc57600080fd5b505afa1580156107f0573d6000803e3d6000fd5b505050506040513d601f19601f820116820180604052508101906108149190610e38565b6001600160a01b031663b3596f07876040518263ffffffff1660e01b815260040161083f9190610f79565b60206040518083038186803b15801561085757600080fd5b505afa15801561086b573d6000803e3d6000fd5b505050506040513d601f19601f8201168201806040525081019061088f9190610e74565b8790610c68565b61040c7f00000000000000000000000000000000000000000000000000000000000000006001600160a01b031663fca513a86040518163ffffffff1660e01b815260040160206040518083038186803b1580156108f257600080fd5b505afa158015610906573d6000803e3d6000fd5b505050506040513d601f19601f8201168201806040525081019061092a9190610e38565b6001600160a01b031663b3596f07846040518263ffffffff1660e01b81526004016109559190610f79565b60206040518083038186803b15801561096d57600080fd5b505afa158015610981573d6000803e3d6000fd5b505050506040513d601f19601f820116820180604052508101906109a59190610e74565b6106c6856001600160a01b031663313ce5676040518163ffffffff1660e01b815260040160206040518083038186803b1580156109e157600080fd5b505afa1580156109f5573d6000803e3d6000fd5b505050506040513d601f19601f82011682018060405250810190610a199190610f3c565b60ff16600a0a6106c6866001600160a01b031663313ce5676040518163ffffffff1660e01b815260040160206040518083038186803b158015610a5b57600080fd5b505afa158015610a6f573d6000803e3d6000fd5b505050506040513d601f19601f82011682018060405250810190610a939190610f3c565b60ff16600a0a610baf7f00000000000000000000000000000000000000000000000000000000000000006001600160a01b031663fca513a86040518163ffffffff1660e01b815260040160206040518083038186803b158015610af557600080fd5b505afa158015610b09573d6000803e3d6000fd5b505050506040513d601f19601f82011682018060405250810190610b2d9190610e38565b6001600160a01b031663b3596f078b6040518263ffffffff1660e01b8152600401610b589190610f79565b60206040518083038186803b158015610b7057600080fd5b505afa158015610b84573d6000803e3d6000fd5b505050506040513d601f19601f82011682018060405250810190610ba89190610e74565b8b90610c68565b90610c68565b610bd48363a9059cbb60e01b848460405160240161049c929190610fb1565b505050565b6060610c2e826040518060400160405280602081526020017f5361666545524332303a206c6f772d6c6576656c2063616c6c206661696c6564815250856001600160a01b0316610cea9092919063ffffffff16565b805190915015610bd45780806020019051810190610c4c9190610e54565b610bd45760405162461bcd60e51b81526004016100de9061117d565b600082610c7757506000610ca5565b82820282848281610c8457fe5b0414610ca25760405162461bcd60e51b81526004016100de906110d8565b90505b92915050565b6000610ca283836040518060400160405280601a815260200179536166654d6174683a206469766973696f6e206279207a65726f60301b815250610d01565b6060610cf98484600085610d38565b949350505050565b60008183610d225760405162461bcd60e51b81526004016100de9190611029565b506000838581610d2e57fe5b0495945050505050565b606082471015610d5a5760405162461bcd60e51b81526004016100de9061105c565b610d6385610df9565b610d7f5760405162461bcd60e51b81526004016100de90611146565b60006060866001600160a01b03168587604051610d9c9190610f5d565b60006040518083038185875af1925050503d8060008114610dd9576040519150601f19603f3d011682016040523d82523d6000602084013e610dde565b606091505b5091509150610dee828286610dff565b979650505050505050565b3b151590565b60608315610e0e575081610450565b825115610e1e5782518084602001fd5b8160405162461bcd60e51b81526004016100de9190611029565b600060208284031215610e49578081fd5b8151610ca2816111fc565b600060208284031215610e65578081fd5b81518015158114610ca2578182fd5b600060208284031215610e85578081fd5b5051919050565b600080600060608486031215610ea0578182fd5b833592506020840135610eb2816111fc565b91506040840135610ec2816111fc565b809150509250925092565b60008060008060008060c08789031215610ee5578182fd5b86359550602087013594506040870135610efe816111fc565b93506060870135610f0e816111fc565b92506080870135610f1e816111fc565b915060a0870135610f2e816111fc565b809150509295509295509295565b600060208284031215610f4d578081fd5b815160ff81168114610ca2578182fd5b60008251610f6f8184602087016111d0565b9190910192915050565b6001600160a01b0391909116815260200190565b6001600160a01b039384168152919092166020820152604081019190915260600190565b6001600160a01b03929092168252602082015260400190565b6001600160a01b03948516815260208101939093526040830191909152909116606082015260800190565b6001600160a01b0395861681526020810194909452604084019290925261ffff166060830152909116608082015260a00190565b60006020825282518060208401526110488160408501602087016111d0565b601f01601f19169190910160400192915050565b60208082526026908201527f416464726573733a20696e73756666696369656e742062616c616e636520666f6040820152651c8818d85b1b60d21b606082015260800190565b6020808252601c908201527b125b9cdd59999a58da595b9d081d1bdad95b93dd5d08185b5bdd5b9d60221b604082015260600190565b60208082526021908201527f536166654d6174683a206d756c7469706c69636174696f6e206f766572666c6f6040820152607760f81b606082015260800190565b6020808252601390820152720a8ded6cadce640c6c2dcdcdee840dac2e8c6d606b1b604082015260600190565b6020808252601d908201527f416464726573733a2063616c6c20746f206e6f6e2d636f6e7472616374000000604082015260600190565b6020808252602a908201527f5361666545524332303a204552433230206f7065726174696f6e20646964206e6040820152691bdd081cdd58d8d9595960b21b606082015260800190565b90815260200190565b60005b838110156111eb5781810151838201526020016111d3565b838111156104d35750506000910152565b6001600160a01b038116811461121157600080fd5b5056fea26469706673582212209d276076baea4a3f1a94767ab0db8c394f8ad5f023081edc6071d019c728785d64736f6c634300060c0033",
  "linkReferences": {},
  "deployedLinkReferences": {}
}