{
  "_format": "hh-sol-artifact-1",
  "contractName": "GenericRouter",
  "sourceName": "contracts/routers/GenericRouter.sol",
  "abi": [
    {
      "inputs": [
        {
          "internalType": "address",
          "name": "controller_",
          "type": "address"
        }
      ],
      "stateMutability": "nonpayable",
      "type": "constructor"
    },
    {
      "inputs": [],
      "name": "CALL_REVERT_PREFIX",
      "outputs": [
        {
          "internalType": "string",
          "name": "",
          "type": "string"
        }
      ],
      "stateMutability": "view",
      "type": "function"
    },
    {
      "inputs": [],
      "name": "category",
      "outputs": [
        {
          "internalType": "enum IStrategyRouter.RouterCategory",
          "name": "",
          "type": "uint8"
        }
      ],
      "stateMutability": "view",
      "type": "function"
    },
    {
      "inputs": [],
      "name": "controller",
      "outputs": [
        {
          "internalType": "contract IStrategyController",
          "name": "",
          "type": "address"
        }
      ],
      "stateMutability": "view",
      "type": "function"
    },
    {
      "inputs": [
        {
          "internalType": "address",
          "name": "adapter",
          "type": "address"
        },
        {
          "internalType": "uint256",
          "name": "amount",
          "type": "uint256"
        },
        {
          "internalType": "uint256",
          "name": "expected",
          "type": "uint256"
        },
        {
          "internalType": "address",
          "name": "tokenIn",
          "type": "address"
        },
        {
          "internalType": "address",
          "name": "tokenOut",
          "type": "address"
        },
        {
          "internalType": "address",
          "name": "from",
          "type": "address"
        },
        {
          "internalType": "address",
          "name": "to",
          "type": "address"
        }
      ],
      "name": "delegateSwap",
      "outputs": [],
      "stateMutability": "nonpayable",
      "type": "function"
    },
    {
      "inputs": [
        {
          "internalType": "address",
          "name": "",
          "type": "address"
        },
        {
          "internalType": "bytes",
          "name": "data",
          "type": "bytes"
        }
      ],
      "name": "deposit",
      "outputs": [],
      "stateMutability": "nonpayable",
      "type": "function"
    },
    {
      "inputs": [
        {
          "components": [
            {
              "internalType": "address",
              "name": "target",
              "type": "address"
            },
            {
              "internalType": "bytes",
              "name": "callData",
              "type": "bytes"
            }
          ],
          "internalType": "struct Multicall.Call[]",
          "name": "calls",
          "type": "tuple[]"
        }
      ],
      "name": "encodeCalls",
      "outputs": [
        {
          "internalType": "bytes",
          "name": "data",
          "type": "bytes"
        }
      ],
      "stateMutability": "pure",
      "type": "function"
    },
    {
      "inputs": [
        {
          "internalType": "address",
          "name": "",
          "type": "address"
        },
        {
          "internalType": "bytes",
          "name": "data",
          "type": "bytes"
        }
      ],
      "name": "rebalance",
      "outputs": [],
      "stateMutability": "nonpayable",
      "type": "function"
    },
    {
      "inputs": [
        {
          "internalType": "address",
          "name": "",
          "type": "address"
        },
        {
          "internalType": "bytes",
          "name": "data",
          "type": "bytes"
        }
      ],
      "name": "restructure",
      "outputs": [],
      "stateMutability": "nonpayable",
      "type": "function"
    },
    {
      "inputs": [
        {
          "internalType": "address",
          "name": "adapter",
          "type": "address"
        },
        {
          "internalType": "address",
          "name": "tokenIn",
          "type": "address"
        },
        {
          "internalType": "address",
          "name": "tokenOut",
          "type": "address"
        },
        {
          "internalType": "address",
          "name": "from",
          "type": "address"
        },
        {
          "internalType": "address",
          "name": "to",
          "type": "address"
        }
      ],
      "name": "settleSwap",
      "outputs": [],
      "stateMutability": "nonpayable",
      "type": "function"
    },
    {
      "inputs": [
        {
          "internalType": "address",
          "name": "token",
          "type": "address"
        },
        {
          "internalType": "address",
          "name": "to",
          "type": "address"
        }
      ],
      "name": "settleTransfer",
      "outputs": [],
      "stateMutability": "nonpayable",
      "type": "function"
    },
    {
      "inputs": [
        {
          "internalType": "address",
          "name": "token",
          "type": "address"
        },
        {
          "internalType": "address",
          "name": "from",
          "type": "address"
        },
        {
          "internalType": "address",
          "name": "to",
          "type": "address"
        }
      ],
      "name": "settleTransferFrom",
      "outputs": [],
      "stateMutability": "nonpayable",
      "type": "function"
    },
    {
      "inputs": [],
      "name": "weth",
      "outputs": [
        {
          "internalType": "address",
          "name": "",
          "type": "address"
        }
      ],
      "stateMutability": "view",
      "type": "function"
    },
    {
      "inputs": [
        {
          "internalType": "address",
          "name": "",
          "type": "address"
        },
        {
          "internalType": "bytes",
          "name": "data",
          "type": "bytes"
        }
      ],
      "name": "withdraw",
      "outputs": [],
      "stateMutability": "nonpayable",
      "type": "function"
    }
  ],
  "bytecode": "0x60806040523480156200001157600080fd5b506040516200166b3803806200166b833981016040819052620000349162000172565b600080546001600160a81b0319166101006001600160a01b03848116820292909217808455604080516307dc0d1d60e41b8152905186949390920490921691637dc0d1d0916004808301926020929190829003018186803b1580156200009957600080fd5b505afa158015620000ae573d6000803e3d6000fd5b505050506040513d601f19601f82011682018060405250810190620000d4919062000172565b6001600160a01b0316633fc8cef36040518163ffffffff1660e01b815260040160206040518083038186803b1580156200010d57600080fd5b505afa15801562000122573d6000803e3d6000fd5b505050506040513d601f19601f8201168201806040525081019062000148919062000172565b600180546001600160a01b0319166001600160a01b039290921691909117905550620001b1915050565b60006020828403121562000184578081fd5b8151620001918162000198565b9392505050565b6001600160a01b0381168114620001ae57600080fd5b50565b6114aa80620001c16000396000f3fe608060405234801561001057600080fd5b50600436106100af5760003560e01c806319a83f92146100b45780633fc8cef3146100d25780634031d095146100e75780634438a7eb146100fa5780634bb78b141461010f5780638005168d14610122578063ba11d5d014610135578063beff455314610148578063c5067ad41461015b578063cf2c52cb14610135578063ea1ea75e14610135578063ef430aa61461016e578063f77c479114610183575b600080fd5b6100bc61018b565b6040516100c99190611209565b60405180910390f35b6100da6101b2565b6040516100c991906110da565b6100bc6100f5366004610dd0565b6101c1565b61010d610108366004610d4d565b6101ed565b005b61010d61011d366004610c81565b610232565b61010d610130366004610c11565b610281565b61010d610143366004610d00565b610344565b61010d610156366004610b8f565b61039a565b61010d610169366004610bc7565b61043f565b6101766104e5565b6040516100c9919061121c565b6100da6104ee565b6040518060400160405280600b81526020016a026bab63a34b1b0b6361d160ad1b81525081565b6001546001600160a01b031681565b606082826040516020016101d692919061112b565b604051602081830303815290604052905092915050565b6101f5610502565b61020487878787878787610523565b6102295760405162461bcd60e51b815260040161022090611259565b60405180910390fd5b50505050505050565b60005461010090046001600160a01b031633146102615760405162461bcd60e51b815260040161022090611230565b606061026f82840184610e3e565b905061027a816106d2565b5050505050565b610289610502565b6040516370a0823160e01b81526000906001600160a01b038616906370a08231906102b89086906004016110da565b60206040518083038186803b1580156102d057600080fd5b505afa1580156102e4573d6000803e3d6000fd5b505050506040513d601f19601f82011682018060405250810190610308919061104b565b9050801561033c576103208682600088888888610523565b61033c5760405162461bcd60e51b815260040161022090611259565b505050505050565b60005461010090046001600160a01b031633146103735760405162461bcd60e51b815260040161022090611230565b6060818060200190518101906103899190610f11565b9050610394816106d2565b50505050565b6103a2610502565b6040516370a0823160e01b815282906000906001600160a01b038316906370a08231906103d39030906004016110da565b60206040518083038186803b1580156103eb57600080fd5b505afa1580156103ff573d6000803e3d6000fd5b505050506040513d601f19601f82011682018060405250810190610423919061104b565b90508015610394576103946001600160a01b0383168483610807565b610447610502565b6040516370a0823160e01b815283906000906001600160a01b038316906370a08231906104789087906004016110da565b60206040518083038186803b15801561049057600080fd5b505afa1580156104a4573d6000803e3d6000fd5b505050506040513d601f19601f820116820180604052508101906104c8919061104b565b9050801561027a5761027a6001600160a01b038316858584610862565b60005460ff1681565b60005461010090046001600160a01b031681565b3330146105215760405162461bcd60e51b81526004016102209061127e565b565b60008060019054906101000a90046001600160a01b03166001600160a01b03166393e59dc16040518163ffffffff1660e01b815260040160206040518083038186803b15801561057257600080fd5b505afa158015610586573d6000803e3d6000fd5b505050506040513d601f19601f820116820180604052508101906105aa9190610ff5565b6001600160a01b031663d8b964e6896040518263ffffffff1660e01b81526004016105d591906110da565b60206040518083038186803b1580156105ed57600080fd5b505afa158015610601573d6000803e3d6000fd5b505050506040513d601f19601f820116820180604052508101906106259190610fd5565b6106415760405162461bcd60e51b8152600401610220906112eb565b60607f230f11c7cc54d258ee9bfebf8292225b43b26633217971638b4a8364be584e1788888888888860405160240161067f96959493929190611392565b60408051601f198184030181529190526020810180516001600160e01b03166001600160e01b031990931692909217909152905060005a90506000808351602085018d85f49a9950505050505050505050565b606081516001600160401b03811180156106eb57600080fd5b5060405190808252806020026020018201604052801561071f57816020015b606081526020019060019003908161070a5790505b50905060005b825181101561080157610736610ad7565b83828151811061074257fe5b602002602001015190506000606082600001516001600160a01b03168360200151604051610770919061108f565b6000604051808303816000865af19150503d80600081146107ad576040519150601f19603f3d011682016040523d82523d6000602084013e6107b2565b606091505b5091509150816107de576107c581610883565b60405162461bcd60e51b81526004016102209190611209565b808585815181106107eb57fe5b6020908102919091010152505050600101610725565b50919050565b61085d8363a9059cbb60e01b8484604051602401610826929190611112565b60408051601f198184030181529190526020810180516001600160e01b03166001600160e01b0319909316929092179091526108df565b505050565b610394846323b872dd60e01b858585604051602401610826939291906110ee565b60608061088f8361096e565b90506040518060400160405280600b81526020016a026bab63a34b1b0b6361d160ad1b815250816040516020016108c79291906110ab565b6040516020818303038152906040529150505b919050565b6060610934826040518060400160405280602081526020017f5361666545524332303a206c6f772d6c6576656c2063616c6c206661696c6564815250856001600160a01b03166109be9092919063ffffffff16565b80519091501561085d57808060200190518101906109529190610fd5565b61085d5760405162461bcd60e51b815260040161022090611348565b60606044825110156109a4575060408051808201909152600d81526c4e6f20726576657274206d736760981b60208201526108da565b818060200190518101906109b89190611011565b92915050565b60606109cd84846000856109d7565b90505b9392505050565b6060824710156109f95760405162461bcd60e51b8152600401610220906112a5565b610a0285610a98565b610a1e5760405162461bcd60e51b815260040161022090611311565b60006060866001600160a01b03168587604051610a3b919061108f565b60006040518083038185875af1925050503d8060008114610a78576040519150601f19603f3d011682016040523d82523d6000602084013e610a7d565b606091505b5091509150610a8d828286610a9e565b979650505050505050565b3b151590565b60608315610aad5750816109d0565b825115610abd5782518084602001fd5b8160405162461bcd60e51b81526004016102209190611209565b60408051808201909152600081526060602082015290565b600082601f830112610aff578081fd5b8135610b12610b0d8261140d565b6113c8565b9150808252836020828501011115610b2957600080fd5b8060208401602084013760009082016020015292915050565b600082601f830112610b52578081fd5b8151610b60610b0d8261140d565b9150808252836020828501011115610b7757600080fd5b610b88816020840160208601611430565b5092915050565b60008060408385031215610ba1578182fd5b8235610bac8161145c565b91506020830135610bbc8161145c565b809150509250929050565b600080600060608486031215610bdb578081fd5b8335610be68161145c565b92506020840135610bf68161145c565b91506040840135610c068161145c565b809150509250925092565b600080600080600060a08688031215610c28578081fd5b8535610c338161145c565b94506020860135610c438161145c565b93506040860135610c538161145c565b92506060860135610c638161145c565b91506080860135610c738161145c565b809150509295509295909350565b600080600060408486031215610c95578283fd5b8335610ca08161145c565b925060208401356001600160401b0380821115610cbb578384fd5b818601915086601f830112610cce578384fd5b813581811115610cdc578485fd5b876020828501011115610ced578485fd5b6020830194508093505050509250925092565b60008060408385031215610d12578182fd5b8235610d1d8161145c565b915060208301356001600160401b03811115610d37578182fd5b610d4385828601610aef565b9150509250929050565b600080600080600080600060e0888a031215610d67578182fd5b8735610d728161145c565b965060208801359550604088013594506060880135610d908161145c565b93506080880135610da08161145c565b925060a0880135610db08161145c565b915060c0880135610dc08161145c565b8091505092959891949750929550565b60008060208385031215610de2578182fd5b82356001600160401b0380821115610df8578384fd5b818501915085601f830112610e0b578384fd5b813581811115610e19578485fd5b8660208083028501011115610e2c578485fd5b60209290920196919550909350505050565b60006020808385031215610e50578182fd5b82356001600160401b0380821115610e66578384fd5b818501915085601f830112610e79578384fd5b8135610e87610b0d826113ee565b81815284810190848601875b84811015610f025781358701604080601f19838f03011215610eb3578a8bfd5b610ebc816113c8565b8a830135610ec98161145c565b8152908201359088821115610edc578b8cfd5b610eea8e8c84860101610aef565b818c0152865250509287019290870190600101610e93565b50909998505050505050505050565b60006020808385031215610f23578182fd5b82516001600160401b0380821115610f39578384fd5b818501915085601f830112610f4c578384fd5b8151610f5a610b0d826113ee565b81815284810190848601875b84811015610f025781518701604080601f19838f03011215610f86578a8bfd5b610f8f816113c8565b8a830151610f9c8161145c565b8152908201519088821115610faf578b8cfd5b610fbd8e8c84860101610b42565b818c0152865250509287019290870190600101610f66565b600060208284031215610fe6578081fd5b815180151581146109d0578182fd5b600060208284031215611006578081fd5b81516109d08161145c565b600060208284031215611022578081fd5b81516001600160401b03811115611037578182fd5b61104384828501610b42565b949350505050565b60006020828403121561105c578081fd5b5051919050565b6000815180845261107b816020860160208601611430565b601f01601f19169290920160200192915050565b600082516110a1818460208701611430565b9190910192915050565b600083516110bd818460208801611430565b8351908301906110d1818360208801611430565b01949350505050565b6001600160a01b0391909116815260200190565b6001600160a01b039384168152919092166020820152604081019190915260600190565b6001600160a01b03929092168252602082015260400190565b602080825281810183905260009060408084018583028501820187855b888110156111fb57878303603f190184528135368b9003603e1901811261116d578788fd5b8a01803561117a8161145c565b6001600160a01b031684528087013536829003601e1901811261119b578889fd5b810180356001600160401b038111156111b257898afd5b8036038313156111c057898afd5b8789870152808887015260609250808983018488013785810183018a905295880195601f01601f191690940101925090850190600101611148565b509098975050505050505050565b6000602082526109d06020830184611063565b602081016004831061122a57fe5b91905290565b6020808252600f908201526e27b7363c9031b7b73a3937b63632b960891b604082015260600190565b6020808252600b908201526a14ddd85c0819985a5b195960aa1b604082015260600190565b6020808252600d908201526c13db9b1e481a5b9d195c9b985b609a1b604082015260600190565b60208082526026908201527f416464726573733a20696e73756666696369656e742062616c616e636520666f6040820152651c8818d85b1b60d21b606082015260800190565b6020808252600c908201526b139bdd08185c1c1c9bdd995960a21b604082015260600190565b6020808252601d908201527f416464726573733a2063616c6c20746f206e6f6e2d636f6e7472616374000000604082015260600190565b6020808252602a908201527f5361666545524332303a204552433230206f7065726174696f6e20646964206e6040820152691bdd081cdd58d8d9595960b21b606082015260800190565b95865260208601949094526001600160a01b0392831660408601529082166060850152811660808401521660a082015260c00190565b6040518181016001600160401b03811182821017156113e657600080fd5b604052919050565b60006001600160401b03821115611403578081fd5b5060209081020190565b60006001600160401b03821115611422578081fd5b50601f01601f191660200190565b60005b8381101561144b578181015183820152602001611433565b838111156103945750506000910152565b6001600160a01b038116811461147157600080fd5b5056fea264697066735822122032a8a7ea4e545746b08392000cb9cc31b19ee411ca06bd2b94744a65230004c964736f6c634300060c0033",
  "linkReferences": {},
  "deployedLinkReferences": {}
}