{
  "_format": "hh-sol-artifact-1",
  "contractName": "UniswapV3Oracle",
  "sourceName": "contracts/oracles/protocols/UniswapV3Oracle.sol",
  "abi": [
    {
      "inputs": [
        {
          "internalType": "address",
          "name": "registry_",
          "type": "address"
        },
        {
          "internalType": "address",
          "name": "weth_",
          "type": "address"
        }
      ],
      "stateMutability": "nonpayable",
      "type": "constructor"
    },
    {
      "inputs": [
        {
          "internalType": "uint256",
          "name": "amount",
          "type": "uint256"
        },
        {
          "internalType": "address",
          "name": "input",
          "type": "address"
        }
      ],
      "name": "consult",
      "outputs": [
        {
          "internalType": "uint256",
          "name": "",
          "type": "uint256"
        }
      ],
      "stateMutability": "view",
      "type": "function"
    },
    {
      "inputs": [
        {
          "internalType": "address",
          "name": "account",
          "type": "address"
        },
        {
          "internalType": "address[]",
          "name": "tokens",
          "type": "address[]"
        }
      ],
      "name": "estimateTotal",
      "outputs": [
        {
          "internalType": "uint256",
          "name": "",
          "type": "uint256"
        },
        {
          "internalType": "uint256[]",
          "name": "",
          "type": "uint256[]"
        }
      ],
      "stateMutability": "view",
      "type": "function"
    },
    {
      "inputs": [],
      "name": "registry",
      "outputs": [
        {
          "internalType": "contract IUniswapV3Registry",
          "name": "",
          "type": "address"
        }
      ],
      "stateMutability": "view",
      "type": "function"
    },
    {
      "inputs": [],
      "name": "weth",
      "outputs": [
        {
          "internalType": "address",
          "name": "",
          "type": "address"
        }
      ],
      "stateMutability": "view",
      "type": "function"
    }
  ],
  "bytecode": "0x60c060405234801561001057600080fd5b50604051610fd0380380610fd083398101604081905261002f91610069565b6001600160601b0319606092831b811660a052911b1660805261009b565b80516001600160a01b038116811461006457600080fd5b919050565b6000806040838503121561007b578182fd5b6100848361004d565b91506100926020840161004d565b90509250929050565b60805160601c60a05160601c610efa6100d66000398060de52806102e7528061046452508060ba528061028552806104135250610efa6000f3fe608060405234801561001057600080fd5b506004361061004c5760003560e01c80633fc8cef3146100515780637b1039991461006f578063d077bf3214610077578063ebe680c414610098575b600080fd5b6100596100b8565b6040516100669190610dc3565b60405180910390f35b6100596100dc565b61008a610085366004610bab565b610100565b604051610066929190610e2a565b6100ab6100a6366004610d94565b610281565b6040516100669190610e21565b7f000000000000000000000000000000000000000000000000000000000000000081565b7f000000000000000000000000000000000000000000000000000000000000000081565b60006060600080845167ffffffffffffffff8111801561011f57600080fd5b50604051908082528060200260200182016040528015610149578160200160208202803683370190505b50855190915060005b81811015610274576000806001600160a01b031688838151811061017257fe5b60200260200101516001600160a01b0316141561019a57506001600160a01b03881631610247565b6102448883815181106101a957fe5b60200260200101516001600160a01b03166370a082318b6040518263ffffffff1660e01b815260040180826001600160a01b0316815260200191505060206040518083038186803b1580156101fd57600080fd5b505afa158015610211573d6000803e3d6000fd5b505050506040513d602081101561022757600080fd5b505189518a908590811061023757fe5b6020026020010151610281565b90505b6102518582610391565b94508084838151811061026057fe5b602090810291909101015250600101610152565b5091969095509350505050565b60007f00000000000000000000000000000000000000000000000000000000000000006001600160a01b0316826001600160a01b031614806102c1575082155b156102cd57508161038b565b6040516313d21cdf60e01b81526000906001600160a01b037f000000000000000000000000000000000000000000000000000000000000000016906313d21cdf9061031c908690600401610dc3565b60606040518083038186803b15801561033457600080fd5b505afa158015610348573d6000803e3d6000fd5b505050506040513d601f19601f8201168201806040525081019061036c9190610d21565b905061038784848360200151846000015185604001516103f2565b9150505b92915050565b6000828201838110156103eb576040805162461bcd60e51b815260206004820152601b60248201527f536166654d6174683a206164646974696f6e206f766572666c6f770000000000604482015290519081900360640190fd5b9392505050565b6000806103ff8484610513565b9050600061040f828989896105e6565b90507f00000000000000000000000000000000000000000000000000000000000000006001600160a01b0316866001600160a01b031614610508576040516313d21cdf60e01b81526000906001600160a01b037f000000000000000000000000000000000000000000000000000000000000000016906313d21cdf90610499908a90600401610dc3565b60606040518083038186803b1580156104b157600080fd5b505afa1580156104c5573d6000803e3d6000fd5b505050506040513d601f19601f820116820180604052508101906104e99190610d21565b905061050482888360200151846000015185604001516103f2565b9150505b979650505050505050565b600080836001600160a01b031663883bdbfd61052e856106dd565b6040518263ffffffff1660e01b815260040161054a9190610dd7565b60006040518083038186803b15801561056257600080fd5b505afa158015610576573d6000803e3d6000fd5b505050506040513d6000823e601f3d908101601f1916820160405261059e9190810190610c59565b5090508263ffffffff16816000815181106105b557fe5b6020026020010151826001815181106105ca57fe5b60200260200101510360060b816105dd57fe5b05949350505050565b6000806105f286610755565b90506001600160801b036001600160a01b03821611610661576001600160a01b03808216800290848116908616106106415761063c600160c01b876001600160801b031683610a87565b610659565b61065981876001600160801b0316600160c01b610a87565b9250506106d4565b60006106806001600160a01b0383168068010000000000000000610a87565b9050836001600160a01b0316856001600160a01b0316106106b8576106b3600160801b876001600160801b031683610a87565b6106d0565b6106d081876001600160801b0316600160801b610a87565b9250505b50949350505050565b60408051600280825260608083018452926000929190602083019080368337019050509050828160008151811061071057fe5b602002602001019063ffffffff16908163ffffffff168152505060008160018151811061073957fe5b63ffffffff909216602092830291909101909101529050919050565b60008060008360020b1261076c578260020b610774565b8260020b6000035b9050620d89e88111156107b2576040805162461bcd60e51b81526020600482015260016024820152601560fa1b604482015290519081900360640190fd5b6000600182166107c657600160801b6107d8565b6ffffcb933bd6fad37aa2d162d1a5940015b70ffffffffffffffffffffffffffffffffff169050600282161561080c576ffff97272373d413259a46990580e213a0260801c5b600482161561082b576ffff2e50f5f656932ef12357cf3c7fdcc0260801c5b600882161561084a576fffe5caca7e10e4e61c3624eaa0941cd00260801c5b6010821615610869576fffcb9843d60f6159c9db58835c9266440260801c5b6020821615610888576fff973b41fa98c081472e6896dfb254c00260801c5b60408216156108a7576fff2ea16466c96a3843ec78b326b528610260801c5b60808216156108c6576ffe5dee046a99a2a811c461f1969c30530260801c5b6101008216156108e6576ffcbe86c7900a88aedcffc83b479aa3a40260801c5b610200821615610906576ff987a7253ac413176f2b074cf7815e540260801c5b610400821615610926576ff3392b0822b70005940c7a398e4b70f30260801c5b610800821615610946576fe7159475a2c29b7443b29c7fa6e889d90260801c5b611000821615610966576fd097f3bdfd2022b8845ad8f792aa58250260801c5b612000821615610986576fa9f746462d870fdf8a65dc1f90e061e50260801c5b6140008216156109a6576f70d869a156d2a1b890bb3df62baf32f70260801c5b6180008216156109c6576f31be135f97d08fd981231505542fcfa60260801c5b620100008216156109e7576f09aa508b5b7a84e1c677de54f3e99bc90260801c5b62020000821615610a07576e5d6af8dedb81196699c329225ee6040260801c5b62040000821615610a26576d2216e584f5fa1ea926041bedfe980260801c5b62080000821615610a43576b048a170391f7dc42444e8fa20260801c5b60008460020b1315610a5e578060001981610a5a57fe5b0490505b640100000000810615610a72576001610a75565b60005b60ff16602082901c0192505050919050565b6000808060001985870986860292508281109083900303905080610abd5760008411610ab257600080fd5b5082900490506103eb565b808411610ac957600080fd5b6000848688096000868103871696879004966002600389028118808a02820302808a02820302808a02820302808a02820302808a02820302808a02909103029181900381900460010186841190950394909402919094039290920491909117919091029150509392505050565b600082601f830112610b46578081fd5b81516020610b5b610b5683610e8e565b610e6a565b8281528181019085830183850287018401881015610b77578586fd5b855b85811015610b9e578151610b8c81610eac565b84529284019290840190600101610b79565b5090979650505050505050565b60008060408385031215610bbd578182fd5b8235610bc881610eac565b915060208381013567ffffffffffffffff811115610be4578283fd5b8401601f81018613610bf4578283fd5b8035610c02610b5682610e8e565b81815283810190838501858402850186018a1015610c1e578687fd5b8694505b83851015610c49578035610c3581610eac565b835260019490940193918501918501610c22565b5080955050505050509250929050565b60008060408385031215610c6b578182fd5b825167ffffffffffffffff80821115610c82578384fd5b818501915085601f830112610c95578384fd5b81516020610ca5610b5683610e8e565b82815281810190858301838502870184018b1015610cc1578889fd5b8896505b84871015610cf15780518060060b8114610cdd57898afd5b835260019690960195918301918301610cc5565b5091880151919650909350505080821115610d0a578283fd5b50610d1785828601610b36565b9150509250929050565b600060608284031215610d32578081fd5b6040516060810181811067ffffffffffffffff82111715610d4f57fe5b6040528251610d5d81610eac565b81526020830151610d6d81610eac565b6020820152604083015163ffffffff81168114610d88578283fd5b60408201529392505050565b60008060408385031215610da6578182fd5b823591506020830135610db881610eac565b809150509250929050565b6001600160a01b0391909116815260200190565b6020808252825182820181905260009190848201906040850190845b81811015610e1557835163ffffffff1683529284019291840191600101610df3565b50909695505050505050565b90815260200190565b60006040820184835260206040818501528185518084526060860191508287019350845b81811015610b9e57845183529383019391830191600101610e4e565b60405181810167ffffffffffffffff81118282101715610e8657fe5b604052919050565b600067ffffffffffffffff821115610ea257fe5b5060209081020190565b6001600160a01b0381168114610ec157600080fd5b5056fea2646970667358221220c792b4737ab93331c801df84033e4bee37bd184e43f00385bd2c283069c72d2064736f6c63430007060033",
  "linkReferences": {},
  "deployedLinkReferences": {}
}