{
  "_format": "hh-sol-artifact-1",
  "contractName": "UniswapV3Oracle",
  "sourceName": "contracts/oracles/protocols/UniswapV3Oracle.sol",
  "abi": [
    {
      "inputs": [
        {
          "internalType": "address",
          "name": "registry_",
          "type": "address"
        }
      ],
      "stateMutability": "nonpayable",
      "type": "constructor"
    },
    {
      "inputs": [
        {
          "internalType": "uint256",
          "name": "amount",
          "type": "uint256"
        },
        {
          "internalType": "address",
          "name": "input",
          "type": "address"
        }
      ],
      "name": "consult",
      "outputs": [
        {
          "internalType": "uint256",
          "name": "",
          "type": "uint256"
        }
      ],
      "stateMutability": "view",
      "type": "function"
    },
    {
      "inputs": [
        {
          "internalType": "address",
          "name": "account",
          "type": "address"
        },
        {
          "internalType": "address[]",
          "name": "tokens",
          "type": "address[]"
        }
      ],
      "name": "estimateTotal",
      "outputs": [
        {
          "internalType": "uint256",
          "name": "",
          "type": "uint256"
        },
        {
          "internalType": "uint256[]",
          "name": "",
          "type": "uint256[]"
        }
      ],
      "stateMutability": "view",
      "type": "function"
    },
    {
      "inputs": [],
      "name": "registry",
      "outputs": [
        {
          "internalType": "contract IUniswapV3Registry",
          "name": "",
          "type": "address"
        }
      ],
      "stateMutability": "view",
      "type": "function"
    },
    {
      "inputs": [],
      "name": "weth",
      "outputs": [
        {
          "internalType": "address",
          "name": "",
          "type": "address"
        }
      ],
      "stateMutability": "view",
      "type": "function"
    }
  ],
  "bytecode": "0x608060405234801561001057600080fd5b50604051610ff5380380610ff583398101604081905261002f916100e9565b600180546001600160a01b0319166001600160a01b03838116919091179182905560408051633fc8cef360e01b815290519290911691633fc8cef391600480820192602092909190829003018186803b15801561008b57600080fd5b505afa15801561009f573d6000803e3d6000fd5b505050506040513d601f19601f820116820180604052508101906100c391906100e9565b600080546001600160a01b0319166001600160a01b039290921691909117905550610117565b6000602082840312156100fa578081fd5b81516001600160a01b0381168114610110578182fd5b9392505050565b610ecf806101266000396000f3fe608060405234801561001057600080fd5b506004361061004c5760003560e01c80633fc8cef3146100515780637b1039991461006f578063d077bf3214610077578063ebe680c414610098575b600080fd5b6100596100b8565b6040516100669190610d9a565b60405180910390f35b6100596100c7565b61008a610085366004610b7c565b6100d6565b604051610066929190610e01565b6100ab6100a6366004610d47565b610253565b6040516100669190610df8565b6000546001600160a01b031681565b6001546001600160a01b031681565b6000606060008084516001600160401b03811180156100f457600080fd5b5060405190808252806020026020018201604052801561011e578160200160208202803683370190505b50905060005b8551811015610247576000806001600160a01b031687838151811061014557fe5b60200260200101516001600160a01b0316141561016d57506001600160a01b0387163161021a565b61021787838151811061017c57fe5b60200260200101516001600160a01b03166370a082318a6040518263ffffffff1660e01b815260040180826001600160a01b0316815260200191505060206040518083038186803b1580156101d057600080fd5b505afa1580156101e4573d6000803e3d6000fd5b505050506040513d60208110156101fa57600080fd5b5051885189908590811061020a57fe5b6020026020010151610253565b90505b61022484826103ba565b93508083838151811061023357fe5b602090810291909101015250600101610124565b50909590945092505050565b600080546001600160a01b038381169116148061026e575082155b1561027a5750816103b4565b6001546040516313d21cdf60e01b81526000916001600160a01b0316906313d21cdf906102ab908690600401610d9a565b604080518083038186803b1580156102c257600080fd5b505afa1580156102d6573d6000803e3d6000fd5b505050506040513d601f19601f820116820180604052508101906102fa9190610cf0565b80519091506001600160a01b03166103165760009150506103b4565b6103b0848483602001518460000151600160009054906101000a90046001600160a01b03166001600160a01b031663d2f343c76040518163ffffffff1660e01b815260040160206040518083038186803b15801561037357600080fd5b505afa158015610387573d6000803e3d6000fd5b505050506040513d601f19601f820116820180604052508101906103ab9190610d76565b610419565b9150505b92915050565b600082820183811015610412576040805162461bcd60e51b815260206004820152601b60248201527a536166654d6174683a206164646974696f6e206f766572666c6f7760281b604482015290519081900360640190fd5b9392505050565b60008061042684846104f4565b90506000610436828989896105c7565b6000549091506001600160a01b038781169116146104e9576001546040516313d21cdf60e01b81526000916001600160a01b0316906313d21cdf9061047f908a90600401610d9a565b604080518083038186803b15801561049657600080fd5b505afa1580156104aa573d6000803e3d6000fd5b505050506040513d601f19601f820116820180604052508101906104ce9190610cf0565b90506104e582888360200151846000015189610419565b9150505b979650505050505050565b600080836001600160a01b031663883bdbfd61050f856106b9565b6040518263ffffffff1660e01b815260040161052b9190610dae565b60006040518083038186803b15801561054357600080fd5b505afa158015610557573d6000803e3d6000fd5b505050506040513d6000823e601f3d908101601f1916820160405261057f9190810190610c29565b5090508263ffffffff168160008151811061059657fe5b6020026020010151826001815181106105ab57fe5b60200260200101510360060b816105be57fe5b05949350505050565b6000806105d386610731565b90506001600160801b036001600160a01b03821611610642576001600160a01b03808216800290848116908616106106225761061d600160c01b876001600160801b031683610a58565b61063a565b61063a81876001600160801b0316600160c01b610a58565b9250506106b0565b600061065c6001600160a01b03831680600160401b610a58565b9050836001600160a01b0316856001600160a01b0316106106945761068f600160801b876001600160801b031683610a58565b6106ac565b6106ac81876001600160801b0316600160801b610a58565b9250505b50949350505050565b6040805160028082526060808301845292600092919060208301908036833701905050905082816000815181106106ec57fe5b602002602001019063ffffffff16908163ffffffff168152505060008160018151811061071557fe5b63ffffffff909216602092830291909101909101529050919050565b60008060008360020b12610748578260020b610750565b8260020b6000035b9050620d89e881111561078e576040805162461bcd60e51b81526020600482015260016024820152601560fa1b604482015290519081900360640190fd5b6000600182166107a257600160801b6107b4565b6ffffcb933bd6fad37aa2d162d1a5940015b6001600160881b0316905060028216156107de576ffff97272373d413259a46990580e213a0260801c5b60048216156107fd576ffff2e50f5f656932ef12357cf3c7fdcc0260801c5b600882161561081c576fffe5caca7e10e4e61c3624eaa0941cd00260801c5b601082161561083b576fffcb9843d60f6159c9db58835c9266440260801c5b602082161561085a576fff973b41fa98c081472e6896dfb254c00260801c5b6040821615610879576fff2ea16466c96a3843ec78b326b528610260801c5b6080821615610898576ffe5dee046a99a2a811c461f1969c30530260801c5b6101008216156108b8576ffcbe86c7900a88aedcffc83b479aa3a40260801c5b6102008216156108d8576ff987a7253ac413176f2b074cf7815e540260801c5b6104008216156108f8576ff3392b0822b70005940c7a398e4b70f30260801c5b610800821615610918576fe7159475a2c29b7443b29c7fa6e889d90260801c5b611000821615610938576fd097f3bdfd2022b8845ad8f792aa58250260801c5b612000821615610958576fa9f746462d870fdf8a65dc1f90e061e50260801c5b614000821615610978576f70d869a156d2a1b890bb3df62baf32f70260801c5b618000821615610998576f31be135f97d08fd981231505542fcfa60260801c5b620100008216156109b9576f09aa508b5b7a84e1c677de54f3e99bc90260801c5b620200008216156109d9576e5d6af8dedb81196699c329225ee6040260801c5b620400008216156109f8576d2216e584f5fa1ea926041bedfe980260801c5b62080000821615610a15576b048a170391f7dc42444e8fa20260801c5b60008460020b1315610a30578060001981610a2c57fe5b0490505b600160201b810615610a43576001610a46565b60005b60ff16602082901c0192505050919050565b6000808060001985870986860292508281109083900303905080610a8e5760008411610a8357600080fd5b508290049050610412565b808411610a9a57600080fd5b6000848688096000868103871696879004966002600389028118808a02820302808a02820302808a02820302808a02820302808a02820302808a02909103029181900381900460010186841190950394909402919094039290920491909117919091029150509392505050565b600082601f830112610b17578081fd5b81516020610b2c610b2783610e64565b610e41565b8281528181019085830183850287018401881015610b48578586fd5b855b85811015610b6f578151610b5d81610e81565b84529284019290840190600101610b4a565b5090979650505050505050565b60008060408385031215610b8e578182fd5b8235610b9981610e81565b91506020838101356001600160401b03811115610bb4578283fd5b8401601f81018613610bc4578283fd5b8035610bd2610b2782610e64565b81815283810190838501858402850186018a1015610bee578687fd5b8694505b83851015610c19578035610c0581610e81565b835260019490940193918501918501610bf2565b5080955050505050509250929050565b60008060408385031215610c3b578182fd5b82516001600160401b0380821115610c51578384fd5b818501915085601f830112610c64578384fd5b81516020610c74610b2783610e64565b82815281810190858301838502870184018b1015610c90578889fd5b8896505b84871015610cc05780518060060b8114610cac57898afd5b835260019690960195918301918301610c94565b5091880151919650909350505080821115610cd9578283fd5b50610ce685828601610b07565b9150509250929050565b600060408284031215610d01578081fd5b604051604081018181106001600160401b0382111715610d1d57fe5b6040528251610d2b81610e81565b81526020830151610d3b81610e81565b60208201529392505050565b60008060408385031215610d59578182fd5b823591506020830135610d6b81610e81565b809150509250929050565b600060208284031215610d87578081fd5b815163ffffffff81168114610412578182fd5b6001600160a01b0391909116815260200190565b6020808252825182820181905260009190848201906040850190845b81811015610dec57835163ffffffff1683529284019291840191600101610dca565b50909695505050505050565b90815260200190565b60006040820184835260206040818501528185518084526060860191508287019350845b81811015610b6f57845183529383019391830191600101610e25565b6040518181016001600160401b0381118282101715610e5c57fe5b604052919050565b60006001600160401b03821115610e7757fe5b5060209081020190565b6001600160a01b0381168114610e9657600080fd5b5056fea2646970667358221220c4a54a98ab63808d5c63f69614c8d15d9cd80e9ec64202164f4b8ec29a3164dc64736f6c63430007060033",
  "linkReferences": {},
  "deployedLinkReferences": {}
}