{
  "_format": "hh-sol-artifact-1",
  "contractName": "EnsoOracle",
  "sourceName": "contracts/oracles/EnsoOracle.sol",
  "abi": [
    {
      "inputs": [
        {
          "internalType": "address",
          "name": "tokenRegistry_",
          "type": "address"
        },
        {
          "internalType": "address",
          "name": "weth_",
          "type": "address"
        },
        {
          "internalType": "address",
          "name": "susd_",
          "type": "address"
        }
      ],
      "stateMutability": "nonpayable",
      "type": "constructor"
    },
    {
      "anonymous": false,
      "inputs": [
        {
          "indexed": false,
          "internalType": "address",
          "name": "token",
          "type": "address"
        },
        {
          "indexed": false,
          "internalType": "uint256",
          "name": "price",
          "type": "uint256"
        }
      ],
      "name": "NewPrice",
      "type": "event"
    },
    {
      "inputs": [
        {
          "internalType": "address",
          "name": "user",
          "type": "address"
        },
        {
          "internalType": "address",
          "name": "token",
          "type": "address"
        }
      ],
      "name": "estimateItem",
      "outputs": [
        {
          "internalType": "int256",
          "name": "",
          "type": "int256"
        }
      ],
      "stateMutability": "view",
      "type": "function"
    },
    {
      "inputs": [
        {
          "internalType": "uint256",
          "name": "balance",
          "type": "uint256"
        },
        {
          "internalType": "address",
          "name": "token",
          "type": "address"
        }
      ],
      "name": "estimateItem",
      "outputs": [
        {
          "internalType": "int256",
          "name": "",
          "type": "int256"
        }
      ],
      "stateMutability": "view",
      "type": "function"
    },
    {
      "inputs": [
        {
          "internalType": "contract IStrategy[]",
          "name": "strategies",
          "type": "address[]"
        }
      ],
      "name": "estimateStrategies",
      "outputs": [
        {
          "internalType": "uint256[]",
          "name": "",
          "type": "uint256[]"
        }
      ],
      "stateMutability": "view",
      "type": "function"
    },
    {
      "inputs": [
        {
          "internalType": "contract IStrategy",
          "name": "strategy",
          "type": "address"
        }
      ],
      "name": "estimateStrategy",
      "outputs": [
        {
          "internalType": "uint256",
          "name": "",
          "type": "uint256"
        },
        {
          "internalType": "int256[]",
          "name": "",
          "type": "int256[]"
        }
      ],
      "stateMutability": "view",
      "type": "function"
    },
    {
      "inputs": [],
      "name": "susd",
      "outputs": [
        {
          "internalType": "address",
          "name": "",
          "type": "address"
        }
      ],
      "stateMutability": "view",
      "type": "function"
    },
    {
      "inputs": [],
      "name": "tokenRegistry",
      "outputs": [
        {
          "internalType": "contract ITokenRegistry",
          "name": "",
          "type": "address"
        }
      ],
      "stateMutability": "view",
      "type": "function"
    },
    {
      "inputs": [],
      "name": "weth",
      "outputs": [
        {
          "internalType": "address",
          "name": "",
          "type": "address"
        }
      ],
      "stateMutability": "view",
      "type": "function"
    }
  ],
  "bytecode": "0x60e060405234801561001057600080fd5b50604051610f19380380610f1983398101604081905261002f91610056565b6001600160601b0319606093841b811660c05291831b821660805290911b1660a0526100ba565b60008060006060848603121561006a578283fd5b8351610075816100a2565b6020850151909350610086816100a2565b6040850151909250610097816100a2565b809150509250925092565b6001600160a01b03811681146100b757600080fd5b50565b60805160601c60a05160601c60c05160601c610e0c61010d6000398061012e528061025d5280610299528061072b5250806103e95280610882528061091e52508061023952806105045250610e0c6000f3fe608060405234801561001057600080fd5b506004361061006d5760003560e01c80632a58188a146100725780633fc8cef31461009b5780639d23c4c7146100b0578063b44a043b146100b8578063b748752f146100cb578063c9257775146100eb578063ff4a1902146100f3575b600080fd5b610085610080366004610a5c565b610114565b6040516100929190610ca3565b60405180910390f35b6100a3610237565b6040516100929190610c31565b6100a361025b565b6100856100c6366004610c0d565b61027f565b6100de6100d9366004610b31565b61034b565b6040516100929190610c5f565b6100a36103e7565b610106610101366004610bd9565b61040b565b604051610092929190610d2c565b604051632aae806560e21b81526000906001600160a01b037f0000000000000000000000000000000000000000000000000000000000000000169063aaba019490610163908590600401610c31565b60206040518083038186803b15801561017b57600080fd5b505afa15801561018f573d6000803e3d6000fd5b505050506040513d601f19601f820116820180604052508101906101b39190610bbd565b6001600160a01b0316632a58188a84846040518363ffffffff1660e01b81526004016101e0929190610c45565b60206040518083038186803b1580156101f857600080fd5b505afa15801561020c573d6000803e3d6000fd5b505050506040513d601f19601f820116820180604052508101906102309190610bf5565b9392505050565b7f000000000000000000000000000000000000000000000000000000000000000081565b7f000000000000000000000000000000000000000000000000000000000000000081565b604051632aae806560e21b81526000906001600160a01b037f0000000000000000000000000000000000000000000000000000000000000000169063aaba0194906102ce908590600401610c31565b60206040518083038186803b1580156102e657600080fd5b505afa1580156102fa573d6000803e3d6000fd5b505050506040513d601f19601f8201168201806040525081019061031e9190610bbd565b6001600160a01b031663b44a043b84846040518363ffffffff1660e01b81526004016101e0929190610d15565b60608082516001600160401b038111801561036557600080fd5b5060405190808252806020026020018201604052801561038f578160200160208202803683370190505b50905060005b83518110156103e05760006103bc8583815181106103af57fe5b602002602001015161040b565b509050808383815181106103cc57fe5b602090810291909101015250600101610395565b5092915050565b7f000000000000000000000000000000000000000000000000000000000000000081565b6000606080836001600160a01b031663c06fad066040518163ffffffff1660e01b815260040160006040518083038186803b15801561044957600080fd5b505afa15801561045d573d6000803e3d6000fd5b505050506040513d6000823e601f3d908101601f191682016040526104859190810190610a94565b90506060846001600160a01b0316630dca59c16040518163ffffffff1660e01b815260040160006040518083038186803b1580156104c257600080fd5b505afa1580156104d6573d6000803e3d6000fd5b505050506040513d6000823e601f3d908101601f191682016040526104fe9190810190610a94565b905060007f00000000000000000000000000000000000000000000000000000000000000006001600160a01b03166370a08231876040518263ffffffff1660e01b815260040161054e9190610c31565b60206040518083038186803b15801561056657600080fd5b505afa15801561057a573d6000803e3d6000fd5b505050506040513d601f19601f8201168201806040525081019061059e9190610bf5565b9050606082518451016001016001600160401b03811180156105bf57600080fd5b506040519080825280602002602001820160405280156105e9578160200160208202803683370190505b50905060005b84518110156106465760006106178987848151811061060a57fe5b6020026020010151610114565b90506106238482610a16565b93508083838151811061063257fe5b6020908102919091010152506001016105ef565b5060005b83518110156106975760006106658986848151811061060a57fe5b90506106718482610a16565b93508083875184018151811061068357fe5b60209081029190910101525060010161064a565b506060876001600160a01b031663803c88906040518163ffffffff1660e01b815260040160006040518083038186803b1580156106d357600080fd5b505afa1580156106e7573d6000803e3d6000fd5b505050506040513d6000823e601f3d908101601f1916820160405261070f9190810190610a94565b8051909150156109df57604051632efa617160e21b81526000907f00000000000000000000000000000000000000000000000000000000000000006001600160a01b03169063bbe985c49061076990600190600401610ca3565b60206040518083038186803b15801561078157600080fd5b505afa158015610795573d6000803e3d6000fd5b505050506040513d601f19601f820116820180604052508101906107b99190610bbd565b90506000805b835181101561086d57610863836001600160a01b0316632a58188a8d8785815181106107e757fe5b60200260200101516040518363ffffffff1660e01b815260040161080c929190610c45565b60206040518083038186803b15801561082457600080fd5b505afa158015610838573d6000803e3d6000fd5b505050506040513d601f19601f8201168201806040525081019061085c9190610bf5565b8390610a16565b91506001016107bf565b506109b1826001600160a01b031663b44a043b7f00000000000000000000000000000000000000000000000000000000000000006001600160a01b03166370a082318e6040518263ffffffff1660e01b81526004016108cc9190610c31565b60206040518083038186803b1580156108e457600080fd5b505afa1580156108f8573d6000803e3d6000fd5b505050506040513d601f19601f8201168201806040525081019061091c9190610bf5565b7f00000000000000000000000000000000000000000000000000000000000000006040518363ffffffff1660e01b815260040161095a929190610d15565b60206040518083038186803b15801561097257600080fd5b505afa158015610986573d6000803e3d6000fd5b505050506040513d601f19601f820116820180604052508101906109aa9190610bf5565b8290610a16565b90506109bd8582610a16565b945080846001865103815181106109d057fe5b60200260200101818152505050505b6000831215610a095760405162461bcd60e51b8152600401610a0090610ced565b60405180910390fd5b5090945092505050915091565b6000828201818312801590610a2b5750838112155b80610a405750600083128015610a4057508381125b6102305760405162461bcd60e51b8152600401610a0090610cac565b60008060408385031215610a6e578182fd5b8235610a7981610dbe565b91506020830135610a8981610dbe565b809150509250929050565b60006020808385031215610aa6578182fd5b82516001600160401b03811115610abb578283fd5b8301601f81018513610acb578283fd5b8051610ade610ad982610d9f565b610d79565b8181528381019083850185840285018601891015610afa578687fd5b8694505b83851015610b25578051610b1181610dbe565b835260019490940193918501918501610afe565b50979650505050505050565b60006020808385031215610b43578182fd5b82356001600160401b03811115610b58578283fd5b8301601f81018513610b68578283fd5b8035610b76610ad982610d9f565b8181528381019083850185840285018601891015610b92578687fd5b8694505b83851015610b25578035610ba981610dbe565b835260019490940193918501918501610b96565b600060208284031215610bce578081fd5b815161023081610dbe565b600060208284031215610bea578081fd5b813561023081610dbe565b600060208284031215610c06578081fd5b5051919050565b60008060408385031215610c1f578182fd5b823591506020830135610a8981610dbe565b6001600160a01b0391909116815260200190565b6001600160a01b0392831681529116602082015260400190565b6020808252825182820181905260009190848201906040850190845b81811015610c9757835183529284019291840191600101610c7b565b50909695505050505050565b90815260200190565b60208082526021908201527f5369676e6564536166654d6174683a206164646974696f6e206f766572666c6f6040820152607760f81b606082015260800190565b6020808252600e908201526d139959d85d1a5d99481d1bdd185b60921b604082015260600190565b9182526001600160a01b0316602082015260400190565b60006040820184835260206040818501528185518084526060860191508287019350845b81811015610d6c57845183529383019391830191600101610d50565b5090979650505050505050565b6040518181016001600160401b0381118282101715610d9757600080fd5b604052919050565b60006001600160401b03821115610db4578081fd5b5060209081020190565b6001600160a01b0381168114610dd357600080fd5b5056fea2646970667358221220859af56776e271837a72f388a7829c548d8072b0cbdd04b012d7d9d2eb82750764736f6c634300060c0033",
  "linkReferences": {},
  "deployedLinkReferences": {}
}