{
  "_format": "hh-sol-artifact-1",
  "contractName": "EnsoOracle",
  "sourceName": "contracts/oracles/EnsoOracle.sol",
  "abi": [
    {
      "inputs": [
        {
          "internalType": "address",
          "name": "tokenRegistry_",
          "type": "address"
        },
        {
          "internalType": "address",
          "name": "weth_",
          "type": "address"
        },
        {
          "internalType": "address",
          "name": "susd_",
          "type": "address"
        }
      ],
      "stateMutability": "nonpayable",
      "type": "constructor"
    },
    {
      "anonymous": false,
      "inputs": [
        {
          "indexed": false,
          "internalType": "address",
          "name": "token",
          "type": "address"
        },
        {
          "indexed": false,
          "internalType": "uint256",
          "name": "price",
          "type": "uint256"
        }
      ],
      "name": "NewPrice",
      "type": "event"
    },
    {
      "inputs": [
        {
          "internalType": "uint256",
          "name": "balance",
          "type": "uint256"
        },
        {
          "internalType": "address",
          "name": "token",
          "type": "address"
        }
      ],
      "name": "estimateItem",
      "outputs": [
        {
          "internalType": "int256",
          "name": "",
          "type": "int256"
        }
      ],
      "stateMutability": "view",
      "type": "function"
    },
    {
      "inputs": [
        {
          "internalType": "contract IStrategy[]",
          "name": "strategies",
          "type": "address[]"
        }
      ],
      "name": "estimateStrategies",
      "outputs": [
        {
          "internalType": "uint256[]",
          "name": "",
          "type": "uint256[]"
        }
      ],
      "stateMutability": "view",
      "type": "function"
    },
    {
      "inputs": [
        {
          "internalType": "contract IStrategy",
          "name": "strategy",
          "type": "address"
        }
      ],
      "name": "estimateStrategy",
      "outputs": [
        {
          "internalType": "uint256",
          "name": "",
          "type": "uint256"
        },
        {
          "internalType": "int256[]",
          "name": "",
          "type": "int256[]"
        }
      ],
      "stateMutability": "view",
      "type": "function"
    },
    {
      "inputs": [],
      "name": "susd",
      "outputs": [
        {
          "internalType": "address",
          "name": "",
          "type": "address"
        }
      ],
      "stateMutability": "view",
      "type": "function"
    },
    {
      "inputs": [],
      "name": "tokenRegistry",
      "outputs": [
        {
          "internalType": "contract ITokenRegistry",
          "name": "",
          "type": "address"
        }
      ],
      "stateMutability": "view",
      "type": "function"
    },
    {
      "inputs": [],
      "name": "weth",
      "outputs": [
        {
          "internalType": "address",
          "name": "",
          "type": "address"
        }
      ],
      "stateMutability": "view",
      "type": "function"
    }
  ],
  "bytecode": "0x60e060405234801561001057600080fd5b50604051610f98380380610f9883398101604081905261002f91610056565b6001600160601b0319606093841b811660c05291831b821660805290911b1660a0526100ba565b60008060006060848603121561006a578283fd5b8351610075816100a2565b6020850151909350610086816100a2565b6040850151909250610097816100a2565b809150509250925092565b6001600160a01b03811681146100b757600080fd5b50565b60805160601c60a05160601c60c05160601c610e916101076000398061011c5280610158528061075f525080610301528061094452806109e052508060f8528061041c5250610e916000f3fe608060405234801561001057600080fd5b50600436106100625760003560e01c80633fc8cef3146100675780639d23c4c714610085578063b44a043b1461008d578063b748752f146100ad578063c9257775146100cd578063ff4a1902146100d5575b600080fd5b61006f6100f6565b60405161007c9190610cd0565b60405180910390f35b61006f61011a565b6100a061009b366004610ca1565b61013e565b60405161007c9190610d28565b6100c06100bb366004610bc6565b610263565b60405161007c9190610ce4565b61006f6102ff565b6100e86100e3366004610c6d565b610323565b60405161007c929190610db1565b7f000000000000000000000000000000000000000000000000000000000000000081565b7f000000000000000000000000000000000000000000000000000000000000000081565b604051632aae806560e21b81526000906001600160a01b037f0000000000000000000000000000000000000000000000000000000000000000169063aaba01949061018d908590600401610cd0565b60206040518083038186803b1580156101a557600080fd5b505afa1580156101b9573d6000803e3d6000fd5b505050506040513d601f19601f820116820180604052508101906101dd9190610c51565b6001600160a01b031663b44a043b84846040518363ffffffff1660e01b815260040161020a929190610d9a565b60206040518083038186803b15801561022257600080fd5b505afa158015610236573d6000803e3d6000fd5b505050506040513d601f19601f8201168201806040525081019061025a9190610c89565b90505b92915050565b60608082516001600160401b038111801561027d57600080fd5b506040519080825280602002602001820160405280156102a7578160200160208202803683370190505b50905060005b83518110156102f85760006102d48583815181106102c757fe5b6020026020010151610323565b509050808383815181106102e457fe5b6020908102919091010152506001016102ad565b5092915050565b7f000000000000000000000000000000000000000000000000000000000000000081565b6000606080836001600160a01b031663c06fad066040518163ffffffff1660e01b815260040160006040518083038186803b15801561036157600080fd5b505afa158015610375573d6000803e3d6000fd5b505050506040513d6000823e601f3d908101601f1916820160405261039d9190810190610b29565b90506060846001600160a01b0316630dca59c16040518163ffffffff1660e01b815260040160006040518083038186803b1580156103da57600080fd5b505afa1580156103ee573d6000803e3d6000fd5b505050506040513d6000823e601f3d908101601f191682016040526104169190810190610b29565b905060007f00000000000000000000000000000000000000000000000000000000000000006001600160a01b03166370a08231876040518263ffffffff1660e01b81526004016104669190610cd0565b60206040518083038186803b15801561047e57600080fd5b505afa158015610492573d6000803e3d6000fd5b505050506040513d601f19601f820116820180604052508101906104b69190610c89565b9050606082518451016001016001600160401b03811180156104d757600080fd5b50604051908082528060200260200182016040528015610501578160200160208202803683370190505b50905060005b84518110156105ec5760006105bd86838151811061052157fe5b60200260200101516001600160a01b03166370a082318b6040518263ffffffff1660e01b81526004016105549190610cd0565b60206040518083038186803b15801561056c57600080fd5b505afa158015610580573d6000803e3d6000fd5b505050506040513d601f19601f820116820180604052508101906105a49190610c89565b8784815181106105b057fe5b602002602001015161013e565b90506105c98482610ad8565b9350808383815181106105d857fe5b602090810291909101015250600101610507565b5060005b83518110156106cb57600061069985838151811061060a57fe5b60200260200101516001600160a01b03166370a082318b6040518263ffffffff1660e01b815260040161063d9190610cd0565b60206040518083038186803b15801561065557600080fd5b505afa158015610669573d6000803e3d6000fd5b505050506040513d601f19601f8201168201806040525081019061068d9190610c89565b8684815181106105b057fe5b90506106a58482610ad8565b9350808387518401815181106106b757fe5b6020908102919091010152506001016105f0565b506060876001600160a01b031663803c88906040518163ffffffff1660e01b815260040160006040518083038186803b15801561070757600080fd5b505afa15801561071b573d6000803e3d6000fd5b505050506040513d6000823e601f3d908101601f191682016040526107439190810190610b29565b805190915015610aa157604051632efa617160e21b81526000907f00000000000000000000000000000000000000000000000000000000000000006001600160a01b03169063bbe985c49061079d90600190600401610d28565b60206040518083038186803b1580156107b557600080fd5b505afa1580156107c9573d6000803e3d6000fd5b505050506040513d601f19601f820116820180604052508101906107ed9190610c51565b90506000805b835181101561092f57610925836001600160a01b031663b44a043b86848151811061081a57fe5b60200260200101516001600160a01b03166370a082318f6040518263ffffffff1660e01b815260040161084d9190610cd0565b60206040518083038186803b15801561086557600080fd5b505afa158015610879573d6000803e3d6000fd5b505050506040513d601f19601f8201168201806040525081019061089d9190610c89565b8785815181106108a957fe5b60200260200101516040518363ffffffff1660e01b81526004016108ce929190610d9a565b60206040518083038186803b1580156108e657600080fd5b505afa1580156108fa573d6000803e3d6000fd5b505050506040513d601f19601f8201168201806040525081019061091e9190610c89565b8390610ad8565b91506001016107f3565b50610a73826001600160a01b031663b44a043b7f00000000000000000000000000000000000000000000000000000000000000006001600160a01b03166370a082318e6040518263ffffffff1660e01b815260040161098e9190610cd0565b60206040518083038186803b1580156109a657600080fd5b505afa1580156109ba573d6000803e3d6000fd5b505050506040513d601f19601f820116820180604052508101906109de9190610c89565b7f00000000000000000000000000000000000000000000000000000000000000006040518363ffffffff1660e01b8152600401610a1c929190610d9a565b60206040518083038186803b158015610a3457600080fd5b505afa158015610a48573d6000803e3d6000fd5b505050506040513d601f19601f82011682018060405250810190610a6c9190610c89565b8290610ad8565b9050610a7f8582610ad8565b94508084600186510381518110610a9257fe5b60200260200101818152505050505b6000831215610acb5760405162461bcd60e51b8152600401610ac290610d72565b60405180910390fd5b5090945092505050915091565b6000828201818312801590610aed5750838112155b80610b025750600083128015610b0257508381125b61025a5760405162461bcd60e51b8152600401610ac290610d31565b803561025d81610e43565b60006020808385031215610b3b578182fd5b82516001600160401b03811115610b50578283fd5b8301601f81018513610b60578283fd5b8051610b73610b6e82610e24565b610dfe565b8181528381019083850185840285018601891015610b8f578687fd5b8694505b83851015610bba578051610ba681610e43565b835260019490940193918501918501610b93565b50979650505050505050565b60006020808385031215610bd8578182fd5b82356001600160401b03811115610bed578283fd5b8301601f81018513610bfd578283fd5b8035610c0b610b6e82610e24565b8181528381019083850185840285018601891015610c27578687fd5b8694505b83851015610bba57610c3d8982610b1e565b835260019490940193918501918501610c2b565b600060208284031215610c62578081fd5b815161025a81610e43565b600060208284031215610c7e578081fd5b813561025a81610e43565b600060208284031215610c9a578081fd5b5051919050565b60008060408385031215610cb3578081fd5b823591506020830135610cc581610e43565b809150509250929050565b6001600160a01b0391909116815260200190565b6020808252825182820181905260009190848201906040850190845b81811015610d1c57835183529284019291840191600101610d00565b50909695505050505050565b90815260200190565b60208082526021908201527f5369676e6564536166654d6174683a206164646974696f6e206f766572666c6f6040820152607760f81b606082015260800190565b6020808252600e908201526d139959d85d1a5d99481d1bdd185b60921b604082015260600190565b9182526001600160a01b0316602082015260400190565b60006040820184835260206040818501528185518084526060860191508287019350845b81811015610df157845183529383019391830191600101610dd5565b5090979650505050505050565b6040518181016001600160401b0381118282101715610e1c57600080fd5b604052919050565b60006001600160401b03821115610e39578081fd5b5060209081020190565b6001600160a01b0381168114610e5857600080fd5b5056fea264697066735822122084a05ff638e873949ad37f25f91992a6da4ef0831b7f45e81bb24ca176d425c064736f6c634300060c0033",
  "linkReferences": {},
  "deployedLinkReferences": {}
}