{
  "_format": "hh-sol-artifact-1",
  "contractName": "EnsoOracle",
  "sourceName": "contracts/oracles/EnsoOracle.sol",
  "abi": [
    {
      "inputs": [
        {
          "internalType": "address",
          "name": "tokenRegistry_",
          "type": "address"
        },
        {
          "internalType": "address",
          "name": "weth_",
          "type": "address"
        },
        {
          "internalType": "address",
          "name": "susd_",
          "type": "address"
        }
      ],
      "stateMutability": "nonpayable",
      "type": "constructor"
    },
    {
      "anonymous": false,
      "inputs": [
        {
          "indexed": false,
          "internalType": "address",
          "name": "token",
          "type": "address"
        },
        {
          "indexed": false,
          "internalType": "uint256",
          "name": "price",
          "type": "uint256"
        }
      ],
      "name": "NewPrice",
      "type": "event"
    },
    {
      "inputs": [
        {
          "internalType": "address",
          "name": "user",
          "type": "address"
        },
        {
          "internalType": "address",
          "name": "token",
          "type": "address"
        }
      ],
      "name": "estimateItem",
      "outputs": [
        {
          "internalType": "int256",
          "name": "",
          "type": "int256"
        }
      ],
      "stateMutability": "view",
      "type": "function"
    },
    {
      "inputs": [
        {
          "internalType": "uint256",
          "name": "balance",
          "type": "uint256"
        },
        {
          "internalType": "address",
          "name": "token",
          "type": "address"
        }
      ],
      "name": "estimateItem",
      "outputs": [
        {
          "internalType": "int256",
          "name": "",
          "type": "int256"
        }
      ],
      "stateMutability": "view",
      "type": "function"
    },
    {
      "inputs": [
        {
          "internalType": "contract IStrategy[]",
          "name": "strategies",
          "type": "address[]"
        }
      ],
      "name": "estimateStrategies",
      "outputs": [
        {
          "internalType": "uint256[]",
          "name": "",
          "type": "uint256[]"
        }
      ],
      "stateMutability": "view",
      "type": "function"
    },
    {
      "inputs": [
        {
          "internalType": "contract IStrategy",
          "name": "strategy",
          "type": "address"
        }
      ],
      "name": "estimateStrategy",
      "outputs": [
        {
          "internalType": "uint256",
          "name": "",
          "type": "uint256"
        },
        {
          "internalType": "int256[]",
          "name": "",
          "type": "int256[]"
        }
      ],
      "stateMutability": "view",
      "type": "function"
    },
    {
      "inputs": [],
      "name": "susd",
      "outputs": [
        {
          "internalType": "address",
          "name": "",
          "type": "address"
        }
      ],
      "stateMutability": "view",
      "type": "function"
    },
    {
      "inputs": [],
      "name": "tokenRegistry",
      "outputs": [
        {
          "internalType": "contract ITokenRegistry",
          "name": "",
          "type": "address"
        }
      ],
      "stateMutability": "view",
      "type": "function"
    },
    {
      "inputs": [],
      "name": "weth",
      "outputs": [
        {
          "internalType": "address",
          "name": "",
          "type": "address"
        }
      ],
      "stateMutability": "view",
      "type": "function"
    }
  ],
  "bytecode": "0x60e060405234801561001057600080fd5b50604051610f25380380610f2583398101604081905261002f91610056565b6001600160601b0319606093841b811660c05291831b821660805290911b1660a0526100ba565b60008060006060848603121561006a578283fd5b8351610075816100a2565b6020850151909350610086816100a2565b6040850151909250610097816100a2565b809150509250925092565b6001600160a01b03811681146100b757600080fd5b50565b60805160601c60a05160601c60c05160601c610e1861010d6000398061012e528061025f528061029b528061072d5250806103eb5280610884528061092052508061023b52806105065250610e186000f3fe608060405234801561001057600080fd5b506004361061006d5760003560e01c80632a58188a146100725780633fc8cef31461009b5780639d23c4c7146100b0578063b44a043b146100b8578063b748752f146100cb578063c9257775146100eb578063ff4a1902146100f3575b600080fd5b610085610080366004610a69565b610114565b6040516100929190610caf565b60405180910390f35b6100a3610239565b6040516100929190610c3d565b6100a361025d565b6100856100c6366004610c19565b610281565b6100de6100d9366004610b3e565b61034d565b6040516100929190610c6b565b6100a36103e9565b610106610101366004610be5565b61040d565b604051610092929190610d38565b604051632aae806560e21b81526000906001600160a01b037f0000000000000000000000000000000000000000000000000000000000000000169063aaba019490610163908590600401610c3d565b60206040518083038186803b15801561017b57600080fd5b505afa15801561018f573d6000803e3d6000fd5b505050506040513d601f19601f820116820180604052508101906101b39190610bc9565b6001600160a01b0316632a58188a84846040518363ffffffff1660e01b81526004016101e0929190610c51565b60206040518083038186803b1580156101f857600080fd5b505afa15801561020c573d6000803e3d6000fd5b505050506040513d601f19601f820116820180604052508101906102309190610c01565b90505b92915050565b7f000000000000000000000000000000000000000000000000000000000000000081565b7f000000000000000000000000000000000000000000000000000000000000000081565b604051632aae806560e21b81526000906001600160a01b037f0000000000000000000000000000000000000000000000000000000000000000169063aaba0194906102d0908590600401610c3d565b60206040518083038186803b1580156102e857600080fd5b505afa1580156102fc573d6000803e3d6000fd5b505050506040513d601f19601f820116820180604052508101906103209190610bc9565b6001600160a01b031663b44a043b84846040518363ffffffff1660e01b81526004016101e0929190610d21565b60608082516001600160401b038111801561036757600080fd5b50604051908082528060200260200182016040528015610391578160200160208202803683370190505b50905060005b83518110156103e25760006103be8583815181106103b157fe5b602002602001015161040d565b509050808383815181106103ce57fe5b602090810291909101015250600101610397565b5092915050565b7f000000000000000000000000000000000000000000000000000000000000000081565b6000606080836001600160a01b031663c06fad066040518163ffffffff1660e01b815260040160006040518083038186803b15801561044b57600080fd5b505afa15801561045f573d6000803e3d6000fd5b505050506040513d6000823e601f3d908101601f191682016040526104879190810190610aa1565b90506060846001600160a01b0316630dca59c16040518163ffffffff1660e01b815260040160006040518083038186803b1580156104c457600080fd5b505afa1580156104d8573d6000803e3d6000fd5b505050506040513d6000823e601f3d908101601f191682016040526105009190810190610aa1565b905060007f00000000000000000000000000000000000000000000000000000000000000006001600160a01b03166370a08231876040518263ffffffff1660e01b81526004016105509190610c3d565b60206040518083038186803b15801561056857600080fd5b505afa15801561057c573d6000803e3d6000fd5b505050506040513d601f19601f820116820180604052508101906105a09190610c01565b9050606082518451016001016001600160401b03811180156105c157600080fd5b506040519080825280602002602001820160405280156105eb578160200160208202803683370190505b50905060005b84518110156106485760006106198987848151811061060c57fe5b6020026020010151610114565b90506106258482610a18565b93508083838151811061063457fe5b6020908102919091010152506001016105f1565b5060005b83518110156106995760006106678986848151811061060c57fe5b90506106738482610a18565b93508083875184018151811061068557fe5b60209081029190910101525060010161064c565b506060876001600160a01b031663803c88906040518163ffffffff1660e01b815260040160006040518083038186803b1580156106d557600080fd5b505afa1580156106e9573d6000803e3d6000fd5b505050506040513d6000823e601f3d908101601f191682016040526107119190810190610aa1565b8051909150156109e157604051632efa617160e21b81526000907f00000000000000000000000000000000000000000000000000000000000000006001600160a01b03169063bbe985c49061076b90600190600401610caf565b60206040518083038186803b15801561078357600080fd5b505afa158015610797573d6000803e3d6000fd5b505050506040513d601f19601f820116820180604052508101906107bb9190610bc9565b90506000805b835181101561086f57610865836001600160a01b0316632a58188a8d8785815181106107e957fe5b60200260200101516040518363ffffffff1660e01b815260040161080e929190610c51565b60206040518083038186803b15801561082657600080fd5b505afa15801561083a573d6000803e3d6000fd5b505050506040513d601f19601f8201168201806040525081019061085e9190610c01565b8390610a18565b91506001016107c1565b506109b3826001600160a01b031663b44a043b7f00000000000000000000000000000000000000000000000000000000000000006001600160a01b03166370a082318e6040518263ffffffff1660e01b81526004016108ce9190610c3d565b60206040518083038186803b1580156108e657600080fd5b505afa1580156108fa573d6000803e3d6000fd5b505050506040513d601f19601f8201168201806040525081019061091e9190610c01565b7f00000000000000000000000000000000000000000000000000000000000000006040518363ffffffff1660e01b815260040161095c929190610d21565b60206040518083038186803b15801561097457600080fd5b505afa158015610988573d6000803e3d6000fd5b505050506040513d601f19601f820116820180604052508101906109ac9190610c01565b8290610a18565b90506109bf8582610a18565b945080846001865103815181106109d257fe5b60200260200101818152505050505b6000831215610a0b5760405162461bcd60e51b8152600401610a0290610cf9565b60405180910390fd5b5090945092505050915091565b6000828201818312801590610a2d5750838112155b80610a425750600083128015610a4257508381125b6102305760405162461bcd60e51b8152600401610a0290610cb8565b803561023381610dca565b60008060408385031215610a7b578182fd5b8235610a8681610dca565b91506020830135610a9681610dca565b809150509250929050565b60006020808385031215610ab3578182fd5b82516001600160401b03811115610ac8578283fd5b8301601f81018513610ad8578283fd5b8051610aeb610ae682610dab565b610d85565b8181528381019083850185840285018601891015610b07578687fd5b8694505b83851015610b32578051610b1e81610dca565b835260019490940193918501918501610b0b565b50979650505050505050565b60006020808385031215610b50578182fd5b82356001600160401b03811115610b65578283fd5b8301601f81018513610b75578283fd5b8035610b83610ae682610dab565b8181528381019083850185840285018601891015610b9f578687fd5b8694505b83851015610b3257610bb58982610a5e565b835260019490940193918501918501610ba3565b600060208284031215610bda578081fd5b815161023081610dca565b600060208284031215610bf6578081fd5b813561023081610dca565b600060208284031215610c12578081fd5b5051919050565b60008060408385031215610c2b578182fd5b823591506020830135610a9681610dca565b6001600160a01b0391909116815260200190565b6001600160a01b0392831681529116602082015260400190565b6020808252825182820181905260009190848201906040850190845b81811015610ca357835183529284019291840191600101610c87565b50909695505050505050565b90815260200190565b60208082526021908201527f5369676e6564536166654d6174683a206164646974696f6e206f766572666c6f6040820152607760f81b606082015260800190565b6020808252600e908201526d139959d85d1a5d99481d1bdd185b60921b604082015260600190565b9182526001600160a01b0316602082015260400190565b60006040820184835260206040818501528185518084526060860191508287019350845b81811015610d7857845183529383019391830191600101610d5c565b5090979650505050505050565b6040518181016001600160401b0381118282101715610da357600080fd5b604052919050565b60006001600160401b03821115610dc0578081fd5b5060209081020190565b6001600160a01b0381168114610ddf57600080fd5b5056fea2646970667358221220e3826cfe598ba97bd991b4698d8a90585bdb30b02124c75200d0c4e62cf14ad664736f6c634300060c0033",
  "linkReferences": {},
  "deployedLinkReferences": {}
}