{
  "_format": "hh-sol-artifact-1",
  "contractName": "EnsoOracle",
  "sourceName": "contracts/oracles/EnsoOracle.sol",
  "abi": [
    {
      "inputs": [
        {
          "internalType": "address",
          "name": "factory_",
          "type": "address"
        },
        {
          "internalType": "address",
          "name": "weth_",
          "type": "address"
        },
        {
          "internalType": "address",
          "name": "susd_",
          "type": "address"
        }
      ],
      "stateMutability": "nonpayable",
      "type": "constructor"
    },
    {
      "inputs": [
        {
          "internalType": "contract IStrategy",
          "name": "strategy",
          "type": "address"
        },
        {
          "internalType": "address",
          "name": "token",
          "type": "address"
        }
      ],
      "name": "estimateItem",
      "outputs": [
        {
          "internalType": "int256",
          "name": "",
          "type": "int256"
        }
      ],
      "stateMutability": "view",
      "type": "function"
    },
    {
      "inputs": [
        {
          "internalType": "contract IStrategy",
          "name": "strategy",
          "type": "address"
        },
        {
          "internalType": "address",
          "name": "token",
          "type": "address"
        },
        {
          "internalType": "address",
          "name": "underlyingToken",
          "type": "address"
        },
        {
          "internalType": "uint256",
          "name": "balance",
          "type": "uint256"
        }
      ],
      "name": "estimateItem",
      "outputs": [
        {
          "internalType": "int256",
          "name": "",
          "type": "int256"
        }
      ],
      "stateMutability": "view",
      "type": "function"
    },
    {
      "inputs": [
        {
          "internalType": "contract IStrategy",
          "name": "strategy",
          "type": "address"
        },
        {
          "internalType": "address",
          "name": "token",
          "type": "address"
        },
        {
          "internalType": "uint256",
          "name": "balance",
          "type": "uint256"
        }
      ],
      "name": "estimateItem",
      "outputs": [
        {
          "internalType": "int256",
          "name": "",
          "type": "int256"
        }
      ],
      "stateMutability": "view",
      "type": "function"
    },
    {
      "inputs": [
        {
          "internalType": "contract IStrategy[]",
          "name": "strategies",
          "type": "address[]"
        }
      ],
      "name": "estimateStrategies",
      "outputs": [
        {
          "internalType": "uint256[]",
          "name": "",
          "type": "uint256[]"
        }
      ],
      "stateMutability": "view",
      "type": "function"
    },
    {
      "inputs": [
        {
          "internalType": "contract IStrategy",
          "name": "strategy",
          "type": "address"
        }
      ],
      "name": "estimateStrategy",
      "outputs": [
        {
          "internalType": "uint256",
          "name": "",
          "type": "uint256"
        },
        {
          "internalType": "int256[]",
          "name": "",
          "type": "int256[]"
        }
      ],
      "stateMutability": "view",
      "type": "function"
    },
    {
      "inputs": [],
      "name": "susd",
      "outputs": [
        {
          "internalType": "address",
          "name": "",
          "type": "address"
        }
      ],
      "stateMutability": "view",
      "type": "function"
    },
    {
      "inputs": [],
      "name": "tokenRegistry",
      "outputs": [
        {
          "internalType": "contract ITokenRegistry",
          "name": "",
          "type": "address"
        }
      ],
      "stateMutability": "view",
      "type": "function"
    },
    {
      "inputs": [],
      "name": "updateAddresses",
      "outputs": [],
      "stateMutability": "nonpayable",
      "type": "function"
    },
    {
      "inputs": [],
      "name": "weth",
      "outputs": [
        {
          "internalType": "address",
          "name": "",
          "type": "address"
        }
      ],
      "stateMutability": "view",
      "type": "function"
    }
  ],
  "bytecode": "0x60e060405234801561001057600080fd5b506040516110de3803806110de83398101604081905261002f91610056565b6001600160601b0319606093841b811660c05291831b821660805290911b1660a0526100ba565b60008060006060848603121561006a578283fd5b8351610075816100a2565b6020850151909350610086816100a2565b6040850151909250610097816100a2565b809150509250925092565b6001600160a01b03811681146100b757600080fd5b50565b60805160601c60a05160601c60c05160601c610fe56100f96000398061046152508061043d5280610a9e52508061025e52806107205250610fe56000f3fe608060405234801561001057600080fd5b50600436106100935760003560e01c8063b748752f11610066578063b748752f146100f1578063c925777514610111578063e26db6fc14610119578063ecb1927e14610123578063ff4a19021461013657610093565b80632a58188a146100985780633fc8cef3146100c15780639d23c4c7146100d6578063b35e0614146100de575b600080fd5b6100ab6100a6366004610d19565b610157565b6040516100b89190610eb9565b60405180910390f35b6100c961025c565b6040516100b89190610df9565b6100c9610280565b6100ab6100ec366004610d51565b61028f565b6101046100ff366004610c70565b61039a565b6040516100b89190610e0d565b6100c961043b565b61012161045f565b005b6100ab610131366004610da1565b61051f565b610149610144366004610cfd565b610627565b6040516100b8929190610f03565b60008054604051632aae806560e21b81526001600160a01b039091169063aaba019490610188908590600401610df9565b60206040518083038186803b1580156101a057600080fd5b505afa1580156101b4573d6000803e3d6000fd5b505050506040513d601f19601f820116820180604052508101906101d89190610bb6565b6001600160a01b0316632a58188a84846040518363ffffffff1660e01b8152600401610205929190610e51565b60206040518083038186803b15801561021d57600080fd5b505afa158015610231573d6000803e3d6000fd5b505050506040513d601f19601f820116820180604052508101906102559190610de1565b9392505050565b7f000000000000000000000000000000000000000000000000000000000000000081565b6000546001600160a01b031681565b60008054604051632aae806560e21b81526001600160a01b039091169063aaba0194906102c0908790600401610df9565b60206040518083038186803b1580156102d857600080fd5b505afa1580156102ec573d6000803e3d6000fd5b505050506040513d601f19601f820116820180604052508101906103109190610bb6565b6001600160a01b031663b35e0614868686866040518563ffffffff1660e01b81526004016103419493929190610e6b565b60206040518083038186803b15801561035957600080fd5b505afa15801561036d573d6000803e3d6000fd5b505050506040513d601f19601f820116820180604052508101906103919190610de1565b95945050505050565b606080825167ffffffffffffffff811180156103b557600080fd5b506040519080825280602002602001820160405280156103df578160200160208202803683370190505b50835190915060005b8181101561043257600061040e86838151811061040157fe5b6020026020010151610627565b5090508084838151811061041e57fe5b6020908102919091010152506001016103e8565b50909392505050565b7f000000000000000000000000000000000000000000000000000000000000000081565b7f00000000000000000000000000000000000000000000000000000000000000006001600160a01b0316639d23c4c76040518163ffffffff1660e01b815260040160206040518083038186803b1580156104b857600080fd5b505afa1580156104cc573d6000803e3d6000fd5b505050506040513d601f19601f820116820180604052508101906104f09190610bb6565b6000805473ffffffffffffffffffffffffffffffffffffffff19166001600160a01b0392909216919091179055565b60008054604051632aae806560e21b81526001600160a01b039091169063aaba019490610550908690600401610df9565b60206040518083038186803b15801561056857600080fd5b505afa15801561057c573d6000803e3d6000fd5b505050506040513d601f19601f820116820180604052508101906105a09190610bb6565b6001600160a01b031663ecb1927e8585856040518463ffffffff1660e01b81526004016105cf93929190610e95565b60206040518083038186803b1580156105e757600080fd5b505afa1580156105fb573d6000803e3d6000fd5b505050506040513d601f19601f8201168201806040525081019061061f9190610de1565b949350505050565b6000606080836001600160a01b031663c06fad066040518163ffffffff1660e01b815260040160006040518083038186803b15801561066557600080fd5b505afa158015610679573d6000803e3d6000fd5b505050506040513d6000823e601f3d908101601f191682016040526106a19190810190610bd2565b90506060846001600160a01b0316630dca59c16040518163ffffffff1660e01b815260040160006040518083038186803b1580156106de57600080fd5b505afa1580156106f2573d6000803e3d6000fd5b505050506040513d6000823e601f3d908101601f1916820160405261071a9190810190610bd2565b905060007f00000000000000000000000000000000000000000000000000000000000000006001600160a01b03166370a08231876040518263ffffffff1660e01b815260040161076a9190610df9565b60206040518083038186803b15801561078257600080fd5b505afa158015610796573d6000803e3d6000fd5b505050506040513d601f19601f820116820180604052508101906107ba9190610de1565b90506060825184510160010167ffffffffffffffff811180156107dc57600080fd5b50604051908082528060200260200182016040528015610806578160200160208202803683370190505b50845190915060005b818110156108655760006108368a88848151811061082957fe5b6020026020010151610157565b90506108428582610b67565b94508084838151811061085157fe5b60209081029190910101525060010161080f565b5050825160005b818110156108b85760006108868a87848151811061082957fe5b90506108928582610b67565b9450808488518401815181106108a457fe5b60209081029190910101525060010161086c565b506060886001600160a01b031663803c88906040518163ffffffff1660e01b815260040160006040518083038186803b1580156108f457600080fd5b505afa158015610908573d6000803e3d6000fd5b505050506040513d6000823e601f3d908101601f191682016040526109309190810190610bd2565b90508051600014610b4b57600080546001600160a01b031663bbe985c460016040518263ffffffff1660e01b815260040161096b9190610eb9565b60206040518083038186803b15801561098357600080fd5b505afa158015610997573d6000803e3d6000fd5b505050506040513d601f19601f820116820180604052508101906109bb9190610bb6565b905060008251935060005b84811015610a7357610a69836001600160a01b0316632a58188a8e8785815181106109ed57fe5b60200260200101516040518363ffffffff1660e01b8152600401610a12929190610e51565b60206040518083038186803b158015610a2a57600080fd5b505afa158015610a3e573d6000803e3d6000fd5b505050506040513d601f19601f82011682018060405250810190610a629190610de1565b8390610b67565b91506001016109c6565b5060405163152c0c4560e11b8152610b1d906001600160a01b03841690632a58188a90610ac6908f907f000000000000000000000000000000000000000000000000000000000000000090600401610e51565b60206040518083038186803b158015610ade57600080fd5b505afa158015610af2573d6000803e3d6000fd5b505050506040513d601f19601f82011682018060405250810190610b169190610de1565b8290610b67565b9050610b298682610b67565b95508085600187510381518110610b3c57fe5b60200260200101818152505050505b6000841215610b5957600093505b509195509350505050915091565b6000828201818312801590610b7c5750838112155b80610b915750600083128015610b9157508381125b6102555760405162461bcd60e51b8152600401610bad90610ec2565b60405180910390fd5b600060208284031215610bc7578081fd5b815161025581610f97565b60006020808385031215610be4578182fd5b825167ffffffffffffffff811115610bfa578283fd5b8301601f81018513610c0a578283fd5b8051610c1d610c1882610f77565b610f50565b8181528381019083850185840285018601891015610c39578687fd5b8694505b83851015610c64578051610c5081610f97565b835260019490940193918501918501610c3d565b50979650505050505050565b60006020808385031215610c82578182fd5b823567ffffffffffffffff811115610c98578283fd5b8301601f81018513610ca8578283fd5b8035610cb6610c1882610f77565b8181528381019083850185840285018601891015610cd2578687fd5b8694505b83851015610c64578035610ce981610f97565b835260019490940193918501918501610cd6565b600060208284031215610d0e578081fd5b813561025581610f97565b60008060408385031215610d2b578081fd5b8235610d3681610f97565b91506020830135610d4681610f97565b809150509250929050565b60008060008060808587031215610d66578182fd5b8435610d7181610f97565b93506020850135610d8181610f97565b92506040850135610d9181610f97565b9396929550929360600135925050565b600080600060608486031215610db5578283fd5b8335610dc081610f97565b92506020840135610dd081610f97565b929592945050506040919091013590565b600060208284031215610df2578081fd5b5051919050565b6001600160a01b0391909116815260200190565b6020808252825182820181905260009190848201906040850190845b81811015610e4557835183529284019291840191600101610e29565b50909695505050505050565b6001600160a01b0392831681529116602082015260400190565b6001600160a01b039485168152928416602084015292166040820152606081019190915260800190565b6001600160a01b039384168152919092166020820152604081019190915260600190565b90815260200190565b60208082526021908201527f5369676e6564536166654d6174683a206164646974696f6e206f766572666c6f6040820152607760f81b606082015260800190565b60006040820184835260206040818501528185518084526060860191508287019350845b81811015610f4357845183529383019391830191600101610f27565b5090979650505050505050565b60405181810167ffffffffffffffff81118282101715610f6f57600080fd5b604052919050565b600067ffffffffffffffff821115610f8d578081fd5b5060209081020190565b6001600160a01b0381168114610fac57600080fd5b5056fea2646970667358221220584615d67e38812175326dd371387c824504e27c05432873094325ced2f87af764736f6c634300060c0033",
  "linkReferences": {},
  "deployedLinkReferences": {}
}