{
  "_format": "hh-sol-artifact-1",
  "contractName": "EmergencyEstimator",
  "sourceName": "contracts/oracles/estimators/EmergencyEstimator.sol",
  "abi": [
    {
      "anonymous": false,
      "inputs": [
        {
          "indexed": true,
          "internalType": "address",
          "name": "previousOwner",
          "type": "address"
        },
        {
          "indexed": true,
          "internalType": "address",
          "name": "newOwner",
          "type": "address"
        }
      ],
      "name": "OwnershipTransferred",
      "type": "event"
    },
    {
      "inputs": [
        {
          "internalType": "address",
          "name": "user",
          "type": "address"
        },
        {
          "internalType": "address",
          "name": "token",
          "type": "address"
        }
      ],
      "name": "estimateItem",
      "outputs": [
        {
          "internalType": "int256",
          "name": "",
          "type": "int256"
        }
      ],
      "stateMutability": "view",
      "type": "function"
    },
    {
      "inputs": [
        {
          "internalType": "uint256",
          "name": "balance",
          "type": "uint256"
        },
        {
          "internalType": "address",
          "name": "token",
          "type": "address"
        }
      ],
      "name": "estimateItem",
      "outputs": [
        {
          "internalType": "int256",
          "name": "",
          "type": "int256"
        }
      ],
      "stateMutability": "view",
      "type": "function"
    },
    {
      "inputs": [
        {
          "internalType": "address",
          "name": "",
          "type": "address"
        }
      ],
      "name": "estimates",
      "outputs": [
        {
          "internalType": "int256",
          "name": "",
          "type": "int256"
        }
      ],
      "stateMutability": "view",
      "type": "function"
    },
    {
      "inputs": [],
      "name": "owner",
      "outputs": [
        {
          "internalType": "address",
          "name": "",
          "type": "address"
        }
      ],
      "stateMutability": "view",
      "type": "function"
    },
    {
      "inputs": [],
      "name": "renounceOwnership",
      "outputs": [],
      "stateMutability": "nonpayable",
      "type": "function"
    },
    {
      "inputs": [
        {
          "internalType": "address",
          "name": "token",
          "type": "address"
        },
        {
          "internalType": "int256",
          "name": "amount",
          "type": "int256"
        }
      ],
      "name": "setEstimate",
      "outputs": [],
      "stateMutability": "nonpayable",
      "type": "function"
    },
    {
      "inputs": [
        {
          "internalType": "address",
          "name": "newOwner",
          "type": "address"
        }
      ],
      "name": "transferOwnership",
      "outputs": [],
      "stateMutability": "nonpayable",
      "type": "function"
    }
  ],
  "bytecode": "0x608060405234801561001057600080fd5b50600061001b61006a565b600080546001600160a01b0319166001600160a01b0383169081178255604051929350917f8be0079c531659141344cd1fd0a4f28419497f9722a3daafe3b4186f6b6457e0908290a35061006e565b3390565b61071e8061007d6000396000f3fe608060405234801561001057600080fd5b506004361061006d5760003560e01c80632a58188a14610072578063715018a6146100b257806375bdaafe146100bc57806385d33007146100e85780638da5cb5b1461010e578063b44a043b14610132578063f2fde38b1461015e575b600080fd5b6100a06004803603604081101561008857600080fd5b506001600160a01b0381358116916020013516610184565b60408051918252519081900360200190f35b6100ba610216565b005b6100ba600480360360408110156100d257600080fd5b506001600160a01b0381351690602001356102b8565b6100a0600480360360208110156100fe57600080fd5b50356001600160a01b031661032c565b61011661033e565b604080516001600160a01b039092168252519081900360200190f35b6100a06004803603604081101561014857600080fd5b50803590602001356001600160a01b031661034d565b6100ba6004803603602081101561017457600080fd5b50356001600160a01b0316610360565b600080826001600160a01b03166370a08231856040518263ffffffff1660e01b815260040180826001600160a01b0316815260200191505060206040518083038186803b1580156101d457600080fd5b505afa1580156101e8573d6000803e3d6000fd5b505050506040513d60208110156101fe57600080fd5b5051905061020c8184610458565b9150505b92915050565b61021e6104f5565b6000546001600160a01b0390811691161461026e576040805162461bcd60e51b815260206004820181905260248201526000805160206106a2833981519152604482015290519081900360640190fd5b600080546040516001600160a01b03909116907f8be0079c531659141344cd1fd0a4f28419497f9722a3daafe3b4186f6b6457e0908390a3600080546001600160a01b0319169055565b6102c06104f5565b6000546001600160a01b03908116911614610310576040805162461bcd60e51b815260206004820181905260248201526000805160206106a2833981519152604482015290519081900360640190fd5b6001600160a01b03909116600090815260016020526040902055565b60016020526000908152604090205481565b6000546001600160a01b031690565b60006103598383610458565b9392505050565b6103686104f5565b6000546001600160a01b039081169116146103b8576040805162461bcd60e51b815260206004820181905260248201526000805160206106a2833981519152604482015290519081900360640190fd5b6001600160a01b0381166103fd5760405162461bcd60e51b815260040180806020018281038252602681526020018061065b6026913960400191505060405180910390fd5b600080546040516001600160a01b03808516939216917f8be0079c531659141344cd1fd0a4f28419497f9722a3daafe3b4186f6b6457e091a3600080546001600160a01b0319166001600160a01b0392909216919091179055565b6000610359826001600160a01b031663313ce5676040518163ffffffff1660e01b815260040160206040518083038186803b15801561049657600080fd5b505afa1580156104aa573d6000803e3d6000fd5b505050506040513d60208110156104c057600080fd5b50516001600160a01b03841660009081526001602052604090205460ff909116600a0a906104ef9086906104f9565b906105a2565b3390565b60008261050857506000610210565b8260001914801561051c5750600160ff1b82145b156105585760405162461bcd60e51b81526004018080602001828103825260278152602001806106c26027913960400191505060405180910390fd5b8282028284828161056557fe5b05146103595760405162461bcd60e51b81526004018080602001828103825260278152602001806106c26027913960400191505060405180910390fd5b6000816105f6576040805162461bcd60e51b815260206004820181905260248201527f5369676e6564536166654d6174683a206469766973696f6e206279207a65726f604482015290519081900360640190fd5b8160001914801561060a5750600160ff1b83145b156106465760405162461bcd60e51b81526004018080602001828103825260218152602001806106816021913960400191505060405180910390fd5b600082848161065157fe5b0594935050505056fe4f776e61626c653a206e6577206f776e657220697320746865207a65726f20616464726573735369676e6564536166654d6174683a206469766973696f6e206f766572666c6f774f776e61626c653a2063616c6c6572206973206e6f7420746865206f776e65725369676e6564536166654d6174683a206d756c7469706c69636174696f6e206f766572666c6f77a2646970667358221220c268250622330210211359beb3fae47b45c42c94114ca72cf5bc7468d44e97e064736f6c634300060c0033",
  "linkReferences": {},
  "deployedLinkReferences": {}
}