{
    "_format": "hh-sol-artifact-1",
    "contractName": "EmergencyEstimator",
    "sourceName": "contracts/oracles/estimators/EmergencyEstimator.sol",
    "abi": [
        {
            "anonymous": false,
            "inputs": [
                {
                    "indexed": true,
                    "internalType": "address",
                    "name": "previousOwner",
                    "type": "address"
                },
                {
                    "indexed": true,
                    "internalType": "address",
                    "name": "newOwner",
                    "type": "address"
                }
            ],
            "name": "OwnershipTransferred",
            "type": "event"
        },
        {
            "inputs": [
                {
                    "internalType": "uint256",
                    "name": "balance",
                    "type": "uint256"
                },
                {
                    "internalType": "address",
                    "name": "token",
                    "type": "address"
                }
            ],
            "name": "estimateItem",
            "outputs": [
                {
                    "internalType": "int256",
                    "name": "",
                    "type": "int256"
                }
            ],
            "stateMutability": "view",
            "type": "function"
        },
        {
            "inputs": [
                {
                    "internalType": "address",
                    "name": "",
                    "type": "address"
                }
            ],
            "name": "estimates",
            "outputs": [
                {
                    "internalType": "int256",
                    "name": "",
                    "type": "int256"
                }
            ],
            "stateMutability": "view",
            "type": "function"
        },
        {
            "inputs": [],
            "name": "owner",
            "outputs": [
                {
                    "internalType": "address",
                    "name": "",
                    "type": "address"
                }
            ],
            "stateMutability": "view",
            "type": "function"
        },
        {
            "inputs": [],
            "name": "renounceOwnership",
            "outputs": [],
            "stateMutability": "nonpayable",
            "type": "function"
        },
        {
            "inputs": [
                {
                    "internalType": "address",
                    "name": "token",
                    "type": "address"
                },
                {
                    "internalType": "int256",
                    "name": "amount",
                    "type": "int256"
                }
            ],
            "name": "setEstimate",
            "outputs": [],
            "stateMutability": "nonpayable",
            "type": "function"
        },
        {
            "inputs": [
                {
                    "internalType": "address",
                    "name": "newOwner",
                    "type": "address"
                }
            ],
            "name": "transferOwnership",
            "outputs": [],
            "stateMutability": "nonpayable",
            "type": "function"
        }
    ],
    "bytecode": "0x608060405234801561001057600080fd5b50600061001b61006a565b600080546001600160a01b0319166001600160a01b0383169081178255604051929350917f8be0079c531659141344cd1fd0a4f28419497f9722a3daafe3b4186f6b6457e0908290a35061006e565b3390565b6106498061007d6000396000f3fe608060405234801561001057600080fd5b50600436106100625760003560e01c8063715018a61461006757806375bdaafe1461007157806385d330071461009d5780638da5cb5b146100d5578063b44a043b146100f9578063f2fde38b14610125575b600080fd5b61006f61014b565b005b61006f6004803603604081101561008757600080fd5b506001600160a01b0381351690602001356101ed565b6100c3600480360360208110156100b357600080fd5b50356001600160a01b0316610261565b60408051918252519081900360200190f35b6100dd610273565b604080516001600160a01b039092168252519081900360200190f35b6100c36004803603604081101561010f57600080fd5b50803590602001356001600160a01b0316610282565b61006f6004803603602081101561013b57600080fd5b50356001600160a01b0316610328565b610153610420565b6000546001600160a01b039081169116146101a3576040805162461bcd60e51b815260206004820181905260248201526000805160206105cd833981519152604482015290519081900360640190fd5b600080546040516001600160a01b03909116907f8be0079c531659141344cd1fd0a4f28419497f9722a3daafe3b4186f6b6457e0908390a3600080546001600160a01b0319169055565b6101f5610420565b6000546001600160a01b03908116911614610245576040805162461bcd60e51b815260206004820181905260248201526000805160206105cd833981519152604482015290519081900360640190fd5b6001600160a01b03909116600090815260016020526040902055565b60016020526000908152604090205481565b6000546001600160a01b031690565b600061031f826001600160a01b031663313ce5676040518163ffffffff1660e01b815260040160206040518083038186803b1580156102c057600080fd5b505afa1580156102d4573d6000803e3d6000fd5b505050506040513d60208110156102ea57600080fd5b50516001600160a01b03841660009081526001602052604090205460ff909116600a0a90610319908690610424565b906104cd565b90505b92915050565b610330610420565b6000546001600160a01b03908116911614610380576040805162461bcd60e51b815260206004820181905260248201526000805160206105cd833981519152604482015290519081900360640190fd5b6001600160a01b0381166103c55760405162461bcd60e51b81526004018080602001828103825260268152602001806105866026913960400191505060405180910390fd5b600080546040516001600160a01b03808516939216917f8be0079c531659141344cd1fd0a4f28419497f9722a3daafe3b4186f6b6457e091a3600080546001600160a01b0319166001600160a01b0392909216919091179055565b3390565b60008261043357506000610322565b826000191480156104475750600160ff1b82145b156104835760405162461bcd60e51b81526004018080602001828103825260278152602001806105ed6027913960400191505060405180910390fd5b8282028284828161049057fe5b051461031f5760405162461bcd60e51b81526004018080602001828103825260278152602001806105ed6027913960400191505060405180910390fd5b600081610521576040805162461bcd60e51b815260206004820181905260248201527f5369676e6564536166654d6174683a206469766973696f6e206279207a65726f604482015290519081900360640190fd5b816000191480156105355750600160ff1b83145b156105715760405162461bcd60e51b81526004018080602001828103825260218152602001806105ac6021913960400191505060405180910390fd5b600082848161057c57fe5b0594935050505056fe4f776e61626c653a206e6577206f776e657220697320746865207a65726f20616464726573735369676e6564536166654d6174683a206469766973696f6e206f766572666c6f774f776e61626c653a2063616c6c6572206973206e6f7420746865206f776e65725369676e6564536166654d6174683a206d756c7469706c69636174696f6e206f766572666c6f77a2646970667358221220a4e618cd77cb9c2e5d0d67f4c3008d0c26cab01a01ba8e2dd7726fcf185fe41464736f6c634300060c0033",
    "linkReferences": {},
    "deployedLinkReferences": {}
}