{
    "_format": "hh-sol-artifact-1",
    "contractName": "EnsoOracle",
    "sourceName": "contracts/oracles/EnsoOracle.sol",
    "abi": [
        {
            "inputs": [
                {
                    "internalType": "address",
                    "name": "tokenRegistry_",
                    "type": "address"
                },
                {
                    "internalType": "address",
                    "name": "weth_",
                    "type": "address"
                },
                {
                    "internalType": "address",
                    "name": "susd_",
                    "type": "address"
                }
            ],
            "stateMutability": "nonpayable",
            "type": "constructor"
        },
        {
            "anonymous": false,
            "inputs": [
                {
                    "indexed": false,
                    "internalType": "address",
                    "name": "token",
                    "type": "address"
                },
                {
                    "indexed": false,
                    "internalType": "uint256",
                    "name": "price",
                    "type": "uint256"
                }
            ],
            "name": "NewPrice",
            "type": "event"
        },
        {
            "inputs": [
                {
                    "internalType": "uint256",
                    "name": "balance",
                    "type": "uint256"
                },
                {
                    "internalType": "address",
                    "name": "token",
                    "type": "address"
                }
            ],
            "name": "estimateItem",
            "outputs": [
                {
                    "internalType": "int256",
                    "name": "",
                    "type": "int256"
                }
            ],
            "stateMutability": "view",
            "type": "function"
        },
        {
            "inputs": [
                {
                    "internalType": "contract IStrategy[]",
                    "name": "strategies",
                    "type": "address[]"
                }
            ],
            "name": "estimateStrategies",
            "outputs": [
                {
                    "internalType": "uint256[]",
                    "name": "",
                    "type": "uint256[]"
                }
            ],
            "stateMutability": "view",
            "type": "function"
        },
        {
            "inputs": [
                {
                    "internalType": "contract IStrategy",
                    "name": "strategy",
                    "type": "address"
                }
            ],
            "name": "estimateStrategy",
            "outputs": [
                {
                    "internalType": "uint256",
                    "name": "",
                    "type": "uint256"
                },
                {
                    "internalType": "int256[]",
                    "name": "",
                    "type": "int256[]"
                }
            ],
            "stateMutability": "view",
            "type": "function"
        },
        {
            "inputs": [],
            "name": "susd",
            "outputs": [
                {
                    "internalType": "address",
                    "name": "",
                    "type": "address"
                }
            ],
            "stateMutability": "view",
            "type": "function"
        },
        {
            "inputs": [],
            "name": "tokenRegistry",
            "outputs": [
                {
                    "internalType": "contract ITokenRegistry",
                    "name": "",
                    "type": "address"
                }
            ],
            "stateMutability": "view",
            "type": "function"
        },
        {
            "inputs": [],
            "name": "weth",
            "outputs": [
                {
                    "internalType": "address",
                    "name": "",
                    "type": "address"
                }
            ],
            "stateMutability": "view",
            "type": "function"
        }
    ],
    "bytecode": "0x60e060405234801561001057600080fd5b50604051610f8c380380610f8c83398101604081905261002f91610056565b6001600160601b0319606093841b811660c05291831b821660805290911b1660a0526100ba565b60008060006060848603121561006a578283fd5b8351610075816100a2565b6020850151909350610086816100a2565b6040850151909250610097816100a2565b809150509250925092565b6001600160a01b03811681146100b757600080fd5b50565b60805160601c60a05160601c60c05160601c610e856101076000398061011c5280610158528061075d5250806102ff528061094252806109de52508060f8528061041a5250610e856000f3fe608060405234801561001057600080fd5b50600436106100625760003560e01c80633fc8cef3146100675780639d23c4c714610085578063b44a043b1461008d578063b748752f146100ad578063c9257775146100cd578063ff4a1902146100d5575b600080fd5b61006f6100f6565b60405161007c9190610cc4565b60405180910390f35b61006f61011a565b6100a061009b366004610c95565b61013e565b60405161007c9190610d1c565b6100c06100bb366004610bb9565b610261565b60405161007c9190610cd8565b61006f6102fd565b6100e86100e3366004610c61565b610321565b60405161007c929190610da5565b7f000000000000000000000000000000000000000000000000000000000000000081565b7f000000000000000000000000000000000000000000000000000000000000000081565b604051632aae806560e21b81526000906001600160a01b037f0000000000000000000000000000000000000000000000000000000000000000169063aaba01949061018d908590600401610cc4565b60206040518083038186803b1580156101a557600080fd5b505afa1580156101b9573d6000803e3d6000fd5b505050506040513d601f19601f820116820180604052508101906101dd9190610c45565b6001600160a01b031663b44a043b84846040518363ffffffff1660e01b815260040161020a929190610d8e565b60206040518083038186803b15801561022257600080fd5b505afa158015610236573d6000803e3d6000fd5b505050506040513d601f19601f8201168201806040525081019061025a9190610c7d565b9392505050565b60608082516001600160401b038111801561027b57600080fd5b506040519080825280602002602001820160405280156102a5578160200160208202803683370190505b50905060005b83518110156102f65760006102d28583815181106102c557fe5b6020026020010151610321565b509050808383815181106102e257fe5b6020908102919091010152506001016102ab565b5092915050565b7f000000000000000000000000000000000000000000000000000000000000000081565b6000606080836001600160a01b031663c06fad066040518163ffffffff1660e01b815260040160006040518083038186803b15801561035f57600080fd5b505afa158015610373573d6000803e3d6000fd5b505050506040513d6000823e601f3d908101601f1916820160405261039b9190810190610b1c565b90506060846001600160a01b0316630dca59c16040518163ffffffff1660e01b815260040160006040518083038186803b1580156103d857600080fd5b505afa1580156103ec573d6000803e3d6000fd5b505050506040513d6000823e601f3d908101601f191682016040526104149190810190610b1c565b905060007f00000000000000000000000000000000000000000000000000000000000000006001600160a01b03166370a08231876040518263ffffffff1660e01b81526004016104649190610cc4565b60206040518083038186803b15801561047c57600080fd5b505afa158015610490573d6000803e3d6000fd5b505050506040513d601f19601f820116820180604052508101906104b49190610c7d565b9050606082518451016001016001600160401b03811180156104d557600080fd5b506040519080825280602002602001820160405280156104ff578160200160208202803683370190505b50905060005b84518110156105ea5760006105bb86838151811061051f57fe5b60200260200101516001600160a01b03166370a082318b6040518263ffffffff1660e01b81526004016105529190610cc4565b60206040518083038186803b15801561056a57600080fd5b505afa15801561057e573d6000803e3d6000fd5b505050506040513d601f19601f820116820180604052508101906105a29190610c7d565b8784815181106105ae57fe5b602002602001015161013e565b90506105c78482610ad6565b9350808383815181106105d657fe5b602090810291909101015250600101610505565b5060005b83518110156106c957600061069785838151811061060857fe5b60200260200101516001600160a01b03166370a082318b6040518263ffffffff1660e01b815260040161063b9190610cc4565b60206040518083038186803b15801561065357600080fd5b505afa158015610667573d6000803e3d6000fd5b505050506040513d601f19601f8201168201806040525081019061068b9190610c7d565b8684815181106105ae57fe5b90506106a38482610ad6565b9350808387518401815181106106b557fe5b6020908102919091010152506001016105ee565b506060876001600160a01b031663803c88906040518163ffffffff1660e01b815260040160006040518083038186803b15801561070557600080fd5b505afa158015610719573d6000803e3d6000fd5b505050506040513d6000823e601f3d908101601f191682016040526107419190810190610b1c565b805190915015610a9f57604051632efa617160e21b81526000907f00000000000000000000000000000000000000000000000000000000000000006001600160a01b03169063bbe985c49061079b90600190600401610d1c565b60206040518083038186803b1580156107b357600080fd5b505afa1580156107c7573d6000803e3d6000fd5b505050506040513d601f19601f820116820180604052508101906107eb9190610c45565b90506000805b835181101561092d57610923836001600160a01b031663b44a043b86848151811061081857fe5b60200260200101516001600160a01b03166370a082318f6040518263ffffffff1660e01b815260040161084b9190610cc4565b60206040518083038186803b15801561086357600080fd5b505afa158015610877573d6000803e3d6000fd5b505050506040513d601f19601f8201168201806040525081019061089b9190610c7d565b8785815181106108a757fe5b60200260200101516040518363ffffffff1660e01b81526004016108cc929190610d8e565b60206040518083038186803b1580156108e457600080fd5b505afa1580156108f8573d6000803e3d6000fd5b505050506040513d601f19601f8201168201806040525081019061091c9190610c7d565b8390610ad6565b91506001016107f1565b50610a71826001600160a01b031663b44a043b7f00000000000000000000000000000000000000000000000000000000000000006001600160a01b03166370a082318e6040518263ffffffff1660e01b815260040161098c9190610cc4565b60206040518083038186803b1580156109a457600080fd5b505afa1580156109b8573d6000803e3d6000fd5b505050506040513d601f19601f820116820180604052508101906109dc9190610c7d565b7f00000000000000000000000000000000000000000000000000000000000000006040518363ffffffff1660e01b8152600401610a1a929190610d8e565b60206040518083038186803b158015610a3257600080fd5b505afa158015610a46573d6000803e3d6000fd5b505050506040513d601f19601f82011682018060405250810190610a6a9190610c7d565b8290610ad6565b9050610a7d8582610ad6565b94508084600186510381518110610a9057fe5b60200260200101818152505050505b6000831215610ac95760405162461bcd60e51b8152600401610ac090610d66565b60405180910390fd5b5090945092505050915091565b6000828201818312801590610aeb5750838112155b80610b005750600083128015610b0057508381125b61025a5760405162461bcd60e51b8152600401610ac090610d25565b60006020808385031215610b2e578182fd5b82516001600160401b03811115610b43578283fd5b8301601f81018513610b53578283fd5b8051610b66610b6182610e18565b610df2565b8181528381019083850185840285018601891015610b82578687fd5b8694505b83851015610bad578051610b9981610e37565b835260019490940193918501918501610b86565b50979650505050505050565b60006020808385031215610bcb578182fd5b82356001600160401b03811115610be0578283fd5b8301601f81018513610bf0578283fd5b8035610bfe610b6182610e18565b8181528381019083850185840285018601891015610c1a578687fd5b8694505b83851015610bad578035610c3181610e37565b835260019490940193918501918501610c1e565b600060208284031215610c56578081fd5b815161025a81610e37565b600060208284031215610c72578081fd5b813561025a81610e37565b600060208284031215610c8e578081fd5b5051919050565b60008060408385031215610ca7578081fd5b823591506020830135610cb981610e37565b809150509250929050565b6001600160a01b0391909116815260200190565b6020808252825182820181905260009190848201906040850190845b81811015610d1057835183529284019291840191600101610cf4565b50909695505050505050565b90815260200190565b60208082526021908201527f5369676e6564536166654d6174683a206164646974696f6e206f766572666c6f6040820152607760f81b606082015260800190565b6020808252600e908201526d139959d85d1a5d99481d1bdd185b60921b604082015260600190565b9182526001600160a01b0316602082015260400190565b60006040820184835260206040818501528185518084526060860191508287019350845b81811015610de557845183529383019391830191600101610dc9565b5090979650505050505050565b6040518181016001600160401b0381118282101715610e1057600080fd5b604052919050565b60006001600160401b03821115610e2d578081fd5b5060209081020190565b6001600160a01b0381168114610e4c57600080fd5b5056fea264697066735822122084a05ff638e873949ad37f25f91992a6da4ef0831b7f45e81bb24ca176d425c064736f6c634300060c0033",
    "linkReferences": {},
    "deployedLinkReferences": {}
}