{
  "_format": "hh-sol-artifact-1",
  "contractName": "BasicEstimator",
  "sourceName": "contracts/oracles/estimators/BasicEstimator.sol",
  "abi": [
    {
      "inputs": [
        {
          "internalType": "address",
          "name": "protocolOracle_",
          "type": "address"
        }
      ],
      "stateMutability": "nonpayable",
      "type": "constructor"
    },
    {
      "inputs": [
        {
          "internalType": "contract IStrategy",
          "name": "strategy",
          "type": "address"
        },
        {
          "internalType": "address",
          "name": "token",
          "type": "address"
        }
      ],
      "name": "estimateItem",
      "outputs": [
        {
          "internalType": "int256",
          "name": "",
          "type": "int256"
        }
      ],
      "stateMutability": "view",
      "type": "function"
    },
    {
      "inputs": [
        {
          "internalType": "contract IStrategy",
          "name": "strategy",
          "type": "address"
        },
        {
          "internalType": "address",
          "name": "token",
          "type": "address"
        },
        {
          "internalType": "uint256",
          "name": "balance",
          "type": "uint256"
        }
      ],
      "name": "estimateItem",
      "outputs": [
        {
          "internalType": "int256",
          "name": "",
          "type": "int256"
        }
      ],
      "stateMutability": "view",
      "type": "function"
    },
    {
      "inputs": [],
      "name": "protocolOracle",
      "outputs": [
        {
          "internalType": "contract IProtocolOracle",
          "name": "",
          "type": "address"
        }
      ],
      "stateMutability": "view",
      "type": "function"
    }
  ],
  "bytecode": "0x60a060405234801561001057600080fd5b506040516102e23803806102e28339818101604052602081101561003357600080fd5b5051606081901b6001600160601b0319166080526001600160a01b031661027661006c60003980610173528061019952506102766000f3fe608060405234801561001057600080fd5b50600436106100415760003560e01c80632a58188a146100465780635b0a9d6514610086578063ecb1927e146100aa575b600080fd5b6100746004803603604081101561005c57600080fd5b506001600160a01b03813581169160200135166100e0565b60408051918252519081900360200190f35b61008e610171565b604080516001600160a01b039092168252519081900360200190f35b610074600480360360608110156100c057600080fd5b506001600160a01b03813581169160208101359091169060400135610195565b600080826001600160a01b03166370a08231856040518263ffffffff1660e01b815260040180826001600160a01b0316815260200191505060206040518083038186803b15801561013057600080fd5b505afa158015610144573d6000803e3d6000fd5b505050506040513d602081101561015a57600080fd5b50519050610169848483610195565b949350505050565b7f000000000000000000000000000000000000000000000000000000000000000081565b60007f00000000000000000000000000000000000000000000000000000000000000006001600160a01b031663ebe680c483856040518363ffffffff1660e01b815260040180838152602001826001600160a01b031681526020019250505060206040518083038186803b15801561020c57600080fd5b505afa158015610220573d6000803e3d6000fd5b505050506040513d602081101561023657600080fd5b505194935050505056fea26469706673582212205a5203acde026654e152afe439db096f70610bef7859a2445a68a5c0206f942364736f6c634300060c0033",
  "linkReferences": {},
  "deployedLinkReferences": {}
}