{
  "_format": "hh-sol-artifact-1",
  "contractName": "BasicEstimator",
  "sourceName": "contracts/oracles/estimators/BasicEstimator.sol",
  "abi": [
    {
      "inputs": [
        {
          "internalType": "address",
          "name": "protocolOracle_",
          "type": "address"
        }
      ],
      "stateMutability": "nonpayable",
      "type": "constructor"
    },
    {
      "inputs": [
        {
          "internalType": "address",
          "name": "user",
          "type": "address"
        },
        {
          "internalType": "address",
          "name": "token",
          "type": "address"
        }
      ],
      "name": "estimateItem",
      "outputs": [
        {
          "internalType": "int256",
          "name": "",
          "type": "int256"
        }
      ],
      "stateMutability": "view",
      "type": "function"
    },
    {
      "inputs": [
        {
          "internalType": "uint256",
          "name": "balance",
          "type": "uint256"
        },
        {
          "internalType": "address",
          "name": "token",
          "type": "address"
        }
      ],
      "name": "estimateItem",
      "outputs": [
        {
          "internalType": "int256",
          "name": "",
          "type": "int256"
        }
      ],
      "stateMutability": "view",
      "type": "function"
    },
    {
      "inputs": [],
      "name": "protocolOracle",
      "outputs": [
        {
          "internalType": "contract IProtocolOracle",
          "name": "",
          "type": "address"
        }
      ],
      "stateMutability": "view",
      "type": "function"
    }
  ],
  "bytecode": "0x60a060405234801561001057600080fd5b506040516102e93803806102e98339818101604052602081101561003357600080fd5b5051606081901b6001600160601b0319166080526001600160a01b031661027d61006c6000398061016852806101a1525061027d6000f3fe608060405234801561001057600080fd5b50600436106100415760003560e01c80632a58188a146100465780635b0a9d6514610086578063b44a043b146100aa575b600080fd5b6100746004803603604081101561005c57600080fd5b506001600160a01b03813581169160200135166100d6565b60408051918252519081900360200190f35b61008e610166565b604080516001600160a01b039092168252519081900360200190f35b610074600480360360408110156100c057600080fd5b50803590602001356001600160a01b031661018a565b600080826001600160a01b03166370a08231856040518263ffffffff1660e01b815260040180826001600160a01b0316815260200191505060206040518083038186803b15801561012657600080fd5b505afa15801561013a573d6000803e3d6000fd5b505050506040513d602081101561015057600080fd5b5051905061015e818461019d565b949350505050565b7f000000000000000000000000000000000000000000000000000000000000000081565b6000610196838361019d565b9392505050565b60007f00000000000000000000000000000000000000000000000000000000000000006001600160a01b031663ebe680c484846040518363ffffffff1660e01b815260040180838152602001826001600160a01b031681526020019250505060206040518083038186803b15801561021457600080fd5b505afa158015610228573d6000803e3d6000fd5b505050506040513d602081101561023e57600080fd5b5051939250505056fea26469706673582212208e898e89b90e90d736f7692c987542416e1e62eaf6b7e9c841f6d8044631124e64736f6c634300060c0033",
  "linkReferences": {},
  "deployedLinkReferences": {}
}