{
  "_format": "hh-sol-artifact-1",
  "contractName": "CurveGaugeAdapter",
  "sourceName": "contracts/adapters/vaults/CurveGaugeAdapter.sol",
  "abi": [
    {
      "inputs": [
        {
          "internalType": "address",
          "name": "weth_",
          "type": "address"
        },
        {
          "internalType": "address",
          "name": "tokenRegistry_",
          "type": "address"
        },
        {
          "internalType": "uint256",
          "name": "categoryIndex_",
          "type": "uint256"
        }
      ],
      "stateMutability": "nonpayable",
      "type": "constructor"
    },
    {
      "inputs": [],
      "name": "categoryIndex",
      "outputs": [
        {
          "internalType": "uint256",
          "name": "",
          "type": "uint256"
        }
      ],
      "stateMutability": "view",
      "type": "function"
    },
    {
      "inputs": [
        {
          "internalType": "address[]",
          "name": "tokens",
          "type": "address[]"
        }
      ],
      "name": "claim",
      "outputs": [],
      "stateMutability": "nonpayable",
      "type": "function"
    },
    {
      "inputs": [
        {
          "internalType": "address",
          "name": "token",
          "type": "address"
        }
      ],
      "name": "rewardsTokens",
      "outputs": [
        {
          "internalType": "address[]",
          "name": "ret",
          "type": "address[]"
        }
      ],
      "stateMutability": "view",
      "type": "function"
    },
    {
      "inputs": [
        {
          "internalType": "uint256",
          "name": "amount",
          "type": "uint256"
        },
        {
          "internalType": "uint256",
          "name": "expected",
          "type": "uint256"
        },
        {
          "internalType": "address",
          "name": "tokenIn",
          "type": "address"
        },
        {
          "internalType": "address",
          "name": "tokenOut",
          "type": "address"
        },
        {
          "internalType": "address",
          "name": "from",
          "type": "address"
        },
        {
          "internalType": "address",
          "name": "to",
          "type": "address"
        }
      ],
      "name": "swap",
      "outputs": [],
      "stateMutability": "nonpayable",
      "type": "function"
    },
    {
      "inputs": [],
      "name": "tokenRegistry",
      "outputs": [
        {
          "internalType": "contract ITokenRegistry",
          "name": "",
          "type": "address"
        }
      ],
      "stateMutability": "view",
      "type": "function"
    },
    {
      "inputs": [],
      "name": "weth",
      "outputs": [
        {
          "internalType": "address",
          "name": "",
          "type": "address"
        }
      ],
      "stateMutability": "view",
      "type": "function"
    }
  ],
  "bytecode": "0x60e060405234801561001057600080fd5b506040516200129138038062001291833981016040819052610031916100a9565b6001600160601b0319606084901b166080528282828061006c5760405162461bcd60e51b8152600401610063906100e6565b60405180910390fd5b60609190911b6001600160601b03191660a05260c0525061011092505050565b80516001600160a01b03811681146100a357600080fd5b92915050565b6000806000606084860312156100bd578283fd5b6100c7858561008c565b92506100d6856020860161008c565b9150604084015190509250925092565b60208082526010908201526f496e76616c69642063617465676f727960801b604082015260600190565b60805160601c60a05160601c60c0516111446200014d6000398061073a52806107fd5250806105c452806107615250806105a052506111446000f3fe608060405234801561001057600080fd5b50600436106100725760003560e01c80639d23c4c7116100505780639d23c4c7146100bd578063b901d3c0146100c5578063ea99fc04146100e557610072565b8063230f11c714610077578063318d9e5d1461008c5780633fc8cef31461009f575b600080fd5b61008a610085366004610d10565b6100fa565b005b61008a61009a366004610c3b565b610512565b6100a761059e565b6040516100b49190610d9b565b60405180910390f35b6100a76105c2565b6100d86100d3366004610c03565b6105e6565b6040516100b49190610e06565b6100ed610738565b6040516100b49190611063565b826001600160a01b0316846001600160a01b031614156101355760405162461bcd60e51b815260040161012c90610fcc565b60405180910390fd5b61013e8361075c565b1561030b576000839050846001600160a01b0316816001600160a01b03166382c630666040518163ffffffff1660e01b815260040160206040518083038186803b15801561018b57600080fd5b505afa15801561019f573d6000803e3d6000fd5b505050506040513d601f19601f820116820180604052508101906101c39190610c1f565b6001600160a01b0316146101e95760405162461bcd60e51b815260040161012c90610ef2565b6101f4838689610824565b965061020a6001600160a01b038616858961097e565b604051636e553f6560e01b81526001600160a01b03821690636e553f6590610238908a90309060040161106c565b600060405180830381600087803b15801561025257600080fd5b505af1158015610266573d6000803e3d6000fd5b5050604051636eb1769f60e11b81526001600160a01b038816925063dd62ed3e91506102989030908890600401610daf565b60206040518083038186803b1580156102b057600080fd5b505afa1580156102c4573d6000803e3d6000fd5b505050506040513d601f19601f820116820180604052508101906102e89190610cf8565b156103055760405162461bcd60e51b815260040161012c9061103a565b50610444565b6103148461075c565b6103305760405162461bcd60e51b815260040161012c90610e86565b6000849050836001600160a01b0316816001600160a01b03166382c630666040518163ffffffff1660e01b815260040160206040518083038186803b15801561037857600080fd5b505afa15801561038c573d6000803e3d6000fd5b505050506040513d601f19601f820116820180604052508101906103b09190610c1f565b6001600160a01b0316146103d65760405162461bcd60e51b815260040161012c90610ef2565b6103e1838689610824565b604051632e1a7d4d60e01b81529097506001600160a01b03821690632e1a7d4d90610410908a90600401611063565b600060405180830381600087803b15801561042a57600080fd5b505af115801561043e573d6000803e3d6000fd5b50505050505b6040516370a0823160e01b81526000906001600160a01b038516906370a0823190610473903090600401610d9b565b60206040518083038186803b15801561048b57600080fd5b505afa15801561049f573d6000803e3d6000fd5b505050506040513d601f19601f820116820180604052508101906104c39190610cf8565b9050858110156104e55760405162461bcd60e51b815260040161012c90610f95565b6001600160a01b0382163014610509576105096001600160a01b0385168383610a06565b50505050505050565b60005b815181101561059a5781818151811061052a57fe5b60200260200101516001600160a01b03166384e9bd7e306040518263ffffffff1660e01b815260040161055d9190610d9b565b600060405180830381600087803b15801561057757600080fd5b505af115801561058b573d6000803e3d6000fd5b50505050806001019050610515565b5050565b7f000000000000000000000000000000000000000000000000000000000000000081565b7f000000000000000000000000000000000000000000000000000000000000000081565b6040805160088082526101208201909252606091839190602082016101008036833701905050915060005b60088110156106fd576040516354c49fe960e01b81526001600160a01b038316906354c49fe990610646908490600401611063565b60206040518083038186803b15801561065e57600080fd5b505afa158015610672573d6000803e3d6000fd5b505050506040513d601f19601f820116820180604052508101906106969190610c1f565b8382815181106106a257fe5b60200260200101906001600160a01b031690816001600160a01b03168152505060006001600160a01b03168382815181106106d957fe5b60200260200101516001600160a01b031614156106f5576106fd565b600101610611565b60006001600160a01b03168360008151811061071557fe5b60200260200101516001600160a01b03161415610730575060005b825250919050565b7f000000000000000000000000000000000000000000000000000000000000000081565b6000807f00000000000000000000000000000000000000000000000000000000000000006001600160a01b03166346a74837846040518263ffffffff1660e01b81526004016107ab9190610d9b565b60206040518083038186803b1580156107c357600080fd5b505afa1580156107d7573d6000803e3d6000fd5b505050506040513d601f19601f820116820180604052508101906107fb9190610cf8565b7f0000000000000000000000000000000000000000000000000000000000000000149392505050565b60006001600160a01b0384163014610974576040516370a0823160e01b81526000906001600160a01b038516906370a0823190610865903090600401610d9b565b60206040518083038186803b15801561087d57600080fd5b505afa158015610891573d6000803e3d6000fd5b505050506040513d601f19601f820116820180604052508101906108b59190610cf8565b90506108cc6001600160a01b038516863086610a25565b6040516370a0823160e01b81526000906001600160a01b038616906370a08231906108fb903090600401610d9b565b60206040518083038186803b15801561091357600080fd5b505afa158015610927573d6000803e3d6000fd5b505050506040513d601f19601f8201168201806040525081019061094b9190610cf8565b905081811161096c5760405162461bcd60e51b815260040161012c90610ebd565b039050610977565b50805b9392505050565b610a018363095ea7b360e01b848460405160240161099d929190610ded565b60408051601f198184030181529190526020810180517bffffffffffffffffffffffffffffffffffffffffffffffffffffffff167fffffffff0000000000000000000000000000000000000000000000000000000090931692909217909152610a4c565b505050565b610a018363a9059cbb60e01b848460405160240161099d929190610ded565b610a46846323b872dd60e01b85858560405160240161099d93929190610dc9565b50505050565b6060610aa1826040518060400160405280602081526020017f5361666545524332303a206c6f772d6c6576656c2063616c6c206661696c6564815250856001600160a01b0316610adb9092919063ffffffff16565b805190915015610a015780806020019051810190610abf9190610cd8565b610a015760405162461bcd60e51b815260040161012c90610f5e565b6060610aea8484600085610af2565b949350505050565b606082471015610b145760405162461bcd60e51b815260040161012c90610f18565b610b1d85610bb3565b610b395760405162461bcd60e51b815260040161012c90611003565b60006060866001600160a01b03168587604051610b569190610d7f565b60006040518083038185875af1925050503d8060008114610b93576040519150601f19603f3d011682016040523d82523d6000602084013e610b98565b606091505b5091509150610ba8828286610bb9565b979650505050505050565b3b151590565b60608315610bc8575081610977565b825115610bd85782518084602001fd5b8160405162461bcd60e51b815260040161012c9190610e53565b8035610bfd816110f6565b92915050565b600060208284031215610c14578081fd5b8135610977816110f6565b600060208284031215610c30578081fd5b8151610977816110f6565b60006020808385031215610c4d578182fd5b823567ffffffffffffffff811115610c63578283fd5b8301601f81018513610c73578283fd5b8035610c86610c81826110aa565b611083565b8181528381019083850185840285018601891015610ca2578687fd5b8694505b83851015610ccc57610cb88982610bf2565b835260019490940193918501918501610ca6565b50979650505050505050565b600060208284031215610ce9578081fd5b81518015158114610977578182fd5b600060208284031215610d09578081fd5b5051919050565b60008060008060008060c08789031215610d28578182fd5b86359550602087013594506040870135610d41816110f6565b93506060870135610d51816110f6565b92506080870135610d61816110f6565b915060a0870135610d71816110f6565b809150509295509295509295565b60008251610d918184602087016110ca565b9190910192915050565b6001600160a01b0391909116815260200190565b6001600160a01b0392831681529116602082015260400190565b6001600160a01b039384168152919092166020820152604081019190915260600190565b6001600160a01b03929092168252602082015260400190565b6020808252825182820181905260009190848201906040850190845b81811015610e475783516001600160a01b031683529284019291840191600101610e22565b50909695505050505050565b6000602082528251806020840152610e728160408501602087016110ca565b601f01601f19169190910160400192915050565b60208082526014908201527f4e6f20437572766520476175676520746f6b656e000000000000000000000000604082015260600190565b6020808252818101527f4e6f20746f6b656e73207472616e7366657272656420746f2061646170746572604082015260600190565b6020808252600c908201526b496e636f6d70617469626c6560a01b604082015260600190565b60208082526026908201527f416464726573733a20696e73756666696369656e742062616c616e636520666f6040820152651c8818d85b1b60d21b606082015260800190565b60208082526013908201527f5361666545524332303a20217375636365737300000000000000000000000000604082015260600190565b6020808252601c908201527f496e73756666696369656e7420746f6b656e4f757420616d6f756e7400000000604082015260600190565b60208082526013908201527f546f6b656e732063616e6e6f74206d6174636800000000000000000000000000604082015260600190565b6020808252601d908201527f416464726573733a2063616c6c20746f206e6f6e2d636f6e7472616374000000604082015260600190565b6020808252600f908201526e0496e636f6d706c657465207377617608c1b604082015260600190565b90815260200190565b9182526001600160a01b0316602082015260400190565b60405181810167ffffffffffffffff811182821017156110a257600080fd5b604052919050565b600067ffffffffffffffff8211156110c0578081fd5b5060209081020190565b60005b838110156110e55781810151838201526020016110cd565b83811115610a465750506000910152565b6001600160a01b038116811461110b57600080fd5b5056fea264697066735822122020dd45374d17a3d2348b62fab1cefbb82ca96f44d37105bca4146f30fed0b67f64736f6c634300060c0033",
  "linkReferences": {},
  "deployedLinkReferences": {}
}