{
  "_format": "hh-sol-artifact-1",
  "contractName": "StakingRewards",
  "sourceName": "contracts/mocks/staking/StakingRewards.sol",
  "abi": [
    {
      "inputs": [
        {
          "internalType": "address",
          "name": "_owner",
          "type": "address"
        },
        {
          "internalType": "address",
          "name": "_rewardsDistribution",
          "type": "address"
        },
        {
          "internalType": "address",
          "name": "_rewardsToken",
          "type": "address"
        },
        {
          "internalType": "address",
          "name": "_stakingToken",
          "type": "address"
        }
      ],
      "stateMutability": "nonpayable",
      "type": "constructor"
    },
    {
      "anonymous": false,
      "inputs": [
        {
          "indexed": false,
          "internalType": "address",
          "name": "oldOwner",
          "type": "address"
        },
        {
          "indexed": false,
          "internalType": "address",
          "name": "newOwner",
          "type": "address"
        }
      ],
      "name": "OwnerChanged",
      "type": "event"
    },
    {
      "anonymous": false,
      "inputs": [
        {
          "indexed": false,
          "internalType": "address",
          "name": "newOwner",
          "type": "address"
        }
      ],
      "name": "OwnerNominated",
      "type": "event"
    },
    {
      "anonymous": false,
      "inputs": [
        {
          "indexed": false,
          "internalType": "address",
          "name": "token",
          "type": "address"
        },
        {
          "indexed": false,
          "internalType": "uint256",
          "name": "amount",
          "type": "uint256"
        }
      ],
      "name": "Recovered",
      "type": "event"
    },
    {
      "anonymous": false,
      "inputs": [
        {
          "indexed": false,
          "internalType": "uint256",
          "name": "reward",
          "type": "uint256"
        }
      ],
      "name": "RewardAdded",
      "type": "event"
    },
    {
      "anonymous": false,
      "inputs": [
        {
          "indexed": true,
          "internalType": "address",
          "name": "user",
          "type": "address"
        },
        {
          "indexed": false,
          "internalType": "uint256",
          "name": "reward",
          "type": "uint256"
        }
      ],
      "name": "RewardPaid",
      "type": "event"
    },
    {
      "anonymous": false,
      "inputs": [
        {
          "indexed": false,
          "internalType": "uint256",
          "name": "newDuration",
          "type": "uint256"
        }
      ],
      "name": "RewardsDurationUpdated",
      "type": "event"
    },
    {
      "anonymous": false,
      "inputs": [
        {
          "indexed": true,
          "internalType": "address",
          "name": "user",
          "type": "address"
        },
        {
          "indexed": false,
          "internalType": "uint256",
          "name": "amount",
          "type": "uint256"
        }
      ],
      "name": "Staked",
      "type": "event"
    },
    {
      "anonymous": false,
      "inputs": [
        {
          "indexed": true,
          "internalType": "address",
          "name": "user",
          "type": "address"
        },
        {
          "indexed": false,
          "internalType": "uint256",
          "name": "amount",
          "type": "uint256"
        }
      ],
      "name": "Withdrawn",
      "type": "event"
    },
    {
      "inputs": [],
      "name": "acceptOwnership",
      "outputs": [],
      "stateMutability": "nonpayable",
      "type": "function"
    },
    {
      "inputs": [
        {
          "internalType": "address",
          "name": "account",
          "type": "address"
        }
      ],
      "name": "balanceOf",
      "outputs": [
        {
          "internalType": "uint256",
          "name": "",
          "type": "uint256"
        }
      ],
      "stateMutability": "view",
      "type": "function"
    },
    {
      "inputs": [
        {
          "internalType": "address",
          "name": "account",
          "type": "address"
        }
      ],
      "name": "earned",
      "outputs": [
        {
          "internalType": "uint256",
          "name": "",
          "type": "uint256"
        }
      ],
      "stateMutability": "view",
      "type": "function"
    },
    {
      "inputs": [],
      "name": "exit",
      "outputs": [],
      "stateMutability": "nonpayable",
      "type": "function"
    },
    {
      "inputs": [],
      "name": "getReward",
      "outputs": [],
      "stateMutability": "nonpayable",
      "type": "function"
    },
    {
      "inputs": [],
      "name": "getRewardForDuration",
      "outputs": [
        {
          "internalType": "uint256",
          "name": "",
          "type": "uint256"
        }
      ],
      "stateMutability": "view",
      "type": "function"
    },
    {
      "inputs": [],
      "name": "lastTimeRewardApplicable",
      "outputs": [
        {
          "internalType": "uint256",
          "name": "",
          "type": "uint256"
        }
      ],
      "stateMutability": "view",
      "type": "function"
    },
    {
      "inputs": [],
      "name": "lastUpdateTime",
      "outputs": [
        {
          "internalType": "uint256",
          "name": "",
          "type": "uint256"
        }
      ],
      "stateMutability": "view",
      "type": "function"
    },
    {
      "inputs": [
        {
          "internalType": "address",
          "name": "_owner",
          "type": "address"
        }
      ],
      "name": "nominateNewOwner",
      "outputs": [],
      "stateMutability": "nonpayable",
      "type": "function"
    },
    {
      "inputs": [],
      "name": "nominatedOwner",
      "outputs": [
        {
          "internalType": "address",
          "name": "",
          "type": "address"
        }
      ],
      "stateMutability": "view",
      "type": "function"
    },
    {
      "inputs": [
        {
          "internalType": "uint256",
          "name": "reward",
          "type": "uint256"
        }
      ],
      "name": "notifyRewardAmount",
      "outputs": [],
      "stateMutability": "nonpayable",
      "type": "function"
    },
    {
      "inputs": [],
      "name": "owner",
      "outputs": [
        {
          "internalType": "address",
          "name": "",
          "type": "address"
        }
      ],
      "stateMutability": "view",
      "type": "function"
    },
    {
      "inputs": [],
      "name": "periodFinish",
      "outputs": [
        {
          "internalType": "uint256",
          "name": "",
          "type": "uint256"
        }
      ],
      "stateMutability": "view",
      "type": "function"
    },
    {
      "inputs": [
        {
          "internalType": "address",
          "name": "tokenAddress",
          "type": "address"
        },
        {
          "internalType": "uint256",
          "name": "tokenAmount",
          "type": "uint256"
        }
      ],
      "name": "recoverERC20",
      "outputs": [],
      "stateMutability": "nonpayable",
      "type": "function"
    },
    {
      "inputs": [],
      "name": "rewardPerToken",
      "outputs": [
        {
          "internalType": "uint256",
          "name": "",
          "type": "uint256"
        }
      ],
      "stateMutability": "view",
      "type": "function"
    },
    {
      "inputs": [],
      "name": "rewardPerTokenStored",
      "outputs": [
        {
          "internalType": "uint256",
          "name": "",
          "type": "uint256"
        }
      ],
      "stateMutability": "view",
      "type": "function"
    },
    {
      "inputs": [],
      "name": "rewardRate",
      "outputs": [
        {
          "internalType": "uint256",
          "name": "",
          "type": "uint256"
        }
      ],
      "stateMutability": "view",
      "type": "function"
    },
    {
      "inputs": [
        {
          "internalType": "address",
          "name": "",
          "type": "address"
        }
      ],
      "name": "rewards",
      "outputs": [
        {
          "internalType": "uint256",
          "name": "",
          "type": "uint256"
        }
      ],
      "stateMutability": "view",
      "type": "function"
    },
    {
      "inputs": [],
      "name": "rewardsDistribution",
      "outputs": [
        {
          "internalType": "address",
          "name": "",
          "type": "address"
        }
      ],
      "stateMutability": "view",
      "type": "function"
    },
    {
      "inputs": [],
      "name": "rewardsDuration",
      "outputs": [
        {
          "internalType": "uint256",
          "name": "",
          "type": "uint256"
        }
      ],
      "stateMutability": "view",
      "type": "function"
    },
    {
      "inputs": [],
      "name": "rewardsToken",
      "outputs": [
        {
          "internalType": "contract IERC20",
          "name": "",
          "type": "address"
        }
      ],
      "stateMutability": "view",
      "type": "function"
    },
    {
      "inputs": [
        {
          "internalType": "address",
          "name": "_rewardsDistribution",
          "type": "address"
        }
      ],
      "name": "setRewardsDistribution",
      "outputs": [],
      "stateMutability": "nonpayable",
      "type": "function"
    },
    {
      "inputs": [
        {
          "internalType": "uint256",
          "name": "_rewardsDuration",
          "type": "uint256"
        }
      ],
      "name": "setRewardsDuration",
      "outputs": [],
      "stateMutability": "nonpayable",
      "type": "function"
    },
    {
      "inputs": [
        {
          "internalType": "uint256",
          "name": "amount",
          "type": "uint256"
        }
      ],
      "name": "stake",
      "outputs": [],
      "stateMutability": "nonpayable",
      "type": "function"
    },
    {
      "inputs": [],
      "name": "stakingToken",
      "outputs": [
        {
          "internalType": "contract IERC20",
          "name": "",
          "type": "address"
        }
      ],
      "stateMutability": "view",
      "type": "function"
    },
    {
      "inputs": [],
      "name": "totalSupply",
      "outputs": [
        {
          "internalType": "uint256",
          "name": "",
          "type": "uint256"
        }
      ],
      "stateMutability": "view",
      "type": "function"
    },
    {
      "inputs": [
        {
          "internalType": "address",
          "name": "",
          "type": "address"
        }
      ],
      "name": "userRewardPerTokenPaid",
      "outputs": [
        {
          "internalType": "uint256",
          "name": "",
          "type": "uint256"
        }
      ],
      "stateMutability": "view",
      "type": "function"
    },
    {
      "inputs": [
        {
          "internalType": "uint256",
          "name": "amount",
          "type": "uint256"
        }
      ],
      "name": "withdraw",
      "outputs": [],
      "stateMutability": "nonpayable",
      "type": "function"
    }
  ],
  "bytecode": "0x60806040526000600655600060075562093a8060085534801561002157600080fd5b506040516117d63803806117d68339818101604052608081101561004457600080fd5b508051602082015160408301516060909301519192909183806001600160a01b0381166100b8576040805162461bcd60e51b815260206004820152601960248201527f4f776e657220616464726573732063616e6e6f74206265203000000000000000604482015290519081900360640190fd5b600080546001600160a01b0319166001600160a01b038316908117825560408051928352602083019190915280517fb532073b38c83145e3e5135377a08bf9aab55bc0fd7c1179cd4fb995d2a5159c9281900390910190a150506001600355600480546001600160a01b039384166001600160a01b0319918216179091556005805492841692821692909217909155600280549390921692169190911790555061166f806101676000396000f3fe608060405234801561001057600080fd5b50600436106101c35760003560e01c806379ba5097116100f9578063c8f33c9111610097578063d1af0c7d11610071578063d1af0c7d146103e4578063df136d65146103ec578063e9fad8ee146103f4578063ebe2b12b146103fc576101c3565b8063c8f33c91146103b7578063cc1a378f146103bf578063cd3daf9d146103dc576101c3565b80638980f11f116100d35780638980f11f146103405780638b8763471461036c5780638da5cb5b14610392578063a694fc3a1461039a576101c3565b806379ba5097146103285780637b0a47ee1461033057806380faa57d14610338576101c3565b8063386a9525116101665780633fc6df6e116101405780633fc6df6e146102ce57806353a47bb7146102f257806370a08231146102fa57806372f702f314610320576101c3565b8063386a9525146102a15780633c6b16ab146102a95780633d18b912146102c6576101c3565b806318160ddd116101a257806318160ddd1461024e57806319762143146102565780631c1f78eb1461027c5780632e1a7d4d14610284576101c3565b80628cc262146101c85780630700037d146102005780631627540c14610226575b600080fd5b6101ee600480360360208110156101de57600080fd5b50356001600160a01b0316610404565b60408051918252519081900360200190f35b6101ee6004803603602081101561021657600080fd5b50356001600160a01b0316610482565b61024c6004803603602081101561023c57600080fd5b50356001600160a01b0316610494565b005b6101ee6104f0565b61024c6004803603602081101561026c57600080fd5b50356001600160a01b03166104f7565b6101ee610521565b61024c6004803603602081101561029a57600080fd5b503561053f565b6101ee6106e1565b61024c600480360360208110156102bf57600080fd5b50356106e7565b61024c61091e565b6102d6610a55565b604080516001600160a01b039092168252519081900360200190f35b6102d6610a64565b6101ee6004803603602081101561031057600080fd5b50356001600160a01b0316610a73565b6102d6610a8e565b61024c610a9d565b6101ee610b59565b6101ee610b5f565b61024c6004803603604081101561035657600080fd5b506001600160a01b038135169060200135610b77565b6101ee6004803603602081101561038257600080fd5b50356001600160a01b0316610c2e565b6102d6610c40565b61024c600480360360208110156103b057600080fd5b5035610c4f565b6101ee610de3565b61024c600480360360208110156103d557600080fd5b5035610de9565b6101ee610e6c565b6102d6610eba565b6101ee610ec9565b61024c610ecf565b6101ee610ef2565b6001600160a01b0381166000908152600c6020908152604080832054600b90925282205461047c919061047690670de0b6b3a764000090610470906104519061044b610e6c565b90610ef8565b6001600160a01b0388166000908152600e602052604090205490610f41565b90610f9a565b90610fdc565b92915050565b600c6020526000908152604090205481565b61049c611036565b600180546001600160a01b0383166001600160a01b0319909116811790915560408051918252517f906a1c6bd7e3091ea86693dd029a831c19049ce77f1dce2ce0bab1cacbabce229181900360200190a150565b600d545b90565b6104ff611036565b600280546001600160a01b0319166001600160a01b0392909216919091179055565b600061053a600854600754610f4190919063ffffffff16565b905090565b60026003541415610597576040805162461bcd60e51b815260206004820152601f60248201527f5265656e7472616e637947756172643a207265656e7472616e742063616c6c00604482015290519081900360640190fd5b6002600355336105a5610e6c565b600a556105b0610b5f565b6009556001600160a01b038116156105f7576105cb81610404565b6001600160a01b0382166000908152600c6020908152604080832093909355600a54600b909152919020555b6000821161064c576040805162461bcd60e51b815260206004820152601160248201527f43616e6e6f742077697468647261772030000000000000000000000000000000604482015290519081900360640190fd5b600d546106599083610ef8565b600d55336000908152600e60205260409020546106769083610ef8565b336000818152600e60205260409020919091556005546106a2916001600160a01b03909116908461107f565b60408051838152905133917f7084f5476618d8e60b11ef0d7d3f06914655adb8793e28ff7f018d4c76d505d5919081900360200190a250506001600355565b60085481565b6002546001600160a01b031633146107305760405162461bcd60e51b815260040180806020018281038252602a8152602001806115c5602a913960400191505060405180910390fd5b600061073a610e6c565b600a55610745610b5f565b6009556001600160a01b0381161561078c5761076081610404565b6001600160a01b0382166000908152600c6020908152604080832093909355600a54600b909152919020555b60065442106107ab576008546107a3908390610f9a565b6007556107ee565b6006546000906107bb9042610ef8565b905060006107d460075483610f4190919063ffffffff16565b6008549091506107e8906104708684610fdc565b60075550505b60048054604080516370a0823160e01b81523093810193909352516000926001600160a01b03909216916370a08231916024808301926020929190829003018186803b15801561083d57600080fd5b505afa158015610851573d6000803e3d6000fd5b505050506040513d602081101561086757600080fd5b505160085490915061087a908290610f9a565b60075411156108d0576040805162461bcd60e51b815260206004820152601860248201527f50726f76696465642072657761726420746f6f20686967680000000000000000604482015290519081900360640190fd5b4260098190556008546108e39190610fdc565b6006556040805184815290517fde88a922e0d3b88b24e9623efeb464919c6bf9f66857a65e2bfcf2ce87a9433d9181900360200190a1505050565b60026003541415610976576040805162461bcd60e51b815260206004820152601f60248201527f5265656e7472616e637947756172643a207265656e7472616e742063616c6c00604482015290519081900360640190fd5b600260035533610984610e6c565b600a5561098f610b5f565b6009556001600160a01b038116156109d6576109aa81610404565b6001600160a01b0382166000908152600c6020908152604080832093909355600a54600b909152919020555b336000908152600c60205260409020548015610a4c57336000818152600c6020526040812055600454610a15916001600160a01b03909116908361107f565b60408051828152905133917fe2403640ba68fed3a2f88b7557551d1993f84b99bb10ff833f0cf8db0c5e0486919081900360200190a25b50506001600355565b6002546001600160a01b031681565b6001546001600160a01b031681565b6001600160a01b03166000908152600e602052604090205490565b6005546001600160a01b031681565b6001546001600160a01b03163314610ae65760405162461bcd60e51b815260040180806020018281038252603581526020018061151a6035913960400191505060405180910390fd5b600054600154604080516001600160a01b03938416815292909116602083015280517fb532073b38c83145e3e5135377a08bf9aab55bc0fd7c1179cd4fb995d2a5159c9281900390910190a160018054600080546001600160a01b03199081166001600160a01b03841617909155169055565b60075481565b60006006544210610b725760065461053a565b504290565b610b7f611036565b6005546001600160a01b0383811691161415610bcc5760405162461bcd60e51b81526004018080602001828103825260218152602001806116196021913960400191505060405180910390fd5b600054610be6906001600160a01b0384811691168361107f565b604080516001600160a01b03841681526020810183905281517f8c1256b8896378cd5044f80c202f9772b9d77dc85c8a6eb51967210b09bfaa28929181900390910190a15050565b600b6020526000908152604090205481565b6000546001600160a01b031681565b60026003541415610ca7576040805162461bcd60e51b815260206004820152601f60248201527f5265656e7472616e637947756172643a207265656e7472616e742063616c6c00604482015290519081900360640190fd5b600260035533610cb5610e6c565b600a55610cc0610b5f565b6009556001600160a01b03811615610d0757610cdb81610404565b6001600160a01b0382166000908152600c6020908152604080832093909355600a54600b909152919020555b60008211610d4d576040805162461bcd60e51b815260206004820152600e60248201526d043616e6e6f74207374616b6520360941b604482015290519081900360640190fd5b600d54610d5a9083610fdc565b600d55336000908152600e6020526040902054610d779083610fdc565b336000818152600e6020526040902091909155600554610da4916001600160a01b039091169030856110d6565b60408051838152905133917f9e71bc8eea02a63969f509818f2dafb9254532904319f9dbda79b67bd34a5f3d919081900360200190a250506001600355565b60095481565b610df1611036565b6006544211610e315760405162461bcd60e51b81526004018080602001828103825260588152602001806114c26058913960600191505060405180910390fd5b60088190556040805182815290517ffb46ca5a5e06d4540d6387b930a7c978bce0db5f449ec6b3f5d07c6e1d44f2d39181900360200190a150565b6000600d5460001415610e825750600a546104f4565b61053a610eb1600d54610470670de0b6b3a7640000610eab600754610eab60095461044b610b5f565b90610f41565b600a5490610fdc565b6004546001600160a01b031681565b600a5481565b336000908152600e6020526040902054610ee89061053f565b610ef061091e565b565b60065481565b6000610f3a83836040518060400160405280601e81526020017f536166654d6174683a207375627472616374696f6e206f766572666c6f770000815250611136565b9392505050565b600082610f505750600061047c565b82820282848281610f5d57fe5b0414610f3a5760405162461bcd60e51b81526004018080602001828103825260218152602001806115a46021913960400191505060405180910390fd5b6000610f3a83836040518060400160405280601a81526020017f536166654d6174683a206469766973696f6e206279207a65726f0000000000008152506111cd565b600082820183811015610f3a576040805162461bcd60e51b815260206004820152601b60248201527f536166654d6174683a206164646974696f6e206f766572666c6f770000000000604482015290519081900360640190fd5b6000546001600160a01b03163314610ef05760405162461bcd60e51b815260040180806020018281038252602f815260200180611575602f913960400191505060405180910390fd5b604080516001600160a01b038416602482015260448082018490528251808303909101815260649091019091526020810180516001600160e01b031663a9059cbb60e01b1790526110d1908490611232565b505050565b604080516001600160a01b0380861660248301528416604482015260648082018490528251808303909101815260849091019091526020810180516001600160e01b03166323b872dd60e01b179052611130908590611232565b50505050565b600081848411156111c55760405162461bcd60e51b81526004018080602001828103825283818151815260200191508051906020019080838360005b8381101561118a578181015183820152602001611172565b50505050905090810190601f1680156111b75780820380516001836020036101000a031916815260200191505b509250505060405180910390fd5b505050900390565b6000818361121c5760405162461bcd60e51b815260206004820181815283516024840152835190928392604490910191908501908083836000831561118a578181015183820152602001611172565b50600083858161122857fe5b0495945050505050565b6000611287826040518060400160405280602081526020017f5361666545524332303a206c6f772d6c6576656c2063616c6c206661696c6564815250856001600160a01b03166112e39092919063ffffffff16565b8051909150156110d1578080602001905160208110156112a657600080fd5b50516110d15760405162461bcd60e51b815260040180806020018281038252602a8152602001806115ef602a913960400191505060405180910390fd5b60606112f284846000856112fa565b949350505050565b60608247101561133b5760405162461bcd60e51b815260040180806020018281038252602681526020018061154f6026913960400191505060405180910390fd5b61134485611455565b611395576040805162461bcd60e51b815260206004820152601d60248201527f416464726573733a2063616c6c20746f206e6f6e2d636f6e7472616374000000604482015290519081900360640190fd5b600080866001600160a01b031685876040518082805190602001908083835b602083106113d35780518252601f1990920191602091820191016113b4565b6001836020036101000a03801982511681845116808217855250505050505090500191505060006040518083038185875af1925050503d8060008114611435576040519150601f19603f3d011682016040523d82523d6000602084013e61143a565b606091505b509150915061144a82828661145b565b979650505050505050565b3b151590565b6060831561146a575081610f3a565b82511561147a5782518084602001fd5b60405162461bcd60e51b815260206004820181815284516024840152845185939192839260440191908501908083836000831561118a57818101518382015260200161117256fe50726576696f7573207265776172647320706572696f64206d75737420626520636f6d706c657465206265666f7265206368616e67696e6720746865206475726174696f6e20666f7220746865206e657720706572696f64596f75206d757374206265206e6f6d696e61746564206265666f726520796f752063616e20616363657074206f776e657273686970416464726573733a20696e73756666696369656e742062616c616e636520666f722063616c6c4f6e6c792074686520636f6e7472616374206f776e6572206d617920706572666f726d207468697320616374696f6e536166654d6174683a206d756c7469706c69636174696f6e206f766572666c6f7743616c6c6572206973206e6f742052657761726473446973747269627574696f6e20636f6e74726163745361666545524332303a204552433230206f7065726174696f6e20646964206e6f74207375636365656443616e6e6f7420776974686472617720746865207374616b696e6720746f6b656ea2646970667358221220041e5593c3cd5e2755a8bec3b442724f5e4349f63f6e646293e2cfed4de4b92764736f6c63430007060033",
  "linkReferences": {},
  "deployedLinkReferences": {}
}