{
    "_format": "hh-sol-artifact-1",
    "contractName": "CompoundEstimator",
    "sourceName": "contracts/oracles/estimators/CompoundEstimator.sol",
    "abi": [
        {
            "inputs": [
                {
                    "internalType": "address",
                    "name": "user",
                    "type": "address"
                },
                {
                    "internalType": "address",
                    "name": "token",
                    "type": "address"
                }
            ],
            "name": "estimateItem",
            "outputs": [
                {
                    "internalType": "int256",
                    "name": "",
                    "type": "int256"
                }
            ],
            "stateMutability": "view",
            "type": "function"
        },
        {
            "inputs": [
                {
                    "internalType": "uint256",
                    "name": "balance",
                    "type": "uint256"
                },
                {
                    "internalType": "address",
                    "name": "token",
                    "type": "address"
                }
            ],
            "name": "estimateItem",
            "outputs": [
                {
                    "internalType": "int256",
                    "name": "",
                    "type": "int256"
                }
            ],
            "stateMutability": "view",
            "type": "function"
        }
    ],
    "bytecode": "0x608060405234801561001057600080fd5b5061045e806100206000396000f3fe608060405234801561001057600080fd5b50600436106100365760003560e01c80632a58188a1461003b578063b44a043b1461007b575b600080fd5b6100696004803603604081101561005157600080fd5b506001600160a01b03813581169160200135166100a7565b60408051918252519081900360200190f35b6100696004803603604081101561009157600080fd5b50803590602001356001600160a01b0316610139565b600080826001600160a01b03166370a08231856040518263ffffffff1660e01b815260040180826001600160a01b0316815260200191505060206040518083038186803b1580156100f757600080fd5b505afa15801561010b573d6000803e3d6000fd5b505050506040513d602081101561012157600080fd5b5051905061012f818461014c565b9150505b92915050565b6000610145838361014c565b9392505050565b600080826001600160a01b0316636f307dc36040518163ffffffff1660e01b815260040160206040518083038186803b15801561018857600080fd5b505afa15801561019c573d6000803e3d6000fd5b505050506040513d60208110156101b257600080fd5b50516040805163182df0f560e01b8152905191925060009161024691670de0b6b3a764000091610240916001600160a01b0389169163182df0f591600480820192602092909190829003018186803b15801561020d57600080fd5b505afa158015610221573d6000803e3d6000fd5b505050506040513d602081101561023757600080fd5b505188906102d2565b9061032b565b9050336001600160a01b031663b44a043b82846040518363ffffffff1660e01b815260040180838152602001826001600160a01b031681526020019250505060206040518083038186803b15801561029d57600080fd5b505afa1580156102b1573d6000803e3d6000fd5b505050506040513d60208110156102c757600080fd5b505195945050505050565b6000826102e157506000610133565b828202828482816102ee57fe5b04146101455760405162461bcd60e51b81526004018080602001828103825260218152602001806104086021913960400191505060405180910390fd5b600061014583836040518060400160405280601a815260200179536166654d6174683a206469766973696f6e206279207a65726f60301b815250600081836103f15760405162461bcd60e51b81526004018080602001828103825283818151815260200191508051906020019080838360005b838110156103b657818101518382015260200161039e565b50505050905090810190601f1680156103e35780820380516001836020036101000a031916815260200191505b509250505060405180910390fd5b5060008385816103fd57fe5b049594505050505056fe536166654d6174683a206d756c7469706c69636174696f6e206f766572666c6f77a26469706673582212201e71cfb4dbc0eaa33e2885fc82f1199fae1674a4c04488de8bc32daf2d44ea7b64736f6c634300060c0033",
    "linkReferences": {},
    "deployedLinkReferences": {}
}