{
    "_format": "hh-sol-artifact-1",
    "contractName": "CompoundEstimator",
    "sourceName": "contracts/oracles/estimators/CompoundEstimator.sol",
    "abi": [
        {
            "inputs": [
                {
                    "internalType": "uint256",
                    "name": "balance",
                    "type": "uint256"
                },
                {
                    "internalType": "address",
                    "name": "token",
                    "type": "address"
                }
            ],
            "name": "estimateItem",
            "outputs": [
                {
                    "internalType": "int256",
                    "name": "",
                    "type": "int256"
                }
            ],
            "stateMutability": "view",
            "type": "function"
        }
    ],
    "bytecode": "0x608060405234801561001057600080fd5b50610389806100206000396000f3fe608060405234801561001057600080fd5b506004361061002b5760003560e01c8063b44a043b14610030575b600080fd5b61005c6004803603604081101561004657600080fd5b50803590602001356001600160a01b031661006e565b60408051918252519081900360200190f35b600080826001600160a01b0316636f307dc36040518163ffffffff1660e01b815260040160206040518083038186803b1580156100aa57600080fd5b505afa1580156100be573d6000803e3d6000fd5b505050506040513d60208110156100d457600080fd5b50516040805163182df0f560e01b8152905191925060009161016891670de0b6b3a764000091610162916001600160a01b0389169163182df0f591600480820192602092909190829003018186803b15801561012f57600080fd5b505afa158015610143573d6000803e3d6000fd5b505050506040513d602081101561015957600080fd5b505188906101f6565b90610256565b9050336001600160a01b031663b44a043b82846040518363ffffffff1660e01b815260040180838152602001826001600160a01b031681526020019250505060206040518083038186803b1580156101bf57600080fd5b505afa1580156101d3573d6000803e3d6000fd5b505050506040513d60208110156101e957600080fd5b5051925050505b92915050565b600082610205575060006101f0565b8282028284828161021257fe5b041461024f5760405162461bcd60e51b81526004018080602001828103825260218152602001806103336021913960400191505060405180910390fd5b9392505050565b600061024f83836040518060400160405280601a815260200179536166654d6174683a206469766973696f6e206279207a65726f60301b8152506000818361031c5760405162461bcd60e51b81526004018080602001828103825283818151815260200191508051906020019080838360005b838110156102e15781810151838201526020016102c9565b50505050905090810190601f16801561030e5780820380516001836020036101000a031916815260200191505b509250505060405180910390fd5b50600083858161032857fe5b049594505050505056fe536166654d6174683a206d756c7469706c69636174696f6e206f766572666c6f77a264697066735822122076bf8e7dcd4cff548a60b1fa001574c2f2acada228672ab0c6401d65e3635c8e64736f6c634300060c0033",
    "linkReferences": {},
    "deployedLinkReferences": {}
}