{
  "_format": "hh-sol-artifact-1",
  "contractName": "UniswapV3RegistryWrapper",
  "sourceName": "contracts/test/UniswapV3RegistryWrapper.sol",
  "abi": [
    {
      "inputs": [
        {
          "internalType": "address",
          "name": "registry_",
          "type": "address"
        }
      ],
      "stateMutability": "nonpayable",
      "type": "constructor"
    },
    {
      "anonymous": false,
      "inputs": [
        {
          "indexed": true,
          "internalType": "address",
          "name": "token",
          "type": "address"
        },
        {
          "indexed": true,
          "internalType": "address",
          "name": "pair",
          "type": "address"
        },
        {
          "indexed": true,
          "internalType": "uint24",
          "name": "fee",
          "type": "uint24"
        }
      ],
      "name": "FeeAdded",
      "type": "event"
    },
    {
      "anonymous": false,
      "inputs": [
        {
          "indexed": true,
          "internalType": "address",
          "name": "token",
          "type": "address"
        },
        {
          "indexed": true,
          "internalType": "address",
          "name": "pair",
          "type": "address"
        }
      ],
      "name": "FeeRemoved",
      "type": "event"
    },
    {
      "anonymous": false,
      "inputs": [
        {
          "indexed": true,
          "internalType": "address",
          "name": "token",
          "type": "address"
        },
        {
          "indexed": true,
          "internalType": "address",
          "name": "pair",
          "type": "address"
        },
        {
          "indexed": true,
          "internalType": "uint24",
          "name": "fee",
          "type": "uint24"
        },
        {
          "indexed": false,
          "internalType": "uint32",
          "name": "timeWindow",
          "type": "uint32"
        }
      ],
      "name": "PoolAdded",
      "type": "event"
    },
    {
      "anonymous": false,
      "inputs": [
        {
          "indexed": true,
          "internalType": "address",
          "name": "token",
          "type": "address"
        }
      ],
      "name": "PoolRemoved",
      "type": "event"
    },
    {
      "anonymous": false,
      "inputs": [
        {
          "indexed": true,
          "internalType": "address",
          "name": "token",
          "type": "address"
        },
        {
          "indexed": true,
          "internalType": "uint32",
          "name": "timeWindow",
          "type": "uint32"
        }
      ],
      "name": "TimeWindowUpdated",
      "type": "event"
    },
    {
      "inputs": [
        {
          "internalType": "address",
          "name": "token",
          "type": "address"
        },
        {
          "internalType": "address",
          "name": "pair",
          "type": "address"
        },
        {
          "internalType": "uint24",
          "name": "fee",
          "type": "uint24"
        }
      ],
      "name": "addFee",
      "outputs": [],
      "stateMutability": "nonpayable",
      "type": "function"
    },
    {
      "inputs": [
        {
          "internalType": "address",
          "name": "token",
          "type": "address"
        },
        {
          "internalType": "address",
          "name": "pair",
          "type": "address"
        },
        {
          "internalType": "uint24",
          "name": "fee",
          "type": "uint24"
        },
        {
          "internalType": "uint32",
          "name": "timeWindow",
          "type": "uint32"
        }
      ],
      "name": "addPool",
      "outputs": [],
      "stateMutability": "nonpayable",
      "type": "function"
    },
    {
      "inputs": [
        {
          "internalType": "address[]",
          "name": "tokens",
          "type": "address[]"
        },
        {
          "internalType": "address[]",
          "name": "pairs",
          "type": "address[]"
        },
        {
          "internalType": "uint24[]",
          "name": "fees",
          "type": "uint24[]"
        }
      ],
      "name": "batchAddFees",
      "outputs": [],
      "stateMutability": "nonpayable",
      "type": "function"
    },
    {
      "inputs": [
        {
          "internalType": "address[]",
          "name": "tokens",
          "type": "address[]"
        },
        {
          "internalType": "address[]",
          "name": "pairs",
          "type": "address[]"
        },
        {
          "internalType": "uint24[]",
          "name": "fees",
          "type": "uint24[]"
        },
        {
          "internalType": "uint32[]",
          "name": "timeWindows",
          "type": "uint32[]"
        }
      ],
      "name": "batchAddPools",
      "outputs": [],
      "stateMutability": "nonpayable",
      "type": "function"
    },
    {
      "inputs": [],
      "name": "factory",
      "outputs": [
        {
          "internalType": "contract IUniswapV3Factory",
          "name": "",
          "type": "address"
        }
      ],
      "stateMutability": "view",
      "type": "function"
    },
    {
      "inputs": [
        {
          "internalType": "address",
          "name": "token",
          "type": "address"
        },
        {
          "internalType": "address",
          "name": "pair",
          "type": "address"
        }
      ],
      "name": "getFee",
      "outputs": [
        {
          "internalType": "uint24",
          "name": "",
          "type": "uint24"
        }
      ],
      "stateMutability": "view",
      "type": "function"
    },
    {
      "inputs": [
        {
          "internalType": "address",
          "name": "token",
          "type": "address"
        }
      ],
      "name": "getPoolData",
      "outputs": [
        {
          "components": [
            {
              "internalType": "address",
              "name": "pool",
              "type": "address"
            },
            {
              "internalType": "address",
              "name": "pair",
              "type": "address"
            },
            {
              "internalType": "uint32",
              "name": "timeWindow",
              "type": "uint32"
            }
          ],
          "internalType": "struct IUniswapV3Registry.PoolData",
          "name": "",
          "type": "tuple"
        }
      ],
      "stateMutability": "view",
      "type": "function"
    },
    {
      "inputs": [
        {
          "internalType": "address",
          "name": "token",
          "type": "address"
        },
        {
          "internalType": "address",
          "name": "pair",
          "type": "address"
        }
      ],
      "name": "getTimeWindow",
      "outputs": [
        {
          "internalType": "uint32",
          "name": "",
          "type": "uint32"
        }
      ],
      "stateMutability": "view",
      "type": "function"
    },
    {
      "inputs": [
        {
          "internalType": "address",
          "name": "token",
          "type": "address"
        },
        {
          "internalType": "address",
          "name": "pair",
          "type": "address"
        }
      ],
      "name": "removeFee",
      "outputs": [],
      "stateMutability": "nonpayable",
      "type": "function"
    },
    {
      "inputs": [
        {
          "internalType": "address",
          "name": "token",
          "type": "address"
        }
      ],
      "name": "removePool",
      "outputs": [],
      "stateMutability": "nonpayable",
      "type": "function"
    },
    {
      "inputs": [
        {
          "internalType": "address",
          "name": "token",
          "type": "address"
        },
        {
          "internalType": "uint32",
          "name": "timeWindow",
          "type": "uint32"
        }
      ],
      "name": "updateTimeWindow",
      "outputs": [],
      "stateMutability": "pure",
      "type": "function"
    },
    {
      "inputs": [],
      "name": "weth",
      "outputs": [
        {
          "internalType": "address",
          "name": "",
          "type": "address"
        }
      ],
      "stateMutability": "view",
      "type": "function"
    }
  ],
  "bytecode": "0x60c060405234801561001057600080fd5b50604051610dd5380380610dd583398101604081905261002f916100d3565b806001600160a01b03166080816001600160a01b031660601b81525050806001600160a01b031663d2f343c76040518163ffffffff1660e01b815260040160206040518083038186803b15801561008557600080fd5b505afa158015610099573d6000803e3d6000fd5b505050506040513d601f19601f820116820180604052508101906100bd9190610101565b60e01b6001600160e01b03191660a05250610125565b6000602082840312156100e4578081fd5b81516001600160a01b03811681146100fa578182fd5b9392505050565b600060208284031215610112578081fd5b815163ffffffff811681146100fa578182fd5b60805160601c60a05160e01c610c646101716000398061026b528061036a5250806101f852806102b852806103b052806104055280610473528061050b528061057c5250610c646000f3fe608060405234801561001057600080fd5b50600436106100d45760003560e01c80633b7d094611610081578063c45a01551161005b578063c45a0155146101a6578063d33194d8146101ae578063fee99898146101c1576100d4565b80633b7d0946146101705780633fc8cef31461018357806364551a0e14610198576100d4565b80631795a4ed116100b25780631795a4ed146101375780632727470a1461014a57806336a855a71461015d576100d4565b80630270abd4146100d9578063054c82b9146100ee57806313d21cdf14610117575b600080fd5b6100ec6100e73660046107ed565b6101e1565b005b6101016100fc36600461076b565b610269565b60405161010e9190610bad565b60405180910390f35b61012a610125366004610733565b610291565b60405161010e9190610b68565b6100ec61014536600461076b565b610395565b6100ec610158366004610900565b610399565b6100ec61016b36600461087c565b6103e9565b6100ec61017e366004610733565b6103ee565b61018b61046f565b60405161010e9190610aa5565b6100ec61016b3660046107a3565b61018b610507565b6100ec6101bc366004610847565b6100d4565b6101d46101cf36600461076b565b610562565b60405161010e9190610b9d565b60405163a4a84e9960e01b81526001600160a01b037f0000000000000000000000000000000000000000000000000000000000000000169063a4a84e999061023190879087908790600401610ad3565b600060405180830381600087803b15801561024b57600080fd5b505af115801561025f573d6000803e3d6000fd5b5050505050505050565b7f00000000000000000000000000000000000000000000000000000000000000005b92915050565b61029961060a565b6102a161062a565b6040516313d21cdf60e01b81526001600160a01b037f000000000000000000000000000000000000000000000000000000000000000016906313d21cdf906102ed908690600401610aa5565b604080518083038186803b15801561030457600080fd5b505afa158015610318573d6000803e3d6000fd5b505050506040513d601f19601f8201168201806040525081019061033c9190610a04565b6040805160608101825282516001600160a01b039081168252602093840151169281019290925263ffffffff7f000000000000000000000000000000000000000000000000000000000000000016908201529392505050565b5050565b604051637db5be6960e01b81526001600160a01b037f00000000000000000000000000000000000000000000000000000000000000001690637db5be699061023190879087908790600401610afb565b505050565b604051631dbe84a360e11b81526001600160a01b037f00000000000000000000000000000000000000000000000000000000000000001690633b7d09469061043a908490600401610aa5565b600060405180830381600087803b15801561045457600080fd5b505af1158015610468573d6000803e3d6000fd5b5050505050565b60007f00000000000000000000000000000000000000000000000000000000000000006001600160a01b0316633fc8cef36040518163ffffffff1660e01b815260040160206040518083038186803b1580156104ca57600080fd5b505afa1580156104de573d6000803e3d6000fd5b505050506040513d601f19601f82011682018060405250810190610502919061074f565b905090565b60007f00000000000000000000000000000000000000000000000000000000000000006001600160a01b031663c45a01556040518163ffffffff1660e01b815260040160206040518083038186803b1580156104ca57600080fd5b604051631fdd331360e31b81526000906001600160a01b037f0000000000000000000000000000000000000000000000000000000000000000169063fee99898906105b39086908690600401610ab9565b60206040518083038186803b1580156105cb57600080fd5b505afa1580156105df573d6000803e3d6000fd5b505050506040513d601f19601f820116820180604052508101906106039190610a46565b9392505050565b604080516060810182526000808252602082018190529181019190915290565b604080518082019091526000808252602082015290565b600082601f830112610651578081fd5b813561066461065f82610be5565b610bbe565b81815291506020808301908481018184028601820187101561068557600080fd5b60005b848110156106ad57813561069b81610c05565b84529282019290820190600101610688565b505050505092915050565b600082601f8301126106c8578081fd5b81356106d661065f82610be5565b8181529150602080830190848101818402860182018710156106f757600080fd5b60005b848110156106ad57813561070d81610c1d565b845292820192908201906001016106fa565b803563ffffffff8116811461028b57600080fd5b600060208284031215610744578081fd5b813561060381610c05565b600060208284031215610760578081fd5b815161060381610c05565b6000806040838503121561077d578081fd5b823561078881610c05565b9150602083013561079881610c05565b809150509250929050565b6000806000606084860312156107b7578081fd5b83356107c281610c05565b925060208401356107d281610c05565b915060408401356107e281610c1d565b809150509250925092565b60008060008060808587031215610802578081fd5b843561080d81610c05565b9350602085013561081d81610c05565b9250604085013561082d81610c1d565b915061083c866060870161071f565b905092959194509250565b60008060408385031215610859578182fd5b823561086481610c05565b9150610873846020850161071f565b90509250929050565b600080600060608486031215610890578283fd5b833567ffffffffffffffff808211156108a7578485fd5b6108b387838801610641565b945060208601359150808211156108c8578384fd5b6108d487838801610641565b935060408601359150808211156108e9578283fd5b506108f6868287016106b8565b9150509250925092565b60008060008060808587031215610915578384fd5b843567ffffffffffffffff8082111561092c578586fd5b61093888838901610641565b955060209150818701358181111561094e578586fd5b61095a89828a01610641565b95505060408701358181111561096e578485fd5b61097a89828a016106b8565b94505060608701358181111561098e578384fd5b87019050601f810188136109a0578283fd5b80356109ae61065f82610be5565b81815283810190838501858402850186018c10156109ca578687fd5b8694505b838510156109f4576109e08c8261071f565b8352600194909401939185019185016109ce565b50979a9699509497505050505050565b600060408284031215610a15578081fd5b610a1f6040610bbe565b8251610a2a81610c05565b81526020830151610a3a81610c05565b60208201529392505050565b600060208284031215610a57578081fd5b815161060381610c1d565b6000815180845260208085019450808401835b83811015610a9a5781516001600160a01b031687529582019590820190600101610a75565b509495945050505050565b6001600160a01b0391909116815260200190565b6001600160a01b0392831681529116602082015260400190565b6001600160a01b03938416815291909216602082015262ffffff909116604082015260600190565b600060608252610b0e6060830186610a62565b602083820381850152610b218287610a62565b84810360408601528551808252828701935090820190845b81811015610b5a57845162ffffff1683529383019391830191600101610b39565b509098975050505050505050565b81516001600160a01b0390811682526020808401519091169082015260409182015163ffffffff169181019190915260600190565b62ffffff91909116815260200190565b63ffffffff91909116815260200190565b60405181810167ffffffffffffffff81118282101715610bdd57600080fd5b604052919050565b600067ffffffffffffffff821115610bfb578081fd5b5060209081020190565b6001600160a01b0381168114610c1a57600080fd5b50565b62ffffff81168114610c1a57600080fdfea26469706673582212208dd08223d01c241e24d271549a4bee5a8e65259ee5918f9f044cd6b3fcb1aa0464736f6c634300060c0033",
  "linkReferences": {},
  "deployedLinkReferences": {}
}