{
  "_format": "hh-sol-artifact-1",
  "contractName": "ChainlinkRegistry",
  "sourceName": "contracts/oracles/registries/ChainlinkRegistry.sol",
  "abi": [
    {
      "anonymous": false,
      "inputs": [
        {
          "indexed": true,
          "internalType": "address",
          "name": "token",
          "type": "address"
        },
        {
          "indexed": true,
          "internalType": "address",
          "name": "pair",
          "type": "address"
        },
        {
          "indexed": true,
          "internalType": "address",
          "name": "oracle",
          "type": "address"
        },
        {
          "indexed": false,
          "internalType": "bool",
          "name": "inverse",
          "type": "bool"
        }
      ],
      "name": "OracleAdded",
      "type": "event"
    },
    {
      "anonymous": false,
      "inputs": [
        {
          "indexed": true,
          "internalType": "address",
          "name": "token",
          "type": "address"
        }
      ],
      "name": "OracleRemoved",
      "type": "event"
    },
    {
      "anonymous": false,
      "inputs": [
        {
          "indexed": true,
          "internalType": "address",
          "name": "previousOwner",
          "type": "address"
        },
        {
          "indexed": true,
          "internalType": "address",
          "name": "newOwner",
          "type": "address"
        }
      ],
      "name": "OwnershipTransferred",
      "type": "event"
    },
    {
      "inputs": [
        {
          "internalType": "address",
          "name": "token",
          "type": "address"
        },
        {
          "internalType": "address",
          "name": "pair",
          "type": "address"
        },
        {
          "internalType": "address",
          "name": "oracle",
          "type": "address"
        },
        {
          "internalType": "bool",
          "name": "inverse",
          "type": "bool"
        }
      ],
      "name": "addOracle",
      "outputs": [],
      "stateMutability": "nonpayable",
      "type": "function"
    },
    {
      "inputs": [
        {
          "internalType": "address[]",
          "name": "tokens",
          "type": "address[]"
        },
        {
          "internalType": "address[]",
          "name": "pairs",
          "type": "address[]"
        },
        {
          "internalType": "address[]",
          "name": "oracles",
          "type": "address[]"
        },
        {
          "internalType": "bool[]",
          "name": "inverse",
          "type": "bool[]"
        }
      ],
      "name": "batchAddOracles",
      "outputs": [],
      "stateMutability": "nonpayable",
      "type": "function"
    },
    {
      "inputs": [
        {
          "internalType": "address",
          "name": "token",
          "type": "address"
        }
      ],
      "name": "getOracle",
      "outputs": [
        {
          "components": [
            {
              "internalType": "address",
              "name": "oracle",
              "type": "address"
            },
            {
              "internalType": "address",
              "name": "pair",
              "type": "address"
            },
            {
              "internalType": "bool",
              "name": "inverse",
              "type": "bool"
            }
          ],
          "internalType": "struct IChainlinkRegistry.ChainlinkOracleData",
          "name": "",
          "type": "tuple"
        }
      ],
      "stateMutability": "view",
      "type": "function"
    },
    {
      "inputs": [],
      "name": "owner",
      "outputs": [
        {
          "internalType": "address",
          "name": "",
          "type": "address"
        }
      ],
      "stateMutability": "view",
      "type": "function"
    },
    {
      "inputs": [
        {
          "internalType": "address",
          "name": "token",
          "type": "address"
        }
      ],
      "name": "removeOracle",
      "outputs": [],
      "stateMutability": "nonpayable",
      "type": "function"
    },
    {
      "inputs": [],
      "name": "renounceOwnership",
      "outputs": [],
      "stateMutability": "nonpayable",
      "type": "function"
    },
    {
      "inputs": [
        {
          "internalType": "address",
          "name": "newOwner",
          "type": "address"
        }
      ],
      "name": "transferOwnership",
      "outputs": [],
      "stateMutability": "nonpayable",
      "type": "function"
    }
  ],
  "bytecode": "0x608060405234801561001057600080fd5b50600061001b61006a565b600080546001600160a01b0319166001600160a01b0383169081178255604051929350917f8be0079c531659141344cd1fd0a4f28419497f9722a3daafe3b4186f6b6457e0908290a35061006e565b3390565b6109508061007d6000396000f3fe608060405234801561001057600080fd5b506004361061007d5760003560e01c80638da5cb5b1161005b5780638da5cb5b146100c8578063dbe39515146100dd578063f2fde38b146100f0578063fdc85fc4146101035761007d565b806310d3d22e14610082578063715018a6146100ab5780638544f8e1146100b5575b600080fd5b61009561009036600461065e565b610116565b6040516100a291906108a2565b60405180910390f35b6100b3610168565b005b6100b36100c3366004610680565b6101f0565b6100d06102bc565b6040516100a291906107e0565b6100b36100eb3660046106dc565b6102cb565b6100b36100fe36600461065e565b61043c565b6100b361011136600461065e565b6104f2565b61011e61059b565b506001600160a01b03908116600090815260016020818152604092839020835160608101855281548616815292015493841690820152600160a01b90920460ff1615159082015290565b610170610597565b6000546001600160a01b039081169116146101a65760405162461bcd60e51b815260040161019d9061086d565b60405180910390fd5b600080546040516001600160a01b03909116907f8be0079c531659141344cd1fd0a4f28419497f9722a3daafe3b4186f6b6457e0908390a3600080546001600160a01b0319169055565b6101f8610597565b6000546001600160a01b039081169116146102255760405162461bcd60e51b815260040161019d9061086d565b6001600160a01b03848116600081815260016020819052604091829020908101805482546001600160a01b03199081168988169081178555911695891695861760ff60a01b1916600160a01b8815150217909155915190939192907f111e7d36fc064f12b24f76aa3b3cf4e7ec51ccd5c8226a5f2879911029e33b27906102ad9087906107f4565b60405180910390a45050505050565b6000546001600160a01b031690565b6102d3610597565b6000546001600160a01b039081169116146103005760405162461bcd60e51b815260040161019d9061086d565b8351835181146103225760405162461bcd60e51b815260040161019d90610845565b825181146103425760405162461bcd60e51b815260040161019d90610845565b60005b818110156104345760006001600088848151811061035f57fe5b60200260200101516001600160a01b03166001600160a01b03168152602001908152602001600020905085828151811061039557fe5b60200260200101518160010160006101000a8154816001600160a01b0302191690836001600160a01b031602179055508482815181106103d157fe5b602090810291909101015181546001600160a01b0319166001600160a01b03909116178155835184908390811061040457fe5b602090810291909101015160019182018054911515600160a01b0260ff60a01b1990921691909117905501610345565b505050505050565b610444610597565b6000546001600160a01b039081169116146104715760405162461bcd60e51b815260040161019d9061086d565b6001600160a01b0381166104975760405162461bcd60e51b815260040161019d906107ff565b600080546040516001600160a01b03808516939216917f8be0079c531659141344cd1fd0a4f28419497f9722a3daafe3b4186f6b6457e091a3600080546001600160a01b0319166001600160a01b0392909216919091179055565b6104fa610597565b6000546001600160a01b039081169116146105275760405162461bcd60e51b815260040161019d9061086d565b6001600160a01b038116600081815260016020819052604080832080546001600160a01b0319168155909101805474ffffffffffffffffffffffffffffffffffffffffff19169055517f9c8e7d83025bef8a04c664b2f753f64b8814bdb7e27291d7e50935f18cc3c7129190a250565b3390565b604080516060810182526000808252602082018190529181019190915290565b80356001600160a01b03811681146105d257600080fd5b92915050565b600082601f8301126105e8578081fd5b81356105fb6105f6826108fa565b6108d3565b81815291506020808301908481018184028601820187101561061c57600080fd5b60005b848110156106435761063188836105bb565b8452928201929082019060010161061f565b505050505092915050565b803580151581146105d257600080fd5b60006020828403121561066f578081fd5b61067983836105bb565b9392505050565b60008060008060808587031215610695578283fd5b61069f86866105bb565b93506106ae86602087016105bb565b92506106bd86604087016105bb565b9150606085013580151581146106d1578182fd5b939692955090935050565b600080600080608085870312156106f1578384fd5b843567ffffffffffffffff80821115610708578586fd5b610714888389016105d8565b955060209150818701358181111561072a578586fd5b61073689828a016105d8565b95505060408701358181111561074a578485fd5b61075689828a016105d8565b94505060608701358181111561076a578384fd5b87019050601f8101881361077c578283fd5b803561078a6105f6826108fa565b81815283810190838501858402850186018c10156107a6578687fd5b8694505b838510156107d0576107bc8c8261064e565b8352600194909401939185019185016107aa565b50979a9699509497505050505050565b6001600160a01b0391909116815260200190565b901515815260200190565b60208082526026908201527f4f776e61626c653a206e6577206f776e657220697320746865207a65726f206160408201526564647265737360d01b606082015260800190565b6020808252600e908201526d082e4e4c2f240dad2e6dac2e8c6d60931b604082015260600190565b6020808252818101527f4f776e61626c653a2063616c6c6572206973206e6f7420746865206f776e6572604082015260600190565b81516001600160a01b0390811682526020808401519091169082015260409182015115159181019190915260600190565b60405181810167ffffffffffffffff811182821017156108f257600080fd5b604052919050565b600067ffffffffffffffff821115610910578081fd5b506020908102019056fea2646970667358221220b1606408322347ab94c4f5f30274fd4bd01ed6f43b26caa33cb23a00cb1c6eb864736f6c634300060c0033",
  "linkReferences": {},
  "deployedLinkReferences": {}
}