{
  "_format": "hh-sol-artifact-1",
  "contractName": "CompoundEstimator",
  "sourceName": "contracts/oracles/estimators/CompoundEstimator.sol",
  "abi": [
    {
      "inputs": [
        {
          "internalType": "contract IStrategy",
          "name": "strategy",
          "type": "address"
        },
        {
          "internalType": "address",
          "name": "token",
          "type": "address"
        }
      ],
      "name": "estimateItem",
      "outputs": [
        {
          "internalType": "int256",
          "name": "",
          "type": "int256"
        }
      ],
      "stateMutability": "view",
      "type": "function"
    },
    {
      "inputs": [
        {
          "internalType": "contract IStrategy",
          "name": "strategy",
          "type": "address"
        },
        {
          "internalType": "address",
          "name": "token",
          "type": "address"
        },
        {
          "internalType": "uint256",
          "name": "balance",
          "type": "uint256"
        }
      ],
      "name": "estimateItem",
      "outputs": [
        {
          "internalType": "int256",
          "name": "",
          "type": "int256"
        }
      ],
      "stateMutability": "view",
      "type": "function"
    }
  ],
  "bytecode": "0x608060405234801561001057600080fd5b50610463806100206000396000f3fe608060405234801561001057600080fd5b50600436106100365760003560e01c80632a58188a1461003b578063ecb1927e1461007b575b600080fd5b6100696004803603604081101561005157600080fd5b506001600160a01b03813581169160200135166100b1565b60408051918252519081900360200190f35b6100696004803603606081101561009157600080fd5b506001600160a01b03813581169160208101359091169060400135610144565b600080826001600160a01b03166370a08231856040518263ffffffff1660e01b815260040180826001600160a01b0316815260200191505060206040518083038186803b15801561010157600080fd5b505afa158015610115573d6000803e3d6000fd5b505050506040513d602081101561012b57600080fd5b5051905061013a848483610144565b9150505b92915050565b600080836001600160a01b0316636f307dc36040518163ffffffff1660e01b815260040160206040518083038186803b15801561018057600080fd5b505afa158015610194573d6000803e3d6000fd5b505050506040513d60208110156101aa57600080fd5b50516040805163182df0f560e01b8152905191925060009161023e91670de0b6b3a764000091610238916001600160a01b038a169163182df0f591600480820192602092909190829003018186803b15801561020557600080fd5b505afa158015610219573d6000803e3d6000fd5b505050506040513d602081101561022f57600080fd5b505187906102cd565b9061032d565b60408051637658c93f60e11b81526001600160a01b03898116600483015285166024820152604481018390529051919250339163ecb1927e91606480820192602092909190829003018186803b15801561029757600080fd5b505afa1580156102ab573d6000803e3d6000fd5b505050506040513d60208110156102c157600080fd5b50519695505050505050565b6000826102dc5750600061013e565b828202828482816102e957fe5b04146103265760405162461bcd60e51b815260040180806020018281038252602181526020018061040d6021913960400191505060405180910390fd5b9392505050565b600061032683836040518060400160405280601a81526020017f536166654d6174683a206469766973696f6e206279207a65726f000000000000815250600081836103f65760405162461bcd60e51b81526004018080602001828103825283818151815260200191508051906020019080838360005b838110156103bb5781810151838201526020016103a3565b50505050905090810190601f1680156103e85780820380516001836020036101000a031916815260200191505b509250505060405180910390fd5b50600083858161040257fe5b049594505050505056fe536166654d6174683a206d756c7469706c69636174696f6e206f766572666c6f77a264697066735822122088126803512d0d4d947156f380dbf1e54da9a8ae52d83f5fe720b3ed36f68a9564736f6c634300060c0033",
  "linkReferences": {},
  "deployedLinkReferences": {}
}