{
  "_format": "hh-sol-artifact-1",
  "contractName": "MulticallWrapper",
  "sourceName": "contracts/test/MulticallWrapper.sol",
  "abi": [
    {
      "inputs": [
        {
          "internalType": "address",
          "name": "controller_",
          "type": "address"
        },
        {
          "internalType": "address",
          "name": "multicallRouter_",
          "type": "address"
        }
      ],
      "stateMutability": "nonpayable",
      "type": "constructor"
    },
    {
      "inputs": [],
      "name": "controller",
      "outputs": [
        {
          "internalType": "contract IStrategyController",
          "name": "",
          "type": "address"
        }
      ],
      "stateMutability": "view",
      "type": "function"
    },
    {
      "inputs": [],
      "name": "multicallRouter",
      "outputs": [
        {
          "internalType": "contract IStrategyRouter",
          "name": "",
          "type": "address"
        }
      ],
      "stateMutability": "view",
      "type": "function"
    },
    {
      "inputs": [
        {
          "internalType": "contract IStrategy",
          "name": "strategy",
          "type": "address"
        },
        {
          "internalType": "contract IERC20",
          "name": "token",
          "type": "address"
        },
        {
          "internalType": "uint256",
          "name": "amount",
          "type": "uint256"
        }
      ],
      "name": "singleTokenDeposit",
      "outputs": [],
      "stateMutability": "nonpayable",
      "type": "function"
    }
  ],
  "bytecode": "0x60c060405234801561001057600080fd5b5060405161099738038061099783398101604081905261002f9161004d565b6001600160601b0319606092831b8116608052911b1660a05261009e565b6000806040838503121561005f578182fd5b825161006a81610086565b602084015190925061007b81610086565b809150509250929050565b6001600160a01b038116811461009b57600080fd5b50565b60805160601c60a05160601c6108c16100d66000398061016b52806101d652806103365250806101a7528061035a52506108c16000f3fe608060405234801561001057600080fd5b50600436106100415760003560e01c8063de1b8c0e14610046578063eccdc44f1461005b578063f77c479114610079575b600080fd5b6100596100543660046105c8565b610081565b005b610063610334565b6040516100709190610668565b60405180910390f35b610063610358565b604080516001808252818301909252606091816020015b6100a0610590565b8152602001906001900390816100985790505090506040518060400160405280846001600160a01b0316815260200163a9059cbb60e01b86856040516024016100ea92919061067c565b60408051601f198184030181529190526020810180516001600160e01b03166001600160e01b03199093169290921790915290528151829060009061012b57fe5b602002602001018190525060608160405160200161014991906106b9565b60408051601f1981840301815291905290506101906001600160a01b038516337f00000000000000000000000000000000000000000000000000000000000000008661037c565b6040516371b8dc6960e01b81526001600160a01b037f000000000000000000000000000000000000000000000000000000000000000016906371b8dc69906102059088907f00000000000000000000000000000000000000000000000000000000000000009060009081908890600401610733565b600060405180830381600087803b15801561021f57600080fd5b505af1158015610233573d6000803e3d6000fd5b50506040516370a0823160e01b81526001600160a01b038816925063a9059cbb9150339083906370a082319061026d903090600401610668565b60206040518083038186803b15801561028557600080fd5b505afa158015610299573d6000803e3d6000fd5b505050506040513d601f19601f820116820180604052508101906102bd9190610608565b6040518363ffffffff1660e01b81526004016102da92919061067c565b602060405180830381600087803b1580156102f457600080fd5b505af1158015610308573d6000803e3d6000fd5b505050506040513d601f19601f8201168201806040525081019061032c91906105a8565b505050505050565b7f000000000000000000000000000000000000000000000000000000000000000081565b7f000000000000000000000000000000000000000000000000000000000000000081565b6103d4846323b872dd60e01b85858560405160240161039d93929190610695565b60408051601f198184030181529190526020810180516001600160e01b03166001600160e01b0319909316929092179091526103da565b50505050565b606061042f826040518060400160405280602081526020017f5361666545524332303a206c6f772d6c6576656c2063616c6c206661696c6564815250856001600160a01b03166104779092919063ffffffff16565b805190915015610472578080602001905181019061044d91906105a8565b6104725760405162461bcd60e51b8152600401610469906107fd565b60405180910390fd5b505050565b60606104868484600085610490565b90505b9392505050565b6060824710156104b25760405162461bcd60e51b815260040161046990610780565b6104bb85610551565b6104d75760405162461bcd60e51b8152600401610469906107c6565b60006060866001600160a01b031685876040516104f4919061064c565b60006040518083038185875af1925050503d8060008114610531576040519150601f19603f3d011682016040523d82523d6000602084013e610536565b606091505b5091509150610546828286610557565b979650505050505050565b3b151590565b60608315610566575081610489565b8251156105765782518084602001fd5b8160405162461bcd60e51b8152600401610469919061076d565b60408051808201909152600081526060602082015290565b6000602082840312156105b9578081fd5b81518015158114610489578182fd5b6000806000606084860312156105dc578182fd5b83356105e781610873565b925060208401356105f781610873565b929592945050506040919091013590565b600060208284031215610619578081fd5b5051919050565b60008151808452610638816020860160208601610847565b601f01601f19169290920160200192915050565b6000825161065e818460208701610847565b9190910192915050565b6001600160a01b0391909116815260200190565b6001600160a01b03929092168252602082015260400190565b6001600160a01b039384168152919092166020820152604081019190915260600190565b60208082528251828201819052600091906040908185019080840286018301878501865b8381101561072557888303603f19018552815180516001600160a01b0316845287015187840187905261071287850182610620565b95880195935050908601906001016106dd565b509098975050505050505050565b6001600160a01b03868116825285166020820152604081018490526060810183905260a06080820181905260009061054690830184610620565b6000602082526104896020830184610620565b60208082526026908201527f416464726573733a20696e73756666696369656e742062616c616e636520666f6040820152651c8818d85b1b60d21b606082015260800190565b6020808252601d908201527f416464726573733a2063616c6c20746f206e6f6e2d636f6e7472616374000000604082015260600190565b6020808252602a908201527f5361666545524332303a204552433230206f7065726174696f6e20646964206e6040820152691bdd081cdd58d8d9595960b21b606082015260800190565b60005b8381101561086257818101518382015260200161084a565b838111156103d45750506000910152565b6001600160a01b038116811461088857600080fd5b5056fea26469706673582212202de3db1b3e3c248d1ffb846a345ab8940f0a8acbfb3c3f3749e785f42733aa9c64736f6c634300060c0033",
  "linkReferences": {},
  "deployedLinkReferences": {}
}