{
    "_format": "hh-sol-artifact-1",
    "contractName": "UniswapV2Estimator",
    "sourceName": "contracts/oracles/estimators/UniswapV2Estimator.sol",
    "abi": [
        {
            "inputs": [],
            "name": "MAX_PRICE_DEVIATION_ABOVE",
            "outputs": [
                {
                    "internalType": "uint256",
                    "name": "",
                    "type": "uint256"
                }
            ],
            "stateMutability": "view",
            "type": "function"
        },
        {
            "inputs": [],
            "name": "MAX_PRICE_DEVIATION_BELOW",
            "outputs": [
                {
                    "internalType": "uint256",
                    "name": "",
                    "type": "uint256"
                }
            ],
            "stateMutability": "view",
            "type": "function"
        },
        {
            "inputs": [
                {
                    "internalType": "address",
                    "name": "user",
                    "type": "address"
                },
                {
                    "internalType": "address",
                    "name": "token",
                    "type": "address"
                }
            ],
            "name": "estimateItem",
            "outputs": [
                {
                    "internalType": "int256",
                    "name": "",
                    "type": "int256"
                }
            ],
            "stateMutability": "view",
            "type": "function"
        },
        {
            "inputs": [
                {
                    "internalType": "uint256",
                    "name": "balance",
                    "type": "uint256"
                },
                {
                    "internalType": "address",
                    "name": "token",
                    "type": "address"
                }
            ],
            "name": "estimateItem",
            "outputs": [
                {
                    "internalType": "int256",
                    "name": "",
                    "type": "int256"
                }
            ],
            "stateMutability": "view",
            "type": "function"
        }
    ],
    "bytecode": "0x608060405234801561001057600080fd5b50610de3806100206000396000f3fe608060405234801561001057600080fd5b506004361061004c5760003560e01c80632a58188a14610051578063430ec6b91461007a578063b44a043b14610082578063fc9c9dcb14610095575b600080fd5b61006461005f366004610a85565b61009d565b6040516100719190610b61565b60405180910390f35b610064610132565b610064610090366004610b29565b61013e565b610064610151565b600080826001600160a01b03166370a08231856040518263ffffffff1660e01b81526004016100cc9190610b4d565b60206040518083038186803b1580156100e457600080fd5b505afa1580156100f8573d6000803e3d6000fd5b505050506040513d601f19601f8201168201806040525081019061011c9190610abd565b9050610128818461015d565b9150505b92915050565b67016345785d8a000081565b600061014a838361015d565b9392505050565b67018abef7846071c781565b600061014a670de0b6b3a764000061017e61017785610184565b8690610438565b906104a3565b6000806000836001600160a01b0316630902f1ac6040518163ffffffff1660e01b815260040160606040518083038186803b1580156101c257600080fd5b505afa1580156101d6573d6000803e3d6000fd5b505050506040513d601f19601f820116820180604052508101906101fa9190610ad5565b50915091506000846001600160a01b0316630dfe16816040518163ffffffff1660e01b815260040160206040518083038186803b15801561023a57600080fd5b505afa15801561024e573d6000803e3d6000fd5b505050506040513d601f19601f820116820180604052508101906102729190610a69565b90506000856001600160a01b031663d21220a76040518163ffffffff1660e01b815260040160206040518083038186803b1580156102af57600080fd5b505afa1580156102c3573d6000803e3d6000fd5b505050506040513d601f19601f820116820180604052508101906102e79190610a69565b60405163b44a043b60e01b8152909150600090339063b44a043b9061031b906001600160701b038916908790600401610d69565b60206040518083038186803b15801561033357600080fd5b505afa158015610347573d6000803e3d6000fd5b505050506040513d601f19601f8201168201806040525081019061036b9190610abd565b60405163b44a043b60e01b8152909150600090339063b44a043b9061039f906001600160701b038916908790600401610d69565b60206040518083038186803b1580156103b757600080fd5b505afa1580156103cb573d6000803e3d6000fd5b505050506040513d601f19601f820116820180604052508101906103ef9190610abd565b90506103fb8282610507565b156104215760405162461bcd60e51b815260040161041890610c5d565b60405180910390fd5b61042c88838361056e565b98975050505050505050565b6000826104475750600061012c565b8260001914801561045b5750600160ff1b82145b156104785760405162461bcd60e51b815260040161041890610cc7565b8282028284828161048557fe5b051461014a5760405162461bcd60e51b815260040161041890610cc7565b6000816104c25760405162461bcd60e51b815260040161041890610d34565b816000191480156104d65750600160ff1b83145b156104f35760405162461bcd60e51b815260040161041890610c1c565b60008284816104fe57fe5b05949350505050565b600080610514848461058e565b9050610530670de0b6b3a764000067018abef7846071c761062d565b8111806105555750610552670de0b6b3a764000067016345785d8a0000610652565b81105b1561056457600191505061012c565b5060009392505050565b60008282016105858161058087610694565b61058e565b95945050505050565b6000816105ad5760405162461bcd60e51b815260040161041890610d0e565b670de0b6b3a764000083028315806105d55750670de0b6b3a76400008482816105d257fe5b04145b6105f15760405162461bcd60e51b815260040161041890610bf2565b600283048101818110156106175760405162461bcd60e51b815260040161041890610bf2565b600084828161062257fe5b049695505050505050565b60008282018381101561014a5760405162461bcd60e51b815260040161041890610bbd565b600061014a83836040518060400160405280601e81526020017f536166654d6174683a207375627472616374696f6e206f766572666c6f77000081525061098d565b6000816001600160a01b03166318160ddd6040518163ffffffff1660e01b815260040160206040518083038186803b1580156106cf57600080fd5b505afa1580156106e3573d6000803e3d6000fd5b505050506040513d601f19601f820116820180604052508101906107079190610abd565b90506000826001600160a01b031663c45a01556040518163ffffffff1660e01b815260040160206040518083038186803b15801561074457600080fd5b505afa158015610758573d6000803e3d6000fd5b505050506040513d601f19601f8201168201806040525081019061077c9190610a69565b6001600160a01b031663017e7e586040518163ffffffff1660e01b815260040160206040518083038186803b1580156107b457600080fd5b505afa1580156107c8573d6000803e3d6000fd5b505050506040513d601f19601f820116820180604052508101906107ec9190610a69565b90506001600160a01b03811615801590610986576000846001600160a01b0316637464fc3d6040518163ffffffff1660e01b815260040160206040518083038186803b15801561083b57600080fd5b505afa15801561084f573d6000803e3d6000fd5b505050506040513d601f19601f820116820180604052508101906108739190610abd565b9050801561098457600080866001600160a01b0316630902f1ac6040518163ffffffff1660e01b815260040160606040518083038186803b1580156108b757600080fd5b505afa1580156108cb573d6000803e3d6000fd5b505050506040513d601f19601f820116820180604052508101906108ef9190610ad5565b50909250905060006109176109106001600160701b038086169085166109b9565b60006109f3565b905060006109268560006109f3565b90508082111561097f57600061094661093f8484610652565b8a906109b9565b9050600061095f836109598660056109b9565b9061062d565b9050600081838161096c57fe5b0490506109798b8261062d565b9a505050505b505050505b505b5050919050565b600081848411156109b15760405162461bcd60e51b81526004016104189190610b6a565b505050900390565b6000826109c85750600061012c565b828202828482816109d557fe5b041461014a5760405162461bcd60e51b815260040161041890610c86565b60006003831115610a5a575081600160028204015b81811015610a54578091508215610a3657600281610a26868461058e565b0181610a2e57fe5b049050610a4f565b600281828681610a4257fe5b040181610a4b57fe5b0490505b610a08565b5061012c565b821561012c5750600192915050565b600060208284031215610a7a578081fd5b815161014a81610d80565b60008060408385031215610a97578081fd5b8235610aa281610d80565b91506020830135610ab281610d80565b809150509250929050565b600060208284031215610ace578081fd5b5051919050565b600080600060608486031215610ae9578081fd5b8351610af481610d98565b6020850151909350610b0581610d98565b604085015190925063ffffffff81168114610b1e578182fd5b809150509250925092565b60008060408385031215610b3b578182fd5b823591506020830135610ab281610d80565b6001600160a01b0391909116815260200190565b90815260200190565b6000602080835283518082850152825b81811015610b9657858101830151858201604001528201610b7a565b81811115610ba75783604083870101525b50601f01601f1916929092016040019392505050565b6020808252601b908201527a536166654d6174683a206164646974696f6e206f766572666c6f7760281b604082015260600190565b60208082526010908201526f11549497d1125597d25395115493905360821b604082015260600190565b60208082526021908201527f5369676e6564536166654d6174683a206469766973696f6e206f766572666c6f6040820152607760f81b606082015260800190565b6020808252600f908201526e283934b1b2903232bb34b0ba34b7b760891b604082015260600190565b60208082526021908201527f536166654d6174683a206d756c7469706c69636174696f6e206f766572666c6f6040820152607760f81b606082015260800190565b60208082526027908201527f5369676e6564536166654d6174683a206d756c7469706c69636174696f6e206f604082015266766572666c6f7760c81b606082015260800190565b6020808252600c908201526b4552525f4449565f5a45524f60a01b604082015260600190565b6020808252818101527f5369676e6564536166654d6174683a206469766973696f6e206279207a65726f604082015260600190565b9182526001600160a01b0316602082015260400190565b6001600160a01b0381168114610d9557600080fd5b50565b6001600160701b0381168114610d9557600080fdfea2646970667358221220600253b319b6ce4f7fc290247829aafaec3097cc22ae6372f1af35c1b3cfa11464736f6c634300060c0033",
    "linkReferences": {},
    "deployedLinkReferences": {}
}